{
  "_format": "hh-sol-artifact-1",
  "contractName": "FakeUSDC",
  "sourceName": "contracts/FakeUSDC.sol",
  "abi": [
    {
      "inputs": [],
      "stateMutability": "nonpayable",
      "type": "constructor"
    },
    {
      "inputs": [
        {
          "internalType": "address",
          "name": "spender",
          "type": "address"
        },
        {
          "internalType": "uint256",
          "name": "allowance",
          "type": "uint256"
        },
        {
          "internalType": "uint256",
          "name": "needed",
          "type": "uint256"
        }
      ],
      "name": "ERC20InsufficientAllowance",
      "type": "error"
    },
    {
      "inputs": [
        {
          "internalType": "address",
          "name": "sender",
          "type": "address"
        },
        {
          "internalType": "uint256",
          "name": "balance",
          "type": "uint256"
        },
        {
          "internalType": "uint256",
          "name": "needed",
          "type": "uint256"
        }
      ],
      "name": "ERC20InsufficientBalance",
      "type": "error"
    },
    {
      "inputs": [
        {
          "internalType": "address",
          "name": "approver",
          "type": "address"
        }
      ],
      "name": "ERC20InvalidApprover",
      "type": "error"
    },
    {
      "inputs": [
        {
          "internalType": "address",
          "name": "receiver",
          "type": "address"
        }
      ],
      "name": "ERC20InvalidReceiver",
      "type": "error"
    },
    {
      "inputs": [
        {
          "internalType": "address",
          "name": "sender",
          "type": "address"
        }
      ],
      "name": "ERC20InvalidSender",
      "type": "error"
    },
    {
      "inputs": [
        {
          "internalType": "address",
          "name": "spender",
          "type": "address"
        }
      ],
      "name": "ERC20InvalidSpender",
      "type": "error"
    },
    {
      "inputs": [
        {
          "internalType": "address",
          "name": "owner",
          "type": "address"
        }
      ],
      "name": "OwnableInvalidOwner",
      "type": "error"
    },
    {
      "inputs": [
        {
          "internalType": "address",
          "name": "account",
          "type": "address"
        }
      ],
      "name": "OwnableUnauthorizedAccount",
      "type": "error"
    },
    {
      "anonymous": false,
      "inputs": [
        {
          "indexed": true,
          "internalType": "address",
          "name": "owner",
          "type": "address"
        },
        {
          "indexed": true,
          "internalType": "address",
          "name": "spender",
          "type": "address"
        },
        {
          "indexed": false,
          "internalType": "uint256",
          "name": "value",
          "type": "uint256"
        }
      ],
      "name": "Approval",
      "type": "event"
    },
    {
      "anonymous": false,
      "inputs": [
        {
          "indexed": true,
          "internalType": "address",
          "name": "previousOwner",
          "type": "address"
        },
        {
          "indexed": true,
          "internalType": "address",
          "name": "newOwner",
          "type": "address"
        }
      ],
      "name": "OwnershipTransferred",
      "type": "event"
    },
    {
      "anonymous": false,
      "inputs": [
        {
          "indexed": true,
          "internalType": "address",
          "name": "from",
          "type": "address"
        },
        {
          "indexed": true,
          "internalType": "address",
          "name": "to",
          "type": "address"
        },
        {
          "indexed": false,
          "internalType": "uint256",
          "name": "value",
          "type": "uint256"
        }
      ],
      "name": "Transfer",
      "type": "event"
    },
    {
      "inputs": [],
      "name": "FAUCET_AMOUNT",
      "outputs": [
        {
          "internalType": "uint256",
          "name": "",
          "type": "uint256"
        }
      ],
      "stateMutability": "view",
      "type": "function"
    },
    {
      "inputs": [],
      "name": "FAUCET_COOLDOWN",
      "outputs": [
        {
          "internalType": "uint256",
          "name": "",
          "type": "uint256"
        }
      ],
      "stateMutability": "view",
      "type": "function"
    },
    {
      "inputs": [
        {
          "internalType": "address",
          "name": "owner",
          "type": "address"
        },
        {
          "internalType": "address",
          "name": "spender",
          "type": "address"
        }
      ],
      "name": "allowance",
      "outputs": [
        {
          "internalType": "uint256",
          "name": "",
          "type": "uint256"
        }
      ],
      "stateMutability": "view",
      "type": "function"
    },
    {
      "inputs": [
        {
          "internalType": "address",
          "name": "spender",
          "type": "address"
        },
        {
          "internalType": "uint256",
          "name": "value",
          "type": "uint256"
        }
      ],
      "name": "approve",
      "outputs": [
        {
          "internalType": "bool",
          "name": "",
          "type": "bool"
        }
      ],
      "stateMutability": "nonpayable",
      "type": "function"
    },
    {
      "inputs": [
        {
          "internalType": "address",
          "name": "account",
          "type": "address"
        }
      ],
      "name": "balanceOf",
      "outputs": [
        {
          "internalType": "uint256",
          "name": "",
          "type": "uint256"
        }
      ],
      "stateMutability": "view",
      "type": "function"
    },
    {
      "inputs": [
        {
          "internalType": "uint256",
          "name": "amount",
          "type": "uint256"
        }
      ],
      "name": "burn",
      "outputs": [],
      "stateMutability": "nonpayable",
      "type": "function"
    },
    {
      "inputs": [
        {
          "internalType": "address",
          "name": "user",
          "type": "address"
        }
      ],
      "name": "canClaimFaucet",
      "outputs": [
        {
          "internalType": "bool",
          "name": "canClaim",
          "type": "bool"
        },
        {
          "internalType": "uint256",
          "name": "timeUntilNextClaim",
          "type": "uint256"
        }
      ],
      "stateMutability": "view",
      "type": "function"
    },
    {
      "inputs": [],
      "name": "decimals",
      "outputs": [
        {
          "internalType": "uint8",
          "name": "",
          "type": "uint8"
        }
      ],
      "stateMutability": "view",
      "type": "function"
    },
    {
      "inputs": [],
      "name": "faucet",
      "outputs": [],
      "stateMutability": "nonpayable",
      "type": "function"
    },
    {
      "inputs": [
        {
          "internalType": "address",
          "name": "",
          "type": "address"
        }
      ],
      "name": "lastFaucetClaim",
      "outputs": [
        {
          "internalType": "uint256",
          "name": "",
          "type": "uint256"
        }
      ],
      "stateMutability": "view",
      "type": "function"
    },
    {
      "inputs": [
        {
          "internalType": "address",
          "name": "to",
          "type": "address"
        },
        {
          "internalType": "uint256",
          "name": "amount",
          "type": "uint256"
        }
      ],
      "name": "mint",
      "outputs": [],
      "stateMutability": "nonpayable",
      "type": "function"
    },
    {
      "inputs": [],
      "name": "name",
      "outputs": [
        {
          "internalType": "string",
          "name": "",
          "type": "string"
        }
      ],
      "stateMutability": "view",
      "type": "function"
    },
    {
      "inputs": [],
      "name": "owner",
      "outputs": [
        {
          "internalType": "address",
          "name": "",
          "type": "address"
        }
      ],
      "stateMutability": "view",
      "type": "function"
    },
    {
      "inputs": [],
      "name": "renounceOwnership",
      "outputs": [],
      "stateMutability": "nonpayable",
      "type": "function"
    },
    {
      "inputs": [],
      "name": "symbol",
      "outputs": [
        {
          "internalType": "string",
          "name": "",
          "type": "string"
        }
      ],
      "stateMutability": "view",
      "type": "function"
    },
    {
      "inputs": [],
      "name": "totalSupply",
      "outputs": [
        {
          "internalType": "uint256",
          "name": "",
          "type": "uint256"
        }
      ],
      "stateMutability": "view",
      "type": "function"
    },
    {
      "inputs": [
        {
          "internalType": "address",
          "name": "to",
          "type": "address"
        },
        {
          "internalType": "uint256",
          "name": "value",
          "type": "uint256"
        }
      ],
      "name": "transfer",
      "outputs": [
        {
          "internalType": "bool",
          "name": "",
          "type": "bool"
        }
      ],
      "stateMutability": "nonpayable",
      "type": "function"
    },
    {
      "inputs": [
        {
          "internalType": "address",
          "name": "from",
          "type": "address"
        },
        {
          "internalType": "address",
          "name": "to",
          "type": "address"
        },
        {
          "internalType": "uint256",
          "name": "value",
          "type": "uint256"
        }
      ],
      "name": "transferFrom",
      "outputs": [
        {
          "internalType": "bool",
          "name": "",
          "type": "bool"
        }
      ],
      "stateMutability": "nonpayable",
      "type": "function"
    },
    {
      "inputs": [
        {
          "internalType": "address",
          "name": "newOwner",
          "type": "address"
        }
      ],
      "name": "transferOwnership",
      "outputs": [],
      "stateMutability": "nonpayable",
      "type": "function"
    }
  ],
  "bytecode": "0x6080346200041e576040906001600160401b038183018181118382101762000320578352600d82526020906c2330b5b2902aa9a21021b7b4b760991b82840152835192848401848110838211176200032057855260059182855264665553444360d81b84860152815181811162000320576003908154906001948583811c9316801562000413575b88841014620003fd578190601f93848111620003a9575b508890848311600114620003425760009262000336575b505060001982851b1c191690851b1782555b8651928311620003205760049687548581811c9116801562000315575b888210146200030057828111620002b7575b50869184116001146200024c5793839491849260009562000240575b50501b92600019911b1c19161783555b33156200022957805460ff9190336001600160a01b0382167f8be0079c531659141344cd1fd0a4f28419497f9722a3daafe3b4186f6b6457e0600080a36001600160a81b0319163360a084811b199190911691909117600360a11b17918290551c16604d81116200021457600a0a91620f42409280840293840403620001ff5760025490838201809211620001ff57506000917fddf252ad1be2c89b69c2b068fc378daa952ba7f163c4a11628f55a4df523b3ef9160025533835282815284832084815401905584519384523393a351610bf29081620004248239f35b601190634e487b7160e01b6000525260246000fd5b601183634e487b7160e01b6000525260246000fd5b8351631e4fbdf760e01b8152600081850152602490fd5b01519350388062000112565b9190601f198416928860005284886000209460005b8a898383106200029f575050501062000284575b50505050811b01835562000122565b01519060f884600019921b161c191690553880808062000275565b86860151895590970196948501948893500162000261565b886000528760002083808701891c8201928a8810620002f6575b01881c019086905b828110620002e9575050620000f6565b60008155018690620002d9565b92508192620002d1565b602289634e487b7160e01b6000525260246000fd5b90607f1690620000e4565b634e487b7160e01b600052604160045260246000fd5b015190503880620000b5565b90879350601f19831691866000528a6000209260005b8c82821062000392575050841162000379575b505050811b018255620000c7565b015160001983871b60f8161c191690553880806200036b565b8385015186558b9790950194938401930162000358565b9091508460005288600020848085018a1c8201928b8610620003f3575b91899186959493018b1c01915b828110620003e35750506200009e565b60008155859450899101620003d3565b92508192620003c6565b634e487b7160e01b600052602260045260246000fd5b92607f169262000087565b600080fdfe6040608081526004908136101561001557600080fd5b600091823560e01c806301d8a296146108f957806306fdde031461081e578063095ea7b31461077557806318160ddd1461075657806323b872dd14610663578063313ce5671461063e57806340c10f19146105f857806342966c681461052957806370a08231146104f2578063715018a61461049257806376697640146104755780637d1d5d19146104575780638a8772051461041f5780638da5cb5b146103f657806395d89b41146102d6578063a9059cbb146102a5578063dd62ed3e1461025c578063de5f72fd146101845763f2fde38b146100f257600080fd5b346101805760203660031901126101805761010b61092b565b906101146109a5565b6001600160a01b0391821692831561016a575050600554826bffffffffffffffffffffffff60a01b821617600555167f8be0079c531659141344cd1fd0a4f28419497f9722a3daafe3b4186f6b6457e08380a380f35b51631e4fbdf760e01b8152908101849052602490fd5b8280fd5b5091903461025857816003193601126102585733825260066020528082205462015180810180911161024557421061020357338252600660205242908220556101d460ff60055460a01c16610aaf565b6103e890808202918204036101f0576101ed9033610ae9565b80f35b506011602492634e487b7160e01b835252fd5b5162461bcd60e51b8152602081840152601760248201527f46617563657420636f6f6c646f776e206e6f74206d65740000000000000000006044820152606490fd5b634e487b7160e01b835260118452602483fd5b5080fd5b5050346102585780600319360112610258578060209261027a61092b565b610282610946565b6001600160a01b0391821683526001865283832091168252845220549051908152f35b5050346102585780600319360112610258576020906102cf6102c561092b565b60243590336109d1565b5160018152f35b50919034610258578160031936011261025857805190828454600181811c908083169283156103ec575b60209384841081146103d9578388529081156103bd5750600114610368575b505050829003601f01601f191682019267ffffffffffffffff841183851017610355575082918261035192528261095c565b0390f35b634e487b7160e01b815260418552602490fd5b8787529192508591837f8a35acfbc15ff81a39ae7d344fd709f28e8600b4aa8c65c6b64bfe7fe36bd19b5b8385106103a9575050505083010138808061031f565b805488860183015293019284908201610393565b60ff1916878501525050151560051b840101905038808061031f565b634e487b7160e01b895260228a52602489fd5b91607f1691610300565b50503461025857816003193601126102585760055490516001600160a01b039091168152602090f35b5050346102585760203660031901126102585760209181906001600160a01b0361044761092b565b1681526006845220549051908152f35b50503461025857816003193601126102585760209051620151808152f35b505034610258578160031936011261025857602090516103e88152f35b83346104ef57806003193601126104ef576104ab6109a5565b600580546001600160a01b0319811690915581906001600160a01b03167f8be0079c531659141344cd1fd0a4f28419497f9722a3daafe3b4186f6b6457e08280a380f35b80fd5b5050346102585760203660031901126102585760209181906001600160a01b0361051a61092b565b16815280845220549051908152f35b509190346102585760203660031901126102585761055861055160ff60055460a01c16610aaf565b8435610ad6565b9033156105e2573383528260205280832054938285106105b757508183943385528460205203818420558160025403600255519081527fddf252ad1be2c89b69c2b068fc378daa952ba7f163c4a11628f55a4df523b3ef60203392a380f35b905163391434e360e21b81523391810191825260208201859052604082018390529081906060010390fd5b51634b637e8f60e11b8152808401839052602490fd5b505034610258573660031901126104ef576101ed61061461092b565b61061c6109a5565b61063861063060ff60055460a01c16610aaf565b602435610ad6565b90610ae9565b50503461025857816003193601126102585760209060ff60055460a01c169051908152f35b5082346104ef5760603660031901126104ef5761067e61092b565b610686610946565b916044359360018060a01b0383168083526001602052868320338452602052868320549160001983106106c2575b6020886102cf8989896109d1565b86831061072a5781156107135733156106fc575082526001602090815286832033845281529186902090859003905582906102cf876106b4565b8751634a1406b160e11b8152908101849052602490fd5b875163e602df0560e01b8152908101849052602490fd5b8751637dc7a0d960e11b8152339181019182526020820193909352604081018790528291506060010390fd5b5050346102585781600319360112610258576020906002549051908152f35b503461018057816003193601126101805761078e61092b565b602435903315610807576001600160a01b03169182156107f057508083602095338152600187528181208582528752205582519081527f8c5be1e5ebec7d5bd14f71427d1e84f3dd0314c0f7b2291e5b200ac8c7c3b925843392a35160018152f35b8351634a1406b160e11b8152908101859052602490fd5b835163e602df0560e01b8152808401869052602490fd5b5091903461025857816003193601126102585780519082600354600181811c908083169283156108ef575b60209384841081146103d9578388529081156103bd575060011461089957505050829003601f01601f191682019267ffffffffffffffff841183851017610355575082918261035192528261095c565b600387529192508591837fc2575a0e9e593c00f959f8c92f12db2869c3395a3b0502d05e2516446f71f85b5b8385106108db575050505083010138808061031f565b8054888601830152930192849082016108c5565b91607f1691610849565b8284346104ef5760203660031901126104ef575061091d61091861092b565b610b4a565b825191151582526020820152f35b600435906001600160a01b038216820361094157565b600080fd5b602435906001600160a01b038216820361094157565b6020808252825181830181905290939260005b82811061099157505060409293506000838284010152601f8019910116010190565b81810186015184820160400152850161096f565b6005546001600160a01b031633036109b957565b60405163118cdaa760e01b8152336004820152602490fd5b916001600160a01b03808416928315610a965716928315610a7d5760009083825281602052604082205490838210610a4b575091604082827fddf252ad1be2c89b69c2b068fc378daa952ba7f163c4a11628f55a4df523b3ef958760209652828652038282205586815220818154019055604051908152a3565b60405163391434e360e21b81526001600160a01b03919091166004820152602481019190915260448101839052606490fd5b60405163ec442f0560e01b815260006004820152602490fd5b604051634b637e8f60e11b815260006004820152602490fd5b60ff16604d8111610ac057600a0a90565b634e487b7160e01b600052601160045260246000fd5b81810292918115918404141715610ac057565b6001600160a01b0316908115610a7d5760025490808201809211610ac05760207fddf252ad1be2c89b69c2b068fc378daa952ba7f163c4a11628f55a4df523b3ef9160009360025584845283825260408420818154019055604051908152a3565b6001600160a01b03166000908152600660205260408120549091906201518080820191828111610ba857428311610b845750505060019190565b4290030192908311610b94579190565b634e487b7160e01b81526011600452602490fd5b634e487b7160e01b85526011600452602485fdfea2646970667358221220c9765d55e63ca5c1eded48498de62b584fb3371fbfc9fad98d570cdd8379198164736f6c63430008140033",
  "linkReferences": {},
  "deployedLinkReferences": {}
}