{
  "_format": "hh-sol-artifact-1",
  "contractName": "ROSCAFactory",
  "sourceName": "contracts/ROSCAFactory.sol",
  "abi": [
    {
      "inputs": [
        {
          "internalType": "address",
          "name": "_implementation",
          "type": "address"
        }
      ],
      "stateMutability": "nonpayable",
      "type": "constructor"
    },
    {
      "inputs": [],
      "name": "FailedDeployment",
      "type": "error"
    },
    {
      "inputs": [
        {
          "internalType": "uint256",
          "name": "balance",
          "type": "uint256"
        },
        {
          "internalType": "uint256",
          "name": "needed",
          "type": "uint256"
        }
      ],
      "name": "InsufficientBalance",
      "type": "error"
    },
    {
      "inputs": [
        {
          "internalType": "address",
          "name": "owner",
          "type": "address"
        }
      ],
      "name": "OwnableInvalidOwner",
      "type": "error"
    },
    {
      "inputs": [
        {
          "internalType": "address",
          "name": "account",
          "type": "address"
        }
      ],
      "name": "OwnableUnauthorizedAccount",
      "type": "error"
    },
    {
      "inputs": [],
      "name": "ReentrancyGuardReentrantCall",
      "type": "error"
    },
    {
      "anonymous": false,
      "inputs": [
        {
          "indexed": false,
          "internalType": "uint256",
          "name": "oldFee",
          "type": "uint256"
        },
        {
          "indexed": false,
          "internalType": "uint256",
          "name": "newFee",
          "type": "uint256"
        }
      ],
      "name": "CreationFeeUpdated",
      "type": "event"
    },
    {
      "anonymous": false,
      "inputs": [
        {
          "indexed": true,
          "internalType": "address",
          "name": "previousOwner",
          "type": "address"
        },
        {
          "indexed": true,
          "internalType": "address",
          "name": "newOwner",
          "type": "address"
        }
      ],
      "name": "OwnershipTransferred",
      "type": "event"
    },
    {
      "anonymous": false,
      "inputs": [
        {
          "indexed": true,
          "internalType": "uint256",
          "name": "roscaId",
          "type": "uint256"
        },
        {
          "indexed": true,
          "internalType": "address",
          "name": "creator",
          "type": "address"
        },
        {
          "indexed": true,
          "internalType": "address",
          "name": "roscaAddress",
          "type": "address"
        },
        {
          "indexed": false,
          "internalType": "string",
          "name": "name",
          "type": "string"
        },
        {
          "indexed": false,
          "internalType": "address",
          "name": "token",
          "type": "address"
        },
        {
          "indexed": false,
          "internalType": "uint256",
          "name": "contributionAmount",
          "type": "uint256"
        },
        {
          "indexed": false,
          "internalType": "uint256",
          "name": "maxMembers",
          "type": "uint256"
        }
      ],
      "name": "ROSCACreated",
      "type": "event"
    },
    {
      "anonymous": false,
      "inputs": [
        {
          "indexed": true,
          "internalType": "uint256",
          "name": "roscaId",
          "type": "uint256"
        },
        {
          "indexed": false,
          "internalType": "string",
          "name": "reason",
          "type": "string"
        }
      ],
      "name": "ROSCADeactivated",
      "type": "event"
    },
    {
      "inputs": [
        {
          "internalType": "address",
          "name": "_token",
          "type": "address"
        },
        {
          "internalType": "uint256",
          "name": "_contributionAmount",
          "type": "uint256"
        },
        {
          "internalType": "uint256",
          "name": "_roundDuration",
          "type": "uint256"
        },
        {
          "internalType": "uint256",
          "name": "_maxMembers",
          "type": "uint256"
        }
      ],
      "name": "createROSCA",
      "outputs": [
        {
          "internalType": "address",
          "name": "",
          "type": "address"
        }
      ],
      "stateMutability": "payable",
      "type": "function"
    },
    {
      "inputs": [],
      "name": "creationFee",
      "outputs": [
        {
          "internalType": "uint256",
          "name": "",
          "type": "uint256"
        }
      ],
      "stateMutability": "view",
      "type": "function"
    },
    {
      "inputs": [
        {
          "internalType": "uint256",
          "name": "_roscaId",
          "type": "uint256"
        },
        {
          "internalType": "string",
          "name": "_reason",
          "type": "string"
        }
      ],
      "name": "deactivateROSCA",
      "outputs": [],
      "stateMutability": "nonpayable",
      "type": "function"
    },
    {
      "inputs": [
        {
          "internalType": "uint256",
          "name": "",
          "type": "uint256"
        }
      ],
      "name": "deployedROSCAs",
      "outputs": [
        {
          "internalType": "address",
          "name": "roscaAddress",
          "type": "address"
        },
        {
          "internalType": "address",
          "name": "creator",
          "type": "address"
        },
        {
          "internalType": "uint256",
          "name": "creationTime",
          "type": "uint256"
        },
        {
          "internalType": "string",
          "name": "name",
          "type": "string"
        },
        {
          "internalType": "address",
          "name": "token",
          "type": "address"
        },
        {
          "internalType": "uint256",
          "name": "contributionAmount",
          "type": "uint256"
        },
        {
          "internalType": "uint256",
          "name": "maxMembers",
          "type": "uint256"
        },
        {
          "internalType": "bool",
          "name": "isActive",
          "type": "bool"
        }
      ],
      "stateMutability": "view",
      "type": "function"
    },
    {
      "inputs": [],
      "name": "emergencyWithdraw",
      "outputs": [],
      "stateMutability": "nonpayable",
      "type": "function"
    },
    {
      "inputs": [],
      "name": "feeCollector",
      "outputs": [
        {
          "internalType": "address",
          "name": "",
          "type": "address"
        }
      ],
      "stateMutability": "view",
      "type": "function"
    },
    {
      "inputs": [],
      "name": "getActiveROSCACount",
      "outputs": [
        {
          "internalType": "uint256",
          "name": "",
          "type": "uint256"
        }
      ],
      "stateMutability": "view",
      "type": "function"
    },
    {
      "inputs": [],
      "name": "getFactoryStats",
      "outputs": [
        {
          "internalType": "uint256",
          "name": "totalCreated",
          "type": "uint256"
        },
        {
          "internalType": "uint256",
          "name": "activeCount",
          "type": "uint256"
        },
        {
          "internalType": "uint256",
          "name": "creationFeeAmount",
          "type": "uint256"
        },
        {
          "internalType": "address",
          "name": "implementationAddress",
          "type": "address"
        }
      ],
      "stateMutability": "view",
      "type": "function"
    },
    {
      "inputs": [
        {
          "internalType": "uint256",
          "name": "_roscaId",
          "type": "uint256"
        }
      ],
      "name": "getROSCADetails",
      "outputs": [
        {
          "internalType": "address",
          "name": "roscaAddress",
          "type": "address"
        },
        {
          "internalType": "address",
          "name": "creator",
          "type": "address"
        },
        {
          "internalType": "uint256",
          "name": "creationTime",
          "type": "uint256"
        },
        {
          "internalType": "string",
          "name": "name",
          "type": "string"
        },
        {
          "internalType": "address",
          "name": "token",
          "type": "address"
        },
        {
          "internalType": "uint256",
          "name": "contributionAmount",
          "type": "uint256"
        },
        {
          "internalType": "uint256",
          "name": "maxMembers",
          "type": "uint256"
        },
        {
          "internalType": "bool",
          "name": "isActive",
          "type": "bool"
        }
      ],
      "stateMutability": "view",
      "type": "function"
    },
    {
      "inputs": [
        {
          "internalType": "address",
          "name": "_user",
          "type": "address"
        }
      ],
      "name": "getUserROSCAs",
      "outputs": [
        {
          "internalType": "uint256[]",
          "name": "",
          "type": "uint256[]"
        }
      ],
      "stateMutability": "view",
      "type": "function"
    },
    {
      "inputs": [],
      "name": "owner",
      "outputs": [
        {
          "internalType": "address",
          "name": "",
          "type": "address"
        }
      ],
      "stateMutability": "view",
      "type": "function"
    },
    {
      "inputs": [],
      "name": "renounceOwnership",
      "outputs": [],
      "stateMutability": "nonpayable",
      "type": "function"
    },
    {
      "inputs": [],
      "name": "roscaImplementation",
      "outputs": [
        {
          "internalType": "address",
          "name": "",
          "type": "address"
        }
      ],
      "stateMutability": "view",
      "type": "function"
    },
    {
      "inputs": [],
      "name": "totalROSCAsCreated",
      "outputs": [
        {
          "internalType": "uint256",
          "name": "",
          "type": "uint256"
        }
      ],
      "stateMutability": "view",
      "type": "function"
    },
    {
      "inputs": [
        {
          "internalType": "address",
          "name": "newOwner",
          "type": "address"
        }
      ],
      "name": "transferOwnership",
      "outputs": [],
      "stateMutability": "nonpayable",
      "type": "function"
    },
    {
      "inputs": [
        {
          "internalType": "uint256",
          "name": "_newFee",
          "type": "uint256"
        }
      ],
      "name": "updateCreationFee",
      "outputs": [],
      "stateMutability": "nonpayable",
      "type": "function"
    },
    {
      "inputs": [
        {
          "internalType": "address",
          "name": "_newFeeCollector",
          "type": "address"
        }
      ],
      "name": "updateFeeCollector",
      "outputs": [],
      "stateMutability": "nonpayable",
      "type": "function"
    },
    {
      "inputs": [
        {
          "internalType": "address",
          "name": "",
          "type": "address"
        },
        {
          "internalType": "uint256",
          "name": "",
          "type": "uint256"
        }
      ],
      "name": "userROSCAs",
      "outputs": [
        {
          "internalType": "uint256",
          "name": "",
          "type": "uint256"
        }
      ],
      "stateMutability": "view",
      "type": "function"
    },
    {
      "stateMutability": "payable",
      "type": "receive"
    }
  ],
  "bytecode": "0x60a060405266038d7ea4c6800060055534801561001b57600080fd5b50604051620016c7380380620016c783398101604081905261003c9161013a565b338061006357604051631e4fbdf760e01b8152600060048201526024015b60405180910390fd5b61006c816100ea565b50600180556001600160a01b0381166100c75760405162461bcd60e51b815260206004820152601e60248201527f496e76616c696420696d706c656d656e746174696f6e20616464726573730000604482015260640161005a565b6001600160a01b0316608052600680546001600160a01b0319163317905561016a565b600080546001600160a01b038381166001600160a01b0319831681178455604051919092169283917f8be0079c531659141344cd1fd0a4f28419497f9722a3daafe3b4186f6b6457e09190a35050565b60006020828403121561014c57600080fd5b81516001600160a01b038116811461016357600080fd5b9392505050565b6080516115336200019460003960008181610239015281816105610152610aff01526115336000f3fe60806040526004361061010d5760003560e01c8063c415b95c11610095578063db2e21bc11610064578063db2e21bc14610319578063db76d5331461032e578063dce0b4e414610343578063dfc5b7db14610359578063f2fde38b1461037957600080fd5b8063c415b95c1461027b578063c603e9731461029b578063c9226445146102bb578063d2c35ce8146102f957600080fd5b80636fa23795116100dc5780636fa23795146101d2578063715018a6146101f45780638da5cb5b14610209578063aab050d814610227578063ac9aaa2a1461025b57600080fd5b8063207eba9914610119578063253423ac1461014f5780633173dab71461017a5780636859dd6e146101ae57600080fd5b3661011457005b600080fd5b34801561012557600080fd5b50610139610134366004611059565b610399565b604051610146919061107b565b60405180910390f35b61016261015d3660046110bf565b610405565b6040516001600160a01b039091168152602001610146565b34801561018657600080fd5b5061019a6101953660046110f8565b610862565b604051610146989796959493929190611161565b3480156101ba57600080fd5b506101c460025481565b604051908152602001610146565b3480156101de57600080fd5b506101f26101ed3660046110f8565b610971565b005b34801561020057600080fd5b506101f26109be565b34801561021557600080fd5b506000546001600160a01b0316610162565b34801561023357600080fd5b506101627f000000000000000000000000000000000000000000000000000000000000000081565b34801561026757600080fd5b5061019a6102763660046110f8565b6109d2565b34801561028757600080fd5b50600654610162906001600160a01b031681565b3480156102a757600080fd5b506101c46102b63660046111bf565b610ab8565b3480156102c757600080fd5b506102d0610ae9565b604080519485526020850193909352918301526001600160a01b03166060820152608001610146565b34801561030557600080fd5b506101f2610314366004611059565b610b2c565b34801561032557600080fd5b506101f2610ba4565b34801561033a57600080fd5b506101c4610c5b565b34801561034f57600080fd5b506101c460055481565b34801561036557600080fd5b506101f26103743660046111e9565b610caa565b34801561038557600080fd5b506101f2610394366004611059565b610db1565b6001600160a01b0381166000908152600460209081526040918290208054835181840281018401909452808452606093928301828280156103f957602002820191906000526020600020905b8154815260200190600101908083116103e5575b50505050509050919050565b600061040f610dec565b6005543410156104665760405162461bcd60e51b815260206004820152601960248201527f496e73756666696369656e74206372656174696f6e206665650000000000000060448201526064015b60405180910390fd5b60028210156104b75760405162461bcd60e51b815260206004820152601760248201527f4e656564206174206c656173742032206d656d62657273000000000000000000604482015260640161045d565b6201518083101561050a5760405162461bcd60e51b815260206004820152601860248201527f526f756e64206475726174696f6e20746f6f2073686f72740000000000000000604482015260640161045d565b6000841161055a5760405162461bcd60e51b815260206004820152601f60248201527f436f6e747269627574696f6e20616d6f756e74206d757374206265203e203000604482015260640161045d565b600061058e7f00000000000000000000000000000000000000000000000000000000000000006001600160a01b0316610e16565b604051636c28e34960e01b81526001600160a01b03888116600483015260248201889052604482018790526064820186905233608483015291925090821690636c28e3499060a401600060405180830381600087803b1580156105f057600080fd5b505af1158015610604573d6000803e3d6000fd5b5050600280546000935091508261061a8361127b565b919050559050600061062b82610e29565b60405160200161063b9190611294565b60408051601f19818403018152610100830182526001600160a01b03808716845233602085810191825242868601908152606087018581528f8516608089015260a088018f905260c088018d9052600160e0890181905260008b815260039485905297909720885181549087166001600160a01b0319918216178255945197810180549890961697909416969096179093559151600282015592519194508201906106e6908261135c565b506080820151600482810180546001600160a01b0319166001600160a01b039093169290921790915560a0830151600583015560c0830151600683015560e0909201516007909101805460ff191691151591909117905533600090815260209182526040812080546001810182559082529190200182905534156107ff576006546040516000916001600160a01b03169034908381818185875af1925050503d80600081146107b1576040519150601f19603f3d011682016040523d82523d6000602084013e6107b6565b606091505b50509050806107fd5760405162461bcd60e51b8152602060048201526013602482015272119959481d1c985b9cd9995c8819985a5b1959606a1b604482015260640161045d565b505b826001600160a01b0316336001600160a01b0316837f1b1b671cffa95fbc16baba6325184278f6c7cf89547ade16bfed77418756cfc2848c8c8b604051610849949392919061141c565b60405180910390a450506001805590505b949350505050565b60008181526003602081905260408220805460018201546002830154600484015460058501546006860154600787015497870180548a998a996060998b998a998a998a9994986001600160a01b03948516989385169792969395949091169392909160ff9091169085906108d5906112d9565b80601f0160208091040260200160405190810160405280929190818152602001828054610901906112d9565b801561094e5780601f106109235761010080835404028352916020019161094e565b820191906000526020600020905b81548152906001019060200180831161093157829003601f168201915b505050505094509850985098509850985098509850985050919395975091939597565b610979610f2a565b600580549082905560408051828152602081018490527f5de302eeb1c80d4fb0c0953b692353f09ddf431411b8eb2034d5e85769561912910160405180910390a15050565b6109c6610f2a565b6109d06000610f57565b565b600360208190526000918252604090912080546001820154600283015493830180546001600160a01b0393841695939092169391610a0f906112d9565b80601f0160208091040260200160405190810160405280929190818152602001828054610a3b906112d9565b8015610a885780601f10610a5d57610100808354040283529160200191610a88565b820191906000526020600020905b815481529060010190602001808311610a6b57829003601f168201915b5050505060048301546005840154600685015460079095015493946001600160a01b039092169390925060ff1688565b60046020528160005260406000208181548110610ad457600080fd5b90600052602060002001600091509150505481565b600080600080600254610afa610c5b565b6005547f0000000000000000000000000000000000000000000000000000000000000000935093509350935090919293565b610b34610f2a565b6001600160a01b038116610b825760405162461bcd60e51b815260206004820152601560248201527424b73b30b634b2103332b29031b7b63632b1ba37b960591b604482015260640161045d565b600680546001600160a01b0319166001600160a01b0392909216919091179055565b610bac610f2a565b478015610c5857600080546040516001600160a01b039091169083908381818185875af1925050503d8060008114610c00576040519150601f19603f3d011682016040523d82523d6000602084013e610c05565b606091505b5050905080610c565760405162461bcd60e51b815260206004820152601b60248201527f456d657267656e6379207769746864726177616c206661696c65640000000000604482015260640161045d565b505b50565b600080805b600254811015610ca45760008181526003602052604090206007015460ff1615610c925781610c8e8161127b565b9250505b80610c9c8161127b565b915050610c60565b50919050565b600083815260036020526040902080546001600160a01b0316610d015760405162461bcd60e51b815260206004820152600f60248201526e1493d4d0d0481b9bdd08199bdd5b99608a1b604482015260640161045d565b60018101546001600160a01b0316331480610d2657506000546001600160a01b031633145b610d635760405162461bcd60e51b815260206004820152600e60248201526d139bdd08185d5d1a1bdc9a5e995960921b604482015260640161045d565b60078101805460ff1916905560405184907f7b8e24d7fa66d1672375506b58cb3c85f8a5c107c38d8875a5ab333371254af390610da39086908690611454565b60405180910390a250505050565b610db9610f2a565b6001600160a01b038116610de357604051631e4fbdf760e01b81526000600482015260240161045d565b610c5881610f57565b600260015403610e0f57604051633ee5aeb560e01b815260040160405180910390fd5b6002600155565b6000610e23826000610fa7565b92915050565b606081600003610e505750506040805180820190915260018152600360fc1b602082015290565b8160005b8115610e7a5780610e648161127b565b9150610e739050600a83611499565b9150610e54565b60008167ffffffffffffffff811115610e9557610e956112c3565b6040519080825280601f01601f191660200182016040528015610ebf576020820181803683370190505b5090505b841561085a57610ed46001836114ad565b9150610ee1600a866114c0565b610eec9060306114d4565b60f81b818381518110610f0157610f016114e7565b60200101906001600160f81b031916908160001a905350610f23600a86611499565b9450610ec3565b6000546001600160a01b031633146109d05760405163118cdaa760e01b815233600482015260240161045d565b600080546001600160a01b038381166001600160a01b0319831681178455604051919092169283917f8be0079c531659141344cd1fd0a4f28419497f9722a3daafe3b4186f6b6457e09190a35050565b600081471015610fd35760405163cf47918160e01b81524760048201526024810183905260440161045d565b763d602d80600a3d3981f3363d3d373d3d3d363d730000008360601b60e81c176000526e5af43d82803e903d91602b57fd5bf38360781b176020526037600983f090506001600160a01b038116610e235760405163b06ebf3d60e01b815260040160405180910390fd5b80356001600160a01b038116811461105457600080fd5b919050565b60006020828403121561106b57600080fd5b6110748261103d565b9392505050565b6020808252825182820181905260009190848201906040850190845b818110156110b357835183529284019291840191600101611097565b50909695505050505050565b600080600080608085870312156110d557600080fd5b6110de8561103d565b966020860135965060408601359560600135945092505050565b60006020828403121561110a57600080fd5b5035919050565b60005b8381101561112c578181015183820152602001611114565b50506000910152565b6000815180845261114d816020860160208601611111565b601f01601f19169290920160200192915050565b6001600160a01b038981168252888116602083015260408201889052610100606083018190526000916111968483018a611135565b97166080840152505060a081019390935260c0830191909152151560e090910152949350505050565b600080604083850312156111d257600080fd5b6111db8361103d565b946020939093013593505050565b6000806000604084860312156111fe57600080fd5b83359250602084013567ffffffffffffffff8082111561121d57600080fd5b818601915086601f83011261123157600080fd5b81358181111561124057600080fd5b87602082850101111561125257600080fd5b6020830194508093505050509250925092565b634e487b7160e01b600052601160045260246000fd5b60006001820161128d5761128d611265565b5060010190565b66524f534341202360c81b8152600082516112b6816007850160208701611111565b9190910160070192915050565b634e487b7160e01b600052604160045260246000fd5b600181811c908216806112ed57607f821691505b602082108103610ca457634e487b7160e01b600052602260045260246000fd5b601f82111561135757600081815260208120601f850160051c810160208610156113345750805b601f850160051c820191505b8181101561135357828155600101611340565b5050505b505050565b815167ffffffffffffffff811115611376576113766112c3565b61138a8161138484546112d9565b8461130d565b602080601f8311600181146113bf57600084156113a75750858301515b600019600386901b1c1916600185901b178555611353565b600085815260208120601f198616915b828110156113ee578886015182559484019460019091019084016113cf565b508582101561140c5787850151600019600388901b60f8161c191681555b5050505050600190811b01905550565b60808152600061142f6080830187611135565b6001600160a01b03959095166020830152506040810192909252606090910152919050565b60208152816020820152818360408301376000818301604090810191909152601f909201601f19160101919050565b634e487b7160e01b600052601260045260246000fd5b6000826114a8576114a8611483565b500490565b81810381811115610e2357610e23611265565b6000826114cf576114cf611483565b500690565b80820180821115610e2357610e23611265565b634e487b7160e01b600052603260045260246000fdfea26469706673582212203c0d2ecdcd3276cba98f9af158cf41b11bb456ccfc200ebc265d512179c91ce364736f6c63430008140033",
  "linkReferences": {},
  "deployedLinkReferences": {}
}