{
  "_format": "hh-sol-artifact-1",
  "contractName": "ROSCA",
  "sourceName": "contracts/Rosca.sol",
  "abi": [
    {
      "anonymous": false,
      "inputs": [
        {
          "indexed": true,
          "internalType": "uint256",
          "name": "id",
          "type": "uint256"
        },
        {
          "indexed": true,
          "internalType": "address",
          "name": "member",
          "type": "address"
        },
        {
          "indexed": false,
          "internalType": "uint256",
          "name": "amount",
          "type": "uint256"
        }
      ],
      "name": "Contrib",
      "type": "event"
    },
    {
      "anonymous": false,
      "inputs": [
        {
          "indexed": true,
          "internalType": "uint256",
          "name": "id",
          "type": "uint256"
        },
        {
          "indexed": true,
          "internalType": "address",
          "name": "creator",
          "type": "address"
        },
        {
          "indexed": true,
          "internalType": "address",
          "name": "token",
          "type": "address"
        },
        {
          "indexed": false,
          "internalType": "uint256",
          "name": "contribution",
          "type": "uint256"
        },
        {
          "indexed": false,
          "internalType": "uint256",
          "name": "roundLength",
          "type": "uint256"
        },
        {
          "indexed": false,
          "internalType": "uint8",
          "name": "maxMembers",
          "type": "uint8"
        }
      ],
      "name": "Created",
      "type": "event"
    },
    {
      "anonymous": false,
      "inputs": [
        {
          "indexed": true,
          "internalType": "uint256",
          "name": "disputeId",
          "type": "uint256"
        },
        {
          "indexed": true,
          "internalType": "uint256",
          "name": "groupId",
          "type": "uint256"
        },
        {
          "indexed": true,
          "internalType": "address",
          "name": "complainant",
          "type": "address"
        },
        {
          "indexed": false,
          "internalType": "address",
          "name": "defendant",
          "type": "address"
        },
        {
          "indexed": false,
          "internalType": "string",
          "name": "reason",
          "type": "string"
        }
      ],
      "name": "DisputeCreated",
      "type": "event"
    },
    {
      "anonymous": false,
      "inputs": [
        {
          "indexed": true,
          "internalType": "uint256",
          "name": "disputeId",
          "type": "uint256"
        },
        {
          "indexed": false,
          "internalType": "bool",
          "name": "upheld",
          "type": "bool"
        }
      ],
      "name": "DisputeResolved",
      "type": "event"
    },
    {
      "anonymous": false,
      "inputs": [
        {
          "indexed": true,
          "internalType": "uint256",
          "name": "disputeId",
          "type": "uint256"
        },
        {
          "indexed": true,
          "internalType": "address",
          "name": "voter",
          "type": "address"
        },
        {
          "indexed": false,
          "internalType": "bool",
          "name": "support",
          "type": "bool"
        }
      ],
      "name": "DisputeVoted",
      "type": "event"
    },
    {
      "anonymous": false,
      "inputs": [
        {
          "indexed": true,
          "internalType": "uint256",
          "name": "id",
          "type": "uint256"
        },
        {
          "indexed": false,
          "internalType": "bool",
          "name": "isActive",
          "type": "bool"
        }
      ],
      "name": "GroupStatusChanged",
      "type": "event"
    },
    {
      "anonymous": false,
      "inputs": [
        {
          "indexed": true,
          "internalType": "uint256",
          "name": "id",
          "type": "uint256"
        },
        {
          "indexed": true,
          "internalType": "address",
          "name": "member",
          "type": "address"
        }
      ],
      "name": "Joined",
      "type": "event"
    },
    {
      "anonymous": false,
      "inputs": [
        {
          "indexed": true,
          "internalType": "uint256",
          "name": "id",
          "type": "uint256"
        },
        {
          "indexed": true,
          "internalType": "address",
          "name": "member",
          "type": "address"
        }
      ],
      "name": "Leave",
      "type": "event"
    },
    {
      "anonymous": false,
      "inputs": [
        {
          "indexed": true,
          "internalType": "uint256",
          "name": "id",
          "type": "uint256"
        },
        {
          "indexed": true,
          "internalType": "address",
          "name": "recipient",
          "type": "address"
        },
        {
          "indexed": false,
          "internalType": "uint256",
          "name": "amount",
          "type": "uint256"
        },
        {
          "indexed": false,
          "internalType": "uint8",
          "name": "round",
          "type": "uint8"
        }
      ],
      "name": "Payout",
      "type": "event"
    },
    {
      "anonymous": false,
      "inputs": [
        {
          "indexed": true,
          "internalType": "uint256",
          "name": "id",
          "type": "uint256"
        },
        {
          "indexed": false,
          "internalType": "uint256",
          "name": "newLength",
          "type": "uint256"
        },
        {
          "indexed": false,
          "internalType": "uint256",
          "name": "activates",
          "type": "uint256"
        }
      ],
      "name": "RoundLenChangeScheduled",
      "type": "event"
    },
    {
      "inputs": [
        {
          "internalType": "uint256",
          "name": "gid",
          "type": "uint256"
        }
      ],
      "name": "contribute",
      "outputs": [],
      "stateMutability": "payable",
      "type": "function"
    },
    {
      "inputs": [
        {
          "internalType": "uint256",
          "name": "gid",
          "type": "uint256"
        },
        {
          "internalType": "address",
          "name": "defendant",
          "type": "address"
        },
        {
          "internalType": "string",
          "name": "reason",
          "type": "string"
        }
      ],
      "name": "createDispute",
      "outputs": [
        {
          "internalType": "uint256",
          "name": "disputeId",
          "type": "uint256"
        }
      ],
      "stateMutability": "nonpayable",
      "type": "function"
    },
    {
      "inputs": [
        {
          "internalType": "address",
          "name": "_token",
          "type": "address"
        },
        {
          "internalType": "uint96",
          "name": "_contribution",
          "type": "uint96"
        },
        {
          "internalType": "uint40",
          "name": "_roundLength",
          "type": "uint40"
        },
        {
          "internalType": "uint8",
          "name": "_maxMembers",
          "type": "uint8"
        }
      ],
      "name": "createGroup",
      "outputs": [
        {
          "internalType": "uint256",
          "name": "gid",
          "type": "uint256"
        }
      ],
      "stateMutability": "payable",
      "type": "function"
    },
    {
      "inputs": [],
      "name": "disputeCount",
      "outputs": [
        {
          "internalType": "uint256",
          "name": "",
          "type": "uint256"
        }
      ],
      "stateMutability": "view",
      "type": "function"
    },
    {
      "inputs": [
        {
          "internalType": "uint256",
          "name": "",
          "type": "uint256"
        }
      ],
      "name": "disputes",
      "outputs": [
        {
          "internalType": "uint256",
          "name": "groupId",
          "type": "uint256"
        },
        {
          "internalType": "address",
          "name": "complainant",
          "type": "address"
        },
        {
          "internalType": "address",
          "name": "defendant",
          "type": "address"
        },
        {
          "internalType": "string",
          "name": "reason",
          "type": "string"
        },
        {
          "internalType": "enum ROSCA.DisputeStatus",
          "name": "status",
          "type": "uint8"
        },
        {
          "internalType": "uint256",
          "name": "createdAt",
          "type": "uint256"
        },
        {
          "internalType": "uint256",
          "name": "votesFor",
          "type": "uint256"
        },
        {
          "internalType": "uint256",
          "name": "votesAgainst",
          "type": "uint256"
        }
      ],
      "stateMutability": "view",
      "type": "function"
    },
    {
      "inputs": [
        {
          "internalType": "uint256",
          "name": "disputeId",
          "type": "uint256"
        }
      ],
      "name": "getDispute",
      "outputs": [
        {
          "internalType": "uint256",
          "name": "groupId",
          "type": "uint256"
        },
        {
          "internalType": "address",
          "name": "complainant",
          "type": "address"
        },
        {
          "internalType": "address",
          "name": "defendant",
          "type": "address"
        },
        {
          "internalType": "string",
          "name": "reason",
          "type": "string"
        },
        {
          "internalType": "uint8",
          "name": "status",
          "type": "uint8"
        },
        {
          "internalType": "uint256",
          "name": "createdAt",
          "type": "uint256"
        },
        {
          "internalType": "uint256",
          "name": "votesFor",
          "type": "uint256"
        },
        {
          "internalType": "uint256",
          "name": "votesAgainst",
          "type": "uint256"
        }
      ],
      "stateMutability": "view",
      "type": "function"
    },
    {
      "inputs": [
        {
          "internalType": "uint256",
          "name": "gid",
          "type": "uint256"
        }
      ],
      "name": "getGroupDetails",
      "outputs": [
        {
          "components": [
            {
              "internalType": "uint40",
              "name": "id",
              "type": "uint40"
            },
            {
              "internalType": "uint40",
              "name": "roundLength",
              "type": "uint40"
            },
            {
              "internalType": "uint40",
              "name": "nextDue",
              "type": "uint40"
            },
            {
              "internalType": "address",
              "name": "token",
              "type": "address"
            },
            {
              "internalType": "uint96",
              "name": "contribution",
              "type": "uint96"
            },
            {
              "internalType": "uint8",
              "name": "currentRound",
              "type": "uint8"
            },
            {
              "internalType": "uint8",
              "name": "maxMembers",
              "type": "uint8"
            },
            {
              "internalType": "bool",
              "name": "isActive",
              "type": "bool"
            },
            {
              "internalType": "address",
              "name": "creator",
              "type": "address"
            },
            {
              "internalType": "uint256",
              "name": "memberCount",
              "type": "uint256"
            },
            {
              "internalType": "uint256",
              "name": "totalPaidOut",
              "type": "uint256"
            },
            {
              "internalType": "uint256",
              "name": "groupDisputeCount",
              "type": "uint256"
            }
          ],
          "internalType": "struct GroupView",
          "name": "",
          "type": "tuple"
        }
      ],
      "stateMutability": "view",
      "type": "function"
    },
    {
      "inputs": [
        {
          "internalType": "uint256",
          "name": "gid",
          "type": "uint256"
        }
      ],
      "name": "getGroupMembers",
      "outputs": [
        {
          "internalType": "address[]",
          "name": "",
          "type": "address[]"
        }
      ],
      "stateMutability": "view",
      "type": "function"
    },
    {
      "inputs": [],
      "name": "groupCount",
      "outputs": [
        {
          "internalType": "uint256",
          "name": "",
          "type": "uint256"
        }
      ],
      "stateMutability": "view",
      "type": "function"
    },
    {
      "inputs": [
        {
          "internalType": "uint256",
          "name": "",
          "type": "uint256"
        }
      ],
      "name": "groups",
      "outputs": [
        {
          "internalType": "uint40",
          "name": "id",
          "type": "uint40"
        },
        {
          "internalType": "uint40",
          "name": "roundLength",
          "type": "uint40"
        },
        {
          "internalType": "uint40",
          "name": "nextDue",
          "type": "uint40"
        },
        {
          "internalType": "address",
          "name": "token",
          "type": "address"
        },
        {
          "internalType": "uint96",
          "name": "contribution",
          "type": "uint96"
        },
        {
          "internalType": "uint8",
          "name": "currentRound",
          "type": "uint8"
        },
        {
          "internalType": "uint8",
          "name": "maxMembers",
          "type": "uint8"
        },
        {
          "internalType": "bool",
          "name": "isActive",
          "type": "bool"
        },
        {
          "internalType": "address",
          "name": "creator",
          "type": "address"
        },
        {
          "internalType": "uint256",
          "name": "memberCount",
          "type": "uint256"
        },
        {
          "internalType": "uint256",
          "name": "totalPaidOut",
          "type": "uint256"
        },
        {
          "internalType": "uint256",
          "name": "groupDisputeCount",
          "type": "uint256"
        },
        {
          "internalType": "uint40",
          "name": "newRoundLength",
          "type": "uint40"
        },
        {
          "internalType": "uint40",
          "name": "changeActivates",
          "type": "uint40"
        }
      ],
      "stateMutability": "view",
      "type": "function"
    },
    {
      "inputs": [
        {
          "internalType": "uint256",
          "name": "disputeId",
          "type": "uint256"
        },
        {
          "internalType": "address",
          "name": "voter",
          "type": "address"
        }
      ],
      "name": "hasVotedOnDispute",
      "outputs": [
        {
          "internalType": "bool",
          "name": "",
          "type": "bool"
        }
      ],
      "stateMutability": "view",
      "type": "function"
    },
    {
      "inputs": [
        {
          "internalType": "uint256",
          "name": "gid",
          "type": "uint256"
        }
      ],
      "name": "joinGroup",
      "outputs": [],
      "stateMutability": "payable",
      "type": "function"
    },
    {
      "inputs": [
        {
          "internalType": "uint256",
          "name": "gid",
          "type": "uint256"
        },
        {
          "internalType": "address",
          "name": "member",
          "type": "address"
        }
      ],
      "name": "kickMember",
      "outputs": [],
      "stateMutability": "nonpayable",
      "type": "function"
    },
    {
      "inputs": [
        {
          "internalType": "uint256",
          "name": "gid",
          "type": "uint256"
        }
      ],
      "name": "leaveGroup",
      "outputs": [],
      "stateMutability": "nonpayable",
      "type": "function"
    },
    {
      "inputs": [
        {
          "internalType": "uint256",
          "name": "gid",
          "type": "uint256"
        }
      ],
      "name": "rageQuit",
      "outputs": [],
      "stateMutability": "nonpayable",
      "type": "function"
    },
    {
      "inputs": [
        {
          "internalType": "uint256",
          "name": "gid",
          "type": "uint256"
        },
        {
          "internalType": "uint40",
          "name": "newLen",
          "type": "uint40"
        }
      ],
      "name": "scheduleRoundLength",
      "outputs": [],
      "stateMutability": "nonpayable",
      "type": "function"
    },
    {
      "inputs": [
        {
          "internalType": "uint256",
          "name": "gid",
          "type": "uint256"
        },
        {
          "internalType": "bool",
          "name": "_isActive",
          "type": "bool"
        }
      ],
      "name": "setGroupStatus",
      "outputs": [],
      "stateMutability": "nonpayable",
      "type": "function"
    },
    {
      "inputs": [
        {
          "internalType": "uint256",
          "name": "disputeId",
          "type": "uint256"
        },
        {
          "internalType": "bool",
          "name": "support",
          "type": "bool"
        }
      ],
      "name": "voteOnDispute",
      "outputs": [],
      "stateMutability": "nonpayable",
      "type": "function"
    }
  ],
  "bytecode": "0x6080806040523461001657611d21908161001c8239f35b600080fdfe6080604052600436101561001257600080fd5b60003560e01c806333471df5146116e157806336cc813014611619578063564a565d1461157057806365f969f61461144b57806370cb0c5014611123578063721b877614610d835780638649cc7114610cf75780638f23b32614610cd957806396324bd414610c015780639de5e76a14610a17578063a28889e1146109f9578063a4f5df121461081e578063bd0e667c1461063e578063c1cbbca7146104f7578063c3a8fb3414610499578063d047ba3a1461037a578063e3a96cbd146102af5763eed02e4b146100e257600080fd5b6020806003193601126102aa576004356100ff6002548210611b4c565b8060005260008252604060002091600283015461012160ff8260101c16611b8f565b60078401933360005284835260ff6040600020541661027257600381019160ff83549160081c16111561023d579060098260017fb48432d11d752c70ca1285f1694027925770caee068f8a63bd561cee738c421995940196875460018060a01b03811615610229575b5033600052845260406000209260ff19936001858254161790556101b133600a8401611b24565b6101bb8154611ada565b90558654336000526008820185526101dc60406000209160a01c8254611ae9565b90553360005201825260016040600020918254161790556040519333847fc0081eeafa0d002abcd7d58d84b6e688d1526b9c3d915a282212ba08c49a17a7600080a35460a01c84523393a3005b6102379060a01c3414611a82565b3861018a565b60405162461bcd60e51b815260048101849052600d60248201526c11dc9bdd5c081a5cc8199d5b1b609a1b6044820152606490fd5b60405162461bcd60e51b815260048101849052601060248201526f20b63932b0b23c90309036b2b6b132b960811b6044820152606490fd5b600080fd5b346102aa5760203660031901126102aa576004356102d06003548210611ca6565b60005260016020526040600020805460018060a01b039182600182015416926002820154169060ff60048201541691600483101561036457600582015461034b600684015492610327600360078701549601611967565b90604051988998895260208901526040880152610100806060890152870190611a0d565b93608086015260a085015260c084015260e08301520390f35b634e487b7160e01b600052602160045260246000fd5b346102aa5760403660031901126102aa5760043560243564ffffffffff8082168092036102aa578260005260006020526103c860018060a01b0360026040600020015460181c163314611c62565b811561045d577f3af0691376f2273ff685cbb860eb0febf6503e61ae043ebdf9e82f1e78da7511916040918460005260006020528260002061044b826104268160068501948764ffffffffff198754161786555460281c1642611ae9565b835469ffffffffff00000000001916911660281b69ffffffffff000000000016178255565b5460281c1682519182526020820152a2005b60405162461bcd60e51b8152602060048201526014602482015273092dcecc2d8d2c840e4deeadcc840d8cadccee8d60631b6044820152606490fd5b346102aa5760403660031901126102aa576004356104b5611a4d565b906104c36003548210611ca6565b600052600160205260086040600020019060018060a01b0316600052602052602060ff604060002054166040519015158152f35b6020806003193601126102aa576004358060005260008252600760406000200133600052825261052e60ff60406000205416611bd1565b8060005260008252604060002061054e60ff600283015460101c16611b8f565b600981013360005280845260ff604060002054166105f9576001820180547fb48432d11d752c70ca1285f1694027925770caee068f8a63bd561cee738c4219939192916008906001600160a01b038316156105e6575b336000520186526105be60406000209160a01c8254611ae9565b90553360005284526040600020600160ff198254161790555460a01c926040519384523393a3005b6105f48360a01c3414611a82565b6105a4565b60405162461bcd60e51b815260048101859052601e60248201527f416c726561647920636f6e7472696275746564207468697320726f756e6400006044820152606490fd5b346102aa5760403660031901126102aa5760043561065a611a4d565b816000526020916000835260018060a01b036106848160026040600020015460181c163314611c62565b816000526000845260406000209281600785019116948560005281815260ff60406000205416156107eb573386146107b0578560005252604060002060ff1981541690556003928381016106d88154611c12565b9055600a0160005b8154808210156107a55786846106f68486611af6565b905490891b1c1614610711575061070c90611ada565b6106e0565b6000959293949519810190811161078f5761076894610763936107376107449387611af6565b9054911b1c169184611af6565b90919082549060031b9160018060a01b03809116831b921b1916179055565b611c1f565b7fe1a5f763ba0fcc4eb5de6b27b4d1c98d436f84455cc77908a79fa0d5b076ab2d600080a3005b634e487b7160e01b600052601160045260246000fd5b505050509050610768565b6064906040519062461bcd60e51b82526004820152601460248201527321b0b73737ba1035b4b1b5903cb7bab939b2b63360611b6044820152fd5b6064906040519062461bcd60e51b82526004820152600c60248201526b2737ba10309036b2b6b132b960a11b6044820152fd5b346102aa5761082c36611a63565b9061083a6003548210611ca6565b80600052602060018152604060002060ff6004820154166004811015610364576001036109bf57600881013360005280835260ff6040600020541661098a5781546000526000835260076040600020013360005283526108a160ff60406000205416611bd1565b6001820154336001600160a01b0391821614159081610979575b501561093457907f910296c2d7f214e2d62a9c4e6e403cc9c5ac4585d96830dbf018e51c75fd082692913360005282526040600020600160ff1982541617905584600014610920576006016109108154611ada565b90555b60405193151584523393a3005b60070161092d8154611ada565b9055610913565b60405162461bcd60e51b815260048101849052601a60248201527f43616e6e6f7420766f7465206f6e206f776e20646973707574650000000000006044820152606490fd5b9050600283015416331415866108bb565b60405162461bcd60e51b815260048101849052600d60248201526c105b1c9958591e481d9bdd1959609a1b6044820152606490fd5b60405162461bcd60e51b815260048101839052601260248201527144697370757465206e6f742061637469766560701b6044820152606490fd5b346102aa5760003660031901126102aa576020600354604051908152f35b346102aa5760203660031901126102aa576004356000610160604051610a3c81611912565b8281528260208201528260408201528260608201528260808201528260a08201528260c08201528260e08201528261010082015282610120820152826101408201520152610a8d6002548210611b4c565b600052600060205261018060406000206101608154916001810154906002810154906003810154600560048301549201549260405194610acc86611912565b64ffffffffff8816865264ffffffffff8860281c16602087015264ffffffffff8860501c16604087015260018060a01b038116606087015260a01c608086015260ff811660a086015260ff8160081c1660c086015260ff8160101c16151560e086015260018060a01b039060181c166101008501526101208401526101408301528282015264ffffffffff6040519316835264ffffffffff602082015116602084015264ffffffffff604082015116604084015260018060a01b0360608201511660608401526001600160601b03608082015116608084015260ff60a08201511660a084015260ff60c08201511660c084015260e0810151151560e084015260018060a01b03610100820151166101008401526101208101516101208401526101408101516101408401520151610160820152f35b346102aa5760203660031901126102aa5760043560005260006020526101c0604060002080546001820154600283015492600381015460048201549060066005840154930154936040519664ffffffffff87818099168a52818160281c1660208b015260501c16604089015260018060a01b039182811660608a015260a01c608089015260ff811660a089015260ff8160081c1660c089015260ff8160101c16151560e089015260181c1661010087015261012086015261014085015261016084015281811661018084015260281c166101a0820152f35b346102aa5760003660031901126102aa576020600254604051908152f35b346102aa5760207fff8c2d2e63957bab874d9ca5d6346941e30498584c608d392cbda1d7b4a85c51610d2836611a63565b8160009492945260008252610d5160018060a01b0360026040600020015460181c163314611c62565b8360005260008252600260406000200190151590805462ff00008360101b169062ff00001916179055604051908152a2005b346102aa5760603660031901126102aa57610d9c611a4d565b67ffffffffffffffff80604435116102aa573660236044350112156102aa5760443560040135116102aa576024903682604435600401356044350101116102aa576004356000526000602052600760406000200133600052602052610e0860ff60406000205416611bd1565b6004356000526000602052600760406000200160018060a01b03821660005260205260ff60406000205416156110e6576001600160a01b03811633146110a25760035490610e5582611ada565b6003558160005260016020526040600020926004358455600184016001600160601b0360a01b903382825416179055600285019060018060a01b03841690825416179055610ea660038501546118d8565b93601f851161104b575b602094506000601f6044356004013511600114610fc1578260009160443560040135610fb2575b50506044356004013560011b906000196044356004013560031b1c19161760038201555b60048101600160ff19825416179055600542910155600435600052600084526005604060002001610f2c8154611ada565b9055604080516001600160a01b03909316835284830181905260046044359081013591840182905290910160608301376000606060443560040135830101523390827f9aa7f961d449c9d85c37435d8c5d901477931ad97d51f48a6a278911166d158660043592606081601f19601f6044356004013501168101030190a4604051908152f35b60443501013590508287610ed7565b60038201600052856000209060005b60046044350135601f19168110611030575060046044350135601f1981161061100c575b5050600160443560040135811b016003820155610efb565b8360001960f86044356004013560031b161c19916044350101351690558580610ff4565b90918760018192878660443501013581550193019101610fd0565b600381016000526020600020601f604435600401350160051c81019560206044356004013510611098575b601f0160051c01945b85811061108c5750610eb0565b6000815560010161107f565b9095508590611076565b60405162461bcd60e51b8152602060048201526017818401527f43616e6e6f74206469737075746520796f757273656c660000000000000000006044820152606490fd5b60405162461bcd60e51b815260206004820152601681840152752232b332b73230b73a103737ba10309036b2b6b132b960511b6044820152606490fd5b60803660031901126102aa576004356001600160a01b038116908190036102aa576024356001600160601b0381168082036102aa576044359264ffffffffff808516908186036102aa576064359060ff8216918281036102aa5785156114065783156113c1576002831015806113b6575b1561137b57841561136b575b600254966111ad88611ada565b600255876000526111fa60209960008b526040600020948a1664ffffffffff19865416178555849069ffffffffff000000000082549160281b169069ffffffffff00000000001916179055565b6112048542611ae9565b835464ffffffffff60501b191660509190911b64ffffffffff60501b1617835560a01b6001600160a01b031916851760018084019190915560028301805460089390931b61ff001662ffffff199093169290921762010001176301000000600160b81b03191633601881901b6301000000600160b81b031691909117909255600383018190556000828152600784018a5260409020805460ff199081169092179055916009916112b790600a8301611b24565b3360005260088101895286604060002055018752600160406000209182541617905560405191848352868301526040820152837f60ecd745d601b8d99cee443ce42caa7c671391023aa3ce0898e712f5ff0b10cf60603393a46040519033837fc0081eeafa0d002abcd7d58d84b6e688d1526b9c3d915a282212ba08c49a17a7600080a38152817fb48432d11d752c70ca1285f1694027925770caee068f8a63bd561cee738c4219843393a3604051908152f35b611376863414611a82565b6111a0565b60405162461bcd60e51b8152602060048201526013602482015272496e76616c6964206d6178206d656d6265727360681b6044820152606490fd5b506032831115611194565b60405162461bcd60e51b815260206004820152601860248201527f526f756e64206c656e677468206d757374206265203e203000000000000000006044820152606490fd5b60405162461bcd60e51b815260206004820152601860248201527f436f6e747269627574696f6e206d757374206265203e203000000000000000006044820152606490fd5b346102aa576020806003193601126102aa57600435908160005260008152600760406000200133600052815261148860ff60406000205416611bd1565b816000526000815260406000209033600052600782018152604060002060ff1981541690556003918281016114bd8154611c12565b9055600a81019060005b825480821015611562576114db8285611af6565b90546001600160a01b0391881b1c811633146115015750506114fc90611ada565b6114c7565b94956000198201959394929091861161078f5761074461152b946107639361073760089987611af6565b336000520190526000604081205533907fe1a5f763ba0fcc4eb5de6b27b4d1c98d436f84455cc77908a79fa0d5b076ab2d600080a3005b50509050600891925061152b565b346102aa5760203660031901126102aa576004356000526001602052604060002080549060018060a01b038060018301541690600283015416906115b660038401611967565b926115f560ff60048301541694600583015494600760068501549401549460405198895260208901526040880152610100806060890152870190611a0d565b926004851015610364578594608086015260a085015260c084015260e08301520390f35b346102aa576020806003193601126102aa5760043561163b6002548210611b4c565b60005260008152600a60406000200160405190818382549182815201908192600052846000209060005b868282106116c457868661167b82880383611945565b604051928392818401908285525180915260408401929160005b8281106116a457505050500390f35b83516001600160a01b031685528695509381019392810192600101611695565b83546001600160a01b031685529093019260019283019201611665565b346102aa576020806003193601126102aa57600435908160005260008152600760406000200133600052815261171e60ff60406000205416611bd1565b816000526000815260406000206001908160ff6002830154161161188457819233600052600782018152604060002060ff19815416905560038083016117648154611c12565b9055600a83016000855b61180e575b5050509091503360005260088201905260406000209081549283159283156117bf575b33867fe1a5f763ba0fcc4eb5de6b27b4d1c98d436f84455cc77908a79fa0d5b076ab2d600080a3005b6000905501546001600160a01b0316156117dc575b808080611796565b600080809381938290611805575b3390f1156117f95781806117d4565b6040513d6000823e3d90fd5b506108fc6117ea565b81548082101561187e576118228284611af6565b90546001600160a01b039291861b1c8216331461184a57505061184490611ada565b8561176e565b9596509394919291600019810190811161078f5761187394610763936107376107449387611af6565b908291858080611773565b50611773565b60405162461bcd60e51b815260048101849052602660248201527f43616e6e6f74206c6561766520616674657220726f756e6473206861766520736044820152651d185c9d195960d21b6064820152608490fd5b90600182811c92168015611908575b60208310146118f257565b634e487b7160e01b600052602260045260246000fd5b91607f16916118e7565b610180810190811067ffffffffffffffff82111761192f57604052565b634e487b7160e01b600052604160045260246000fd5b90601f8019910116810190811067ffffffffffffffff82111761192f57604052565b906040519182600082549261197b846118d8565b9081845260019485811690816000146119ea57506001146119a7575b50506119a592500383611945565b565b9093915060005260209081600020936000915b8183106119d25750506119a593508201013880611997565b855488840185015294850194879450918301916119ba565b9150506119a594506020925060ff191682840152151560051b8201013880611997565b919082519283825260005b848110611a39575050826000602080949584010152601f8019910116010190565b602081830181015184830182015201611a18565b602435906001600160a01b03821682036102aa57565b60409060031901126102aa576004359060243580151581036102aa5790565b15611a8957565b60405162461bcd60e51b815260206004820152602360248201527f4d7573742073656e6420657861637420636f6e747269627574696f6e20616d6f6044820152621d5b9d60ea1b6064820152608490fd5b600019811461078f5760010190565b9190820180921161078f57565b8054821015611b0e5760005260206000200190600090565b634e487b7160e01b600052603260045260246000fd5b908154916801000000000000000083101561192f57826107449160016119a595018155611af6565b15611b5357565b60405162461bcd60e51b815260206004820152601460248201527311dc9bdd5c08191bd95cc81b9bdd08195e1a5cdd60621b6044820152606490fd5b15611b9657565b60405162461bcd60e51b815260206004820152601360248201527247726f7570206973206e6f742061637469766560681b6044820152606490fd5b15611bd857565b60405162461bcd60e51b81526020600482015260126024820152712737ba10309033b937bab81036b2b6b132b960711b6044820152606490fd5b801561078f576000190190565b80548015611c4c576000190190611c368282611af6565b81549060018060a01b039060031b1b1916905555565b634e487b7160e01b600052603160045260246000fd5b15611c6957565b60405162461bcd60e51b81526020600482015260156024820152742737ba103a34329033b937bab81031b932b0ba37b960591b6044820152606490fd5b15611cad57565b60405162461bcd60e51b8152602060048201526016602482015275111a5cdc1d5d1948191bd95cc81b9bdd08195e1a5cdd60521b6044820152606490fdfea2646970667358221220a0ba6cd8d55bda80705a82c1845c1269f05add5d1bbd8a4a6ff4090bf32a0b3364736f6c63430008140033",
  "linkReferences": {},
  "deployedLinkReferences": {}
}