{
	"ChamaGamification.sol": {
		"ChamaGamification": {
			"abi": [
				{
					"inputs": [],
					"stateMutability": "nonpayable",
					"type": "constructor"
				},
				{
					"inputs": [],
					"name": "AccessControlBadConfirmation",
					"type": "error"
				},
				{
					"inputs": [
						{
							"internalType": "address",
							"name": "account",
							"type": "address"
						},
						{
							"internalType": "bytes32",
							"name": "neededRole",
							"type": "bytes32"
						}
					],
					"name": "AccessControlUnauthorizedAccount",
					"type": "error"
				},
				{
					"inputs": [],
					"name": "AchievementNotValid",
					"type": "error"
				},
				{
					"inputs": [],
					"name": "InvalidReferrer",
					"type": "error"
				},
				{
					"inputs": [],
					"name": "InviteAlreadyGenerated",
					"type": "error"
				},
				{
					"inputs": [],
					"name": "ProfileAlreadyExists",
					"type": "error"
				},
				{
					"inputs": [],
					"name": "ProfileNotFound",
					"type": "error"
				},
				{
					"inputs": [],
					"name": "UnauthorizedCaller",
					"type": "error"
				},
				{
					"anonymous": false,
					"inputs": [
						{
							"indexed": true,
							"internalType": "address",
							"name": "user",
							"type": "address"
						},
						{
							"indexed": false,
							"internalType": "string",
							"name": "achievement",
							"type": "string"
						},
						{
							"indexed": false,
							"internalType": "uint256",
							"name": "points",
							"type": "uint256"
						}
					],
					"name": "AchievementUnlocked",
					"type": "event"
				},
				{
					"anonymous": false,
					"inputs": [
						{
							"indexed": true,
							"internalType": "address",
							"name": "referrer",
							"type": "address"
						},
						{
							"indexed": true,
							"internalType": "address",
							"name": "newUser",
							"type": "address"
						}
					],
					"name": "InviteAccepted",
					"type": "event"
				},
				{
					"anonymous": false,
					"inputs": [
						{
							"indexed": true,
							"internalType": "address",
							"name": "user",
							"type": "address"
						},
						{
							"indexed": false,
							"internalType": "bytes32",
							"name": "inviteHash",
							"type": "bytes32"
						}
					],
					"name": "InviteGenerated",
					"type": "event"
				},
				{
					"anonymous": false,
					"inputs": [
						{
							"indexed": false,
							"internalType": "address",
							"name": "account",
							"type": "address"
						}
					],
					"name": "Paused",
					"type": "event"
				},
				{
					"anonymous": false,
					"inputs": [
						{
							"indexed": true,
							"internalType": "address",
							"name": "user",
							"type": "address"
						},
						{
							"indexed": false,
							"internalType": "string",
							"name": "username",
							"type": "string"
						}
					],
					"name": "ProfileCreated",
					"type": "event"
				},
				{
					"anonymous": false,
					"inputs": [
						{
							"indexed": true,
							"internalType": "address",
							"name": "user",
							"type": "address"
						},
						{
							"indexed": false,
							"internalType": "string",
							"name": "username",
							"type": "string"
						}
					],
					"name": "ProfileUpdated",
					"type": "event"
				},
				{
					"anonymous": false,
					"inputs": [
						{
							"indexed": true,
							"internalType": "bytes32",
							"name": "role",
							"type": "bytes32"
						},
						{
							"indexed": true,
							"internalType": "bytes32",
							"name": "previousAdminRole",
							"type": "bytes32"
						},
						{
							"indexed": true,
							"internalType": "bytes32",
							"name": "newAdminRole",
							"type": "bytes32"
						}
					],
					"name": "RoleAdminChanged",
					"type": "event"
				},
				{
					"anonymous": false,
					"inputs": [
						{
							"indexed": true,
							"internalType": "bytes32",
							"name": "role",
							"type": "bytes32"
						},
						{
							"indexed": true,
							"internalType": "address",
							"name": "account",
							"type": "address"
						},
						{
							"indexed": true,
							"internalType": "address",
							"name": "sender",
							"type": "address"
						}
					],
					"name": "RoleGranted",
					"type": "event"
				},
				{
					"anonymous": false,
					"inputs": [
						{
							"indexed": true,
							"internalType": "bytes32",
							"name": "role",
							"type": "bytes32"
						},
						{
							"indexed": true,
							"internalType": "address",
							"name": "account",
							"type": "address"
						},
						{
							"indexed": true,
							"internalType": "address",
							"name": "sender",
							"type": "address"
						}
					],
					"name": "RoleRevoked",
					"type": "event"
				},
				{
					"anonymous": false,
					"inputs": [
						{
							"indexed": true,
							"internalType": "address",
							"name": "user",
							"type": "address"
						},
						{
							"indexed": false,
							"internalType": "uint256",
							"name": "newScore",
							"type": "uint256"
						},
						{
							"indexed": false,
							"internalType": "string",
							"name": "reason",
							"type": "string"
						}
					],
					"name": "ScoreUpdated",
					"type": "event"
				},
				{
					"anonymous": false,
					"inputs": [
						{
							"indexed": false,
							"internalType": "address",
							"name": "account",
							"type": "address"
						}
					],
					"name": "Unpaused",
					"type": "event"
				},
				{
					"inputs": [],
					"name": "ADMIN_ROLE",
					"outputs": [
						{
							"internalType": "bytes32",
							"name": "",
							"type": "bytes32"
						}
					],
					"stateMutability": "view",
					"type": "function"
				},
				{
					"inputs": [],
					"name": "CHAMA_CORE_ROLE",
					"outputs": [
						{
							"internalType": "bytes32",
							"name": "",
							"type": "bytes32"
						}
					],
					"stateMutability": "view",
					"type": "function"
				},
				{
					"inputs": [],
					"name": "DEFAULT_ADMIN_ROLE",
					"outputs": [
						{
							"internalType": "bytes32",
							"name": "",
							"type": "bytes32"
						}
					],
					"stateMutability": "view",
					"type": "function"
				},
				{
					"inputs": [
						{
							"internalType": "bytes32",
							"name": "_referrerHash",
							"type": "bytes32"
						}
					],
					"name": "acceptInvite",
					"outputs": [],
					"stateMutability": "nonpayable",
					"type": "function"
				},
				{
					"inputs": [
						{
							"internalType": "string",
							"name": "",
							"type": "string"
						}
					],
					"name": "achievementPoints",
					"outputs": [
						{
							"internalType": "uint256",
							"name": "",
							"type": "uint256"
						}
					],
					"stateMutability": "view",
					"type": "function"
				},
				{
					"inputs": [
						{
							"internalType": "address",
							"name": "",
							"type": "address"
						},
						{
							"internalType": "uint256",
							"name": "",
							"type": "uint256"
						}
					],
					"name": "achievements",
					"outputs": [
						{
							"internalType": "string",
							"name": "name",
							"type": "string"
						},
						{
							"internalType": "string",
							"name": "description",
							"type": "string"
						},
						{
							"internalType": "uint256",
							"name": "points",
							"type": "uint256"
						},
						{
							"internalType": "uint256",
							"name": "unlockedAt",
							"type": "uint256"
						}
					],
					"stateMutability": "view",
					"type": "function"
				},
				{
					"inputs": [
						{
							"internalType": "string",
							"name": "_name",
							"type": "string"
						},
						{
							"internalType": "uint256",
							"name": "_points",
							"type": "uint256"
						}
					],
					"name": "addAchievement",
					"outputs": [],
					"stateMutability": "nonpayable",
					"type": "function"
				},
				{
					"inputs": [
						{
							"internalType": "address",
							"name": "_user",
							"type": "address"
						},
						{
							"internalType": "uint256",
							"name": "_points",
							"type": "uint256"
						},
						{
							"internalType": "string",
							"name": "_reason",
							"type": "string"
						}
					],
					"name": "addScore",
					"outputs": [],
					"stateMutability": "nonpayable",
					"type": "function"
				},
				{
					"inputs": [
						{
							"internalType": "string",
							"name": "_username",
							"type": "string"
						},
						{
							"internalType": "bytes32",
							"name": "_emailHash",
							"type": "bytes32"
						}
					],
					"name": "createProfile",
					"outputs": [],
					"stateMutability": "nonpayable",
					"type": "function"
				},
				{
					"inputs": [
						{
							"internalType": "bytes32",
							"name": "_inviteHash",
							"type": "bytes32"
						}
					],
					"name": "findAddressByInviteHash",
					"outputs": [
						{
							"internalType": "address",
							"name": "",
							"type": "address"
						}
					],
					"stateMutability": "view",
					"type": "function"
				},
				{
					"inputs": [
						{
							"internalType": "string",
							"name": "_username",
							"type": "string"
						},
						{
							"internalType": "bytes32",
							"name": "_emailHash",
							"type": "bytes32"
						}
					],
					"name": "generateInvite",
					"outputs": [],
					"stateMutability": "nonpayable",
					"type": "function"
				},
				{
					"inputs": [
						{
							"internalType": "string",
							"name": "_achievementName",
							"type": "string"
						}
					],
					"name": "getAchievementPoints",
					"outputs": [
						{
							"internalType": "uint256",
							"name": "",
							"type": "uint256"
						}
					],
					"stateMutability": "view",
					"type": "function"
				},
				{
					"inputs": [
						{
							"internalType": "address",
							"name": "_user",
							"type": "address"
						}
					],
					"name": "getReferralCount",
					"outputs": [
						{
							"internalType": "uint256",
							"name": "",
							"type": "uint256"
						}
					],
					"stateMutability": "view",
					"type": "function"
				},
				{
					"inputs": [
						{
							"internalType": "bytes32",
							"name": "role",
							"type": "bytes32"
						}
					],
					"name": "getRoleAdmin",
					"outputs": [
						{
							"internalType": "bytes32",
							"name": "",
							"type": "bytes32"
						}
					],
					"stateMutability": "view",
					"type": "function"
				},
				{
					"inputs": [
						{
							"internalType": "address",
							"name": "_user",
							"type": "address"
						}
					],
					"name": "getUserAchievements",
					"outputs": [
						{
							"components": [
								{
									"internalType": "string",
									"name": "name",
									"type": "string"
								},
								{
									"internalType": "string",
									"name": "description",
									"type": "string"
								},
								{
									"internalType": "uint256",
									"name": "points",
									"type": "uint256"
								},
								{
									"internalType": "uint256",
									"name": "unlockedAt",
									"type": "uint256"
								}
							],
							"internalType": "struct ChamaGamification.Achievement[]",
							"name": "",
							"type": "tuple[]"
						}
					],
					"stateMutability": "view",
					"type": "function"
				},
				{
					"inputs": [
						{
							"internalType": "address",
							"name": "_user",
							"type": "address"
						}
					],
					"name": "getUserInviteHash",
					"outputs": [
						{
							"internalType": "bytes32",
							"name": "",
							"type": "bytes32"
						}
					],
					"stateMutability": "view",
					"type": "function"
				},
				{
					"inputs": [
						{
							"internalType": "address",
							"name": "_user",
							"type": "address"
						}
					],
					"name": "getUserProfile",
					"outputs": [
						{
							"components": [
								{
									"internalType": "address",
									"name": "userAddress",
									"type": "address"
								},
								{
									"internalType": "string",
									"name": "username",
									"type": "string"
								},
								{
									"internalType": "bytes32",
									"name": "emailHash",
									"type": "bytes32"
								},
								{
									"internalType": "uint256",
									"name": "createdAt",
									"type": "uint256"
								},
								{
									"internalType": "bool",
									"name": "isActive",
									"type": "bool"
								}
							],
							"internalType": "struct ChamaGamification.Profile",
							"name": "",
							"type": "tuple"
						}
					],
					"stateMutability": "view",
					"type": "function"
				},
				{
					"inputs": [
						{
							"internalType": "address",
							"name": "_user",
							"type": "address"
						}
					],
					"name": "getUserReferrals",
					"outputs": [
						{
							"internalType": "address[]",
							"name": "",
							"type": "address[]"
						}
					],
					"stateMutability": "view",
					"type": "function"
				},
				{
					"inputs": [
						{
							"internalType": "address",
							"name": "_user",
							"type": "address"
						}
					],
					"name": "getUserScore",
					"outputs": [
						{
							"internalType": "uint256",
							"name": "",
							"type": "uint256"
						}
					],
					"stateMutability": "view",
					"type": "function"
				},
				{
					"inputs": [
						{
							"internalType": "bytes32",
							"name": "role",
							"type": "bytes32"
						},
						{
							"internalType": "address",
							"name": "account",
							"type": "address"
						}
					],
					"name": "grantRole",
					"outputs": [],
					"stateMutability": "nonpayable",
					"type": "function"
				},
				{
					"inputs": [
						{
							"internalType": "bytes32",
							"name": "role",
							"type": "bytes32"
						},
						{
							"internalType": "address",
							"name": "account",
							"type": "address"
						}
					],
					"name": "hasRole",
					"outputs": [
						{
							"internalType": "bool",
							"name": "",
							"type": "bool"
						}
					],
					"stateMutability": "view",
					"type": "function"
				},
				{
					"inputs": [
						{
							"internalType": "address",
							"name": "",
							"type": "address"
						}
					],
					"name": "invitations",
					"outputs": [
						{
							"internalType": "bytes32",
							"name": "",
							"type": "bytes32"
						}
					],
					"stateMutability": "view",
					"type": "function"
				},
				{
					"inputs": [
						{
							"internalType": "address",
							"name": "",
							"type": "address"
						}
					],
					"name": "inviteCount",
					"outputs": [
						{
							"internalType": "uint256",
							"name": "",
							"type": "uint256"
						}
					],
					"stateMutability": "view",
					"type": "function"
				},
				{
					"inputs": [
						{
							"internalType": "bytes32",
							"name": "",
							"type": "bytes32"
						}
					],
					"name": "inviteHashToAddress",
					"outputs": [
						{
							"internalType": "address",
							"name": "",
							"type": "address"
						}
					],
					"stateMutability": "view",
					"type": "function"
				},
				{
					"inputs": [
						{
							"internalType": "string",
							"name": "_achievementName",
							"type": "string"
						}
					],
					"name": "isValidAchievement",
					"outputs": [
						{
							"internalType": "bool",
							"name": "",
							"type": "bool"
						}
					],
					"stateMutability": "view",
					"type": "function"
				},
				{
					"inputs": [],
					"name": "pause",
					"outputs": [],
					"stateMutability": "nonpayable",
					"type": "function"
				},
				{
					"inputs": [],
					"name": "paused",
					"outputs": [
						{
							"internalType": "bool",
							"name": "",
							"type": "bool"
						}
					],
					"stateMutability": "view",
					"type": "function"
				},
				{
					"inputs": [
						{
							"internalType": "address",
							"name": "",
							"type": "address"
						}
					],
					"name": "profiles",
					"outputs": [
						{
							"internalType": "address",
							"name": "userAddress",
							"type": "address"
						},
						{
							"internalType": "string",
							"name": "username",
							"type": "string"
						},
						{
							"internalType": "bytes32",
							"name": "emailHash",
							"type": "bytes32"
						},
						{
							"internalType": "uint256",
							"name": "createdAt",
							"type": "uint256"
						},
						{
							"internalType": "bool",
							"name": "isActive",
							"type": "bool"
						}
					],
					"stateMutability": "view",
					"type": "function"
				},
				{
					"inputs": [
						{
							"internalType": "address",
							"name": "",
							"type": "address"
						},
						{
							"internalType": "uint256",
							"name": "",
							"type": "uint256"
						}
					],
					"name": "referrals",
					"outputs": [
						{
							"internalType": "address",
							"name": "",
							"type": "address"
						}
					],
					"stateMutability": "view",
					"type": "function"
				},
				{
					"inputs": [
						{
							"internalType": "bytes32",
							"name": "role",
							"type": "bytes32"
						},
						{
							"internalType": "address",
							"name": "callerConfirmation",
							"type": "address"
						}
					],
					"name": "renounceRole",
					"outputs": [],
					"stateMutability": "nonpayable",
					"type": "function"
				},
				{
					"inputs": [
						{
							"internalType": "bytes32",
							"name": "role",
							"type": "bytes32"
						},
						{
							"internalType": "address",
							"name": "account",
							"type": "address"
						}
					],
					"name": "revokeRole",
					"outputs": [],
					"stateMutability": "nonpayable",
					"type": "function"
				},
				{
					"inputs": [
						{
							"internalType": "address",
							"name": "",
							"type": "address"
						}
					],
					"name": "scores",
					"outputs": [
						{
							"internalType": "uint256",
							"name": "",
							"type": "uint256"
						}
					],
					"stateMutability": "view",
					"type": "function"
				},
				{
					"inputs": [
						{
							"internalType": "address",
							"name": "_chamaCoreContract",
							"type": "address"
						}
					],
					"name": "setChamaCore",
					"outputs": [],
					"stateMutability": "nonpayable",
					"type": "function"
				},
				{
					"inputs": [
						{
							"internalType": "address",
							"name": "_user",
							"type": "address"
						},
						{
							"internalType": "uint256",
							"name": "_points",
							"type": "uint256"
						},
						{
							"internalType": "string",
							"name": "_reason",
							"type": "string"
						}
					],
					"name": "subtractScore",
					"outputs": [],
					"stateMutability": "nonpayable",
					"type": "function"
				},
				{
					"inputs": [
						{
							"internalType": "bytes4",
							"name": "interfaceId",
							"type": "bytes4"
						}
					],
					"name": "supportsInterface",
					"outputs": [
						{
							"internalType": "bool",
							"name": "",
							"type": "bool"
						}
					],
					"stateMutability": "view",
					"type": "function"
				},
				{
					"inputs": [
						{
							"internalType": "address",
							"name": "_user",
							"type": "address"
						},
						{
							"internalType": "string",
							"name": "_achievementName",
							"type": "string"
						}
					],
					"name": "unlockAchievement",
					"outputs": [],
					"stateMutability": "nonpayable",
					"type": "function"
				},
				{
					"inputs": [],
					"name": "unpause",
					"outputs": [],
					"stateMutability": "nonpayable",
					"type": "function"
				},
				{
					"inputs": [
						{
							"internalType": "string",
							"name": "_name",
							"type": "string"
						},
						{
							"internalType": "uint256",
							"name": "_points",
							"type": "uint256"
						}
					],
					"name": "updateAchievementPoints",
					"outputs": [],
					"stateMutability": "nonpayable",
					"type": "function"
				},
				{
					"inputs": [
						{
							"internalType": "string",
							"name": "_username",
							"type": "string"
						}
					],
					"name": "updateProfile",
					"outputs": [],
					"stateMutability": "nonpayable",
					"type": "function"
				},
				{
					"inputs": [
						{
							"internalType": "string",
							"name": "",
							"type": "string"
						}
					],
					"name": "validAchievements",
					"outputs": [
						{
							"internalType": "bool",
							"name": "",
							"type": "bool"
						}
					],
					"stateMutability": "view",
					"type": "function"
				}
			],
			"devdoc": {
				"details": "Handles scoring, achievements, profiles, and invitation system",
				"errors": {
					"AccessControlBadConfirmation()": [
						{
							"details": "The caller of a function is not the expected one. NOTE: Don't confuse with {AccessControlUnauthorizedAccount}."
						}
					],
					"AccessControlUnauthorizedAccount(address,bytes32)": [
						{
							"details": "The `account` is missing a role."
						}
					]
				},
				"events": {
					"Paused(address)": {
						"details": "Emitted when the pause is triggered by `account`."
					},
					"RoleAdminChanged(bytes32,bytes32,bytes32)": {
						"details": "Emitted when `newAdminRole` is set as ``role``'s admin role, replacing `previousAdminRole` `DEFAULT_ADMIN_ROLE` is the starting admin for all roles, despite {RoleAdminChanged} not being emitted to signal this."
					},
					"RoleGranted(bytes32,address,address)": {
						"details": "Emitted when `account` is granted `role`. `sender` is the account that originated the contract call. This account bears the admin role (for the granted role). Expected in cases where the role was granted using the internal {AccessControl-_grantRole}."
					},
					"RoleRevoked(bytes32,address,address)": {
						"details": "Emitted when `account` is revoked `role`. `sender` is the account that originated the contract call:   - if using `revokeRole`, it is the admin role bearer   - if using `renounceRole`, it is the role bearer (i.e. `account`)"
					},
					"Unpaused(address)": {
						"details": "Emitted when the pause is lifted by `account`."
					}
				},
				"kind": "dev",
				"methods": {
					"acceptInvite(bytes32)": {
						"details": "Accept invitation and reward referrer",
						"params": {
							"_referrerHash": "Hash of the referrer's invitation"
						}
					},
					"addScore(address,uint256,string)": {
						"details": "Add score to user (only callable by authorized contracts)",
						"params": {
							"_points": "Points to add",
							"_reason": "Reason for score addition",
							"_user": "User address"
						}
					},
					"createProfile(string,bytes32)": {
						"details": "Create user profile",
						"params": {
							"_emailHash": "Hashed email for privacy",
							"_username": "Username for the profile"
						}
					},
					"generateInvite(string,bytes32)": {
						"details": "Generate invitation hash for user",
						"params": {
							"_emailHash": "Hashed email",
							"_username": "Username for profile creation"
						}
					},
					"getRoleAdmin(bytes32)": {
						"details": "Returns the admin role that controls `role`. See {grantRole} and {revokeRole}. To change a role's admin, use {_setRoleAdmin}."
					},
					"grantRole(bytes32,address)": {
						"details": "Grants `role` to `account`. If `account` had not been already granted `role`, emits a {RoleGranted} event. Requirements: - the caller must have ``role``'s admin role. May emit a {RoleGranted} event."
					},
					"hasRole(bytes32,address)": {
						"details": "Returns `true` if `account` has been granted `role`."
					},
					"paused()": {
						"details": "Returns true if the contract is paused, and false otherwise."
					},
					"renounceRole(bytes32,address)": {
						"details": "Revokes `role` from the calling account. Roles are often managed via {grantRole} and {revokeRole}: this function's purpose is to provide a mechanism for accounts to lose their privileges if they are compromised (such as when a trusted device is misplaced). If the calling account had been revoked `role`, emits a {RoleRevoked} event. Requirements: - the caller must be `callerConfirmation`. May emit a {RoleRevoked} event."
					},
					"revokeRole(bytes32,address)": {
						"details": "Revokes `role` from `account`. If `account` had been granted `role`, emits a {RoleRevoked} event. Requirements: - the caller must have ``role``'s admin role. May emit a {RoleRevoked} event."
					},
					"subtractScore(address,uint256,string)": {
						"details": "Subtract score from user (only callable by authorized contracts)",
						"params": {
							"_points": "Points to subtract",
							"_reason": "Reason for score subtraction",
							"_user": "User address"
						}
					},
					"supportsInterface(bytes4)": {
						"details": "Returns true if this contract implements the interface defined by `interfaceId`. See the corresponding https://eips.ethereum.org/EIPS/eip-165#how-interfaces-are-identified[ERC section] to learn more about how these ids are created. This function call must use less than 30 000 gas."
					},
					"unlockAchievement(address,string)": {
						"details": "Unlock achievement for user (only callable by authorized contracts)",
						"params": {
							"_achievementName": "Name of the achievement",
							"_user": "User address"
						}
					},
					"updateProfile(string)": {
						"details": "Update user profile",
						"params": {
							"_username": "New username"
						}
					}
				},
				"title": "ChamaGamification",
				"version": 1
			},
			"evm": {
				"assembly": "    /* \"ChamaGamification.sol\":423:13631  contract ChamaGamification is ReentrancyGuard, Pausable, AccessControl {... */\n  mstore(0x40, 0x80)\n    /* \"ChamaGamification.sol\":2147:2351  constructor() {... */\n  callvalue\n  dup1\n  iszero\n  tag_1\n  jumpi\n  revert(0x00, 0x00)\ntag_1:\n  pop\n    /* \"@openzeppelin/contracts/security/ReentrancyGuard.sol\":1716:1717  1 */\n  0x01\n    /* \"@openzeppelin/contracts/security/ReentrancyGuard.sol\":1821:1828  _status */\n  0x00\n    /* \"@openzeppelin/contracts/security/ReentrancyGuard.sol\":1821:1843  _status = _NOT_ENTERED */\n  dup2\n  swap1\n  sstore\n  pop\n    /* \"@openzeppelin/contracts/security/Pausable.sol\":1006:1011  false */\n  0x00\n    /* \"@openzeppelin/contracts/security/Pausable.sol\":996:1003  _paused */\n  0x01\n  0x00\n    /* \"@openzeppelin/contracts/security/Pausable.sol\":996:1011  _paused = false */\n  0x0100\n  exp\n  dup2\n  sload\n  dup2\n  0xff\n  mul\n  not\n  and\n  swap1\n  dup4\n  iszero\n  iszero\n  mul\n  or\n  swap1\n  sstore\n  pop\n    /* \"ChamaGamification.sol\":2171:2213  _grantRole(DEFAULT_ADMIN_ROLE, msg.sender) */\n  tag_8\n    /* \"@openzeppelin/contracts/access/AccessControl.sol\":2241:2245  0x00 */\n  0x00\n    /* \"ChamaGamification.sol\":2182:2200  DEFAULT_ADMIN_ROLE */\n  0x00\n  shl\n    /* \"ChamaGamification.sol\":2202:2212  msg.sender */\n  caller\n    /* \"ChamaGamification.sol\":2171:2181  _grantRole */\n  shl(0x20, tag_9)\n    /* \"ChamaGamification.sol\":2171:2213  _grantRole(DEFAULT_ADMIN_ROLE, msg.sender) */\n  0x20\n  shr\n  jump\t// in\ntag_8:\n  pop\n    /* \"ChamaGamification.sol\":2223:2257  _grantRole(ADMIN_ROLE, msg.sender) */\n  tag_10\n    /* \"ChamaGamification.sol\":537:560  keccak256(\"ADMIN_ROLE\") */\n  0xa49807205ce4d355092ef5a8a18f56e8913cf4a201fbe287825b095693c21775\n    /* \"ChamaGamification.sol\":2246:2256  msg.sender */\n  caller\n    /* \"ChamaGamification.sol\":2223:2233  _grantRole */\n  shl(0x20, tag_9)\n    /* \"ChamaGamification.sol\":2223:2257  _grantRole(ADMIN_ROLE, msg.sender) */\n  0x20\n  shr\n  jump\t// in\ntag_10:\n  pop\n    /* \"ChamaGamification.sol\":2319:2344  _initializeAchievements() */\n  tag_11\n    /* \"ChamaGamification.sol\":2319:2342  _initializeAchievements */\n  shl(0x20, tag_12)\n    /* \"ChamaGamification.sol\":2319:2344  _initializeAchievements() */\n  0x20\n  shr\n  jump\t// in\ntag_11:\n    /* \"ChamaGamification.sol\":423:13631  contract ChamaGamification is ReentrancyGuard, Pausable, AccessControl {... */\n  jump(tag_13)\n    /* \"@openzeppelin/contracts/access/AccessControl.sol\":6155:6471  function _grantRole(bytes32 role, address account) internal virtual returns (bool) {... */\ntag_9:\n    /* \"@openzeppelin/contracts/access/AccessControl.sol\":6232:6236  bool */\n  0x00\n    /* \"@openzeppelin/contracts/access/AccessControl.sol\":6253:6275  hasRole(role, account) */\n  tag_15\n    /* \"@openzeppelin/contracts/access/AccessControl.sol\":6261:6265  role */\n  dup4\n    /* \"@openzeppelin/contracts/access/AccessControl.sol\":6267:6274  account */\n  dup4\n    /* \"@openzeppelin/contracts/access/AccessControl.sol\":6253:6260  hasRole */\n  shl(0x20, tag_16)\n    /* \"@openzeppelin/contracts/access/AccessControl.sol\":6253:6275  hasRole(role, account) */\n  0x20\n  shr\n  jump\t// in\ntag_15:\n    /* \"@openzeppelin/contracts/access/AccessControl.sol\":6248:6465  if (!hasRole(role, account)) {... */\n  tag_17\n  jumpi\n    /* \"@openzeppelin/contracts/access/AccessControl.sol\":6323:6327  true */\n  0x01\n    /* \"@openzeppelin/contracts/access/AccessControl.sol\":6291:6297  _roles */\n  0x02\n    /* \"@openzeppelin/contracts/access/AccessControl.sol\":6291:6303  _roles[role] */\n  0x00\n    /* \"@openzeppelin/contracts/access/AccessControl.sol\":6298:6302  role */\n  dup6\n    /* \"@openzeppelin/contracts/access/AccessControl.sol\":6291:6303  _roles[role] */\n  dup2\n  mstore\n  0x20\n  add\n  swap1\n  dup2\n  mstore\n  0x20\n  add\n  0x00\n  keccak256\n    /* \"@openzeppelin/contracts/access/AccessControl.sol\":6291:6311  _roles[role].hasRole */\n  0x00\n  add\n    /* \"@openzeppelin/contracts/access/AccessControl.sol\":6291:6320  _roles[role].hasRole[account] */\n  0x00\n    /* \"@openzeppelin/contracts/access/AccessControl.sol\":6312:6319  account */\n  dup5\n    /* \"@openzeppelin/contracts/access/AccessControl.sol\":6291:6320  _roles[role].hasRole[account] */\n  0xffffffffffffffffffffffffffffffffffffffff\n  and\n  0xffffffffffffffffffffffffffffffffffffffff\n  and\n  dup2\n  mstore\n  0x20\n  add\n  swap1\n  dup2\n  mstore\n  0x20\n  add\n  0x00\n  keccak256\n  0x00\n    /* \"@openzeppelin/contracts/access/AccessControl.sol\":6291:6327  _roles[role].hasRole[account] = true */\n  0x0100\n  exp\n  dup2\n  sload\n  dup2\n  0xff\n  mul\n  not\n  and\n  swap1\n  dup4\n  iszero\n  iszero\n  mul\n  or\n  swap1\n  sstore\n  pop\n    /* \"@openzeppelin/contracts/access/AccessControl.sol\":6373:6385  _msgSender() */\n  tag_18\n    /* \"@openzeppelin/contracts/access/AccessControl.sol\":6373:6383  _msgSender */\n  shl(0x20, tag_19)\n    /* \"@openzeppelin/contracts/access/AccessControl.sol\":6373:6385  _msgSender() */\n  0x20\n  shr\n  jump\t// in\ntag_18:\n    /* \"@openzeppelin/contracts/access/AccessControl.sol\":6346:6386  RoleGranted(role, account, _msgSender()) */\n  0xffffffffffffffffffffffffffffffffffffffff\n  and\n    /* \"@openzeppelin/contracts/access/AccessControl.sol\":6364:6371  account */\n  dup3\n    /* \"@openzeppelin/contracts/access/AccessControl.sol\":6346:6386  RoleGranted(role, account, _msgSender()) */\n  0xffffffffffffffffffffffffffffffffffffffff\n  and\n    /* \"@openzeppelin/contracts/access/AccessControl.sol\":6358:6362  role */\n  dup5\n    /* \"@openzeppelin/contracts/access/AccessControl.sol\":6346:6386  RoleGranted(role, account, _msgSender()) */\n  0x2f8788117e7eff1d82e926ec794901d17c78024a50270940304540a733656f0d\n  mload(0x40)\n  mload(0x40)\n  dup1\n  swap2\n  sub\n  swap1\n  log4\n    /* \"@openzeppelin/contracts/access/AccessControl.sol\":6407:6411  true */\n  0x01\n    /* \"@openzeppelin/contracts/access/AccessControl.sol\":6400:6411  return true */\n  swap1\n  pop\n  jump(tag_14)\n    /* \"@openzeppelin/contracts/access/AccessControl.sol\":6248:6465  if (!hasRole(role, account)) {... */\ntag_17:\n    /* \"@openzeppelin/contracts/access/AccessControl.sol\":6449:6454  false */\n  0x00\n    /* \"@openzeppelin/contracts/access/AccessControl.sol\":6442:6454  return false */\n  swap1\n  pop\n    /* \"@openzeppelin/contracts/access/AccessControl.sol\":6155:6471  function _grantRole(bytes32 role, address account) internal virtual returns (bool) {... */\ntag_14:\n  swap3\n  swap2\n  pop\n  pop\n  jump\t// out\n    /* \"ChamaGamification.sol\":2428:3781  function _initializeAchievements() internal {... */\ntag_12:\n    /* \"ChamaGamification.sol\":2549:2552  100 */\n  0x64\n    /* \"ChamaGamification.sol\":2512:2529  achievementPoints */\n  0x0a\n    /* \"ChamaGamification.sol\":2512:2546  achievementPoints[\"Chama Creator\"] */\n  mload(0x40)\n  tag_22\n  swap1\n  tag_23\n  jump\t// in\ntag_22:\n  swap1\n  dup2\n  mstore\n  0x20\n  add\n  mload(0x40)\n  dup1\n  swap2\n  sub\n  swap1\n  keccak256\n    /* \"ChamaGamification.sol\":2512:2552  achievementPoints[\"Chama Creator\"] = 100 */\n  dup2\n  swap1\n  sstore\n  pop\n    /* \"ChamaGamification.sol\":2597:2599  25 */\n  0x19\n    /* \"ChamaGamification.sol\":2562:2579  achievementPoints */\n  0x0a\n    /* \"ChamaGamification.sol\":2562:2594  achievementPoints[\"First Stack\"] */\n  mload(0x40)\n  tag_24\n  swap1\n  tag_25\n  jump\t// in\ntag_24:\n  swap1\n  dup2\n  mstore\n  0x20\n  add\n  mload(0x40)\n  dup1\n  swap2\n  sub\n  swap1\n  keccak256\n    /* \"ChamaGamification.sol\":2562:2599  achievementPoints[\"First Stack\"] = 25 */\n  dup2\n  swap1\n  sstore\n  pop\n    /* \"ChamaGamification.sol\":2648:2650  50 */\n  0x32\n    /* \"ChamaGamification.sol\":2609:2626  achievementPoints */\n  0x0a\n    /* \"ChamaGamification.sol\":2609:2645  achievementPoints[\"5 Contributions\"] */\n  mload(0x40)\n  tag_26\n  swap1\n  tag_27\n  jump\t// in\ntag_26:\n  swap1\n  dup2\n  mstore\n  0x20\n  add\n  mload(0x40)\n  dup1\n  swap2\n  sub\n  swap1\n  keccak256\n    /* \"ChamaGamification.sol\":2609:2650  achievementPoints[\"5 Contributions\"] = 50 */\n  dup2\n  swap1\n  sstore\n  pop\n    /* \"ChamaGamification.sol\":2699:2702  100 */\n  0x64\n    /* \"ChamaGamification.sol\":2660:2677  achievementPoints */\n  0x0a\n    /* \"ChamaGamification.sol\":2660:2696  achievementPoints[\"Chama Completed\"] */\n  mload(0x40)\n  tag_28\n  swap1\n  tag_29\n  jump\t// in\ntag_28:\n  swap1\n  dup2\n  mstore\n  0x20\n  add\n  mload(0x40)\n  dup1\n  swap2\n  sub\n  swap1\n  keccak256\n    /* \"ChamaGamification.sol\":2660:2702  achievementPoints[\"Chama Completed\"] = 100 */\n  dup2\n  swap1\n  sstore\n  pop\n    /* \"ChamaGamification.sol\":2754:2756  75 */\n  0x4b\n    /* \"ChamaGamification.sol\":2712:2729  achievementPoints */\n  0x0a\n    /* \"ChamaGamification.sol\":2712:2751  achievementPoints[\"Perfect Attendance\"] */\n  mload(0x40)\n  tag_30\n  swap1\n  tag_31\n  jump\t// in\ntag_30:\n  swap1\n  dup2\n  mstore\n  0x20\n  add\n  mload(0x40)\n  dup1\n  swap2\n  sub\n  swap1\n  keccak256\n    /* \"ChamaGamification.sol\":2712:2756  achievementPoints[\"Perfect Attendance\"] = 75 */\n  dup2\n  swap1\n  sstore\n  pop\n    /* \"ChamaGamification.sol\":2847:2849  75 */\n  0x4b\n    /* \"ChamaGamification.sol\":2806:2823  achievementPoints */\n  0x0a\n    /* \"ChamaGamification.sol\":2806:2844  achievementPoints[\"Invited 3 Friends\"] */\n  mload(0x40)\n  tag_32\n  swap1\n  tag_33\n  jump\t// in\ntag_32:\n  swap1\n  dup2\n  mstore\n  0x20\n  add\n  mload(0x40)\n  dup1\n  swap2\n  sub\n  swap1\n  keccak256\n    /* \"ChamaGamification.sol\":2806:2849  achievementPoints[\"Invited 3 Friends\"] = 75 */\n  dup2\n  swap1\n  sstore\n  pop\n    /* \"ChamaGamification.sol\":2901:2904  150 */\n  0x96\n    /* \"ChamaGamification.sol\":2859:2876  achievementPoints */\n  0x0a\n    /* \"ChamaGamification.sol\":2859:2898  achievementPoints[\"Invited 10 Friends\"] */\n  mload(0x40)\n  tag_34\n  swap1\n  tag_35\n  jump\t// in\ntag_34:\n  swap1\n  dup2\n  mstore\n  0x20\n  add\n  mload(0x40)\n  dup1\n  swap2\n  sub\n  swap1\n  keccak256\n    /* \"ChamaGamification.sol\":2859:2904  achievementPoints[\"Invited 10 Friends\"] = 150 */\n  dup2\n  swap1\n  sstore\n  pop\n    /* \"ChamaGamification.sol\":2954:2957  200 */\n  0xc8\n    /* \"ChamaGamification.sol\":2914:2931  achievementPoints */\n  0x0a\n    /* \"ChamaGamification.sol\":2914:2951  achievementPoints[\"Social Butterfly\"] */\n  mload(0x40)\n  tag_36\n  swap1\n  tag_37\n  jump\t// in\ntag_36:\n  swap1\n  dup2\n  mstore\n  0x20\n  add\n  mload(0x40)\n  dup1\n  swap2\n  sub\n  swap1\n  keccak256\n    /* \"ChamaGamification.sol\":2914:2957  achievementPoints[\"Social Butterfly\"] = 200 */\n  dup2\n  swap1\n  sstore\n  pop\n    /* \"ChamaGamification.sol\":3037:3039  20 */\n  0x14\n    /* \"ChamaGamification.sol\":3004:3021  achievementPoints */\n  0x0a\n    /* \"ChamaGamification.sol\":3004:3034  achievementPoints[\"First P2P\"] */\n  mload(0x40)\n  tag_38\n  swap1\n  tag_39\n  jump\t// in\ntag_38:\n  swap1\n  dup2\n  mstore\n  0x20\n  add\n  mload(0x40)\n  dup1\n  swap2\n  sub\n  swap1\n  keccak256\n    /* \"ChamaGamification.sol\":3004:3039  achievementPoints[\"First P2P\"] = 20 */\n  dup2\n  swap1\n  sstore\n  pop\n    /* \"ChamaGamification.sol\":3093:3095  50 */\n  0x32\n    /* \"ChamaGamification.sol\":3049:3066  achievementPoints */\n  0x0a\n    /* \"ChamaGamification.sol\":3049:3090  achievementPoints[\"Sent 5 Red Envelopes\"] */\n  mload(0x40)\n  tag_40\n  swap1\n  tag_41\n  jump\t// in\ntag_40:\n  swap1\n  dup2\n  mstore\n  0x20\n  add\n  mload(0x40)\n  dup1\n  swap2\n  sub\n  swap1\n  keccak256\n    /* \"ChamaGamification.sol\":3049:3095  achievementPoints[\"Sent 5 Red Envelopes\"] = 50 */\n  dup2\n  swap1\n  sstore\n  pop\n    /* \"ChamaGamification.sol\":3148:3151  100 */\n  0x64\n    /* \"ChamaGamification.sol\":3105:3122  achievementPoints */\n  0x0a\n    /* \"ChamaGamification.sol\":3105:3145  achievementPoints[\"Red Envelope Master\"] */\n  mload(0x40)\n  tag_42\n  swap1\n  tag_43\n  jump\t// in\ntag_42:\n  swap1\n  dup2\n  mstore\n  0x20\n  add\n  mload(0x40)\n  dup1\n  swap2\n  sub\n  swap1\n  keccak256\n    /* \"ChamaGamification.sol\":3105:3151  achievementPoints[\"Red Envelope Master\"] = 100 */\n  dup2\n  swap1\n  sstore\n  pop\n    /* \"ChamaGamification.sol\":3232:3236  true */\n  0x01\n    /* \"ChamaGamification.sol\":3195:3212  validAchievements */\n  0x0b\n    /* \"ChamaGamification.sol\":3195:3229  validAchievements[\"Chama Creator\"] */\n  mload(0x40)\n  tag_44\n  swap1\n  tag_23\n  jump\t// in\ntag_44:\n  swap1\n  dup2\n  mstore\n  0x20\n  add\n  mload(0x40)\n  dup1\n  swap2\n  sub\n  swap1\n  keccak256\n  0x00\n    /* \"ChamaGamification.sol\":3195:3236  validAchievements[\"Chama Creator\"] = true */\n  0x0100\n  exp\n  dup2\n  sload\n  dup2\n  0xff\n  mul\n  not\n  and\n  swap1\n  dup4\n  iszero\n  iszero\n  mul\n  or\n  swap1\n  sstore\n  pop\n    /* \"ChamaGamification.sol\":3281:3285  true */\n  0x01\n    /* \"ChamaGamification.sol\":3246:3263  validAchievements */\n  0x0b\n    /* \"ChamaGamification.sol\":3246:3278  validAchievements[\"First Stack\"] */\n  mload(0x40)\n  tag_45\n  swap1\n  tag_25\n  jump\t// in\ntag_45:\n  swap1\n  dup2\n  mstore\n  0x20\n  add\n  mload(0x40)\n  dup1\n  swap2\n  sub\n  swap1\n  keccak256\n  0x00\n    /* \"ChamaGamification.sol\":3246:3285  validAchievements[\"First Stack\"] = true */\n  0x0100\n  exp\n  dup2\n  sload\n  dup2\n  0xff\n  mul\n  not\n  and\n  swap1\n  dup4\n  iszero\n  iszero\n  mul\n  or\n  swap1\n  sstore\n  pop\n    /* \"ChamaGamification.sol\":3334:3338  true */\n  0x01\n    /* \"ChamaGamification.sol\":3295:3312  validAchievements */\n  0x0b\n    /* \"ChamaGamification.sol\":3295:3331  validAchievements[\"5 Contributions\"] */\n  mload(0x40)\n  tag_46\n  swap1\n  tag_27\n  jump\t// in\ntag_46:\n  swap1\n  dup2\n  mstore\n  0x20\n  add\n  mload(0x40)\n  dup1\n  swap2\n  sub\n  swap1\n  keccak256\n  0x00\n    /* \"ChamaGamification.sol\":3295:3338  validAchievements[\"5 Contributions\"] = true */\n  0x0100\n  exp\n  dup2\n  sload\n  dup2\n  0xff\n  mul\n  not\n  and\n  swap1\n  dup4\n  iszero\n  iszero\n  mul\n  or\n  swap1\n  sstore\n  pop\n    /* \"ChamaGamification.sol\":3387:3391  true */\n  0x01\n    /* \"ChamaGamification.sol\":3348:3365  validAchievements */\n  0x0b\n    /* \"ChamaGamification.sol\":3348:3384  validAchievements[\"Chama Completed\"] */\n  mload(0x40)\n  tag_47\n  swap1\n  tag_29\n  jump\t// in\ntag_47:\n  swap1\n  dup2\n  mstore\n  0x20\n  add\n  mload(0x40)\n  dup1\n  swap2\n  sub\n  swap1\n  keccak256\n  0x00\n    /* \"ChamaGamification.sol\":3348:3391  validAchievements[\"Chama Completed\"] = true */\n  0x0100\n  exp\n  dup2\n  sload\n  dup2\n  0xff\n  mul\n  not\n  and\n  swap1\n  dup4\n  iszero\n  iszero\n  mul\n  or\n  swap1\n  sstore\n  pop\n    /* \"ChamaGamification.sol\":3443:3447  true */\n  0x01\n    /* \"ChamaGamification.sol\":3401:3418  validAchievements */\n  0x0b\n    /* \"ChamaGamification.sol\":3401:3440  validAchievements[\"Perfect Attendance\"] */\n  mload(0x40)\n  tag_48\n  swap1\n  tag_31\n  jump\t// in\ntag_48:\n  swap1\n  dup2\n  mstore\n  0x20\n  add\n  mload(0x40)\n  dup1\n  swap2\n  sub\n  swap1\n  keccak256\n  0x00\n    /* \"ChamaGamification.sol\":3401:3447  validAchievements[\"Perfect Attendance\"] = true */\n  0x0100\n  exp\n  dup2\n  sload\n  dup2\n  0xff\n  mul\n  not\n  and\n  swap1\n  dup4\n  iszero\n  iszero\n  mul\n  or\n  swap1\n  sstore\n  pop\n    /* \"ChamaGamification.sol\":3498:3502  true */\n  0x01\n    /* \"ChamaGamification.sol\":3457:3474  validAchievements */\n  0x0b\n    /* \"ChamaGamification.sol\":3457:3495  validAchievements[\"Invited 3 Friends\"] */\n  mload(0x40)\n  tag_49\n  swap1\n  tag_33\n  jump\t// in\ntag_49:\n  swap1\n  dup2\n  mstore\n  0x20\n  add\n  mload(0x40)\n  dup1\n  swap2\n  sub\n  swap1\n  keccak256\n  0x00\n    /* \"ChamaGamification.sol\":3457:3502  validAchievements[\"Invited 3 Friends\"] = true */\n  0x0100\n  exp\n  dup2\n  sload\n  dup2\n  0xff\n  mul\n  not\n  and\n  swap1\n  dup4\n  iszero\n  iszero\n  mul\n  or\n  swap1\n  sstore\n  pop\n    /* \"ChamaGamification.sol\":3554:3558  true */\n  0x01\n    /* \"ChamaGamification.sol\":3512:3529  validAchievements */\n  0x0b\n    /* \"ChamaGamification.sol\":3512:3551  validAchievements[\"Invited 10 Friends\"] */\n  mload(0x40)\n  tag_50\n  swap1\n  tag_35\n  jump\t// in\ntag_50:\n  swap1\n  dup2\n  mstore\n  0x20\n  add\n  mload(0x40)\n  dup1\n  swap2\n  sub\n  swap1\n  keccak256\n  0x00\n    /* \"ChamaGamification.sol\":3512:3558  validAchievements[\"Invited 10 Friends\"] = true */\n  0x0100\n  exp\n  dup2\n  sload\n  dup2\n  0xff\n  mul\n  not\n  and\n  swap1\n  dup4\n  iszero\n  iszero\n  mul\n  or\n  swap1\n  sstore\n  pop\n    /* \"ChamaGamification.sol\":3608:3612  true */\n  0x01\n    /* \"ChamaGamification.sol\":3568:3585  validAchievements */\n  0x0b\n    /* \"ChamaGamification.sol\":3568:3605  validAchievements[\"Social Butterfly\"] */\n  mload(0x40)\n  tag_51\n  swap1\n  tag_37\n  jump\t// in\ntag_51:\n  swap1\n  dup2\n  mstore\n  0x20\n  add\n  mload(0x40)\n  dup1\n  swap2\n  sub\n  swap1\n  keccak256\n  0x00\n    /* \"ChamaGamification.sol\":3568:3612  validAchievements[\"Social Butterfly\"] = true */\n  0x0100\n  exp\n  dup2\n  sload\n  dup2\n  0xff\n  mul\n  not\n  and\n  swap1\n  dup4\n  iszero\n  iszero\n  mul\n  or\n  swap1\n  sstore\n  pop\n    /* \"ChamaGamification.sol\":3655:3659  true */\n  0x01\n    /* \"ChamaGamification.sol\":3622:3639  validAchievements */\n  0x0b\n    /* \"ChamaGamification.sol\":3622:3652  validAchievements[\"First P2P\"] */\n  mload(0x40)\n  tag_52\n  swap1\n  tag_39\n  jump\t// in\ntag_52:\n  swap1\n  dup2\n  mstore\n  0x20\n  add\n  mload(0x40)\n  dup1\n  swap2\n  sub\n  swap1\n  keccak256\n  0x00\n    /* \"ChamaGamification.sol\":3622:3659  validAchievements[\"First P2P\"] = true */\n  0x0100\n  exp\n  dup2\n  sload\n  dup2\n  0xff\n  mul\n  not\n  and\n  swap1\n  dup4\n  iszero\n  iszero\n  mul\n  or\n  swap1\n  sstore\n  pop\n    /* \"ChamaGamification.sol\":3713:3717  true */\n  0x01\n    /* \"ChamaGamification.sol\":3669:3686  validAchievements */\n  0x0b\n    /* \"ChamaGamification.sol\":3669:3710  validAchievements[\"Sent 5 Red Envelopes\"] */\n  mload(0x40)\n  tag_53\n  swap1\n  tag_41\n  jump\t// in\ntag_53:\n  swap1\n  dup2\n  mstore\n  0x20\n  add\n  mload(0x40)\n  dup1\n  swap2\n  sub\n  swap1\n  keccak256\n  0x00\n    /* \"ChamaGamification.sol\":3669:3717  validAchievements[\"Sent 5 Red Envelopes\"] = true */\n  0x0100\n  exp\n  dup2\n  sload\n  dup2\n  0xff\n  mul\n  not\n  and\n  swap1\n  dup4\n  iszero\n  iszero\n  mul\n  or\n  swap1\n  sstore\n  pop\n    /* \"ChamaGamification.sol\":3770:3774  true */\n  0x01\n    /* \"ChamaGamification.sol\":3727:3744  validAchievements */\n  0x0b\n    /* \"ChamaGamification.sol\":3727:3767  validAchievements[\"Red Envelope Master\"] */\n  mload(0x40)\n  tag_54\n  swap1\n  tag_43\n  jump\t// in\ntag_54:\n  swap1\n  dup2\n  mstore\n  0x20\n  add\n  mload(0x40)\n  dup1\n  swap2\n  sub\n  swap1\n  keccak256\n  0x00\n    /* \"ChamaGamification.sol\":3727:3774  validAchievements[\"Red Envelope Master\"] = true */\n  0x0100\n  exp\n  dup2\n  sload\n  dup2\n  0xff\n  mul\n  not\n  and\n  swap1\n  dup4\n  iszero\n  iszero\n  mul\n  or\n  swap1\n  sstore\n  pop\n    /* \"ChamaGamification.sol\":2428:3781  function _initializeAchievements() internal {... */\n  jump\t// out\n    /* \"@openzeppelin/contracts/access/AccessControl.sol\":2830:2966  function hasRole(bytes32 role, address account) public view virtual returns (bool) {... */\ntag_16:\n    /* \"@openzeppelin/contracts/access/AccessControl.sol\":2907:2911  bool */\n  0x00\n    /* \"@openzeppelin/contracts/access/AccessControl.sol\":2930:2936  _roles */\n  0x02\n    /* \"@openzeppelin/contracts/access/AccessControl.sol\":2930:2942  _roles[role] */\n  0x00\n    /* \"@openzeppelin/contracts/access/AccessControl.sol\":2937:2941  role */\n  dup5\n    /* \"@openzeppelin/contracts/access/AccessControl.sol\":2930:2942  _roles[role] */\n  dup2\n  mstore\n  0x20\n  add\n  swap1\n  dup2\n  mstore\n  0x20\n  add\n  0x00\n  keccak256\n    /* \"@openzeppelin/contracts/access/AccessControl.sol\":2930:2950  _roles[role].hasRole */\n  0x00\n  add\n    /* \"@openzeppelin/contracts/access/AccessControl.sol\":2930:2959  _roles[role].hasRole[account] */\n  0x00\n    /* \"@openzeppelin/contracts/access/AccessControl.sol\":2951:2958  account */\n  dup4\n    /* \"@openzeppelin/contracts/access/AccessControl.sol\":2930:2959  _roles[role].hasRole[account] */\n  0xffffffffffffffffffffffffffffffffffffffff\n  and\n  0xffffffffffffffffffffffffffffffffffffffff\n  and\n  dup2\n  mstore\n  0x20\n  add\n  swap1\n  dup2\n  mstore\n  0x20\n  add\n  0x00\n  keccak256\n  0x00\n  swap1\n  sload\n  swap1\n  0x0100\n  exp\n  swap1\n  div\n  0xff\n  and\n    /* \"@openzeppelin/contracts/access/AccessControl.sol\":2923:2959  return _roles[role].hasRole[account] */\n  swap1\n  pop\n    /* \"@openzeppelin/contracts/access/AccessControl.sol\":2830:2966  function hasRole(bytes32 role, address account) public view virtual returns (bool) {... */\n  swap3\n  swap2\n  pop\n  pop\n  jump\t// out\n    /* \"@openzeppelin/contracts/utils/Context.sol\":656:752  function _msgSender() internal view virtual returns (address) {... */\ntag_19:\n    /* \"@openzeppelin/contracts/utils/Context.sol\":709:716  address */\n  0x00\n    /* \"@openzeppelin/contracts/utils/Context.sol\":735:745  msg.sender */\n  caller\n    /* \"@openzeppelin/contracts/utils/Context.sol\":728:745  return msg.sender */\n  swap1\n  pop\n    /* \"@openzeppelin/contracts/utils/Context.sol\":656:752  function _msgSender() internal view virtual returns (address) {... */\n  swap1\n  jump\t// out\n    /* \"#utility.yul\":7:155   */\ntag_57:\n    /* \"#utility.yul\":109:120   */\n  0x00\n    /* \"#utility.yul\":146:149   */\n  dup2\n    /* \"#utility.yul\":131:149   */\n  swap1\n  pop\n    /* \"#utility.yul\":7:155   */\n  swap3\n  swap2\n  pop\n  pop\n  jump\t// out\n    /* \"#utility.yul\":161:324   */\ntag_58:\n    /* \"#utility.yul\":301:316   */\n  0x4368616d612043726561746f7200000000000000000000000000000000000000\n    /* \"#utility.yul\":297:298   */\n  0x00\n    /* \"#utility.yul\":289:295   */\n  dup3\n    /* \"#utility.yul\":285:299   */\n  add\n    /* \"#utility.yul\":278:317   */\n  mstore\n    /* \"#utility.yul\":161:324   */\n  pop\n  jump\t// out\n    /* \"#utility.yul\":330:732   */\ntag_59:\n    /* \"#utility.yul\":490:493   */\n  0x00\n    /* \"#utility.yul\":511:596   */\n  tag_84\n    /* \"#utility.yul\":593:595   */\n  0x0d\n    /* \"#utility.yul\":588:591   */\n  dup4\n    /* \"#utility.yul\":511:596   */\n  tag_57\n  jump\t// in\ntag_84:\n    /* \"#utility.yul\":504:596   */\n  swap2\n  pop\n    /* \"#utility.yul\":605:698   */\n  tag_85\n    /* \"#utility.yul\":694:697   */\n  dup3\n    /* \"#utility.yul\":605:698   */\n  tag_58\n  jump\t// in\ntag_85:\n    /* \"#utility.yul\":723:725   */\n  0x0d\n    /* \"#utility.yul\":718:721   */\n  dup3\n    /* \"#utility.yul\":714:726   */\n  add\n    /* \"#utility.yul\":707:726   */\n  swap1\n  pop\n    /* \"#utility.yul\":330:732   */\n  swap2\n  swap1\n  pop\n  jump\t// out\n    /* \"#utility.yul\":738:1119   */\ntag_23:\n    /* \"#utility.yul\":923:926   */\n  0x00\n    /* \"#utility.yul\":945:1093   */\n  tag_87\n    /* \"#utility.yul\":1089:1092   */\n  dup3\n    /* \"#utility.yul\":945:1093   */\n  tag_59\n  jump\t// in\ntag_87:\n    /* \"#utility.yul\":938:1093   */\n  swap2\n  pop\n    /* \"#utility.yul\":1110:1113   */\n  dup2\n    /* \"#utility.yul\":1103:1113   */\n  swap1\n  pop\n    /* \"#utility.yul\":738:1119   */\n  swap2\n  swap1\n  pop\n  jump\t// out\n    /* \"#utility.yul\":1125:1286   */\ntag_60:\n    /* \"#utility.yul\":1265:1278   */\n  0x466972737420537461636b000000000000000000000000000000000000000000\n    /* \"#utility.yul\":1261:1262   */\n  0x00\n    /* \"#utility.yul\":1253:1259   */\n  dup3\n    /* \"#utility.yul\":1249:1263   */\n  add\n    /* \"#utility.yul\":1242:1279   */\n  mstore\n    /* \"#utility.yul\":1125:1286   */\n  pop\n  jump\t// out\n    /* \"#utility.yul\":1292:1694   */\ntag_61:\n    /* \"#utility.yul\":1452:1455   */\n  0x00\n    /* \"#utility.yul\":1473:1558   */\n  tag_90\n    /* \"#utility.yul\":1555:1557   */\n  0x0b\n    /* \"#utility.yul\":1550:1553   */\n  dup4\n    /* \"#utility.yul\":1473:1558   */\n  tag_57\n  jump\t// in\ntag_90:\n    /* \"#utility.yul\":1466:1558   */\n  swap2\n  pop\n    /* \"#utility.yul\":1567:1660   */\n  tag_91\n    /* \"#utility.yul\":1656:1659   */\n  dup3\n    /* \"#utility.yul\":1567:1660   */\n  tag_60\n  jump\t// in\ntag_91:\n    /* \"#utility.yul\":1685:1687   */\n  0x0b\n    /* \"#utility.yul\":1680:1683   */\n  dup3\n    /* \"#utility.yul\":1676:1688   */\n  add\n    /* \"#utility.yul\":1669:1688   */\n  swap1\n  pop\n    /* \"#utility.yul\":1292:1694   */\n  swap2\n  swap1\n  pop\n  jump\t// out\n    /* \"#utility.yul\":1700:2081   */\ntag_25:\n    /* \"#utility.yul\":1885:1888   */\n  0x00\n    /* \"#utility.yul\":1907:2055   */\n  tag_93\n    /* \"#utility.yul\":2051:2054   */\n  dup3\n    /* \"#utility.yul\":1907:2055   */\n  tag_61\n  jump\t// in\ntag_93:\n    /* \"#utility.yul\":1900:2055   */\n  swap2\n  pop\n    /* \"#utility.yul\":2072:2075   */\n  dup2\n    /* \"#utility.yul\":2065:2075   */\n  swap1\n  pop\n    /* \"#utility.yul\":1700:2081   */\n  swap2\n  swap1\n  pop\n  jump\t// out\n    /* \"#utility.yul\":2087:2252   */\ntag_62:\n    /* \"#utility.yul\":2227:2244   */\n  0x3520436f6e747269627574696f6e730000000000000000000000000000000000\n    /* \"#utility.yul\":2223:2224   */\n  0x00\n    /* \"#utility.yul\":2215:2221   */\n  dup3\n    /* \"#utility.yul\":2211:2225   */\n  add\n    /* \"#utility.yul\":2204:2245   */\n  mstore\n    /* \"#utility.yul\":2087:2252   */\n  pop\n  jump\t// out\n    /* \"#utility.yul\":2258:2660   */\ntag_63:\n    /* \"#utility.yul\":2418:2421   */\n  0x00\n    /* \"#utility.yul\":2439:2524   */\n  tag_96\n    /* \"#utility.yul\":2521:2523   */\n  0x0f\n    /* \"#utility.yul\":2516:2519   */\n  dup4\n    /* \"#utility.yul\":2439:2524   */\n  tag_57\n  jump\t// in\ntag_96:\n    /* \"#utility.yul\":2432:2524   */\n  swap2\n  pop\n    /* \"#utility.yul\":2533:2626   */\n  tag_97\n    /* \"#utility.yul\":2622:2625   */\n  dup3\n    /* \"#utility.yul\":2533:2626   */\n  tag_62\n  jump\t// in\ntag_97:\n    /* \"#utility.yul\":2651:2653   */\n  0x0f\n    /* \"#utility.yul\":2646:2649   */\n  dup3\n    /* \"#utility.yul\":2642:2654   */\n  add\n    /* \"#utility.yul\":2635:2654   */\n  swap1\n  pop\n    /* \"#utility.yul\":2258:2660   */\n  swap2\n  swap1\n  pop\n  jump\t// out\n    /* \"#utility.yul\":2666:3047   */\ntag_27:\n    /* \"#utility.yul\":2851:2854   */\n  0x00\n    /* \"#utility.yul\":2873:3021   */\n  tag_99\n    /* \"#utility.yul\":3017:3020   */\n  dup3\n    /* \"#utility.yul\":2873:3021   */\n  tag_63\n  jump\t// in\ntag_99:\n    /* \"#utility.yul\":2866:3021   */\n  swap2\n  pop\n    /* \"#utility.yul\":3038:3041   */\n  dup2\n    /* \"#utility.yul\":3031:3041   */\n  swap1\n  pop\n    /* \"#utility.yul\":2666:3047   */\n  swap2\n  swap1\n  pop\n  jump\t// out\n    /* \"#utility.yul\":3053:3218   */\ntag_64:\n    /* \"#utility.yul\":3193:3210   */\n  0x4368616d6120436f6d706c657465640000000000000000000000000000000000\n    /* \"#utility.yul\":3189:3190   */\n  0x00\n    /* \"#utility.yul\":3181:3187   */\n  dup3\n    /* \"#utility.yul\":3177:3191   */\n  add\n    /* \"#utility.yul\":3170:3211   */\n  mstore\n    /* \"#utility.yul\":3053:3218   */\n  pop\n  jump\t// out\n    /* \"#utility.yul\":3224:3626   */\ntag_65:\n    /* \"#utility.yul\":3384:3387   */\n  0x00\n    /* \"#utility.yul\":3405:3490   */\n  tag_102\n    /* \"#utility.yul\":3487:3489   */\n  0x0f\n    /* \"#utility.yul\":3482:3485   */\n  dup4\n    /* \"#utility.yul\":3405:3490   */\n  tag_57\n  jump\t// in\ntag_102:\n    /* \"#utility.yul\":3398:3490   */\n  swap2\n  pop\n    /* \"#utility.yul\":3499:3592   */\n  tag_103\n    /* \"#utility.yul\":3588:3591   */\n  dup3\n    /* \"#utility.yul\":3499:3592   */\n  tag_64\n  jump\t// in\ntag_103:\n    /* \"#utility.yul\":3617:3619   */\n  0x0f\n    /* \"#utility.yul\":3612:3615   */\n  dup3\n    /* \"#utility.yul\":3608:3620   */\n  add\n    /* \"#utility.yul\":3601:3620   */\n  swap1\n  pop\n    /* \"#utility.yul\":3224:3626   */\n  swap2\n  swap1\n  pop\n  jump\t// out\n    /* \"#utility.yul\":3632:4013   */\ntag_29:\n    /* \"#utility.yul\":3817:3820   */\n  0x00\n    /* \"#utility.yul\":3839:3987   */\n  tag_105\n    /* \"#utility.yul\":3983:3986   */\n  dup3\n    /* \"#utility.yul\":3839:3987   */\n  tag_65\n  jump\t// in\ntag_105:\n    /* \"#utility.yul\":3832:3987   */\n  swap2\n  pop\n    /* \"#utility.yul\":4004:4007   */\n  dup2\n    /* \"#utility.yul\":3997:4007   */\n  swap1\n  pop\n    /* \"#utility.yul\":3632:4013   */\n  swap2\n  swap1\n  pop\n  jump\t// out\n    /* \"#utility.yul\":4019:4187   */\ntag_66:\n    /* \"#utility.yul\":4159:4179   */\n  0x5065726665637420417474656e64616e63650000000000000000000000000000\n    /* \"#utility.yul\":4155:4156   */\n  0x00\n    /* \"#utility.yul\":4147:4153   */\n  dup3\n    /* \"#utility.yul\":4143:4157   */\n  add\n    /* \"#utility.yul\":4136:4180   */\n  mstore\n    /* \"#utility.yul\":4019:4187   */\n  pop\n  jump\t// out\n    /* \"#utility.yul\":4193:4595   */\ntag_67:\n    /* \"#utility.yul\":4353:4356   */\n  0x00\n    /* \"#utility.yul\":4374:4459   */\n  tag_108\n    /* \"#utility.yul\":4456:4458   */\n  0x12\n    /* \"#utility.yul\":4451:4454   */\n  dup4\n    /* \"#utility.yul\":4374:4459   */\n  tag_57\n  jump\t// in\ntag_108:\n    /* \"#utility.yul\":4367:4459   */\n  swap2\n  pop\n    /* \"#utility.yul\":4468:4561   */\n  tag_109\n    /* \"#utility.yul\":4557:4560   */\n  dup3\n    /* \"#utility.yul\":4468:4561   */\n  tag_66\n  jump\t// in\ntag_109:\n    /* \"#utility.yul\":4586:4588   */\n  0x12\n    /* \"#utility.yul\":4581:4584   */\n  dup3\n    /* \"#utility.yul\":4577:4589   */\n  add\n    /* \"#utility.yul\":4570:4589   */\n  swap1\n  pop\n    /* \"#utility.yul\":4193:4595   */\n  swap2\n  swap1\n  pop\n  jump\t// out\n    /* \"#utility.yul\":4601:4982   */\ntag_31:\n    /* \"#utility.yul\":4786:4789   */\n  0x00\n    /* \"#utility.yul\":4808:4956   */\n  tag_111\n    /* \"#utility.yul\":4952:4955   */\n  dup3\n    /* \"#utility.yul\":4808:4956   */\n  tag_67\n  jump\t// in\ntag_111:\n    /* \"#utility.yul\":4801:4956   */\n  swap2\n  pop\n    /* \"#utility.yul\":4973:4976   */\n  dup2\n    /* \"#utility.yul\":4966:4976   */\n  swap1\n  pop\n    /* \"#utility.yul\":4601:4982   */\n  swap2\n  swap1\n  pop\n  jump\t// out\n    /* \"#utility.yul\":4988:5155   */\ntag_68:\n    /* \"#utility.yul\":5128:5147   */\n  0x496e7669746564203320467269656e6473000000000000000000000000000000\n    /* \"#utility.yul\":5124:5125   */\n  0x00\n    /* \"#utility.yul\":5116:5122   */\n  dup3\n    /* \"#utility.yul\":5112:5126   */\n  add\n    /* \"#utility.yul\":5105:5148   */\n  mstore\n    /* \"#utility.yul\":4988:5155   */\n  pop\n  jump\t// out\n    /* \"#utility.yul\":5161:5563   */\ntag_69:\n    /* \"#utility.yul\":5321:5324   */\n  0x00\n    /* \"#utility.yul\":5342:5427   */\n  tag_114\n    /* \"#utility.yul\":5424:5426   */\n  0x11\n    /* \"#utility.yul\":5419:5422   */\n  dup4\n    /* \"#utility.yul\":5342:5427   */\n  tag_57\n  jump\t// in\ntag_114:\n    /* \"#utility.yul\":5335:5427   */\n  swap2\n  pop\n    /* \"#utility.yul\":5436:5529   */\n  tag_115\n    /* \"#utility.yul\":5525:5528   */\n  dup3\n    /* \"#utility.yul\":5436:5529   */\n  tag_68\n  jump\t// in\ntag_115:\n    /* \"#utility.yul\":5554:5556   */\n  0x11\n    /* \"#utility.yul\":5549:5552   */\n  dup3\n    /* \"#utility.yul\":5545:5557   */\n  add\n    /* \"#utility.yul\":5538:5557   */\n  swap1\n  pop\n    /* \"#utility.yul\":5161:5563   */\n  swap2\n  swap1\n  pop\n  jump\t// out\n    /* \"#utility.yul\":5569:5950   */\ntag_33:\n    /* \"#utility.yul\":5754:5757   */\n  0x00\n    /* \"#utility.yul\":5776:5924   */\n  tag_117\n    /* \"#utility.yul\":5920:5923   */\n  dup3\n    /* \"#utility.yul\":5776:5924   */\n  tag_69\n  jump\t// in\ntag_117:\n    /* \"#utility.yul\":5769:5924   */\n  swap2\n  pop\n    /* \"#utility.yul\":5941:5944   */\n  dup2\n    /* \"#utility.yul\":5934:5944   */\n  swap1\n  pop\n    /* \"#utility.yul\":5569:5950   */\n  swap2\n  swap1\n  pop\n  jump\t// out\n    /* \"#utility.yul\":5956:6124   */\ntag_70:\n    /* \"#utility.yul\":6096:6116   */\n  0x496e766974656420313020467269656e64730000000000000000000000000000\n    /* \"#utility.yul\":6092:6093   */\n  0x00\n    /* \"#utility.yul\":6084:6090   */\n  dup3\n    /* \"#utility.yul\":6080:6094   */\n  add\n    /* \"#utility.yul\":6073:6117   */\n  mstore\n    /* \"#utility.yul\":5956:6124   */\n  pop\n  jump\t// out\n    /* \"#utility.yul\":6130:6532   */\ntag_71:\n    /* \"#utility.yul\":6290:6293   */\n  0x00\n    /* \"#utility.yul\":6311:6396   */\n  tag_120\n    /* \"#utility.yul\":6393:6395   */\n  0x12\n    /* \"#utility.yul\":6388:6391   */\n  dup4\n    /* \"#utility.yul\":6311:6396   */\n  tag_57\n  jump\t// in\ntag_120:\n    /* \"#utility.yul\":6304:6396   */\n  swap2\n  pop\n    /* \"#utility.yul\":6405:6498   */\n  tag_121\n    /* \"#utility.yul\":6494:6497   */\n  dup3\n    /* \"#utility.yul\":6405:6498   */\n  tag_70\n  jump\t// in\ntag_121:\n    /* \"#utility.yul\":6523:6525   */\n  0x12\n    /* \"#utility.yul\":6518:6521   */\n  dup3\n    /* \"#utility.yul\":6514:6526   */\n  add\n    /* \"#utility.yul\":6507:6526   */\n  swap1\n  pop\n    /* \"#utility.yul\":6130:6532   */\n  swap2\n  swap1\n  pop\n  jump\t// out\n    /* \"#utility.yul\":6538:6919   */\ntag_35:\n    /* \"#utility.yul\":6723:6726   */\n  0x00\n    /* \"#utility.yul\":6745:6893   */\n  tag_123\n    /* \"#utility.yul\":6889:6892   */\n  dup3\n    /* \"#utility.yul\":6745:6893   */\n  tag_71\n  jump\t// in\ntag_123:\n    /* \"#utility.yul\":6738:6893   */\n  swap2\n  pop\n    /* \"#utility.yul\":6910:6913   */\n  dup2\n    /* \"#utility.yul\":6903:6913   */\n  swap1\n  pop\n    /* \"#utility.yul\":6538:6919   */\n  swap2\n  swap1\n  pop\n  jump\t// out\n    /* \"#utility.yul\":6925:7091   */\ntag_72:\n    /* \"#utility.yul\":7065:7083   */\n  0x536f6369616c20427574746572666c7900000000000000000000000000000000\n    /* \"#utility.yul\":7061:7062   */\n  0x00\n    /* \"#utility.yul\":7053:7059   */\n  dup3\n    /* \"#utility.yul\":7049:7063   */\n  add\n    /* \"#utility.yul\":7042:7084   */\n  mstore\n    /* \"#utility.yul\":6925:7091   */\n  pop\n  jump\t// out\n    /* \"#utility.yul\":7097:7499   */\ntag_73:\n    /* \"#utility.yul\":7257:7260   */\n  0x00\n    /* \"#utility.yul\":7278:7363   */\n  tag_126\n    /* \"#utility.yul\":7360:7362   */\n  0x10\n    /* \"#utility.yul\":7355:7358   */\n  dup4\n    /* \"#utility.yul\":7278:7363   */\n  tag_57\n  jump\t// in\ntag_126:\n    /* \"#utility.yul\":7271:7363   */\n  swap2\n  pop\n    /* \"#utility.yul\":7372:7465   */\n  tag_127\n    /* \"#utility.yul\":7461:7464   */\n  dup3\n    /* \"#utility.yul\":7372:7465   */\n  tag_72\n  jump\t// in\ntag_127:\n    /* \"#utility.yul\":7490:7492   */\n  0x10\n    /* \"#utility.yul\":7485:7488   */\n  dup3\n    /* \"#utility.yul\":7481:7493   */\n  add\n    /* \"#utility.yul\":7474:7493   */\n  swap1\n  pop\n    /* \"#utility.yul\":7097:7499   */\n  swap2\n  swap1\n  pop\n  jump\t// out\n    /* \"#utility.yul\":7505:7886   */\ntag_37:\n    /* \"#utility.yul\":7690:7693   */\n  0x00\n    /* \"#utility.yul\":7712:7860   */\n  tag_129\n    /* \"#utility.yul\":7856:7859   */\n  dup3\n    /* \"#utility.yul\":7712:7860   */\n  tag_73\n  jump\t// in\ntag_129:\n    /* \"#utility.yul\":7705:7860   */\n  swap2\n  pop\n    /* \"#utility.yul\":7877:7880   */\n  dup2\n    /* \"#utility.yul\":7870:7880   */\n  swap1\n  pop\n    /* \"#utility.yul\":7505:7886   */\n  swap2\n  swap1\n  pop\n  jump\t// out\n    /* \"#utility.yul\":7892:8051   */\ntag_74:\n    /* \"#utility.yul\":8032:8043   */\n  0x4669727374205032500000000000000000000000000000000000000000000000\n    /* \"#utility.yul\":8028:8029   */\n  0x00\n    /* \"#utility.yul\":8020:8026   */\n  dup3\n    /* \"#utility.yul\":8016:8030   */\n  add\n    /* \"#utility.yul\":8009:8044   */\n  mstore\n    /* \"#utility.yul\":7892:8051   */\n  pop\n  jump\t// out\n    /* \"#utility.yul\":8057:8457   */\ntag_75:\n    /* \"#utility.yul\":8217:8220   */\n  0x00\n    /* \"#utility.yul\":8238:8322   */\n  tag_132\n    /* \"#utility.yul\":8320:8321   */\n  0x09\n    /* \"#utility.yul\":8315:8318   */\n  dup4\n    /* \"#utility.yul\":8238:8322   */\n  tag_57\n  jump\t// in\ntag_132:\n    /* \"#utility.yul\":8231:8322   */\n  swap2\n  pop\n    /* \"#utility.yul\":8331:8424   */\n  tag_133\n    /* \"#utility.yul\":8420:8423   */\n  dup3\n    /* \"#utility.yul\":8331:8424   */\n  tag_74\n  jump\t// in\ntag_133:\n    /* \"#utility.yul\":8449:8450   */\n  0x09\n    /* \"#utility.yul\":8444:8447   */\n  dup3\n    /* \"#utility.yul\":8440:8451   */\n  add\n    /* \"#utility.yul\":8433:8451   */\n  swap1\n  pop\n    /* \"#utility.yul\":8057:8457   */\n  swap2\n  swap1\n  pop\n  jump\t// out\n    /* \"#utility.yul\":8463:8844   */\ntag_39:\n    /* \"#utility.yul\":8648:8651   */\n  0x00\n    /* \"#utility.yul\":8670:8818   */\n  tag_135\n    /* \"#utility.yul\":8814:8817   */\n  dup3\n    /* \"#utility.yul\":8670:8818   */\n  tag_75\n  jump\t// in\ntag_135:\n    /* \"#utility.yul\":8663:8818   */\n  swap2\n  pop\n    /* \"#utility.yul\":8835:8838   */\n  dup2\n    /* \"#utility.yul\":8828:8838   */\n  swap1\n  pop\n    /* \"#utility.yul\":8463:8844   */\n  swap2\n  swap1\n  pop\n  jump\t// out\n    /* \"#utility.yul\":8850:9020   */\ntag_76:\n    /* \"#utility.yul\":8990:9012   */\n  0x53656e7420352052656420456e76656c6f706573000000000000000000000000\n    /* \"#utility.yul\":8986:8987   */\n  0x00\n    /* \"#utility.yul\":8978:8984   */\n  dup3\n    /* \"#utility.yul\":8974:8988   */\n  add\n    /* \"#utility.yul\":8967:9013   */\n  mstore\n    /* \"#utility.yul\":8850:9020   */\n  pop\n  jump\t// out\n    /* \"#utility.yul\":9026:9428   */\ntag_77:\n    /* \"#utility.yul\":9186:9189   */\n  0x00\n    /* \"#utility.yul\":9207:9292   */\n  tag_138\n    /* \"#utility.yul\":9289:9291   */\n  0x14\n    /* \"#utility.yul\":9284:9287   */\n  dup4\n    /* \"#utility.yul\":9207:9292   */\n  tag_57\n  jump\t// in\ntag_138:\n    /* \"#utility.yul\":9200:9292   */\n  swap2\n  pop\n    /* \"#utility.yul\":9301:9394   */\n  tag_139\n    /* \"#utility.yul\":9390:9393   */\n  dup3\n    /* \"#utility.yul\":9301:9394   */\n  tag_76\n  jump\t// in\ntag_139:\n    /* \"#utility.yul\":9419:9421   */\n  0x14\n    /* \"#utility.yul\":9414:9417   */\n  dup3\n    /* \"#utility.yul\":9410:9422   */\n  add\n    /* \"#utility.yul\":9403:9422   */\n  swap1\n  pop\n    /* \"#utility.yul\":9026:9428   */\n  swap2\n  swap1\n  pop\n  jump\t// out\n    /* \"#utility.yul\":9434:9815   */\ntag_41:\n    /* \"#utility.yul\":9619:9622   */\n  0x00\n    /* \"#utility.yul\":9641:9789   */\n  tag_141\n    /* \"#utility.yul\":9785:9788   */\n  dup3\n    /* \"#utility.yul\":9641:9789   */\n  tag_77\n  jump\t// in\ntag_141:\n    /* \"#utility.yul\":9634:9789   */\n  swap2\n  pop\n    /* \"#utility.yul\":9806:9809   */\n  dup2\n    /* \"#utility.yul\":9799:9809   */\n  swap1\n  pop\n    /* \"#utility.yul\":9434:9815   */\n  swap2\n  swap1\n  pop\n  jump\t// out\n    /* \"#utility.yul\":9821:9990   */\ntag_78:\n    /* \"#utility.yul\":9961:9982   */\n  0x52656420456e76656c6f7065204d617374657200000000000000000000000000\n    /* \"#utility.yul\":9957:9958   */\n  0x00\n    /* \"#utility.yul\":9949:9955   */\n  dup3\n    /* \"#utility.yul\":9945:9959   */\n  add\n    /* \"#utility.yul\":9938:9983   */\n  mstore\n    /* \"#utility.yul\":9821:9990   */\n  pop\n  jump\t// out\n    /* \"#utility.yul\":9996:10398   */\ntag_79:\n    /* \"#utility.yul\":10156:10159   */\n  0x00\n    /* \"#utility.yul\":10177:10262   */\n  tag_144\n    /* \"#utility.yul\":10259:10261   */\n  0x13\n    /* \"#utility.yul\":10254:10257   */\n  dup4\n    /* \"#utility.yul\":10177:10262   */\n  tag_57\n  jump\t// in\ntag_144:\n    /* \"#utility.yul\":10170:10262   */\n  swap2\n  pop\n    /* \"#utility.yul\":10271:10364   */\n  tag_145\n    /* \"#utility.yul\":10360:10363   */\n  dup3\n    /* \"#utility.yul\":10271:10364   */\n  tag_78\n  jump\t// in\ntag_145:\n    /* \"#utility.yul\":10389:10391   */\n  0x13\n    /* \"#utility.yul\":10384:10387   */\n  dup3\n    /* \"#utility.yul\":10380:10392   */\n  add\n    /* \"#utility.yul\":10373:10392   */\n  swap1\n  pop\n    /* \"#utility.yul\":9996:10398   */\n  swap2\n  swap1\n  pop\n  jump\t// out\n    /* \"#utility.yul\":10404:10785   */\ntag_43:\n    /* \"#utility.yul\":10589:10592   */\n  0x00\n    /* \"#utility.yul\":10611:10759   */\n  tag_147\n    /* \"#utility.yul\":10755:10758   */\n  dup3\n    /* \"#utility.yul\":10611:10759   */\n  tag_79\n  jump\t// in\ntag_147:\n    /* \"#utility.yul\":10604:10759   */\n  swap2\n  pop\n    /* \"#utility.yul\":10776:10779   */\n  dup2\n    /* \"#utility.yul\":10769:10779   */\n  swap1\n  pop\n    /* \"#utility.yul\":10404:10785   */\n  swap2\n  swap1\n  pop\n  jump\t// out\n    /* \"ChamaGamification.sol\":423:13631  contract ChamaGamification is ReentrancyGuard, Pausable, AccessControl {... */\ntag_13:\n  dataSize(sub_0)\n  dup1\n  dataOffset(sub_0)\n  0x00\n  codecopy\n  0x00\n  return\nstop\n\nsub_0: assembly {\n        /* \"ChamaGamification.sol\":423:13631  contract ChamaGamification is ReentrancyGuard, Pausable, AccessControl {... */\n      mstore(0x40, 0x80)\n      callvalue\n      dup1\n      iszero\n      tag_1\n      jumpi\n      revert(0x00, 0x00)\n    tag_1:\n      pop\n      jumpi(tag_2, lt(calldatasize, 0x04))\n      shr(0xe0, calldataload(0x00))\n      dup1\n      0x75b238fc\n      gt\n      tag_43\n      jumpi\n      dup1\n      0xb34e0c47\n      gt\n      tag_44\n      jumpi\n      dup1\n      0xdde7fe83\n      gt\n      tag_45\n      jumpi\n      dup1\n      0xdde7fe83\n      eq\n      tag_38\n      jumpi\n      dup1\n      0xe697b5d8\n      eq\n      tag_39\n      jumpi\n      dup1\n      0xf09153c4\n      eq\n      tag_40\n      jumpi\n      dup1\n      0xf5c63a65\n      eq\n      tag_41\n      jumpi\n      dup1\n      0xfb6298d5\n      eq\n      tag_42\n      jumpi\n      jump(tag_2)\n    tag_45:\n      dup1\n      0xb34e0c47\n      eq\n      tag_33\n      jumpi\n      dup1\n      0xbbe15627\n      eq\n      tag_34\n      jumpi\n      dup1\n      0xbf882e73\n      eq\n      tag_35\n      jumpi\n      dup1\n      0xc4641dd7\n      eq\n      tag_36\n      jumpi\n      dup1\n      0xd547741f\n      eq\n      tag_37\n      jumpi\n      jump(tag_2)\n    tag_44:\n      dup1\n      0x987ee156\n      gt\n      tag_46\n      jumpi\n      dup1\n      0x987ee156\n      eq\n      tag_28\n      jumpi\n      dup1\n      0x9888a57c\n      eq\n      tag_29\n      jumpi\n      dup1\n      0xa217fddf\n      eq\n      tag_30\n      jumpi\n      dup1\n      0xa9c837c9\n      eq\n      tag_31\n      jumpi\n      dup1\n      0xac132d2d\n      eq\n      tag_32\n      jumpi\n      jump(tag_2)\n    tag_46:\n      dup1\n      0x75b238fc\n      eq\n      tag_23\n      jumpi\n      dup1\n      0x76dd110f\n      eq\n      tag_24\n      jumpi\n      dup1\n      0x8456cb59\n      eq\n      tag_25\n      jumpi\n      dup1\n      0x87cf1621\n      eq\n      tag_26\n      jumpi\n      dup1\n      0x91d14854\n      eq\n      tag_27\n      jumpi\n      jump(tag_2)\n    tag_43:\n      dup1\n      0x36568abe\n      gt\n      tag_47\n      jumpi\n      dup1\n      0x58f43f76\n      gt\n      tag_48\n      jumpi\n      dup1\n      0x58f43f76\n      eq\n      tag_18\n      jumpi\n      dup1\n      0x5c975abb\n      eq\n      tag_19\n      jumpi\n      dup1\n      0x5d03ce80\n      eq\n      tag_20\n      jumpi\n      dup1\n      0x61e092fc\n      eq\n      tag_21\n      jumpi\n      dup1\n      0x7300f624\n      eq\n      tag_22\n      jumpi\n      jump(tag_2)\n    tag_48:\n      dup1\n      0x36568abe\n      eq\n      tag_13\n      jumpi\n      dup1\n      0x3f4ba83a\n      eq\n      tag_14\n      jumpi\n      dup1\n      0x41c57372\n      eq\n      tag_15\n      jumpi\n      dup1\n      0x575cea6b\n      eq\n      tag_16\n      jumpi\n      dup1\n      0x57b24e6b\n      eq\n      tag_17\n      jumpi\n      jump(tag_2)\n    tag_47:\n      dup1\n      0x248a9ca3\n      gt\n      tag_49\n      jumpi\n      dup1\n      0x248a9ca3\n      eq\n      tag_8\n      jumpi\n      dup1\n      0x24acbd69\n      eq\n      tag_9\n      jumpi\n      dup1\n      0x258219c2\n      eq\n      tag_10\n      jumpi\n      dup1\n      0x2f2ff15d\n      eq\n      tag_11\n      jumpi\n      dup1\n      0x33b0d363\n      eq\n      tag_12\n      jumpi\n      jump(tag_2)\n    tag_49:\n      dup1\n      0x9299e3\n      eq\n      tag_3\n      jumpi\n      dup1\n      0x01ffc9a7\n      eq\n      tag_4\n      jumpi\n      dup1\n      0x0c860dcc\n      eq\n      tag_5\n      jumpi\n      dup1\n      0x14fc7e4d\n      eq\n      tag_6\n      jumpi\n      dup1\n      0x16064572\n      eq\n      tag_7\n      jumpi\n    tag_2:\n      revert(0x00, 0x00)\n        /* \"ChamaGamification.sol\":4532:4808  function updateProfile(string memory _username) external whenNotPaused {... */\n    tag_3:\n      tag_50\n      0x04\n      dup1\n      calldatasize\n      sub\n      dup2\n      add\n      swap1\n      tag_51\n      swap2\n      swap1\n      tag_52\n      jump\t// in\n    tag_51:\n      tag_53\n      jump\t// in\n    tag_50:\n      stop\n        /* \"@openzeppelin/contracts/access/AccessControl.sol\":2541:2743  function supportsInterface(bytes4 interfaceId) public view virtual override returns (bool) {... */\n    tag_4:\n      tag_54\n      0x04\n      dup1\n      calldatasize\n      sub\n      dup2\n      add\n      swap1\n      tag_55\n      swap2\n      swap1\n      tag_56\n      jump\t// in\n    tag_55:\n      tag_57\n      jump\t// in\n    tag_54:\n      mload(0x40)\n      tag_58\n      swap2\n      swap1\n      tag_59\n      jump\t// in\n    tag_58:\n      mload(0x40)\n      dup1\n      swap2\n      sub\n      swap1\n      return\n        /* \"ChamaGamification.sol\":12658:12865  function addAchievement(... */\n    tag_5:\n      tag_60\n      0x04\n      dup1\n      calldatasize\n      sub\n      dup2\n      add\n      swap1\n      tag_61\n      swap2\n      swap1\n      tag_62\n      jump\t// in\n    tag_61:\n      tag_63\n      jump\t// in\n    tag_60:\n      stop\n        /* \"ChamaGamification.sol\":12481:12629  function isValidAchievement(string memory _achievementName) external view returns (bool) {... */\n    tag_6:\n      tag_64\n      0x04\n      dup1\n      calldatasize\n      sub\n      dup2\n      add\n      swap1\n      tag_65\n      swap2\n      swap1\n      tag_52\n      jump\t// in\n    tag_65:\n      tag_66\n      jump\t// in\n    tag_64:\n      mload(0x40)\n      tag_67\n      swap2\n      swap1\n      tag_59\n      jump\t// in\n    tag_67:\n      mload(0x40)\n      dup1\n      swap2\n      sub\n      swap1\n      return\n        /* \"ChamaGamification.sol\":8410:8602  function unlockAchievement(address _user, string memory _achievementName) ... */\n    tag_7:\n      tag_68\n      0x04\n      dup1\n      calldatasize\n      sub\n      dup2\n      add\n      swap1\n      tag_69\n      swap2\n      swap1\n      tag_70\n      jump\t// in\n    tag_69:\n      tag_71\n      jump\t// in\n    tag_68:\n      stop\n        /* \"@openzeppelin/contracts/access/AccessControl.sol\":3786:3906  function getRoleAdmin(bytes32 role) public view virtual returns (bytes32) {... */\n    tag_8:\n      tag_72\n      0x04\n      dup1\n      calldatasize\n      sub\n      dup2\n      add\n      swap1\n      tag_73\n      swap2\n      swap1\n      tag_74\n      jump\t// in\n    tag_73:\n      tag_75\n      jump\t// in\n    tag_72:\n      mload(0x40)\n      tag_76\n      swap2\n      swap1\n      tag_77\n      jump\t// in\n    tag_76:\n      mload(0x40)\n      dup1\n      swap2\n      sub\n      swap1\n      return\n        /* \"ChamaGamification.sol\":12073:12188  function getReferralCount(address _user) external view returns (uint256) {... */\n    tag_9:\n      tag_78\n      0x04\n      dup1\n      calldatasize\n      sub\n      dup2\n      add\n      swap1\n      tag_79\n      swap2\n      swap1\n      tag_80\n      jump\t// in\n    tag_79:\n      tag_81\n      jump\t// in\n    tag_78:\n      mload(0x40)\n      tag_82\n      swap2\n      swap1\n      tag_83\n      jump\t// in\n    tag_82:\n      mload(0x40)\n      dup1\n      swap2\n      sub\n      swap1\n      return\n        /* \"ChamaGamification.sol\":1418:1466  mapping(string => bool) public validAchievements */\n    tag_10:\n      tag_84\n      0x04\n      dup1\n      calldatasize\n      sub\n      dup2\n      add\n      swap1\n      tag_85\n      swap2\n      swap1\n      tag_52\n      jump\t// in\n    tag_85:\n      tag_86\n      jump\t// in\n    tag_84:\n      mload(0x40)\n      tag_87\n      swap2\n      swap1\n      tag_59\n      jump\t// in\n    tag_87:\n      mload(0x40)\n      dup1\n      swap2\n      sub\n      swap1\n      return\n        /* \"@openzeppelin/contracts/access/AccessControl.sol\":4202:4338  function grantRole(bytes32 role, address account) public virtual onlyRole(getRoleAdmin(role)) {... */\n    tag_11:\n      tag_88\n      0x04\n      dup1\n      calldatasize\n      sub\n      dup2\n      add\n      swap1\n      tag_89\n      swap2\n      swap1\n      tag_90\n      jump\t// in\n    tag_89:\n      tag_91\n      jump\t// in\n    tag_88:\n      stop\n        /* \"ChamaGamification.sol\":6021:6904  function acceptInvite(bytes32 _referrerHash) external whenNotPaused {... */\n    tag_12:\n      tag_92\n      0x04\n      dup1\n      calldatasize\n      sub\n      dup2\n      add\n      swap1\n      tag_93\n      swap2\n      swap1\n      tag_74\n      jump\t// in\n    tag_93:\n      tag_94\n      jump\t// in\n    tag_92:\n      stop\n        /* \"@openzeppelin/contracts/access/AccessControl.sol\":5304:5549  function renounceRole(bytes32 role, address callerConfirmation) public virtual {... */\n    tag_13:\n      tag_95\n      0x04\n      dup1\n      calldatasize\n      sub\n      dup2\n      add\n      swap1\n      tag_96\n      swap2\n      swap1\n      tag_90\n      jump\t// in\n    tag_96:\n      tag_97\n      jump\t// in\n    tag_95:\n      stop\n        /* \"ChamaGamification.sol\":13349:13425  function unpause() external onlyRole(ADMIN_ROLE) {... */\n    tag_14:\n      tag_98\n      tag_99\n      jump\t// in\n    tag_98:\n      stop\n        /* \"ChamaGamification.sol\":12322:12475  function getAchievementPoints(string memory _achievementName) external view returns (uint256) {... */\n    tag_15:\n      tag_100\n      0x04\n      dup1\n      calldatasize\n      sub\n      dup2\n      add\n      swap1\n      tag_101\n      swap2\n      swap1\n      tag_52\n      jump\t// in\n    tag_101:\n      tag_102\n      jump\t// in\n    tag_100:\n      mload(0x40)\n      tag_103\n      swap2\n      swap1\n      tag_83\n      jump\t// in\n    tag_103:\n      mload(0x40)\n      dup1\n      swap2\n      sub\n      swap1\n      return\n        /* \"ChamaGamification.sol\":12194:12316  function getUserReferrals(address _user) external view returns (address[] memory) {... */\n    tag_16:\n      tag_104\n      0x04\n      dup1\n      calldatasize\n      sub\n      dup2\n      add\n      swap1\n      tag_105\n      swap2\n      swap1\n      tag_80\n      jump\t// in\n    tag_105:\n      tag_106\n      jump\t// in\n    tag_104:\n      mload(0x40)\n      tag_107\n      swap2\n      swap1\n      tag_108\n      jump\t// in\n    tag_107:\n      mload(0x40)\n      dup1\n      swap2\n      sub\n      swap1\n      return\n        /* \"ChamaGamification.sol\":1225:1271  mapping(address => uint256) public inviteCount */\n    tag_17:\n      tag_109\n      0x04\n      dup1\n      calldatasize\n      sub\n      dup2\n      add\n      swap1\n      tag_110\n      swap2\n      swap1\n      tag_80\n      jump\t// in\n    tag_110:\n      tag_111\n      jump\t// in\n    tag_109:\n      mload(0x40)\n      tag_112\n      swap2\n      swap1\n      tag_83\n      jump\t// in\n    tag_112:\n      mload(0x40)\n      dup1\n      swap2\n      sub\n      swap1\n      return\n        /* \"ChamaGamification.sol\":1064:1110  mapping(address => bytes32) public invitations */\n    tag_18:\n      tag_113\n      0x04\n      dup1\n      calldatasize\n      sub\n      dup2\n      add\n      swap1\n      tag_114\n      swap2\n      swap1\n      tag_80\n      jump\t// in\n    tag_114:\n      tag_115\n      jump\t// in\n    tag_113:\n      mload(0x40)\n      tag_116\n      swap2\n      swap1\n      tag_77\n      jump\t// in\n    tag_116:\n      mload(0x40)\n      dup1\n      swap2\n      sub\n      swap1\n      return\n        /* \"@openzeppelin/contracts/security/Pausable.sol\":1615:1699  function paused() public view virtual returns (bool) {... */\n    tag_19:\n      tag_117\n      tag_118\n      jump\t// in\n    tag_117:\n      mload(0x40)\n      tag_119\n      swap2\n      swap1\n      tag_59\n      jump\t// in\n    tag_119:\n      mload(0x40)\n      dup1\n      swap2\n      sub\n      swap1\n      return\n        /* \"ChamaGamification.sol\":7113:7295  function addScore(address _user, uint256 _points, string memory _reason) ... */\n    tag_20:\n      tag_120\n      0x04\n      dup1\n      calldatasize\n      sub\n      dup2\n      add\n      swap1\n      tag_121\n      swap2\n      swap1\n      tag_122\n      jump\t// in\n    tag_121:\n      tag_123\n      jump\t// in\n    tag_120:\n      stop\n        /* \"ChamaGamification.sol\":11951:12067  function getUserInviteHash(address _user) external view returns (bytes32) {... */\n    tag_21:\n      tag_124\n      0x04\n      dup1\n      calldatasize\n      sub\n      dup2\n      add\n      swap1\n      tag_125\n      swap2\n      swap1\n      tag_80\n      jump\t// in\n    tag_125:\n      tag_126\n      jump\t// in\n    tag_124:\n      mload(0x40)\n      tag_127\n      swap2\n      swap1\n      tag_77\n      jump\t// in\n    tag_127:\n      mload(0x40)\n      dup1\n      swap2\n      sub\n      swap1\n      return\n        /* \"ChamaGamification.sol\":13121:13265  function setChamaCore(address _chamaCoreContract) external onlyRole(ADMIN_ROLE) {... */\n    tag_22:\n      tag_128\n      0x04\n      dup1\n      calldatasize\n      sub\n      dup2\n      add\n      swap1\n      tag_129\n      swap2\n      swap1\n      tag_80\n      jump\t// in\n    tag_129:\n      tag_130\n      jump\t// in\n    tag_128:\n      stop\n        /* \"ChamaGamification.sol\":500:560  bytes32 public constant ADMIN_ROLE = keccak256(\"ADMIN_ROLE\") */\n    tag_23:\n      tag_131\n      tag_132\n      jump\t// in\n    tag_131:\n      mload(0x40)\n      tag_133\n      swap2\n      swap1\n      tag_77\n      jump\t// in\n    tag_133:\n      mload(0x40)\n      dup1\n      swap2\n      sub\n      swap1\n      return\n        /* \"ChamaGamification.sol\":958:999  mapping(address => uint256) public scores */\n    tag_24:\n      tag_134\n      0x04\n      dup1\n      calldatasize\n      sub\n      dup2\n      add\n      swap1\n      tag_135\n      swap2\n      swap1\n      tag_80\n      jump\t// in\n    tag_135:\n      tag_136\n      jump\t// in\n    tag_134:\n      mload(0x40)\n      tag_137\n      swap2\n      swap1\n      tag_83\n      jump\t// in\n    tag_137:\n      mload(0x40)\n      dup1\n      swap2\n      sub\n      swap1\n      return\n        /* \"ChamaGamification.sol\":13271:13343  function pause() external onlyRole(ADMIN_ROLE) {... */\n    tag_25:\n      tag_138\n      tag_139\n      jump\t// in\n    tag_138:\n      stop\n        /* \"ChamaGamification.sol\":13487:13629  function findAddressByInviteHash(bytes32 _inviteHash) external view returns (address) {... */\n    tag_26:\n      tag_140\n      0x04\n      dup1\n      calldatasize\n      sub\n      dup2\n      add\n      swap1\n      tag_141\n      swap2\n      swap1\n      tag_74\n      jump\t// in\n    tag_141:\n      tag_142\n      jump\t// in\n    tag_140:\n      mload(0x40)\n      tag_143\n      swap2\n      swap1\n      tag_144\n      jump\t// in\n    tag_143:\n      mload(0x40)\n      dup1\n      swap2\n      sub\n      swap1\n      return\n        /* \"@openzeppelin/contracts/access/AccessControl.sol\":2830:2966  function hasRole(bytes32 role, address account) public view virtual returns (bool) {... */\n    tag_27:\n      tag_145\n      0x04\n      dup1\n      calldatasize\n      sub\n      dup2\n      add\n      swap1\n      tag_146\n      swap2\n      swap1\n      tag_90\n      jump\t// in\n    tag_146:\n      tag_147\n      jump\t// in\n    tag_145:\n      mload(0x40)\n      tag_148\n      swap2\n      swap1\n      tag_59\n      jump\t// in\n    tag_148:\n      mload(0x40)\n      dup1\n      swap2\n      sub\n      swap1\n      return\n        /* \"ChamaGamification.sol\":11828:11945  function getUserProfile(address _user) external view returns (Profile memory) {... */\n    tag_28:\n      tag_149\n      0x04\n      dup1\n      calldatasize\n      sub\n      dup2\n      add\n      swap1\n      tag_150\n      swap2\n      swap1\n      tag_80\n      jump\t// in\n    tag_150:\n      tag_151\n      jump\t// in\n    tag_149:\n      mload(0x40)\n      tag_152\n      swap2\n      swap1\n      tag_153\n      jump\t// in\n    tag_152:\n      mload(0x40)\n      dup1\n      swap2\n      sub\n      swap1\n      return\n        /* \"ChamaGamification.sol\":3934:4441  function createProfile(string memory _username, bytes32 _emailHash) ... */\n    tag_29:\n      tag_154\n      0x04\n      dup1\n      calldatasize\n      sub\n      dup2\n      add\n      swap1\n      tag_155\n      swap2\n      swap1\n      tag_156\n      jump\t// in\n    tag_155:\n      tag_157\n      jump\t// in\n    tag_154:\n      stop\n        /* \"@openzeppelin/contracts/access/AccessControl.sol\":2196:2245  bytes32 public constant DEFAULT_ADMIN_ROLE = 0x00 */\n    tag_30:\n      tag_158\n      tag_159\n      jump\t// in\n    tag_158:\n      mload(0x40)\n      tag_160\n      swap2\n      swap1\n      tag_77\n      jump\t// in\n    tag_160:\n      mload(0x40)\n      dup1\n      swap2\n      sub\n      swap1\n      return\n        /* \"ChamaGamification.sol\":4968:5887  function generateInvite(string memory _username, bytes32 _emailHash) ... */\n    tag_31:\n      tag_161\n      0x04\n      dup1\n      calldatasize\n      sub\n      dup2\n      add\n      swap1\n      tag_162\n      swap2\n      swap1\n      tag_156\n      jump\t// in\n    tag_162:\n      tag_163\n      jump\t// in\n    tag_161:\n      stop\n        /* \"ChamaGamification.sol\":566:636  bytes32 public constant CHAMA_CORE_ROLE = keccak256(\"CHAMA_CORE_ROLE\") */\n    tag_32:\n      tag_164\n      tag_165\n      jump\t// in\n    tag_164:\n      mload(0x40)\n      tag_166\n      swap2\n      swap1\n      tag_77\n      jump\t// in\n    tag_166:\n      mload(0x40)\n      dup1\n      swap2\n      sub\n      swap1\n      return\n        /* \"ChamaGamification.sol\":11578:11684  function getUserScore(address _user) external view returns (uint256) {... */\n    tag_33:\n      tag_167\n      0x04\n      dup1\n      calldatasize\n      sub\n      dup2\n      add\n      swap1\n      tag_168\n      swap2\n      swap1\n      tag_80\n      jump\t// in\n    tag_168:\n      tag_169\n      jump\t// in\n    tag_167:\n      mload(0x40)\n      tag_170\n      swap2\n      swap1\n      tag_83\n      jump\t// in\n    tag_170:\n      mload(0x40)\n      dup1\n      swap2\n      sub\n      swap1\n      return\n        /* \"ChamaGamification.sol\":1176:1219  mapping(address => Profile) public profiles */\n    tag_34:\n      tag_171\n      0x04\n      dup1\n      calldatasize\n      sub\n      dup2\n      add\n      swap1\n      tag_172\n      swap2\n      swap1\n      tag_80\n      jump\t// in\n    tag_172:\n      tag_173\n      jump\t// in\n    tag_171:\n      mload(0x40)\n      tag_174\n      swap6\n      swap5\n      swap4\n      swap3\n      swap2\n      swap1\n      tag_175\n      jump\t// in\n    tag_174:\n      mload(0x40)\n      dup1\n      swap2\n      sub\n      swap1\n      return\n        /* \"ChamaGamification.sol\":1005:1058  mapping(address => Achievement[]) public achievements */\n    tag_35:\n      tag_176\n      0x04\n      dup1\n      calldatasize\n      sub\n      dup2\n      add\n      swap1\n      tag_177\n      swap2\n      swap1\n      tag_178\n      jump\t// in\n    tag_177:\n      tag_179\n      jump\t// in\n    tag_176:\n      mload(0x40)\n      tag_180\n      swap5\n      swap4\n      swap3\n      swap2\n      swap1\n      tag_181\n      jump\t// in\n    tag_180:\n      mload(0x40)\n      dup1\n      swap2\n      sub\n      swap1\n      return\n        /* \"ChamaGamification.sol\":12871:13115  function updateAchievementPoints(... */\n    tag_36:\n      tag_182\n      0x04\n      dup1\n      calldatasize\n      sub\n      dup2\n      add\n      swap1\n      tag_183\n      swap2\n      swap1\n      tag_62\n      jump\t// in\n    tag_183:\n      tag_184\n      jump\t// in\n    tag_182:\n      stop\n        /* \"@openzeppelin/contracts/access/AccessControl.sol\":4618:4756  function revokeRole(bytes32 role, address account) public virtual onlyRole(getRoleAdmin(role)) {... */\n    tag_37:\n      tag_185\n      0x04\n      dup1\n      calldatasize\n      sub\n      dup2\n      add\n      swap1\n      tag_186\n      swap2\n      swap1\n      tag_90\n      jump\t// in\n    tag_186:\n      tag_187\n      jump\t// in\n    tag_185:\n      stop\n        /* \"ChamaGamification.sol\":1116:1170  mapping(bytes32 => address) public inviteHashToAddress */\n    tag_38:\n      tag_188\n      0x04\n      dup1\n      calldatasize\n      sub\n      dup2\n      add\n      swap1\n      tag_189\n      swap2\n      swap1\n      tag_74\n      jump\t// in\n    tag_189:\n      tag_190\n      jump\t// in\n    tag_188:\n      mload(0x40)\n      tag_191\n      swap2\n      swap1\n      tag_144\n      jump\t// in\n    tag_191:\n      mload(0x40)\n      dup1\n      swap2\n      sub\n      swap1\n      return\n        /* \"ChamaGamification.sol\":1277:1323  mapping(address => address[]) public referrals */\n    tag_39:\n      tag_192\n      0x04\n      dup1\n      calldatasize\n      sub\n      dup2\n      add\n      swap1\n      tag_193\n      swap2\n      swap1\n      tag_178\n      jump\t// in\n    tag_193:\n      tag_194\n      jump\t// in\n    tag_192:\n      mload(0x40)\n      tag_195\n      swap2\n      swap1\n      tag_144\n      jump\t// in\n    tag_195:\n      mload(0x40)\n      dup1\n      swap2\n      sub\n      swap1\n      return\n        /* \"ChamaGamification.sol\":11690:11822  function getUserAchievements(address _user) external view returns (Achievement[] memory) {... */\n    tag_40:\n      tag_196\n      0x04\n      dup1\n      calldatasize\n      sub\n      dup2\n      add\n      swap1\n      tag_197\n      swap2\n      swap1\n      tag_80\n      jump\t// in\n    tag_197:\n      tag_198\n      jump\t// in\n    tag_196:\n      mload(0x40)\n      tag_199\n      swap2\n      swap1\n      tag_200\n      jump\t// in\n    tag_199:\n      mload(0x40)\n      dup1\n      swap2\n      sub\n      swap1\n      return\n        /* \"ChamaGamification.sol\":7883:8220  function subtractScore(address _user, uint256 _points, string memory _reason) ... */\n    tag_41:\n      tag_201\n      0x04\n      dup1\n      calldatasize\n      sub\n      dup2\n      add\n      swap1\n      tag_202\n      swap2\n      swap1\n      tag_122\n      jump\t// in\n    tag_202:\n      tag_203\n      jump\t// in\n    tag_201:\n      stop\n        /* \"ChamaGamification.sol\":1361:1412  mapping(string => uint256) public achievementPoints */\n    tag_42:\n      tag_204\n      0x04\n      dup1\n      calldatasize\n      sub\n      dup2\n      add\n      swap1\n      tag_205\n      swap2\n      swap1\n      tag_52\n      jump\t// in\n    tag_205:\n      tag_206\n      jump\t// in\n    tag_204:\n      mload(0x40)\n      tag_207\n      swap2\n      swap1\n      tag_83\n      jump\t// in\n    tag_207:\n      mload(0x40)\n      dup1\n      swap2\n      sub\n      swap1\n      return\n        /* \"ChamaGamification.sol\":4532:4808  function updateProfile(string memory _username) external whenNotPaused {... */\n    tag_53:\n        /* \"@openzeppelin/contracts/security/Pausable.sol\":1239:1258  _requireNotPaused() */\n      tag_209\n        /* \"@openzeppelin/contracts/security/Pausable.sol\":1239:1256  _requireNotPaused */\n      tag_210\n        /* \"@openzeppelin/contracts/security/Pausable.sol\":1239:1258  _requireNotPaused() */\n      jump\t// in\n    tag_209:\n        /* \"ChamaGamification.sol\":4661:4662  0 */\n      0x00\n        /* \"ChamaGamification.sol\":4617:4663  profiles[msg.sender].userAddress == address(0) */\n      0xffffffffffffffffffffffffffffffffffffffff\n      and\n        /* \"ChamaGamification.sol\":4617:4625  profiles */\n      0x07\n        /* \"ChamaGamification.sol\":4617:4637  profiles[msg.sender] */\n      0x00\n        /* \"ChamaGamification.sol\":4626:4636  msg.sender */\n      caller\n        /* \"ChamaGamification.sol\":4617:4637  profiles[msg.sender] */\n      0xffffffffffffffffffffffffffffffffffffffff\n      and\n      0xffffffffffffffffffffffffffffffffffffffff\n      and\n      dup2\n      mstore\n      0x20\n      add\n      swap1\n      dup2\n      mstore\n      0x20\n      add\n      0x00\n      keccak256\n        /* \"ChamaGamification.sol\":4617:4649  profiles[msg.sender].userAddress */\n      0x00\n      add\n      0x00\n      swap1\n      sload\n      swap1\n      0x0100\n      exp\n      swap1\n      div\n      0xffffffffffffffffffffffffffffffffffffffff\n      and\n        /* \"ChamaGamification.sol\":4617:4663  profiles[msg.sender].userAddress == address(0) */\n      0xffffffffffffffffffffffffffffffffffffffff\n      and\n      sub\n        /* \"ChamaGamification.sol\":4613:4689  if (profiles[msg.sender].userAddress == address(0)) revert ProfileNotFound() */\n      tag_212\n      jumpi\n        /* \"ChamaGamification.sol\":4672:4689  ProfileNotFound() */\n      mload(0x40)\n      0x72da560b00000000000000000000000000000000000000000000000000000000\n      dup2\n      mstore\n      0x04\n      add\n      mload(0x40)\n      dup1\n      swap2\n      sub\n      swap1\n      revert\n        /* \"ChamaGamification.sol\":4613:4689  if (profiles[msg.sender].userAddress == address(0)) revert ProfileNotFound() */\n    tag_212:\n        /* \"ChamaGamification.sol\":4740:4749  _username */\n      dup1\n        /* \"ChamaGamification.sol\":4708:4716  profiles */\n      0x07\n        /* \"ChamaGamification.sol\":4708:4728  profiles[msg.sender] */\n      0x00\n        /* \"ChamaGamification.sol\":4717:4727  msg.sender */\n      caller\n        /* \"ChamaGamification.sol\":4708:4728  profiles[msg.sender] */\n      0xffffffffffffffffffffffffffffffffffffffff\n      and\n      0xffffffffffffffffffffffffffffffffffffffff\n      and\n      dup2\n      mstore\n      0x20\n      add\n      swap1\n      dup2\n      mstore\n      0x20\n      add\n      0x00\n      keccak256\n        /* \"ChamaGamification.sol\":4708:4737  profiles[msg.sender].username */\n      0x01\n      add\n        /* \"ChamaGamification.sol\":4708:4749  profiles[msg.sender].username = _username */\n      swap1\n      dup2\n      tag_213\n      swap2\n      swap1\n      tag_214\n      jump\t// in\n    tag_213:\n      pop\n        /* \"ChamaGamification.sol\":4779:4789  msg.sender */\n      caller\n        /* \"ChamaGamification.sol\":4764:4801  ProfileUpdated(msg.sender, _username) */\n      0xffffffffffffffffffffffffffffffffffffffff\n      and\n      0xdd635a4cd84864e37e4479dbfc2ec667acfa473c83c8422a8ac9d9d07599b01c\n        /* \"ChamaGamification.sol\":4791:4800  _username */\n      dup3\n        /* \"ChamaGamification.sol\":4764:4801  ProfileUpdated(msg.sender, _username) */\n      mload(0x40)\n      tag_215\n      swap2\n      swap1\n      tag_216\n      jump\t// in\n    tag_215:\n      mload(0x40)\n      dup1\n      swap2\n      sub\n      swap1\n      log2\n        /* \"ChamaGamification.sol\":4532:4808  function updateProfile(string memory _username) external whenNotPaused {... */\n      pop\n      jump\t// out\n        /* \"@openzeppelin/contracts/access/AccessControl.sol\":2541:2743  function supportsInterface(bytes4 interfaceId) public view virtual override returns (bool) {... */\n    tag_57:\n        /* \"@openzeppelin/contracts/access/AccessControl.sol\":2626:2630  bool */\n      0x00\n        /* \"@openzeppelin/contracts/access/AccessControl.sol\":2664:2696  type(IAccessControl).interfaceId */\n      0x7965db0b00000000000000000000000000000000000000000000000000000000\n        /* \"@openzeppelin/contracts/access/AccessControl.sol\":2649:2696  interfaceId == type(IAccessControl).interfaceId */\n      not(0xffffffffffffffffffffffffffffffffffffffffffffffffffffffff)\n      and\n        /* \"@openzeppelin/contracts/access/AccessControl.sol\":2649:2660  interfaceId */\n      dup3\n        /* \"@openzeppelin/contracts/access/AccessControl.sol\":2649:2696  interfaceId == type(IAccessControl).interfaceId */\n      not(0xffffffffffffffffffffffffffffffffffffffffffffffffffffffff)\n      and\n      eq\n        /* \"@openzeppelin/contracts/access/AccessControl.sol\":2649:2736  interfaceId == type(IAccessControl).interfaceId || super.supportsInterface(interfaceId) */\n      dup1\n      tag_218\n      jumpi\n      pop\n        /* \"@openzeppelin/contracts/access/AccessControl.sol\":2700:2736  super.supportsInterface(interfaceId) */\n      tag_219\n        /* \"@openzeppelin/contracts/access/AccessControl.sol\":2724:2735  interfaceId */\n      dup3\n        /* \"@openzeppelin/contracts/access/AccessControl.sol\":2700:2723  super.supportsInterface */\n      tag_220\n        /* \"@openzeppelin/contracts/access/AccessControl.sol\":2700:2736  super.supportsInterface(interfaceId) */\n      jump\t// in\n    tag_219:\n        /* \"@openzeppelin/contracts/access/AccessControl.sol\":2649:2736  interfaceId == type(IAccessControl).interfaceId || super.supportsInterface(interfaceId) */\n    tag_218:\n        /* \"@openzeppelin/contracts/access/AccessControl.sol\":2642:2736  return interfaceId == type(IAccessControl).interfaceId || super.supportsInterface(interfaceId) */\n      swap1\n      pop\n        /* \"@openzeppelin/contracts/access/AccessControl.sol\":2541:2743  function supportsInterface(bytes4 interfaceId) public view virtual override returns (bool) {... */\n      swap2\n      swap1\n      pop\n      jump\t// out\n        /* \"ChamaGamification.sol\":12658:12865  function addAchievement(... */\n    tag_63:\n        /* \"ChamaGamification.sol\":537:560  keccak256(\"ADMIN_ROLE\") */\n      0xa49807205ce4d355092ef5a8a18f56e8913cf4a201fbe287825b095693c21775\n        /* \"@openzeppelin/contracts/access/AccessControl.sol\":2473:2489  _checkRole(role) */\n      tag_222\n        /* \"@openzeppelin/contracts/access/AccessControl.sol\":2484:2488  role */\n      dup2\n        /* \"@openzeppelin/contracts/access/AccessControl.sol\":2473:2483  _checkRole */\n      tag_223\n        /* \"@openzeppelin/contracts/access/AccessControl.sol\":2473:2489  _checkRole(role) */\n      jump\t// in\n    tag_222:\n        /* \"ChamaGamification.sol\":12810:12817  _points */\n      dup2\n        /* \"ChamaGamification.sol\":12783:12800  achievementPoints */\n      0x0a\n        /* \"ChamaGamification.sol\":12801:12806  _name */\n      dup5\n        /* \"ChamaGamification.sol\":12783:12807  achievementPoints[_name] */\n      mload(0x40)\n      tag_225\n      swap2\n      swap1\n      tag_226\n      jump\t// in\n    tag_225:\n      swap1\n      dup2\n      mstore\n      0x20\n      add\n      mload(0x40)\n      dup1\n      swap2\n      sub\n      swap1\n      keccak256\n        /* \"ChamaGamification.sol\":12783:12817  achievementPoints[_name] = _points */\n      dup2\n      swap1\n      sstore\n      pop\n        /* \"ChamaGamification.sol\":12854:12858  true */\n      0x01\n        /* \"ChamaGamification.sol\":12827:12844  validAchievements */\n      0x0b\n        /* \"ChamaGamification.sol\":12845:12850  _name */\n      dup5\n        /* \"ChamaGamification.sol\":12827:12851  validAchievements[_name] */\n      mload(0x40)\n      tag_227\n      swap2\n      swap1\n      tag_226\n      jump\t// in\n    tag_227:\n      swap1\n      dup2\n      mstore\n      0x20\n      add\n      mload(0x40)\n      dup1\n      swap2\n      sub\n      swap1\n      keccak256\n      0x00\n        /* \"ChamaGamification.sol\":12827:12858  validAchievements[_name] = true */\n      0x0100\n      exp\n      dup2\n      sload\n      dup2\n      0xff\n      mul\n      not\n      and\n      swap1\n      dup4\n      iszero\n      iszero\n      mul\n      or\n      swap1\n      sstore\n      pop\n        /* \"ChamaGamification.sol\":12658:12865  function addAchievement(... */\n      pop\n      pop\n      pop\n      jump\t// out\n        /* \"ChamaGamification.sol\":12481:12629  function isValidAchievement(string memory _achievementName) external view returns (bool) {... */\n    tag_66:\n        /* \"ChamaGamification.sol\":12564:12568  bool */\n      0x00\n        /* \"ChamaGamification.sol\":12587:12604  validAchievements */\n      0x0b\n        /* \"ChamaGamification.sol\":12605:12621  _achievementName */\n      dup3\n        /* \"ChamaGamification.sol\":12587:12622  validAchievements[_achievementName] */\n      mload(0x40)\n      tag_229\n      swap2\n      swap1\n      tag_226\n      jump\t// in\n    tag_229:\n      swap1\n      dup2\n      mstore\n      0x20\n      add\n      mload(0x40)\n      dup1\n      swap2\n      sub\n      swap1\n      keccak256\n      0x00\n      swap1\n      sload\n      swap1\n      0x0100\n      exp\n      swap1\n      div\n      0xff\n      and\n        /* \"ChamaGamification.sol\":12580:12622  return validAchievements[_achievementName] */\n      swap1\n      pop\n        /* \"ChamaGamification.sol\":12481:12629  function isValidAchievement(string memory _achievementName) external view returns (bool) {... */\n      swap2\n      swap1\n      pop\n      jump\t// out\n        /* \"ChamaGamification.sol\":8410:8602  function unlockAchievement(address _user, string memory _achievementName) ... */\n    tag_71:\n        /* \"ChamaGamification.sol\":608:636  keccak256(\"CHAMA_CORE_ROLE\") */\n      0xc5c74b901cb87f1e81a3e0539a5d95bf14fa111210701dd52208a2390204b455\n        /* \"@openzeppelin/contracts/access/AccessControl.sol\":2473:2489  _checkRole(role) */\n      tag_231\n        /* \"@openzeppelin/contracts/access/AccessControl.sol\":2484:2488  role */\n      dup2\n        /* \"@openzeppelin/contracts/access/AccessControl.sol\":2473:2483  _checkRole */\n      tag_223\n        /* \"@openzeppelin/contracts/access/AccessControl.sol\":2473:2489  _checkRole(role) */\n      jump\t// in\n    tag_231:\n        /* \"ChamaGamification.sol\":8552:8595  _unlockAchievement(_user, _achievementName) */\n      tag_233\n        /* \"ChamaGamification.sol\":8571:8576  _user */\n      dup4\n        /* \"ChamaGamification.sol\":8578:8594  _achievementName */\n      dup4\n        /* \"ChamaGamification.sol\":8552:8570  _unlockAchievement */\n      tag_234\n        /* \"ChamaGamification.sol\":8552:8595  _unlockAchievement(_user, _achievementName) */\n      jump\t// in\n    tag_233:\n        /* \"ChamaGamification.sol\":8410:8602  function unlockAchievement(address _user, string memory _achievementName) ... */\n      pop\n      pop\n      pop\n      jump\t// out\n        /* \"@openzeppelin/contracts/access/AccessControl.sol\":3786:3906  function getRoleAdmin(bytes32 role) public view virtual returns (bytes32) {... */\n    tag_75:\n        /* \"@openzeppelin/contracts/access/AccessControl.sol\":3851:3858  bytes32 */\n      0x00\n        /* \"@openzeppelin/contracts/access/AccessControl.sol\":3877:3883  _roles */\n      0x02\n        /* \"@openzeppelin/contracts/access/AccessControl.sol\":3877:3889  _roles[role] */\n      0x00\n        /* \"@openzeppelin/contracts/access/AccessControl.sol\":3884:3888  role */\n      dup4\n        /* \"@openzeppelin/contracts/access/AccessControl.sol\":3877:3889  _roles[role] */\n      dup2\n      mstore\n      0x20\n      add\n      swap1\n      dup2\n      mstore\n      0x20\n      add\n      0x00\n      keccak256\n        /* \"@openzeppelin/contracts/access/AccessControl.sol\":3877:3899  _roles[role].adminRole */\n      0x01\n      add\n      sload\n        /* \"@openzeppelin/contracts/access/AccessControl.sol\":3870:3899  return _roles[role].adminRole */\n      swap1\n      pop\n        /* \"@openzeppelin/contracts/access/AccessControl.sol\":3786:3906  function getRoleAdmin(bytes32 role) public view virtual returns (bytes32) {... */\n      swap2\n      swap1\n      pop\n      jump\t// out\n        /* \"ChamaGamification.sol\":12073:12188  function getReferralCount(address _user) external view returns (uint256) {... */\n    tag_81:\n        /* \"ChamaGamification.sol\":12137:12144  uint256 */\n      0x00\n        /* \"ChamaGamification.sol\":12163:12174  inviteCount */\n      0x08\n        /* \"ChamaGamification.sol\":12163:12181  inviteCount[_user] */\n      0x00\n        /* \"ChamaGamification.sol\":12175:12180  _user */\n      dup4\n        /* \"ChamaGamification.sol\":12163:12181  inviteCount[_user] */\n      0xffffffffffffffffffffffffffffffffffffffff\n      and\n      0xffffffffffffffffffffffffffffffffffffffff\n      and\n      dup2\n      mstore\n      0x20\n      add\n      swap1\n      dup2\n      mstore\n      0x20\n      add\n      0x00\n      keccak256\n      sload\n        /* \"ChamaGamification.sol\":12156:12181  return inviteCount[_user] */\n      swap1\n      pop\n        /* \"ChamaGamification.sol\":12073:12188  function getReferralCount(address _user) external view returns (uint256) {... */\n      swap2\n      swap1\n      pop\n      jump\t// out\n        /* \"ChamaGamification.sol\":1418:1466  mapping(string => bool) public validAchievements */\n    tag_86:\n      0x0b\n      dup2\n      dup1\n      mload\n      0x20\n      dup2\n      add\n      dup3\n      add\n      dup1\n      mload\n      dup5\n      dup3\n      mstore\n      0x20\n      dup4\n      add\n      0x20\n      dup6\n      add\n      keccak256\n      dup2\n      dup4\n      mstore\n      dup1\n      swap6\n      pop\n      pop\n      pop\n      pop\n      pop\n      pop\n      0x00\n      swap2\n      pop\n      sload\n      swap1\n      0x0100\n      exp\n      swap1\n      div\n      0xff\n      and\n      dup2\n      jump\t// out\n        /* \"@openzeppelin/contracts/access/AccessControl.sol\":4202:4338  function grantRole(bytes32 role, address account) public virtual onlyRole(getRoleAdmin(role)) {... */\n    tag_91:\n        /* \"@openzeppelin/contracts/access/AccessControl.sol\":4276:4294  getRoleAdmin(role) */\n      tag_237\n        /* \"@openzeppelin/contracts/access/AccessControl.sol\":4289:4293  role */\n      dup3\n        /* \"@openzeppelin/contracts/access/AccessControl.sol\":4276:4288  getRoleAdmin */\n      tag_75\n        /* \"@openzeppelin/contracts/access/AccessControl.sol\":4276:4294  getRoleAdmin(role) */\n      jump\t// in\n    tag_237:\n        /* \"@openzeppelin/contracts/access/AccessControl.sol\":2473:2489  _checkRole(role) */\n      tag_239\n        /* \"@openzeppelin/contracts/access/AccessControl.sol\":2484:2488  role */\n      dup2\n        /* \"@openzeppelin/contracts/access/AccessControl.sol\":2473:2483  _checkRole */\n      tag_223\n        /* \"@openzeppelin/contracts/access/AccessControl.sol\":2473:2489  _checkRole(role) */\n      jump\t// in\n    tag_239:\n        /* \"@openzeppelin/contracts/access/AccessControl.sol\":4306:4331  _grantRole(role, account) */\n      tag_241\n        /* \"@openzeppelin/contracts/access/AccessControl.sol\":4317:4321  role */\n      dup4\n        /* \"@openzeppelin/contracts/access/AccessControl.sol\":4323:4330  account */\n      dup4\n        /* \"@openzeppelin/contracts/access/AccessControl.sol\":4306:4316  _grantRole */\n      tag_242\n        /* \"@openzeppelin/contracts/access/AccessControl.sol\":4306:4331  _grantRole(role, account) */\n      jump\t// in\n    tag_241:\n      pop\n        /* \"@openzeppelin/contracts/access/AccessControl.sol\":4202:4338  function grantRole(bytes32 role, address account) public virtual onlyRole(getRoleAdmin(role)) {... */\n      pop\n      pop\n      pop\n      jump\t// out\n        /* \"ChamaGamification.sol\":6021:6904  function acceptInvite(bytes32 _referrerHash) external whenNotPaused {... */\n    tag_94:\n        /* \"@openzeppelin/contracts/security/Pausable.sol\":1239:1258  _requireNotPaused() */\n      tag_244\n        /* \"@openzeppelin/contracts/security/Pausable.sol\":1239:1256  _requireNotPaused */\n      tag_210\n        /* \"@openzeppelin/contracts/security/Pausable.sol\":1239:1258  _requireNotPaused() */\n      jump\t// in\n    tag_244:\n        /* \"ChamaGamification.sol\":6099:6115  address referrer */\n      0x00\n        /* \"ChamaGamification.sol\":6118:6137  inviteHashToAddress */\n      0x06\n        /* \"ChamaGamification.sol\":6118:6152  inviteHashToAddress[_referrerHash] */\n      0x00\n        /* \"ChamaGamification.sol\":6138:6151  _referrerHash */\n      dup4\n        /* \"ChamaGamification.sol\":6118:6152  inviteHashToAddress[_referrerHash] */\n      dup2\n      mstore\n      0x20\n      add\n      swap1\n      dup2\n      mstore\n      0x20\n      add\n      0x00\n      keccak256\n      0x00\n      swap1\n      sload\n      swap1\n      0x0100\n      exp\n      swap1\n      div\n      0xffffffffffffffffffffffffffffffffffffffff\n      and\n        /* \"ChamaGamification.sol\":6099:6152  address referrer = inviteHashToAddress[_referrerHash] */\n      swap1\n      pop\n        /* \"ChamaGamification.sol\":6186:6187  0 */\n      0x00\n        /* \"ChamaGamification.sol\":6166:6188  referrer == address(0) */\n      0xffffffffffffffffffffffffffffffffffffffff\n      and\n        /* \"ChamaGamification.sol\":6166:6174  referrer */\n      dup2\n        /* \"ChamaGamification.sol\":6166:6188  referrer == address(0) */\n      0xffffffffffffffffffffffffffffffffffffffff\n      and\n      sub\n        /* \"ChamaGamification.sol\":6162:6214  if (referrer == address(0)) revert InvalidReferrer() */\n      tag_246\n      jumpi\n        /* \"ChamaGamification.sol\":6197:6214  InvalidReferrer() */\n      mload(0x40)\n      0x6110422800000000000000000000000000000000000000000000000000000000\n      dup2\n      mstore\n      0x04\n      add\n      mload(0x40)\n      dup1\n      swap2\n      sub\n      swap1\n      revert\n        /* \"ChamaGamification.sol\":6162:6214  if (referrer == address(0)) revert InvalidReferrer() */\n    tag_246:\n        /* \"ChamaGamification.sol\":6276:6285  referrals */\n      0x09\n        /* \"ChamaGamification.sol\":6276:6295  referrals[referrer] */\n      0x00\n        /* \"ChamaGamification.sol\":6286:6294  referrer */\n      dup3\n        /* \"ChamaGamification.sol\":6276:6295  referrals[referrer] */\n      0xffffffffffffffffffffffffffffffffffffffff\n      and\n      0xffffffffffffffffffffffffffffffffffffffff\n      and\n      dup2\n      mstore\n      0x20\n      add\n      swap1\n      dup2\n      mstore\n      0x20\n      add\n      0x00\n      keccak256\n        /* \"ChamaGamification.sol\":6301:6311  msg.sender */\n      caller\n        /* \"ChamaGamification.sol\":6276:6312  referrals[referrer].push(msg.sender) */\n      swap1\n      dup1\n      0x01\n      dup2\n      sload\n      add\n      dup1\n      dup3\n      sstore\n      dup1\n      swap2\n      pop\n      pop\n      0x01\n      swap1\n      sub\n      swap1\n      0x00\n      mstore\n      keccak256(0x00, 0x20)\n      add\n      0x00\n      swap1\n      swap2\n      swap1\n      swap2\n      swap1\n      swap2\n      0x0100\n      exp\n      dup2\n      sload\n      dup2\n      0xffffffffffffffffffffffffffffffffffffffff\n      mul\n      not\n      and\n      swap1\n      dup4\n      0xffffffffffffffffffffffffffffffffffffffff\n      and\n      mul\n      or\n      swap1\n      sstore\n      pop\n        /* \"ChamaGamification.sol\":6322:6333  inviteCount */\n      0x08\n        /* \"ChamaGamification.sol\":6322:6343  inviteCount[referrer] */\n      0x00\n        /* \"ChamaGamification.sol\":6334:6342  referrer */\n      dup3\n        /* \"ChamaGamification.sol\":6322:6343  inviteCount[referrer] */\n      0xffffffffffffffffffffffffffffffffffffffff\n      and\n      0xffffffffffffffffffffffffffffffffffffffff\n      and\n      dup2\n      mstore\n      0x20\n      add\n      swap1\n      dup2\n      mstore\n      0x20\n      add\n      0x00\n      keccak256\n      0x00\n        /* \"ChamaGamification.sol\":6322:6345  inviteCount[referrer]++ */\n      dup2\n      sload\n      dup1\n      swap3\n      swap2\n      swap1\n      tag_248\n      swap1\n      tag_249\n      jump\t// in\n    tag_248:\n      swap2\n      swap1\n      pop\n      sstore\n      pop\n        /* \"ChamaGamification.sol\":6400:6446  _addScore(referrer, 50, \"Successful Referral\") */\n      tag_250\n        /* \"ChamaGamification.sol\":6410:6418  referrer */\n      dup2\n        /* \"ChamaGamification.sol\":6420:6422  50 */\n      0x32\n        /* \"ChamaGamification.sol\":6400:6446  _addScore(referrer, 50, \"Successful Referral\") */\n      mload(0x40)\n      dup1\n      0x40\n      add\n      0x40\n      mstore\n      dup1\n      0x13\n      dup2\n      mstore\n      0x20\n      add\n      0x5375636365737366756c20526566657272616c00000000000000000000000000\n      dup2\n      mstore\n      pop\n        /* \"ChamaGamification.sol\":6400:6409  _addScore */\n      tag_251\n        /* \"ChamaGamification.sol\":6400:6446  _addScore(referrer, 50, \"Successful Referral\") */\n      jump\t// in\n    tag_250:\n        /* \"ChamaGamification.sol\":6535:6536  3 */\n      0x03\n        /* \"ChamaGamification.sol\":6510:6521  inviteCount */\n      0x08\n        /* \"ChamaGamification.sol\":6510:6531  inviteCount[referrer] */\n      0x00\n        /* \"ChamaGamification.sol\":6522:6530  referrer */\n      dup4\n        /* \"ChamaGamification.sol\":6510:6531  inviteCount[referrer] */\n      0xffffffffffffffffffffffffffffffffffffffff\n      and\n      0xffffffffffffffffffffffffffffffffffffffff\n      and\n      dup2\n      mstore\n      0x20\n      add\n      swap1\n      dup2\n      mstore\n      0x20\n      add\n      0x00\n      keccak256\n      sload\n        /* \"ChamaGamification.sol\":6510:6536  inviteCount[referrer] == 3 */\n      sub\n        /* \"ChamaGamification.sol\":6506:6838  if (inviteCount[referrer] == 3) {... */\n      tag_252\n      jumpi\n        /* \"ChamaGamification.sol\":6552:6601  _unlockAchievement(referrer, \"Invited 3 Friends\") */\n      tag_253\n        /* \"ChamaGamification.sol\":6571:6579  referrer */\n      dup2\n        /* \"ChamaGamification.sol\":6552:6601  _unlockAchievement(referrer, \"Invited 3 Friends\") */\n      mload(0x40)\n      dup1\n      0x40\n      add\n      0x40\n      mstore\n      dup1\n      0x11\n      dup2\n      mstore\n      0x20\n      add\n      0x496e7669746564203320467269656e6473000000000000000000000000000000\n      dup2\n      mstore\n      pop\n        /* \"ChamaGamification.sol\":6552:6570  _unlockAchievement */\n      tag_234\n        /* \"ChamaGamification.sol\":6552:6601  _unlockAchievement(referrer, \"Invited 3 Friends\") */\n      jump\t// in\n    tag_253:\n        /* \"ChamaGamification.sol\":6506:6838  if (inviteCount[referrer] == 3) {... */\n      jump(tag_254)\n    tag_252:\n        /* \"ChamaGamification.sol\":6647:6649  10 */\n      0x0a\n        /* \"ChamaGamification.sol\":6622:6633  inviteCount */\n      0x08\n        /* \"ChamaGamification.sol\":6622:6643  inviteCount[referrer] */\n      0x00\n        /* \"ChamaGamification.sol\":6634:6642  referrer */\n      dup4\n        /* \"ChamaGamification.sol\":6622:6643  inviteCount[referrer] */\n      0xffffffffffffffffffffffffffffffffffffffff\n      and\n      0xffffffffffffffffffffffffffffffffffffffff\n      and\n      dup2\n      mstore\n      0x20\n      add\n      swap1\n      dup2\n      mstore\n      0x20\n      add\n      0x00\n      keccak256\n      sload\n        /* \"ChamaGamification.sol\":6622:6649  inviteCount[referrer] == 10 */\n      sub\n        /* \"ChamaGamification.sol\":6618:6838  if (inviteCount[referrer] == 10) {... */\n      tag_255\n      jumpi\n        /* \"ChamaGamification.sol\":6665:6715  _unlockAchievement(referrer, \"Invited 10 Friends\") */\n      tag_256\n        /* \"ChamaGamification.sol\":6684:6692  referrer */\n      dup2\n        /* \"ChamaGamification.sol\":6665:6715  _unlockAchievement(referrer, \"Invited 10 Friends\") */\n      mload(0x40)\n      dup1\n      0x40\n      add\n      0x40\n      mstore\n      dup1\n      0x12\n      dup2\n      mstore\n      0x20\n      add\n      0x496e766974656420313020467269656e64730000000000000000000000000000\n      dup2\n      mstore\n      pop\n        /* \"ChamaGamification.sol\":6665:6683  _unlockAchievement */\n      tag_234\n        /* \"ChamaGamification.sol\":6665:6715  _unlockAchievement(referrer, \"Invited 10 Friends\") */\n      jump\t// in\n    tag_256:\n        /* \"ChamaGamification.sol\":6618:6838  if (inviteCount[referrer] == 10) {... */\n      jump(tag_257)\n    tag_255:\n        /* \"ChamaGamification.sol\":6761:6763  25 */\n      0x19\n        /* \"ChamaGamification.sol\":6736:6747  inviteCount */\n      0x08\n        /* \"ChamaGamification.sol\":6736:6757  inviteCount[referrer] */\n      0x00\n        /* \"ChamaGamification.sol\":6748:6756  referrer */\n      dup4\n        /* \"ChamaGamification.sol\":6736:6757  inviteCount[referrer] */\n      0xffffffffffffffffffffffffffffffffffffffff\n      and\n      0xffffffffffffffffffffffffffffffffffffffff\n      and\n      dup2\n      mstore\n      0x20\n      add\n      swap1\n      dup2\n      mstore\n      0x20\n      add\n      0x00\n      keccak256\n      sload\n        /* \"ChamaGamification.sol\":6736:6763  inviteCount[referrer] == 25 */\n      sub\n        /* \"ChamaGamification.sol\":6732:6838  if (inviteCount[referrer] == 25) {... */\n      tag_258\n      jumpi\n        /* \"ChamaGamification.sol\":6779:6827  _unlockAchievement(referrer, \"Social Butterfly\") */\n      tag_259\n        /* \"ChamaGamification.sol\":6798:6806  referrer */\n      dup2\n        /* \"ChamaGamification.sol\":6779:6827  _unlockAchievement(referrer, \"Social Butterfly\") */\n      mload(0x40)\n      dup1\n      0x40\n      add\n      0x40\n      mstore\n      dup1\n      0x10\n      dup2\n      mstore\n      0x20\n      add\n      0x536f6369616c20427574746572666c7900000000000000000000000000000000\n      dup2\n      mstore\n      pop\n        /* \"ChamaGamification.sol\":6779:6797  _unlockAchievement */\n      tag_234\n        /* \"ChamaGamification.sol\":6779:6827  _unlockAchievement(referrer, \"Social Butterfly\") */\n      jump\t// in\n    tag_259:\n        /* \"ChamaGamification.sol\":6732:6838  if (inviteCount[referrer] == 25) {... */\n    tag_258:\n        /* \"ChamaGamification.sol\":6618:6838  if (inviteCount[referrer] == 10) {... */\n    tag_257:\n        /* \"ChamaGamification.sol\":6506:6838  if (inviteCount[referrer] == 3) {... */\n    tag_254:\n        /* \"ChamaGamification.sol\":6886:6896  msg.sender */\n      caller\n        /* \"ChamaGamification.sol\":6861:6897  InviteAccepted(referrer, msg.sender) */\n      0xffffffffffffffffffffffffffffffffffffffff\n      and\n        /* \"ChamaGamification.sol\":6876:6884  referrer */\n      dup2\n        /* \"ChamaGamification.sol\":6861:6897  InviteAccepted(referrer, msg.sender) */\n      0xffffffffffffffffffffffffffffffffffffffff\n      and\n      0x7dfe7741b2816f4b390ea9c6a8fcef91c87d66b9235a24019b792806bc3ece02\n      mload(0x40)\n      mload(0x40)\n      dup1\n      swap2\n      sub\n      swap1\n      log3\n        /* \"ChamaGamification.sol\":6089:6904  {... */\n      pop\n        /* \"ChamaGamification.sol\":6021:6904  function acceptInvite(bytes32 _referrerHash) external whenNotPaused {... */\n      pop\n      jump\t// out\n        /* \"@openzeppelin/contracts/access/AccessControl.sol\":5304:5549  function renounceRole(bytes32 role, address callerConfirmation) public virtual {... */\n    tag_97:\n        /* \"@openzeppelin/contracts/access/AccessControl.sol\":5419:5431  _msgSender() */\n      tag_261\n        /* \"@openzeppelin/contracts/access/AccessControl.sol\":5419:5429  _msgSender */\n      tag_262\n        /* \"@openzeppelin/contracts/access/AccessControl.sol\":5419:5431  _msgSender() */\n      jump\t// in\n    tag_261:\n        /* \"@openzeppelin/contracts/access/AccessControl.sol\":5397:5431  callerConfirmation != _msgSender() */\n      0xffffffffffffffffffffffffffffffffffffffff\n      and\n        /* \"@openzeppelin/contracts/access/AccessControl.sol\":5397:5415  callerConfirmation */\n      dup2\n        /* \"@openzeppelin/contracts/access/AccessControl.sol\":5397:5431  callerConfirmation != _msgSender() */\n      0xffffffffffffffffffffffffffffffffffffffff\n      and\n      eq\n        /* \"@openzeppelin/contracts/access/AccessControl.sol\":5393:5495  if (callerConfirmation != _msgSender()) {... */\n      tag_263\n      jumpi\n        /* \"@openzeppelin/contracts/access/AccessControl.sol\":5454:5484  AccessControlBadConfirmation() */\n      mload(0x40)\n      0x6697b23200000000000000000000000000000000000000000000000000000000\n      dup2\n      mstore\n      0x04\n      add\n      mload(0x40)\n      dup1\n      swap2\n      sub\n      swap1\n      revert\n        /* \"@openzeppelin/contracts/access/AccessControl.sol\":5393:5495  if (callerConfirmation != _msgSender()) {... */\n    tag_263:\n        /* \"@openzeppelin/contracts/access/AccessControl.sol\":5505:5542  _revokeRole(role, callerConfirmation) */\n      tag_264\n        /* \"@openzeppelin/contracts/access/AccessControl.sol\":5517:5521  role */\n      dup3\n        /* \"@openzeppelin/contracts/access/AccessControl.sol\":5523:5541  callerConfirmation */\n      dup3\n        /* \"@openzeppelin/contracts/access/AccessControl.sol\":5505:5516  _revokeRole */\n      tag_265\n        /* \"@openzeppelin/contracts/access/AccessControl.sol\":5505:5542  _revokeRole(role, callerConfirmation) */\n      jump\t// in\n    tag_264:\n      pop\n        /* \"@openzeppelin/contracts/access/AccessControl.sol\":5304:5549  function renounceRole(bytes32 role, address callerConfirmation) public virtual {... */\n      pop\n      pop\n      jump\t// out\n        /* \"ChamaGamification.sol\":13349:13425  function unpause() external onlyRole(ADMIN_ROLE) {... */\n    tag_99:\n        /* \"ChamaGamification.sol\":537:560  keccak256(\"ADMIN_ROLE\") */\n      0xa49807205ce4d355092ef5a8a18f56e8913cf4a201fbe287825b095693c21775\n        /* \"@openzeppelin/contracts/access/AccessControl.sol\":2473:2489  _checkRole(role) */\n      tag_267\n        /* \"@openzeppelin/contracts/access/AccessControl.sol\":2484:2488  role */\n      dup2\n        /* \"@openzeppelin/contracts/access/AccessControl.sol\":2473:2483  _checkRole */\n      tag_223\n        /* \"@openzeppelin/contracts/access/AccessControl.sol\":2473:2489  _checkRole(role) */\n      jump\t// in\n    tag_267:\n        /* \"ChamaGamification.sol\":13408:13418  _unpause() */\n      tag_269\n        /* \"ChamaGamification.sol\":13408:13416  _unpause */\n      tag_270\n        /* \"ChamaGamification.sol\":13408:13418  _unpause() */\n      jump\t// in\n    tag_269:\n        /* \"ChamaGamification.sol\":13349:13425  function unpause() external onlyRole(ADMIN_ROLE) {... */\n      pop\n      jump\t// out\n        /* \"ChamaGamification.sol\":12322:12475  function getAchievementPoints(string memory _achievementName) external view returns (uint256) {... */\n    tag_102:\n        /* \"ChamaGamification.sol\":12407:12414  uint256 */\n      0x00\n        /* \"ChamaGamification.sol\":12433:12450  achievementPoints */\n      0x0a\n        /* \"ChamaGamification.sol\":12451:12467  _achievementName */\n      dup3\n        /* \"ChamaGamification.sol\":12433:12468  achievementPoints[_achievementName] */\n      mload(0x40)\n      tag_272\n      swap2\n      swap1\n      tag_226\n      jump\t// in\n    tag_272:\n      swap1\n      dup2\n      mstore\n      0x20\n      add\n      mload(0x40)\n      dup1\n      swap2\n      sub\n      swap1\n      keccak256\n      sload\n        /* \"ChamaGamification.sol\":12426:12468  return achievementPoints[_achievementName] */\n      swap1\n      pop\n        /* \"ChamaGamification.sol\":12322:12475  function getAchievementPoints(string memory _achievementName) external view returns (uint256) {... */\n      swap2\n      swap1\n      pop\n      jump\t// out\n        /* \"ChamaGamification.sol\":12194:12316  function getUserReferrals(address _user) external view returns (address[] memory) {... */\n    tag_106:\n        /* \"ChamaGamification.sol\":12258:12274  address[] memory */\n      0x60\n        /* \"ChamaGamification.sol\":12293:12302  referrals */\n      0x09\n        /* \"ChamaGamification.sol\":12293:12309  referrals[_user] */\n      0x00\n        /* \"ChamaGamification.sol\":12303:12308  _user */\n      dup4\n        /* \"ChamaGamification.sol\":12293:12309  referrals[_user] */\n      0xffffffffffffffffffffffffffffffffffffffff\n      and\n      0xffffffffffffffffffffffffffffffffffffffff\n      and\n      dup2\n      mstore\n      0x20\n      add\n      swap1\n      dup2\n      mstore\n      0x20\n      add\n      0x00\n      keccak256\n        /* \"ChamaGamification.sol\":12286:12309  return referrals[_user] */\n      dup1\n      sload\n      dup1\n      0x20\n      mul\n      0x20\n      add\n      mload(0x40)\n      swap1\n      dup2\n      add\n      0x40\n      mstore\n      dup1\n      swap3\n      swap2\n      swap1\n      dup2\n      dup2\n      mstore\n      0x20\n      add\n      dup3\n      dup1\n      sload\n      dup1\n      iszero\n      tag_274\n      jumpi\n      0x20\n      mul\n      dup3\n      add\n      swap2\n      swap1\n      0x00\n      mstore\n      keccak256(0x00, 0x20)\n      swap1\n    tag_275:\n      dup2\n      0x00\n      swap1\n      sload\n      swap1\n      0x0100\n      exp\n      swap1\n      div\n      0xffffffffffffffffffffffffffffffffffffffff\n      and\n      0xffffffffffffffffffffffffffffffffffffffff\n      and\n      dup2\n      mstore\n      0x20\n      add\n      swap1\n      0x01\n      add\n      swap1\n      dup1\n      dup4\n      gt\n      tag_275\n      jumpi\n    tag_274:\n      pop\n      pop\n      pop\n      pop\n      pop\n      swap1\n      pop\n        /* \"ChamaGamification.sol\":12194:12316  function getUserReferrals(address _user) external view returns (address[] memory) {... */\n      swap2\n      swap1\n      pop\n      jump\t// out\n        /* \"ChamaGamification.sol\":1225:1271  mapping(address => uint256) public inviteCount */\n    tag_111:\n      mstore(0x20, 0x08)\n      dup1\n      0x00\n      mstore\n      keccak256(0x00, 0x40)\n      0x00\n      swap2\n      pop\n      swap1\n      pop\n      sload\n      dup2\n      jump\t// out\n        /* \"ChamaGamification.sol\":1064:1110  mapping(address => bytes32) public invitations */\n    tag_115:\n      mstore(0x20, 0x05)\n      dup1\n      0x00\n      mstore\n      keccak256(0x00, 0x40)\n      0x00\n      swap2\n      pop\n      swap1\n      pop\n      sload\n      dup2\n      jump\t// out\n        /* \"@openzeppelin/contracts/security/Pausable.sol\":1615:1699  function paused() public view virtual returns (bool) {... */\n    tag_118:\n        /* \"@openzeppelin/contracts/security/Pausable.sol\":1662:1666  bool */\n      0x00\n        /* \"@openzeppelin/contracts/security/Pausable.sol\":1685:1692  _paused */\n      0x01\n      0x00\n      swap1\n      sload\n      swap1\n      0x0100\n      exp\n      swap1\n      div\n      0xff\n      and\n        /* \"@openzeppelin/contracts/security/Pausable.sol\":1678:1692  return _paused */\n      swap1\n      pop\n        /* \"@openzeppelin/contracts/security/Pausable.sol\":1615:1699  function paused() public view virtual returns (bool) {... */\n      swap1\n      jump\t// out\n        /* \"ChamaGamification.sol\":7113:7295  function addScore(address _user, uint256 _points, string memory _reason) ... */\n    tag_123:\n        /* \"ChamaGamification.sol\":608:636  keccak256(\"CHAMA_CORE_ROLE\") */\n      0xc5c74b901cb87f1e81a3e0539a5d95bf14fa111210701dd52208a2390204b455\n        /* \"@openzeppelin/contracts/access/AccessControl.sol\":2473:2489  _checkRole(role) */\n      tag_278\n        /* \"@openzeppelin/contracts/access/AccessControl.sol\":2484:2488  role */\n      dup2\n        /* \"@openzeppelin/contracts/access/AccessControl.sol\":2473:2483  _checkRole */\n      tag_223\n        /* \"@openzeppelin/contracts/access/AccessControl.sol\":2473:2489  _checkRole(role) */\n      jump\t// in\n    tag_278:\n        /* \"ChamaGamification.sol\":7254:7288  _addScore(_user, _points, _reason) */\n      tag_280\n        /* \"ChamaGamification.sol\":7264:7269  _user */\n      dup5\n        /* \"ChamaGamification.sol\":7271:7278  _points */\n      dup5\n        /* \"ChamaGamification.sol\":7280:7287  _reason */\n      dup5\n        /* \"ChamaGamification.sol\":7254:7263  _addScore */\n      tag_251\n        /* \"ChamaGamification.sol\":7254:7288  _addScore(_user, _points, _reason) */\n      jump\t// in\n    tag_280:\n        /* \"ChamaGamification.sol\":7113:7295  function addScore(address _user, uint256 _points, string memory _reason) ... */\n      pop\n      pop\n      pop\n      pop\n      jump\t// out\n        /* \"ChamaGamification.sol\":11951:12067  function getUserInviteHash(address _user) external view returns (bytes32) {... */\n    tag_126:\n        /* \"ChamaGamification.sol\":12016:12023  bytes32 */\n      0x00\n        /* \"ChamaGamification.sol\":12042:12053  invitations */\n      0x05\n        /* \"ChamaGamification.sol\":12042:12060  invitations[_user] */\n      0x00\n        /* \"ChamaGamification.sol\":12054:12059  _user */\n      dup4\n        /* \"ChamaGamification.sol\":12042:12060  invitations[_user] */\n      0xffffffffffffffffffffffffffffffffffffffff\n      and\n      0xffffffffffffffffffffffffffffffffffffffff\n      and\n      dup2\n      mstore\n      0x20\n      add\n      swap1\n      dup2\n      mstore\n      0x20\n      add\n      0x00\n      keccak256\n      sload\n        /* \"ChamaGamification.sol\":12035:12060  return invitations[_user] */\n      swap1\n      pop\n        /* \"ChamaGamification.sol\":11951:12067  function getUserInviteHash(address _user) external view returns (bytes32) {... */\n      swap2\n      swap1\n      pop\n      jump\t// out\n        /* \"ChamaGamification.sol\":13121:13265  function setChamaCore(address _chamaCoreContract) external onlyRole(ADMIN_ROLE) {... */\n    tag_130:\n        /* \"ChamaGamification.sol\":537:560  keccak256(\"ADMIN_ROLE\") */\n      0xa49807205ce4d355092ef5a8a18f56e8913cf4a201fbe287825b095693c21775\n        /* \"@openzeppelin/contracts/access/AccessControl.sol\":2473:2489  _checkRole(role) */\n      tag_283\n        /* \"@openzeppelin/contracts/access/AccessControl.sol\":2484:2488  role */\n      dup2\n        /* \"@openzeppelin/contracts/access/AccessControl.sol\":2473:2483  _checkRole */\n      tag_223\n        /* \"@openzeppelin/contracts/access/AccessControl.sol\":2473:2489  _checkRole(role) */\n      jump\t// in\n    tag_283:\n        /* \"ChamaGamification.sol\":13211:13258  _grantRole(CHAMA_CORE_ROLE, _chamaCoreContract) */\n      tag_285\n        /* \"ChamaGamification.sol\":608:636  keccak256(\"CHAMA_CORE_ROLE\") */\n      0xc5c74b901cb87f1e81a3e0539a5d95bf14fa111210701dd52208a2390204b455\n        /* \"ChamaGamification.sol\":13239:13257  _chamaCoreContract */\n      dup4\n        /* \"ChamaGamification.sol\":13211:13221  _grantRole */\n      tag_242\n        /* \"ChamaGamification.sol\":13211:13258  _grantRole(CHAMA_CORE_ROLE, _chamaCoreContract) */\n      jump\t// in\n    tag_285:\n      pop\n        /* \"ChamaGamification.sol\":13121:13265  function setChamaCore(address _chamaCoreContract) external onlyRole(ADMIN_ROLE) {... */\n      pop\n      pop\n      jump\t// out\n        /* \"ChamaGamification.sol\":500:560  bytes32 public constant ADMIN_ROLE = keccak256(\"ADMIN_ROLE\") */\n    tag_132:\n        /* \"ChamaGamification.sol\":537:560  keccak256(\"ADMIN_ROLE\") */\n      0xa49807205ce4d355092ef5a8a18f56e8913cf4a201fbe287825b095693c21775\n        /* \"ChamaGamification.sol\":500:560  bytes32 public constant ADMIN_ROLE = keccak256(\"ADMIN_ROLE\") */\n      dup2\n      jump\t// out\n        /* \"ChamaGamification.sol\":958:999  mapping(address => uint256) public scores */\n    tag_136:\n      mstore(0x20, 0x03)\n      dup1\n      0x00\n      mstore\n      keccak256(0x00, 0x40)\n      0x00\n      swap2\n      pop\n      swap1\n      pop\n      sload\n      dup2\n      jump\t// out\n        /* \"ChamaGamification.sol\":13271:13343  function pause() external onlyRole(ADMIN_ROLE) {... */\n    tag_139:\n        /* \"ChamaGamification.sol\":537:560  keccak256(\"ADMIN_ROLE\") */\n      0xa49807205ce4d355092ef5a8a18f56e8913cf4a201fbe287825b095693c21775\n        /* \"@openzeppelin/contracts/access/AccessControl.sol\":2473:2489  _checkRole(role) */\n      tag_287\n        /* \"@openzeppelin/contracts/access/AccessControl.sol\":2484:2488  role */\n      dup2\n        /* \"@openzeppelin/contracts/access/AccessControl.sol\":2473:2483  _checkRole */\n      tag_223\n        /* \"@openzeppelin/contracts/access/AccessControl.sol\":2473:2489  _checkRole(role) */\n      jump\t// in\n    tag_287:\n        /* \"ChamaGamification.sol\":13328:13336  _pause() */\n      tag_289\n        /* \"ChamaGamification.sol\":13328:13334  _pause */\n      tag_290\n        /* \"ChamaGamification.sol\":13328:13336  _pause() */\n      jump\t// in\n    tag_289:\n        /* \"ChamaGamification.sol\":13271:13343  function pause() external onlyRole(ADMIN_ROLE) {... */\n      pop\n      jump\t// out\n        /* \"ChamaGamification.sol\":13487:13629  function findAddressByInviteHash(bytes32 _inviteHash) external view returns (address) {... */\n    tag_142:\n        /* \"ChamaGamification.sol\":13564:13571  address */\n      0x00\n        /* \"ChamaGamification.sol\":13590:13609  inviteHashToAddress */\n      0x06\n        /* \"ChamaGamification.sol\":13590:13622  inviteHashToAddress[_inviteHash] */\n      0x00\n        /* \"ChamaGamification.sol\":13610:13621  _inviteHash */\n      dup4\n        /* \"ChamaGamification.sol\":13590:13622  inviteHashToAddress[_inviteHash] */\n      dup2\n      mstore\n      0x20\n      add\n      swap1\n      dup2\n      mstore\n      0x20\n      add\n      0x00\n      keccak256\n      0x00\n      swap1\n      sload\n      swap1\n      0x0100\n      exp\n      swap1\n      div\n      0xffffffffffffffffffffffffffffffffffffffff\n      and\n        /* \"ChamaGamification.sol\":13583:13622  return inviteHashToAddress[_inviteHash] */\n      swap1\n      pop\n        /* \"ChamaGamification.sol\":13487:13629  function findAddressByInviteHash(bytes32 _inviteHash) external view returns (address) {... */\n      swap2\n      swap1\n      pop\n      jump\t// out\n        /* \"@openzeppelin/contracts/access/AccessControl.sol\":2830:2966  function hasRole(bytes32 role, address account) public view virtual returns (bool) {... */\n    tag_147:\n        /* \"@openzeppelin/contracts/access/AccessControl.sol\":2907:2911  bool */\n      0x00\n        /* \"@openzeppelin/contracts/access/AccessControl.sol\":2930:2936  _roles */\n      0x02\n        /* \"@openzeppelin/contracts/access/AccessControl.sol\":2930:2942  _roles[role] */\n      0x00\n        /* \"@openzeppelin/contracts/access/AccessControl.sol\":2937:2941  role */\n      dup5\n        /* \"@openzeppelin/contracts/access/AccessControl.sol\":2930:2942  _roles[role] */\n      dup2\n      mstore\n      0x20\n      add\n      swap1\n      dup2\n      mstore\n      0x20\n      add\n      0x00\n      keccak256\n        /* \"@openzeppelin/contracts/access/AccessControl.sol\":2930:2950  _roles[role].hasRole */\n      0x00\n      add\n        /* \"@openzeppelin/contracts/access/AccessControl.sol\":2930:2959  _roles[role].hasRole[account] */\n      0x00\n        /* \"@openzeppelin/contracts/access/AccessControl.sol\":2951:2958  account */\n      dup4\n        /* \"@openzeppelin/contracts/access/AccessControl.sol\":2930:2959  _roles[role].hasRole[account] */\n      0xffffffffffffffffffffffffffffffffffffffff\n      and\n      0xffffffffffffffffffffffffffffffffffffffff\n      and\n      dup2\n      mstore\n      0x20\n      add\n      swap1\n      dup2\n      mstore\n      0x20\n      add\n      0x00\n      keccak256\n      0x00\n      swap1\n      sload\n      swap1\n      0x0100\n      exp\n      swap1\n      div\n      0xff\n      and\n        /* \"@openzeppelin/contracts/access/AccessControl.sol\":2923:2959  return _roles[role].hasRole[account] */\n      swap1\n      pop\n        /* \"@openzeppelin/contracts/access/AccessControl.sol\":2830:2966  function hasRole(bytes32 role, address account) public view virtual returns (bool) {... */\n      swap3\n      swap2\n      pop\n      pop\n      jump\t// out\n        /* \"ChamaGamification.sol\":11828:11945  function getUserProfile(address _user) external view returns (Profile memory) {... */\n    tag_151:\n        /* \"ChamaGamification.sol\":11890:11904  Profile memory */\n      tag_293\n      tag_294\n      jump\t// in\n    tag_293:\n        /* \"ChamaGamification.sol\":11923:11931  profiles */\n      0x07\n        /* \"ChamaGamification.sol\":11923:11938  profiles[_user] */\n      0x00\n        /* \"ChamaGamification.sol\":11932:11937  _user */\n      dup4\n        /* \"ChamaGamification.sol\":11923:11938  profiles[_user] */\n      0xffffffffffffffffffffffffffffffffffffffff\n      and\n      0xffffffffffffffffffffffffffffffffffffffff\n      and\n      dup2\n      mstore\n      0x20\n      add\n      swap1\n      dup2\n      mstore\n      0x20\n      add\n      0x00\n      keccak256\n        /* \"ChamaGamification.sol\":11916:11938  return profiles[_user] */\n      mload(0x40)\n      dup1\n      0xa0\n      add\n      0x40\n      mstore\n      swap1\n      dup2\n      0x00\n      dup3\n      add\n      0x00\n      swap1\n      sload\n      swap1\n      0x0100\n      exp\n      swap1\n      div\n      0xffffffffffffffffffffffffffffffffffffffff\n      and\n      0xffffffffffffffffffffffffffffffffffffffff\n      and\n      0xffffffffffffffffffffffffffffffffffffffff\n      and\n      dup2\n      mstore\n      0x20\n      add\n      0x01\n      dup3\n      add\n      dup1\n      sload\n      tag_296\n      swap1\n      tag_297\n      jump\t// in\n    tag_296:\n      dup1\n      0x1f\n      add\n      0x20\n      dup1\n      swap2\n      div\n      mul\n      0x20\n      add\n      mload(0x40)\n      swap1\n      dup2\n      add\n      0x40\n      mstore\n      dup1\n      swap3\n      swap2\n      swap1\n      dup2\n      dup2\n      mstore\n      0x20\n      add\n      dup3\n      dup1\n      sload\n      tag_298\n      swap1\n      tag_297\n      jump\t// in\n    tag_298:\n      dup1\n      iszero\n      tag_299\n      jumpi\n      dup1\n      0x1f\n      lt\n      tag_300\n      jumpi\n      0x0100\n      dup1\n      dup4\n      sload\n      div\n      mul\n      dup4\n      mstore\n      swap2\n      0x20\n      add\n      swap2\n      jump(tag_299)\n    tag_300:\n      dup3\n      add\n      swap2\n      swap1\n      0x00\n      mstore\n      keccak256(0x00, 0x20)\n      swap1\n    tag_301:\n      dup2\n      sload\n      dup2\n      mstore\n      swap1\n      0x01\n      add\n      swap1\n      0x20\n      add\n      dup1\n      dup4\n      gt\n      tag_301\n      jumpi\n      dup3\n      swap1\n      sub\n      0x1f\n      and\n      dup3\n      add\n      swap2\n    tag_299:\n      pop\n      pop\n      pop\n      pop\n      pop\n      dup2\n      mstore\n      0x20\n      add\n      0x02\n      dup3\n      add\n      sload\n      dup2\n      mstore\n      0x20\n      add\n      0x03\n      dup3\n      add\n      sload\n      dup2\n      mstore\n      0x20\n      add\n      0x04\n      dup3\n      add\n      0x00\n      swap1\n      sload\n      swap1\n      0x0100\n      exp\n      swap1\n      div\n      0xff\n      and\n      iszero\n      iszero\n      iszero\n      iszero\n      dup2\n      mstore\n      pop\n      pop\n      swap1\n      pop\n        /* \"ChamaGamification.sol\":11828:11945  function getUserProfile(address _user) external view returns (Profile memory) {... */\n      swap2\n      swap1\n      pop\n      jump\t// out\n        /* \"ChamaGamification.sol\":3934:4441  function createProfile(string memory _username, bytes32 _emailHash) ... */\n    tag_157:\n        /* \"@openzeppelin/contracts/security/Pausable.sol\":1239:1258  _requireNotPaused() */\n      tag_303\n        /* \"@openzeppelin/contracts/security/Pausable.sol\":1239:1256  _requireNotPaused */\n      tag_210\n        /* \"@openzeppelin/contracts/security/Pausable.sol\":1239:1258  _requireNotPaused() */\n      jump\t// in\n    tag_303:\n        /* \"ChamaGamification.sol\":4106:4107  0 */\n      0x00\n        /* \"ChamaGamification.sol\":4062:4108  profiles[msg.sender].userAddress != address(0) */\n      0xffffffffffffffffffffffffffffffffffffffff\n      and\n        /* \"ChamaGamification.sol\":4062:4070  profiles */\n      0x07\n        /* \"ChamaGamification.sol\":4062:4082  profiles[msg.sender] */\n      0x00\n        /* \"ChamaGamification.sol\":4071:4081  msg.sender */\n      caller\n        /* \"ChamaGamification.sol\":4062:4082  profiles[msg.sender] */\n      0xffffffffffffffffffffffffffffffffffffffff\n      and\n      0xffffffffffffffffffffffffffffffffffffffff\n      and\n      dup2\n      mstore\n      0x20\n      add\n      swap1\n      dup2\n      mstore\n      0x20\n      add\n      0x00\n      keccak256\n        /* \"ChamaGamification.sol\":4062:4094  profiles[msg.sender].userAddress */\n      0x00\n      add\n      0x00\n      swap1\n      sload\n      swap1\n      0x0100\n      exp\n      swap1\n      div\n      0xffffffffffffffffffffffffffffffffffffffff\n      and\n        /* \"ChamaGamification.sol\":4062:4108  profiles[msg.sender].userAddress != address(0) */\n      0xffffffffffffffffffffffffffffffffffffffff\n      and\n      eq\n        /* \"ChamaGamification.sol\":4058:4139  if (profiles[msg.sender].userAddress != address(0)) revert ProfileAlreadyExists() */\n      tag_305\n      jumpi\n        /* \"ChamaGamification.sol\":4117:4139  ProfileAlreadyExists() */\n      mload(0x40)\n      0x6e8a1b0a00000000000000000000000000000000000000000000000000000000\n      dup2\n      mstore\n      0x04\n      add\n      mload(0x40)\n      dup1\n      swap2\n      sub\n      swap1\n      revert\n        /* \"ChamaGamification.sol\":4058:4139  if (profiles[msg.sender].userAddress != address(0)) revert ProfileAlreadyExists() */\n    tag_305:\n        /* \"ChamaGamification.sol\":4181:4373  Profile({... */\n      mload(0x40)\n      dup1\n      0xa0\n      add\n      0x40\n      mstore\n      dup1\n        /* \"ChamaGamification.sol\":4216:4226  msg.sender */\n      caller\n        /* \"ChamaGamification.sol\":4181:4373  Profile({... */\n      0xffffffffffffffffffffffffffffffffffffffff\n      and\n      dup2\n      mstore\n      0x20\n      add\n        /* \"ChamaGamification.sol\":4250:4259  _username */\n      dup4\n        /* \"ChamaGamification.sol\":4181:4373  Profile({... */\n      dup2\n      mstore\n      0x20\n      add\n        /* \"ChamaGamification.sol\":4284:4294  _emailHash */\n      dup3\n        /* \"ChamaGamification.sol\":4181:4373  Profile({... */\n      dup2\n      mstore\n      0x20\n      add\n        /* \"ChamaGamification.sol\":4319:4334  block.timestamp */\n      timestamp\n        /* \"ChamaGamification.sol\":4181:4373  Profile({... */\n      dup2\n      mstore\n      0x20\n      add\n        /* \"ChamaGamification.sol\":4358:4362  true */\n      0x01\n        /* \"ChamaGamification.sol\":4181:4373  Profile({... */\n      iszero\n      iszero\n      dup2\n      mstore\n      pop\n        /* \"ChamaGamification.sol\":4158:4166  profiles */\n      0x07\n        /* \"ChamaGamification.sol\":4158:4178  profiles[msg.sender] */\n      0x00\n        /* \"ChamaGamification.sol\":4167:4177  msg.sender */\n      caller\n        /* \"ChamaGamification.sol\":4158:4178  profiles[msg.sender] */\n      0xffffffffffffffffffffffffffffffffffffffff\n      and\n      0xffffffffffffffffffffffffffffffffffffffff\n      and\n      dup2\n      mstore\n      0x20\n      add\n      swap1\n      dup2\n      mstore\n      0x20\n      add\n      0x00\n      keccak256\n        /* \"ChamaGamification.sol\":4158:4373  profiles[msg.sender] = Profile({... */\n      0x00\n      dup3\n      add\n      mload\n      dup2\n      0x00\n      add\n      exp(0x0100, 0x00)\n      dup2\n      sload\n      dup2\n      0xffffffffffffffffffffffffffffffffffffffff\n      mul\n      not\n      and\n      swap1\n      dup4\n      0xffffffffffffffffffffffffffffffffffffffff\n      and\n      mul\n      or\n      swap1\n      sstore\n      pop\n      0x20\n      dup3\n      add\n      mload\n      dup2\n      0x01\n      add\n      swap1\n      dup2\n      tag_306\n      swap2\n      swap1\n      tag_214\n      jump\t// in\n    tag_306:\n      pop\n      0x40\n      dup3\n      add\n      mload\n      dup2\n      0x02\n      add\n      sstore\n      0x60\n      dup3\n      add\n      mload\n      dup2\n      0x03\n      add\n      sstore\n      0x80\n      dup3\n      add\n      mload\n      dup2\n      0x04\n      add\n      exp(0x0100, 0x00)\n      dup2\n      sload\n      dup2\n      0xff\n      mul\n      not\n      and\n      swap1\n      dup4\n      iszero\n      iszero\n      mul\n      or\n      swap1\n      sstore\n      pop\n      swap1\n      pop\n      pop\n        /* \"ChamaGamification.sol\":4412:4422  msg.sender */\n      caller\n        /* \"ChamaGamification.sol\":4397:4434  ProfileCreated(msg.sender, _username) */\n      0xffffffffffffffffffffffffffffffffffffffff\n      and\n      0xbafddecbd1dec1c1afb76d693f1de16901f521bdf29a02438e3e6806c0b8d948\n        /* \"ChamaGamification.sol\":4424:4433  _username */\n      dup4\n        /* \"ChamaGamification.sol\":4397:4434  ProfileCreated(msg.sender, _username) */\n      mload(0x40)\n      tag_307\n      swap2\n      swap1\n      tag_216\n      jump\t// in\n    tag_307:\n      mload(0x40)\n      dup1\n      swap2\n      sub\n      swap1\n      log2\n        /* \"ChamaGamification.sol\":3934:4441  function createProfile(string memory _username, bytes32 _emailHash) ... */\n      pop\n      pop\n      jump\t// out\n        /* \"@openzeppelin/contracts/access/AccessControl.sol\":2196:2245  bytes32 public constant DEFAULT_ADMIN_ROLE = 0x00 */\n    tag_159:\n        /* \"@openzeppelin/contracts/access/AccessControl.sol\":2241:2245  0x00 */\n      0x00\n        /* \"@openzeppelin/contracts/access/AccessControl.sol\":2196:2245  bytes32 public constant DEFAULT_ADMIN_ROLE = 0x00 */\n      0x00\n      shl\n      dup2\n      jump\t// out\n        /* \"ChamaGamification.sol\":4968:5887  function generateInvite(string memory _username, bytes32 _emailHash) ... */\n    tag_163:\n        /* \"@openzeppelin/contracts/security/Pausable.sol\":1239:1258  _requireNotPaused() */\n      tag_309\n        /* \"@openzeppelin/contracts/security/Pausable.sol\":1239:1256  _requireNotPaused */\n      tag_210\n        /* \"@openzeppelin/contracts/security/Pausable.sol\":1239:1258  _requireNotPaused() */\n      jump\t// in\n    tag_309:\n        /* \"ChamaGamification.sol\":5132:5133  0 */\n      0x00\n        /* \"ChamaGamification.sol\":5124:5134  bytes32(0) */\n      0x00\n      shl\n        /* \"ChamaGamification.sol\":5097:5108  invitations */\n      0x05\n        /* \"ChamaGamification.sol\":5097:5120  invitations[msg.sender] */\n      0x00\n        /* \"ChamaGamification.sol\":5109:5119  msg.sender */\n      caller\n        /* \"ChamaGamification.sol\":5097:5120  invitations[msg.sender] */\n      0xffffffffffffffffffffffffffffffffffffffff\n      and\n      0xffffffffffffffffffffffffffffffffffffffff\n      and\n      dup2\n      mstore\n      0x20\n      add\n      swap1\n      dup2\n      mstore\n      0x20\n      add\n      0x00\n      keccak256\n      sload\n        /* \"ChamaGamification.sol\":5097:5134  invitations[msg.sender] != bytes32(0) */\n      eq\n        /* \"ChamaGamification.sol\":5093:5167  if (invitations[msg.sender] != bytes32(0)) revert InviteAlreadyGenerated() */\n      tag_311\n      jumpi\n        /* \"ChamaGamification.sol\":5143:5167  InviteAlreadyGenerated() */\n      mload(0x40)\n      0x052b439c00000000000000000000000000000000000000000000000000000000\n      dup2\n      mstore\n      0x04\n      add\n      mload(0x40)\n      dup1\n      swap2\n      sub\n      swap1\n      revert\n        /* \"ChamaGamification.sol\":5093:5167  if (invitations[msg.sender] != bytes32(0)) revert InviteAlreadyGenerated() */\n    tag_311:\n        /* \"ChamaGamification.sol\":5280:5281  0 */\n      0x00\n        /* \"ChamaGamification.sol\":5236:5282  profiles[msg.sender].userAddress == address(0) */\n      0xffffffffffffffffffffffffffffffffffffffff\n      and\n        /* \"ChamaGamification.sol\":5236:5244  profiles */\n      0x07\n        /* \"ChamaGamification.sol\":5236:5256  profiles[msg.sender] */\n      0x00\n        /* \"ChamaGamification.sol\":5245:5255  msg.sender */\n      caller\n        /* \"ChamaGamification.sol\":5236:5256  profiles[msg.sender] */\n      0xffffffffffffffffffffffffffffffffffffffff\n      and\n      0xffffffffffffffffffffffffffffffffffffffff\n      and\n      dup2\n      mstore\n      0x20\n      add\n      swap1\n      dup2\n      mstore\n      0x20\n      add\n      0x00\n      keccak256\n        /* \"ChamaGamification.sol\":5236:5268  profiles[msg.sender].userAddress */\n      0x00\n      add\n      0x00\n      swap1\n      sload\n      swap1\n      0x0100\n      exp\n      swap1\n      div\n      0xffffffffffffffffffffffffffffffffffffffff\n      and\n        /* \"ChamaGamification.sol\":5236:5282  profiles[msg.sender].userAddress == address(0) */\n      0xffffffffffffffffffffffffffffffffffffffff\n      and\n      sub\n        /* \"ChamaGamification.sol\":5232:5604  if (profiles[msg.sender].userAddress == address(0)) {... */\n      tag_312\n      jumpi\n        /* \"ChamaGamification.sol\":5321:5537  Profile({... */\n      mload(0x40)\n      dup1\n      0xa0\n      add\n      0x40\n      mstore\n      dup1\n        /* \"ChamaGamification.sol\":5360:5370  msg.sender */\n      caller\n        /* \"ChamaGamification.sol\":5321:5537  Profile({... */\n      0xffffffffffffffffffffffffffffffffffffffff\n      and\n      dup2\n      mstore\n      0x20\n      add\n        /* \"ChamaGamification.sol\":5398:5407  _username */\n      dup4\n        /* \"ChamaGamification.sol\":5321:5537  Profile({... */\n      dup2\n      mstore\n      0x20\n      add\n        /* \"ChamaGamification.sol\":5436:5446  _emailHash */\n      dup3\n        /* \"ChamaGamification.sol\":5321:5537  Profile({... */\n      dup2\n      mstore\n      0x20\n      add\n        /* \"ChamaGamification.sol\":5475:5490  block.timestamp */\n      timestamp\n        /* \"ChamaGamification.sol\":5321:5537  Profile({... */\n      dup2\n      mstore\n      0x20\n      add\n        /* \"ChamaGamification.sol\":5518:5522  true */\n      0x01\n        /* \"ChamaGamification.sol\":5321:5537  Profile({... */\n      iszero\n      iszero\n      dup2\n      mstore\n      pop\n        /* \"ChamaGamification.sol\":5298:5306  profiles */\n      0x07\n        /* \"ChamaGamification.sol\":5298:5318  profiles[msg.sender] */\n      0x00\n        /* \"ChamaGamification.sol\":5307:5317  msg.sender */\n      caller\n        /* \"ChamaGamification.sol\":5298:5318  profiles[msg.sender] */\n      0xffffffffffffffffffffffffffffffffffffffff\n      and\n      0xffffffffffffffffffffffffffffffffffffffff\n      and\n      dup2\n      mstore\n      0x20\n      add\n      swap1\n      dup2\n      mstore\n      0x20\n      add\n      0x00\n      keccak256\n        /* \"ChamaGamification.sol\":5298:5537  profiles[msg.sender] = Profile({... */\n      0x00\n      dup3\n      add\n      mload\n      dup2\n      0x00\n      add\n      exp(0x0100, 0x00)\n      dup2\n      sload\n      dup2\n      0xffffffffffffffffffffffffffffffffffffffff\n      mul\n      not\n      and\n      swap1\n      dup4\n      0xffffffffffffffffffffffffffffffffffffffff\n      and\n      mul\n      or\n      swap1\n      sstore\n      pop\n      0x20\n      dup3\n      add\n      mload\n      dup2\n      0x01\n      add\n      swap1\n      dup2\n      tag_313\n      swap2\n      swap1\n      tag_214\n      jump\t// in\n    tag_313:\n      pop\n      0x40\n      dup3\n      add\n      mload\n      dup2\n      0x02\n      add\n      sstore\n      0x60\n      dup3\n      add\n      mload\n      dup2\n      0x03\n      add\n      sstore\n      0x80\n      dup3\n      add\n      mload\n      dup2\n      0x04\n      add\n      exp(0x0100, 0x00)\n      dup2\n      sload\n      dup2\n      0xff\n      mul\n      not\n      and\n      swap1\n      dup4\n      iszero\n      iszero\n      mul\n      or\n      swap1\n      sstore\n      pop\n      swap1\n      pop\n      pop\n        /* \"ChamaGamification.sol\":5571:5581  msg.sender */\n      caller\n        /* \"ChamaGamification.sol\":5556:5593  ProfileCreated(msg.sender, _username) */\n      0xffffffffffffffffffffffffffffffffffffffff\n      and\n      0xbafddecbd1dec1c1afb76d693f1de16901f521bdf29a02438e3e6806c0b8d948\n        /* \"ChamaGamification.sol\":5583:5592  _username */\n      dup4\n        /* \"ChamaGamification.sol\":5556:5593  ProfileCreated(msg.sender, _username) */\n      mload(0x40)\n      tag_314\n      swap2\n      swap1\n      tag_216\n      jump\t// in\n    tag_314:\n      mload(0x40)\n      dup1\n      swap2\n      sub\n      swap1\n      log2\n        /* \"ChamaGamification.sol\":5232:5604  if (profiles[msg.sender].userAddress == address(0)) {... */\n    tag_312:\n        /* \"ChamaGamification.sol\":5622:5640  bytes32 inviteHash */\n      0x00\n        /* \"ChamaGamification.sol\":5670:5680  msg.sender */\n      caller\n        /* \"ChamaGamification.sol\":5682:5697  block.timestamp */\n      timestamp\n        /* \"ChamaGamification.sol\":5699:5715  block.prevrandao */\n      prevrandao\n        /* \"ChamaGamification.sol\":5653:5716  abi.encodePacked(msg.sender, block.timestamp, block.prevrandao) */\n      add(0x20, mload(0x40))\n      tag_315\n      swap4\n      swap3\n      swap2\n      swap1\n      tag_316\n      jump\t// in\n    tag_315:\n      mload(0x40)\n      0x20\n      dup2\n      dup4\n      sub\n      sub\n      dup2\n      mstore\n      swap1\n      0x40\n      mstore\n        /* \"ChamaGamification.sol\":5643:5717  keccak256(abi.encodePacked(msg.sender, block.timestamp, block.prevrandao)) */\n      dup1\n      mload\n      swap1\n      0x20\n      add\n      keccak256\n        /* \"ChamaGamification.sol\":5622:5717  bytes32 inviteHash = keccak256(abi.encodePacked(msg.sender, block.timestamp, block.prevrandao)) */\n      swap1\n      pop\n        /* \"ChamaGamification.sol\":5753:5763  inviteHash */\n      dup1\n        /* \"ChamaGamification.sol\":5727:5738  invitations */\n      0x05\n        /* \"ChamaGamification.sol\":5727:5750  invitations[msg.sender] */\n      0x00\n        /* \"ChamaGamification.sol\":5739:5749  msg.sender */\n      caller\n        /* \"ChamaGamification.sol\":5727:5750  invitations[msg.sender] */\n      0xffffffffffffffffffffffffffffffffffffffff\n      and\n      0xffffffffffffffffffffffffffffffffffffffff\n      and\n      dup2\n      mstore\n      0x20\n      add\n      swap1\n      dup2\n      mstore\n      0x20\n      add\n      0x00\n      keccak256\n        /* \"ChamaGamification.sol\":5727:5763  invitations[msg.sender] = inviteHash */\n      dup2\n      swap1\n      sstore\n      pop\n        /* \"ChamaGamification.sol\":5807:5817  msg.sender */\n      caller\n        /* \"ChamaGamification.sol\":5773:5792  inviteHashToAddress */\n      0x06\n        /* \"ChamaGamification.sol\":5773:5804  inviteHashToAddress[inviteHash] */\n      0x00\n        /* \"ChamaGamification.sol\":5793:5803  inviteHash */\n      dup4\n        /* \"ChamaGamification.sol\":5773:5804  inviteHashToAddress[inviteHash] */\n      dup2\n      mstore\n      0x20\n      add\n      swap1\n      dup2\n      mstore\n      0x20\n      add\n      0x00\n      keccak256\n      0x00\n        /* \"ChamaGamification.sol\":5773:5817  inviteHashToAddress[inviteHash] = msg.sender */\n      0x0100\n      exp\n      dup2\n      sload\n      dup2\n      0xffffffffffffffffffffffffffffffffffffffff\n      mul\n      not\n      and\n      swap1\n      dup4\n      0xffffffffffffffffffffffffffffffffffffffff\n      and\n      mul\n      or\n      swap1\n      sstore\n      pop\n        /* \"ChamaGamification.sol\":5857:5867  msg.sender */\n      caller\n        /* \"ChamaGamification.sol\":5841:5880  InviteGenerated(msg.sender, inviteHash) */\n      0xffffffffffffffffffffffffffffffffffffffff\n      and\n      0x1a0bad8b81287df6c7518ad18c022db6e8db24f922a8ff32dbb6fed74c699a26\n        /* \"ChamaGamification.sol\":5869:5879  inviteHash */\n      dup3\n        /* \"ChamaGamification.sol\":5841:5880  InviteGenerated(msg.sender, inviteHash) */\n      mload(0x40)\n      tag_317\n      swap2\n      swap1\n      tag_77\n      jump\t// in\n    tag_317:\n      mload(0x40)\n      dup1\n      swap2\n      sub\n      swap1\n      log2\n        /* \"ChamaGamification.sol\":5083:5887  {... */\n      pop\n        /* \"ChamaGamification.sol\":4968:5887  function generateInvite(string memory _username, bytes32 _emailHash) ... */\n      pop\n      pop\n      jump\t// out\n        /* \"ChamaGamification.sol\":566:636  bytes32 public constant CHAMA_CORE_ROLE = keccak256(\"CHAMA_CORE_ROLE\") */\n    tag_165:\n        /* \"ChamaGamification.sol\":608:636  keccak256(\"CHAMA_CORE_ROLE\") */\n      0xc5c74b901cb87f1e81a3e0539a5d95bf14fa111210701dd52208a2390204b455\n        /* \"ChamaGamification.sol\":566:636  bytes32 public constant CHAMA_CORE_ROLE = keccak256(\"CHAMA_CORE_ROLE\") */\n      dup2\n      jump\t// out\n        /* \"ChamaGamification.sol\":11578:11684  function getUserScore(address _user) external view returns (uint256) {... */\n    tag_169:\n        /* \"ChamaGamification.sol\":11638:11645  uint256 */\n      0x00\n        /* \"ChamaGamification.sol\":11664:11670  scores */\n      0x03\n        /* \"ChamaGamification.sol\":11664:11677  scores[_user] */\n      0x00\n        /* \"ChamaGamification.sol\":11671:11676  _user */\n      dup4\n        /* \"ChamaGamification.sol\":11664:11677  scores[_user] */\n      0xffffffffffffffffffffffffffffffffffffffff\n      and\n      0xffffffffffffffffffffffffffffffffffffffff\n      and\n      dup2\n      mstore\n      0x20\n      add\n      swap1\n      dup2\n      mstore\n      0x20\n      add\n      0x00\n      keccak256\n      sload\n        /* \"ChamaGamification.sol\":11657:11677  return scores[_user] */\n      swap1\n      pop\n        /* \"ChamaGamification.sol\":11578:11684  function getUserScore(address _user) external view returns (uint256) {... */\n      swap2\n      swap1\n      pop\n      jump\t// out\n        /* \"ChamaGamification.sol\":1176:1219  mapping(address => Profile) public profiles */\n    tag_173:\n      mstore(0x20, 0x07)\n      dup1\n      0x00\n      mstore\n      keccak256(0x00, 0x40)\n      0x00\n      swap2\n      pop\n      swap1\n      pop\n      dup1\n      0x00\n      add\n      0x00\n      swap1\n      sload\n      swap1\n      0x0100\n      exp\n      swap1\n      div\n      0xffffffffffffffffffffffffffffffffffffffff\n      and\n      swap1\n      dup1\n      0x01\n      add\n      dup1\n      sload\n      tag_319\n      swap1\n      tag_297\n      jump\t// in\n    tag_319:\n      dup1\n      0x1f\n      add\n      0x20\n      dup1\n      swap2\n      div\n      mul\n      0x20\n      add\n      mload(0x40)\n      swap1\n      dup2\n      add\n      0x40\n      mstore\n      dup1\n      swap3\n      swap2\n      swap1\n      dup2\n      dup2\n      mstore\n      0x20\n      add\n      dup3\n      dup1\n      sload\n      tag_320\n      swap1\n      tag_297\n      jump\t// in\n    tag_320:\n      dup1\n      iszero\n      tag_321\n      jumpi\n      dup1\n      0x1f\n      lt\n      tag_322\n      jumpi\n      0x0100\n      dup1\n      dup4\n      sload\n      div\n      mul\n      dup4\n      mstore\n      swap2\n      0x20\n      add\n      swap2\n      jump(tag_321)\n    tag_322:\n      dup3\n      add\n      swap2\n      swap1\n      0x00\n      mstore\n      keccak256(0x00, 0x20)\n      swap1\n    tag_323:\n      dup2\n      sload\n      dup2\n      mstore\n      swap1\n      0x01\n      add\n      swap1\n      0x20\n      add\n      dup1\n      dup4\n      gt\n      tag_323\n      jumpi\n      dup3\n      swap1\n      sub\n      0x1f\n      and\n      dup3\n      add\n      swap2\n    tag_321:\n      pop\n      pop\n      pop\n      pop\n      pop\n      swap1\n      dup1\n      0x02\n      add\n      sload\n      swap1\n      dup1\n      0x03\n      add\n      sload\n      swap1\n      dup1\n      0x04\n      add\n      0x00\n      swap1\n      sload\n      swap1\n      0x0100\n      exp\n      swap1\n      div\n      0xff\n      and\n      swap1\n      pop\n      dup6\n      jump\t// out\n        /* \"ChamaGamification.sol\":1005:1058  mapping(address => Achievement[]) public achievements */\n    tag_179:\n      mstore(0x20, 0x04)\n      dup2\n      0x00\n      mstore\n      keccak256(0x00, 0x40)\n      dup2\n      dup2\n      sload\n      dup2\n      lt\n      tag_324\n      jumpi\n      0x00\n      dup1\n      revert\n    tag_324:\n      swap1\n      0x00\n      mstore\n      keccak256(0x00, 0x20)\n      swap1\n      0x04\n      mul\n      add\n      0x00\n      swap2\n      pop\n      swap2\n      pop\n      pop\n      dup1\n      0x00\n      add\n      dup1\n      sload\n      tag_326\n      swap1\n      tag_297\n      jump\t// in\n    tag_326:\n      dup1\n      0x1f\n      add\n      0x20\n      dup1\n      swap2\n      div\n      mul\n      0x20\n      add\n      mload(0x40)\n      swap1\n      dup2\n      add\n      0x40\n      mstore\n      dup1\n      swap3\n      swap2\n      swap1\n      dup2\n      dup2\n      mstore\n      0x20\n      add\n      dup3\n      dup1\n      sload\n      tag_327\n      swap1\n      tag_297\n      jump\t// in\n    tag_327:\n      dup1\n      iszero\n      tag_328\n      jumpi\n      dup1\n      0x1f\n      lt\n      tag_329\n      jumpi\n      0x0100\n      dup1\n      dup4\n      sload\n      div\n      mul\n      dup4\n      mstore\n      swap2\n      0x20\n      add\n      swap2\n      jump(tag_328)\n    tag_329:\n      dup3\n      add\n      swap2\n      swap1\n      0x00\n      mstore\n      keccak256(0x00, 0x20)\n      swap1\n    tag_330:\n      dup2\n      sload\n      dup2\n      mstore\n      swap1\n      0x01\n      add\n      swap1\n      0x20\n      add\n      dup1\n      dup4\n      gt\n      tag_330\n      jumpi\n      dup3\n      swap1\n      sub\n      0x1f\n      and\n      dup3\n      add\n      swap2\n    tag_328:\n      pop\n      pop\n      pop\n      pop\n      pop\n      swap1\n      dup1\n      0x01\n      add\n      dup1\n      sload\n      tag_331\n      swap1\n      tag_297\n      jump\t// in\n    tag_331:\n      dup1\n      0x1f\n      add\n      0x20\n      dup1\n      swap2\n      div\n      mul\n      0x20\n      add\n      mload(0x40)\n      swap1\n      dup2\n      add\n      0x40\n      mstore\n      dup1\n      swap3\n      swap2\n      swap1\n      dup2\n      dup2\n      mstore\n      0x20\n      add\n      dup3\n      dup1\n      sload\n      tag_332\n      swap1\n      tag_297\n      jump\t// in\n    tag_332:\n      dup1\n      iszero\n      tag_333\n      jumpi\n      dup1\n      0x1f\n      lt\n      tag_334\n      jumpi\n      0x0100\n      dup1\n      dup4\n      sload\n      div\n      mul\n      dup4\n      mstore\n      swap2\n      0x20\n      add\n      swap2\n      jump(tag_333)\n    tag_334:\n      dup3\n      add\n      swap2\n      swap1\n      0x00\n      mstore\n      keccak256(0x00, 0x20)\n      swap1\n    tag_335:\n      dup2\n      sload\n      dup2\n      mstore\n      swap1\n      0x01\n      add\n      swap1\n      0x20\n      add\n      dup1\n      dup4\n      gt\n      tag_335\n      jumpi\n      dup3\n      swap1\n      sub\n      0x1f\n      and\n      dup3\n      add\n      swap2\n    tag_333:\n      pop\n      pop\n      pop\n      pop\n      pop\n      swap1\n      dup1\n      0x02\n      add\n      sload\n      swap1\n      dup1\n      0x03\n      add\n      sload\n      swap1\n      pop\n      dup5\n      jump\t// out\n        /* \"ChamaGamification.sol\":12871:13115  function updateAchievementPoints(... */\n    tag_184:\n        /* \"ChamaGamification.sol\":537:560  keccak256(\"ADMIN_ROLE\") */\n      0xa49807205ce4d355092ef5a8a18f56e8913cf4a201fbe287825b095693c21775\n        /* \"@openzeppelin/contracts/access/AccessControl.sol\":2473:2489  _checkRole(role) */\n      tag_337\n        /* \"@openzeppelin/contracts/access/AccessControl.sol\":2484:2488  role */\n      dup2\n        /* \"@openzeppelin/contracts/access/AccessControl.sol\":2473:2483  _checkRole */\n      tag_223\n        /* \"@openzeppelin/contracts/access/AccessControl.sol\":2473:2489  _checkRole(role) */\n      jump\t// in\n    tag_337:\n        /* \"ChamaGamification.sol\":13010:13027  validAchievements */\n      0x0b\n        /* \"ChamaGamification.sol\":13028:13033  _name */\n      dup4\n        /* \"ChamaGamification.sol\":13010:13034  validAchievements[_name] */\n      mload(0x40)\n      tag_339\n      swap2\n      swap1\n      tag_226\n      jump\t// in\n    tag_339:\n      swap1\n      dup2\n      mstore\n      0x20\n      add\n      mload(0x40)\n      dup1\n      swap2\n      sub\n      swap1\n      keccak256\n      0x00\n      swap1\n      sload\n      swap1\n      0x0100\n      exp\n      swap1\n      div\n      0xff\n      and\n        /* \"ChamaGamification.sol\":13005:13064  if (!validAchievements[_name]) revert AchievementNotValid() */\n      tag_340\n      jumpi\n        /* \"ChamaGamification.sol\":13043:13064  AchievementNotValid() */\n      mload(0x40)\n      0x5e07eb5300000000000000000000000000000000000000000000000000000000\n      dup2\n      mstore\n      0x04\n      add\n      mload(0x40)\n      dup1\n      swap2\n      sub\n      swap1\n      revert\n        /* \"ChamaGamification.sol\":13005:13064  if (!validAchievements[_name]) revert AchievementNotValid() */\n    tag_340:\n        /* \"ChamaGamification.sol\":13101:13108  _points */\n      dup2\n        /* \"ChamaGamification.sol\":13074:13091  achievementPoints */\n      0x0a\n        /* \"ChamaGamification.sol\":13092:13097  _name */\n      dup5\n        /* \"ChamaGamification.sol\":13074:13098  achievementPoints[_name] */\n      mload(0x40)\n      tag_341\n      swap2\n      swap1\n      tag_226\n      jump\t// in\n    tag_341:\n      swap1\n      dup2\n      mstore\n      0x20\n      add\n      mload(0x40)\n      dup1\n      swap2\n      sub\n      swap1\n      keccak256\n        /* \"ChamaGamification.sol\":13074:13108  achievementPoints[_name] = _points */\n      dup2\n      swap1\n      sstore\n      pop\n        /* \"ChamaGamification.sol\":12871:13115  function updateAchievementPoints(... */\n      pop\n      pop\n      pop\n      jump\t// out\n        /* \"@openzeppelin/contracts/access/AccessControl.sol\":4618:4756  function revokeRole(bytes32 role, address account) public virtual onlyRole(getRoleAdmin(role)) {... */\n    tag_187:\n        /* \"@openzeppelin/contracts/access/AccessControl.sol\":4693:4711  getRoleAdmin(role) */\n      tag_342\n        /* \"@openzeppelin/contracts/access/AccessControl.sol\":4706:4710  role */\n      dup3\n        /* \"@openzeppelin/contracts/access/AccessControl.sol\":4693:4705  getRoleAdmin */\n      tag_75\n        /* \"@openzeppelin/contracts/access/AccessControl.sol\":4693:4711  getRoleAdmin(role) */\n      jump\t// in\n    tag_342:\n        /* \"@openzeppelin/contracts/access/AccessControl.sol\":2473:2489  _checkRole(role) */\n      tag_344\n        /* \"@openzeppelin/contracts/access/AccessControl.sol\":2484:2488  role */\n      dup2\n        /* \"@openzeppelin/contracts/access/AccessControl.sol\":2473:2483  _checkRole */\n      tag_223\n        /* \"@openzeppelin/contracts/access/AccessControl.sol\":2473:2489  _checkRole(role) */\n      jump\t// in\n    tag_344:\n        /* \"@openzeppelin/contracts/access/AccessControl.sol\":4723:4749  _revokeRole(role, account) */\n      tag_346\n        /* \"@openzeppelin/contracts/access/AccessControl.sol\":4735:4739  role */\n      dup4\n        /* \"@openzeppelin/contracts/access/AccessControl.sol\":4741:4748  account */\n      dup4\n        /* \"@openzeppelin/contracts/access/AccessControl.sol\":4723:4734  _revokeRole */\n      tag_265\n        /* \"@openzeppelin/contracts/access/AccessControl.sol\":4723:4749  _revokeRole(role, account) */\n      jump\t// in\n    tag_346:\n      pop\n        /* \"@openzeppelin/contracts/access/AccessControl.sol\":4618:4756  function revokeRole(bytes32 role, address account) public virtual onlyRole(getRoleAdmin(role)) {... */\n      pop\n      pop\n      pop\n      jump\t// out\n        /* \"ChamaGamification.sol\":1116:1170  mapping(bytes32 => address) public inviteHashToAddress */\n    tag_190:\n      mstore(0x20, 0x06)\n      dup1\n      0x00\n      mstore\n      keccak256(0x00, 0x40)\n      0x00\n      swap2\n      pop\n      sload\n      swap1\n      0x0100\n      exp\n      swap1\n      div\n      0xffffffffffffffffffffffffffffffffffffffff\n      and\n      dup2\n      jump\t// out\n        /* \"ChamaGamification.sol\":1277:1323  mapping(address => address[]) public referrals */\n    tag_194:\n      mstore(0x20, 0x09)\n      dup2\n      0x00\n      mstore\n      keccak256(0x00, 0x40)\n      dup2\n      dup2\n      sload\n      dup2\n      lt\n      tag_347\n      jumpi\n      0x00\n      dup1\n      revert\n    tag_347:\n      swap1\n      0x00\n      mstore\n      keccak256(0x00, 0x20)\n      add\n      0x00\n      swap2\n      pop\n      swap2\n      pop\n      swap1\n      sload\n      swap1\n      0x0100\n      exp\n      swap1\n      div\n      0xffffffffffffffffffffffffffffffffffffffff\n      and\n      dup2\n      jump\t// out\n        /* \"ChamaGamification.sol\":11690:11822  function getUserAchievements(address _user) external view returns (Achievement[] memory) {... */\n    tag_198:\n        /* \"ChamaGamification.sol\":11757:11777  Achievement[] memory */\n      0x60\n        /* \"ChamaGamification.sol\":11796:11808  achievements */\n      0x04\n        /* \"ChamaGamification.sol\":11796:11815  achievements[_user] */\n      0x00\n        /* \"ChamaGamification.sol\":11809:11814  _user */\n      dup4\n        /* \"ChamaGamification.sol\":11796:11815  achievements[_user] */\n      0xffffffffffffffffffffffffffffffffffffffff\n      and\n      0xffffffffffffffffffffffffffffffffffffffff\n      and\n      dup2\n      mstore\n      0x20\n      add\n      swap1\n      dup2\n      mstore\n      0x20\n      add\n      0x00\n      keccak256\n        /* \"ChamaGamification.sol\":11789:11815  return achievements[_user] */\n      dup1\n      sload\n      dup1\n      0x20\n      mul\n      0x20\n      add\n      mload(0x40)\n      swap1\n      dup2\n      add\n      0x40\n      mstore\n      dup1\n      swap3\n      swap2\n      swap1\n      dup2\n      dup2\n      mstore\n      0x20\n      add\n      0x00\n      swap1\n    tag_350:\n      dup3\n      dup3\n      lt\n      iszero\n      tag_351\n      jumpi\n      dup4\n      dup3\n      swap1\n      0x00\n      mstore\n      keccak256(0x00, 0x20)\n      swap1\n      0x04\n      mul\n      add\n      mload(0x40)\n      dup1\n      0x80\n      add\n      0x40\n      mstore\n      swap1\n      dup2\n      0x00\n      dup3\n      add\n      dup1\n      sload\n      tag_353\n      swap1\n      tag_297\n      jump\t// in\n    tag_353:\n      dup1\n      0x1f\n      add\n      0x20\n      dup1\n      swap2\n      div\n      mul\n      0x20\n      add\n      mload(0x40)\n      swap1\n      dup2\n      add\n      0x40\n      mstore\n      dup1\n      swap3\n      swap2\n      swap1\n      dup2\n      dup2\n      mstore\n      0x20\n      add\n      dup3\n      dup1\n      sload\n      tag_354\n      swap1\n      tag_297\n      jump\t// in\n    tag_354:\n      dup1\n      iszero\n      tag_355\n      jumpi\n      dup1\n      0x1f\n      lt\n      tag_356\n      jumpi\n      0x0100\n      dup1\n      dup4\n      sload\n      div\n      mul\n      dup4\n      mstore\n      swap2\n      0x20\n      add\n      swap2\n      jump(tag_355)\n    tag_356:\n      dup3\n      add\n      swap2\n      swap1\n      0x00\n      mstore\n      keccak256(0x00, 0x20)\n      swap1\n    tag_357:\n      dup2\n      sload\n      dup2\n      mstore\n      swap1\n      0x01\n      add\n      swap1\n      0x20\n      add\n      dup1\n      dup4\n      gt\n      tag_357\n      jumpi\n      dup3\n      swap1\n      sub\n      0x1f\n      and\n      dup3\n      add\n      swap2\n    tag_355:\n      pop\n      pop\n      pop\n      pop\n      pop\n      dup2\n      mstore\n      0x20\n      add\n      0x01\n      dup3\n      add\n      dup1\n      sload\n      tag_358\n      swap1\n      tag_297\n      jump\t// in\n    tag_358:\n      dup1\n      0x1f\n      add\n      0x20\n      dup1\n      swap2\n      div\n      mul\n      0x20\n      add\n      mload(0x40)\n      swap1\n      dup2\n      add\n      0x40\n      mstore\n      dup1\n      swap3\n      swap2\n      swap1\n      dup2\n      dup2\n      mstore\n      0x20\n      add\n      dup3\n      dup1\n      sload\n      tag_359\n      swap1\n      tag_297\n      jump\t// in\n    tag_359:\n      dup1\n      iszero\n      tag_360\n      jumpi\n      dup1\n      0x1f\n      lt\n      tag_361\n      jumpi\n      0x0100\n      dup1\n      dup4\n      sload\n      div\n      mul\n      dup4\n      mstore\n      swap2\n      0x20\n      add\n      swap2\n      jump(tag_360)\n    tag_361:\n      dup3\n      add\n      swap2\n      swap1\n      0x00\n      mstore\n      keccak256(0x00, 0x20)\n      swap1\n    tag_362:\n      dup2\n      sload\n      dup2\n      mstore\n      swap1\n      0x01\n      add\n      swap1\n      0x20\n      add\n      dup1\n      dup4\n      gt\n      tag_362\n      jumpi\n      dup3\n      swap1\n      sub\n      0x1f\n      and\n      dup3\n      add\n      swap2\n    tag_360:\n      pop\n      pop\n      pop\n      pop\n      pop\n      dup2\n      mstore\n      0x20\n      add\n      0x02\n      dup3\n      add\n      sload\n      dup2\n      mstore\n      0x20\n      add\n      0x03\n      dup3\n      add\n      sload\n      dup2\n      mstore\n      pop\n      pop\n      dup2\n      mstore\n      0x20\n      add\n      swap1\n      0x01\n      add\n      swap1\n      jump(tag_350)\n    tag_351:\n      pop\n      pop\n      pop\n      pop\n      swap1\n      pop\n        /* \"ChamaGamification.sol\":11690:11822  function getUserAchievements(address _user) external view returns (Achievement[] memory) {... */\n      swap2\n      swap1\n      pop\n      jump\t// out\n        /* \"ChamaGamification.sol\":7883:8220  function subtractScore(address _user, uint256 _points, string memory _reason) ... */\n    tag_203:\n        /* \"ChamaGamification.sol\":608:636  keccak256(\"CHAMA_CORE_ROLE\") */\n      0xc5c74b901cb87f1e81a3e0539a5d95bf14fa111210701dd52208a2390204b455\n        /* \"@openzeppelin/contracts/access/AccessControl.sol\":2473:2489  _checkRole(role) */\n      tag_364\n        /* \"@openzeppelin/contracts/access/AccessControl.sol\":2484:2488  role */\n      dup2\n        /* \"@openzeppelin/contracts/access/AccessControl.sol\":2473:2483  _checkRole */\n      tag_223\n        /* \"@openzeppelin/contracts/access/AccessControl.sol\":2473:2489  _checkRole(role) */\n      jump\t// in\n    tag_364:\n        /* \"ChamaGamification.sol\":8050:8057  _points */\n      dup3\n        /* \"ChamaGamification.sol\":8033:8039  scores */\n      0x03\n        /* \"ChamaGamification.sol\":8033:8046  scores[_user] */\n      0x00\n        /* \"ChamaGamification.sol\":8040:8045  _user */\n      dup7\n        /* \"ChamaGamification.sol\":8033:8046  scores[_user] */\n      0xffffffffffffffffffffffffffffffffffffffff\n      and\n      0xffffffffffffffffffffffffffffffffffffffff\n      and\n      dup2\n      mstore\n      0x20\n      add\n      swap1\n      dup2\n      mstore\n      0x20\n      add\n      0x00\n      keccak256\n      sload\n        /* \"ChamaGamification.sol\":8033:8057  scores[_user] >= _points */\n      lt\n        /* \"ChamaGamification.sol\":8029:8156  if (scores[_user] >= _points) {... */\n      tag_366\n      jumpi\n        /* \"ChamaGamification.sol\":8090:8097  _points */\n      dup3\n        /* \"ChamaGamification.sol\":8073:8079  scores */\n      0x03\n        /* \"ChamaGamification.sol\":8073:8086  scores[_user] */\n      0x00\n        /* \"ChamaGamification.sol\":8080:8085  _user */\n      dup7\n        /* \"ChamaGamification.sol\":8073:8086  scores[_user] */\n      0xffffffffffffffffffffffffffffffffffffffff\n      and\n      0xffffffffffffffffffffffffffffffffffffffff\n      and\n      dup2\n      mstore\n      0x20\n      add\n      swap1\n      dup2\n      mstore\n      0x20\n      add\n      0x00\n      keccak256\n      0x00\n        /* \"ChamaGamification.sol\":8073:8097  scores[_user] -= _points */\n      dup3\n      dup3\n      sload\n      tag_367\n      swap2\n      swap1\n      tag_368\n      jump\t// in\n    tag_367:\n      swap3\n      pop\n      pop\n      dup2\n      swap1\n      sstore\n      pop\n        /* \"ChamaGamification.sol\":8029:8156  if (scores[_user] >= _points) {... */\n      jump(tag_369)\n    tag_366:\n        /* \"ChamaGamification.sol\":8144:8145  0 */\n      0x00\n        /* \"ChamaGamification.sol\":8128:8134  scores */\n      0x03\n        /* \"ChamaGamification.sol\":8128:8141  scores[_user] */\n      0x00\n        /* \"ChamaGamification.sol\":8135:8140  _user */\n      dup7\n        /* \"ChamaGamification.sol\":8128:8141  scores[_user] */\n      0xffffffffffffffffffffffffffffffffffffffff\n      and\n      0xffffffffffffffffffffffffffffffffffffffff\n      and\n      dup2\n      mstore\n      0x20\n      add\n      swap1\n      dup2\n      mstore\n      0x20\n      add\n      0x00\n      keccak256\n        /* \"ChamaGamification.sol\":8128:8145  scores[_user] = 0 */\n      dup2\n      swap1\n      sstore\n      pop\n        /* \"ChamaGamification.sol\":8029:8156  if (scores[_user] >= _points) {... */\n    tag_369:\n        /* \"ChamaGamification.sol\":8183:8188  _user */\n      dup4\n        /* \"ChamaGamification.sol\":8170:8213  ScoreUpdated(_user, scores[_user], _reason) */\n      0xffffffffffffffffffffffffffffffffffffffff\n      and\n      0x2b535fbf4d2281f734a35408583a14d4e2b28653b00d761613e8758399dd6e6d\n        /* \"ChamaGamification.sol\":8190:8196  scores */\n      0x03\n        /* \"ChamaGamification.sol\":8190:8203  scores[_user] */\n      0x00\n        /* \"ChamaGamification.sol\":8197:8202  _user */\n      dup8\n        /* \"ChamaGamification.sol\":8190:8203  scores[_user] */\n      0xffffffffffffffffffffffffffffffffffffffff\n      and\n      0xffffffffffffffffffffffffffffffffffffffff\n      and\n      dup2\n      mstore\n      0x20\n      add\n      swap1\n      dup2\n      mstore\n      0x20\n      add\n      0x00\n      keccak256\n      sload\n        /* \"ChamaGamification.sol\":8205:8212  _reason */\n      dup5\n        /* \"ChamaGamification.sol\":8170:8213  ScoreUpdated(_user, scores[_user], _reason) */\n      mload(0x40)\n      tag_370\n      swap3\n      swap2\n      swap1\n      tag_371\n      jump\t// in\n    tag_370:\n      mload(0x40)\n      dup1\n      swap2\n      sub\n      swap1\n      log2\n        /* \"ChamaGamification.sol\":7883:8220  function subtractScore(address _user, uint256 _points, string memory _reason) ... */\n      pop\n      pop\n      pop\n      pop\n      jump\t// out\n        /* \"ChamaGamification.sol\":1361:1412  mapping(string => uint256) public achievementPoints */\n    tag_206:\n      0x0a\n      dup2\n      dup1\n      mload\n      0x20\n      dup2\n      add\n      dup3\n      add\n      dup1\n      mload\n      dup5\n      dup3\n      mstore\n      0x20\n      dup4\n      add\n      0x20\n      dup6\n      add\n      keccak256\n      dup2\n      dup4\n      mstore\n      dup1\n      swap6\n      pop\n      pop\n      pop\n      pop\n      pop\n      pop\n      0x00\n      swap2\n      pop\n      swap1\n      pop\n      sload\n      dup2\n      jump\t// out\n        /* \"@openzeppelin/contracts/security/Pausable.sol\":1767:1873  function _requireNotPaused() internal view virtual {... */\n    tag_210:\n        /* \"@openzeppelin/contracts/security/Pausable.sol\":1837:1845  paused() */\n      tag_373\n        /* \"@openzeppelin/contracts/security/Pausable.sol\":1837:1843  paused */\n      tag_118\n        /* \"@openzeppelin/contracts/security/Pausable.sol\":1837:1845  paused() */\n      jump\t// in\n    tag_373:\n        /* \"@openzeppelin/contracts/security/Pausable.sol\":1836:1845  !paused() */\n      iszero\n        /* \"@openzeppelin/contracts/security/Pausable.sol\":1828:1866  require(!paused(), \"Pausable: paused\") */\n      tag_374\n      jumpi\n      mload(0x40)\n      0x08c379a000000000000000000000000000000000000000000000000000000000\n      dup2\n      mstore\n      0x04\n      add\n      tag_375\n      swap1\n      tag_376\n      jump\t// in\n    tag_375:\n      mload(0x40)\n      dup1\n      swap2\n      sub\n      swap1\n      revert\n    tag_374:\n        /* \"@openzeppelin/contracts/security/Pausable.sol\":1767:1873  function _requireNotPaused() internal view virtual {... */\n      jump\t// out\n        /* \"@openzeppelin/contracts/utils/introspection/ERC165.sol\":730:876  function supportsInterface(bytes4 interfaceId) public view virtual returns (bool) {... */\n    tag_220:\n        /* \"@openzeppelin/contracts/utils/introspection/ERC165.sol\":806:810  bool */\n      0x00\n        /* \"@openzeppelin/contracts/utils/introspection/ERC165.sol\":844:869  type(IERC165).interfaceId */\n      0x01ffc9a700000000000000000000000000000000000000000000000000000000\n        /* \"@openzeppelin/contracts/utils/introspection/ERC165.sol\":829:869  interfaceId == type(IERC165).interfaceId */\n      not(0xffffffffffffffffffffffffffffffffffffffffffffffffffffffff)\n      and\n        /* \"@openzeppelin/contracts/utils/introspection/ERC165.sol\":829:840  interfaceId */\n      dup3\n        /* \"@openzeppelin/contracts/utils/introspection/ERC165.sol\":829:869  interfaceId == type(IERC165).interfaceId */\n      not(0xffffffffffffffffffffffffffffffffffffffffffffffffffffffff)\n      and\n      eq\n        /* \"@openzeppelin/contracts/utils/introspection/ERC165.sol\":822:869  return interfaceId == type(IERC165).interfaceId */\n      swap1\n      pop\n        /* \"@openzeppelin/contracts/utils/introspection/ERC165.sol\":730:876  function supportsInterface(bytes4 interfaceId) public view virtual returns (bool) {... */\n      swap2\n      swap1\n      pop\n      jump\t// out\n        /* \"@openzeppelin/contracts/access/AccessControl.sol\":3175:3278  function _checkRole(bytes32 role) internal view virtual {... */\n    tag_223:\n        /* \"@openzeppelin/contracts/access/AccessControl.sol\":3241:3271  _checkRole(role, _msgSender()) */\n      tag_379\n        /* \"@openzeppelin/contracts/access/AccessControl.sol\":3252:3256  role */\n      dup2\n        /* \"@openzeppelin/contracts/access/AccessControl.sol\":3258:3270  _msgSender() */\n      tag_380\n        /* \"@openzeppelin/contracts/access/AccessControl.sol\":3258:3268  _msgSender */\n      tag_262\n        /* \"@openzeppelin/contracts/access/AccessControl.sol\":3258:3270  _msgSender() */\n      jump\t// in\n    tag_380:\n        /* \"@openzeppelin/contracts/access/AccessControl.sol\":3241:3251  _checkRole */\n      tag_381\n        /* \"@openzeppelin/contracts/access/AccessControl.sol\":3241:3271  _checkRole(role, _msgSender()) */\n      jump\t// in\n    tag_379:\n        /* \"@openzeppelin/contracts/access/AccessControl.sol\":3175:3278  function _checkRole(bytes32 role) internal view virtual {... */\n      pop\n      jump\t// out\n        /* \"ChamaGamification.sol\":8764:9840  function _unlockAchievement(address _user, string memory _achievementName) internal {... */\n    tag_234:\n        /* \"ChamaGamification.sol\":8863:8880  validAchievements */\n      0x0b\n        /* \"ChamaGamification.sol\":8881:8897  _achievementName */\n      dup2\n        /* \"ChamaGamification.sol\":8863:8898  validAchievements[_achievementName] */\n      mload(0x40)\n      tag_383\n      swap2\n      swap1\n      tag_226\n      jump\t// in\n    tag_383:\n      swap1\n      dup2\n      mstore\n      0x20\n      add\n      mload(0x40)\n      dup1\n      swap2\n      sub\n      swap1\n      keccak256\n      0x00\n      swap1\n      sload\n      swap1\n      0x0100\n      exp\n      swap1\n      div\n      0xff\n      and\n        /* \"ChamaGamification.sol\":8858:8928  if (!validAchievements[_achievementName]) revert AchievementNotValid() */\n      tag_384\n      jumpi\n        /* \"ChamaGamification.sol\":8907:8928  AchievementNotValid() */\n      mload(0x40)\n      0x5e07eb5300000000000000000000000000000000000000000000000000000000\n      dup2\n      mstore\n      0x04\n      add\n      mload(0x40)\n      dup1\n      swap2\n      sub\n      swap1\n      revert\n        /* \"ChamaGamification.sol\":8858:8928  if (!validAchievements[_achievementName]) revert AchievementNotValid() */\n    tag_384:\n        /* \"ChamaGamification.sol\":9001:9039  Achievement[] storage userAchievements */\n      0x00\n        /* \"ChamaGamification.sol\":9042:9054  achievements */\n      0x04\n        /* \"ChamaGamification.sol\":9042:9061  achievements[_user] */\n      0x00\n        /* \"ChamaGamification.sol\":9055:9060  _user */\n      dup5\n        /* \"ChamaGamification.sol\":9042:9061  achievements[_user] */\n      0xffffffffffffffffffffffffffffffffffffffff\n      and\n      0xffffffffffffffffffffffffffffffffffffffff\n      and\n      dup2\n      mstore\n      0x20\n      add\n      swap1\n      dup2\n      mstore\n      0x20\n      add\n      0x00\n      keccak256\n        /* \"ChamaGamification.sol\":9001:9061  Achievement[] storage userAchievements = achievements[_user] */\n      swap1\n      pop\n        /* \"ChamaGamification.sol\":9076:9085  uint256 i */\n      0x00\n        /* \"ChamaGamification.sol\":9088:9089  0 */\n      0x00\n        /* \"ChamaGamification.sol\":9076:9089  uint256 i = 0 */\n      swap1\n      pop\n        /* \"ChamaGamification.sol\":9071:9301  for (uint256 i = 0; i < userAchievements.length; i++) {... */\n    tag_385:\n        /* \"ChamaGamification.sol\":9095:9111  userAchievements */\n      dup2\n        /* \"ChamaGamification.sol\":9095:9118  userAchievements.length */\n      dup1\n      sload\n      swap1\n      pop\n        /* \"ChamaGamification.sol\":9091:9092  i */\n      dup2\n        /* \"ChamaGamification.sol\":9091:9118  i < userAchievements.length */\n      lt\n        /* \"ChamaGamification.sol\":9071:9301  for (uint256 i = 0; i < userAchievements.length; i++) {... */\n      iszero\n      tag_386\n      jumpi\n        /* \"ChamaGamification.sol\":9205:9221  _achievementName */\n      dup3\n        /* \"ChamaGamification.sol\":9189:9223  keccak256(bytes(_achievementName)) */\n      dup1\n      mload\n      swap1\n      0x20\n      add\n      keccak256\n        /* \"ChamaGamification.sol\":9159:9175  userAchievements */\n      dup3\n        /* \"ChamaGamification.sol\":9176:9177  i */\n      dup3\n        /* \"ChamaGamification.sol\":9159:9178  userAchievements[i] */\n      dup2\n      sload\n      dup2\n      lt\n      tag_388\n      jumpi\n      tag_389\n      tag_390\n      jump\t// in\n    tag_389:\n    tag_388:\n      swap1\n      0x00\n      mstore\n      keccak256(0x00, 0x20)\n      swap1\n      0x04\n      mul\n      add\n        /* \"ChamaGamification.sol\":9159:9183  userAchievements[i].name */\n      0x00\n      add\n        /* \"ChamaGamification.sol\":9143:9185  keccak256(bytes(userAchievements[i].name)) */\n      mload(0x40)\n      tag_392\n      swap2\n      swap1\n      tag_393\n      jump\t// in\n    tag_392:\n      mload(0x40)\n      dup1\n      swap2\n      sub\n      swap1\n      keccak256\n        /* \"ChamaGamification.sol\":9143:9223  keccak256(bytes(userAchievements[i].name)) == keccak256(bytes(_achievementName)) */\n      sub\n        /* \"ChamaGamification.sol\":9139:9291  if (keccak256(bytes(userAchievements[i].name)) == keccak256(bytes(_achievementName))) {... */\n      tag_394\n      jumpi\n        /* \"ChamaGamification.sol\":9243:9250  return; */\n      pop\n      pop\n      jump(tag_382)\n        /* \"ChamaGamification.sol\":9139:9291  if (keccak256(bytes(userAchievements[i].name)) == keccak256(bytes(_achievementName))) {... */\n    tag_394:\n        /* \"ChamaGamification.sol\":9120:9123  i++ */\n      dup1\n      dup1\n      0x01\n      add\n      swap2\n      pop\n      pop\n        /* \"ChamaGamification.sol\":9071:9301  for (uint256 i = 0; i < userAchievements.length; i++) {... */\n      jump(tag_385)\n    tag_386:\n      pop\n        /* \"ChamaGamification.sol\":9319:9333  uint256 points */\n      0x00\n        /* \"ChamaGamification.sol\":9336:9353  achievementPoints */\n      0x0a\n        /* \"ChamaGamification.sol\":9354:9370  _achievementName */\n      dup4\n        /* \"ChamaGamification.sol\":9336:9371  achievementPoints[_achievementName] */\n      mload(0x40)\n      tag_395\n      swap2\n      swap1\n      tag_226\n      jump\t// in\n    tag_395:\n      swap1\n      dup2\n      mstore\n      0x20\n      add\n      mload(0x40)\n      dup1\n      swap2\n      sub\n      swap1\n      keccak256\n      sload\n        /* \"ChamaGamification.sol\":9319:9371  uint256 points = achievementPoints[_achievementName] */\n      swap1\n      pop\n        /* \"ChamaGamification.sol\":9390:9402  achievements */\n      0x04\n        /* \"ChamaGamification.sol\":9390:9409  achievements[_user] */\n      0x00\n        /* \"ChamaGamification.sol\":9403:9408  _user */\n      dup6\n        /* \"ChamaGamification.sol\":9390:9409  achievements[_user] */\n      0xffffffffffffffffffffffffffffffffffffffff\n      and\n      0xffffffffffffffffffffffffffffffffffffffff\n      and\n      dup2\n      mstore\n      0x20\n      add\n      swap1\n      dup2\n      mstore\n      0x20\n      add\n      0x00\n      keccak256\n        /* \"ChamaGamification.sol\":9415:9614  Achievement({... */\n      mload(0x40)\n      dup1\n      0x80\n      add\n      0x40\n      mstore\n      dup1\n        /* \"ChamaGamification.sol\":9447:9463  _achievementName */\n      dup6\n        /* \"ChamaGamification.sol\":9415:9614  Achievement({... */\n      dup2\n      mstore\n      0x20\n      add\n        /* \"ChamaGamification.sol\":9490:9534  _getAchievementDescription(_achievementName) */\n      tag_396\n        /* \"ChamaGamification.sol\":9517:9533  _achievementName */\n      dup7\n        /* \"ChamaGamification.sol\":9490:9516  _getAchievementDescription */\n      tag_397\n        /* \"ChamaGamification.sol\":9490:9534  _getAchievementDescription(_achievementName) */\n      jump\t// in\n    tag_396:\n        /* \"ChamaGamification.sol\":9415:9614  Achievement({... */\n      dup2\n      mstore\n      0x20\n      add\n        /* \"ChamaGamification.sol\":9556:9562  points */\n      dup4\n        /* \"ChamaGamification.sol\":9415:9614  Achievement({... */\n      dup2\n      mstore\n      0x20\n      add\n        /* \"ChamaGamification.sol\":9588:9603  block.timestamp */\n      timestamp\n        /* \"ChamaGamification.sol\":9415:9614  Achievement({... */\n      dup2\n      mstore\n      pop\n        /* \"ChamaGamification.sol\":9390:9615  achievements[_user].push(Achievement({... */\n      swap1\n      dup1\n      0x01\n      dup2\n      sload\n      add\n      dup1\n      dup3\n      sstore\n      dup1\n      swap2\n      pop\n      pop\n      0x01\n      swap1\n      sub\n      swap1\n      0x00\n      mstore\n      keccak256(0x00, 0x20)\n      swap1\n      0x04\n      mul\n      add\n      0x00\n      swap1\n      swap2\n      swap1\n      swap2\n      swap1\n      swap2\n      pop\n      0x00\n      dup3\n      add\n      mload\n      dup2\n      0x00\n      add\n      swap1\n      dup2\n      tag_399\n      swap2\n      swap1\n      tag_214\n      jump\t// in\n    tag_399:\n      pop\n      0x20\n      dup3\n      add\n      mload\n      dup2\n      0x01\n      add\n      swap1\n      dup2\n      tag_400\n      swap2\n      swap1\n      tag_214\n      jump\t// in\n    tag_400:\n      pop\n      0x40\n      dup3\n      add\n      mload\n      dup2\n      0x02\n      add\n      sstore\n      0x60\n      dup3\n      add\n      mload\n      dup2\n      0x03\n      add\n      sstore\n      pop\n      pop\n        /* \"ChamaGamification.sol\":9672:9757  _addScore(_user, points, string(abi.encodePacked(\"Achievement: \", _achievementName))) */\n      tag_401\n        /* \"ChamaGamification.sol\":9682:9687  _user */\n      dup5\n        /* \"ChamaGamification.sol\":9689:9695  points */\n      dup3\n        /* \"ChamaGamification.sol\":9738:9754  _achievementName */\n      dup6\n        /* \"ChamaGamification.sol\":9704:9755  abi.encodePacked(\"Achievement: \", _achievementName) */\n      add(0x20, mload(0x40))\n      tag_402\n      swap2\n      swap1\n      tag_403\n      jump\t// in\n    tag_402:\n      mload(0x40)\n      0x20\n      dup2\n      dup4\n      sub\n      sub\n      dup2\n      mstore\n      swap1\n      0x40\n      mstore\n        /* \"ChamaGamification.sol\":9672:9681  _addScore */\n      tag_251\n        /* \"ChamaGamification.sol\":9672:9757  _addScore(_user, points, string(abi.encodePacked(\"Achievement: \", _achievementName))) */\n      jump\t// in\n    tag_401:\n        /* \"ChamaGamification.sol\":9801:9806  _user */\n      dup4\n        /* \"ChamaGamification.sol\":9781:9833  AchievementUnlocked(_user, _achievementName, points) */\n      0xffffffffffffffffffffffffffffffffffffffff\n      and\n      0x67a8d47c6ecf3a491ea8a4f20a58352394879c573c678ec5b9abceae075d4dca\n        /* \"ChamaGamification.sol\":9808:9824  _achievementName */\n      dup5\n        /* \"ChamaGamification.sol\":9826:9832  points */\n      dup4\n        /* \"ChamaGamification.sol\":9781:9833  AchievementUnlocked(_user, _achievementName, points) */\n      mload(0x40)\n      tag_404\n      swap3\n      swap2\n      swap1\n      tag_405\n      jump\t// in\n    tag_404:\n      mload(0x40)\n      dup1\n      swap2\n      sub\n      swap1\n      log2\n        /* \"ChamaGamification.sol\":8848:9840  {... */\n      pop\n      pop\n        /* \"ChamaGamification.sol\":8764:9840  function _unlockAchievement(address _user, string memory _achievementName) internal {... */\n    tag_382:\n      pop\n      pop\n      jump\t// out\n        /* \"@openzeppelin/contracts/access/AccessControl.sol\":6155:6471  function _grantRole(bytes32 role, address account) internal virtual returns (bool) {... */\n    tag_242:\n        /* \"@openzeppelin/contracts/access/AccessControl.sol\":6232:6236  bool */\n      0x00\n        /* \"@openzeppelin/contracts/access/AccessControl.sol\":6253:6275  hasRole(role, account) */\n      tag_407\n        /* \"@openzeppelin/contracts/access/AccessControl.sol\":6261:6265  role */\n      dup4\n        /* \"@openzeppelin/contracts/access/AccessControl.sol\":6267:6274  account */\n      dup4\n        /* \"@openzeppelin/contracts/access/AccessControl.sol\":6253:6260  hasRole */\n      tag_147\n        /* \"@openzeppelin/contracts/access/AccessControl.sol\":6253:6275  hasRole(role, account) */\n      jump\t// in\n    tag_407:\n        /* \"@openzeppelin/contracts/access/AccessControl.sol\":6248:6465  if (!hasRole(role, account)) {... */\n      tag_408\n      jumpi\n        /* \"@openzeppelin/contracts/access/AccessControl.sol\":6323:6327  true */\n      0x01\n        /* \"@openzeppelin/contracts/access/AccessControl.sol\":6291:6297  _roles */\n      0x02\n        /* \"@openzeppelin/contracts/access/AccessControl.sol\":6291:6303  _roles[role] */\n      0x00\n        /* \"@openzeppelin/contracts/access/AccessControl.sol\":6298:6302  role */\n      dup6\n        /* \"@openzeppelin/contracts/access/AccessControl.sol\":6291:6303  _roles[role] */\n      dup2\n      mstore\n      0x20\n      add\n      swap1\n      dup2\n      mstore\n      0x20\n      add\n      0x00\n      keccak256\n        /* \"@openzeppelin/contracts/access/AccessControl.sol\":6291:6311  _roles[role].hasRole */\n      0x00\n      add\n        /* \"@openzeppelin/contracts/access/AccessControl.sol\":6291:6320  _roles[role].hasRole[account] */\n      0x00\n        /* \"@openzeppelin/contracts/access/AccessControl.sol\":6312:6319  account */\n      dup5\n        /* \"@openzeppelin/contracts/access/AccessControl.sol\":6291:6320  _roles[role].hasRole[account] */\n      0xffffffffffffffffffffffffffffffffffffffff\n      and\n      0xffffffffffffffffffffffffffffffffffffffff\n      and\n      dup2\n      mstore\n      0x20\n      add\n      swap1\n      dup2\n      mstore\n      0x20\n      add\n      0x00\n      keccak256\n      0x00\n        /* \"@openzeppelin/contracts/access/AccessControl.sol\":6291:6327  _roles[role].hasRole[account] = true */\n      0x0100\n      exp\n      dup2\n      sload\n      dup2\n      0xff\n      mul\n      not\n      and\n      swap1\n      dup4\n      iszero\n      iszero\n      mul\n      or\n      swap1\n      sstore\n      pop\n        /* \"@openzeppelin/contracts/access/AccessControl.sol\":6373:6385  _msgSender() */\n      tag_409\n        /* \"@openzeppelin/contracts/access/AccessControl.sol\":6373:6383  _msgSender */\n      tag_262\n        /* \"@openzeppelin/contracts/access/AccessControl.sol\":6373:6385  _msgSender() */\n      jump\t// in\n    tag_409:\n        /* \"@openzeppelin/contracts/access/AccessControl.sol\":6346:6386  RoleGranted(role, account, _msgSender()) */\n      0xffffffffffffffffffffffffffffffffffffffff\n      and\n        /* \"@openzeppelin/contracts/access/AccessControl.sol\":6364:6371  account */\n      dup3\n        /* \"@openzeppelin/contracts/access/AccessControl.sol\":6346:6386  RoleGranted(role, account, _msgSender()) */\n      0xffffffffffffffffffffffffffffffffffffffff\n      and\n        /* \"@openzeppelin/contracts/access/AccessControl.sol\":6358:6362  role */\n      dup5\n        /* \"@openzeppelin/contracts/access/AccessControl.sol\":6346:6386  RoleGranted(role, account, _msgSender()) */\n      0x2f8788117e7eff1d82e926ec794901d17c78024a50270940304540a733656f0d\n      mload(0x40)\n      mload(0x40)\n      dup1\n      swap2\n      sub\n      swap1\n      log4\n        /* \"@openzeppelin/contracts/access/AccessControl.sol\":6407:6411  true */\n      0x01\n        /* \"@openzeppelin/contracts/access/AccessControl.sol\":6400:6411  return true */\n      swap1\n      pop\n      jump(tag_406)\n        /* \"@openzeppelin/contracts/access/AccessControl.sol\":6248:6465  if (!hasRole(role, account)) {... */\n    tag_408:\n        /* \"@openzeppelin/contracts/access/AccessControl.sol\":6449:6454  false */\n      0x00\n        /* \"@openzeppelin/contracts/access/AccessControl.sol\":6442:6454  return false */\n      swap1\n      pop\n        /* \"@openzeppelin/contracts/access/AccessControl.sol\":6155:6471  function _grantRole(bytes32 role, address account) internal virtual returns (bool) {... */\n    tag_406:\n      swap3\n      swap2\n      pop\n      pop\n      jump\t// out\n        /* \"ChamaGamification.sol\":7477:7659  function _addScore(address _user, uint256 _points, string memory _reason) internal {... */\n    tag_251:\n        /* \"ChamaGamification.sol\":7587:7594  _points */\n      dup2\n        /* \"ChamaGamification.sol\":7570:7576  scores */\n      0x03\n        /* \"ChamaGamification.sol\":7570:7583  scores[_user] */\n      0x00\n        /* \"ChamaGamification.sol\":7577:7582  _user */\n      dup6\n        /* \"ChamaGamification.sol\":7570:7583  scores[_user] */\n      0xffffffffffffffffffffffffffffffffffffffff\n      and\n      0xffffffffffffffffffffffffffffffffffffffff\n      and\n      dup2\n      mstore\n      0x20\n      add\n      swap1\n      dup2\n      mstore\n      0x20\n      add\n      0x00\n      keccak256\n      0x00\n        /* \"ChamaGamification.sol\":7570:7594  scores[_user] += _points */\n      dup3\n      dup3\n      sload\n      tag_412\n      swap2\n      swap1\n      tag_413\n      jump\t// in\n    tag_412:\n      swap3\n      pop\n      pop\n      dup2\n      swap1\n      sstore\n      pop\n        /* \"ChamaGamification.sol\":7622:7627  _user */\n      dup3\n        /* \"ChamaGamification.sol\":7609:7652  ScoreUpdated(_user, scores[_user], _reason) */\n      0xffffffffffffffffffffffffffffffffffffffff\n      and\n      0x2b535fbf4d2281f734a35408583a14d4e2b28653b00d761613e8758399dd6e6d\n        /* \"ChamaGamification.sol\":7629:7635  scores */\n      0x03\n        /* \"ChamaGamification.sol\":7629:7642  scores[_user] */\n      0x00\n        /* \"ChamaGamification.sol\":7636:7641  _user */\n      dup7\n        /* \"ChamaGamification.sol\":7629:7642  scores[_user] */\n      0xffffffffffffffffffffffffffffffffffffffff\n      and\n      0xffffffffffffffffffffffffffffffffffffffff\n      and\n      dup2\n      mstore\n      0x20\n      add\n      swap1\n      dup2\n      mstore\n      0x20\n      add\n      0x00\n      keccak256\n      sload\n        /* \"ChamaGamification.sol\":7644:7651  _reason */\n      dup4\n        /* \"ChamaGamification.sol\":7609:7652  ScoreUpdated(_user, scores[_user], _reason) */\n      mload(0x40)\n      tag_414\n      swap3\n      swap2\n      swap1\n      tag_371\n      jump\t// in\n    tag_414:\n      mload(0x40)\n      dup1\n      swap2\n      sub\n      swap1\n      log2\n        /* \"ChamaGamification.sol\":7477:7659  function _addScore(address _user, uint256 _points, string memory _reason) internal {... */\n      pop\n      pop\n      pop\n      jump\t// out\n        /* \"@openzeppelin/contracts/utils/Context.sol\":656:752  function _msgSender() internal view virtual returns (address) {... */\n    tag_262:\n        /* \"@openzeppelin/contracts/utils/Context.sol\":709:716  address */\n      0x00\n        /* \"@openzeppelin/contracts/utils/Context.sol\":735:745  msg.sender */\n      caller\n        /* \"@openzeppelin/contracts/utils/Context.sol\":728:745  return msg.sender */\n      swap1\n      pop\n        /* \"@openzeppelin/contracts/utils/Context.sol\":656:752  function _msgSender() internal view virtual returns (address) {... */\n      swap1\n      jump\t// out\n        /* \"@openzeppelin/contracts/access/AccessControl.sol\":6708:7025  function _revokeRole(bytes32 role, address account) internal virtual returns (bool) {... */\n    tag_265:\n        /* \"@openzeppelin/contracts/access/AccessControl.sol\":6786:6790  bool */\n      0x00\n        /* \"@openzeppelin/contracts/access/AccessControl.sol\":6806:6828  hasRole(role, account) */\n      tag_417\n        /* \"@openzeppelin/contracts/access/AccessControl.sol\":6814:6818  role */\n      dup4\n        /* \"@openzeppelin/contracts/access/AccessControl.sol\":6820:6827  account */\n      dup4\n        /* \"@openzeppelin/contracts/access/AccessControl.sol\":6806:6813  hasRole */\n      tag_147\n        /* \"@openzeppelin/contracts/access/AccessControl.sol\":6806:6828  hasRole(role, account) */\n      jump\t// in\n    tag_417:\n        /* \"@openzeppelin/contracts/access/AccessControl.sol\":6802:7019  if (hasRole(role, account)) {... */\n      iszero\n      tag_418\n      jumpi\n        /* \"@openzeppelin/contracts/access/AccessControl.sol\":6876:6881  false */\n      0x00\n        /* \"@openzeppelin/contracts/access/AccessControl.sol\":6844:6850  _roles */\n      0x02\n        /* \"@openzeppelin/contracts/access/AccessControl.sol\":6844:6856  _roles[role] */\n      0x00\n        /* \"@openzeppelin/contracts/access/AccessControl.sol\":6851:6855  role */\n      dup6\n        /* \"@openzeppelin/contracts/access/AccessControl.sol\":6844:6856  _roles[role] */\n      dup2\n      mstore\n      0x20\n      add\n      swap1\n      dup2\n      mstore\n      0x20\n      add\n      0x00\n      keccak256\n        /* \"@openzeppelin/contracts/access/AccessControl.sol\":6844:6864  _roles[role].hasRole */\n      0x00\n      add\n        /* \"@openzeppelin/contracts/access/AccessControl.sol\":6844:6873  _roles[role].hasRole[account] */\n      0x00\n        /* \"@openzeppelin/contracts/access/AccessControl.sol\":6865:6872  account */\n      dup5\n        /* \"@openzeppelin/contracts/access/AccessControl.sol\":6844:6873  _roles[role].hasRole[account] */\n      0xffffffffffffffffffffffffffffffffffffffff\n      and\n      0xffffffffffffffffffffffffffffffffffffffff\n      and\n      dup2\n      mstore\n      0x20\n      add\n      swap1\n      dup2\n      mstore\n      0x20\n      add\n      0x00\n      keccak256\n      0x00\n        /* \"@openzeppelin/contracts/access/AccessControl.sol\":6844:6881  _roles[role].hasRole[account] = false */\n      0x0100\n      exp\n      dup2\n      sload\n      dup2\n      0xff\n      mul\n      not\n      and\n      swap1\n      dup4\n      iszero\n      iszero\n      mul\n      or\n      swap1\n      sstore\n      pop\n        /* \"@openzeppelin/contracts/access/AccessControl.sol\":6927:6939  _msgSender() */\n      tag_419\n        /* \"@openzeppelin/contracts/access/AccessControl.sol\":6927:6937  _msgSender */\n      tag_262\n        /* \"@openzeppelin/contracts/access/AccessControl.sol\":6927:6939  _msgSender() */\n      jump\t// in\n    tag_419:\n        /* \"@openzeppelin/contracts/access/AccessControl.sol\":6900:6940  RoleRevoked(role, account, _msgSender()) */\n      0xffffffffffffffffffffffffffffffffffffffff\n      and\n        /* \"@openzeppelin/contracts/access/AccessControl.sol\":6918:6925  account */\n      dup3\n        /* \"@openzeppelin/contracts/access/AccessControl.sol\":6900:6940  RoleRevoked(role, account, _msgSender()) */\n      0xffffffffffffffffffffffffffffffffffffffff\n      and\n        /* \"@openzeppelin/contracts/access/AccessControl.sol\":6912:6916  role */\n      dup5\n        /* \"@openzeppelin/contracts/access/AccessControl.sol\":6900:6940  RoleRevoked(role, account, _msgSender()) */\n      0xf6391f5c32d9c69d2a47ea670b442974b53935d1edc7fd64eb21e047a839171b\n      mload(0x40)\n      mload(0x40)\n      dup1\n      swap2\n      sub\n      swap1\n      log4\n        /* \"@openzeppelin/contracts/access/AccessControl.sol\":6961:6965  true */\n      0x01\n        /* \"@openzeppelin/contracts/access/AccessControl.sol\":6954:6965  return true */\n      swap1\n      pop\n      jump(tag_416)\n        /* \"@openzeppelin/contracts/access/AccessControl.sol\":6802:7019  if (hasRole(role, account)) {... */\n    tag_418:\n        /* \"@openzeppelin/contracts/access/AccessControl.sol\":7003:7008  false */\n      0x00\n        /* \"@openzeppelin/contracts/access/AccessControl.sol\":6996:7008  return false */\n      swap1\n      pop\n        /* \"@openzeppelin/contracts/access/AccessControl.sol\":6708:7025  function _revokeRole(bytes32 role, address account) internal virtual returns (bool) {... */\n    tag_416:\n      swap3\n      swap2\n      pop\n      pop\n      jump\t// out\n        /* \"@openzeppelin/contracts/security/Pausable.sol\":2433:2550  function _unpause() internal virtual whenPaused {... */\n    tag_270:\n        /* \"@openzeppelin/contracts/security/Pausable.sol\":1486:1502  _requirePaused() */\n      tag_422\n        /* \"@openzeppelin/contracts/security/Pausable.sol\":1486:1500  _requirePaused */\n      tag_423\n        /* \"@openzeppelin/contracts/security/Pausable.sol\":1486:1502  _requirePaused() */\n      jump\t// in\n    tag_422:\n        /* \"@openzeppelin/contracts/security/Pausable.sol\":2501:2506  false */\n      0x00\n        /* \"@openzeppelin/contracts/security/Pausable.sol\":2491:2498  _paused */\n      0x01\n      0x00\n        /* \"@openzeppelin/contracts/security/Pausable.sol\":2491:2506  _paused = false */\n      0x0100\n      exp\n      dup2\n      sload\n      dup2\n      0xff\n      mul\n      not\n      and\n      swap1\n      dup4\n      iszero\n      iszero\n      mul\n      or\n      swap1\n      sstore\n      pop\n        /* \"@openzeppelin/contracts/security/Pausable.sol\":2521:2543  Unpaused(_msgSender()) */\n      0x5db9ee0a495bf2e6ff9c91a7834c1ba4fdd244a5e8aa4e537bd38aeae4b073aa\n        /* \"@openzeppelin/contracts/security/Pausable.sol\":2530:2542  _msgSender() */\n      tag_425\n        /* \"@openzeppelin/contracts/security/Pausable.sol\":2530:2540  _msgSender */\n      tag_262\n        /* \"@openzeppelin/contracts/security/Pausable.sol\":2530:2542  _msgSender() */\n      jump\t// in\n    tag_425:\n        /* \"@openzeppelin/contracts/security/Pausable.sol\":2521:2543  Unpaused(_msgSender()) */\n      mload(0x40)\n      tag_426\n      swap2\n      swap1\n      tag_144\n      jump\t// in\n    tag_426:\n      mload(0x40)\n      dup1\n      swap2\n      sub\n      swap1\n      log1\n        /* \"@openzeppelin/contracts/security/Pausable.sol\":2433:2550  function _unpause() internal virtual whenPaused {... */\n      jump\t// out\n        /* \"@openzeppelin/contracts/security/Pausable.sol\":2186:2301  function _pause() internal virtual whenNotPaused {... */\n    tag_290:\n        /* \"@openzeppelin/contracts/security/Pausable.sol\":1239:1258  _requireNotPaused() */\n      tag_428\n        /* \"@openzeppelin/contracts/security/Pausable.sol\":1239:1256  _requireNotPaused */\n      tag_210\n        /* \"@openzeppelin/contracts/security/Pausable.sol\":1239:1258  _requireNotPaused() */\n      jump\t// in\n    tag_428:\n        /* \"@openzeppelin/contracts/security/Pausable.sol\":2255:2259  true */\n      0x01\n        /* \"@openzeppelin/contracts/security/Pausable.sol\":2245:2252  _paused */\n      dup1\n      0x00\n        /* \"@openzeppelin/contracts/security/Pausable.sol\":2245:2259  _paused = true */\n      0x0100\n      exp\n      dup2\n      sload\n      dup2\n      0xff\n      mul\n      not\n      and\n      swap1\n      dup4\n      iszero\n      iszero\n      mul\n      or\n      swap1\n      sstore\n      pop\n        /* \"@openzeppelin/contracts/security/Pausable.sol\":2274:2294  Paused(_msgSender()) */\n      0x62e78cea01bee320cd4e420270b5ea74000d11b0c9f74754ebdbfc544b05a258\n        /* \"@openzeppelin/contracts/security/Pausable.sol\":2281:2293  _msgSender() */\n      tag_430\n        /* \"@openzeppelin/contracts/security/Pausable.sol\":2281:2291  _msgSender */\n      tag_262\n        /* \"@openzeppelin/contracts/security/Pausable.sol\":2281:2293  _msgSender() */\n      jump\t// in\n    tag_430:\n        /* \"@openzeppelin/contracts/security/Pausable.sol\":2274:2294  Paused(_msgSender()) */\n      mload(0x40)\n      tag_431\n      swap2\n      swap1\n      tag_144\n      jump\t// in\n    tag_431:\n      mload(0x40)\n      dup1\n      swap2\n      sub\n      swap1\n      log1\n        /* \"@openzeppelin/contracts/security/Pausable.sol\":2186:2301  function _pause() internal virtual whenNotPaused {... */\n      jump\t// out\n        /* \"@openzeppelin/contracts/access/AccessControl.sol\":3408:3605  function _checkRole(bytes32 role, address account) internal view virtual {... */\n    tag_381:\n        /* \"@openzeppelin/contracts/access/AccessControl.sol\":3496:3518  hasRole(role, account) */\n      tag_433\n        /* \"@openzeppelin/contracts/access/AccessControl.sol\":3504:3508  role */\n      dup3\n        /* \"@openzeppelin/contracts/access/AccessControl.sol\":3510:3517  account */\n      dup3\n        /* \"@openzeppelin/contracts/access/AccessControl.sol\":3496:3503  hasRole */\n      tag_147\n        /* \"@openzeppelin/contracts/access/AccessControl.sol\":3496:3518  hasRole(role, account) */\n      jump\t// in\n    tag_433:\n        /* \"@openzeppelin/contracts/access/AccessControl.sol\":3491:3599  if (!hasRole(role, account)) {... */\n      tag_434\n      jumpi\n        /* \"@openzeppelin/contracts/access/AccessControl.sol\":3574:3581  account */\n      dup1\n        /* \"@openzeppelin/contracts/access/AccessControl.sol\":3583:3587  role */\n      dup3\n        /* \"@openzeppelin/contracts/access/AccessControl.sol\":3541:3588  AccessControlUnauthorizedAccount(account, role) */\n      mload(0x40)\n      0xe2517d3f00000000000000000000000000000000000000000000000000000000\n      dup2\n      mstore\n      0x04\n      add\n      tag_435\n      swap3\n      swap2\n      swap1\n      tag_436\n      jump\t// in\n    tag_435:\n      mload(0x40)\n      dup1\n      swap2\n      sub\n      swap1\n      revert\n        /* \"@openzeppelin/contracts/access/AccessControl.sol\":3491:3599  if (!hasRole(role, account)) {... */\n    tag_434:\n        /* \"@openzeppelin/contracts/access/AccessControl.sol\":3408:3605  function _checkRole(bytes32 role, address account) internal view virtual {... */\n      pop\n      pop\n      jump\t// out\n        /* \"ChamaGamification.sol\":10015:11550  function _getAchievementDescription(string memory _achievementName) ... */\n    tag_397:\n        /* \"ChamaGamification.sol\":10133:10158  string memory description */\n      0x60\n        /* \"ChamaGamification.sol\":10175:10191  bytes32 nameHash */\n      0x00\n        /* \"ChamaGamification.sol\":10210:10226  _achievementName */\n      dup3\n        /* \"ChamaGamification.sol\":10194:10228  keccak256(bytes(_achievementName)) */\n      dup1\n      mload\n      swap1\n      0x20\n      add\n      keccak256\n        /* \"ChamaGamification.sol\":10175:10228  bytes32 nameHash = keccak256(bytes(_achievementName)) */\n      swap1\n      pop\n        /* \"ChamaGamification.sol\":10263:10289  keccak256(\"Chama Creator\") */\n      0xce3c74d1aa17e71c363f9ec4e9713d22e86f5938ee1536de30ede935b3ea8699\n        /* \"ChamaGamification.sol\":10251:10259  nameHash */\n      dup2\n        /* \"ChamaGamification.sol\":10251:10289  nameHash == keccak256(\"Chama Creator\") */\n      sub\n        /* \"ChamaGamification.sol\":10247:11544  if (nameHash == keccak256(\"Chama Creator\")) {... */\n      tag_438\n      jumpi\n        /* \"ChamaGamification.sol\":10305:10338  return \"Created your first chama\" */\n      mload(0x40)\n      dup1\n      0x40\n      add\n      0x40\n      mstore\n      dup1\n      0x18\n      dup2\n      mstore\n      0x20\n      add\n      0x4372656174656420796f7572206669727374206368616d610000000000000000\n      dup2\n      mstore\n      pop\n      swap2\n      pop\n      pop\n      jump(tag_437)\n        /* \"ChamaGamification.sol\":10247:11544  if (nameHash == keccak256(\"Chama Creator\")) {... */\n    tag_438:\n        /* \"ChamaGamification.sol\":10371:10395  keccak256(\"First Stack\") */\n      0xaa639973eeced364b1e49eaf04cdce0e3a448beda1ac572145dcdb4158ff3ee1\n        /* \"ChamaGamification.sol\":10359:10367  nameHash */\n      dup2\n        /* \"ChamaGamification.sol\":10359:10395  nameHash == keccak256(\"First Stack\") */\n      sub\n        /* \"ChamaGamification.sol\":10355:11544  if (nameHash == keccak256(\"First Stack\")) {... */\n      tag_440\n      jumpi\n        /* \"ChamaGamification.sol\":10411:10448  return \"Made your first contribution\" */\n      mload(0x40)\n      dup1\n      0x40\n      add\n      0x40\n      mstore\n      dup1\n      0x1c\n      dup2\n      mstore\n      0x20\n      add\n      0x4d61646520796f757220666972737420636f6e747269627574696f6e00000000\n      dup2\n      mstore\n      pop\n      swap2\n      pop\n      pop\n      jump(tag_437)\n        /* \"ChamaGamification.sol\":10355:11544  if (nameHash == keccak256(\"First Stack\")) {... */\n    tag_440:\n        /* \"ChamaGamification.sol\":10481:10509  keccak256(\"5 Contributions\") */\n      0x51171439905207316bfbb9035965755dce7f21f64623b2947331b66ce5d9ddc2\n        /* \"ChamaGamification.sol\":10469:10477  nameHash */\n      dup2\n        /* \"ChamaGamification.sol\":10469:10509  nameHash == keccak256(\"5 Contributions\") */\n      sub\n        /* \"ChamaGamification.sol\":10465:11544  if (nameHash == keccak256(\"5 Contributions\")) {... */\n      tag_442\n      jumpi\n        /* \"ChamaGamification.sol\":10525:10554  return \"Made 5 contributions\" */\n      mload(0x40)\n      dup1\n      0x40\n      add\n      0x40\n      mstore\n      dup1\n      0x14\n      dup2\n      mstore\n      0x20\n      add\n      0x4d616465203520636f6e747269627574696f6e73000000000000000000000000\n      dup2\n      mstore\n      pop\n      swap2\n      pop\n      pop\n      jump(tag_437)\n        /* \"ChamaGamification.sol\":10465:11544  if (nameHash == keccak256(\"5 Contributions\")) {... */\n    tag_442:\n        /* \"ChamaGamification.sol\":10587:10615  keccak256(\"Chama Completed\") */\n      0x9234ab901ad425023426825f1183636ff74e190a0a0f56dc56c1f4af63fcb961\n        /* \"ChamaGamification.sol\":10575:10583  nameHash */\n      dup2\n        /* \"ChamaGamification.sol\":10575:10615  nameHash == keccak256(\"Chama Completed\") */\n      sub\n        /* \"ChamaGamification.sol\":10571:11544  if (nameHash == keccak256(\"Chama Completed\")) {... */\n      tag_444\n      jumpi\n        /* \"ChamaGamification.sol\":10631:10676  return \"Successfully completed a chama cycle\" */\n      mload(0x40)\n      dup1\n      0x60\n      add\n      0x40\n      mstore\n      dup1\n      0x24\n      dup2\n      mstore\n      0x20\n      add\n      data_3c9ff49101b3ca82183c473c0c0ce55aaa523cbd1b2e65d16676760fc77f0b26\n      0x24\n      swap2\n      codecopy\n      swap2\n      pop\n      pop\n      jump(tag_437)\n        /* \"ChamaGamification.sol\":10571:11544  if (nameHash == keccak256(\"Chama Completed\")) {... */\n    tag_444:\n        /* \"ChamaGamification.sol\":10709:10740  keccak256(\"Perfect Attendance\") */\n      0x2b6467a5de24f89e6a97f6828fefa01af0bf00966dbfb0f3b1e24583b812e6b7\n        /* \"ChamaGamification.sol\":10697:10705  nameHash */\n      dup2\n        /* \"ChamaGamification.sol\":10697:10740  nameHash == keccak256(\"Perfect Attendance\") */\n      sub\n        /* \"ChamaGamification.sol\":10693:11544  if (nameHash == keccak256(\"Perfect Attendance\")) {... */\n      tag_446\n      jumpi\n        /* \"ChamaGamification.sol\":10756:10792  return \"Never missed a contribution\" */\n      mload(0x40)\n      dup1\n      0x40\n      add\n      0x40\n      mstore\n      dup1\n      0x1b\n      dup2\n      mstore\n      0x20\n      add\n      0x4e65766572206d6973736564206120636f6e747269627574696f6e0000000000\n      dup2\n      mstore\n      pop\n      swap2\n      pop\n      pop\n      jump(tag_437)\n        /* \"ChamaGamification.sol\":10693:11544  if (nameHash == keccak256(\"Perfect Attendance\")) {... */\n    tag_446:\n        /* \"ChamaGamification.sol\":10825:10855  keccak256(\"Invited 3 Friends\") */\n      0x17adccfbf6e04b3e995ca25ca6f24d735c9582d0b4df26ea0cadb28c67b20879\n        /* \"ChamaGamification.sol\":10813:10821  nameHash */\n      dup2\n        /* \"ChamaGamification.sol\":10813:10855  nameHash == keccak256(\"Invited 3 Friends\") */\n      sub\n        /* \"ChamaGamification.sol\":10809:11544  if (nameHash == keccak256(\"Invited 3 Friends\")) {... */\n      tag_448\n      jumpi\n        /* \"ChamaGamification.sol\":10871:10905  return \"Invited 3 friends to join\" */\n      mload(0x40)\n      dup1\n      0x40\n      add\n      0x40\n      mstore\n      dup1\n      0x19\n      dup2\n      mstore\n      0x20\n      add\n      0x496e7669746564203320667269656e647320746f206a6f696e00000000000000\n      dup2\n      mstore\n      pop\n      swap2\n      pop\n      pop\n      jump(tag_437)\n        /* \"ChamaGamification.sol\":10809:11544  if (nameHash == keccak256(\"Invited 3 Friends\")) {... */\n    tag_448:\n        /* \"ChamaGamification.sol\":10938:10969  keccak256(\"Invited 10 Friends\") */\n      0xb593de05e1f7c32bdf270b509901a2e646b5ecf28a2b92cf5cc27fd0e5f9b6ef\n        /* \"ChamaGamification.sol\":10926:10934  nameHash */\n      dup2\n        /* \"ChamaGamification.sol\":10926:10969  nameHash == keccak256(\"Invited 10 Friends\") */\n      sub\n        /* \"ChamaGamification.sol\":10922:11544  if (nameHash == keccak256(\"Invited 10 Friends\")) {... */\n      tag_450\n      jumpi\n        /* \"ChamaGamification.sol\":10985:11020  return \"Invited 10 friends to join\" */\n      mload(0x40)\n      dup1\n      0x40\n      add\n      0x40\n      mstore\n      dup1\n      0x1a\n      dup2\n      mstore\n      0x20\n      add\n      0x496e766974656420313020667269656e647320746f206a6f696e000000000000\n      dup2\n      mstore\n      pop\n      swap2\n      pop\n      pop\n      jump(tag_437)\n        /* \"ChamaGamification.sol\":10922:11544  if (nameHash == keccak256(\"Invited 10 Friends\")) {... */\n    tag_450:\n        /* \"ChamaGamification.sol\":11053:11082  keccak256(\"Social Butterfly\") */\n      0xfd145c518a66acb9507bff5117fe28d0f32d8e354ef4985aa9f1b5ee396778ae\n        /* \"ChamaGamification.sol\":11041:11049  nameHash */\n      dup2\n        /* \"ChamaGamification.sol\":11041:11082  nameHash == keccak256(\"Social Butterfly\") */\n      sub\n        /* \"ChamaGamification.sol\":11037:11544  if (nameHash == keccak256(\"Social Butterfly\")) {... */\n      tag_452\n      jumpi\n        /* \"ChamaGamification.sol\":11098:11134  return \"Invited 25+ friends to join\" */\n      mload(0x40)\n      dup1\n      0x40\n      add\n      0x40\n      mstore\n      dup1\n      0x1b\n      dup2\n      mstore\n      0x20\n      add\n      0x496e76697465642032352b20667269656e647320746f206a6f696e0000000000\n      dup2\n      mstore\n      pop\n      swap2\n      pop\n      pop\n      jump(tag_437)\n        /* \"ChamaGamification.sol\":11037:11544  if (nameHash == keccak256(\"Social Butterfly\")) {... */\n    tag_452:\n        /* \"ChamaGamification.sol\":11167:11189  keccak256(\"First P2P\") */\n      0x8f8053b13b1f22f4796b8c42b5f8a18ec27e9aececf5ac25d15f1ab2c6b2cd20\n        /* \"ChamaGamification.sol\":11155:11163  nameHash */\n      dup2\n        /* \"ChamaGamification.sol\":11155:11189  nameHash == keccak256(\"First P2P\") */\n      sub\n        /* \"ChamaGamification.sol\":11151:11544  if (nameHash == keccak256(\"First P2P\")) {... */\n      tag_454\n      jumpi\n        /* \"ChamaGamification.sol\":11205:11242  return \"Sent your first P2P transfer\" */\n      mload(0x40)\n      dup1\n      0x40\n      add\n      0x40\n      mstore\n      dup1\n      0x1c\n      dup2\n      mstore\n      0x20\n      add\n      0x53656e7420796f757220666972737420503250207472616e7366657200000000\n      dup2\n      mstore\n      pop\n      swap2\n      pop\n      pop\n      jump(tag_437)\n        /* \"ChamaGamification.sol\":11151:11544  if (nameHash == keccak256(\"First P2P\")) {... */\n    tag_454:\n        /* \"ChamaGamification.sol\":11275:11308  keccak256(\"Sent 5 Red Envelopes\") */\n      0x39c1a46344cab3eb38f32fbc5c4c705d79d172521355b97cfffddd54a22a691c\n        /* \"ChamaGamification.sol\":11263:11271  nameHash */\n      dup2\n        /* \"ChamaGamification.sol\":11263:11308  nameHash == keccak256(\"Sent 5 Red Envelopes\") */\n      sub\n        /* \"ChamaGamification.sol\":11259:11544  if (nameHash == keccak256(\"Sent 5 Red Envelopes\")) {... */\n      tag_456\n      jumpi\n        /* \"ChamaGamification.sol\":11324:11353  return \"Sent 5 red envelopes\" */\n      mload(0x40)\n      dup1\n      0x40\n      add\n      0x40\n      mstore\n      dup1\n      0x14\n      dup2\n      mstore\n      0x20\n      add\n      0x53656e7420352072656420656e76656c6f706573000000000000000000000000\n      dup2\n      mstore\n      pop\n      swap2\n      pop\n      pop\n      jump(tag_437)\n        /* \"ChamaGamification.sol\":11259:11544  if (nameHash == keccak256(\"Sent 5 Red Envelopes\")) {... */\n    tag_456:\n        /* \"ChamaGamification.sol\":11386:11418  keccak256(\"Red Envelope Master\") */\n      0x037d1d0b8cfccdae8d03f6142b310d063d6721d6892c4e0d6fb105d6a9525c23\n        /* \"ChamaGamification.sol\":11374:11382  nameHash */\n      dup2\n        /* \"ChamaGamification.sol\":11374:11418  nameHash == keccak256(\"Red Envelope Master\") */\n      sub\n        /* \"ChamaGamification.sol\":11370:11544  if (nameHash == keccak256(\"Red Envelope Master\")) {... */\n      tag_458\n      jumpi\n        /* \"ChamaGamification.sol\":11434:11465  return \"Sent 20+ red envelopes\" */\n      mload(0x40)\n      dup1\n      0x40\n      add\n      0x40\n      mstore\n      dup1\n      0x16\n      dup2\n      mstore\n      0x20\n      add\n      0x53656e742032302b2072656420656e76656c6f70657300000000000000000000\n      dup2\n      mstore\n      pop\n      swap2\n      pop\n      pop\n      jump(tag_437)\n        /* \"ChamaGamification.sol\":11370:11544  if (nameHash == keccak256(\"Red Envelope Master\")) {... */\n    tag_458:\n        /* \"ChamaGamification.sol\":11496:11533  return \"Special achievement unlocked\" */\n      mload(0x40)\n      dup1\n      0x40\n      add\n      0x40\n      mstore\n      dup1\n      0x1c\n      dup2\n      mstore\n      0x20\n      add\n      0x5370656369616c20616368696576656d656e7420756e6c6f636b656400000000\n      dup2\n      mstore\n      pop\n      swap2\n      pop\n      pop\n        /* \"ChamaGamification.sol\":10015:11550  function _getAchievementDescription(string memory _achievementName) ... */\n    tag_437:\n      swap2\n      swap1\n      pop\n      jump\t// out\n        /* \"@openzeppelin/contracts/security/Pausable.sol\":1945:2051  function _requirePaused() internal view virtual {... */\n    tag_423:\n        /* \"@openzeppelin/contracts/security/Pausable.sol\":2011:2019  paused() */\n      tag_461\n        /* \"@openzeppelin/contracts/security/Pausable.sol\":2011:2017  paused */\n      tag_118\n        /* \"@openzeppelin/contracts/security/Pausable.sol\":2011:2019  paused() */\n      jump\t// in\n    tag_461:\n        /* \"@openzeppelin/contracts/security/Pausable.sol\":2003:2044  require(paused(), \"Pausable: not paused\") */\n      tag_462\n      jumpi\n      mload(0x40)\n      0x08c379a000000000000000000000000000000000000000000000000000000000\n      dup2\n      mstore\n      0x04\n      add\n      tag_463\n      swap1\n      tag_464\n      jump\t// in\n    tag_463:\n      mload(0x40)\n      dup1\n      swap2\n      sub\n      swap1\n      revert\n    tag_462:\n        /* \"@openzeppelin/contracts/security/Pausable.sol\":1945:2051  function _requirePaused() internal view virtual {... */\n      jump\t// out\n    tag_294:\n      mload(0x40)\n      dup1\n      0xa0\n      add\n      0x40\n      mstore\n      dup1\n      and(0xffffffffffffffffffffffffffffffffffffffff, 0x00)\n      dup2\n      mstore\n      0x20\n      add\n      0x60\n      dup2\n      mstore\n      0x20\n      add\n      0x00\n      dup2\n      mstore\n      0x20\n      add\n      0x00\n      dup2\n      mstore\n      0x20\n      add\n      iszero(iszero(0x00))\n      dup2\n      mstore\n      pop\n      swap1\n      jump\t// out\n        /* \"#utility.yul\":7:82   */\n    tag_465:\n        /* \"#utility.yul\":40:46   */\n      0x00\n        /* \"#utility.yul\":73:75   */\n      0x40\n        /* \"#utility.yul\":67:76   */\n      mload\n        /* \"#utility.yul\":57:76   */\n      swap1\n      pop\n        /* \"#utility.yul\":7:82   */\n      swap1\n      jump\t// out\n        /* \"#utility.yul\":88:205   */\n    tag_466:\n        /* \"#utility.yul\":197:198   */\n      0x00\n        /* \"#utility.yul\":194:195   */\n      0x00\n        /* \"#utility.yul\":187:199   */\n      revert\n        /* \"#utility.yul\":211:328   */\n    tag_467:\n        /* \"#utility.yul\":320:321   */\n      0x00\n        /* \"#utility.yul\":317:318   */\n      0x00\n        /* \"#utility.yul\":310:322   */\n      revert\n        /* \"#utility.yul\":334:451   */\n    tag_468:\n        /* \"#utility.yul\":443:444   */\n      0x00\n        /* \"#utility.yul\":440:441   */\n      0x00\n        /* \"#utility.yul\":433:445   */\n      revert\n        /* \"#utility.yul\":457:574   */\n    tag_469:\n        /* \"#utility.yul\":566:567   */\n      0x00\n        /* \"#utility.yul\":563:564   */\n      0x00\n        /* \"#utility.yul\":556:568   */\n      revert\n        /* \"#utility.yul\":580:682   */\n    tag_470:\n        /* \"#utility.yul\":621:627   */\n      0x00\n        /* \"#utility.yul\":672:674   */\n      0x1f\n        /* \"#utility.yul\":668:675   */\n      not\n        /* \"#utility.yul\":663:665   */\n      0x1f\n        /* \"#utility.yul\":656:661   */\n      dup4\n        /* \"#utility.yul\":652:666   */\n      add\n        /* \"#utility.yul\":648:676   */\n      and\n        /* \"#utility.yul\":638:676   */\n      swap1\n      pop\n        /* \"#utility.yul\":580:682   */\n      swap2\n      swap1\n      pop\n      jump\t// out\n        /* \"#utility.yul\":688:868   */\n    tag_471:\n        /* \"#utility.yul\":736:813   */\n      0x4e487b7100000000000000000000000000000000000000000000000000000000\n        /* \"#utility.yul\":733:734   */\n      0x00\n        /* \"#utility.yul\":726:814   */\n      mstore\n        /* \"#utility.yul\":833:837   */\n      0x41\n        /* \"#utility.yul\":830:831   */\n      0x04\n        /* \"#utility.yul\":823:838   */\n      mstore\n        /* \"#utility.yul\":857:861   */\n      0x24\n        /* \"#utility.yul\":854:855   */\n      0x00\n        /* \"#utility.yul\":847:862   */\n      revert\n        /* \"#utility.yul\":874:1155   */\n    tag_472:\n        /* \"#utility.yul\":957:984   */\n      tag_563\n        /* \"#utility.yul\":979:983   */\n      dup3\n        /* \"#utility.yul\":957:984   */\n      tag_470\n      jump\t// in\n    tag_563:\n        /* \"#utility.yul\":949:955   */\n      dup2\n        /* \"#utility.yul\":945:985   */\n      add\n        /* \"#utility.yul\":1087:1093   */\n      dup2\n        /* \"#utility.yul\":1075:1085   */\n      dup2\n        /* \"#utility.yul\":1072:1094   */\n      lt\n        /* \"#utility.yul\":1051:1069   */\n      0xffffffffffffffff\n        /* \"#utility.yul\":1039:1049   */\n      dup3\n        /* \"#utility.yul\":1036:1070   */\n      gt\n        /* \"#utility.yul\":1033:1095   */\n      or\n        /* \"#utility.yul\":1030:1118   */\n      iszero\n      tag_564\n      jumpi\n        /* \"#utility.yul\":1098:1116   */\n      tag_565\n      tag_471\n      jump\t// in\n    tag_565:\n        /* \"#utility.yul\":1030:1118   */\n    tag_564:\n        /* \"#utility.yul\":1138:1148   */\n      dup1\n        /* \"#utility.yul\":1134:1136   */\n      0x40\n        /* \"#utility.yul\":1127:1149   */\n      mstore\n        /* \"#utility.yul\":917:1155   */\n      pop\n        /* \"#utility.yul\":874:1155   */\n      pop\n      pop\n      jump\t// out\n        /* \"#utility.yul\":1161:1290   */\n    tag_473:\n        /* \"#utility.yul\":1195:1201   */\n      0x00\n        /* \"#utility.yul\":1222:1242   */\n      tag_567\n      tag_465\n      jump\t// in\n    tag_567:\n        /* \"#utility.yul\":1212:1242   */\n      swap1\n      pop\n        /* \"#utility.yul\":1251:1284   */\n      tag_568\n        /* \"#utility.yul\":1279:1283   */\n      dup3\n        /* \"#utility.yul\":1271:1277   */\n      dup3\n        /* \"#utility.yul\":1251:1284   */\n      tag_472\n      jump\t// in\n    tag_568:\n        /* \"#utility.yul\":1161:1290   */\n      swap2\n      swap1\n      pop\n      jump\t// out\n        /* \"#utility.yul\":1296:1604   */\n    tag_474:\n        /* \"#utility.yul\":1358:1362   */\n      0x00\n        /* \"#utility.yul\":1448:1466   */\n      0xffffffffffffffff\n        /* \"#utility.yul\":1440:1446   */\n      dup3\n        /* \"#utility.yul\":1437:1467   */\n      gt\n        /* \"#utility.yul\":1434:1490   */\n      iszero\n      tag_570\n      jumpi\n        /* \"#utility.yul\":1470:1488   */\n      tag_571\n      tag_471\n      jump\t// in\n    tag_571:\n        /* \"#utility.yul\":1434:1490   */\n    tag_570:\n        /* \"#utility.yul\":1508:1537   */\n      tag_572\n        /* \"#utility.yul\":1530:1536   */\n      dup3\n        /* \"#utility.yul\":1508:1537   */\n      tag_470\n      jump\t// in\n    tag_572:\n        /* \"#utility.yul\":1500:1537   */\n      swap1\n      pop\n        /* \"#utility.yul\":1592:1596   */\n      0x20\n        /* \"#utility.yul\":1586:1590   */\n      dup2\n        /* \"#utility.yul\":1582:1597   */\n      add\n        /* \"#utility.yul\":1574:1597   */\n      swap1\n      pop\n        /* \"#utility.yul\":1296:1604   */\n      swap2\n      swap1\n      pop\n      jump\t// out\n        /* \"#utility.yul\":1610:1758   */\n    tag_475:\n        /* \"#utility.yul\":1708:1714   */\n      dup3\n        /* \"#utility.yul\":1703:1706   */\n      dup2\n        /* \"#utility.yul\":1698:1701   */\n      dup4\n        /* \"#utility.yul\":1685:1715   */\n      calldatacopy\n        /* \"#utility.yul\":1749:1750   */\n      0x00\n        /* \"#utility.yul\":1740:1746   */\n      dup4\n        /* \"#utility.yul\":1735:1738   */\n      dup4\n        /* \"#utility.yul\":1731:1747   */\n      add\n        /* \"#utility.yul\":1724:1751   */\n      mstore\n        /* \"#utility.yul\":1610:1758   */\n      pop\n      pop\n      pop\n      jump\t// out\n        /* \"#utility.yul\":1764:2189   */\n    tag_476:\n        /* \"#utility.yul\":1842:1847   */\n      0x00\n        /* \"#utility.yul\":1867:1933   */\n      tag_575\n        /* \"#utility.yul\":1883:1932   */\n      tag_576\n        /* \"#utility.yul\":1925:1931   */\n      dup5\n        /* \"#utility.yul\":1883:1932   */\n      tag_474\n      jump\t// in\n    tag_576:\n        /* \"#utility.yul\":1867:1933   */\n      tag_473\n      jump\t// in\n    tag_575:\n        /* \"#utility.yul\":1858:1933   */\n      swap1\n      pop\n        /* \"#utility.yul\":1956:1962   */\n      dup3\n        /* \"#utility.yul\":1949:1954   */\n      dup2\n        /* \"#utility.yul\":1942:1963   */\n      mstore\n        /* \"#utility.yul\":1994:1998   */\n      0x20\n        /* \"#utility.yul\":1987:1992   */\n      dup2\n        /* \"#utility.yul\":1983:1999   */\n      add\n        /* \"#utility.yul\":2032:2035   */\n      dup5\n        /* \"#utility.yul\":2023:2029   */\n      dup5\n        /* \"#utility.yul\":2018:2021   */\n      dup5\n        /* \"#utility.yul\":2014:2030   */\n      add\n        /* \"#utility.yul\":2011:2036   */\n      gt\n        /* \"#utility.yul\":2008:2120   */\n      iszero\n      tag_577\n      jumpi\n        /* \"#utility.yul\":2039:2118   */\n      tag_578\n      tag_469\n      jump\t// in\n    tag_578:\n        /* \"#utility.yul\":2008:2120   */\n    tag_577:\n        /* \"#utility.yul\":2129:2183   */\n      tag_579\n        /* \"#utility.yul\":2176:2182   */\n      dup5\n        /* \"#utility.yul\":2171:2174   */\n      dup3\n        /* \"#utility.yul\":2166:2169   */\n      dup6\n        /* \"#utility.yul\":2129:2183   */\n      tag_475\n      jump\t// in\n    tag_579:\n        /* \"#utility.yul\":1848:2189   */\n      pop\n        /* \"#utility.yul\":1764:2189   */\n      swap4\n      swap3\n      pop\n      pop\n      pop\n      jump\t// out\n        /* \"#utility.yul\":2209:2549   */\n    tag_477:\n        /* \"#utility.yul\":2265:2270   */\n      0x00\n        /* \"#utility.yul\":2314:2317   */\n      dup3\n        /* \"#utility.yul\":2307:2311   */\n      0x1f\n        /* \"#utility.yul\":2299:2305   */\n      dup4\n        /* \"#utility.yul\":2295:2312   */\n      add\n        /* \"#utility.yul\":2291:2318   */\n      slt\n        /* \"#utility.yul\":2281:2403   */\n      tag_581\n      jumpi\n        /* \"#utility.yul\":2322:2401   */\n      tag_582\n      tag_468\n      jump\t// in\n    tag_582:\n        /* \"#utility.yul\":2281:2403   */\n    tag_581:\n        /* \"#utility.yul\":2439:2445   */\n      dup2\n        /* \"#utility.yul\":2426:2446   */\n      calldataload\n        /* \"#utility.yul\":2464:2543   */\n      tag_583\n        /* \"#utility.yul\":2539:2542   */\n      dup5\n        /* \"#utility.yul\":2531:2537   */\n      dup3\n        /* \"#utility.yul\":2524:2528   */\n      0x20\n        /* \"#utility.yul\":2516:2522   */\n      dup7\n        /* \"#utility.yul\":2512:2529   */\n      add\n        /* \"#utility.yul\":2464:2543   */\n      tag_476\n      jump\t// in\n    tag_583:\n        /* \"#utility.yul\":2455:2543   */\n      swap2\n      pop\n        /* \"#utility.yul\":2271:2549   */\n      pop\n        /* \"#utility.yul\":2209:2549   */\n      swap3\n      swap2\n      pop\n      pop\n      jump\t// out\n        /* \"#utility.yul\":2555:3064   */\n    tag_52:\n        /* \"#utility.yul\":2624:2630   */\n      0x00\n        /* \"#utility.yul\":2673:2675   */\n      0x20\n        /* \"#utility.yul\":2661:2670   */\n      dup3\n        /* \"#utility.yul\":2652:2659   */\n      dup5\n        /* \"#utility.yul\":2648:2671   */\n      sub\n        /* \"#utility.yul\":2644:2676   */\n      slt\n        /* \"#utility.yul\":2641:2760   */\n      iszero\n      tag_585\n      jumpi\n        /* \"#utility.yul\":2679:2758   */\n      tag_586\n      tag_466\n      jump\t// in\n    tag_586:\n        /* \"#utility.yul\":2641:2760   */\n    tag_585:\n        /* \"#utility.yul\":2827:2828   */\n      0x00\n        /* \"#utility.yul\":2816:2825   */\n      dup3\n        /* \"#utility.yul\":2812:2829   */\n      add\n        /* \"#utility.yul\":2799:2830   */\n      calldataload\n        /* \"#utility.yul\":2857:2875   */\n      0xffffffffffffffff\n        /* \"#utility.yul\":2849:2855   */\n      dup2\n        /* \"#utility.yul\":2846:2876   */\n      gt\n        /* \"#utility.yul\":2843:2960   */\n      iszero\n      tag_587\n      jumpi\n        /* \"#utility.yul\":2879:2958   */\n      tag_588\n      tag_467\n      jump\t// in\n    tag_588:\n        /* \"#utility.yul\":2843:2960   */\n    tag_587:\n        /* \"#utility.yul\":2984:3047   */\n      tag_589\n        /* \"#utility.yul\":3039:3046   */\n      dup5\n        /* \"#utility.yul\":3030:3036   */\n      dup3\n        /* \"#utility.yul\":3019:3028   */\n      dup6\n        /* \"#utility.yul\":3015:3037   */\n      add\n        /* \"#utility.yul\":2984:3047   */\n      tag_477\n      jump\t// in\n    tag_589:\n        /* \"#utility.yul\":2974:3047   */\n      swap2\n      pop\n        /* \"#utility.yul\":2770:3057   */\n      pop\n        /* \"#utility.yul\":2555:3064   */\n      swap3\n      swap2\n      pop\n      pop\n      jump\t// out\n        /* \"#utility.yul\":3070:3219   */\n    tag_478:\n        /* \"#utility.yul\":3106:3113   */\n      0x00\n        /* \"#utility.yul\":3146:3212   */\n      0xffffffff00000000000000000000000000000000000000000000000000000000\n        /* \"#utility.yul\":3139:3144   */\n      dup3\n        /* \"#utility.yul\":3135:3213   */\n      and\n        /* \"#utility.yul\":3124:3213   */\n      swap1\n      pop\n        /* \"#utility.yul\":3070:3219   */\n      swap2\n      swap1\n      pop\n      jump\t// out\n        /* \"#utility.yul\":3225:3345   */\n    tag_479:\n        /* \"#utility.yul\":3297:3320   */\n      tag_592\n        /* \"#utility.yul\":3314:3319   */\n      dup2\n        /* \"#utility.yul\":3297:3320   */\n      tag_478\n      jump\t// in\n    tag_592:\n        /* \"#utility.yul\":3290:3295   */\n      dup2\n        /* \"#utility.yul\":3287:3321   */\n      eq\n        /* \"#utility.yul\":3277:3339   */\n      tag_593\n      jumpi\n        /* \"#utility.yul\":3335:3336   */\n      0x00\n        /* \"#utility.yul\":3332:3333   */\n      0x00\n        /* \"#utility.yul\":3325:3337   */\n      revert\n        /* \"#utility.yul\":3277:3339   */\n    tag_593:\n        /* \"#utility.yul\":3225:3345   */\n      pop\n      jump\t// out\n        /* \"#utility.yul\":3351:3488   */\n    tag_480:\n        /* \"#utility.yul\":3396:3401   */\n      0x00\n        /* \"#utility.yul\":3434:3440   */\n      dup2\n        /* \"#utility.yul\":3421:3441   */\n      calldataload\n        /* \"#utility.yul\":3412:3441   */\n      swap1\n      pop\n        /* \"#utility.yul\":3450:3482   */\n      tag_595\n        /* \"#utility.yul\":3476:3481   */\n      dup2\n        /* \"#utility.yul\":3450:3482   */\n      tag_479\n      jump\t// in\n    tag_595:\n        /* \"#utility.yul\":3351:3488   */\n      swap3\n      swap2\n      pop\n      pop\n      jump\t// out\n        /* \"#utility.yul\":3494:3821   */\n    tag_56:\n        /* \"#utility.yul\":3552:3558   */\n      0x00\n        /* \"#utility.yul\":3601:3603   */\n      0x20\n        /* \"#utility.yul\":3589:3598   */\n      dup3\n        /* \"#utility.yul\":3580:3587   */\n      dup5\n        /* \"#utility.yul\":3576:3599   */\n      sub\n        /* \"#utility.yul\":3572:3604   */\n      slt\n        /* \"#utility.yul\":3569:3688   */\n      iszero\n      tag_597\n      jumpi\n        /* \"#utility.yul\":3607:3686   */\n      tag_598\n      tag_466\n      jump\t// in\n    tag_598:\n        /* \"#utility.yul\":3569:3688   */\n    tag_597:\n        /* \"#utility.yul\":3727:3728   */\n      0x00\n        /* \"#utility.yul\":3752:3804   */\n      tag_599\n        /* \"#utility.yul\":3796:3803   */\n      dup5\n        /* \"#utility.yul\":3787:3793   */\n      dup3\n        /* \"#utility.yul\":3776:3785   */\n      dup6\n        /* \"#utility.yul\":3772:3794   */\n      add\n        /* \"#utility.yul\":3752:3804   */\n      tag_480\n      jump\t// in\n    tag_599:\n        /* \"#utility.yul\":3742:3804   */\n      swap2\n      pop\n        /* \"#utility.yul\":3698:3814   */\n      pop\n        /* \"#utility.yul\":3494:3821   */\n      swap3\n      swap2\n      pop\n      pop\n      jump\t// out\n        /* \"#utility.yul\":3827:3917   */\n    tag_481:\n        /* \"#utility.yul\":3861:3868   */\n      0x00\n        /* \"#utility.yul\":3904:3909   */\n      dup2\n        /* \"#utility.yul\":3897:3910   */\n      iszero\n        /* \"#utility.yul\":3890:3911   */\n      iszero\n        /* \"#utility.yul\":3879:3911   */\n      swap1\n      pop\n        /* \"#utility.yul\":3827:3917   */\n      swap2\n      swap1\n      pop\n      jump\t// out\n        /* \"#utility.yul\":3923:4032   */\n    tag_482:\n        /* \"#utility.yul\":4004:4025   */\n      tag_602\n        /* \"#utility.yul\":4019:4024   */\n      dup2\n        /* \"#utility.yul\":4004:4025   */\n      tag_481\n      jump\t// in\n    tag_602:\n        /* \"#utility.yul\":3999:4002   */\n      dup3\n        /* \"#utility.yul\":3992:4026   */\n      mstore\n        /* \"#utility.yul\":3923:4032   */\n      pop\n      pop\n      jump\t// out\n        /* \"#utility.yul\":4038:4248   */\n    tag_59:\n        /* \"#utility.yul\":4125:4129   */\n      0x00\n        /* \"#utility.yul\":4163:4165   */\n      0x20\n        /* \"#utility.yul\":4152:4161   */\n      dup3\n        /* \"#utility.yul\":4148:4166   */\n      add\n        /* \"#utility.yul\":4140:4166   */\n      swap1\n      pop\n        /* \"#utility.yul\":4176:4241   */\n      tag_604\n        /* \"#utility.yul\":4238:4239   */\n      0x00\n        /* \"#utility.yul\":4227:4236   */\n      dup4\n        /* \"#utility.yul\":4223:4240   */\n      add\n        /* \"#utility.yul\":4214:4220   */\n      dup5\n        /* \"#utility.yul\":4176:4241   */\n      tag_482\n      jump\t// in\n    tag_604:\n        /* \"#utility.yul\":4038:4248   */\n      swap3\n      swap2\n      pop\n      pop\n      jump\t// out\n        /* \"#utility.yul\":4254:4331   */\n    tag_483:\n        /* \"#utility.yul\":4291:4298   */\n      0x00\n        /* \"#utility.yul\":4320:4325   */\n      dup2\n        /* \"#utility.yul\":4309:4325   */\n      swap1\n      pop\n        /* \"#utility.yul\":4254:4331   */\n      swap2\n      swap1\n      pop\n      jump\t// out\n        /* \"#utility.yul\":4337:4459   */\n    tag_484:\n        /* \"#utility.yul\":4410:4434   */\n      tag_607\n        /* \"#utility.yul\":4428:4433   */\n      dup2\n        /* \"#utility.yul\":4410:4434   */\n      tag_483\n      jump\t// in\n    tag_607:\n        /* \"#utility.yul\":4403:4408   */\n      dup2\n        /* \"#utility.yul\":4400:4435   */\n      eq\n        /* \"#utility.yul\":4390:4453   */\n      tag_608\n      jumpi\n        /* \"#utility.yul\":4449:4450   */\n      0x00\n        /* \"#utility.yul\":4446:4447   */\n      0x00\n        /* \"#utility.yul\":4439:4451   */\n      revert\n        /* \"#utility.yul\":4390:4453   */\n    tag_608:\n        /* \"#utility.yul\":4337:4459   */\n      pop\n      jump\t// out\n        /* \"#utility.yul\":4465:4604   */\n    tag_485:\n        /* \"#utility.yul\":4511:4516   */\n      0x00\n        /* \"#utility.yul\":4549:4555   */\n      dup2\n        /* \"#utility.yul\":4536:4556   */\n      calldataload\n        /* \"#utility.yul\":4527:4556   */\n      swap1\n      pop\n        /* \"#utility.yul\":4565:4598   */\n      tag_610\n        /* \"#utility.yul\":4592:4597   */\n      dup2\n        /* \"#utility.yul\":4565:4598   */\n      tag_484\n      jump\t// in\n    tag_610:\n        /* \"#utility.yul\":4465:4604   */\n      swap3\n      swap2\n      pop\n      pop\n      jump\t// out\n        /* \"#utility.yul\":4610:5264   */\n    tag_62:\n        /* \"#utility.yul\":4688:4694   */\n      0x00\n        /* \"#utility.yul\":4696:4702   */\n      0x00\n        /* \"#utility.yul\":4745:4747   */\n      0x40\n        /* \"#utility.yul\":4733:4742   */\n      dup4\n        /* \"#utility.yul\":4724:4731   */\n      dup6\n        /* \"#utility.yul\":4720:4743   */\n      sub\n        /* \"#utility.yul\":4716:4748   */\n      slt\n        /* \"#utility.yul\":4713:4832   */\n      iszero\n      tag_612\n      jumpi\n        /* \"#utility.yul\":4751:4830   */\n      tag_613\n      tag_466\n      jump\t// in\n    tag_613:\n        /* \"#utility.yul\":4713:4832   */\n    tag_612:\n        /* \"#utility.yul\":4899:4900   */\n      0x00\n        /* \"#utility.yul\":4888:4897   */\n      dup4\n        /* \"#utility.yul\":4884:4901   */\n      add\n        /* \"#utility.yul\":4871:4902   */\n      calldataload\n        /* \"#utility.yul\":4929:4947   */\n      0xffffffffffffffff\n        /* \"#utility.yul\":4921:4927   */\n      dup2\n        /* \"#utility.yul\":4918:4948   */\n      gt\n        /* \"#utility.yul\":4915:5032   */\n      iszero\n      tag_614\n      jumpi\n        /* \"#utility.yul\":4951:5030   */\n      tag_615\n      tag_467\n      jump\t// in\n    tag_615:\n        /* \"#utility.yul\":4915:5032   */\n    tag_614:\n        /* \"#utility.yul\":5056:5119   */\n      tag_616\n        /* \"#utility.yul\":5111:5118   */\n      dup6\n        /* \"#utility.yul\":5102:5108   */\n      dup3\n        /* \"#utility.yul\":5091:5100   */\n      dup7\n        /* \"#utility.yul\":5087:5109   */\n      add\n        /* \"#utility.yul\":5056:5119   */\n      tag_477\n      jump\t// in\n    tag_616:\n        /* \"#utility.yul\":5046:5119   */\n      swap3\n      pop\n        /* \"#utility.yul\":4842:5129   */\n      pop\n        /* \"#utility.yul\":5168:5170   */\n      0x20\n        /* \"#utility.yul\":5194:5247   */\n      tag_617\n        /* \"#utility.yul\":5239:5246   */\n      dup6\n        /* \"#utility.yul\":5230:5236   */\n      dup3\n        /* \"#utility.yul\":5219:5228   */\n      dup7\n        /* \"#utility.yul\":5215:5237   */\n      add\n        /* \"#utility.yul\":5194:5247   */\n      tag_485\n      jump\t// in\n    tag_617:\n        /* \"#utility.yul\":5184:5247   */\n      swap2\n      pop\n        /* \"#utility.yul\":5139:5257   */\n      pop\n        /* \"#utility.yul\":4610:5264   */\n      swap3\n      pop\n      swap3\n      swap1\n      pop\n      jump\t// out\n        /* \"#utility.yul\":5270:5396   */\n    tag_486:\n        /* \"#utility.yul\":5307:5314   */\n      0x00\n        /* \"#utility.yul\":5347:5389   */\n      0xffffffffffffffffffffffffffffffffffffffff\n        /* \"#utility.yul\":5340:5345   */\n      dup3\n        /* \"#utility.yul\":5336:5390   */\n      and\n        /* \"#utility.yul\":5325:5390   */\n      swap1\n      pop\n        /* \"#utility.yul\":5270:5396   */\n      swap2\n      swap1\n      pop\n      jump\t// out\n        /* \"#utility.yul\":5402:5498   */\n    tag_487:\n        /* \"#utility.yul\":5439:5446   */\n      0x00\n        /* \"#utility.yul\":5468:5492   */\n      tag_620\n        /* \"#utility.yul\":5486:5491   */\n      dup3\n        /* \"#utility.yul\":5468:5492   */\n      tag_486\n      jump\t// in\n    tag_620:\n        /* \"#utility.yul\":5457:5492   */\n      swap1\n      pop\n        /* \"#utility.yul\":5402:5498   */\n      swap2\n      swap1\n      pop\n      jump\t// out\n        /* \"#utility.yul\":5504:5626   */\n    tag_488:\n        /* \"#utility.yul\":5577:5601   */\n      tag_622\n        /* \"#utility.yul\":5595:5600   */\n      dup2\n        /* \"#utility.yul\":5577:5601   */\n      tag_487\n      jump\t// in\n    tag_622:\n        /* \"#utility.yul\":5570:5575   */\n      dup2\n        /* \"#utility.yul\":5567:5602   */\n      eq\n        /* \"#utility.yul\":5557:5620   */\n      tag_623\n      jumpi\n        /* \"#utility.yul\":5616:5617   */\n      0x00\n        /* \"#utility.yul\":5613:5614   */\n      0x00\n        /* \"#utility.yul\":5606:5618   */\n      revert\n        /* \"#utility.yul\":5557:5620   */\n    tag_623:\n        /* \"#utility.yul\":5504:5626   */\n      pop\n      jump\t// out\n        /* \"#utility.yul\":5632:5771   */\n    tag_489:\n        /* \"#utility.yul\":5678:5683   */\n      0x00\n        /* \"#utility.yul\":5716:5722   */\n      dup2\n        /* \"#utility.yul\":5703:5723   */\n      calldataload\n        /* \"#utility.yul\":5694:5723   */\n      swap1\n      pop\n        /* \"#utility.yul\":5732:5765   */\n      tag_625\n        /* \"#utility.yul\":5759:5764   */\n      dup2\n        /* \"#utility.yul\":5732:5765   */\n      tag_488\n      jump\t// in\n    tag_625:\n        /* \"#utility.yul\":5632:5771   */\n      swap3\n      swap2\n      pop\n      pop\n      jump\t// out\n        /* \"#utility.yul\":5777:6431   */\n    tag_70:\n        /* \"#utility.yul\":5855:5861   */\n      0x00\n        /* \"#utility.yul\":5863:5869   */\n      0x00\n        /* \"#utility.yul\":5912:5914   */\n      0x40\n        /* \"#utility.yul\":5900:5909   */\n      dup4\n        /* \"#utility.yul\":5891:5898   */\n      dup6\n        /* \"#utility.yul\":5887:5910   */\n      sub\n        /* \"#utility.yul\":5883:5915   */\n      slt\n        /* \"#utility.yul\":5880:5999   */\n      iszero\n      tag_627\n      jumpi\n        /* \"#utility.yul\":5918:5997   */\n      tag_628\n      tag_466\n      jump\t// in\n    tag_628:\n        /* \"#utility.yul\":5880:5999   */\n    tag_627:\n        /* \"#utility.yul\":6038:6039   */\n      0x00\n        /* \"#utility.yul\":6063:6116   */\n      tag_629\n        /* \"#utility.yul\":6108:6115   */\n      dup6\n        /* \"#utility.yul\":6099:6105   */\n      dup3\n        /* \"#utility.yul\":6088:6097   */\n      dup7\n        /* \"#utility.yul\":6084:6106   */\n      add\n        /* \"#utility.yul\":6063:6116   */\n      tag_489\n      jump\t// in\n    tag_629:\n        /* \"#utility.yul\":6053:6116   */\n      swap3\n      pop\n        /* \"#utility.yul\":6009:6126   */\n      pop\n        /* \"#utility.yul\":6193:6195   */\n      0x20\n        /* \"#utility.yul\":6182:6191   */\n      dup4\n        /* \"#utility.yul\":6178:6196   */\n      add\n        /* \"#utility.yul\":6165:6197   */\n      calldataload\n        /* \"#utility.yul\":6224:6242   */\n      0xffffffffffffffff\n        /* \"#utility.yul\":6216:6222   */\n      dup2\n        /* \"#utility.yul\":6213:6243   */\n      gt\n        /* \"#utility.yul\":6210:6327   */\n      iszero\n      tag_630\n      jumpi\n        /* \"#utility.yul\":6246:6325   */\n      tag_631\n      tag_467\n      jump\t// in\n    tag_631:\n        /* \"#utility.yul\":6210:6327   */\n    tag_630:\n        /* \"#utility.yul\":6351:6414   */\n      tag_632\n        /* \"#utility.yul\":6406:6413   */\n      dup6\n        /* \"#utility.yul\":6397:6403   */\n      dup3\n        /* \"#utility.yul\":6386:6395   */\n      dup7\n        /* \"#utility.yul\":6382:6404   */\n      add\n        /* \"#utility.yul\":6351:6414   */\n      tag_477\n      jump\t// in\n    tag_632:\n        /* \"#utility.yul\":6341:6414   */\n      swap2\n      pop\n        /* \"#utility.yul\":6136:6424   */\n      pop\n        /* \"#utility.yul\":5777:6431   */\n      swap3\n      pop\n      swap3\n      swap1\n      pop\n      jump\t// out\n        /* \"#utility.yul\":6437:6514   */\n    tag_490:\n        /* \"#utility.yul\":6474:6481   */\n      0x00\n        /* \"#utility.yul\":6503:6508   */\n      dup2\n        /* \"#utility.yul\":6492:6508   */\n      swap1\n      pop\n        /* \"#utility.yul\":6437:6514   */\n      swap2\n      swap1\n      pop\n      jump\t// out\n        /* \"#utility.yul\":6520:6642   */\n    tag_491:\n        /* \"#utility.yul\":6593:6617   */\n      tag_635\n        /* \"#utility.yul\":6611:6616   */\n      dup2\n        /* \"#utility.yul\":6593:6617   */\n      tag_490\n      jump\t// in\n    tag_635:\n        /* \"#utility.yul\":6586:6591   */\n      dup2\n        /* \"#utility.yul\":6583:6618   */\n      eq\n        /* \"#utility.yul\":6573:6636   */\n      tag_636\n      jumpi\n        /* \"#utility.yul\":6632:6633   */\n      0x00\n        /* \"#utility.yul\":6629:6630   */\n      0x00\n        /* \"#utility.yul\":6622:6634   */\n      revert\n        /* \"#utility.yul\":6573:6636   */\n    tag_636:\n        /* \"#utility.yul\":6520:6642   */\n      pop\n      jump\t// out\n        /* \"#utility.yul\":6648:6787   */\n    tag_492:\n        /* \"#utility.yul\":6694:6699   */\n      0x00\n        /* \"#utility.yul\":6732:6738   */\n      dup2\n        /* \"#utility.yul\":6719:6739   */\n      calldataload\n        /* \"#utility.yul\":6710:6739   */\n      swap1\n      pop\n        /* \"#utility.yul\":6748:6781   */\n      tag_638\n        /* \"#utility.yul\":6775:6780   */\n      dup2\n        /* \"#utility.yul\":6748:6781   */\n      tag_491\n      jump\t// in\n    tag_638:\n        /* \"#utility.yul\":6648:6787   */\n      swap3\n      swap2\n      pop\n      pop\n      jump\t// out\n        /* \"#utility.yul\":6793:7122   */\n    tag_74:\n        /* \"#utility.yul\":6852:6858   */\n      0x00\n        /* \"#utility.yul\":6901:6903   */\n      0x20\n        /* \"#utility.yul\":6889:6898   */\n      dup3\n        /* \"#utility.yul\":6880:6887   */\n      dup5\n        /* \"#utility.yul\":6876:6899   */\n      sub\n        /* \"#utility.yul\":6872:6904   */\n      slt\n        /* \"#utility.yul\":6869:6988   */\n      iszero\n      tag_640\n      jumpi\n        /* \"#utility.yul\":6907:6986   */\n      tag_641\n      tag_466\n      jump\t// in\n    tag_641:\n        /* \"#utility.yul\":6869:6988   */\n    tag_640:\n        /* \"#utility.yul\":7027:7028   */\n      0x00\n        /* \"#utility.yul\":7052:7105   */\n      tag_642\n        /* \"#utility.yul\":7097:7104   */\n      dup5\n        /* \"#utility.yul\":7088:7094   */\n      dup3\n        /* \"#utility.yul\":7077:7086   */\n      dup6\n        /* \"#utility.yul\":7073:7095   */\n      add\n        /* \"#utility.yul\":7052:7105   */\n      tag_492\n      jump\t// in\n    tag_642:\n        /* \"#utility.yul\":7042:7105   */\n      swap2\n      pop\n        /* \"#utility.yul\":6998:7115   */\n      pop\n        /* \"#utility.yul\":6793:7122   */\n      swap3\n      swap2\n      pop\n      pop\n      jump\t// out\n        /* \"#utility.yul\":7128:7246   */\n    tag_493:\n        /* \"#utility.yul\":7215:7239   */\n      tag_644\n        /* \"#utility.yul\":7233:7238   */\n      dup2\n        /* \"#utility.yul\":7215:7239   */\n      tag_490\n      jump\t// in\n    tag_644:\n        /* \"#utility.yul\":7210:7213   */\n      dup3\n        /* \"#utility.yul\":7203:7240   */\n      mstore\n        /* \"#utility.yul\":7128:7246   */\n      pop\n      pop\n      jump\t// out\n        /* \"#utility.yul\":7252:7474   */\n    tag_77:\n        /* \"#utility.yul\":7345:7349   */\n      0x00\n        /* \"#utility.yul\":7383:7385   */\n      0x20\n        /* \"#utility.yul\":7372:7381   */\n      dup3\n        /* \"#utility.yul\":7368:7386   */\n      add\n        /* \"#utility.yul\":7360:7386   */\n      swap1\n      pop\n        /* \"#utility.yul\":7396:7467   */\n      tag_646\n        /* \"#utility.yul\":7464:7465   */\n      0x00\n        /* \"#utility.yul\":7453:7462   */\n      dup4\n        /* \"#utility.yul\":7449:7466   */\n      add\n        /* \"#utility.yul\":7440:7446   */\n      dup5\n        /* \"#utility.yul\":7396:7467   */\n      tag_493\n      jump\t// in\n    tag_646:\n        /* \"#utility.yul\":7252:7474   */\n      swap3\n      swap2\n      pop\n      pop\n      jump\t// out\n        /* \"#utility.yul\":7480:7809   */\n    tag_80:\n        /* \"#utility.yul\":7539:7545   */\n      0x00\n        /* \"#utility.yul\":7588:7590   */\n      0x20\n        /* \"#utility.yul\":7576:7585   */\n      dup3\n        /* \"#utility.yul\":7567:7574   */\n      dup5\n        /* \"#utility.yul\":7563:7586   */\n      sub\n        /* \"#utility.yul\":7559:7591   */\n      slt\n        /* \"#utility.yul\":7556:7675   */\n      iszero\n      tag_648\n      jumpi\n        /* \"#utility.yul\":7594:7673   */\n      tag_649\n      tag_466\n      jump\t// in\n    tag_649:\n        /* \"#utility.yul\":7556:7675   */\n    tag_648:\n        /* \"#utility.yul\":7714:7715   */\n      0x00\n        /* \"#utility.yul\":7739:7792   */\n      tag_650\n        /* \"#utility.yul\":7784:7791   */\n      dup5\n        /* \"#utility.yul\":7775:7781   */\n      dup3\n        /* \"#utility.yul\":7764:7773   */\n      dup6\n        /* \"#utility.yul\":7760:7782   */\n      add\n        /* \"#utility.yul\":7739:7792   */\n      tag_489\n      jump\t// in\n    tag_650:\n        /* \"#utility.yul\":7729:7792   */\n      swap2\n      pop\n        /* \"#utility.yul\":7685:7802   */\n      pop\n        /* \"#utility.yul\":7480:7809   */\n      swap3\n      swap2\n      pop\n      pop\n      jump\t// out\n        /* \"#utility.yul\":7815:7933   */\n    tag_494:\n        /* \"#utility.yul\":7902:7926   */\n      tag_652\n        /* \"#utility.yul\":7920:7925   */\n      dup2\n        /* \"#utility.yul\":7902:7926   */\n      tag_483\n      jump\t// in\n    tag_652:\n        /* \"#utility.yul\":7897:7900   */\n      dup3\n        /* \"#utility.yul\":7890:7927   */\n      mstore\n        /* \"#utility.yul\":7815:7933   */\n      pop\n      pop\n      jump\t// out\n        /* \"#utility.yul\":7939:8161   */\n    tag_83:\n        /* \"#utility.yul\":8032:8036   */\n      0x00\n        /* \"#utility.yul\":8070:8072   */\n      0x20\n        /* \"#utility.yul\":8059:8068   */\n      dup3\n        /* \"#utility.yul\":8055:8073   */\n      add\n        /* \"#utility.yul\":8047:8073   */\n      swap1\n      pop\n        /* \"#utility.yul\":8083:8154   */\n      tag_654\n        /* \"#utility.yul\":8151:8152   */\n      0x00\n        /* \"#utility.yul\":8140:8149   */\n      dup4\n        /* \"#utility.yul\":8136:8153   */\n      add\n        /* \"#utility.yul\":8127:8133   */\n      dup5\n        /* \"#utility.yul\":8083:8154   */\n      tag_494\n      jump\t// in\n    tag_654:\n        /* \"#utility.yul\":7939:8161   */\n      swap3\n      swap2\n      pop\n      pop\n      jump\t// out\n        /* \"#utility.yul\":8167:8641   */\n    tag_90:\n        /* \"#utility.yul\":8235:8241   */\n      0x00\n        /* \"#utility.yul\":8243:8249   */\n      0x00\n        /* \"#utility.yul\":8292:8294   */\n      0x40\n        /* \"#utility.yul\":8280:8289   */\n      dup4\n        /* \"#utility.yul\":8271:8278   */\n      dup6\n        /* \"#utility.yul\":8267:8290   */\n      sub\n        /* \"#utility.yul\":8263:8295   */\n      slt\n        /* \"#utility.yul\":8260:8379   */\n      iszero\n      tag_656\n      jumpi\n        /* \"#utility.yul\":8298:8377   */\n      tag_657\n      tag_466\n      jump\t// in\n    tag_657:\n        /* \"#utility.yul\":8260:8379   */\n    tag_656:\n        /* \"#utility.yul\":8418:8419   */\n      0x00\n        /* \"#utility.yul\":8443:8496   */\n      tag_658\n        /* \"#utility.yul\":8488:8495   */\n      dup6\n        /* \"#utility.yul\":8479:8485   */\n      dup3\n        /* \"#utility.yul\":8468:8477   */\n      dup7\n        /* \"#utility.yul\":8464:8486   */\n      add\n        /* \"#utility.yul\":8443:8496   */\n      tag_492\n      jump\t// in\n    tag_658:\n        /* \"#utility.yul\":8433:8496   */\n      swap3\n      pop\n        /* \"#utility.yul\":8389:8506   */\n      pop\n        /* \"#utility.yul\":8545:8547   */\n      0x20\n        /* \"#utility.yul\":8571:8624   */\n      tag_659\n        /* \"#utility.yul\":8616:8623   */\n      dup6\n        /* \"#utility.yul\":8607:8613   */\n      dup3\n        /* \"#utility.yul\":8596:8605   */\n      dup7\n        /* \"#utility.yul\":8592:8614   */\n      add\n        /* \"#utility.yul\":8571:8624   */\n      tag_489\n      jump\t// in\n    tag_659:\n        /* \"#utility.yul\":8561:8624   */\n      swap2\n      pop\n        /* \"#utility.yul\":8516:8634   */\n      pop\n        /* \"#utility.yul\":8167:8641   */\n      swap3\n      pop\n      swap3\n      swap1\n      pop\n      jump\t// out\n        /* \"#utility.yul\":8647:8761   */\n    tag_495:\n        /* \"#utility.yul\":8714:8720   */\n      0x00\n        /* \"#utility.yul\":8748:8753   */\n      dup2\n        /* \"#utility.yul\":8742:8754   */\n      mload\n        /* \"#utility.yul\":8732:8754   */\n      swap1\n      pop\n        /* \"#utility.yul\":8647:8761   */\n      swap2\n      swap1\n      pop\n      jump\t// out\n        /* \"#utility.yul\":8767:8951   */\n    tag_496:\n        /* \"#utility.yul\":8866:8877   */\n      0x00\n        /* \"#utility.yul\":8900:8906   */\n      dup3\n        /* \"#utility.yul\":8895:8898   */\n      dup3\n        /* \"#utility.yul\":8888:8907   */\n      mstore\n        /* \"#utility.yul\":8940:8944   */\n      0x20\n        /* \"#utility.yul\":8935:8938   */\n      dup3\n        /* \"#utility.yul\":8931:8945   */\n      add\n        /* \"#utility.yul\":8916:8945   */\n      swap1\n      pop\n        /* \"#utility.yul\":8767:8951   */\n      swap3\n      swap2\n      pop\n      pop\n      jump\t// out\n        /* \"#utility.yul\":8957:9089   */\n    tag_497:\n        /* \"#utility.yul\":9024:9028   */\n      0x00\n        /* \"#utility.yul\":9047:9050   */\n      dup2\n        /* \"#utility.yul\":9039:9050   */\n      swap1\n      pop\n        /* \"#utility.yul\":9077:9081   */\n      0x20\n        /* \"#utility.yul\":9072:9075   */\n      dup3\n        /* \"#utility.yul\":9068:9082   */\n      add\n        /* \"#utility.yul\":9060:9082   */\n      swap1\n      pop\n        /* \"#utility.yul\":8957:9089   */\n      swap2\n      swap1\n      pop\n      jump\t// out\n        /* \"#utility.yul\":9095:9203   */\n    tag_498:\n        /* \"#utility.yul\":9172:9196   */\n      tag_664\n        /* \"#utility.yul\":9190:9195   */\n      dup2\n        /* \"#utility.yul\":9172:9196   */\n      tag_487\n      jump\t// in\n    tag_664:\n        /* \"#utility.yul\":9167:9170   */\n      dup3\n        /* \"#utility.yul\":9160:9197   */\n      mstore\n        /* \"#utility.yul\":9095:9203   */\n      pop\n      pop\n      jump\t// out\n        /* \"#utility.yul\":9209:9388   */\n    tag_499:\n        /* \"#utility.yul\":9278:9288   */\n      0x00\n        /* \"#utility.yul\":9299:9345   */\n      tag_666\n        /* \"#utility.yul\":9341:9344   */\n      dup4\n        /* \"#utility.yul\":9333:9339   */\n      dup4\n        /* \"#utility.yul\":9299:9345   */\n      tag_498\n      jump\t// in\n    tag_666:\n        /* \"#utility.yul\":9377:9381   */\n      0x20\n        /* \"#utility.yul\":9372:9375   */\n      dup4\n        /* \"#utility.yul\":9368:9382   */\n      add\n        /* \"#utility.yul\":9354:9382   */\n      swap1\n      pop\n        /* \"#utility.yul\":9209:9388   */\n      swap3\n      swap2\n      pop\n      pop\n      jump\t// out\n        /* \"#utility.yul\":9394:9507   */\n    tag_500:\n        /* \"#utility.yul\":9464:9468   */\n      0x00\n        /* \"#utility.yul\":9496:9500   */\n      0x20\n        /* \"#utility.yul\":9491:9494   */\n      dup3\n        /* \"#utility.yul\":9487:9501   */\n      add\n        /* \"#utility.yul\":9479:9501   */\n      swap1\n      pop\n        /* \"#utility.yul\":9394:9507   */\n      swap2\n      swap1\n      pop\n      jump\t// out\n        /* \"#utility.yul\":9543:10275   */\n    tag_501:\n        /* \"#utility.yul\":9662:9665   */\n      0x00\n        /* \"#utility.yul\":9691:9745   */\n      tag_669\n        /* \"#utility.yul\":9739:9744   */\n      dup3\n        /* \"#utility.yul\":9691:9745   */\n      tag_495\n      jump\t// in\n    tag_669:\n        /* \"#utility.yul\":9761:9847   */\n      tag_670\n        /* \"#utility.yul\":9840:9846   */\n      dup2\n        /* \"#utility.yul\":9835:9838   */\n      dup6\n        /* \"#utility.yul\":9761:9847   */\n      tag_496\n      jump\t// in\n    tag_670:\n        /* \"#utility.yul\":9754:9847   */\n      swap4\n      pop\n        /* \"#utility.yul\":9871:9927   */\n      tag_671\n        /* \"#utility.yul\":9921:9926   */\n      dup4\n        /* \"#utility.yul\":9871:9927   */\n      tag_497\n      jump\t// in\n    tag_671:\n        /* \"#utility.yul\":9950:9957   */\n      dup1\n        /* \"#utility.yul\":9981:9982   */\n      0x00\n        /* \"#utility.yul\":9966:10250   */\n    tag_672:\n        /* \"#utility.yul\":9991:9997   */\n      dup4\n        /* \"#utility.yul\":9988:9989   */\n      dup2\n        /* \"#utility.yul\":9985:9998   */\n      lt\n        /* \"#utility.yul\":9966:10250   */\n      iszero\n      tag_674\n      jumpi\n        /* \"#utility.yul\":10067:10073   */\n      dup2\n        /* \"#utility.yul\":10061:10074   */\n      mload\n        /* \"#utility.yul\":10094:10157   */\n      tag_675\n        /* \"#utility.yul\":10153:10156   */\n      dup9\n        /* \"#utility.yul\":10138:10151   */\n      dup3\n        /* \"#utility.yul\":10094:10157   */\n      tag_499\n      jump\t// in\n    tag_675:\n        /* \"#utility.yul\":10087:10157   */\n      swap8\n      pop\n        /* \"#utility.yul\":10180:10240   */\n      tag_676\n        /* \"#utility.yul\":10233:10239   */\n      dup4\n        /* \"#utility.yul\":10180:10240   */\n      tag_500\n      jump\t// in\n    tag_676:\n        /* \"#utility.yul\":10170:10240   */\n      swap3\n      pop\n        /* \"#utility.yul\":10026:10250   */\n      pop\n        /* \"#utility.yul\":10013:10014   */\n      0x01\n        /* \"#utility.yul\":10010:10011   */\n      dup2\n        /* \"#utility.yul\":10006:10015   */\n      add\n        /* \"#utility.yul\":10001:10015   */\n      swap1\n      pop\n        /* \"#utility.yul\":9966:10250   */\n      jump(tag_672)\n    tag_674:\n        /* \"#utility.yul\":9970:9984   */\n      pop\n        /* \"#utility.yul\":10266:10269   */\n      dup6\n        /* \"#utility.yul\":10259:10269   */\n      swap4\n      pop\n        /* \"#utility.yul\":9667:10275   */\n      pop\n      pop\n      pop\n        /* \"#utility.yul\":9543:10275   */\n      swap3\n      swap2\n      pop\n      pop\n      jump\t// out\n        /* \"#utility.yul\":10281:10654   */\n    tag_108:\n        /* \"#utility.yul\":10424:10428   */\n      0x00\n        /* \"#utility.yul\":10462:10464   */\n      0x20\n        /* \"#utility.yul\":10451:10460   */\n      dup3\n        /* \"#utility.yul\":10447:10465   */\n      add\n        /* \"#utility.yul\":10439:10465   */\n      swap1\n      pop\n        /* \"#utility.yul\":10511:10520   */\n      dup2\n        /* \"#utility.yul\":10505:10509   */\n      dup2\n        /* \"#utility.yul\":10501:10521   */\n      sub\n        /* \"#utility.yul\":10497:10498   */\n      0x00\n        /* \"#utility.yul\":10486:10495   */\n      dup4\n        /* \"#utility.yul\":10482:10499   */\n      add\n        /* \"#utility.yul\":10475:10522   */\n      mstore\n        /* \"#utility.yul\":10539:10647   */\n      tag_678\n        /* \"#utility.yul\":10642:10646   */\n      dup2\n        /* \"#utility.yul\":10633:10639   */\n      dup5\n        /* \"#utility.yul\":10539:10647   */\n      tag_501\n      jump\t// in\n    tag_678:\n        /* \"#utility.yul\":10531:10647   */\n      swap1\n      pop\n        /* \"#utility.yul\":10281:10654   */\n      swap3\n      swap2\n      pop\n      pop\n      jump\t// out\n        /* \"#utility.yul\":10660:11459   */\n    tag_122:\n        /* \"#utility.yul\":10747:10753   */\n      0x00\n        /* \"#utility.yul\":10755:10761   */\n      0x00\n        /* \"#utility.yul\":10763:10769   */\n      0x00\n        /* \"#utility.yul\":10812:10814   */\n      0x60\n        /* \"#utility.yul\":10800:10809   */\n      dup5\n        /* \"#utility.yul\":10791:10798   */\n      dup7\n        /* \"#utility.yul\":10787:10810   */\n      sub\n        /* \"#utility.yul\":10783:10815   */\n      slt\n        /* \"#utility.yul\":10780:10899   */\n      iszero\n      tag_680\n      jumpi\n        /* \"#utility.yul\":10818:10897   */\n      tag_681\n      tag_466\n      jump\t// in\n    tag_681:\n        /* \"#utility.yul\":10780:10899   */\n    tag_680:\n        /* \"#utility.yul\":10938:10939   */\n      0x00\n        /* \"#utility.yul\":10963:11016   */\n      tag_682\n        /* \"#utility.yul\":11008:11015   */\n      dup7\n        /* \"#utility.yul\":10999:11005   */\n      dup3\n        /* \"#utility.yul\":10988:10997   */\n      dup8\n        /* \"#utility.yul\":10984:11006   */\n      add\n        /* \"#utility.yul\":10963:11016   */\n      tag_489\n      jump\t// in\n    tag_682:\n        /* \"#utility.yul\":10953:11016   */\n      swap4\n      pop\n        /* \"#utility.yul\":10909:11026   */\n      pop\n        /* \"#utility.yul\":11065:11067   */\n      0x20\n        /* \"#utility.yul\":11091:11144   */\n      tag_683\n        /* \"#utility.yul\":11136:11143   */\n      dup7\n        /* \"#utility.yul\":11127:11133   */\n      dup3\n        /* \"#utility.yul\":11116:11125   */\n      dup8\n        /* \"#utility.yul\":11112:11134   */\n      add\n        /* \"#utility.yul\":11091:11144   */\n      tag_485\n      jump\t// in\n    tag_683:\n        /* \"#utility.yul\":11081:11144   */\n      swap3\n      pop\n        /* \"#utility.yul\":11036:11154   */\n      pop\n        /* \"#utility.yul\":11221:11223   */\n      0x40\n        /* \"#utility.yul\":11210:11219   */\n      dup5\n        /* \"#utility.yul\":11206:11224   */\n      add\n        /* \"#utility.yul\":11193:11225   */\n      calldataload\n        /* \"#utility.yul\":11252:11270   */\n      0xffffffffffffffff\n        /* \"#utility.yul\":11244:11250   */\n      dup2\n        /* \"#utility.yul\":11241:11271   */\n      gt\n        /* \"#utility.yul\":11238:11355   */\n      iszero\n      tag_684\n      jumpi\n        /* \"#utility.yul\":11274:11353   */\n      tag_685\n      tag_467\n      jump\t// in\n    tag_685:\n        /* \"#utility.yul\":11238:11355   */\n    tag_684:\n        /* \"#utility.yul\":11379:11442   */\n      tag_686\n        /* \"#utility.yul\":11434:11441   */\n      dup7\n        /* \"#utility.yul\":11425:11431   */\n      dup3\n        /* \"#utility.yul\":11414:11423   */\n      dup8\n        /* \"#utility.yul\":11410:11432   */\n      add\n        /* \"#utility.yul\":11379:11442   */\n      tag_477\n      jump\t// in\n    tag_686:\n        /* \"#utility.yul\":11369:11442   */\n      swap2\n      pop\n        /* \"#utility.yul\":11164:11452   */\n      pop\n        /* \"#utility.yul\":10660:11459   */\n      swap3\n      pop\n      swap3\n      pop\n      swap3\n      jump\t// out\n        /* \"#utility.yul\":11465:11583   */\n    tag_502:\n        /* \"#utility.yul\":11552:11576   */\n      tag_688\n        /* \"#utility.yul\":11570:11575   */\n      dup2\n        /* \"#utility.yul\":11552:11576   */\n      tag_487\n      jump\t// in\n    tag_688:\n        /* \"#utility.yul\":11547:11550   */\n      dup3\n        /* \"#utility.yul\":11540:11577   */\n      mstore\n        /* \"#utility.yul\":11465:11583   */\n      pop\n      pop\n      jump\t// out\n        /* \"#utility.yul\":11589:11811   */\n    tag_144:\n        /* \"#utility.yul\":11682:11686   */\n      0x00\n        /* \"#utility.yul\":11720:11722   */\n      0x20\n        /* \"#utility.yul\":11709:11718   */\n      dup3\n        /* \"#utility.yul\":11705:11723   */\n      add\n        /* \"#utility.yul\":11697:11723   */\n      swap1\n      pop\n        /* \"#utility.yul\":11733:11804   */\n      tag_690\n        /* \"#utility.yul\":11801:11802   */\n      0x00\n        /* \"#utility.yul\":11790:11799   */\n      dup4\n        /* \"#utility.yul\":11786:11803   */\n      add\n        /* \"#utility.yul\":11777:11783   */\n      dup5\n        /* \"#utility.yul\":11733:11804   */\n      tag_502\n      jump\t// in\n    tag_690:\n        /* \"#utility.yul\":11589:11811   */\n      swap3\n      swap2\n      pop\n      pop\n      jump\t// out\n        /* \"#utility.yul\":11817:11916   */\n    tag_503:\n        /* \"#utility.yul\":11869:11875   */\n      0x00\n        /* \"#utility.yul\":11903:11908   */\n      dup2\n        /* \"#utility.yul\":11897:11909   */\n      mload\n        /* \"#utility.yul\":11887:11909   */\n      swap1\n      pop\n        /* \"#utility.yul\":11817:11916   */\n      swap2\n      swap1\n      pop\n      jump\t// out\n        /* \"#utility.yul\":11922:12081   */\n    tag_504:\n        /* \"#utility.yul\":11996:12007   */\n      0x00\n        /* \"#utility.yul\":12030:12036   */\n      dup3\n        /* \"#utility.yul\":12025:12028   */\n      dup3\n        /* \"#utility.yul\":12018:12037   */\n      mstore\n        /* \"#utility.yul\":12070:12074   */\n      0x20\n        /* \"#utility.yul\":12065:12068   */\n      dup3\n        /* \"#utility.yul\":12061:12075   */\n      add\n        /* \"#utility.yul\":12046:12075   */\n      swap1\n      pop\n        /* \"#utility.yul\":11922:12081   */\n      swap3\n      swap2\n      pop\n      pop\n      jump\t// out\n        /* \"#utility.yul\":12087:12226   */\n    tag_505:\n        /* \"#utility.yul\":12176:12182   */\n      dup3\n        /* \"#utility.yul\":12171:12174   */\n      dup2\n        /* \"#utility.yul\":12166:12169   */\n      dup4\n        /* \"#utility.yul\":12160:12183   */\n      mcopy\n        /* \"#utility.yul\":12217:12218   */\n      0x00\n        /* \"#utility.yul\":12208:12214   */\n      dup4\n        /* \"#utility.yul\":12203:12206   */\n      dup4\n        /* \"#utility.yul\":12199:12215   */\n      add\n        /* \"#utility.yul\":12192:12219   */\n      mstore\n        /* \"#utility.yul\":12087:12226   */\n      pop\n      pop\n      pop\n      jump\t// out\n        /* \"#utility.yul\":12232:12589   */\n    tag_506:\n        /* \"#utility.yul\":12310:12313   */\n      0x00\n        /* \"#utility.yul\":12338:12377   */\n      tag_695\n        /* \"#utility.yul\":12371:12376   */\n      dup3\n        /* \"#utility.yul\":12338:12377   */\n      tag_503\n      jump\t// in\n    tag_695:\n        /* \"#utility.yul\":12393:12454   */\n      tag_696\n        /* \"#utility.yul\":12447:12453   */\n      dup2\n        /* \"#utility.yul\":12442:12445   */\n      dup6\n        /* \"#utility.yul\":12393:12454   */\n      tag_504\n      jump\t// in\n    tag_696:\n        /* \"#utility.yul\":12386:12454   */\n      swap4\n      pop\n        /* \"#utility.yul\":12463:12528   */\n      tag_697\n        /* \"#utility.yul\":12521:12527   */\n      dup2\n        /* \"#utility.yul\":12516:12519   */\n      dup6\n        /* \"#utility.yul\":12509:12513   */\n      0x20\n        /* \"#utility.yul\":12502:12507   */\n      dup7\n        /* \"#utility.yul\":12498:12514   */\n      add\n        /* \"#utility.yul\":12463:12528   */\n      tag_505\n      jump\t// in\n    tag_697:\n        /* \"#utility.yul\":12553:12582   */\n      tag_698\n        /* \"#utility.yul\":12575:12581   */\n      dup2\n        /* \"#utility.yul\":12553:12582   */\n      tag_470\n      jump\t// in\n    tag_698:\n        /* \"#utility.yul\":12548:12551   */\n      dup5\n        /* \"#utility.yul\":12544:12583   */\n      add\n        /* \"#utility.yul\":12537:12583   */\n      swap2\n      pop\n        /* \"#utility.yul\":12314:12589   */\n      pop\n        /* \"#utility.yul\":12232:12589   */\n      swap3\n      swap2\n      pop\n      pop\n      jump\t// out\n        /* \"#utility.yul\":12595:12703   */\n    tag_507:\n        /* \"#utility.yul\":12672:12696   */\n      tag_700\n        /* \"#utility.yul\":12690:12695   */\n      dup2\n        /* \"#utility.yul\":12672:12696   */\n      tag_490\n      jump\t// in\n    tag_700:\n        /* \"#utility.yul\":12667:12670   */\n      dup3\n        /* \"#utility.yul\":12660:12697   */\n      mstore\n        /* \"#utility.yul\":12595:12703   */\n      pop\n      pop\n      jump\t// out\n        /* \"#utility.yul\":12709:12817   */\n    tag_508:\n        /* \"#utility.yul\":12786:12810   */\n      tag_702\n        /* \"#utility.yul\":12804:12809   */\n      dup2\n        /* \"#utility.yul\":12786:12810   */\n      tag_483\n      jump\t// in\n    tag_702:\n        /* \"#utility.yul\":12781:12784   */\n      dup3\n        /* \"#utility.yul\":12774:12811   */\n      mstore\n        /* \"#utility.yul\":12709:12817   */\n      pop\n      pop\n      jump\t// out\n        /* \"#utility.yul\":12823:12922   */\n    tag_509:\n        /* \"#utility.yul\":12894:12915   */\n      tag_704\n        /* \"#utility.yul\":12909:12914   */\n      dup2\n        /* \"#utility.yul\":12894:12915   */\n      tag_481\n      jump\t// in\n    tag_704:\n        /* \"#utility.yul\":12889:12892   */\n      dup3\n        /* \"#utility.yul\":12882:12916   */\n      mstore\n        /* \"#utility.yul\":12823:12922   */\n      pop\n      pop\n      jump\t// out\n        /* \"#utility.yul\":13004:14149   */\n    tag_510:\n        /* \"#utility.yul\":13121:13124   */\n      0x00\n        /* \"#utility.yul\":13157:13161   */\n      0xa0\n        /* \"#utility.yul\":13152:13155   */\n      dup4\n        /* \"#utility.yul\":13148:13162   */\n      add\n        /* \"#utility.yul\":13251:13255   */\n      0x00\n        /* \"#utility.yul\":13244:13249   */\n      dup4\n        /* \"#utility.yul\":13240:13256   */\n      add\n        /* \"#utility.yul\":13234:13257   */\n      mload\n        /* \"#utility.yul\":13270:13333   */\n      tag_706\n        /* \"#utility.yul\":13327:13331   */\n      0x00\n        /* \"#utility.yul\":13322:13325   */\n      dup7\n        /* \"#utility.yul\":13318:13332   */\n      add\n        /* \"#utility.yul\":13304:13316   */\n      dup3\n        /* \"#utility.yul\":13270:13333   */\n      tag_498\n      jump\t// in\n    tag_706:\n        /* \"#utility.yul\":13172:13343   */\n      pop\n        /* \"#utility.yul\":13429:13433   */\n      0x20\n        /* \"#utility.yul\":13422:13427   */\n      dup4\n        /* \"#utility.yul\":13418:13434   */\n      add\n        /* \"#utility.yul\":13412:13435   */\n      mload\n        /* \"#utility.yul\":13482:13485   */\n      dup5\n        /* \"#utility.yul\":13476:13480   */\n      dup3\n        /* \"#utility.yul\":13472:13486   */\n      sub\n        /* \"#utility.yul\":13465:13469   */\n      0x20\n        /* \"#utility.yul\":13460:13463   */\n      dup7\n        /* \"#utility.yul\":13456:13470   */\n      add\n        /* \"#utility.yul\":13449:13487   */\n      mstore\n        /* \"#utility.yul\":13508:13581   */\n      tag_707\n        /* \"#utility.yul\":13576:13580   */\n      dup3\n        /* \"#utility.yul\":13562:13574   */\n      dup3\n        /* \"#utility.yul\":13508:13581   */\n      tag_506\n      jump\t// in\n    tag_707:\n        /* \"#utility.yul\":13500:13581   */\n      swap2\n      pop\n        /* \"#utility.yul\":13353:13592   */\n      pop\n        /* \"#utility.yul\":13679:13683   */\n      0x40\n        /* \"#utility.yul\":13672:13677   */\n      dup4\n        /* \"#utility.yul\":13668:13684   */\n      add\n        /* \"#utility.yul\":13662:13685   */\n      mload\n        /* \"#utility.yul\":13698:13761   */\n      tag_708\n        /* \"#utility.yul\":13755:13759   */\n      0x40\n        /* \"#utility.yul\":13750:13753   */\n      dup7\n        /* \"#utility.yul\":13746:13760   */\n      add\n        /* \"#utility.yul\":13732:13744   */\n      dup3\n        /* \"#utility.yul\":13698:13761   */\n      tag_507\n      jump\t// in\n    tag_708:\n        /* \"#utility.yul\":13602:13771   */\n      pop\n        /* \"#utility.yul\":13858:13862   */\n      0x60\n        /* \"#utility.yul\":13851:13856   */\n      dup4\n        /* \"#utility.yul\":13847:13863   */\n      add\n        /* \"#utility.yul\":13841:13864   */\n      mload\n        /* \"#utility.yul\":13877:13940   */\n      tag_709\n        /* \"#utility.yul\":13934:13938   */\n      0x60\n        /* \"#utility.yul\":13929:13932   */\n      dup7\n        /* \"#utility.yul\":13925:13939   */\n      add\n        /* \"#utility.yul\":13911:13923   */\n      dup3\n        /* \"#utility.yul\":13877:13940   */\n      tag_508\n      jump\t// in\n    tag_709:\n        /* \"#utility.yul\":13781:13950   */\n      pop\n        /* \"#utility.yul\":14036:14040   */\n      0x80\n        /* \"#utility.yul\":14029:14034   */\n      dup4\n        /* \"#utility.yul\":14025:14041   */\n      add\n        /* \"#utility.yul\":14019:14042   */\n      mload\n        /* \"#utility.yul\":14055:14112   */\n      tag_710\n        /* \"#utility.yul\":14106:14110   */\n      0x80\n        /* \"#utility.yul\":14101:14104   */\n      dup7\n        /* \"#utility.yul\":14097:14111   */\n      add\n        /* \"#utility.yul\":14083:14095   */\n      dup3\n        /* \"#utility.yul\":14055:14112   */\n      tag_509\n      jump\t// in\n    tag_710:\n        /* \"#utility.yul\":13960:14122   */\n      pop\n        /* \"#utility.yul\":14139:14143   */\n      dup1\n        /* \"#utility.yul\":14132:14143   */\n      swap2\n      pop\n        /* \"#utility.yul\":13126:14149   */\n      pop\n        /* \"#utility.yul\":13004:14149   */\n      swap3\n      swap2\n      pop\n      pop\n      jump\t// out\n        /* \"#utility.yul\":14155:14524   */\n    tag_153:\n        /* \"#utility.yul\":14296:14300   */\n      0x00\n        /* \"#utility.yul\":14334:14336   */\n      0x20\n        /* \"#utility.yul\":14323:14332   */\n      dup3\n        /* \"#utility.yul\":14319:14337   */\n      add\n        /* \"#utility.yul\":14311:14337   */\n      swap1\n      pop\n        /* \"#utility.yul\":14383:14392   */\n      dup2\n        /* \"#utility.yul\":14377:14381   */\n      dup2\n        /* \"#utility.yul\":14373:14393   */\n      sub\n        /* \"#utility.yul\":14369:14370   */\n      0x00\n        /* \"#utility.yul\":14358:14367   */\n      dup4\n        /* \"#utility.yul\":14354:14371   */\n      add\n        /* \"#utility.yul\":14347:14394   */\n      mstore\n        /* \"#utility.yul\":14411:14517   */\n      tag_712\n        /* \"#utility.yul\":14512:14516   */\n      dup2\n        /* \"#utility.yul\":14503:14509   */\n      dup5\n        /* \"#utility.yul\":14411:14517   */\n      tag_510\n      jump\t// in\n    tag_712:\n        /* \"#utility.yul\":14403:14517   */\n      swap1\n      pop\n        /* \"#utility.yul\":14155:14524   */\n      swap3\n      swap2\n      pop\n      pop\n      jump\t// out\n        /* \"#utility.yul\":14530:15184   */\n    tag_156:\n        /* \"#utility.yul\":14608:14614   */\n      0x00\n        /* \"#utility.yul\":14616:14622   */\n      0x00\n        /* \"#utility.yul\":14665:14667   */\n      0x40\n        /* \"#utility.yul\":14653:14662   */\n      dup4\n        /* \"#utility.yul\":14644:14651   */\n      dup6\n        /* \"#utility.yul\":14640:14663   */\n      sub\n        /* \"#utility.yul\":14636:14668   */\n      slt\n        /* \"#utility.yul\":14633:14752   */\n      iszero\n      tag_714\n      jumpi\n        /* \"#utility.yul\":14671:14750   */\n      tag_715\n      tag_466\n      jump\t// in\n    tag_715:\n        /* \"#utility.yul\":14633:14752   */\n    tag_714:\n        /* \"#utility.yul\":14819:14820   */\n      0x00\n        /* \"#utility.yul\":14808:14817   */\n      dup4\n        /* \"#utility.yul\":14804:14821   */\n      add\n        /* \"#utility.yul\":14791:14822   */\n      calldataload\n        /* \"#utility.yul\":14849:14867   */\n      0xffffffffffffffff\n        /* \"#utility.yul\":14841:14847   */\n      dup2\n        /* \"#utility.yul\":14838:14868   */\n      gt\n        /* \"#utility.yul\":14835:14952   */\n      iszero\n      tag_716\n      jumpi\n        /* \"#utility.yul\":14871:14950   */\n      tag_717\n      tag_467\n      jump\t// in\n    tag_717:\n        /* \"#utility.yul\":14835:14952   */\n    tag_716:\n        /* \"#utility.yul\":14976:15039   */\n      tag_718\n        /* \"#utility.yul\":15031:15038   */\n      dup6\n        /* \"#utility.yul\":15022:15028   */\n      dup3\n        /* \"#utility.yul\":15011:15020   */\n      dup7\n        /* \"#utility.yul\":15007:15029   */\n      add\n        /* \"#utility.yul\":14976:15039   */\n      tag_477\n      jump\t// in\n    tag_718:\n        /* \"#utility.yul\":14966:15039   */\n      swap3\n      pop\n        /* \"#utility.yul\":14762:15049   */\n      pop\n        /* \"#utility.yul\":15088:15090   */\n      0x20\n        /* \"#utility.yul\":15114:15167   */\n      tag_719\n        /* \"#utility.yul\":15159:15166   */\n      dup6\n        /* \"#utility.yul\":15150:15156   */\n      dup3\n        /* \"#utility.yul\":15139:15148   */\n      dup7\n        /* \"#utility.yul\":15135:15157   */\n      add\n        /* \"#utility.yul\":15114:15167   */\n      tag_492\n      jump\t// in\n    tag_719:\n        /* \"#utility.yul\":15104:15167   */\n      swap2\n      pop\n        /* \"#utility.yul\":15059:15177   */\n      pop\n        /* \"#utility.yul\":14530:15184   */\n      swap3\n      pop\n      swap3\n      swap1\n      pop\n      jump\t// out\n        /* \"#utility.yul\":15190:15359   */\n    tag_511:\n        /* \"#utility.yul\":15274:15285   */\n      0x00\n        /* \"#utility.yul\":15308:15314   */\n      dup3\n        /* \"#utility.yul\":15303:15306   */\n      dup3\n        /* \"#utility.yul\":15296:15315   */\n      mstore\n        /* \"#utility.yul\":15348:15352   */\n      0x20\n        /* \"#utility.yul\":15343:15346   */\n      dup3\n        /* \"#utility.yul\":15339:15353   */\n      add\n        /* \"#utility.yul\":15324:15353   */\n      swap1\n      pop\n        /* \"#utility.yul\":15190:15359   */\n      swap3\n      swap2\n      pop\n      pop\n      jump\t// out\n        /* \"#utility.yul\":15365:15742   */\n    tag_512:\n        /* \"#utility.yul\":15453:15456   */\n      0x00\n        /* \"#utility.yul\":15481:15520   */\n      tag_722\n        /* \"#utility.yul\":15514:15519   */\n      dup3\n        /* \"#utility.yul\":15481:15520   */\n      tag_503\n      jump\t// in\n    tag_722:\n        /* \"#utility.yul\":15536:15607   */\n      tag_723\n        /* \"#utility.yul\":15600:15606   */\n      dup2\n        /* \"#utility.yul\":15595:15598   */\n      dup6\n        /* \"#utility.yul\":15536:15607   */\n      tag_511\n      jump\t// in\n    tag_723:\n        /* \"#utility.yul\":15529:15607   */\n      swap4\n      pop\n        /* \"#utility.yul\":15616:15681   */\n      tag_724\n        /* \"#utility.yul\":15674:15680   */\n      dup2\n        /* \"#utility.yul\":15669:15672   */\n      dup6\n        /* \"#utility.yul\":15662:15666   */\n      0x20\n        /* \"#utility.yul\":15655:15660   */\n      dup7\n        /* \"#utility.yul\":15651:15667   */\n      add\n        /* \"#utility.yul\":15616:15681   */\n      tag_505\n      jump\t// in\n    tag_724:\n        /* \"#utility.yul\":15706:15735   */\n      tag_725\n        /* \"#utility.yul\":15728:15734   */\n      dup2\n        /* \"#utility.yul\":15706:15735   */\n      tag_470\n      jump\t// in\n    tag_725:\n        /* \"#utility.yul\":15701:15704   */\n      dup5\n        /* \"#utility.yul\":15697:15736   */\n      add\n        /* \"#utility.yul\":15690:15736   */\n      swap2\n      pop\n        /* \"#utility.yul\":15457:15742   */\n      pop\n        /* \"#utility.yul\":15365:15742   */\n      swap3\n      swap2\n      pop\n      pop\n      jump\t// out\n        /* \"#utility.yul\":15748:16491   */\n    tag_175:\n        /* \"#utility.yul\":15967:15971   */\n      0x00\n        /* \"#utility.yul\":16005:16008   */\n      0xa0\n        /* \"#utility.yul\":15994:16003   */\n      dup3\n        /* \"#utility.yul\":15990:16009   */\n      add\n        /* \"#utility.yul\":15982:16009   */\n      swap1\n      pop\n        /* \"#utility.yul\":16019:16090   */\n      tag_727\n        /* \"#utility.yul\":16087:16088   */\n      0x00\n        /* \"#utility.yul\":16076:16085   */\n      dup4\n        /* \"#utility.yul\":16072:16089   */\n      add\n        /* \"#utility.yul\":16063:16069   */\n      dup9\n        /* \"#utility.yul\":16019:16090   */\n      tag_502\n      jump\t// in\n    tag_727:\n        /* \"#utility.yul\":16137:16146   */\n      dup2\n        /* \"#utility.yul\":16131:16135   */\n      dup2\n        /* \"#utility.yul\":16127:16147   */\n      sub\n        /* \"#utility.yul\":16122:16124   */\n      0x20\n        /* \"#utility.yul\":16111:16120   */\n      dup4\n        /* \"#utility.yul\":16107:16125   */\n      add\n        /* \"#utility.yul\":16100:16148   */\n      mstore\n        /* \"#utility.yul\":16165:16243   */\n      tag_728\n        /* \"#utility.yul\":16238:16242   */\n      dup2\n        /* \"#utility.yul\":16229:16235   */\n      dup8\n        /* \"#utility.yul\":16165:16243   */\n      tag_512\n      jump\t// in\n    tag_728:\n        /* \"#utility.yul\":16157:16243   */\n      swap1\n      pop\n        /* \"#utility.yul\":16253:16325   */\n      tag_729\n        /* \"#utility.yul\":16321:16323   */\n      0x40\n        /* \"#utility.yul\":16310:16319   */\n      dup4\n        /* \"#utility.yul\":16306:16324   */\n      add\n        /* \"#utility.yul\":16297:16303   */\n      dup7\n        /* \"#utility.yul\":16253:16325   */\n      tag_493\n      jump\t// in\n    tag_729:\n        /* \"#utility.yul\":16335:16407   */\n      tag_730\n        /* \"#utility.yul\":16403:16405   */\n      0x60\n        /* \"#utility.yul\":16392:16401   */\n      dup4\n        /* \"#utility.yul\":16388:16406   */\n      add\n        /* \"#utility.yul\":16379:16385   */\n      dup6\n        /* \"#utility.yul\":16335:16407   */\n      tag_494\n      jump\t// in\n    tag_730:\n        /* \"#utility.yul\":16417:16484   */\n      tag_731\n        /* \"#utility.yul\":16479:16482   */\n      0x80\n        /* \"#utility.yul\":16468:16477   */\n      dup4\n        /* \"#utility.yul\":16464:16483   */\n      add\n        /* \"#utility.yul\":16455:16461   */\n      dup5\n        /* \"#utility.yul\":16417:16484   */\n      tag_482\n      jump\t// in\n    tag_731:\n        /* \"#utility.yul\":15748:16491   */\n      swap7\n      swap6\n      pop\n      pop\n      pop\n      pop\n      pop\n      pop\n      jump\t// out\n        /* \"#utility.yul\":16497:16971   */\n    tag_178:\n        /* \"#utility.yul\":16565:16571   */\n      0x00\n        /* \"#utility.yul\":16573:16579   */\n      0x00\n        /* \"#utility.yul\":16622:16624   */\n      0x40\n        /* \"#utility.yul\":16610:16619   */\n      dup4\n        /* \"#utility.yul\":16601:16608   */\n      dup6\n        /* \"#utility.yul\":16597:16620   */\n      sub\n        /* \"#utility.yul\":16593:16625   */\n      slt\n        /* \"#utility.yul\":16590:16709   */\n      iszero\n      tag_733\n      jumpi\n        /* \"#utility.yul\":16628:16707   */\n      tag_734\n      tag_466\n      jump\t// in\n    tag_734:\n        /* \"#utility.yul\":16590:16709   */\n    tag_733:\n        /* \"#utility.yul\":16748:16749   */\n      0x00\n        /* \"#utility.yul\":16773:16826   */\n      tag_735\n        /* \"#utility.yul\":16818:16825   */\n      dup6\n        /* \"#utility.yul\":16809:16815   */\n      dup3\n        /* \"#utility.yul\":16798:16807   */\n      dup7\n        /* \"#utility.yul\":16794:16816   */\n      add\n        /* \"#utility.yul\":16773:16826   */\n      tag_489\n      jump\t// in\n    tag_735:\n        /* \"#utility.yul\":16763:16826   */\n      swap3\n      pop\n        /* \"#utility.yul\":16719:16836   */\n      pop\n        /* \"#utility.yul\":16875:16877   */\n      0x20\n        /* \"#utility.yul\":16901:16954   */\n      tag_736\n        /* \"#utility.yul\":16946:16953   */\n      dup6\n        /* \"#utility.yul\":16937:16943   */\n      dup3\n        /* \"#utility.yul\":16926:16935   */\n      dup7\n        /* \"#utility.yul\":16922:16944   */\n      add\n        /* \"#utility.yul\":16901:16954   */\n      tag_485\n      jump\t// in\n    tag_736:\n        /* \"#utility.yul\":16891:16954   */\n      swap2\n      pop\n        /* \"#utility.yul\":16846:16964   */\n      pop\n        /* \"#utility.yul\":16497:16971   */\n      swap3\n      pop\n      swap3\n      swap1\n      pop\n      jump\t// out\n        /* \"#utility.yul\":16977:17712   */\n    tag_181:\n        /* \"#utility.yul\":17194:17198   */\n      0x00\n        /* \"#utility.yul\":17232:17235   */\n      0x80\n        /* \"#utility.yul\":17221:17230   */\n      dup3\n        /* \"#utility.yul\":17217:17236   */\n      add\n        /* \"#utility.yul\":17209:17236   */\n      swap1\n      pop\n        /* \"#utility.yul\":17282:17291   */\n      dup2\n        /* \"#utility.yul\":17276:17280   */\n      dup2\n        /* \"#utility.yul\":17272:17292   */\n      sub\n        /* \"#utility.yul\":17268:17269   */\n      0x00\n        /* \"#utility.yul\":17257:17266   */\n      dup4\n        /* \"#utility.yul\":17253:17270   */\n      add\n        /* \"#utility.yul\":17246:17293   */\n      mstore\n        /* \"#utility.yul\":17310:17388   */\n      tag_738\n        /* \"#utility.yul\":17383:17387   */\n      dup2\n        /* \"#utility.yul\":17374:17380   */\n      dup8\n        /* \"#utility.yul\":17310:17388   */\n      tag_512\n      jump\t// in\n    tag_738:\n        /* \"#utility.yul\":17302:17388   */\n      swap1\n      pop\n        /* \"#utility.yul\":17435:17444   */\n      dup2\n        /* \"#utility.yul\":17429:17433   */\n      dup2\n        /* \"#utility.yul\":17425:17445   */\n      sub\n        /* \"#utility.yul\":17420:17422   */\n      0x20\n        /* \"#utility.yul\":17409:17418   */\n      dup4\n        /* \"#utility.yul\":17405:17423   */\n      add\n        /* \"#utility.yul\":17398:17446   */\n      mstore\n        /* \"#utility.yul\":17463:17541   */\n      tag_739\n        /* \"#utility.yul\":17536:17540   */\n      dup2\n        /* \"#utility.yul\":17527:17533   */\n      dup7\n        /* \"#utility.yul\":17463:17541   */\n      tag_512\n      jump\t// in\n    tag_739:\n        /* \"#utility.yul\":17455:17541   */\n      swap1\n      pop\n        /* \"#utility.yul\":17551:17623   */\n      tag_740\n        /* \"#utility.yul\":17619:17621   */\n      0x40\n        /* \"#utility.yul\":17608:17617   */\n      dup4\n        /* \"#utility.yul\":17604:17622   */\n      add\n        /* \"#utility.yul\":17595:17601   */\n      dup6\n        /* \"#utility.yul\":17551:17623   */\n      tag_494\n      jump\t// in\n    tag_740:\n        /* \"#utility.yul\":17633:17705   */\n      tag_741\n        /* \"#utility.yul\":17701:17703   */\n      0x60\n        /* \"#utility.yul\":17690:17699   */\n      dup4\n        /* \"#utility.yul\":17686:17704   */\n      add\n        /* \"#utility.yul\":17677:17683   */\n      dup5\n        /* \"#utility.yul\":17633:17705   */\n      tag_494\n      jump\t// in\n    tag_741:\n        /* \"#utility.yul\":16977:17712   */\n      swap6\n      swap5\n      pop\n      pop\n      pop\n      pop\n      pop\n      jump\t// out\n        /* \"#utility.yul\":17718:17860   */\n    tag_513:\n        /* \"#utility.yul\":17813:17819   */\n      0x00\n        /* \"#utility.yul\":17847:17852   */\n      dup2\n        /* \"#utility.yul\":17841:17853   */\n      mload\n        /* \"#utility.yul\":17831:17853   */\n      swap1\n      pop\n        /* \"#utility.yul\":17718:17860   */\n      swap2\n      swap1\n      pop\n      jump\t// out\n        /* \"#utility.yul\":17866:18078   */\n    tag_514:\n        /* \"#utility.yul\":17993:18004   */\n      0x00\n        /* \"#utility.yul\":18027:18033   */\n      dup3\n        /* \"#utility.yul\":18022:18025   */\n      dup3\n        /* \"#utility.yul\":18015:18034   */\n      mstore\n        /* \"#utility.yul\":18067:18071   */\n      0x20\n        /* \"#utility.yul\":18062:18065   */\n      dup3\n        /* \"#utility.yul\":18058:18072   */\n      add\n        /* \"#utility.yul\":18043:18072   */\n      swap1\n      pop\n        /* \"#utility.yul\":17866:18078   */\n      swap3\n      swap2\n      pop\n      pop\n      jump\t// out\n        /* \"#utility.yul\":18084:18244   */\n    tag_515:\n        /* \"#utility.yul\":18179:18183   */\n      0x00\n        /* \"#utility.yul\":18202:18205   */\n      dup2\n        /* \"#utility.yul\":18194:18205   */\n      swap1\n      pop\n        /* \"#utility.yul\":18232:18236   */\n      0x20\n        /* \"#utility.yul\":18227:18230   */\n      dup3\n        /* \"#utility.yul\":18223:18237   */\n      add\n        /* \"#utility.yul\":18215:18237   */\n      swap1\n      pop\n        /* \"#utility.yul\":18084:18244   */\n      swap2\n      swap1\n      pop\n      jump\t// out\n        /* \"#utility.yul\":18334:19370   */\n    tag_516:\n        /* \"#utility.yul\":18449:18452   */\n      0x00\n        /* \"#utility.yul\":18485:18489   */\n      0x80\n        /* \"#utility.yul\":18480:18483   */\n      dup4\n        /* \"#utility.yul\":18476:18490   */\n      add\n        /* \"#utility.yul\":18572:18576   */\n      0x00\n        /* \"#utility.yul\":18565:18570   */\n      dup4\n        /* \"#utility.yul\":18561:18577   */\n      add\n        /* \"#utility.yul\":18555:18578   */\n      mload\n        /* \"#utility.yul\":18625:18628   */\n      dup5\n        /* \"#utility.yul\":18619:18623   */\n      dup3\n        /* \"#utility.yul\":18615:18629   */\n      sub\n        /* \"#utility.yul\":18608:18612   */\n      0x00\n        /* \"#utility.yul\":18603:18606   */\n      dup7\n        /* \"#utility.yul\":18599:18613   */\n      add\n        /* \"#utility.yul\":18592:18630   */\n      mstore\n        /* \"#utility.yul\":18651:18724   */\n      tag_746\n        /* \"#utility.yul\":18719:18723   */\n      dup3\n        /* \"#utility.yul\":18705:18717   */\n      dup3\n        /* \"#utility.yul\":18651:18724   */\n      tag_506\n      jump\t// in\n    tag_746:\n        /* \"#utility.yul\":18643:18724   */\n      swap2\n      pop\n        /* \"#utility.yul\":18500:18735   */\n      pop\n        /* \"#utility.yul\":18824:18828   */\n      0x20\n        /* \"#utility.yul\":18817:18822   */\n      dup4\n        /* \"#utility.yul\":18813:18829   */\n      add\n        /* \"#utility.yul\":18807:18830   */\n      mload\n        /* \"#utility.yul\":18877:18880   */\n      dup5\n        /* \"#utility.yul\":18871:18875   */\n      dup3\n        /* \"#utility.yul\":18867:18881   */\n      sub\n        /* \"#utility.yul\":18860:18864   */\n      0x20\n        /* \"#utility.yul\":18855:18858   */\n      dup7\n        /* \"#utility.yul\":18851:18865   */\n      add\n        /* \"#utility.yul\":18844:18882   */\n      mstore\n        /* \"#utility.yul\":18903:18976   */\n      tag_747\n        /* \"#utility.yul\":18971:18975   */\n      dup3\n        /* \"#utility.yul\":18957:18969   */\n      dup3\n        /* \"#utility.yul\":18903:18976   */\n      tag_506\n      jump\t// in\n    tag_747:\n        /* \"#utility.yul\":18895:18976   */\n      swap2\n      pop\n        /* \"#utility.yul\":18745:18987   */\n      pop\n        /* \"#utility.yul\":19071:19075   */\n      0x40\n        /* \"#utility.yul\":19064:19069   */\n      dup4\n        /* \"#utility.yul\":19060:19076   */\n      add\n        /* \"#utility.yul\":19054:19077   */\n      mload\n        /* \"#utility.yul\":19090:19153   */\n      tag_748\n        /* \"#utility.yul\":19147:19151   */\n      0x40\n        /* \"#utility.yul\":19142:19145   */\n      dup7\n        /* \"#utility.yul\":19138:19152   */\n      add\n        /* \"#utility.yul\":19124:19136   */\n      dup3\n        /* \"#utility.yul\":19090:19153   */\n      tag_508\n      jump\t// in\n    tag_748:\n        /* \"#utility.yul\":18997:19163   */\n      pop\n        /* \"#utility.yul\":19251:19255   */\n      0x60\n        /* \"#utility.yul\":19244:19249   */\n      dup4\n        /* \"#utility.yul\":19240:19256   */\n      add\n        /* \"#utility.yul\":19234:19257   */\n      mload\n        /* \"#utility.yul\":19270:19333   */\n      tag_749\n        /* \"#utility.yul\":19327:19331   */\n      0x60\n        /* \"#utility.yul\":19322:19325   */\n      dup7\n        /* \"#utility.yul\":19318:19332   */\n      add\n        /* \"#utility.yul\":19304:19316   */\n      dup3\n        /* \"#utility.yul\":19270:19333   */\n      tag_508\n      jump\t// in\n    tag_749:\n        /* \"#utility.yul\":19173:19343   */\n      pop\n        /* \"#utility.yul\":19360:19364   */\n      dup1\n        /* \"#utility.yul\":19353:19364   */\n      swap2\n      pop\n        /* \"#utility.yul\":18454:19370   */\n      pop\n        /* \"#utility.yul\":18334:19370   */\n      swap3\n      swap2\n      pop\n      pop\n      jump\t// out\n        /* \"#utility.yul\":19376:19644   */\n    tag_517:\n        /* \"#utility.yul\":19501:19511   */\n      0x00\n        /* \"#utility.yul\":19536:19638   */\n      tag_751\n        /* \"#utility.yul\":19634:19637   */\n      dup4\n        /* \"#utility.yul\":19626:19632   */\n      dup4\n        /* \"#utility.yul\":19536:19638   */\n      tag_516\n      jump\t// in\n    tag_751:\n        /* \"#utility.yul\":19522:19638   */\n      swap1\n      pop\n        /* \"#utility.yul\":19376:19644   */\n      swap3\n      swap2\n      pop\n      pop\n      jump\t// out\n        /* \"#utility.yul\":19650:19791   */\n    tag_518:\n        /* \"#utility.yul\":19748:19752   */\n      0x00\n        /* \"#utility.yul\":19780:19784   */\n      0x20\n        /* \"#utility.yul\":19775:19778   */\n      dup3\n        /* \"#utility.yul\":19771:19785   */\n      add\n        /* \"#utility.yul\":19763:19785   */\n      swap1\n      pop\n        /* \"#utility.yul\":19650:19791   */\n      swap2\n      swap1\n      pop\n      jump\t// out\n        /* \"#utility.yul\":19885:21020   */\n    tag_519:\n        /* \"#utility.yul\":20060:20063   */\n      0x00\n        /* \"#utility.yul\":20089:20171   */\n      tag_754\n        /* \"#utility.yul\":20165:20170   */\n      dup3\n        /* \"#utility.yul\":20089:20171   */\n      tag_513\n      jump\t// in\n    tag_754:\n        /* \"#utility.yul\":20187:20301   */\n      tag_755\n        /* \"#utility.yul\":20294:20300   */\n      dup2\n        /* \"#utility.yul\":20289:20292   */\n      dup6\n        /* \"#utility.yul\":20187:20301   */\n      tag_514\n      jump\t// in\n    tag_755:\n        /* \"#utility.yul\":20180:20301   */\n      swap4\n      pop\n        /* \"#utility.yul\":20327:20330   */\n      dup4\n        /* \"#utility.yul\":20372:20376   */\n      0x20\n        /* \"#utility.yul\":20364:20370   */\n      dup3\n        /* \"#utility.yul\":20360:20377   */\n      mul\n        /* \"#utility.yul\":20355:20358   */\n      dup6\n        /* \"#utility.yul\":20351:20378   */\n      add\n        /* \"#utility.yul\":20402:20486   */\n      tag_756\n        /* \"#utility.yul\":20480:20485   */\n      dup6\n        /* \"#utility.yul\":20402:20486   */\n      tag_515\n      jump\t// in\n    tag_756:\n        /* \"#utility.yul\":20509:20516   */\n      dup1\n        /* \"#utility.yul\":20540:20541   */\n      0x00\n        /* \"#utility.yul\":20525:20975   */\n    tag_757:\n        /* \"#utility.yul\":20550:20556   */\n      dup6\n        /* \"#utility.yul\":20547:20548   */\n      dup2\n        /* \"#utility.yul\":20544:20557   */\n      lt\n        /* \"#utility.yul\":20525:20975   */\n      iszero\n      tag_759\n      jumpi\n        /* \"#utility.yul\":20621:20630   */\n      dup5\n        /* \"#utility.yul\":20615:20619   */\n      dup5\n        /* \"#utility.yul\":20611:20631   */\n      sub\n        /* \"#utility.yul\":20606:20609   */\n      dup10\n        /* \"#utility.yul\":20599:20632   */\n      mstore\n        /* \"#utility.yul\":20672:20678   */\n      dup2\n        /* \"#utility.yul\":20666:20679   */\n      mload\n        /* \"#utility.yul\":20700:20820   */\n      tag_760\n        /* \"#utility.yul\":20815:20819   */\n      dup6\n        /* \"#utility.yul\":20800:20813   */\n      dup3\n        /* \"#utility.yul\":20700:20820   */\n      tag_517\n      jump\t// in\n    tag_760:\n        /* \"#utility.yul\":20692:20820   */\n      swap5\n      pop\n        /* \"#utility.yul\":20843:20931   */\n      tag_761\n        /* \"#utility.yul\":20924:20930   */\n      dup4\n        /* \"#utility.yul\":20843:20931   */\n      tag_518\n      jump\t// in\n    tag_761:\n        /* \"#utility.yul\":20833:20931   */\n      swap3\n      pop\n        /* \"#utility.yul\":20960:20964   */\n      0x20\n        /* \"#utility.yul\":20955:20958   */\n      dup11\n        /* \"#utility.yul\":20951:20965   */\n      add\n        /* \"#utility.yul\":20944:20965   */\n      swap10\n      pop\n        /* \"#utility.yul\":20585:20975   */\n      pop\n        /* \"#utility.yul\":20572:20573   */\n      0x01\n        /* \"#utility.yul\":20569:20570   */\n      dup2\n        /* \"#utility.yul\":20565:20574   */\n      add\n        /* \"#utility.yul\":20560:20574   */\n      swap1\n      pop\n        /* \"#utility.yul\":20525:20975   */\n      jump(tag_757)\n    tag_759:\n        /* \"#utility.yul\":20529:20543   */\n      pop\n        /* \"#utility.yul\":20991:20995   */\n      dup3\n        /* \"#utility.yul\":20984:20995   */\n      swap8\n      pop\n        /* \"#utility.yul\":21011:21014   */\n      dup8\n        /* \"#utility.yul\":21004:21014   */\n      swap6\n      pop\n        /* \"#utility.yul\":20065:21020   */\n      pop\n      pop\n      pop\n      pop\n      pop\n        /* \"#utility.yul\":19885:21020   */\n      swap3\n      swap2\n      pop\n      pop\n      jump\t// out\n        /* \"#utility.yul\":21026:21511   */\n    tag_200:\n        /* \"#utility.yul\":21225:21229   */\n      0x00\n        /* \"#utility.yul\":21263:21265   */\n      0x20\n        /* \"#utility.yul\":21252:21261   */\n      dup3\n        /* \"#utility.yul\":21248:21266   */\n      add\n        /* \"#utility.yul\":21240:21266   */\n      swap1\n      pop\n        /* \"#utility.yul\":21312:21321   */\n      dup2\n        /* \"#utility.yul\":21306:21310   */\n      dup2\n        /* \"#utility.yul\":21302:21322   */\n      sub\n        /* \"#utility.yul\":21298:21299   */\n      0x00\n        /* \"#utility.yul\":21287:21296   */\n      dup4\n        /* \"#utility.yul\":21283:21300   */\n      add\n        /* \"#utility.yul\":21276:21323   */\n      mstore\n        /* \"#utility.yul\":21340:21504   */\n      tag_763\n        /* \"#utility.yul\":21499:21503   */\n      dup2\n        /* \"#utility.yul\":21490:21496   */\n      dup5\n        /* \"#utility.yul\":21340:21504   */\n      tag_519\n      jump\t// in\n    tag_763:\n        /* \"#utility.yul\":21332:21504   */\n      swap1\n      pop\n        /* \"#utility.yul\":21026:21511   */\n      swap3\n      swap2\n      pop\n      pop\n      jump\t// out\n        /* \"#utility.yul\":21517:21697   */\n    tag_520:\n        /* \"#utility.yul\":21565:21642   */\n      0x4e487b7100000000000000000000000000000000000000000000000000000000\n        /* \"#utility.yul\":21562:21563   */\n      0x00\n        /* \"#utility.yul\":21555:21643   */\n      mstore\n        /* \"#utility.yul\":21662:21666   */\n      0x22\n        /* \"#utility.yul\":21659:21660   */\n      0x04\n        /* \"#utility.yul\":21652:21667   */\n      mstore\n        /* \"#utility.yul\":21686:21690   */\n      0x24\n        /* \"#utility.yul\":21683:21684   */\n      0x00\n        /* \"#utility.yul\":21676:21691   */\n      revert\n        /* \"#utility.yul\":21703:22023   */\n    tag_297:\n        /* \"#utility.yul\":21747:21753   */\n      0x00\n        /* \"#utility.yul\":21784:21785   */\n      0x02\n        /* \"#utility.yul\":21778:21782   */\n      dup3\n        /* \"#utility.yul\":21774:21786   */\n      div\n        /* \"#utility.yul\":21764:21786   */\n      swap1\n      pop\n        /* \"#utility.yul\":21831:21832   */\n      0x01\n        /* \"#utility.yul\":21825:21829   */\n      dup3\n        /* \"#utility.yul\":21821:21833   */\n      and\n        /* \"#utility.yul\":21852:21870   */\n      dup1\n        /* \"#utility.yul\":21842:21923   */\n      tag_766\n      jumpi\n        /* \"#utility.yul\":21908:21912   */\n      0x7f\n        /* \"#utility.yul\":21900:21906   */\n      dup3\n        /* \"#utility.yul\":21896:21913   */\n      and\n        /* \"#utility.yul\":21886:21913   */\n      swap2\n      pop\n        /* \"#utility.yul\":21842:21923   */\n    tag_766:\n        /* \"#utility.yul\":21970:21972   */\n      0x20\n        /* \"#utility.yul\":21962:21968   */\n      dup3\n        /* \"#utility.yul\":21959:21973   */\n      lt\n        /* \"#utility.yul\":21939:21957   */\n      dup2\n        /* \"#utility.yul\":21936:21974   */\n      sub\n        /* \"#utility.yul\":21933:22017   */\n      tag_767\n      jumpi\n        /* \"#utility.yul\":21989:22007   */\n      tag_768\n      tag_520\n      jump\t// in\n    tag_768:\n        /* \"#utility.yul\":21933:22017   */\n    tag_767:\n        /* \"#utility.yul\":21754:22023   */\n      pop\n        /* \"#utility.yul\":21703:22023   */\n      swap2\n      swap1\n      pop\n      jump\t// out\n        /* \"#utility.yul\":22029:22170   */\n    tag_521:\n        /* \"#utility.yul\":22078:22082   */\n      0x00\n        /* \"#utility.yul\":22101:22104   */\n      dup2\n        /* \"#utility.yul\":22093:22104   */\n      swap1\n      pop\n        /* \"#utility.yul\":22124:22127   */\n      dup2\n        /* \"#utility.yul\":22121:22122   */\n      0x00\n        /* \"#utility.yul\":22114:22128   */\n      mstore\n        /* \"#utility.yul\":22158:22162   */\n      0x20\n        /* \"#utility.yul\":22155:22156   */\n      0x00\n        /* \"#utility.yul\":22145:22163   */\n      keccak256\n        /* \"#utility.yul\":22137:22163   */\n      swap1\n      pop\n        /* \"#utility.yul\":22029:22170   */\n      swap2\n      swap1\n      pop\n      jump\t// out\n        /* \"#utility.yul\":22176:22269   */\n    tag_522:\n        /* \"#utility.yul\":22213:22219   */\n      0x00\n        /* \"#utility.yul\":22260:22262   */\n      0x20\n        /* \"#utility.yul\":22255:22257   */\n      0x1f\n        /* \"#utility.yul\":22248:22253   */\n      dup4\n        /* \"#utility.yul\":22244:22258   */\n      add\n        /* \"#utility.yul\":22240:22263   */\n      div\n        /* \"#utility.yul\":22230:22263   */\n      swap1\n      pop\n        /* \"#utility.yul\":22176:22269   */\n      swap2\n      swap1\n      pop\n      jump\t// out\n        /* \"#utility.yul\":22275:22382   */\n    tag_523:\n        /* \"#utility.yul\":22319:22327   */\n      0x00\n        /* \"#utility.yul\":22369:22374   */\n      dup3\n        /* \"#utility.yul\":22363:22367   */\n      dup3\n        /* \"#utility.yul\":22359:22375   */\n      shl\n        /* \"#utility.yul\":22338:22375   */\n      swap1\n      pop\n        /* \"#utility.yul\":22275:22382   */\n      swap3\n      swap2\n      pop\n      pop\n      jump\t// out\n        /* \"#utility.yul\":22388:22781   */\n    tag_524:\n        /* \"#utility.yul\":22457:22463   */\n      0x00\n        /* \"#utility.yul\":22507:22508   */\n      0x08\n        /* \"#utility.yul\":22495:22505   */\n      dup4\n        /* \"#utility.yul\":22491:22509   */\n      mul\n        /* \"#utility.yul\":22530:22627   */\n      tag_773\n        /* \"#utility.yul\":22560:22626   */\n      0xffffffffffffffffffffffffffffffffffffffffffffffffffffffffffffffff\n        /* \"#utility.yul\":22549:22558   */\n      dup3\n        /* \"#utility.yul\":22530:22627   */\n      tag_523\n      jump\t// in\n    tag_773:\n        /* \"#utility.yul\":22648:22687   */\n      tag_774\n        /* \"#utility.yul\":22678:22686   */\n      dup7\n        /* \"#utility.yul\":22667:22676   */\n      dup4\n        /* \"#utility.yul\":22648:22687   */\n      tag_523\n      jump\t// in\n    tag_774:\n        /* \"#utility.yul\":22636:22687   */\n      swap6\n      pop\n        /* \"#utility.yul\":22720:22724   */\n      dup1\n        /* \"#utility.yul\":22716:22725   */\n      not\n        /* \"#utility.yul\":22709:22714   */\n      dup5\n        /* \"#utility.yul\":22705:22726   */\n      and\n        /* \"#utility.yul\":22696:22726   */\n      swap4\n      pop\n        /* \"#utility.yul\":22769:22773   */\n      dup1\n        /* \"#utility.yul\":22759:22767   */\n      dup7\n        /* \"#utility.yul\":22755:22774   */\n      and\n        /* \"#utility.yul\":22748:22753   */\n      dup5\n        /* \"#utility.yul\":22745:22775   */\n      or\n        /* \"#utility.yul\":22735:22775   */\n      swap3\n      pop\n        /* \"#utility.yul\":22464:22781   */\n      pop\n      pop\n        /* \"#utility.yul\":22388:22781   */\n      swap4\n      swap3\n      pop\n      pop\n      pop\n      jump\t// out\n        /* \"#utility.yul\":22787:22847   */\n    tag_525:\n        /* \"#utility.yul\":22815:22818   */\n      0x00\n        /* \"#utility.yul\":22836:22841   */\n      dup2\n        /* \"#utility.yul\":22829:22841   */\n      swap1\n      pop\n        /* \"#utility.yul\":22787:22847   */\n      swap2\n      swap1\n      pop\n      jump\t// out\n        /* \"#utility.yul\":22853:22995   */\n    tag_526:\n        /* \"#utility.yul\":22903:22912   */\n      0x00\n        /* \"#utility.yul\":22936:22989   */\n      tag_777\n        /* \"#utility.yul\":22954:22988   */\n      tag_778\n        /* \"#utility.yul\":22963:22987   */\n      tag_779\n        /* \"#utility.yul\":22981:22986   */\n      dup5\n        /* \"#utility.yul\":22963:22987   */\n      tag_483\n      jump\t// in\n    tag_779:\n        /* \"#utility.yul\":22954:22988   */\n      tag_525\n      jump\t// in\n    tag_778:\n        /* \"#utility.yul\":22936:22989   */\n      tag_483\n      jump\t// in\n    tag_777:\n        /* \"#utility.yul\":22923:22989   */\n      swap1\n      pop\n        /* \"#utility.yul\":22853:22995   */\n      swap2\n      swap1\n      pop\n      jump\t// out\n        /* \"#utility.yul\":23001:23076   */\n    tag_527:\n        /* \"#utility.yul\":23044:23047   */\n      0x00\n        /* \"#utility.yul\":23065:23070   */\n      dup2\n        /* \"#utility.yul\":23058:23070   */\n      swap1\n      pop\n        /* \"#utility.yul\":23001:23076   */\n      swap2\n      swap1\n      pop\n      jump\t// out\n        /* \"#utility.yul\":23082:23351   */\n    tag_528:\n        /* \"#utility.yul\":23192:23231   */\n      tag_782\n        /* \"#utility.yul\":23223:23230   */\n      dup4\n        /* \"#utility.yul\":23192:23231   */\n      tag_526\n      jump\t// in\n    tag_782:\n        /* \"#utility.yul\":23253:23344   */\n      tag_783\n        /* \"#utility.yul\":23302:23343   */\n      tag_784\n        /* \"#utility.yul\":23326:23342   */\n      dup3\n        /* \"#utility.yul\":23302:23343   */\n      tag_527\n      jump\t// in\n    tag_784:\n        /* \"#utility.yul\":23294:23300   */\n      dup5\n        /* \"#utility.yul\":23287:23291   */\n      dup5\n        /* \"#utility.yul\":23281:23292   */\n      sload\n        /* \"#utility.yul\":23253:23344   */\n      tag_524\n      jump\t// in\n    tag_783:\n        /* \"#utility.yul\":23247:23251   */\n      dup3\n        /* \"#utility.yul\":23240:23345   */\n      sstore\n        /* \"#utility.yul\":23158:23351   */\n      pop\n        /* \"#utility.yul\":23082:23351   */\n      pop\n      pop\n      pop\n      jump\t// out\n        /* \"#utility.yul\":23357:23430   */\n    tag_529:\n        /* \"#utility.yul\":23402:23405   */\n      0x00\n        /* \"#utility.yul\":23423:23424   */\n      0x00\n        /* \"#utility.yul\":23416:23424   */\n      swap1\n      pop\n        /* \"#utility.yul\":23357:23430   */\n      swap1\n      jump\t// out\n        /* \"#utility.yul\":23436:23625   */\n    tag_530:\n        /* \"#utility.yul\":23513:23545   */\n      tag_787\n      tag_529\n      jump\t// in\n    tag_787:\n        /* \"#utility.yul\":23554:23619   */\n      tag_788\n        /* \"#utility.yul\":23612:23618   */\n      dup2\n        /* \"#utility.yul\":23604:23610   */\n      dup5\n        /* \"#utility.yul\":23598:23602   */\n      dup5\n        /* \"#utility.yul\":23554:23619   */\n      tag_528\n      jump\t// in\n    tag_788:\n        /* \"#utility.yul\":23489:23625   */\n      pop\n        /* \"#utility.yul\":23436:23625   */\n      pop\n      pop\n      jump\t// out\n        /* \"#utility.yul\":23631:23817   */\n    tag_531:\n        /* \"#utility.yul\":23691:23811   */\n    tag_790:\n        /* \"#utility.yul\":23708:23711   */\n      dup2\n        /* \"#utility.yul\":23701:23706   */\n      dup2\n        /* \"#utility.yul\":23698:23712   */\n      lt\n        /* \"#utility.yul\":23691:23811   */\n      iszero\n      tag_792\n      jumpi\n        /* \"#utility.yul\":23762:23801   */\n      tag_793\n        /* \"#utility.yul\":23799:23800   */\n      0x00\n        /* \"#utility.yul\":23792:23797   */\n      dup3\n        /* \"#utility.yul\":23762:23801   */\n      tag_530\n      jump\t// in\n    tag_793:\n        /* \"#utility.yul\":23735:23736   */\n      0x01\n        /* \"#utility.yul\":23728:23733   */\n      dup2\n        /* \"#utility.yul\":23724:23737   */\n      add\n        /* \"#utility.yul\":23715:23737   */\n      swap1\n      pop\n        /* \"#utility.yul\":23691:23811   */\n      jump(tag_790)\n    tag_792:\n        /* \"#utility.yul\":23631:23817   */\n      pop\n      pop\n      jump\t// out\n        /* \"#utility.yul\":23823:24366   */\n    tag_532:\n        /* \"#utility.yul\":23924:23926   */\n      0x1f\n        /* \"#utility.yul\":23919:23922   */\n      dup3\n        /* \"#utility.yul\":23916:23927   */\n      gt\n        /* \"#utility.yul\":23913:24359   */\n      iszero\n      tag_795\n      jumpi\n        /* \"#utility.yul\":23958:23996   */\n      tag_796\n        /* \"#utility.yul\":23990:23995   */\n      dup2\n        /* \"#utility.yul\":23958:23996   */\n      tag_521\n      jump\t// in\n    tag_796:\n        /* \"#utility.yul\":24042:24071   */\n      tag_797\n        /* \"#utility.yul\":24060:24070   */\n      dup5\n        /* \"#utility.yul\":24042:24071   */\n      tag_522\n      jump\t// in\n    tag_797:\n        /* \"#utility.yul\":24032:24040   */\n      dup2\n        /* \"#utility.yul\":24028:24072   */\n      add\n        /* \"#utility.yul\":24225:24227   */\n      0x20\n        /* \"#utility.yul\":24213:24223   */\n      dup6\n        /* \"#utility.yul\":24210:24228   */\n      lt\n        /* \"#utility.yul\":24207:24256   */\n      iszero\n      tag_798\n      jumpi\n        /* \"#utility.yul\":24246:24254   */\n      dup2\n        /* \"#utility.yul\":24231:24254   */\n      swap1\n      pop\n        /* \"#utility.yul\":24207:24256   */\n    tag_798:\n        /* \"#utility.yul\":24269:24349   */\n      tag_799\n        /* \"#utility.yul\":24325:24347   */\n      tag_800\n        /* \"#utility.yul\":24343:24346   */\n      dup6\n        /* \"#utility.yul\":24325:24347   */\n      tag_522\n      jump\t// in\n    tag_800:\n        /* \"#utility.yul\":24315:24323   */\n      dup4\n        /* \"#utility.yul\":24311:24348   */\n      add\n        /* \"#utility.yul\":24298:24309   */\n      dup3\n        /* \"#utility.yul\":24269:24349   */\n      tag_531\n      jump\t// in\n    tag_799:\n        /* \"#utility.yul\":23928:24359   */\n      pop\n      pop\n        /* \"#utility.yul\":23913:24359   */\n    tag_795:\n        /* \"#utility.yul\":23823:24366   */\n      pop\n      pop\n      pop\n      jump\t// out\n        /* \"#utility.yul\":24372:24489   */\n    tag_533:\n        /* \"#utility.yul\":24426:24434   */\n      0x00\n        /* \"#utility.yul\":24476:24481   */\n      dup3\n        /* \"#utility.yul\":24470:24474   */\n      dup3\n        /* \"#utility.yul\":24466:24482   */\n      shr\n        /* \"#utility.yul\":24445:24482   */\n      swap1\n      pop\n        /* \"#utility.yul\":24372:24489   */\n      swap3\n      swap2\n      pop\n      pop\n      jump\t// out\n        /* \"#utility.yul\":24495:24664   */\n    tag_534:\n        /* \"#utility.yul\":24539:24545   */\n      0x00\n        /* \"#utility.yul\":24572:24623   */\n      tag_803\n        /* \"#utility.yul\":24620:24621   */\n      0x00\n        /* \"#utility.yul\":24616:24622   */\n      not\n        /* \"#utility.yul\":24608:24613   */\n      dup5\n        /* \"#utility.yul\":24605:24606   */\n      0x08\n        /* \"#utility.yul\":24601:24614   */\n      mul\n        /* \"#utility.yul\":24572:24623   */\n      tag_533\n      jump\t// in\n    tag_803:\n        /* \"#utility.yul\":24568:24624   */\n      not\n        /* \"#utility.yul\":24653:24657   */\n      dup1\n        /* \"#utility.yul\":24647:24651   */\n      dup4\n        /* \"#utility.yul\":24643:24658   */\n      and\n        /* \"#utility.yul\":24633:24658   */\n      swap2\n      pop\n        /* \"#utility.yul\":24546:24664   */\n      pop\n        /* \"#utility.yul\":24495:24664   */\n      swap3\n      swap2\n      pop\n      pop\n      jump\t// out\n        /* \"#utility.yul\":24669:24964   */\n    tag_535:\n        /* \"#utility.yul\":24745:24749   */\n      0x00\n        /* \"#utility.yul\":24891:24920   */\n      tag_805\n        /* \"#utility.yul\":24916:24919   */\n      dup4\n        /* \"#utility.yul\":24910:24914   */\n      dup4\n        /* \"#utility.yul\":24891:24920   */\n      tag_534\n      jump\t// in\n    tag_805:\n        /* \"#utility.yul\":24883:24920   */\n      swap2\n      pop\n        /* \"#utility.yul\":24953:24956   */\n      dup3\n        /* \"#utility.yul\":24950:24951   */\n      0x02\n        /* \"#utility.yul\":24946:24957   */\n      mul\n        /* \"#utility.yul\":24940:24944   */\n      dup3\n        /* \"#utility.yul\":24937:24958   */\n      or\n        /* \"#utility.yul\":24929:24958   */\n      swap1\n      pop\n        /* \"#utility.yul\":24669:24964   */\n      swap3\n      swap2\n      pop\n      pop\n      jump\t// out\n        /* \"#utility.yul\":24969:26364   */\n    tag_214:\n        /* \"#utility.yul\":25086:25123   */\n      tag_807\n        /* \"#utility.yul\":25119:25122   */\n      dup3\n        /* \"#utility.yul\":25086:25123   */\n      tag_503\n      jump\t// in\n    tag_807:\n        /* \"#utility.yul\":25188:25206   */\n      0xffffffffffffffff\n        /* \"#utility.yul\":25180:25186   */\n      dup2\n        /* \"#utility.yul\":25177:25207   */\n      gt\n        /* \"#utility.yul\":25174:25230   */\n      iszero\n      tag_808\n      jumpi\n        /* \"#utility.yul\":25210:25228   */\n      tag_809\n      tag_471\n      jump\t// in\n    tag_809:\n        /* \"#utility.yul\":25174:25230   */\n    tag_808:\n        /* \"#utility.yul\":25254:25292   */\n      tag_810\n        /* \"#utility.yul\":25286:25290   */\n      dup3\n        /* \"#utility.yul\":25280:25291   */\n      sload\n        /* \"#utility.yul\":25254:25292   */\n      tag_297\n      jump\t// in\n    tag_810:\n        /* \"#utility.yul\":25339:25406   */\n      tag_811\n        /* \"#utility.yul\":25399:25405   */\n      dup3\n        /* \"#utility.yul\":25391:25397   */\n      dup3\n        /* \"#utility.yul\":25385:25389   */\n      dup6\n        /* \"#utility.yul\":25339:25406   */\n      tag_532\n      jump\t// in\n    tag_811:\n        /* \"#utility.yul\":25433:25434   */\n      0x00\n        /* \"#utility.yul\":25457:25461   */\n      0x20\n        /* \"#utility.yul\":25444:25461   */\n      swap1\n      pop\n        /* \"#utility.yul\":25489:25491   */\n      0x1f\n        /* \"#utility.yul\":25481:25487   */\n      dup4\n        /* \"#utility.yul\":25478:25492   */\n      gt\n        /* \"#utility.yul\":25506:25507   */\n      0x01\n        /* \"#utility.yul\":25501:26119   */\n      dup2\n      eq\n      tag_813\n      jumpi\n        /* \"#utility.yul\":26163:26164   */\n      0x00\n        /* \"#utility.yul\":26180:26186   */\n      dup5\n        /* \"#utility.yul\":26177:26254   */\n      iszero\n      tag_814\n      jumpi\n        /* \"#utility.yul\":26229:26238   */\n      dup3\n        /* \"#utility.yul\":26224:26227   */\n      dup8\n        /* \"#utility.yul\":26220:26239   */\n      add\n        /* \"#utility.yul\":26214:26240   */\n      mload\n        /* \"#utility.yul\":26205:26240   */\n      swap1\n      pop\n        /* \"#utility.yul\":26177:26254   */\n    tag_814:\n        /* \"#utility.yul\":26280:26347   */\n      tag_815\n        /* \"#utility.yul\":26340:26346   */\n      dup6\n        /* \"#utility.yul\":26333:26338   */\n      dup3\n        /* \"#utility.yul\":26280:26347   */\n      tag_535\n      jump\t// in\n    tag_815:\n        /* \"#utility.yul\":26274:26278   */\n      dup7\n        /* \"#utility.yul\":26267:26348   */\n      sstore\n        /* \"#utility.yul\":26136:26358   */\n      pop\n        /* \"#utility.yul\":25471:26358   */\n      jump(tag_812)\n        /* \"#utility.yul\":25501:26119   */\n    tag_813:\n        /* \"#utility.yul\":25553:25557   */\n      0x1f\n        /* \"#utility.yul\":25549:25558   */\n      not\n        /* \"#utility.yul\":25541:25547   */\n      dup5\n        /* \"#utility.yul\":25537:25559   */\n      and\n        /* \"#utility.yul\":25587:25624   */\n      tag_816\n        /* \"#utility.yul\":25619:25623   */\n      dup7\n        /* \"#utility.yul\":25587:25624   */\n      tag_521\n      jump\t// in\n    tag_816:\n        /* \"#utility.yul\":25646:25647   */\n      0x00\n        /* \"#utility.yul\":25660:25868   */\n    tag_817:\n        /* \"#utility.yul\":25674:25681   */\n      dup3\n        /* \"#utility.yul\":25671:25672   */\n      dup2\n        /* \"#utility.yul\":25668:25682   */\n      lt\n        /* \"#utility.yul\":25660:25868   */\n      iszero\n      tag_819\n      jumpi\n        /* \"#utility.yul\":25753:25762   */\n      dup5\n        /* \"#utility.yul\":25748:25751   */\n      dup10\n        /* \"#utility.yul\":25744:25763   */\n      add\n        /* \"#utility.yul\":25738:25764   */\n      mload\n        /* \"#utility.yul\":25730:25736   */\n      dup3\n        /* \"#utility.yul\":25723:25765   */\n      sstore\n        /* \"#utility.yul\":25804:25805   */\n      0x01\n        /* \"#utility.yul\":25796:25802   */\n      dup3\n        /* \"#utility.yul\":25792:25806   */\n      add\n        /* \"#utility.yul\":25782:25806   */\n      swap2\n      pop\n        /* \"#utility.yul\":25851:25853   */\n      0x20\n        /* \"#utility.yul\":25840:25849   */\n      dup6\n        /* \"#utility.yul\":25836:25854   */\n      add\n        /* \"#utility.yul\":25823:25854   */\n      swap5\n      pop\n        /* \"#utility.yul\":25697:25701   */\n      0x20\n        /* \"#utility.yul\":25694:25695   */\n      dup2\n        /* \"#utility.yul\":25690:25702   */\n      add\n        /* \"#utility.yul\":25685:25702   */\n      swap1\n      pop\n        /* \"#utility.yul\":25660:25868   */\n      jump(tag_817)\n    tag_819:\n        /* \"#utility.yul\":25896:25902   */\n      dup7\n        /* \"#utility.yul\":25887:25894   */\n      dup4\n        /* \"#utility.yul\":25884:25903   */\n      lt\n        /* \"#utility.yul\":25881:26060   */\n      iszero\n      tag_820\n      jumpi\n        /* \"#utility.yul\":25954:25963   */\n      dup5\n        /* \"#utility.yul\":25949:25952   */\n      dup10\n        /* \"#utility.yul\":25945:25964   */\n      add\n        /* \"#utility.yul\":25939:25965   */\n      mload\n        /* \"#utility.yul\":25997:26045   */\n      tag_821\n        /* \"#utility.yul\":26039:26043   */\n      0x1f\n        /* \"#utility.yul\":26031:26037   */\n      dup10\n        /* \"#utility.yul\":26027:26044   */\n      and\n        /* \"#utility.yul\":26016:26025   */\n      dup3\n        /* \"#utility.yul\":25997:26045   */\n      tag_534\n      jump\t// in\n    tag_821:\n        /* \"#utility.yul\":25989:25995   */\n      dup4\n        /* \"#utility.yul\":25982:26046   */\n      sstore\n        /* \"#utility.yul\":25904:26060   */\n      pop\n        /* \"#utility.yul\":25881:26060   */\n    tag_820:\n        /* \"#utility.yul\":26106:26107   */\n      0x01\n        /* \"#utility.yul\":26102:26103   */\n      0x02\n        /* \"#utility.yul\":26094:26100   */\n      dup9\n        /* \"#utility.yul\":26090:26104   */\n      mul\n        /* \"#utility.yul\":26086:26108   */\n      add\n        /* \"#utility.yul\":26080:26084   */\n      dup9\n        /* \"#utility.yul\":26073:26109   */\n      sstore\n        /* \"#utility.yul\":25508:26119   */\n      pop\n      pop\n      pop\n        /* \"#utility.yul\":25471:26358   */\n    tag_812:\n      pop\n        /* \"#utility.yul\":25061:26364   */\n      pop\n      pop\n      pop\n        /* \"#utility.yul\":24969:26364   */\n      pop\n      pop\n      jump\t// out\n        /* \"#utility.yul\":26370:26683   */\n    tag_216:\n        /* \"#utility.yul\":26483:26487   */\n      0x00\n        /* \"#utility.yul\":26521:26523   */\n      0x20\n        /* \"#utility.yul\":26510:26519   */\n      dup3\n        /* \"#utility.yul\":26506:26524   */\n      add\n        /* \"#utility.yul\":26498:26524   */\n      swap1\n      pop\n        /* \"#utility.yul\":26570:26579   */\n      dup2\n        /* \"#utility.yul\":26564:26568   */\n      dup2\n        /* \"#utility.yul\":26560:26580   */\n      sub\n        /* \"#utility.yul\":26556:26557   */\n      0x00\n        /* \"#utility.yul\":26545:26554   */\n      dup4\n        /* \"#utility.yul\":26541:26558   */\n      add\n        /* \"#utility.yul\":26534:26581   */\n      mstore\n        /* \"#utility.yul\":26598:26676   */\n      tag_823\n        /* \"#utility.yul\":26671:26675   */\n      dup2\n        /* \"#utility.yul\":26662:26668   */\n      dup5\n        /* \"#utility.yul\":26598:26676   */\n      tag_512\n      jump\t// in\n    tag_823:\n        /* \"#utility.yul\":26590:26676   */\n      swap1\n      pop\n        /* \"#utility.yul\":26370:26683   */\n      swap3\n      swap2\n      pop\n      pop\n      jump\t// out\n        /* \"#utility.yul\":26689:26837   */\n    tag_536:\n        /* \"#utility.yul\":26791:26802   */\n      0x00\n        /* \"#utility.yul\":26828:26831   */\n      dup2\n        /* \"#utility.yul\":26813:26831   */\n      swap1\n      pop\n        /* \"#utility.yul\":26689:26837   */\n      swap3\n      swap2\n      pop\n      pop\n      jump\t// out\n        /* \"#utility.yul\":26843:27233   */\n    tag_537:\n        /* \"#utility.yul\":26949:26952   */\n      0x00\n        /* \"#utility.yul\":26977:27016   */\n      tag_826\n        /* \"#utility.yul\":27010:27015   */\n      dup3\n        /* \"#utility.yul\":26977:27016   */\n      tag_503\n      jump\t// in\n    tag_826:\n        /* \"#utility.yul\":27032:27121   */\n      tag_827\n        /* \"#utility.yul\":27114:27120   */\n      dup2\n        /* \"#utility.yul\":27109:27112   */\n      dup6\n        /* \"#utility.yul\":27032:27121   */\n      tag_536\n      jump\t// in\n    tag_827:\n        /* \"#utility.yul\":27025:27121   */\n      swap4\n      pop\n        /* \"#utility.yul\":27130:27195   */\n      tag_828\n        /* \"#utility.yul\":27188:27194   */\n      dup2\n        /* \"#utility.yul\":27183:27186   */\n      dup6\n        /* \"#utility.yul\":27176:27180   */\n      0x20\n        /* \"#utility.yul\":27169:27174   */\n      dup7\n        /* \"#utility.yul\":27165:27181   */\n      add\n        /* \"#utility.yul\":27130:27195   */\n      tag_505\n      jump\t// in\n    tag_828:\n        /* \"#utility.yul\":27220:27226   */\n      dup1\n        /* \"#utility.yul\":27215:27218   */\n      dup5\n        /* \"#utility.yul\":27211:27227   */\n      add\n        /* \"#utility.yul\":27204:27227   */\n      swap2\n      pop\n        /* \"#utility.yul\":26953:27233   */\n      pop\n        /* \"#utility.yul\":26843:27233   */\n      swap3\n      swap2\n      pop\n      pop\n      jump\t// out\n        /* \"#utility.yul\":27239:27514   */\n    tag_226:\n        /* \"#utility.yul\":27371:27374   */\n      0x00\n        /* \"#utility.yul\":27393:27488   */\n      tag_830\n        /* \"#utility.yul\":27484:27487   */\n      dup3\n        /* \"#utility.yul\":27475:27481   */\n      dup5\n        /* \"#utility.yul\":27393:27488   */\n      tag_537\n      jump\t// in\n    tag_830:\n        /* \"#utility.yul\":27386:27488   */\n      swap2\n      pop\n        /* \"#utility.yul\":27505:27508   */\n      dup2\n        /* \"#utility.yul\":27498:27508   */\n      swap1\n      pop\n        /* \"#utility.yul\":27239:27514   */\n      swap3\n      swap2\n      pop\n      pop\n      jump\t// out\n        /* \"#utility.yul\":27520:27700   */\n    tag_538:\n        /* \"#utility.yul\":27568:27645   */\n      0x4e487b7100000000000000000000000000000000000000000000000000000000\n        /* \"#utility.yul\":27565:27566   */\n      0x00\n        /* \"#utility.yul\":27558:27646   */\n      mstore\n        /* \"#utility.yul\":27665:27669   */\n      0x11\n        /* \"#utility.yul\":27662:27663   */\n      0x04\n        /* \"#utility.yul\":27655:27670   */\n      mstore\n        /* \"#utility.yul\":27689:27693   */\n      0x24\n        /* \"#utility.yul\":27686:27687   */\n      0x00\n        /* \"#utility.yul\":27679:27694   */\n      revert\n        /* \"#utility.yul\":27706:27939   */\n    tag_249:\n        /* \"#utility.yul\":27745:27748   */\n      0x00\n        /* \"#utility.yul\":27768:27792   */\n      tag_833\n        /* \"#utility.yul\":27786:27791   */\n      dup3\n        /* \"#utility.yul\":27768:27792   */\n      tag_483\n      jump\t// in\n    tag_833:\n        /* \"#utility.yul\":27759:27792   */\n      swap2\n      pop\n        /* \"#utility.yul\":27814:27880   */\n      0xffffffffffffffffffffffffffffffffffffffffffffffffffffffffffffffff\n        /* \"#utility.yul\":27807:27812   */\n      dup3\n        /* \"#utility.yul\":27804:27881   */\n      sub\n        /* \"#utility.yul\":27801:27904   */\n      tag_834\n      jumpi\n        /* \"#utility.yul\":27884:27902   */\n      tag_835\n      tag_538\n      jump\t// in\n    tag_835:\n        /* \"#utility.yul\":27801:27904   */\n    tag_834:\n        /* \"#utility.yul\":27931:27932   */\n      0x01\n        /* \"#utility.yul\":27924:27929   */\n      dup3\n        /* \"#utility.yul\":27920:27933   */\n      add\n        /* \"#utility.yul\":27913:27933   */\n      swap1\n      pop\n        /* \"#utility.yul\":27706:27939   */\n      swap2\n      swap1\n      pop\n      jump\t// out\n        /* \"#utility.yul\":27945:28039   */\n    tag_539:\n        /* \"#utility.yul\":27978:27986   */\n      0x00\n        /* \"#utility.yul\":28026:28031   */\n      dup2\n        /* \"#utility.yul\":28022:28024   */\n      0x60\n        /* \"#utility.yul\":28018:28032   */\n      shl\n        /* \"#utility.yul\":27997:28032   */\n      swap1\n      pop\n        /* \"#utility.yul\":27945:28039   */\n      swap2\n      swap1\n      pop\n      jump\t// out\n        /* \"#utility.yul\":28045:28139   */\n    tag_540:\n        /* \"#utility.yul\":28084:28091   */\n      0x00\n        /* \"#utility.yul\":28113:28133   */\n      tag_838\n        /* \"#utility.yul\":28127:28132   */\n      dup3\n        /* \"#utility.yul\":28113:28133   */\n      tag_539\n      jump\t// in\n    tag_838:\n        /* \"#utility.yul\":28102:28133   */\n      swap1\n      pop\n        /* \"#utility.yul\":28045:28139   */\n      swap2\n      swap1\n      pop\n      jump\t// out\n        /* \"#utility.yul\":28145:28245   */\n    tag_541:\n        /* \"#utility.yul\":28184:28191   */\n      0x00\n        /* \"#utility.yul\":28213:28239   */\n      tag_840\n        /* \"#utility.yul\":28233:28238   */\n      dup3\n        /* \"#utility.yul\":28213:28239   */\n      tag_540\n      jump\t// in\n    tag_840:\n        /* \"#utility.yul\":28202:28239   */\n      swap1\n      pop\n        /* \"#utility.yul\":28145:28245   */\n      swap2\n      swap1\n      pop\n      jump\t// out\n        /* \"#utility.yul\":28251:28408   */\n    tag_542:\n        /* \"#utility.yul\":28356:28401   */\n      tag_842\n        /* \"#utility.yul\":28376:28400   */\n      tag_843\n        /* \"#utility.yul\":28394:28399   */\n      dup3\n        /* \"#utility.yul\":28376:28400   */\n      tag_487\n      jump\t// in\n    tag_843:\n        /* \"#utility.yul\":28356:28401   */\n      tag_541\n      jump\t// in\n    tag_842:\n        /* \"#utility.yul\":28351:28354   */\n      dup3\n        /* \"#utility.yul\":28344:28402   */\n      mstore\n        /* \"#utility.yul\":28251:28408   */\n      pop\n      pop\n      jump\t// out\n        /* \"#utility.yul\":28414:28493   */\n    tag_543:\n        /* \"#utility.yul\":28453:28460   */\n      0x00\n        /* \"#utility.yul\":28482:28487   */\n      dup2\n        /* \"#utility.yul\":28471:28487   */\n      swap1\n      pop\n        /* \"#utility.yul\":28414:28493   */\n      swap2\n      swap1\n      pop\n      jump\t// out\n        /* \"#utility.yul\":28499:28656   */\n    tag_544:\n        /* \"#utility.yul\":28604:28649   */\n      tag_846\n        /* \"#utility.yul\":28624:28648   */\n      tag_847\n        /* \"#utility.yul\":28642:28647   */\n      dup3\n        /* \"#utility.yul\":28624:28648   */\n      tag_483\n      jump\t// in\n    tag_847:\n        /* \"#utility.yul\":28604:28649   */\n      tag_543\n      jump\t// in\n    tag_846:\n        /* \"#utility.yul\":28599:28602   */\n      dup3\n        /* \"#utility.yul\":28592:28650   */\n      mstore\n        /* \"#utility.yul\":28499:28656   */\n      pop\n      pop\n      jump\t// out\n        /* \"#utility.yul\":28662:29200   */\n    tag_316:\n        /* \"#utility.yul\":28830:28833   */\n      0x00\n        /* \"#utility.yul\":28845:28920   */\n      tag_849\n        /* \"#utility.yul\":28916:28919   */\n      dup3\n        /* \"#utility.yul\":28907:28913   */\n      dup7\n        /* \"#utility.yul\":28845:28920   */\n      tag_542\n      jump\t// in\n    tag_849:\n        /* \"#utility.yul\":28945:28947   */\n      0x14\n        /* \"#utility.yul\":28940:28943   */\n      dup3\n        /* \"#utility.yul\":28936:28948   */\n      add\n        /* \"#utility.yul\":28929:28948   */\n      swap2\n      pop\n        /* \"#utility.yul\":28958:29033   */\n      tag_850\n        /* \"#utility.yul\":29029:29032   */\n      dup3\n        /* \"#utility.yul\":29020:29026   */\n      dup6\n        /* \"#utility.yul\":28958:29033   */\n      tag_544\n      jump\t// in\n    tag_850:\n        /* \"#utility.yul\":29058:29060   */\n      0x20\n        /* \"#utility.yul\":29053:29056   */\n      dup3\n        /* \"#utility.yul\":29049:29061   */\n      add\n        /* \"#utility.yul\":29042:29061   */\n      swap2\n      pop\n        /* \"#utility.yul\":29071:29146   */\n      tag_851\n        /* \"#utility.yul\":29142:29145   */\n      dup3\n        /* \"#utility.yul\":29133:29139   */\n      dup5\n        /* \"#utility.yul\":29071:29146   */\n      tag_544\n      jump\t// in\n    tag_851:\n        /* \"#utility.yul\":29171:29173   */\n      0x20\n        /* \"#utility.yul\":29166:29169   */\n      dup3\n        /* \"#utility.yul\":29162:29174   */\n      add\n        /* \"#utility.yul\":29155:29174   */\n      swap2\n      pop\n        /* \"#utility.yul\":29191:29194   */\n      dup2\n        /* \"#utility.yul\":29184:29194   */\n      swap1\n      pop\n        /* \"#utility.yul\":28662:29200   */\n      swap5\n      swap4\n      pop\n      pop\n      pop\n      pop\n      jump\t// out\n        /* \"#utility.yul\":29206:29400   */\n    tag_368:\n        /* \"#utility.yul\":29246:29250   */\n      0x00\n        /* \"#utility.yul\":29266:29286   */\n      tag_853\n        /* \"#utility.yul\":29284:29285   */\n      dup3\n        /* \"#utility.yul\":29266:29286   */\n      tag_483\n      jump\t// in\n    tag_853:\n        /* \"#utility.yul\":29261:29286   */\n      swap2\n      pop\n        /* \"#utility.yul\":29300:29320   */\n      tag_854\n        /* \"#utility.yul\":29318:29319   */\n      dup4\n        /* \"#utility.yul\":29300:29320   */\n      tag_483\n      jump\t// in\n    tag_854:\n        /* \"#utility.yul\":29295:29320   */\n      swap3\n      pop\n        /* \"#utility.yul\":29344:29345   */\n      dup3\n        /* \"#utility.yul\":29341:29342   */\n      dup3\n        /* \"#utility.yul\":29337:29346   */\n      sub\n        /* \"#utility.yul\":29329:29346   */\n      swap1\n      pop\n        /* \"#utility.yul\":29368:29369   */\n      dup2\n        /* \"#utility.yul\":29362:29366   */\n      dup2\n        /* \"#utility.yul\":29359:29370   */\n      gt\n        /* \"#utility.yul\":29356:29393   */\n      iszero\n      tag_855\n      jumpi\n        /* \"#utility.yul\":29373:29391   */\n      tag_856\n      tag_538\n      jump\t// in\n    tag_856:\n        /* \"#utility.yul\":29356:29393   */\n    tag_855:\n        /* \"#utility.yul\":29206:29400   */\n      swap3\n      swap2\n      pop\n      pop\n      jump\t// out\n        /* \"#utility.yul\":29406:29829   */\n    tag_371:\n        /* \"#utility.yul\":29547:29551   */\n      0x00\n        /* \"#utility.yul\":29585:29587   */\n      0x40\n        /* \"#utility.yul\":29574:29583   */\n      dup3\n        /* \"#utility.yul\":29570:29588   */\n      add\n        /* \"#utility.yul\":29562:29588   */\n      swap1\n      pop\n        /* \"#utility.yul\":29598:29669   */\n      tag_858\n        /* \"#utility.yul\":29666:29667   */\n      0x00\n        /* \"#utility.yul\":29655:29664   */\n      dup4\n        /* \"#utility.yul\":29651:29668   */\n      add\n        /* \"#utility.yul\":29642:29648   */\n      dup6\n        /* \"#utility.yul\":29598:29669   */\n      tag_494\n      jump\t// in\n    tag_858:\n        /* \"#utility.yul\":29716:29725   */\n      dup2\n        /* \"#utility.yul\":29710:29714   */\n      dup2\n        /* \"#utility.yul\":29706:29726   */\n      sub\n        /* \"#utility.yul\":29701:29703   */\n      0x20\n        /* \"#utility.yul\":29690:29699   */\n      dup4\n        /* \"#utility.yul\":29686:29704   */\n      add\n        /* \"#utility.yul\":29679:29727   */\n      mstore\n        /* \"#utility.yul\":29744:29822   */\n      tag_859\n        /* \"#utility.yul\":29817:29821   */\n      dup2\n        /* \"#utility.yul\":29808:29814   */\n      dup5\n        /* \"#utility.yul\":29744:29822   */\n      tag_512\n      jump\t// in\n    tag_859:\n        /* \"#utility.yul\":29736:29822   */\n      swap1\n      pop\n        /* \"#utility.yul\":29406:29829   */\n      swap4\n      swap3\n      pop\n      pop\n      pop\n      jump\t// out\n        /* \"#utility.yul\":29835:30001   */\n    tag_545:\n        /* \"#utility.yul\":29975:29993   */\n      0x5061757361626c653a2070617573656400000000000000000000000000000000\n        /* \"#utility.yul\":29971:29972   */\n      0x00\n        /* \"#utility.yul\":29963:29969   */\n      dup3\n        /* \"#utility.yul\":29959:29973   */\n      add\n        /* \"#utility.yul\":29952:29994   */\n      mstore\n        /* \"#utility.yul\":29835:30001   */\n      pop\n      jump\t// out\n        /* \"#utility.yul\":30007:30373   */\n    tag_546:\n        /* \"#utility.yul\":30149:30152   */\n      0x00\n        /* \"#utility.yul\":30170:30237   */\n      tag_862\n        /* \"#utility.yul\":30234:30236   */\n      0x10\n        /* \"#utility.yul\":30229:30232   */\n      dup4\n        /* \"#utility.yul\":30170:30237   */\n      tag_511\n      jump\t// in\n    tag_862:\n        /* \"#utility.yul\":30163:30237   */\n      swap2\n      pop\n        /* \"#utility.yul\":30246:30339   */\n      tag_863\n        /* \"#utility.yul\":30335:30338   */\n      dup3\n        /* \"#utility.yul\":30246:30339   */\n      tag_545\n      jump\t// in\n    tag_863:\n        /* \"#utility.yul\":30364:30366   */\n      0x20\n        /* \"#utility.yul\":30359:30362   */\n      dup3\n        /* \"#utility.yul\":30355:30367   */\n      add\n        /* \"#utility.yul\":30348:30367   */\n      swap1\n      pop\n        /* \"#utility.yul\":30007:30373   */\n      swap2\n      swap1\n      pop\n      jump\t// out\n        /* \"#utility.yul\":30379:30798   */\n    tag_376:\n        /* \"#utility.yul\":30545:30549   */\n      0x00\n        /* \"#utility.yul\":30583:30585   */\n      0x20\n        /* \"#utility.yul\":30572:30581   */\n      dup3\n        /* \"#utility.yul\":30568:30586   */\n      add\n        /* \"#utility.yul\":30560:30586   */\n      swap1\n      pop\n        /* \"#utility.yul\":30632:30641   */\n      dup2\n        /* \"#utility.yul\":30626:30630   */\n      dup2\n        /* \"#utility.yul\":30622:30642   */\n      sub\n        /* \"#utility.yul\":30618:30619   */\n      0x00\n        /* \"#utility.yul\":30607:30616   */\n      dup4\n        /* \"#utility.yul\":30603:30620   */\n      add\n        /* \"#utility.yul\":30596:30643   */\n      mstore\n        /* \"#utility.yul\":30660:30791   */\n      tag_865\n        /* \"#utility.yul\":30786:30790   */\n      dup2\n        /* \"#utility.yul\":30660:30791   */\n      tag_546\n      jump\t// in\n    tag_865:\n        /* \"#utility.yul\":30652:30791   */\n      swap1\n      pop\n        /* \"#utility.yul\":30379:30798   */\n      swap2\n      swap1\n      pop\n      jump\t// out\n        /* \"#utility.yul\":30804:30984   */\n    tag_390:\n        /* \"#utility.yul\":30852:30929   */\n      0x4e487b7100000000000000000000000000000000000000000000000000000000\n        /* \"#utility.yul\":30849:30850   */\n      0x00\n        /* \"#utility.yul\":30842:30930   */\n      mstore\n        /* \"#utility.yul\":30949:30953   */\n      0x32\n        /* \"#utility.yul\":30946:30947   */\n      0x04\n        /* \"#utility.yul\":30939:30954   */\n      mstore\n        /* \"#utility.yul\":30973:30977   */\n      0x24\n        /* \"#utility.yul\":30970:30971   */\n      0x00\n        /* \"#utility.yul\":30963:30978   */\n      revert\n        /* \"#utility.yul\":30990:31137   */\n    tag_547:\n        /* \"#utility.yul\":31091:31102   */\n      0x00\n        /* \"#utility.yul\":31128:31131   */\n      dup2\n        /* \"#utility.yul\":31113:31131   */\n      swap1\n      pop\n        /* \"#utility.yul\":30990:31137   */\n      swap3\n      swap2\n      pop\n      pop\n      jump\t// out\n        /* \"#utility.yul\":31143:31287   */\n    tag_548:\n        /* \"#utility.yul\":31195:31199   */\n      0x00\n        /* \"#utility.yul\":31218:31221   */\n      dup2\n        /* \"#utility.yul\":31210:31221   */\n      swap1\n      pop\n        /* \"#utility.yul\":31241:31244   */\n      dup2\n        /* \"#utility.yul\":31238:31239   */\n      0x00\n        /* \"#utility.yul\":31231:31245   */\n      mstore\n        /* \"#utility.yul\":31275:31279   */\n      0x20\n        /* \"#utility.yul\":31272:31273   */\n      0x00\n        /* \"#utility.yul\":31262:31280   */\n      keccak256\n        /* \"#utility.yul\":31254:31280   */\n      swap1\n      pop\n        /* \"#utility.yul\":31143:31287   */\n      swap2\n      swap1\n      pop\n      jump\t// out\n        /* \"#utility.yul\":31315:32193   */\n    tag_549:\n        /* \"#utility.yul\":31420:31423   */\n      0x00\n        /* \"#utility.yul\":31457:31462   */\n      dup2\n        /* \"#utility.yul\":31451:31463   */\n      sload\n        /* \"#utility.yul\":31486:31522   */\n      tag_870\n        /* \"#utility.yul\":31512:31521   */\n      dup2\n        /* \"#utility.yul\":31486:31522   */\n      tag_297\n      jump\t// in\n    tag_870:\n        /* \"#utility.yul\":31538:31626   */\n      tag_871\n        /* \"#utility.yul\":31619:31625   */\n      dup2\n        /* \"#utility.yul\":31614:31617   */\n      dup7\n        /* \"#utility.yul\":31538:31626   */\n      tag_547\n      jump\t// in\n    tag_871:\n        /* \"#utility.yul\":31531:31626   */\n      swap5\n      pop\n        /* \"#utility.yul\":31657:31658   */\n      0x01\n        /* \"#utility.yul\":31646:31655   */\n      dup3\n        /* \"#utility.yul\":31642:31659   */\n      and\n        /* \"#utility.yul\":31673:31674   */\n      0x00\n        /* \"#utility.yul\":31668:31834   */\n      dup2\n      eq\n      tag_873\n      jumpi\n        /* \"#utility.yul\":31848:31849   */\n      0x01\n        /* \"#utility.yul\":31843:32187   */\n      dup2\n      eq\n      tag_874\n      jumpi\n        /* \"#utility.yul\":31635:32187   */\n      jump(tag_872)\n        /* \"#utility.yul\":31668:31834   */\n    tag_873:\n        /* \"#utility.yul\":31752:31756   */\n      0xff\n        /* \"#utility.yul\":31748:31757   */\n      not\n        /* \"#utility.yul\":31737:31746   */\n      dup4\n        /* \"#utility.yul\":31733:31758   */\n      and\n        /* \"#utility.yul\":31728:31731   */\n      dup7\n        /* \"#utility.yul\":31721:31759   */\n      mstore\n        /* \"#utility.yul\":31814:31820   */\n      dup2\n        /* \"#utility.yul\":31807:31821   */\n      iszero\n        /* \"#utility.yul\":31800:31822   */\n      iszero\n        /* \"#utility.yul\":31792:31798   */\n      dup3\n        /* \"#utility.yul\":31788:31823   */\n      mul\n        /* \"#utility.yul\":31783:31786   */\n      dup7\n        /* \"#utility.yul\":31779:31824   */\n      add\n        /* \"#utility.yul\":31772:31824   */\n      swap4\n      pop\n        /* \"#utility.yul\":31668:31834   */\n      jump(tag_872)\n        /* \"#utility.yul\":31843:32187   */\n    tag_874:\n        /* \"#utility.yul\":31910:31951   */\n      tag_875\n        /* \"#utility.yul\":31945:31950   */\n      dup6\n        /* \"#utility.yul\":31910:31951   */\n      tag_548\n      jump\t// in\n    tag_875:\n        /* \"#utility.yul\":31973:31974   */\n      0x00\n        /* \"#utility.yul\":31987:32141   */\n    tag_876:\n        /* \"#utility.yul\":32001:32007   */\n      dup4\n        /* \"#utility.yul\":31998:31999   */\n      dup2\n        /* \"#utility.yul\":31995:32008   */\n      lt\n        /* \"#utility.yul\":31987:32141   */\n      iszero\n      tag_878\n      jumpi\n        /* \"#utility.yul\":32075:32082   */\n      dup2\n        /* \"#utility.yul\":32069:32083   */\n      sload\n        /* \"#utility.yul\":32065:32066   */\n      dup2\n        /* \"#utility.yul\":32060:32063   */\n      dup10\n        /* \"#utility.yul\":32056:32067   */\n      add\n        /* \"#utility.yul\":32049:32084   */\n      mstore\n        /* \"#utility.yul\":32125:32126   */\n      0x01\n        /* \"#utility.yul\":32116:32123   */\n      dup3\n        /* \"#utility.yul\":32112:32127   */\n      add\n        /* \"#utility.yul\":32101:32127   */\n      swap2\n      pop\n        /* \"#utility.yul\":32023:32027   */\n      0x20\n        /* \"#utility.yul\":32020:32021   */\n      dup2\n        /* \"#utility.yul\":32016:32028   */\n      add\n        /* \"#utility.yul\":32011:32028   */\n      swap1\n      pop\n        /* \"#utility.yul\":31987:32141   */\n      jump(tag_876)\n    tag_878:\n        /* \"#utility.yul\":32170:32176   */\n      dup4\n        /* \"#utility.yul\":32165:32168   */\n      dup9\n        /* \"#utility.yul\":32161:32177   */\n      add\n        /* \"#utility.yul\":32154:32177   */\n      swap6\n      pop\n        /* \"#utility.yul\":31850:32187   */\n      pop\n      pop\n        /* \"#utility.yul\":31635:32187   */\n    tag_872:\n      pop\n        /* \"#utility.yul\":31424:32193   */\n      pop\n      pop\n        /* \"#utility.yul\":31315:32193   */\n      swap3\n      swap2\n      pop\n      pop\n      jump\t// out\n        /* \"#utility.yul\":32199:32472   */\n    tag_393:\n        /* \"#utility.yul\":32330:32333   */\n      0x00\n        /* \"#utility.yul\":32352:32446   */\n      tag_880\n        /* \"#utility.yul\":32442:32445   */\n      dup3\n        /* \"#utility.yul\":32433:32439   */\n      dup5\n        /* \"#utility.yul\":32352:32446   */\n      tag_549\n      jump\t// in\n    tag_880:\n        /* \"#utility.yul\":32345:32446   */\n      swap2\n      pop\n        /* \"#utility.yul\":32463:32466   */\n      dup2\n        /* \"#utility.yul\":32456:32466   */\n      swap1\n      pop\n        /* \"#utility.yul\":32199:32472   */\n      swap3\n      swap2\n      pop\n      pop\n      jump\t// out\n        /* \"#utility.yul\":32478:32641   */\n    tag_550:\n        /* \"#utility.yul\":32618:32633   */\n      0x416368696576656d656e743a2000000000000000000000000000000000000000\n        /* \"#utility.yul\":32614:32615   */\n      0x00\n        /* \"#utility.yul\":32606:32612   */\n      dup3\n        /* \"#utility.yul\":32602:32616   */\n      add\n        /* \"#utility.yul\":32595:32634   */\n      mstore\n        /* \"#utility.yul\":32478:32641   */\n      pop\n      jump\t// out\n        /* \"#utility.yul\":32647:33049   */\n    tag_551:\n        /* \"#utility.yul\":32807:32810   */\n      0x00\n        /* \"#utility.yul\":32828:32913   */\n      tag_883\n        /* \"#utility.yul\":32910:32912   */\n      0x0d\n        /* \"#utility.yul\":32905:32908   */\n      dup4\n        /* \"#utility.yul\":32828:32913   */\n      tag_536\n      jump\t// in\n    tag_883:\n        /* \"#utility.yul\":32821:32913   */\n      swap2\n      pop\n        /* \"#utility.yul\":32922:33015   */\n      tag_884\n        /* \"#utility.yul\":33011:33014   */\n      dup3\n        /* \"#utility.yul\":32922:33015   */\n      tag_550\n      jump\t// in\n    tag_884:\n        /* \"#utility.yul\":33040:33042   */\n      0x0d\n        /* \"#utility.yul\":33035:33038   */\n      dup3\n        /* \"#utility.yul\":33031:33043   */\n      add\n        /* \"#utility.yul\":33024:33043   */\n      swap1\n      pop\n        /* \"#utility.yul\":32647:33049   */\n      swap2\n      swap1\n      pop\n      jump\t// out\n        /* \"#utility.yul\":33055:33596   */\n    tag_403:\n        /* \"#utility.yul\":33288:33291   */\n      0x00\n        /* \"#utility.yul\":33310:33458   */\n      tag_886\n        /* \"#utility.yul\":33454:33457   */\n      dup3\n        /* \"#utility.yul\":33310:33458   */\n      tag_551\n      jump\t// in\n    tag_886:\n        /* \"#utility.yul\":33303:33458   */\n      swap2\n      pop\n        /* \"#utility.yul\":33475:33570   */\n      tag_887\n        /* \"#utility.yul\":33566:33569   */\n      dup3\n        /* \"#utility.yul\":33557:33563   */\n      dup5\n        /* \"#utility.yul\":33475:33570   */\n      tag_537\n      jump\t// in\n    tag_887:\n        /* \"#utility.yul\":33468:33570   */\n      swap2\n      pop\n        /* \"#utility.yul\":33587:33590   */\n      dup2\n        /* \"#utility.yul\":33580:33590   */\n      swap1\n      pop\n        /* \"#utility.yul\":33055:33596   */\n      swap3\n      swap2\n      pop\n      pop\n      jump\t// out\n        /* \"#utility.yul\":33602:34025   */\n    tag_405:\n        /* \"#utility.yul\":33743:33747   */\n      0x00\n        /* \"#utility.yul\":33781:33783   */\n      0x40\n        /* \"#utility.yul\":33770:33779   */\n      dup3\n        /* \"#utility.yul\":33766:33784   */\n      add\n        /* \"#utility.yul\":33758:33784   */\n      swap1\n      pop\n        /* \"#utility.yul\":33830:33839   */\n      dup2\n        /* \"#utility.yul\":33824:33828   */\n      dup2\n        /* \"#utility.yul\":33820:33840   */\n      sub\n        /* \"#utility.yul\":33816:33817   */\n      0x00\n        /* \"#utility.yul\":33805:33814   */\n      dup4\n        /* \"#utility.yul\":33801:33818   */\n      add\n        /* \"#utility.yul\":33794:33841   */\n      mstore\n        /* \"#utility.yul\":33858:33936   */\n      tag_889\n        /* \"#utility.yul\":33931:33935   */\n      dup2\n        /* \"#utility.yul\":33922:33928   */\n      dup6\n        /* \"#utility.yul\":33858:33936   */\n      tag_512\n      jump\t// in\n    tag_889:\n        /* \"#utility.yul\":33850:33936   */\n      swap1\n      pop\n        /* \"#utility.yul\":33946:34018   */\n      tag_890\n        /* \"#utility.yul\":34014:34016   */\n      0x20\n        /* \"#utility.yul\":34003:34012   */\n      dup4\n        /* \"#utility.yul\":33999:34017   */\n      add\n        /* \"#utility.yul\":33990:33996   */\n      dup5\n        /* \"#utility.yul\":33946:34018   */\n      tag_494\n      jump\t// in\n    tag_890:\n        /* \"#utility.yul\":33602:34025   */\n      swap4\n      swap3\n      pop\n      pop\n      pop\n      jump\t// out\n        /* \"#utility.yul\":34031:34222   */\n    tag_413:\n        /* \"#utility.yul\":34071:34074   */\n      0x00\n        /* \"#utility.yul\":34090:34110   */\n      tag_892\n        /* \"#utility.yul\":34108:34109   */\n      dup3\n        /* \"#utility.yul\":34090:34110   */\n      tag_483\n      jump\t// in\n    tag_892:\n        /* \"#utility.yul\":34085:34110   */\n      swap2\n      pop\n        /* \"#utility.yul\":34124:34144   */\n      tag_893\n        /* \"#utility.yul\":34142:34143   */\n      dup4\n        /* \"#utility.yul\":34124:34144   */\n      tag_483\n      jump\t// in\n    tag_893:\n        /* \"#utility.yul\":34119:34144   */\n      swap3\n      pop\n        /* \"#utility.yul\":34167:34168   */\n      dup3\n        /* \"#utility.yul\":34164:34165   */\n      dup3\n        /* \"#utility.yul\":34160:34169   */\n      add\n        /* \"#utility.yul\":34153:34169   */\n      swap1\n      pop\n        /* \"#utility.yul\":34188:34191   */\n      dup1\n        /* \"#utility.yul\":34185:34186   */\n      dup3\n        /* \"#utility.yul\":34182:34192   */\n      gt\n        /* \"#utility.yul\":34179:34215   */\n      iszero\n      tag_894\n      jumpi\n        /* \"#utility.yul\":34195:34213   */\n      tag_895\n      tag_538\n      jump\t// in\n    tag_895:\n        /* \"#utility.yul\":34179:34215   */\n    tag_894:\n        /* \"#utility.yul\":34031:34222   */\n      swap3\n      swap2\n      pop\n      pop\n      jump\t// out\n        /* \"#utility.yul\":34228:34560   */\n    tag_436:\n        /* \"#utility.yul\":34349:34353   */\n      0x00\n        /* \"#utility.yul\":34387:34389   */\n      0x40\n        /* \"#utility.yul\":34376:34385   */\n      dup3\n        /* \"#utility.yul\":34372:34390   */\n      add\n        /* \"#utility.yul\":34364:34390   */\n      swap1\n      pop\n        /* \"#utility.yul\":34400:34471   */\n      tag_897\n        /* \"#utility.yul\":34468:34469   */\n      0x00\n        /* \"#utility.yul\":34457:34466   */\n      dup4\n        /* \"#utility.yul\":34453:34470   */\n      add\n        /* \"#utility.yul\":34444:34450   */\n      dup6\n        /* \"#utility.yul\":34400:34471   */\n      tag_502\n      jump\t// in\n    tag_897:\n        /* \"#utility.yul\":34481:34553   */\n      tag_898\n        /* \"#utility.yul\":34549:34551   */\n      0x20\n        /* \"#utility.yul\":34538:34547   */\n      dup4\n        /* \"#utility.yul\":34534:34552   */\n      add\n        /* \"#utility.yul\":34525:34531   */\n      dup5\n        /* \"#utility.yul\":34481:34553   */\n      tag_493\n      jump\t// in\n    tag_898:\n        /* \"#utility.yul\":34228:34560   */\n      swap4\n      swap3\n      pop\n      pop\n      pop\n      jump\t// out\n        /* \"#utility.yul\":34566:34736   */\n    tag_552:\n        /* \"#utility.yul\":34706:34728   */\n      0x5061757361626c653a206e6f7420706175736564000000000000000000000000\n        /* \"#utility.yul\":34702:34703   */\n      0x00\n        /* \"#utility.yul\":34694:34700   */\n      dup3\n        /* \"#utility.yul\":34690:34704   */\n      add\n        /* \"#utility.yul\":34683:34729   */\n      mstore\n        /* \"#utility.yul\":34566:34736   */\n      pop\n      jump\t// out\n        /* \"#utility.yul\":34742:35108   */\n    tag_553:\n        /* \"#utility.yul\":34884:34887   */\n      0x00\n        /* \"#utility.yul\":34905:34972   */\n      tag_901\n        /* \"#utility.yul\":34969:34971   */\n      0x14\n        /* \"#utility.yul\":34964:34967   */\n      dup4\n        /* \"#utility.yul\":34905:34972   */\n      tag_511\n      jump\t// in\n    tag_901:\n        /* \"#utility.yul\":34898:34972   */\n      swap2\n      pop\n        /* \"#utility.yul\":34981:35074   */\n      tag_902\n        /* \"#utility.yul\":35070:35073   */\n      dup3\n        /* \"#utility.yul\":34981:35074   */\n      tag_552\n      jump\t// in\n    tag_902:\n        /* \"#utility.yul\":35099:35101   */\n      0x20\n        /* \"#utility.yul\":35094:35097   */\n      dup3\n        /* \"#utility.yul\":35090:35102   */\n      add\n        /* \"#utility.yul\":35083:35102   */\n      swap1\n      pop\n        /* \"#utility.yul\":34742:35108   */\n      swap2\n      swap1\n      pop\n      jump\t// out\n        /* \"#utility.yul\":35114:35533   */\n    tag_464:\n        /* \"#utility.yul\":35280:35284   */\n      0x00\n        /* \"#utility.yul\":35318:35320   */\n      0x20\n        /* \"#utility.yul\":35307:35316   */\n      dup3\n        /* \"#utility.yul\":35303:35321   */\n      add\n        /* \"#utility.yul\":35295:35321   */\n      swap1\n      pop\n        /* \"#utility.yul\":35367:35376   */\n      dup2\n        /* \"#utility.yul\":35361:35365   */\n      dup2\n        /* \"#utility.yul\":35357:35377   */\n      sub\n        /* \"#utility.yul\":35353:35354   */\n      0x00\n        /* \"#utility.yul\":35342:35351   */\n      dup4\n        /* \"#utility.yul\":35338:35355   */\n      add\n        /* \"#utility.yul\":35331:35378   */\n      mstore\n        /* \"#utility.yul\":35395:35526   */\n      tag_904\n        /* \"#utility.yul\":35521:35525   */\n      dup2\n        /* \"#utility.yul\":35395:35526   */\n      tag_553\n      jump\t// in\n    tag_904:\n        /* \"#utility.yul\":35387:35526   */\n      swap1\n      pop\n        /* \"#utility.yul\":35114:35533   */\n      swap2\n      swap1\n      pop\n      jump\t// out\n    stop\n    data_3c9ff49101b3ca82183c473c0c0ce55aaa523cbd1b2e65d16676760fc77f0b26 5375636365737366756c6c7920636f6d706c657465642061206368616d61206379636c65\n\n    auxdata: 0xa264697066735822122099da3b6d4de5a026040d44aff8aba13b007c464fee3c22502f1f9270c55d745464736f6c634300081e0033\n}\n",
				"bytecode": {
					"linkReferences": {},
					"object": "608060405234801561000f575f5ffd5b5060015f819055505f60015f6101000a81548160ff0219169083151502179055506100425f5f1b3361008760201b60201c565b506100737fa49807205ce4d355092ef5a8a18f56e8913cf4a201fbe287825b095693c217753361008760201b60201c565b5061008261017d60201b60201c565b6109b0565b5f610098838361053160201b60201c565b61017357600160025f8581526020019081526020015f205f015f8473ffffffffffffffffffffffffffffffffffffffff1673ffffffffffffffffffffffffffffffffffffffff1681526020019081526020015f205f6101000a81548160ff02191690831515021790555061011061059560201b60201c565b73ffffffffffffffffffffffffffffffffffffffff168273ffffffffffffffffffffffffffffffffffffffff16847f2f8788117e7eff1d82e926ec794901d17c78024a50270940304540a733656f0d60405160405180910390a460019050610177565b5f90505b92915050565b6064600a60405161018d906105f0565b9081526020016040518091039020819055506019600a6040516101af9061064e565b9081526020016040518091039020819055506032600a6040516101d1906106ac565b9081526020016040518091039020819055506064600a6040516101f39061070a565b908152602001604051809103902081905550604b600a60405161021590610768565b908152602001604051809103902081905550604b600a604051610237906107c6565b9081526020016040518091039020819055506096600a60405161025990610824565b90815260200160405180910390208190555060c8600a60405161027b90610882565b9081526020016040518091039020819055506014600a60405161029d906108e0565b9081526020016040518091039020819055506032600a6040516102bf9061093e565b9081526020016040518091039020819055506064600a6040516102e19061099c565b9081526020016040518091039020819055506001600b604051610303906105f0565b90815260200160405180910390205f6101000a81548160ff0219169083151502179055506001600b6040516103379061064e565b90815260200160405180910390205f6101000a81548160ff0219169083151502179055506001600b60405161036b906106ac565b90815260200160405180910390205f6101000a81548160ff0219169083151502179055506001600b60405161039f9061070a565b90815260200160405180910390205f6101000a81548160ff0219169083151502179055506001600b6040516103d390610768565b90815260200160405180910390205f6101000a81548160ff0219169083151502179055506001600b604051610407906107c6565b90815260200160405180910390205f6101000a81548160ff0219169083151502179055506001600b60405161043b90610824565b90815260200160405180910390205f6101000a81548160ff0219169083151502179055506001600b60405161046f90610882565b90815260200160405180910390205f6101000a81548160ff0219169083151502179055506001600b6040516104a3906108e0565b90815260200160405180910390205f6101000a81548160ff0219169083151502179055506001600b6040516104d79061093e565b90815260200160405180910390205f6101000a81548160ff0219169083151502179055506001600b60405161050b9061099c565b90815260200160405180910390205f6101000a81548160ff021916908315150217905550565b5f60025f8481526020019081526020015f205f015f8373ffffffffffffffffffffffffffffffffffffffff1673ffffffffffffffffffffffffffffffffffffffff1681526020019081526020015f205f9054906101000a900460ff16905092915050565b5f33905090565b5f81905092915050565b7f4368616d612043726561746f72000000000000000000000000000000000000005f82015250565b5f6105da600d8361059c565b91506105e5826105a6565b600d82019050919050565b5f6105fa826105ce565b9150819050919050565b7f466972737420537461636b0000000000000000000000000000000000000000005f82015250565b5f610638600b8361059c565b915061064382610604565b600b82019050919050565b5f6106588261062c565b9150819050919050565b7f3520436f6e747269627574696f6e7300000000000000000000000000000000005f82015250565b5f610696600f8361059c565b91506106a182610662565b600f82019050919050565b5f6106b68261068a565b9150819050919050565b7f4368616d6120436f6d706c6574656400000000000000000000000000000000005f82015250565b5f6106f4600f8361059c565b91506106ff826106c0565b600f82019050919050565b5f610714826106e8565b9150819050919050565b7f5065726665637420417474656e64616e636500000000000000000000000000005f82015250565b5f61075260128361059c565b915061075d8261071e565b601282019050919050565b5f61077282610746565b9150819050919050565b7f496e7669746564203320467269656e64730000000000000000000000000000005f82015250565b5f6107b060118361059c565b91506107bb8261077c565b601182019050919050565b5f6107d0826107a4565b9150819050919050565b7f496e766974656420313020467269656e647300000000000000000000000000005f82015250565b5f61080e60128361059c565b9150610819826107da565b601282019050919050565b5f61082e82610802565b9150819050919050565b7f536f6369616c20427574746572666c79000000000000000000000000000000005f82015250565b5f61086c60108361059c565b915061087782610838565b601082019050919050565b5f61088c82610860565b9150819050919050565b7f46697273742050325000000000000000000000000000000000000000000000005f82015250565b5f6108ca60098361059c565b91506108d582610896565b600982019050919050565b5f6108ea826108be565b9150819050919050565b7f53656e7420352052656420456e76656c6f7065730000000000000000000000005f82015250565b5f61092860148361059c565b9150610933826108f4565b601482019050919050565b5f6109488261091c565b9150819050919050565b7f52656420456e76656c6f7065204d6173746572000000000000000000000000005f82015250565b5f61098660138361059c565b915061099182610952565b601382019050919050565b5f6109a68261097a565b9150819050919050565b613fb3806109bd5f395ff3fe608060405234801561000f575f5ffd5b5060043610610245575f3560e01c806375b238fc11610139578063b34e0c47116100b6578063dde7fe831161007a578063dde7fe831461075c578063e697b5d81461078c578063f09153c4146107bc578063f5c63a65146107ec578063fb6298d51461080857610245565b8063b34e0c471461068d578063bbe15627146106bd578063bf882e73146106f1578063c4641dd714610724578063d547741f1461074057610245565b8063987ee156116100fd578063987ee156146105e95780639888a57c14610619578063a217fddf14610635578063a9c837c914610653578063ac132d2d1461066f57610245565b806375b238fc1461053157806376dd110f1461054f5780638456cb591461057f57806387cf16211461058957806391d14854146105b957610245565b806336568abe116101c757806358f43f761161018b57806358f43f761461047b5780635c975abb146104ab5780635d03ce80146104c957806361e092fc146104e55780637300f6241461051557610245565b806336568abe146103c55780633f4ba83a146103e157806341c57372146103eb578063575cea6b1461041b57806357b24e6b1461044b57610245565b8063248a9ca31161020e578063248a9ca3146102fd57806324acbd691461032d578063258219c21461035d5780632f2ff15d1461038d57806333b0d363146103a957610245565b80629299e31461024957806301ffc9a7146102655780630c860dcc1461029557806314fc7e4d146102b157806316064572146102e1575b5f5ffd5b610263600480360381019061025e9190612f5d565b610838565b005b61027f600480360381019061027a9190612ff9565b6109a2565b60405161028c919061303e565b60405180910390f35b6102af60048036038101906102aa919061308a565b610a1b565b005b6102cb60048036038101906102c69190612f5d565b610aa3565b6040516102d8919061303e565b60405180910390f35b6102fb60048036038101906102f6919061313e565b610ad6565b005b610317600480360381019061031291906131cb565b610b0f565b6040516103249190613205565b60405180910390f35b6103476004803603810190610342919061321e565b610b2c565b6040516103549190613258565b60405180910390f35b61037760048036038101906103729190612f5d565b610b72565b604051610384919061303e565b60405180910390f35b6103a760048036038101906103a29190613271565b610ba7565b005b6103c360048036038101906103be91906131cb565b610bc9565b005b6103df60048036038101906103da9190613271565b610f8f565b005b6103e961100a565b005b61040560048036038101906104009190612f5d565b61103f565b6040516104129190613258565b60405180910390f35b6104356004803603810190610430919061321e565b611066565b6040516104429190613366565b60405180910390f35b6104656004803603810190610460919061321e565b61112e565b6040516104729190613258565b60405180910390f35b6104956004803603810190610490919061321e565b611143565b6040516104a29190613205565b60405180910390f35b6104b3611158565b6040516104c0919061303e565b60405180910390f35b6104e360048036038101906104de9190613386565b61116d565b005b6104ff60048036038101906104fa919061321e565b6111a8565b60405161050c9190613205565b60405180910390f35b61052f600480360381019061052a919061321e565b6111ee565b005b610539611247565b6040516105469190613205565b60405180910390f35b6105696004803603810190610564919061321e565b61126b565b6040516105769190613258565b60405180910390f35b610587611280565b005b6105a3600480360381019061059e91906131cb565b6112b5565b6040516105b09190613401565b60405180910390f35b6105d360048036038101906105ce9190613271565b6112ee565b6040516105e0919061303e565b60405180910390f35b61060360048036038101906105fe919061321e565b611352565b604051610610919061351a565b60405180910390f35b610633600480360381019061062e919061353a565b6114bb565b005b61063d6116e5565b60405161064a9190613205565b60405180910390f35b61066d6004803603810190610668919061353a565b6116eb565b005b610677611a6a565b6040516106849190613205565b60405180910390f35b6106a760048036038101906106a2919061321e565b611a8e565b6040516106b49190613258565b60405180910390f35b6106d760048036038101906106d2919061321e565b611ad4565b6040516106e89594939291906135dc565b60405180910390f35b61070b60048036038101906107069190613634565b611bb7565b60405161071b9493929190613672565b60405180910390f35b61073e6004803603810190610739919061308a565b611d09565b005b61075a60048036038101906107559190613271565b611dbc565b005b610776600480360381019061077191906131cb565b611dde565b6040516107839190613401565b60405180910390f35b6107a660048036038101906107a19190613634565b611e0e565b6040516107b39190613401565b60405180910390f35b6107d660048036038101906107d1919061321e565b611e56565b6040516107e391906137e5565b60405180910390f35b61080660048036038101906108019190613386565b612022565b005b610822600480360381019061081d9190612f5d565b6121be565b60405161082f9190613258565b60405180910390f35b6108406121eb565b5f73ffffffffffffffffffffffffffffffffffffffff1660075f3373ffffffffffffffffffffffffffffffffffffffff1673ffffffffffffffffffffffffffffffffffffffff1681526020019081526020015f205f015f9054906101000a900473ffffffffffffffffffffffffffffffffffffffff1673ffffffffffffffffffffffffffffffffffffffff1603610903576040517f72da560b00000000000000000000000000000000000000000000000000000000815260040160405180910390fd5b8060075f3373ffffffffffffffffffffffffffffffffffffffff1673ffffffffffffffffffffffffffffffffffffffff1681526020019081526020015f2060010190816109509190613a02565b503373ffffffffffffffffffffffffffffffffffffffff167fdd635a4cd84864e37e4479dbfc2ec667acfa473c83c8422a8ac9d9d07599b01c826040516109979190613ad1565b60405180910390a250565b5f7f7965db0b000000000000000000000000000000000000000000000000000000007bffffffffffffffffffffffffffffffffffffffffffffffffffffffff1916827bffffffffffffffffffffffffffffffffffffffffffffffffffffffff19161480610a145750610a1382612235565b5b9050919050565b7fa49807205ce4d355092ef5a8a18f56e8913cf4a201fbe287825b095693c21775610a458161229e565b81600a84604051610a569190613b2b565b9081526020016040518091039020819055506001600b84604051610a7a9190613b2b565b90815260200160405180910390205f6101000a81548160ff021916908315150217905550505050565b5f600b82604051610ab49190613b2b565b90815260200160405180910390205f9054906101000a900460ff169050919050565b7fc5c74b901cb87f1e81a3e0539a5d95bf14fa111210701dd52208a2390204b455610b008161229e565b610b0a83836122b2565b505050565b5f60025f8381526020019081526020015f20600101549050919050565b5f60085f8373ffffffffffffffffffffffffffffffffffffffff1673ffffffffffffffffffffffffffffffffffffffff1681526020019081526020015f20549050919050565b600b818051602081018201805184825260208301602085012081835280955050505050505f915054906101000a900460ff1681565b610bb082610b0f565b610bb98161229e565b610bc3838361252b565b50505050565b610bd16121eb565b5f60065f8381526020019081526020015f205f9054906101000a900473ffffffffffffffffffffffffffffffffffffffff1690505f73ffffffffffffffffffffffffffffffffffffffff168173ffffffffffffffffffffffffffffffffffffffff1603610c6a576040517f6110422800000000000000000000000000000000000000000000000000000000815260040160405180910390fd5b60095f8273ffffffffffffffffffffffffffffffffffffffff1673ffffffffffffffffffffffffffffffffffffffff1681526020019081526020015f2033908060018154018082558091505060019003905f5260205f20015f9091909190916101000a81548173ffffffffffffffffffffffffffffffffffffffff021916908373ffffffffffffffffffffffffffffffffffffffff16021790555060085f8273ffffffffffffffffffffffffffffffffffffffff1673ffffffffffffffffffffffffffffffffffffffff1681526020019081526020015f205f815480929190610d5290613b6e565b9190505550610d988160326040518060400160405280601381526020017f5375636365737366756c20526566657272616c00000000000000000000000000815250612615565b600360085f8373ffffffffffffffffffffffffffffffffffffffff1673ffffffffffffffffffffffffffffffffffffffff1681526020019081526020015f205403610e2157610e1c816040518060400160405280601181526020017f496e7669746564203320467269656e64730000000000000000000000000000008152506122b2565b610f31565b600a60085f8373ffffffffffffffffffffffffffffffffffffffff1673ffffffffffffffffffffffffffffffffffffffff1681526020019081526020015f205403610eaa57610ea5816040518060400160405280601281526020017f496e766974656420313020467269656e647300000000000000000000000000008152506122b2565b610f30565b601960085f8373ffffffffffffffffffffffffffffffffffffffff1673ffffffffffffffffffffffffffffffffffffffff1681526020019081526020015f205403610f2f57610f2e816040518060400160405280601081526020017f536f6369616c20427574746572666c79000000000000000000000000000000008152506122b2565b5b5b5b3373ffffffffffffffffffffffffffffffffffffffff168173ffffffffffffffffffffffffffffffffffffffff167f7dfe7741b2816f4b390ea9c6a8fcef91c87d66b9235a24019b792806bc3ece0260405160405180910390a35050565b610f976126fa565b73ffffffffffffffffffffffffffffffffffffffff168173ffffffffffffffffffffffffffffffffffffffff1614610ffb576040517f6697b23200000000000000000000000000000000000000000000000000000000815260040160405180910390fd5b6110058282612701565b505050565b7fa49807205ce4d355092ef5a8a18f56e8913cf4a201fbe287825b095693c217756110348161229e565b61103c6127eb565b50565b5f600a826040516110509190613b2b565b9081526020016040518091039020549050919050565b606060095f8373ffffffffffffffffffffffffffffffffffffffff1673ffffffffffffffffffffffffffffffffffffffff1681526020019081526020015f2080548060200260200160405190810160405280929190818152602001828054801561112257602002820191905f5260205f20905b815f9054906101000a900473ffffffffffffffffffffffffffffffffffffffff1673ffffffffffffffffffffffffffffffffffffffff16815260200190600101908083116110d9575b50505050509050919050565b6008602052805f5260405f205f915090505481565b6005602052805f5260405f205f915090505481565b5f60015f9054906101000a900460ff16905090565b7fc5c74b901cb87f1e81a3e0539a5d95bf14fa111210701dd52208a2390204b4556111978161229e565b6111a2848484612615565b50505050565b5f60055f8373ffffffffffffffffffffffffffffffffffffffff1673ffffffffffffffffffffffffffffffffffffffff1681526020019081526020015f20549050919050565b7fa49807205ce4d355092ef5a8a18f56e8913cf4a201fbe287825b095693c217756112188161229e565b6112427fc5c74b901cb87f1e81a3e0539a5d95bf14fa111210701dd52208a2390204b4558361252b565b505050565b7fa49807205ce4d355092ef5a8a18f56e8913cf4a201fbe287825b095693c2177581565b6003602052805f5260405f205f915090505481565b7fa49807205ce4d355092ef5a8a18f56e8913cf4a201fbe287825b095693c217756112aa8161229e565b6112b261284c565b50565b5f60065f8381526020019081526020015f205f9054906101000a900473ffffffffffffffffffffffffffffffffffffffff169050919050565b5f60025f8481526020019081526020015f205f015f8373ffffffffffffffffffffffffffffffffffffffff1673ffffffffffffffffffffffffffffffffffffffff1681526020019081526020015f205f9054906101000a900460ff16905092915050565b61135a612dcd565b60075f8373ffffffffffffffffffffffffffffffffffffffff1673ffffffffffffffffffffffffffffffffffffffff1681526020019081526020015f206040518060a00160405290815f82015f9054906101000a900473ffffffffffffffffffffffffffffffffffffffff1673ffffffffffffffffffffffffffffffffffffffff1673ffffffffffffffffffffffffffffffffffffffff16815260200160018201805461140690613832565b80601f016020809104026020016040519081016040528092919081815260200182805461143290613832565b801561147d5780601f106114545761010080835404028352916020019161147d565b820191905f5260205f20905b81548152906001019060200180831161146057829003601f168201915b505050505081526020016002820154815260200160038201548152602001600482015f9054906101000a900460ff1615151515815250509050919050565b6114c36121eb565b5f73ffffffffffffffffffffffffffffffffffffffff1660075f3373ffffffffffffffffffffffffffffffffffffffff1673ffffffffffffffffffffffffffffffffffffffff1681526020019081526020015f205f015f9054906101000a900473ffffffffffffffffffffffffffffffffffffffff1673ffffffffffffffffffffffffffffffffffffffff1614611586576040517f6e8a1b0a00000000000000000000000000000000000000000000000000000000815260040160405180910390fd5b6040518060a001604052803373ffffffffffffffffffffffffffffffffffffffff1681526020018381526020018281526020014281526020016001151581525060075f3373ffffffffffffffffffffffffffffffffffffffff1673ffffffffffffffffffffffffffffffffffffffff1681526020019081526020015f205f820151815f015f6101000a81548173ffffffffffffffffffffffffffffffffffffffff021916908373ffffffffffffffffffffffffffffffffffffffff160217905550602082015181600101908161165c9190613a02565b5060408201518160020155606082015181600301556080820151816004015f6101000a81548160ff0219169083151502179055509050503373ffffffffffffffffffffffffffffffffffffffff167fbafddecbd1dec1c1afb76d693f1de16901f521bdf29a02438e3e6806c0b8d948836040516116d99190613ad1565b60405180910390a25050565b5f5f1b81565b6116f36121eb565b5f5f1b60055f3373ffffffffffffffffffffffffffffffffffffffff1673ffffffffffffffffffffffffffffffffffffffff1681526020019081526020015f20541461176b576040517f052b439c00000000000000000000000000000000000000000000000000000000815260040160405180910390fd5b5f73ffffffffffffffffffffffffffffffffffffffff1660075f3373ffffffffffffffffffffffffffffffffffffffff1673ffffffffffffffffffffffffffffffffffffffff1681526020019081526020015f205f015f9054906101000a900473ffffffffffffffffffffffffffffffffffffffff1673ffffffffffffffffffffffffffffffffffffffff1603611958576040518060a001604052803373ffffffffffffffffffffffffffffffffffffffff1681526020018381526020018281526020014281526020016001151581525060075f3373ffffffffffffffffffffffffffffffffffffffff1673ffffffffffffffffffffffffffffffffffffffff1681526020019081526020015f205f820151815f015f6101000a81548173ffffffffffffffffffffffffffffffffffffffff021916908373ffffffffffffffffffffffffffffffffffffffff16021790555060208201518160010190816118d29190613a02565b5060408201518160020155606082015181600301556080820151816004015f6101000a81548160ff0219169083151502179055509050503373ffffffffffffffffffffffffffffffffffffffff167fbafddecbd1dec1c1afb76d693f1de16901f521bdf29a02438e3e6806c0b8d9488360405161194f9190613ad1565b60405180910390a25b5f33424460405160200161196e93929190613c1a565b6040516020818303038152906040528051906020012090508060055f3373ffffffffffffffffffffffffffffffffffffffff1673ffffffffffffffffffffffffffffffffffffffff1681526020019081526020015f20819055503360065f8381526020019081526020015f205f6101000a81548173ffffffffffffffffffffffffffffffffffffffff021916908373ffffffffffffffffffffffffffffffffffffffff1602179055503373ffffffffffffffffffffffffffffffffffffffff167f1a0bad8b81287df6c7518ad18c022db6e8db24f922a8ff32dbb6fed74c699a2682604051611a5d9190613205565b60405180910390a2505050565b7fc5c74b901cb87f1e81a3e0539a5d95bf14fa111210701dd52208a2390204b45581565b5f60035f8373ffffffffffffffffffffffffffffffffffffffff1673ffffffffffffffffffffffffffffffffffffffff1681526020019081526020015f20549050919050565b6007602052805f5260405f205f91509050805f015f9054906101000a900473ffffffffffffffffffffffffffffffffffffffff1690806001018054611b1890613832565b80601f0160208091040260200160405190810160405280929190818152602001828054611b4490613832565b8015611b8f5780601f10611b6657610100808354040283529160200191611b8f565b820191905f5260205f20905b815481529060010190602001808311611b7257829003601f168201915b505050505090806002015490806003015490806004015f9054906101000a900460ff16905085565b6004602052815f5260405f208181548110611bd0575f80fd5b905f5260205f2090600402015f9150915050805f018054611bf090613832565b80601f0160208091040260200160405190810160405280929190818152602001828054611c1c90613832565b8015611c675780601f10611c3e57610100808354040283529160200191611c67565b820191905f5260205f20905b815481529060010190602001808311611c4a57829003601f168201915b505050505090806001018054611c7c90613832565b80601f0160208091040260200160405190810160405280929190818152602001828054611ca890613832565b8015611cf35780601f10611cca57610100808354040283529160200191611cf3565b820191905f5260205f20905b815481529060010190602001808311611cd657829003601f168201915b5050505050908060020154908060030154905084565b7fa49807205ce4d355092ef5a8a18f56e8913cf4a201fbe287825b095693c21775611d338161229e565b600b83604051611d439190613b2b565b90815260200160405180910390205f9054906101000a900460ff16611d94576040517f5e07eb5300000000000000000000000000000000000000000000000000000000815260040160405180910390fd5b81600a84604051611da59190613b2b565b908152602001604051809103902081905550505050565b611dc582610b0f565b611dce8161229e565b611dd88383612701565b50505050565b6006602052805f5260405f205f915054906101000a900473ffffffffffffffffffffffffffffffffffffffff1681565b6009602052815f5260405f208181548110611e27575f80fd5b905f5260205f20015f915091509054906101000a900473ffffffffffffffffffffffffffffffffffffffff1681565b606060045f8373ffffffffffffffffffffffffffffffffffffffff1673ffffffffffffffffffffffffffffffffffffffff1681526020019081526020015f20805480602002602001604051908101604052809291908181526020015f905b82821015612017578382905f5260205f2090600402016040518060800160405290815f82018054611ee490613832565b80601f0160208091040260200160405190810160405280929190818152602001828054611f1090613832565b8015611f5b5780601f10611f3257610100808354040283529160200191611f5b565b820191905f5260205f20905b815481529060010190602001808311611f3e57829003601f168201915b50505050508152602001600182018054611f7490613832565b80601f0160208091040260200160405190810160405280929190818152602001828054611fa090613832565b8015611feb5780601f10611fc257610100808354040283529160200191611feb565b820191905f5260205f20905b815481529060010190602001808311611fce57829003601f168201915b505050505081526020016002820154815260200160038201548152505081526020019060010190611eb4565b505050509050919050565b7fc5c74b901cb87f1e81a3e0539a5d95bf14fa111210701dd52208a2390204b45561204c8161229e565b8260035f8673ffffffffffffffffffffffffffffffffffffffff1673ffffffffffffffffffffffffffffffffffffffff1681526020019081526020015f2054106120e8578260035f8673ffffffffffffffffffffffffffffffffffffffff1673ffffffffffffffffffffffffffffffffffffffff1681526020019081526020015f205f8282546120dc9190613c56565b9250508190555061212b565b5f60035f8673ffffffffffffffffffffffffffffffffffffffff1673ffffffffffffffffffffffffffffffffffffffff1681526020019081526020015f20819055505b8373ffffffffffffffffffffffffffffffffffffffff167f2b535fbf4d2281f734a35408583a14d4e2b28653b00d761613e8758399dd6e6d60035f8773ffffffffffffffffffffffffffffffffffffffff1673ffffffffffffffffffffffffffffffffffffffff1681526020019081526020015f2054846040516121b0929190613c89565b60405180910390a250505050565b600a818051602081018201805184825260208301602085012081835280955050505050505f915090505481565b6121f3611158565b15612233576040517f08c379a000000000000000000000000000000000000000000000000000000000815260040161222a90613d01565b60405180910390fd5b565b5f7f01ffc9a7000000000000000000000000000000000000000000000000000000007bffffffffffffffffffffffffffffffffffffffffffffffffffffffff1916827bffffffffffffffffffffffffffffffffffffffffffffffffffffffff1916149050919050565b6122af816122aa6126fa565b6128ad565b50565b600b816040516122c29190613b2b565b90815260200160405180910390205f9054906101000a900460ff16612313576040517f5e07eb5300000000000000000000000000000000000000000000000000000000815260040160405180910390fd5b5f60045f8473ffffffffffffffffffffffffffffffffffffffff1673ffffffffffffffffffffffffffffffffffffffff1681526020019081526020015f2090505f5f90505b81805490508110156123bb57828051906020012082828154811061237f5761237e613d1f565b5b905f5260205f2090600402015f0160405161239a9190613de8565b6040518091039020036123ae575050612527565b8080600101915050612358565b505f600a836040516123cd9190613b2b565b908152602001604051809103902054905060045f8573ffffffffffffffffffffffffffffffffffffffff1673ffffffffffffffffffffffffffffffffffffffff1681526020019081526020015f206040518060800160405280858152602001612435866128fe565b815260200183815260200142815250908060018154018082558091505060019003905f5260205f2090600402015f909190919091505f820151815f01908161247d9190613a02565b5060208201518160010190816124939190613a02565b50604082015181600201556060820151816003015550506124d48482856040516020016124c09190613e48565b604051602081830303815290604052612615565b8373ffffffffffffffffffffffffffffffffffffffff167f67a8d47c6ecf3a491ea8a4f20a58352394879c573c678ec5b9abceae075d4dca848360405161251c929190613e69565b60405180910390a250505b5050565b5f61253683836112ee565b61260b57600160025f8581526020019081526020015f205f015f8473ffffffffffffffffffffffffffffffffffffffff1673ffffffffffffffffffffffffffffffffffffffff1681526020019081526020015f205f6101000a81548160ff0219169083151502179055506125a86126fa565b73ffffffffffffffffffffffffffffffffffffffff168273ffffffffffffffffffffffffffffffffffffffff16847f2f8788117e7eff1d82e926ec794901d17c78024a50270940304540a733656f0d60405160405180910390a46001905061260f565b5f90505b92915050565b8160035f8573ffffffffffffffffffffffffffffffffffffffff1673ffffffffffffffffffffffffffffffffffffffff1681526020019081526020015f205f8282546126619190613e97565b925050819055508273ffffffffffffffffffffffffffffffffffffffff167f2b535fbf4d2281f734a35408583a14d4e2b28653b00d761613e8758399dd6e6d60035f8673ffffffffffffffffffffffffffffffffffffffff1673ffffffffffffffffffffffffffffffffffffffff1681526020019081526020015f2054836040516126ed929190613c89565b60405180910390a2505050565b5f33905090565b5f61270c83836112ee565b156127e1575f60025f8581526020019081526020015f205f015f8473ffffffffffffffffffffffffffffffffffffffff1673ffffffffffffffffffffffffffffffffffffffff1681526020019081526020015f205f6101000a81548160ff02191690831515021790555061277e6126fa565b73ffffffffffffffffffffffffffffffffffffffff168273ffffffffffffffffffffffffffffffffffffffff16847ff6391f5c32d9c69d2a47ea670b442974b53935d1edc7fd64eb21e047a839171b60405160405180910390a4600190506127e5565b5f90505b92915050565b6127f3612d84565b5f60015f6101000a81548160ff0219169083151502179055507f5db9ee0a495bf2e6ff9c91a7834c1ba4fdd244a5e8aa4e537bd38aeae4b073aa6128356126fa565b6040516128429190613401565b60405180910390a1565b6128546121eb565b6001805f6101000a81548160ff0219169083151502179055507f62e78cea01bee320cd4e420270b5ea74000d11b0c9f74754ebdbfc544b05a2586128966126fa565b6040516128a39190613401565b60405180910390a1565b6128b782826112ee565b6128fa5780826040517fe2517d3f0000000000000000000000000000000000000000000000000000000081526004016128f1929190613eca565b60405180910390fd5b5050565b60605f828051906020012090507fce3c74d1aa17e71c363f9ec4e9713d22e86f5938ee1536de30ede935b3ea86998103612970576040518060400160405280601881526020017f4372656174656420796f7572206669727374206368616d610000000000000000815250915050612d7f565b7faa639973eeced364b1e49eaf04cdce0e3a448beda1ac572145dcdb4158ff3ee181036129d5576040518060400160405280601c81526020017f4d61646520796f757220666972737420636f6e747269627574696f6e00000000815250915050612d7f565b7f51171439905207316bfbb9035965755dce7f21f64623b2947331b66ce5d9ddc28103612a3a576040518060400160405280601481526020017f4d616465203520636f6e747269627574696f6e73000000000000000000000000815250915050612d7f565b7f9234ab901ad425023426825f1183636ff74e190a0a0f56dc56c1f4af63fcb9618103612a8257604051806060016040528060248152602001613f5a60249139915050612d7f565b7f2b6467a5de24f89e6a97f6828fefa01af0bf00966dbfb0f3b1e24583b812e6b78103612ae7576040518060400160405280601b81526020017f4e65766572206d6973736564206120636f6e747269627574696f6e0000000000815250915050612d7f565b7f17adccfbf6e04b3e995ca25ca6f24d735c9582d0b4df26ea0cadb28c67b208798103612b4c576040518060400160405280601981526020017f496e7669746564203320667269656e647320746f206a6f696e00000000000000815250915050612d7f565b7fb593de05e1f7c32bdf270b509901a2e646b5ecf28a2b92cf5cc27fd0e5f9b6ef8103612bb1576040518060400160405280601a81526020017f496e766974656420313020667269656e647320746f206a6f696e000000000000815250915050612d7f565b7ffd145c518a66acb9507bff5117fe28d0f32d8e354ef4985aa9f1b5ee396778ae8103612c16576040518060400160405280601b81526020017f496e76697465642032352b20667269656e647320746f206a6f696e0000000000815250915050612d7f565b7f8f8053b13b1f22f4796b8c42b5f8a18ec27e9aececf5ac25d15f1ab2c6b2cd208103612c7b576040518060400160405280601c81526020017f53656e7420796f757220666972737420503250207472616e7366657200000000815250915050612d7f565b7f39c1a46344cab3eb38f32fbc5c4c705d79d172521355b97cfffddd54a22a691c8103612ce0576040518060400160405280601481526020017f53656e7420352072656420656e76656c6f706573000000000000000000000000815250915050612d7f565b7f037d1d0b8cfccdae8d03f6142b310d063d6721d6892c4e0d6fb105d6a9525c238103612d45576040518060400160405280601681526020017f53656e742032302b2072656420656e76656c6f70657300000000000000000000815250915050612d7f565b6040518060400160405280601c81526020017f5370656369616c20616368696576656d656e7420756e6c6f636b6564000000008152509150505b919050565b612d8c611158565b612dcb576040517f08c379a0000000000000000000000000000000000000000000000000000000008152600401612dc290613f3b565b60405180910390fd5b565b6040518060a001604052805f73ffffffffffffffffffffffffffffffffffffffff168152602001606081526020015f81526020015f81526020015f151581525090565b5f604051905090565b5f5ffd5b5f5ffd5b5f5ffd5b5f5ffd5b5f601f19601f8301169050919050565b7f4e487b71000000000000000000000000000000000000000000000000000000005f52604160045260245ffd5b612e6f82612e29565b810181811067ffffffffffffffff82111715612e8e57612e8d612e39565b5b80604052505050565b5f612ea0612e10565b9050612eac8282612e66565b919050565b5f67ffffffffffffffff821115612ecb57612eca612e39565b5b612ed482612e29565b9050602081019050919050565b828183375f83830152505050565b5f612f01612efc84612eb1565b612e97565b905082815260208101848484011115612f1d57612f1c612e25565b5b612f28848285612ee1565b509392505050565b5f82601f830112612f4457612f43612e21565b5b8135612f54848260208601612eef565b91505092915050565b5f60208284031215612f7257612f71612e19565b5b5f82013567ffffffffffffffff811115612f8f57612f8e612e1d565b5b612f9b84828501612f30565b91505092915050565b5f7fffffffff0000000000000000000000000000000000000000000000000000000082169050919050565b612fd881612fa4565b8114612fe2575f5ffd5b50565b5f81359050612ff381612fcf565b92915050565b5f6020828403121561300e5761300d612e19565b5b5f61301b84828501612fe5565b91505092915050565b5f8115159050919050565b61303881613024565b82525050565b5f6020820190506130515f83018461302f565b92915050565b5f819050919050565b61306981613057565b8114613073575f5ffd5b50565b5f8135905061308481613060565b92915050565b5f5f604083850312156130a05761309f612e19565b5b5f83013567ffffffffffffffff8111156130bd576130bc612e1d565b5b6130c985828601612f30565b92505060206130da85828601613076565b9150509250929050565b5f73ffffffffffffffffffffffffffffffffffffffff82169050919050565b5f61310d826130e4565b9050919050565b61311d81613103565b8114613127575f5ffd5b50565b5f8135905061313881613114565b92915050565b5f5f6040838503121561315457613153612e19565b5b5f6131618582860161312a565b925050602083013567ffffffffffffffff81111561318257613181612e1d565b5b61318e85828601612f30565b9150509250929050565b5f819050919050565b6131aa81613198565b81146131b4575f5ffd5b50565b5f813590506131c5816131a1565b92915050565b5f602082840312156131e0576131df612e19565b5b5f6131ed848285016131b7565b91505092915050565b6131ff81613198565b82525050565b5f6020820190506132185f8301846131f6565b92915050565b5f6020828403121561323357613232612e19565b5b5f6132408482850161312a565b91505092915050565b61325281613057565b82525050565b5f60208201905061326b5f830184613249565b92915050565b5f5f6040838503121561328757613286612e19565b5b5f613294858286016131b7565b92505060206132a58582860161312a565b9150509250929050565b5f81519050919050565b5f82825260208201905092915050565b5f819050602082019050919050565b6132e181613103565b82525050565b5f6132f283836132d8565b60208301905092915050565b5f602082019050919050565b5f613314826132af565b61331e81856132b9565b9350613329836132c9565b805f5b8381101561335957815161334088826132e7565b975061334b836132fe565b92505060018101905061332c565b5085935050505092915050565b5f6020820190508181035f83015261337e818461330a565b905092915050565b5f5f5f6060848603121561339d5761339c612e19565b5b5f6133aa8682870161312a565b93505060206133bb86828701613076565b925050604084013567ffffffffffffffff8111156133dc576133db612e1d565b5b6133e886828701612f30565b9150509250925092565b6133fb81613103565b82525050565b5f6020820190506134145f8301846133f2565b92915050565b5f81519050919050565b5f82825260208201905092915050565b8281835e5f83830152505050565b5f61344c8261341a565b6134568185613424565b9350613466818560208601613434565b61346f81612e29565b840191505092915050565b61348381613198565b82525050565b61349281613057565b82525050565b6134a181613024565b82525050565b5f60a083015f8301516134bc5f8601826132d8565b50602083015184820360208601526134d48282613442565b91505060408301516134e9604086018261347a565b5060608301516134fc6060860182613489565b50608083015161350f6080860182613498565b508091505092915050565b5f6020820190508181035f83015261353281846134a7565b905092915050565b5f5f604083850312156135505761354f612e19565b5b5f83013567ffffffffffffffff81111561356d5761356c612e1d565b5b61357985828601612f30565b925050602061358a858286016131b7565b9150509250929050565b5f82825260208201905092915050565b5f6135ae8261341a565b6135b88185613594565b93506135c8818560208601613434565b6135d181612e29565b840191505092915050565b5f60a0820190506135ef5f8301886133f2565b818103602083015261360181876135a4565b905061361060408301866131f6565b61361d6060830185613249565b61362a608083018461302f565b9695505050505050565b5f5f6040838503121561364a57613649612e19565b5b5f6136578582860161312a565b925050602061366885828601613076565b9150509250929050565b5f6080820190508181035f83015261368a81876135a4565b9050818103602083015261369e81866135a4565b90506136ad6040830185613249565b6136ba6060830184613249565b95945050505050565b5f81519050919050565b5f82825260208201905092915050565b5f819050602082019050919050565b5f608083015f8301518482035f8601526137068282613442565b915050602083015184820360208601526137208282613442565b91505060408301516137356040860182613489565b5060608301516137486060860182613489565b508091505092915050565b5f61375e83836136ec565b905092915050565b5f602082019050919050565b5f61377c826136c3565b61378681856136cd565b935083602082028501613798856136dd565b805f5b858110156137d357848403895281516137b48582613753565b94506137bf83613766565b925060208a0199505060018101905061379b565b50829750879550505050505092915050565b5f6020820190508181035f8301526137fd8184613772565b905092915050565b7f4e487b71000000000000000000000000000000000000000000000000000000005f52602260045260245ffd5b5f600282049050600182168061384957607f821691505b60208210810361385c5761385b613805565b5b50919050565b5f819050815f5260205f209050919050565b5f6020601f8301049050919050565b5f82821b905092915050565b5f600883026138be7fffffffffffffffffffffffffffffffffffffffffffffffffffffffffffffffff82613883565b6138c88683613883565b95508019841693508086168417925050509392505050565b5f819050919050565b5f6139036138fe6138f984613057565b6138e0565b613057565b9050919050565b5f819050919050565b61391c836138e9565b6139306139288261390a565b84845461388f565b825550505050565b5f5f905090565b613947613938565b613952818484613913565b505050565b5b818110156139755761396a5f8261393f565b600181019050613958565b5050565b601f8211156139ba5761398b81613862565b61399484613874565b810160208510156139a3578190505b6139b76139af85613874565b830182613957565b50505b505050565b5f82821c905092915050565b5f6139da5f19846008026139bf565b1980831691505092915050565b5f6139f283836139cb565b9150826002028217905092915050565b613a0b8261341a565b67ffffffffffffffff811115613a2457613a23612e39565b5b613a2e8254613832565b613a39828285613979565b5f60209050601f831160018114613a6a575f8415613a58578287015190505b613a6285826139e7565b865550613ac9565b601f198416613a7886613862565b5f5b82811015613a9f57848901518255600182019150602085019450602081019050613a7a565b86831015613abc5784890151613ab8601f8916826139cb565b8355505b6001600288020188555050505b505050505050565b5f6020820190508181035f830152613ae981846135a4565b905092915050565b5f81905092915050565b5f613b058261341a565b613b0f8185613af1565b9350613b1f818560208601613434565b80840191505092915050565b5f613b368284613afb565b915081905092915050565b7f4e487b71000000000000000000000000000000000000000000000000000000005f52601160045260245ffd5b5f613b7882613057565b91507fffffffffffffffffffffffffffffffffffffffffffffffffffffffffffffffff8203613baa57613ba9613b41565b5b600182019050919050565b5f8160601b9050919050565b5f613bcb82613bb5565b9050919050565b5f613bdc82613bc1565b9050919050565b613bf4613bef82613103565b613bd2565b82525050565b5f819050919050565b613c14613c0f82613057565b613bfa565b82525050565b5f613c258286613be3565b601482019150613c358285613c03565b602082019150613c458284613c03565b602082019150819050949350505050565b5f613c6082613057565b9150613c6b83613057565b9250828203905081811115613c8357613c82613b41565b5b92915050565b5f604082019050613c9c5f830185613249565b8181036020830152613cae81846135a4565b90509392505050565b7f5061757361626c653a20706175736564000000000000000000000000000000005f82015250565b5f613ceb601083613594565b9150613cf682613cb7565b602082019050919050565b5f6020820190508181035f830152613d1881613cdf565b9050919050565b7f4e487b71000000000000000000000000000000000000000000000000000000005f52603260045260245ffd5b5f81905092915050565b5f819050815f5260205f209050919050565b5f8154613d7481613832565b613d7e8186613d4c565b9450600182165f8114613d985760018114613dad57613ddf565b60ff1983168652811515820286019350613ddf565b613db685613d56565b5f5b83811015613dd757815481890152600182019150602081019050613db8565b838801955050505b50505092915050565b5f613df38284613d68565b915081905092915050565b7f416368696576656d656e743a20000000000000000000000000000000000000005f82015250565b5f613e32600d83613af1565b9150613e3d82613dfe565b600d82019050919050565b5f613e5282613e26565b9150613e5e8284613afb565b915081905092915050565b5f6040820190508181035f830152613e8181856135a4565b9050613e906020830184613249565b9392505050565b5f613ea182613057565b9150613eac83613057565b9250828201905080821115613ec457613ec3613b41565b5b92915050565b5f604082019050613edd5f8301856133f2565b613eea60208301846131f6565b9392505050565b7f5061757361626c653a206e6f74207061757365640000000000000000000000005f82015250565b5f613f25601483613594565b9150613f3082613ef1565b602082019050919050565b5f6020820190508181035f830152613f5281613f19565b905091905056fe5375636365737366756c6c7920636f6d706c657465642061206368616d61206379636c65a264697066735822122099da3b6d4de5a026040d44aff8aba13b007c464fee3c22502f1f9270c55d745464736f6c634300081e0033",
					"opcodes": "PUSH1 0x80 PUSH1 0x40 MSTORE CALLVALUE DUP1 ISZERO PUSH2 0xF JUMPI PUSH0 PUSH0 REVERT JUMPDEST POP PUSH1 0x1 PUSH0 DUP2 SWAP1 SSTORE POP PUSH0 PUSH1 0x1 PUSH0 PUSH2 0x100 EXP DUP2 SLOAD DUP2 PUSH1 0xFF MUL NOT AND SWAP1 DUP4 ISZERO ISZERO MUL OR SWAP1 SSTORE POP PUSH2 0x42 PUSH0 PUSH0 SHL CALLER PUSH2 0x87 PUSH1 0x20 SHL PUSH1 0x20 SHR JUMP JUMPDEST POP PUSH2 0x73 PUSH32 0xA49807205CE4D355092EF5A8A18F56E8913CF4A201FBE287825B095693C21775 CALLER PUSH2 0x87 PUSH1 0x20 SHL PUSH1 0x20 SHR JUMP JUMPDEST POP PUSH2 0x82 PUSH2 0x17D PUSH1 0x20 SHL PUSH1 0x20 SHR JUMP JUMPDEST PUSH2 0x9B0 JUMP JUMPDEST PUSH0 PUSH2 0x98 DUP4 DUP4 PUSH2 0x531 PUSH1 0x20 SHL PUSH1 0x20 SHR JUMP JUMPDEST PUSH2 0x173 JUMPI PUSH1 0x1 PUSH1 0x2 PUSH0 DUP6 DUP2 MSTORE PUSH1 0x20 ADD SWAP1 DUP2 MSTORE PUSH1 0x20 ADD PUSH0 KECCAK256 PUSH0 ADD PUSH0 DUP5 PUSH20 0xFFFFFFFFFFFFFFFFFFFFFFFFFFFFFFFFFFFFFFFF AND PUSH20 0xFFFFFFFFFFFFFFFFFFFFFFFFFFFFFFFFFFFFFFFF AND DUP2 MSTORE PUSH1 0x20 ADD SWAP1 DUP2 MSTORE PUSH1 0x20 ADD PUSH0 KECCAK256 PUSH0 PUSH2 0x100 EXP DUP2 SLOAD DUP2 PUSH1 0xFF MUL NOT AND SWAP1 DUP4 ISZERO ISZERO MUL OR SWAP1 SSTORE POP PUSH2 0x110 PUSH2 0x595 PUSH1 0x20 SHL PUSH1 0x20 SHR JUMP JUMPDEST PUSH20 0xFFFFFFFFFFFFFFFFFFFFFFFFFFFFFFFFFFFFFFFF AND DUP3 PUSH20 0xFFFFFFFFFFFFFFFFFFFFFFFFFFFFFFFFFFFFFFFF AND DUP5 PUSH32 0x2F8788117E7EFF1D82E926EC794901D17C78024A50270940304540A733656F0D PUSH1 0x40 MLOAD PUSH1 0x40 MLOAD DUP1 SWAP2 SUB SWAP1 LOG4 PUSH1 0x1 SWAP1 POP PUSH2 0x177 JUMP JUMPDEST PUSH0 SWAP1 POP JUMPDEST SWAP3 SWAP2 POP POP JUMP JUMPDEST PUSH1 0x64 PUSH1 0xA PUSH1 0x40 MLOAD PUSH2 0x18D SWAP1 PUSH2 0x5F0 JUMP JUMPDEST SWAP1 DUP2 MSTORE PUSH1 0x20 ADD PUSH1 0x40 MLOAD DUP1 SWAP2 SUB SWAP1 KECCAK256 DUP2 SWAP1 SSTORE POP PUSH1 0x19 PUSH1 0xA PUSH1 0x40 MLOAD PUSH2 0x1AF SWAP1 PUSH2 0x64E JUMP JUMPDEST SWAP1 DUP2 MSTORE PUSH1 0x20 ADD PUSH1 0x40 MLOAD DUP1 SWAP2 SUB SWAP1 KECCAK256 DUP2 SWAP1 SSTORE POP PUSH1 0x32 PUSH1 0xA PUSH1 0x40 MLOAD PUSH2 0x1D1 SWAP1 PUSH2 0x6AC JUMP JUMPDEST SWAP1 DUP2 MSTORE PUSH1 0x20 ADD PUSH1 0x40 MLOAD DUP1 SWAP2 SUB SWAP1 KECCAK256 DUP2 SWAP1 SSTORE POP PUSH1 0x64 PUSH1 0xA PUSH1 0x40 MLOAD PUSH2 0x1F3 SWAP1 PUSH2 0x70A JUMP JUMPDEST SWAP1 DUP2 MSTORE PUSH1 0x20 ADD PUSH1 0x40 MLOAD DUP1 SWAP2 SUB SWAP1 KECCAK256 DUP2 SWAP1 SSTORE POP PUSH1 0x4B PUSH1 0xA PUSH1 0x40 MLOAD PUSH2 0x215 SWAP1 PUSH2 0x768 JUMP JUMPDEST SWAP1 DUP2 MSTORE PUSH1 0x20 ADD PUSH1 0x40 MLOAD DUP1 SWAP2 SUB SWAP1 KECCAK256 DUP2 SWAP1 SSTORE POP PUSH1 0x4B PUSH1 0xA PUSH1 0x40 MLOAD PUSH2 0x237 SWAP1 PUSH2 0x7C6 JUMP JUMPDEST SWAP1 DUP2 MSTORE PUSH1 0x20 ADD PUSH1 0x40 MLOAD DUP1 SWAP2 SUB SWAP1 KECCAK256 DUP2 SWAP1 SSTORE POP PUSH1 0x96 PUSH1 0xA PUSH1 0x40 MLOAD PUSH2 0x259 SWAP1 PUSH2 0x824 JUMP JUMPDEST SWAP1 DUP2 MSTORE PUSH1 0x20 ADD PUSH1 0x40 MLOAD DUP1 SWAP2 SUB SWAP1 KECCAK256 DUP2 SWAP1 SSTORE POP PUSH1 0xC8 PUSH1 0xA PUSH1 0x40 MLOAD PUSH2 0x27B SWAP1 PUSH2 0x882 JUMP JUMPDEST SWAP1 DUP2 MSTORE PUSH1 0x20 ADD PUSH1 0x40 MLOAD DUP1 SWAP2 SUB SWAP1 KECCAK256 DUP2 SWAP1 SSTORE POP PUSH1 0x14 PUSH1 0xA PUSH1 0x40 MLOAD PUSH2 0x29D SWAP1 PUSH2 0x8E0 JUMP JUMPDEST SWAP1 DUP2 MSTORE PUSH1 0x20 ADD PUSH1 0x40 MLOAD DUP1 SWAP2 SUB SWAP1 KECCAK256 DUP2 SWAP1 SSTORE POP PUSH1 0x32 PUSH1 0xA PUSH1 0x40 MLOAD PUSH2 0x2BF SWAP1 PUSH2 0x93E JUMP JUMPDEST SWAP1 DUP2 MSTORE PUSH1 0x20 ADD PUSH1 0x40 MLOAD DUP1 SWAP2 SUB SWAP1 KECCAK256 DUP2 SWAP1 SSTORE POP PUSH1 0x64 PUSH1 0xA PUSH1 0x40 MLOAD PUSH2 0x2E1 SWAP1 PUSH2 0x99C JUMP JUMPDEST SWAP1 DUP2 MSTORE PUSH1 0x20 ADD PUSH1 0x40 MLOAD DUP1 SWAP2 SUB SWAP1 KECCAK256 DUP2 SWAP1 SSTORE POP PUSH1 0x1 PUSH1 0xB PUSH1 0x40 MLOAD PUSH2 0x303 SWAP1 PUSH2 0x5F0 JUMP JUMPDEST SWAP1 DUP2 MSTORE PUSH1 0x20 ADD PUSH1 0x40 MLOAD DUP1 SWAP2 SUB SWAP1 KECCAK256 PUSH0 PUSH2 0x100 EXP DUP2 SLOAD DUP2 PUSH1 0xFF MUL NOT AND SWAP1 DUP4 ISZERO ISZERO MUL OR SWAP1 SSTORE POP PUSH1 0x1 PUSH1 0xB PUSH1 0x40 MLOAD PUSH2 0x337 SWAP1 PUSH2 0x64E JUMP JUMPDEST SWAP1 DUP2 MSTORE PUSH1 0x20 ADD PUSH1 0x40 MLOAD DUP1 SWAP2 SUB SWAP1 KECCAK256 PUSH0 PUSH2 0x100 EXP DUP2 SLOAD DUP2 PUSH1 0xFF MUL NOT AND SWAP1 DUP4 ISZERO ISZERO MUL OR SWAP1 SSTORE POP PUSH1 0x1 PUSH1 0xB PUSH1 0x40 MLOAD PUSH2 0x36B SWAP1 PUSH2 0x6AC JUMP JUMPDEST SWAP1 DUP2 MSTORE PUSH1 0x20 ADD PUSH1 0x40 MLOAD DUP1 SWAP2 SUB SWAP1 KECCAK256 PUSH0 PUSH2 0x100 EXP DUP2 SLOAD DUP2 PUSH1 0xFF MUL NOT AND SWAP1 DUP4 ISZERO ISZERO MUL OR SWAP1 SSTORE POP PUSH1 0x1 PUSH1 0xB PUSH1 0x40 MLOAD PUSH2 0x39F SWAP1 PUSH2 0x70A JUMP JUMPDEST SWAP1 DUP2 MSTORE PUSH1 0x20 ADD PUSH1 0x40 MLOAD DUP1 SWAP2 SUB SWAP1 KECCAK256 PUSH0 PUSH2 0x100 EXP DUP2 SLOAD DUP2 PUSH1 0xFF MUL NOT AND SWAP1 DUP4 ISZERO ISZERO MUL OR SWAP1 SSTORE POP PUSH1 0x1 PUSH1 0xB PUSH1 0x40 MLOAD PUSH2 0x3D3 SWAP1 PUSH2 0x768 JUMP JUMPDEST SWAP1 DUP2 MSTORE PUSH1 0x20 ADD PUSH1 0x40 MLOAD DUP1 SWAP2 SUB SWAP1 KECCAK256 PUSH0 PUSH2 0x100 EXP DUP2 SLOAD DUP2 PUSH1 0xFF MUL NOT AND SWAP1 DUP4 ISZERO ISZERO MUL OR SWAP1 SSTORE POP PUSH1 0x1 PUSH1 0xB PUSH1 0x40 MLOAD PUSH2 0x407 SWAP1 PUSH2 0x7C6 JUMP JUMPDEST SWAP1 DUP2 MSTORE PUSH1 0x20 ADD PUSH1 0x40 MLOAD DUP1 SWAP2 SUB SWAP1 KECCAK256 PUSH0 PUSH2 0x100 EXP DUP2 SLOAD DUP2 PUSH1 0xFF MUL NOT AND SWAP1 DUP4 ISZERO ISZERO MUL OR SWAP1 SSTORE POP PUSH1 0x1 PUSH1 0xB PUSH1 0x40 MLOAD PUSH2 0x43B SWAP1 PUSH2 0x824 JUMP JUMPDEST SWAP1 DUP2 MSTORE PUSH1 0x20 ADD PUSH1 0x40 MLOAD DUP1 SWAP2 SUB SWAP1 KECCAK256 PUSH0 PUSH2 0x100 EXP DUP2 SLOAD DUP2 PUSH1 0xFF MUL NOT AND SWAP1 DUP4 ISZERO ISZERO MUL OR SWAP1 SSTORE POP PUSH1 0x1 PUSH1 0xB PUSH1 0x40 MLOAD PUSH2 0x46F SWAP1 PUSH2 0x882 JUMP JUMPDEST SWAP1 DUP2 MSTORE PUSH1 0x20 ADD PUSH1 0x40 MLOAD DUP1 SWAP2 SUB SWAP1 KECCAK256 PUSH0 PUSH2 0x100 EXP DUP2 SLOAD DUP2 PUSH1 0xFF MUL NOT AND SWAP1 DUP4 ISZERO ISZERO MUL OR SWAP1 SSTORE POP PUSH1 0x1 PUSH1 0xB PUSH1 0x40 MLOAD PUSH2 0x4A3 SWAP1 PUSH2 0x8E0 JUMP JUMPDEST SWAP1 DUP2 MSTORE PUSH1 0x20 ADD PUSH1 0x40 MLOAD DUP1 SWAP2 SUB SWAP1 KECCAK256 PUSH0 PUSH2 0x100 EXP DUP2 SLOAD DUP2 PUSH1 0xFF MUL NOT AND SWAP1 DUP4 ISZERO ISZERO MUL OR SWAP1 SSTORE POP PUSH1 0x1 PUSH1 0xB PUSH1 0x40 MLOAD PUSH2 0x4D7 SWAP1 PUSH2 0x93E JUMP JUMPDEST SWAP1 DUP2 MSTORE PUSH1 0x20 ADD PUSH1 0x40 MLOAD DUP1 SWAP2 SUB SWAP1 KECCAK256 PUSH0 PUSH2 0x100 EXP DUP2 SLOAD DUP2 PUSH1 0xFF MUL NOT AND SWAP1 DUP4 ISZERO ISZERO MUL OR SWAP1 SSTORE POP PUSH1 0x1 PUSH1 0xB PUSH1 0x40 MLOAD PUSH2 0x50B SWAP1 PUSH2 0x99C JUMP JUMPDEST SWAP1 DUP2 MSTORE PUSH1 0x20 ADD PUSH1 0x40 MLOAD DUP1 SWAP2 SUB SWAP1 KECCAK256 PUSH0 PUSH2 0x100 EXP DUP2 SLOAD DUP2 PUSH1 0xFF MUL NOT AND SWAP1 DUP4 ISZERO ISZERO MUL OR SWAP1 SSTORE POP JUMP JUMPDEST PUSH0 PUSH1 0x2 PUSH0 DUP5 DUP2 MSTORE PUSH1 0x20 ADD SWAP1 DUP2 MSTORE PUSH1 0x20 ADD PUSH0 KECCAK256 PUSH0 ADD PUSH0 DUP4 PUSH20 0xFFFFFFFFFFFFFFFFFFFFFFFFFFFFFFFFFFFFFFFF AND PUSH20 0xFFFFFFFFFFFFFFFFFFFFFFFFFFFFFFFFFFFFFFFF AND DUP2 MSTORE PUSH1 0x20 ADD SWAP1 DUP2 MSTORE PUSH1 0x20 ADD PUSH0 KECCAK256 PUSH0 SWAP1 SLOAD SWAP1 PUSH2 0x100 EXP SWAP1 DIV PUSH1 0xFF AND SWAP1 POP SWAP3 SWAP2 POP POP JUMP JUMPDEST PUSH0 CALLER SWAP1 POP SWAP1 JUMP JUMPDEST PUSH0 DUP2 SWAP1 POP SWAP3 SWAP2 POP POP JUMP JUMPDEST PUSH32 0x4368616D612043726561746F7200000000000000000000000000000000000000 PUSH0 DUP3 ADD MSTORE POP JUMP JUMPDEST PUSH0 PUSH2 0x5DA PUSH1 0xD DUP4 PUSH2 0x59C JUMP JUMPDEST SWAP2 POP PUSH2 0x5E5 DUP3 PUSH2 0x5A6 JUMP JUMPDEST PUSH1 0xD DUP3 ADD SWAP1 POP SWAP2 SWAP1 POP JUMP JUMPDEST PUSH0 PUSH2 0x5FA DUP3 PUSH2 0x5CE JUMP JUMPDEST SWAP2 POP DUP2 SWAP1 POP SWAP2 SWAP1 POP JUMP JUMPDEST PUSH32 0x466972737420537461636B000000000000000000000000000000000000000000 PUSH0 DUP3 ADD MSTORE POP JUMP JUMPDEST PUSH0 PUSH2 0x638 PUSH1 0xB DUP4 PUSH2 0x59C JUMP JUMPDEST SWAP2 POP PUSH2 0x643 DUP3 PUSH2 0x604 JUMP JUMPDEST PUSH1 0xB DUP3 ADD SWAP1 POP SWAP2 SWAP1 POP JUMP JUMPDEST PUSH0 PUSH2 0x658 DUP3 PUSH2 0x62C JUMP JUMPDEST SWAP2 POP DUP2 SWAP1 POP SWAP2 SWAP1 POP JUMP JUMPDEST PUSH32 0x3520436F6E747269627574696F6E730000000000000000000000000000000000 PUSH0 DUP3 ADD MSTORE POP JUMP JUMPDEST PUSH0 PUSH2 0x696 PUSH1 0xF DUP4 PUSH2 0x59C JUMP JUMPDEST SWAP2 POP PUSH2 0x6A1 DUP3 PUSH2 0x662 JUMP JUMPDEST PUSH1 0xF DUP3 ADD SWAP1 POP SWAP2 SWAP1 POP JUMP JUMPDEST PUSH0 PUSH2 0x6B6 DUP3 PUSH2 0x68A JUMP JUMPDEST SWAP2 POP DUP2 SWAP1 POP SWAP2 SWAP1 POP JUMP JUMPDEST PUSH32 0x4368616D6120436F6D706C657465640000000000000000000000000000000000 PUSH0 DUP3 ADD MSTORE POP JUMP JUMPDEST PUSH0 PUSH2 0x6F4 PUSH1 0xF DUP4 PUSH2 0x59C JUMP JUMPDEST SWAP2 POP PUSH2 0x6FF DUP3 PUSH2 0x6C0 JUMP JUMPDEST PUSH1 0xF DUP3 ADD SWAP1 POP SWAP2 SWAP1 POP JUMP JUMPDEST PUSH0 PUSH2 0x714 DUP3 PUSH2 0x6E8 JUMP JUMPDEST SWAP2 POP DUP2 SWAP1 POP SWAP2 SWAP1 POP JUMP JUMPDEST PUSH32 0x5065726665637420417474656E64616E63650000000000000000000000000000 PUSH0 DUP3 ADD MSTORE POP JUMP JUMPDEST PUSH0 PUSH2 0x752 PUSH1 0x12 DUP4 PUSH2 0x59C JUMP JUMPDEST SWAP2 POP PUSH2 0x75D DUP3 PUSH2 0x71E JUMP JUMPDEST PUSH1 0x12 DUP3 ADD SWAP1 POP SWAP2 SWAP1 POP JUMP JUMPDEST PUSH0 PUSH2 0x772 DUP3 PUSH2 0x746 JUMP JUMPDEST SWAP2 POP DUP2 SWAP1 POP SWAP2 SWAP1 POP JUMP JUMPDEST PUSH32 0x496E7669746564203320467269656E6473000000000000000000000000000000 PUSH0 DUP3 ADD MSTORE POP JUMP JUMPDEST PUSH0 PUSH2 0x7B0 PUSH1 0x11 DUP4 PUSH2 0x59C JUMP JUMPDEST SWAP2 POP PUSH2 0x7BB DUP3 PUSH2 0x77C JUMP JUMPDEST PUSH1 0x11 DUP3 ADD SWAP1 POP SWAP2 SWAP1 POP JUMP JUMPDEST PUSH0 PUSH2 0x7D0 DUP3 PUSH2 0x7A4 JUMP JUMPDEST SWAP2 POP DUP2 SWAP1 POP SWAP2 SWAP1 POP JUMP JUMPDEST PUSH32 0x496E766974656420313020467269656E64730000000000000000000000000000 PUSH0 DUP3 ADD MSTORE POP JUMP JUMPDEST PUSH0 PUSH2 0x80E PUSH1 0x12 DUP4 PUSH2 0x59C JUMP JUMPDEST SWAP2 POP PUSH2 0x819 DUP3 PUSH2 0x7DA JUMP JUMPDEST PUSH1 0x12 DUP3 ADD SWAP1 POP SWAP2 SWAP1 POP JUMP JUMPDEST PUSH0 PUSH2 0x82E DUP3 PUSH2 0x802 JUMP JUMPDEST SWAP2 POP DUP2 SWAP1 POP SWAP2 SWAP1 POP JUMP JUMPDEST PUSH32 0x536F6369616C20427574746572666C7900000000000000000000000000000000 PUSH0 DUP3 ADD MSTORE POP JUMP JUMPDEST PUSH0 PUSH2 0x86C PUSH1 0x10 DUP4 PUSH2 0x59C JUMP JUMPDEST SWAP2 POP PUSH2 0x877 DUP3 PUSH2 0x838 JUMP JUMPDEST PUSH1 0x10 DUP3 ADD SWAP1 POP SWAP2 SWAP1 POP JUMP JUMPDEST PUSH0 PUSH2 0x88C DUP3 PUSH2 0x860 JUMP JUMPDEST SWAP2 POP DUP2 SWAP1 POP SWAP2 SWAP1 POP JUMP JUMPDEST PUSH32 0x4669727374205032500000000000000000000000000000000000000000000000 PUSH0 DUP3 ADD MSTORE POP JUMP JUMPDEST PUSH0 PUSH2 0x8CA PUSH1 0x9 DUP4 PUSH2 0x59C JUMP JUMPDEST SWAP2 POP PUSH2 0x8D5 DUP3 PUSH2 0x896 JUMP JUMPDEST PUSH1 0x9 DUP3 ADD SWAP1 POP SWAP2 SWAP1 POP JUMP JUMPDEST PUSH0 PUSH2 0x8EA DUP3 PUSH2 0x8BE JUMP JUMPDEST SWAP2 POP DUP2 SWAP1 POP SWAP2 SWAP1 POP JUMP JUMPDEST PUSH32 0x53656E7420352052656420456E76656C6F706573000000000000000000000000 PUSH0 DUP3 ADD MSTORE POP JUMP JUMPDEST PUSH0 PUSH2 0x928 PUSH1 0x14 DUP4 PUSH2 0x59C JUMP JUMPDEST SWAP2 POP PUSH2 0x933 DUP3 PUSH2 0x8F4 JUMP JUMPDEST PUSH1 0x14 DUP3 ADD SWAP1 POP SWAP2 SWAP1 POP JUMP JUMPDEST PUSH0 PUSH2 0x948 DUP3 PUSH2 0x91C JUMP JUMPDEST SWAP2 POP DUP2 SWAP1 POP SWAP2 SWAP1 POP JUMP JUMPDEST PUSH32 0x52656420456E76656C6F7065204D617374657200000000000000000000000000 PUSH0 DUP3 ADD MSTORE POP JUMP JUMPDEST PUSH0 PUSH2 0x986 PUSH1 0x13 DUP4 PUSH2 0x59C JUMP JUMPDEST SWAP2 POP PUSH2 0x991 DUP3 PUSH2 0x952 JUMP JUMPDEST PUSH1 0x13 DUP3 ADD SWAP1 POP SWAP2 SWAP1 POP JUMP JUMPDEST PUSH0 PUSH2 0x9A6 DUP3 PUSH2 0x97A JUMP JUMPDEST SWAP2 POP DUP2 SWAP1 POP SWAP2 SWAP1 POP JUMP JUMPDEST PUSH2 0x3FB3 DUP1 PUSH2 0x9BD PUSH0 CODECOPY PUSH0 RETURN INVALID PUSH1 0x80 PUSH1 0x40 MSTORE CALLVALUE DUP1 ISZERO PUSH2 0xF JUMPI PUSH0 PUSH0 REVERT JUMPDEST POP PUSH1 0x4 CALLDATASIZE LT PUSH2 0x245 JUMPI PUSH0 CALLDATALOAD PUSH1 0xE0 SHR DUP1 PUSH4 0x75B238FC GT PUSH2 0x139 JUMPI DUP1 PUSH4 0xB34E0C47 GT PUSH2 0xB6 JUMPI DUP1 PUSH4 0xDDE7FE83 GT PUSH2 0x7A JUMPI DUP1 PUSH4 0xDDE7FE83 EQ PUSH2 0x75C JUMPI DUP1 PUSH4 0xE697B5D8 EQ PUSH2 0x78C JUMPI DUP1 PUSH4 0xF09153C4 EQ PUSH2 0x7BC JUMPI DUP1 PUSH4 0xF5C63A65 EQ PUSH2 0x7EC JUMPI DUP1 PUSH4 0xFB6298D5 EQ PUSH2 0x808 JUMPI PUSH2 0x245 JUMP JUMPDEST DUP1 PUSH4 0xB34E0C47 EQ PUSH2 0x68D JUMPI DUP1 PUSH4 0xBBE15627 EQ PUSH2 0x6BD JUMPI DUP1 PUSH4 0xBF882E73 EQ PUSH2 0x6F1 JUMPI DUP1 PUSH4 0xC4641DD7 EQ PUSH2 0x724 JUMPI DUP1 PUSH4 0xD547741F EQ PUSH2 0x740 JUMPI PUSH2 0x245 JUMP JUMPDEST DUP1 PUSH4 0x987EE156 GT PUSH2 0xFD JUMPI DUP1 PUSH4 0x987EE156 EQ PUSH2 0x5E9 JUMPI DUP1 PUSH4 0x9888A57C EQ PUSH2 0x619 JUMPI DUP1 PUSH4 0xA217FDDF EQ PUSH2 0x635 JUMPI DUP1 PUSH4 0xA9C837C9 EQ PUSH2 0x653 JUMPI DUP1 PUSH4 0xAC132D2D EQ PUSH2 0x66F JUMPI PUSH2 0x245 JUMP JUMPDEST DUP1 PUSH4 0x75B238FC EQ PUSH2 0x531 JUMPI DUP1 PUSH4 0x76DD110F EQ PUSH2 0x54F JUMPI DUP1 PUSH4 0x8456CB59 EQ PUSH2 0x57F JUMPI DUP1 PUSH4 0x87CF1621 EQ PUSH2 0x589 JUMPI DUP1 PUSH4 0x91D14854 EQ PUSH2 0x5B9 JUMPI PUSH2 0x245 JUMP JUMPDEST DUP1 PUSH4 0x36568ABE GT PUSH2 0x1C7 JUMPI DUP1 PUSH4 0x58F43F76 GT PUSH2 0x18B JUMPI DUP1 PUSH4 0x58F43F76 EQ PUSH2 0x47B JUMPI DUP1 PUSH4 0x5C975ABB EQ PUSH2 0x4AB JUMPI DUP1 PUSH4 0x5D03CE80 EQ PUSH2 0x4C9 JUMPI DUP1 PUSH4 0x61E092FC EQ PUSH2 0x4E5 JUMPI DUP1 PUSH4 0x7300F624 EQ PUSH2 0x515 JUMPI PUSH2 0x245 JUMP JUMPDEST DUP1 PUSH4 0x36568ABE EQ PUSH2 0x3C5 JUMPI DUP1 PUSH4 0x3F4BA83A EQ PUSH2 0x3E1 JUMPI DUP1 PUSH4 0x41C57372 EQ PUSH2 0x3EB JUMPI DUP1 PUSH4 0x575CEA6B EQ PUSH2 0x41B JUMPI DUP1 PUSH4 0x57B24E6B EQ PUSH2 0x44B JUMPI PUSH2 0x245 JUMP JUMPDEST DUP1 PUSH4 0x248A9CA3 GT PUSH2 0x20E JUMPI DUP1 PUSH4 0x248A9CA3 EQ PUSH2 0x2FD JUMPI DUP1 PUSH4 0x24ACBD69 EQ PUSH2 0x32D JUMPI DUP1 PUSH4 0x258219C2 EQ PUSH2 0x35D JUMPI DUP1 PUSH4 0x2F2FF15D EQ PUSH2 0x38D JUMPI DUP1 PUSH4 0x33B0D363 EQ PUSH2 0x3A9 JUMPI PUSH2 0x245 JUMP JUMPDEST DUP1 PUSH3 0x9299E3 EQ PUSH2 0x249 JUMPI DUP1 PUSH4 0x1FFC9A7 EQ PUSH2 0x265 JUMPI DUP1 PUSH4 0xC860DCC EQ PUSH2 0x295 JUMPI DUP1 PUSH4 0x14FC7E4D EQ PUSH2 0x2B1 JUMPI DUP1 PUSH4 0x16064572 EQ PUSH2 0x2E1 JUMPI JUMPDEST PUSH0 PUSH0 REVERT JUMPDEST PUSH2 0x263 PUSH1 0x4 DUP1 CALLDATASIZE SUB DUP2 ADD SWAP1 PUSH2 0x25E SWAP2 SWAP1 PUSH2 0x2F5D JUMP JUMPDEST PUSH2 0x838 JUMP JUMPDEST STOP JUMPDEST PUSH2 0x27F PUSH1 0x4 DUP1 CALLDATASIZE SUB DUP2 ADD SWAP1 PUSH2 0x27A SWAP2 SWAP1 PUSH2 0x2FF9 JUMP JUMPDEST PUSH2 0x9A2 JUMP JUMPDEST PUSH1 0x40 MLOAD PUSH2 0x28C SWAP2 SWAP1 PUSH2 0x303E JUMP JUMPDEST PUSH1 0x40 MLOAD DUP1 SWAP2 SUB SWAP1 RETURN JUMPDEST PUSH2 0x2AF PUSH1 0x4 DUP1 CALLDATASIZE SUB DUP2 ADD SWAP1 PUSH2 0x2AA SWAP2 SWAP1 PUSH2 0x308A JUMP JUMPDEST PUSH2 0xA1B JUMP JUMPDEST STOP JUMPDEST PUSH2 0x2CB PUSH1 0x4 DUP1 CALLDATASIZE SUB DUP2 ADD SWAP1 PUSH2 0x2C6 SWAP2 SWAP1 PUSH2 0x2F5D JUMP JUMPDEST PUSH2 0xAA3 JUMP JUMPDEST PUSH1 0x40 MLOAD PUSH2 0x2D8 SWAP2 SWAP1 PUSH2 0x303E JUMP JUMPDEST PUSH1 0x40 MLOAD DUP1 SWAP2 SUB SWAP1 RETURN JUMPDEST PUSH2 0x2FB PUSH1 0x4 DUP1 CALLDATASIZE SUB DUP2 ADD SWAP1 PUSH2 0x2F6 SWAP2 SWAP1 PUSH2 0x313E JUMP JUMPDEST PUSH2 0xAD6 JUMP JUMPDEST STOP JUMPDEST PUSH2 0x317 PUSH1 0x4 DUP1 CALLDATASIZE SUB DUP2 ADD SWAP1 PUSH2 0x312 SWAP2 SWAP1 PUSH2 0x31CB JUMP JUMPDEST PUSH2 0xB0F JUMP JUMPDEST PUSH1 0x40 MLOAD PUSH2 0x324 SWAP2 SWAP1 PUSH2 0x3205 JUMP JUMPDEST PUSH1 0x40 MLOAD DUP1 SWAP2 SUB SWAP1 RETURN JUMPDEST PUSH2 0x347 PUSH1 0x4 DUP1 CALLDATASIZE SUB DUP2 ADD SWAP1 PUSH2 0x342 SWAP2 SWAP1 PUSH2 0x321E JUMP JUMPDEST PUSH2 0xB2C JUMP JUMPDEST PUSH1 0x40 MLOAD PUSH2 0x354 SWAP2 SWAP1 PUSH2 0x3258 JUMP JUMPDEST PUSH1 0x40 MLOAD DUP1 SWAP2 SUB SWAP1 RETURN JUMPDEST PUSH2 0x377 PUSH1 0x4 DUP1 CALLDATASIZE SUB DUP2 ADD SWAP1 PUSH2 0x372 SWAP2 SWAP1 PUSH2 0x2F5D JUMP JUMPDEST PUSH2 0xB72 JUMP JUMPDEST PUSH1 0x40 MLOAD PUSH2 0x384 SWAP2 SWAP1 PUSH2 0x303E JUMP JUMPDEST PUSH1 0x40 MLOAD DUP1 SWAP2 SUB SWAP1 RETURN JUMPDEST PUSH2 0x3A7 PUSH1 0x4 DUP1 CALLDATASIZE SUB DUP2 ADD SWAP1 PUSH2 0x3A2 SWAP2 SWAP1 PUSH2 0x3271 JUMP JUMPDEST PUSH2 0xBA7 JUMP JUMPDEST STOP JUMPDEST PUSH2 0x3C3 PUSH1 0x4 DUP1 CALLDATASIZE SUB DUP2 ADD SWAP1 PUSH2 0x3BE SWAP2 SWAP1 PUSH2 0x31CB JUMP JUMPDEST PUSH2 0xBC9 JUMP JUMPDEST STOP JUMPDEST PUSH2 0x3DF PUSH1 0x4 DUP1 CALLDATASIZE SUB DUP2 ADD SWAP1 PUSH2 0x3DA SWAP2 SWAP1 PUSH2 0x3271 JUMP JUMPDEST PUSH2 0xF8F JUMP JUMPDEST STOP JUMPDEST PUSH2 0x3E9 PUSH2 0x100A JUMP JUMPDEST STOP JUMPDEST PUSH2 0x405 PUSH1 0x4 DUP1 CALLDATASIZE SUB DUP2 ADD SWAP1 PUSH2 0x400 SWAP2 SWAP1 PUSH2 0x2F5D JUMP JUMPDEST PUSH2 0x103F JUMP JUMPDEST PUSH1 0x40 MLOAD PUSH2 0x412 SWAP2 SWAP1 PUSH2 0x3258 JUMP JUMPDEST PUSH1 0x40 MLOAD DUP1 SWAP2 SUB SWAP1 RETURN JUMPDEST PUSH2 0x435 PUSH1 0x4 DUP1 CALLDATASIZE SUB DUP2 ADD SWAP1 PUSH2 0x430 SWAP2 SWAP1 PUSH2 0x321E JUMP JUMPDEST PUSH2 0x1066 JUMP JUMPDEST PUSH1 0x40 MLOAD PUSH2 0x442 SWAP2 SWAP1 PUSH2 0x3366 JUMP JUMPDEST PUSH1 0x40 MLOAD DUP1 SWAP2 SUB SWAP1 RETURN JUMPDEST PUSH2 0x465 PUSH1 0x4 DUP1 CALLDATASIZE SUB DUP2 ADD SWAP1 PUSH2 0x460 SWAP2 SWAP1 PUSH2 0x321E JUMP JUMPDEST PUSH2 0x112E JUMP JUMPDEST PUSH1 0x40 MLOAD PUSH2 0x472 SWAP2 SWAP1 PUSH2 0x3258 JUMP JUMPDEST PUSH1 0x40 MLOAD DUP1 SWAP2 SUB SWAP1 RETURN JUMPDEST PUSH2 0x495 PUSH1 0x4 DUP1 CALLDATASIZE SUB DUP2 ADD SWAP1 PUSH2 0x490 SWAP2 SWAP1 PUSH2 0x321E JUMP JUMPDEST PUSH2 0x1143 JUMP JUMPDEST PUSH1 0x40 MLOAD PUSH2 0x4A2 SWAP2 SWAP1 PUSH2 0x3205 JUMP JUMPDEST PUSH1 0x40 MLOAD DUP1 SWAP2 SUB SWAP1 RETURN JUMPDEST PUSH2 0x4B3 PUSH2 0x1158 JUMP JUMPDEST PUSH1 0x40 MLOAD PUSH2 0x4C0 SWAP2 SWAP1 PUSH2 0x303E JUMP JUMPDEST PUSH1 0x40 MLOAD DUP1 SWAP2 SUB SWAP1 RETURN JUMPDEST PUSH2 0x4E3 PUSH1 0x4 DUP1 CALLDATASIZE SUB DUP2 ADD SWAP1 PUSH2 0x4DE SWAP2 SWAP1 PUSH2 0x3386 JUMP JUMPDEST PUSH2 0x116D JUMP JUMPDEST STOP JUMPDEST PUSH2 0x4FF PUSH1 0x4 DUP1 CALLDATASIZE SUB DUP2 ADD SWAP1 PUSH2 0x4FA SWAP2 SWAP1 PUSH2 0x321E JUMP JUMPDEST PUSH2 0x11A8 JUMP JUMPDEST PUSH1 0x40 MLOAD PUSH2 0x50C SWAP2 SWAP1 PUSH2 0x3205 JUMP JUMPDEST PUSH1 0x40 MLOAD DUP1 SWAP2 SUB SWAP1 RETURN JUMPDEST PUSH2 0x52F PUSH1 0x4 DUP1 CALLDATASIZE SUB DUP2 ADD SWAP1 PUSH2 0x52A SWAP2 SWAP1 PUSH2 0x321E JUMP JUMPDEST PUSH2 0x11EE JUMP JUMPDEST STOP JUMPDEST PUSH2 0x539 PUSH2 0x1247 JUMP JUMPDEST PUSH1 0x40 MLOAD PUSH2 0x546 SWAP2 SWAP1 PUSH2 0x3205 JUMP JUMPDEST PUSH1 0x40 MLOAD DUP1 SWAP2 SUB SWAP1 RETURN JUMPDEST PUSH2 0x569 PUSH1 0x4 DUP1 CALLDATASIZE SUB DUP2 ADD SWAP1 PUSH2 0x564 SWAP2 SWAP1 PUSH2 0x321E JUMP JUMPDEST PUSH2 0x126B JUMP JUMPDEST PUSH1 0x40 MLOAD PUSH2 0x576 SWAP2 SWAP1 PUSH2 0x3258 JUMP JUMPDEST PUSH1 0x40 MLOAD DUP1 SWAP2 SUB SWAP1 RETURN JUMPDEST PUSH2 0x587 PUSH2 0x1280 JUMP JUMPDEST STOP JUMPDEST PUSH2 0x5A3 PUSH1 0x4 DUP1 CALLDATASIZE SUB DUP2 ADD SWAP1 PUSH2 0x59E SWAP2 SWAP1 PUSH2 0x31CB JUMP JUMPDEST PUSH2 0x12B5 JUMP JUMPDEST PUSH1 0x40 MLOAD PUSH2 0x5B0 SWAP2 SWAP1 PUSH2 0x3401 JUMP JUMPDEST PUSH1 0x40 MLOAD DUP1 SWAP2 SUB SWAP1 RETURN JUMPDEST PUSH2 0x5D3 PUSH1 0x4 DUP1 CALLDATASIZE SUB DUP2 ADD SWAP1 PUSH2 0x5CE SWAP2 SWAP1 PUSH2 0x3271 JUMP JUMPDEST PUSH2 0x12EE JUMP JUMPDEST PUSH1 0x40 MLOAD PUSH2 0x5E0 SWAP2 SWAP1 PUSH2 0x303E JUMP JUMPDEST PUSH1 0x40 MLOAD DUP1 SWAP2 SUB SWAP1 RETURN JUMPDEST PUSH2 0x603 PUSH1 0x4 DUP1 CALLDATASIZE SUB DUP2 ADD SWAP1 PUSH2 0x5FE SWAP2 SWAP1 PUSH2 0x321E JUMP JUMPDEST PUSH2 0x1352 JUMP JUMPDEST PUSH1 0x40 MLOAD PUSH2 0x610 SWAP2 SWAP1 PUSH2 0x351A JUMP JUMPDEST PUSH1 0x40 MLOAD DUP1 SWAP2 SUB SWAP1 RETURN JUMPDEST PUSH2 0x633 PUSH1 0x4 DUP1 CALLDATASIZE SUB DUP2 ADD SWAP1 PUSH2 0x62E SWAP2 SWAP1 PUSH2 0x353A JUMP JUMPDEST PUSH2 0x14BB JUMP JUMPDEST STOP JUMPDEST PUSH2 0x63D PUSH2 0x16E5 JUMP JUMPDEST PUSH1 0x40 MLOAD PUSH2 0x64A SWAP2 SWAP1 PUSH2 0x3205 JUMP JUMPDEST PUSH1 0x40 MLOAD DUP1 SWAP2 SUB SWAP1 RETURN JUMPDEST PUSH2 0x66D PUSH1 0x4 DUP1 CALLDATASIZE SUB DUP2 ADD SWAP1 PUSH2 0x668 SWAP2 SWAP1 PUSH2 0x353A JUMP JUMPDEST PUSH2 0x16EB JUMP JUMPDEST STOP JUMPDEST PUSH2 0x677 PUSH2 0x1A6A JUMP JUMPDEST PUSH1 0x40 MLOAD PUSH2 0x684 SWAP2 SWAP1 PUSH2 0x3205 JUMP JUMPDEST PUSH1 0x40 MLOAD DUP1 SWAP2 SUB SWAP1 RETURN JUMPDEST PUSH2 0x6A7 PUSH1 0x4 DUP1 CALLDATASIZE SUB DUP2 ADD SWAP1 PUSH2 0x6A2 SWAP2 SWAP1 PUSH2 0x321E JUMP JUMPDEST PUSH2 0x1A8E JUMP JUMPDEST PUSH1 0x40 MLOAD PUSH2 0x6B4 SWAP2 SWAP1 PUSH2 0x3258 JUMP JUMPDEST PUSH1 0x40 MLOAD DUP1 SWAP2 SUB SWAP1 RETURN JUMPDEST PUSH2 0x6D7 PUSH1 0x4 DUP1 CALLDATASIZE SUB DUP2 ADD SWAP1 PUSH2 0x6D2 SWAP2 SWAP1 PUSH2 0x321E JUMP JUMPDEST PUSH2 0x1AD4 JUMP JUMPDEST PUSH1 0x40 MLOAD PUSH2 0x6E8 SWAP6 SWAP5 SWAP4 SWAP3 SWAP2 SWAP1 PUSH2 0x35DC JUMP JUMPDEST PUSH1 0x40 MLOAD DUP1 SWAP2 SUB SWAP1 RETURN JUMPDEST PUSH2 0x70B PUSH1 0x4 DUP1 CALLDATASIZE SUB DUP2 ADD SWAP1 PUSH2 0x706 SWAP2 SWAP1 PUSH2 0x3634 JUMP JUMPDEST PUSH2 0x1BB7 JUMP JUMPDEST PUSH1 0x40 MLOAD PUSH2 0x71B SWAP5 SWAP4 SWAP3 SWAP2 SWAP1 PUSH2 0x3672 JUMP JUMPDEST PUSH1 0x40 MLOAD DUP1 SWAP2 SUB SWAP1 RETURN JUMPDEST PUSH2 0x73E PUSH1 0x4 DUP1 CALLDATASIZE SUB DUP2 ADD SWAP1 PUSH2 0x739 SWAP2 SWAP1 PUSH2 0x308A JUMP JUMPDEST PUSH2 0x1D09 JUMP JUMPDEST STOP JUMPDEST PUSH2 0x75A PUSH1 0x4 DUP1 CALLDATASIZE SUB DUP2 ADD SWAP1 PUSH2 0x755 SWAP2 SWAP1 PUSH2 0x3271 JUMP JUMPDEST PUSH2 0x1DBC JUMP JUMPDEST STOP JUMPDEST PUSH2 0x776 PUSH1 0x4 DUP1 CALLDATASIZE SUB DUP2 ADD SWAP1 PUSH2 0x771 SWAP2 SWAP1 PUSH2 0x31CB JUMP JUMPDEST PUSH2 0x1DDE JUMP JUMPDEST PUSH1 0x40 MLOAD PUSH2 0x783 SWAP2 SWAP1 PUSH2 0x3401 JUMP JUMPDEST PUSH1 0x40 MLOAD DUP1 SWAP2 SUB SWAP1 RETURN JUMPDEST PUSH2 0x7A6 PUSH1 0x4 DUP1 CALLDATASIZE SUB DUP2 ADD SWAP1 PUSH2 0x7A1 SWAP2 SWAP1 PUSH2 0x3634 JUMP JUMPDEST PUSH2 0x1E0E JUMP JUMPDEST PUSH1 0x40 MLOAD PUSH2 0x7B3 SWAP2 SWAP1 PUSH2 0x3401 JUMP JUMPDEST PUSH1 0x40 MLOAD DUP1 SWAP2 SUB SWAP1 RETURN JUMPDEST PUSH2 0x7D6 PUSH1 0x4 DUP1 CALLDATASIZE SUB DUP2 ADD SWAP1 PUSH2 0x7D1 SWAP2 SWAP1 PUSH2 0x321E JUMP JUMPDEST PUSH2 0x1E56 JUMP JUMPDEST PUSH1 0x40 MLOAD PUSH2 0x7E3 SWAP2 SWAP1 PUSH2 0x37E5 JUMP JUMPDEST PUSH1 0x40 MLOAD DUP1 SWAP2 SUB SWAP1 RETURN JUMPDEST PUSH2 0x806 PUSH1 0x4 DUP1 CALLDATASIZE SUB DUP2 ADD SWAP1 PUSH2 0x801 SWAP2 SWAP1 PUSH2 0x3386 JUMP JUMPDEST PUSH2 0x2022 JUMP JUMPDEST STOP JUMPDEST PUSH2 0x822 PUSH1 0x4 DUP1 CALLDATASIZE SUB DUP2 ADD SWAP1 PUSH2 0x81D SWAP2 SWAP1 PUSH2 0x2F5D JUMP JUMPDEST PUSH2 0x21BE JUMP JUMPDEST PUSH1 0x40 MLOAD PUSH2 0x82F SWAP2 SWAP1 PUSH2 0x3258 JUMP JUMPDEST PUSH1 0x40 MLOAD DUP1 SWAP2 SUB SWAP1 RETURN JUMPDEST PUSH2 0x840 PUSH2 0x21EB JUMP JUMPDEST PUSH0 PUSH20 0xFFFFFFFFFFFFFFFFFFFFFFFFFFFFFFFFFFFFFFFF AND PUSH1 0x7 PUSH0 CALLER PUSH20 0xFFFFFFFFFFFFFFFFFFFFFFFFFFFFFFFFFFFFFFFF AND PUSH20 0xFFFFFFFFFFFFFFFFFFFFFFFFFFFFFFFFFFFFFFFF AND DUP2 MSTORE PUSH1 0x20 ADD SWAP1 DUP2 MSTORE PUSH1 0x20 ADD PUSH0 KECCAK256 PUSH0 ADD PUSH0 SWAP1 SLOAD SWAP1 PUSH2 0x100 EXP SWAP1 DIV PUSH20 0xFFFFFFFFFFFFFFFFFFFFFFFFFFFFFFFFFFFFFFFF AND PUSH20 0xFFFFFFFFFFFFFFFFFFFFFFFFFFFFFFFFFFFFFFFF AND SUB PUSH2 0x903 JUMPI PUSH1 0x40 MLOAD PUSH32 0x72DA560B00000000000000000000000000000000000000000000000000000000 DUP2 MSTORE PUSH1 0x4 ADD PUSH1 0x40 MLOAD DUP1 SWAP2 SUB SWAP1 REVERT JUMPDEST DUP1 PUSH1 0x7 PUSH0 CALLER PUSH20 0xFFFFFFFFFFFFFFFFFFFFFFFFFFFFFFFFFFFFFFFF AND PUSH20 0xFFFFFFFFFFFFFFFFFFFFFFFFFFFFFFFFFFFFFFFF AND DUP2 MSTORE PUSH1 0x20 ADD SWAP1 DUP2 MSTORE PUSH1 0x20 ADD PUSH0 KECCAK256 PUSH1 0x1 ADD SWAP1 DUP2 PUSH2 0x950 SWAP2 SWAP1 PUSH2 0x3A02 JUMP JUMPDEST POP CALLER PUSH20 0xFFFFFFFFFFFFFFFFFFFFFFFFFFFFFFFFFFFFFFFF AND PUSH32 0xDD635A4CD84864E37E4479DBFC2EC667ACFA473C83C8422A8AC9D9D07599B01C DUP3 PUSH1 0x40 MLOAD PUSH2 0x997 SWAP2 SWAP1 PUSH2 0x3AD1 JUMP JUMPDEST PUSH1 0x40 MLOAD DUP1 SWAP2 SUB SWAP1 LOG2 POP JUMP JUMPDEST PUSH0 PUSH32 0x7965DB0B00000000000000000000000000000000000000000000000000000000 PUSH28 0xFFFFFFFFFFFFFFFFFFFFFFFFFFFFFFFFFFFFFFFFFFFFFFFFFFFFFFFF NOT AND DUP3 PUSH28 0xFFFFFFFFFFFFFFFFFFFFFFFFFFFFFFFFFFFFFFFFFFFFFFFFFFFFFFFF NOT AND EQ DUP1 PUSH2 0xA14 JUMPI POP PUSH2 0xA13 DUP3 PUSH2 0x2235 JUMP JUMPDEST JUMPDEST SWAP1 POP SWAP2 SWAP1 POP JUMP JUMPDEST PUSH32 0xA49807205CE4D355092EF5A8A18F56E8913CF4A201FBE287825B095693C21775 PUSH2 0xA45 DUP2 PUSH2 0x229E JUMP JUMPDEST DUP2 PUSH1 0xA DUP5 PUSH1 0x40 MLOAD PUSH2 0xA56 SWAP2 SWAP1 PUSH2 0x3B2B JUMP JUMPDEST SWAP1 DUP2 MSTORE PUSH1 0x20 ADD PUSH1 0x40 MLOAD DUP1 SWAP2 SUB SWAP1 KECCAK256 DUP2 SWAP1 SSTORE POP PUSH1 0x1 PUSH1 0xB DUP5 PUSH1 0x40 MLOAD PUSH2 0xA7A SWAP2 SWAP1 PUSH2 0x3B2B JUMP JUMPDEST SWAP1 DUP2 MSTORE PUSH1 0x20 ADD PUSH1 0x40 MLOAD DUP1 SWAP2 SUB SWAP1 KECCAK256 PUSH0 PUSH2 0x100 EXP DUP2 SLOAD DUP2 PUSH1 0xFF MUL NOT AND SWAP1 DUP4 ISZERO ISZERO MUL OR SWAP1 SSTORE POP POP POP POP JUMP JUMPDEST PUSH0 PUSH1 0xB DUP3 PUSH1 0x40 MLOAD PUSH2 0xAB4 SWAP2 SWAP1 PUSH2 0x3B2B JUMP JUMPDEST SWAP1 DUP2 MSTORE PUSH1 0x20 ADD PUSH1 0x40 MLOAD DUP1 SWAP2 SUB SWAP1 KECCAK256 PUSH0 SWAP1 SLOAD SWAP1 PUSH2 0x100 EXP SWAP1 DIV PUSH1 0xFF AND SWAP1 POP SWAP2 SWAP1 POP JUMP JUMPDEST PUSH32 0xC5C74B901CB87F1E81A3E0539A5D95BF14FA111210701DD52208A2390204B455 PUSH2 0xB00 DUP2 PUSH2 0x229E JUMP JUMPDEST PUSH2 0xB0A DUP4 DUP4 PUSH2 0x22B2 JUMP JUMPDEST POP POP POP JUMP JUMPDEST PUSH0 PUSH1 0x2 PUSH0 DUP4 DUP2 MSTORE PUSH1 0x20 ADD SWAP1 DUP2 MSTORE PUSH1 0x20 ADD PUSH0 KECCAK256 PUSH1 0x1 ADD SLOAD SWAP1 POP SWAP2 SWAP1 POP JUMP JUMPDEST PUSH0 PUSH1 0x8 PUSH0 DUP4 PUSH20 0xFFFFFFFFFFFFFFFFFFFFFFFFFFFFFFFFFFFFFFFF AND PUSH20 0xFFFFFFFFFFFFFFFFFFFFFFFFFFFFFFFFFFFFFFFF AND DUP2 MSTORE PUSH1 0x20 ADD SWAP1 DUP2 MSTORE PUSH1 0x20 ADD PUSH0 KECCAK256 SLOAD SWAP1 POP SWAP2 SWAP1 POP JUMP JUMPDEST PUSH1 0xB DUP2 DUP1 MLOAD PUSH1 0x20 DUP2 ADD DUP3 ADD DUP1 MLOAD DUP5 DUP3 MSTORE PUSH1 0x20 DUP4 ADD PUSH1 0x20 DUP6 ADD KECCAK256 DUP2 DUP4 MSTORE DUP1 SWAP6 POP POP POP POP POP POP PUSH0 SWAP2 POP SLOAD SWAP1 PUSH2 0x100 EXP SWAP1 DIV PUSH1 0xFF AND DUP2 JUMP JUMPDEST PUSH2 0xBB0 DUP3 PUSH2 0xB0F JUMP JUMPDEST PUSH2 0xBB9 DUP2 PUSH2 0x229E JUMP JUMPDEST PUSH2 0xBC3 DUP4 DUP4 PUSH2 0x252B JUMP JUMPDEST POP POP POP POP JUMP JUMPDEST PUSH2 0xBD1 PUSH2 0x21EB JUMP JUMPDEST PUSH0 PUSH1 0x6 PUSH0 DUP4 DUP2 MSTORE PUSH1 0x20 ADD SWAP1 DUP2 MSTORE PUSH1 0x20 ADD PUSH0 KECCAK256 PUSH0 SWAP1 SLOAD SWAP1 PUSH2 0x100 EXP SWAP1 DIV PUSH20 0xFFFFFFFFFFFFFFFFFFFFFFFFFFFFFFFFFFFFFFFF AND SWAP1 POP PUSH0 PUSH20 0xFFFFFFFFFFFFFFFFFFFFFFFFFFFFFFFFFFFFFFFF AND DUP2 PUSH20 0xFFFFFFFFFFFFFFFFFFFFFFFFFFFFFFFFFFFFFFFF AND SUB PUSH2 0xC6A JUMPI PUSH1 0x40 MLOAD PUSH32 0x6110422800000000000000000000000000000000000000000000000000000000 DUP2 MSTORE PUSH1 0x4 ADD PUSH1 0x40 MLOAD DUP1 SWAP2 SUB SWAP1 REVERT JUMPDEST PUSH1 0x9 PUSH0 DUP3 PUSH20 0xFFFFFFFFFFFFFFFFFFFFFFFFFFFFFFFFFFFFFFFF AND PUSH20 0xFFFFFFFFFFFFFFFFFFFFFFFFFFFFFFFFFFFFFFFF AND DUP2 MSTORE PUSH1 0x20 ADD SWAP1 DUP2 MSTORE PUSH1 0x20 ADD PUSH0 KECCAK256 CALLER SWAP1 DUP1 PUSH1 0x1 DUP2 SLOAD ADD DUP1 DUP3 SSTORE DUP1 SWAP2 POP POP PUSH1 0x1 SWAP1 SUB SWAP1 PUSH0 MSTORE PUSH1 0x20 PUSH0 KECCAK256 ADD PUSH0 SWAP1 SWAP2 SWAP1 SWAP2 SWAP1 SWAP2 PUSH2 0x100 EXP DUP2 SLOAD DUP2 PUSH20 0xFFFFFFFFFFFFFFFFFFFFFFFFFFFFFFFFFFFFFFFF MUL NOT AND SWAP1 DUP4 PUSH20 0xFFFFFFFFFFFFFFFFFFFFFFFFFFFFFFFFFFFFFFFF AND MUL OR SWAP1 SSTORE POP PUSH1 0x8 PUSH0 DUP3 PUSH20 0xFFFFFFFFFFFFFFFFFFFFFFFFFFFFFFFFFFFFFFFF AND PUSH20 0xFFFFFFFFFFFFFFFFFFFFFFFFFFFFFFFFFFFFFFFF AND DUP2 MSTORE PUSH1 0x20 ADD SWAP1 DUP2 MSTORE PUSH1 0x20 ADD PUSH0 KECCAK256 PUSH0 DUP2 SLOAD DUP1 SWAP3 SWAP2 SWAP1 PUSH2 0xD52 SWAP1 PUSH2 0x3B6E JUMP JUMPDEST SWAP2 SWAP1 POP SSTORE POP PUSH2 0xD98 DUP2 PUSH1 0x32 PUSH1 0x40 MLOAD DUP1 PUSH1 0x40 ADD PUSH1 0x40 MSTORE DUP1 PUSH1 0x13 DUP2 MSTORE PUSH1 0x20 ADD PUSH32 0x5375636365737366756C20526566657272616C00000000000000000000000000 DUP2 MSTORE POP PUSH2 0x2615 JUMP JUMPDEST PUSH1 0x3 PUSH1 0x8 PUSH0 DUP4 PUSH20 0xFFFFFFFFFFFFFFFFFFFFFFFFFFFFFFFFFFFFFFFF AND PUSH20 0xFFFFFFFFFFFFFFFFFFFFFFFFFFFFFFFFFFFFFFFF AND DUP2 MSTORE PUSH1 0x20 ADD SWAP1 DUP2 MSTORE PUSH1 0x20 ADD PUSH0 KECCAK256 SLOAD SUB PUSH2 0xE21 JUMPI PUSH2 0xE1C DUP2 PUSH1 0x40 MLOAD DUP1 PUSH1 0x40 ADD PUSH1 0x40 MSTORE DUP1 PUSH1 0x11 DUP2 MSTORE PUSH1 0x20 ADD PUSH32 0x496E7669746564203320467269656E6473000000000000000000000000000000 DUP2 MSTORE POP PUSH2 0x22B2 JUMP JUMPDEST PUSH2 0xF31 JUMP JUMPDEST PUSH1 0xA PUSH1 0x8 PUSH0 DUP4 PUSH20 0xFFFFFFFFFFFFFFFFFFFFFFFFFFFFFFFFFFFFFFFF AND PUSH20 0xFFFFFFFFFFFFFFFFFFFFFFFFFFFFFFFFFFFFFFFF AND DUP2 MSTORE PUSH1 0x20 ADD SWAP1 DUP2 MSTORE PUSH1 0x20 ADD PUSH0 KECCAK256 SLOAD SUB PUSH2 0xEAA JUMPI PUSH2 0xEA5 DUP2 PUSH1 0x40 MLOAD DUP1 PUSH1 0x40 ADD PUSH1 0x40 MSTORE DUP1 PUSH1 0x12 DUP2 MSTORE PUSH1 0x20 ADD PUSH32 0x496E766974656420313020467269656E64730000000000000000000000000000 DUP2 MSTORE POP PUSH2 0x22B2 JUMP JUMPDEST PUSH2 0xF30 JUMP JUMPDEST PUSH1 0x19 PUSH1 0x8 PUSH0 DUP4 PUSH20 0xFFFFFFFFFFFFFFFFFFFFFFFFFFFFFFFFFFFFFFFF AND PUSH20 0xFFFFFFFFFFFFFFFFFFFFFFFFFFFFFFFFFFFFFFFF AND DUP2 MSTORE PUSH1 0x20 ADD SWAP1 DUP2 MSTORE PUSH1 0x20 ADD PUSH0 KECCAK256 SLOAD SUB PUSH2 0xF2F JUMPI PUSH2 0xF2E DUP2 PUSH1 0x40 MLOAD DUP1 PUSH1 0x40 ADD PUSH1 0x40 MSTORE DUP1 PUSH1 0x10 DUP2 MSTORE PUSH1 0x20 ADD PUSH32 0x536F6369616C20427574746572666C7900000000000000000000000000000000 DUP2 MSTORE POP PUSH2 0x22B2 JUMP JUMPDEST JUMPDEST JUMPDEST JUMPDEST CALLER PUSH20 0xFFFFFFFFFFFFFFFFFFFFFFFFFFFFFFFFFFFFFFFF AND DUP2 PUSH20 0xFFFFFFFFFFFFFFFFFFFFFFFFFFFFFFFFFFFFFFFF AND PUSH32 0x7DFE7741B2816F4B390EA9C6A8FCEF91C87D66B9235A24019B792806BC3ECE02 PUSH1 0x40 MLOAD PUSH1 0x40 MLOAD DUP1 SWAP2 SUB SWAP1 LOG3 POP POP JUMP JUMPDEST PUSH2 0xF97 PUSH2 0x26FA JUMP JUMPDEST PUSH20 0xFFFFFFFFFFFFFFFFFFFFFFFFFFFFFFFFFFFFFFFF AND DUP2 PUSH20 0xFFFFFFFFFFFFFFFFFFFFFFFFFFFFFFFFFFFFFFFF AND EQ PUSH2 0xFFB JUMPI PUSH1 0x40 MLOAD PUSH32 0x6697B23200000000000000000000000000000000000000000000000000000000 DUP2 MSTORE PUSH1 0x4 ADD PUSH1 0x40 MLOAD DUP1 SWAP2 SUB SWAP1 REVERT JUMPDEST PUSH2 0x1005 DUP3 DUP3 PUSH2 0x2701 JUMP JUMPDEST POP POP POP JUMP JUMPDEST PUSH32 0xA49807205CE4D355092EF5A8A18F56E8913CF4A201FBE287825B095693C21775 PUSH2 0x1034 DUP2 PUSH2 0x229E JUMP JUMPDEST PUSH2 0x103C PUSH2 0x27EB JUMP JUMPDEST POP JUMP JUMPDEST PUSH0 PUSH1 0xA DUP3 PUSH1 0x40 MLOAD PUSH2 0x1050 SWAP2 SWAP1 PUSH2 0x3B2B JUMP JUMPDEST SWAP1 DUP2 MSTORE PUSH1 0x20 ADD PUSH1 0x40 MLOAD DUP1 SWAP2 SUB SWAP1 KECCAK256 SLOAD SWAP1 POP SWAP2 SWAP1 POP JUMP JUMPDEST PUSH1 0x60 PUSH1 0x9 PUSH0 DUP4 PUSH20 0xFFFFFFFFFFFFFFFFFFFFFFFFFFFFFFFFFFFFFFFF AND PUSH20 0xFFFFFFFFFFFFFFFFFFFFFFFFFFFFFFFFFFFFFFFF AND DUP2 MSTORE PUSH1 0x20 ADD SWAP1 DUP2 MSTORE PUSH1 0x20 ADD PUSH0 KECCAK256 DUP1 SLOAD DUP1 PUSH1 0x20 MUL PUSH1 0x20 ADD PUSH1 0x40 MLOAD SWAP1 DUP2 ADD PUSH1 0x40 MSTORE DUP1 SWAP3 SWAP2 SWAP1 DUP2 DUP2 MSTORE PUSH1 0x20 ADD DUP3 DUP1 SLOAD DUP1 ISZERO PUSH2 0x1122 JUMPI PUSH1 0x20 MUL DUP3 ADD SWAP2 SWAP1 PUSH0 MSTORE PUSH1 0x20 PUSH0 KECCAK256 SWAP1 JUMPDEST DUP2 PUSH0 SWAP1 SLOAD SWAP1 PUSH2 0x100 EXP SWAP1 DIV PUSH20 0xFFFFFFFFFFFFFFFFFFFFFFFFFFFFFFFFFFFFFFFF AND PUSH20 0xFFFFFFFFFFFFFFFFFFFFFFFFFFFFFFFFFFFFFFFF AND DUP2 MSTORE PUSH1 0x20 ADD SWAP1 PUSH1 0x1 ADD SWAP1 DUP1 DUP4 GT PUSH2 0x10D9 JUMPI JUMPDEST POP POP POP POP POP SWAP1 POP SWAP2 SWAP1 POP JUMP JUMPDEST PUSH1 0x8 PUSH1 0x20 MSTORE DUP1 PUSH0 MSTORE PUSH1 0x40 PUSH0 KECCAK256 PUSH0 SWAP2 POP SWAP1 POP SLOAD DUP2 JUMP JUMPDEST PUSH1 0x5 PUSH1 0x20 MSTORE DUP1 PUSH0 MSTORE PUSH1 0x40 PUSH0 KECCAK256 PUSH0 SWAP2 POP SWAP1 POP SLOAD DUP2 JUMP JUMPDEST PUSH0 PUSH1 0x1 PUSH0 SWAP1 SLOAD SWAP1 PUSH2 0x100 EXP SWAP1 DIV PUSH1 0xFF AND SWAP1 POP SWAP1 JUMP JUMPDEST PUSH32 0xC5C74B901CB87F1E81A3E0539A5D95BF14FA111210701DD52208A2390204B455 PUSH2 0x1197 DUP2 PUSH2 0x229E JUMP JUMPDEST PUSH2 0x11A2 DUP5 DUP5 DUP5 PUSH2 0x2615 JUMP JUMPDEST POP POP POP POP JUMP JUMPDEST PUSH0 PUSH1 0x5 PUSH0 DUP4 PUSH20 0xFFFFFFFFFFFFFFFFFFFFFFFFFFFFFFFFFFFFFFFF AND PUSH20 0xFFFFFFFFFFFFFFFFFFFFFFFFFFFFFFFFFFFFFFFF AND DUP2 MSTORE PUSH1 0x20 ADD SWAP1 DUP2 MSTORE PUSH1 0x20 ADD PUSH0 KECCAK256 SLOAD SWAP1 POP SWAP2 SWAP1 POP JUMP JUMPDEST PUSH32 0xA49807205CE4D355092EF5A8A18F56E8913CF4A201FBE287825B095693C21775 PUSH2 0x1218 DUP2 PUSH2 0x229E JUMP JUMPDEST PUSH2 0x1242 PUSH32 0xC5C74B901CB87F1E81A3E0539A5D95BF14FA111210701DD52208A2390204B455 DUP4 PUSH2 0x252B JUMP JUMPDEST POP POP POP JUMP JUMPDEST PUSH32 0xA49807205CE4D355092EF5A8A18F56E8913CF4A201FBE287825B095693C21775 DUP2 JUMP JUMPDEST PUSH1 0x3 PUSH1 0x20 MSTORE DUP1 PUSH0 MSTORE PUSH1 0x40 PUSH0 KECCAK256 PUSH0 SWAP2 POP SWAP1 POP SLOAD DUP2 JUMP JUMPDEST PUSH32 0xA49807205CE4D355092EF5A8A18F56E8913CF4A201FBE287825B095693C21775 PUSH2 0x12AA DUP2 PUSH2 0x229E JUMP JUMPDEST PUSH2 0x12B2 PUSH2 0x284C JUMP JUMPDEST POP JUMP JUMPDEST PUSH0 PUSH1 0x6 PUSH0 DUP4 DUP2 MSTORE PUSH1 0x20 ADD SWAP1 DUP2 MSTORE PUSH1 0x20 ADD PUSH0 KECCAK256 PUSH0 SWAP1 SLOAD SWAP1 PUSH2 0x100 EXP SWAP1 DIV PUSH20 0xFFFFFFFFFFFFFFFFFFFFFFFFFFFFFFFFFFFFFFFF AND SWAP1 POP SWAP2 SWAP1 POP JUMP JUMPDEST PUSH0 PUSH1 0x2 PUSH0 DUP5 DUP2 MSTORE PUSH1 0x20 ADD SWAP1 DUP2 MSTORE PUSH1 0x20 ADD PUSH0 KECCAK256 PUSH0 ADD PUSH0 DUP4 PUSH20 0xFFFFFFFFFFFFFFFFFFFFFFFFFFFFFFFFFFFFFFFF AND PUSH20 0xFFFFFFFFFFFFFFFFFFFFFFFFFFFFFFFFFFFFFFFF AND DUP2 MSTORE PUSH1 0x20 ADD SWAP1 DUP2 MSTORE PUSH1 0x20 ADD PUSH0 KECCAK256 PUSH0 SWAP1 SLOAD SWAP1 PUSH2 0x100 EXP SWAP1 DIV PUSH1 0xFF AND SWAP1 POP SWAP3 SWAP2 POP POP JUMP JUMPDEST PUSH2 0x135A PUSH2 0x2DCD JUMP JUMPDEST PUSH1 0x7 PUSH0 DUP4 PUSH20 0xFFFFFFFFFFFFFFFFFFFFFFFFFFFFFFFFFFFFFFFF AND PUSH20 0xFFFFFFFFFFFFFFFFFFFFFFFFFFFFFFFFFFFFFFFF AND DUP2 MSTORE PUSH1 0x20 ADD SWAP1 DUP2 MSTORE PUSH1 0x20 ADD PUSH0 KECCAK256 PUSH1 0x40 MLOAD DUP1 PUSH1 0xA0 ADD PUSH1 0x40 MSTORE SWAP1 DUP2 PUSH0 DUP3 ADD PUSH0 SWAP1 SLOAD SWAP1 PUSH2 0x100 EXP SWAP1 DIV PUSH20 0xFFFFFFFFFFFFFFFFFFFFFFFFFFFFFFFFFFFFFFFF AND PUSH20 0xFFFFFFFFFFFFFFFFFFFFFFFFFFFFFFFFFFFFFFFF AND PUSH20 0xFFFFFFFFFFFFFFFFFFFFFFFFFFFFFFFFFFFFFFFF AND DUP2 MSTORE PUSH1 0x20 ADD PUSH1 0x1 DUP3 ADD DUP1 SLOAD PUSH2 0x1406 SWAP1 PUSH2 0x3832 JUMP JUMPDEST DUP1 PUSH1 0x1F ADD PUSH1 0x20 DUP1 SWAP2 DIV MUL PUSH1 0x20 ADD PUSH1 0x40 MLOAD SWAP1 DUP2 ADD PUSH1 0x40 MSTORE DUP1 SWAP3 SWAP2 SWAP1 DUP2 DUP2 MSTORE PUSH1 0x20 ADD DUP3 DUP1 SLOAD PUSH2 0x1432 SWAP1 PUSH2 0x3832 JUMP JUMPDEST DUP1 ISZERO PUSH2 0x147D JUMPI DUP1 PUSH1 0x1F LT PUSH2 0x1454 JUMPI PUSH2 0x100 DUP1 DUP4 SLOAD DIV MUL DUP4 MSTORE SWAP2 PUSH1 0x20 ADD SWAP2 PUSH2 0x147D JUMP JUMPDEST DUP3 ADD SWAP2 SWAP1 PUSH0 MSTORE PUSH1 0x20 PUSH0 KECCAK256 SWAP1 JUMPDEST DUP2 SLOAD DUP2 MSTORE SWAP1 PUSH1 0x1 ADD SWAP1 PUSH1 0x20 ADD DUP1 DUP4 GT PUSH2 0x1460 JUMPI DUP3 SWAP1 SUB PUSH1 0x1F AND DUP3 ADD SWAP2 JUMPDEST POP POP POP POP POP DUP2 MSTORE PUSH1 0x20 ADD PUSH1 0x2 DUP3 ADD SLOAD DUP2 MSTORE PUSH1 0x20 ADD PUSH1 0x3 DUP3 ADD SLOAD DUP2 MSTORE PUSH1 0x20 ADD PUSH1 0x4 DUP3 ADD PUSH0 SWAP1 SLOAD SWAP1 PUSH2 0x100 EXP SWAP1 DIV PUSH1 0xFF AND ISZERO ISZERO ISZERO ISZERO DUP2 MSTORE POP POP SWAP1 POP SWAP2 SWAP1 POP JUMP JUMPDEST PUSH2 0x14C3 PUSH2 0x21EB JUMP JUMPDEST PUSH0 PUSH20 0xFFFFFFFFFFFFFFFFFFFFFFFFFFFFFFFFFFFFFFFF AND PUSH1 0x7 PUSH0 CALLER PUSH20 0xFFFFFFFFFFFFFFFFFFFFFFFFFFFFFFFFFFFFFFFF AND PUSH20 0xFFFFFFFFFFFFFFFFFFFFFFFFFFFFFFFFFFFFFFFF AND DUP2 MSTORE PUSH1 0x20 ADD SWAP1 DUP2 MSTORE PUSH1 0x20 ADD PUSH0 KECCAK256 PUSH0 ADD PUSH0 SWAP1 SLOAD SWAP1 PUSH2 0x100 EXP SWAP1 DIV PUSH20 0xFFFFFFFFFFFFFFFFFFFFFFFFFFFFFFFFFFFFFFFF AND PUSH20 0xFFFFFFFFFFFFFFFFFFFFFFFFFFFFFFFFFFFFFFFF AND EQ PUSH2 0x1586 JUMPI PUSH1 0x40 MLOAD PUSH32 0x6E8A1B0A00000000000000000000000000000000000000000000000000000000 DUP2 MSTORE PUSH1 0x4 ADD PUSH1 0x40 MLOAD DUP1 SWAP2 SUB SWAP1 REVERT JUMPDEST PUSH1 0x40 MLOAD DUP1 PUSH1 0xA0 ADD PUSH1 0x40 MSTORE DUP1 CALLER PUSH20 0xFFFFFFFFFFFFFFFFFFFFFFFFFFFFFFFFFFFFFFFF AND DUP2 MSTORE PUSH1 0x20 ADD DUP4 DUP2 MSTORE PUSH1 0x20 ADD DUP3 DUP2 MSTORE PUSH1 0x20 ADD TIMESTAMP DUP2 MSTORE PUSH1 0x20 ADD PUSH1 0x1 ISZERO ISZERO DUP2 MSTORE POP PUSH1 0x7 PUSH0 CALLER PUSH20 0xFFFFFFFFFFFFFFFFFFFFFFFFFFFFFFFFFFFFFFFF AND PUSH20 0xFFFFFFFFFFFFFFFFFFFFFFFFFFFFFFFFFFFFFFFF AND DUP2 MSTORE PUSH1 0x20 ADD SWAP1 DUP2 MSTORE PUSH1 0x20 ADD PUSH0 KECCAK256 PUSH0 DUP3 ADD MLOAD DUP2 PUSH0 ADD PUSH0 PUSH2 0x100 EXP DUP2 SLOAD DUP2 PUSH20 0xFFFFFFFFFFFFFFFFFFFFFFFFFFFFFFFFFFFFFFFF MUL NOT AND SWAP1 DUP4 PUSH20 0xFFFFFFFFFFFFFFFFFFFFFFFFFFFFFFFFFFFFFFFF AND MUL OR SWAP1 SSTORE POP PUSH1 0x20 DUP3 ADD MLOAD DUP2 PUSH1 0x1 ADD SWAP1 DUP2 PUSH2 0x165C SWAP2 SWAP1 PUSH2 0x3A02 JUMP JUMPDEST POP PUSH1 0x40 DUP3 ADD MLOAD DUP2 PUSH1 0x2 ADD SSTORE PUSH1 0x60 DUP3 ADD MLOAD DUP2 PUSH1 0x3 ADD SSTORE PUSH1 0x80 DUP3 ADD MLOAD DUP2 PUSH1 0x4 ADD PUSH0 PUSH2 0x100 EXP DUP2 SLOAD DUP2 PUSH1 0xFF MUL NOT AND SWAP1 DUP4 ISZERO ISZERO MUL OR SWAP1 SSTORE POP SWAP1 POP POP CALLER PUSH20 0xFFFFFFFFFFFFFFFFFFFFFFFFFFFFFFFFFFFFFFFF AND PUSH32 0xBAFDDECBD1DEC1C1AFB76D693F1DE16901F521BDF29A02438E3E6806C0B8D948 DUP4 PUSH1 0x40 MLOAD PUSH2 0x16D9 SWAP2 SWAP1 PUSH2 0x3AD1 JUMP JUMPDEST PUSH1 0x40 MLOAD DUP1 SWAP2 SUB SWAP1 LOG2 POP POP JUMP JUMPDEST PUSH0 PUSH0 SHL DUP2 JUMP JUMPDEST PUSH2 0x16F3 PUSH2 0x21EB JUMP JUMPDEST PUSH0 PUSH0 SHL PUSH1 0x5 PUSH0 CALLER PUSH20 0xFFFFFFFFFFFFFFFFFFFFFFFFFFFFFFFFFFFFFFFF AND PUSH20 0xFFFFFFFFFFFFFFFFFFFFFFFFFFFFFFFFFFFFFFFF AND DUP2 MSTORE PUSH1 0x20 ADD SWAP1 DUP2 MSTORE PUSH1 0x20 ADD PUSH0 KECCAK256 SLOAD EQ PUSH2 0x176B JUMPI PUSH1 0x40 MLOAD PUSH32 0x52B439C00000000000000000000000000000000000000000000000000000000 DUP2 MSTORE PUSH1 0x4 ADD PUSH1 0x40 MLOAD DUP1 SWAP2 SUB SWAP1 REVERT JUMPDEST PUSH0 PUSH20 0xFFFFFFFFFFFFFFFFFFFFFFFFFFFFFFFFFFFFFFFF AND PUSH1 0x7 PUSH0 CALLER PUSH20 0xFFFFFFFFFFFFFFFFFFFFFFFFFFFFFFFFFFFFFFFF AND PUSH20 0xFFFFFFFFFFFFFFFFFFFFFFFFFFFFFFFFFFFFFFFF AND DUP2 MSTORE PUSH1 0x20 ADD SWAP1 DUP2 MSTORE PUSH1 0x20 ADD PUSH0 KECCAK256 PUSH0 ADD PUSH0 SWAP1 SLOAD SWAP1 PUSH2 0x100 EXP SWAP1 DIV PUSH20 0xFFFFFFFFFFFFFFFFFFFFFFFFFFFFFFFFFFFFFFFF AND PUSH20 0xFFFFFFFFFFFFFFFFFFFFFFFFFFFFFFFFFFFFFFFF AND SUB PUSH2 0x1958 JUMPI PUSH1 0x40 MLOAD DUP1 PUSH1 0xA0 ADD PUSH1 0x40 MSTORE DUP1 CALLER PUSH20 0xFFFFFFFFFFFFFFFFFFFFFFFFFFFFFFFFFFFFFFFF AND DUP2 MSTORE PUSH1 0x20 ADD DUP4 DUP2 MSTORE PUSH1 0x20 ADD DUP3 DUP2 MSTORE PUSH1 0x20 ADD TIMESTAMP DUP2 MSTORE PUSH1 0x20 ADD PUSH1 0x1 ISZERO ISZERO DUP2 MSTORE POP PUSH1 0x7 PUSH0 CALLER PUSH20 0xFFFFFFFFFFFFFFFFFFFFFFFFFFFFFFFFFFFFFFFF AND PUSH20 0xFFFFFFFFFFFFFFFFFFFFFFFFFFFFFFFFFFFFFFFF AND DUP2 MSTORE PUSH1 0x20 ADD SWAP1 DUP2 MSTORE PUSH1 0x20 ADD PUSH0 KECCAK256 PUSH0 DUP3 ADD MLOAD DUP2 PUSH0 ADD PUSH0 PUSH2 0x100 EXP DUP2 SLOAD DUP2 PUSH20 0xFFFFFFFFFFFFFFFFFFFFFFFFFFFFFFFFFFFFFFFF MUL NOT AND SWAP1 DUP4 PUSH20 0xFFFFFFFFFFFFFFFFFFFFFFFFFFFFFFFFFFFFFFFF AND MUL OR SWAP1 SSTORE POP PUSH1 0x20 DUP3 ADD MLOAD DUP2 PUSH1 0x1 ADD SWAP1 DUP2 PUSH2 0x18D2 SWAP2 SWAP1 PUSH2 0x3A02 JUMP JUMPDEST POP PUSH1 0x40 DUP3 ADD MLOAD DUP2 PUSH1 0x2 ADD SSTORE PUSH1 0x60 DUP3 ADD MLOAD DUP2 PUSH1 0x3 ADD SSTORE PUSH1 0x80 DUP3 ADD MLOAD DUP2 PUSH1 0x4 ADD PUSH0 PUSH2 0x100 EXP DUP2 SLOAD DUP2 PUSH1 0xFF MUL NOT AND SWAP1 DUP4 ISZERO ISZERO MUL OR SWAP1 SSTORE POP SWAP1 POP POP CALLER PUSH20 0xFFFFFFFFFFFFFFFFFFFFFFFFFFFFFFFFFFFFFFFF AND PUSH32 0xBAFDDECBD1DEC1C1AFB76D693F1DE16901F521BDF29A02438E3E6806C0B8D948 DUP4 PUSH1 0x40 MLOAD PUSH2 0x194F SWAP2 SWAP1 PUSH2 0x3AD1 JUMP JUMPDEST PUSH1 0x40 MLOAD DUP1 SWAP2 SUB SWAP1 LOG2 JUMPDEST PUSH0 CALLER TIMESTAMP PREVRANDAO PUSH1 0x40 MLOAD PUSH1 0x20 ADD PUSH2 0x196E SWAP4 SWAP3 SWAP2 SWAP1 PUSH2 0x3C1A JUMP JUMPDEST PUSH1 0x40 MLOAD PUSH1 0x20 DUP2 DUP4 SUB SUB DUP2 MSTORE SWAP1 PUSH1 0x40 MSTORE DUP1 MLOAD SWAP1 PUSH1 0x20 ADD KECCAK256 SWAP1 POP DUP1 PUSH1 0x5 PUSH0 CALLER PUSH20 0xFFFFFFFFFFFFFFFFFFFFFFFFFFFFFFFFFFFFFFFF AND PUSH20 0xFFFFFFFFFFFFFFFFFFFFFFFFFFFFFFFFFFFFFFFF AND DUP2 MSTORE PUSH1 0x20 ADD SWAP1 DUP2 MSTORE PUSH1 0x20 ADD PUSH0 KECCAK256 DUP2 SWAP1 SSTORE POP CALLER PUSH1 0x6 PUSH0 DUP4 DUP2 MSTORE PUSH1 0x20 ADD SWAP1 DUP2 MSTORE PUSH1 0x20 ADD PUSH0 KECCAK256 PUSH0 PUSH2 0x100 EXP DUP2 SLOAD DUP2 PUSH20 0xFFFFFFFFFFFFFFFFFFFFFFFFFFFFFFFFFFFFFFFF MUL NOT AND SWAP1 DUP4 PUSH20 0xFFFFFFFFFFFFFFFFFFFFFFFFFFFFFFFFFFFFFFFF AND MUL OR SWAP1 SSTORE POP CALLER PUSH20 0xFFFFFFFFFFFFFFFFFFFFFFFFFFFFFFFFFFFFFFFF AND PUSH32 0x1A0BAD8B81287DF6C7518AD18C022DB6E8DB24F922A8FF32DBB6FED74C699A26 DUP3 PUSH1 0x40 MLOAD PUSH2 0x1A5D SWAP2 SWAP1 PUSH2 0x3205 JUMP JUMPDEST PUSH1 0x40 MLOAD DUP1 SWAP2 SUB SWAP1 LOG2 POP POP POP JUMP JUMPDEST PUSH32 0xC5C74B901CB87F1E81A3E0539A5D95BF14FA111210701DD52208A2390204B455 DUP2 JUMP JUMPDEST PUSH0 PUSH1 0x3 PUSH0 DUP4 PUSH20 0xFFFFFFFFFFFFFFFFFFFFFFFFFFFFFFFFFFFFFFFF AND PUSH20 0xFFFFFFFFFFFFFFFFFFFFFFFFFFFFFFFFFFFFFFFF AND DUP2 MSTORE PUSH1 0x20 ADD SWAP1 DUP2 MSTORE PUSH1 0x20 ADD PUSH0 KECCAK256 SLOAD SWAP1 POP SWAP2 SWAP1 POP JUMP JUMPDEST PUSH1 0x7 PUSH1 0x20 MSTORE DUP1 PUSH0 MSTORE PUSH1 0x40 PUSH0 KECCAK256 PUSH0 SWAP2 POP SWAP1 POP DUP1 PUSH0 ADD PUSH0 SWAP1 SLOAD SWAP1 PUSH2 0x100 EXP SWAP1 DIV PUSH20 0xFFFFFFFFFFFFFFFFFFFFFFFFFFFFFFFFFFFFFFFF AND SWAP1 DUP1 PUSH1 0x1 ADD DUP1 SLOAD PUSH2 0x1B18 SWAP1 PUSH2 0x3832 JUMP JUMPDEST DUP1 PUSH1 0x1F ADD PUSH1 0x20 DUP1 SWAP2 DIV MUL PUSH1 0x20 ADD PUSH1 0x40 MLOAD SWAP1 DUP2 ADD PUSH1 0x40 MSTORE DUP1 SWAP3 SWAP2 SWAP1 DUP2 DUP2 MSTORE PUSH1 0x20 ADD DUP3 DUP1 SLOAD PUSH2 0x1B44 SWAP1 PUSH2 0x3832 JUMP JUMPDEST DUP1 ISZERO PUSH2 0x1B8F JUMPI DUP1 PUSH1 0x1F LT PUSH2 0x1B66 JUMPI PUSH2 0x100 DUP1 DUP4 SLOAD DIV MUL DUP4 MSTORE SWAP2 PUSH1 0x20 ADD SWAP2 PUSH2 0x1B8F JUMP JUMPDEST DUP3 ADD SWAP2 SWAP1 PUSH0 MSTORE PUSH1 0x20 PUSH0 KECCAK256 SWAP1 JUMPDEST DUP2 SLOAD DUP2 MSTORE SWAP1 PUSH1 0x1 ADD SWAP1 PUSH1 0x20 ADD DUP1 DUP4 GT PUSH2 0x1B72 JUMPI DUP3 SWAP1 SUB PUSH1 0x1F AND DUP3 ADD SWAP2 JUMPDEST POP POP POP POP POP SWAP1 DUP1 PUSH1 0x2 ADD SLOAD SWAP1 DUP1 PUSH1 0x3 ADD SLOAD SWAP1 DUP1 PUSH1 0x4 ADD PUSH0 SWAP1 SLOAD SWAP1 PUSH2 0x100 EXP SWAP1 DIV PUSH1 0xFF AND SWAP1 POP DUP6 JUMP JUMPDEST PUSH1 0x4 PUSH1 0x20 MSTORE DUP2 PUSH0 MSTORE PUSH1 0x40 PUSH0 KECCAK256 DUP2 DUP2 SLOAD DUP2 LT PUSH2 0x1BD0 JUMPI PUSH0 DUP1 REVERT JUMPDEST SWAP1 PUSH0 MSTORE PUSH1 0x20 PUSH0 KECCAK256 SWAP1 PUSH1 0x4 MUL ADD PUSH0 SWAP2 POP SWAP2 POP POP DUP1 PUSH0 ADD DUP1 SLOAD PUSH2 0x1BF0 SWAP1 PUSH2 0x3832 JUMP JUMPDEST DUP1 PUSH1 0x1F ADD PUSH1 0x20 DUP1 SWAP2 DIV MUL PUSH1 0x20 ADD PUSH1 0x40 MLOAD SWAP1 DUP2 ADD PUSH1 0x40 MSTORE DUP1 SWAP3 SWAP2 SWAP1 DUP2 DUP2 MSTORE PUSH1 0x20 ADD DUP3 DUP1 SLOAD PUSH2 0x1C1C SWAP1 PUSH2 0x3832 JUMP JUMPDEST DUP1 ISZERO PUSH2 0x1C67 JUMPI DUP1 PUSH1 0x1F LT PUSH2 0x1C3E JUMPI PUSH2 0x100 DUP1 DUP4 SLOAD DIV MUL DUP4 MSTORE SWAP2 PUSH1 0x20 ADD SWAP2 PUSH2 0x1C67 JUMP JUMPDEST DUP3 ADD SWAP2 SWAP1 PUSH0 MSTORE PUSH1 0x20 PUSH0 KECCAK256 SWAP1 JUMPDEST DUP2 SLOAD DUP2 MSTORE SWAP1 PUSH1 0x1 ADD SWAP1 PUSH1 0x20 ADD DUP1 DUP4 GT PUSH2 0x1C4A JUMPI DUP3 SWAP1 SUB PUSH1 0x1F AND DUP3 ADD SWAP2 JUMPDEST POP POP POP POP POP SWAP1 DUP1 PUSH1 0x1 ADD DUP1 SLOAD PUSH2 0x1C7C SWAP1 PUSH2 0x3832 JUMP JUMPDEST DUP1 PUSH1 0x1F ADD PUSH1 0x20 DUP1 SWAP2 DIV MUL PUSH1 0x20 ADD PUSH1 0x40 MLOAD SWAP1 DUP2 ADD PUSH1 0x40 MSTORE DUP1 SWAP3 SWAP2 SWAP1 DUP2 DUP2 MSTORE PUSH1 0x20 ADD DUP3 DUP1 SLOAD PUSH2 0x1CA8 SWAP1 PUSH2 0x3832 JUMP JUMPDEST DUP1 ISZERO PUSH2 0x1CF3 JUMPI DUP1 PUSH1 0x1F LT PUSH2 0x1CCA JUMPI PUSH2 0x100 DUP1 DUP4 SLOAD DIV MUL DUP4 MSTORE SWAP2 PUSH1 0x20 ADD SWAP2 PUSH2 0x1CF3 JUMP JUMPDEST DUP3 ADD SWAP2 SWAP1 PUSH0 MSTORE PUSH1 0x20 PUSH0 KECCAK256 SWAP1 JUMPDEST DUP2 SLOAD DUP2 MSTORE SWAP1 PUSH1 0x1 ADD SWAP1 PUSH1 0x20 ADD DUP1 DUP4 GT PUSH2 0x1CD6 JUMPI DUP3 SWAP1 SUB PUSH1 0x1F AND DUP3 ADD SWAP2 JUMPDEST POP POP POP POP POP SWAP1 DUP1 PUSH1 0x2 ADD SLOAD SWAP1 DUP1 PUSH1 0x3 ADD SLOAD SWAP1 POP DUP5 JUMP JUMPDEST PUSH32 0xA49807205CE4D355092EF5A8A18F56E8913CF4A201FBE287825B095693C21775 PUSH2 0x1D33 DUP2 PUSH2 0x229E JUMP JUMPDEST PUSH1 0xB DUP4 PUSH1 0x40 MLOAD PUSH2 0x1D43 SWAP2 SWAP1 PUSH2 0x3B2B JUMP JUMPDEST SWAP1 DUP2 MSTORE PUSH1 0x20 ADD PUSH1 0x40 MLOAD DUP1 SWAP2 SUB SWAP1 KECCAK256 PUSH0 SWAP1 SLOAD SWAP1 PUSH2 0x100 EXP SWAP1 DIV PUSH1 0xFF AND PUSH2 0x1D94 JUMPI PUSH1 0x40 MLOAD PUSH32 0x5E07EB5300000000000000000000000000000000000000000000000000000000 DUP2 MSTORE PUSH1 0x4 ADD PUSH1 0x40 MLOAD DUP1 SWAP2 SUB SWAP1 REVERT JUMPDEST DUP2 PUSH1 0xA DUP5 PUSH1 0x40 MLOAD PUSH2 0x1DA5 SWAP2 SWAP1 PUSH2 0x3B2B JUMP JUMPDEST SWAP1 DUP2 MSTORE PUSH1 0x20 ADD PUSH1 0x40 MLOAD DUP1 SWAP2 SUB SWAP1 KECCAK256 DUP2 SWAP1 SSTORE POP POP POP POP JUMP JUMPDEST PUSH2 0x1DC5 DUP3 PUSH2 0xB0F JUMP JUMPDEST PUSH2 0x1DCE DUP2 PUSH2 0x229E JUMP JUMPDEST PUSH2 0x1DD8 DUP4 DUP4 PUSH2 0x2701 JUMP JUMPDEST POP POP POP POP JUMP JUMPDEST PUSH1 0x6 PUSH1 0x20 MSTORE DUP1 PUSH0 MSTORE PUSH1 0x40 PUSH0 KECCAK256 PUSH0 SWAP2 POP SLOAD SWAP1 PUSH2 0x100 EXP SWAP1 DIV PUSH20 0xFFFFFFFFFFFFFFFFFFFFFFFFFFFFFFFFFFFFFFFF AND DUP2 JUMP JUMPDEST PUSH1 0x9 PUSH1 0x20 MSTORE DUP2 PUSH0 MSTORE PUSH1 0x40 PUSH0 KECCAK256 DUP2 DUP2 SLOAD DUP2 LT PUSH2 0x1E27 JUMPI PUSH0 DUP1 REVERT JUMPDEST SWAP1 PUSH0 MSTORE PUSH1 0x20 PUSH0 KECCAK256 ADD PUSH0 SWAP2 POP SWAP2 POP SWAP1 SLOAD SWAP1 PUSH2 0x100 EXP SWAP1 DIV PUSH20 0xFFFFFFFFFFFFFFFFFFFFFFFFFFFFFFFFFFFFFFFF AND DUP2 JUMP JUMPDEST PUSH1 0x60 PUSH1 0x4 PUSH0 DUP4 PUSH20 0xFFFFFFFFFFFFFFFFFFFFFFFFFFFFFFFFFFFFFFFF AND PUSH20 0xFFFFFFFFFFFFFFFFFFFFFFFFFFFFFFFFFFFFFFFF AND DUP2 MSTORE PUSH1 0x20 ADD SWAP1 DUP2 MSTORE PUSH1 0x20 ADD PUSH0 KECCAK256 DUP1 SLOAD DUP1 PUSH1 0x20 MUL PUSH1 0x20 ADD PUSH1 0x40 MLOAD SWAP1 DUP2 ADD PUSH1 0x40 MSTORE DUP1 SWAP3 SWAP2 SWAP1 DUP2 DUP2 MSTORE PUSH1 0x20 ADD PUSH0 SWAP1 JUMPDEST DUP3 DUP3 LT ISZERO PUSH2 0x2017 JUMPI DUP4 DUP3 SWAP1 PUSH0 MSTORE PUSH1 0x20 PUSH0 KECCAK256 SWAP1 PUSH1 0x4 MUL ADD PUSH1 0x40 MLOAD DUP1 PUSH1 0x80 ADD PUSH1 0x40 MSTORE SWAP1 DUP2 PUSH0 DUP3 ADD DUP1 SLOAD PUSH2 0x1EE4 SWAP1 PUSH2 0x3832 JUMP JUMPDEST DUP1 PUSH1 0x1F ADD PUSH1 0x20 DUP1 SWAP2 DIV MUL PUSH1 0x20 ADD PUSH1 0x40 MLOAD SWAP1 DUP2 ADD PUSH1 0x40 MSTORE DUP1 SWAP3 SWAP2 SWAP1 DUP2 DUP2 MSTORE PUSH1 0x20 ADD DUP3 DUP1 SLOAD PUSH2 0x1F10 SWAP1 PUSH2 0x3832 JUMP JUMPDEST DUP1 ISZERO PUSH2 0x1F5B JUMPI DUP1 PUSH1 0x1F LT PUSH2 0x1F32 JUMPI PUSH2 0x100 DUP1 DUP4 SLOAD DIV MUL DUP4 MSTORE SWAP2 PUSH1 0x20 ADD SWAP2 PUSH2 0x1F5B JUMP JUMPDEST DUP3 ADD SWAP2 SWAP1 PUSH0 MSTORE PUSH1 0x20 PUSH0 KECCAK256 SWAP1 JUMPDEST DUP2 SLOAD DUP2 MSTORE SWAP1 PUSH1 0x1 ADD SWAP1 PUSH1 0x20 ADD DUP1 DUP4 GT PUSH2 0x1F3E JUMPI DUP3 SWAP1 SUB PUSH1 0x1F AND DUP3 ADD SWAP2 JUMPDEST POP POP POP POP POP DUP2 MSTORE PUSH1 0x20 ADD PUSH1 0x1 DUP3 ADD DUP1 SLOAD PUSH2 0x1F74 SWAP1 PUSH2 0x3832 JUMP JUMPDEST DUP1 PUSH1 0x1F ADD PUSH1 0x20 DUP1 SWAP2 DIV MUL PUSH1 0x20 ADD PUSH1 0x40 MLOAD SWAP1 DUP2 ADD PUSH1 0x40 MSTORE DUP1 SWAP3 SWAP2 SWAP1 DUP2 DUP2 MSTORE PUSH1 0x20 ADD DUP3 DUP1 SLOAD PUSH2 0x1FA0 SWAP1 PUSH2 0x3832 JUMP JUMPDEST DUP1 ISZERO PUSH2 0x1FEB JUMPI DUP1 PUSH1 0x1F LT PUSH2 0x1FC2 JUMPI PUSH2 0x100 DUP1 DUP4 SLOAD DIV MUL DUP4 MSTORE SWAP2 PUSH1 0x20 ADD SWAP2 PUSH2 0x1FEB JUMP JUMPDEST DUP3 ADD SWAP2 SWAP1 PUSH0 MSTORE PUSH1 0x20 PUSH0 KECCAK256 SWAP1 JUMPDEST DUP2 SLOAD DUP2 MSTORE SWAP1 PUSH1 0x1 ADD SWAP1 PUSH1 0x20 ADD DUP1 DUP4 GT PUSH2 0x1FCE JUMPI DUP3 SWAP1 SUB PUSH1 0x1F AND DUP3 ADD SWAP2 JUMPDEST POP POP POP POP POP DUP2 MSTORE PUSH1 0x20 ADD PUSH1 0x2 DUP3 ADD SLOAD DUP2 MSTORE PUSH1 0x20 ADD PUSH1 0x3 DUP3 ADD SLOAD DUP2 MSTORE POP POP DUP2 MSTORE PUSH1 0x20 ADD SWAP1 PUSH1 0x1 ADD SWAP1 PUSH2 0x1EB4 JUMP JUMPDEST POP POP POP POP SWAP1 POP SWAP2 SWAP1 POP JUMP JUMPDEST PUSH32 0xC5C74B901CB87F1E81A3E0539A5D95BF14FA111210701DD52208A2390204B455 PUSH2 0x204C DUP2 PUSH2 0x229E JUMP JUMPDEST DUP3 PUSH1 0x3 PUSH0 DUP7 PUSH20 0xFFFFFFFFFFFFFFFFFFFFFFFFFFFFFFFFFFFFFFFF AND PUSH20 0xFFFFFFFFFFFFFFFFFFFFFFFFFFFFFFFFFFFFFFFF AND DUP2 MSTORE PUSH1 0x20 ADD SWAP1 DUP2 MSTORE PUSH1 0x20 ADD PUSH0 KECCAK256 SLOAD LT PUSH2 0x20E8 JUMPI DUP3 PUSH1 0x3 PUSH0 DUP7 PUSH20 0xFFFFFFFFFFFFFFFFFFFFFFFFFFFFFFFFFFFFFFFF AND PUSH20 0xFFFFFFFFFFFFFFFFFFFFFFFFFFFFFFFFFFFFFFFF AND DUP2 MSTORE PUSH1 0x20 ADD SWAP1 DUP2 MSTORE PUSH1 0x20 ADD PUSH0 KECCAK256 PUSH0 DUP3 DUP3 SLOAD PUSH2 0x20DC SWAP2 SWAP1 PUSH2 0x3C56 JUMP JUMPDEST SWAP3 POP POP DUP2 SWAP1 SSTORE POP PUSH2 0x212B JUMP JUMPDEST PUSH0 PUSH1 0x3 PUSH0 DUP7 PUSH20 0xFFFFFFFFFFFFFFFFFFFFFFFFFFFFFFFFFFFFFFFF AND PUSH20 0xFFFFFFFFFFFFFFFFFFFFFFFFFFFFFFFFFFFFFFFF AND DUP2 MSTORE PUSH1 0x20 ADD SWAP1 DUP2 MSTORE PUSH1 0x20 ADD PUSH0 KECCAK256 DUP2 SWAP1 SSTORE POP JUMPDEST DUP4 PUSH20 0xFFFFFFFFFFFFFFFFFFFFFFFFFFFFFFFFFFFFFFFF AND PUSH32 0x2B535FBF4D2281F734A35408583A14D4E2B28653B00D761613E8758399DD6E6D PUSH1 0x3 PUSH0 DUP8 PUSH20 0xFFFFFFFFFFFFFFFFFFFFFFFFFFFFFFFFFFFFFFFF AND PUSH20 0xFFFFFFFFFFFFFFFFFFFFFFFFFFFFFFFFFFFFFFFF AND DUP2 MSTORE PUSH1 0x20 ADD SWAP1 DUP2 MSTORE PUSH1 0x20 ADD PUSH0 KECCAK256 SLOAD DUP5 PUSH1 0x40 MLOAD PUSH2 0x21B0 SWAP3 SWAP2 SWAP1 PUSH2 0x3C89 JUMP JUMPDEST PUSH1 0x40 MLOAD DUP1 SWAP2 SUB SWAP1 LOG2 POP POP POP POP JUMP JUMPDEST PUSH1 0xA DUP2 DUP1 MLOAD PUSH1 0x20 DUP2 ADD DUP3 ADD DUP1 MLOAD DUP5 DUP3 MSTORE PUSH1 0x20 DUP4 ADD PUSH1 0x20 DUP6 ADD KECCAK256 DUP2 DUP4 MSTORE DUP1 SWAP6 POP POP POP POP POP POP PUSH0 SWAP2 POP SWAP1 POP SLOAD DUP2 JUMP JUMPDEST PUSH2 0x21F3 PUSH2 0x1158 JUMP JUMPDEST ISZERO PUSH2 0x2233 JUMPI PUSH1 0x40 MLOAD PUSH32 0x8C379A000000000000000000000000000000000000000000000000000000000 DUP2 MSTORE PUSH1 0x4 ADD PUSH2 0x222A SWAP1 PUSH2 0x3D01 JUMP JUMPDEST PUSH1 0x40 MLOAD DUP1 SWAP2 SUB SWAP1 REVERT JUMPDEST JUMP JUMPDEST PUSH0 PUSH32 0x1FFC9A700000000000000000000000000000000000000000000000000000000 PUSH28 0xFFFFFFFFFFFFFFFFFFFFFFFFFFFFFFFFFFFFFFFFFFFFFFFFFFFFFFFF NOT AND DUP3 PUSH28 0xFFFFFFFFFFFFFFFFFFFFFFFFFFFFFFFFFFFFFFFFFFFFFFFFFFFFFFFF NOT AND EQ SWAP1 POP SWAP2 SWAP1 POP JUMP JUMPDEST PUSH2 0x22AF DUP2 PUSH2 0x22AA PUSH2 0x26FA JUMP JUMPDEST PUSH2 0x28AD JUMP JUMPDEST POP JUMP JUMPDEST PUSH1 0xB DUP2 PUSH1 0x40 MLOAD PUSH2 0x22C2 SWAP2 SWAP1 PUSH2 0x3B2B JUMP JUMPDEST SWAP1 DUP2 MSTORE PUSH1 0x20 ADD PUSH1 0x40 MLOAD DUP1 SWAP2 SUB SWAP1 KECCAK256 PUSH0 SWAP1 SLOAD SWAP1 PUSH2 0x100 EXP SWAP1 DIV PUSH1 0xFF AND PUSH2 0x2313 JUMPI PUSH1 0x40 MLOAD PUSH32 0x5E07EB5300000000000000000000000000000000000000000000000000000000 DUP2 MSTORE PUSH1 0x4 ADD PUSH1 0x40 MLOAD DUP1 SWAP2 SUB SWAP1 REVERT JUMPDEST PUSH0 PUSH1 0x4 PUSH0 DUP5 PUSH20 0xFFFFFFFFFFFFFFFFFFFFFFFFFFFFFFFFFFFFFFFF AND PUSH20 0xFFFFFFFFFFFFFFFFFFFFFFFFFFFFFFFFFFFFFFFF AND DUP2 MSTORE PUSH1 0x20 ADD SWAP1 DUP2 MSTORE PUSH1 0x20 ADD PUSH0 KECCAK256 SWAP1 POP PUSH0 PUSH0 SWAP1 POP JUMPDEST DUP2 DUP1 SLOAD SWAP1 POP DUP2 LT ISZERO PUSH2 0x23BB JUMPI DUP3 DUP1 MLOAD SWAP1 PUSH1 0x20 ADD KECCAK256 DUP3 DUP3 DUP2 SLOAD DUP2 LT PUSH2 0x237F JUMPI PUSH2 0x237E PUSH2 0x3D1F JUMP JUMPDEST JUMPDEST SWAP1 PUSH0 MSTORE PUSH1 0x20 PUSH0 KECCAK256 SWAP1 PUSH1 0x4 MUL ADD PUSH0 ADD PUSH1 0x40 MLOAD PUSH2 0x239A SWAP2 SWAP1 PUSH2 0x3DE8 JUMP JUMPDEST PUSH1 0x40 MLOAD DUP1 SWAP2 SUB SWAP1 KECCAK256 SUB PUSH2 0x23AE JUMPI POP POP PUSH2 0x2527 JUMP JUMPDEST DUP1 DUP1 PUSH1 0x1 ADD SWAP2 POP POP PUSH2 0x2358 JUMP JUMPDEST POP PUSH0 PUSH1 0xA DUP4 PUSH1 0x40 MLOAD PUSH2 0x23CD SWAP2 SWAP1 PUSH2 0x3B2B JUMP JUMPDEST SWAP1 DUP2 MSTORE PUSH1 0x20 ADD PUSH1 0x40 MLOAD DUP1 SWAP2 SUB SWAP1 KECCAK256 SLOAD SWAP1 POP PUSH1 0x4 PUSH0 DUP6 PUSH20 0xFFFFFFFFFFFFFFFFFFFFFFFFFFFFFFFFFFFFFFFF AND PUSH20 0xFFFFFFFFFFFFFFFFFFFFFFFFFFFFFFFFFFFFFFFF AND DUP2 MSTORE PUSH1 0x20 ADD SWAP1 DUP2 MSTORE PUSH1 0x20 ADD PUSH0 KECCAK256 PUSH1 0x40 MLOAD DUP1 PUSH1 0x80 ADD PUSH1 0x40 MSTORE DUP1 DUP6 DUP2 MSTORE PUSH1 0x20 ADD PUSH2 0x2435 DUP7 PUSH2 0x28FE JUMP JUMPDEST DUP2 MSTORE PUSH1 0x20 ADD DUP4 DUP2 MSTORE PUSH1 0x20 ADD TIMESTAMP DUP2 MSTORE POP SWAP1 DUP1 PUSH1 0x1 DUP2 SLOAD ADD DUP1 DUP3 SSTORE DUP1 SWAP2 POP POP PUSH1 0x1 SWAP1 SUB SWAP1 PUSH0 MSTORE PUSH1 0x20 PUSH0 KECCAK256 SWAP1 PUSH1 0x4 MUL ADD PUSH0 SWAP1 SWAP2 SWAP1 SWAP2 SWAP1 SWAP2 POP PUSH0 DUP3 ADD MLOAD DUP2 PUSH0 ADD SWAP1 DUP2 PUSH2 0x247D SWAP2 SWAP1 PUSH2 0x3A02 JUMP JUMPDEST POP PUSH1 0x20 DUP3 ADD MLOAD DUP2 PUSH1 0x1 ADD SWAP1 DUP2 PUSH2 0x2493 SWAP2 SWAP1 PUSH2 0x3A02 JUMP JUMPDEST POP PUSH1 0x40 DUP3 ADD MLOAD DUP2 PUSH1 0x2 ADD SSTORE PUSH1 0x60 DUP3 ADD MLOAD DUP2 PUSH1 0x3 ADD SSTORE POP POP PUSH2 0x24D4 DUP5 DUP3 DUP6 PUSH1 0x40 MLOAD PUSH1 0x20 ADD PUSH2 0x24C0 SWAP2 SWAP1 PUSH2 0x3E48 JUMP JUMPDEST PUSH1 0x40 MLOAD PUSH1 0x20 DUP2 DUP4 SUB SUB DUP2 MSTORE SWAP1 PUSH1 0x40 MSTORE PUSH2 0x2615 JUMP JUMPDEST DUP4 PUSH20 0xFFFFFFFFFFFFFFFFFFFFFFFFFFFFFFFFFFFFFFFF AND PUSH32 0x67A8D47C6ECF3A491EA8A4F20A58352394879C573C678EC5B9ABCEAE075D4DCA DUP5 DUP4 PUSH1 0x40 MLOAD PUSH2 0x251C SWAP3 SWAP2 SWAP1 PUSH2 0x3E69 JUMP JUMPDEST PUSH1 0x40 MLOAD DUP1 SWAP2 SUB SWAP1 LOG2 POP POP JUMPDEST POP POP JUMP JUMPDEST PUSH0 PUSH2 0x2536 DUP4 DUP4 PUSH2 0x12EE JUMP JUMPDEST PUSH2 0x260B JUMPI PUSH1 0x1 PUSH1 0x2 PUSH0 DUP6 DUP2 MSTORE PUSH1 0x20 ADD SWAP1 DUP2 MSTORE PUSH1 0x20 ADD PUSH0 KECCAK256 PUSH0 ADD PUSH0 DUP5 PUSH20 0xFFFFFFFFFFFFFFFFFFFFFFFFFFFFFFFFFFFFFFFF AND PUSH20 0xFFFFFFFFFFFFFFFFFFFFFFFFFFFFFFFFFFFFFFFF AND DUP2 MSTORE PUSH1 0x20 ADD SWAP1 DUP2 MSTORE PUSH1 0x20 ADD PUSH0 KECCAK256 PUSH0 PUSH2 0x100 EXP DUP2 SLOAD DUP2 PUSH1 0xFF MUL NOT AND SWAP1 DUP4 ISZERO ISZERO MUL OR SWAP1 SSTORE POP PUSH2 0x25A8 PUSH2 0x26FA JUMP JUMPDEST PUSH20 0xFFFFFFFFFFFFFFFFFFFFFFFFFFFFFFFFFFFFFFFF AND DUP3 PUSH20 0xFFFFFFFFFFFFFFFFFFFFFFFFFFFFFFFFFFFFFFFF AND DUP5 PUSH32 0x2F8788117E7EFF1D82E926EC794901D17C78024A50270940304540A733656F0D PUSH1 0x40 MLOAD PUSH1 0x40 MLOAD DUP1 SWAP2 SUB SWAP1 LOG4 PUSH1 0x1 SWAP1 POP PUSH2 0x260F JUMP JUMPDEST PUSH0 SWAP1 POP JUMPDEST SWAP3 SWAP2 POP POP JUMP JUMPDEST DUP2 PUSH1 0x3 PUSH0 DUP6 PUSH20 0xFFFFFFFFFFFFFFFFFFFFFFFFFFFFFFFFFFFFFFFF AND PUSH20 0xFFFFFFFFFFFFFFFFFFFFFFFFFFFFFFFFFFFFFFFF AND DUP2 MSTORE PUSH1 0x20 ADD SWAP1 DUP2 MSTORE PUSH1 0x20 ADD PUSH0 KECCAK256 PUSH0 DUP3 DUP3 SLOAD PUSH2 0x2661 SWAP2 SWAP1 PUSH2 0x3E97 JUMP JUMPDEST SWAP3 POP POP DUP2 SWAP1 SSTORE POP DUP3 PUSH20 0xFFFFFFFFFFFFFFFFFFFFFFFFFFFFFFFFFFFFFFFF AND PUSH32 0x2B535FBF4D2281F734A35408583A14D4E2B28653B00D761613E8758399DD6E6D PUSH1 0x3 PUSH0 DUP7 PUSH20 0xFFFFFFFFFFFFFFFFFFFFFFFFFFFFFFFFFFFFFFFF AND PUSH20 0xFFFFFFFFFFFFFFFFFFFFFFFFFFFFFFFFFFFFFFFF AND DUP2 MSTORE PUSH1 0x20 ADD SWAP1 DUP2 MSTORE PUSH1 0x20 ADD PUSH0 KECCAK256 SLOAD DUP4 PUSH1 0x40 MLOAD PUSH2 0x26ED SWAP3 SWAP2 SWAP1 PUSH2 0x3C89 JUMP JUMPDEST PUSH1 0x40 MLOAD DUP1 SWAP2 SUB SWAP1 LOG2 POP POP POP JUMP JUMPDEST PUSH0 CALLER SWAP1 POP SWAP1 JUMP JUMPDEST PUSH0 PUSH2 0x270C DUP4 DUP4 PUSH2 0x12EE JUMP JUMPDEST ISZERO PUSH2 0x27E1 JUMPI PUSH0 PUSH1 0x2 PUSH0 DUP6 DUP2 MSTORE PUSH1 0x20 ADD SWAP1 DUP2 MSTORE PUSH1 0x20 ADD PUSH0 KECCAK256 PUSH0 ADD PUSH0 DUP5 PUSH20 0xFFFFFFFFFFFFFFFFFFFFFFFFFFFFFFFFFFFFFFFF AND PUSH20 0xFFFFFFFFFFFFFFFFFFFFFFFFFFFFFFFFFFFFFFFF AND DUP2 MSTORE PUSH1 0x20 ADD SWAP1 DUP2 MSTORE PUSH1 0x20 ADD PUSH0 KECCAK256 PUSH0 PUSH2 0x100 EXP DUP2 SLOAD DUP2 PUSH1 0xFF MUL NOT AND SWAP1 DUP4 ISZERO ISZERO MUL OR SWAP1 SSTORE POP PUSH2 0x277E PUSH2 0x26FA JUMP JUMPDEST PUSH20 0xFFFFFFFFFFFFFFFFFFFFFFFFFFFFFFFFFFFFFFFF AND DUP3 PUSH20 0xFFFFFFFFFFFFFFFFFFFFFFFFFFFFFFFFFFFFFFFF AND DUP5 PUSH32 0xF6391F5C32D9C69D2A47EA670B442974B53935D1EDC7FD64EB21E047A839171B PUSH1 0x40 MLOAD PUSH1 0x40 MLOAD DUP1 SWAP2 SUB SWAP1 LOG4 PUSH1 0x1 SWAP1 POP PUSH2 0x27E5 JUMP JUMPDEST PUSH0 SWAP1 POP JUMPDEST SWAP3 SWAP2 POP POP JUMP JUMPDEST PUSH2 0x27F3 PUSH2 0x2D84 JUMP JUMPDEST PUSH0 PUSH1 0x1 PUSH0 PUSH2 0x100 EXP DUP2 SLOAD DUP2 PUSH1 0xFF MUL NOT AND SWAP1 DUP4 ISZERO ISZERO MUL OR SWAP1 SSTORE POP PUSH32 0x5DB9EE0A495BF2E6FF9C91A7834C1BA4FDD244A5E8AA4E537BD38AEAE4B073AA PUSH2 0x2835 PUSH2 0x26FA JUMP JUMPDEST PUSH1 0x40 MLOAD PUSH2 0x2842 SWAP2 SWAP1 PUSH2 0x3401 JUMP JUMPDEST PUSH1 0x40 MLOAD DUP1 SWAP2 SUB SWAP1 LOG1 JUMP JUMPDEST PUSH2 0x2854 PUSH2 0x21EB JUMP JUMPDEST PUSH1 0x1 DUP1 PUSH0 PUSH2 0x100 EXP DUP2 SLOAD DUP2 PUSH1 0xFF MUL NOT AND SWAP1 DUP4 ISZERO ISZERO MUL OR SWAP1 SSTORE POP PUSH32 0x62E78CEA01BEE320CD4E420270B5EA74000D11B0C9F74754EBDBFC544B05A258 PUSH2 0x2896 PUSH2 0x26FA JUMP JUMPDEST PUSH1 0x40 MLOAD PUSH2 0x28A3 SWAP2 SWAP1 PUSH2 0x3401 JUMP JUMPDEST PUSH1 0x40 MLOAD DUP1 SWAP2 SUB SWAP1 LOG1 JUMP JUMPDEST PUSH2 0x28B7 DUP3 DUP3 PUSH2 0x12EE JUMP JUMPDEST PUSH2 0x28FA JUMPI DUP1 DUP3 PUSH1 0x40 MLOAD PUSH32 0xE2517D3F00000000000000000000000000000000000000000000000000000000 DUP2 MSTORE PUSH1 0x4 ADD PUSH2 0x28F1 SWAP3 SWAP2 SWAP1 PUSH2 0x3ECA JUMP JUMPDEST PUSH1 0x40 MLOAD DUP1 SWAP2 SUB SWAP1 REVERT JUMPDEST POP POP JUMP JUMPDEST PUSH1 0x60 PUSH0 DUP3 DUP1 MLOAD SWAP1 PUSH1 0x20 ADD KECCAK256 SWAP1 POP PUSH32 0xCE3C74D1AA17E71C363F9EC4E9713D22E86F5938EE1536DE30EDE935B3EA8699 DUP2 SUB PUSH2 0x2970 JUMPI PUSH1 0x40 MLOAD DUP1 PUSH1 0x40 ADD PUSH1 0x40 MSTORE DUP1 PUSH1 0x18 DUP2 MSTORE PUSH1 0x20 ADD PUSH32 0x4372656174656420796F7572206669727374206368616D610000000000000000 DUP2 MSTORE POP SWAP2 POP POP PUSH2 0x2D7F JUMP JUMPDEST PUSH32 0xAA639973EECED364B1E49EAF04CDCE0E3A448BEDA1AC572145DCDB4158FF3EE1 DUP2 SUB PUSH2 0x29D5 JUMPI PUSH1 0x40 MLOAD DUP1 PUSH1 0x40 ADD PUSH1 0x40 MSTORE DUP1 PUSH1 0x1C DUP2 MSTORE PUSH1 0x20 ADD PUSH32 0x4D61646520796F757220666972737420636F6E747269627574696F6E00000000 DUP2 MSTORE POP SWAP2 POP POP PUSH2 0x2D7F JUMP JUMPDEST PUSH32 0x51171439905207316BFBB9035965755DCE7F21F64623B2947331B66CE5D9DDC2 DUP2 SUB PUSH2 0x2A3A JUMPI PUSH1 0x40 MLOAD DUP1 PUSH1 0x40 ADD PUSH1 0x40 MSTORE DUP1 PUSH1 0x14 DUP2 MSTORE PUSH1 0x20 ADD PUSH32 0x4D616465203520636F6E747269627574696F6E73000000000000000000000000 DUP2 MSTORE POP SWAP2 POP POP PUSH2 0x2D7F JUMP JUMPDEST PUSH32 0x9234AB901AD425023426825F1183636FF74E190A0A0F56DC56C1F4AF63FCB961 DUP2 SUB PUSH2 0x2A82 JUMPI PUSH1 0x40 MLOAD DUP1 PUSH1 0x60 ADD PUSH1 0x40 MSTORE DUP1 PUSH1 0x24 DUP2 MSTORE PUSH1 0x20 ADD PUSH2 0x3F5A PUSH1 0x24 SWAP2 CODECOPY SWAP2 POP POP PUSH2 0x2D7F JUMP JUMPDEST PUSH32 0x2B6467A5DE24F89E6A97F6828FEFA01AF0BF00966DBFB0F3B1E24583B812E6B7 DUP2 SUB PUSH2 0x2AE7 JUMPI PUSH1 0x40 MLOAD DUP1 PUSH1 0x40 ADD PUSH1 0x40 MSTORE DUP1 PUSH1 0x1B DUP2 MSTORE PUSH1 0x20 ADD PUSH32 0x4E65766572206D6973736564206120636F6E747269627574696F6E0000000000 DUP2 MSTORE POP SWAP2 POP POP PUSH2 0x2D7F JUMP JUMPDEST PUSH32 0x17ADCCFBF6E04B3E995CA25CA6F24D735C9582D0B4DF26EA0CADB28C67B20879 DUP2 SUB PUSH2 0x2B4C JUMPI PUSH1 0x40 MLOAD DUP1 PUSH1 0x40 ADD PUSH1 0x40 MSTORE DUP1 PUSH1 0x19 DUP2 MSTORE PUSH1 0x20 ADD PUSH32 0x496E7669746564203320667269656E647320746F206A6F696E00000000000000 DUP2 MSTORE POP SWAP2 POP POP PUSH2 0x2D7F JUMP JUMPDEST PUSH32 0xB593DE05E1F7C32BDF270B509901A2E646B5ECF28A2B92CF5CC27FD0E5F9B6EF DUP2 SUB PUSH2 0x2BB1 JUMPI PUSH1 0x40 MLOAD DUP1 PUSH1 0x40 ADD PUSH1 0x40 MSTORE DUP1 PUSH1 0x1A DUP2 MSTORE PUSH1 0x20 ADD PUSH32 0x496E766974656420313020667269656E647320746F206A6F696E000000000000 DUP2 MSTORE POP SWAP2 POP POP PUSH2 0x2D7F JUMP JUMPDEST PUSH32 0xFD145C518A66ACB9507BFF5117FE28D0F32D8E354EF4985AA9F1B5EE396778AE DUP2 SUB PUSH2 0x2C16 JUMPI PUSH1 0x40 MLOAD DUP1 PUSH1 0x40 ADD PUSH1 0x40 MSTORE DUP1 PUSH1 0x1B DUP2 MSTORE PUSH1 0x20 ADD PUSH32 0x496E76697465642032352B20667269656E647320746F206A6F696E0000000000 DUP2 MSTORE POP SWAP2 POP POP PUSH2 0x2D7F JUMP JUMPDEST PUSH32 0x8F8053B13B1F22F4796B8C42B5F8A18EC27E9AECECF5AC25D15F1AB2C6B2CD20 DUP2 SUB PUSH2 0x2C7B JUMPI PUSH1 0x40 MLOAD DUP1 PUSH1 0x40 ADD PUSH1 0x40 MSTORE DUP1 PUSH1 0x1C DUP2 MSTORE PUSH1 0x20 ADD PUSH32 0x53656E7420796F757220666972737420503250207472616E7366657200000000 DUP2 MSTORE POP SWAP2 POP POP PUSH2 0x2D7F JUMP JUMPDEST PUSH32 0x39C1A46344CAB3EB38F32FBC5C4C705D79D172521355B97CFFFDDD54A22A691C DUP2 SUB PUSH2 0x2CE0 JUMPI PUSH1 0x40 MLOAD DUP1 PUSH1 0x40 ADD PUSH1 0x40 MSTORE DUP1 PUSH1 0x14 DUP2 MSTORE PUSH1 0x20 ADD PUSH32 0x53656E7420352072656420656E76656C6F706573000000000000000000000000 DUP2 MSTORE POP SWAP2 POP POP PUSH2 0x2D7F JUMP JUMPDEST PUSH32 0x37D1D0B8CFCCDAE8D03F6142B310D063D6721D6892C4E0D6FB105D6A9525C23 DUP2 SUB PUSH2 0x2D45 JUMPI PUSH1 0x40 MLOAD DUP1 PUSH1 0x40 ADD PUSH1 0x40 MSTORE DUP1 PUSH1 0x16 DUP2 MSTORE PUSH1 0x20 ADD PUSH32 0x53656E742032302B2072656420656E76656C6F70657300000000000000000000 DUP2 MSTORE POP SWAP2 POP POP PUSH2 0x2D7F JUMP JUMPDEST PUSH1 0x40 MLOAD DUP1 PUSH1 0x40 ADD PUSH1 0x40 MSTORE DUP1 PUSH1 0x1C DUP2 MSTORE PUSH1 0x20 ADD PUSH32 0x5370656369616C20616368696576656D656E7420756E6C6F636B656400000000 DUP2 MSTORE POP SWAP2 POP POP JUMPDEST SWAP2 SWAP1 POP JUMP JUMPDEST PUSH2 0x2D8C PUSH2 0x1158 JUMP JUMPDEST PUSH2 0x2DCB JUMPI PUSH1 0x40 MLOAD PUSH32 0x8C379A000000000000000000000000000000000000000000000000000000000 DUP2 MSTORE PUSH1 0x4 ADD PUSH2 0x2DC2 SWAP1 PUSH2 0x3F3B JUMP JUMPDEST PUSH1 0x40 MLOAD DUP1 SWAP2 SUB SWAP1 REVERT JUMPDEST JUMP JUMPDEST PUSH1 0x40 MLOAD DUP1 PUSH1 0xA0 ADD PUSH1 0x40 MSTORE DUP1 PUSH0 PUSH20 0xFFFFFFFFFFFFFFFFFFFFFFFFFFFFFFFFFFFFFFFF AND DUP2 MSTORE PUSH1 0x20 ADD PUSH1 0x60 DUP2 MSTORE PUSH1 0x20 ADD PUSH0 DUP2 MSTORE PUSH1 0x20 ADD PUSH0 DUP2 MSTORE PUSH1 0x20 ADD PUSH0 ISZERO ISZERO DUP2 MSTORE POP SWAP1 JUMP JUMPDEST PUSH0 PUSH1 0x40 MLOAD SWAP1 POP SWAP1 JUMP JUMPDEST PUSH0 PUSH0 REVERT JUMPDEST PUSH0 PUSH0 REVERT JUMPDEST PUSH0 PUSH0 REVERT JUMPDEST PUSH0 PUSH0 REVERT JUMPDEST PUSH0 PUSH1 0x1F NOT PUSH1 0x1F DUP4 ADD AND SWAP1 POP SWAP2 SWAP1 POP JUMP JUMPDEST PUSH32 0x4E487B7100000000000000000000000000000000000000000000000000000000 PUSH0 MSTORE PUSH1 0x41 PUSH1 0x4 MSTORE PUSH1 0x24 PUSH0 REVERT JUMPDEST PUSH2 0x2E6F DUP3 PUSH2 0x2E29 JUMP JUMPDEST DUP2 ADD DUP2 DUP2 LT PUSH8 0xFFFFFFFFFFFFFFFF DUP3 GT OR ISZERO PUSH2 0x2E8E JUMPI PUSH2 0x2E8D PUSH2 0x2E39 JUMP JUMPDEST JUMPDEST DUP1 PUSH1 0x40 MSTORE POP POP POP JUMP JUMPDEST PUSH0 PUSH2 0x2EA0 PUSH2 0x2E10 JUMP JUMPDEST SWAP1 POP PUSH2 0x2EAC DUP3 DUP3 PUSH2 0x2E66 JUMP JUMPDEST SWAP2 SWAP1 POP JUMP JUMPDEST PUSH0 PUSH8 0xFFFFFFFFFFFFFFFF DUP3 GT ISZERO PUSH2 0x2ECB JUMPI PUSH2 0x2ECA PUSH2 0x2E39 JUMP JUMPDEST JUMPDEST PUSH2 0x2ED4 DUP3 PUSH2 0x2E29 JUMP JUMPDEST SWAP1 POP PUSH1 0x20 DUP2 ADD SWAP1 POP SWAP2 SWAP1 POP JUMP JUMPDEST DUP3 DUP2 DUP4 CALLDATACOPY PUSH0 DUP4 DUP4 ADD MSTORE POP POP POP JUMP JUMPDEST PUSH0 PUSH2 0x2F01 PUSH2 0x2EFC DUP5 PUSH2 0x2EB1 JUMP JUMPDEST PUSH2 0x2E97 JUMP JUMPDEST SWAP1 POP DUP3 DUP2 MSTORE PUSH1 0x20 DUP2 ADD DUP5 DUP5 DUP5 ADD GT ISZERO PUSH2 0x2F1D JUMPI PUSH2 0x2F1C PUSH2 0x2E25 JUMP JUMPDEST JUMPDEST PUSH2 0x2F28 DUP5 DUP3 DUP6 PUSH2 0x2EE1 JUMP JUMPDEST POP SWAP4 SWAP3 POP POP POP JUMP JUMPDEST PUSH0 DUP3 PUSH1 0x1F DUP4 ADD SLT PUSH2 0x2F44 JUMPI PUSH2 0x2F43 PUSH2 0x2E21 JUMP JUMPDEST JUMPDEST DUP2 CALLDATALOAD PUSH2 0x2F54 DUP5 DUP3 PUSH1 0x20 DUP7 ADD PUSH2 0x2EEF JUMP JUMPDEST SWAP2 POP POP SWAP3 SWAP2 POP POP JUMP JUMPDEST PUSH0 PUSH1 0x20 DUP3 DUP5 SUB SLT ISZERO PUSH2 0x2F72 JUMPI PUSH2 0x2F71 PUSH2 0x2E19 JUMP JUMPDEST JUMPDEST PUSH0 DUP3 ADD CALLDATALOAD PUSH8 0xFFFFFFFFFFFFFFFF DUP2 GT ISZERO PUSH2 0x2F8F JUMPI PUSH2 0x2F8E PUSH2 0x2E1D JUMP JUMPDEST JUMPDEST PUSH2 0x2F9B DUP5 DUP3 DUP6 ADD PUSH2 0x2F30 JUMP JUMPDEST SWAP2 POP POP SWAP3 SWAP2 POP POP JUMP JUMPDEST PUSH0 PUSH32 0xFFFFFFFF00000000000000000000000000000000000000000000000000000000 DUP3 AND SWAP1 POP SWAP2 SWAP1 POP JUMP JUMPDEST PUSH2 0x2FD8 DUP2 PUSH2 0x2FA4 JUMP JUMPDEST DUP2 EQ PUSH2 0x2FE2 JUMPI PUSH0 PUSH0 REVERT JUMPDEST POP JUMP JUMPDEST PUSH0 DUP2 CALLDATALOAD SWAP1 POP PUSH2 0x2FF3 DUP2 PUSH2 0x2FCF JUMP JUMPDEST SWAP3 SWAP2 POP POP JUMP JUMPDEST PUSH0 PUSH1 0x20 DUP3 DUP5 SUB SLT ISZERO PUSH2 0x300E JUMPI PUSH2 0x300D PUSH2 0x2E19 JUMP JUMPDEST JUMPDEST PUSH0 PUSH2 0x301B DUP5 DUP3 DUP6 ADD PUSH2 0x2FE5 JUMP JUMPDEST SWAP2 POP POP SWAP3 SWAP2 POP POP JUMP JUMPDEST PUSH0 DUP2 ISZERO ISZERO SWAP1 POP SWAP2 SWAP1 POP JUMP JUMPDEST PUSH2 0x3038 DUP2 PUSH2 0x3024 JUMP JUMPDEST DUP3 MSTORE POP POP JUMP JUMPDEST PUSH0 PUSH1 0x20 DUP3 ADD SWAP1 POP PUSH2 0x3051 PUSH0 DUP4 ADD DUP5 PUSH2 0x302F JUMP JUMPDEST SWAP3 SWAP2 POP POP JUMP JUMPDEST PUSH0 DUP2 SWAP1 POP SWAP2 SWAP1 POP JUMP JUMPDEST PUSH2 0x3069 DUP2 PUSH2 0x3057 JUMP JUMPDEST DUP2 EQ PUSH2 0x3073 JUMPI PUSH0 PUSH0 REVERT JUMPDEST POP JUMP JUMPDEST PUSH0 DUP2 CALLDATALOAD SWAP1 POP PUSH2 0x3084 DUP2 PUSH2 0x3060 JUMP JUMPDEST SWAP3 SWAP2 POP POP JUMP JUMPDEST PUSH0 PUSH0 PUSH1 0x40 DUP4 DUP6 SUB SLT ISZERO PUSH2 0x30A0 JUMPI PUSH2 0x309F PUSH2 0x2E19 JUMP JUMPDEST JUMPDEST PUSH0 DUP4 ADD CALLDATALOAD PUSH8 0xFFFFFFFFFFFFFFFF DUP2 GT ISZERO PUSH2 0x30BD JUMPI PUSH2 0x30BC PUSH2 0x2E1D JUMP JUMPDEST JUMPDEST PUSH2 0x30C9 DUP6 DUP3 DUP7 ADD PUSH2 0x2F30 JUMP JUMPDEST SWAP3 POP POP PUSH1 0x20 PUSH2 0x30DA DUP6 DUP3 DUP7 ADD PUSH2 0x3076 JUMP JUMPDEST SWAP2 POP POP SWAP3 POP SWAP3 SWAP1 POP JUMP JUMPDEST PUSH0 PUSH20 0xFFFFFFFFFFFFFFFFFFFFFFFFFFFFFFFFFFFFFFFF DUP3 AND SWAP1 POP SWAP2 SWAP1 POP JUMP JUMPDEST PUSH0 PUSH2 0x310D DUP3 PUSH2 0x30E4 JUMP JUMPDEST SWAP1 POP SWAP2 SWAP1 POP JUMP JUMPDEST PUSH2 0x311D DUP2 PUSH2 0x3103 JUMP JUMPDEST DUP2 EQ PUSH2 0x3127 JUMPI PUSH0 PUSH0 REVERT JUMPDEST POP JUMP JUMPDEST PUSH0 DUP2 CALLDATALOAD SWAP1 POP PUSH2 0x3138 DUP2 PUSH2 0x3114 JUMP JUMPDEST SWAP3 SWAP2 POP POP JUMP JUMPDEST PUSH0 PUSH0 PUSH1 0x40 DUP4 DUP6 SUB SLT ISZERO PUSH2 0x3154 JUMPI PUSH2 0x3153 PUSH2 0x2E19 JUMP JUMPDEST JUMPDEST PUSH0 PUSH2 0x3161 DUP6 DUP3 DUP7 ADD PUSH2 0x312A JUMP JUMPDEST SWAP3 POP POP PUSH1 0x20 DUP4 ADD CALLDATALOAD PUSH8 0xFFFFFFFFFFFFFFFF DUP2 GT ISZERO PUSH2 0x3182 JUMPI PUSH2 0x3181 PUSH2 0x2E1D JUMP JUMPDEST JUMPDEST PUSH2 0x318E DUP6 DUP3 DUP7 ADD PUSH2 0x2F30 JUMP JUMPDEST SWAP2 POP POP SWAP3 POP SWAP3 SWAP1 POP JUMP JUMPDEST PUSH0 DUP2 SWAP1 POP SWAP2 SWAP1 POP JUMP JUMPDEST PUSH2 0x31AA DUP2 PUSH2 0x3198 JUMP JUMPDEST DUP2 EQ PUSH2 0x31B4 JUMPI PUSH0 PUSH0 REVERT JUMPDEST POP JUMP JUMPDEST PUSH0 DUP2 CALLDATALOAD SWAP1 POP PUSH2 0x31C5 DUP2 PUSH2 0x31A1 JUMP JUMPDEST SWAP3 SWAP2 POP POP JUMP JUMPDEST PUSH0 PUSH1 0x20 DUP3 DUP5 SUB SLT ISZERO PUSH2 0x31E0 JUMPI PUSH2 0x31DF PUSH2 0x2E19 JUMP JUMPDEST JUMPDEST PUSH0 PUSH2 0x31ED DUP5 DUP3 DUP6 ADD PUSH2 0x31B7 JUMP JUMPDEST SWAP2 POP POP SWAP3 SWAP2 POP POP JUMP JUMPDEST PUSH2 0x31FF DUP2 PUSH2 0x3198 JUMP JUMPDEST DUP3 MSTORE POP POP JUMP JUMPDEST PUSH0 PUSH1 0x20 DUP3 ADD SWAP1 POP PUSH2 0x3218 PUSH0 DUP4 ADD DUP5 PUSH2 0x31F6 JUMP JUMPDEST SWAP3 SWAP2 POP POP JUMP JUMPDEST PUSH0 PUSH1 0x20 DUP3 DUP5 SUB SLT ISZERO PUSH2 0x3233 JUMPI PUSH2 0x3232 PUSH2 0x2E19 JUMP JUMPDEST JUMPDEST PUSH0 PUSH2 0x3240 DUP5 DUP3 DUP6 ADD PUSH2 0x312A JUMP JUMPDEST SWAP2 POP POP SWAP3 SWAP2 POP POP JUMP JUMPDEST PUSH2 0x3252 DUP2 PUSH2 0x3057 JUMP JUMPDEST DUP3 MSTORE POP POP JUMP JUMPDEST PUSH0 PUSH1 0x20 DUP3 ADD SWAP1 POP PUSH2 0x326B PUSH0 DUP4 ADD DUP5 PUSH2 0x3249 JUMP JUMPDEST SWAP3 SWAP2 POP POP JUMP JUMPDEST PUSH0 PUSH0 PUSH1 0x40 DUP4 DUP6 SUB SLT ISZERO PUSH2 0x3287 JUMPI PUSH2 0x3286 PUSH2 0x2E19 JUMP JUMPDEST JUMPDEST PUSH0 PUSH2 0x3294 DUP6 DUP3 DUP7 ADD PUSH2 0x31B7 JUMP JUMPDEST SWAP3 POP POP PUSH1 0x20 PUSH2 0x32A5 DUP6 DUP3 DUP7 ADD PUSH2 0x312A JUMP JUMPDEST SWAP2 POP POP SWAP3 POP SWAP3 SWAP1 POP JUMP JUMPDEST PUSH0 DUP2 MLOAD SWAP1 POP SWAP2 SWAP1 POP JUMP JUMPDEST PUSH0 DUP3 DUP3 MSTORE PUSH1 0x20 DUP3 ADD SWAP1 POP SWAP3 SWAP2 POP POP JUMP JUMPDEST PUSH0 DUP2 SWAP1 POP PUSH1 0x20 DUP3 ADD SWAP1 POP SWAP2 SWAP1 POP JUMP JUMPDEST PUSH2 0x32E1 DUP2 PUSH2 0x3103 JUMP JUMPDEST DUP3 MSTORE POP POP JUMP JUMPDEST PUSH0 PUSH2 0x32F2 DUP4 DUP4 PUSH2 0x32D8 JUMP JUMPDEST PUSH1 0x20 DUP4 ADD SWAP1 POP SWAP3 SWAP2 POP POP JUMP JUMPDEST PUSH0 PUSH1 0x20 DUP3 ADD SWAP1 POP SWAP2 SWAP1 POP JUMP JUMPDEST PUSH0 PUSH2 0x3314 DUP3 PUSH2 0x32AF JUMP JUMPDEST PUSH2 0x331E DUP2 DUP6 PUSH2 0x32B9 JUMP JUMPDEST SWAP4 POP PUSH2 0x3329 DUP4 PUSH2 0x32C9 JUMP JUMPDEST DUP1 PUSH0 JUMPDEST DUP4 DUP2 LT ISZERO PUSH2 0x3359 JUMPI DUP2 MLOAD PUSH2 0x3340 DUP9 DUP3 PUSH2 0x32E7 JUMP JUMPDEST SWAP8 POP PUSH2 0x334B DUP4 PUSH2 0x32FE JUMP JUMPDEST SWAP3 POP POP PUSH1 0x1 DUP2 ADD SWAP1 POP PUSH2 0x332C JUMP JUMPDEST POP DUP6 SWAP4 POP POP POP POP SWAP3 SWAP2 POP POP JUMP JUMPDEST PUSH0 PUSH1 0x20 DUP3 ADD SWAP1 POP DUP2 DUP2 SUB PUSH0 DUP4 ADD MSTORE PUSH2 0x337E DUP2 DUP5 PUSH2 0x330A JUMP JUMPDEST SWAP1 POP SWAP3 SWAP2 POP POP JUMP JUMPDEST PUSH0 PUSH0 PUSH0 PUSH1 0x60 DUP5 DUP7 SUB SLT ISZERO PUSH2 0x339D JUMPI PUSH2 0x339C PUSH2 0x2E19 JUMP JUMPDEST JUMPDEST PUSH0 PUSH2 0x33AA DUP7 DUP3 DUP8 ADD PUSH2 0x312A JUMP JUMPDEST SWAP4 POP POP PUSH1 0x20 PUSH2 0x33BB DUP7 DUP3 DUP8 ADD PUSH2 0x3076 JUMP JUMPDEST SWAP3 POP POP PUSH1 0x40 DUP5 ADD CALLDATALOAD PUSH8 0xFFFFFFFFFFFFFFFF DUP2 GT ISZERO PUSH2 0x33DC JUMPI PUSH2 0x33DB PUSH2 0x2E1D JUMP JUMPDEST JUMPDEST PUSH2 0x33E8 DUP7 DUP3 DUP8 ADD PUSH2 0x2F30 JUMP JUMPDEST SWAP2 POP POP SWAP3 POP SWAP3 POP SWAP3 JUMP JUMPDEST PUSH2 0x33FB DUP2 PUSH2 0x3103 JUMP JUMPDEST DUP3 MSTORE POP POP JUMP JUMPDEST PUSH0 PUSH1 0x20 DUP3 ADD SWAP1 POP PUSH2 0x3414 PUSH0 DUP4 ADD DUP5 PUSH2 0x33F2 JUMP JUMPDEST SWAP3 SWAP2 POP POP JUMP JUMPDEST PUSH0 DUP2 MLOAD SWAP1 POP SWAP2 SWAP1 POP JUMP JUMPDEST PUSH0 DUP3 DUP3 MSTORE PUSH1 0x20 DUP3 ADD SWAP1 POP SWAP3 SWAP2 POP POP JUMP JUMPDEST DUP3 DUP2 DUP4 MCOPY PUSH0 DUP4 DUP4 ADD MSTORE POP POP POP JUMP JUMPDEST PUSH0 PUSH2 0x344C DUP3 PUSH2 0x341A JUMP JUMPDEST PUSH2 0x3456 DUP2 DUP6 PUSH2 0x3424 JUMP JUMPDEST SWAP4 POP PUSH2 0x3466 DUP2 DUP6 PUSH1 0x20 DUP7 ADD PUSH2 0x3434 JUMP JUMPDEST PUSH2 0x346F DUP2 PUSH2 0x2E29 JUMP JUMPDEST DUP5 ADD SWAP2 POP POP SWAP3 SWAP2 POP POP JUMP JUMPDEST PUSH2 0x3483 DUP2 PUSH2 0x3198 JUMP JUMPDEST DUP3 MSTORE POP POP JUMP JUMPDEST PUSH2 0x3492 DUP2 PUSH2 0x3057 JUMP JUMPDEST DUP3 MSTORE POP POP JUMP JUMPDEST PUSH2 0x34A1 DUP2 PUSH2 0x3024 JUMP JUMPDEST DUP3 MSTORE POP POP JUMP JUMPDEST PUSH0 PUSH1 0xA0 DUP4 ADD PUSH0 DUP4 ADD MLOAD PUSH2 0x34BC PUSH0 DUP7 ADD DUP3 PUSH2 0x32D8 JUMP JUMPDEST POP PUSH1 0x20 DUP4 ADD MLOAD DUP5 DUP3 SUB PUSH1 0x20 DUP7 ADD MSTORE PUSH2 0x34D4 DUP3 DUP3 PUSH2 0x3442 JUMP JUMPDEST SWAP2 POP POP PUSH1 0x40 DUP4 ADD MLOAD PUSH2 0x34E9 PUSH1 0x40 DUP7 ADD DUP3 PUSH2 0x347A JUMP JUMPDEST POP PUSH1 0x60 DUP4 ADD MLOAD PUSH2 0x34FC PUSH1 0x60 DUP7 ADD DUP3 PUSH2 0x3489 JUMP JUMPDEST POP PUSH1 0x80 DUP4 ADD MLOAD PUSH2 0x350F PUSH1 0x80 DUP7 ADD DUP3 PUSH2 0x3498 JUMP JUMPDEST POP DUP1 SWAP2 POP POP SWAP3 SWAP2 POP POP JUMP JUMPDEST PUSH0 PUSH1 0x20 DUP3 ADD SWAP1 POP DUP2 DUP2 SUB PUSH0 DUP4 ADD MSTORE PUSH2 0x3532 DUP2 DUP5 PUSH2 0x34A7 JUMP JUMPDEST SWAP1 POP SWAP3 SWAP2 POP POP JUMP JUMPDEST PUSH0 PUSH0 PUSH1 0x40 DUP4 DUP6 SUB SLT ISZERO PUSH2 0x3550 JUMPI PUSH2 0x354F PUSH2 0x2E19 JUMP JUMPDEST JUMPDEST PUSH0 DUP4 ADD CALLDATALOAD PUSH8 0xFFFFFFFFFFFFFFFF DUP2 GT ISZERO PUSH2 0x356D JUMPI PUSH2 0x356C PUSH2 0x2E1D JUMP JUMPDEST JUMPDEST PUSH2 0x3579 DUP6 DUP3 DUP7 ADD PUSH2 0x2F30 JUMP JUMPDEST SWAP3 POP POP PUSH1 0x20 PUSH2 0x358A DUP6 DUP3 DUP7 ADD PUSH2 0x31B7 JUMP JUMPDEST SWAP2 POP POP SWAP3 POP SWAP3 SWAP1 POP JUMP JUMPDEST PUSH0 DUP3 DUP3 MSTORE PUSH1 0x20 DUP3 ADD SWAP1 POP SWAP3 SWAP2 POP POP JUMP JUMPDEST PUSH0 PUSH2 0x35AE DUP3 PUSH2 0x341A JUMP JUMPDEST PUSH2 0x35B8 DUP2 DUP6 PUSH2 0x3594 JUMP JUMPDEST SWAP4 POP PUSH2 0x35C8 DUP2 DUP6 PUSH1 0x20 DUP7 ADD PUSH2 0x3434 JUMP JUMPDEST PUSH2 0x35D1 DUP2 PUSH2 0x2E29 JUMP JUMPDEST DUP5 ADD SWAP2 POP POP SWAP3 SWAP2 POP POP JUMP JUMPDEST PUSH0 PUSH1 0xA0 DUP3 ADD SWAP1 POP PUSH2 0x35EF PUSH0 DUP4 ADD DUP9 PUSH2 0x33F2 JUMP JUMPDEST DUP2 DUP2 SUB PUSH1 0x20 DUP4 ADD MSTORE PUSH2 0x3601 DUP2 DUP8 PUSH2 0x35A4 JUMP JUMPDEST SWAP1 POP PUSH2 0x3610 PUSH1 0x40 DUP4 ADD DUP7 PUSH2 0x31F6 JUMP JUMPDEST PUSH2 0x361D PUSH1 0x60 DUP4 ADD DUP6 PUSH2 0x3249 JUMP JUMPDEST PUSH2 0x362A PUSH1 0x80 DUP4 ADD DUP5 PUSH2 0x302F JUMP JUMPDEST SWAP7 SWAP6 POP POP POP POP POP POP JUMP JUMPDEST PUSH0 PUSH0 PUSH1 0x40 DUP4 DUP6 SUB SLT ISZERO PUSH2 0x364A JUMPI PUSH2 0x3649 PUSH2 0x2E19 JUMP JUMPDEST JUMPDEST PUSH0 PUSH2 0x3657 DUP6 DUP3 DUP7 ADD PUSH2 0x312A JUMP JUMPDEST SWAP3 POP POP PUSH1 0x20 PUSH2 0x3668 DUP6 DUP3 DUP7 ADD PUSH2 0x3076 JUMP JUMPDEST SWAP2 POP POP SWAP3 POP SWAP3 SWAP1 POP JUMP JUMPDEST PUSH0 PUSH1 0x80 DUP3 ADD SWAP1 POP DUP2 DUP2 SUB PUSH0 DUP4 ADD MSTORE PUSH2 0x368A DUP2 DUP8 PUSH2 0x35A4 JUMP JUMPDEST SWAP1 POP DUP2 DUP2 SUB PUSH1 0x20 DUP4 ADD MSTORE PUSH2 0x369E DUP2 DUP7 PUSH2 0x35A4 JUMP JUMPDEST SWAP1 POP PUSH2 0x36AD PUSH1 0x40 DUP4 ADD DUP6 PUSH2 0x3249 JUMP JUMPDEST PUSH2 0x36BA PUSH1 0x60 DUP4 ADD DUP5 PUSH2 0x3249 JUMP JUMPDEST SWAP6 SWAP5 POP POP POP POP POP JUMP JUMPDEST PUSH0 DUP2 MLOAD SWAP1 POP SWAP2 SWAP1 POP JUMP JUMPDEST PUSH0 DUP3 DUP3 MSTORE PUSH1 0x20 DUP3 ADD SWAP1 POP SWAP3 SWAP2 POP POP JUMP JUMPDEST PUSH0 DUP2 SWAP1 POP PUSH1 0x20 DUP3 ADD SWAP1 POP SWAP2 SWAP1 POP JUMP JUMPDEST PUSH0 PUSH1 0x80 DUP4 ADD PUSH0 DUP4 ADD MLOAD DUP5 DUP3 SUB PUSH0 DUP7 ADD MSTORE PUSH2 0x3706 DUP3 DUP3 PUSH2 0x3442 JUMP JUMPDEST SWAP2 POP POP PUSH1 0x20 DUP4 ADD MLOAD DUP5 DUP3 SUB PUSH1 0x20 DUP7 ADD MSTORE PUSH2 0x3720 DUP3 DUP3 PUSH2 0x3442 JUMP JUMPDEST SWAP2 POP POP PUSH1 0x40 DUP4 ADD MLOAD PUSH2 0x3735 PUSH1 0x40 DUP7 ADD DUP3 PUSH2 0x3489 JUMP JUMPDEST POP PUSH1 0x60 DUP4 ADD MLOAD PUSH2 0x3748 PUSH1 0x60 DUP7 ADD DUP3 PUSH2 0x3489 JUMP JUMPDEST POP DUP1 SWAP2 POP POP SWAP3 SWAP2 POP POP JUMP JUMPDEST PUSH0 PUSH2 0x375E DUP4 DUP4 PUSH2 0x36EC JUMP JUMPDEST SWAP1 POP SWAP3 SWAP2 POP POP JUMP JUMPDEST PUSH0 PUSH1 0x20 DUP3 ADD SWAP1 POP SWAP2 SWAP1 POP JUMP JUMPDEST PUSH0 PUSH2 0x377C DUP3 PUSH2 0x36C3 JUMP JUMPDEST PUSH2 0x3786 DUP2 DUP6 PUSH2 0x36CD JUMP JUMPDEST SWAP4 POP DUP4 PUSH1 0x20 DUP3 MUL DUP6 ADD PUSH2 0x3798 DUP6 PUSH2 0x36DD JUMP JUMPDEST DUP1 PUSH0 JUMPDEST DUP6 DUP2 LT ISZERO PUSH2 0x37D3 JUMPI DUP5 DUP5 SUB DUP10 MSTORE DUP2 MLOAD PUSH2 0x37B4 DUP6 DUP3 PUSH2 0x3753 JUMP JUMPDEST SWAP5 POP PUSH2 0x37BF DUP4 PUSH2 0x3766 JUMP JUMPDEST SWAP3 POP PUSH1 0x20 DUP11 ADD SWAP10 POP POP PUSH1 0x1 DUP2 ADD SWAP1 POP PUSH2 0x379B JUMP JUMPDEST POP DUP3 SWAP8 POP DUP8 SWAP6 POP POP POP POP POP POP SWAP3 SWAP2 POP POP JUMP JUMPDEST PUSH0 PUSH1 0x20 DUP3 ADD SWAP1 POP DUP2 DUP2 SUB PUSH0 DUP4 ADD MSTORE PUSH2 0x37FD DUP2 DUP5 PUSH2 0x3772 JUMP JUMPDEST SWAP1 POP SWAP3 SWAP2 POP POP JUMP JUMPDEST PUSH32 0x4E487B7100000000000000000000000000000000000000000000000000000000 PUSH0 MSTORE PUSH1 0x22 PUSH1 0x4 MSTORE PUSH1 0x24 PUSH0 REVERT JUMPDEST PUSH0 PUSH1 0x2 DUP3 DIV SWAP1 POP PUSH1 0x1 DUP3 AND DUP1 PUSH2 0x3849 JUMPI PUSH1 0x7F DUP3 AND SWAP2 POP JUMPDEST PUSH1 0x20 DUP3 LT DUP2 SUB PUSH2 0x385C JUMPI PUSH2 0x385B PUSH2 0x3805 JUMP JUMPDEST JUMPDEST POP SWAP2 SWAP1 POP JUMP JUMPDEST PUSH0 DUP2 SWAP1 POP DUP2 PUSH0 MSTORE PUSH1 0x20 PUSH0 KECCAK256 SWAP1 POP SWAP2 SWAP1 POP JUMP JUMPDEST PUSH0 PUSH1 0x20 PUSH1 0x1F DUP4 ADD DIV SWAP1 POP SWAP2 SWAP1 POP JUMP JUMPDEST PUSH0 DUP3 DUP3 SHL SWAP1 POP SWAP3 SWAP2 POP POP JUMP JUMPDEST PUSH0 PUSH1 0x8 DUP4 MUL PUSH2 0x38BE PUSH32 0xFFFFFFFFFFFFFFFFFFFFFFFFFFFFFFFFFFFFFFFFFFFFFFFFFFFFFFFFFFFFFFFF DUP3 PUSH2 0x3883 JUMP JUMPDEST PUSH2 0x38C8 DUP7 DUP4 PUSH2 0x3883 JUMP JUMPDEST SWAP6 POP DUP1 NOT DUP5 AND SWAP4 POP DUP1 DUP7 AND DUP5 OR SWAP3 POP POP POP SWAP4 SWAP3 POP POP POP JUMP JUMPDEST PUSH0 DUP2 SWAP1 POP SWAP2 SWAP1 POP JUMP JUMPDEST PUSH0 PUSH2 0x3903 PUSH2 0x38FE PUSH2 0x38F9 DUP5 PUSH2 0x3057 JUMP JUMPDEST PUSH2 0x38E0 JUMP JUMPDEST PUSH2 0x3057 JUMP JUMPDEST SWAP1 POP SWAP2 SWAP1 POP JUMP JUMPDEST PUSH0 DUP2 SWAP1 POP SWAP2 SWAP1 POP JUMP JUMPDEST PUSH2 0x391C DUP4 PUSH2 0x38E9 JUMP JUMPDEST PUSH2 0x3930 PUSH2 0x3928 DUP3 PUSH2 0x390A JUMP JUMPDEST DUP5 DUP5 SLOAD PUSH2 0x388F JUMP JUMPDEST DUP3 SSTORE POP POP POP POP JUMP JUMPDEST PUSH0 PUSH0 SWAP1 POP SWAP1 JUMP JUMPDEST PUSH2 0x3947 PUSH2 0x3938 JUMP JUMPDEST PUSH2 0x3952 DUP2 DUP5 DUP5 PUSH2 0x3913 JUMP JUMPDEST POP POP POP JUMP JUMPDEST JUMPDEST DUP2 DUP2 LT ISZERO PUSH2 0x3975 JUMPI PUSH2 0x396A PUSH0 DUP3 PUSH2 0x393F JUMP JUMPDEST PUSH1 0x1 DUP2 ADD SWAP1 POP PUSH2 0x3958 JUMP JUMPDEST POP POP JUMP JUMPDEST PUSH1 0x1F DUP3 GT ISZERO PUSH2 0x39BA JUMPI PUSH2 0x398B DUP2 PUSH2 0x3862 JUMP JUMPDEST PUSH2 0x3994 DUP5 PUSH2 0x3874 JUMP JUMPDEST DUP2 ADD PUSH1 0x20 DUP6 LT ISZERO PUSH2 0x39A3 JUMPI DUP2 SWAP1 POP JUMPDEST PUSH2 0x39B7 PUSH2 0x39AF DUP6 PUSH2 0x3874 JUMP JUMPDEST DUP4 ADD DUP3 PUSH2 0x3957 JUMP JUMPDEST POP POP JUMPDEST POP POP POP JUMP JUMPDEST PUSH0 DUP3 DUP3 SHR SWAP1 POP SWAP3 SWAP2 POP POP JUMP JUMPDEST PUSH0 PUSH2 0x39DA PUSH0 NOT DUP5 PUSH1 0x8 MUL PUSH2 0x39BF JUMP JUMPDEST NOT DUP1 DUP4 AND SWAP2 POP POP SWAP3 SWAP2 POP POP JUMP JUMPDEST PUSH0 PUSH2 0x39F2 DUP4 DUP4 PUSH2 0x39CB JUMP JUMPDEST SWAP2 POP DUP3 PUSH1 0x2 MUL DUP3 OR SWAP1 POP SWAP3 SWAP2 POP POP JUMP JUMPDEST PUSH2 0x3A0B DUP3 PUSH2 0x341A JUMP JUMPDEST PUSH8 0xFFFFFFFFFFFFFFFF DUP2 GT ISZERO PUSH2 0x3A24 JUMPI PUSH2 0x3A23 PUSH2 0x2E39 JUMP JUMPDEST JUMPDEST PUSH2 0x3A2E DUP3 SLOAD PUSH2 0x3832 JUMP JUMPDEST PUSH2 0x3A39 DUP3 DUP3 DUP6 PUSH2 0x3979 JUMP JUMPDEST PUSH0 PUSH1 0x20 SWAP1 POP PUSH1 0x1F DUP4 GT PUSH1 0x1 DUP2 EQ PUSH2 0x3A6A JUMPI PUSH0 DUP5 ISZERO PUSH2 0x3A58 JUMPI DUP3 DUP8 ADD MLOAD SWAP1 POP JUMPDEST PUSH2 0x3A62 DUP6 DUP3 PUSH2 0x39E7 JUMP JUMPDEST DUP7 SSTORE POP PUSH2 0x3AC9 JUMP JUMPDEST PUSH1 0x1F NOT DUP5 AND PUSH2 0x3A78 DUP7 PUSH2 0x3862 JUMP JUMPDEST PUSH0 JUMPDEST DUP3 DUP2 LT ISZERO PUSH2 0x3A9F JUMPI DUP5 DUP10 ADD MLOAD DUP3 SSTORE PUSH1 0x1 DUP3 ADD SWAP2 POP PUSH1 0x20 DUP6 ADD SWAP5 POP PUSH1 0x20 DUP2 ADD SWAP1 POP PUSH2 0x3A7A JUMP JUMPDEST DUP7 DUP4 LT ISZERO PUSH2 0x3ABC JUMPI DUP5 DUP10 ADD MLOAD PUSH2 0x3AB8 PUSH1 0x1F DUP10 AND DUP3 PUSH2 0x39CB JUMP JUMPDEST DUP4 SSTORE POP JUMPDEST PUSH1 0x1 PUSH1 0x2 DUP9 MUL ADD DUP9 SSTORE POP POP POP JUMPDEST POP POP POP POP POP POP JUMP JUMPDEST PUSH0 PUSH1 0x20 DUP3 ADD SWAP1 POP DUP2 DUP2 SUB PUSH0 DUP4 ADD MSTORE PUSH2 0x3AE9 DUP2 DUP5 PUSH2 0x35A4 JUMP JUMPDEST SWAP1 POP SWAP3 SWAP2 POP POP JUMP JUMPDEST PUSH0 DUP2 SWAP1 POP SWAP3 SWAP2 POP POP JUMP JUMPDEST PUSH0 PUSH2 0x3B05 DUP3 PUSH2 0x341A JUMP JUMPDEST PUSH2 0x3B0F DUP2 DUP6 PUSH2 0x3AF1 JUMP JUMPDEST SWAP4 POP PUSH2 0x3B1F DUP2 DUP6 PUSH1 0x20 DUP7 ADD PUSH2 0x3434 JUMP JUMPDEST DUP1 DUP5 ADD SWAP2 POP POP SWAP3 SWAP2 POP POP JUMP JUMPDEST PUSH0 PUSH2 0x3B36 DUP3 DUP5 PUSH2 0x3AFB JUMP JUMPDEST SWAP2 POP DUP2 SWAP1 POP SWAP3 SWAP2 POP POP JUMP JUMPDEST PUSH32 0x4E487B7100000000000000000000000000000000000000000000000000000000 PUSH0 MSTORE PUSH1 0x11 PUSH1 0x4 MSTORE PUSH1 0x24 PUSH0 REVERT JUMPDEST PUSH0 PUSH2 0x3B78 DUP3 PUSH2 0x3057 JUMP JUMPDEST SWAP2 POP PUSH32 0xFFFFFFFFFFFFFFFFFFFFFFFFFFFFFFFFFFFFFFFFFFFFFFFFFFFFFFFFFFFFFFFF DUP3 SUB PUSH2 0x3BAA JUMPI PUSH2 0x3BA9 PUSH2 0x3B41 JUMP JUMPDEST JUMPDEST PUSH1 0x1 DUP3 ADD SWAP1 POP SWAP2 SWAP1 POP JUMP JUMPDEST PUSH0 DUP2 PUSH1 0x60 SHL SWAP1 POP SWAP2 SWAP1 POP JUMP JUMPDEST PUSH0 PUSH2 0x3BCB DUP3 PUSH2 0x3BB5 JUMP JUMPDEST SWAP1 POP SWAP2 SWAP1 POP JUMP JUMPDEST PUSH0 PUSH2 0x3BDC DUP3 PUSH2 0x3BC1 JUMP JUMPDEST SWAP1 POP SWAP2 SWAP1 POP JUMP JUMPDEST PUSH2 0x3BF4 PUSH2 0x3BEF DUP3 PUSH2 0x3103 JUMP JUMPDEST PUSH2 0x3BD2 JUMP JUMPDEST DUP3 MSTORE POP POP JUMP JUMPDEST PUSH0 DUP2 SWAP1 POP SWAP2 SWAP1 POP JUMP JUMPDEST PUSH2 0x3C14 PUSH2 0x3C0F DUP3 PUSH2 0x3057 JUMP JUMPDEST PUSH2 0x3BFA JUMP JUMPDEST DUP3 MSTORE POP POP JUMP JUMPDEST PUSH0 PUSH2 0x3C25 DUP3 DUP7 PUSH2 0x3BE3 JUMP JUMPDEST PUSH1 0x14 DUP3 ADD SWAP2 POP PUSH2 0x3C35 DUP3 DUP6 PUSH2 0x3C03 JUMP JUMPDEST PUSH1 0x20 DUP3 ADD SWAP2 POP PUSH2 0x3C45 DUP3 DUP5 PUSH2 0x3C03 JUMP JUMPDEST PUSH1 0x20 DUP3 ADD SWAP2 POP DUP2 SWAP1 POP SWAP5 SWAP4 POP POP POP POP JUMP JUMPDEST PUSH0 PUSH2 0x3C60 DUP3 PUSH2 0x3057 JUMP JUMPDEST SWAP2 POP PUSH2 0x3C6B DUP4 PUSH2 0x3057 JUMP JUMPDEST SWAP3 POP DUP3 DUP3 SUB SWAP1 POP DUP2 DUP2 GT ISZERO PUSH2 0x3C83 JUMPI PUSH2 0x3C82 PUSH2 0x3B41 JUMP JUMPDEST JUMPDEST SWAP3 SWAP2 POP POP JUMP JUMPDEST PUSH0 PUSH1 0x40 DUP3 ADD SWAP1 POP PUSH2 0x3C9C PUSH0 DUP4 ADD DUP6 PUSH2 0x3249 JUMP JUMPDEST DUP2 DUP2 SUB PUSH1 0x20 DUP4 ADD MSTORE PUSH2 0x3CAE DUP2 DUP5 PUSH2 0x35A4 JUMP JUMPDEST SWAP1 POP SWAP4 SWAP3 POP POP POP JUMP JUMPDEST PUSH32 0x5061757361626C653A2070617573656400000000000000000000000000000000 PUSH0 DUP3 ADD MSTORE POP JUMP JUMPDEST PUSH0 PUSH2 0x3CEB PUSH1 0x10 DUP4 PUSH2 0x3594 JUMP JUMPDEST SWAP2 POP PUSH2 0x3CF6 DUP3 PUSH2 0x3CB7 JUMP JUMPDEST PUSH1 0x20 DUP3 ADD SWAP1 POP SWAP2 SWAP1 POP JUMP JUMPDEST PUSH0 PUSH1 0x20 DUP3 ADD SWAP1 POP DUP2 DUP2 SUB PUSH0 DUP4 ADD MSTORE PUSH2 0x3D18 DUP2 PUSH2 0x3CDF JUMP JUMPDEST SWAP1 POP SWAP2 SWAP1 POP JUMP JUMPDEST PUSH32 0x4E487B7100000000000000000000000000000000000000000000000000000000 PUSH0 MSTORE PUSH1 0x32 PUSH1 0x4 MSTORE PUSH1 0x24 PUSH0 REVERT JUMPDEST PUSH0 DUP2 SWAP1 POP SWAP3 SWAP2 POP POP JUMP JUMPDEST PUSH0 DUP2 SWAP1 POP DUP2 PUSH0 MSTORE PUSH1 0x20 PUSH0 KECCAK256 SWAP1 POP SWAP2 SWAP1 POP JUMP JUMPDEST PUSH0 DUP2 SLOAD PUSH2 0x3D74 DUP2 PUSH2 0x3832 JUMP JUMPDEST PUSH2 0x3D7E DUP2 DUP7 PUSH2 0x3D4C JUMP JUMPDEST SWAP5 POP PUSH1 0x1 DUP3 AND PUSH0 DUP2 EQ PUSH2 0x3D98 JUMPI PUSH1 0x1 DUP2 EQ PUSH2 0x3DAD JUMPI PUSH2 0x3DDF JUMP JUMPDEST PUSH1 0xFF NOT DUP4 AND DUP7 MSTORE DUP2 ISZERO ISZERO DUP3 MUL DUP7 ADD SWAP4 POP PUSH2 0x3DDF JUMP JUMPDEST PUSH2 0x3DB6 DUP6 PUSH2 0x3D56 JUMP JUMPDEST PUSH0 JUMPDEST DUP4 DUP2 LT ISZERO PUSH2 0x3DD7 JUMPI DUP2 SLOAD DUP2 DUP10 ADD MSTORE PUSH1 0x1 DUP3 ADD SWAP2 POP PUSH1 0x20 DUP2 ADD SWAP1 POP PUSH2 0x3DB8 JUMP JUMPDEST DUP4 DUP9 ADD SWAP6 POP POP POP JUMPDEST POP POP POP SWAP3 SWAP2 POP POP JUMP JUMPDEST PUSH0 PUSH2 0x3DF3 DUP3 DUP5 PUSH2 0x3D68 JUMP JUMPDEST SWAP2 POP DUP2 SWAP1 POP SWAP3 SWAP2 POP POP JUMP JUMPDEST PUSH32 0x416368696576656D656E743A2000000000000000000000000000000000000000 PUSH0 DUP3 ADD MSTORE POP JUMP JUMPDEST PUSH0 PUSH2 0x3E32 PUSH1 0xD DUP4 PUSH2 0x3AF1 JUMP JUMPDEST SWAP2 POP PUSH2 0x3E3D DUP3 PUSH2 0x3DFE JUMP JUMPDEST PUSH1 0xD DUP3 ADD SWAP1 POP SWAP2 SWAP1 POP JUMP JUMPDEST PUSH0 PUSH2 0x3E52 DUP3 PUSH2 0x3E26 JUMP JUMPDEST SWAP2 POP PUSH2 0x3E5E DUP3 DUP5 PUSH2 0x3AFB JUMP JUMPDEST SWAP2 POP DUP2 SWAP1 POP SWAP3 SWAP2 POP POP JUMP JUMPDEST PUSH0 PUSH1 0x40 DUP3 ADD SWAP1 POP DUP2 DUP2 SUB PUSH0 DUP4 ADD MSTORE PUSH2 0x3E81 DUP2 DUP6 PUSH2 0x35A4 JUMP JUMPDEST SWAP1 POP PUSH2 0x3E90 PUSH1 0x20 DUP4 ADD DUP5 PUSH2 0x3249 JUMP JUMPDEST SWAP4 SWAP3 POP POP POP JUMP JUMPDEST PUSH0 PUSH2 0x3EA1 DUP3 PUSH2 0x3057 JUMP JUMPDEST SWAP2 POP PUSH2 0x3EAC DUP4 PUSH2 0x3057 JUMP JUMPDEST SWAP3 POP DUP3 DUP3 ADD SWAP1 POP DUP1 DUP3 GT ISZERO PUSH2 0x3EC4 JUMPI PUSH2 0x3EC3 PUSH2 0x3B41 JUMP JUMPDEST JUMPDEST SWAP3 SWAP2 POP POP JUMP JUMPDEST PUSH0 PUSH1 0x40 DUP3 ADD SWAP1 POP PUSH2 0x3EDD PUSH0 DUP4 ADD DUP6 PUSH2 0x33F2 JUMP JUMPDEST PUSH2 0x3EEA PUSH1 0x20 DUP4 ADD DUP5 PUSH2 0x31F6 JUMP JUMPDEST SWAP4 SWAP3 POP POP POP JUMP JUMPDEST PUSH32 0x5061757361626C653A206E6F7420706175736564000000000000000000000000 PUSH0 DUP3 ADD MSTORE POP JUMP JUMPDEST PUSH0 PUSH2 0x3F25 PUSH1 0x14 DUP4 PUSH2 0x3594 JUMP JUMPDEST SWAP2 POP PUSH2 0x3F30 DUP3 PUSH2 0x3EF1 JUMP JUMPDEST PUSH1 0x20 DUP3 ADD SWAP1 POP SWAP2 SWAP1 POP JUMP JUMPDEST PUSH0 PUSH1 0x20 DUP3 ADD SWAP1 POP DUP2 DUP2 SUB PUSH0 DUP4 ADD MSTORE PUSH2 0x3F52 DUP2 PUSH2 0x3F19 JUMP JUMPDEST SWAP1 POP SWAP2 SWAP1 POP JUMP INVALID MSTORE8 PUSH22 0x636365737366756C6C7920636F6D706C657465642061 KECCAK256 PUSH4 0x68616D61 KECCAK256 PUSH4 0x79636C65 LOG2 PUSH5 0x6970667358 0x22 SLT KECCAK256 SWAP10 0xDA EXTCODESIZE PUSH14 0x4DE5A026040D44AFF8ABA13B007C CHAINID 0x4F RETURNCONTRACT 0x3C 0x22 POP 0x2F 0x1F SWAP3 PUSH17 0xC55D745464736F6C634300081E00330000 "
				},
				"gasEstimates": {
					"creation": {
						"codeDepositCost": "3261400",
						"executionCost": "infinite",
						"totalCost": "infinite"
					},
					"external": {
						"ADMIN_ROLE()": "371",
						"CHAMA_CORE_ROLE()": "458",
						"DEFAULT_ADMIN_ROLE()": "418",
						"acceptInvite(bytes32)": "infinite",
						"achievementPoints(string)": "infinite",
						"achievements(address,uint256)": "infinite",
						"addAchievement(string,uint256)": "infinite",
						"addScore(address,uint256,string)": "infinite",
						"createProfile(string,bytes32)": "infinite",
						"findAddressByInviteHash(bytes32)": "2964",
						"generateInvite(string,bytes32)": "infinite",
						"getAchievementPoints(string)": "infinite",
						"getReferralCount(address)": "2897",
						"getRoleAdmin(bytes32)": "infinite",
						"getUserAchievements(address)": "infinite",
						"getUserInviteHash(address)": "2940",
						"getUserProfile(address)": "infinite",
						"getUserReferrals(address)": "infinite",
						"getUserScore(address)": "2874",
						"grantRole(bytes32,address)": "infinite",
						"hasRole(bytes32,address)": "3255",
						"invitations(address)": "2847",
						"inviteCount(address)": "2936",
						"inviteHashToAddress(bytes32)": "2871",
						"isValidAchievement(string)": "infinite",
						"pause()": "infinite",
						"paused()": "2540",
						"profiles(address)": "infinite",
						"referrals(address,uint256)": "infinite",
						"renounceRole(bytes32,address)": "infinite",
						"revokeRole(bytes32,address)": "infinite",
						"scores(address)": "2870",
						"setChamaCore(address)": "infinite",
						"subtractScore(address,uint256,string)": "infinite",
						"supportsInterface(bytes4)": "786",
						"unlockAchievement(address,string)": "infinite",
						"unpause()": "infinite",
						"updateAchievementPoints(string,uint256)": "infinite",
						"updateProfile(string)": "infinite",
						"validAchievements(string)": "infinite"
					},
					"internal": {
						"_addScore(address,uint256,string memory)": "infinite",
						"_getAchievementDescription(string memory)": "infinite",
						"_initializeAchievements()": "infinite",
						"_unlockAchievement(address,string memory)": "infinite"
					}
				},
				"methodIdentifiers": {
					"ADMIN_ROLE()": "75b238fc",
					"CHAMA_CORE_ROLE()": "ac132d2d",
					"DEFAULT_ADMIN_ROLE()": "a217fddf",
					"acceptInvite(bytes32)": "33b0d363",
					"achievementPoints(string)": "fb6298d5",
					"achievements(address,uint256)": "bf882e73",
					"addAchievement(string,uint256)": "0c860dcc",
					"addScore(address,uint256,string)": "5d03ce80",
					"createProfile(string,bytes32)": "9888a57c",
					"findAddressByInviteHash(bytes32)": "87cf1621",
					"generateInvite(string,bytes32)": "a9c837c9",
					"getAchievementPoints(string)": "41c57372",
					"getReferralCount(address)": "24acbd69",
					"getRoleAdmin(bytes32)": "248a9ca3",
					"getUserAchievements(address)": "f09153c4",
					"getUserInviteHash(address)": "61e092fc",
					"getUserProfile(address)": "987ee156",
					"getUserReferrals(address)": "575cea6b",
					"getUserScore(address)": "b34e0c47",
					"grantRole(bytes32,address)": "2f2ff15d",
					"hasRole(bytes32,address)": "91d14854",
					"invitations(address)": "58f43f76",
					"inviteCount(address)": "57b24e6b",
					"inviteHashToAddress(bytes32)": "dde7fe83",
					"isValidAchievement(string)": "14fc7e4d",
					"pause()": "8456cb59",
					"paused()": "5c975abb",
					"profiles(address)": "bbe15627",
					"referrals(address,uint256)": "e697b5d8",
					"renounceRole(bytes32,address)": "36568abe",
					"revokeRole(bytes32,address)": "d547741f",
					"scores(address)": "76dd110f",
					"setChamaCore(address)": "7300f624",
					"subtractScore(address,uint256,string)": "f5c63a65",
					"supportsInterface(bytes4)": "01ffc9a7",
					"unlockAchievement(address,string)": "16064572",
					"unpause()": "3f4ba83a",
					"updateAchievementPoints(string,uint256)": "c4641dd7",
					"updateProfile(string)": "009299e3",
					"validAchievements(string)": "258219c2"
				}
			},
			"storageLayout": {
				"storage": [
					{
						"astId": 498,
						"contract": "ChamaGamification.sol:ChamaGamification",
						"label": "_status",
						"offset": 0,
						"slot": "0",
						"type": "t_uint256"
					},
					{
						"astId": 397,
						"contract": "ChamaGamification.sol:ChamaGamification",
						"label": "_paused",
						"offset": 0,
						"slot": "1",
						"type": "t_bool"
					},
					{
						"astId": 27,
						"contract": "ChamaGamification.sol:ChamaGamification",
						"label": "_roles",
						"offset": 0,
						"slot": "2",
						"type": "t_mapping(t_bytes32,t_struct(RoleData)22_storage)"
					},
					{
						"astId": 664,
						"contract": "ChamaGamification.sol:ChamaGamification",
						"label": "scores",
						"offset": 0,
						"slot": "3",
						"type": "t_mapping(t_address,t_uint256)"
					},
					{
						"astId": 670,
						"contract": "ChamaGamification.sol:ChamaGamification",
						"label": "achievements",
						"offset": 0,
						"slot": "4",
						"type": "t_mapping(t_address,t_array(t_struct(Achievement)660_storage)dyn_storage)"
					},
					{
						"astId": 674,
						"contract": "ChamaGamification.sol:ChamaGamification",
						"label": "invitations",
						"offset": 0,
						"slot": "5",
						"type": "t_mapping(t_address,t_bytes32)"
					},
					{
						"astId": 678,
						"contract": "ChamaGamification.sol:ChamaGamification",
						"label": "inviteHashToAddress",
						"offset": 0,
						"slot": "6",
						"type": "t_mapping(t_bytes32,t_address)"
					},
					{
						"astId": 683,
						"contract": "ChamaGamification.sol:ChamaGamification",
						"label": "profiles",
						"offset": 0,
						"slot": "7",
						"type": "t_mapping(t_address,t_struct(Profile)651_storage)"
					},
					{
						"astId": 687,
						"contract": "ChamaGamification.sol:ChamaGamification",
						"label": "inviteCount",
						"offset": 0,
						"slot": "8",
						"type": "t_mapping(t_address,t_uint256)"
					},
					{
						"astId": 692,
						"contract": "ChamaGamification.sol:ChamaGamification",
						"label": "referrals",
						"offset": 0,
						"slot": "9",
						"type": "t_mapping(t_address,t_array(t_address)dyn_storage)"
					},
					{
						"astId": 696,
						"contract": "ChamaGamification.sol:ChamaGamification",
						"label": "achievementPoints",
						"offset": 0,
						"slot": "10",
						"type": "t_mapping(t_string_memory_ptr,t_uint256)"
					},
					{
						"astId": 700,
						"contract": "ChamaGamification.sol:ChamaGamification",
						"label": "validAchievements",
						"offset": 0,
						"slot": "11",
						"type": "t_mapping(t_string_memory_ptr,t_bool)"
					}
				],
				"types": {
					"t_address": {
						"encoding": "inplace",
						"label": "address",
						"numberOfBytes": "20"
					},
					"t_array(t_address)dyn_storage": {
						"base": "t_address",
						"encoding": "dynamic_array",
						"label": "address[]",
						"numberOfBytes": "32"
					},
					"t_array(t_struct(Achievement)660_storage)dyn_storage": {
						"base": "t_struct(Achievement)660_storage",
						"encoding": "dynamic_array",
						"label": "struct ChamaGamification.Achievement[]",
						"numberOfBytes": "32"
					},
					"t_bool": {
						"encoding": "inplace",
						"label": "bool",
						"numberOfBytes": "1"
					},
					"t_bytes32": {
						"encoding": "inplace",
						"label": "bytes32",
						"numberOfBytes": "32"
					},
					"t_mapping(t_address,t_array(t_address)dyn_storage)": {
						"encoding": "mapping",
						"key": "t_address",
						"label": "mapping(address => address[])",
						"numberOfBytes": "32",
						"value": "t_array(t_address)dyn_storage"
					},
					"t_mapping(t_address,t_array(t_struct(Achievement)660_storage)dyn_storage)": {
						"encoding": "mapping",
						"key": "t_address",
						"label": "mapping(address => struct ChamaGamification.Achievement[])",
						"numberOfBytes": "32",
						"value": "t_array(t_struct(Achievement)660_storage)dyn_storage"
					},
					"t_mapping(t_address,t_bool)": {
						"encoding": "mapping",
						"key": "t_address",
						"label": "mapping(address => bool)",
						"numberOfBytes": "32",
						"value": "t_bool"
					},
					"t_mapping(t_address,t_bytes32)": {
						"encoding": "mapping",
						"key": "t_address",
						"label": "mapping(address => bytes32)",
						"numberOfBytes": "32",
						"value": "t_bytes32"
					},
					"t_mapping(t_address,t_struct(Profile)651_storage)": {
						"encoding": "mapping",
						"key": "t_address",
						"label": "mapping(address => struct ChamaGamification.Profile)",
						"numberOfBytes": "32",
						"value": "t_struct(Profile)651_storage"
					},
					"t_mapping(t_address,t_uint256)": {
						"encoding": "mapping",
						"key": "t_address",
						"label": "mapping(address => uint256)",
						"numberOfBytes": "32",
						"value": "t_uint256"
					},
					"t_mapping(t_bytes32,t_address)": {
						"encoding": "mapping",
						"key": "t_bytes32",
						"label": "mapping(bytes32 => address)",
						"numberOfBytes": "32",
						"value": "t_address"
					},
					"t_mapping(t_bytes32,t_struct(RoleData)22_storage)": {
						"encoding": "mapping",
						"key": "t_bytes32",
						"label": "mapping(bytes32 => struct AccessControl.RoleData)",
						"numberOfBytes": "32",
						"value": "t_struct(RoleData)22_storage"
					},
					"t_mapping(t_string_memory_ptr,t_bool)": {
						"encoding": "mapping",
						"key": "t_string_memory_ptr",
						"label": "mapping(string => bool)",
						"numberOfBytes": "32",
						"value": "t_bool"
					},
					"t_mapping(t_string_memory_ptr,t_uint256)": {
						"encoding": "mapping",
						"key": "t_string_memory_ptr",
						"label": "mapping(string => uint256)",
						"numberOfBytes": "32",
						"value": "t_uint256"
					},
					"t_string_memory_ptr": {
						"encoding": "bytes",
						"label": "string",
						"numberOfBytes": "32"
					},
					"t_string_storage": {
						"encoding": "bytes",
						"label": "string",
						"numberOfBytes": "32"
					},
					"t_struct(Achievement)660_storage": {
						"encoding": "inplace",
						"label": "struct ChamaGamification.Achievement",
						"members": [
							{
								"astId": 653,
								"contract": "ChamaGamification.sol:ChamaGamification",
								"label": "name",
								"offset": 0,
								"slot": "0",
								"type": "t_string_storage"
							},
							{
								"astId": 655,
								"contract": "ChamaGamification.sol:ChamaGamification",
								"label": "description",
								"offset": 0,
								"slot": "1",
								"type": "t_string_storage"
							},
							{
								"astId": 657,
								"contract": "ChamaGamification.sol:ChamaGamification",
								"label": "points",
								"offset": 0,
								"slot": "2",
								"type": "t_uint256"
							},
							{
								"astId": 659,
								"contract": "ChamaGamification.sol:ChamaGamification",
								"label": "unlockedAt",
								"offset": 0,
								"slot": "3",
								"type": "t_uint256"
							}
						],
						"numberOfBytes": "128"
					},
					"t_struct(Profile)651_storage": {
						"encoding": "inplace",
						"label": "struct ChamaGamification.Profile",
						"members": [
							{
								"astId": 642,
								"contract": "ChamaGamification.sol:ChamaGamification",
								"label": "userAddress",
								"offset": 0,
								"slot": "0",
								"type": "t_address"
							},
							{
								"astId": 644,
								"contract": "ChamaGamification.sol:ChamaGamification",
								"label": "username",
								"offset": 0,
								"slot": "1",
								"type": "t_string_storage"
							},
							{
								"astId": 646,
								"contract": "ChamaGamification.sol:ChamaGamification",
								"label": "emailHash",
								"offset": 0,
								"slot": "2",
								"type": "t_bytes32"
							},
							{
								"astId": 648,
								"contract": "ChamaGamification.sol:ChamaGamification",
								"label": "createdAt",
								"offset": 0,
								"slot": "3",
								"type": "t_uint256"
							},
							{
								"astId": 650,
								"contract": "ChamaGamification.sol:ChamaGamification",
								"label": "isActive",
								"offset": 0,
								"slot": "4",
								"type": "t_bool"
							}
						],
						"numberOfBytes": "160"
					},
					"t_struct(RoleData)22_storage": {
						"encoding": "inplace",
						"label": "struct AccessControl.RoleData",
						"members": [
							{
								"astId": 19,
								"contract": "ChamaGamification.sol:ChamaGamification",
								"label": "hasRole",
								"offset": 0,
								"slot": "0",
								"type": "t_mapping(t_address,t_bool)"
							},
							{
								"astId": 21,
								"contract": "ChamaGamification.sol:ChamaGamification",
								"label": "adminRole",
								"offset": 0,
								"slot": "1",
								"type": "t_bytes32"
							}
						],
						"numberOfBytes": "64"
					},
					"t_uint256": {
						"encoding": "inplace",
						"label": "uint256",
						"numberOfBytes": "32"
					}
				}
			},
			"userdoc": {
				"kind": "user",
				"methods": {},
				"notice": "This contract manages user engagement features for the chama system",
				"version": 1
			}
		}
	}
}