{
	"P2PTransfer.sol": {
		"P2PTransfer": {
			"abi": [
				{
					"inputs": [],
					"stateMutability": "nonpayable",
					"type": "constructor"
				},
				{
					"inputs": [],
					"name": "AccessControlBadConfirmation",
					"type": "error"
				},
				{
					"inputs": [
						{
							"internalType": "address",
							"name": "account",
							"type": "address"
						},
						{
							"internalType": "bytes32",
							"name": "neededRole",
							"type": "bytes32"
						}
					],
					"name": "AccessControlUnauthorizedAccount",
					"type": "error"
				},
				{
					"inputs": [],
					"name": "AlreadyClaimed",
					"type": "error"
				},
				{
					"inputs": [],
					"name": "ExceedsMaxAmount",
					"type": "error"
				},
				{
					"inputs": [],
					"name": "InsufficientAmount",
					"type": "error"
				},
				{
					"inputs": [],
					"name": "InvalidRecipient",
					"type": "error"
				},
				{
					"inputs": [],
					"name": "InvalidRecipientCount",
					"type": "error"
				},
				{
					"inputs": [],
					"name": "NotRecipient",
					"type": "error"
				},
				{
					"inputs": [],
					"name": "RedEnvelopeAlreadyExpired",
					"type": "error"
				},
				{
					"inputs": [],
					"name": "RedEnvelopeNotFound",
					"type": "error"
				},
				{
					"inputs": [],
					"name": "TransferFailed",
					"type": "error"
				},
				{
					"anonymous": false,
					"inputs": [
						{
							"indexed": true,
							"internalType": "address",
							"name": "sender",
							"type": "address"
						},
						{
							"indexed": true,
							"internalType": "address",
							"name": "receiver",
							"type": "address"
						},
						{
							"indexed": false,
							"internalType": "uint256",
							"name": "amount",
							"type": "uint256"
						}
					],
					"name": "P2PSent",
					"type": "event"
				},
				{
					"anonymous": false,
					"inputs": [
						{
							"indexed": false,
							"internalType": "address",
							"name": "account",
							"type": "address"
						}
					],
					"name": "Paused",
					"type": "event"
				},
				{
					"anonymous": false,
					"inputs": [
						{
							"indexed": true,
							"internalType": "uint256",
							"name": "envelopeId",
							"type": "uint256"
						},
						{
							"indexed": true,
							"internalType": "address",
							"name": "recipient",
							"type": "address"
						},
						{
							"indexed": false,
							"internalType": "uint256",
							"name": "amount",
							"type": "uint256"
						}
					],
					"name": "RedEnvelopeClaimed",
					"type": "event"
				},
				{
					"anonymous": false,
					"inputs": [
						{
							"indexed": true,
							"internalType": "uint256",
							"name": "envelopeId",
							"type": "uint256"
						}
					],
					"name": "RedEnvelopeExpired",
					"type": "event"
				},
				{
					"anonymous": false,
					"inputs": [
						{
							"indexed": true,
							"internalType": "uint256",
							"name": "envelopeId",
							"type": "uint256"
						},
						{
							"indexed": true,
							"internalType": "address",
							"name": "sender",
							"type": "address"
						},
						{
							"indexed": false,
							"internalType": "uint256",
							"name": "totalAmount",
							"type": "uint256"
						},
						{
							"indexed": false,
							"internalType": "uint256",
							"name": "recipientCount",
							"type": "uint256"
						}
					],
					"name": "RedEnvelopeSent",
					"type": "event"
				},
				{
					"anonymous": false,
					"inputs": [
						{
							"indexed": true,
							"internalType": "bytes32",
							"name": "role",
							"type": "bytes32"
						},
						{
							"indexed": true,
							"internalType": "bytes32",
							"name": "previousAdminRole",
							"type": "bytes32"
						},
						{
							"indexed": true,
							"internalType": "bytes32",
							"name": "newAdminRole",
							"type": "bytes32"
						}
					],
					"name": "RoleAdminChanged",
					"type": "event"
				},
				{
					"anonymous": false,
					"inputs": [
						{
							"indexed": true,
							"internalType": "bytes32",
							"name": "role",
							"type": "bytes32"
						},
						{
							"indexed": true,
							"internalType": "address",
							"name": "account",
							"type": "address"
						},
						{
							"indexed": true,
							"internalType": "address",
							"name": "sender",
							"type": "address"
						}
					],
					"name": "RoleGranted",
					"type": "event"
				},
				{
					"anonymous": false,
					"inputs": [
						{
							"indexed": true,
							"internalType": "bytes32",
							"name": "role",
							"type": "bytes32"
						},
						{
							"indexed": true,
							"internalType": "address",
							"name": "account",
							"type": "address"
						},
						{
							"indexed": true,
							"internalType": "address",
							"name": "sender",
							"type": "address"
						}
					],
					"name": "RoleRevoked",
					"type": "event"
				},
				{
					"anonymous": false,
					"inputs": [
						{
							"indexed": false,
							"internalType": "address",
							"name": "account",
							"type": "address"
						}
					],
					"name": "Unpaused",
					"type": "event"
				},
				{
					"inputs": [],
					"name": "ADMIN_ROLE",
					"outputs": [
						{
							"internalType": "bytes32",
							"name": "",
							"type": "bytes32"
						}
					],
					"stateMutability": "view",
					"type": "function"
				},
				{
					"inputs": [],
					"name": "DEFAULT_ADMIN_ROLE",
					"outputs": [
						{
							"internalType": "bytes32",
							"name": "",
							"type": "bytes32"
						}
					],
					"stateMutability": "view",
					"type": "function"
				},
				{
					"inputs": [],
					"name": "GAMIFICATION_ROLE",
					"outputs": [
						{
							"internalType": "bytes32",
							"name": "",
							"type": "bytes32"
						}
					],
					"stateMutability": "view",
					"type": "function"
				},
				{
					"inputs": [],
					"name": "MAX_RECIPIENTS",
					"outputs": [
						{
							"internalType": "uint256",
							"name": "",
							"type": "uint256"
						}
					],
					"stateMutability": "view",
					"type": "function"
				},
				{
					"inputs": [],
					"name": "MAX_RED_ENVELOPE_AMOUNT",
					"outputs": [
						{
							"internalType": "uint256",
							"name": "",
							"type": "uint256"
						}
					],
					"stateMutability": "view",
					"type": "function"
				},
				{
					"inputs": [],
					"name": "MIN_TRANSFER_AMOUNT",
					"outputs": [
						{
							"internalType": "uint256",
							"name": "",
							"type": "uint256"
						}
					],
					"stateMutability": "view",
					"type": "function"
				},
				{
					"inputs": [
						{
							"internalType": "uint256",
							"name": "_envelopeId",
							"type": "uint256"
						}
					],
					"name": "claimRedEnvelope",
					"outputs": [],
					"stateMutability": "nonpayable",
					"type": "function"
				},
				{
					"inputs": [],
					"name": "emergencyWithdraw",
					"outputs": [],
					"stateMutability": "nonpayable",
					"type": "function"
				},
				{
					"inputs": [
						{
							"internalType": "uint256",
							"name": "_envelopeId",
							"type": "uint256"
						}
					],
					"name": "expireRedEnvelope",
					"outputs": [],
					"stateMutability": "nonpayable",
					"type": "function"
				},
				{
					"inputs": [
						{
							"internalType": "uint256",
							"name": "_envelopeId",
							"type": "uint256"
						}
					],
					"name": "getRedEnvelopeDetails",
					"outputs": [
						{
							"internalType": "address",
							"name": "sender",
							"type": "address"
						},
						{
							"internalType": "address[]",
							"name": "recipients",
							"type": "address[]"
						},
						{
							"internalType": "uint256",
							"name": "totalAmount",
							"type": "uint256"
						},
						{
							"internalType": "uint256[]",
							"name": "amounts",
							"type": "uint256[]"
						},
						{
							"internalType": "bool",
							"name": "isRandom",
							"type": "bool"
						},
						{
							"internalType": "uint256",
							"name": "claimedCount",
							"type": "uint256"
						},
						{
							"internalType": "uint256",
							"name": "createdAt",
							"type": "uint256"
						},
						{
							"internalType": "string",
							"name": "message",
							"type": "string"
						},
						{
							"internalType": "bool",
							"name": "isActive",
							"type": "bool"
						}
					],
					"stateMutability": "view",
					"type": "function"
				},
				{
					"inputs": [
						{
							"internalType": "bytes32",
							"name": "role",
							"type": "bytes32"
						}
					],
					"name": "getRoleAdmin",
					"outputs": [
						{
							"internalType": "bytes32",
							"name": "",
							"type": "bytes32"
						}
					],
					"stateMutability": "view",
					"type": "function"
				},
				{
					"inputs": [
						{
							"internalType": "uint256",
							"name": "_transactionId",
							"type": "uint256"
						}
					],
					"name": "getTransactionDetails",
					"outputs": [
						{
							"components": [
								{
									"internalType": "address",
									"name": "sender",
									"type": "address"
								},
								{
									"internalType": "address",
									"name": "receiver",
									"type": "address"
								},
								{
									"internalType": "uint256",
									"name": "amount",
									"type": "uint256"
								},
								{
									"internalType": "uint256",
									"name": "timestamp",
									"type": "uint256"
								},
								{
									"internalType": "string",
									"name": "transactionType",
									"type": "string"
								}
							],
							"internalType": "struct P2PTransfer.Transaction",
							"name": "",
							"type": "tuple"
						}
					],
					"stateMutability": "view",
					"type": "function"
				},
				{
					"inputs": [
						{
							"internalType": "address",
							"name": "_user",
							"type": "address"
						}
					],
					"name": "getUserP2PCount",
					"outputs": [
						{
							"internalType": "uint256",
							"name": "",
							"type": "uint256"
						}
					],
					"stateMutability": "view",
					"type": "function"
				},
				{
					"inputs": [
						{
							"internalType": "address",
							"name": "_user",
							"type": "address"
						}
					],
					"name": "getUserRedEnvelopeCount",
					"outputs": [
						{
							"internalType": "uint256",
							"name": "",
							"type": "uint256"
						}
					],
					"stateMutability": "view",
					"type": "function"
				},
				{
					"inputs": [
						{
							"internalType": "address",
							"name": "_user",
							"type": "address"
						}
					],
					"name": "getUserRedEnvelopes",
					"outputs": [
						{
							"internalType": "uint256[]",
							"name": "",
							"type": "uint256[]"
						}
					],
					"stateMutability": "view",
					"type": "function"
				},
				{
					"inputs": [
						{
							"internalType": "address",
							"name": "_user",
							"type": "address"
						}
					],
					"name": "getUserTransactionHistory",
					"outputs": [
						{
							"internalType": "uint256[]",
							"name": "",
							"type": "uint256[]"
						}
					],
					"stateMutability": "view",
					"type": "function"
				},
				{
					"inputs": [
						{
							"internalType": "bytes32",
							"name": "role",
							"type": "bytes32"
						},
						{
							"internalType": "address",
							"name": "account",
							"type": "address"
						}
					],
					"name": "grantRole",
					"outputs": [],
					"stateMutability": "nonpayable",
					"type": "function"
				},
				{
					"inputs": [
						{
							"internalType": "uint256",
							"name": "_envelopeId",
							"type": "uint256"
						},
						{
							"internalType": "address",
							"name": "_user",
							"type": "address"
						}
					],
					"name": "hasClaimedRedEnvelope",
					"outputs": [
						{
							"internalType": "bool",
							"name": "",
							"type": "bool"
						}
					],
					"stateMutability": "view",
					"type": "function"
				},
				{
					"inputs": [
						{
							"internalType": "bytes32",
							"name": "role",
							"type": "bytes32"
						},
						{
							"internalType": "address",
							"name": "account",
							"type": "address"
						}
					],
					"name": "hasRole",
					"outputs": [
						{
							"internalType": "bool",
							"name": "",
							"type": "bool"
						}
					],
					"stateMutability": "view",
					"type": "function"
				},
				{
					"inputs": [
						{
							"internalType": "address",
							"name": "",
							"type": "address"
						}
					],
					"name": "p2pTransferCount",
					"outputs": [
						{
							"internalType": "uint256",
							"name": "",
							"type": "uint256"
						}
					],
					"stateMutability": "view",
					"type": "function"
				},
				{
					"inputs": [],
					"name": "pause",
					"outputs": [],
					"stateMutability": "nonpayable",
					"type": "function"
				},
				{
					"inputs": [],
					"name": "paused",
					"outputs": [
						{
							"internalType": "bool",
							"name": "",
							"type": "bool"
						}
					],
					"stateMutability": "view",
					"type": "function"
				},
				{
					"inputs": [],
					"name": "redEnvelopeCount",
					"outputs": [
						{
							"internalType": "uint256",
							"name": "",
							"type": "uint256"
						}
					],
					"stateMutability": "view",
					"type": "function"
				},
				{
					"inputs": [
						{
							"internalType": "address",
							"name": "",
							"type": "address"
						}
					],
					"name": "redEnvelopeSentCount",
					"outputs": [
						{
							"internalType": "uint256",
							"name": "",
							"type": "uint256"
						}
					],
					"stateMutability": "view",
					"type": "function"
				},
				{
					"inputs": [
						{
							"internalType": "uint256",
							"name": "",
							"type": "uint256"
						}
					],
					"name": "redEnvelopes",
					"outputs": [
						{
							"internalType": "address",
							"name": "sender",
							"type": "address"
						},
						{
							"internalType": "uint256",
							"name": "totalAmount",
							"type": "uint256"
						},
						{
							"internalType": "bool",
							"name": "isRandom",
							"type": "bool"
						},
						{
							"internalType": "uint256",
							"name": "claimedCount",
							"type": "uint256"
						},
						{
							"internalType": "uint256",
							"name": "createdAt",
							"type": "uint256"
						},
						{
							"internalType": "string",
							"name": "message",
							"type": "string"
						},
						{
							"internalType": "bool",
							"name": "isActive",
							"type": "bool"
						}
					],
					"stateMutability": "view",
					"type": "function"
				},
				{
					"inputs": [
						{
							"internalType": "bytes32",
							"name": "role",
							"type": "bytes32"
						},
						{
							"internalType": "address",
							"name": "callerConfirmation",
							"type": "address"
						}
					],
					"name": "renounceRole",
					"outputs": [],
					"stateMutability": "nonpayable",
					"type": "function"
				},
				{
					"inputs": [
						{
							"internalType": "bytes32",
							"name": "role",
							"type": "bytes32"
						},
						{
							"internalType": "address",
							"name": "account",
							"type": "address"
						}
					],
					"name": "revokeRole",
					"outputs": [],
					"stateMutability": "nonpayable",
					"type": "function"
				},
				{
					"inputs": [
						{
							"internalType": "address",
							"name": "_receiver",
							"type": "address"
						}
					],
					"name": "sendP2P",
					"outputs": [],
					"stateMutability": "payable",
					"type": "function"
				},
				{
					"inputs": [
						{
							"internalType": "address[]",
							"name": "_recipients",
							"type": "address[]"
						},
						{
							"internalType": "uint256",
							"name": "_totalAmount",
							"type": "uint256"
						},
						{
							"internalType": "bool",
							"name": "_isRandom",
							"type": "bool"
						},
						{
							"internalType": "string",
							"name": "_message",
							"type": "string"
						}
					],
					"name": "sendRedEnvelope",
					"outputs": [],
					"stateMutability": "payable",
					"type": "function"
				},
				{
					"inputs": [
						{
							"internalType": "address",
							"name": "_gamificationContract",
							"type": "address"
						}
					],
					"name": "setGamificationContract",
					"outputs": [],
					"stateMutability": "nonpayable",
					"type": "function"
				},
				{
					"inputs": [
						{
							"internalType": "uint256",
							"name": "_maxAmount",
							"type": "uint256"
						}
					],
					"name": "setMaxRedEnvelopeAmount",
					"outputs": [],
					"stateMutability": "nonpayable",
					"type": "function"
				},
				{
					"inputs": [
						{
							"internalType": "bytes4",
							"name": "interfaceId",
							"type": "bytes4"
						}
					],
					"name": "supportsInterface",
					"outputs": [
						{
							"internalType": "bool",
							"name": "",
							"type": "bool"
						}
					],
					"stateMutability": "view",
					"type": "function"
				},
				{
					"inputs": [],
					"name": "totalTransactions",
					"outputs": [
						{
							"internalType": "uint256",
							"name": "",
							"type": "uint256"
						}
					],
					"stateMutability": "view",
					"type": "function"
				},
				{
					"inputs": [
						{
							"internalType": "uint256",
							"name": "",
							"type": "uint256"
						}
					],
					"name": "transactions",
					"outputs": [
						{
							"internalType": "address",
							"name": "sender",
							"type": "address"
						},
						{
							"internalType": "address",
							"name": "receiver",
							"type": "address"
						},
						{
							"internalType": "uint256",
							"name": "amount",
							"type": "uint256"
						},
						{
							"internalType": "uint256",
							"name": "timestamp",
							"type": "uint256"
						},
						{
							"internalType": "string",
							"name": "transactionType",
							"type": "string"
						}
					],
					"stateMutability": "view",
					"type": "function"
				},
				{
					"inputs": [],
					"name": "unpause",
					"outputs": [],
					"stateMutability": "nonpayable",
					"type": "function"
				},
				{
					"inputs": [
						{
							"internalType": "address",
							"name": "",
							"type": "address"
						},
						{
							"internalType": "uint256",
							"name": "",
							"type": "uint256"
						}
					],
					"name": "userRedEnvelopes",
					"outputs": [
						{
							"internalType": "uint256",
							"name": "",
							"type": "uint256"
						}
					],
					"stateMutability": "view",
					"type": "function"
				},
				{
					"inputs": [
						{
							"internalType": "address",
							"name": "",
							"type": "address"
						},
						{
							"internalType": "uint256",
							"name": "",
							"type": "uint256"
						}
					],
					"name": "userTransactions",
					"outputs": [
						{
							"internalType": "uint256",
							"name": "",
							"type": "uint256"
						}
					],
					"stateMutability": "view",
					"type": "function"
				}
			],
			"devdoc": {
				"details": "Handles peer-to-peer transfers and red envelope functionality",
				"errors": {
					"AccessControlBadConfirmation()": [
						{
							"details": "The caller of a function is not the expected one. NOTE: Don't confuse with {AccessControlUnauthorizedAccount}."
						}
					],
					"AccessControlUnauthorizedAccount(address,bytes32)": [
						{
							"details": "The `account` is missing a role."
						}
					]
				},
				"events": {
					"Paused(address)": {
						"details": "Emitted when the pause is triggered by `account`."
					},
					"RoleAdminChanged(bytes32,bytes32,bytes32)": {
						"details": "Emitted when `newAdminRole` is set as ``role``'s admin role, replacing `previousAdminRole` `DEFAULT_ADMIN_ROLE` is the starting admin for all roles, despite {RoleAdminChanged} not being emitted to signal this."
					},
					"RoleGranted(bytes32,address,address)": {
						"details": "Emitted when `account` is granted `role`. `sender` is the account that originated the contract call. This account bears the admin role (for the granted role). Expected in cases where the role was granted using the internal {AccessControl-_grantRole}."
					},
					"RoleRevoked(bytes32,address,address)": {
						"details": "Emitted when `account` is revoked `role`. `sender` is the account that originated the contract call:   - if using `revokeRole`, it is the admin role bearer   - if using `renounceRole`, it is the role bearer (i.e. `account`)"
					},
					"Unpaused(address)": {
						"details": "Emitted when the pause is lifted by `account`."
					}
				},
				"kind": "dev",
				"methods": {
					"claimRedEnvelope(uint256)": {
						"details": "Claim red envelope",
						"params": {
							"_envelopeId": "ID of the red envelope to claim"
						}
					},
					"expireRedEnvelope(uint256)": {
						"details": "Expire red envelope and return unclaimed funds to sender",
						"params": {
							"_envelopeId": "ID of the red envelope to expire"
						}
					},
					"getRoleAdmin(bytes32)": {
						"details": "Returns the admin role that controls `role`. See {grantRole} and {revokeRole}. To change a role's admin, use {_setRoleAdmin}."
					},
					"grantRole(bytes32,address)": {
						"details": "Grants `role` to `account`. If `account` had not been already granted `role`, emits a {RoleGranted} event. Requirements: - the caller must have ``role``'s admin role. May emit a {RoleGranted} event."
					},
					"hasRole(bytes32,address)": {
						"details": "Returns `true` if `account` has been granted `role`."
					},
					"paused()": {
						"details": "Returns true if the contract is paused, and false otherwise."
					},
					"renounceRole(bytes32,address)": {
						"details": "Revokes `role` from the calling account. Roles are often managed via {grantRole} and {revokeRole}: this function's purpose is to provide a mechanism for accounts to lose their privileges if they are compromised (such as when a trusted device is misplaced). If the calling account had been revoked `role`, emits a {RoleRevoked} event. Requirements: - the caller must be `callerConfirmation`. May emit a {RoleRevoked} event."
					},
					"revokeRole(bytes32,address)": {
						"details": "Revokes `role` from `account`. If `account` had been granted `role`, emits a {RoleRevoked} event. Requirements: - the caller must have ``role``'s admin role. May emit a {RoleRevoked} event."
					},
					"sendP2P(address)": {
						"details": "Send P2P transfer to another user",
						"params": {
							"_receiver": "Address of the receiver"
						}
					},
					"sendRedEnvelope(address[],uint256,bool,string)": {
						"details": "Send red envelope to multiple recipients",
						"params": {
							"_isRandom": "Whether to distribute randomly or equally",
							"_message": "Message for the red envelope",
							"_recipients": "Array of recipient addresses",
							"_totalAmount": "Total amount to distribute"
						}
					},
					"supportsInterface(bytes4)": {
						"details": "Returns true if this contract implements the interface defined by `interfaceId`. See the corresponding https://eips.ethereum.org/EIPS/eip-165#how-interfaces-are-identified[ERC section] to learn more about how these ids are created. This function call must use less than 30 000 gas."
					}
				},
				"title": "P2PTransfer",
				"version": 1
			},
			"evm": {
				"assembly": "    /* \"P2PTransfer.sol\":414:13882  contract P2PTransfer is ReentrancyGuard, Pausable, AccessControl {... */\n  mstore(0x40, 0x80)\n    /* \"P2PTransfer.sol\":2471:2588  constructor() {... */\n  callvalue\n  dup1\n  iszero\n  tag_1\n  jumpi\n  revert(0x00, 0x00)\ntag_1:\n  pop\n    /* \"@openzeppelin/contracts/security/ReentrancyGuard.sol\":1716:1717  1 */\n  0x01\n    /* \"@openzeppelin/contracts/security/ReentrancyGuard.sol\":1821:1828  _status */\n  0x00\n    /* \"@openzeppelin/contracts/security/ReentrancyGuard.sol\":1821:1843  _status = _NOT_ENTERED */\n  dup2\n  swap1\n  sstore\n  pop\n    /* \"@openzeppelin/contracts/security/Pausable.sol\":1006:1011  false */\n  0x00\n    /* \"@openzeppelin/contracts/security/Pausable.sol\":996:1003  _paused */\n  0x01\n  0x00\n    /* \"@openzeppelin/contracts/security/Pausable.sol\":996:1011  _paused = false */\n  0x0100\n  exp\n  dup2\n  sload\n  dup2\n  0xff\n  mul\n  not\n  and\n  swap1\n  dup4\n  iszero\n  iszero\n  mul\n  or\n  swap1\n  sstore\n  pop\n    /* \"P2PTransfer.sol\":2495:2537  _grantRole(DEFAULT_ADMIN_ROLE, msg.sender) */\n  tag_8\n    /* \"@openzeppelin/contracts/access/AccessControl.sol\":2241:2245  0x00 */\n  0x00\n    /* \"P2PTransfer.sol\":2506:2524  DEFAULT_ADMIN_ROLE */\n  0x00\n  shl\n    /* \"P2PTransfer.sol\":2526:2536  msg.sender */\n  caller\n    /* \"P2PTransfer.sol\":2495:2505  _grantRole */\n  shl(0x20, tag_9)\n    /* \"P2PTransfer.sol\":2495:2537  _grantRole(DEFAULT_ADMIN_ROLE, msg.sender) */\n  0x20\n  shr\n  jump\t// in\ntag_8:\n  pop\n    /* \"P2PTransfer.sol\":2547:2581  _grantRole(ADMIN_ROLE, msg.sender) */\n  tag_10\n    /* \"P2PTransfer.sol\":522:545  keccak256(\"ADMIN_ROLE\") */\n  0xa49807205ce4d355092ef5a8a18f56e8913cf4a201fbe287825b095693c21775\n    /* \"P2PTransfer.sol\":2570:2580  msg.sender */\n  caller\n    /* \"P2PTransfer.sol\":2547:2557  _grantRole */\n  shl(0x20, tag_9)\n    /* \"P2PTransfer.sol\":2547:2581  _grantRole(ADMIN_ROLE, msg.sender) */\n  0x20\n  shr\n  jump\t// in\ntag_10:\n  pop\n    /* \"P2PTransfer.sol\":414:13882  contract P2PTransfer is ReentrancyGuard, Pausable, AccessControl {... */\n  jump(tag_11)\n    /* \"@openzeppelin/contracts/access/AccessControl.sol\":6155:6471  function _grantRole(bytes32 role, address account) internal virtual returns (bool) {... */\ntag_9:\n    /* \"@openzeppelin/contracts/access/AccessControl.sol\":6232:6236  bool */\n  0x00\n    /* \"@openzeppelin/contracts/access/AccessControl.sol\":6253:6275  hasRole(role, account) */\n  tag_13\n    /* \"@openzeppelin/contracts/access/AccessControl.sol\":6261:6265  role */\n  dup4\n    /* \"@openzeppelin/contracts/access/AccessControl.sol\":6267:6274  account */\n  dup4\n    /* \"@openzeppelin/contracts/access/AccessControl.sol\":6253:6260  hasRole */\n  shl(0x20, tag_14)\n    /* \"@openzeppelin/contracts/access/AccessControl.sol\":6253:6275  hasRole(role, account) */\n  0x20\n  shr\n  jump\t// in\ntag_13:\n    /* \"@openzeppelin/contracts/access/AccessControl.sol\":6248:6465  if (!hasRole(role, account)) {... */\n  tag_15\n  jumpi\n    /* \"@openzeppelin/contracts/access/AccessControl.sol\":6323:6327  true */\n  0x01\n    /* \"@openzeppelin/contracts/access/AccessControl.sol\":6291:6297  _roles */\n  0x02\n    /* \"@openzeppelin/contracts/access/AccessControl.sol\":6291:6303  _roles[role] */\n  0x00\n    /* \"@openzeppelin/contracts/access/AccessControl.sol\":6298:6302  role */\n  dup6\n    /* \"@openzeppelin/contracts/access/AccessControl.sol\":6291:6303  _roles[role] */\n  dup2\n  mstore\n  0x20\n  add\n  swap1\n  dup2\n  mstore\n  0x20\n  add\n  0x00\n  keccak256\n    /* \"@openzeppelin/contracts/access/AccessControl.sol\":6291:6311  _roles[role].hasRole */\n  0x00\n  add\n    /* \"@openzeppelin/contracts/access/AccessControl.sol\":6291:6320  _roles[role].hasRole[account] */\n  0x00\n    /* \"@openzeppelin/contracts/access/AccessControl.sol\":6312:6319  account */\n  dup5\n    /* \"@openzeppelin/contracts/access/AccessControl.sol\":6291:6320  _roles[role].hasRole[account] */\n  0xffffffffffffffffffffffffffffffffffffffff\n  and\n  0xffffffffffffffffffffffffffffffffffffffff\n  and\n  dup2\n  mstore\n  0x20\n  add\n  swap1\n  dup2\n  mstore\n  0x20\n  add\n  0x00\n  keccak256\n  0x00\n    /* \"@openzeppelin/contracts/access/AccessControl.sol\":6291:6327  _roles[role].hasRole[account] = true */\n  0x0100\n  exp\n  dup2\n  sload\n  dup2\n  0xff\n  mul\n  not\n  and\n  swap1\n  dup4\n  iszero\n  iszero\n  mul\n  or\n  swap1\n  sstore\n  pop\n    /* \"@openzeppelin/contracts/access/AccessControl.sol\":6373:6385  _msgSender() */\n  tag_16\n    /* \"@openzeppelin/contracts/access/AccessControl.sol\":6373:6383  _msgSender */\n  shl(0x20, tag_17)\n    /* \"@openzeppelin/contracts/access/AccessControl.sol\":6373:6385  _msgSender() */\n  0x20\n  shr\n  jump\t// in\ntag_16:\n    /* \"@openzeppelin/contracts/access/AccessControl.sol\":6346:6386  RoleGranted(role, account, _msgSender()) */\n  0xffffffffffffffffffffffffffffffffffffffff\n  and\n    /* \"@openzeppelin/contracts/access/AccessControl.sol\":6364:6371  account */\n  dup3\n    /* \"@openzeppelin/contracts/access/AccessControl.sol\":6346:6386  RoleGranted(role, account, _msgSender()) */\n  0xffffffffffffffffffffffffffffffffffffffff\n  and\n    /* \"@openzeppelin/contracts/access/AccessControl.sol\":6358:6362  role */\n  dup5\n    /* \"@openzeppelin/contracts/access/AccessControl.sol\":6346:6386  RoleGranted(role, account, _msgSender()) */\n  0x2f8788117e7eff1d82e926ec794901d17c78024a50270940304540a733656f0d\n  mload(0x40)\n  mload(0x40)\n  dup1\n  swap2\n  sub\n  swap1\n  log4\n    /* \"@openzeppelin/contracts/access/AccessControl.sol\":6407:6411  true */\n  0x01\n    /* \"@openzeppelin/contracts/access/AccessControl.sol\":6400:6411  return true */\n  swap1\n  pop\n  jump(tag_12)\n    /* \"@openzeppelin/contracts/access/AccessControl.sol\":6248:6465  if (!hasRole(role, account)) {... */\ntag_15:\n    /* \"@openzeppelin/contracts/access/AccessControl.sol\":6449:6454  false */\n  0x00\n    /* \"@openzeppelin/contracts/access/AccessControl.sol\":6442:6454  return false */\n  swap1\n  pop\n    /* \"@openzeppelin/contracts/access/AccessControl.sol\":6155:6471  function _grantRole(bytes32 role, address account) internal virtual returns (bool) {... */\ntag_12:\n  swap3\n  swap2\n  pop\n  pop\n  jump\t// out\n    /* \"@openzeppelin/contracts/access/AccessControl.sol\":2830:2966  function hasRole(bytes32 role, address account) public view virtual returns (bool) {... */\ntag_14:\n    /* \"@openzeppelin/contracts/access/AccessControl.sol\":2907:2911  bool */\n  0x00\n    /* \"@openzeppelin/contracts/access/AccessControl.sol\":2930:2936  _roles */\n  0x02\n    /* \"@openzeppelin/contracts/access/AccessControl.sol\":2930:2942  _roles[role] */\n  0x00\n    /* \"@openzeppelin/contracts/access/AccessControl.sol\":2937:2941  role */\n  dup5\n    /* \"@openzeppelin/contracts/access/AccessControl.sol\":2930:2942  _roles[role] */\n  dup2\n  mstore\n  0x20\n  add\n  swap1\n  dup2\n  mstore\n  0x20\n  add\n  0x00\n  keccak256\n    /* \"@openzeppelin/contracts/access/AccessControl.sol\":2930:2950  _roles[role].hasRole */\n  0x00\n  add\n    /* \"@openzeppelin/contracts/access/AccessControl.sol\":2930:2959  _roles[role].hasRole[account] */\n  0x00\n    /* \"@openzeppelin/contracts/access/AccessControl.sol\":2951:2958  account */\n  dup4\n    /* \"@openzeppelin/contracts/access/AccessControl.sol\":2930:2959  _roles[role].hasRole[account] */\n  0xffffffffffffffffffffffffffffffffffffffff\n  and\n  0xffffffffffffffffffffffffffffffffffffffff\n  and\n  dup2\n  mstore\n  0x20\n  add\n  swap1\n  dup2\n  mstore\n  0x20\n  add\n  0x00\n  keccak256\n  0x00\n  swap1\n  sload\n  swap1\n  0x0100\n  exp\n  swap1\n  div\n  0xff\n  and\n    /* \"@openzeppelin/contracts/access/AccessControl.sol\":2923:2959  return _roles[role].hasRole[account] */\n  swap1\n  pop\n    /* \"@openzeppelin/contracts/access/AccessControl.sol\":2830:2966  function hasRole(bytes32 role, address account) public view virtual returns (bool) {... */\n  swap3\n  swap2\n  pop\n  pop\n  jump\t// out\n    /* \"@openzeppelin/contracts/utils/Context.sol\":656:752  function _msgSender() internal view virtual returns (address) {... */\ntag_17:\n    /* \"@openzeppelin/contracts/utils/Context.sol\":709:716  address */\n  0x00\n    /* \"@openzeppelin/contracts/utils/Context.sol\":735:745  msg.sender */\n  caller\n    /* \"@openzeppelin/contracts/utils/Context.sol\":728:745  return msg.sender */\n  swap1\n  pop\n    /* \"@openzeppelin/contracts/utils/Context.sol\":656:752  function _msgSender() internal view virtual returns (address) {... */\n  swap1\n  jump\t// out\n    /* \"P2PTransfer.sol\":414:13882  contract P2PTransfer is ReentrancyGuard, Pausable, AccessControl {... */\ntag_11:\n  dataSize(sub_0)\n  dup1\n  dataOffset(sub_0)\n  0x00\n  codecopy\n  0x00\n  return\nstop\n\nsub_0: assembly {\n        /* \"P2PTransfer.sol\":414:13882  contract P2PTransfer is ReentrancyGuard, Pausable, AccessControl {... */\n      mstore(0x40, 0x80)\n      jumpi(tag_1, lt(calldatasize, 0x04))\n      shr(0xe0, calldataload(0x00))\n      dup1\n      0x936df0d7\n      gt\n      tag_39\n      jumpi\n      dup1\n      0xc08f3954\n      gt\n      tag_40\n      jumpi\n      dup1\n      0xd7262d56\n      gt\n      tag_41\n      jumpi\n      dup1\n      0xd7262d56\n      eq\n      tag_34\n      jumpi\n      dup1\n      0xdb2e21bc\n      eq\n      tag_35\n      jumpi\n      dup1\n      0xdfb8b314\n      eq\n      tag_36\n      jumpi\n      dup1\n      0xdfeb662a\n      eq\n      tag_37\n      jumpi\n      dup1\n      0xfc8d7a4b\n      eq\n      tag_38\n      jumpi\n      jump(tag_1)\n    tag_41:\n      dup1\n      0xc08f3954\n      eq\n      tag_29\n      jumpi\n      dup1\n      0xc51309db\n      eq\n      tag_30\n      jumpi\n      dup1\n      0xcb985369\n      eq\n      tag_31\n      jumpi\n      dup1\n      0xd547741f\n      eq\n      tag_32\n      jumpi\n      dup1\n      0xd5f9f232\n      eq\n      tag_33\n      jumpi\n      jump(tag_1)\n    tag_40:\n      dup1\n      0xa6980ce2\n      gt\n      tag_42\n      jumpi\n      dup1\n      0xa6980ce2\n      eq\n      tag_24\n      jumpi\n      dup1\n      0xb30f8a13\n      eq\n      tag_25\n      jumpi\n      dup1\n      0xb44f0297\n      eq\n      tag_26\n      jumpi\n      dup1\n      0xb842ec44\n      eq\n      tag_27\n      jumpi\n      dup1\n      0xb9a60038\n      eq\n      tag_28\n      jumpi\n      jump(tag_1)\n    tag_42:\n      dup1\n      0x936df0d7\n      eq\n      tag_20\n      jumpi\n      dup1\n      0x9ace38c2\n      eq\n      tag_21\n      jumpi\n      dup1\n      0xa17eda18\n      eq\n      tag_22\n      jumpi\n      dup1\n      0xa217fddf\n      eq\n      tag_23\n      jumpi\n      jump(tag_1)\n    tag_39:\n      dup1\n      0x5c975abb\n      gt\n      tag_43\n      jumpi\n      dup1\n      0x75b238fc\n      gt\n      tag_44\n      jumpi\n      dup1\n      0x75b238fc\n      eq\n      tag_15\n      jumpi\n      dup1\n      0x783a250e\n      eq\n      tag_16\n      jumpi\n      dup1\n      0x8456cb59\n      eq\n      tag_17\n      jumpi\n      dup1\n      0x8a9620ce\n      eq\n      tag_18\n      jumpi\n      dup1\n      0x91d14854\n      eq\n      tag_19\n      jumpi\n      jump(tag_1)\n    tag_44:\n      dup1\n      0x5c975abb\n      eq\n      tag_11\n      jumpi\n      dup1\n      0x66a0a329\n      eq\n      tag_12\n      jumpi\n      dup1\n      0x68745143\n      eq\n      tag_13\n      jumpi\n      dup1\n      0x73a458bd\n      eq\n      tag_14\n      jumpi\n      jump(tag_1)\n    tag_43:\n      dup1\n      0x2f2ff15d\n      gt\n      tag_45\n      jumpi\n      dup1\n      0x2f2ff15d\n      eq\n      tag_6\n      jumpi\n      dup1\n      0x36568abe\n      eq\n      tag_7\n      jumpi\n      dup1\n      0x3c3dbbc7\n      eq\n      tag_8\n      jumpi\n      dup1\n      0x3f4ba83a\n      eq\n      tag_9\n      jumpi\n      dup1\n      0x42c1b2d0\n      eq\n      tag_10\n      jumpi\n      jump(tag_1)\n    tag_45:\n      dup1\n      0x01ffc9a7\n      eq\n      tag_2\n      jumpi\n      dup1\n      0x0fa683d3\n      eq\n      tag_3\n      jumpi\n      dup1\n      0x1bf86ea6\n      eq\n      tag_4\n      jumpi\n      dup1\n      0x248a9ca3\n      eq\n      tag_5\n      jumpi\n    tag_1:\n      revert(0x00, 0x00)\n        /* \"@openzeppelin/contracts/access/AccessControl.sol\":2541:2743  function supportsInterface(bytes4 interfaceId) public view virtual override returns (bool) {... */\n    tag_2:\n      callvalue\n      dup1\n      iszero\n      tag_46\n      jumpi\n      revert(0x00, 0x00)\n    tag_46:\n      pop\n      tag_47\n      0x04\n      dup1\n      calldatasize\n      sub\n      dup2\n      add\n      swap1\n      tag_48\n      swap2\n      swap1\n      tag_49\n      jump\t// in\n    tag_48:\n      tag_50\n      jump\t// in\n    tag_47:\n      mload(0x40)\n      tag_51\n      swap2\n      swap1\n      tag_52\n      jump\t// in\n    tag_51:\n      mload(0x40)\n      dup1\n      swap2\n      sub\n      swap1\n      return\n        /* \"P2PTransfer.sol\":12514:12696  function getTransactionDetails(uint256 _transactionId) ... */\n    tag_3:\n      callvalue\n      dup1\n      iszero\n      tag_53\n      jumpi\n      revert(0x00, 0x00)\n    tag_53:\n      pop\n      tag_54\n      0x04\n      dup1\n      calldatasize\n      sub\n      dup2\n      add\n      swap1\n      tag_55\n      swap2\n      swap1\n      tag_56\n      jump\t// in\n    tag_55:\n      tag_57\n      jump\t// in\n    tag_54:\n      mload(0x40)\n      tag_58\n      swap2\n      swap1\n      tag_59\n      jump\t// in\n    tag_58:\n      mload(0x40)\n      dup1\n      swap2\n      sub\n      swap1\n      return\n        /* \"P2PTransfer.sol\":11240:11964  function getRedEnvelopeDetails(uint256 _envelopeId) external view returns (... */\n    tag_4:\n      callvalue\n      dup1\n      iszero\n      tag_60\n      jumpi\n      revert(0x00, 0x00)\n    tag_60:\n      pop\n      tag_61\n      0x04\n      dup1\n      calldatasize\n      sub\n      dup2\n      add\n      swap1\n      tag_62\n      swap2\n      swap1\n      tag_56\n      jump\t// in\n    tag_62:\n      tag_63\n      jump\t// in\n    tag_61:\n      mload(0x40)\n      tag_64\n      swap10\n      swap9\n      swap8\n      swap7\n      swap6\n      swap5\n      swap4\n      swap3\n      swap2\n      swap1\n      tag_65\n      jump\t// in\n    tag_64:\n      mload(0x40)\n      dup1\n      swap2\n      sub\n      swap1\n      return\n        /* \"@openzeppelin/contracts/access/AccessControl.sol\":3786:3906  function getRoleAdmin(bytes32 role) public view virtual returns (bytes32) {... */\n    tag_5:\n      callvalue\n      dup1\n      iszero\n      tag_66\n      jumpi\n      revert(0x00, 0x00)\n    tag_66:\n      pop\n      tag_67\n      0x04\n      dup1\n      calldatasize\n      sub\n      dup2\n      add\n      swap1\n      tag_68\n      swap2\n      swap1\n      tag_69\n      jump\t// in\n    tag_68:\n      tag_70\n      jump\t// in\n    tag_67:\n      mload(0x40)\n      tag_71\n      swap2\n      swap1\n      tag_72\n      jump\t// in\n    tag_71:\n      mload(0x40)\n      dup1\n      swap2\n      sub\n      swap1\n      return\n        /* \"@openzeppelin/contracts/access/AccessControl.sol\":4202:4338  function grantRole(bytes32 role, address account) public virtual onlyRole(getRoleAdmin(role)) {... */\n    tag_6:\n      callvalue\n      dup1\n      iszero\n      tag_73\n      jumpi\n      revert(0x00, 0x00)\n    tag_73:\n      pop\n      tag_74\n      0x04\n      dup1\n      calldatasize\n      sub\n      dup2\n      add\n      swap1\n      tag_75\n      swap2\n      swap1\n      tag_76\n      jump\t// in\n    tag_75:\n      tag_77\n      jump\t// in\n    tag_74:\n      stop\n        /* \"@openzeppelin/contracts/access/AccessControl.sol\":5304:5549  function renounceRole(bytes32 role, address callerConfirmation) public virtual {... */\n    tag_7:\n      callvalue\n      dup1\n      iszero\n      tag_78\n      jumpi\n      revert(0x00, 0x00)\n    tag_78:\n      pop\n      tag_79\n      0x04\n      dup1\n      calldatasize\n      sub\n      dup2\n      add\n      swap1\n      tag_80\n      swap2\n      swap1\n      tag_76\n      jump\t// in\n    tag_80:\n      tag_81\n      jump\t// in\n    tag_79:\n      stop\n        /* \"P2PTransfer.sol\":1720:1778  uint256 public constant MIN_TRANSFER_AMOUNT = 0.0001 ether */\n    tag_8:\n      callvalue\n      dup1\n      iszero\n      tag_82\n      jumpi\n      revert(0x00, 0x00)\n    tag_82:\n      pop\n      tag_83\n      tag_84\n      jump\t// in\n    tag_83:\n      mload(0x40)\n      tag_85\n      swap2\n      swap1\n      tag_86\n      jump\t// in\n    tag_85:\n      mload(0x40)\n      dup1\n      swap2\n      sub\n      swap1\n      return\n        /* \"P2PTransfer.sol\":13490:13566  function unpause() external onlyRole(ADMIN_ROLE) {... */\n    tag_9:\n      callvalue\n      dup1\n      iszero\n      tag_87\n      jumpi\n      revert(0x00, 0x00)\n    tag_87:\n      pop\n      tag_88\n      tag_89\n      jump\t// in\n    tag_88:\n      stop\n        /* \"P2PTransfer.sol\":1157:1188  uint256 public redEnvelopeCount */\n    tag_10:\n      callvalue\n      dup1\n      iszero\n      tag_90\n      jumpi\n      revert(0x00, 0x00)\n    tag_90:\n      pop\n      tag_91\n      tag_92\n      jump\t// in\n    tag_91:\n      mload(0x40)\n      tag_93\n      swap2\n      swap1\n      tag_86\n      jump\t// in\n    tag_93:\n      mload(0x40)\n      dup1\n      swap2\n      sub\n      swap1\n      return\n        /* \"@openzeppelin/contracts/security/Pausable.sol\":1615:1699  function paused() public view virtual returns (bool) {... */\n    tag_11:\n      callvalue\n      dup1\n      iszero\n      tag_94\n      jumpi\n      revert(0x00, 0x00)\n    tag_94:\n      pop\n      tag_95\n      tag_96\n      jump\t// in\n    tag_95:\n      mload(0x40)\n      tag_97\n      swap2\n      swap1\n      tag_52\n      jump\t// in\n    tag_97:\n      mload(0x40)\n      dup1\n      swap2\n      sub\n      swap1\n      return\n        /* \"P2PTransfer.sol\":11970:12162  function hasClaimedRedEnvelope(uint256 _envelopeId, address _user) ... */\n    tag_12:\n      callvalue\n      dup1\n      iszero\n      tag_98\n      jumpi\n      revert(0x00, 0x00)\n    tag_98:\n      pop\n      tag_99\n      0x04\n      dup1\n      calldatasize\n      sub\n      dup2\n      add\n      swap1\n      tag_100\n      swap2\n      swap1\n      tag_101\n      jump\t// in\n    tag_100:\n      tag_102\n      jump\t// in\n    tag_99:\n      mload(0x40)\n      tag_103\n      swap2\n      swap1\n      tag_52\n      jump\t// in\n    tag_103:\n      mload(0x40)\n      dup1\n      swap2\n      sub\n      swap1\n      return\n        /* \"P2PTransfer.sol\":12827:12958  function getUserRedEnvelopeCount(address _user) external view returns (uint256) {... */\n    tag_13:\n      callvalue\n      dup1\n      iszero\n      tag_104\n      jumpi\n      revert(0x00, 0x00)\n    tag_104:\n      pop\n      tag_105\n      0x04\n      dup1\n      calldatasize\n      sub\n      dup2\n      add\n      swap1\n      tag_106\n      swap2\n      swap1\n      tag_107\n      jump\t// in\n    tag_106:\n      tag_108\n      jump\t// in\n    tag_105:\n      mload(0x40)\n      tag_109\n      swap2\n      swap1\n      tag_86\n      jump\t// in\n    tag_109:\n      mload(0x40)\n      dup1\n      swap2\n      sub\n      swap1\n      return\n        /* \"P2PTransfer.sol\":1526:1581  mapping(address => uint256) public redEnvelopeSentCount */\n    tag_14:\n      callvalue\n      dup1\n      iszero\n      tag_110\n      jumpi\n      revert(0x00, 0x00)\n    tag_110:\n      pop\n      tag_111\n      0x04\n      dup1\n      calldatasize\n      sub\n      dup2\n      add\n      swap1\n      tag_112\n      swap2\n      swap1\n      tag_107\n      jump\t// in\n    tag_112:\n      tag_113\n      jump\t// in\n    tag_111:\n      mload(0x40)\n      tag_114\n      swap2\n      swap1\n      tag_86\n      jump\t// in\n    tag_114:\n      mload(0x40)\n      dup1\n      swap2\n      sub\n      swap1\n      return\n        /* \"P2PTransfer.sol\":485:545  bytes32 public constant ADMIN_ROLE = keccak256(\"ADMIN_ROLE\") */\n    tag_15:\n      callvalue\n      dup1\n      iszero\n      tag_115\n      jumpi\n      revert(0x00, 0x00)\n    tag_115:\n      pop\n      tag_116\n      tag_117\n      jump\t// in\n    tag_116:\n      mload(0x40)\n      tag_118\n      swap2\n      swap1\n      tag_72\n      jump\t// in\n    tag_118:\n      mload(0x40)\n      dup1\n      swap2\n      sub\n      swap1\n      return\n        /* \"P2PTransfer.sol\":8221:9874  function claimRedEnvelope(uint256 _envelopeId) ... */\n    tag_16:\n      callvalue\n      dup1\n      iszero\n      tag_119\n      jumpi\n      revert(0x00, 0x00)\n    tag_119:\n      pop\n      tag_120\n      0x04\n      dup1\n      calldatasize\n      sub\n      dup2\n      add\n      swap1\n      tag_121\n      swap2\n      swap1\n      tag_56\n      jump\t// in\n    tag_121:\n      tag_122\n      jump\t// in\n    tag_120:\n      stop\n        /* \"P2PTransfer.sol\":13412:13484  function pause() external onlyRole(ADMIN_ROLE) {... */\n    tag_17:\n      callvalue\n      dup1\n      iszero\n      tag_123\n      jumpi\n      revert(0x00, 0x00)\n    tag_123:\n      pop\n      tag_124\n      tag_125\n      jump\t// in\n    tag_124:\n      stop\n        /* \"P2PTransfer.sol\":13220:13406  function setGamificationContract(address _gamificationContract) ... */\n    tag_18:\n      callvalue\n      dup1\n      iszero\n      tag_126\n      jumpi\n      revert(0x00, 0x00)\n    tag_126:\n      pop\n      tag_127\n      0x04\n      dup1\n      calldatasize\n      sub\n      dup2\n      add\n      swap1\n      tag_128\n      swap2\n      swap1\n      tag_107\n      jump\t// in\n    tag_128:\n      tag_129\n      jump\t// in\n    tag_127:\n      stop\n        /* \"@openzeppelin/contracts/access/AccessControl.sol\":2830:2966  function hasRole(bytes32 role, address account) public view virtual returns (bool) {... */\n    tag_19:\n      callvalue\n      dup1\n      iszero\n      tag_130\n      jumpi\n      revert(0x00, 0x00)\n    tag_130:\n      pop\n      tag_131\n      0x04\n      dup1\n      calldatasize\n      sub\n      dup2\n      add\n      swap1\n      tag_132\n      swap2\n      swap1\n      tag_76\n      jump\t// in\n    tag_132:\n      tag_133\n      jump\t// in\n    tag_131:\n      mload(0x40)\n      tag_134\n      swap2\n      swap1\n      tag_52\n      jump\t// in\n    tag_134:\n      mload(0x40)\n      dup1\n      swap2\n      sub\n      swap1\n      return\n        /* \"P2PTransfer.sol\":4278:6671  function sendRedEnvelope(... */\n    tag_20:\n      tag_135\n      0x04\n      dup1\n      calldatasize\n      sub\n      dup2\n      add\n      swap1\n      tag_136\n      swap2\n      swap1\n      tag_137\n      jump\t// in\n    tag_136:\n      tag_138\n      jump\t// in\n    tag_135:\n      stop\n        /* \"P2PTransfer.sol\":1294:1345  mapping(uint256 => Transaction) public transactions */\n    tag_21:\n      callvalue\n      dup1\n      iszero\n      tag_139\n      jumpi\n      revert(0x00, 0x00)\n    tag_139:\n      pop\n      tag_140\n      0x04\n      dup1\n      calldatasize\n      sub\n      dup2\n      add\n      swap1\n      tag_141\n      swap2\n      swap1\n      tag_56\n      jump\t// in\n    tag_141:\n      tag_142\n      jump\t// in\n    tag_140:\n      mload(0x40)\n      tag_143\n      swap6\n      swap5\n      swap4\n      swap3\n      swap2\n      swap1\n      tag_144\n      jump\t// in\n    tag_143:\n      mload(0x40)\n      dup1\n      swap2\n      sub\n      swap1\n      return\n        /* \"P2PTransfer.sol\":2704:3976  function sendP2P(address _receiver) ... */\n    tag_22:\n      tag_145\n      0x04\n      dup1\n      calldatasize\n      sub\n      dup2\n      add\n      swap1\n      tag_146\n      swap2\n      swap1\n      tag_107\n      jump\t// in\n    tag_146:\n      tag_147\n      jump\t// in\n    tag_145:\n      stop\n        /* \"@openzeppelin/contracts/access/AccessControl.sol\":2196:2245  bytes32 public constant DEFAULT_ADMIN_ROLE = 0x00 */\n    tag_23:\n      callvalue\n      dup1\n      iszero\n      tag_148\n      jumpi\n      revert(0x00, 0x00)\n    tag_148:\n      pop\n      tag_149\n      tag_150\n      jump\t// in\n    tag_149:\n      mload(0x40)\n      tag_151\n      swap2\n      swap1\n      tag_72\n      jump\t// in\n    tag_151:\n      mload(0x40)\n      dup1\n      swap2\n      sub\n      swap1\n      return\n        /* \"P2PTransfer.sol\":1605:1648  uint256 public constant MAX_RECIPIENTS = 10 */\n    tag_24:\n      callvalue\n      dup1\n      iszero\n      tag_152\n      jumpi\n      revert(0x00, 0x00)\n    tag_152:\n      pop\n      tag_153\n      tag_154\n      jump\t// in\n    tag_153:\n      mload(0x40)\n      tag_155\n      swap2\n      swap1\n      tag_86\n      jump\t// in\n    tag_155:\n      mload(0x40)\n      dup1\n      swap2\n      sub\n      swap1\n      return\n        /* \"P2PTransfer.sol\":12702:12821  function getUserP2PCount(address _user) external view returns (uint256) {... */\n    tag_25:\n      callvalue\n      dup1\n      iszero\n      tag_156\n      jumpi\n      revert(0x00, 0x00)\n    tag_156:\n      pop\n      tag_157\n      0x04\n      dup1\n      calldatasize\n      sub\n      dup2\n      add\n      swap1\n      tag_158\n      swap2\n      swap1\n      tag_107\n      jump\t// in\n    tag_158:\n      tag_159\n      jump\t// in\n    tag_157:\n      mload(0x40)\n      tag_160\n      swap2\n      swap1\n      tag_86\n      jump\t// in\n    tag_160:\n      mload(0x40)\n      dup1\n      swap2\n      sub\n      swap1\n      return\n        /* \"P2PTransfer.sol\":1410:1463  mapping(address => uint256[]) public userRedEnvelopes */\n    tag_26:\n      callvalue\n      dup1\n      iszero\n      tag_161\n      jumpi\n      revert(0x00, 0x00)\n    tag_161:\n      pop\n      tag_162\n      0x04\n      dup1\n      calldatasize\n      sub\n      dup2\n      add\n      swap1\n      tag_163\n      swap2\n      swap1\n      tag_164\n      jump\t// in\n    tag_163:\n      tag_165\n      jump\t// in\n    tag_162:\n      mload(0x40)\n      tag_166\n      swap2\n      swap1\n      tag_86\n      jump\t// in\n    tag_166:\n      mload(0x40)\n      dup1\n      swap2\n      sub\n      swap1\n      return\n        /* \"P2PTransfer.sol\":1351:1404  mapping(address => uint256[]) public userTransactions */\n    tag_27:\n      callvalue\n      dup1\n      iszero\n      tag_167\n      jumpi\n      revert(0x00, 0x00)\n    tag_167:\n      pop\n      tag_168\n      0x04\n      dup1\n      calldatasize\n      sub\n      dup2\n      add\n      swap1\n      tag_169\n      swap2\n      swap1\n      tag_164\n      jump\t// in\n    tag_169:\n      tag_170\n      jump\t// in\n    tag_168:\n      mload(0x40)\n      tag_171\n      swap2\n      swap1\n      tag_86\n      jump\t// in\n    tag_171:\n      mload(0x40)\n      dup1\n      swap2\n      sub\n      swap1\n      return\n        /* \"P2PTransfer.sol\":1194:1226  uint256 public totalTransactions */\n    tag_28:\n      callvalue\n      dup1\n      iszero\n      tag_172\n      jumpi\n      revert(0x00, 0x00)\n    tag_172:\n      pop\n      tag_173\n      tag_174\n      jump\t// in\n    tag_173:\n      mload(0x40)\n      tag_175\n      swap2\n      swap1\n      tag_86\n      jump\t// in\n    tag_175:\n      mload(0x40)\n      dup1\n      swap2\n      sub\n      swap1\n      return\n        /* \"P2PTransfer.sol\":551:625  bytes32 public constant GAMIFICATION_ROLE = keccak256(\"GAMIFICATION_ROLE\") */\n    tag_29:\n      callvalue\n      dup1\n      iszero\n      tag_176\n      jumpi\n      revert(0x00, 0x00)\n    tag_176:\n      pop\n      tag_177\n      tag_178\n      jump\t// in\n    tag_177:\n      mload(0x40)\n      tag_179\n      swap2\n      swap1\n      tag_72\n      jump\t// in\n    tag_179:\n      mload(0x40)\n      dup1\n      swap2\n      sub\n      swap1\n      return\n        /* \"P2PTransfer.sol\":12168:12338  function getUserTransactionHistory(address _user) ... */\n    tag_30:\n      callvalue\n      dup1\n      iszero\n      tag_180\n      jumpi\n      revert(0x00, 0x00)\n    tag_180:\n      pop\n      tag_181\n      0x04\n      dup1\n      calldatasize\n      sub\n      dup2\n      add\n      swap1\n      tag_182\n      swap2\n      swap1\n      tag_107\n      jump\t// in\n    tag_182:\n      tag_183\n      jump\t// in\n    tag_181:\n      mload(0x40)\n      tag_184\n      swap2\n      swap1\n      tag_185\n      jump\t// in\n    tag_184:\n      mload(0x40)\n      dup1\n      swap2\n      sub\n      swap1\n      return\n        /* \"P2PTransfer.sol\":12344:12508  function getUserRedEnvelopes(address _user) ... */\n    tag_31:\n      callvalue\n      dup1\n      iszero\n      tag_186\n      jumpi\n      revert(0x00, 0x00)\n    tag_186:\n      pop\n      tag_187\n      0x04\n      dup1\n      calldatasize\n      sub\n      dup2\n      add\n      swap1\n      tag_188\n      swap2\n      swap1\n      tag_107\n      jump\t// in\n    tag_188:\n      tag_189\n      jump\t// in\n    tag_187:\n      mload(0x40)\n      tag_190\n      swap2\n      swap1\n      tag_185\n      jump\t// in\n    tag_190:\n      mload(0x40)\n      dup1\n      swap2\n      sub\n      swap1\n      return\n        /* \"@openzeppelin/contracts/access/AccessControl.sol\":4618:4756  function revokeRole(bytes32 role, address account) public virtual onlyRole(getRoleAdmin(role)) {... */\n    tag_32:\n      callvalue\n      dup1\n      iszero\n      tag_191\n      jumpi\n      revert(0x00, 0x00)\n    tag_191:\n      pop\n      tag_192\n      0x04\n      dup1\n      calldatasize\n      sub\n      dup2\n      add\n      swap1\n      tag_193\n      swap2\n      swap1\n      tag_76\n      jump\t// in\n    tag_193:\n      tag_194\n      jump\t// in\n    tag_192:\n      stop\n        /* \"P2PTransfer.sol\":1237:1288  mapping(uint256 => RedEnvelope) public redEnvelopes */\n    tag_33:\n      callvalue\n      dup1\n      iszero\n      tag_195\n      jumpi\n      revert(0x00, 0x00)\n    tag_195:\n      pop\n      tag_196\n      0x04\n      dup1\n      calldatasize\n      sub\n      dup2\n      add\n      swap1\n      tag_197\n      swap2\n      swap1\n      tag_56\n      jump\t// in\n    tag_197:\n      tag_198\n      jump\t// in\n    tag_196:\n      mload(0x40)\n      tag_199\n      swap8\n      swap7\n      swap6\n      swap5\n      swap4\n      swap3\n      swap2\n      swap1\n      tag_200\n      jump\t// in\n    tag_199:\n      mload(0x40)\n      dup1\n      swap2\n      sub\n      swap1\n      return\n        /* \"P2PTransfer.sol\":12987:13214  function setMaxRedEnvelopeAmount(uint256 _maxAmount) external onlyRole(ADMIN_ROLE) {... */\n    tag_34:\n      callvalue\n      dup1\n      iszero\n      tag_201\n      jumpi\n      revert(0x00, 0x00)\n    tag_201:\n      pop\n      tag_202\n      0x04\n      dup1\n      calldatasize\n      sub\n      dup2\n      add\n      swap1\n      tag_203\n      swap2\n      swap1\n      tag_56\n      jump\t// in\n    tag_203:\n      tag_204\n      jump\t// in\n    tag_202:\n      stop\n        /* \"P2PTransfer.sol\":13635:13880  function emergencyWithdraw() external onlyRole(ADMIN_ROLE) {... */\n    tag_35:\n      callvalue\n      dup1\n      iszero\n      tag_205\n      jumpi\n      revert(0x00, 0x00)\n    tag_205:\n      pop\n      tag_206\n      tag_207\n      jump\t// in\n    tag_206:\n      stop\n        /* \"P2PTransfer.sol\":1469:1520  mapping(address => uint256) public p2pTransferCount */\n    tag_36:\n      callvalue\n      dup1\n      iszero\n      tag_208\n      jumpi\n      revert(0x00, 0x00)\n    tag_208:\n      pop\n      tag_209\n      0x04\n      dup1\n      calldatasize\n      sub\n      dup2\n      add\n      swap1\n      tag_210\n      swap2\n      swap1\n      tag_107\n      jump\t// in\n    tag_210:\n      tag_211\n      jump\t// in\n    tag_209:\n      mload(0x40)\n      tag_212\n      swap2\n      swap1\n      tag_86\n      jump\t// in\n    tag_212:\n      mload(0x40)\n      dup1\n      swap2\n      sub\n      swap1\n      return\n        /* \"P2PTransfer.sol\":1654:1714  uint256 public constant MAX_RED_ENVELOPE_AMOUNT = 0.01 ether */\n    tag_37:\n      callvalue\n      dup1\n      iszero\n      tag_213\n      jumpi\n      revert(0x00, 0x00)\n    tag_213:\n      pop\n      tag_214\n      tag_215\n      jump\t// in\n    tag_214:\n      mload(0x40)\n      tag_216\n      swap2\n      swap1\n      tag_86\n      jump\t// in\n    tag_216:\n      mload(0x40)\n      dup1\n      swap2\n      sub\n      swap1\n      return\n        /* \"P2PTransfer.sol\":10024:11212  function expireRedEnvelope(uint256 _envelopeId) external whenNotPaused nonReentrant {... */\n    tag_38:\n      callvalue\n      dup1\n      iszero\n      tag_217\n      jumpi\n      revert(0x00, 0x00)\n    tag_217:\n      pop\n      tag_218\n      0x04\n      dup1\n      calldatasize\n      sub\n      dup2\n      add\n      swap1\n      tag_219\n      swap2\n      swap1\n      tag_56\n      jump\t// in\n    tag_219:\n      tag_220\n      jump\t// in\n    tag_218:\n      stop\n        /* \"@openzeppelin/contracts/access/AccessControl.sol\":2541:2743  function supportsInterface(bytes4 interfaceId) public view virtual override returns (bool) {... */\n    tag_50:\n        /* \"@openzeppelin/contracts/access/AccessControl.sol\":2626:2630  bool */\n      0x00\n        /* \"@openzeppelin/contracts/access/AccessControl.sol\":2664:2696  type(IAccessControl).interfaceId */\n      0x7965db0b00000000000000000000000000000000000000000000000000000000\n        /* \"@openzeppelin/contracts/access/AccessControl.sol\":2649:2696  interfaceId == type(IAccessControl).interfaceId */\n      not(0xffffffffffffffffffffffffffffffffffffffffffffffffffffffff)\n      and\n        /* \"@openzeppelin/contracts/access/AccessControl.sol\":2649:2660  interfaceId */\n      dup3\n        /* \"@openzeppelin/contracts/access/AccessControl.sol\":2649:2696  interfaceId == type(IAccessControl).interfaceId */\n      not(0xffffffffffffffffffffffffffffffffffffffffffffffffffffffff)\n      and\n      eq\n        /* \"@openzeppelin/contracts/access/AccessControl.sol\":2649:2736  interfaceId == type(IAccessControl).interfaceId || super.supportsInterface(interfaceId) */\n      dup1\n      tag_222\n      jumpi\n      pop\n        /* \"@openzeppelin/contracts/access/AccessControl.sol\":2700:2736  super.supportsInterface(interfaceId) */\n      tag_223\n        /* \"@openzeppelin/contracts/access/AccessControl.sol\":2724:2735  interfaceId */\n      dup3\n        /* \"@openzeppelin/contracts/access/AccessControl.sol\":2700:2723  super.supportsInterface */\n      tag_224\n        /* \"@openzeppelin/contracts/access/AccessControl.sol\":2700:2736  super.supportsInterface(interfaceId) */\n      jump\t// in\n    tag_223:\n        /* \"@openzeppelin/contracts/access/AccessControl.sol\":2649:2736  interfaceId == type(IAccessControl).interfaceId || super.supportsInterface(interfaceId) */\n    tag_222:\n        /* \"@openzeppelin/contracts/access/AccessControl.sol\":2642:2736  return interfaceId == type(IAccessControl).interfaceId || super.supportsInterface(interfaceId) */\n      swap1\n      pop\n        /* \"@openzeppelin/contracts/access/AccessControl.sol\":2541:2743  function supportsInterface(bytes4 interfaceId) public view virtual override returns (bool) {... */\n      swap2\n      swap1\n      pop\n      jump\t// out\n        /* \"P2PTransfer.sol\":12514:12696  function getTransactionDetails(uint256 _transactionId) ... */\n    tag_57:\n        /* \"P2PTransfer.sol\":12619:12637  Transaction memory */\n      tag_225\n      tag_226\n      jump\t// in\n    tag_225:\n        /* \"P2PTransfer.sol\":12661:12673  transactions */\n      0x06\n        /* \"P2PTransfer.sol\":12661:12689  transactions[_transactionId] */\n      0x00\n        /* \"P2PTransfer.sol\":12674:12688  _transactionId */\n      dup4\n        /* \"P2PTransfer.sol\":12661:12689  transactions[_transactionId] */\n      dup2\n      mstore\n      0x20\n      add\n      swap1\n      dup2\n      mstore\n      0x20\n      add\n      0x00\n      keccak256\n        /* \"P2PTransfer.sol\":12654:12689  return transactions[_transactionId] */\n      mload(0x40)\n      dup1\n      0xa0\n      add\n      0x40\n      mstore\n      swap1\n      dup2\n      0x00\n      dup3\n      add\n      0x00\n      swap1\n      sload\n      swap1\n      0x0100\n      exp\n      swap1\n      div\n      0xffffffffffffffffffffffffffffffffffffffff\n      and\n      0xffffffffffffffffffffffffffffffffffffffff\n      and\n      0xffffffffffffffffffffffffffffffffffffffff\n      and\n      dup2\n      mstore\n      0x20\n      add\n      0x01\n      dup3\n      add\n      0x00\n      swap1\n      sload\n      swap1\n      0x0100\n      exp\n      swap1\n      div\n      0xffffffffffffffffffffffffffffffffffffffff\n      and\n      0xffffffffffffffffffffffffffffffffffffffff\n      and\n      0xffffffffffffffffffffffffffffffffffffffff\n      and\n      dup2\n      mstore\n      0x20\n      add\n      0x02\n      dup3\n      add\n      sload\n      dup2\n      mstore\n      0x20\n      add\n      0x03\n      dup3\n      add\n      sload\n      dup2\n      mstore\n      0x20\n      add\n      0x04\n      dup3\n      add\n      dup1\n      sload\n      tag_228\n      swap1\n      tag_229\n      jump\t// in\n    tag_228:\n      dup1\n      0x1f\n      add\n      0x20\n      dup1\n      swap2\n      div\n      mul\n      0x20\n      add\n      mload(0x40)\n      swap1\n      dup2\n      add\n      0x40\n      mstore\n      dup1\n      swap3\n      swap2\n      swap1\n      dup2\n      dup2\n      mstore\n      0x20\n      add\n      dup3\n      dup1\n      sload\n      tag_230\n      swap1\n      tag_229\n      jump\t// in\n    tag_230:\n      dup1\n      iszero\n      tag_231\n      jumpi\n      dup1\n      0x1f\n      lt\n      tag_232\n      jumpi\n      0x0100\n      dup1\n      dup4\n      sload\n      div\n      mul\n      dup4\n      mstore\n      swap2\n      0x20\n      add\n      swap2\n      jump(tag_231)\n    tag_232:\n      dup3\n      add\n      swap2\n      swap1\n      0x00\n      mstore\n      keccak256(0x00, 0x20)\n      swap1\n    tag_233:\n      dup2\n      sload\n      dup2\n      mstore\n      swap1\n      0x01\n      add\n      swap1\n      0x20\n      add\n      dup1\n      dup4\n      gt\n      tag_233\n      jumpi\n      dup3\n      swap1\n      sub\n      0x1f\n      and\n      dup3\n      add\n      swap2\n    tag_231:\n      pop\n      pop\n      pop\n      pop\n      pop\n      dup2\n      mstore\n      pop\n      pop\n      swap1\n      pop\n        /* \"P2PTransfer.sol\":12514:12696  function getTransactionDetails(uint256 _transactionId) ... */\n      swap2\n      swap1\n      pop\n      jump\t// out\n        /* \"P2PTransfer.sol\":11240:11964  function getRedEnvelopeDetails(uint256 _envelopeId) external view returns (... */\n    tag_63:\n        /* \"P2PTransfer.sol\":11324:11338  address sender */\n      0x00\n        /* \"P2PTransfer.sol\":11348:11375  address[] memory recipients */\n      0x60\n        /* \"P2PTransfer.sol\":11385:11404  uint256 totalAmount */\n      0x00\n        /* \"P2PTransfer.sol\":11414:11438  uint256[] memory amounts */\n      0x60\n        /* \"P2PTransfer.sol\":11448:11461  bool isRandom */\n      0x00\n        /* \"P2PTransfer.sol\":11471:11491  uint256 claimedCount */\n      0x00\n        /* \"P2PTransfer.sol\":11501:11518  uint256 createdAt */\n      0x00\n        /* \"P2PTransfer.sol\":11528:11549  string memory message */\n      0x60\n        /* \"P2PTransfer.sol\":11559:11572  bool isActive */\n      0x00\n        /* \"P2PTransfer.sol\":11589:11617  RedEnvelope storage envelope */\n      0x00\n        /* \"P2PTransfer.sol\":11620:11632  redEnvelopes */\n      0x05\n        /* \"P2PTransfer.sol\":11620:11645  redEnvelopes[_envelopeId] */\n      0x00\n        /* \"P2PTransfer.sol\":11633:11644  _envelopeId */\n      dup13\n        /* \"P2PTransfer.sol\":11620:11645  redEnvelopes[_envelopeId] */\n      dup2\n      mstore\n      0x20\n      add\n      swap1\n      dup2\n      mstore\n      0x20\n      add\n      0x00\n      keccak256\n        /* \"P2PTransfer.sol\":11589:11645  RedEnvelope storage envelope = redEnvelopes[_envelopeId] */\n      swap1\n      pop\n        /* \"P2PTransfer.sol\":11676:11684  envelope */\n      dup1\n        /* \"P2PTransfer.sol\":11676:11691  envelope.sender */\n      0x00\n      add\n      0x00\n      swap1\n      sload\n      swap1\n      0x0100\n      exp\n      swap1\n      div\n      0xffffffffffffffffffffffffffffffffffffffff\n      and\n        /* \"P2PTransfer.sol\":11705:11713  envelope */\n      dup2\n        /* \"P2PTransfer.sol\":11705:11724  envelope.recipients */\n      0x01\n      add\n        /* \"P2PTransfer.sol\":11738:11746  envelope */\n      dup3\n        /* \"P2PTransfer.sol\":11738:11758  envelope.totalAmount */\n      0x02\n      add\n      sload\n        /* \"P2PTransfer.sol\":11772:11780  envelope */\n      dup4\n        /* \"P2PTransfer.sol\":11772:11788  envelope.amounts */\n      0x03\n      add\n        /* \"P2PTransfer.sol\":11802:11810  envelope */\n      dup5\n        /* \"P2PTransfer.sol\":11802:11819  envelope.isRandom */\n      0x04\n      add\n      0x00\n      swap1\n      sload\n      swap1\n      0x0100\n      exp\n      swap1\n      div\n      0xff\n      and\n        /* \"P2PTransfer.sol\":11833:11841  envelope */\n      dup6\n        /* \"P2PTransfer.sol\":11833:11854  envelope.claimedCount */\n      0x06\n      add\n      sload\n        /* \"P2PTransfer.sol\":11868:11876  envelope */\n      dup7\n        /* \"P2PTransfer.sol\":11868:11886  envelope.createdAt */\n      0x07\n      add\n      sload\n        /* \"P2PTransfer.sol\":11900:11908  envelope */\n      dup8\n        /* \"P2PTransfer.sol\":11900:11916  envelope.message */\n      0x08\n      add\n        /* \"P2PTransfer.sol\":11930:11938  envelope */\n      dup9\n        /* \"P2PTransfer.sol\":11930:11947  envelope.isActive */\n      0x09\n      add\n      0x00\n      swap1\n      sload\n      swap1\n      0x0100\n      exp\n      swap1\n      div\n      0xff\n      and\n        /* \"P2PTransfer.sol\":11655:11957  return (... */\n      dup8\n      dup1\n      sload\n      dup1\n      0x20\n      mul\n      0x20\n      add\n      mload(0x40)\n      swap1\n      dup2\n      add\n      0x40\n      mstore\n      dup1\n      swap3\n      swap2\n      swap1\n      dup2\n      dup2\n      mstore\n      0x20\n      add\n      dup3\n      dup1\n      sload\n      dup1\n      iszero\n      tag_235\n      jumpi\n      0x20\n      mul\n      dup3\n      add\n      swap2\n      swap1\n      0x00\n      mstore\n      keccak256(0x00, 0x20)\n      swap1\n    tag_236:\n      dup2\n      0x00\n      swap1\n      sload\n      swap1\n      0x0100\n      exp\n      swap1\n      div\n      0xffffffffffffffffffffffffffffffffffffffff\n      and\n      0xffffffffffffffffffffffffffffffffffffffff\n      and\n      dup2\n      mstore\n      0x20\n      add\n      swap1\n      0x01\n      add\n      swap1\n      dup1\n      dup4\n      gt\n      tag_236\n      jumpi\n    tag_235:\n      pop\n      pop\n      pop\n      pop\n      pop\n      swap8\n      pop\n      dup6\n      dup1\n      sload\n      dup1\n      0x20\n      mul\n      0x20\n      add\n      mload(0x40)\n      swap1\n      dup2\n      add\n      0x40\n      mstore\n      dup1\n      swap3\n      swap2\n      swap1\n      dup2\n      dup2\n      mstore\n      0x20\n      add\n      dup3\n      dup1\n      sload\n      dup1\n      iszero\n      tag_237\n      jumpi\n      0x20\n      mul\n      dup3\n      add\n      swap2\n      swap1\n      0x00\n      mstore\n      keccak256(0x00, 0x20)\n      swap1\n    tag_238:\n      dup2\n      sload\n      dup2\n      mstore\n      0x20\n      add\n      swap1\n      0x01\n      add\n      swap1\n      dup1\n      dup4\n      gt\n      tag_238\n      jumpi\n    tag_237:\n      pop\n      pop\n      pop\n      pop\n      pop\n      swap6\n      pop\n      dup2\n      dup1\n      sload\n      tag_239\n      swap1\n      tag_229\n      jump\t// in\n    tag_239:\n      dup1\n      0x1f\n      add\n      0x20\n      dup1\n      swap2\n      div\n      mul\n      0x20\n      add\n      mload(0x40)\n      swap1\n      dup2\n      add\n      0x40\n      mstore\n      dup1\n      swap3\n      swap2\n      swap1\n      dup2\n      dup2\n      mstore\n      0x20\n      add\n      dup3\n      dup1\n      sload\n      tag_240\n      swap1\n      tag_229\n      jump\t// in\n    tag_240:\n      dup1\n      iszero\n      tag_241\n      jumpi\n      dup1\n      0x1f\n      lt\n      tag_242\n      jumpi\n      0x0100\n      dup1\n      dup4\n      sload\n      div\n      mul\n      dup4\n      mstore\n      swap2\n      0x20\n      add\n      swap2\n      jump(tag_241)\n    tag_242:\n      dup3\n      add\n      swap2\n      swap1\n      0x00\n      mstore\n      keccak256(0x00, 0x20)\n      swap1\n    tag_243:\n      dup2\n      sload\n      dup2\n      mstore\n      swap1\n      0x01\n      add\n      swap1\n      0x20\n      add\n      dup1\n      dup4\n      gt\n      tag_243\n      jumpi\n      dup3\n      swap1\n      sub\n      0x1f\n      and\n      dup3\n      add\n      swap2\n    tag_241:\n      pop\n      pop\n      pop\n      pop\n      pop\n      swap2\n      pop\n      swap10\n      pop\n      swap10\n      pop\n      swap10\n      pop\n      swap10\n      pop\n      swap10\n      pop\n      swap10\n      pop\n      swap10\n      pop\n      swap10\n      pop\n      swap10\n      pop\n      pop\n        /* \"P2PTransfer.sol\":11240:11964  function getRedEnvelopeDetails(uint256 _envelopeId) external view returns (... */\n      swap2\n      swap4\n      swap6\n      swap8\n      swap10\n      swap1\n      swap3\n      swap5\n      swap7\n      swap9\n      pop\n      jump\t// out\n        /* \"@openzeppelin/contracts/access/AccessControl.sol\":3786:3906  function getRoleAdmin(bytes32 role) public view virtual returns (bytes32) {... */\n    tag_70:\n        /* \"@openzeppelin/contracts/access/AccessControl.sol\":3851:3858  bytes32 */\n      0x00\n        /* \"@openzeppelin/contracts/access/AccessControl.sol\":3877:3883  _roles */\n      0x02\n        /* \"@openzeppelin/contracts/access/AccessControl.sol\":3877:3889  _roles[role] */\n      0x00\n        /* \"@openzeppelin/contracts/access/AccessControl.sol\":3884:3888  role */\n      dup4\n        /* \"@openzeppelin/contracts/access/AccessControl.sol\":3877:3889  _roles[role] */\n      dup2\n      mstore\n      0x20\n      add\n      swap1\n      dup2\n      mstore\n      0x20\n      add\n      0x00\n      keccak256\n        /* \"@openzeppelin/contracts/access/AccessControl.sol\":3877:3899  _roles[role].adminRole */\n      0x01\n      add\n      sload\n        /* \"@openzeppelin/contracts/access/AccessControl.sol\":3870:3899  return _roles[role].adminRole */\n      swap1\n      pop\n        /* \"@openzeppelin/contracts/access/AccessControl.sol\":3786:3906  function getRoleAdmin(bytes32 role) public view virtual returns (bytes32) {... */\n      swap2\n      swap1\n      pop\n      jump\t// out\n        /* \"@openzeppelin/contracts/access/AccessControl.sol\":4202:4338  function grantRole(bytes32 role, address account) public virtual onlyRole(getRoleAdmin(role)) {... */\n    tag_77:\n        /* \"@openzeppelin/contracts/access/AccessControl.sol\":4276:4294  getRoleAdmin(role) */\n      tag_245\n        /* \"@openzeppelin/contracts/access/AccessControl.sol\":4289:4293  role */\n      dup3\n        /* \"@openzeppelin/contracts/access/AccessControl.sol\":4276:4288  getRoleAdmin */\n      tag_70\n        /* \"@openzeppelin/contracts/access/AccessControl.sol\":4276:4294  getRoleAdmin(role) */\n      jump\t// in\n    tag_245:\n        /* \"@openzeppelin/contracts/access/AccessControl.sol\":2473:2489  _checkRole(role) */\n      tag_247\n        /* \"@openzeppelin/contracts/access/AccessControl.sol\":2484:2488  role */\n      dup2\n        /* \"@openzeppelin/contracts/access/AccessControl.sol\":2473:2483  _checkRole */\n      tag_248\n        /* \"@openzeppelin/contracts/access/AccessControl.sol\":2473:2489  _checkRole(role) */\n      jump\t// in\n    tag_247:\n        /* \"@openzeppelin/contracts/access/AccessControl.sol\":4306:4331  _grantRole(role, account) */\n      tag_250\n        /* \"@openzeppelin/contracts/access/AccessControl.sol\":4317:4321  role */\n      dup4\n        /* \"@openzeppelin/contracts/access/AccessControl.sol\":4323:4330  account */\n      dup4\n        /* \"@openzeppelin/contracts/access/AccessControl.sol\":4306:4316  _grantRole */\n      tag_251\n        /* \"@openzeppelin/contracts/access/AccessControl.sol\":4306:4331  _grantRole(role, account) */\n      jump\t// in\n    tag_250:\n      pop\n        /* \"@openzeppelin/contracts/access/AccessControl.sol\":4202:4338  function grantRole(bytes32 role, address account) public virtual onlyRole(getRoleAdmin(role)) {... */\n      pop\n      pop\n      pop\n      jump\t// out\n        /* \"@openzeppelin/contracts/access/AccessControl.sol\":5304:5549  function renounceRole(bytes32 role, address callerConfirmation) public virtual {... */\n    tag_81:\n        /* \"@openzeppelin/contracts/access/AccessControl.sol\":5419:5431  _msgSender() */\n      tag_253\n        /* \"@openzeppelin/contracts/access/AccessControl.sol\":5419:5429  _msgSender */\n      tag_254\n        /* \"@openzeppelin/contracts/access/AccessControl.sol\":5419:5431  _msgSender() */\n      jump\t// in\n    tag_253:\n        /* \"@openzeppelin/contracts/access/AccessControl.sol\":5397:5431  callerConfirmation != _msgSender() */\n      0xffffffffffffffffffffffffffffffffffffffff\n      and\n        /* \"@openzeppelin/contracts/access/AccessControl.sol\":5397:5415  callerConfirmation */\n      dup2\n        /* \"@openzeppelin/contracts/access/AccessControl.sol\":5397:5431  callerConfirmation != _msgSender() */\n      0xffffffffffffffffffffffffffffffffffffffff\n      and\n      eq\n        /* \"@openzeppelin/contracts/access/AccessControl.sol\":5393:5495  if (callerConfirmation != _msgSender()) {... */\n      tag_255\n      jumpi\n        /* \"@openzeppelin/contracts/access/AccessControl.sol\":5454:5484  AccessControlBadConfirmation() */\n      mload(0x40)\n      0x6697b23200000000000000000000000000000000000000000000000000000000\n      dup2\n      mstore\n      0x04\n      add\n      mload(0x40)\n      dup1\n      swap2\n      sub\n      swap1\n      revert\n        /* \"@openzeppelin/contracts/access/AccessControl.sol\":5393:5495  if (callerConfirmation != _msgSender()) {... */\n    tag_255:\n        /* \"@openzeppelin/contracts/access/AccessControl.sol\":5505:5542  _revokeRole(role, callerConfirmation) */\n      tag_256\n        /* \"@openzeppelin/contracts/access/AccessControl.sol\":5517:5521  role */\n      dup3\n        /* \"@openzeppelin/contracts/access/AccessControl.sol\":5523:5541  callerConfirmation */\n      dup3\n        /* \"@openzeppelin/contracts/access/AccessControl.sol\":5505:5516  _revokeRole */\n      tag_257\n        /* \"@openzeppelin/contracts/access/AccessControl.sol\":5505:5542  _revokeRole(role, callerConfirmation) */\n      jump\t// in\n    tag_256:\n      pop\n        /* \"@openzeppelin/contracts/access/AccessControl.sol\":5304:5549  function renounceRole(bytes32 role, address callerConfirmation) public virtual {... */\n      pop\n      pop\n      jump\t// out\n        /* \"P2PTransfer.sol\":1720:1778  uint256 public constant MIN_TRANSFER_AMOUNT = 0.0001 ether */\n    tag_84:\n        /* \"P2PTransfer.sol\":1766:1778  0.0001 ether */\n      0x5af3107a4000\n        /* \"P2PTransfer.sol\":1720:1778  uint256 public constant MIN_TRANSFER_AMOUNT = 0.0001 ether */\n      dup2\n      jump\t// out\n        /* \"P2PTransfer.sol\":13490:13566  function unpause() external onlyRole(ADMIN_ROLE) {... */\n    tag_89:\n        /* \"P2PTransfer.sol\":522:545  keccak256(\"ADMIN_ROLE\") */\n      0xa49807205ce4d355092ef5a8a18f56e8913cf4a201fbe287825b095693c21775\n        /* \"@openzeppelin/contracts/access/AccessControl.sol\":2473:2489  _checkRole(role) */\n      tag_259\n        /* \"@openzeppelin/contracts/access/AccessControl.sol\":2484:2488  role */\n      dup2\n        /* \"@openzeppelin/contracts/access/AccessControl.sol\":2473:2483  _checkRole */\n      tag_248\n        /* \"@openzeppelin/contracts/access/AccessControl.sol\":2473:2489  _checkRole(role) */\n      jump\t// in\n    tag_259:\n        /* \"P2PTransfer.sol\":13549:13559  _unpause() */\n      tag_261\n        /* \"P2PTransfer.sol\":13549:13557  _unpause */\n      tag_262\n        /* \"P2PTransfer.sol\":13549:13559  _unpause() */\n      jump\t// in\n    tag_261:\n        /* \"P2PTransfer.sol\":13490:13566  function unpause() external onlyRole(ADMIN_ROLE) {... */\n      pop\n      jump\t// out\n        /* \"P2PTransfer.sol\":1157:1188  uint256 public redEnvelopeCount */\n    tag_92:\n      sload(0x03)\n      dup2\n      jump\t// out\n        /* \"@openzeppelin/contracts/security/Pausable.sol\":1615:1699  function paused() public view virtual returns (bool) {... */\n    tag_96:\n        /* \"@openzeppelin/contracts/security/Pausable.sol\":1662:1666  bool */\n      0x00\n        /* \"@openzeppelin/contracts/security/Pausable.sol\":1685:1692  _paused */\n      0x01\n      0x00\n      swap1\n      sload\n      swap1\n      0x0100\n      exp\n      swap1\n      div\n      0xff\n      and\n        /* \"@openzeppelin/contracts/security/Pausable.sol\":1678:1692  return _paused */\n      swap1\n      pop\n        /* \"@openzeppelin/contracts/security/Pausable.sol\":1615:1699  function paused() public view virtual returns (bool) {... */\n      swap1\n      jump\t// out\n        /* \"P2PTransfer.sol\":11970:12162  function hasClaimedRedEnvelope(uint256 _envelopeId, address _user) ... */\n    tag_102:\n        /* \"P2PTransfer.sol\":12087:12091  bool */\n      0x00\n        /* \"P2PTransfer.sol\":12115:12127  redEnvelopes */\n      0x05\n        /* \"P2PTransfer.sol\":12115:12140  redEnvelopes[_envelopeId] */\n      0x00\n        /* \"P2PTransfer.sol\":12128:12139  _envelopeId */\n      dup5\n        /* \"P2PTransfer.sol\":12115:12140  redEnvelopes[_envelopeId] */\n      dup2\n      mstore\n      0x20\n      add\n      swap1\n      dup2\n      mstore\n      0x20\n      add\n      0x00\n      keccak256\n        /* \"P2PTransfer.sol\":12115:12148  redEnvelopes[_envelopeId].claimed */\n      0x05\n      add\n        /* \"P2PTransfer.sol\":12115:12155  redEnvelopes[_envelopeId].claimed[_user] */\n      0x00\n        /* \"P2PTransfer.sol\":12149:12154  _user */\n      dup4\n        /* \"P2PTransfer.sol\":12115:12155  redEnvelopes[_envelopeId].claimed[_user] */\n      0xffffffffffffffffffffffffffffffffffffffff\n      and\n      0xffffffffffffffffffffffffffffffffffffffff\n      and\n      dup2\n      mstore\n      0x20\n      add\n      swap1\n      dup2\n      mstore\n      0x20\n      add\n      0x00\n      keccak256\n      0x00\n      swap1\n      sload\n      swap1\n      0x0100\n      exp\n      swap1\n      div\n      0xff\n      and\n        /* \"P2PTransfer.sol\":12108:12155  return redEnvelopes[_envelopeId].claimed[_user] */\n      swap1\n      pop\n        /* \"P2PTransfer.sol\":11970:12162  function hasClaimedRedEnvelope(uint256 _envelopeId, address _user) ... */\n      swap3\n      swap2\n      pop\n      pop\n      jump\t// out\n        /* \"P2PTransfer.sol\":12827:12958  function getUserRedEnvelopeCount(address _user) external view returns (uint256) {... */\n    tag_108:\n        /* \"P2PTransfer.sol\":12898:12905  uint256 */\n      0x00\n        /* \"P2PTransfer.sol\":12924:12944  redEnvelopeSentCount */\n      0x0a\n        /* \"P2PTransfer.sol\":12924:12951  redEnvelopeSentCount[_user] */\n      0x00\n        /* \"P2PTransfer.sol\":12945:12950  _user */\n      dup4\n        /* \"P2PTransfer.sol\":12924:12951  redEnvelopeSentCount[_user] */\n      0xffffffffffffffffffffffffffffffffffffffff\n      and\n      0xffffffffffffffffffffffffffffffffffffffff\n      and\n      dup2\n      mstore\n      0x20\n      add\n      swap1\n      dup2\n      mstore\n      0x20\n      add\n      0x00\n      keccak256\n      sload\n        /* \"P2PTransfer.sol\":12917:12951  return redEnvelopeSentCount[_user] */\n      swap1\n      pop\n        /* \"P2PTransfer.sol\":12827:12958  function getUserRedEnvelopeCount(address _user) external view returns (uint256) {... */\n      swap2\n      swap1\n      pop\n      jump\t// out\n        /* \"P2PTransfer.sol\":1526:1581  mapping(address => uint256) public redEnvelopeSentCount */\n    tag_113:\n      mstore(0x20, 0x0a)\n      dup1\n      0x00\n      mstore\n      keccak256(0x00, 0x40)\n      0x00\n      swap2\n      pop\n      swap1\n      pop\n      sload\n      dup2\n      jump\t// out\n        /* \"P2PTransfer.sol\":485:545  bytes32 public constant ADMIN_ROLE = keccak256(\"ADMIN_ROLE\") */\n    tag_117:\n        /* \"P2PTransfer.sol\":522:545  keccak256(\"ADMIN_ROLE\") */\n      0xa49807205ce4d355092ef5a8a18f56e8913cf4a201fbe287825b095693c21775\n        /* \"P2PTransfer.sol\":485:545  bytes32 public constant ADMIN_ROLE = keccak256(\"ADMIN_ROLE\") */\n      dup2\n      jump\t// out\n        /* \"P2PTransfer.sol\":8221:9874  function claimRedEnvelope(uint256 _envelopeId) ... */\n    tag_122:\n        /* \"@openzeppelin/contracts/security/Pausable.sol\":1239:1258  _requireNotPaused() */\n      tag_267\n        /* \"@openzeppelin/contracts/security/Pausable.sol\":1239:1256  _requireNotPaused */\n      tag_268\n        /* \"@openzeppelin/contracts/security/Pausable.sol\":1239:1258  _requireNotPaused() */\n      jump\t// in\n    tag_267:\n        /* \"@openzeppelin/contracts/security/ReentrancyGuard.sol\":2261:2282  _nonReentrantBefore() */\n      tag_270\n        /* \"@openzeppelin/contracts/security/ReentrancyGuard.sol\":2261:2280  _nonReentrantBefore */\n      tag_271\n        /* \"@openzeppelin/contracts/security/ReentrancyGuard.sol\":2261:2282  _nonReentrantBefore() */\n      jump\t// in\n    tag_270:\n        /* \"P2PTransfer.sol\":8365:8366  0 */\n      0x00\n        /* \"P2PTransfer.sol\":8350:8361  _envelopeId */\n      dup2\n        /* \"P2PTransfer.sol\":8350:8366  _envelopeId == 0 */\n      eq\n        /* \"P2PTransfer.sol\":8350:8400  _envelopeId == 0 || _envelopeId > redEnvelopeCount */\n      dup1\n      tag_273\n      jumpi\n      pop\n        /* \"P2PTransfer.sol\":8384:8400  redEnvelopeCount */\n      sload(0x03)\n        /* \"P2PTransfer.sol\":8370:8381  _envelopeId */\n      dup2\n        /* \"P2PTransfer.sol\":8370:8400  _envelopeId > redEnvelopeCount */\n      gt\n        /* \"P2PTransfer.sol\":8350:8400  _envelopeId == 0 || _envelopeId > redEnvelopeCount */\n    tag_273:\n        /* \"P2PTransfer.sol\":8346:8430  if (_envelopeId == 0 || _envelopeId > redEnvelopeCount) revert RedEnvelopeNotFound() */\n      iszero\n      tag_274\n      jumpi\n        /* \"P2PTransfer.sol\":8409:8430  RedEnvelopeNotFound() */\n      mload(0x40)\n      0xb817e7dd00000000000000000000000000000000000000000000000000000000\n      dup2\n      mstore\n      0x04\n      add\n      mload(0x40)\n      dup1\n      swap2\n      sub\n      swap1\n      revert\n        /* \"P2PTransfer.sol\":8346:8430  if (_envelopeId == 0 || _envelopeId > redEnvelopeCount) revert RedEnvelopeNotFound() */\n    tag_274:\n        /* \"P2PTransfer.sol\":8449:8477  RedEnvelope storage envelope */\n      0x00\n        /* \"P2PTransfer.sol\":8480:8492  redEnvelopes */\n      0x05\n        /* \"P2PTransfer.sol\":8480:8505  redEnvelopes[_envelopeId] */\n      0x00\n        /* \"P2PTransfer.sol\":8493:8504  _envelopeId */\n      dup4\n        /* \"P2PTransfer.sol\":8480:8505  redEnvelopes[_envelopeId] */\n      dup2\n      mstore\n      0x20\n      add\n      swap1\n      dup2\n      mstore\n      0x20\n      add\n      0x00\n      keccak256\n        /* \"P2PTransfer.sol\":8449:8505  RedEnvelope storage envelope = redEnvelopes[_envelopeId] */\n      swap1\n      pop\n        /* \"P2PTransfer.sol\":8529:8537  envelope */\n      dup1\n        /* \"P2PTransfer.sol\":8529:8546  envelope.isActive */\n      0x09\n      add\n      0x00\n      swap1\n      sload\n      swap1\n      0x0100\n      exp\n      swap1\n      div\n      0xff\n      and\n        /* \"P2PTransfer.sol\":8524:8582  if (!envelope.isActive) revert RedEnvelopeAlreadyExpired() */\n      tag_275\n      jumpi\n        /* \"P2PTransfer.sol\":8555:8582  RedEnvelopeAlreadyExpired() */\n      mload(0x40)\n      0x5d43425900000000000000000000000000000000000000000000000000000000\n      dup2\n      mstore\n      0x04\n      add\n      mload(0x40)\n      dup1\n      swap2\n      sub\n      swap1\n      revert\n        /* \"P2PTransfer.sol\":8524:8582  if (!envelope.isActive) revert RedEnvelopeAlreadyExpired() */\n    tag_275:\n        /* \"P2PTransfer.sol\":8596:8604  envelope */\n      dup1\n        /* \"P2PTransfer.sol\":8596:8612  envelope.claimed */\n      0x05\n      add\n        /* \"P2PTransfer.sol\":8596:8624  envelope.claimed[msg.sender] */\n      0x00\n        /* \"P2PTransfer.sol\":8613:8623  msg.sender */\n      caller\n        /* \"P2PTransfer.sol\":8596:8624  envelope.claimed[msg.sender] */\n      0xffffffffffffffffffffffffffffffffffffffff\n      and\n      0xffffffffffffffffffffffffffffffffffffffff\n      and\n      dup2\n      mstore\n      0x20\n      add\n      swap1\n      dup2\n      mstore\n      0x20\n      add\n      0x00\n      keccak256\n      0x00\n      swap1\n      sload\n      swap1\n      0x0100\n      exp\n      swap1\n      div\n      0xff\n      and\n        /* \"P2PTransfer.sol\":8592:8649  if (envelope.claimed[msg.sender]) revert AlreadyClaimed() */\n      iszero\n      tag_276\n      jumpi\n        /* \"P2PTransfer.sol\":8633:8649  AlreadyClaimed() */\n      mload(0x40)\n      0x646cf55800000000000000000000000000000000000000000000000000000000\n      dup2\n      mstore\n      0x04\n      add\n      mload(0x40)\n      dup1\n      swap2\n      sub\n      swap1\n      revert\n        /* \"P2PTransfer.sol\":8592:8649  if (envelope.claimed[msg.sender]) revert AlreadyClaimed() */\n    tag_276:\n        /* \"P2PTransfer.sol\":8710:8726  bool isRecipient */\n      0x00\n        /* \"P2PTransfer.sol\":8729:8734  false */\n      0x00\n        /* \"P2PTransfer.sol\":8710:8734  bool isRecipient = false */\n      swap1\n      pop\n        /* \"P2PTransfer.sol\":8744:8766  uint256 recipientIndex */\n      0x00\n        /* \"P2PTransfer.sol\":8769:8770  0 */\n      0x00\n        /* \"P2PTransfer.sol\":8744:8770  uint256 recipientIndex = 0 */\n      swap1\n      pop\n        /* \"P2PTransfer.sol\":8794:8803  uint256 i */\n      0x00\n        /* \"P2PTransfer.sol\":8806:8807  0 */\n      0x00\n        /* \"P2PTransfer.sol\":8794:8807  uint256 i = 0 */\n      swap1\n      pop\n        /* \"P2PTransfer.sol\":8789:9022  for (uint256 i = 0; i < envelope.recipients.length; i++) {... */\n    tag_277:\n        /* \"P2PTransfer.sol\":8813:8821  envelope */\n      dup4\n        /* \"P2PTransfer.sol\":8813:8832  envelope.recipients */\n      0x01\n      add\n        /* \"P2PTransfer.sol\":8813:8839  envelope.recipients.length */\n      dup1\n      sload\n      swap1\n      pop\n        /* \"P2PTransfer.sol\":8809:8810  i */\n      dup2\n        /* \"P2PTransfer.sol\":8809:8839  i < envelope.recipients.length */\n      lt\n        /* \"P2PTransfer.sol\":8789:9022  for (uint256 i = 0; i < envelope.recipients.length; i++) {... */\n      iszero\n      tag_278\n      jumpi\n        /* \"P2PTransfer.sol\":8890:8900  msg.sender */\n      caller\n        /* \"P2PTransfer.sol\":8864:8900  envelope.recipients[i] == msg.sender */\n      0xffffffffffffffffffffffffffffffffffffffff\n      and\n        /* \"P2PTransfer.sol\":8864:8872  envelope */\n      dup5\n        /* \"P2PTransfer.sol\":8864:8883  envelope.recipients */\n      0x01\n      add\n        /* \"P2PTransfer.sol\":8884:8885  i */\n      dup3\n        /* \"P2PTransfer.sol\":8864:8886  envelope.recipients[i] */\n      dup2\n      sload\n      dup2\n      lt\n      tag_280\n      jumpi\n      tag_281\n      tag_282\n      jump\t// in\n    tag_281:\n    tag_280:\n      swap1\n      0x00\n      mstore\n      keccak256(0x00, 0x20)\n      add\n      0x00\n      swap1\n      sload\n      swap1\n      0x0100\n      exp\n      swap1\n      div\n      0xffffffffffffffffffffffffffffffffffffffff\n      and\n        /* \"P2PTransfer.sol\":8864:8900  envelope.recipients[i] == msg.sender */\n      0xffffffffffffffffffffffffffffffffffffffff\n      and\n      sub\n        /* \"P2PTransfer.sol\":8860:9012  if (envelope.recipients[i] == msg.sender) {... */\n      tag_284\n      jumpi\n        /* \"P2PTransfer.sol\":8934:8938  true */\n      0x01\n        /* \"P2PTransfer.sol\":8920:8938  isRecipient = true */\n      swap3\n      pop\n        /* \"P2PTransfer.sol\":8973:8974  i */\n      dup1\n        /* \"P2PTransfer.sol\":8956:8974  recipientIndex = i */\n      swap2\n      pop\n        /* \"P2PTransfer.sol\":8992:8997  break */\n      jump(tag_278)\n        /* \"P2PTransfer.sol\":8860:9012  if (envelope.recipients[i] == msg.sender) {... */\n    tag_284:\n        /* \"P2PTransfer.sol\":8841:8844  i++ */\n      dup1\n      dup1\n      0x01\n      add\n      swap2\n      pop\n      pop\n        /* \"P2PTransfer.sol\":8789:9022  for (uint256 i = 0; i < envelope.recipients.length; i++) {... */\n      jump(tag_277)\n    tag_278:\n      pop\n        /* \"P2PTransfer.sol\":9045:9056  isRecipient */\n      dup2\n        /* \"P2PTransfer.sol\":9040:9079  if (!isRecipient) revert NotRecipient() */\n      tag_285\n      jumpi\n        /* \"P2PTransfer.sol\":9065:9079  NotRecipient() */\n      mload(0x40)\n      0x586d335700000000000000000000000000000000000000000000000000000000\n      dup2\n      mstore\n      0x04\n      add\n      mload(0x40)\n      dup1\n      swap2\n      sub\n      swap1\n      revert\n        /* \"P2PTransfer.sol\":9040:9079  if (!isRecipient) revert NotRecipient() */\n    tag_285:\n        /* \"P2PTransfer.sol\":9156:9160  true */\n      0x01\n        /* \"P2PTransfer.sol\":9125:9133  envelope */\n      dup4\n        /* \"P2PTransfer.sol\":9125:9141  envelope.claimed */\n      0x05\n      add\n        /* \"P2PTransfer.sol\":9125:9153  envelope.claimed[msg.sender] */\n      0x00\n        /* \"P2PTransfer.sol\":9142:9152  msg.sender */\n      caller\n        /* \"P2PTransfer.sol\":9125:9153  envelope.claimed[msg.sender] */\n      0xffffffffffffffffffffffffffffffffffffffff\n      and\n      0xffffffffffffffffffffffffffffffffffffffff\n      and\n      dup2\n      mstore\n      0x20\n      add\n      swap1\n      dup2\n      mstore\n      0x20\n      add\n      0x00\n      keccak256\n      0x00\n        /* \"P2PTransfer.sol\":9125:9160  envelope.claimed[msg.sender] = true */\n      0x0100\n      exp\n      dup2\n      sload\n      dup2\n      0xff\n      mul\n      not\n      and\n      swap1\n      dup4\n      iszero\n      iszero\n      mul\n      or\n      swap1\n      sstore\n      pop\n        /* \"P2PTransfer.sol\":9170:9178  envelope */\n      dup3\n        /* \"P2PTransfer.sol\":9170:9191  envelope.claimedCount */\n      0x06\n      add\n      0x00\n        /* \"P2PTransfer.sol\":9170:9193  envelope.claimedCount++ */\n      dup2\n      sload\n      dup1\n      swap3\n      swap2\n      swap1\n      tag_286\n      swap1\n      tag_287\n      jump\t// in\n    tag_286:\n      swap2\n      swap1\n      pop\n      sstore\n      pop\n        /* \"P2PTransfer.sol\":9212:9226  uint256 amount */\n      0x00\n        /* \"P2PTransfer.sol\":9229:9237  envelope */\n      dup4\n        /* \"P2PTransfer.sol\":9229:9245  envelope.amounts */\n      0x03\n      add\n        /* \"P2PTransfer.sol\":9246:9260  recipientIndex */\n      dup3\n        /* \"P2PTransfer.sol\":9229:9261  envelope.amounts[recipientIndex] */\n      dup2\n      sload\n      dup2\n      lt\n      tag_288\n      jumpi\n      tag_289\n      tag_282\n      jump\t// in\n    tag_289:\n    tag_288:\n      swap1\n      0x00\n      mstore\n      keccak256(0x00, 0x20)\n      add\n      sload\n        /* \"P2PTransfer.sol\":9212:9261  uint256 amount = envelope.amounts[recipientIndex] */\n      swap1\n      pop\n        /* \"P2PTransfer.sol\":9319:9331  bool success */\n      0x00\n        /* \"P2PTransfer.sol\":9345:9355  msg.sender */\n      caller\n        /* \"P2PTransfer.sol\":9337:9361  payable(msg.sender).call */\n      0xffffffffffffffffffffffffffffffffffffffff\n      and\n        /* \"P2PTransfer.sol\":9369:9375  amount */\n      dup3\n        /* \"P2PTransfer.sol\":9337:9380  payable(msg.sender).call{value: amount}(\"\") */\n      mload(0x40)\n      tag_291\n      swap1\n      tag_292\n      jump\t// in\n    tag_291:\n      0x00\n      mload(0x40)\n      dup1\n      dup4\n      sub\n      dup2\n      dup6\n      dup8\n      gas\n      call\n      swap3\n      pop\n      pop\n      pop\n      returndatasize\n      dup1\n      0x00\n      dup2\n      eq\n      tag_295\n      jumpi\n      mload(0x40)\n      swap2\n      pop\n      and(add(returndatasize, 0x3f), not(0x1f))\n      dup3\n      add\n      0x40\n      mstore\n      returndatasize\n      dup3\n      mstore\n      returndatasize\n      0x00\n      0x20\n      dup5\n      add\n      returndatacopy\n      jump(tag_294)\n    tag_295:\n      0x60\n      swap2\n      pop\n    tag_294:\n      pop\n        /* \"P2PTransfer.sol\":9318:9380  (bool success, ) = payable(msg.sender).call{value: amount}(\"\") */\n      pop\n      swap1\n      pop\n        /* \"P2PTransfer.sol\":9395:9402  success */\n      dup1\n        /* \"P2PTransfer.sol\":9390:9427  if (!success) revert TransferFailed() */\n      tag_296\n      jumpi\n        /* \"P2PTransfer.sol\":9411:9427  TransferFailed() */\n      mload(0x40)\n      0x90b8ec1800000000000000000000000000000000000000000000000000000000\n      dup2\n      mstore\n      0x04\n      add\n      mload(0x40)\n      dup1\n      swap2\n      sub\n      swap1\n      revert\n        /* \"P2PTransfer.sol\":9390:9427  if (!success) revert TransferFailed() */\n    tag_296:\n        /* \"P2PTransfer.sol\":9468:9485  totalTransactions */\n      0x04\n      0x00\n        /* \"P2PTransfer.sol\":9468:9487  totalTransactions++ */\n      dup2\n      sload\n      dup1\n      swap3\n      swap2\n      swap1\n      tag_297\n      swap1\n      tag_287\n      jump\t// in\n    tag_297:\n      swap2\n      swap1\n      pop\n      sstore\n      pop\n        /* \"P2PTransfer.sol\":9531:9737  Transaction({... */\n      mload(0x40)\n      dup1\n      0xa0\n      add\n      0x40\n      mstore\n      dup1\n        /* \"P2PTransfer.sol\":9565:9573  envelope */\n      dup7\n        /* \"P2PTransfer.sol\":9565:9580  envelope.sender */\n      0x00\n      add\n      0x00\n      swap1\n      sload\n      swap1\n      0x0100\n      exp\n      swap1\n      div\n      0xffffffffffffffffffffffffffffffffffffffff\n      and\n        /* \"P2PTransfer.sol\":9531:9737  Transaction({... */\n      0xffffffffffffffffffffffffffffffffffffffff\n      and\n      dup2\n      mstore\n      0x20\n      add\n        /* \"P2PTransfer.sol\":9604:9614  msg.sender */\n      caller\n        /* \"P2PTransfer.sol\":9531:9737  Transaction({... */\n      0xffffffffffffffffffffffffffffffffffffffff\n      and\n      dup2\n      mstore\n      0x20\n      add\n        /* \"P2PTransfer.sol\":9636:9642  amount */\n      dup4\n        /* \"P2PTransfer.sol\":9531:9737  Transaction({... */\n      dup2\n      mstore\n      0x20\n      add\n        /* \"P2PTransfer.sol\":9667:9682  block.timestamp */\n      timestamp\n        /* \"P2PTransfer.sol\":9531:9737  Transaction({... */\n      dup2\n      mstore\n      0x20\n      add\n      mload(0x40)\n      dup1\n      0x40\n      add\n      0x40\n      mstore\n      dup1\n      0x0b\n      dup2\n      mstore\n      0x20\n      add\n      0x526564456e76656c6f7065000000000000000000000000000000000000000000\n      dup2\n      mstore\n      pop\n      dup2\n      mstore\n      pop\n        /* \"P2PTransfer.sol\":9497:9509  transactions */\n      0x06\n        /* \"P2PTransfer.sol\":9497:9528  transactions[totalTransactions] */\n      0x00\n        /* \"P2PTransfer.sol\":9510:9527  totalTransactions */\n      sload(0x04)\n        /* \"P2PTransfer.sol\":9497:9528  transactions[totalTransactions] */\n      dup2\n      mstore\n      0x20\n      add\n      swap1\n      dup2\n      mstore\n      0x20\n      add\n      0x00\n      keccak256\n        /* \"P2PTransfer.sol\":9497:9737  transactions[totalTransactions] = Transaction({... */\n      0x00\n      dup3\n      add\n      mload\n      dup2\n      0x00\n      add\n      exp(0x0100, 0x00)\n      dup2\n      sload\n      dup2\n      0xffffffffffffffffffffffffffffffffffffffff\n      mul\n      not\n      and\n      swap1\n      dup4\n      0xffffffffffffffffffffffffffffffffffffffff\n      and\n      mul\n      or\n      swap1\n      sstore\n      pop\n      0x20\n      dup3\n      add\n      mload\n      dup2\n      0x01\n      add\n      exp(0x0100, 0x00)\n      dup2\n      sload\n      dup2\n      0xffffffffffffffffffffffffffffffffffffffff\n      mul\n      not\n      and\n      swap1\n      dup4\n      0xffffffffffffffffffffffffffffffffffffffff\n      and\n      mul\n      or\n      swap1\n      sstore\n      pop\n      0x40\n      dup3\n      add\n      mload\n      dup2\n      0x02\n      add\n      sstore\n      0x60\n      dup3\n      add\n      mload\n      dup2\n      0x03\n      add\n      sstore\n      0x80\n      dup3\n      add\n      mload\n      dup2\n      0x04\n      add\n      swap1\n      dup2\n      tag_298\n      swap2\n      swap1\n      tag_299\n      jump\t// in\n    tag_298:\n      pop\n      swap1\n      pop\n      pop\n        /* \"P2PTransfer.sol\":9748:9764  userTransactions */\n      0x07\n        /* \"P2PTransfer.sol\":9748:9776  userTransactions[msg.sender] */\n      0x00\n        /* \"P2PTransfer.sol\":9765:9775  msg.sender */\n      caller\n        /* \"P2PTransfer.sol\":9748:9776  userTransactions[msg.sender] */\n      0xffffffffffffffffffffffffffffffffffffffff\n      and\n      0xffffffffffffffffffffffffffffffffffffffff\n      and\n      dup2\n      mstore\n      0x20\n      add\n      swap1\n      dup2\n      mstore\n      0x20\n      add\n      0x00\n      keccak256\n        /* \"P2PTransfer.sol\":9782:9799  totalTransactions */\n      sload(0x04)\n        /* \"P2PTransfer.sol\":9748:9800  userTransactions[msg.sender].push(totalTransactions) */\n      swap1\n      dup1\n      0x01\n      dup2\n      sload\n      add\n      dup1\n      dup3\n      sstore\n      dup1\n      swap2\n      pop\n      pop\n      0x01\n      swap1\n      sub\n      swap1\n      0x00\n      mstore\n      keccak256(0x00, 0x20)\n      add\n      0x00\n      swap1\n      swap2\n      swap1\n      swap2\n      swap1\n      swap2\n      pop\n      sstore\n        /* \"P2PTransfer.sol\":9848:9858  msg.sender */\n      caller\n        /* \"P2PTransfer.sol\":9816:9867  RedEnvelopeClaimed(_envelopeId, msg.sender, amount) */\n      0xffffffffffffffffffffffffffffffffffffffff\n      and\n        /* \"P2PTransfer.sol\":9835:9846  _envelopeId */\n      dup7\n        /* \"P2PTransfer.sol\":9816:9867  RedEnvelopeClaimed(_envelopeId, msg.sender, amount) */\n      0x2e69161e44e23c36c5ca95c70f97ec5a226a3aea538e67ebb74091b03afec6bb\n        /* \"P2PTransfer.sol\":9860:9866  amount */\n      dup5\n        /* \"P2PTransfer.sol\":9816:9867  RedEnvelopeClaimed(_envelopeId, msg.sender, amount) */\n      mload(0x40)\n      tag_301\n      swap2\n      swap1\n      tag_86\n      jump\t// in\n    tag_301:\n      mload(0x40)\n      dup1\n      swap2\n      sub\n      swap1\n      log3\n        /* \"P2PTransfer.sol\":8336:9874  {... */\n      pop\n      pop\n      pop\n      pop\n      pop\n        /* \"@openzeppelin/contracts/security/ReentrancyGuard.sol\":2303:2323  _nonReentrantAfter() */\n      tag_302\n        /* \"@openzeppelin/contracts/security/ReentrancyGuard.sol\":2303:2321  _nonReentrantAfter */\n      tag_303\n        /* \"@openzeppelin/contracts/security/ReentrancyGuard.sol\":2303:2323  _nonReentrantAfter() */\n      jump\t// in\n    tag_302:\n        /* \"P2PTransfer.sol\":8221:9874  function claimRedEnvelope(uint256 _envelopeId) ... */\n      pop\n      jump\t// out\n        /* \"P2PTransfer.sol\":13412:13484  function pause() external onlyRole(ADMIN_ROLE) {... */\n    tag_125:\n        /* \"P2PTransfer.sol\":522:545  keccak256(\"ADMIN_ROLE\") */\n      0xa49807205ce4d355092ef5a8a18f56e8913cf4a201fbe287825b095693c21775\n        /* \"@openzeppelin/contracts/access/AccessControl.sol\":2473:2489  _checkRole(role) */\n      tag_305\n        /* \"@openzeppelin/contracts/access/AccessControl.sol\":2484:2488  role */\n      dup2\n        /* \"@openzeppelin/contracts/access/AccessControl.sol\":2473:2483  _checkRole */\n      tag_248\n        /* \"@openzeppelin/contracts/access/AccessControl.sol\":2473:2489  _checkRole(role) */\n      jump\t// in\n    tag_305:\n        /* \"P2PTransfer.sol\":13469:13477  _pause() */\n      tag_307\n        /* \"P2PTransfer.sol\":13469:13475  _pause */\n      tag_308\n        /* \"P2PTransfer.sol\":13469:13477  _pause() */\n      jump\t// in\n    tag_307:\n        /* \"P2PTransfer.sol\":13412:13484  function pause() external onlyRole(ADMIN_ROLE) {... */\n      pop\n      jump\t// out\n        /* \"P2PTransfer.sol\":13220:13406  function setGamificationContract(address _gamificationContract) ... */\n    tag_129:\n        /* \"P2PTransfer.sol\":522:545  keccak256(\"ADMIN_ROLE\") */\n      0xa49807205ce4d355092ef5a8a18f56e8913cf4a201fbe287825b095693c21775\n        /* \"@openzeppelin/contracts/access/AccessControl.sol\":2473:2489  _checkRole(role) */\n      tag_310\n        /* \"@openzeppelin/contracts/access/AccessControl.sol\":2484:2488  role */\n      dup2\n        /* \"@openzeppelin/contracts/access/AccessControl.sol\":2473:2483  _checkRole */\n      tag_248\n        /* \"@openzeppelin/contracts/access/AccessControl.sol\":2473:2489  _checkRole(role) */\n      jump\t// in\n    tag_310:\n        /* \"P2PTransfer.sol\":13347:13399  _grantRole(GAMIFICATION_ROLE, _gamificationContract) */\n      tag_312\n        /* \"P2PTransfer.sol\":595:625  keccak256(\"GAMIFICATION_ROLE\") */\n      0x8c7e961e804af7b2059d42008de01ccc90fc88b8e6b947b02e12656ddb05ca3a\n        /* \"P2PTransfer.sol\":13377:13398  _gamificationContract */\n      dup4\n        /* \"P2PTransfer.sol\":13347:13357  _grantRole */\n      tag_251\n        /* \"P2PTransfer.sol\":13347:13399  _grantRole(GAMIFICATION_ROLE, _gamificationContract) */\n      jump\t// in\n    tag_312:\n      pop\n        /* \"P2PTransfer.sol\":13220:13406  function setGamificationContract(address _gamificationContract) ... */\n      pop\n      pop\n      jump\t// out\n        /* \"@openzeppelin/contracts/access/AccessControl.sol\":2830:2966  function hasRole(bytes32 role, address account) public view virtual returns (bool) {... */\n    tag_133:\n        /* \"@openzeppelin/contracts/access/AccessControl.sol\":2907:2911  bool */\n      0x00\n        /* \"@openzeppelin/contracts/access/AccessControl.sol\":2930:2936  _roles */\n      0x02\n        /* \"@openzeppelin/contracts/access/AccessControl.sol\":2930:2942  _roles[role] */\n      0x00\n        /* \"@openzeppelin/contracts/access/AccessControl.sol\":2937:2941  role */\n      dup5\n        /* \"@openzeppelin/contracts/access/AccessControl.sol\":2930:2942  _roles[role] */\n      dup2\n      mstore\n      0x20\n      add\n      swap1\n      dup2\n      mstore\n      0x20\n      add\n      0x00\n      keccak256\n        /* \"@openzeppelin/contracts/access/AccessControl.sol\":2930:2950  _roles[role].hasRole */\n      0x00\n      add\n        /* \"@openzeppelin/contracts/access/AccessControl.sol\":2930:2959  _roles[role].hasRole[account] */\n      0x00\n        /* \"@openzeppelin/contracts/access/AccessControl.sol\":2951:2958  account */\n      dup4\n        /* \"@openzeppelin/contracts/access/AccessControl.sol\":2930:2959  _roles[role].hasRole[account] */\n      0xffffffffffffffffffffffffffffffffffffffff\n      and\n      0xffffffffffffffffffffffffffffffffffffffff\n      and\n      dup2\n      mstore\n      0x20\n      add\n      swap1\n      dup2\n      mstore\n      0x20\n      add\n      0x00\n      keccak256\n      0x00\n      swap1\n      sload\n      swap1\n      0x0100\n      exp\n      swap1\n      div\n      0xff\n      and\n        /* \"@openzeppelin/contracts/access/AccessControl.sol\":2923:2959  return _roles[role].hasRole[account] */\n      swap1\n      pop\n        /* \"@openzeppelin/contracts/access/AccessControl.sol\":2830:2966  function hasRole(bytes32 role, address account) public view virtual returns (bool) {... */\n      swap3\n      swap2\n      pop\n      pop\n      jump\t// out\n        /* \"P2PTransfer.sol\":4278:6671  function sendRedEnvelope(... */\n    tag_138:\n        /* \"@openzeppelin/contracts/security/Pausable.sol\":1239:1258  _requireNotPaused() */\n      tag_315\n        /* \"@openzeppelin/contracts/security/Pausable.sol\":1239:1256  _requireNotPaused */\n      tag_268\n        /* \"@openzeppelin/contracts/security/Pausable.sol\":1239:1258  _requireNotPaused() */\n      jump\t// in\n    tag_315:\n        /* \"@openzeppelin/contracts/security/ReentrancyGuard.sol\":2261:2282  _nonReentrantBefore() */\n      tag_317\n        /* \"@openzeppelin/contracts/security/ReentrancyGuard.sol\":2261:2280  _nonReentrantBefore */\n      tag_271\n        /* \"@openzeppelin/contracts/security/ReentrancyGuard.sol\":2261:2282  _nonReentrantBefore() */\n      jump\t// in\n    tag_317:\n        /* \"P2PTransfer.sol\":4513:4514  0 */\n      0x00\n        /* \"P2PTransfer.sol\":4491:4502  _recipients */\n      dup5\n        /* \"P2PTransfer.sol\":4491:4509  _recipients.length */\n      mload\n        /* \"P2PTransfer.sol\":4491:4514  _recipients.length == 0 */\n      eq\n        /* \"P2PTransfer.sol\":4491:4553  _recipients.length == 0 || _recipients.length > MAX_RECIPIENTS */\n      dup1\n      tag_319\n      jumpi\n      pop\n        /* \"P2PTransfer.sol\":1646:1648  10 */\n      0x0a\n        /* \"P2PTransfer.sol\":4518:4529  _recipients */\n      dup5\n        /* \"P2PTransfer.sol\":4518:4536  _recipients.length */\n      mload\n        /* \"P2PTransfer.sol\":4518:4553  _recipients.length > MAX_RECIPIENTS */\n      gt\n        /* \"P2PTransfer.sol\":4491:4553  _recipients.length == 0 || _recipients.length > MAX_RECIPIENTS */\n    tag_319:\n        /* \"P2PTransfer.sol\":4487:4610  if (_recipients.length == 0 || _recipients.length > MAX_RECIPIENTS) {... */\n      iszero\n      tag_320\n      jumpi\n        /* \"P2PTransfer.sol\":4576:4599  InvalidRecipientCount() */\n      mload(0x40)\n      0x0d62487200000000000000000000000000000000000000000000000000000000\n      dup2\n      mstore\n      0x04\n      add\n      mload(0x40)\n      dup1\n      swap2\n      sub\n      swap1\n      revert\n        /* \"P2PTransfer.sol\":4487:4610  if (_recipients.length == 0 || _recipients.length > MAX_RECIPIENTS) {... */\n    tag_320:\n        /* \"P2PTransfer.sol\":4636:4648  _totalAmount */\n      dup3\n        /* \"P2PTransfer.sol\":4623:4632  msg.value */\n      callvalue\n        /* \"P2PTransfer.sol\":4623:4648  msg.value != _totalAmount */\n      eq\n        /* \"P2PTransfer.sol\":4619:4677  if (msg.value != _totalAmount) revert InsufficientAmount() */\n      tag_321\n      jumpi\n        /* \"P2PTransfer.sol\":4657:4677  InsufficientAmount() */\n      mload(0x40)\n      0x5945ea5600000000000000000000000000000000000000000000000000000000\n      dup2\n      mstore\n      0x04\n      add\n      mload(0x40)\n      dup1\n      swap2\n      sub\n      swap1\n      revert\n        /* \"P2PTransfer.sol\":4619:4677  if (msg.value != _totalAmount) revert InsufficientAmount() */\n    tag_321:\n        /* \"P2PTransfer.sol\":1704:1714  0.01 ether */\n      0x2386f26fc10000\n        /* \"P2PTransfer.sol\":4691:4703  _totalAmount */\n      dup4\n        /* \"P2PTransfer.sol\":4691:4729  _totalAmount > MAX_RED_ENVELOPE_AMOUNT */\n      gt\n        /* \"P2PTransfer.sol\":4687:4756  if (_totalAmount > MAX_RED_ENVELOPE_AMOUNT) revert ExceedsMaxAmount() */\n      iszero\n      tag_322\n      jumpi\n        /* \"P2PTransfer.sol\":4738:4756  ExceedsMaxAmount() */\n      mload(0x40)\n      0x8ebd11e000000000000000000000000000000000000000000000000000000000\n      dup2\n      mstore\n      0x04\n      add\n      mload(0x40)\n      dup1\n      swap2\n      sub\n      swap1\n      revert\n        /* \"P2PTransfer.sol\":4687:4756  if (_totalAmount > MAX_RED_ENVELOPE_AMOUNT) revert ExceedsMaxAmount() */\n    tag_322:\n        /* \"P2PTransfer.sol\":4767:4783  redEnvelopeCount */\n      0x03\n      0x00\n        /* \"P2PTransfer.sol\":4767:4785  redEnvelopeCount++ */\n      dup2\n      sload\n      dup1\n      swap3\n      swap2\n      swap1\n      tag_323\n      swap1\n      tag_287\n      jump\t// in\n    tag_323:\n      swap2\n      swap1\n      pop\n      sstore\n      pop\n        /* \"P2PTransfer.sol\":4795:4823  RedEnvelope storage envelope */\n      0x00\n        /* \"P2PTransfer.sol\":4826:4838  redEnvelopes */\n      0x05\n        /* \"P2PTransfer.sol\":4826:4856  redEnvelopes[redEnvelopeCount] */\n      0x00\n        /* \"P2PTransfer.sol\":4839:4855  redEnvelopeCount */\n      sload(0x03)\n        /* \"P2PTransfer.sol\":4826:4856  redEnvelopes[redEnvelopeCount] */\n      dup2\n      mstore\n      0x20\n      add\n      swap1\n      dup2\n      mstore\n      0x20\n      add\n      0x00\n      keccak256\n        /* \"P2PTransfer.sol\":4795:4856  RedEnvelope storage envelope = redEnvelopes[redEnvelopeCount] */\n      swap1\n      pop\n        /* \"P2PTransfer.sol\":4893:4903  msg.sender */\n      caller\n        /* \"P2PTransfer.sol\":4875:4883  envelope */\n      dup2\n        /* \"P2PTransfer.sol\":4875:4890  envelope.sender */\n      0x00\n      add\n      0x00\n        /* \"P2PTransfer.sol\":4875:4903  envelope.sender = msg.sender */\n      0x0100\n      exp\n      dup2\n      sload\n      dup2\n      0xffffffffffffffffffffffffffffffffffffffff\n      mul\n      not\n      and\n      swap1\n      dup4\n      0xffffffffffffffffffffffffffffffffffffffff\n      and\n      mul\n      or\n      swap1\n      sstore\n      pop\n        /* \"P2PTransfer.sol\":4935:4946  _recipients */\n      dup5\n        /* \"P2PTransfer.sol\":4913:4921  envelope */\n      dup2\n        /* \"P2PTransfer.sol\":4913:4932  envelope.recipients */\n      0x01\n      add\n        /* \"P2PTransfer.sol\":4913:4946  envelope.recipients = _recipients */\n      swap1\n      dup1\n      mload\n      swap1\n      0x20\n      add\n      swap1\n      tag_324\n      swap3\n      swap2\n      swap1\n      tag_325\n      jump\t// in\n    tag_324:\n      pop\n        /* \"P2PTransfer.sol\":4979:4991  _totalAmount */\n      dup4\n        /* \"P2PTransfer.sol\":4956:4964  envelope */\n      dup2\n        /* \"P2PTransfer.sol\":4956:4976  envelope.totalAmount */\n      0x02\n      add\n        /* \"P2PTransfer.sol\":4956:4991  envelope.totalAmount = _totalAmount */\n      dup2\n      swap1\n      sstore\n      pop\n        /* \"P2PTransfer.sol\":5021:5030  _isRandom */\n      dup3\n        /* \"P2PTransfer.sol\":5001:5009  envelope */\n      dup2\n        /* \"P2PTransfer.sol\":5001:5018  envelope.isRandom */\n      0x04\n      add\n      0x00\n        /* \"P2PTransfer.sol\":5001:5030  envelope.isRandom = _isRandom */\n      0x0100\n      exp\n      dup2\n      sload\n      dup2\n      0xff\n      mul\n      not\n      and\n      swap1\n      dup4\n      iszero\n      iszero\n      mul\n      or\n      swap1\n      sstore\n      pop\n        /* \"P2PTransfer.sol\":5064:5065  0 */\n      0x00\n        /* \"P2PTransfer.sol\":5040:5048  envelope */\n      dup2\n        /* \"P2PTransfer.sol\":5040:5061  envelope.claimedCount */\n      0x06\n      add\n        /* \"P2PTransfer.sol\":5040:5065  envelope.claimedCount = 0 */\n      dup2\n      swap1\n      sstore\n      pop\n        /* \"P2PTransfer.sol\":5096:5111  block.timestamp */\n      timestamp\n        /* \"P2PTransfer.sol\":5075:5083  envelope */\n      dup2\n        /* \"P2PTransfer.sol\":5075:5093  envelope.createdAt */\n      0x07\n      add\n        /* \"P2PTransfer.sol\":5075:5111  envelope.createdAt = block.timestamp */\n      dup2\n      swap1\n      sstore\n      pop\n        /* \"P2PTransfer.sol\":5140:5148  _message */\n      dup2\n        /* \"P2PTransfer.sol\":5121:5129  envelope */\n      dup2\n        /* \"P2PTransfer.sol\":5121:5137  envelope.message */\n      0x08\n      add\n        /* \"P2PTransfer.sol\":5121:5148  envelope.message = _message */\n      swap1\n      dup2\n      tag_326\n      swap2\n      swap1\n      tag_299\n      jump\t// in\n    tag_326:\n      pop\n        /* \"P2PTransfer.sol\":5178:5182  true */\n      0x01\n        /* \"P2PTransfer.sol\":5158:5166  envelope */\n      dup2\n        /* \"P2PTransfer.sol\":5158:5175  envelope.isActive */\n      0x09\n      add\n      0x00\n        /* \"P2PTransfer.sol\":5158:5182  envelope.isActive = true */\n      0x0100\n      exp\n      dup2\n      sload\n      dup2\n      0xff\n      mul\n      not\n      and\n      swap1\n      dup4\n      iszero\n      iszero\n      mul\n      or\n      swap1\n      sstore\n      pop\n        /* \"P2PTransfer.sol\":5241:5265  uint256[] memory amounts */\n      0x00\n        /* \"P2PTransfer.sol\":5282:5293  _recipients */\n      dup6\n        /* \"P2PTransfer.sol\":5282:5300  _recipients.length */\n      mload\n        /* \"P2PTransfer.sol\":5268:5301  new uint256[](_recipients.length) */\n      0xffffffffffffffff\n      dup2\n      gt\n      iszero\n      tag_327\n      jumpi\n      tag_328\n      tag_329\n      jump\t// in\n    tag_328:\n    tag_327:\n      mload(0x40)\n      swap1\n      dup1\n      dup3\n      mstore\n      dup1\n      0x20\n      mul\n      0x20\n      add\n      dup3\n      add\n      0x40\n      mstore\n      dup1\n      iszero\n      tag_330\n      jumpi\n      dup2\n      0x20\n      add\n      0x20\n      dup3\n      mul\n      dup1\n      calldatasize\n      dup4\n      calldatacopy\n      dup1\n      dup3\n      add\n      swap2\n      pop\n      pop\n      swap1\n      pop\n    tag_330:\n      pop\n        /* \"P2PTransfer.sol\":5241:5301  uint256[] memory amounts = new uint256[](_recipients.length) */\n      swap1\n      pop\n        /* \"P2PTransfer.sol\":5324:5333  _isRandom */\n      dup4\n        /* \"P2PTransfer.sol\":5320:5803  if (_isRandom) {... */\n      iszero\n      tag_331\n      jumpi\n        /* \"P2PTransfer.sol\":5359:5415  _generateRandomAmounts(_totalAmount, _recipients.length) */\n      tag_332\n        /* \"P2PTransfer.sol\":5382:5394  _totalAmount */\n      dup6\n        /* \"P2PTransfer.sol\":5396:5407  _recipients */\n      dup8\n        /* \"P2PTransfer.sol\":5396:5414  _recipients.length */\n      mload\n        /* \"P2PTransfer.sol\":5359:5381  _generateRandomAmounts */\n      tag_333\n        /* \"P2PTransfer.sol\":5359:5415  _generateRandomAmounts(_totalAmount, _recipients.length) */\n      jump\t// in\n    tag_332:\n        /* \"P2PTransfer.sol\":5349:5415  amounts = _generateRandomAmounts(_totalAmount, _recipients.length) */\n      swap1\n      pop\n        /* \"P2PTransfer.sol\":5320:5803  if (_isRandom) {... */\n      jump(tag_334)\n    tag_331:\n        /* \"P2PTransfer.sol\":5446:5465  uint256 equalAmount */\n      0x00\n        /* \"P2PTransfer.sol\":5483:5494  _recipients */\n      dup7\n        /* \"P2PTransfer.sol\":5483:5501  _recipients.length */\n      mload\n        /* \"P2PTransfer.sol\":5468:5480  _totalAmount */\n      dup7\n        /* \"P2PTransfer.sol\":5468:5501  _totalAmount / _recipients.length */\n      tag_335\n      swap2\n      swap1\n      tag_336\n      jump\t// in\n    tag_335:\n        /* \"P2PTransfer.sol\":5446:5501  uint256 equalAmount = _totalAmount / _recipients.length */\n      swap1\n      pop\n        /* \"P2PTransfer.sol\":5515:5532  uint256 remainder */\n      0x00\n        /* \"P2PTransfer.sol\":5550:5561  _recipients */\n      dup8\n        /* \"P2PTransfer.sol\":5550:5568  _recipients.length */\n      mload\n        /* \"P2PTransfer.sol\":5535:5547  _totalAmount */\n      dup8\n        /* \"P2PTransfer.sol\":5535:5568  _totalAmount % _recipients.length */\n      tag_337\n      swap2\n      swap1\n      tag_338\n      jump\t// in\n    tag_337:\n        /* \"P2PTransfer.sol\":5515:5568  uint256 remainder = _totalAmount % _recipients.length */\n      swap1\n      pop\n        /* \"P2PTransfer.sol\":5600:5609  uint256 i */\n      0x00\n        /* \"P2PTransfer.sol\":5612:5613  0 */\n      0x00\n        /* \"P2PTransfer.sol\":5600:5613  uint256 i = 0 */\n      swap1\n      pop\n        /* \"P2PTransfer.sol\":5595:5793  for (uint256 i = 0; i < _recipients.length; i++) {... */\n    tag_339:\n        /* \"P2PTransfer.sol\":5619:5630  _recipients */\n      dup9\n        /* \"P2PTransfer.sol\":5619:5637  _recipients.length */\n      mload\n        /* \"P2PTransfer.sol\":5615:5616  i */\n      dup2\n        /* \"P2PTransfer.sol\":5615:5637  i < _recipients.length */\n      lt\n        /* \"P2PTransfer.sol\":5595:5793  for (uint256 i = 0; i < _recipients.length; i++) {... */\n      iszero\n      tag_340\n      jumpi\n        /* \"P2PTransfer.sol\":5675:5686  equalAmount */\n      dup3\n        /* \"P2PTransfer.sol\":5662:5669  amounts */\n      dup5\n        /* \"P2PTransfer.sol\":5670:5671  i */\n      dup3\n        /* \"P2PTransfer.sol\":5662:5672  amounts[i] */\n      dup2\n      mload\n      dup2\n      lt\n      tag_342\n      jumpi\n      tag_343\n      tag_282\n      jump\t// in\n    tag_343:\n    tag_342:\n      0x20\n      mul\n      0x20\n      add\n      add\n        /* \"P2PTransfer.sol\":5662:5686  amounts[i] = equalAmount */\n      dup2\n      dup2\n      mstore\n      pop\n      pop\n        /* \"P2PTransfer.sol\":5712:5721  remainder */\n      dup2\n        /* \"P2PTransfer.sol\":5708:5709  i */\n      dup2\n        /* \"P2PTransfer.sol\":5708:5721  i < remainder */\n      lt\n        /* \"P2PTransfer.sol\":5704:5779  if (i < remainder) {... */\n      iszero\n      tag_344\n      jumpi\n        /* \"P2PTransfer.sol\":5759:5760  1 */\n      0x01\n        /* \"P2PTransfer.sol\":5745:5752  amounts */\n      dup5\n        /* \"P2PTransfer.sol\":5753:5754  i */\n      dup3\n        /* \"P2PTransfer.sol\":5745:5755  amounts[i] */\n      dup2\n      mload\n      dup2\n      lt\n      tag_345\n      jumpi\n      tag_346\n      tag_282\n      jump\t// in\n    tag_346:\n    tag_345:\n      0x20\n      mul\n      0x20\n      add\n      add\n        /* \"P2PTransfer.sol\":5745:5760  amounts[i] += 1 */\n      dup2\n      dup2\n      mload\n      tag_347\n      swap2\n      swap1\n      tag_348\n      jump\t// in\n    tag_347:\n      swap2\n      pop\n      dup2\n      dup2\n      mstore\n      pop\n      pop\n        /* \"P2PTransfer.sol\":5704:5779  if (i < remainder) {... */\n    tag_344:\n        /* \"P2PTransfer.sol\":5639:5642  i++ */\n      dup1\n      dup1\n      0x01\n      add\n      swap2\n      pop\n      pop\n        /* \"P2PTransfer.sol\":5595:5793  for (uint256 i = 0; i < _recipients.length; i++) {... */\n      jump(tag_339)\n    tag_340:\n      pop\n        /* \"P2PTransfer.sol\":5432:5803  {... */\n      pop\n      pop\n        /* \"P2PTransfer.sol\":5320:5803  if (_isRandom) {... */\n    tag_334:\n        /* \"P2PTransfer.sol\":5840:5847  amounts */\n      dup1\n        /* \"P2PTransfer.sol\":5821:5829  envelope */\n      dup3\n        /* \"P2PTransfer.sol\":5821:5837  envelope.amounts */\n      0x03\n      add\n        /* \"P2PTransfer.sol\":5821:5847  envelope.amounts = amounts */\n      swap1\n      dup1\n      mload\n      swap1\n      0x20\n      add\n      swap1\n      tag_349\n      swap3\n      swap2\n      swap1\n      tag_350\n      jump\t// in\n    tag_349:\n      pop\n        /* \"P2PTransfer.sol\":5902:5918  userRedEnvelopes */\n      0x08\n        /* \"P2PTransfer.sol\":5902:5930  userRedEnvelopes[msg.sender] */\n      0x00\n        /* \"P2PTransfer.sol\":5919:5929  msg.sender */\n      caller\n        /* \"P2PTransfer.sol\":5902:5930  userRedEnvelopes[msg.sender] */\n      0xffffffffffffffffffffffffffffffffffffffff\n      and\n      0xffffffffffffffffffffffffffffffffffffffff\n      and\n      dup2\n      mstore\n      0x20\n      add\n      swap1\n      dup2\n      mstore\n      0x20\n      add\n      0x00\n      keccak256\n        /* \"P2PTransfer.sol\":5936:5952  redEnvelopeCount */\n      sload(0x03)\n        /* \"P2PTransfer.sol\":5902:5953  userRedEnvelopes[msg.sender].push(redEnvelopeCount) */\n      swap1\n      dup1\n      0x01\n      dup2\n      sload\n      add\n      dup1\n      dup3\n      sstore\n      dup1\n      swap2\n      pop\n      pop\n      0x01\n      swap1\n      sub\n      swap1\n      0x00\n      mstore\n      keccak256(0x00, 0x20)\n      add\n      0x00\n      swap1\n      swap2\n      swap1\n      swap2\n      swap1\n      swap2\n      pop\n      sstore\n        /* \"P2PTransfer.sol\":5963:5983  redEnvelopeSentCount */\n      0x0a\n        /* \"P2PTransfer.sol\":5963:5995  redEnvelopeSentCount[msg.sender] */\n      0x00\n        /* \"P2PTransfer.sol\":5984:5994  msg.sender */\n      caller\n        /* \"P2PTransfer.sol\":5963:5995  redEnvelopeSentCount[msg.sender] */\n      0xffffffffffffffffffffffffffffffffffffffff\n      and\n      0xffffffffffffffffffffffffffffffffffffffff\n      and\n      dup2\n      mstore\n      0x20\n      add\n      swap1\n      dup2\n      mstore\n      0x20\n      add\n      0x00\n      keccak256\n      0x00\n        /* \"P2PTransfer.sol\":5963:5997  redEnvelopeSentCount[msg.sender]++ */\n      dup2\n      sload\n      dup1\n      swap3\n      swap2\n      swap1\n      tag_352\n      swap1\n      tag_287\n      jump\t// in\n    tag_352:\n      swap2\n      swap1\n      pop\n      sstore\n      pop\n        /* \"P2PTransfer.sol\":6038:6055  totalTransactions */\n      0x04\n      0x00\n        /* \"P2PTransfer.sol\":6038:6057  totalTransactions++ */\n      dup2\n      sload\n      dup1\n      swap3\n      swap2\n      swap1\n      tag_353\n      swap1\n      tag_287\n      jump\t// in\n    tag_353:\n      swap2\n      swap1\n      pop\n      sstore\n      pop\n        /* \"P2PTransfer.sol\":6101:6331  Transaction({... */\n      mload(0x40)\n      dup1\n      0xa0\n      add\n      0x40\n      mstore\n      dup1\n        /* \"P2PTransfer.sol\":6135:6145  msg.sender */\n      caller\n        /* \"P2PTransfer.sol\":6101:6331  Transaction({... */\n      0xffffffffffffffffffffffffffffffffffffffff\n      and\n      dup2\n      mstore\n      0x20\n      add\n        /* \"P2PTransfer.sol\":6177:6178  0 */\n      0x00\n        /* \"P2PTransfer.sol\":6101:6331  Transaction({... */\n      0xffffffffffffffffffffffffffffffffffffffff\n      and\n      dup2\n      mstore\n      0x20\n      add\n        /* \"P2PTransfer.sol\":6224:6236  _totalAmount */\n      dup7\n        /* \"P2PTransfer.sol\":6101:6331  Transaction({... */\n      dup2\n      mstore\n      0x20\n      add\n        /* \"P2PTransfer.sol\":6261:6276  block.timestamp */\n      timestamp\n        /* \"P2PTransfer.sol\":6101:6331  Transaction({... */\n      dup2\n      mstore\n      0x20\n      add\n      mload(0x40)\n      dup1\n      0x40\n      add\n      0x40\n      mstore\n      dup1\n      0x0b\n      dup2\n      mstore\n      0x20\n      add\n      0x526564456e76656c6f7065000000000000000000000000000000000000000000\n      dup2\n      mstore\n      pop\n      dup2\n      mstore\n      pop\n        /* \"P2PTransfer.sol\":6067:6079  transactions */\n      0x06\n        /* \"P2PTransfer.sol\":6067:6098  transactions[totalTransactions] */\n      0x00\n        /* \"P2PTransfer.sol\":6080:6097  totalTransactions */\n      sload(0x04)\n        /* \"P2PTransfer.sol\":6067:6098  transactions[totalTransactions] */\n      dup2\n      mstore\n      0x20\n      add\n      swap1\n      dup2\n      mstore\n      0x20\n      add\n      0x00\n      keccak256\n        /* \"P2PTransfer.sol\":6067:6331  transactions[totalTransactions] = Transaction({... */\n      0x00\n      dup3\n      add\n      mload\n      dup2\n      0x00\n      add\n      exp(0x0100, 0x00)\n      dup2\n      sload\n      dup2\n      0xffffffffffffffffffffffffffffffffffffffff\n      mul\n      not\n      and\n      swap1\n      dup4\n      0xffffffffffffffffffffffffffffffffffffffff\n      and\n      mul\n      or\n      swap1\n      sstore\n      pop\n      0x20\n      dup3\n      add\n      mload\n      dup2\n      0x01\n      add\n      exp(0x0100, 0x00)\n      dup2\n      sload\n      dup2\n      0xffffffffffffffffffffffffffffffffffffffff\n      mul\n      not\n      and\n      swap1\n      dup4\n      0xffffffffffffffffffffffffffffffffffffffff\n      and\n      mul\n      or\n      swap1\n      sstore\n      pop\n      0x40\n      dup3\n      add\n      mload\n      dup2\n      0x02\n      add\n      sstore\n      0x60\n      dup3\n      add\n      mload\n      dup2\n      0x03\n      add\n      sstore\n      0x80\n      dup3\n      add\n      mload\n      dup2\n      0x04\n      add\n      swap1\n      dup2\n      tag_354\n      swap2\n      swap1\n      tag_299\n      jump\t// in\n    tag_354:\n      pop\n      swap1\n      pop\n      pop\n        /* \"P2PTransfer.sol\":6342:6358  userTransactions */\n      0x07\n        /* \"P2PTransfer.sol\":6342:6370  userTransactions[msg.sender] */\n      0x00\n        /* \"P2PTransfer.sol\":6359:6369  msg.sender */\n      caller\n        /* \"P2PTransfer.sol\":6342:6370  userTransactions[msg.sender] */\n      0xffffffffffffffffffffffffffffffffffffffff\n      and\n      0xffffffffffffffffffffffffffffffffffffffff\n      and\n      dup2\n      mstore\n      0x20\n      add\n      swap1\n      dup2\n      mstore\n      0x20\n      add\n      0x00\n      keccak256\n        /* \"P2PTransfer.sol\":6376:6393  totalTransactions */\n      sload(0x04)\n        /* \"P2PTransfer.sol\":6342:6394  userTransactions[msg.sender].push(totalTransactions) */\n      swap1\n      dup1\n      0x01\n      dup2\n      sload\n      add\n      dup1\n      dup3\n      sstore\n      dup1\n      swap2\n      pop\n      pop\n      0x01\n      swap1\n      sub\n      swap1\n      0x00\n      mstore\n      keccak256(0x00, 0x20)\n      add\n      0x00\n      swap1\n      swap2\n      swap1\n      swap2\n      swap1\n      swap2\n      pop\n      sstore\n        /* \"P2PTransfer.sol\":6456:6497  hasRole(GAMIFICATION_ROLE, address(this)) */\n      tag_356\n        /* \"P2PTransfer.sol\":595:625  keccak256(\"GAMIFICATION_ROLE\") */\n      0x8c7e961e804af7b2059d42008de01ccc90fc88b8e6b947b02e12656ddb05ca3a\n        /* \"P2PTransfer.sol\":6491:6495  this */\n      address\n        /* \"P2PTransfer.sol\":6456:6463  hasRole */\n      tag_133\n        /* \"P2PTransfer.sol\":6456:6497  hasRole(GAMIFICATION_ROLE, address(this)) */\n      jump\t// in\n    tag_356:\n        /* \"P2PTransfer.sol\":6452:6570  if (hasRole(GAMIFICATION_ROLE, address(this))) {... */\n      pop\n        /* \"P2PTransfer.sol\":6619:6629  msg.sender */\n      caller\n        /* \"P2PTransfer.sol\":6585:6664  RedEnvelopeSent(redEnvelopeCount, msg.sender, _totalAmount, _recipients.length) */\n      0xffffffffffffffffffffffffffffffffffffffff\n      and\n        /* \"P2PTransfer.sol\":6601:6617  redEnvelopeCount */\n      sload(0x03)\n        /* \"P2PTransfer.sol\":6585:6664  RedEnvelopeSent(redEnvelopeCount, msg.sender, _totalAmount, _recipients.length) */\n      0xd2e5b8da197435421e0816c9577db4cd672fdc52bab0d98ed1b88fbd02dda466\n        /* \"P2PTransfer.sol\":6631:6643  _totalAmount */\n      dup8\n        /* \"P2PTransfer.sol\":6645:6656  _recipients */\n      dup10\n        /* \"P2PTransfer.sol\":6645:6663  _recipients.length */\n      mload\n        /* \"P2PTransfer.sol\":6585:6664  RedEnvelopeSent(redEnvelopeCount, msg.sender, _totalAmount, _recipients.length) */\n      mload(0x40)\n      tag_358\n      swap3\n      swap2\n      swap1\n      tag_359\n      jump\t// in\n    tag_358:\n      mload(0x40)\n      dup1\n      swap2\n      sub\n      swap1\n      log3\n        /* \"P2PTransfer.sol\":4477:6671  {... */\n      pop\n      pop\n        /* \"@openzeppelin/contracts/security/ReentrancyGuard.sol\":2303:2323  _nonReentrantAfter() */\n      tag_360\n        /* \"@openzeppelin/contracts/security/ReentrancyGuard.sol\":2303:2321  _nonReentrantAfter */\n      tag_303\n        /* \"@openzeppelin/contracts/security/ReentrancyGuard.sol\":2303:2323  _nonReentrantAfter() */\n      jump\t// in\n    tag_360:\n        /* \"P2PTransfer.sol\":4278:6671  function sendRedEnvelope(... */\n      pop\n      pop\n      pop\n      pop\n      jump\t// out\n        /* \"P2PTransfer.sol\":1294:1345  mapping(uint256 => Transaction) public transactions */\n    tag_142:\n      mstore(0x20, 0x06)\n      dup1\n      0x00\n      mstore\n      keccak256(0x00, 0x40)\n      0x00\n      swap2\n      pop\n      swap1\n      pop\n      dup1\n      0x00\n      add\n      0x00\n      swap1\n      sload\n      swap1\n      0x0100\n      exp\n      swap1\n      div\n      0xffffffffffffffffffffffffffffffffffffffff\n      and\n      swap1\n      dup1\n      0x01\n      add\n      0x00\n      swap1\n      sload\n      swap1\n      0x0100\n      exp\n      swap1\n      div\n      0xffffffffffffffffffffffffffffffffffffffff\n      and\n      swap1\n      dup1\n      0x02\n      add\n      sload\n      swap1\n      dup1\n      0x03\n      add\n      sload\n      swap1\n      dup1\n      0x04\n      add\n      dup1\n      sload\n      tag_361\n      swap1\n      tag_229\n      jump\t// in\n    tag_361:\n      dup1\n      0x1f\n      add\n      0x20\n      dup1\n      swap2\n      div\n      mul\n      0x20\n      add\n      mload(0x40)\n      swap1\n      dup2\n      add\n      0x40\n      mstore\n      dup1\n      swap3\n      swap2\n      swap1\n      dup2\n      dup2\n      mstore\n      0x20\n      add\n      dup3\n      dup1\n      sload\n      tag_362\n      swap1\n      tag_229\n      jump\t// in\n    tag_362:\n      dup1\n      iszero\n      tag_363\n      jumpi\n      dup1\n      0x1f\n      lt\n      tag_364\n      jumpi\n      0x0100\n      dup1\n      dup4\n      sload\n      div\n      mul\n      dup4\n      mstore\n      swap2\n      0x20\n      add\n      swap2\n      jump(tag_363)\n    tag_364:\n      dup3\n      add\n      swap2\n      swap1\n      0x00\n      mstore\n      keccak256(0x00, 0x20)\n      swap1\n    tag_365:\n      dup2\n      sload\n      dup2\n      mstore\n      swap1\n      0x01\n      add\n      swap1\n      0x20\n      add\n      dup1\n      dup4\n      gt\n      tag_365\n      jumpi\n      dup3\n      swap1\n      sub\n      0x1f\n      and\n      dup3\n      add\n      swap2\n    tag_363:\n      pop\n      pop\n      pop\n      pop\n      pop\n      swap1\n      pop\n      dup6\n      jump\t// out\n        /* \"P2PTransfer.sol\":2704:3976  function sendP2P(address _receiver) ... */\n    tag_147:\n        /* \"@openzeppelin/contracts/security/Pausable.sol\":1239:1258  _requireNotPaused() */\n      tag_367\n        /* \"@openzeppelin/contracts/security/Pausable.sol\":1239:1256  _requireNotPaused */\n      tag_268\n        /* \"@openzeppelin/contracts/security/Pausable.sol\":1239:1258  _requireNotPaused() */\n      jump\t// in\n    tag_367:\n        /* \"@openzeppelin/contracts/security/ReentrancyGuard.sol\":2261:2282  _nonReentrantBefore() */\n      tag_369\n        /* \"@openzeppelin/contracts/security/ReentrancyGuard.sol\":2261:2280  _nonReentrantBefore */\n      tag_271\n        /* \"@openzeppelin/contracts/security/ReentrancyGuard.sol\":2261:2282  _nonReentrantBefore() */\n      jump\t// in\n    tag_369:\n        /* \"P2PTransfer.sol\":1766:1778  0.0001 ether */\n      0x5af3107a4000\n        /* \"P2PTransfer.sol\":2839:2848  msg.value */\n      callvalue\n        /* \"P2PTransfer.sol\":2839:2870  msg.value < MIN_TRANSFER_AMOUNT */\n      lt\n        /* \"P2PTransfer.sol\":2835:2899  if (msg.value < MIN_TRANSFER_AMOUNT) revert InsufficientAmount() */\n      iszero\n      tag_371\n      jumpi\n        /* \"P2PTransfer.sol\":2879:2899  InsufficientAmount() */\n      mload(0x40)\n      0x5945ea5600000000000000000000000000000000000000000000000000000000\n      dup2\n      mstore\n      0x04\n      add\n      mload(0x40)\n      dup1\n      swap2\n      sub\n      swap1\n      revert\n        /* \"P2PTransfer.sol\":2835:2899  if (msg.value < MIN_TRANSFER_AMOUNT) revert InsufficientAmount() */\n    tag_371:\n        /* \"P2PTransfer.sol\":2934:2935  0 */\n      0x00\n        /* \"P2PTransfer.sol\":2913:2936  _receiver == address(0) */\n      0xffffffffffffffffffffffffffffffffffffffff\n      and\n        /* \"P2PTransfer.sol\":2913:2922  _receiver */\n      dup2\n        /* \"P2PTransfer.sol\":2913:2936  _receiver == address(0) */\n      0xffffffffffffffffffffffffffffffffffffffff\n      and\n      eq\n        /* \"P2PTransfer.sol\":2913:2963  _receiver == address(0) || _receiver == msg.sender */\n      dup1\n      tag_372\n      jumpi\n      pop\n        /* \"P2PTransfer.sol\":2953:2963  msg.sender */\n      caller\n        /* \"P2PTransfer.sol\":2940:2963  _receiver == msg.sender */\n      0xffffffffffffffffffffffffffffffffffffffff\n      and\n        /* \"P2PTransfer.sol\":2940:2949  _receiver */\n      dup2\n        /* \"P2PTransfer.sol\":2940:2963  _receiver == msg.sender */\n      0xffffffffffffffffffffffffffffffffffffffff\n      and\n      eq\n        /* \"P2PTransfer.sol\":2913:2963  _receiver == address(0) || _receiver == msg.sender */\n    tag_372:\n        /* \"P2PTransfer.sol\":2909:2990  if (_receiver == address(0) || _receiver == msg.sender) revert InvalidRecipient() */\n      iszero\n      tag_373\n      jumpi\n        /* \"P2PTransfer.sol\":2972:2990  InvalidRecipient() */\n      mload(0x40)\n      0x9c8d2cd200000000000000000000000000000000000000000000000000000000\n      dup2\n      mstore\n      0x04\n      add\n      mload(0x40)\n      dup1\n      swap2\n      sub\n      swap1\n      revert\n        /* \"P2PTransfer.sol\":2909:2990  if (_receiver == address(0) || _receiver == msg.sender) revert InvalidRecipient() */\n    tag_373:\n        /* \"P2PTransfer.sol\":3031:3048  totalTransactions */\n      0x04\n      0x00\n        /* \"P2PTransfer.sol\":3031:3050  totalTransactions++ */\n      dup2\n      sload\n      dup1\n      swap3\n      swap2\n      swap1\n      tag_374\n      swap1\n      tag_287\n      jump\t// in\n    tag_374:\n      swap2\n      swap1\n      pop\n      sstore\n      pop\n        /* \"P2PTransfer.sol\":3094:3289  Transaction({... */\n      mload(0x40)\n      dup1\n      0xa0\n      add\n      0x40\n      mstore\n      dup1\n        /* \"P2PTransfer.sol\":3128:3138  msg.sender */\n      caller\n        /* \"P2PTransfer.sol\":3094:3289  Transaction({... */\n      0xffffffffffffffffffffffffffffffffffffffff\n      and\n      dup2\n      mstore\n      0x20\n      add\n        /* \"P2PTransfer.sol\":3162:3171  _receiver */\n      dup3\n        /* \"P2PTransfer.sol\":3094:3289  Transaction({... */\n      0xffffffffffffffffffffffffffffffffffffffff\n      and\n      dup2\n      mstore\n      0x20\n      add\n        /* \"P2PTransfer.sol\":3193:3202  msg.value */\n      callvalue\n        /* \"P2PTransfer.sol\":3094:3289  Transaction({... */\n      dup2\n      mstore\n      0x20\n      add\n        /* \"P2PTransfer.sol\":3227:3242  block.timestamp */\n      timestamp\n        /* \"P2PTransfer.sol\":3094:3289  Transaction({... */\n      dup2\n      mstore\n      0x20\n      add\n      mload(0x40)\n      dup1\n      0x40\n      add\n      0x40\n      mstore\n      dup1\n      0x03\n      dup2\n      mstore\n      0x20\n      add\n      0x5032500000000000000000000000000000000000000000000000000000000000\n      dup2\n      mstore\n      pop\n      dup2\n      mstore\n      pop\n        /* \"P2PTransfer.sol\":3060:3072  transactions */\n      0x06\n        /* \"P2PTransfer.sol\":3060:3091  transactions[totalTransactions] */\n      0x00\n        /* \"P2PTransfer.sol\":3073:3090  totalTransactions */\n      sload(0x04)\n        /* \"P2PTransfer.sol\":3060:3091  transactions[totalTransactions] */\n      dup2\n      mstore\n      0x20\n      add\n      swap1\n      dup2\n      mstore\n      0x20\n      add\n      0x00\n      keccak256\n        /* \"P2PTransfer.sol\":3060:3289  transactions[totalTransactions] = Transaction({... */\n      0x00\n      dup3\n      add\n      mload\n      dup2\n      0x00\n      add\n      exp(0x0100, 0x00)\n      dup2\n      sload\n      dup2\n      0xffffffffffffffffffffffffffffffffffffffff\n      mul\n      not\n      and\n      swap1\n      dup4\n      0xffffffffffffffffffffffffffffffffffffffff\n      and\n      mul\n      or\n      swap1\n      sstore\n      pop\n      0x20\n      dup3\n      add\n      mload\n      dup2\n      0x01\n      add\n      exp(0x0100, 0x00)\n      dup2\n      sload\n      dup2\n      0xffffffffffffffffffffffffffffffffffffffff\n      mul\n      not\n      and\n      swap1\n      dup4\n      0xffffffffffffffffffffffffffffffffffffffff\n      and\n      mul\n      or\n      swap1\n      sstore\n      pop\n      0x40\n      dup3\n      add\n      mload\n      dup2\n      0x02\n      add\n      sstore\n      0x60\n      dup3\n      add\n      mload\n      dup2\n      0x03\n      add\n      sstore\n      0x80\n      dup3\n      add\n      mload\n      dup2\n      0x04\n      add\n      swap1\n      dup2\n      tag_375\n      swap2\n      swap1\n      tag_299\n      jump\t// in\n    tag_375:\n      pop\n      swap1\n      pop\n      pop\n        /* \"P2PTransfer.sol\":3343:3359  userTransactions */\n      0x07\n        /* \"P2PTransfer.sol\":3343:3371  userTransactions[msg.sender] */\n      0x00\n        /* \"P2PTransfer.sol\":3360:3370  msg.sender */\n      caller\n        /* \"P2PTransfer.sol\":3343:3371  userTransactions[msg.sender] */\n      0xffffffffffffffffffffffffffffffffffffffff\n      and\n      0xffffffffffffffffffffffffffffffffffffffff\n      and\n      dup2\n      mstore\n      0x20\n      add\n      swap1\n      dup2\n      mstore\n      0x20\n      add\n      0x00\n      keccak256\n        /* \"P2PTransfer.sol\":3377:3394  totalTransactions */\n      sload(0x04)\n        /* \"P2PTransfer.sol\":3343:3395  userTransactions[msg.sender].push(totalTransactions) */\n      swap1\n      dup1\n      0x01\n      dup2\n      sload\n      add\n      dup1\n      dup3\n      sstore\n      dup1\n      swap2\n      pop\n      pop\n      0x01\n      swap1\n      sub\n      swap1\n      0x00\n      mstore\n      keccak256(0x00, 0x20)\n      add\n      0x00\n      swap1\n      swap2\n      swap1\n      swap2\n      swap1\n      swap2\n      pop\n      sstore\n        /* \"P2PTransfer.sol\":3405:3421  userTransactions */\n      0x07\n        /* \"P2PTransfer.sol\":3405:3432  userTransactions[_receiver] */\n      0x00\n        /* \"P2PTransfer.sol\":3422:3431  _receiver */\n      dup3\n        /* \"P2PTransfer.sol\":3405:3432  userTransactions[_receiver] */\n      0xffffffffffffffffffffffffffffffffffffffff\n      and\n      0xffffffffffffffffffffffffffffffffffffffff\n      and\n      dup2\n      mstore\n      0x20\n      add\n      swap1\n      dup2\n      mstore\n      0x20\n      add\n      0x00\n      keccak256\n        /* \"P2PTransfer.sol\":3438:3455  totalTransactions */\n      sload(0x04)\n        /* \"P2PTransfer.sol\":3405:3456  userTransactions[_receiver].push(totalTransactions) */\n      swap1\n      dup1\n      0x01\n      dup2\n      sload\n      add\n      dup1\n      dup3\n      sstore\n      dup1\n      swap2\n      pop\n      pop\n      0x01\n      swap1\n      sub\n      swap1\n      0x00\n      mstore\n      keccak256(0x00, 0x20)\n      add\n      0x00\n      swap1\n      swap2\n      swap1\n      swap2\n      swap1\n      swap2\n      pop\n      sstore\n        /* \"P2PTransfer.sol\":3503:3519  p2pTransferCount */\n      0x09\n        /* \"P2PTransfer.sol\":3503:3531  p2pTransferCount[msg.sender] */\n      0x00\n        /* \"P2PTransfer.sol\":3520:3530  msg.sender */\n      caller\n        /* \"P2PTransfer.sol\":3503:3531  p2pTransferCount[msg.sender] */\n      0xffffffffffffffffffffffffffffffffffffffff\n      and\n      0xffffffffffffffffffffffffffffffffffffffff\n      and\n      dup2\n      mstore\n      0x20\n      add\n      swap1\n      dup2\n      mstore\n      0x20\n      add\n      0x00\n      keccak256\n      0x00\n        /* \"P2PTransfer.sol\":3503:3533  p2pTransferCount[msg.sender]++ */\n      dup2\n      sload\n      dup1\n      swap3\n      swap2\n      swap1\n      tag_378\n      swap1\n      tag_287\n      jump\t// in\n    tag_378:\n      swap2\n      swap1\n      pop\n      sstore\n      pop\n        /* \"P2PTransfer.sol\":3571:3583  bool success */\n      0x00\n        /* \"P2PTransfer.sol\":3597:3606  _receiver */\n      dup2\n        /* \"P2PTransfer.sol\":3589:3612  payable(_receiver).call */\n      0xffffffffffffffffffffffffffffffffffffffff\n      and\n        /* \"P2PTransfer.sol\":3620:3629  msg.value */\n      callvalue\n        /* \"P2PTransfer.sol\":3589:3634  payable(_receiver).call{value: msg.value}(\"\") */\n      mload(0x40)\n      tag_379\n      swap1\n      tag_292\n      jump\t// in\n    tag_379:\n      0x00\n      mload(0x40)\n      dup1\n      dup4\n      sub\n      dup2\n      dup6\n      dup8\n      gas\n      call\n      swap3\n      pop\n      pop\n      pop\n      returndatasize\n      dup1\n      0x00\n      dup2\n      eq\n      tag_382\n      jumpi\n      mload(0x40)\n      swap2\n      pop\n      and(add(returndatasize, 0x3f), not(0x1f))\n      dup3\n      add\n      0x40\n      mstore\n      returndatasize\n      dup3\n      mstore\n      returndatasize\n      0x00\n      0x20\n      dup5\n      add\n      returndatacopy\n      jump(tag_381)\n    tag_382:\n      0x60\n      swap2\n      pop\n    tag_381:\n      pop\n        /* \"P2PTransfer.sol\":3570:3634  (bool success, ) = payable(_receiver).call{value: msg.value}(\"\") */\n      pop\n      swap1\n      pop\n        /* \"P2PTransfer.sol\":3649:3656  success */\n      dup1\n        /* \"P2PTransfer.sol\":3644:3681  if (!success) revert TransferFailed() */\n      tag_383\n      jumpi\n        /* \"P2PTransfer.sol\":3665:3681  TransferFailed() */\n      mload(0x40)\n      0x90b8ec1800000000000000000000000000000000000000000000000000000000\n      dup2\n      mstore\n      0x04\n      add\n      mload(0x40)\n      dup1\n      swap2\n      sub\n      swap1\n      revert\n        /* \"P2PTransfer.sol\":3644:3681  if (!success) revert TransferFailed() */\n    tag_383:\n        /* \"P2PTransfer.sol\":3762:3803  hasRole(GAMIFICATION_ROLE, address(this)) */\n      tag_384\n        /* \"P2PTransfer.sol\":595:625  keccak256(\"GAMIFICATION_ROLE\") */\n      0x8c7e961e804af7b2059d42008de01ccc90fc88b8e6b947b02e12656ddb05ca3a\n        /* \"P2PTransfer.sol\":3797:3801  this */\n      address\n        /* \"P2PTransfer.sol\":3762:3769  hasRole */\n      tag_133\n        /* \"P2PTransfer.sol\":3762:3803  hasRole(GAMIFICATION_ROLE, address(this)) */\n      jump\t// in\n    tag_384:\n        /* \"P2PTransfer.sol\":3762:3840  hasRole(GAMIFICATION_ROLE, address(this)) && p2pTransferCount[msg.sender] == 1 */\n      dup1\n      iszero\n      tag_385\n      jumpi\n      pop\n        /* \"P2PTransfer.sol\":3839:3840  1 */\n      0x01\n        /* \"P2PTransfer.sol\":3807:3823  p2pTransferCount */\n      0x09\n        /* \"P2PTransfer.sol\":3807:3835  p2pTransferCount[msg.sender] */\n      0x00\n        /* \"P2PTransfer.sol\":3824:3834  msg.sender */\n      caller\n        /* \"P2PTransfer.sol\":3807:3835  p2pTransferCount[msg.sender] */\n      0xffffffffffffffffffffffffffffffffffffffff\n      and\n      0xffffffffffffffffffffffffffffffffffffffff\n      and\n      dup2\n      mstore\n      0x20\n      add\n      swap1\n      dup2\n      mstore\n      0x20\n      add\n      0x00\n      keccak256\n      sload\n        /* \"P2PTransfer.sol\":3807:3840  p2pTransferCount[msg.sender] == 1 */\n      eq\n        /* \"P2PTransfer.sol\":3762:3840  hasRole(GAMIFICATION_ROLE, address(this)) && p2pTransferCount[msg.sender] == 1 */\n    tag_385:\n        /* \"P2PTransfer.sol\":3758:3913  if (hasRole(GAMIFICATION_ROLE, address(this)) && p2pTransferCount[msg.sender] == 1) {... */\n      pop\n        /* \"P2PTransfer.sol\":3948:3957  _receiver */\n      dup2\n        /* \"P2PTransfer.sol\":3928:3969  P2PSent(msg.sender, _receiver, msg.value) */\n      0xffffffffffffffffffffffffffffffffffffffff\n      and\n        /* \"P2PTransfer.sol\":3936:3946  msg.sender */\n      caller\n        /* \"P2PTransfer.sol\":3928:3969  P2PSent(msg.sender, _receiver, msg.value) */\n      0xffffffffffffffffffffffffffffffffffffffff\n      and\n      0x6f998c35aaf054fd50d0fe63bf96b58876991628a4e36494637bb027e8a2e230\n        /* \"P2PTransfer.sol\":3959:3968  msg.value */\n      callvalue\n        /* \"P2PTransfer.sol\":3928:3969  P2PSent(msg.sender, _receiver, msg.value) */\n      mload(0x40)\n      tag_387\n      swap2\n      swap1\n      tag_86\n      jump\t// in\n    tag_387:\n      mload(0x40)\n      dup1\n      swap2\n      sub\n      swap1\n      log3\n        /* \"P2PTransfer.sol\":2825:3976  {... */\n      pop\n        /* \"@openzeppelin/contracts/security/ReentrancyGuard.sol\":2303:2323  _nonReentrantAfter() */\n      tag_388\n        /* \"@openzeppelin/contracts/security/ReentrancyGuard.sol\":2303:2321  _nonReentrantAfter */\n      tag_303\n        /* \"@openzeppelin/contracts/security/ReentrancyGuard.sol\":2303:2323  _nonReentrantAfter() */\n      jump\t// in\n    tag_388:\n        /* \"P2PTransfer.sol\":2704:3976  function sendP2P(address _receiver) ... */\n      pop\n      jump\t// out\n        /* \"@openzeppelin/contracts/access/AccessControl.sol\":2196:2245  bytes32 public constant DEFAULT_ADMIN_ROLE = 0x00 */\n    tag_150:\n        /* \"@openzeppelin/contracts/access/AccessControl.sol\":2241:2245  0x00 */\n      0x00\n        /* \"@openzeppelin/contracts/access/AccessControl.sol\":2196:2245  bytes32 public constant DEFAULT_ADMIN_ROLE = 0x00 */\n      0x00\n      shl\n      dup2\n      jump\t// out\n        /* \"P2PTransfer.sol\":1605:1648  uint256 public constant MAX_RECIPIENTS = 10 */\n    tag_154:\n        /* \"P2PTransfer.sol\":1646:1648  10 */\n      0x0a\n        /* \"P2PTransfer.sol\":1605:1648  uint256 public constant MAX_RECIPIENTS = 10 */\n      dup2\n      jump\t// out\n        /* \"P2PTransfer.sol\":12702:12821  function getUserP2PCount(address _user) external view returns (uint256) {... */\n    tag_159:\n        /* \"P2PTransfer.sol\":12765:12772  uint256 */\n      0x00\n        /* \"P2PTransfer.sol\":12791:12807  p2pTransferCount */\n      0x09\n        /* \"P2PTransfer.sol\":12791:12814  p2pTransferCount[_user] */\n      0x00\n        /* \"P2PTransfer.sol\":12808:12813  _user */\n      dup4\n        /* \"P2PTransfer.sol\":12791:12814  p2pTransferCount[_user] */\n      0xffffffffffffffffffffffffffffffffffffffff\n      and\n      0xffffffffffffffffffffffffffffffffffffffff\n      and\n      dup2\n      mstore\n      0x20\n      add\n      swap1\n      dup2\n      mstore\n      0x20\n      add\n      0x00\n      keccak256\n      sload\n        /* \"P2PTransfer.sol\":12784:12814  return p2pTransferCount[_user] */\n      swap1\n      pop\n        /* \"P2PTransfer.sol\":12702:12821  function getUserP2PCount(address _user) external view returns (uint256) {... */\n      swap2\n      swap1\n      pop\n      jump\t// out\n        /* \"P2PTransfer.sol\":1410:1463  mapping(address => uint256[]) public userRedEnvelopes */\n    tag_165:\n      mstore(0x20, 0x08)\n      dup2\n      0x00\n      mstore\n      keccak256(0x00, 0x40)\n      dup2\n      dup2\n      sload\n      dup2\n      lt\n      tag_390\n      jumpi\n      0x00\n      dup1\n      revert\n    tag_390:\n      swap1\n      0x00\n      mstore\n      keccak256(0x00, 0x20)\n      add\n      0x00\n      swap2\n      pop\n      swap2\n      pop\n      pop\n      sload\n      dup2\n      jump\t// out\n        /* \"P2PTransfer.sol\":1351:1404  mapping(address => uint256[]) public userTransactions */\n    tag_170:\n      mstore(0x20, 0x07)\n      dup2\n      0x00\n      mstore\n      keccak256(0x00, 0x40)\n      dup2\n      dup2\n      sload\n      dup2\n      lt\n      tag_392\n      jumpi\n      0x00\n      dup1\n      revert\n    tag_392:\n      swap1\n      0x00\n      mstore\n      keccak256(0x00, 0x20)\n      add\n      0x00\n      swap2\n      pop\n      swap2\n      pop\n      pop\n      sload\n      dup2\n      jump\t// out\n        /* \"P2PTransfer.sol\":1194:1226  uint256 public totalTransactions */\n    tag_174:\n      sload(0x04)\n      dup2\n      jump\t// out\n        /* \"P2PTransfer.sol\":551:625  bytes32 public constant GAMIFICATION_ROLE = keccak256(\"GAMIFICATION_ROLE\") */\n    tag_178:\n        /* \"P2PTransfer.sol\":595:625  keccak256(\"GAMIFICATION_ROLE\") */\n      0x8c7e961e804af7b2059d42008de01ccc90fc88b8e6b947b02e12656ddb05ca3a\n        /* \"P2PTransfer.sol\":551:625  bytes32 public constant GAMIFICATION_ROLE = keccak256(\"GAMIFICATION_ROLE\") */\n      dup2\n      jump\t// out\n        /* \"P2PTransfer.sol\":12168:12338  function getUserTransactionHistory(address _user) ... */\n    tag_183:\n        /* \"P2PTransfer.sol\":12268:12284  uint256[] memory */\n      0x60\n        /* \"P2PTransfer.sol\":12308:12324  userTransactions */\n      0x07\n        /* \"P2PTransfer.sol\":12308:12331  userTransactions[_user] */\n      0x00\n        /* \"P2PTransfer.sol\":12325:12330  _user */\n      dup4\n        /* \"P2PTransfer.sol\":12308:12331  userTransactions[_user] */\n      0xffffffffffffffffffffffffffffffffffffffff\n      and\n      0xffffffffffffffffffffffffffffffffffffffff\n      and\n      dup2\n      mstore\n      0x20\n      add\n      swap1\n      dup2\n      mstore\n      0x20\n      add\n      0x00\n      keccak256\n        /* \"P2PTransfer.sol\":12301:12331  return userTransactions[_user] */\n      dup1\n      sload\n      dup1\n      0x20\n      mul\n      0x20\n      add\n      mload(0x40)\n      swap1\n      dup2\n      add\n      0x40\n      mstore\n      dup1\n      swap3\n      swap2\n      swap1\n      dup2\n      dup2\n      mstore\n      0x20\n      add\n      dup3\n      dup1\n      sload\n      dup1\n      iszero\n      tag_395\n      jumpi\n      0x20\n      mul\n      dup3\n      add\n      swap2\n      swap1\n      0x00\n      mstore\n      keccak256(0x00, 0x20)\n      swap1\n    tag_396:\n      dup2\n      sload\n      dup2\n      mstore\n      0x20\n      add\n      swap1\n      0x01\n      add\n      swap1\n      dup1\n      dup4\n      gt\n      tag_396\n      jumpi\n    tag_395:\n      pop\n      pop\n      pop\n      pop\n      pop\n      swap1\n      pop\n        /* \"P2PTransfer.sol\":12168:12338  function getUserTransactionHistory(address _user) ... */\n      swap2\n      swap1\n      pop\n      jump\t// out\n        /* \"P2PTransfer.sol\":12344:12508  function getUserRedEnvelopes(address _user) ... */\n    tag_189:\n        /* \"P2PTransfer.sol\":12438:12454  uint256[] memory */\n      0x60\n        /* \"P2PTransfer.sol\":12478:12494  userRedEnvelopes */\n      0x08\n        /* \"P2PTransfer.sol\":12478:12501  userRedEnvelopes[_user] */\n      0x00\n        /* \"P2PTransfer.sol\":12495:12500  _user */\n      dup4\n        /* \"P2PTransfer.sol\":12478:12501  userRedEnvelopes[_user] */\n      0xffffffffffffffffffffffffffffffffffffffff\n      and\n      0xffffffffffffffffffffffffffffffffffffffff\n      and\n      dup2\n      mstore\n      0x20\n      add\n      swap1\n      dup2\n      mstore\n      0x20\n      add\n      0x00\n      keccak256\n        /* \"P2PTransfer.sol\":12471:12501  return userRedEnvelopes[_user] */\n      dup1\n      sload\n      dup1\n      0x20\n      mul\n      0x20\n      add\n      mload(0x40)\n      swap1\n      dup2\n      add\n      0x40\n      mstore\n      dup1\n      swap3\n      swap2\n      swap1\n      dup2\n      dup2\n      mstore\n      0x20\n      add\n      dup3\n      dup1\n      sload\n      dup1\n      iszero\n      tag_398\n      jumpi\n      0x20\n      mul\n      dup3\n      add\n      swap2\n      swap1\n      0x00\n      mstore\n      keccak256(0x00, 0x20)\n      swap1\n    tag_399:\n      dup2\n      sload\n      dup2\n      mstore\n      0x20\n      add\n      swap1\n      0x01\n      add\n      swap1\n      dup1\n      dup4\n      gt\n      tag_399\n      jumpi\n    tag_398:\n      pop\n      pop\n      pop\n      pop\n      pop\n      swap1\n      pop\n        /* \"P2PTransfer.sol\":12344:12508  function getUserRedEnvelopes(address _user) ... */\n      swap2\n      swap1\n      pop\n      jump\t// out\n        /* \"@openzeppelin/contracts/access/AccessControl.sol\":4618:4756  function revokeRole(bytes32 role, address account) public virtual onlyRole(getRoleAdmin(role)) {... */\n    tag_194:\n        /* \"@openzeppelin/contracts/access/AccessControl.sol\":4693:4711  getRoleAdmin(role) */\n      tag_400\n        /* \"@openzeppelin/contracts/access/AccessControl.sol\":4706:4710  role */\n      dup3\n        /* \"@openzeppelin/contracts/access/AccessControl.sol\":4693:4705  getRoleAdmin */\n      tag_70\n        /* \"@openzeppelin/contracts/access/AccessControl.sol\":4693:4711  getRoleAdmin(role) */\n      jump\t// in\n    tag_400:\n        /* \"@openzeppelin/contracts/access/AccessControl.sol\":2473:2489  _checkRole(role) */\n      tag_402\n        /* \"@openzeppelin/contracts/access/AccessControl.sol\":2484:2488  role */\n      dup2\n        /* \"@openzeppelin/contracts/access/AccessControl.sol\":2473:2483  _checkRole */\n      tag_248\n        /* \"@openzeppelin/contracts/access/AccessControl.sol\":2473:2489  _checkRole(role) */\n      jump\t// in\n    tag_402:\n        /* \"@openzeppelin/contracts/access/AccessControl.sol\":4723:4749  _revokeRole(role, account) */\n      tag_404\n        /* \"@openzeppelin/contracts/access/AccessControl.sol\":4735:4739  role */\n      dup4\n        /* \"@openzeppelin/contracts/access/AccessControl.sol\":4741:4748  account */\n      dup4\n        /* \"@openzeppelin/contracts/access/AccessControl.sol\":4723:4734  _revokeRole */\n      tag_257\n        /* \"@openzeppelin/contracts/access/AccessControl.sol\":4723:4749  _revokeRole(role, account) */\n      jump\t// in\n    tag_404:\n      pop\n        /* \"@openzeppelin/contracts/access/AccessControl.sol\":4618:4756  function revokeRole(bytes32 role, address account) public virtual onlyRole(getRoleAdmin(role)) {... */\n      pop\n      pop\n      pop\n      jump\t// out\n        /* \"P2PTransfer.sol\":1237:1288  mapping(uint256 => RedEnvelope) public redEnvelopes */\n    tag_198:\n      mstore(0x20, 0x05)\n      dup1\n      0x00\n      mstore\n      keccak256(0x00, 0x40)\n      0x00\n      swap2\n      pop\n      swap1\n      pop\n      dup1\n      0x00\n      add\n      0x00\n      swap1\n      sload\n      swap1\n      0x0100\n      exp\n      swap1\n      div\n      0xffffffffffffffffffffffffffffffffffffffff\n      and\n      swap1\n      dup1\n      0x02\n      add\n      sload\n      swap1\n      dup1\n      0x04\n      add\n      0x00\n      swap1\n      sload\n      swap1\n      0x0100\n      exp\n      swap1\n      div\n      0xff\n      and\n      swap1\n      dup1\n      0x06\n      add\n      sload\n      swap1\n      dup1\n      0x07\n      add\n      sload\n      swap1\n      dup1\n      0x08\n      add\n      dup1\n      sload\n      tag_405\n      swap1\n      tag_229\n      jump\t// in\n    tag_405:\n      dup1\n      0x1f\n      add\n      0x20\n      dup1\n      swap2\n      div\n      mul\n      0x20\n      add\n      mload(0x40)\n      swap1\n      dup2\n      add\n      0x40\n      mstore\n      dup1\n      swap3\n      swap2\n      swap1\n      dup2\n      dup2\n      mstore\n      0x20\n      add\n      dup3\n      dup1\n      sload\n      tag_406\n      swap1\n      tag_229\n      jump\t// in\n    tag_406:\n      dup1\n      iszero\n      tag_407\n      jumpi\n      dup1\n      0x1f\n      lt\n      tag_408\n      jumpi\n      0x0100\n      dup1\n      dup4\n      sload\n      div\n      mul\n      dup4\n      mstore\n      swap2\n      0x20\n      add\n      swap2\n      jump(tag_407)\n    tag_408:\n      dup3\n      add\n      swap2\n      swap1\n      0x00\n      mstore\n      keccak256(0x00, 0x20)\n      swap1\n    tag_409:\n      dup2\n      sload\n      dup2\n      mstore\n      swap1\n      0x01\n      add\n      swap1\n      0x20\n      add\n      dup1\n      dup4\n      gt\n      tag_409\n      jumpi\n      dup3\n      swap1\n      sub\n      0x1f\n      and\n      dup3\n      add\n      swap2\n    tag_407:\n      pop\n      pop\n      pop\n      pop\n      pop\n      swap1\n      dup1\n      0x09\n      add\n      0x00\n      swap1\n      sload\n      swap1\n      0x0100\n      exp\n      swap1\n      div\n      0xff\n      and\n      swap1\n      pop\n      dup8\n      jump\t// out\n        /* \"P2PTransfer.sol\":12987:13214  function setMaxRedEnvelopeAmount(uint256 _maxAmount) external onlyRole(ADMIN_ROLE) {... */\n    tag_204:\n        /* \"P2PTransfer.sol\":522:545  keccak256(\"ADMIN_ROLE\") */\n      0xa49807205ce4d355092ef5a8a18f56e8913cf4a201fbe287825b095693c21775\n        /* \"@openzeppelin/contracts/access/AccessControl.sol\":2473:2489  _checkRole(role) */\n      tag_411\n        /* \"@openzeppelin/contracts/access/AccessControl.sol\":2484:2488  role */\n      dup2\n        /* \"@openzeppelin/contracts/access/AccessControl.sol\":2473:2483  _checkRole */\n      tag_248\n        /* \"@openzeppelin/contracts/access/AccessControl.sol\":2473:2489  _checkRole(role) */\n      jump\t// in\n    tag_411:\n        /* \"P2PTransfer.sol\":12987:13214  function setMaxRedEnvelopeAmount(uint256 _maxAmount) external onlyRole(ADMIN_ROLE) {... */\n      pop\n      pop\n      jump\t// out\n        /* \"P2PTransfer.sol\":13635:13880  function emergencyWithdraw() external onlyRole(ADMIN_ROLE) {... */\n    tag_207:\n        /* \"P2PTransfer.sol\":522:545  keccak256(\"ADMIN_ROLE\") */\n      0xa49807205ce4d355092ef5a8a18f56e8913cf4a201fbe287825b095693c21775\n        /* \"@openzeppelin/contracts/access/AccessControl.sol\":2473:2489  _checkRole(role) */\n      tag_414\n        /* \"@openzeppelin/contracts/access/AccessControl.sol\":2484:2488  role */\n      dup2\n        /* \"@openzeppelin/contracts/access/AccessControl.sol\":2473:2483  _checkRole */\n      tag_248\n        /* \"@openzeppelin/contracts/access/AccessControl.sol\":2473:2489  _checkRole(role) */\n      jump\t// in\n    tag_414:\n        /* \"P2PTransfer.sol\":13704:13719  uint256 balance */\n      0x00\n        /* \"P2PTransfer.sol\":13722:13743  address(this).balance */\n      selfbalance\n        /* \"P2PTransfer.sol\":13704:13743  uint256 balance = address(this).balance */\n      swap1\n      pop\n        /* \"P2PTransfer.sol\":13754:13766  bool success */\n      0x00\n        /* \"P2PTransfer.sol\":13780:13790  msg.sender */\n      caller\n        /* \"P2PTransfer.sol\":13772:13796  payable(msg.sender).call */\n      0xffffffffffffffffffffffffffffffffffffffff\n      and\n        /* \"P2PTransfer.sol\":13804:13811  balance */\n      dup3\n        /* \"P2PTransfer.sol\":13772:13816  payable(msg.sender).call{value: balance}(\"\") */\n      mload(0x40)\n      tag_416\n      swap1\n      tag_292\n      jump\t// in\n    tag_416:\n      0x00\n      mload(0x40)\n      dup1\n      dup4\n      sub\n      dup2\n      dup6\n      dup8\n      gas\n      call\n      swap3\n      pop\n      pop\n      pop\n      returndatasize\n      dup1\n      0x00\n      dup2\n      eq\n      tag_419\n      jumpi\n      mload(0x40)\n      swap2\n      pop\n      and(add(returndatasize, 0x3f), not(0x1f))\n      dup3\n      add\n      0x40\n      mstore\n      returndatasize\n      dup3\n      mstore\n      returndatasize\n      0x00\n      0x20\n      dup5\n      add\n      returndatacopy\n      jump(tag_418)\n    tag_419:\n      0x60\n      swap2\n      pop\n    tag_418:\n      pop\n        /* \"P2PTransfer.sol\":13753:13816  (bool success, ) = payable(msg.sender).call{value: balance}(\"\") */\n      pop\n      swap1\n      pop\n        /* \"P2PTransfer.sol\":13834:13841  success */\n      dup1\n        /* \"P2PTransfer.sol\":13826:13873  require(success, \"Emergency withdrawal failed\") */\n      tag_420\n      jumpi\n      mload(0x40)\n      0x08c379a000000000000000000000000000000000000000000000000000000000\n      dup2\n      mstore\n      0x04\n      add\n      tag_421\n      swap1\n      tag_422\n      jump\t// in\n    tag_421:\n      mload(0x40)\n      dup1\n      swap2\n      sub\n      swap1\n      revert\n    tag_420:\n        /* \"P2PTransfer.sol\":13694:13880  {... */\n      pop\n      pop\n        /* \"P2PTransfer.sol\":13635:13880  function emergencyWithdraw() external onlyRole(ADMIN_ROLE) {... */\n      pop\n      jump\t// out\n        /* \"P2PTransfer.sol\":1469:1520  mapping(address => uint256) public p2pTransferCount */\n    tag_211:\n      mstore(0x20, 0x09)\n      dup1\n      0x00\n      mstore\n      keccak256(0x00, 0x40)\n      0x00\n      swap2\n      pop\n      swap1\n      pop\n      sload\n      dup2\n      jump\t// out\n        /* \"P2PTransfer.sol\":1654:1714  uint256 public constant MAX_RED_ENVELOPE_AMOUNT = 0.01 ether */\n    tag_215:\n        /* \"P2PTransfer.sol\":1704:1714  0.01 ether */\n      0x2386f26fc10000\n        /* \"P2PTransfer.sol\":1654:1714  uint256 public constant MAX_RED_ENVELOPE_AMOUNT = 0.01 ether */\n      dup2\n      jump\t// out\n        /* \"P2PTransfer.sol\":10024:11212  function expireRedEnvelope(uint256 _envelopeId) external whenNotPaused nonReentrant {... */\n    tag_220:\n        /* \"@openzeppelin/contracts/security/Pausable.sol\":1239:1258  _requireNotPaused() */\n      tag_424\n        /* \"@openzeppelin/contracts/security/Pausable.sol\":1239:1256  _requireNotPaused */\n      tag_268\n        /* \"@openzeppelin/contracts/security/Pausable.sol\":1239:1258  _requireNotPaused() */\n      jump\t// in\n    tag_424:\n        /* \"@openzeppelin/contracts/security/ReentrancyGuard.sol\":2261:2282  _nonReentrantBefore() */\n      tag_426\n        /* \"@openzeppelin/contracts/security/ReentrancyGuard.sol\":2261:2280  _nonReentrantBefore */\n      tag_271\n        /* \"@openzeppelin/contracts/security/ReentrancyGuard.sol\":2261:2282  _nonReentrantBefore() */\n      jump\t// in\n    tag_426:\n        /* \"P2PTransfer.sol\":10137:10138  0 */\n      0x00\n        /* \"P2PTransfer.sol\":10122:10133  _envelopeId */\n      dup2\n        /* \"P2PTransfer.sol\":10122:10138  _envelopeId == 0 */\n      eq\n        /* \"P2PTransfer.sol\":10122:10172  _envelopeId == 0 || _envelopeId > redEnvelopeCount */\n      dup1\n      tag_428\n      jumpi\n      pop\n        /* \"P2PTransfer.sol\":10156:10172  redEnvelopeCount */\n      sload(0x03)\n        /* \"P2PTransfer.sol\":10142:10153  _envelopeId */\n      dup2\n        /* \"P2PTransfer.sol\":10142:10172  _envelopeId > redEnvelopeCount */\n      gt\n        /* \"P2PTransfer.sol\":10122:10172  _envelopeId == 0 || _envelopeId > redEnvelopeCount */\n    tag_428:\n        /* \"P2PTransfer.sol\":10118:10202  if (_envelopeId == 0 || _envelopeId > redEnvelopeCount) revert RedEnvelopeNotFound() */\n      iszero\n      tag_429\n      jumpi\n        /* \"P2PTransfer.sol\":10181:10202  RedEnvelopeNotFound() */\n      mload(0x40)\n      0xb817e7dd00000000000000000000000000000000000000000000000000000000\n      dup2\n      mstore\n      0x04\n      add\n      mload(0x40)\n      dup1\n      swap2\n      sub\n      swap1\n      revert\n        /* \"P2PTransfer.sol\":10118:10202  if (_envelopeId == 0 || _envelopeId > redEnvelopeCount) revert RedEnvelopeNotFound() */\n    tag_429:\n        /* \"P2PTransfer.sol\":10221:10249  RedEnvelope storage envelope */\n      0x00\n        /* \"P2PTransfer.sol\":10252:10264  redEnvelopes */\n      0x05\n        /* \"P2PTransfer.sol\":10252:10277  redEnvelopes[_envelopeId] */\n      0x00\n        /* \"P2PTransfer.sol\":10265:10276  _envelopeId */\n      dup4\n        /* \"P2PTransfer.sol\":10252:10277  redEnvelopes[_envelopeId] */\n      dup2\n      mstore\n      0x20\n      add\n      swap1\n      dup2\n      mstore\n      0x20\n      add\n      0x00\n      keccak256\n        /* \"P2PTransfer.sol\":10221:10277  RedEnvelope storage envelope = redEnvelopes[_envelopeId] */\n      swap1\n      pop\n        /* \"P2PTransfer.sol\":10381:10389  envelope */\n      dup1\n        /* \"P2PTransfer.sol\":10381:10396  envelope.sender */\n      0x00\n      add\n      0x00\n      swap1\n      sload\n      swap1\n      0x0100\n      exp\n      swap1\n      div\n      0xffffffffffffffffffffffffffffffffffffffff\n      and\n        /* \"P2PTransfer.sol\":10367:10396  msg.sender == envelope.sender */\n      0xffffffffffffffffffffffffffffffffffffffff\n      and\n        /* \"P2PTransfer.sol\":10367:10377  msg.sender */\n      caller\n        /* \"P2PTransfer.sol\":10367:10396  msg.sender == envelope.sender */\n      0xffffffffffffffffffffffffffffffffffffffff\n      and\n      eq\n        /* \"P2PTransfer.sol\":10367:10459  msg.sender == envelope.sender || ... */\n      dup1\n      tag_430\n      jumpi\n      pop\n        /* \"P2PTransfer.sol\":10453:10459  7 days */\n      0x093a80\n        /* \"P2PTransfer.sol\":10432:10440  envelope */\n      dup2\n        /* \"P2PTransfer.sol\":10432:10450  envelope.createdAt */\n      0x07\n      add\n      sload\n        /* \"P2PTransfer.sol\":10432:10459  envelope.createdAt + 7 days */\n      tag_431\n      swap2\n      swap1\n      tag_348\n      jump\t// in\n    tag_431:\n        /* \"P2PTransfer.sol\":10413:10428  block.timestamp */\n      timestamp\n        /* \"P2PTransfer.sol\":10413:10459  block.timestamp >= envelope.createdAt + 7 days */\n      lt\n      iszero\n        /* \"P2PTransfer.sol\":10367:10459  msg.sender == envelope.sender || ... */\n    tag_430:\n        /* \"P2PTransfer.sol\":10346:10502  require(... */\n      tag_432\n      jumpi\n      mload(0x40)\n      0x08c379a000000000000000000000000000000000000000000000000000000000\n      dup2\n      mstore\n      0x04\n      add\n      tag_433\n      swap1\n      tag_434\n      jump\t// in\n    tag_433:\n      mload(0x40)\n      dup1\n      swap2\n      sub\n      swap1\n      revert\n    tag_432:\n        /* \"P2PTransfer.sol\":10526:10534  envelope */\n      dup1\n        /* \"P2PTransfer.sol\":10526:10543  envelope.isActive */\n      0x09\n      add\n      0x00\n      swap1\n      sload\n      swap1\n      0x0100\n      exp\n      swap1\n      div\n      0xff\n      and\n        /* \"P2PTransfer.sol\":10521:10579  if (!envelope.isActive) revert RedEnvelopeAlreadyExpired() */\n      tag_435\n      jumpi\n        /* \"P2PTransfer.sol\":10552:10579  RedEnvelopeAlreadyExpired() */\n      mload(0x40)\n      0x5d43425900000000000000000000000000000000000000000000000000000000\n      dup2\n      mstore\n      0x04\n      add\n      mload(0x40)\n      dup1\n      swap2\n      sub\n      swap1\n      revert\n        /* \"P2PTransfer.sol\":10521:10579  if (!envelope.isActive) revert RedEnvelopeAlreadyExpired() */\n    tag_435:\n        /* \"P2PTransfer.sol\":10618:10623  false */\n      0x00\n        /* \"P2PTransfer.sol\":10598:10606  envelope */\n      dup2\n        /* \"P2PTransfer.sol\":10598:10615  envelope.isActive */\n      0x09\n      add\n      0x00\n        /* \"P2PTransfer.sol\":10598:10623  envelope.isActive = false */\n      0x0100\n      exp\n      dup2\n      sload\n      dup2\n      0xff\n      mul\n      not\n      and\n      swap1\n      dup4\n      iszero\n      iszero\n      mul\n      or\n      swap1\n      sstore\n      pop\n        /* \"P2PTransfer.sol\":10680:10703  uint256 unclaimedAmount */\n      0x00\n        /* \"P2PTransfer.sol\":10706:10707  0 */\n      0x00\n        /* \"P2PTransfer.sol\":10680:10707  uint256 unclaimedAmount = 0 */\n      swap1\n      pop\n        /* \"P2PTransfer.sol\":10722:10731  uint256 i */\n      0x00\n        /* \"P2PTransfer.sol\":10734:10735  0 */\n      0x00\n        /* \"P2PTransfer.sol\":10722:10735  uint256 i = 0 */\n      swap1\n      pop\n        /* \"P2PTransfer.sol\":10717:10916  for (uint256 i = 0; i < envelope.recipients.length; i++) {... */\n    tag_436:\n        /* \"P2PTransfer.sol\":10741:10749  envelope */\n      dup3\n        /* \"P2PTransfer.sol\":10741:10760  envelope.recipients */\n      0x01\n      add\n        /* \"P2PTransfer.sol\":10741:10767  envelope.recipients.length */\n      dup1\n      sload\n      swap1\n      pop\n        /* \"P2PTransfer.sol\":10737:10738  i */\n      dup2\n        /* \"P2PTransfer.sol\":10737:10767  i < envelope.recipients.length */\n      lt\n        /* \"P2PTransfer.sol\":10717:10916  for (uint256 i = 0; i < envelope.recipients.length; i++) {... */\n      iszero\n      tag_437\n      jumpi\n        /* \"P2PTransfer.sol\":10793:10801  envelope */\n      dup3\n        /* \"P2PTransfer.sol\":10793:10809  envelope.claimed */\n      0x05\n      add\n        /* \"P2PTransfer.sol\":10793:10833  envelope.claimed[envelope.recipients[i]] */\n      0x00\n        /* \"P2PTransfer.sol\":10810:10818  envelope */\n      dup5\n        /* \"P2PTransfer.sol\":10810:10829  envelope.recipients */\n      0x01\n      add\n        /* \"P2PTransfer.sol\":10830:10831  i */\n      dup4\n        /* \"P2PTransfer.sol\":10810:10832  envelope.recipients[i] */\n      dup2\n      sload\n      dup2\n      lt\n      tag_439\n      jumpi\n      tag_440\n      tag_282\n      jump\t// in\n    tag_440:\n    tag_439:\n      swap1\n      0x00\n      mstore\n      keccak256(0x00, 0x20)\n      add\n      0x00\n      swap1\n      sload\n      swap1\n      0x0100\n      exp\n      swap1\n      div\n      0xffffffffffffffffffffffffffffffffffffffff\n      and\n        /* \"P2PTransfer.sol\":10793:10833  envelope.claimed[envelope.recipients[i]] */\n      0xffffffffffffffffffffffffffffffffffffffff\n      and\n      0xffffffffffffffffffffffffffffffffffffffff\n      and\n      dup2\n      mstore\n      0x20\n      add\n      swap1\n      dup2\n      mstore\n      0x20\n      add\n      0x00\n      keccak256\n      0x00\n      swap1\n      sload\n      swap1\n      0x0100\n      exp\n      swap1\n      div\n      0xff\n      and\n        /* \"P2PTransfer.sol\":10788:10906  if (!envelope.claimed[envelope.recipients[i]]) {... */\n      tag_442\n      jumpi\n        /* \"P2PTransfer.sol\":10872:10880  envelope */\n      dup3\n        /* \"P2PTransfer.sol\":10872:10888  envelope.amounts */\n      0x03\n      add\n        /* \"P2PTransfer.sol\":10889:10890  i */\n      dup2\n        /* \"P2PTransfer.sol\":10872:10891  envelope.amounts[i] */\n      dup2\n      sload\n      dup2\n      lt\n      tag_443\n      jumpi\n      tag_444\n      tag_282\n      jump\t// in\n    tag_444:\n    tag_443:\n      swap1\n      0x00\n      mstore\n      keccak256(0x00, 0x20)\n      add\n      sload\n        /* \"P2PTransfer.sol\":10853:10891  unclaimedAmount += envelope.amounts[i] */\n      dup3\n      tag_446\n      swap2\n      swap1\n      tag_348\n      jump\t// in\n    tag_446:\n      swap2\n      pop\n        /* \"P2PTransfer.sol\":10788:10906  if (!envelope.claimed[envelope.recipients[i]]) {... */\n    tag_442:\n        /* \"P2PTransfer.sol\":10769:10772  i++ */\n      dup1\n      dup1\n      0x01\n      add\n      swap2\n      pop\n      pop\n        /* \"P2PTransfer.sol\":10717:10916  for (uint256 i = 0; i < envelope.recipients.length; i++) {... */\n      jump(tag_436)\n    tag_437:\n      pop\n        /* \"P2PTransfer.sol\":11000:11001  0 */\n      0x00\n        /* \"P2PTransfer.sol\":10982:10997  unclaimedAmount */\n      dup2\n        /* \"P2PTransfer.sol\":10982:11001  unclaimedAmount > 0 */\n      gt\n        /* \"P2PTransfer.sol\":10978:11151  if (unclaimedAmount > 0) {... */\n      iszero\n      tag_447\n      jumpi\n        /* \"P2PTransfer.sol\":11018:11030  bool success */\n      0x00\n        /* \"P2PTransfer.sol\":11044:11052  envelope */\n      dup3\n        /* \"P2PTransfer.sol\":11044:11059  envelope.sender */\n      0x00\n      add\n      0x00\n      swap1\n      sload\n      swap1\n      0x0100\n      exp\n      swap1\n      div\n      0xffffffffffffffffffffffffffffffffffffffff\n      and\n        /* \"P2PTransfer.sol\":11036:11065  payable(envelope.sender).call */\n      0xffffffffffffffffffffffffffffffffffffffff\n      and\n        /* \"P2PTransfer.sol\":11073:11088  unclaimedAmount */\n      dup3\n        /* \"P2PTransfer.sol\":11036:11093  payable(envelope.sender).call{value: unclaimedAmount}(\"\") */\n      mload(0x40)\n      tag_448\n      swap1\n      tag_292\n      jump\t// in\n    tag_448:\n      0x00\n      mload(0x40)\n      dup1\n      dup4\n      sub\n      dup2\n      dup6\n      dup8\n      gas\n      call\n      swap3\n      pop\n      pop\n      pop\n      returndatasize\n      dup1\n      0x00\n      dup2\n      eq\n      tag_451\n      jumpi\n      mload(0x40)\n      swap2\n      pop\n      and(add(returndatasize, 0x3f), not(0x1f))\n      dup3\n      add\n      0x40\n      mstore\n      returndatasize\n      dup3\n      mstore\n      returndatasize\n      0x00\n      0x20\n      dup5\n      add\n      returndatacopy\n      jump(tag_450)\n    tag_451:\n      0x60\n      swap2\n      pop\n    tag_450:\n      pop\n        /* \"P2PTransfer.sol\":11017:11093  (bool success, ) = payable(envelope.sender).call{value: unclaimedAmount}(\"\") */\n      pop\n      swap1\n      pop\n        /* \"P2PTransfer.sol\":11115:11122  success */\n      dup1\n        /* \"P2PTransfer.sol\":11107:11140  require(success, \"Refund failed\") */\n      tag_452\n      jumpi\n      mload(0x40)\n      0x08c379a000000000000000000000000000000000000000000000000000000000\n      dup2\n      mstore\n      0x04\n      add\n      tag_453\n      swap1\n      tag_454\n      jump\t// in\n    tag_453:\n      mload(0x40)\n      dup1\n      swap2\n      sub\n      swap1\n      revert\n    tag_452:\n        /* \"P2PTransfer.sol\":11003:11151  {... */\n      pop\n        /* \"P2PTransfer.sol\":10978:11151  if (unclaimedAmount > 0) {... */\n    tag_447:\n        /* \"P2PTransfer.sol\":11193:11204  _envelopeId */\n      dup3\n        /* \"P2PTransfer.sol\":11174:11205  RedEnvelopeExpired(_envelopeId) */\n      0xdbc83cb6e4a23b5efcb48571a7ee8bdec0789b58f8f3ec922f3cd2b18947dc52\n      mload(0x40)\n      mload(0x40)\n      dup1\n      swap2\n      sub\n      swap1\n      log2\n        /* \"P2PTransfer.sol\":10108:11212  {... */\n      pop\n      pop\n        /* \"@openzeppelin/contracts/security/ReentrancyGuard.sol\":2303:2323  _nonReentrantAfter() */\n      tag_455\n        /* \"@openzeppelin/contracts/security/ReentrancyGuard.sol\":2303:2321  _nonReentrantAfter */\n      tag_303\n        /* \"@openzeppelin/contracts/security/ReentrancyGuard.sol\":2303:2323  _nonReentrantAfter() */\n      jump\t// in\n    tag_455:\n        /* \"P2PTransfer.sol\":10024:11212  function expireRedEnvelope(uint256 _envelopeId) external whenNotPaused nonReentrant {... */\n      pop\n      jump\t// out\n        /* \"@openzeppelin/contracts/utils/introspection/ERC165.sol\":730:876  function supportsInterface(bytes4 interfaceId) public view virtual returns (bool) {... */\n    tag_224:\n        /* \"@openzeppelin/contracts/utils/introspection/ERC165.sol\":806:810  bool */\n      0x00\n        /* \"@openzeppelin/contracts/utils/introspection/ERC165.sol\":844:869  type(IERC165).interfaceId */\n      0x01ffc9a700000000000000000000000000000000000000000000000000000000\n        /* \"@openzeppelin/contracts/utils/introspection/ERC165.sol\":829:869  interfaceId == type(IERC165).interfaceId */\n      not(0xffffffffffffffffffffffffffffffffffffffffffffffffffffffff)\n      and\n        /* \"@openzeppelin/contracts/utils/introspection/ERC165.sol\":829:840  interfaceId */\n      dup3\n        /* \"@openzeppelin/contracts/utils/introspection/ERC165.sol\":829:869  interfaceId == type(IERC165).interfaceId */\n      not(0xffffffffffffffffffffffffffffffffffffffffffffffffffffffff)\n      and\n      eq\n        /* \"@openzeppelin/contracts/utils/introspection/ERC165.sol\":822:869  return interfaceId == type(IERC165).interfaceId */\n      swap1\n      pop\n        /* \"@openzeppelin/contracts/utils/introspection/ERC165.sol\":730:876  function supportsInterface(bytes4 interfaceId) public view virtual returns (bool) {... */\n      swap2\n      swap1\n      pop\n      jump\t// out\n        /* \"@openzeppelin/contracts/access/AccessControl.sol\":3175:3278  function _checkRole(bytes32 role) internal view virtual {... */\n    tag_248:\n        /* \"@openzeppelin/contracts/access/AccessControl.sol\":3241:3271  _checkRole(role, _msgSender()) */\n      tag_458\n        /* \"@openzeppelin/contracts/access/AccessControl.sol\":3252:3256  role */\n      dup2\n        /* \"@openzeppelin/contracts/access/AccessControl.sol\":3258:3270  _msgSender() */\n      tag_459\n        /* \"@openzeppelin/contracts/access/AccessControl.sol\":3258:3268  _msgSender */\n      tag_254\n        /* \"@openzeppelin/contracts/access/AccessControl.sol\":3258:3270  _msgSender() */\n      jump\t// in\n    tag_459:\n        /* \"@openzeppelin/contracts/access/AccessControl.sol\":3241:3251  _checkRole */\n      tag_460\n        /* \"@openzeppelin/contracts/access/AccessControl.sol\":3241:3271  _checkRole(role, _msgSender()) */\n      jump\t// in\n    tag_458:\n        /* \"@openzeppelin/contracts/access/AccessControl.sol\":3175:3278  function _checkRole(bytes32 role) internal view virtual {... */\n      pop\n      jump\t// out\n        /* \"@openzeppelin/contracts/access/AccessControl.sol\":6155:6471  function _grantRole(bytes32 role, address account) internal virtual returns (bool) {... */\n    tag_251:\n        /* \"@openzeppelin/contracts/access/AccessControl.sol\":6232:6236  bool */\n      0x00\n        /* \"@openzeppelin/contracts/access/AccessControl.sol\":6253:6275  hasRole(role, account) */\n      tag_462\n        /* \"@openzeppelin/contracts/access/AccessControl.sol\":6261:6265  role */\n      dup4\n        /* \"@openzeppelin/contracts/access/AccessControl.sol\":6267:6274  account */\n      dup4\n        /* \"@openzeppelin/contracts/access/AccessControl.sol\":6253:6260  hasRole */\n      tag_133\n        /* \"@openzeppelin/contracts/access/AccessControl.sol\":6253:6275  hasRole(role, account) */\n      jump\t// in\n    tag_462:\n        /* \"@openzeppelin/contracts/access/AccessControl.sol\":6248:6465  if (!hasRole(role, account)) {... */\n      tag_463\n      jumpi\n        /* \"@openzeppelin/contracts/access/AccessControl.sol\":6323:6327  true */\n      0x01\n        /* \"@openzeppelin/contracts/access/AccessControl.sol\":6291:6297  _roles */\n      0x02\n        /* \"@openzeppelin/contracts/access/AccessControl.sol\":6291:6303  _roles[role] */\n      0x00\n        /* \"@openzeppelin/contracts/access/AccessControl.sol\":6298:6302  role */\n      dup6\n        /* \"@openzeppelin/contracts/access/AccessControl.sol\":6291:6303  _roles[role] */\n      dup2\n      mstore\n      0x20\n      add\n      swap1\n      dup2\n      mstore\n      0x20\n      add\n      0x00\n      keccak256\n        /* \"@openzeppelin/contracts/access/AccessControl.sol\":6291:6311  _roles[role].hasRole */\n      0x00\n      add\n        /* \"@openzeppelin/contracts/access/AccessControl.sol\":6291:6320  _roles[role].hasRole[account] */\n      0x00\n        /* \"@openzeppelin/contracts/access/AccessControl.sol\":6312:6319  account */\n      dup5\n        /* \"@openzeppelin/contracts/access/AccessControl.sol\":6291:6320  _roles[role].hasRole[account] */\n      0xffffffffffffffffffffffffffffffffffffffff\n      and\n      0xffffffffffffffffffffffffffffffffffffffff\n      and\n      dup2\n      mstore\n      0x20\n      add\n      swap1\n      dup2\n      mstore\n      0x20\n      add\n      0x00\n      keccak256\n      0x00\n        /* \"@openzeppelin/contracts/access/AccessControl.sol\":6291:6327  _roles[role].hasRole[account] = true */\n      0x0100\n      exp\n      dup2\n      sload\n      dup2\n      0xff\n      mul\n      not\n      and\n      swap1\n      dup4\n      iszero\n      iszero\n      mul\n      or\n      swap1\n      sstore\n      pop\n        /* \"@openzeppelin/contracts/access/AccessControl.sol\":6373:6385  _msgSender() */\n      tag_464\n        /* \"@openzeppelin/contracts/access/AccessControl.sol\":6373:6383  _msgSender */\n      tag_254\n        /* \"@openzeppelin/contracts/access/AccessControl.sol\":6373:6385  _msgSender() */\n      jump\t// in\n    tag_464:\n        /* \"@openzeppelin/contracts/access/AccessControl.sol\":6346:6386  RoleGranted(role, account, _msgSender()) */\n      0xffffffffffffffffffffffffffffffffffffffff\n      and\n        /* \"@openzeppelin/contracts/access/AccessControl.sol\":6364:6371  account */\n      dup3\n        /* \"@openzeppelin/contracts/access/AccessControl.sol\":6346:6386  RoleGranted(role, account, _msgSender()) */\n      0xffffffffffffffffffffffffffffffffffffffff\n      and\n        /* \"@openzeppelin/contracts/access/AccessControl.sol\":6358:6362  role */\n      dup5\n        /* \"@openzeppelin/contracts/access/AccessControl.sol\":6346:6386  RoleGranted(role, account, _msgSender()) */\n      0x2f8788117e7eff1d82e926ec794901d17c78024a50270940304540a733656f0d\n      mload(0x40)\n      mload(0x40)\n      dup1\n      swap2\n      sub\n      swap1\n      log4\n        /* \"@openzeppelin/contracts/access/AccessControl.sol\":6407:6411  true */\n      0x01\n        /* \"@openzeppelin/contracts/access/AccessControl.sol\":6400:6411  return true */\n      swap1\n      pop\n      jump(tag_461)\n        /* \"@openzeppelin/contracts/access/AccessControl.sol\":6248:6465  if (!hasRole(role, account)) {... */\n    tag_463:\n        /* \"@openzeppelin/contracts/access/AccessControl.sol\":6449:6454  false */\n      0x00\n        /* \"@openzeppelin/contracts/access/AccessControl.sol\":6442:6454  return false */\n      swap1\n      pop\n        /* \"@openzeppelin/contracts/access/AccessControl.sol\":6155:6471  function _grantRole(bytes32 role, address account) internal virtual returns (bool) {... */\n    tag_461:\n      swap3\n      swap2\n      pop\n      pop\n      jump\t// out\n        /* \"@openzeppelin/contracts/utils/Context.sol\":656:752  function _msgSender() internal view virtual returns (address) {... */\n    tag_254:\n        /* \"@openzeppelin/contracts/utils/Context.sol\":709:716  address */\n      0x00\n        /* \"@openzeppelin/contracts/utils/Context.sol\":735:745  msg.sender */\n      caller\n        /* \"@openzeppelin/contracts/utils/Context.sol\":728:745  return msg.sender */\n      swap1\n      pop\n        /* \"@openzeppelin/contracts/utils/Context.sol\":656:752  function _msgSender() internal view virtual returns (address) {... */\n      swap1\n      jump\t// out\n        /* \"@openzeppelin/contracts/access/AccessControl.sol\":6708:7025  function _revokeRole(bytes32 role, address account) internal virtual returns (bool) {... */\n    tag_257:\n        /* \"@openzeppelin/contracts/access/AccessControl.sol\":6786:6790  bool */\n      0x00\n        /* \"@openzeppelin/contracts/access/AccessControl.sol\":6806:6828  hasRole(role, account) */\n      tag_468\n        /* \"@openzeppelin/contracts/access/AccessControl.sol\":6814:6818  role */\n      dup4\n        /* \"@openzeppelin/contracts/access/AccessControl.sol\":6820:6827  account */\n      dup4\n        /* \"@openzeppelin/contracts/access/AccessControl.sol\":6806:6813  hasRole */\n      tag_133\n        /* \"@openzeppelin/contracts/access/AccessControl.sol\":6806:6828  hasRole(role, account) */\n      jump\t// in\n    tag_468:\n        /* \"@openzeppelin/contracts/access/AccessControl.sol\":6802:7019  if (hasRole(role, account)) {... */\n      iszero\n      tag_469\n      jumpi\n        /* \"@openzeppelin/contracts/access/AccessControl.sol\":6876:6881  false */\n      0x00\n        /* \"@openzeppelin/contracts/access/AccessControl.sol\":6844:6850  _roles */\n      0x02\n        /* \"@openzeppelin/contracts/access/AccessControl.sol\":6844:6856  _roles[role] */\n      0x00\n        /* \"@openzeppelin/contracts/access/AccessControl.sol\":6851:6855  role */\n      dup6\n        /* \"@openzeppelin/contracts/access/AccessControl.sol\":6844:6856  _roles[role] */\n      dup2\n      mstore\n      0x20\n      add\n      swap1\n      dup2\n      mstore\n      0x20\n      add\n      0x00\n      keccak256\n        /* \"@openzeppelin/contracts/access/AccessControl.sol\":6844:6864  _roles[role].hasRole */\n      0x00\n      add\n        /* \"@openzeppelin/contracts/access/AccessControl.sol\":6844:6873  _roles[role].hasRole[account] */\n      0x00\n        /* \"@openzeppelin/contracts/access/AccessControl.sol\":6865:6872  account */\n      dup5\n        /* \"@openzeppelin/contracts/access/AccessControl.sol\":6844:6873  _roles[role].hasRole[account] */\n      0xffffffffffffffffffffffffffffffffffffffff\n      and\n      0xffffffffffffffffffffffffffffffffffffffff\n      and\n      dup2\n      mstore\n      0x20\n      add\n      swap1\n      dup2\n      mstore\n      0x20\n      add\n      0x00\n      keccak256\n      0x00\n        /* \"@openzeppelin/contracts/access/AccessControl.sol\":6844:6881  _roles[role].hasRole[account] = false */\n      0x0100\n      exp\n      dup2\n      sload\n      dup2\n      0xff\n      mul\n      not\n      and\n      swap1\n      dup4\n      iszero\n      iszero\n      mul\n      or\n      swap1\n      sstore\n      pop\n        /* \"@openzeppelin/contracts/access/AccessControl.sol\":6927:6939  _msgSender() */\n      tag_470\n        /* \"@openzeppelin/contracts/access/AccessControl.sol\":6927:6937  _msgSender */\n      tag_254\n        /* \"@openzeppelin/contracts/access/AccessControl.sol\":6927:6939  _msgSender() */\n      jump\t// in\n    tag_470:\n        /* \"@openzeppelin/contracts/access/AccessControl.sol\":6900:6940  RoleRevoked(role, account, _msgSender()) */\n      0xffffffffffffffffffffffffffffffffffffffff\n      and\n        /* \"@openzeppelin/contracts/access/AccessControl.sol\":6918:6925  account */\n      dup3\n        /* \"@openzeppelin/contracts/access/AccessControl.sol\":6900:6940  RoleRevoked(role, account, _msgSender()) */\n      0xffffffffffffffffffffffffffffffffffffffff\n      and\n        /* \"@openzeppelin/contracts/access/AccessControl.sol\":6912:6916  role */\n      dup5\n        /* \"@openzeppelin/contracts/access/AccessControl.sol\":6900:6940  RoleRevoked(role, account, _msgSender()) */\n      0xf6391f5c32d9c69d2a47ea670b442974b53935d1edc7fd64eb21e047a839171b\n      mload(0x40)\n      mload(0x40)\n      dup1\n      swap2\n      sub\n      swap1\n      log4\n        /* \"@openzeppelin/contracts/access/AccessControl.sol\":6961:6965  true */\n      0x01\n        /* \"@openzeppelin/contracts/access/AccessControl.sol\":6954:6965  return true */\n      swap1\n      pop\n      jump(tag_467)\n        /* \"@openzeppelin/contracts/access/AccessControl.sol\":6802:7019  if (hasRole(role, account)) {... */\n    tag_469:\n        /* \"@openzeppelin/contracts/access/AccessControl.sol\":7003:7008  false */\n      0x00\n        /* \"@openzeppelin/contracts/access/AccessControl.sol\":6996:7008  return false */\n      swap1\n      pop\n        /* \"@openzeppelin/contracts/access/AccessControl.sol\":6708:7025  function _revokeRole(bytes32 role, address account) internal virtual returns (bool) {... */\n    tag_467:\n      swap3\n      swap2\n      pop\n      pop\n      jump\t// out\n        /* \"@openzeppelin/contracts/security/Pausable.sol\":2433:2550  function _unpause() internal virtual whenPaused {... */\n    tag_262:\n        /* \"@openzeppelin/contracts/security/Pausable.sol\":1486:1502  _requirePaused() */\n      tag_473\n        /* \"@openzeppelin/contracts/security/Pausable.sol\":1486:1500  _requirePaused */\n      tag_474\n        /* \"@openzeppelin/contracts/security/Pausable.sol\":1486:1502  _requirePaused() */\n      jump\t// in\n    tag_473:\n        /* \"@openzeppelin/contracts/security/Pausable.sol\":2501:2506  false */\n      0x00\n        /* \"@openzeppelin/contracts/security/Pausable.sol\":2491:2498  _paused */\n      0x01\n      0x00\n        /* \"@openzeppelin/contracts/security/Pausable.sol\":2491:2506  _paused = false */\n      0x0100\n      exp\n      dup2\n      sload\n      dup2\n      0xff\n      mul\n      not\n      and\n      swap1\n      dup4\n      iszero\n      iszero\n      mul\n      or\n      swap1\n      sstore\n      pop\n        /* \"@openzeppelin/contracts/security/Pausable.sol\":2521:2543  Unpaused(_msgSender()) */\n      0x5db9ee0a495bf2e6ff9c91a7834c1ba4fdd244a5e8aa4e537bd38aeae4b073aa\n        /* \"@openzeppelin/contracts/security/Pausable.sol\":2530:2542  _msgSender() */\n      tag_476\n        /* \"@openzeppelin/contracts/security/Pausable.sol\":2530:2540  _msgSender */\n      tag_254\n        /* \"@openzeppelin/contracts/security/Pausable.sol\":2530:2542  _msgSender() */\n      jump\t// in\n    tag_476:\n        /* \"@openzeppelin/contracts/security/Pausable.sol\":2521:2543  Unpaused(_msgSender()) */\n      mload(0x40)\n      tag_477\n      swap2\n      swap1\n      tag_478\n      jump\t// in\n    tag_477:\n      mload(0x40)\n      dup1\n      swap2\n      sub\n      swap1\n      log1\n        /* \"@openzeppelin/contracts/security/Pausable.sol\":2433:2550  function _unpause() internal virtual whenPaused {... */\n      jump\t// out\n        /* \"@openzeppelin/contracts/security/Pausable.sol\":1767:1873  function _requireNotPaused() internal view virtual {... */\n    tag_268:\n        /* \"@openzeppelin/contracts/security/Pausable.sol\":1837:1845  paused() */\n      tag_480\n        /* \"@openzeppelin/contracts/security/Pausable.sol\":1837:1843  paused */\n      tag_96\n        /* \"@openzeppelin/contracts/security/Pausable.sol\":1837:1845  paused() */\n      jump\t// in\n    tag_480:\n        /* \"@openzeppelin/contracts/security/Pausable.sol\":1836:1845  !paused() */\n      iszero\n        /* \"@openzeppelin/contracts/security/Pausable.sol\":1828:1866  require(!paused(), \"Pausable: paused\") */\n      tag_481\n      jumpi\n      mload(0x40)\n      0x08c379a000000000000000000000000000000000000000000000000000000000\n      dup2\n      mstore\n      0x04\n      add\n      tag_482\n      swap1\n      tag_483\n      jump\t// in\n    tag_482:\n      mload(0x40)\n      dup1\n      swap2\n      sub\n      swap1\n      revert\n    tag_481:\n        /* \"@openzeppelin/contracts/security/Pausable.sol\":1767:1873  function _requireNotPaused() internal view virtual {... */\n      jump\t// out\n        /* \"@openzeppelin/contracts/security/ReentrancyGuard.sol\":2336:2623  function _nonReentrantBefore() private {... */\n    tag_271:\n        /* \"@openzeppelin/contracts/security/ReentrancyGuard.sol\":1759:1760  2 */\n      0x02\n        /* \"@openzeppelin/contracts/security/ReentrancyGuard.sol\":2468:2475  _status */\n      sload(0x00)\n        /* \"@openzeppelin/contracts/security/ReentrancyGuard.sol\":2468:2487  _status != _ENTERED */\n      sub\n        /* \"@openzeppelin/contracts/security/ReentrancyGuard.sol\":2460:2523  require(_status != _ENTERED, \"ReentrancyGuard: reentrant call\") */\n      tag_485\n      jumpi\n      mload(0x40)\n      0x08c379a000000000000000000000000000000000000000000000000000000000\n      dup2\n      mstore\n      0x04\n      add\n      tag_486\n      swap1\n      tag_487\n      jump\t// in\n    tag_486:\n      mload(0x40)\n      dup1\n      swap2\n      sub\n      swap1\n      revert\n    tag_485:\n        /* \"@openzeppelin/contracts/security/ReentrancyGuard.sol\":1759:1760  2 */\n      0x02\n        /* \"@openzeppelin/contracts/security/ReentrancyGuard.sol\":2598:2605  _status */\n      0x00\n        /* \"@openzeppelin/contracts/security/ReentrancyGuard.sol\":2598:2616  _status = _ENTERED */\n      dup2\n      swap1\n      sstore\n      pop\n        /* \"@openzeppelin/contracts/security/ReentrancyGuard.sol\":2336:2623  function _nonReentrantBefore() private {... */\n      jump\t// out\n        /* \"@openzeppelin/contracts/security/ReentrancyGuard.sol\":2629:2838  function _nonReentrantAfter() private {... */\n    tag_303:\n        /* \"@openzeppelin/contracts/security/ReentrancyGuard.sol\":1716:1717  1 */\n      0x01\n        /* \"@openzeppelin/contracts/security/ReentrancyGuard.sol\":2809:2816  _status */\n      0x00\n        /* \"@openzeppelin/contracts/security/ReentrancyGuard.sol\":2809:2831  _status = _NOT_ENTERED */\n      dup2\n      swap1\n      sstore\n      pop\n        /* \"@openzeppelin/contracts/security/ReentrancyGuard.sol\":2629:2838  function _nonReentrantAfter() private {... */\n      jump\t// out\n        /* \"@openzeppelin/contracts/security/Pausable.sol\":2186:2301  function _pause() internal virtual whenNotPaused {... */\n    tag_308:\n        /* \"@openzeppelin/contracts/security/Pausable.sol\":1239:1258  _requireNotPaused() */\n      tag_490\n        /* \"@openzeppelin/contracts/security/Pausable.sol\":1239:1256  _requireNotPaused */\n      tag_268\n        /* \"@openzeppelin/contracts/security/Pausable.sol\":1239:1258  _requireNotPaused() */\n      jump\t// in\n    tag_490:\n        /* \"@openzeppelin/contracts/security/Pausable.sol\":2255:2259  true */\n      0x01\n        /* \"@openzeppelin/contracts/security/Pausable.sol\":2245:2252  _paused */\n      dup1\n      0x00\n        /* \"@openzeppelin/contracts/security/Pausable.sol\":2245:2259  _paused = true */\n      0x0100\n      exp\n      dup2\n      sload\n      dup2\n      0xff\n      mul\n      not\n      and\n      swap1\n      dup4\n      iszero\n      iszero\n      mul\n      or\n      swap1\n      sstore\n      pop\n        /* \"@openzeppelin/contracts/security/Pausable.sol\":2274:2294  Paused(_msgSender()) */\n      0x62e78cea01bee320cd4e420270b5ea74000d11b0c9f74754ebdbfc544b05a258\n        /* \"@openzeppelin/contracts/security/Pausable.sol\":2281:2293  _msgSender() */\n      tag_492\n        /* \"@openzeppelin/contracts/security/Pausable.sol\":2281:2291  _msgSender */\n      tag_254\n        /* \"@openzeppelin/contracts/security/Pausable.sol\":2281:2293  _msgSender() */\n      jump\t// in\n    tag_492:\n        /* \"@openzeppelin/contracts/security/Pausable.sol\":2274:2294  Paused(_msgSender()) */\n      mload(0x40)\n      tag_493\n      swap2\n      swap1\n      tag_478\n      jump\t// in\n    tag_493:\n      mload(0x40)\n      dup1\n      swap2\n      sub\n      swap1\n      log1\n        /* \"@openzeppelin/contracts/security/Pausable.sol\":2186:2301  function _pause() internal virtual whenNotPaused {... */\n      jump\t// out\n        /* \"P2PTransfer.sol\":6911:8110  function _generateRandomAmounts(uint256 _totalAmount, uint256 _recipientCount) ... */\n    tag_333:\n        /* \"P2PTransfer.sol\":7040:7064  uint256[] memory amounts */\n      0x60\n        /* \"P2PTransfer.sol\":7105:7120  _recipientCount */\n      dup2\n        /* \"P2PTransfer.sol\":7091:7121  new uint256[](_recipientCount) */\n      0xffffffffffffffff\n      dup2\n      gt\n      iszero\n      tag_495\n      jumpi\n      tag_496\n      tag_329\n      jump\t// in\n    tag_496:\n    tag_495:\n      mload(0x40)\n      swap1\n      dup1\n      dup3\n      mstore\n      dup1\n      0x20\n      mul\n      0x20\n      add\n      dup3\n      add\n      0x40\n      mstore\n      dup1\n      iszero\n      tag_497\n      jumpi\n      dup2\n      0x20\n      add\n      0x20\n      dup3\n      mul\n      dup1\n      calldatasize\n      dup4\n      calldatacopy\n      dup1\n      dup3\n      add\n      swap2\n      pop\n      pop\n      swap1\n      pop\n    tag_497:\n      pop\n        /* \"P2PTransfer.sol\":7081:7121  amounts = new uint256[](_recipientCount) */\n      swap1\n      pop\n        /* \"P2PTransfer.sol\":7131:7148  uint256 remaining */\n      0x00\n        /* \"P2PTransfer.sol\":7151:7163  _totalAmount */\n      dup4\n        /* \"P2PTransfer.sol\":7131:7163  uint256 remaining = _totalAmount */\n      swap1\n      pop\n        /* \"P2PTransfer.sol\":7187:7196  uint256 i */\n      0x00\n        /* \"P2PTransfer.sol\":7199:7200  0 */\n      0x00\n        /* \"P2PTransfer.sol\":7187:7200  uint256 i = 0 */\n      swap1\n      pop\n        /* \"P2PTransfer.sol\":7182:7964  for (uint256 i = 0; i < _recipientCount - 1; i++) {... */\n    tag_498:\n        /* \"P2PTransfer.sol\":7224:7225  1 */\n      0x01\n        /* \"P2PTransfer.sol\":7206:7221  _recipientCount */\n      dup5\n        /* \"P2PTransfer.sol\":7206:7225  _recipientCount - 1 */\n      tag_501\n      swap2\n      swap1\n      tag_502\n      jump\t// in\n    tag_501:\n        /* \"P2PTransfer.sol\":7202:7203  i */\n      dup2\n        /* \"P2PTransfer.sol\":7202:7225  i < _recipientCount - 1 */\n      lt\n        /* \"P2PTransfer.sol\":7182:7964  for (uint256 i = 0; i < _recipientCount - 1; i++) {... */\n      iszero\n      tag_499\n      jumpi\n        /* \"P2PTransfer.sol\":7314:7331  uint256 minAmount */\n      0x00\n        /* \"P2PTransfer.sol\":7346:7348  10 */\n      0x0a\n        /* \"P2PTransfer.sol\":7334:7343  remaining */\n      dup4\n        /* \"P2PTransfer.sol\":7334:7348  remaining / 10 */\n      tag_503\n      swap2\n      swap1\n      tag_336\n      jump\t// in\n    tag_503:\n        /* \"P2PTransfer.sol\":7314:7348  uint256 minAmount = remaining / 10 */\n      swap1\n      pop\n        /* \"P2PTransfer.sol\":7369:7386  uint256 maxAmount */\n      0x00\n        /* \"P2PTransfer.sol\":7407:7409  10 */\n      0x0a\n        /* \"P2PTransfer.sol\":7402:7403  4 */\n      0x04\n        /* \"P2PTransfer.sol\":7390:7399  remaining */\n      dup6\n        /* \"P2PTransfer.sol\":7390:7403  remaining * 4 */\n      tag_504\n      swap2\n      swap1\n      tag_505\n      jump\t// in\n    tag_504:\n        /* \"P2PTransfer.sol\":7389:7409  (remaining * 4) / 10 */\n      tag_506\n      swap2\n      swap1\n      tag_336\n      jump\t// in\n    tag_506:\n        /* \"P2PTransfer.sol\":7369:7409  uint256 maxAmount = (remaining * 4) / 10 */\n      swap1\n      pop\n        /* \"P2PTransfer.sol\":7459:7468  minAmount */\n      dup2\n        /* \"P2PTransfer.sol\":7447:7456  maxAmount */\n      dup2\n        /* \"P2PTransfer.sol\":7447:7468  maxAmount > minAmount */\n      gt\n        /* \"P2PTransfer.sol\":7443:7954  if (maxAmount > minAmount) {... */\n      iszero\n      tag_507\n      jumpi\n        /* \"P2PTransfer.sol\":7488:7508  uint256 randomAmount */\n      0x00\n        /* \"P2PTransfer.sol\":7724:7733  minAmount */\n      dup3\n        /* \"P2PTransfer.sol\":7712:7721  maxAmount */\n      dup3\n        /* \"P2PTransfer.sol\":7712:7733  maxAmount - minAmount */\n      tag_508\n      swap2\n      swap1\n      tag_502\n      jump\t// in\n    tag_508:\n        /* \"P2PTransfer.sol\":7580:7595  block.timestamp */\n      timestamp\n        /* \"P2PTransfer.sol\":7617:7633  block.prevrandao */\n      prevrandao\n        /* \"P2PTransfer.sol\":7655:7656  i */\n      dup7\n        /* \"P2PTransfer.sol\":7678:7688  msg.sender */\n      caller\n        /* \"P2PTransfer.sol\":7542:7706  abi.encodePacked(... */\n      add(0x20, mload(0x40))\n      tag_509\n      swap5\n      swap4\n      swap3\n      swap2\n      swap1\n      tag_510\n      jump\t// in\n    tag_509:\n      mload(0x40)\n      0x20\n      dup2\n      dup4\n      sub\n      sub\n      dup2\n      mstore\n      swap1\n      0x40\n      mstore\n        /* \"P2PTransfer.sol\":7532:7707  keccak256(abi.encodePacked(... */\n      dup1\n      mload\n      swap1\n      0x20\n      add\n      keccak256\n        /* \"P2PTransfer.sol\":7524:7708  uint256(keccak256(abi.encodePacked(... */\n      0x00\n      shr\n        /* \"P2PTransfer.sol\":7524:7734  uint256(keccak256(abi.encodePacked(... */\n      tag_511\n      swap2\n      swap1\n      tag_338\n      jump\t// in\n    tag_511:\n        /* \"P2PTransfer.sol\":7511:7520  minAmount */\n      dup4\n        /* \"P2PTransfer.sol\":7511:7735  minAmount + (uint256(keccak256(abi.encodePacked(... */\n      tag_512\n      swap2\n      swap1\n      tag_348\n      jump\t// in\n    tag_512:\n        /* \"P2PTransfer.sol\":7488:7735  uint256 randomAmount = minAmount + (uint256(keccak256(abi.encodePacked(... */\n      swap1\n      pop\n        /* \"P2PTransfer.sol\":7783:7795  randomAmount */\n      dup1\n        /* \"P2PTransfer.sol\":7770:7777  amounts */\n      dup7\n        /* \"P2PTransfer.sol\":7778:7779  i */\n      dup6\n        /* \"P2PTransfer.sol\":7770:7780  amounts[i] */\n      dup2\n      mload\n      dup2\n      lt\n      tag_513\n      jumpi\n      tag_514\n      tag_282\n      jump\t// in\n    tag_514:\n    tag_513:\n      0x20\n      mul\n      0x20\n      add\n      add\n        /* \"P2PTransfer.sol\":7770:7795  amounts[i] = randomAmount */\n      dup2\n      dup2\n      mstore\n      pop\n      pop\n        /* \"P2PTransfer.sol\":7826:7838  randomAmount */\n      dup1\n        /* \"P2PTransfer.sol\":7813:7838  remaining -= randomAmount */\n      dup6\n      tag_515\n      swap2\n      swap1\n      tag_502\n      jump\t// in\n    tag_515:\n      swap5\n      pop\n        /* \"P2PTransfer.sol\":7470:7853  {... */\n      pop\n        /* \"P2PTransfer.sol\":7443:7954  if (maxAmount > minAmount) {... */\n      jump(tag_516)\n    tag_507:\n        /* \"P2PTransfer.sol\":7890:7899  minAmount */\n      dup2\n        /* \"P2PTransfer.sol\":7877:7884  amounts */\n      dup6\n        /* \"P2PTransfer.sol\":7885:7886  i */\n      dup5\n        /* \"P2PTransfer.sol\":7877:7887  amounts[i] */\n      dup2\n      mload\n      dup2\n      lt\n      tag_517\n      jumpi\n      tag_518\n      tag_282\n      jump\t// in\n    tag_518:\n    tag_517:\n      0x20\n      mul\n      0x20\n      add\n      add\n        /* \"P2PTransfer.sol\":7877:7899  amounts[i] = minAmount */\n      dup2\n      dup2\n      mstore\n      pop\n      pop\n        /* \"P2PTransfer.sol\":7930:7939  minAmount */\n      dup2\n        /* \"P2PTransfer.sol\":7917:7939  remaining -= minAmount */\n      dup5\n      tag_519\n      swap2\n      swap1\n      tag_502\n      jump\t// in\n    tag_519:\n      swap4\n      pop\n        /* \"P2PTransfer.sol\":7443:7954  if (maxAmount > minAmount) {... */\n    tag_516:\n        /* \"P2PTransfer.sol\":7232:7964  {... */\n      pop\n      pop\n        /* \"P2PTransfer.sol\":7227:7230  i++ */\n      dup1\n      dup1\n      0x01\n      add\n      swap2\n      pop\n      pop\n        /* \"P2PTransfer.sol\":7182:7964  for (uint256 i = 0; i < _recipientCount - 1; i++) {... */\n      jump(tag_498)\n    tag_499:\n      pop\n        /* \"P2PTransfer.sol\":8061:8070  remaining */\n      dup1\n        /* \"P2PTransfer.sol\":8030:8037  amounts */\n      dup3\n        /* \"P2PTransfer.sol\":8056:8057  1 */\n      0x01\n        /* \"P2PTransfer.sol\":8038:8053  _recipientCount */\n      dup6\n        /* \"P2PTransfer.sol\":8038:8057  _recipientCount - 1 */\n      tag_520\n      swap2\n      swap1\n      tag_502\n      jump\t// in\n    tag_520:\n        /* \"P2PTransfer.sol\":8030:8058  amounts[_recipientCount - 1] */\n      dup2\n      mload\n      dup2\n      lt\n      tag_521\n      jumpi\n      tag_522\n      tag_282\n      jump\t// in\n    tag_522:\n    tag_521:\n      0x20\n      mul\n      0x20\n      add\n      add\n        /* \"P2PTransfer.sol\":8030:8070  amounts[_recipientCount - 1] = remaining */\n      dup2\n      dup2\n      mstore\n      pop\n      pop\n        /* \"P2PTransfer.sol\":8089:8103  return amounts */\n      pop\n        /* \"P2PTransfer.sol\":6911:8110  function _generateRandomAmounts(uint256 _totalAmount, uint256 _recipientCount) ... */\n      swap3\n      swap2\n      pop\n      pop\n      jump\t// out\n        /* \"@openzeppelin/contracts/access/AccessControl.sol\":3408:3605  function _checkRole(bytes32 role, address account) internal view virtual {... */\n    tag_460:\n        /* \"@openzeppelin/contracts/access/AccessControl.sol\":3496:3518  hasRole(role, account) */\n      tag_524\n        /* \"@openzeppelin/contracts/access/AccessControl.sol\":3504:3508  role */\n      dup3\n        /* \"@openzeppelin/contracts/access/AccessControl.sol\":3510:3517  account */\n      dup3\n        /* \"@openzeppelin/contracts/access/AccessControl.sol\":3496:3503  hasRole */\n      tag_133\n        /* \"@openzeppelin/contracts/access/AccessControl.sol\":3496:3518  hasRole(role, account) */\n      jump\t// in\n    tag_524:\n        /* \"@openzeppelin/contracts/access/AccessControl.sol\":3491:3599  if (!hasRole(role, account)) {... */\n      tag_525\n      jumpi\n        /* \"@openzeppelin/contracts/access/AccessControl.sol\":3574:3581  account */\n      dup1\n        /* \"@openzeppelin/contracts/access/AccessControl.sol\":3583:3587  role */\n      dup3\n        /* \"@openzeppelin/contracts/access/AccessControl.sol\":3541:3588  AccessControlUnauthorizedAccount(account, role) */\n      mload(0x40)\n      0xe2517d3f00000000000000000000000000000000000000000000000000000000\n      dup2\n      mstore\n      0x04\n      add\n      tag_526\n      swap3\n      swap2\n      swap1\n      tag_527\n      jump\t// in\n    tag_526:\n      mload(0x40)\n      dup1\n      swap2\n      sub\n      swap1\n      revert\n        /* \"@openzeppelin/contracts/access/AccessControl.sol\":3491:3599  if (!hasRole(role, account)) {... */\n    tag_525:\n        /* \"@openzeppelin/contracts/access/AccessControl.sol\":3408:3605  function _checkRole(bytes32 role, address account) internal view virtual {... */\n      pop\n      pop\n      jump\t// out\n        /* \"@openzeppelin/contracts/security/Pausable.sol\":1945:2051  function _requirePaused() internal view virtual {... */\n    tag_474:\n        /* \"@openzeppelin/contracts/security/Pausable.sol\":2011:2019  paused() */\n      tag_529\n        /* \"@openzeppelin/contracts/security/Pausable.sol\":2011:2017  paused */\n      tag_96\n        /* \"@openzeppelin/contracts/security/Pausable.sol\":2011:2019  paused() */\n      jump\t// in\n    tag_529:\n        /* \"@openzeppelin/contracts/security/Pausable.sol\":2003:2044  require(paused(), \"Pausable: not paused\") */\n      tag_530\n      jumpi\n      mload(0x40)\n      0x08c379a000000000000000000000000000000000000000000000000000000000\n      dup2\n      mstore\n      0x04\n      add\n      tag_531\n      swap1\n      tag_532\n      jump\t// in\n    tag_531:\n      mload(0x40)\n      dup1\n      swap2\n      sub\n      swap1\n      revert\n    tag_530:\n        /* \"@openzeppelin/contracts/security/Pausable.sol\":1945:2051  function _requirePaused() internal view virtual {... */\n      jump\t// out\n    tag_226:\n      mload(0x40)\n      dup1\n      0xa0\n      add\n      0x40\n      mstore\n      dup1\n      and(0xffffffffffffffffffffffffffffffffffffffff, 0x00)\n      dup2\n      mstore\n      0x20\n      add\n      and(0xffffffffffffffffffffffffffffffffffffffff, 0x00)\n      dup2\n      mstore\n      0x20\n      add\n      0x00\n      dup2\n      mstore\n      0x20\n      add\n      0x00\n      dup2\n      mstore\n      0x20\n      add\n      0x60\n      dup2\n      mstore\n      pop\n      swap1\n      jump\t// out\n    tag_325:\n      dup3\n      dup1\n      sload\n      dup3\n      dup3\n      sstore\n      swap1\n      0x00\n      mstore\n      keccak256(0x00, 0x20)\n      swap1\n      dup2\n      add\n      swap3\n      dup3\n      iszero\n      tag_533\n      jumpi\n      swap2\n      0x20\n      mul\n      dup3\n      add\n    tag_534:\n      dup3\n      dup2\n      gt\n      iszero\n      tag_535\n      jumpi\n      dup3\n      mload\n      dup3\n      exp(0x0100, 0x00)\n      dup2\n      sload\n      dup2\n      0xffffffffffffffffffffffffffffffffffffffff\n      mul\n      not\n      and\n      swap1\n      dup4\n      0xffffffffffffffffffffffffffffffffffffffff\n      and\n      mul\n      or\n      swap1\n      sstore\n      pop\n      swap2\n      0x20\n      add\n      swap2\n      swap1\n      0x01\n      add\n      swap1\n      jump(tag_534)\n    tag_535:\n    tag_533:\n      pop\n      swap1\n      pop\n      tag_536\n      swap2\n      swap1\n      tag_537\n      jump\t// in\n    tag_536:\n      pop\n      swap1\n      jump\t// out\n    tag_350:\n      dup3\n      dup1\n      sload\n      dup3\n      dup3\n      sstore\n      swap1\n      0x00\n      mstore\n      keccak256(0x00, 0x20)\n      swap1\n      dup2\n      add\n      swap3\n      dup3\n      iszero\n      tag_538\n      jumpi\n      swap2\n      0x20\n      mul\n      dup3\n      add\n    tag_539:\n      dup3\n      dup2\n      gt\n      iszero\n      tag_540\n      jumpi\n      dup3\n      mload\n      dup3\n      sstore\n      swap2\n      0x20\n      add\n      swap2\n      swap1\n      0x01\n      add\n      swap1\n      jump(tag_539)\n    tag_540:\n    tag_538:\n      pop\n      swap1\n      pop\n      tag_541\n      swap2\n      swap1\n      tag_537\n      jump\t// in\n    tag_541:\n      pop\n      swap1\n      jump\t// out\n    tag_537:\n    tag_542:\n      dup1\n      dup3\n      gt\n      iszero\n      tag_543\n      jumpi\n      0x00\n      dup2\n      0x00\n      swap1\n      sstore\n      pop\n      0x01\n      add\n      jump(tag_542)\n    tag_543:\n      pop\n      swap1\n      jump\t// out\n        /* \"#utility.yul\":7:82   */\n    tag_544:\n        /* \"#utility.yul\":40:46   */\n      0x00\n        /* \"#utility.yul\":73:75   */\n      0x40\n        /* \"#utility.yul\":67:76   */\n      mload\n        /* \"#utility.yul\":57:76   */\n      swap1\n      pop\n        /* \"#utility.yul\":7:82   */\n      swap1\n      jump\t// out\n        /* \"#utility.yul\":88:205   */\n    tag_545:\n        /* \"#utility.yul\":197:198   */\n      0x00\n        /* \"#utility.yul\":194:195   */\n      0x00\n        /* \"#utility.yul\":187:199   */\n      revert\n        /* \"#utility.yul\":211:328   */\n    tag_546:\n        /* \"#utility.yul\":320:321   */\n      0x00\n        /* \"#utility.yul\":317:318   */\n      0x00\n        /* \"#utility.yul\":310:322   */\n      revert\n        /* \"#utility.yul\":334:483   */\n    tag_547:\n        /* \"#utility.yul\":370:377   */\n      0x00\n        /* \"#utility.yul\":410:476   */\n      0xffffffff00000000000000000000000000000000000000000000000000000000\n        /* \"#utility.yul\":403:408   */\n      dup3\n        /* \"#utility.yul\":399:477   */\n      and\n        /* \"#utility.yul\":388:477   */\n      swap1\n      pop\n        /* \"#utility.yul\":334:483   */\n      swap2\n      swap1\n      pop\n      jump\t// out\n        /* \"#utility.yul\":489:609   */\n    tag_548:\n        /* \"#utility.yul\":561:584   */\n      tag_646\n        /* \"#utility.yul\":578:583   */\n      dup2\n        /* \"#utility.yul\":561:584   */\n      tag_547\n      jump\t// in\n    tag_646:\n        /* \"#utility.yul\":554:559   */\n      dup2\n        /* \"#utility.yul\":551:585   */\n      eq\n        /* \"#utility.yul\":541:603   */\n      tag_647\n      jumpi\n        /* \"#utility.yul\":599:600   */\n      0x00\n        /* \"#utility.yul\":596:597   */\n      0x00\n        /* \"#utility.yul\":589:601   */\n      revert\n        /* \"#utility.yul\":541:603   */\n    tag_647:\n        /* \"#utility.yul\":489:609   */\n      pop\n      jump\t// out\n        /* \"#utility.yul\":615:752   */\n    tag_549:\n        /* \"#utility.yul\":660:665   */\n      0x00\n        /* \"#utility.yul\":698:704   */\n      dup2\n        /* \"#utility.yul\":685:705   */\n      calldataload\n        /* \"#utility.yul\":676:705   */\n      swap1\n      pop\n        /* \"#utility.yul\":714:746   */\n      tag_649\n        /* \"#utility.yul\":740:745   */\n      dup2\n        /* \"#utility.yul\":714:746   */\n      tag_548\n      jump\t// in\n    tag_649:\n        /* \"#utility.yul\":615:752   */\n      swap3\n      swap2\n      pop\n      pop\n      jump\t// out\n        /* \"#utility.yul\":758:1085   */\n    tag_49:\n        /* \"#utility.yul\":816:822   */\n      0x00\n        /* \"#utility.yul\":865:867   */\n      0x20\n        /* \"#utility.yul\":853:862   */\n      dup3\n        /* \"#utility.yul\":844:851   */\n      dup5\n        /* \"#utility.yul\":840:863   */\n      sub\n        /* \"#utility.yul\":836:868   */\n      slt\n        /* \"#utility.yul\":833:952   */\n      iszero\n      tag_651\n      jumpi\n        /* \"#utility.yul\":871:950   */\n      tag_652\n      tag_545\n      jump\t// in\n    tag_652:\n        /* \"#utility.yul\":833:952   */\n    tag_651:\n        /* \"#utility.yul\":991:992   */\n      0x00\n        /* \"#utility.yul\":1016:1068   */\n      tag_653\n        /* \"#utility.yul\":1060:1067   */\n      dup5\n        /* \"#utility.yul\":1051:1057   */\n      dup3\n        /* \"#utility.yul\":1040:1049   */\n      dup6\n        /* \"#utility.yul\":1036:1058   */\n      add\n        /* \"#utility.yul\":1016:1068   */\n      tag_549\n      jump\t// in\n    tag_653:\n        /* \"#utility.yul\":1006:1068   */\n      swap2\n      pop\n        /* \"#utility.yul\":962:1078   */\n      pop\n        /* \"#utility.yul\":758:1085   */\n      swap3\n      swap2\n      pop\n      pop\n      jump\t// out\n        /* \"#utility.yul\":1091:1181   */\n    tag_550:\n        /* \"#utility.yul\":1125:1132   */\n      0x00\n        /* \"#utility.yul\":1168:1173   */\n      dup2\n        /* \"#utility.yul\":1161:1174   */\n      iszero\n        /* \"#utility.yul\":1154:1175   */\n      iszero\n        /* \"#utility.yul\":1143:1175   */\n      swap1\n      pop\n        /* \"#utility.yul\":1091:1181   */\n      swap2\n      swap1\n      pop\n      jump\t// out\n        /* \"#utility.yul\":1187:1296   */\n    tag_551:\n        /* \"#utility.yul\":1268:1289   */\n      tag_656\n        /* \"#utility.yul\":1283:1288   */\n      dup2\n        /* \"#utility.yul\":1268:1289   */\n      tag_550\n      jump\t// in\n    tag_656:\n        /* \"#utility.yul\":1263:1266   */\n      dup3\n        /* \"#utility.yul\":1256:1290   */\n      mstore\n        /* \"#utility.yul\":1187:1296   */\n      pop\n      pop\n      jump\t// out\n        /* \"#utility.yul\":1302:1512   */\n    tag_52:\n        /* \"#utility.yul\":1389:1393   */\n      0x00\n        /* \"#utility.yul\":1427:1429   */\n      0x20\n        /* \"#utility.yul\":1416:1425   */\n      dup3\n        /* \"#utility.yul\":1412:1430   */\n      add\n        /* \"#utility.yul\":1404:1430   */\n      swap1\n      pop\n        /* \"#utility.yul\":1440:1505   */\n      tag_658\n        /* \"#utility.yul\":1502:1503   */\n      0x00\n        /* \"#utility.yul\":1491:1500   */\n      dup4\n        /* \"#utility.yul\":1487:1504   */\n      add\n        /* \"#utility.yul\":1478:1484   */\n      dup5\n        /* \"#utility.yul\":1440:1505   */\n      tag_551\n      jump\t// in\n    tag_658:\n        /* \"#utility.yul\":1302:1512   */\n      swap3\n      swap2\n      pop\n      pop\n      jump\t// out\n        /* \"#utility.yul\":1518:1595   */\n    tag_552:\n        /* \"#utility.yul\":1555:1562   */\n      0x00\n        /* \"#utility.yul\":1584:1589   */\n      dup2\n        /* \"#utility.yul\":1573:1589   */\n      swap1\n      pop\n        /* \"#utility.yul\":1518:1595   */\n      swap2\n      swap1\n      pop\n      jump\t// out\n        /* \"#utility.yul\":1601:1723   */\n    tag_553:\n        /* \"#utility.yul\":1674:1698   */\n      tag_661\n        /* \"#utility.yul\":1692:1697   */\n      dup2\n        /* \"#utility.yul\":1674:1698   */\n      tag_552\n      jump\t// in\n    tag_661:\n        /* \"#utility.yul\":1667:1672   */\n      dup2\n        /* \"#utility.yul\":1664:1699   */\n      eq\n        /* \"#utility.yul\":1654:1717   */\n      tag_662\n      jumpi\n        /* \"#utility.yul\":1713:1714   */\n      0x00\n        /* \"#utility.yul\":1710:1711   */\n      0x00\n        /* \"#utility.yul\":1703:1715   */\n      revert\n        /* \"#utility.yul\":1654:1717   */\n    tag_662:\n        /* \"#utility.yul\":1601:1723   */\n      pop\n      jump\t// out\n        /* \"#utility.yul\":1729:1868   */\n    tag_554:\n        /* \"#utility.yul\":1775:1780   */\n      0x00\n        /* \"#utility.yul\":1813:1819   */\n      dup2\n        /* \"#utility.yul\":1800:1820   */\n      calldataload\n        /* \"#utility.yul\":1791:1820   */\n      swap1\n      pop\n        /* \"#utility.yul\":1829:1862   */\n      tag_664\n        /* \"#utility.yul\":1856:1861   */\n      dup2\n        /* \"#utility.yul\":1829:1862   */\n      tag_553\n      jump\t// in\n    tag_664:\n        /* \"#utility.yul\":1729:1868   */\n      swap3\n      swap2\n      pop\n      pop\n      jump\t// out\n        /* \"#utility.yul\":1874:2203   */\n    tag_56:\n        /* \"#utility.yul\":1933:1939   */\n      0x00\n        /* \"#utility.yul\":1982:1984   */\n      0x20\n        /* \"#utility.yul\":1970:1979   */\n      dup3\n        /* \"#utility.yul\":1961:1968   */\n      dup5\n        /* \"#utility.yul\":1957:1980   */\n      sub\n        /* \"#utility.yul\":1953:1985   */\n      slt\n        /* \"#utility.yul\":1950:2069   */\n      iszero\n      tag_666\n      jumpi\n        /* \"#utility.yul\":1988:2067   */\n      tag_667\n      tag_545\n      jump\t// in\n    tag_667:\n        /* \"#utility.yul\":1950:2069   */\n    tag_666:\n        /* \"#utility.yul\":2108:2109   */\n      0x00\n        /* \"#utility.yul\":2133:2186   */\n      tag_668\n        /* \"#utility.yul\":2178:2185   */\n      dup5\n        /* \"#utility.yul\":2169:2175   */\n      dup3\n        /* \"#utility.yul\":2158:2167   */\n      dup6\n        /* \"#utility.yul\":2154:2176   */\n      add\n        /* \"#utility.yul\":2133:2186   */\n      tag_554\n      jump\t// in\n    tag_668:\n        /* \"#utility.yul\":2123:2186   */\n      swap2\n      pop\n        /* \"#utility.yul\":2079:2196   */\n      pop\n        /* \"#utility.yul\":1874:2203   */\n      swap3\n      swap2\n      pop\n      pop\n      jump\t// out\n        /* \"#utility.yul\":2209:2335   */\n    tag_555:\n        /* \"#utility.yul\":2246:2253   */\n      0x00\n        /* \"#utility.yul\":2286:2328   */\n      0xffffffffffffffffffffffffffffffffffffffff\n        /* \"#utility.yul\":2279:2284   */\n      dup3\n        /* \"#utility.yul\":2275:2329   */\n      and\n        /* \"#utility.yul\":2264:2329   */\n      swap1\n      pop\n        /* \"#utility.yul\":2209:2335   */\n      swap2\n      swap1\n      pop\n      jump\t// out\n        /* \"#utility.yul\":2341:2437   */\n    tag_556:\n        /* \"#utility.yul\":2378:2385   */\n      0x00\n        /* \"#utility.yul\":2407:2431   */\n      tag_671\n        /* \"#utility.yul\":2425:2430   */\n      dup3\n        /* \"#utility.yul\":2407:2431   */\n      tag_555\n      jump\t// in\n    tag_671:\n        /* \"#utility.yul\":2396:2431   */\n      swap1\n      pop\n        /* \"#utility.yul\":2341:2437   */\n      swap2\n      swap1\n      pop\n      jump\t// out\n        /* \"#utility.yul\":2443:2551   */\n    tag_557:\n        /* \"#utility.yul\":2520:2544   */\n      tag_673\n        /* \"#utility.yul\":2538:2543   */\n      dup2\n        /* \"#utility.yul\":2520:2544   */\n      tag_556\n      jump\t// in\n    tag_673:\n        /* \"#utility.yul\":2515:2518   */\n      dup3\n        /* \"#utility.yul\":2508:2545   */\n      mstore\n        /* \"#utility.yul\":2443:2551   */\n      pop\n      pop\n      jump\t// out\n        /* \"#utility.yul\":2557:2665   */\n    tag_558:\n        /* \"#utility.yul\":2634:2658   */\n      tag_675\n        /* \"#utility.yul\":2652:2657   */\n      dup2\n        /* \"#utility.yul\":2634:2658   */\n      tag_552\n      jump\t// in\n    tag_675:\n        /* \"#utility.yul\":2629:2632   */\n      dup3\n        /* \"#utility.yul\":2622:2659   */\n      mstore\n        /* \"#utility.yul\":2557:2665   */\n      pop\n      pop\n      jump\t// out\n        /* \"#utility.yul\":2671:2770   */\n    tag_559:\n        /* \"#utility.yul\":2723:2729   */\n      0x00\n        /* \"#utility.yul\":2757:2762   */\n      dup2\n        /* \"#utility.yul\":2751:2763   */\n      mload\n        /* \"#utility.yul\":2741:2763   */\n      swap1\n      pop\n        /* \"#utility.yul\":2671:2770   */\n      swap2\n      swap1\n      pop\n      jump\t// out\n        /* \"#utility.yul\":2776:2935   */\n    tag_560:\n        /* \"#utility.yul\":2850:2861   */\n      0x00\n        /* \"#utility.yul\":2884:2890   */\n      dup3\n        /* \"#utility.yul\":2879:2882   */\n      dup3\n        /* \"#utility.yul\":2872:2891   */\n      mstore\n        /* \"#utility.yul\":2924:2928   */\n      0x20\n        /* \"#utility.yul\":2919:2922   */\n      dup3\n        /* \"#utility.yul\":2915:2929   */\n      add\n        /* \"#utility.yul\":2900:2929   */\n      swap1\n      pop\n        /* \"#utility.yul\":2776:2935   */\n      swap3\n      swap2\n      pop\n      pop\n      jump\t// out\n        /* \"#utility.yul\":2941:3080   */\n    tag_561:\n        /* \"#utility.yul\":3030:3036   */\n      dup3\n        /* \"#utility.yul\":3025:3028   */\n      dup2\n        /* \"#utility.yul\":3020:3023   */\n      dup4\n        /* \"#utility.yul\":3014:3037   */\n      mcopy\n        /* \"#utility.yul\":3071:3072   */\n      0x00\n        /* \"#utility.yul\":3062:3068   */\n      dup4\n        /* \"#utility.yul\":3057:3060   */\n      dup4\n        /* \"#utility.yul\":3053:3069   */\n      add\n        /* \"#utility.yul\":3046:3073   */\n      mstore\n        /* \"#utility.yul\":2941:3080   */\n      pop\n      pop\n      pop\n      jump\t// out\n        /* \"#utility.yul\":3086:3188   */\n    tag_562:\n        /* \"#utility.yul\":3127:3133   */\n      0x00\n        /* \"#utility.yul\":3178:3180   */\n      0x1f\n        /* \"#utility.yul\":3174:3181   */\n      not\n        /* \"#utility.yul\":3169:3171   */\n      0x1f\n        /* \"#utility.yul\":3162:3167   */\n      dup4\n        /* \"#utility.yul\":3158:3172   */\n      add\n        /* \"#utility.yul\":3154:3182   */\n      and\n        /* \"#utility.yul\":3144:3182   */\n      swap1\n      pop\n        /* \"#utility.yul\":3086:3188   */\n      swap2\n      swap1\n      pop\n      jump\t// out\n        /* \"#utility.yul\":3194:3551   */\n    tag_563:\n        /* \"#utility.yul\":3272:3275   */\n      0x00\n        /* \"#utility.yul\":3300:3339   */\n      tag_681\n        /* \"#utility.yul\":3333:3338   */\n      dup3\n        /* \"#utility.yul\":3300:3339   */\n      tag_559\n      jump\t// in\n    tag_681:\n        /* \"#utility.yul\":3355:3416   */\n      tag_682\n        /* \"#utility.yul\":3409:3415   */\n      dup2\n        /* \"#utility.yul\":3404:3407   */\n      dup6\n        /* \"#utility.yul\":3355:3416   */\n      tag_560\n      jump\t// in\n    tag_682:\n        /* \"#utility.yul\":3348:3416   */\n      swap4\n      pop\n        /* \"#utility.yul\":3425:3490   */\n      tag_683\n        /* \"#utility.yul\":3483:3489   */\n      dup2\n        /* \"#utility.yul\":3478:3481   */\n      dup6\n        /* \"#utility.yul\":3471:3475   */\n      0x20\n        /* \"#utility.yul\":3464:3469   */\n      dup7\n        /* \"#utility.yul\":3460:3476   */\n      add\n        /* \"#utility.yul\":3425:3490   */\n      tag_561\n      jump\t// in\n    tag_683:\n        /* \"#utility.yul\":3515:3544   */\n      tag_684\n        /* \"#utility.yul\":3537:3543   */\n      dup2\n        /* \"#utility.yul\":3515:3544   */\n      tag_562\n      jump\t// in\n    tag_684:\n        /* \"#utility.yul\":3510:3513   */\n      dup5\n        /* \"#utility.yul\":3506:3545   */\n      add\n        /* \"#utility.yul\":3499:3545   */\n      swap2\n      pop\n        /* \"#utility.yul\":3276:3551   */\n      pop\n        /* \"#utility.yul\":3194:3551   */\n      swap3\n      swap2\n      pop\n      pop\n      jump\t// out\n        /* \"#utility.yul\":3629:4787   */\n    tag_564:\n        /* \"#utility.yul\":3754:3757   */\n      0x00\n        /* \"#utility.yul\":3790:3794   */\n      0xa0\n        /* \"#utility.yul\":3785:3788   */\n      dup4\n        /* \"#utility.yul\":3781:3795   */\n      add\n        /* \"#utility.yul\":3879:3883   */\n      0x00\n        /* \"#utility.yul\":3872:3877   */\n      dup4\n        /* \"#utility.yul\":3868:3884   */\n      add\n        /* \"#utility.yul\":3862:3885   */\n      mload\n        /* \"#utility.yul\":3898:3961   */\n      tag_686\n        /* \"#utility.yul\":3955:3959   */\n      0x00\n        /* \"#utility.yul\":3950:3953   */\n      dup7\n        /* \"#utility.yul\":3946:3960   */\n      add\n        /* \"#utility.yul\":3932:3944   */\n      dup3\n        /* \"#utility.yul\":3898:3961   */\n      tag_557\n      jump\t// in\n    tag_686:\n        /* \"#utility.yul\":3805:3971   */\n      pop\n        /* \"#utility.yul\":4057:4061   */\n      0x20\n        /* \"#utility.yul\":4050:4055   */\n      dup4\n        /* \"#utility.yul\":4046:4062   */\n      add\n        /* \"#utility.yul\":4040:4063   */\n      mload\n        /* \"#utility.yul\":4076:4139   */\n      tag_687\n        /* \"#utility.yul\":4133:4137   */\n      0x20\n        /* \"#utility.yul\":4128:4131   */\n      dup7\n        /* \"#utility.yul\":4124:4138   */\n      add\n        /* \"#utility.yul\":4110:4122   */\n      dup3\n        /* \"#utility.yul\":4076:4139   */\n      tag_557\n      jump\t// in\n    tag_687:\n        /* \"#utility.yul\":3981:4149   */\n      pop\n        /* \"#utility.yul\":4233:4237   */\n      0x40\n        /* \"#utility.yul\":4226:4231   */\n      dup4\n        /* \"#utility.yul\":4222:4238   */\n      add\n        /* \"#utility.yul\":4216:4239   */\n      mload\n        /* \"#utility.yul\":4252:4315   */\n      tag_688\n        /* \"#utility.yul\":4309:4313   */\n      0x40\n        /* \"#utility.yul\":4304:4307   */\n      dup7\n        /* \"#utility.yul\":4300:4314   */\n      add\n        /* \"#utility.yul\":4286:4298   */\n      dup3\n        /* \"#utility.yul\":4252:4315   */\n      tag_558\n      jump\t// in\n    tag_688:\n        /* \"#utility.yul\":4159:4325   */\n      pop\n        /* \"#utility.yul\":4412:4416   */\n      0x60\n        /* \"#utility.yul\":4405:4410   */\n      dup4\n        /* \"#utility.yul\":4401:4417   */\n      add\n        /* \"#utility.yul\":4395:4418   */\n      mload\n        /* \"#utility.yul\":4431:4494   */\n      tag_689\n        /* \"#utility.yul\":4488:4492   */\n      0x60\n        /* \"#utility.yul\":4483:4486   */\n      dup7\n        /* \"#utility.yul\":4479:4493   */\n      add\n        /* \"#utility.yul\":4465:4477   */\n      dup3\n        /* \"#utility.yul\":4431:4494   */\n      tag_558\n      jump\t// in\n    tag_689:\n        /* \"#utility.yul\":4335:4504   */\n      pop\n        /* \"#utility.yul\":4597:4601   */\n      0x80\n        /* \"#utility.yul\":4590:4595   */\n      dup4\n        /* \"#utility.yul\":4586:4602   */\n      add\n        /* \"#utility.yul\":4580:4603   */\n      mload\n        /* \"#utility.yul\":4650:4653   */\n      dup5\n        /* \"#utility.yul\":4644:4648   */\n      dup3\n        /* \"#utility.yul\":4640:4654   */\n      sub\n        /* \"#utility.yul\":4633:4637   */\n      0x80\n        /* \"#utility.yul\":4628:4631   */\n      dup7\n        /* \"#utility.yul\":4624:4638   */\n      add\n        /* \"#utility.yul\":4617:4655   */\n      mstore\n        /* \"#utility.yul\":4676:4749   */\n      tag_690\n        /* \"#utility.yul\":4744:4748   */\n      dup3\n        /* \"#utility.yul\":4730:4742   */\n      dup3\n        /* \"#utility.yul\":4676:4749   */\n      tag_563\n      jump\t// in\n    tag_690:\n        /* \"#utility.yul\":4668:4749   */\n      swap2\n      pop\n        /* \"#utility.yul\":4514:4760   */\n      pop\n        /* \"#utility.yul\":4777:4781   */\n      dup1\n        /* \"#utility.yul\":4770:4781   */\n      swap2\n      pop\n        /* \"#utility.yul\":3759:4787   */\n      pop\n        /* \"#utility.yul\":3629:4787   */\n      swap3\n      swap2\n      pop\n      pop\n      jump\t// out\n        /* \"#utility.yul\":4793:5178   */\n    tag_59:\n        /* \"#utility.yul\":4942:4946   */\n      0x00\n        /* \"#utility.yul\":4980:4982   */\n      0x20\n        /* \"#utility.yul\":4969:4978   */\n      dup3\n        /* \"#utility.yul\":4965:4983   */\n      add\n        /* \"#utility.yul\":4957:4983   */\n      swap1\n      pop\n        /* \"#utility.yul\":5029:5038   */\n      dup2\n        /* \"#utility.yul\":5023:5027   */\n      dup2\n        /* \"#utility.yul\":5019:5039   */\n      sub\n        /* \"#utility.yul\":5015:5016   */\n      0x00\n        /* \"#utility.yul\":5004:5013   */\n      dup4\n        /* \"#utility.yul\":5000:5017   */\n      add\n        /* \"#utility.yul\":4993:5040   */\n      mstore\n        /* \"#utility.yul\":5057:5171   */\n      tag_692\n        /* \"#utility.yul\":5166:5170   */\n      dup2\n        /* \"#utility.yul\":5157:5163   */\n      dup5\n        /* \"#utility.yul\":5057:5171   */\n      tag_564\n      jump\t// in\n    tag_692:\n        /* \"#utility.yul\":5049:5171   */\n      swap1\n      pop\n        /* \"#utility.yul\":4793:5178   */\n      swap3\n      swap2\n      pop\n      pop\n      jump\t// out\n        /* \"#utility.yul\":5184:5302   */\n    tag_565:\n        /* \"#utility.yul\":5271:5295   */\n      tag_694\n        /* \"#utility.yul\":5289:5294   */\n      dup2\n        /* \"#utility.yul\":5271:5295   */\n      tag_556\n      jump\t// in\n    tag_694:\n        /* \"#utility.yul\":5266:5269   */\n      dup3\n        /* \"#utility.yul\":5259:5296   */\n      mstore\n        /* \"#utility.yul\":5184:5302   */\n      pop\n      pop\n      jump\t// out\n        /* \"#utility.yul\":5308:5422   */\n    tag_566:\n        /* \"#utility.yul\":5375:5381   */\n      0x00\n        /* \"#utility.yul\":5409:5414   */\n      dup2\n        /* \"#utility.yul\":5403:5415   */\n      mload\n        /* \"#utility.yul\":5393:5415   */\n      swap1\n      pop\n        /* \"#utility.yul\":5308:5422   */\n      swap2\n      swap1\n      pop\n      jump\t// out\n        /* \"#utility.yul\":5428:5612   */\n    tag_567:\n        /* \"#utility.yul\":5527:5538   */\n      0x00\n        /* \"#utility.yul\":5561:5567   */\n      dup3\n        /* \"#utility.yul\":5556:5559   */\n      dup3\n        /* \"#utility.yul\":5549:5568   */\n      mstore\n        /* \"#utility.yul\":5601:5605   */\n      0x20\n        /* \"#utility.yul\":5596:5599   */\n      dup3\n        /* \"#utility.yul\":5592:5606   */\n      add\n        /* \"#utility.yul\":5577:5606   */\n      swap1\n      pop\n        /* \"#utility.yul\":5428:5612   */\n      swap3\n      swap2\n      pop\n      pop\n      jump\t// out\n        /* \"#utility.yul\":5618:5750   */\n    tag_568:\n        /* \"#utility.yul\":5685:5689   */\n      0x00\n        /* \"#utility.yul\":5708:5711   */\n      dup2\n        /* \"#utility.yul\":5700:5711   */\n      swap1\n      pop\n        /* \"#utility.yul\":5738:5742   */\n      0x20\n        /* \"#utility.yul\":5733:5736   */\n      dup3\n        /* \"#utility.yul\":5729:5743   */\n      add\n        /* \"#utility.yul\":5721:5743   */\n      swap1\n      pop\n        /* \"#utility.yul\":5618:5750   */\n      swap2\n      swap1\n      pop\n      jump\t// out\n        /* \"#utility.yul\":5756:5935   */\n    tag_569:\n        /* \"#utility.yul\":5825:5835   */\n      0x00\n        /* \"#utility.yul\":5846:5892   */\n      tag_699\n        /* \"#utility.yul\":5888:5891   */\n      dup4\n        /* \"#utility.yul\":5880:5886   */\n      dup4\n        /* \"#utility.yul\":5846:5892   */\n      tag_557\n      jump\t// in\n    tag_699:\n        /* \"#utility.yul\":5924:5928   */\n      0x20\n        /* \"#utility.yul\":5919:5922   */\n      dup4\n        /* \"#utility.yul\":5915:5929   */\n      add\n        /* \"#utility.yul\":5901:5929   */\n      swap1\n      pop\n        /* \"#utility.yul\":5756:5935   */\n      swap3\n      swap2\n      pop\n      pop\n      jump\t// out\n        /* \"#utility.yul\":5941:6054   */\n    tag_570:\n        /* \"#utility.yul\":6011:6015   */\n      0x00\n        /* \"#utility.yul\":6043:6047   */\n      0x20\n        /* \"#utility.yul\":6038:6041   */\n      dup3\n        /* \"#utility.yul\":6034:6048   */\n      add\n        /* \"#utility.yul\":6026:6048   */\n      swap1\n      pop\n        /* \"#utility.yul\":5941:6054   */\n      swap2\n      swap1\n      pop\n      jump\t// out\n        /* \"#utility.yul\":6090:6822   */\n    tag_571:\n        /* \"#utility.yul\":6209:6212   */\n      0x00\n        /* \"#utility.yul\":6238:6292   */\n      tag_702\n        /* \"#utility.yul\":6286:6291   */\n      dup3\n        /* \"#utility.yul\":6238:6292   */\n      tag_566\n      jump\t// in\n    tag_702:\n        /* \"#utility.yul\":6308:6394   */\n      tag_703\n        /* \"#utility.yul\":6387:6393   */\n      dup2\n        /* \"#utility.yul\":6382:6385   */\n      dup6\n        /* \"#utility.yul\":6308:6394   */\n      tag_567\n      jump\t// in\n    tag_703:\n        /* \"#utility.yul\":6301:6394   */\n      swap4\n      pop\n        /* \"#utility.yul\":6418:6474   */\n      tag_704\n        /* \"#utility.yul\":6468:6473   */\n      dup4\n        /* \"#utility.yul\":6418:6474   */\n      tag_568\n      jump\t// in\n    tag_704:\n        /* \"#utility.yul\":6497:6504   */\n      dup1\n        /* \"#utility.yul\":6528:6529   */\n      0x00\n        /* \"#utility.yul\":6513:6797   */\n    tag_705:\n        /* \"#utility.yul\":6538:6544   */\n      dup4\n        /* \"#utility.yul\":6535:6536   */\n      dup2\n        /* \"#utility.yul\":6532:6545   */\n      lt\n        /* \"#utility.yul\":6513:6797   */\n      iszero\n      tag_707\n      jumpi\n        /* \"#utility.yul\":6614:6620   */\n      dup2\n        /* \"#utility.yul\":6608:6621   */\n      mload\n        /* \"#utility.yul\":6641:6704   */\n      tag_708\n        /* \"#utility.yul\":6700:6703   */\n      dup9\n        /* \"#utility.yul\":6685:6698   */\n      dup3\n        /* \"#utility.yul\":6641:6704   */\n      tag_569\n      jump\t// in\n    tag_708:\n        /* \"#utility.yul\":6634:6704   */\n      swap8\n      pop\n        /* \"#utility.yul\":6727:6787   */\n      tag_709\n        /* \"#utility.yul\":6780:6786   */\n      dup4\n        /* \"#utility.yul\":6727:6787   */\n      tag_570\n      jump\t// in\n    tag_709:\n        /* \"#utility.yul\":6717:6787   */\n      swap3\n      pop\n        /* \"#utility.yul\":6573:6797   */\n      pop\n        /* \"#utility.yul\":6560:6561   */\n      0x01\n        /* \"#utility.yul\":6557:6558   */\n      dup2\n        /* \"#utility.yul\":6553:6562   */\n      add\n        /* \"#utility.yul\":6548:6562   */\n      swap1\n      pop\n        /* \"#utility.yul\":6513:6797   */\n      jump(tag_705)\n    tag_707:\n        /* \"#utility.yul\":6517:6531   */\n      pop\n        /* \"#utility.yul\":6813:6816   */\n      dup6\n        /* \"#utility.yul\":6806:6816   */\n      swap4\n      pop\n        /* \"#utility.yul\":6214:6822   */\n      pop\n      pop\n      pop\n        /* \"#utility.yul\":6090:6822   */\n      swap3\n      swap2\n      pop\n      pop\n      jump\t// out\n        /* \"#utility.yul\":6828:6946   */\n    tag_572:\n        /* \"#utility.yul\":6915:6939   */\n      tag_711\n        /* \"#utility.yul\":6933:6938   */\n      dup2\n        /* \"#utility.yul\":6915:6939   */\n      tag_552\n      jump\t// in\n    tag_711:\n        /* \"#utility.yul\":6910:6913   */\n      dup3\n        /* \"#utility.yul\":6903:6940   */\n      mstore\n        /* \"#utility.yul\":6828:6946   */\n      pop\n      pop\n      jump\t// out\n        /* \"#utility.yul\":6952:7066   */\n    tag_573:\n        /* \"#utility.yul\":7019:7025   */\n      0x00\n        /* \"#utility.yul\":7053:7058   */\n      dup2\n        /* \"#utility.yul\":7047:7059   */\n      mload\n        /* \"#utility.yul\":7037:7059   */\n      swap1\n      pop\n        /* \"#utility.yul\":6952:7066   */\n      swap2\n      swap1\n      pop\n      jump\t// out\n        /* \"#utility.yul\":7072:7256   */\n    tag_574:\n        /* \"#utility.yul\":7171:7182   */\n      0x00\n        /* \"#utility.yul\":7205:7211   */\n      dup3\n        /* \"#utility.yul\":7200:7203   */\n      dup3\n        /* \"#utility.yul\":7193:7212   */\n      mstore\n        /* \"#utility.yul\":7245:7249   */\n      0x20\n        /* \"#utility.yul\":7240:7243   */\n      dup3\n        /* \"#utility.yul\":7236:7250   */\n      add\n        /* \"#utility.yul\":7221:7250   */\n      swap1\n      pop\n        /* \"#utility.yul\":7072:7256   */\n      swap3\n      swap2\n      pop\n      pop\n      jump\t// out\n        /* \"#utility.yul\":7262:7394   */\n    tag_575:\n        /* \"#utility.yul\":7329:7333   */\n      0x00\n        /* \"#utility.yul\":7352:7355   */\n      dup2\n        /* \"#utility.yul\":7344:7355   */\n      swap1\n      pop\n        /* \"#utility.yul\":7382:7386   */\n      0x20\n        /* \"#utility.yul\":7377:7380   */\n      dup3\n        /* \"#utility.yul\":7373:7387   */\n      add\n        /* \"#utility.yul\":7365:7387   */\n      swap1\n      pop\n        /* \"#utility.yul\":7262:7394   */\n      swap2\n      swap1\n      pop\n      jump\t// out\n        /* \"#utility.yul\":7400:7579   */\n    tag_576:\n        /* \"#utility.yul\":7469:7479   */\n      0x00\n        /* \"#utility.yul\":7490:7536   */\n      tag_716\n        /* \"#utility.yul\":7532:7535   */\n      dup4\n        /* \"#utility.yul\":7524:7530   */\n      dup4\n        /* \"#utility.yul\":7490:7536   */\n      tag_558\n      jump\t// in\n    tag_716:\n        /* \"#utility.yul\":7568:7572   */\n      0x20\n        /* \"#utility.yul\":7563:7566   */\n      dup4\n        /* \"#utility.yul\":7559:7573   */\n      add\n        /* \"#utility.yul\":7545:7573   */\n      swap1\n      pop\n        /* \"#utility.yul\":7400:7579   */\n      swap3\n      swap2\n      pop\n      pop\n      jump\t// out\n        /* \"#utility.yul\":7585:7698   */\n    tag_577:\n        /* \"#utility.yul\":7655:7659   */\n      0x00\n        /* \"#utility.yul\":7687:7691   */\n      0x20\n        /* \"#utility.yul\":7682:7685   */\n      dup3\n        /* \"#utility.yul\":7678:7692   */\n      add\n        /* \"#utility.yul\":7670:7692   */\n      swap1\n      pop\n        /* \"#utility.yul\":7585:7698   */\n      swap2\n      swap1\n      pop\n      jump\t// out\n        /* \"#utility.yul\":7734:8466   */\n    tag_578:\n        /* \"#utility.yul\":7853:7856   */\n      0x00\n        /* \"#utility.yul\":7882:7936   */\n      tag_719\n        /* \"#utility.yul\":7930:7935   */\n      dup3\n        /* \"#utility.yul\":7882:7936   */\n      tag_573\n      jump\t// in\n    tag_719:\n        /* \"#utility.yul\":7952:8038   */\n      tag_720\n        /* \"#utility.yul\":8031:8037   */\n      dup2\n        /* \"#utility.yul\":8026:8029   */\n      dup6\n        /* \"#utility.yul\":7952:8038   */\n      tag_574\n      jump\t// in\n    tag_720:\n        /* \"#utility.yul\":7945:8038   */\n      swap4\n      pop\n        /* \"#utility.yul\":8062:8118   */\n      tag_721\n        /* \"#utility.yul\":8112:8117   */\n      dup4\n        /* \"#utility.yul\":8062:8118   */\n      tag_575\n      jump\t// in\n    tag_721:\n        /* \"#utility.yul\":8141:8148   */\n      dup1\n        /* \"#utility.yul\":8172:8173   */\n      0x00\n        /* \"#utility.yul\":8157:8441   */\n    tag_722:\n        /* \"#utility.yul\":8182:8188   */\n      dup4\n        /* \"#utility.yul\":8179:8180   */\n      dup2\n        /* \"#utility.yul\":8176:8189   */\n      lt\n        /* \"#utility.yul\":8157:8441   */\n      iszero\n      tag_724\n      jumpi\n        /* \"#utility.yul\":8258:8264   */\n      dup2\n        /* \"#utility.yul\":8252:8265   */\n      mload\n        /* \"#utility.yul\":8285:8348   */\n      tag_725\n        /* \"#utility.yul\":8344:8347   */\n      dup9\n        /* \"#utility.yul\":8329:8342   */\n      dup3\n        /* \"#utility.yul\":8285:8348   */\n      tag_576\n      jump\t// in\n    tag_725:\n        /* \"#utility.yul\":8278:8348   */\n      swap8\n      pop\n        /* \"#utility.yul\":8371:8431   */\n      tag_726\n        /* \"#utility.yul\":8424:8430   */\n      dup4\n        /* \"#utility.yul\":8371:8431   */\n      tag_577\n      jump\t// in\n    tag_726:\n        /* \"#utility.yul\":8361:8431   */\n      swap3\n      pop\n        /* \"#utility.yul\":8217:8441   */\n      pop\n        /* \"#utility.yul\":8204:8205   */\n      0x01\n        /* \"#utility.yul\":8201:8202   */\n      dup2\n        /* \"#utility.yul\":8197:8206   */\n      add\n        /* \"#utility.yul\":8192:8206   */\n      swap1\n      pop\n        /* \"#utility.yul\":8157:8441   */\n      jump(tag_722)\n    tag_724:\n        /* \"#utility.yul\":8161:8175   */\n      pop\n        /* \"#utility.yul\":8457:8460   */\n      dup6\n        /* \"#utility.yul\":8450:8460   */\n      swap4\n      pop\n        /* \"#utility.yul\":7858:8466   */\n      pop\n      pop\n      pop\n        /* \"#utility.yul\":7734:8466   */\n      swap3\n      swap2\n      pop\n      pop\n      jump\t// out\n        /* \"#utility.yul\":8472:8641   */\n    tag_579:\n        /* \"#utility.yul\":8556:8567   */\n      0x00\n        /* \"#utility.yul\":8590:8596   */\n      dup3\n        /* \"#utility.yul\":8585:8588   */\n      dup3\n        /* \"#utility.yul\":8578:8597   */\n      mstore\n        /* \"#utility.yul\":8630:8634   */\n      0x20\n        /* \"#utility.yul\":8625:8628   */\n      dup3\n        /* \"#utility.yul\":8621:8635   */\n      add\n        /* \"#utility.yul\":8606:8635   */\n      swap1\n      pop\n        /* \"#utility.yul\":8472:8641   */\n      swap3\n      swap2\n      pop\n      pop\n      jump\t// out\n        /* \"#utility.yul\":8647:9024   */\n    tag_580:\n        /* \"#utility.yul\":8735:8738   */\n      0x00\n        /* \"#utility.yul\":8763:8802   */\n      tag_729\n        /* \"#utility.yul\":8796:8801   */\n      dup3\n        /* \"#utility.yul\":8763:8802   */\n      tag_559\n      jump\t// in\n    tag_729:\n        /* \"#utility.yul\":8818:8889   */\n      tag_730\n        /* \"#utility.yul\":8882:8888   */\n      dup2\n        /* \"#utility.yul\":8877:8880   */\n      dup6\n        /* \"#utility.yul\":8818:8889   */\n      tag_579\n      jump\t// in\n    tag_730:\n        /* \"#utility.yul\":8811:8889   */\n      swap4\n      pop\n        /* \"#utility.yul\":8898:8963   */\n      tag_731\n        /* \"#utility.yul\":8956:8962   */\n      dup2\n        /* \"#utility.yul\":8951:8954   */\n      dup6\n        /* \"#utility.yul\":8944:8948   */\n      0x20\n        /* \"#utility.yul\":8937:8942   */\n      dup7\n        /* \"#utility.yul\":8933:8949   */\n      add\n        /* \"#utility.yul\":8898:8963   */\n      tag_561\n      jump\t// in\n    tag_731:\n        /* \"#utility.yul\":8988:9017   */\n      tag_732\n        /* \"#utility.yul\":9010:9016   */\n      dup2\n        /* \"#utility.yul\":8988:9017   */\n      tag_562\n      jump\t// in\n    tag_732:\n        /* \"#utility.yul\":8983:8986   */\n      dup5\n        /* \"#utility.yul\":8979:9018   */\n      add\n        /* \"#utility.yul\":8972:9018   */\n      swap2\n      pop\n        /* \"#utility.yul\":8739:9024   */\n      pop\n        /* \"#utility.yul\":8647:9024   */\n      swap3\n      swap2\n      pop\n      pop\n      jump\t// out\n        /* \"#utility.yul\":9030:10507   */\n    tag_65:\n        /* \"#utility.yul\":9455:9459   */\n      0x00\n        /* \"#utility.yul\":9493:9496   */\n      0x0120\n        /* \"#utility.yul\":9482:9491   */\n      dup3\n        /* \"#utility.yul\":9478:9497   */\n      add\n        /* \"#utility.yul\":9470:9497   */\n      swap1\n      pop\n        /* \"#utility.yul\":9507:9578   */\n      tag_734\n        /* \"#utility.yul\":9575:9576   */\n      0x00\n        /* \"#utility.yul\":9564:9573   */\n      dup4\n        /* \"#utility.yul\":9560:9577   */\n      add\n        /* \"#utility.yul\":9551:9557   */\n      dup13\n        /* \"#utility.yul\":9507:9578   */\n      tag_565\n      jump\t// in\n    tag_734:\n        /* \"#utility.yul\":9625:9634   */\n      dup2\n        /* \"#utility.yul\":9619:9623   */\n      dup2\n        /* \"#utility.yul\":9615:9635   */\n      sub\n        /* \"#utility.yul\":9610:9612   */\n      0x20\n        /* \"#utility.yul\":9599:9608   */\n      dup4\n        /* \"#utility.yul\":9595:9613   */\n      add\n        /* \"#utility.yul\":9588:9636   */\n      mstore\n        /* \"#utility.yul\":9653:9761   */\n      tag_735\n        /* \"#utility.yul\":9756:9760   */\n      dup2\n        /* \"#utility.yul\":9747:9753   */\n      dup12\n        /* \"#utility.yul\":9653:9761   */\n      tag_571\n      jump\t// in\n    tag_735:\n        /* \"#utility.yul\":9645:9761   */\n      swap1\n      pop\n        /* \"#utility.yul\":9771:9843   */\n      tag_736\n        /* \"#utility.yul\":9839:9841   */\n      0x40\n        /* \"#utility.yul\":9828:9837   */\n      dup4\n        /* \"#utility.yul\":9824:9842   */\n      add\n        /* \"#utility.yul\":9815:9821   */\n      dup11\n        /* \"#utility.yul\":9771:9843   */\n      tag_572\n      jump\t// in\n    tag_736:\n        /* \"#utility.yul\":9890:9899   */\n      dup2\n        /* \"#utility.yul\":9884:9888   */\n      dup2\n        /* \"#utility.yul\":9880:9900   */\n      sub\n        /* \"#utility.yul\":9875:9877   */\n      0x60\n        /* \"#utility.yul\":9864:9873   */\n      dup4\n        /* \"#utility.yul\":9860:9878   */\n      add\n        /* \"#utility.yul\":9853:9901   */\n      mstore\n        /* \"#utility.yul\":9918:10026   */\n      tag_737\n        /* \"#utility.yul\":10021:10025   */\n      dup2\n        /* \"#utility.yul\":10012:10018   */\n      dup10\n        /* \"#utility.yul\":9918:10026   */\n      tag_578\n      jump\t// in\n    tag_737:\n        /* \"#utility.yul\":9910:10026   */\n      swap1\n      pop\n        /* \"#utility.yul\":10036:10103   */\n      tag_738\n        /* \"#utility.yul\":10098:10101   */\n      0x80\n        /* \"#utility.yul\":10087:10096   */\n      dup4\n        /* \"#utility.yul\":10083:10102   */\n      add\n        /* \"#utility.yul\":10074:10080   */\n      dup9\n        /* \"#utility.yul\":10036:10103   */\n      tag_551\n      jump\t// in\n    tag_738:\n        /* \"#utility.yul\":10113:10186   */\n      tag_739\n        /* \"#utility.yul\":10181:10184   */\n      0xa0\n        /* \"#utility.yul\":10170:10179   */\n      dup4\n        /* \"#utility.yul\":10166:10185   */\n      add\n        /* \"#utility.yul\":10157:10163   */\n      dup8\n        /* \"#utility.yul\":10113:10186   */\n      tag_572\n      jump\t// in\n    tag_739:\n        /* \"#utility.yul\":10196:10269   */\n      tag_740\n        /* \"#utility.yul\":10264:10267   */\n      0xc0\n        /* \"#utility.yul\":10253:10262   */\n      dup4\n        /* \"#utility.yul\":10249:10268   */\n      add\n        /* \"#utility.yul\":10240:10246   */\n      dup7\n        /* \"#utility.yul\":10196:10269   */\n      tag_572\n      jump\t// in\n    tag_740:\n        /* \"#utility.yul\":10317:10326   */\n      dup2\n        /* \"#utility.yul\":10311:10315   */\n      dup2\n        /* \"#utility.yul\":10307:10327   */\n      sub\n        /* \"#utility.yul\":10301:10304   */\n      0xe0\n        /* \"#utility.yul\":10290:10299   */\n      dup4\n        /* \"#utility.yul\":10286:10305   */\n      add\n        /* \"#utility.yul\":10279:10328   */\n      mstore\n        /* \"#utility.yul\":10345:10423   */\n      tag_741\n        /* \"#utility.yul\":10418:10422   */\n      dup2\n        /* \"#utility.yul\":10409:10415   */\n      dup6\n        /* \"#utility.yul\":10345:10423   */\n      tag_580\n      jump\t// in\n    tag_741:\n        /* \"#utility.yul\":10337:10423   */\n      swap1\n      pop\n        /* \"#utility.yul\":10433:10500   */\n      tag_742\n        /* \"#utility.yul\":10495:10498   */\n      0x0100\n        /* \"#utility.yul\":10484:10493   */\n      dup4\n        /* \"#utility.yul\":10480:10499   */\n      add\n        /* \"#utility.yul\":10471:10477   */\n      dup5\n        /* \"#utility.yul\":10433:10500   */\n      tag_551\n      jump\t// in\n    tag_742:\n        /* \"#utility.yul\":9030:10507   */\n      swap11\n      swap10\n      pop\n      pop\n      pop\n      pop\n      pop\n      pop\n      pop\n      pop\n      pop\n      pop\n      jump\t// out\n        /* \"#utility.yul\":10513:10590   */\n    tag_581:\n        /* \"#utility.yul\":10550:10557   */\n      0x00\n        /* \"#utility.yul\":10579:10584   */\n      dup2\n        /* \"#utility.yul\":10568:10584   */\n      swap1\n      pop\n        /* \"#utility.yul\":10513:10590   */\n      swap2\n      swap1\n      pop\n      jump\t// out\n        /* \"#utility.yul\":10596:10718   */\n    tag_582:\n        /* \"#utility.yul\":10669:10693   */\n      tag_745\n        /* \"#utility.yul\":10687:10692   */\n      dup2\n        /* \"#utility.yul\":10669:10693   */\n      tag_581\n      jump\t// in\n    tag_745:\n        /* \"#utility.yul\":10662:10667   */\n      dup2\n        /* \"#utility.yul\":10659:10694   */\n      eq\n        /* \"#utility.yul\":10649:10712   */\n      tag_746\n      jumpi\n        /* \"#utility.yul\":10708:10709   */\n      0x00\n        /* \"#utility.yul\":10705:10706   */\n      0x00\n        /* \"#utility.yul\":10698:10710   */\n      revert\n        /* \"#utility.yul\":10649:10712   */\n    tag_746:\n        /* \"#utility.yul\":10596:10718   */\n      pop\n      jump\t// out\n        /* \"#utility.yul\":10724:10863   */\n    tag_583:\n        /* \"#utility.yul\":10770:10775   */\n      0x00\n        /* \"#utility.yul\":10808:10814   */\n      dup2\n        /* \"#utility.yul\":10795:10815   */\n      calldataload\n        /* \"#utility.yul\":10786:10815   */\n      swap1\n      pop\n        /* \"#utility.yul\":10824:10857   */\n      tag_748\n        /* \"#utility.yul\":10851:10856   */\n      dup2\n        /* \"#utility.yul\":10824:10857   */\n      tag_582\n      jump\t// in\n    tag_748:\n        /* \"#utility.yul\":10724:10863   */\n      swap3\n      swap2\n      pop\n      pop\n      jump\t// out\n        /* \"#utility.yul\":10869:11198   */\n    tag_69:\n        /* \"#utility.yul\":10928:10934   */\n      0x00\n        /* \"#utility.yul\":10977:10979   */\n      0x20\n        /* \"#utility.yul\":10965:10974   */\n      dup3\n        /* \"#utility.yul\":10956:10963   */\n      dup5\n        /* \"#utility.yul\":10952:10975   */\n      sub\n        /* \"#utility.yul\":10948:10980   */\n      slt\n        /* \"#utility.yul\":10945:11064   */\n      iszero\n      tag_750\n      jumpi\n        /* \"#utility.yul\":10983:11062   */\n      tag_751\n      tag_545\n      jump\t// in\n    tag_751:\n        /* \"#utility.yul\":10945:11064   */\n    tag_750:\n        /* \"#utility.yul\":11103:11104   */\n      0x00\n        /* \"#utility.yul\":11128:11181   */\n      tag_752\n        /* \"#utility.yul\":11173:11180   */\n      dup5\n        /* \"#utility.yul\":11164:11170   */\n      dup3\n        /* \"#utility.yul\":11153:11162   */\n      dup6\n        /* \"#utility.yul\":11149:11171   */\n      add\n        /* \"#utility.yul\":11128:11181   */\n      tag_583\n      jump\t// in\n    tag_752:\n        /* \"#utility.yul\":11118:11181   */\n      swap2\n      pop\n        /* \"#utility.yul\":11074:11191   */\n      pop\n        /* \"#utility.yul\":10869:11198   */\n      swap3\n      swap2\n      pop\n      pop\n      jump\t// out\n        /* \"#utility.yul\":11204:11322   */\n    tag_584:\n        /* \"#utility.yul\":11291:11315   */\n      tag_754\n        /* \"#utility.yul\":11309:11314   */\n      dup2\n        /* \"#utility.yul\":11291:11315   */\n      tag_581\n      jump\t// in\n    tag_754:\n        /* \"#utility.yul\":11286:11289   */\n      dup3\n        /* \"#utility.yul\":11279:11316   */\n      mstore\n        /* \"#utility.yul\":11204:11322   */\n      pop\n      pop\n      jump\t// out\n        /* \"#utility.yul\":11328:11550   */\n    tag_72:\n        /* \"#utility.yul\":11421:11425   */\n      0x00\n        /* \"#utility.yul\":11459:11461   */\n      0x20\n        /* \"#utility.yul\":11448:11457   */\n      dup3\n        /* \"#utility.yul\":11444:11462   */\n      add\n        /* \"#utility.yul\":11436:11462   */\n      swap1\n      pop\n        /* \"#utility.yul\":11472:11543   */\n      tag_756\n        /* \"#utility.yul\":11540:11541   */\n      0x00\n        /* \"#utility.yul\":11529:11538   */\n      dup4\n        /* \"#utility.yul\":11525:11542   */\n      add\n        /* \"#utility.yul\":11516:11522   */\n      dup5\n        /* \"#utility.yul\":11472:11543   */\n      tag_584\n      jump\t// in\n    tag_756:\n        /* \"#utility.yul\":11328:11550   */\n      swap3\n      swap2\n      pop\n      pop\n      jump\t// out\n        /* \"#utility.yul\":11556:11678   */\n    tag_585:\n        /* \"#utility.yul\":11629:11653   */\n      tag_758\n        /* \"#utility.yul\":11647:11652   */\n      dup2\n        /* \"#utility.yul\":11629:11653   */\n      tag_556\n      jump\t// in\n    tag_758:\n        /* \"#utility.yul\":11622:11627   */\n      dup2\n        /* \"#utility.yul\":11619:11654   */\n      eq\n        /* \"#utility.yul\":11609:11672   */\n      tag_759\n      jumpi\n        /* \"#utility.yul\":11668:11669   */\n      0x00\n        /* \"#utility.yul\":11665:11666   */\n      0x00\n        /* \"#utility.yul\":11658:11670   */\n      revert\n        /* \"#utility.yul\":11609:11672   */\n    tag_759:\n        /* \"#utility.yul\":11556:11678   */\n      pop\n      jump\t// out\n        /* \"#utility.yul\":11684:11823   */\n    tag_586:\n        /* \"#utility.yul\":11730:11735   */\n      0x00\n        /* \"#utility.yul\":11768:11774   */\n      dup2\n        /* \"#utility.yul\":11755:11775   */\n      calldataload\n        /* \"#utility.yul\":11746:11775   */\n      swap1\n      pop\n        /* \"#utility.yul\":11784:11817   */\n      tag_761\n        /* \"#utility.yul\":11811:11816   */\n      dup2\n        /* \"#utility.yul\":11784:11817   */\n      tag_585\n      jump\t// in\n    tag_761:\n        /* \"#utility.yul\":11684:11823   */\n      swap3\n      swap2\n      pop\n      pop\n      jump\t// out\n        /* \"#utility.yul\":11829:12303   */\n    tag_76:\n        /* \"#utility.yul\":11897:11903   */\n      0x00\n        /* \"#utility.yul\":11905:11911   */\n      0x00\n        /* \"#utility.yul\":11954:11956   */\n      0x40\n        /* \"#utility.yul\":11942:11951   */\n      dup4\n        /* \"#utility.yul\":11933:11940   */\n      dup6\n        /* \"#utility.yul\":11929:11952   */\n      sub\n        /* \"#utility.yul\":11925:11957   */\n      slt\n        /* \"#utility.yul\":11922:12041   */\n      iszero\n      tag_763\n      jumpi\n        /* \"#utility.yul\":11960:12039   */\n      tag_764\n      tag_545\n      jump\t// in\n    tag_764:\n        /* \"#utility.yul\":11922:12041   */\n    tag_763:\n        /* \"#utility.yul\":12080:12081   */\n      0x00\n        /* \"#utility.yul\":12105:12158   */\n      tag_765\n        /* \"#utility.yul\":12150:12157   */\n      dup6\n        /* \"#utility.yul\":12141:12147   */\n      dup3\n        /* \"#utility.yul\":12130:12139   */\n      dup7\n        /* \"#utility.yul\":12126:12148   */\n      add\n        /* \"#utility.yul\":12105:12158   */\n      tag_583\n      jump\t// in\n    tag_765:\n        /* \"#utility.yul\":12095:12158   */\n      swap3\n      pop\n        /* \"#utility.yul\":12051:12168   */\n      pop\n        /* \"#utility.yul\":12207:12209   */\n      0x20\n        /* \"#utility.yul\":12233:12286   */\n      tag_766\n        /* \"#utility.yul\":12278:12285   */\n      dup6\n        /* \"#utility.yul\":12269:12275   */\n      dup3\n        /* \"#utility.yul\":12258:12267   */\n      dup7\n        /* \"#utility.yul\":12254:12276   */\n      add\n        /* \"#utility.yul\":12233:12286   */\n      tag_586\n      jump\t// in\n    tag_766:\n        /* \"#utility.yul\":12223:12286   */\n      swap2\n      pop\n        /* \"#utility.yul\":12178:12296   */\n      pop\n        /* \"#utility.yul\":11829:12303   */\n      swap3\n      pop\n      swap3\n      swap1\n      pop\n      jump\t// out\n        /* \"#utility.yul\":12309:12531   */\n    tag_86:\n        /* \"#utility.yul\":12402:12406   */\n      0x00\n        /* \"#utility.yul\":12440:12442   */\n      0x20\n        /* \"#utility.yul\":12429:12438   */\n      dup3\n        /* \"#utility.yul\":12425:12443   */\n      add\n        /* \"#utility.yul\":12417:12443   */\n      swap1\n      pop\n        /* \"#utility.yul\":12453:12524   */\n      tag_768\n        /* \"#utility.yul\":12521:12522   */\n      0x00\n        /* \"#utility.yul\":12510:12519   */\n      dup4\n        /* \"#utility.yul\":12506:12523   */\n      add\n        /* \"#utility.yul\":12497:12503   */\n      dup5\n        /* \"#utility.yul\":12453:12524   */\n      tag_572\n      jump\t// in\n    tag_768:\n        /* \"#utility.yul\":12309:12531   */\n      swap3\n      swap2\n      pop\n      pop\n      jump\t// out\n        /* \"#utility.yul\":12537:13011   */\n    tag_101:\n        /* \"#utility.yul\":12605:12611   */\n      0x00\n        /* \"#utility.yul\":12613:12619   */\n      0x00\n        /* \"#utility.yul\":12662:12664   */\n      0x40\n        /* \"#utility.yul\":12650:12659   */\n      dup4\n        /* \"#utility.yul\":12641:12648   */\n      dup6\n        /* \"#utility.yul\":12637:12660   */\n      sub\n        /* \"#utility.yul\":12633:12665   */\n      slt\n        /* \"#utility.yul\":12630:12749   */\n      iszero\n      tag_770\n      jumpi\n        /* \"#utility.yul\":12668:12747   */\n      tag_771\n      tag_545\n      jump\t// in\n    tag_771:\n        /* \"#utility.yul\":12630:12749   */\n    tag_770:\n        /* \"#utility.yul\":12788:12789   */\n      0x00\n        /* \"#utility.yul\":12813:12866   */\n      tag_772\n        /* \"#utility.yul\":12858:12865   */\n      dup6\n        /* \"#utility.yul\":12849:12855   */\n      dup3\n        /* \"#utility.yul\":12838:12847   */\n      dup7\n        /* \"#utility.yul\":12834:12856   */\n      add\n        /* \"#utility.yul\":12813:12866   */\n      tag_554\n      jump\t// in\n    tag_772:\n        /* \"#utility.yul\":12803:12866   */\n      swap3\n      pop\n        /* \"#utility.yul\":12759:12876   */\n      pop\n        /* \"#utility.yul\":12915:12917   */\n      0x20\n        /* \"#utility.yul\":12941:12994   */\n      tag_773\n        /* \"#utility.yul\":12986:12993   */\n      dup6\n        /* \"#utility.yul\":12977:12983   */\n      dup3\n        /* \"#utility.yul\":12966:12975   */\n      dup7\n        /* \"#utility.yul\":12962:12984   */\n      add\n        /* \"#utility.yul\":12941:12994   */\n      tag_586\n      jump\t// in\n    tag_773:\n        /* \"#utility.yul\":12931:12994   */\n      swap2\n      pop\n        /* \"#utility.yul\":12886:13004   */\n      pop\n        /* \"#utility.yul\":12537:13011   */\n      swap3\n      pop\n      swap3\n      swap1\n      pop\n      jump\t// out\n        /* \"#utility.yul\":13017:13346   */\n    tag_107:\n        /* \"#utility.yul\":13076:13082   */\n      0x00\n        /* \"#utility.yul\":13125:13127   */\n      0x20\n        /* \"#utility.yul\":13113:13122   */\n      dup3\n        /* \"#utility.yul\":13104:13111   */\n      dup5\n        /* \"#utility.yul\":13100:13123   */\n      sub\n        /* \"#utility.yul\":13096:13128   */\n      slt\n        /* \"#utility.yul\":13093:13212   */\n      iszero\n      tag_775\n      jumpi\n        /* \"#utility.yul\":13131:13210   */\n      tag_776\n      tag_545\n      jump\t// in\n    tag_776:\n        /* \"#utility.yul\":13093:13212   */\n    tag_775:\n        /* \"#utility.yul\":13251:13252   */\n      0x00\n        /* \"#utility.yul\":13276:13329   */\n      tag_777\n        /* \"#utility.yul\":13321:13328   */\n      dup5\n        /* \"#utility.yul\":13312:13318   */\n      dup3\n        /* \"#utility.yul\":13301:13310   */\n      dup6\n        /* \"#utility.yul\":13297:13319   */\n      add\n        /* \"#utility.yul\":13276:13329   */\n      tag_586\n      jump\t// in\n    tag_777:\n        /* \"#utility.yul\":13266:13329   */\n      swap2\n      pop\n        /* \"#utility.yul\":13222:13339   */\n      pop\n        /* \"#utility.yul\":13017:13346   */\n      swap3\n      swap2\n      pop\n      pop\n      jump\t// out\n        /* \"#utility.yul\":13352:13469   */\n    tag_587:\n        /* \"#utility.yul\":13461:13462   */\n      0x00\n        /* \"#utility.yul\":13458:13459   */\n      0x00\n        /* \"#utility.yul\":13451:13463   */\n      revert\n        /* \"#utility.yul\":13475:13655   */\n    tag_329:\n        /* \"#utility.yul\":13523:13600   */\n      0x4e487b7100000000000000000000000000000000000000000000000000000000\n        /* \"#utility.yul\":13520:13521   */\n      0x00\n        /* \"#utility.yul\":13513:13601   */\n      mstore\n        /* \"#utility.yul\":13620:13624   */\n      0x41\n        /* \"#utility.yul\":13617:13618   */\n      0x04\n        /* \"#utility.yul\":13610:13625   */\n      mstore\n        /* \"#utility.yul\":13644:13648   */\n      0x24\n        /* \"#utility.yul\":13641:13642   */\n      0x00\n        /* \"#utility.yul\":13634:13649   */\n      revert\n        /* \"#utility.yul\":13661:13942   */\n    tag_588:\n        /* \"#utility.yul\":13744:13771   */\n      tag_781\n        /* \"#utility.yul\":13766:13770   */\n      dup3\n        /* \"#utility.yul\":13744:13771   */\n      tag_562\n      jump\t// in\n    tag_781:\n        /* \"#utility.yul\":13736:13742   */\n      dup2\n        /* \"#utility.yul\":13732:13772   */\n      add\n        /* \"#utility.yul\":13874:13880   */\n      dup2\n        /* \"#utility.yul\":13862:13872   */\n      dup2\n        /* \"#utility.yul\":13859:13881   */\n      lt\n        /* \"#utility.yul\":13838:13856   */\n      0xffffffffffffffff\n        /* \"#utility.yul\":13826:13836   */\n      dup3\n        /* \"#utility.yul\":13823:13857   */\n      gt\n        /* \"#utility.yul\":13820:13882   */\n      or\n        /* \"#utility.yul\":13817:13905   */\n      iszero\n      tag_782\n      jumpi\n        /* \"#utility.yul\":13885:13903   */\n      tag_783\n      tag_329\n      jump\t// in\n    tag_783:\n        /* \"#utility.yul\":13817:13905   */\n    tag_782:\n        /* \"#utility.yul\":13925:13935   */\n      dup1\n        /* \"#utility.yul\":13921:13923   */\n      0x40\n        /* \"#utility.yul\":13914:13936   */\n      mstore\n        /* \"#utility.yul\":13704:13942   */\n      pop\n        /* \"#utility.yul\":13661:13942   */\n      pop\n      pop\n      jump\t// out\n        /* \"#utility.yul\":13948:14077   */\n    tag_589:\n        /* \"#utility.yul\":13982:13988   */\n      0x00\n        /* \"#utility.yul\":14009:14029   */\n      tag_785\n      tag_544\n      jump\t// in\n    tag_785:\n        /* \"#utility.yul\":13999:14029   */\n      swap1\n      pop\n        /* \"#utility.yul\":14038:14071   */\n      tag_786\n        /* \"#utility.yul\":14066:14070   */\n      dup3\n        /* \"#utility.yul\":14058:14064   */\n      dup3\n        /* \"#utility.yul\":14038:14071   */\n      tag_588\n      jump\t// in\n    tag_786:\n        /* \"#utility.yul\":13948:14077   */\n      swap2\n      swap1\n      pop\n      jump\t// out\n        /* \"#utility.yul\":14083:14394   */\n    tag_590:\n        /* \"#utility.yul\":14160:14164   */\n      0x00\n        /* \"#utility.yul\":14250:14268   */\n      0xffffffffffffffff\n        /* \"#utility.yul\":14242:14248   */\n      dup3\n        /* \"#utility.yul\":14239:14269   */\n      gt\n        /* \"#utility.yul\":14236:14292   */\n      iszero\n      tag_788\n      jumpi\n        /* \"#utility.yul\":14272:14290   */\n      tag_789\n      tag_329\n      jump\t// in\n    tag_789:\n        /* \"#utility.yul\":14236:14292   */\n    tag_788:\n        /* \"#utility.yul\":14322:14326   */\n      0x20\n        /* \"#utility.yul\":14314:14320   */\n      dup3\n        /* \"#utility.yul\":14310:14327   */\n      mul\n        /* \"#utility.yul\":14302:14327   */\n      swap1\n      pop\n        /* \"#utility.yul\":14382:14386   */\n      0x20\n        /* \"#utility.yul\":14376:14380   */\n      dup2\n        /* \"#utility.yul\":14372:14387   */\n      add\n        /* \"#utility.yul\":14364:14387   */\n      swap1\n      pop\n        /* \"#utility.yul\":14083:14394   */\n      swap2\n      swap1\n      pop\n      jump\t// out\n        /* \"#utility.yul\":14400:14517   */\n    tag_591:\n        /* \"#utility.yul\":14509:14510   */\n      0x00\n        /* \"#utility.yul\":14506:14507   */\n      0x00\n        /* \"#utility.yul\":14499:14511   */\n      revert\n        /* \"#utility.yul\":14540:15250   */\n    tag_592:\n        /* \"#utility.yul\":14636:14641   */\n      0x00\n        /* \"#utility.yul\":14661:14742   */\n      tag_792\n        /* \"#utility.yul\":14677:14741   */\n      tag_793\n        /* \"#utility.yul\":14734:14740   */\n      dup5\n        /* \"#utility.yul\":14677:14741   */\n      tag_590\n      jump\t// in\n    tag_793:\n        /* \"#utility.yul\":14661:14742   */\n      tag_589\n      jump\t// in\n    tag_792:\n        /* \"#utility.yul\":14652:14742   */\n      swap1\n      pop\n        /* \"#utility.yul\":14762:14767   */\n      dup1\n        /* \"#utility.yul\":14791:14797   */\n      dup4\n        /* \"#utility.yul\":14784:14789   */\n      dup3\n        /* \"#utility.yul\":14777:14798   */\n      mstore\n        /* \"#utility.yul\":14825:14829   */\n      0x20\n        /* \"#utility.yul\":14818:14823   */\n      dup3\n        /* \"#utility.yul\":14814:14830   */\n      add\n        /* \"#utility.yul\":14807:14830   */\n      swap1\n      pop\n        /* \"#utility.yul\":14878:14882   */\n      0x20\n        /* \"#utility.yul\":14870:14876   */\n      dup5\n        /* \"#utility.yul\":14866:14883   */\n      mul\n        /* \"#utility.yul\":14858:14864   */\n      dup4\n        /* \"#utility.yul\":14854:14884   */\n      add\n        /* \"#utility.yul\":14907:14910   */\n      dup6\n        /* \"#utility.yul\":14899:14905   */\n      dup2\n        /* \"#utility.yul\":14896:14911   */\n      gt\n        /* \"#utility.yul\":14893:15015   */\n      iszero\n      tag_794\n      jumpi\n        /* \"#utility.yul\":14926:15005   */\n      tag_795\n      tag_591\n      jump\t// in\n    tag_795:\n        /* \"#utility.yul\":14893:15015   */\n    tag_794:\n        /* \"#utility.yul\":15041:15047   */\n      dup4\n        /* \"#utility.yul\":15024:15244   */\n    tag_796:\n        /* \"#utility.yul\":15058:15064   */\n      dup2\n        /* \"#utility.yul\":15053:15056   */\n      dup2\n        /* \"#utility.yul\":15050:15065   */\n      lt\n        /* \"#utility.yul\":15024:15244   */\n      iszero\n      tag_798\n      jumpi\n        /* \"#utility.yul\":15133:15136   */\n      dup1\n        /* \"#utility.yul\":15162:15199   */\n      tag_799\n        /* \"#utility.yul\":15195:15198   */\n      dup9\n        /* \"#utility.yul\":15183:15193   */\n      dup3\n        /* \"#utility.yul\":15162:15199   */\n      tag_586\n      jump\t// in\n    tag_799:\n        /* \"#utility.yul\":15157:15160   */\n      dup5\n        /* \"#utility.yul\":15150:15200   */\n      mstore\n        /* \"#utility.yul\":15229:15233   */\n      0x20\n        /* \"#utility.yul\":15224:15227   */\n      dup5\n        /* \"#utility.yul\":15220:15234   */\n      add\n        /* \"#utility.yul\":15213:15234   */\n      swap4\n      pop\n        /* \"#utility.yul\":15100:15244   */\n      pop\n        /* \"#utility.yul\":15084:15088   */\n      0x20\n        /* \"#utility.yul\":15079:15082   */\n      dup2\n        /* \"#utility.yul\":15075:15089   */\n      add\n        /* \"#utility.yul\":15068:15089   */\n      swap1\n      pop\n        /* \"#utility.yul\":15024:15244   */\n      jump(tag_796)\n    tag_798:\n        /* \"#utility.yul\":15028:15049   */\n      pop\n        /* \"#utility.yul\":14642:15250   */\n      pop\n      pop\n        /* \"#utility.yul\":14540:15250   */\n      swap4\n      swap3\n      pop\n      pop\n      pop\n      jump\t// out\n        /* \"#utility.yul\":15273:15643   */\n    tag_593:\n        /* \"#utility.yul\":15344:15349   */\n      0x00\n        /* \"#utility.yul\":15393:15396   */\n      dup3\n        /* \"#utility.yul\":15386:15390   */\n      0x1f\n        /* \"#utility.yul\":15378:15384   */\n      dup4\n        /* \"#utility.yul\":15374:15391   */\n      add\n        /* \"#utility.yul\":15370:15397   */\n      slt\n        /* \"#utility.yul\":15360:15482   */\n      tag_801\n      jumpi\n        /* \"#utility.yul\":15401:15480   */\n      tag_802\n      tag_587\n      jump\t// in\n    tag_802:\n        /* \"#utility.yul\":15360:15482   */\n    tag_801:\n        /* \"#utility.yul\":15518:15524   */\n      dup2\n        /* \"#utility.yul\":15505:15525   */\n      calldataload\n        /* \"#utility.yul\":15543:15637   */\n      tag_803\n        /* \"#utility.yul\":15633:15636   */\n      dup5\n        /* \"#utility.yul\":15625:15631   */\n      dup3\n        /* \"#utility.yul\":15618:15622   */\n      0x20\n        /* \"#utility.yul\":15610:15616   */\n      dup7\n        /* \"#utility.yul\":15606:15623   */\n      add\n        /* \"#utility.yul\":15543:15637   */\n      tag_592\n      jump\t// in\n    tag_803:\n        /* \"#utility.yul\":15534:15637   */\n      swap2\n      pop\n        /* \"#utility.yul\":15350:15643   */\n      pop\n        /* \"#utility.yul\":15273:15643   */\n      swap3\n      swap2\n      pop\n      pop\n      jump\t// out\n        /* \"#utility.yul\":15649:15765   */\n    tag_594:\n        /* \"#utility.yul\":15719:15740   */\n      tag_805\n        /* \"#utility.yul\":15734:15739   */\n      dup2\n        /* \"#utility.yul\":15719:15740   */\n      tag_550\n      jump\t// in\n    tag_805:\n        /* \"#utility.yul\":15712:15717   */\n      dup2\n        /* \"#utility.yul\":15709:15741   */\n      eq\n        /* \"#utility.yul\":15699:15759   */\n      tag_806\n      jumpi\n        /* \"#utility.yul\":15755:15756   */\n      0x00\n        /* \"#utility.yul\":15752:15753   */\n      0x00\n        /* \"#utility.yul\":15745:15757   */\n      revert\n        /* \"#utility.yul\":15699:15759   */\n    tag_806:\n        /* \"#utility.yul\":15649:15765   */\n      pop\n      jump\t// out\n        /* \"#utility.yul\":15771:15904   */\n    tag_595:\n        /* \"#utility.yul\":15814:15819   */\n      0x00\n        /* \"#utility.yul\":15852:15858   */\n      dup2\n        /* \"#utility.yul\":15839:15859   */\n      calldataload\n        /* \"#utility.yul\":15830:15859   */\n      swap1\n      pop\n        /* \"#utility.yul\":15868:15898   */\n      tag_808\n        /* \"#utility.yul\":15892:15897   */\n      dup2\n        /* \"#utility.yul\":15868:15898   */\n      tag_594\n      jump\t// in\n    tag_808:\n        /* \"#utility.yul\":15771:15904   */\n      swap3\n      swap2\n      pop\n      pop\n      jump\t// out\n        /* \"#utility.yul\":15910:16027   */\n    tag_596:\n        /* \"#utility.yul\":16019:16020   */\n      0x00\n        /* \"#utility.yul\":16016:16017   */\n      0x00\n        /* \"#utility.yul\":16009:16021   */\n      revert\n        /* \"#utility.yul\":16033:16341   */\n    tag_597:\n        /* \"#utility.yul\":16095:16099   */\n      0x00\n        /* \"#utility.yul\":16185:16203   */\n      0xffffffffffffffff\n        /* \"#utility.yul\":16177:16183   */\n      dup3\n        /* \"#utility.yul\":16174:16204   */\n      gt\n        /* \"#utility.yul\":16171:16227   */\n      iszero\n      tag_811\n      jumpi\n        /* \"#utility.yul\":16207:16225   */\n      tag_812\n      tag_329\n      jump\t// in\n    tag_812:\n        /* \"#utility.yul\":16171:16227   */\n    tag_811:\n        /* \"#utility.yul\":16245:16274   */\n      tag_813\n        /* \"#utility.yul\":16267:16273   */\n      dup3\n        /* \"#utility.yul\":16245:16274   */\n      tag_562\n      jump\t// in\n    tag_813:\n        /* \"#utility.yul\":16237:16274   */\n      swap1\n      pop\n        /* \"#utility.yul\":16329:16333   */\n      0x20\n        /* \"#utility.yul\":16323:16327   */\n      dup2\n        /* \"#utility.yul\":16319:16334   */\n      add\n        /* \"#utility.yul\":16311:16334   */\n      swap1\n      pop\n        /* \"#utility.yul\":16033:16341   */\n      swap2\n      swap1\n      pop\n      jump\t// out\n        /* \"#utility.yul\":16347:16495   */\n    tag_598:\n        /* \"#utility.yul\":16445:16451   */\n      dup3\n        /* \"#utility.yul\":16440:16443   */\n      dup2\n        /* \"#utility.yul\":16435:16438   */\n      dup4\n        /* \"#utility.yul\":16422:16452   */\n      calldatacopy\n        /* \"#utility.yul\":16486:16487   */\n      0x00\n        /* \"#utility.yul\":16477:16483   */\n      dup4\n        /* \"#utility.yul\":16472:16475   */\n      dup4\n        /* \"#utility.yul\":16468:16484   */\n      add\n        /* \"#utility.yul\":16461:16488   */\n      mstore\n        /* \"#utility.yul\":16347:16495   */\n      pop\n      pop\n      pop\n      jump\t// out\n        /* \"#utility.yul\":16501:16926   */\n    tag_599:\n        /* \"#utility.yul\":16579:16584   */\n      0x00\n        /* \"#utility.yul\":16604:16670   */\n      tag_816\n        /* \"#utility.yul\":16620:16669   */\n      tag_817\n        /* \"#utility.yul\":16662:16668   */\n      dup5\n        /* \"#utility.yul\":16620:16669   */\n      tag_597\n      jump\t// in\n    tag_817:\n        /* \"#utility.yul\":16604:16670   */\n      tag_589\n      jump\t// in\n    tag_816:\n        /* \"#utility.yul\":16595:16670   */\n      swap1\n      pop\n        /* \"#utility.yul\":16693:16699   */\n      dup3\n        /* \"#utility.yul\":16686:16691   */\n      dup2\n        /* \"#utility.yul\":16679:16700   */\n      mstore\n        /* \"#utility.yul\":16731:16735   */\n      0x20\n        /* \"#utility.yul\":16724:16729   */\n      dup2\n        /* \"#utility.yul\":16720:16736   */\n      add\n        /* \"#utility.yul\":16769:16772   */\n      dup5\n        /* \"#utility.yul\":16760:16766   */\n      dup5\n        /* \"#utility.yul\":16755:16758   */\n      dup5\n        /* \"#utility.yul\":16751:16767   */\n      add\n        /* \"#utility.yul\":16748:16773   */\n      gt\n        /* \"#utility.yul\":16745:16857   */\n      iszero\n      tag_818\n      jumpi\n        /* \"#utility.yul\":16776:16855   */\n      tag_819\n      tag_596\n      jump\t// in\n    tag_819:\n        /* \"#utility.yul\":16745:16857   */\n    tag_818:\n        /* \"#utility.yul\":16866:16920   */\n      tag_820\n        /* \"#utility.yul\":16913:16919   */\n      dup5\n        /* \"#utility.yul\":16908:16911   */\n      dup3\n        /* \"#utility.yul\":16903:16906   */\n      dup6\n        /* \"#utility.yul\":16866:16920   */\n      tag_598\n      jump\t// in\n    tag_820:\n        /* \"#utility.yul\":16585:16926   */\n      pop\n        /* \"#utility.yul\":16501:16926   */\n      swap4\n      swap3\n      pop\n      pop\n      pop\n      jump\t// out\n        /* \"#utility.yul\":16946:17286   */\n    tag_600:\n        /* \"#utility.yul\":17002:17007   */\n      0x00\n        /* \"#utility.yul\":17051:17054   */\n      dup3\n        /* \"#utility.yul\":17044:17048   */\n      0x1f\n        /* \"#utility.yul\":17036:17042   */\n      dup4\n        /* \"#utility.yul\":17032:17049   */\n      add\n        /* \"#utility.yul\":17028:17055   */\n      slt\n        /* \"#utility.yul\":17018:17140   */\n      tag_822\n      jumpi\n        /* \"#utility.yul\":17059:17138   */\n      tag_823\n      tag_587\n      jump\t// in\n    tag_823:\n        /* \"#utility.yul\":17018:17140   */\n    tag_822:\n        /* \"#utility.yul\":17176:17182   */\n      dup2\n        /* \"#utility.yul\":17163:17183   */\n      calldataload\n        /* \"#utility.yul\":17201:17280   */\n      tag_824\n        /* \"#utility.yul\":17276:17279   */\n      dup5\n        /* \"#utility.yul\":17268:17274   */\n      dup3\n        /* \"#utility.yul\":17261:17265   */\n      0x20\n        /* \"#utility.yul\":17253:17259   */\n      dup7\n        /* \"#utility.yul\":17249:17266   */\n      add\n        /* \"#utility.yul\":17201:17280   */\n      tag_599\n      jump\t// in\n    tag_824:\n        /* \"#utility.yul\":17192:17280   */\n      swap2\n      pop\n        /* \"#utility.yul\":17008:17286   */\n      pop\n        /* \"#utility.yul\":16946:17286   */\n      swap3\n      swap2\n      pop\n      pop\n      jump\t// out\n        /* \"#utility.yul\":17292:18441   */\n    tag_137:\n        /* \"#utility.yul\":17410:17416   */\n      0x00\n        /* \"#utility.yul\":17418:17424   */\n      0x00\n        /* \"#utility.yul\":17426:17432   */\n      0x00\n        /* \"#utility.yul\":17434:17440   */\n      0x00\n        /* \"#utility.yul\":17483:17486   */\n      0x80\n        /* \"#utility.yul\":17471:17480   */\n      dup6\n        /* \"#utility.yul\":17462:17469   */\n      dup8\n        /* \"#utility.yul\":17458:17481   */\n      sub\n        /* \"#utility.yul\":17454:17487   */\n      slt\n        /* \"#utility.yul\":17451:17571   */\n      iszero\n      tag_826\n      jumpi\n        /* \"#utility.yul\":17490:17569   */\n      tag_827\n      tag_545\n      jump\t// in\n    tag_827:\n        /* \"#utility.yul\":17451:17571   */\n    tag_826:\n        /* \"#utility.yul\":17638:17639   */\n      0x00\n        /* \"#utility.yul\":17627:17636   */\n      dup6\n        /* \"#utility.yul\":17623:17640   */\n      add\n        /* \"#utility.yul\":17610:17641   */\n      calldataload\n        /* \"#utility.yul\":17668:17686   */\n      0xffffffffffffffff\n        /* \"#utility.yul\":17660:17666   */\n      dup2\n        /* \"#utility.yul\":17657:17687   */\n      gt\n        /* \"#utility.yul\":17654:17771   */\n      iszero\n      tag_828\n      jumpi\n        /* \"#utility.yul\":17690:17769   */\n      tag_829\n      tag_546\n      jump\t// in\n    tag_829:\n        /* \"#utility.yul\":17654:17771   */\n    tag_828:\n        /* \"#utility.yul\":17795:17873   */\n      tag_830\n        /* \"#utility.yul\":17865:17872   */\n      dup8\n        /* \"#utility.yul\":17856:17862   */\n      dup3\n        /* \"#utility.yul\":17845:17854   */\n      dup9\n        /* \"#utility.yul\":17841:17863   */\n      add\n        /* \"#utility.yul\":17795:17873   */\n      tag_593\n      jump\t// in\n    tag_830:\n        /* \"#utility.yul\":17785:17873   */\n      swap5\n      pop\n        /* \"#utility.yul\":17581:17883   */\n      pop\n        /* \"#utility.yul\":17922:17924   */\n      0x20\n        /* \"#utility.yul\":17948:18001   */\n      tag_831\n        /* \"#utility.yul\":17993:18000   */\n      dup8\n        /* \"#utility.yul\":17984:17990   */\n      dup3\n        /* \"#utility.yul\":17973:17982   */\n      dup9\n        /* \"#utility.yul\":17969:17991   */\n      add\n        /* \"#utility.yul\":17948:18001   */\n      tag_554\n      jump\t// in\n    tag_831:\n        /* \"#utility.yul\":17938:18001   */\n      swap4\n      pop\n        /* \"#utility.yul\":17893:18011   */\n      pop\n        /* \"#utility.yul\":18050:18052   */\n      0x40\n        /* \"#utility.yul\":18076:18126   */\n      tag_832\n        /* \"#utility.yul\":18118:18125   */\n      dup8\n        /* \"#utility.yul\":18109:18115   */\n      dup3\n        /* \"#utility.yul\":18098:18107   */\n      dup9\n        /* \"#utility.yul\":18094:18116   */\n      add\n        /* \"#utility.yul\":18076:18126   */\n      tag_595\n      jump\t// in\n    tag_832:\n        /* \"#utility.yul\":18066:18126   */\n      swap3\n      pop\n        /* \"#utility.yul\":18021:18136   */\n      pop\n        /* \"#utility.yul\":18203:18205   */\n      0x60\n        /* \"#utility.yul\":18192:18201   */\n      dup6\n        /* \"#utility.yul\":18188:18206   */\n      add\n        /* \"#utility.yul\":18175:18207   */\n      calldataload\n        /* \"#utility.yul\":18234:18252   */\n      0xffffffffffffffff\n        /* \"#utility.yul\":18226:18232   */\n      dup2\n        /* \"#utility.yul\":18223:18253   */\n      gt\n        /* \"#utility.yul\":18220:18337   */\n      iszero\n      tag_833\n      jumpi\n        /* \"#utility.yul\":18256:18335   */\n      tag_834\n      tag_546\n      jump\t// in\n    tag_834:\n        /* \"#utility.yul\":18220:18337   */\n    tag_833:\n        /* \"#utility.yul\":18361:18424   */\n      tag_835\n        /* \"#utility.yul\":18416:18423   */\n      dup8\n        /* \"#utility.yul\":18407:18413   */\n      dup3\n        /* \"#utility.yul\":18396:18405   */\n      dup9\n        /* \"#utility.yul\":18392:18414   */\n      add\n        /* \"#utility.yul\":18361:18424   */\n      tag_600\n      jump\t// in\n    tag_835:\n        /* \"#utility.yul\":18351:18424   */\n      swap2\n      pop\n        /* \"#utility.yul\":18146:18434   */\n      pop\n        /* \"#utility.yul\":17292:18441   */\n      swap3\n      swap6\n      swap2\n      swap5\n      pop\n      swap3\n      pop\n      jump\t// out\n        /* \"#utility.yul\":18447:19202   */\n    tag_144:\n        /* \"#utility.yul\":18672:18676   */\n      0x00\n        /* \"#utility.yul\":18710:18713   */\n      0xa0\n        /* \"#utility.yul\":18699:18708   */\n      dup3\n        /* \"#utility.yul\":18695:18714   */\n      add\n        /* \"#utility.yul\":18687:18714   */\n      swap1\n      pop\n        /* \"#utility.yul\":18724:18795   */\n      tag_837\n        /* \"#utility.yul\":18792:18793   */\n      0x00\n        /* \"#utility.yul\":18781:18790   */\n      dup4\n        /* \"#utility.yul\":18777:18794   */\n      add\n        /* \"#utility.yul\":18768:18774   */\n      dup9\n        /* \"#utility.yul\":18724:18795   */\n      tag_565\n      jump\t// in\n    tag_837:\n        /* \"#utility.yul\":18805:18877   */\n      tag_838\n        /* \"#utility.yul\":18873:18875   */\n      0x20\n        /* \"#utility.yul\":18862:18871   */\n      dup4\n        /* \"#utility.yul\":18858:18876   */\n      add\n        /* \"#utility.yul\":18849:18855   */\n      dup8\n        /* \"#utility.yul\":18805:18877   */\n      tag_565\n      jump\t// in\n    tag_838:\n        /* \"#utility.yul\":18887:18959   */\n      tag_839\n        /* \"#utility.yul\":18955:18957   */\n      0x40\n        /* \"#utility.yul\":18944:18953   */\n      dup4\n        /* \"#utility.yul\":18940:18958   */\n      add\n        /* \"#utility.yul\":18931:18937   */\n      dup7\n        /* \"#utility.yul\":18887:18959   */\n      tag_572\n      jump\t// in\n    tag_839:\n        /* \"#utility.yul\":18969:19041   */\n      tag_840\n        /* \"#utility.yul\":19037:19039   */\n      0x60\n        /* \"#utility.yul\":19026:19035   */\n      dup4\n        /* \"#utility.yul\":19022:19040   */\n      add\n        /* \"#utility.yul\":19013:19019   */\n      dup6\n        /* \"#utility.yul\":18969:19041   */\n      tag_572\n      jump\t// in\n    tag_840:\n        /* \"#utility.yul\":19089:19098   */\n      dup2\n        /* \"#utility.yul\":19083:19087   */\n      dup2\n        /* \"#utility.yul\":19079:19099   */\n      sub\n        /* \"#utility.yul\":19073:19076   */\n      0x80\n        /* \"#utility.yul\":19062:19071   */\n      dup4\n        /* \"#utility.yul\":19058:19077   */\n      add\n        /* \"#utility.yul\":19051:19100   */\n      mstore\n        /* \"#utility.yul\":19117:19195   */\n      tag_841\n        /* \"#utility.yul\":19190:19194   */\n      dup2\n        /* \"#utility.yul\":19181:19187   */\n      dup5\n        /* \"#utility.yul\":19117:19195   */\n      tag_580\n      jump\t// in\n    tag_841:\n        /* \"#utility.yul\":19109:19195   */\n      swap1\n      pop\n        /* \"#utility.yul\":18447:19202   */\n      swap7\n      swap6\n      pop\n      pop\n      pop\n      pop\n      pop\n      pop\n      jump\t// out\n        /* \"#utility.yul\":19208:19682   */\n    tag_164:\n        /* \"#utility.yul\":19276:19282   */\n      0x00\n        /* \"#utility.yul\":19284:19290   */\n      0x00\n        /* \"#utility.yul\":19333:19335   */\n      0x40\n        /* \"#utility.yul\":19321:19330   */\n      dup4\n        /* \"#utility.yul\":19312:19319   */\n      dup6\n        /* \"#utility.yul\":19308:19331   */\n      sub\n        /* \"#utility.yul\":19304:19336   */\n      slt\n        /* \"#utility.yul\":19301:19420   */\n      iszero\n      tag_843\n      jumpi\n        /* \"#utility.yul\":19339:19418   */\n      tag_844\n      tag_545\n      jump\t// in\n    tag_844:\n        /* \"#utility.yul\":19301:19420   */\n    tag_843:\n        /* \"#utility.yul\":19459:19460   */\n      0x00\n        /* \"#utility.yul\":19484:19537   */\n      tag_845\n        /* \"#utility.yul\":19529:19536   */\n      dup6\n        /* \"#utility.yul\":19520:19526   */\n      dup3\n        /* \"#utility.yul\":19509:19518   */\n      dup7\n        /* \"#utility.yul\":19505:19527   */\n      add\n        /* \"#utility.yul\":19484:19537   */\n      tag_586\n      jump\t// in\n    tag_845:\n        /* \"#utility.yul\":19474:19537   */\n      swap3\n      pop\n        /* \"#utility.yul\":19430:19547   */\n      pop\n        /* \"#utility.yul\":19586:19588   */\n      0x20\n        /* \"#utility.yul\":19612:19665   */\n      tag_846\n        /* \"#utility.yul\":19657:19664   */\n      dup6\n        /* \"#utility.yul\":19648:19654   */\n      dup3\n        /* \"#utility.yul\":19637:19646   */\n      dup7\n        /* \"#utility.yul\":19633:19655   */\n      add\n        /* \"#utility.yul\":19612:19665   */\n      tag_554\n      jump\t// in\n    tag_846:\n        /* \"#utility.yul\":19602:19665   */\n      swap2\n      pop\n        /* \"#utility.yul\":19557:19675   */\n      pop\n        /* \"#utility.yul\":19208:19682   */\n      swap3\n      pop\n      swap3\n      swap1\n      pop\n      jump\t// out\n        /* \"#utility.yul\":19688:20061   */\n    tag_185:\n        /* \"#utility.yul\":19831:19835   */\n      0x00\n        /* \"#utility.yul\":19869:19871   */\n      0x20\n        /* \"#utility.yul\":19858:19867   */\n      dup3\n        /* \"#utility.yul\":19854:19872   */\n      add\n        /* \"#utility.yul\":19846:19872   */\n      swap1\n      pop\n        /* \"#utility.yul\":19918:19927   */\n      dup2\n        /* \"#utility.yul\":19912:19916   */\n      dup2\n        /* \"#utility.yul\":19908:19928   */\n      sub\n        /* \"#utility.yul\":19904:19905   */\n      0x00\n        /* \"#utility.yul\":19893:19902   */\n      dup4\n        /* \"#utility.yul\":19889:19906   */\n      add\n        /* \"#utility.yul\":19882:19929   */\n      mstore\n        /* \"#utility.yul\":19946:20054   */\n      tag_848\n        /* \"#utility.yul\":20049:20053   */\n      dup2\n        /* \"#utility.yul\":20040:20046   */\n      dup5\n        /* \"#utility.yul\":19946:20054   */\n      tag_578\n      jump\t// in\n    tag_848:\n        /* \"#utility.yul\":19938:20054   */\n      swap1\n      pop\n        /* \"#utility.yul\":19688:20061   */\n      swap3\n      swap2\n      pop\n      pop\n      jump\t// out\n        /* \"#utility.yul\":20067:21020   */\n    tag_200:\n        /* \"#utility.yul\":20336:20340   */\n      0x00\n        /* \"#utility.yul\":20374:20377   */\n      0xe0\n        /* \"#utility.yul\":20363:20372   */\n      dup3\n        /* \"#utility.yul\":20359:20378   */\n      add\n        /* \"#utility.yul\":20351:20378   */\n      swap1\n      pop\n        /* \"#utility.yul\":20388:20459   */\n      tag_850\n        /* \"#utility.yul\":20456:20457   */\n      0x00\n        /* \"#utility.yul\":20445:20454   */\n      dup4\n        /* \"#utility.yul\":20441:20458   */\n      add\n        /* \"#utility.yul\":20432:20438   */\n      dup11\n        /* \"#utility.yul\":20388:20459   */\n      tag_565\n      jump\t// in\n    tag_850:\n        /* \"#utility.yul\":20469:20541   */\n      tag_851\n        /* \"#utility.yul\":20537:20539   */\n      0x20\n        /* \"#utility.yul\":20526:20535   */\n      dup4\n        /* \"#utility.yul\":20522:20540   */\n      add\n        /* \"#utility.yul\":20513:20519   */\n      dup10\n        /* \"#utility.yul\":20469:20541   */\n      tag_572\n      jump\t// in\n    tag_851:\n        /* \"#utility.yul\":20551:20617   */\n      tag_852\n        /* \"#utility.yul\":20613:20615   */\n      0x40\n        /* \"#utility.yul\":20602:20611   */\n      dup4\n        /* \"#utility.yul\":20598:20616   */\n      add\n        /* \"#utility.yul\":20589:20595   */\n      dup9\n        /* \"#utility.yul\":20551:20617   */\n      tag_551\n      jump\t// in\n    tag_852:\n        /* \"#utility.yul\":20627:20699   */\n      tag_853\n        /* \"#utility.yul\":20695:20697   */\n      0x60\n        /* \"#utility.yul\":20684:20693   */\n      dup4\n        /* \"#utility.yul\":20680:20698   */\n      add\n        /* \"#utility.yul\":20671:20677   */\n      dup8\n        /* \"#utility.yul\":20627:20699   */\n      tag_572\n      jump\t// in\n    tag_853:\n        /* \"#utility.yul\":20709:20782   */\n      tag_854\n        /* \"#utility.yul\":20777:20780   */\n      0x80\n        /* \"#utility.yul\":20766:20775   */\n      dup4\n        /* \"#utility.yul\":20762:20781   */\n      add\n        /* \"#utility.yul\":20753:20759   */\n      dup7\n        /* \"#utility.yul\":20709:20782   */\n      tag_572\n      jump\t// in\n    tag_854:\n        /* \"#utility.yul\":20830:20839   */\n      dup2\n        /* \"#utility.yul\":20824:20828   */\n      dup2\n        /* \"#utility.yul\":20820:20840   */\n      sub\n        /* \"#utility.yul\":20814:20817   */\n      0xa0\n        /* \"#utility.yul\":20803:20812   */\n      dup4\n        /* \"#utility.yul\":20799:20818   */\n      add\n        /* \"#utility.yul\":20792:20841   */\n      mstore\n        /* \"#utility.yul\":20858:20936   */\n      tag_855\n        /* \"#utility.yul\":20931:20935   */\n      dup2\n        /* \"#utility.yul\":20922:20928   */\n      dup6\n        /* \"#utility.yul\":20858:20936   */\n      tag_580\n      jump\t// in\n    tag_855:\n        /* \"#utility.yul\":20850:20936   */\n      swap1\n      pop\n        /* \"#utility.yul\":20946:21013   */\n      tag_856\n        /* \"#utility.yul\":21008:21011   */\n      0xc0\n        /* \"#utility.yul\":20997:21006   */\n      dup4\n        /* \"#utility.yul\":20993:21012   */\n      add\n        /* \"#utility.yul\":20984:20990   */\n      dup5\n        /* \"#utility.yul\":20946:21013   */\n      tag_551\n      jump\t// in\n    tag_856:\n        /* \"#utility.yul\":20067:21020   */\n      swap9\n      swap8\n      pop\n      pop\n      pop\n      pop\n      pop\n      pop\n      pop\n      pop\n      jump\t// out\n        /* \"#utility.yul\":21026:21206   */\n    tag_601:\n        /* \"#utility.yul\":21074:21151   */\n      0x4e487b7100000000000000000000000000000000000000000000000000000000\n        /* \"#utility.yul\":21071:21072   */\n      0x00\n        /* \"#utility.yul\":21064:21152   */\n      mstore\n        /* \"#utility.yul\":21171:21175   */\n      0x22\n        /* \"#utility.yul\":21168:21169   */\n      0x04\n        /* \"#utility.yul\":21161:21176   */\n      mstore\n        /* \"#utility.yul\":21195:21199   */\n      0x24\n        /* \"#utility.yul\":21192:21193   */\n      0x00\n        /* \"#utility.yul\":21185:21200   */\n      revert\n        /* \"#utility.yul\":21212:21532   */\n    tag_229:\n        /* \"#utility.yul\":21256:21262   */\n      0x00\n        /* \"#utility.yul\":21293:21294   */\n      0x02\n        /* \"#utility.yul\":21287:21291   */\n      dup3\n        /* \"#utility.yul\":21283:21295   */\n      div\n        /* \"#utility.yul\":21273:21295   */\n      swap1\n      pop\n        /* \"#utility.yul\":21340:21341   */\n      0x01\n        /* \"#utility.yul\":21334:21338   */\n      dup3\n        /* \"#utility.yul\":21330:21342   */\n      and\n        /* \"#utility.yul\":21361:21379   */\n      dup1\n        /* \"#utility.yul\":21351:21432   */\n      tag_859\n      jumpi\n        /* \"#utility.yul\":21417:21421   */\n      0x7f\n        /* \"#utility.yul\":21409:21415   */\n      dup3\n        /* \"#utility.yul\":21405:21422   */\n      and\n        /* \"#utility.yul\":21395:21422   */\n      swap2\n      pop\n        /* \"#utility.yul\":21351:21432   */\n    tag_859:\n        /* \"#utility.yul\":21479:21481   */\n      0x20\n        /* \"#utility.yul\":21471:21477   */\n      dup3\n        /* \"#utility.yul\":21468:21482   */\n      lt\n        /* \"#utility.yul\":21448:21466   */\n      dup2\n        /* \"#utility.yul\":21445:21483   */\n      sub\n        /* \"#utility.yul\":21442:21526   */\n      tag_860\n      jumpi\n        /* \"#utility.yul\":21498:21516   */\n      tag_861\n      tag_601\n      jump\t// in\n    tag_861:\n        /* \"#utility.yul\":21442:21526   */\n    tag_860:\n        /* \"#utility.yul\":21263:21532   */\n      pop\n        /* \"#utility.yul\":21212:21532   */\n      swap2\n      swap1\n      pop\n      jump\t// out\n        /* \"#utility.yul\":21538:21718   */\n    tag_282:\n        /* \"#utility.yul\":21586:21663   */\n      0x4e487b7100000000000000000000000000000000000000000000000000000000\n        /* \"#utility.yul\":21583:21584   */\n      0x00\n        /* \"#utility.yul\":21576:21664   */\n      mstore\n        /* \"#utility.yul\":21683:21687   */\n      0x32\n        /* \"#utility.yul\":21680:21681   */\n      0x04\n        /* \"#utility.yul\":21673:21688   */\n      mstore\n        /* \"#utility.yul\":21707:21711   */\n      0x24\n        /* \"#utility.yul\":21704:21705   */\n      0x00\n        /* \"#utility.yul\":21697:21712   */\n      revert\n        /* \"#utility.yul\":21724:21904   */\n    tag_602:\n        /* \"#utility.yul\":21772:21849   */\n      0x4e487b7100000000000000000000000000000000000000000000000000000000\n        /* \"#utility.yul\":21769:21770   */\n      0x00\n        /* \"#utility.yul\":21762:21850   */\n      mstore\n        /* \"#utility.yul\":21869:21873   */\n      0x11\n        /* \"#utility.yul\":21866:21867   */\n      0x04\n        /* \"#utility.yul\":21859:21874   */\n      mstore\n        /* \"#utility.yul\":21893:21897   */\n      0x24\n        /* \"#utility.yul\":21890:21891   */\n      0x00\n        /* \"#utility.yul\":21883:21898   */\n      revert\n        /* \"#utility.yul\":21910:22143   */\n    tag_287:\n        /* \"#utility.yul\":21949:21952   */\n      0x00\n        /* \"#utility.yul\":21972:21996   */\n      tag_865\n        /* \"#utility.yul\":21990:21995   */\n      dup3\n        /* \"#utility.yul\":21972:21996   */\n      tag_552\n      jump\t// in\n    tag_865:\n        /* \"#utility.yul\":21963:21996   */\n      swap2\n      pop\n        /* \"#utility.yul\":22018:22084   */\n      0xffffffffffffffffffffffffffffffffffffffffffffffffffffffffffffffff\n        /* \"#utility.yul\":22011:22016   */\n      dup3\n        /* \"#utility.yul\":22008:22085   */\n      sub\n        /* \"#utility.yul\":22005:22108   */\n      tag_866\n      jumpi\n        /* \"#utility.yul\":22088:22106   */\n      tag_867\n      tag_602\n      jump\t// in\n    tag_867:\n        /* \"#utility.yul\":22005:22108   */\n    tag_866:\n        /* \"#utility.yul\":22135:22136   */\n      0x01\n        /* \"#utility.yul\":22128:22133   */\n      dup3\n        /* \"#utility.yul\":22124:22137   */\n      add\n        /* \"#utility.yul\":22117:22137   */\n      swap1\n      pop\n        /* \"#utility.yul\":21910:22143   */\n      swap2\n      swap1\n      pop\n      jump\t// out\n        /* \"#utility.yul\":22149:22296   */\n    tag_603:\n        /* \"#utility.yul\":22250:22261   */\n      0x00\n        /* \"#utility.yul\":22287:22290   */\n      dup2\n        /* \"#utility.yul\":22272:22290   */\n      swap1\n      pop\n        /* \"#utility.yul\":22149:22296   */\n      swap3\n      swap2\n      pop\n      pop\n      jump\t// out\n        /* \"#utility.yul\":22302:22416   */\n    tag_604:\n      pop\n      jump\t// out\n        /* \"#utility.yul\":22422:22820   */\n    tag_605:\n        /* \"#utility.yul\":22581:22584   */\n      0x00\n        /* \"#utility.yul\":22602:22685   */\n      tag_871\n        /* \"#utility.yul\":22683:22684   */\n      0x00\n        /* \"#utility.yul\":22678:22681   */\n      dup4\n        /* \"#utility.yul\":22602:22685   */\n      tag_603\n      jump\t// in\n    tag_871:\n        /* \"#utility.yul\":22595:22685   */\n      swap2\n      pop\n        /* \"#utility.yul\":22694:22787   */\n      tag_872\n        /* \"#utility.yul\":22783:22786   */\n      dup3\n        /* \"#utility.yul\":22694:22787   */\n      tag_604\n      jump\t// in\n    tag_872:\n        /* \"#utility.yul\":22812:22813   */\n      0x00\n        /* \"#utility.yul\":22807:22810   */\n      dup3\n        /* \"#utility.yul\":22803:22814   */\n      add\n        /* \"#utility.yul\":22796:22814   */\n      swap1\n      pop\n        /* \"#utility.yul\":22422:22820   */\n      swap2\n      swap1\n      pop\n      jump\t// out\n        /* \"#utility.yul\":22826:23205   */\n    tag_292:\n        /* \"#utility.yul\":23010:23013   */\n      0x00\n        /* \"#utility.yul\":23032:23179   */\n      tag_874\n        /* \"#utility.yul\":23175:23178   */\n      dup3\n        /* \"#utility.yul\":23032:23179   */\n      tag_605\n      jump\t// in\n    tag_874:\n        /* \"#utility.yul\":23025:23179   */\n      swap2\n      pop\n        /* \"#utility.yul\":23196:23199   */\n      dup2\n        /* \"#utility.yul\":23189:23199   */\n      swap1\n      pop\n        /* \"#utility.yul\":22826:23205   */\n      swap2\n      swap1\n      pop\n      jump\t// out\n        /* \"#utility.yul\":23211:23352   */\n    tag_606:\n        /* \"#utility.yul\":23260:23264   */\n      0x00\n        /* \"#utility.yul\":23283:23286   */\n      dup2\n        /* \"#utility.yul\":23275:23286   */\n      swap1\n      pop\n        /* \"#utility.yul\":23306:23309   */\n      dup2\n        /* \"#utility.yul\":23303:23304   */\n      0x00\n        /* \"#utility.yul\":23296:23310   */\n      mstore\n        /* \"#utility.yul\":23340:23344   */\n      0x20\n        /* \"#utility.yul\":23337:23338   */\n      0x00\n        /* \"#utility.yul\":23327:23345   */\n      keccak256\n        /* \"#utility.yul\":23319:23345   */\n      swap1\n      pop\n        /* \"#utility.yul\":23211:23352   */\n      swap2\n      swap1\n      pop\n      jump\t// out\n        /* \"#utility.yul\":23358:23451   */\n    tag_607:\n        /* \"#utility.yul\":23395:23401   */\n      0x00\n        /* \"#utility.yul\":23442:23444   */\n      0x20\n        /* \"#utility.yul\":23437:23439   */\n      0x1f\n        /* \"#utility.yul\":23430:23435   */\n      dup4\n        /* \"#utility.yul\":23426:23440   */\n      add\n        /* \"#utility.yul\":23422:23445   */\n      div\n        /* \"#utility.yul\":23412:23445   */\n      swap1\n      pop\n        /* \"#utility.yul\":23358:23451   */\n      swap2\n      swap1\n      pop\n      jump\t// out\n        /* \"#utility.yul\":23457:23564   */\n    tag_608:\n        /* \"#utility.yul\":23501:23509   */\n      0x00\n        /* \"#utility.yul\":23551:23556   */\n      dup3\n        /* \"#utility.yul\":23545:23549   */\n      dup3\n        /* \"#utility.yul\":23541:23557   */\n      shl\n        /* \"#utility.yul\":23520:23557   */\n      swap1\n      pop\n        /* \"#utility.yul\":23457:23564   */\n      swap3\n      swap2\n      pop\n      pop\n      jump\t// out\n        /* \"#utility.yul\":23570:23963   */\n    tag_609:\n        /* \"#utility.yul\":23639:23645   */\n      0x00\n        /* \"#utility.yul\":23689:23690   */\n      0x08\n        /* \"#utility.yul\":23677:23687   */\n      dup4\n        /* \"#utility.yul\":23673:23691   */\n      mul\n        /* \"#utility.yul\":23712:23809   */\n      tag_879\n        /* \"#utility.yul\":23742:23808   */\n      0xffffffffffffffffffffffffffffffffffffffffffffffffffffffffffffffff\n        /* \"#utility.yul\":23731:23740   */\n      dup3\n        /* \"#utility.yul\":23712:23809   */\n      tag_608\n      jump\t// in\n    tag_879:\n        /* \"#utility.yul\":23830:23869   */\n      tag_880\n        /* \"#utility.yul\":23860:23868   */\n      dup7\n        /* \"#utility.yul\":23849:23858   */\n      dup4\n        /* \"#utility.yul\":23830:23869   */\n      tag_608\n      jump\t// in\n    tag_880:\n        /* \"#utility.yul\":23818:23869   */\n      swap6\n      pop\n        /* \"#utility.yul\":23902:23906   */\n      dup1\n        /* \"#utility.yul\":23898:23907   */\n      not\n        /* \"#utility.yul\":23891:23896   */\n      dup5\n        /* \"#utility.yul\":23887:23908   */\n      and\n        /* \"#utility.yul\":23878:23908   */\n      swap4\n      pop\n        /* \"#utility.yul\":23951:23955   */\n      dup1\n        /* \"#utility.yul\":23941:23949   */\n      dup7\n        /* \"#utility.yul\":23937:23956   */\n      and\n        /* \"#utility.yul\":23930:23935   */\n      dup5\n        /* \"#utility.yul\":23927:23957   */\n      or\n        /* \"#utility.yul\":23917:23957   */\n      swap3\n      pop\n        /* \"#utility.yul\":23646:23963   */\n      pop\n      pop\n        /* \"#utility.yul\":23570:23963   */\n      swap4\n      swap3\n      pop\n      pop\n      pop\n      jump\t// out\n        /* \"#utility.yul\":23969:24029   */\n    tag_610:\n        /* \"#utility.yul\":23997:24000   */\n      0x00\n        /* \"#utility.yul\":24018:24023   */\n      dup2\n        /* \"#utility.yul\":24011:24023   */\n      swap1\n      pop\n        /* \"#utility.yul\":23969:24029   */\n      swap2\n      swap1\n      pop\n      jump\t// out\n        /* \"#utility.yul\":24035:24177   */\n    tag_611:\n        /* \"#utility.yul\":24085:24094   */\n      0x00\n        /* \"#utility.yul\":24118:24171   */\n      tag_883\n        /* \"#utility.yul\":24136:24170   */\n      tag_884\n        /* \"#utility.yul\":24145:24169   */\n      tag_885\n        /* \"#utility.yul\":24163:24168   */\n      dup5\n        /* \"#utility.yul\":24145:24169   */\n      tag_552\n      jump\t// in\n    tag_885:\n        /* \"#utility.yul\":24136:24170   */\n      tag_610\n      jump\t// in\n    tag_884:\n        /* \"#utility.yul\":24118:24171   */\n      tag_552\n      jump\t// in\n    tag_883:\n        /* \"#utility.yul\":24105:24171   */\n      swap1\n      pop\n        /* \"#utility.yul\":24035:24177   */\n      swap2\n      swap1\n      pop\n      jump\t// out\n        /* \"#utility.yul\":24183:24258   */\n    tag_612:\n        /* \"#utility.yul\":24226:24229   */\n      0x00\n        /* \"#utility.yul\":24247:24252   */\n      dup2\n        /* \"#utility.yul\":24240:24252   */\n      swap1\n      pop\n        /* \"#utility.yul\":24183:24258   */\n      swap2\n      swap1\n      pop\n      jump\t// out\n        /* \"#utility.yul\":24264:24533   */\n    tag_613:\n        /* \"#utility.yul\":24374:24413   */\n      tag_888\n        /* \"#utility.yul\":24405:24412   */\n      dup4\n        /* \"#utility.yul\":24374:24413   */\n      tag_611\n      jump\t// in\n    tag_888:\n        /* \"#utility.yul\":24435:24526   */\n      tag_889\n        /* \"#utility.yul\":24484:24525   */\n      tag_890\n        /* \"#utility.yul\":24508:24524   */\n      dup3\n        /* \"#utility.yul\":24484:24525   */\n      tag_612\n      jump\t// in\n    tag_890:\n        /* \"#utility.yul\":24476:24482   */\n      dup5\n        /* \"#utility.yul\":24469:24473   */\n      dup5\n        /* \"#utility.yul\":24463:24474   */\n      sload\n        /* \"#utility.yul\":24435:24526   */\n      tag_609\n      jump\t// in\n    tag_889:\n        /* \"#utility.yul\":24429:24433   */\n      dup3\n        /* \"#utility.yul\":24422:24527   */\n      sstore\n        /* \"#utility.yul\":24340:24533   */\n      pop\n        /* \"#utility.yul\":24264:24533   */\n      pop\n      pop\n      pop\n      jump\t// out\n        /* \"#utility.yul\":24539:24612   */\n    tag_614:\n        /* \"#utility.yul\":24584:24587   */\n      0x00\n        /* \"#utility.yul\":24605:24606   */\n      0x00\n        /* \"#utility.yul\":24598:24606   */\n      swap1\n      pop\n        /* \"#utility.yul\":24539:24612   */\n      swap1\n      jump\t// out\n        /* \"#utility.yul\":24618:24807   */\n    tag_615:\n        /* \"#utility.yul\":24695:24727   */\n      tag_893\n      tag_614\n      jump\t// in\n    tag_893:\n        /* \"#utility.yul\":24736:24801   */\n      tag_894\n        /* \"#utility.yul\":24794:24800   */\n      dup2\n        /* \"#utility.yul\":24786:24792   */\n      dup5\n        /* \"#utility.yul\":24780:24784   */\n      dup5\n        /* \"#utility.yul\":24736:24801   */\n      tag_613\n      jump\t// in\n    tag_894:\n        /* \"#utility.yul\":24671:24807   */\n      pop\n        /* \"#utility.yul\":24618:24807   */\n      pop\n      pop\n      jump\t// out\n        /* \"#utility.yul\":24813:24999   */\n    tag_616:\n        /* \"#utility.yul\":24873:24993   */\n    tag_896:\n        /* \"#utility.yul\":24890:24893   */\n      dup2\n        /* \"#utility.yul\":24883:24888   */\n      dup2\n        /* \"#utility.yul\":24880:24894   */\n      lt\n        /* \"#utility.yul\":24873:24993   */\n      iszero\n      tag_898\n      jumpi\n        /* \"#utility.yul\":24944:24983   */\n      tag_899\n        /* \"#utility.yul\":24981:24982   */\n      0x00\n        /* \"#utility.yul\":24974:24979   */\n      dup3\n        /* \"#utility.yul\":24944:24983   */\n      tag_615\n      jump\t// in\n    tag_899:\n        /* \"#utility.yul\":24917:24918   */\n      0x01\n        /* \"#utility.yul\":24910:24915   */\n      dup2\n        /* \"#utility.yul\":24906:24919   */\n      add\n        /* \"#utility.yul\":24897:24919   */\n      swap1\n      pop\n        /* \"#utility.yul\":24873:24993   */\n      jump(tag_896)\n    tag_898:\n        /* \"#utility.yul\":24813:24999   */\n      pop\n      pop\n      jump\t// out\n        /* \"#utility.yul\":25005:25548   */\n    tag_617:\n        /* \"#utility.yul\":25106:25108   */\n      0x1f\n        /* \"#utility.yul\":25101:25104   */\n      dup3\n        /* \"#utility.yul\":25098:25109   */\n      gt\n        /* \"#utility.yul\":25095:25541   */\n      iszero\n      tag_901\n      jumpi\n        /* \"#utility.yul\":25140:25178   */\n      tag_902\n        /* \"#utility.yul\":25172:25177   */\n      dup2\n        /* \"#utility.yul\":25140:25178   */\n      tag_606\n      jump\t// in\n    tag_902:\n        /* \"#utility.yul\":25224:25253   */\n      tag_903\n        /* \"#utility.yul\":25242:25252   */\n      dup5\n        /* \"#utility.yul\":25224:25253   */\n      tag_607\n      jump\t// in\n    tag_903:\n        /* \"#utility.yul\":25214:25222   */\n      dup2\n        /* \"#utility.yul\":25210:25254   */\n      add\n        /* \"#utility.yul\":25407:25409   */\n      0x20\n        /* \"#utility.yul\":25395:25405   */\n      dup6\n        /* \"#utility.yul\":25392:25410   */\n      lt\n        /* \"#utility.yul\":25389:25438   */\n      iszero\n      tag_904\n      jumpi\n        /* \"#utility.yul\":25428:25436   */\n      dup2\n        /* \"#utility.yul\":25413:25436   */\n      swap1\n      pop\n        /* \"#utility.yul\":25389:25438   */\n    tag_904:\n        /* \"#utility.yul\":25451:25531   */\n      tag_905\n        /* \"#utility.yul\":25507:25529   */\n      tag_906\n        /* \"#utility.yul\":25525:25528   */\n      dup6\n        /* \"#utility.yul\":25507:25529   */\n      tag_607\n      jump\t// in\n    tag_906:\n        /* \"#utility.yul\":25497:25505   */\n      dup4\n        /* \"#utility.yul\":25493:25530   */\n      add\n        /* \"#utility.yul\":25480:25491   */\n      dup3\n        /* \"#utility.yul\":25451:25531   */\n      tag_616\n      jump\t// in\n    tag_905:\n        /* \"#utility.yul\":25110:25541   */\n      pop\n      pop\n        /* \"#utility.yul\":25095:25541   */\n    tag_901:\n        /* \"#utility.yul\":25005:25548   */\n      pop\n      pop\n      pop\n      jump\t// out\n        /* \"#utility.yul\":25554:25671   */\n    tag_618:\n        /* \"#utility.yul\":25608:25616   */\n      0x00\n        /* \"#utility.yul\":25658:25663   */\n      dup3\n        /* \"#utility.yul\":25652:25656   */\n      dup3\n        /* \"#utility.yul\":25648:25664   */\n      shr\n        /* \"#utility.yul\":25627:25664   */\n      swap1\n      pop\n        /* \"#utility.yul\":25554:25671   */\n      swap3\n      swap2\n      pop\n      pop\n      jump\t// out\n        /* \"#utility.yul\":25677:25846   */\n    tag_619:\n        /* \"#utility.yul\":25721:25727   */\n      0x00\n        /* \"#utility.yul\":25754:25805   */\n      tag_909\n        /* \"#utility.yul\":25802:25803   */\n      0x00\n        /* \"#utility.yul\":25798:25804   */\n      not\n        /* \"#utility.yul\":25790:25795   */\n      dup5\n        /* \"#utility.yul\":25787:25788   */\n      0x08\n        /* \"#utility.yul\":25783:25796   */\n      mul\n        /* \"#utility.yul\":25754:25805   */\n      tag_618\n      jump\t// in\n    tag_909:\n        /* \"#utility.yul\":25750:25806   */\n      not\n        /* \"#utility.yul\":25835:25839   */\n      dup1\n        /* \"#utility.yul\":25829:25833   */\n      dup4\n        /* \"#utility.yul\":25825:25840   */\n      and\n        /* \"#utility.yul\":25815:25840   */\n      swap2\n      pop\n        /* \"#utility.yul\":25728:25846   */\n      pop\n        /* \"#utility.yul\":25677:25846   */\n      swap3\n      swap2\n      pop\n      pop\n      jump\t// out\n        /* \"#utility.yul\":25851:26146   */\n    tag_620:\n        /* \"#utility.yul\":25927:25931   */\n      0x00\n        /* \"#utility.yul\":26073:26102   */\n      tag_911\n        /* \"#utility.yul\":26098:26101   */\n      dup4\n        /* \"#utility.yul\":26092:26096   */\n      dup4\n        /* \"#utility.yul\":26073:26102   */\n      tag_619\n      jump\t// in\n    tag_911:\n        /* \"#utility.yul\":26065:26102   */\n      swap2\n      pop\n        /* \"#utility.yul\":26135:26138   */\n      dup3\n        /* \"#utility.yul\":26132:26133   */\n      0x02\n        /* \"#utility.yul\":26128:26139   */\n      mul\n        /* \"#utility.yul\":26122:26126   */\n      dup3\n        /* \"#utility.yul\":26119:26140   */\n      or\n        /* \"#utility.yul\":26111:26140   */\n      swap1\n      pop\n        /* \"#utility.yul\":25851:26146   */\n      swap3\n      swap2\n      pop\n      pop\n      jump\t// out\n        /* \"#utility.yul\":26151:27546   */\n    tag_299:\n        /* \"#utility.yul\":26268:26305   */\n      tag_913\n        /* \"#utility.yul\":26301:26304   */\n      dup3\n        /* \"#utility.yul\":26268:26305   */\n      tag_559\n      jump\t// in\n    tag_913:\n        /* \"#utility.yul\":26370:26388   */\n      0xffffffffffffffff\n        /* \"#utility.yul\":26362:26368   */\n      dup2\n        /* \"#utility.yul\":26359:26389   */\n      gt\n        /* \"#utility.yul\":26356:26412   */\n      iszero\n      tag_914\n      jumpi\n        /* \"#utility.yul\":26392:26410   */\n      tag_915\n      tag_329\n      jump\t// in\n    tag_915:\n        /* \"#utility.yul\":26356:26412   */\n    tag_914:\n        /* \"#utility.yul\":26436:26474   */\n      tag_916\n        /* \"#utility.yul\":26468:26472   */\n      dup3\n        /* \"#utility.yul\":26462:26473   */\n      sload\n        /* \"#utility.yul\":26436:26474   */\n      tag_229\n      jump\t// in\n    tag_916:\n        /* \"#utility.yul\":26521:26588   */\n      tag_917\n        /* \"#utility.yul\":26581:26587   */\n      dup3\n        /* \"#utility.yul\":26573:26579   */\n      dup3\n        /* \"#utility.yul\":26567:26571   */\n      dup6\n        /* \"#utility.yul\":26521:26588   */\n      tag_617\n      jump\t// in\n    tag_917:\n        /* \"#utility.yul\":26615:26616   */\n      0x00\n        /* \"#utility.yul\":26639:26643   */\n      0x20\n        /* \"#utility.yul\":26626:26643   */\n      swap1\n      pop\n        /* \"#utility.yul\":26671:26673   */\n      0x1f\n        /* \"#utility.yul\":26663:26669   */\n      dup4\n        /* \"#utility.yul\":26660:26674   */\n      gt\n        /* \"#utility.yul\":26688:26689   */\n      0x01\n        /* \"#utility.yul\":26683:27301   */\n      dup2\n      eq\n      tag_919\n      jumpi\n        /* \"#utility.yul\":27345:27346   */\n      0x00\n        /* \"#utility.yul\":27362:27368   */\n      dup5\n        /* \"#utility.yul\":27359:27436   */\n      iszero\n      tag_920\n      jumpi\n        /* \"#utility.yul\":27411:27420   */\n      dup3\n        /* \"#utility.yul\":27406:27409   */\n      dup8\n        /* \"#utility.yul\":27402:27421   */\n      add\n        /* \"#utility.yul\":27396:27422   */\n      mload\n        /* \"#utility.yul\":27387:27422   */\n      swap1\n      pop\n        /* \"#utility.yul\":27359:27436   */\n    tag_920:\n        /* \"#utility.yul\":27462:27529   */\n      tag_921\n        /* \"#utility.yul\":27522:27528   */\n      dup6\n        /* \"#utility.yul\":27515:27520   */\n      dup3\n        /* \"#utility.yul\":27462:27529   */\n      tag_620\n      jump\t// in\n    tag_921:\n        /* \"#utility.yul\":27456:27460   */\n      dup7\n        /* \"#utility.yul\":27449:27530   */\n      sstore\n        /* \"#utility.yul\":27318:27540   */\n      pop\n        /* \"#utility.yul\":26653:27540   */\n      jump(tag_918)\n        /* \"#utility.yul\":26683:27301   */\n    tag_919:\n        /* \"#utility.yul\":26735:26739   */\n      0x1f\n        /* \"#utility.yul\":26731:26740   */\n      not\n        /* \"#utility.yul\":26723:26729   */\n      dup5\n        /* \"#utility.yul\":26719:26741   */\n      and\n        /* \"#utility.yul\":26769:26806   */\n      tag_922\n        /* \"#utility.yul\":26801:26805   */\n      dup7\n        /* \"#utility.yul\":26769:26806   */\n      tag_606\n      jump\t// in\n    tag_922:\n        /* \"#utility.yul\":26828:26829   */\n      0x00\n        /* \"#utility.yul\":26842:27050   */\n    tag_923:\n        /* \"#utility.yul\":26856:26863   */\n      dup3\n        /* \"#utility.yul\":26853:26854   */\n      dup2\n        /* \"#utility.yul\":26850:26864   */\n      lt\n        /* \"#utility.yul\":26842:27050   */\n      iszero\n      tag_925\n      jumpi\n        /* \"#utility.yul\":26935:26944   */\n      dup5\n        /* \"#utility.yul\":26930:26933   */\n      dup10\n        /* \"#utility.yul\":26926:26945   */\n      add\n        /* \"#utility.yul\":26920:26946   */\n      mload\n        /* \"#utility.yul\":26912:26918   */\n      dup3\n        /* \"#utility.yul\":26905:26947   */\n      sstore\n        /* \"#utility.yul\":26986:26987   */\n      0x01\n        /* \"#utility.yul\":26978:26984   */\n      dup3\n        /* \"#utility.yul\":26974:26988   */\n      add\n        /* \"#utility.yul\":26964:26988   */\n      swap2\n      pop\n        /* \"#utility.yul\":27033:27035   */\n      0x20\n        /* \"#utility.yul\":27022:27031   */\n      dup6\n        /* \"#utility.yul\":27018:27036   */\n      add\n        /* \"#utility.yul\":27005:27036   */\n      swap5\n      pop\n        /* \"#utility.yul\":26879:26883   */\n      0x20\n        /* \"#utility.yul\":26876:26877   */\n      dup2\n        /* \"#utility.yul\":26872:26884   */\n      add\n        /* \"#utility.yul\":26867:26884   */\n      swap1\n      pop\n        /* \"#utility.yul\":26842:27050   */\n      jump(tag_923)\n    tag_925:\n        /* \"#utility.yul\":27078:27084   */\n      dup7\n        /* \"#utility.yul\":27069:27076   */\n      dup4\n        /* \"#utility.yul\":27066:27085   */\n      lt\n        /* \"#utility.yul\":27063:27242   */\n      iszero\n      tag_926\n      jumpi\n        /* \"#utility.yul\":27136:27145   */\n      dup5\n        /* \"#utility.yul\":27131:27134   */\n      dup10\n        /* \"#utility.yul\":27127:27146   */\n      add\n        /* \"#utility.yul\":27121:27147   */\n      mload\n        /* \"#utility.yul\":27179:27227   */\n      tag_927\n        /* \"#utility.yul\":27221:27225   */\n      0x1f\n        /* \"#utility.yul\":27213:27219   */\n      dup10\n        /* \"#utility.yul\":27209:27226   */\n      and\n        /* \"#utility.yul\":27198:27207   */\n      dup3\n        /* \"#utility.yul\":27179:27227   */\n      tag_619\n      jump\t// in\n    tag_927:\n        /* \"#utility.yul\":27171:27177   */\n      dup4\n        /* \"#utility.yul\":27164:27228   */\n      sstore\n        /* \"#utility.yul\":27086:27242   */\n      pop\n        /* \"#utility.yul\":27063:27242   */\n    tag_926:\n        /* \"#utility.yul\":27288:27289   */\n      0x01\n        /* \"#utility.yul\":27284:27285   */\n      0x02\n        /* \"#utility.yul\":27276:27282   */\n      dup9\n        /* \"#utility.yul\":27272:27286   */\n      mul\n        /* \"#utility.yul\":27268:27290   */\n      add\n        /* \"#utility.yul\":27262:27266   */\n      dup9\n        /* \"#utility.yul\":27255:27291   */\n      sstore\n        /* \"#utility.yul\":26690:27301   */\n      pop\n      pop\n      pop\n        /* \"#utility.yul\":26653:27540   */\n    tag_918:\n      pop\n        /* \"#utility.yul\":26243:27546   */\n      pop\n      pop\n      pop\n        /* \"#utility.yul\":26151:27546   */\n      pop\n      pop\n      jump\t// out\n        /* \"#utility.yul\":27552:27732   */\n    tag_621:\n        /* \"#utility.yul\":27600:27677   */\n      0x4e487b7100000000000000000000000000000000000000000000000000000000\n        /* \"#utility.yul\":27597:27598   */\n      0x00\n        /* \"#utility.yul\":27590:27678   */\n      mstore\n        /* \"#utility.yul\":27697:27701   */\n      0x12\n        /* \"#utility.yul\":27694:27695   */\n      0x04\n        /* \"#utility.yul\":27687:27702   */\n      mstore\n        /* \"#utility.yul\":27721:27725   */\n      0x24\n        /* \"#utility.yul\":27718:27719   */\n      0x00\n        /* \"#utility.yul\":27711:27726   */\n      revert\n        /* \"#utility.yul\":27738:27923   */\n    tag_336:\n        /* \"#utility.yul\":27778:27779   */\n      0x00\n        /* \"#utility.yul\":27795:27815   */\n      tag_930\n        /* \"#utility.yul\":27813:27814   */\n      dup3\n        /* \"#utility.yul\":27795:27815   */\n      tag_552\n      jump\t// in\n    tag_930:\n        /* \"#utility.yul\":27790:27815   */\n      swap2\n      pop\n        /* \"#utility.yul\":27829:27849   */\n      tag_931\n        /* \"#utility.yul\":27847:27848   */\n      dup4\n        /* \"#utility.yul\":27829:27849   */\n      tag_552\n      jump\t// in\n    tag_931:\n        /* \"#utility.yul\":27824:27849   */\n      swap3\n      pop\n        /* \"#utility.yul\":27868:27869   */\n      dup3\n        /* \"#utility.yul\":27858:27893   */\n      tag_932\n      jumpi\n        /* \"#utility.yul\":27873:27891   */\n      tag_933\n      tag_621\n      jump\t// in\n    tag_933:\n        /* \"#utility.yul\":27858:27893   */\n    tag_932:\n        /* \"#utility.yul\":27915:27916   */\n      dup3\n        /* \"#utility.yul\":27912:27913   */\n      dup3\n        /* \"#utility.yul\":27908:27917   */\n      div\n        /* \"#utility.yul\":27903:27917   */\n      swap1\n      pop\n        /* \"#utility.yul\":27738:27923   */\n      swap3\n      swap2\n      pop\n      pop\n      jump\t// out\n        /* \"#utility.yul\":27929:28105   */\n    tag_338:\n        /* \"#utility.yul\":27961:27962   */\n      0x00\n        /* \"#utility.yul\":27978:27998   */\n      tag_935\n        /* \"#utility.yul\":27996:27997   */\n      dup3\n        /* \"#utility.yul\":27978:27998   */\n      tag_552\n      jump\t// in\n    tag_935:\n        /* \"#utility.yul\":27973:27998   */\n      swap2\n      pop\n        /* \"#utility.yul\":28012:28032   */\n      tag_936\n        /* \"#utility.yul\":28030:28031   */\n      dup4\n        /* \"#utility.yul\":28012:28032   */\n      tag_552\n      jump\t// in\n    tag_936:\n        /* \"#utility.yul\":28007:28032   */\n      swap3\n      pop\n        /* \"#utility.yul\":28051:28052   */\n      dup3\n        /* \"#utility.yul\":28041:28076   */\n      tag_937\n      jumpi\n        /* \"#utility.yul\":28056:28074   */\n      tag_938\n      tag_621\n      jump\t// in\n    tag_938:\n        /* \"#utility.yul\":28041:28076   */\n    tag_937:\n        /* \"#utility.yul\":28097:28098   */\n      dup3\n        /* \"#utility.yul\":28094:28095   */\n      dup3\n        /* \"#utility.yul\":28090:28099   */\n      mod\n        /* \"#utility.yul\":28085:28099   */\n      swap1\n      pop\n        /* \"#utility.yul\":27929:28105   */\n      swap3\n      swap2\n      pop\n      pop\n      jump\t// out\n        /* \"#utility.yul\":28111:28302   */\n    tag_348:\n        /* \"#utility.yul\":28151:28154   */\n      0x00\n        /* \"#utility.yul\":28170:28190   */\n      tag_940\n        /* \"#utility.yul\":28188:28189   */\n      dup3\n        /* \"#utility.yul\":28170:28190   */\n      tag_552\n      jump\t// in\n    tag_940:\n        /* \"#utility.yul\":28165:28190   */\n      swap2\n      pop\n        /* \"#utility.yul\":28204:28224   */\n      tag_941\n        /* \"#utility.yul\":28222:28223   */\n      dup4\n        /* \"#utility.yul\":28204:28224   */\n      tag_552\n      jump\t// in\n    tag_941:\n        /* \"#utility.yul\":28199:28224   */\n      swap3\n      pop\n        /* \"#utility.yul\":28247:28248   */\n      dup3\n        /* \"#utility.yul\":28244:28245   */\n      dup3\n        /* \"#utility.yul\":28240:28249   */\n      add\n        /* \"#utility.yul\":28233:28249   */\n      swap1\n      pop\n        /* \"#utility.yul\":28268:28271   */\n      dup1\n        /* \"#utility.yul\":28265:28266   */\n      dup3\n        /* \"#utility.yul\":28262:28272   */\n      gt\n        /* \"#utility.yul\":28259:28295   */\n      iszero\n      tag_942\n      jumpi\n        /* \"#utility.yul\":28275:28293   */\n      tag_943\n      tag_602\n      jump\t// in\n    tag_943:\n        /* \"#utility.yul\":28259:28295   */\n    tag_942:\n        /* \"#utility.yul\":28111:28302   */\n      swap3\n      swap2\n      pop\n      pop\n      jump\t// out\n        /* \"#utility.yul\":28308:28640   */\n    tag_359:\n        /* \"#utility.yul\":28429:28433   */\n      0x00\n        /* \"#utility.yul\":28467:28469   */\n      0x40\n        /* \"#utility.yul\":28456:28465   */\n      dup3\n        /* \"#utility.yul\":28452:28470   */\n      add\n        /* \"#utility.yul\":28444:28470   */\n      swap1\n      pop\n        /* \"#utility.yul\":28480:28551   */\n      tag_945\n        /* \"#utility.yul\":28548:28549   */\n      0x00\n        /* \"#utility.yul\":28537:28546   */\n      dup4\n        /* \"#utility.yul\":28533:28550   */\n      add\n        /* \"#utility.yul\":28524:28530   */\n      dup6\n        /* \"#utility.yul\":28480:28551   */\n      tag_572\n      jump\t// in\n    tag_945:\n        /* \"#utility.yul\":28561:28633   */\n      tag_946\n        /* \"#utility.yul\":28629:28631   */\n      0x20\n        /* \"#utility.yul\":28618:28627   */\n      dup4\n        /* \"#utility.yul\":28614:28632   */\n      add\n        /* \"#utility.yul\":28605:28611   */\n      dup5\n        /* \"#utility.yul\":28561:28633   */\n      tag_572\n      jump\t// in\n    tag_946:\n        /* \"#utility.yul\":28308:28640   */\n      swap4\n      swap3\n      pop\n      pop\n      pop\n      jump\t// out\n        /* \"#utility.yul\":28646:28823   */\n    tag_622:\n        /* \"#utility.yul\":28786:28815   */\n      0x456d657267656e6379207769746864726177616c206661696c65640000000000\n        /* \"#utility.yul\":28782:28783   */\n      0x00\n        /* \"#utility.yul\":28774:28780   */\n      dup3\n        /* \"#utility.yul\":28770:28784   */\n      add\n        /* \"#utility.yul\":28763:28816   */\n      mstore\n        /* \"#utility.yul\":28646:28823   */\n      pop\n      jump\t// out\n        /* \"#utility.yul\":28829:29195   */\n    tag_623:\n        /* \"#utility.yul\":28971:28974   */\n      0x00\n        /* \"#utility.yul\":28992:29059   */\n      tag_949\n        /* \"#utility.yul\":29056:29058   */\n      0x1b\n        /* \"#utility.yul\":29051:29054   */\n      dup4\n        /* \"#utility.yul\":28992:29059   */\n      tag_579\n      jump\t// in\n    tag_949:\n        /* \"#utility.yul\":28985:29059   */\n      swap2\n      pop\n        /* \"#utility.yul\":29068:29161   */\n      tag_950\n        /* \"#utility.yul\":29157:29160   */\n      dup3\n        /* \"#utility.yul\":29068:29161   */\n      tag_622\n      jump\t// in\n    tag_950:\n        /* \"#utility.yul\":29186:29188   */\n      0x20\n        /* \"#utility.yul\":29181:29184   */\n      dup3\n        /* \"#utility.yul\":29177:29189   */\n      add\n        /* \"#utility.yul\":29170:29189   */\n      swap1\n      pop\n        /* \"#utility.yul\":28829:29195   */\n      swap2\n      swap1\n      pop\n      jump\t// out\n        /* \"#utility.yul\":29201:29620   */\n    tag_422:\n        /* \"#utility.yul\":29367:29371   */\n      0x00\n        /* \"#utility.yul\":29405:29407   */\n      0x20\n        /* \"#utility.yul\":29394:29403   */\n      dup3\n        /* \"#utility.yul\":29390:29408   */\n      add\n        /* \"#utility.yul\":29382:29408   */\n      swap1\n      pop\n        /* \"#utility.yul\":29454:29463   */\n      dup2\n        /* \"#utility.yul\":29448:29452   */\n      dup2\n        /* \"#utility.yul\":29444:29464   */\n      sub\n        /* \"#utility.yul\":29440:29441   */\n      0x00\n        /* \"#utility.yul\":29429:29438   */\n      dup4\n        /* \"#utility.yul\":29425:29442   */\n      add\n        /* \"#utility.yul\":29418:29465   */\n      mstore\n        /* \"#utility.yul\":29482:29613   */\n      tag_952\n        /* \"#utility.yul\":29608:29612   */\n      dup2\n        /* \"#utility.yul\":29482:29613   */\n      tag_623\n      jump\t// in\n    tag_952:\n        /* \"#utility.yul\":29474:29613   */\n      swap1\n      pop\n        /* \"#utility.yul\":29201:29620   */\n      swap2\n      swap1\n      pop\n      jump\t// out\n        /* \"#utility.yul\":29626:29793   */\n    tag_624:\n        /* \"#utility.yul\":29766:29785   */\n      0x43616e6e6f742065787069726520796574000000000000000000000000000000\n        /* \"#utility.yul\":29762:29763   */\n      0x00\n        /* \"#utility.yul\":29754:29760   */\n      dup3\n        /* \"#utility.yul\":29750:29764   */\n      add\n        /* \"#utility.yul\":29743:29786   */\n      mstore\n        /* \"#utility.yul\":29626:29793   */\n      pop\n      jump\t// out\n        /* \"#utility.yul\":29799:30165   */\n    tag_625:\n        /* \"#utility.yul\":29941:29944   */\n      0x00\n        /* \"#utility.yul\":29962:30029   */\n      tag_955\n        /* \"#utility.yul\":30026:30028   */\n      0x11\n        /* \"#utility.yul\":30021:30024   */\n      dup4\n        /* \"#utility.yul\":29962:30029   */\n      tag_579\n      jump\t// in\n    tag_955:\n        /* \"#utility.yul\":29955:30029   */\n      swap2\n      pop\n        /* \"#utility.yul\":30038:30131   */\n      tag_956\n        /* \"#utility.yul\":30127:30130   */\n      dup3\n        /* \"#utility.yul\":30038:30131   */\n      tag_624\n      jump\t// in\n    tag_956:\n        /* \"#utility.yul\":30156:30158   */\n      0x20\n        /* \"#utility.yul\":30151:30154   */\n      dup3\n        /* \"#utility.yul\":30147:30159   */\n      add\n        /* \"#utility.yul\":30140:30159   */\n      swap1\n      pop\n        /* \"#utility.yul\":29799:30165   */\n      swap2\n      swap1\n      pop\n      jump\t// out\n        /* \"#utility.yul\":30171:30590   */\n    tag_434:\n        /* \"#utility.yul\":30337:30341   */\n      0x00\n        /* \"#utility.yul\":30375:30377   */\n      0x20\n        /* \"#utility.yul\":30364:30373   */\n      dup3\n        /* \"#utility.yul\":30360:30378   */\n      add\n        /* \"#utility.yul\":30352:30378   */\n      swap1\n      pop\n        /* \"#utility.yul\":30424:30433   */\n      dup2\n        /* \"#utility.yul\":30418:30422   */\n      dup2\n        /* \"#utility.yul\":30414:30434   */\n      sub\n        /* \"#utility.yul\":30410:30411   */\n      0x00\n        /* \"#utility.yul\":30399:30408   */\n      dup4\n        /* \"#utility.yul\":30395:30412   */\n      add\n        /* \"#utility.yul\":30388:30435   */\n      mstore\n        /* \"#utility.yul\":30452:30583   */\n      tag_958\n        /* \"#utility.yul\":30578:30582   */\n      dup2\n        /* \"#utility.yul\":30452:30583   */\n      tag_625\n      jump\t// in\n    tag_958:\n        /* \"#utility.yul\":30444:30583   */\n      swap1\n      pop\n        /* \"#utility.yul\":30171:30590   */\n      swap2\n      swap1\n      pop\n      jump\t// out\n        /* \"#utility.yul\":30596:30759   */\n    tag_626:\n        /* \"#utility.yul\":30736:30751   */\n      0x526566756e64206661696c656400000000000000000000000000000000000000\n        /* \"#utility.yul\":30732:30733   */\n      0x00\n        /* \"#utility.yul\":30724:30730   */\n      dup3\n        /* \"#utility.yul\":30720:30734   */\n      add\n        /* \"#utility.yul\":30713:30752   */\n      mstore\n        /* \"#utility.yul\":30596:30759   */\n      pop\n      jump\t// out\n        /* \"#utility.yul\":30765:31131   */\n    tag_627:\n        /* \"#utility.yul\":30907:30910   */\n      0x00\n        /* \"#utility.yul\":30928:30995   */\n      tag_961\n        /* \"#utility.yul\":30992:30994   */\n      0x0d\n        /* \"#utility.yul\":30987:30990   */\n      dup4\n        /* \"#utility.yul\":30928:30995   */\n      tag_579\n      jump\t// in\n    tag_961:\n        /* \"#utility.yul\":30921:30995   */\n      swap2\n      pop\n        /* \"#utility.yul\":31004:31097   */\n      tag_962\n        /* \"#utility.yul\":31093:31096   */\n      dup3\n        /* \"#utility.yul\":31004:31097   */\n      tag_626\n      jump\t// in\n    tag_962:\n        /* \"#utility.yul\":31122:31124   */\n      0x20\n        /* \"#utility.yul\":31117:31120   */\n      dup3\n        /* \"#utility.yul\":31113:31125   */\n      add\n        /* \"#utility.yul\":31106:31125   */\n      swap1\n      pop\n        /* \"#utility.yul\":30765:31131   */\n      swap2\n      swap1\n      pop\n      jump\t// out\n        /* \"#utility.yul\":31137:31556   */\n    tag_454:\n        /* \"#utility.yul\":31303:31307   */\n      0x00\n        /* \"#utility.yul\":31341:31343   */\n      0x20\n        /* \"#utility.yul\":31330:31339   */\n      dup3\n        /* \"#utility.yul\":31326:31344   */\n      add\n        /* \"#utility.yul\":31318:31344   */\n      swap1\n      pop\n        /* \"#utility.yul\":31390:31399   */\n      dup2\n        /* \"#utility.yul\":31384:31388   */\n      dup2\n        /* \"#utility.yul\":31380:31400   */\n      sub\n        /* \"#utility.yul\":31376:31377   */\n      0x00\n        /* \"#utility.yul\":31365:31374   */\n      dup4\n        /* \"#utility.yul\":31361:31378   */\n      add\n        /* \"#utility.yul\":31354:31401   */\n      mstore\n        /* \"#utility.yul\":31418:31549   */\n      tag_964\n        /* \"#utility.yul\":31544:31548   */\n      dup2\n        /* \"#utility.yul\":31418:31549   */\n      tag_627\n      jump\t// in\n    tag_964:\n        /* \"#utility.yul\":31410:31549   */\n      swap1\n      pop\n        /* \"#utility.yul\":31137:31556   */\n      swap2\n      swap1\n      pop\n      jump\t// out\n        /* \"#utility.yul\":31562:31784   */\n    tag_478:\n        /* \"#utility.yul\":31655:31659   */\n      0x00\n        /* \"#utility.yul\":31693:31695   */\n      0x20\n        /* \"#utility.yul\":31682:31691   */\n      dup3\n        /* \"#utility.yul\":31678:31696   */\n      add\n        /* \"#utility.yul\":31670:31696   */\n      swap1\n      pop\n        /* \"#utility.yul\":31706:31777   */\n      tag_966\n        /* \"#utility.yul\":31774:31775   */\n      0x00\n        /* \"#utility.yul\":31763:31772   */\n      dup4\n        /* \"#utility.yul\":31759:31776   */\n      add\n        /* \"#utility.yul\":31750:31756   */\n      dup5\n        /* \"#utility.yul\":31706:31777   */\n      tag_565\n      jump\t// in\n    tag_966:\n        /* \"#utility.yul\":31562:31784   */\n      swap3\n      swap2\n      pop\n      pop\n      jump\t// out\n        /* \"#utility.yul\":31790:31956   */\n    tag_628:\n        /* \"#utility.yul\":31930:31948   */\n      0x5061757361626c653a2070617573656400000000000000000000000000000000\n        /* \"#utility.yul\":31926:31927   */\n      0x00\n        /* \"#utility.yul\":31918:31924   */\n      dup3\n        /* \"#utility.yul\":31914:31928   */\n      add\n        /* \"#utility.yul\":31907:31949   */\n      mstore\n        /* \"#utility.yul\":31790:31956   */\n      pop\n      jump\t// out\n        /* \"#utility.yul\":31962:32328   */\n    tag_629:\n        /* \"#utility.yul\":32104:32107   */\n      0x00\n        /* \"#utility.yul\":32125:32192   */\n      tag_969\n        /* \"#utility.yul\":32189:32191   */\n      0x10\n        /* \"#utility.yul\":32184:32187   */\n      dup4\n        /* \"#utility.yul\":32125:32192   */\n      tag_579\n      jump\t// in\n    tag_969:\n        /* \"#utility.yul\":32118:32192   */\n      swap2\n      pop\n        /* \"#utility.yul\":32201:32294   */\n      tag_970\n        /* \"#utility.yul\":32290:32293   */\n      dup3\n        /* \"#utility.yul\":32201:32294   */\n      tag_628\n      jump\t// in\n    tag_970:\n        /* \"#utility.yul\":32319:32321   */\n      0x20\n        /* \"#utility.yul\":32314:32317   */\n      dup3\n        /* \"#utility.yul\":32310:32322   */\n      add\n        /* \"#utility.yul\":32303:32322   */\n      swap1\n      pop\n        /* \"#utility.yul\":31962:32328   */\n      swap2\n      swap1\n      pop\n      jump\t// out\n        /* \"#utility.yul\":32334:32753   */\n    tag_483:\n        /* \"#utility.yul\":32500:32504   */\n      0x00\n        /* \"#utility.yul\":32538:32540   */\n      0x20\n        /* \"#utility.yul\":32527:32536   */\n      dup3\n        /* \"#utility.yul\":32523:32541   */\n      add\n        /* \"#utility.yul\":32515:32541   */\n      swap1\n      pop\n        /* \"#utility.yul\":32587:32596   */\n      dup2\n        /* \"#utility.yul\":32581:32585   */\n      dup2\n        /* \"#utility.yul\":32577:32597   */\n      sub\n        /* \"#utility.yul\":32573:32574   */\n      0x00\n        /* \"#utility.yul\":32562:32571   */\n      dup4\n        /* \"#utility.yul\":32558:32575   */\n      add\n        /* \"#utility.yul\":32551:32598   */\n      mstore\n        /* \"#utility.yul\":32615:32746   */\n      tag_972\n        /* \"#utility.yul\":32741:32745   */\n      dup2\n        /* \"#utility.yul\":32615:32746   */\n      tag_629\n      jump\t// in\n    tag_972:\n        /* \"#utility.yul\":32607:32746   */\n      swap1\n      pop\n        /* \"#utility.yul\":32334:32753   */\n      swap2\n      swap1\n      pop\n      jump\t// out\n        /* \"#utility.yul\":32759:32940   */\n    tag_630:\n        /* \"#utility.yul\":32899:32932   */\n      0x5265656e7472616e637947756172643a207265656e7472616e742063616c6c00\n        /* \"#utility.yul\":32895:32896   */\n      0x00\n        /* \"#utility.yul\":32887:32893   */\n      dup3\n        /* \"#utility.yul\":32883:32897   */\n      add\n        /* \"#utility.yul\":32876:32933   */\n      mstore\n        /* \"#utility.yul\":32759:32940   */\n      pop\n      jump\t// out\n        /* \"#utility.yul\":32946:33312   */\n    tag_631:\n        /* \"#utility.yul\":33088:33091   */\n      0x00\n        /* \"#utility.yul\":33109:33176   */\n      tag_975\n        /* \"#utility.yul\":33173:33175   */\n      0x1f\n        /* \"#utility.yul\":33168:33171   */\n      dup4\n        /* \"#utility.yul\":33109:33176   */\n      tag_579\n      jump\t// in\n    tag_975:\n        /* \"#utility.yul\":33102:33176   */\n      swap2\n      pop\n        /* \"#utility.yul\":33185:33278   */\n      tag_976\n        /* \"#utility.yul\":33274:33277   */\n      dup3\n        /* \"#utility.yul\":33185:33278   */\n      tag_630\n      jump\t// in\n    tag_976:\n        /* \"#utility.yul\":33303:33305   */\n      0x20\n        /* \"#utility.yul\":33298:33301   */\n      dup3\n        /* \"#utility.yul\":33294:33306   */\n      add\n        /* \"#utility.yul\":33287:33306   */\n      swap1\n      pop\n        /* \"#utility.yul\":32946:33312   */\n      swap2\n      swap1\n      pop\n      jump\t// out\n        /* \"#utility.yul\":33318:33737   */\n    tag_487:\n        /* \"#utility.yul\":33484:33488   */\n      0x00\n        /* \"#utility.yul\":33522:33524   */\n      0x20\n        /* \"#utility.yul\":33511:33520   */\n      dup3\n        /* \"#utility.yul\":33507:33525   */\n      add\n        /* \"#utility.yul\":33499:33525   */\n      swap1\n      pop\n        /* \"#utility.yul\":33571:33580   */\n      dup2\n        /* \"#utility.yul\":33565:33569   */\n      dup2\n        /* \"#utility.yul\":33561:33581   */\n      sub\n        /* \"#utility.yul\":33557:33558   */\n      0x00\n        /* \"#utility.yul\":33546:33555   */\n      dup4\n        /* \"#utility.yul\":33542:33559   */\n      add\n        /* \"#utility.yul\":33535:33582   */\n      mstore\n        /* \"#utility.yul\":33599:33730   */\n      tag_978\n        /* \"#utility.yul\":33725:33729   */\n      dup2\n        /* \"#utility.yul\":33599:33730   */\n      tag_631\n      jump\t// in\n    tag_978:\n        /* \"#utility.yul\":33591:33730   */\n      swap1\n      pop\n        /* \"#utility.yul\":33318:33737   */\n      swap2\n      swap1\n      pop\n      jump\t// out\n        /* \"#utility.yul\":33743:33937   */\n    tag_502:\n        /* \"#utility.yul\":33783:33787   */\n      0x00\n        /* \"#utility.yul\":33803:33823   */\n      tag_980\n        /* \"#utility.yul\":33821:33822   */\n      dup3\n        /* \"#utility.yul\":33803:33823   */\n      tag_552\n      jump\t// in\n    tag_980:\n        /* \"#utility.yul\":33798:33823   */\n      swap2\n      pop\n        /* \"#utility.yul\":33837:33857   */\n      tag_981\n        /* \"#utility.yul\":33855:33856   */\n      dup4\n        /* \"#utility.yul\":33837:33857   */\n      tag_552\n      jump\t// in\n    tag_981:\n        /* \"#utility.yul\":33832:33857   */\n      swap3\n      pop\n        /* \"#utility.yul\":33881:33882   */\n      dup3\n        /* \"#utility.yul\":33878:33879   */\n      dup3\n        /* \"#utility.yul\":33874:33883   */\n      sub\n        /* \"#utility.yul\":33866:33883   */\n      swap1\n      pop\n        /* \"#utility.yul\":33905:33906   */\n      dup2\n        /* \"#utility.yul\":33899:33903   */\n      dup2\n        /* \"#utility.yul\":33896:33907   */\n      gt\n        /* \"#utility.yul\":33893:33930   */\n      iszero\n      tag_982\n      jumpi\n        /* \"#utility.yul\":33910:33928   */\n      tag_983\n      tag_602\n      jump\t// in\n    tag_983:\n        /* \"#utility.yul\":33893:33930   */\n    tag_982:\n        /* \"#utility.yul\":33743:33937   */\n      swap3\n      swap2\n      pop\n      pop\n      jump\t// out\n        /* \"#utility.yul\":33943:34353   */\n    tag_505:\n        /* \"#utility.yul\":33983:33990   */\n      0x00\n        /* \"#utility.yul\":34006:34026   */\n      tag_985\n        /* \"#utility.yul\":34024:34025   */\n      dup3\n        /* \"#utility.yul\":34006:34026   */\n      tag_552\n      jump\t// in\n    tag_985:\n        /* \"#utility.yul\":34001:34026   */\n      swap2\n      pop\n        /* \"#utility.yul\":34040:34060   */\n      tag_986\n        /* \"#utility.yul\":34058:34059   */\n      dup4\n        /* \"#utility.yul\":34040:34060   */\n      tag_552\n      jump\t// in\n    tag_986:\n        /* \"#utility.yul\":34035:34060   */\n      swap3\n      pop\n        /* \"#utility.yul\":34095:34096   */\n      dup3\n        /* \"#utility.yul\":34092:34093   */\n      dup3\n        /* \"#utility.yul\":34088:34097   */\n      mul\n        /* \"#utility.yul\":34117:34147   */\n      tag_987\n        /* \"#utility.yul\":34135:34146   */\n      dup2\n        /* \"#utility.yul\":34117:34147   */\n      tag_552\n      jump\t// in\n    tag_987:\n        /* \"#utility.yul\":34106:34147   */\n      swap2\n      pop\n        /* \"#utility.yul\":34296:34297   */\n      dup3\n        /* \"#utility.yul\":34287:34294   */\n      dup3\n        /* \"#utility.yul\":34283:34298   */\n      div\n        /* \"#utility.yul\":34280:34281   */\n      dup5\n        /* \"#utility.yul\":34277:34299   */\n      eq\n        /* \"#utility.yul\":34257:34258   */\n      dup4\n        /* \"#utility.yul\":34250:34259   */\n      iszero\n        /* \"#utility.yul\":34230:34313   */\n      or\n        /* \"#utility.yul\":34207:34346   */\n      tag_988\n      jumpi\n        /* \"#utility.yul\":34326:34344   */\n      tag_989\n      tag_602\n      jump\t// in\n    tag_989:\n        /* \"#utility.yul\":34207:34346   */\n    tag_988:\n        /* \"#utility.yul\":33991:34353   */\n      pop\n        /* \"#utility.yul\":33943:34353   */\n      swap3\n      swap2\n      pop\n      pop\n      jump\t// out\n        /* \"#utility.yul\":34359:34438   */\n    tag_632:\n        /* \"#utility.yul\":34398:34405   */\n      0x00\n        /* \"#utility.yul\":34427:34432   */\n      dup2\n        /* \"#utility.yul\":34416:34432   */\n      swap1\n      pop\n        /* \"#utility.yul\":34359:34438   */\n      swap2\n      swap1\n      pop\n      jump\t// out\n        /* \"#utility.yul\":34444:34601   */\n    tag_633:\n        /* \"#utility.yul\":34549:34594   */\n      tag_992\n        /* \"#utility.yul\":34569:34593   */\n      tag_993\n        /* \"#utility.yul\":34587:34592   */\n      dup3\n        /* \"#utility.yul\":34569:34593   */\n      tag_552\n      jump\t// in\n    tag_993:\n        /* \"#utility.yul\":34549:34594   */\n      tag_632\n      jump\t// in\n    tag_992:\n        /* \"#utility.yul\":34544:34547   */\n      dup3\n        /* \"#utility.yul\":34537:34595   */\n      mstore\n        /* \"#utility.yul\":34444:34601   */\n      pop\n      pop\n      jump\t// out\n        /* \"#utility.yul\":34607:34701   */\n    tag_634:\n        /* \"#utility.yul\":34640:34648   */\n      0x00\n        /* \"#utility.yul\":34688:34693   */\n      dup2\n        /* \"#utility.yul\":34684:34686   */\n      0x60\n        /* \"#utility.yul\":34680:34694   */\n      shl\n        /* \"#utility.yul\":34659:34694   */\n      swap1\n      pop\n        /* \"#utility.yul\":34607:34701   */\n      swap2\n      swap1\n      pop\n      jump\t// out\n        /* \"#utility.yul\":34707:34801   */\n    tag_635:\n        /* \"#utility.yul\":34746:34753   */\n      0x00\n        /* \"#utility.yul\":34775:34795   */\n      tag_996\n        /* \"#utility.yul\":34789:34794   */\n      dup3\n        /* \"#utility.yul\":34775:34795   */\n      tag_634\n      jump\t// in\n    tag_996:\n        /* \"#utility.yul\":34764:34795   */\n      swap1\n      pop\n        /* \"#utility.yul\":34707:34801   */\n      swap2\n      swap1\n      pop\n      jump\t// out\n        /* \"#utility.yul\":34807:34907   */\n    tag_636:\n        /* \"#utility.yul\":34846:34853   */\n      0x00\n        /* \"#utility.yul\":34875:34901   */\n      tag_998\n        /* \"#utility.yul\":34895:34900   */\n      dup3\n        /* \"#utility.yul\":34875:34901   */\n      tag_635\n      jump\t// in\n    tag_998:\n        /* \"#utility.yul\":34864:34901   */\n      swap1\n      pop\n        /* \"#utility.yul\":34807:34907   */\n      swap2\n      swap1\n      pop\n      jump\t// out\n        /* \"#utility.yul\":34913:35070   */\n    tag_637:\n        /* \"#utility.yul\":35018:35063   */\n      tag_1000\n        /* \"#utility.yul\":35038:35062   */\n      tag_1001\n        /* \"#utility.yul\":35056:35061   */\n      dup3\n        /* \"#utility.yul\":35038:35062   */\n      tag_556\n      jump\t// in\n    tag_1001:\n        /* \"#utility.yul\":35018:35063   */\n      tag_636\n      jump\t// in\n    tag_1000:\n        /* \"#utility.yul\":35013:35016   */\n      dup3\n        /* \"#utility.yul\":35006:35064   */\n      mstore\n        /* \"#utility.yul\":34913:35070   */\n      pop\n      pop\n      jump\t// out\n        /* \"#utility.yul\":35076:35755   */\n    tag_510:\n        /* \"#utility.yul\":35272:35275   */\n      0x00\n        /* \"#utility.yul\":35287:35362   */\n      tag_1003\n        /* \"#utility.yul\":35358:35361   */\n      dup3\n        /* \"#utility.yul\":35349:35355   */\n      dup8\n        /* \"#utility.yul\":35287:35362   */\n      tag_633\n      jump\t// in\n    tag_1003:\n        /* \"#utility.yul\":35387:35389   */\n      0x20\n        /* \"#utility.yul\":35382:35385   */\n      dup3\n        /* \"#utility.yul\":35378:35390   */\n      add\n        /* \"#utility.yul\":35371:35390   */\n      swap2\n      pop\n        /* \"#utility.yul\":35400:35475   */\n      tag_1004\n        /* \"#utility.yul\":35471:35474   */\n      dup3\n        /* \"#utility.yul\":35462:35468   */\n      dup7\n        /* \"#utility.yul\":35400:35475   */\n      tag_633\n      jump\t// in\n    tag_1004:\n        /* \"#utility.yul\":35500:35502   */\n      0x20\n        /* \"#utility.yul\":35495:35498   */\n      dup3\n        /* \"#utility.yul\":35491:35503   */\n      add\n        /* \"#utility.yul\":35484:35503   */\n      swap2\n      pop\n        /* \"#utility.yul\":35513:35588   */\n      tag_1005\n        /* \"#utility.yul\":35584:35587   */\n      dup3\n        /* \"#utility.yul\":35575:35581   */\n      dup6\n        /* \"#utility.yul\":35513:35588   */\n      tag_633\n      jump\t// in\n    tag_1005:\n        /* \"#utility.yul\":35613:35615   */\n      0x20\n        /* \"#utility.yul\":35608:35611   */\n      dup3\n        /* \"#utility.yul\":35604:35616   */\n      add\n        /* \"#utility.yul\":35597:35616   */\n      swap2\n      pop\n        /* \"#utility.yul\":35626:35701   */\n      tag_1006\n        /* \"#utility.yul\":35697:35700   */\n      dup3\n        /* \"#utility.yul\":35688:35694   */\n      dup5\n        /* \"#utility.yul\":35626:35701   */\n      tag_637\n      jump\t// in\n    tag_1006:\n        /* \"#utility.yul\":35726:35728   */\n      0x14\n        /* \"#utility.yul\":35721:35724   */\n      dup3\n        /* \"#utility.yul\":35717:35729   */\n      add\n        /* \"#utility.yul\":35710:35729   */\n      swap2\n      pop\n        /* \"#utility.yul\":35746:35749   */\n      dup2\n        /* \"#utility.yul\":35739:35749   */\n      swap1\n      pop\n        /* \"#utility.yul\":35076:35755   */\n      swap6\n      swap5\n      pop\n      pop\n      pop\n      pop\n      pop\n      jump\t// out\n        /* \"#utility.yul\":35761:36093   */\n    tag_527:\n        /* \"#utility.yul\":35882:35886   */\n      0x00\n        /* \"#utility.yul\":35920:35922   */\n      0x40\n        /* \"#utility.yul\":35909:35918   */\n      dup3\n        /* \"#utility.yul\":35905:35923   */\n      add\n        /* \"#utility.yul\":35897:35923   */\n      swap1\n      pop\n        /* \"#utility.yul\":35933:36004   */\n      tag_1008\n        /* \"#utility.yul\":36001:36002   */\n      0x00\n        /* \"#utility.yul\":35990:35999   */\n      dup4\n        /* \"#utility.yul\":35986:36003   */\n      add\n        /* \"#utility.yul\":35977:35983   */\n      dup6\n        /* \"#utility.yul\":35933:36004   */\n      tag_565\n      jump\t// in\n    tag_1008:\n        /* \"#utility.yul\":36014:36086   */\n      tag_1009\n        /* \"#utility.yul\":36082:36084   */\n      0x20\n        /* \"#utility.yul\":36071:36080   */\n      dup4\n        /* \"#utility.yul\":36067:36085   */\n      add\n        /* \"#utility.yul\":36058:36064   */\n      dup5\n        /* \"#utility.yul\":36014:36086   */\n      tag_584\n      jump\t// in\n    tag_1009:\n        /* \"#utility.yul\":35761:36093   */\n      swap4\n      swap3\n      pop\n      pop\n      pop\n      jump\t// out\n        /* \"#utility.yul\":36099:36269   */\n    tag_638:\n        /* \"#utility.yul\":36239:36261   */\n      0x5061757361626c653a206e6f7420706175736564000000000000000000000000\n        /* \"#utility.yul\":36235:36236   */\n      0x00\n        /* \"#utility.yul\":36227:36233   */\n      dup3\n        /* \"#utility.yul\":36223:36237   */\n      add\n        /* \"#utility.yul\":36216:36262   */\n      mstore\n        /* \"#utility.yul\":36099:36269   */\n      pop\n      jump\t// out\n        /* \"#utility.yul\":36275:36641   */\n    tag_639:\n        /* \"#utility.yul\":36417:36420   */\n      0x00\n        /* \"#utility.yul\":36438:36505   */\n      tag_1012\n        /* \"#utility.yul\":36502:36504   */\n      0x14\n        /* \"#utility.yul\":36497:36500   */\n      dup4\n        /* \"#utility.yul\":36438:36505   */\n      tag_579\n      jump\t// in\n    tag_1012:\n        /* \"#utility.yul\":36431:36505   */\n      swap2\n      pop\n        /* \"#utility.yul\":36514:36607   */\n      tag_1013\n        /* \"#utility.yul\":36603:36606   */\n      dup3\n        /* \"#utility.yul\":36514:36607   */\n      tag_638\n      jump\t// in\n    tag_1013:\n        /* \"#utility.yul\":36632:36634   */\n      0x20\n        /* \"#utility.yul\":36627:36630   */\n      dup3\n        /* \"#utility.yul\":36623:36635   */\n      add\n        /* \"#utility.yul\":36616:36635   */\n      swap1\n      pop\n        /* \"#utility.yul\":36275:36641   */\n      swap2\n      swap1\n      pop\n      jump\t// out\n        /* \"#utility.yul\":36647:37066   */\n    tag_532:\n        /* \"#utility.yul\":36813:36817   */\n      0x00\n        /* \"#utility.yul\":36851:36853   */\n      0x20\n        /* \"#utility.yul\":36840:36849   */\n      dup3\n        /* \"#utility.yul\":36836:36854   */\n      add\n        /* \"#utility.yul\":36828:36854   */\n      swap1\n      pop\n        /* \"#utility.yul\":36900:36909   */\n      dup2\n        /* \"#utility.yul\":36894:36898   */\n      dup2\n        /* \"#utility.yul\":36890:36910   */\n      sub\n        /* \"#utility.yul\":36886:36887   */\n      0x00\n        /* \"#utility.yul\":36875:36884   */\n      dup4\n        /* \"#utility.yul\":36871:36888   */\n      add\n        /* \"#utility.yul\":36864:36911   */\n      mstore\n        /* \"#utility.yul\":36928:37059   */\n      tag_1015\n        /* \"#utility.yul\":37054:37058   */\n      dup2\n        /* \"#utility.yul\":36928:37059   */\n      tag_639\n      jump\t// in\n    tag_1015:\n        /* \"#utility.yul\":36920:37059   */\n      swap1\n      pop\n        /* \"#utility.yul\":36647:37066   */\n      swap2\n      swap1\n      pop\n      jump\t// out\n\n    auxdata: 0xa26469706673582212207cfe322a3fdb6c3cb250b37347d339c7db2348da2b18d47af76a52d6459c56a164736f6c634300081e0033\n}\n",
				"bytecode": {
					"linkReferences": {},
					"object": "608060405234801561000f575f5ffd5b5060015f819055505f60015f6101000a81548160ff0219169083151502179055506100425f5f1b3361007960201b60201c565b506100737fa49807205ce4d355092ef5a8a18f56e8913cf4a201fbe287825b095693c217753361007960201b60201c565b506101da565b5f61008a838361016f60201b60201c565b61016557600160025f8581526020019081526020015f205f015f8473ffffffffffffffffffffffffffffffffffffffff1673ffffffffffffffffffffffffffffffffffffffff1681526020019081526020015f205f6101000a81548160ff0219169083151502179055506101026101d360201b60201c565b73ffffffffffffffffffffffffffffffffffffffff168273ffffffffffffffffffffffffffffffffffffffff16847f2f8788117e7eff1d82e926ec794901d17c78024a50270940304540a733656f0d60405160405180910390a460019050610169565b5f90505b92915050565b5f60025f8481526020019081526020015f205f015f8373ffffffffffffffffffffffffffffffffffffffff1673ffffffffffffffffffffffffffffffffffffffff1681526020019081526020015f205f9054906101000a900460ff16905092915050565b5f33905090565b6142ba806101e75f395ff3fe608060405260043610610219575f3560e01c8063936df0d711610122578063c08f3954116100aa578063d7262d561161006e578063d7262d561461082f578063db2e21bc14610857578063dfb8b3141461086d578063dfeb662a146108a9578063fc8d7a4b146108d357610219565b8063c08f395414610723578063c51309db1461074d578063cb98536914610789578063d547741f146107c5578063d5f9f232146107ed57610219565b8063a6980ce2116100f1578063a6980ce21461061b578063b30f8a1314610645578063b44f029714610681578063b842ec44146106bd578063b9a60038146106f957610219565b8063936df0d7146105795780639ace38c214610595578063a17eda18146105d5578063a217fddf146105f157610219565b80635c975abb116101a557806375b238fc1161017457806375b238fc146104ad578063783a250e146104d75780638456cb59146104ff5780638a9620ce1461051557806391d148541461053d57610219565b80635c975abb146103cf57806366a0a329146103f9578063687451431461043557806373a458bd1461047157610219565b80632f2ff15d116101ec5780632f2ff15d1461031557806336568abe1461033d5780633c3dbbc7146103655780633f4ba83a1461038f57806342c1b2d0146103a557610219565b806301ffc9a71461021d5780630fa683d3146102595780631bf86ea614610295578063248a9ca3146102d9575b5f5ffd5b348015610228575f5ffd5b50610243600480360381019061023e9190613066565b6108fb565b60405161025091906130ab565b60405180910390f35b348015610264575f5ffd5b5061027f600480360381019061027a91906130f7565b610974565b60405161028c9190613253565b60405180910390f35b3480156102a0575f5ffd5b506102bb60048036038101906102b691906130f7565b610aec565b6040516102d099989796959493929190613429565b60405180910390f35b3480156102e4575f5ffd5b506102ff60048036038101906102fa91906134fc565b610ceb565b60405161030c9190613536565b60405180910390f35b348015610320575f5ffd5b5061033b60048036038101906103369190613579565b610d08565b005b348015610348575f5ffd5b50610363600480360381019061035e9190613579565b610d2a565b005b348015610370575f5ffd5b50610379610da5565b60405161038691906135b7565b60405180910390f35b34801561039a575f5ffd5b506103a3610daf565b005b3480156103b0575f5ffd5b506103b9610de4565b6040516103c691906135b7565b60405180910390f35b3480156103da575f5ffd5b506103e3610dea565b6040516103f091906130ab565b60405180910390f35b348015610404575f5ffd5b5061041f600480360381019061041a91906135d0565b610dff565b60405161042c91906130ab565b60405180910390f35b348015610440575f5ffd5b5061045b6004803603810190610456919061360e565b610e64565b60405161046891906135b7565b60405180910390f35b34801561047c575f5ffd5b506104976004803603810190610492919061360e565b610eaa565b6040516104a491906135b7565b60405180910390f35b3480156104b8575f5ffd5b506104c1610ebf565b6040516104ce9190613536565b60405180910390f35b3480156104e2575f5ffd5b506104fd60048036038101906104f891906130f7565b610ee3565b005b34801561050a575f5ffd5b50610513611472565b005b348015610520575f5ffd5b5061053b6004803603810190610536919061360e565b6114a7565b005b348015610548575f5ffd5b50610563600480360381019061055e9190613579565b611500565b60405161057091906130ab565b60405180910390f35b610593600480360381019061058e9190613853565b611564565b005b3480156105a0575f5ffd5b506105bb60048036038101906105b691906130f7565b611b46565b6040516105cc9594939291906138ef565b60405180910390f35b6105ef60048036038101906105ea919061360e565b611c3c565b005b3480156105fc575f5ffd5b5061060561212d565b6040516106129190613536565b60405180910390f35b348015610626575f5ffd5b5061062f612133565b60405161063c91906135b7565b60405180910390f35b348015610650575f5ffd5b5061066b6004803603810190610666919061360e565b612138565b60405161067891906135b7565b60405180910390f35b34801561068c575f5ffd5b506106a760048036038101906106a29190613947565b61217e565b6040516106b491906135b7565b60405180910390f35b3480156106c8575f5ffd5b506106e360048036038101906106de9190613947565b6121a9565b6040516106f091906135b7565b60405180910390f35b348015610704575f5ffd5b5061070d6121d4565b60405161071a91906135b7565b60405180910390f35b34801561072e575f5ffd5b506107376121da565b6040516107449190613536565b60405180910390f35b348015610758575f5ffd5b50610773600480360381019061076e919061360e565b6121fe565b6040516107809190613985565b60405180910390f35b348015610794575f5ffd5b506107af60048036038101906107aa919061360e565b612291565b6040516107bc9190613985565b60405180910390f35b3480156107d0575f5ffd5b506107eb60048036038101906107e69190613579565b612324565b005b3480156107f8575f5ffd5b50610813600480360381019061080e91906130f7565b612346565b60405161082697969594939291906139a5565b60405180910390f35b34801561083a575f5ffd5b50610855600480360381019061085091906130f7565b612441565b005b348015610862575f5ffd5b5061086b61246f565b005b348015610878575f5ffd5b50610893600480360381019061088e919061360e565b61254a565b6040516108a091906135b7565b60405180910390f35b3480156108b4575f5ffd5b506108bd61255f565b6040516108ca91906135b7565b60405180910390f35b3480156108de575f5ffd5b506108f960048036038101906108f491906130f7565b61256a565b005b5f7f7965db0b000000000000000000000000000000000000000000000000000000007bffffffffffffffffffffffffffffffffffffffffffffffffffffffff1916827bffffffffffffffffffffffffffffffffffffffffffffffffffffffff1916148061096d575061096c826128d1565b5b9050919050565b61097c612ebc565b60065f8381526020019081526020015f206040518060a00160405290815f82015f9054906101000a900473ffffffffffffffffffffffffffffffffffffffff1673ffffffffffffffffffffffffffffffffffffffff1673ffffffffffffffffffffffffffffffffffffffff168152602001600182015f9054906101000a900473ffffffffffffffffffffffffffffffffffffffff1673ffffffffffffffffffffffffffffffffffffffff1673ffffffffffffffffffffffffffffffffffffffff1681526020016002820154815260200160038201548152602001600482018054610a6590613a46565b80601f0160208091040260200160405190810160405280929190818152602001828054610a9190613a46565b8015610adc5780601f10610ab357610100808354040283529160200191610adc565b820191905f5260205f20905b815481529060010190602001808311610abf57829003601f168201915b5050505050815250509050919050565b5f60605f60605f5f5f60605f5f60055f8c81526020019081526020015f209050805f015f9054906101000a900473ffffffffffffffffffffffffffffffffffffffff1681600101826002015483600301846004015f9054906101000a900460ff168560060154866007015487600801886009015f9054906101000a900460ff1687805480602002602001604051908101604052809291908181526020018280548015610bea57602002820191905f5260205f20905b815f9054906101000a900473ffffffffffffffffffffffffffffffffffffffff1673ffffffffffffffffffffffffffffffffffffffff1681526020019060010190808311610ba1575b5050505050975085805480602002602001604051908101604052809291908181526020018280548015610c3a57602002820191905f5260205f20905b815481526020019060010190808311610c26575b50505050509550818054610c4d90613a46565b80601f0160208091040260200160405190810160405280929190818152602001828054610c7990613a46565b8015610cc45780601f10610c9b57610100808354040283529160200191610cc4565b820191905f5260205f20905b815481529060010190602001808311610ca757829003601f168201915b50505050509150995099509950995099509950995099509950509193959799909294969850565b5f60025f8381526020019081526020015f20600101549050919050565b610d1182610ceb565b610d1a8161293a565b610d24838361294e565b50505050565b610d32612a38565b73ffffffffffffffffffffffffffffffffffffffff168173ffffffffffffffffffffffffffffffffffffffff1614610d96576040517f6697b23200000000000000000000000000000000000000000000000000000000815260040160405180910390fd5b610da08282612a3f565b505050565b655af3107a400081565b7fa49807205ce4d355092ef5a8a18f56e8913cf4a201fbe287825b095693c21775610dd98161293a565b610de1612b29565b50565b60035481565b5f60015f9054906101000a900460ff16905090565b5f60055f8481526020019081526020015f206005015f8373ffffffffffffffffffffffffffffffffffffffff1673ffffffffffffffffffffffffffffffffffffffff1681526020019081526020015f205f9054906101000a900460ff16905092915050565b5f600a5f8373ffffffffffffffffffffffffffffffffffffffff1673ffffffffffffffffffffffffffffffffffffffff1681526020019081526020015f20549050919050565b600a602052805f5260405f205f915090505481565b7fa49807205ce4d355092ef5a8a18f56e8913cf4a201fbe287825b095693c2177581565b610eeb612b8a565b610ef3612bd4565b5f811480610f02575060035481115b15610f39576040517fb817e7dd00000000000000000000000000000000000000000000000000000000815260040160405180910390fd5b5f60055f8381526020019081526020015f209050806009015f9054906101000a900460ff16610f94576040517f5d43425900000000000000000000000000000000000000000000000000000000815260040160405180910390fd5b806005015f3373ffffffffffffffffffffffffffffffffffffffff1673ffffffffffffffffffffffffffffffffffffffff1681526020019081526020015f205f9054906101000a900460ff1615611017576040517f646cf55800000000000000000000000000000000000000000000000000000000815260040160405180910390fd5b5f5f90505f5f90505f5f90505b83600101805490508110156110bc573373ffffffffffffffffffffffffffffffffffffffff168460010182815481106110605761105f613a76565b5b905f5260205f20015f9054906101000a900473ffffffffffffffffffffffffffffffffffffffff1673ffffffffffffffffffffffffffffffffffffffff16036110af57600192508091506110bc565b8080600101915050611024565b50816110f4576040517f586d335700000000000000000000000000000000000000000000000000000000815260040160405180910390fd5b6001836005015f3373ffffffffffffffffffffffffffffffffffffffff1673ffffffffffffffffffffffffffffffffffffffff1681526020019081526020015f205f6101000a81548160ff021916908315150217905550826006015f81548092919061115f90613ad0565b91905055505f83600301828154811061117b5761117a613a76565b5b905f5260205f20015490505f3373ffffffffffffffffffffffffffffffffffffffff16826040516111ab90613b44565b5f6040518083038185875af1925050503d805f81146111e5576040519150601f19603f3d011682016040523d82523d5f602084013e6111ea565b606091505b5050905080611225576040517f90b8ec1800000000000000000000000000000000000000000000000000000000815260040160405180910390fd5b60045f81548092919061123790613ad0565b91905055506040518060a00160405280865f015f9054906101000a900473ffffffffffffffffffffffffffffffffffffffff1673ffffffffffffffffffffffffffffffffffffffff1681526020013373ffffffffffffffffffffffffffffffffffffffff1681526020018381526020014281526020016040518060400160405280600b81526020017f526564456e76656c6f706500000000000000000000000000000000000000000081525081525060065f60045481526020019081526020015f205f820151815f015f6101000a81548173ffffffffffffffffffffffffffffffffffffffff021916908373ffffffffffffffffffffffffffffffffffffffff1602179055506020820151816001015f6101000a81548173ffffffffffffffffffffffffffffffffffffffff021916908373ffffffffffffffffffffffffffffffffffffffff160217905550604082015181600201556060820151816003015560808201518160040190816113ac9190613cf8565b5090505060075f3373ffffffffffffffffffffffffffffffffffffffff1673ffffffffffffffffffffffffffffffffffffffff1681526020019081526020015f20600454908060018154018082558091505060019003905f5260205f20015f90919091909150553373ffffffffffffffffffffffffffffffffffffffff16867f2e69161e44e23c36c5ca95c70f97ec5a226a3aea538e67ebb74091b03afec6bb8460405161145a91906135b7565b60405180910390a3505050505061146f612c21565b50565b7fa49807205ce4d355092ef5a8a18f56e8913cf4a201fbe287825b095693c2177561149c8161293a565b6114a4612c2a565b50565b7fa49807205ce4d355092ef5a8a18f56e8913cf4a201fbe287825b095693c217756114d18161293a565b6114fb7f8c7e961e804af7b2059d42008de01ccc90fc88b8e6b947b02e12656ddb05ca3a8361294e565b505050565b5f60025f8481526020019081526020015f205f015f8373ffffffffffffffffffffffffffffffffffffffff1673ffffffffffffffffffffffffffffffffffffffff1681526020019081526020015f205f9054906101000a900460ff16905092915050565b61156c612b8a565b611574612bd4565b5f845114806115845750600a8451115b156115bb576040517f0d62487200000000000000000000000000000000000000000000000000000000815260040160405180910390fd5b8234146115f4576040517f5945ea5600000000000000000000000000000000000000000000000000000000815260040160405180910390fd5b662386f26fc10000831115611635576040517f8ebd11e000000000000000000000000000000000000000000000000000000000815260040160405180910390fd5b60035f81548092919061164790613ad0565b91905055505f60055f60035481526020019081526020015f20905033815f015f6101000a81548173ffffffffffffffffffffffffffffffffffffffff021916908373ffffffffffffffffffffffffffffffffffffffff160217905550848160010190805190602001906116bb929190612f13565b5083816002018190555082816004015f6101000a81548160ff0219169083151502179055505f8160060181905550428160070181905550818160080190816117039190613cf8565b506001816009015f6101000a81548160ff0219169083151502179055505f855167ffffffffffffffff81111561173c5761173b61363d565b5b60405190808252806020026020018201604052801561176a5781602001602082028036833780820191505090505b50905083156117855761177e858751612c8b565b905061181d565b5f8651866117939190613df4565b90505f8751876117a39190613e24565b90505f5f90505b885181101561181957828482815181106117c7576117c6613a76565b5b6020026020010181815250508181101561180c5760018482815181106117f0576117ef613a76565b5b602002602001018181516118049190613e54565b915081815250505b80806001019150506117aa565b5050505b80826003019080519060200190611835929190612f9a565b5060085f3373ffffffffffffffffffffffffffffffffffffffff1673ffffffffffffffffffffffffffffffffffffffff1681526020019081526020015f20600354908060018154018082558091505060019003905f5260205f20015f9091909190915055600a5f3373ffffffffffffffffffffffffffffffffffffffff1673ffffffffffffffffffffffffffffffffffffffff1681526020019081526020015f205f8154809291906118e690613ad0565b919050555060045f8154809291906118fd90613ad0565b91905055506040518060a001604052803373ffffffffffffffffffffffffffffffffffffffff1681526020015f73ffffffffffffffffffffffffffffffffffffffff1681526020018681526020014281526020016040518060400160405280600b81526020017f526564456e76656c6f706500000000000000000000000000000000000000000081525081525060065f60045481526020019081526020015f205f820151815f015f6101000a81548173ffffffffffffffffffffffffffffffffffffffff021916908373ffffffffffffffffffffffffffffffffffffffff1602179055506020820151816001015f6101000a81548173ffffffffffffffffffffffffffffffffffffffff021916908373ffffffffffffffffffffffffffffffffffffffff16021790555060408201518160020155606082015181600301556080820151816004019081611a509190613cf8565b5090505060075f3373ffffffffffffffffffffffffffffffffffffffff1673ffffffffffffffffffffffffffffffffffffffff1681526020019081526020015f20600454908060018154018082558091505060019003905f5260205f20015f9091909190915055611ae17f8c7e961e804af7b2059d42008de01ccc90fc88b8e6b947b02e12656ddb05ca3a30611500565b503373ffffffffffffffffffffffffffffffffffffffff166003547fd2e5b8da197435421e0816c9577db4cd672fdc52bab0d98ed1b88fbd02dda466878951604051611b2e929190613e87565b60405180910390a35050611b40612c21565b50505050565b6006602052805f5260405f205f91509050805f015f9054906101000a900473ffffffffffffffffffffffffffffffffffffffff1690806001015f9054906101000a900473ffffffffffffffffffffffffffffffffffffffff1690806002015490806003015490806004018054611bbb90613a46565b80601f0160208091040260200160405190810160405280929190818152602001828054611be790613a46565b8015611c325780601f10611c0957610100808354040283529160200191611c32565b820191905f5260205f20905b815481529060010190602001808311611c1557829003601f168201915b5050505050905085565b611c44612b8a565b611c4c612bd4565b655af3107a4000341015611c8c576040517f5945ea5600000000000000000000000000000000000000000000000000000000815260040160405180910390fd5b5f73ffffffffffffffffffffffffffffffffffffffff168173ffffffffffffffffffffffffffffffffffffffff161480611cf157503373ffffffffffffffffffffffffffffffffffffffff168173ffffffffffffffffffffffffffffffffffffffff16145b15611d28576040517f9c8d2cd200000000000000000000000000000000000000000000000000000000815260040160405180910390fd5b60045f815480929190611d3a90613ad0565b91905055506040518060a001604052803373ffffffffffffffffffffffffffffffffffffffff1681526020018273ffffffffffffffffffffffffffffffffffffffff1681526020013481526020014281526020016040518060400160405280600381526020017f503250000000000000000000000000000000000000000000000000000000000081525081525060065f60045481526020019081526020015f205f820151815f015f6101000a81548173ffffffffffffffffffffffffffffffffffffffff021916908373ffffffffffffffffffffffffffffffffffffffff1602179055506020820151816001015f6101000a81548173ffffffffffffffffffffffffffffffffffffffff021916908373ffffffffffffffffffffffffffffffffffffffff16021790555060408201518160020155606082015181600301556080820151816004019081611e8d9190613cf8565b5090505060075f3373ffffffffffffffffffffffffffffffffffffffff1673ffffffffffffffffffffffffffffffffffffffff1681526020019081526020015f20600454908060018154018082558091505060019003905f5260205f20015f909190919091505560075f8273ffffffffffffffffffffffffffffffffffffffff1673ffffffffffffffffffffffffffffffffffffffff1681526020019081526020015f20600454908060018154018082558091505060019003905f5260205f20015f909190919091505560095f3373ffffffffffffffffffffffffffffffffffffffff1673ffffffffffffffffffffffffffffffffffffffff1681526020019081526020015f205f815480929190611fa490613ad0565b91905055505f8173ffffffffffffffffffffffffffffffffffffffff1634604051611fce90613b44565b5f6040518083038185875af1925050503d805f8114612008576040519150601f19603f3d011682016040523d82523d5f602084013e61200d565b606091505b5050905080612048576040517f90b8ec1800000000000000000000000000000000000000000000000000000000815260040160405180910390fd5b6120727f8c7e961e804af7b2059d42008de01ccc90fc88b8e6b947b02e12656ddb05ca3a30611500565b80156120bb5750600160095f3373ffffffffffffffffffffffffffffffffffffffff1673ffffffffffffffffffffffffffffffffffffffff1681526020019081526020015f2054145b508173ffffffffffffffffffffffffffffffffffffffff163373ffffffffffffffffffffffffffffffffffffffff167f6f998c35aaf054fd50d0fe63bf96b58876991628a4e36494637bb027e8a2e2303460405161211991906135b7565b60405180910390a35061212a612c21565b50565b5f5f1b81565b600a81565b5f60095f8373ffffffffffffffffffffffffffffffffffffffff1673ffffffffffffffffffffffffffffffffffffffff1681526020019081526020015f20549050919050565b6008602052815f5260405f208181548110612197575f80fd5b905f5260205f20015f91509150505481565b6007602052815f5260405f2081815481106121c2575f80fd5b905f5260205f20015f91509150505481565b60045481565b7f8c7e961e804af7b2059d42008de01ccc90fc88b8e6b947b02e12656ddb05ca3a81565b606060075f8373ffffffffffffffffffffffffffffffffffffffff1673ffffffffffffffffffffffffffffffffffffffff1681526020019081526020015f2080548060200260200160405190810160405280929190818152602001828054801561228557602002820191905f5260205f20905b815481526020019060010190808311612271575b50505050509050919050565b606060085f8373ffffffffffffffffffffffffffffffffffffffff1673ffffffffffffffffffffffffffffffffffffffff1681526020019081526020015f2080548060200260200160405190810160405280929190818152602001828054801561231857602002820191905f5260205f20905b815481526020019060010190808311612304575b50505050509050919050565b61232d82610ceb565b6123368161293a565b6123408383612a3f565b50505050565b6005602052805f5260405f205f91509050805f015f9054906101000a900473ffffffffffffffffffffffffffffffffffffffff1690806002015490806004015f9054906101000a900460ff16908060060154908060070154908060080180546123ae90613a46565b80601f01602080910402602001604051908101604052809291908181526020018280546123da90613a46565b80156124255780601f106123fc57610100808354040283529160200191612425565b820191905f5260205f20905b81548152906001019060200180831161240857829003601f168201915b505050505090806009015f9054906101000a900460ff16905087565b7fa49807205ce4d355092ef5a8a18f56e8913cf4a201fbe287825b095693c2177561246b8161293a565b5050565b7fa49807205ce4d355092ef5a8a18f56e8913cf4a201fbe287825b095693c217756124998161293a565b5f4790505f3373ffffffffffffffffffffffffffffffffffffffff16826040516124c290613b44565b5f6040518083038185875af1925050503d805f81146124fc576040519150601f19603f3d011682016040523d82523d5f602084013e612501565b606091505b5050905080612545576040517f08c379a000000000000000000000000000000000000000000000000000000000815260040161253c90613ef8565b60405180910390fd5b505050565b6009602052805f5260405f205f915090505481565b662386f26fc1000081565b612572612b8a565b61257a612bd4565b5f811480612589575060035481115b156125c0576040517fb817e7dd00000000000000000000000000000000000000000000000000000000815260040160405180910390fd5b5f60055f8381526020019081526020015f209050805f015f9054906101000a900473ffffffffffffffffffffffffffffffffffffffff1673ffffffffffffffffffffffffffffffffffffffff163373ffffffffffffffffffffffffffffffffffffffff161480612642575062093a80816007015461263e9190613e54565b4210155b612681576040517f08c379a000000000000000000000000000000000000000000000000000000000815260040161267890613f60565b60405180910390fd5b806009015f9054906101000a900460ff166126c8576040517f5d43425900000000000000000000000000000000000000000000000000000000815260040160405180910390fd5b5f816009015f6101000a81548160ff0219169083151502179055505f5f90505f5f90505b82600101805490508110156127c257826005015f84600101838154811061271657612715613a76565b5b905f5260205f20015f9054906101000a900473ffffffffffffffffffffffffffffffffffffffff1673ffffffffffffffffffffffffffffffffffffffff1673ffffffffffffffffffffffffffffffffffffffff1681526020019081526020015f205f9054906101000a900460ff166127b55782600301818154811061279e5761279d613a76565b5b905f5260205f200154826127b29190613e54565b91505b80806001019150506126ec565b505f811115612897575f825f015f9054906101000a900473ffffffffffffffffffffffffffffffffffffffff1673ffffffffffffffffffffffffffffffffffffffff168260405161281290613b44565b5f6040518083038185875af1925050503d805f811461284c576040519150601f19603f3d011682016040523d82523d5f602084013e612851565b606091505b5050905080612895576040517f08c379a000000000000000000000000000000000000000000000000000000000815260040161288c90613fc8565b60405180910390fd5b505b827fdbc83cb6e4a23b5efcb48571a7ee8bdec0789b58f8f3ec922f3cd2b18947dc5260405160405180910390a250506128ce612c21565b50565b5f7f01ffc9a7000000000000000000000000000000000000000000000000000000007bffffffffffffffffffffffffffffffffffffffffffffffffffffffff1916827bffffffffffffffffffffffffffffffffffffffffffffffffffffffff1916149050919050565b61294b81612946612a38565b612e22565b50565b5f6129598383611500565b612a2e57600160025f8581526020019081526020015f205f015f8473ffffffffffffffffffffffffffffffffffffffff1673ffffffffffffffffffffffffffffffffffffffff1681526020019081526020015f205f6101000a81548160ff0219169083151502179055506129cb612a38565b73ffffffffffffffffffffffffffffffffffffffff168273ffffffffffffffffffffffffffffffffffffffff16847f2f8788117e7eff1d82e926ec794901d17c78024a50270940304540a733656f0d60405160405180910390a460019050612a32565b5f90505b92915050565b5f33905090565b5f612a4a8383611500565b15612b1f575f60025f8581526020019081526020015f205f015f8473ffffffffffffffffffffffffffffffffffffffff1673ffffffffffffffffffffffffffffffffffffffff1681526020019081526020015f205f6101000a81548160ff021916908315150217905550612abc612a38565b73ffffffffffffffffffffffffffffffffffffffff168273ffffffffffffffffffffffffffffffffffffffff16847ff6391f5c32d9c69d2a47ea670b442974b53935d1edc7fd64eb21e047a839171b60405160405180910390a460019050612b23565b5f90505b92915050565b612b31612e73565b5f60015f6101000a81548160ff0219169083151502179055507f5db9ee0a495bf2e6ff9c91a7834c1ba4fdd244a5e8aa4e537bd38aeae4b073aa612b73612a38565b604051612b809190613fe6565b60405180910390a1565b612b92610dea565b15612bd2576040517f08c379a0000000000000000000000000000000000000000000000000000000008152600401612bc990614049565b60405180910390fd5b565b60025f5403612c18576040517f08c379a0000000000000000000000000000000000000000000000000000000008152600401612c0f906140b1565b60405180910390fd5b60025f81905550565b60015f81905550565b612c32612b8a565b6001805f6101000a81548160ff0219169083151502179055507f62e78cea01bee320cd4e420270b5ea74000d11b0c9f74754ebdbfc544b05a258612c74612a38565b604051612c819190613fe6565b60405180910390a1565b60608167ffffffffffffffff811115612ca757612ca661363d565b5b604051908082528060200260200182016040528015612cd55781602001602082028036833780820191505090505b5090505f8390505f5f90505b600184612cee91906140cf565b811015612dee575f600a83612d039190613df4565b90505f600a600485612d159190614102565b612d1f9190613df4565b905081811115612db0575f8282612d3691906140cf565b42448633604051602001612d4d94939291906141a8565b604051602081830303815290604052805190602001205f1c612d6f9190613e24565b83612d7a9190613e54565b905080868581518110612d9057612d8f613a76565b5b6020026020010181815250508085612da891906140cf565b945050612ddf565b81858481518110612dc457612dc3613a76565b5b6020026020010181815250508184612ddc91906140cf565b93505b50508080600101915050612ce1565b508082600185612dfe91906140cf565b81518110612e0f57612e0e613a76565b5b6020026020010181815250505092915050565b612e2c8282611500565b612e6f5780826040517fe2517d3f000000000000000000000000000000000000000000000000000000008152600401612e669291906141f5565b60405180910390fd5b5050565b612e7b610dea565b612eba576040517f08c379a0000000000000000000000000000000000000000000000000000000008152600401612eb190614266565b60405180910390fd5b565b6040518060a001604052805f73ffffffffffffffffffffffffffffffffffffffff1681526020015f73ffffffffffffffffffffffffffffffffffffffff1681526020015f81526020015f8152602001606081525090565b828054828255905f5260205f20908101928215612f89579160200282015b82811115612f88578251825f6101000a81548173ffffffffffffffffffffffffffffffffffffffff021916908373ffffffffffffffffffffffffffffffffffffffff16021790555091602001919060010190612f31565b5b509050612f969190612fe5565b5090565b828054828255905f5260205f20908101928215612fd4579160200282015b82811115612fd3578251825591602001919060010190612fb8565b5b509050612fe19190612fe5565b5090565b5b80821115612ffc575f815f905550600101612fe6565b5090565b5f604051905090565b5f5ffd5b5f5ffd5b5f7fffffffff0000000000000000000000000000000000000000000000000000000082169050919050565b61304581613011565b811461304f575f5ffd5b50565b5f813590506130608161303c565b92915050565b5f6020828403121561307b5761307a613009565b5b5f61308884828501613052565b91505092915050565b5f8115159050919050565b6130a581613091565b82525050565b5f6020820190506130be5f83018461309c565b92915050565b5f819050919050565b6130d6816130c4565b81146130e0575f5ffd5b50565b5f813590506130f1816130cd565b92915050565b5f6020828403121561310c5761310b613009565b5b5f613119848285016130e3565b91505092915050565b5f73ffffffffffffffffffffffffffffffffffffffff82169050919050565b5f61314b82613122565b9050919050565b61315b81613141565b82525050565b61316a816130c4565b82525050565b5f81519050919050565b5f82825260208201905092915050565b8281835e5f83830152505050565b5f601f19601f8301169050919050565b5f6131b282613170565b6131bc818561317a565b93506131cc81856020860161318a565b6131d581613198565b840191505092915050565b5f60a083015f8301516131f55f860182613152565b5060208301516132086020860182613152565b50604083015161321b6040860182613161565b50606083015161322e6060860182613161565b506080830151848203608086015261324682826131a8565b9150508091505092915050565b5f6020820190508181035f83015261326b81846131e0565b905092915050565b61327c81613141565b82525050565b5f81519050919050565b5f82825260208201905092915050565b5f819050602082019050919050565b5f6132b68383613152565b60208301905092915050565b5f602082019050919050565b5f6132d882613282565b6132e2818561328c565b93506132ed8361329c565b805f5b8381101561331d57815161330488826132ab565b975061330f836132c2565b9250506001810190506132f0565b5085935050505092915050565b613333816130c4565b82525050565b5f81519050919050565b5f82825260208201905092915050565b5f819050602082019050919050565b5f61336d8383613161565b60208301905092915050565b5f602082019050919050565b5f61338f82613339565b6133998185613343565b93506133a483613353565b805f5b838110156133d45781516133bb8882613362565b97506133c683613379565b9250506001810190506133a7565b5085935050505092915050565b5f82825260208201905092915050565b5f6133fb82613170565b61340581856133e1565b935061341581856020860161318a565b61341e81613198565b840191505092915050565b5f6101208201905061343d5f83018c613273565b818103602083015261344f818b6132ce565b905061345e604083018a61332a565b81810360608301526134708189613385565b905061347f608083018861309c565b61348c60a083018761332a565b61349960c083018661332a565b81810360e08301526134ab81856133f1565b90506134bb61010083018461309c565b9a9950505050505050505050565b5f819050919050565b6134db816134c9565b81146134e5575f5ffd5b50565b5f813590506134f6816134d2565b92915050565b5f6020828403121561351157613510613009565b5b5f61351e848285016134e8565b91505092915050565b613530816134c9565b82525050565b5f6020820190506135495f830184613527565b92915050565b61355881613141565b8114613562575f5ffd5b50565b5f813590506135738161354f565b92915050565b5f5f6040838503121561358f5761358e613009565b5b5f61359c858286016134e8565b92505060206135ad85828601613565565b9150509250929050565b5f6020820190506135ca5f83018461332a565b92915050565b5f5f604083850312156135e6576135e5613009565b5b5f6135f3858286016130e3565b925050602061360485828601613565565b9150509250929050565b5f6020828403121561362357613622613009565b5b5f61363084828501613565565b91505092915050565b5f5ffd5b7f4e487b71000000000000000000000000000000000000000000000000000000005f52604160045260245ffd5b61367382613198565b810181811067ffffffffffffffff821117156136925761369161363d565b5b80604052505050565b5f6136a4613000565b90506136b0828261366a565b919050565b5f67ffffffffffffffff8211156136cf576136ce61363d565b5b602082029050602081019050919050565b5f5ffd5b5f6136f66136f1846136b5565b61369b565b90508083825260208201905060208402830185811115613719576137186136e0565b5b835b81811015613742578061372e8882613565565b84526020840193505060208101905061371b565b5050509392505050565b5f82601f8301126137605761375f613639565b5b81356137708482602086016136e4565b91505092915050565b61378281613091565b811461378c575f5ffd5b50565b5f8135905061379d81613779565b92915050565b5f5ffd5b5f67ffffffffffffffff8211156137c1576137c061363d565b5b6137ca82613198565b9050602081019050919050565b828183375f83830152505050565b5f6137f76137f2846137a7565b61369b565b905082815260208101848484011115613813576138126137a3565b5b61381e8482856137d7565b509392505050565b5f82601f83011261383a57613839613639565b5b813561384a8482602086016137e5565b91505092915050565b5f5f5f5f6080858703121561386b5761386a613009565b5b5f85013567ffffffffffffffff8111156138885761388761300d565b5b6138948782880161374c565b94505060206138a5878288016130e3565b93505060406138b68782880161378f565b925050606085013567ffffffffffffffff8111156138d7576138d661300d565b5b6138e387828801613826565b91505092959194509250565b5f60a0820190506139025f830188613273565b61390f6020830187613273565b61391c604083018661332a565b613929606083018561332a565b818103608083015261393b81846133f1565b90509695505050505050565b5f5f6040838503121561395d5761395c613009565b5b5f61396a85828601613565565b925050602061397b858286016130e3565b9150509250929050565b5f6020820190508181035f83015261399d8184613385565b905092915050565b5f60e0820190506139b85f83018a613273565b6139c5602083018961332a565b6139d2604083018861309c565b6139df606083018761332a565b6139ec608083018661332a565b81810360a08301526139fe81856133f1565b9050613a0d60c083018461309c565b98975050505050505050565b7f4e487b71000000000000000000000000000000000000000000000000000000005f52602260045260245ffd5b5f6002820490506001821680613a5d57607f821691505b602082108103613a7057613a6f613a19565b5b50919050565b7f4e487b71000000000000000000000000000000000000000000000000000000005f52603260045260245ffd5b7f4e487b71000000000000000000000000000000000000000000000000000000005f52601160045260245ffd5b5f613ada826130c4565b91507fffffffffffffffffffffffffffffffffffffffffffffffffffffffffffffffff8203613b0c57613b0b613aa3565b5b600182019050919050565b5f81905092915050565b50565b5f613b2f5f83613b17565b9150613b3a82613b21565b5f82019050919050565b5f613b4e82613b24565b9150819050919050565b5f819050815f5260205f209050919050565b5f6020601f8301049050919050565b5f82821b905092915050565b5f60088302613bb47fffffffffffffffffffffffffffffffffffffffffffffffffffffffffffffffff82613b79565b613bbe8683613b79565b95508019841693508086168417925050509392505050565b5f819050919050565b5f613bf9613bf4613bef846130c4565b613bd6565b6130c4565b9050919050565b5f819050919050565b613c1283613bdf565b613c26613c1e82613c00565b848454613b85565b825550505050565b5f5f905090565b613c3d613c2e565b613c48818484613c09565b505050565b5b81811015613c6b57613c605f82613c35565b600181019050613c4e565b5050565b601f821115613cb057613c8181613b58565b613c8a84613b6a565b81016020851015613c99578190505b613cad613ca585613b6a565b830182613c4d565b50505b505050565b5f82821c905092915050565b5f613cd05f1984600802613cb5565b1980831691505092915050565b5f613ce88383613cc1565b9150826002028217905092915050565b613d0182613170565b67ffffffffffffffff811115613d1a57613d1961363d565b5b613d248254613a46565b613d2f828285613c6f565b5f60209050601f831160018114613d60575f8415613d4e578287015190505b613d588582613cdd565b865550613dbf565b601f198416613d6e86613b58565b5f5b82811015613d9557848901518255600182019150602085019450602081019050613d70565b86831015613db25784890151613dae601f891682613cc1565b8355505b6001600288020188555050505b505050505050565b7f4e487b71000000000000000000000000000000000000000000000000000000005f52601260045260245ffd5b5f613dfe826130c4565b9150613e09836130c4565b925082613e1957613e18613dc7565b5b828204905092915050565b5f613e2e826130c4565b9150613e39836130c4565b925082613e4957613e48613dc7565b5b828206905092915050565b5f613e5e826130c4565b9150613e69836130c4565b9250828201905080821115613e8157613e80613aa3565b5b92915050565b5f604082019050613e9a5f83018561332a565b613ea7602083018461332a565b9392505050565b7f456d657267656e6379207769746864726177616c206661696c656400000000005f82015250565b5f613ee2601b836133e1565b9150613eed82613eae565b602082019050919050565b5f6020820190508181035f830152613f0f81613ed6565b9050919050565b7f43616e6e6f7420657870697265207965740000000000000000000000000000005f82015250565b5f613f4a6011836133e1565b9150613f5582613f16565b602082019050919050565b5f6020820190508181035f830152613f7781613f3e565b9050919050565b7f526566756e64206661696c6564000000000000000000000000000000000000005f82015250565b5f613fb2600d836133e1565b9150613fbd82613f7e565b602082019050919050565b5f6020820190508181035f830152613fdf81613fa6565b9050919050565b5f602082019050613ff95f830184613273565b92915050565b7f5061757361626c653a20706175736564000000000000000000000000000000005f82015250565b5f6140336010836133e1565b915061403e82613fff565b602082019050919050565b5f6020820190508181035f83015261406081614027565b9050919050565b7f5265656e7472616e637947756172643a207265656e7472616e742063616c6c005f82015250565b5f61409b601f836133e1565b91506140a682614067565b602082019050919050565b5f6020820190508181035f8301526140c88161408f565b9050919050565b5f6140d9826130c4565b91506140e4836130c4565b92508282039050818111156140fc576140fb613aa3565b5b92915050565b5f61410c826130c4565b9150614117836130c4565b9250828202614125816130c4565b9150828204841483151761413c5761413b613aa3565b5b5092915050565b5f819050919050565b61415d614158826130c4565b614143565b82525050565b5f8160601b9050919050565b5f61417982614163565b9050919050565b5f61418a8261416f565b9050919050565b6141a261419d82613141565b614180565b82525050565b5f6141b3828761414c565b6020820191506141c3828661414c565b6020820191506141d3828561414c565b6020820191506141e38284614191565b60148201915081905095945050505050565b5f6040820190506142085f830185613273565b6142156020830184613527565b9392505050565b7f5061757361626c653a206e6f74207061757365640000000000000000000000005f82015250565b5f6142506014836133e1565b915061425b8261421c565b602082019050919050565b5f6020820190508181035f83015261427d81614244565b905091905056fea26469706673582212207cfe322a3fdb6c3cb250b37347d339c7db2348da2b18d47af76a52d6459c56a164736f6c634300081e0033",
					"opcodes": "PUSH1 0x80 PUSH1 0x40 MSTORE CALLVALUE DUP1 ISZERO PUSH2 0xF JUMPI PUSH0 PUSH0 REVERT JUMPDEST POP PUSH1 0x1 PUSH0 DUP2 SWAP1 SSTORE POP PUSH0 PUSH1 0x1 PUSH0 PUSH2 0x100 EXP DUP2 SLOAD DUP2 PUSH1 0xFF MUL NOT AND SWAP1 DUP4 ISZERO ISZERO MUL OR SWAP1 SSTORE POP PUSH2 0x42 PUSH0 PUSH0 SHL CALLER PUSH2 0x79 PUSH1 0x20 SHL PUSH1 0x20 SHR JUMP JUMPDEST POP PUSH2 0x73 PUSH32 0xA49807205CE4D355092EF5A8A18F56E8913CF4A201FBE287825B095693C21775 CALLER PUSH2 0x79 PUSH1 0x20 SHL PUSH1 0x20 SHR JUMP JUMPDEST POP PUSH2 0x1DA JUMP JUMPDEST PUSH0 PUSH2 0x8A DUP4 DUP4 PUSH2 0x16F PUSH1 0x20 SHL PUSH1 0x20 SHR JUMP JUMPDEST PUSH2 0x165 JUMPI PUSH1 0x1 PUSH1 0x2 PUSH0 DUP6 DUP2 MSTORE PUSH1 0x20 ADD SWAP1 DUP2 MSTORE PUSH1 0x20 ADD PUSH0 KECCAK256 PUSH0 ADD PUSH0 DUP5 PUSH20 0xFFFFFFFFFFFFFFFFFFFFFFFFFFFFFFFFFFFFFFFF AND PUSH20 0xFFFFFFFFFFFFFFFFFFFFFFFFFFFFFFFFFFFFFFFF AND DUP2 MSTORE PUSH1 0x20 ADD SWAP1 DUP2 MSTORE PUSH1 0x20 ADD PUSH0 KECCAK256 PUSH0 PUSH2 0x100 EXP DUP2 SLOAD DUP2 PUSH1 0xFF MUL NOT AND SWAP1 DUP4 ISZERO ISZERO MUL OR SWAP1 SSTORE POP PUSH2 0x102 PUSH2 0x1D3 PUSH1 0x20 SHL PUSH1 0x20 SHR JUMP JUMPDEST PUSH20 0xFFFFFFFFFFFFFFFFFFFFFFFFFFFFFFFFFFFFFFFF AND DUP3 PUSH20 0xFFFFFFFFFFFFFFFFFFFFFFFFFFFFFFFFFFFFFFFF AND DUP5 PUSH32 0x2F8788117E7EFF1D82E926EC794901D17C78024A50270940304540A733656F0D PUSH1 0x40 MLOAD PUSH1 0x40 MLOAD DUP1 SWAP2 SUB SWAP1 LOG4 PUSH1 0x1 SWAP1 POP PUSH2 0x169 JUMP JUMPDEST PUSH0 SWAP1 POP JUMPDEST SWAP3 SWAP2 POP POP JUMP JUMPDEST PUSH0 PUSH1 0x2 PUSH0 DUP5 DUP2 MSTORE PUSH1 0x20 ADD SWAP1 DUP2 MSTORE PUSH1 0x20 ADD PUSH0 KECCAK256 PUSH0 ADD PUSH0 DUP4 PUSH20 0xFFFFFFFFFFFFFFFFFFFFFFFFFFFFFFFFFFFFFFFF AND PUSH20 0xFFFFFFFFFFFFFFFFFFFFFFFFFFFFFFFFFFFFFFFF AND DUP2 MSTORE PUSH1 0x20 ADD SWAP1 DUP2 MSTORE PUSH1 0x20 ADD PUSH0 KECCAK256 PUSH0 SWAP1 SLOAD SWAP1 PUSH2 0x100 EXP SWAP1 DIV PUSH1 0xFF AND SWAP1 POP SWAP3 SWAP2 POP POP JUMP JUMPDEST PUSH0 CALLER SWAP1 POP SWAP1 JUMP JUMPDEST PUSH2 0x42BA DUP1 PUSH2 0x1E7 PUSH0 CODECOPY PUSH0 RETURN INVALID PUSH1 0x80 PUSH1 0x40 MSTORE PUSH1 0x4 CALLDATASIZE LT PUSH2 0x219 JUMPI PUSH0 CALLDATALOAD PUSH1 0xE0 SHR DUP1 PUSH4 0x936DF0D7 GT PUSH2 0x122 JUMPI DUP1 PUSH4 0xC08F3954 GT PUSH2 0xAA JUMPI DUP1 PUSH4 0xD7262D56 GT PUSH2 0x6E JUMPI DUP1 PUSH4 0xD7262D56 EQ PUSH2 0x82F JUMPI DUP1 PUSH4 0xDB2E21BC EQ PUSH2 0x857 JUMPI DUP1 PUSH4 0xDFB8B314 EQ PUSH2 0x86D JUMPI DUP1 PUSH4 0xDFEB662A EQ PUSH2 0x8A9 JUMPI DUP1 PUSH4 0xFC8D7A4B EQ PUSH2 0x8D3 JUMPI PUSH2 0x219 JUMP JUMPDEST DUP1 PUSH4 0xC08F3954 EQ PUSH2 0x723 JUMPI DUP1 PUSH4 0xC51309DB EQ PUSH2 0x74D JUMPI DUP1 PUSH4 0xCB985369 EQ PUSH2 0x789 JUMPI DUP1 PUSH4 0xD547741F EQ PUSH2 0x7C5 JUMPI DUP1 PUSH4 0xD5F9F232 EQ PUSH2 0x7ED JUMPI PUSH2 0x219 JUMP JUMPDEST DUP1 PUSH4 0xA6980CE2 GT PUSH2 0xF1 JUMPI DUP1 PUSH4 0xA6980CE2 EQ PUSH2 0x61B JUMPI DUP1 PUSH4 0xB30F8A13 EQ PUSH2 0x645 JUMPI DUP1 PUSH4 0xB44F0297 EQ PUSH2 0x681 JUMPI DUP1 PUSH4 0xB842EC44 EQ PUSH2 0x6BD JUMPI DUP1 PUSH4 0xB9A60038 EQ PUSH2 0x6F9 JUMPI PUSH2 0x219 JUMP JUMPDEST DUP1 PUSH4 0x936DF0D7 EQ PUSH2 0x579 JUMPI DUP1 PUSH4 0x9ACE38C2 EQ PUSH2 0x595 JUMPI DUP1 PUSH4 0xA17EDA18 EQ PUSH2 0x5D5 JUMPI DUP1 PUSH4 0xA217FDDF EQ PUSH2 0x5F1 JUMPI PUSH2 0x219 JUMP JUMPDEST DUP1 PUSH4 0x5C975ABB GT PUSH2 0x1A5 JUMPI DUP1 PUSH4 0x75B238FC GT PUSH2 0x174 JUMPI DUP1 PUSH4 0x75B238FC EQ PUSH2 0x4AD JUMPI DUP1 PUSH4 0x783A250E EQ PUSH2 0x4D7 JUMPI DUP1 PUSH4 0x8456CB59 EQ PUSH2 0x4FF JUMPI DUP1 PUSH4 0x8A9620CE EQ PUSH2 0x515 JUMPI DUP1 PUSH4 0x91D14854 EQ PUSH2 0x53D JUMPI PUSH2 0x219 JUMP JUMPDEST DUP1 PUSH4 0x5C975ABB EQ PUSH2 0x3CF JUMPI DUP1 PUSH4 0x66A0A329 EQ PUSH2 0x3F9 JUMPI DUP1 PUSH4 0x68745143 EQ PUSH2 0x435 JUMPI DUP1 PUSH4 0x73A458BD EQ PUSH2 0x471 JUMPI PUSH2 0x219 JUMP JUMPDEST DUP1 PUSH4 0x2F2FF15D GT PUSH2 0x1EC JUMPI DUP1 PUSH4 0x2F2FF15D EQ PUSH2 0x315 JUMPI DUP1 PUSH4 0x36568ABE EQ PUSH2 0x33D JUMPI DUP1 PUSH4 0x3C3DBBC7 EQ PUSH2 0x365 JUMPI DUP1 PUSH4 0x3F4BA83A EQ PUSH2 0x38F JUMPI DUP1 PUSH4 0x42C1B2D0 EQ PUSH2 0x3A5 JUMPI PUSH2 0x219 JUMP JUMPDEST DUP1 PUSH4 0x1FFC9A7 EQ PUSH2 0x21D JUMPI DUP1 PUSH4 0xFA683D3 EQ PUSH2 0x259 JUMPI DUP1 PUSH4 0x1BF86EA6 EQ PUSH2 0x295 JUMPI DUP1 PUSH4 0x248A9CA3 EQ PUSH2 0x2D9 JUMPI JUMPDEST PUSH0 PUSH0 REVERT JUMPDEST CALLVALUE DUP1 ISZERO PUSH2 0x228 JUMPI PUSH0 PUSH0 REVERT JUMPDEST POP PUSH2 0x243 PUSH1 0x4 DUP1 CALLDATASIZE SUB DUP2 ADD SWAP1 PUSH2 0x23E SWAP2 SWAP1 PUSH2 0x3066 JUMP JUMPDEST PUSH2 0x8FB JUMP JUMPDEST PUSH1 0x40 MLOAD PUSH2 0x250 SWAP2 SWAP1 PUSH2 0x30AB JUMP JUMPDEST PUSH1 0x40 MLOAD DUP1 SWAP2 SUB SWAP1 RETURN JUMPDEST CALLVALUE DUP1 ISZERO PUSH2 0x264 JUMPI PUSH0 PUSH0 REVERT JUMPDEST POP PUSH2 0x27F PUSH1 0x4 DUP1 CALLDATASIZE SUB DUP2 ADD SWAP1 PUSH2 0x27A SWAP2 SWAP1 PUSH2 0x30F7 JUMP JUMPDEST PUSH2 0x974 JUMP JUMPDEST PUSH1 0x40 MLOAD PUSH2 0x28C SWAP2 SWAP1 PUSH2 0x3253 JUMP JUMPDEST PUSH1 0x40 MLOAD DUP1 SWAP2 SUB SWAP1 RETURN JUMPDEST CALLVALUE DUP1 ISZERO PUSH2 0x2A0 JUMPI PUSH0 PUSH0 REVERT JUMPDEST POP PUSH2 0x2BB PUSH1 0x4 DUP1 CALLDATASIZE SUB DUP2 ADD SWAP1 PUSH2 0x2B6 SWAP2 SWAP1 PUSH2 0x30F7 JUMP JUMPDEST PUSH2 0xAEC JUMP JUMPDEST PUSH1 0x40 MLOAD PUSH2 0x2D0 SWAP10 SWAP9 SWAP8 SWAP7 SWAP6 SWAP5 SWAP4 SWAP3 SWAP2 SWAP1 PUSH2 0x3429 JUMP JUMPDEST PUSH1 0x40 MLOAD DUP1 SWAP2 SUB SWAP1 RETURN JUMPDEST CALLVALUE DUP1 ISZERO PUSH2 0x2E4 JUMPI PUSH0 PUSH0 REVERT JUMPDEST POP PUSH2 0x2FF PUSH1 0x4 DUP1 CALLDATASIZE SUB DUP2 ADD SWAP1 PUSH2 0x2FA SWAP2 SWAP1 PUSH2 0x34FC JUMP JUMPDEST PUSH2 0xCEB JUMP JUMPDEST PUSH1 0x40 MLOAD PUSH2 0x30C SWAP2 SWAP1 PUSH2 0x3536 JUMP JUMPDEST PUSH1 0x40 MLOAD DUP1 SWAP2 SUB SWAP1 RETURN JUMPDEST CALLVALUE DUP1 ISZERO PUSH2 0x320 JUMPI PUSH0 PUSH0 REVERT JUMPDEST POP PUSH2 0x33B PUSH1 0x4 DUP1 CALLDATASIZE SUB DUP2 ADD SWAP1 PUSH2 0x336 SWAP2 SWAP1 PUSH2 0x3579 JUMP JUMPDEST PUSH2 0xD08 JUMP JUMPDEST STOP JUMPDEST CALLVALUE DUP1 ISZERO PUSH2 0x348 JUMPI PUSH0 PUSH0 REVERT JUMPDEST POP PUSH2 0x363 PUSH1 0x4 DUP1 CALLDATASIZE SUB DUP2 ADD SWAP1 PUSH2 0x35E SWAP2 SWAP1 PUSH2 0x3579 JUMP JUMPDEST PUSH2 0xD2A JUMP JUMPDEST STOP JUMPDEST CALLVALUE DUP1 ISZERO PUSH2 0x370 JUMPI PUSH0 PUSH0 REVERT JUMPDEST POP PUSH2 0x379 PUSH2 0xDA5 JUMP JUMPDEST PUSH1 0x40 MLOAD PUSH2 0x386 SWAP2 SWAP1 PUSH2 0x35B7 JUMP JUMPDEST PUSH1 0x40 MLOAD DUP1 SWAP2 SUB SWAP1 RETURN JUMPDEST CALLVALUE DUP1 ISZERO PUSH2 0x39A JUMPI PUSH0 PUSH0 REVERT JUMPDEST POP PUSH2 0x3A3 PUSH2 0xDAF JUMP JUMPDEST STOP JUMPDEST CALLVALUE DUP1 ISZERO PUSH2 0x3B0 JUMPI PUSH0 PUSH0 REVERT JUMPDEST POP PUSH2 0x3B9 PUSH2 0xDE4 JUMP JUMPDEST PUSH1 0x40 MLOAD PUSH2 0x3C6 SWAP2 SWAP1 PUSH2 0x35B7 JUMP JUMPDEST PUSH1 0x40 MLOAD DUP1 SWAP2 SUB SWAP1 RETURN JUMPDEST CALLVALUE DUP1 ISZERO PUSH2 0x3DA JUMPI PUSH0 PUSH0 REVERT JUMPDEST POP PUSH2 0x3E3 PUSH2 0xDEA JUMP JUMPDEST PUSH1 0x40 MLOAD PUSH2 0x3F0 SWAP2 SWAP1 PUSH2 0x30AB JUMP JUMPDEST PUSH1 0x40 MLOAD DUP1 SWAP2 SUB SWAP1 RETURN JUMPDEST CALLVALUE DUP1 ISZERO PUSH2 0x404 JUMPI PUSH0 PUSH0 REVERT JUMPDEST POP PUSH2 0x41F PUSH1 0x4 DUP1 CALLDATASIZE SUB DUP2 ADD SWAP1 PUSH2 0x41A SWAP2 SWAP1 PUSH2 0x35D0 JUMP JUMPDEST PUSH2 0xDFF JUMP JUMPDEST PUSH1 0x40 MLOAD PUSH2 0x42C SWAP2 SWAP1 PUSH2 0x30AB JUMP JUMPDEST PUSH1 0x40 MLOAD DUP1 SWAP2 SUB SWAP1 RETURN JUMPDEST CALLVALUE DUP1 ISZERO PUSH2 0x440 JUMPI PUSH0 PUSH0 REVERT JUMPDEST POP PUSH2 0x45B PUSH1 0x4 DUP1 CALLDATASIZE SUB DUP2 ADD SWAP1 PUSH2 0x456 SWAP2 SWAP1 PUSH2 0x360E JUMP JUMPDEST PUSH2 0xE64 JUMP JUMPDEST PUSH1 0x40 MLOAD PUSH2 0x468 SWAP2 SWAP1 PUSH2 0x35B7 JUMP JUMPDEST PUSH1 0x40 MLOAD DUP1 SWAP2 SUB SWAP1 RETURN JUMPDEST CALLVALUE DUP1 ISZERO PUSH2 0x47C JUMPI PUSH0 PUSH0 REVERT JUMPDEST POP PUSH2 0x497 PUSH1 0x4 DUP1 CALLDATASIZE SUB DUP2 ADD SWAP1 PUSH2 0x492 SWAP2 SWAP1 PUSH2 0x360E JUMP JUMPDEST PUSH2 0xEAA JUMP JUMPDEST PUSH1 0x40 MLOAD PUSH2 0x4A4 SWAP2 SWAP1 PUSH2 0x35B7 JUMP JUMPDEST PUSH1 0x40 MLOAD DUP1 SWAP2 SUB SWAP1 RETURN JUMPDEST CALLVALUE DUP1 ISZERO PUSH2 0x4B8 JUMPI PUSH0 PUSH0 REVERT JUMPDEST POP PUSH2 0x4C1 PUSH2 0xEBF JUMP JUMPDEST PUSH1 0x40 MLOAD PUSH2 0x4CE SWAP2 SWAP1 PUSH2 0x3536 JUMP JUMPDEST PUSH1 0x40 MLOAD DUP1 SWAP2 SUB SWAP1 RETURN JUMPDEST CALLVALUE DUP1 ISZERO PUSH2 0x4E2 JUMPI PUSH0 PUSH0 REVERT JUMPDEST POP PUSH2 0x4FD PUSH1 0x4 DUP1 CALLDATASIZE SUB DUP2 ADD SWAP1 PUSH2 0x4F8 SWAP2 SWAP1 PUSH2 0x30F7 JUMP JUMPDEST PUSH2 0xEE3 JUMP JUMPDEST STOP JUMPDEST CALLVALUE DUP1 ISZERO PUSH2 0x50A JUMPI PUSH0 PUSH0 REVERT JUMPDEST POP PUSH2 0x513 PUSH2 0x1472 JUMP JUMPDEST STOP JUMPDEST CALLVALUE DUP1 ISZERO PUSH2 0x520 JUMPI PUSH0 PUSH0 REVERT JUMPDEST POP PUSH2 0x53B PUSH1 0x4 DUP1 CALLDATASIZE SUB DUP2 ADD SWAP1 PUSH2 0x536 SWAP2 SWAP1 PUSH2 0x360E JUMP JUMPDEST PUSH2 0x14A7 JUMP JUMPDEST STOP JUMPDEST CALLVALUE DUP1 ISZERO PUSH2 0x548 JUMPI PUSH0 PUSH0 REVERT JUMPDEST POP PUSH2 0x563 PUSH1 0x4 DUP1 CALLDATASIZE SUB DUP2 ADD SWAP1 PUSH2 0x55E SWAP2 SWAP1 PUSH2 0x3579 JUMP JUMPDEST PUSH2 0x1500 JUMP JUMPDEST PUSH1 0x40 MLOAD PUSH2 0x570 SWAP2 SWAP1 PUSH2 0x30AB JUMP JUMPDEST PUSH1 0x40 MLOAD DUP1 SWAP2 SUB SWAP1 RETURN JUMPDEST PUSH2 0x593 PUSH1 0x4 DUP1 CALLDATASIZE SUB DUP2 ADD SWAP1 PUSH2 0x58E SWAP2 SWAP1 PUSH2 0x3853 JUMP JUMPDEST PUSH2 0x1564 JUMP JUMPDEST STOP JUMPDEST CALLVALUE DUP1 ISZERO PUSH2 0x5A0 JUMPI PUSH0 PUSH0 REVERT JUMPDEST POP PUSH2 0x5BB PUSH1 0x4 DUP1 CALLDATASIZE SUB DUP2 ADD SWAP1 PUSH2 0x5B6 SWAP2 SWAP1 PUSH2 0x30F7 JUMP JUMPDEST PUSH2 0x1B46 JUMP JUMPDEST PUSH1 0x40 MLOAD PUSH2 0x5CC SWAP6 SWAP5 SWAP4 SWAP3 SWAP2 SWAP1 PUSH2 0x38EF JUMP JUMPDEST PUSH1 0x40 MLOAD DUP1 SWAP2 SUB SWAP1 RETURN JUMPDEST PUSH2 0x5EF PUSH1 0x4 DUP1 CALLDATASIZE SUB DUP2 ADD SWAP1 PUSH2 0x5EA SWAP2 SWAP1 PUSH2 0x360E JUMP JUMPDEST PUSH2 0x1C3C JUMP JUMPDEST STOP JUMPDEST CALLVALUE DUP1 ISZERO PUSH2 0x5FC JUMPI PUSH0 PUSH0 REVERT JUMPDEST POP PUSH2 0x605 PUSH2 0x212D JUMP JUMPDEST PUSH1 0x40 MLOAD PUSH2 0x612 SWAP2 SWAP1 PUSH2 0x3536 JUMP JUMPDEST PUSH1 0x40 MLOAD DUP1 SWAP2 SUB SWAP1 RETURN JUMPDEST CALLVALUE DUP1 ISZERO PUSH2 0x626 JUMPI PUSH0 PUSH0 REVERT JUMPDEST POP PUSH2 0x62F PUSH2 0x2133 JUMP JUMPDEST PUSH1 0x40 MLOAD PUSH2 0x63C SWAP2 SWAP1 PUSH2 0x35B7 JUMP JUMPDEST PUSH1 0x40 MLOAD DUP1 SWAP2 SUB SWAP1 RETURN JUMPDEST CALLVALUE DUP1 ISZERO PUSH2 0x650 JUMPI PUSH0 PUSH0 REVERT JUMPDEST POP PUSH2 0x66B PUSH1 0x4 DUP1 CALLDATASIZE SUB DUP2 ADD SWAP1 PUSH2 0x666 SWAP2 SWAP1 PUSH2 0x360E JUMP JUMPDEST PUSH2 0x2138 JUMP JUMPDEST PUSH1 0x40 MLOAD PUSH2 0x678 SWAP2 SWAP1 PUSH2 0x35B7 JUMP JUMPDEST PUSH1 0x40 MLOAD DUP1 SWAP2 SUB SWAP1 RETURN JUMPDEST CALLVALUE DUP1 ISZERO PUSH2 0x68C JUMPI PUSH0 PUSH0 REVERT JUMPDEST POP PUSH2 0x6A7 PUSH1 0x4 DUP1 CALLDATASIZE SUB DUP2 ADD SWAP1 PUSH2 0x6A2 SWAP2 SWAP1 PUSH2 0x3947 JUMP JUMPDEST PUSH2 0x217E JUMP JUMPDEST PUSH1 0x40 MLOAD PUSH2 0x6B4 SWAP2 SWAP1 PUSH2 0x35B7 JUMP JUMPDEST PUSH1 0x40 MLOAD DUP1 SWAP2 SUB SWAP1 RETURN JUMPDEST CALLVALUE DUP1 ISZERO PUSH2 0x6C8 JUMPI PUSH0 PUSH0 REVERT JUMPDEST POP PUSH2 0x6E3 PUSH1 0x4 DUP1 CALLDATASIZE SUB DUP2 ADD SWAP1 PUSH2 0x6DE SWAP2 SWAP1 PUSH2 0x3947 JUMP JUMPDEST PUSH2 0x21A9 JUMP JUMPDEST PUSH1 0x40 MLOAD PUSH2 0x6F0 SWAP2 SWAP1 PUSH2 0x35B7 JUMP JUMPDEST PUSH1 0x40 MLOAD DUP1 SWAP2 SUB SWAP1 RETURN JUMPDEST CALLVALUE DUP1 ISZERO PUSH2 0x704 JUMPI PUSH0 PUSH0 REVERT JUMPDEST POP PUSH2 0x70D PUSH2 0x21D4 JUMP JUMPDEST PUSH1 0x40 MLOAD PUSH2 0x71A SWAP2 SWAP1 PUSH2 0x35B7 JUMP JUMPDEST PUSH1 0x40 MLOAD DUP1 SWAP2 SUB SWAP1 RETURN JUMPDEST CALLVALUE DUP1 ISZERO PUSH2 0x72E JUMPI PUSH0 PUSH0 REVERT JUMPDEST POP PUSH2 0x737 PUSH2 0x21DA JUMP JUMPDEST PUSH1 0x40 MLOAD PUSH2 0x744 SWAP2 SWAP1 PUSH2 0x3536 JUMP JUMPDEST PUSH1 0x40 MLOAD DUP1 SWAP2 SUB SWAP1 RETURN JUMPDEST CALLVALUE DUP1 ISZERO PUSH2 0x758 JUMPI PUSH0 PUSH0 REVERT JUMPDEST POP PUSH2 0x773 PUSH1 0x4 DUP1 CALLDATASIZE SUB DUP2 ADD SWAP1 PUSH2 0x76E SWAP2 SWAP1 PUSH2 0x360E JUMP JUMPDEST PUSH2 0x21FE JUMP JUMPDEST PUSH1 0x40 MLOAD PUSH2 0x780 SWAP2 SWAP1 PUSH2 0x3985 JUMP JUMPDEST PUSH1 0x40 MLOAD DUP1 SWAP2 SUB SWAP1 RETURN JUMPDEST CALLVALUE DUP1 ISZERO PUSH2 0x794 JUMPI PUSH0 PUSH0 REVERT JUMPDEST POP PUSH2 0x7AF PUSH1 0x4 DUP1 CALLDATASIZE SUB DUP2 ADD SWAP1 PUSH2 0x7AA SWAP2 SWAP1 PUSH2 0x360E JUMP JUMPDEST PUSH2 0x2291 JUMP JUMPDEST PUSH1 0x40 MLOAD PUSH2 0x7BC SWAP2 SWAP1 PUSH2 0x3985 JUMP JUMPDEST PUSH1 0x40 MLOAD DUP1 SWAP2 SUB SWAP1 RETURN JUMPDEST CALLVALUE DUP1 ISZERO PUSH2 0x7D0 JUMPI PUSH0 PUSH0 REVERT JUMPDEST POP PUSH2 0x7EB PUSH1 0x4 DUP1 CALLDATASIZE SUB DUP2 ADD SWAP1 PUSH2 0x7E6 SWAP2 SWAP1 PUSH2 0x3579 JUMP JUMPDEST PUSH2 0x2324 JUMP JUMPDEST STOP JUMPDEST CALLVALUE DUP1 ISZERO PUSH2 0x7F8 JUMPI PUSH0 PUSH0 REVERT JUMPDEST POP PUSH2 0x813 PUSH1 0x4 DUP1 CALLDATASIZE SUB DUP2 ADD SWAP1 PUSH2 0x80E SWAP2 SWAP1 PUSH2 0x30F7 JUMP JUMPDEST PUSH2 0x2346 JUMP JUMPDEST PUSH1 0x40 MLOAD PUSH2 0x826 SWAP8 SWAP7 SWAP6 SWAP5 SWAP4 SWAP3 SWAP2 SWAP1 PUSH2 0x39A5 JUMP JUMPDEST PUSH1 0x40 MLOAD DUP1 SWAP2 SUB SWAP1 RETURN JUMPDEST CALLVALUE DUP1 ISZERO PUSH2 0x83A JUMPI PUSH0 PUSH0 REVERT JUMPDEST POP PUSH2 0x855 PUSH1 0x4 DUP1 CALLDATASIZE SUB DUP2 ADD SWAP1 PUSH2 0x850 SWAP2 SWAP1 PUSH2 0x30F7 JUMP JUMPDEST PUSH2 0x2441 JUMP JUMPDEST STOP JUMPDEST CALLVALUE DUP1 ISZERO PUSH2 0x862 JUMPI PUSH0 PUSH0 REVERT JUMPDEST POP PUSH2 0x86B PUSH2 0x246F JUMP JUMPDEST STOP JUMPDEST CALLVALUE DUP1 ISZERO PUSH2 0x878 JUMPI PUSH0 PUSH0 REVERT JUMPDEST POP PUSH2 0x893 PUSH1 0x4 DUP1 CALLDATASIZE SUB DUP2 ADD SWAP1 PUSH2 0x88E SWAP2 SWAP1 PUSH2 0x360E JUMP JUMPDEST PUSH2 0x254A JUMP JUMPDEST PUSH1 0x40 MLOAD PUSH2 0x8A0 SWAP2 SWAP1 PUSH2 0x35B7 JUMP JUMPDEST PUSH1 0x40 MLOAD DUP1 SWAP2 SUB SWAP1 RETURN JUMPDEST CALLVALUE DUP1 ISZERO PUSH2 0x8B4 JUMPI PUSH0 PUSH0 REVERT JUMPDEST POP PUSH2 0x8BD PUSH2 0x255F JUMP JUMPDEST PUSH1 0x40 MLOAD PUSH2 0x8CA SWAP2 SWAP1 PUSH2 0x35B7 JUMP JUMPDEST PUSH1 0x40 MLOAD DUP1 SWAP2 SUB SWAP1 RETURN JUMPDEST CALLVALUE DUP1 ISZERO PUSH2 0x8DE JUMPI PUSH0 PUSH0 REVERT JUMPDEST POP PUSH2 0x8F9 PUSH1 0x4 DUP1 CALLDATASIZE SUB DUP2 ADD SWAP1 PUSH2 0x8F4 SWAP2 SWAP1 PUSH2 0x30F7 JUMP JUMPDEST PUSH2 0x256A JUMP JUMPDEST STOP JUMPDEST PUSH0 PUSH32 0x7965DB0B00000000000000000000000000000000000000000000000000000000 PUSH28 0xFFFFFFFFFFFFFFFFFFFFFFFFFFFFFFFFFFFFFFFFFFFFFFFFFFFFFFFF NOT AND DUP3 PUSH28 0xFFFFFFFFFFFFFFFFFFFFFFFFFFFFFFFFFFFFFFFFFFFFFFFFFFFFFFFF NOT AND EQ DUP1 PUSH2 0x96D JUMPI POP PUSH2 0x96C DUP3 PUSH2 0x28D1 JUMP JUMPDEST JUMPDEST SWAP1 POP SWAP2 SWAP1 POP JUMP JUMPDEST PUSH2 0x97C PUSH2 0x2EBC JUMP JUMPDEST PUSH1 0x6 PUSH0 DUP4 DUP2 MSTORE PUSH1 0x20 ADD SWAP1 DUP2 MSTORE PUSH1 0x20 ADD PUSH0 KECCAK256 PUSH1 0x40 MLOAD DUP1 PUSH1 0xA0 ADD PUSH1 0x40 MSTORE SWAP1 DUP2 PUSH0 DUP3 ADD PUSH0 SWAP1 SLOAD SWAP1 PUSH2 0x100 EXP SWAP1 DIV PUSH20 0xFFFFFFFFFFFFFFFFFFFFFFFFFFFFFFFFFFFFFFFF AND PUSH20 0xFFFFFFFFFFFFFFFFFFFFFFFFFFFFFFFFFFFFFFFF AND PUSH20 0xFFFFFFFFFFFFFFFFFFFFFFFFFFFFFFFFFFFFFFFF AND DUP2 MSTORE PUSH1 0x20 ADD PUSH1 0x1 DUP3 ADD PUSH0 SWAP1 SLOAD SWAP1 PUSH2 0x100 EXP SWAP1 DIV PUSH20 0xFFFFFFFFFFFFFFFFFFFFFFFFFFFFFFFFFFFFFFFF AND PUSH20 0xFFFFFFFFFFFFFFFFFFFFFFFFFFFFFFFFFFFFFFFF AND PUSH20 0xFFFFFFFFFFFFFFFFFFFFFFFFFFFFFFFFFFFFFFFF AND DUP2 MSTORE PUSH1 0x20 ADD PUSH1 0x2 DUP3 ADD SLOAD DUP2 MSTORE PUSH1 0x20 ADD PUSH1 0x3 DUP3 ADD SLOAD DUP2 MSTORE PUSH1 0x20 ADD PUSH1 0x4 DUP3 ADD DUP1 SLOAD PUSH2 0xA65 SWAP1 PUSH2 0x3A46 JUMP JUMPDEST DUP1 PUSH1 0x1F ADD PUSH1 0x20 DUP1 SWAP2 DIV MUL PUSH1 0x20 ADD PUSH1 0x40 MLOAD SWAP1 DUP2 ADD PUSH1 0x40 MSTORE DUP1 SWAP3 SWAP2 SWAP1 DUP2 DUP2 MSTORE PUSH1 0x20 ADD DUP3 DUP1 SLOAD PUSH2 0xA91 SWAP1 PUSH2 0x3A46 JUMP JUMPDEST DUP1 ISZERO PUSH2 0xADC JUMPI DUP1 PUSH1 0x1F LT PUSH2 0xAB3 JUMPI PUSH2 0x100 DUP1 DUP4 SLOAD DIV MUL DUP4 MSTORE SWAP2 PUSH1 0x20 ADD SWAP2 PUSH2 0xADC JUMP JUMPDEST DUP3 ADD SWAP2 SWAP1 PUSH0 MSTORE PUSH1 0x20 PUSH0 KECCAK256 SWAP1 JUMPDEST DUP2 SLOAD DUP2 MSTORE SWAP1 PUSH1 0x1 ADD SWAP1 PUSH1 0x20 ADD DUP1 DUP4 GT PUSH2 0xABF JUMPI DUP3 SWAP1 SUB PUSH1 0x1F AND DUP3 ADD SWAP2 JUMPDEST POP POP POP POP POP DUP2 MSTORE POP POP SWAP1 POP SWAP2 SWAP1 POP JUMP JUMPDEST PUSH0 PUSH1 0x60 PUSH0 PUSH1 0x60 PUSH0 PUSH0 PUSH0 PUSH1 0x60 PUSH0 PUSH0 PUSH1 0x5 PUSH0 DUP13 DUP2 MSTORE PUSH1 0x20 ADD SWAP1 DUP2 MSTORE PUSH1 0x20 ADD PUSH0 KECCAK256 SWAP1 POP DUP1 PUSH0 ADD PUSH0 SWAP1 SLOAD SWAP1 PUSH2 0x100 EXP SWAP1 DIV PUSH20 0xFFFFFFFFFFFFFFFFFFFFFFFFFFFFFFFFFFFFFFFF AND DUP2 PUSH1 0x1 ADD DUP3 PUSH1 0x2 ADD SLOAD DUP4 PUSH1 0x3 ADD DUP5 PUSH1 0x4 ADD PUSH0 SWAP1 SLOAD SWAP1 PUSH2 0x100 EXP SWAP1 DIV PUSH1 0xFF AND DUP6 PUSH1 0x6 ADD SLOAD DUP7 PUSH1 0x7 ADD SLOAD DUP8 PUSH1 0x8 ADD DUP9 PUSH1 0x9 ADD PUSH0 SWAP1 SLOAD SWAP1 PUSH2 0x100 EXP SWAP1 DIV PUSH1 0xFF AND DUP8 DUP1 SLOAD DUP1 PUSH1 0x20 MUL PUSH1 0x20 ADD PUSH1 0x40 MLOAD SWAP1 DUP2 ADD PUSH1 0x40 MSTORE DUP1 SWAP3 SWAP2 SWAP1 DUP2 DUP2 MSTORE PUSH1 0x20 ADD DUP3 DUP1 SLOAD DUP1 ISZERO PUSH2 0xBEA JUMPI PUSH1 0x20 MUL DUP3 ADD SWAP2 SWAP1 PUSH0 MSTORE PUSH1 0x20 PUSH0 KECCAK256 SWAP1 JUMPDEST DUP2 PUSH0 SWAP1 SLOAD SWAP1 PUSH2 0x100 EXP SWAP1 DIV PUSH20 0xFFFFFFFFFFFFFFFFFFFFFFFFFFFFFFFFFFFFFFFF AND PUSH20 0xFFFFFFFFFFFFFFFFFFFFFFFFFFFFFFFFFFFFFFFF AND DUP2 MSTORE PUSH1 0x20 ADD SWAP1 PUSH1 0x1 ADD SWAP1 DUP1 DUP4 GT PUSH2 0xBA1 JUMPI JUMPDEST POP POP POP POP POP SWAP8 POP DUP6 DUP1 SLOAD DUP1 PUSH1 0x20 MUL PUSH1 0x20 ADD PUSH1 0x40 MLOAD SWAP1 DUP2 ADD PUSH1 0x40 MSTORE DUP1 SWAP3 SWAP2 SWAP1 DUP2 DUP2 MSTORE PUSH1 0x20 ADD DUP3 DUP1 SLOAD DUP1 ISZERO PUSH2 0xC3A JUMPI PUSH1 0x20 MUL DUP3 ADD SWAP2 SWAP1 PUSH0 MSTORE PUSH1 0x20 PUSH0 KECCAK256 SWAP1 JUMPDEST DUP2 SLOAD DUP2 MSTORE PUSH1 0x20 ADD SWAP1 PUSH1 0x1 ADD SWAP1 DUP1 DUP4 GT PUSH2 0xC26 JUMPI JUMPDEST POP POP POP POP POP SWAP6 POP DUP2 DUP1 SLOAD PUSH2 0xC4D SWAP1 PUSH2 0x3A46 JUMP JUMPDEST DUP1 PUSH1 0x1F ADD PUSH1 0x20 DUP1 SWAP2 DIV MUL PUSH1 0x20 ADD PUSH1 0x40 MLOAD SWAP1 DUP2 ADD PUSH1 0x40 MSTORE DUP1 SWAP3 SWAP2 SWAP1 DUP2 DUP2 MSTORE PUSH1 0x20 ADD DUP3 DUP1 SLOAD PUSH2 0xC79 SWAP1 PUSH2 0x3A46 JUMP JUMPDEST DUP1 ISZERO PUSH2 0xCC4 JUMPI DUP1 PUSH1 0x1F LT PUSH2 0xC9B JUMPI PUSH2 0x100 DUP1 DUP4 SLOAD DIV MUL DUP4 MSTORE SWAP2 PUSH1 0x20 ADD SWAP2 PUSH2 0xCC4 JUMP JUMPDEST DUP3 ADD SWAP2 SWAP1 PUSH0 MSTORE PUSH1 0x20 PUSH0 KECCAK256 SWAP1 JUMPDEST DUP2 SLOAD DUP2 MSTORE SWAP1 PUSH1 0x1 ADD SWAP1 PUSH1 0x20 ADD DUP1 DUP4 GT PUSH2 0xCA7 JUMPI DUP3 SWAP1 SUB PUSH1 0x1F AND DUP3 ADD SWAP2 JUMPDEST POP POP POP POP POP SWAP2 POP SWAP10 POP SWAP10 POP SWAP10 POP SWAP10 POP SWAP10 POP SWAP10 POP SWAP10 POP SWAP10 POP SWAP10 POP POP SWAP2 SWAP4 SWAP6 SWAP8 SWAP10 SWAP1 SWAP3 SWAP5 SWAP7 SWAP9 POP JUMP JUMPDEST PUSH0 PUSH1 0x2 PUSH0 DUP4 DUP2 MSTORE PUSH1 0x20 ADD SWAP1 DUP2 MSTORE PUSH1 0x20 ADD PUSH0 KECCAK256 PUSH1 0x1 ADD SLOAD SWAP1 POP SWAP2 SWAP1 POP JUMP JUMPDEST PUSH2 0xD11 DUP3 PUSH2 0xCEB JUMP JUMPDEST PUSH2 0xD1A DUP2 PUSH2 0x293A JUMP JUMPDEST PUSH2 0xD24 DUP4 DUP4 PUSH2 0x294E JUMP JUMPDEST POP POP POP POP JUMP JUMPDEST PUSH2 0xD32 PUSH2 0x2A38 JUMP JUMPDEST PUSH20 0xFFFFFFFFFFFFFFFFFFFFFFFFFFFFFFFFFFFFFFFF AND DUP2 PUSH20 0xFFFFFFFFFFFFFFFFFFFFFFFFFFFFFFFFFFFFFFFF AND EQ PUSH2 0xD96 JUMPI PUSH1 0x40 MLOAD PUSH32 0x6697B23200000000000000000000000000000000000000000000000000000000 DUP2 MSTORE PUSH1 0x4 ADD PUSH1 0x40 MLOAD DUP1 SWAP2 SUB SWAP1 REVERT JUMPDEST PUSH2 0xDA0 DUP3 DUP3 PUSH2 0x2A3F JUMP JUMPDEST POP POP POP JUMP JUMPDEST PUSH6 0x5AF3107A4000 DUP2 JUMP JUMPDEST PUSH32 0xA49807205CE4D355092EF5A8A18F56E8913CF4A201FBE287825B095693C21775 PUSH2 0xDD9 DUP2 PUSH2 0x293A JUMP JUMPDEST PUSH2 0xDE1 PUSH2 0x2B29 JUMP JUMPDEST POP JUMP JUMPDEST PUSH1 0x3 SLOAD DUP2 JUMP JUMPDEST PUSH0 PUSH1 0x1 PUSH0 SWAP1 SLOAD SWAP1 PUSH2 0x100 EXP SWAP1 DIV PUSH1 0xFF AND SWAP1 POP SWAP1 JUMP JUMPDEST PUSH0 PUSH1 0x5 PUSH0 DUP5 DUP2 MSTORE PUSH1 0x20 ADD SWAP1 DUP2 MSTORE PUSH1 0x20 ADD PUSH0 KECCAK256 PUSH1 0x5 ADD PUSH0 DUP4 PUSH20 0xFFFFFFFFFFFFFFFFFFFFFFFFFFFFFFFFFFFFFFFF AND PUSH20 0xFFFFFFFFFFFFFFFFFFFFFFFFFFFFFFFFFFFFFFFF AND DUP2 MSTORE PUSH1 0x20 ADD SWAP1 DUP2 MSTORE PUSH1 0x20 ADD PUSH0 KECCAK256 PUSH0 SWAP1 SLOAD SWAP1 PUSH2 0x100 EXP SWAP1 DIV PUSH1 0xFF AND SWAP1 POP SWAP3 SWAP2 POP POP JUMP JUMPDEST PUSH0 PUSH1 0xA PUSH0 DUP4 PUSH20 0xFFFFFFFFFFFFFFFFFFFFFFFFFFFFFFFFFFFFFFFF AND PUSH20 0xFFFFFFFFFFFFFFFFFFFFFFFFFFFFFFFFFFFFFFFF AND DUP2 MSTORE PUSH1 0x20 ADD SWAP1 DUP2 MSTORE PUSH1 0x20 ADD PUSH0 KECCAK256 SLOAD SWAP1 POP SWAP2 SWAP1 POP JUMP JUMPDEST PUSH1 0xA PUSH1 0x20 MSTORE DUP1 PUSH0 MSTORE PUSH1 0x40 PUSH0 KECCAK256 PUSH0 SWAP2 POP SWAP1 POP SLOAD DUP2 JUMP JUMPDEST PUSH32 0xA49807205CE4D355092EF5A8A18F56E8913CF4A201FBE287825B095693C21775 DUP2 JUMP JUMPDEST PUSH2 0xEEB PUSH2 0x2B8A JUMP JUMPDEST PUSH2 0xEF3 PUSH2 0x2BD4 JUMP JUMPDEST PUSH0 DUP2 EQ DUP1 PUSH2 0xF02 JUMPI POP PUSH1 0x3 SLOAD DUP2 GT JUMPDEST ISZERO PUSH2 0xF39 JUMPI PUSH1 0x40 MLOAD PUSH32 0xB817E7DD00000000000000000000000000000000000000000000000000000000 DUP2 MSTORE PUSH1 0x4 ADD PUSH1 0x40 MLOAD DUP1 SWAP2 SUB SWAP1 REVERT JUMPDEST PUSH0 PUSH1 0x5 PUSH0 DUP4 DUP2 MSTORE PUSH1 0x20 ADD SWAP1 DUP2 MSTORE PUSH1 0x20 ADD PUSH0 KECCAK256 SWAP1 POP DUP1 PUSH1 0x9 ADD PUSH0 SWAP1 SLOAD SWAP1 PUSH2 0x100 EXP SWAP1 DIV PUSH1 0xFF AND PUSH2 0xF94 JUMPI PUSH1 0x40 MLOAD PUSH32 0x5D43425900000000000000000000000000000000000000000000000000000000 DUP2 MSTORE PUSH1 0x4 ADD PUSH1 0x40 MLOAD DUP1 SWAP2 SUB SWAP1 REVERT JUMPDEST DUP1 PUSH1 0x5 ADD PUSH0 CALLER PUSH20 0xFFFFFFFFFFFFFFFFFFFFFFFFFFFFFFFFFFFFFFFF AND PUSH20 0xFFFFFFFFFFFFFFFFFFFFFFFFFFFFFFFFFFFFFFFF AND DUP2 MSTORE PUSH1 0x20 ADD SWAP1 DUP2 MSTORE PUSH1 0x20 ADD PUSH0 KECCAK256 PUSH0 SWAP1 SLOAD SWAP1 PUSH2 0x100 EXP SWAP1 DIV PUSH1 0xFF AND ISZERO PUSH2 0x1017 JUMPI PUSH1 0x40 MLOAD PUSH32 0x646CF55800000000000000000000000000000000000000000000000000000000 DUP2 MSTORE PUSH1 0x4 ADD PUSH1 0x40 MLOAD DUP1 SWAP2 SUB SWAP1 REVERT JUMPDEST PUSH0 PUSH0 SWAP1 POP PUSH0 PUSH0 SWAP1 POP PUSH0 PUSH0 SWAP1 POP JUMPDEST DUP4 PUSH1 0x1 ADD DUP1 SLOAD SWAP1 POP DUP2 LT ISZERO PUSH2 0x10BC JUMPI CALLER PUSH20 0xFFFFFFFFFFFFFFFFFFFFFFFFFFFFFFFFFFFFFFFF AND DUP5 PUSH1 0x1 ADD DUP3 DUP2 SLOAD DUP2 LT PUSH2 0x1060 JUMPI PUSH2 0x105F PUSH2 0x3A76 JUMP JUMPDEST JUMPDEST SWAP1 PUSH0 MSTORE PUSH1 0x20 PUSH0 KECCAK256 ADD PUSH0 SWAP1 SLOAD SWAP1 PUSH2 0x100 EXP SWAP1 DIV PUSH20 0xFFFFFFFFFFFFFFFFFFFFFFFFFFFFFFFFFFFFFFFF AND PUSH20 0xFFFFFFFFFFFFFFFFFFFFFFFFFFFFFFFFFFFFFFFF AND SUB PUSH2 0x10AF JUMPI PUSH1 0x1 SWAP3 POP DUP1 SWAP2 POP PUSH2 0x10BC JUMP JUMPDEST DUP1 DUP1 PUSH1 0x1 ADD SWAP2 POP POP PUSH2 0x1024 JUMP JUMPDEST POP DUP2 PUSH2 0x10F4 JUMPI PUSH1 0x40 MLOAD PUSH32 0x586D335700000000000000000000000000000000000000000000000000000000 DUP2 MSTORE PUSH1 0x4 ADD PUSH1 0x40 MLOAD DUP1 SWAP2 SUB SWAP1 REVERT JUMPDEST PUSH1 0x1 DUP4 PUSH1 0x5 ADD PUSH0 CALLER PUSH20 0xFFFFFFFFFFFFFFFFFFFFFFFFFFFFFFFFFFFFFFFF AND PUSH20 0xFFFFFFFFFFFFFFFFFFFFFFFFFFFFFFFFFFFFFFFF AND DUP2 MSTORE PUSH1 0x20 ADD SWAP1 DUP2 MSTORE PUSH1 0x20 ADD PUSH0 KECCAK256 PUSH0 PUSH2 0x100 EXP DUP2 SLOAD DUP2 PUSH1 0xFF MUL NOT AND SWAP1 DUP4 ISZERO ISZERO MUL OR SWAP1 SSTORE POP DUP3 PUSH1 0x6 ADD PUSH0 DUP2 SLOAD DUP1 SWAP3 SWAP2 SWAP1 PUSH2 0x115F SWAP1 PUSH2 0x3AD0 JUMP JUMPDEST SWAP2 SWAP1 POP SSTORE POP PUSH0 DUP4 PUSH1 0x3 ADD DUP3 DUP2 SLOAD DUP2 LT PUSH2 0x117B JUMPI PUSH2 0x117A PUSH2 0x3A76 JUMP JUMPDEST JUMPDEST SWAP1 PUSH0 MSTORE PUSH1 0x20 PUSH0 KECCAK256 ADD SLOAD SWAP1 POP PUSH0 CALLER PUSH20 0xFFFFFFFFFFFFFFFFFFFFFFFFFFFFFFFFFFFFFFFF AND DUP3 PUSH1 0x40 MLOAD PUSH2 0x11AB SWAP1 PUSH2 0x3B44 JUMP JUMPDEST PUSH0 PUSH1 0x40 MLOAD DUP1 DUP4 SUB DUP2 DUP6 DUP8 GAS CALL SWAP3 POP POP POP RETURNDATASIZE DUP1 PUSH0 DUP2 EQ PUSH2 0x11E5 JUMPI PUSH1 0x40 MLOAD SWAP2 POP PUSH1 0x1F NOT PUSH1 0x3F RETURNDATASIZE ADD AND DUP3 ADD PUSH1 0x40 MSTORE RETURNDATASIZE DUP3 MSTORE RETURNDATASIZE PUSH0 PUSH1 0x20 DUP5 ADD RETURNDATACOPY PUSH2 0x11EA JUMP JUMPDEST PUSH1 0x60 SWAP2 POP JUMPDEST POP POP SWAP1 POP DUP1 PUSH2 0x1225 JUMPI PUSH1 0x40 MLOAD PUSH32 0x90B8EC1800000000000000000000000000000000000000000000000000000000 DUP2 MSTORE PUSH1 0x4 ADD PUSH1 0x40 MLOAD DUP1 SWAP2 SUB SWAP1 REVERT JUMPDEST PUSH1 0x4 PUSH0 DUP2 SLOAD DUP1 SWAP3 SWAP2 SWAP1 PUSH2 0x1237 SWAP1 PUSH2 0x3AD0 JUMP JUMPDEST SWAP2 SWAP1 POP SSTORE POP PUSH1 0x40 MLOAD DUP1 PUSH1 0xA0 ADD PUSH1 0x40 MSTORE DUP1 DUP7 PUSH0 ADD PUSH0 SWAP1 SLOAD SWAP1 PUSH2 0x100 EXP SWAP1 DIV PUSH20 0xFFFFFFFFFFFFFFFFFFFFFFFFFFFFFFFFFFFFFFFF AND PUSH20 0xFFFFFFFFFFFFFFFFFFFFFFFFFFFFFFFFFFFFFFFF AND DUP2 MSTORE PUSH1 0x20 ADD CALLER PUSH20 0xFFFFFFFFFFFFFFFFFFFFFFFFFFFFFFFFFFFFFFFF AND DUP2 MSTORE PUSH1 0x20 ADD DUP4 DUP2 MSTORE PUSH1 0x20 ADD TIMESTAMP DUP2 MSTORE PUSH1 0x20 ADD PUSH1 0x40 MLOAD DUP1 PUSH1 0x40 ADD PUSH1 0x40 MSTORE DUP1 PUSH1 0xB DUP2 MSTORE PUSH1 0x20 ADD PUSH32 0x526564456E76656C6F7065000000000000000000000000000000000000000000 DUP2 MSTORE POP DUP2 MSTORE POP PUSH1 0x6 PUSH0 PUSH1 0x4 SLOAD DUP2 MSTORE PUSH1 0x20 ADD SWAP1 DUP2 MSTORE PUSH1 0x20 ADD PUSH0 KECCAK256 PUSH0 DUP3 ADD MLOAD DUP2 PUSH0 ADD PUSH0 PUSH2 0x100 EXP DUP2 SLOAD DUP2 PUSH20 0xFFFFFFFFFFFFFFFFFFFFFFFFFFFFFFFFFFFFFFFF MUL NOT AND SWAP1 DUP4 PUSH20 0xFFFFFFFFFFFFFFFFFFFFFFFFFFFFFFFFFFFFFFFF AND MUL OR SWAP1 SSTORE POP PUSH1 0x20 DUP3 ADD MLOAD DUP2 PUSH1 0x1 ADD PUSH0 PUSH2 0x100 EXP DUP2 SLOAD DUP2 PUSH20 0xFFFFFFFFFFFFFFFFFFFFFFFFFFFFFFFFFFFFFFFF MUL NOT AND SWAP1 DUP4 PUSH20 0xFFFFFFFFFFFFFFFFFFFFFFFFFFFFFFFFFFFFFFFF AND MUL OR SWAP1 SSTORE POP PUSH1 0x40 DUP3 ADD MLOAD DUP2 PUSH1 0x2 ADD SSTORE PUSH1 0x60 DUP3 ADD MLOAD DUP2 PUSH1 0x3 ADD SSTORE PUSH1 0x80 DUP3 ADD MLOAD DUP2 PUSH1 0x4 ADD SWAP1 DUP2 PUSH2 0x13AC SWAP2 SWAP1 PUSH2 0x3CF8 JUMP JUMPDEST POP SWAP1 POP POP PUSH1 0x7 PUSH0 CALLER PUSH20 0xFFFFFFFFFFFFFFFFFFFFFFFFFFFFFFFFFFFFFFFF AND PUSH20 0xFFFFFFFFFFFFFFFFFFFFFFFFFFFFFFFFFFFFFFFF AND DUP2 MSTORE PUSH1 0x20 ADD SWAP1 DUP2 MSTORE PUSH1 0x20 ADD PUSH0 KECCAK256 PUSH1 0x4 SLOAD SWAP1 DUP1 PUSH1 0x1 DUP2 SLOAD ADD DUP1 DUP3 SSTORE DUP1 SWAP2 POP POP PUSH1 0x1 SWAP1 SUB SWAP1 PUSH0 MSTORE PUSH1 0x20 PUSH0 KECCAK256 ADD PUSH0 SWAP1 SWAP2 SWAP1 SWAP2 SWAP1 SWAP2 POP SSTORE CALLER PUSH20 0xFFFFFFFFFFFFFFFFFFFFFFFFFFFFFFFFFFFFFFFF AND DUP7 PUSH32 0x2E69161E44E23C36C5CA95C70F97EC5A226A3AEA538E67EBB74091B03AFEC6BB DUP5 PUSH1 0x40 MLOAD PUSH2 0x145A SWAP2 SWAP1 PUSH2 0x35B7 JUMP JUMPDEST PUSH1 0x40 MLOAD DUP1 SWAP2 SUB SWAP1 LOG3 POP POP POP POP POP PUSH2 0x146F PUSH2 0x2C21 JUMP JUMPDEST POP JUMP JUMPDEST PUSH32 0xA49807205CE4D355092EF5A8A18F56E8913CF4A201FBE287825B095693C21775 PUSH2 0x149C DUP2 PUSH2 0x293A JUMP JUMPDEST PUSH2 0x14A4 PUSH2 0x2C2A JUMP JUMPDEST POP JUMP JUMPDEST PUSH32 0xA49807205CE4D355092EF5A8A18F56E8913CF4A201FBE287825B095693C21775 PUSH2 0x14D1 DUP2 PUSH2 0x293A JUMP JUMPDEST PUSH2 0x14FB PUSH32 0x8C7E961E804AF7B2059D42008DE01CCC90FC88B8E6B947B02E12656DDB05CA3A DUP4 PUSH2 0x294E JUMP JUMPDEST POP POP POP JUMP JUMPDEST PUSH0 PUSH1 0x2 PUSH0 DUP5 DUP2 MSTORE PUSH1 0x20 ADD SWAP1 DUP2 MSTORE PUSH1 0x20 ADD PUSH0 KECCAK256 PUSH0 ADD PUSH0 DUP4 PUSH20 0xFFFFFFFFFFFFFFFFFFFFFFFFFFFFFFFFFFFFFFFF AND PUSH20 0xFFFFFFFFFFFFFFFFFFFFFFFFFFFFFFFFFFFFFFFF AND DUP2 MSTORE PUSH1 0x20 ADD SWAP1 DUP2 MSTORE PUSH1 0x20 ADD PUSH0 KECCAK256 PUSH0 SWAP1 SLOAD SWAP1 PUSH2 0x100 EXP SWAP1 DIV PUSH1 0xFF AND SWAP1 POP SWAP3 SWAP2 POP POP JUMP JUMPDEST PUSH2 0x156C PUSH2 0x2B8A JUMP JUMPDEST PUSH2 0x1574 PUSH2 0x2BD4 JUMP JUMPDEST PUSH0 DUP5 MLOAD EQ DUP1 PUSH2 0x1584 JUMPI POP PUSH1 0xA DUP5 MLOAD GT JUMPDEST ISZERO PUSH2 0x15BB JUMPI PUSH1 0x40 MLOAD PUSH32 0xD62487200000000000000000000000000000000000000000000000000000000 DUP2 MSTORE PUSH1 0x4 ADD PUSH1 0x40 MLOAD DUP1 SWAP2 SUB SWAP1 REVERT JUMPDEST DUP3 CALLVALUE EQ PUSH2 0x15F4 JUMPI PUSH1 0x40 MLOAD PUSH32 0x5945EA5600000000000000000000000000000000000000000000000000000000 DUP2 MSTORE PUSH1 0x4 ADD PUSH1 0x40 MLOAD DUP1 SWAP2 SUB SWAP1 REVERT JUMPDEST PUSH7 0x2386F26FC10000 DUP4 GT ISZERO PUSH2 0x1635 JUMPI PUSH1 0x40 MLOAD PUSH32 0x8EBD11E000000000000000000000000000000000000000000000000000000000 DUP2 MSTORE PUSH1 0x4 ADD PUSH1 0x40 MLOAD DUP1 SWAP2 SUB SWAP1 REVERT JUMPDEST PUSH1 0x3 PUSH0 DUP2 SLOAD DUP1 SWAP3 SWAP2 SWAP1 PUSH2 0x1647 SWAP1 PUSH2 0x3AD0 JUMP JUMPDEST SWAP2 SWAP1 POP SSTORE POP PUSH0 PUSH1 0x5 PUSH0 PUSH1 0x3 SLOAD DUP2 MSTORE PUSH1 0x20 ADD SWAP1 DUP2 MSTORE PUSH1 0x20 ADD PUSH0 KECCAK256 SWAP1 POP CALLER DUP2 PUSH0 ADD PUSH0 PUSH2 0x100 EXP DUP2 SLOAD DUP2 PUSH20 0xFFFFFFFFFFFFFFFFFFFFFFFFFFFFFFFFFFFFFFFF MUL NOT AND SWAP1 DUP4 PUSH20 0xFFFFFFFFFFFFFFFFFFFFFFFFFFFFFFFFFFFFFFFF AND MUL OR SWAP1 SSTORE POP DUP5 DUP2 PUSH1 0x1 ADD SWAP1 DUP1 MLOAD SWAP1 PUSH1 0x20 ADD SWAP1 PUSH2 0x16BB SWAP3 SWAP2 SWAP1 PUSH2 0x2F13 JUMP JUMPDEST POP DUP4 DUP2 PUSH1 0x2 ADD DUP2 SWAP1 SSTORE POP DUP3 DUP2 PUSH1 0x4 ADD PUSH0 PUSH2 0x100 EXP DUP2 SLOAD DUP2 PUSH1 0xFF MUL NOT AND SWAP1 DUP4 ISZERO ISZERO MUL OR SWAP1 SSTORE POP PUSH0 DUP2 PUSH1 0x6 ADD DUP2 SWAP1 SSTORE POP TIMESTAMP DUP2 PUSH1 0x7 ADD DUP2 SWAP1 SSTORE POP DUP2 DUP2 PUSH1 0x8 ADD SWAP1 DUP2 PUSH2 0x1703 SWAP2 SWAP1 PUSH2 0x3CF8 JUMP JUMPDEST POP PUSH1 0x1 DUP2 PUSH1 0x9 ADD PUSH0 PUSH2 0x100 EXP DUP2 SLOAD DUP2 PUSH1 0xFF MUL NOT AND SWAP1 DUP4 ISZERO ISZERO MUL OR SWAP1 SSTORE POP PUSH0 DUP6 MLOAD PUSH8 0xFFFFFFFFFFFFFFFF DUP2 GT ISZERO PUSH2 0x173C JUMPI PUSH2 0x173B PUSH2 0x363D JUMP JUMPDEST JUMPDEST PUSH1 0x40 MLOAD SWAP1 DUP1 DUP3 MSTORE DUP1 PUSH1 0x20 MUL PUSH1 0x20 ADD DUP3 ADD PUSH1 0x40 MSTORE DUP1 ISZERO PUSH2 0x176A JUMPI DUP2 PUSH1 0x20 ADD PUSH1 0x20 DUP3 MUL DUP1 CALLDATASIZE DUP4 CALLDATACOPY DUP1 DUP3 ADD SWAP2 POP POP SWAP1 POP JUMPDEST POP SWAP1 POP DUP4 ISZERO PUSH2 0x1785 JUMPI PUSH2 0x177E DUP6 DUP8 MLOAD PUSH2 0x2C8B JUMP JUMPDEST SWAP1 POP PUSH2 0x181D JUMP JUMPDEST PUSH0 DUP7 MLOAD DUP7 PUSH2 0x1793 SWAP2 SWAP1 PUSH2 0x3DF4 JUMP JUMPDEST SWAP1 POP PUSH0 DUP8 MLOAD DUP8 PUSH2 0x17A3 SWAP2 SWAP1 PUSH2 0x3E24 JUMP JUMPDEST SWAP1 POP PUSH0 PUSH0 SWAP1 POP JUMPDEST DUP9 MLOAD DUP2 LT ISZERO PUSH2 0x1819 JUMPI DUP3 DUP5 DUP3 DUP2 MLOAD DUP2 LT PUSH2 0x17C7 JUMPI PUSH2 0x17C6 PUSH2 0x3A76 JUMP JUMPDEST JUMPDEST PUSH1 0x20 MUL PUSH1 0x20 ADD ADD DUP2 DUP2 MSTORE POP POP DUP2 DUP2 LT ISZERO PUSH2 0x180C JUMPI PUSH1 0x1 DUP5 DUP3 DUP2 MLOAD DUP2 LT PUSH2 0x17F0 JUMPI PUSH2 0x17EF PUSH2 0x3A76 JUMP JUMPDEST JUMPDEST PUSH1 0x20 MUL PUSH1 0x20 ADD ADD DUP2 DUP2 MLOAD PUSH2 0x1804 SWAP2 SWAP1 PUSH2 0x3E54 JUMP JUMPDEST SWAP2 POP DUP2 DUP2 MSTORE POP POP JUMPDEST DUP1 DUP1 PUSH1 0x1 ADD SWAP2 POP POP PUSH2 0x17AA JUMP JUMPDEST POP POP POP JUMPDEST DUP1 DUP3 PUSH1 0x3 ADD SWAP1 DUP1 MLOAD SWAP1 PUSH1 0x20 ADD SWAP1 PUSH2 0x1835 SWAP3 SWAP2 SWAP1 PUSH2 0x2F9A JUMP JUMPDEST POP PUSH1 0x8 PUSH0 CALLER PUSH20 0xFFFFFFFFFFFFFFFFFFFFFFFFFFFFFFFFFFFFFFFF AND PUSH20 0xFFFFFFFFFFFFFFFFFFFFFFFFFFFFFFFFFFFFFFFF AND DUP2 MSTORE PUSH1 0x20 ADD SWAP1 DUP2 MSTORE PUSH1 0x20 ADD PUSH0 KECCAK256 PUSH1 0x3 SLOAD SWAP1 DUP1 PUSH1 0x1 DUP2 SLOAD ADD DUP1 DUP3 SSTORE DUP1 SWAP2 POP POP PUSH1 0x1 SWAP1 SUB SWAP1 PUSH0 MSTORE PUSH1 0x20 PUSH0 KECCAK256 ADD PUSH0 SWAP1 SWAP2 SWAP1 SWAP2 SWAP1 SWAP2 POP SSTORE PUSH1 0xA PUSH0 CALLER PUSH20 0xFFFFFFFFFFFFFFFFFFFFFFFFFFFFFFFFFFFFFFFF AND PUSH20 0xFFFFFFFFFFFFFFFFFFFFFFFFFFFFFFFFFFFFFFFF AND DUP2 MSTORE PUSH1 0x20 ADD SWAP1 DUP2 MSTORE PUSH1 0x20 ADD PUSH0 KECCAK256 PUSH0 DUP2 SLOAD DUP1 SWAP3 SWAP2 SWAP1 PUSH2 0x18E6 SWAP1 PUSH2 0x3AD0 JUMP JUMPDEST SWAP2 SWAP1 POP SSTORE POP PUSH1 0x4 PUSH0 DUP2 SLOAD DUP1 SWAP3 SWAP2 SWAP1 PUSH2 0x18FD SWAP1 PUSH2 0x3AD0 JUMP JUMPDEST SWAP2 SWAP1 POP SSTORE POP PUSH1 0x40 MLOAD DUP1 PUSH1 0xA0 ADD PUSH1 0x40 MSTORE DUP1 CALLER PUSH20 0xFFFFFFFFFFFFFFFFFFFFFFFFFFFFFFFFFFFFFFFF AND DUP2 MSTORE PUSH1 0x20 ADD PUSH0 PUSH20 0xFFFFFFFFFFFFFFFFFFFFFFFFFFFFFFFFFFFFFFFF AND DUP2 MSTORE PUSH1 0x20 ADD DUP7 DUP2 MSTORE PUSH1 0x20 ADD TIMESTAMP DUP2 MSTORE PUSH1 0x20 ADD PUSH1 0x40 MLOAD DUP1 PUSH1 0x40 ADD PUSH1 0x40 MSTORE DUP1 PUSH1 0xB DUP2 MSTORE PUSH1 0x20 ADD PUSH32 0x526564456E76656C6F7065000000000000000000000000000000000000000000 DUP2 MSTORE POP DUP2 MSTORE POP PUSH1 0x6 PUSH0 PUSH1 0x4 SLOAD DUP2 MSTORE PUSH1 0x20 ADD SWAP1 DUP2 MSTORE PUSH1 0x20 ADD PUSH0 KECCAK256 PUSH0 DUP3 ADD MLOAD DUP2 PUSH0 ADD PUSH0 PUSH2 0x100 EXP DUP2 SLOAD DUP2 PUSH20 0xFFFFFFFFFFFFFFFFFFFFFFFFFFFFFFFFFFFFFFFF MUL NOT AND SWAP1 DUP4 PUSH20 0xFFFFFFFFFFFFFFFFFFFFFFFFFFFFFFFFFFFFFFFF AND MUL OR SWAP1 SSTORE POP PUSH1 0x20 DUP3 ADD MLOAD DUP2 PUSH1 0x1 ADD PUSH0 PUSH2 0x100 EXP DUP2 SLOAD DUP2 PUSH20 0xFFFFFFFFFFFFFFFFFFFFFFFFFFFFFFFFFFFFFFFF MUL NOT AND SWAP1 DUP4 PUSH20 0xFFFFFFFFFFFFFFFFFFFFFFFFFFFFFFFFFFFFFFFF AND MUL OR SWAP1 SSTORE POP PUSH1 0x40 DUP3 ADD MLOAD DUP2 PUSH1 0x2 ADD SSTORE PUSH1 0x60 DUP3 ADD MLOAD DUP2 PUSH1 0x3 ADD SSTORE PUSH1 0x80 DUP3 ADD MLOAD DUP2 PUSH1 0x4 ADD SWAP1 DUP2 PUSH2 0x1A50 SWAP2 SWAP1 PUSH2 0x3CF8 JUMP JUMPDEST POP SWAP1 POP POP PUSH1 0x7 PUSH0 CALLER PUSH20 0xFFFFFFFFFFFFFFFFFFFFFFFFFFFFFFFFFFFFFFFF AND PUSH20 0xFFFFFFFFFFFFFFFFFFFFFFFFFFFFFFFFFFFFFFFF AND DUP2 MSTORE PUSH1 0x20 ADD SWAP1 DUP2 MSTORE PUSH1 0x20 ADD PUSH0 KECCAK256 PUSH1 0x4 SLOAD SWAP1 DUP1 PUSH1 0x1 DUP2 SLOAD ADD DUP1 DUP3 SSTORE DUP1 SWAP2 POP POP PUSH1 0x1 SWAP1 SUB SWAP1 PUSH0 MSTORE PUSH1 0x20 PUSH0 KECCAK256 ADD PUSH0 SWAP1 SWAP2 SWAP1 SWAP2 SWAP1 SWAP2 POP SSTORE PUSH2 0x1AE1 PUSH32 0x8C7E961E804AF7B2059D42008DE01CCC90FC88B8E6B947B02E12656DDB05CA3A ADDRESS PUSH2 0x1500 JUMP JUMPDEST POP CALLER PUSH20 0xFFFFFFFFFFFFFFFFFFFFFFFFFFFFFFFFFFFFFFFF AND PUSH1 0x3 SLOAD PUSH32 0xD2E5B8DA197435421E0816C9577DB4CD672FDC52BAB0D98ED1B88FBD02DDA466 DUP8 DUP10 MLOAD PUSH1 0x40 MLOAD PUSH2 0x1B2E SWAP3 SWAP2 SWAP1 PUSH2 0x3E87 JUMP JUMPDEST PUSH1 0x40 MLOAD DUP1 SWAP2 SUB SWAP1 LOG3 POP POP PUSH2 0x1B40 PUSH2 0x2C21 JUMP JUMPDEST POP POP POP POP JUMP JUMPDEST PUSH1 0x6 PUSH1 0x20 MSTORE DUP1 PUSH0 MSTORE PUSH1 0x40 PUSH0 KECCAK256 PUSH0 SWAP2 POP SWAP1 POP DUP1 PUSH0 ADD PUSH0 SWAP1 SLOAD SWAP1 PUSH2 0x100 EXP SWAP1 DIV PUSH20 0xFFFFFFFFFFFFFFFFFFFFFFFFFFFFFFFFFFFFFFFF AND SWAP1 DUP1 PUSH1 0x1 ADD PUSH0 SWAP1 SLOAD SWAP1 PUSH2 0x100 EXP SWAP1 DIV PUSH20 0xFFFFFFFFFFFFFFFFFFFFFFFFFFFFFFFFFFFFFFFF AND SWAP1 DUP1 PUSH1 0x2 ADD SLOAD SWAP1 DUP1 PUSH1 0x3 ADD SLOAD SWAP1 DUP1 PUSH1 0x4 ADD DUP1 SLOAD PUSH2 0x1BBB SWAP1 PUSH2 0x3A46 JUMP JUMPDEST DUP1 PUSH1 0x1F ADD PUSH1 0x20 DUP1 SWAP2 DIV MUL PUSH1 0x20 ADD PUSH1 0x40 MLOAD SWAP1 DUP2 ADD PUSH1 0x40 MSTORE DUP1 SWAP3 SWAP2 SWAP1 DUP2 DUP2 MSTORE PUSH1 0x20 ADD DUP3 DUP1 SLOAD PUSH2 0x1BE7 SWAP1 PUSH2 0x3A46 JUMP JUMPDEST DUP1 ISZERO PUSH2 0x1C32 JUMPI DUP1 PUSH1 0x1F LT PUSH2 0x1C09 JUMPI PUSH2 0x100 DUP1 DUP4 SLOAD DIV MUL DUP4 MSTORE SWAP2 PUSH1 0x20 ADD SWAP2 PUSH2 0x1C32 JUMP JUMPDEST DUP3 ADD SWAP2 SWAP1 PUSH0 MSTORE PUSH1 0x20 PUSH0 KECCAK256 SWAP1 JUMPDEST DUP2 SLOAD DUP2 MSTORE SWAP1 PUSH1 0x1 ADD SWAP1 PUSH1 0x20 ADD DUP1 DUP4 GT PUSH2 0x1C15 JUMPI DUP3 SWAP1 SUB PUSH1 0x1F AND DUP3 ADD SWAP2 JUMPDEST POP POP POP POP POP SWAP1 POP DUP6 JUMP JUMPDEST PUSH2 0x1C44 PUSH2 0x2B8A JUMP JUMPDEST PUSH2 0x1C4C PUSH2 0x2BD4 JUMP JUMPDEST PUSH6 0x5AF3107A4000 CALLVALUE LT ISZERO PUSH2 0x1C8C JUMPI PUSH1 0x40 MLOAD PUSH32 0x5945EA5600000000000000000000000000000000000000000000000000000000 DUP2 MSTORE PUSH1 0x4 ADD PUSH1 0x40 MLOAD DUP1 SWAP2 SUB SWAP1 REVERT JUMPDEST PUSH0 PUSH20 0xFFFFFFFFFFFFFFFFFFFFFFFFFFFFFFFFFFFFFFFF AND DUP2 PUSH20 0xFFFFFFFFFFFFFFFFFFFFFFFFFFFFFFFFFFFFFFFF AND EQ DUP1 PUSH2 0x1CF1 JUMPI POP CALLER PUSH20 0xFFFFFFFFFFFFFFFFFFFFFFFFFFFFFFFFFFFFFFFF AND DUP2 PUSH20 0xFFFFFFFFFFFFFFFFFFFFFFFFFFFFFFFFFFFFFFFF AND EQ JUMPDEST ISZERO PUSH2 0x1D28 JUMPI PUSH1 0x40 MLOAD PUSH32 0x9C8D2CD200000000000000000000000000000000000000000000000000000000 DUP2 MSTORE PUSH1 0x4 ADD PUSH1 0x40 MLOAD DUP1 SWAP2 SUB SWAP1 REVERT JUMPDEST PUSH1 0x4 PUSH0 DUP2 SLOAD DUP1 SWAP3 SWAP2 SWAP1 PUSH2 0x1D3A SWAP1 PUSH2 0x3AD0 JUMP JUMPDEST SWAP2 SWAP1 POP SSTORE POP PUSH1 0x40 MLOAD DUP1 PUSH1 0xA0 ADD PUSH1 0x40 MSTORE DUP1 CALLER PUSH20 0xFFFFFFFFFFFFFFFFFFFFFFFFFFFFFFFFFFFFFFFF AND DUP2 MSTORE PUSH1 0x20 ADD DUP3 PUSH20 0xFFFFFFFFFFFFFFFFFFFFFFFFFFFFFFFFFFFFFFFF AND DUP2 MSTORE PUSH1 0x20 ADD CALLVALUE DUP2 MSTORE PUSH1 0x20 ADD TIMESTAMP DUP2 MSTORE PUSH1 0x20 ADD PUSH1 0x40 MLOAD DUP1 PUSH1 0x40 ADD PUSH1 0x40 MSTORE DUP1 PUSH1 0x3 DUP2 MSTORE PUSH1 0x20 ADD PUSH32 0x5032500000000000000000000000000000000000000000000000000000000000 DUP2 MSTORE POP DUP2 MSTORE POP PUSH1 0x6 PUSH0 PUSH1 0x4 SLOAD DUP2 MSTORE PUSH1 0x20 ADD SWAP1 DUP2 MSTORE PUSH1 0x20 ADD PUSH0 KECCAK256 PUSH0 DUP3 ADD MLOAD DUP2 PUSH0 ADD PUSH0 PUSH2 0x100 EXP DUP2 SLOAD DUP2 PUSH20 0xFFFFFFFFFFFFFFFFFFFFFFFFFFFFFFFFFFFFFFFF MUL NOT AND SWAP1 DUP4 PUSH20 0xFFFFFFFFFFFFFFFFFFFFFFFFFFFFFFFFFFFFFFFF AND MUL OR SWAP1 SSTORE POP PUSH1 0x20 DUP3 ADD MLOAD DUP2 PUSH1 0x1 ADD PUSH0 PUSH2 0x100 EXP DUP2 SLOAD DUP2 PUSH20 0xFFFFFFFFFFFFFFFFFFFFFFFFFFFFFFFFFFFFFFFF MUL NOT AND SWAP1 DUP4 PUSH20 0xFFFFFFFFFFFFFFFFFFFFFFFFFFFFFFFFFFFFFFFF AND MUL OR SWAP1 SSTORE POP PUSH1 0x40 DUP3 ADD MLOAD DUP2 PUSH1 0x2 ADD SSTORE PUSH1 0x60 DUP3 ADD MLOAD DUP2 PUSH1 0x3 ADD SSTORE PUSH1 0x80 DUP3 ADD MLOAD DUP2 PUSH1 0x4 ADD SWAP1 DUP2 PUSH2 0x1E8D SWAP2 SWAP1 PUSH2 0x3CF8 JUMP JUMPDEST POP SWAP1 POP POP PUSH1 0x7 PUSH0 CALLER PUSH20 0xFFFFFFFFFFFFFFFFFFFFFFFFFFFFFFFFFFFFFFFF AND PUSH20 0xFFFFFFFFFFFFFFFFFFFFFFFFFFFFFFFFFFFFFFFF AND DUP2 MSTORE PUSH1 0x20 ADD SWAP1 DUP2 MSTORE PUSH1 0x20 ADD PUSH0 KECCAK256 PUSH1 0x4 SLOAD SWAP1 DUP1 PUSH1 0x1 DUP2 SLOAD ADD DUP1 DUP3 SSTORE DUP1 SWAP2 POP POP PUSH1 0x1 SWAP1 SUB SWAP1 PUSH0 MSTORE PUSH1 0x20 PUSH0 KECCAK256 ADD PUSH0 SWAP1 SWAP2 SWAP1 SWAP2 SWAP1 SWAP2 POP SSTORE PUSH1 0x7 PUSH0 DUP3 PUSH20 0xFFFFFFFFFFFFFFFFFFFFFFFFFFFFFFFFFFFFFFFF AND PUSH20 0xFFFFFFFFFFFFFFFFFFFFFFFFFFFFFFFFFFFFFFFF AND DUP2 MSTORE PUSH1 0x20 ADD SWAP1 DUP2 MSTORE PUSH1 0x20 ADD PUSH0 KECCAK256 PUSH1 0x4 SLOAD SWAP1 DUP1 PUSH1 0x1 DUP2 SLOAD ADD DUP1 DUP3 SSTORE DUP1 SWAP2 POP POP PUSH1 0x1 SWAP1 SUB SWAP1 PUSH0 MSTORE PUSH1 0x20 PUSH0 KECCAK256 ADD PUSH0 SWAP1 SWAP2 SWAP1 SWAP2 SWAP1 SWAP2 POP SSTORE PUSH1 0x9 PUSH0 CALLER PUSH20 0xFFFFFFFFFFFFFFFFFFFFFFFFFFFFFFFFFFFFFFFF AND PUSH20 0xFFFFFFFFFFFFFFFFFFFFFFFFFFFFFFFFFFFFFFFF AND DUP2 MSTORE PUSH1 0x20 ADD SWAP1 DUP2 MSTORE PUSH1 0x20 ADD PUSH0 KECCAK256 PUSH0 DUP2 SLOAD DUP1 SWAP3 SWAP2 SWAP1 PUSH2 0x1FA4 SWAP1 PUSH2 0x3AD0 JUMP JUMPDEST SWAP2 SWAP1 POP SSTORE POP PUSH0 DUP2 PUSH20 0xFFFFFFFFFFFFFFFFFFFFFFFFFFFFFFFFFFFFFFFF AND CALLVALUE PUSH1 0x40 MLOAD PUSH2 0x1FCE SWAP1 PUSH2 0x3B44 JUMP JUMPDEST PUSH0 PUSH1 0x40 MLOAD DUP1 DUP4 SUB DUP2 DUP6 DUP8 GAS CALL SWAP3 POP POP POP RETURNDATASIZE DUP1 PUSH0 DUP2 EQ PUSH2 0x2008 JUMPI PUSH1 0x40 MLOAD SWAP2 POP PUSH1 0x1F NOT PUSH1 0x3F RETURNDATASIZE ADD AND DUP3 ADD PUSH1 0x40 MSTORE RETURNDATASIZE DUP3 MSTORE RETURNDATASIZE PUSH0 PUSH1 0x20 DUP5 ADD RETURNDATACOPY PUSH2 0x200D JUMP JUMPDEST PUSH1 0x60 SWAP2 POP JUMPDEST POP POP SWAP1 POP DUP1 PUSH2 0x2048 JUMPI PUSH1 0x40 MLOAD PUSH32 0x90B8EC1800000000000000000000000000000000000000000000000000000000 DUP2 MSTORE PUSH1 0x4 ADD PUSH1 0x40 MLOAD DUP1 SWAP2 SUB SWAP1 REVERT JUMPDEST PUSH2 0x2072 PUSH32 0x8C7E961E804AF7B2059D42008DE01CCC90FC88B8E6B947B02E12656DDB05CA3A ADDRESS PUSH2 0x1500 JUMP JUMPDEST DUP1 ISZERO PUSH2 0x20BB JUMPI POP PUSH1 0x1 PUSH1 0x9 PUSH0 CALLER PUSH20 0xFFFFFFFFFFFFFFFFFFFFFFFFFFFFFFFFFFFFFFFF AND PUSH20 0xFFFFFFFFFFFFFFFFFFFFFFFFFFFFFFFFFFFFFFFF AND DUP2 MSTORE PUSH1 0x20 ADD SWAP1 DUP2 MSTORE PUSH1 0x20 ADD PUSH0 KECCAK256 SLOAD EQ JUMPDEST POP DUP2 PUSH20 0xFFFFFFFFFFFFFFFFFFFFFFFFFFFFFFFFFFFFFFFF AND CALLER PUSH20 0xFFFFFFFFFFFFFFFFFFFFFFFFFFFFFFFFFFFFFFFF AND PUSH32 0x6F998C35AAF054FD50D0FE63BF96B58876991628A4E36494637BB027E8A2E230 CALLVALUE PUSH1 0x40 MLOAD PUSH2 0x2119 SWAP2 SWAP1 PUSH2 0x35B7 JUMP JUMPDEST PUSH1 0x40 MLOAD DUP1 SWAP2 SUB SWAP1 LOG3 POP PUSH2 0x212A PUSH2 0x2C21 JUMP JUMPDEST POP JUMP JUMPDEST PUSH0 PUSH0 SHL DUP2 JUMP JUMPDEST PUSH1 0xA DUP2 JUMP JUMPDEST PUSH0 PUSH1 0x9 PUSH0 DUP4 PUSH20 0xFFFFFFFFFFFFFFFFFFFFFFFFFFFFFFFFFFFFFFFF AND PUSH20 0xFFFFFFFFFFFFFFFFFFFFFFFFFFFFFFFFFFFFFFFF AND DUP2 MSTORE PUSH1 0x20 ADD SWAP1 DUP2 MSTORE PUSH1 0x20 ADD PUSH0 KECCAK256 SLOAD SWAP1 POP SWAP2 SWAP1 POP JUMP JUMPDEST PUSH1 0x8 PUSH1 0x20 MSTORE DUP2 PUSH0 MSTORE PUSH1 0x40 PUSH0 KECCAK256 DUP2 DUP2 SLOAD DUP2 LT PUSH2 0x2197 JUMPI PUSH0 DUP1 REVERT JUMPDEST SWAP1 PUSH0 MSTORE PUSH1 0x20 PUSH0 KECCAK256 ADD PUSH0 SWAP2 POP SWAP2 POP POP SLOAD DUP2 JUMP JUMPDEST PUSH1 0x7 PUSH1 0x20 MSTORE DUP2 PUSH0 MSTORE PUSH1 0x40 PUSH0 KECCAK256 DUP2 DUP2 SLOAD DUP2 LT PUSH2 0x21C2 JUMPI PUSH0 DUP1 REVERT JUMPDEST SWAP1 PUSH0 MSTORE PUSH1 0x20 PUSH0 KECCAK256 ADD PUSH0 SWAP2 POP SWAP2 POP POP SLOAD DUP2 JUMP JUMPDEST PUSH1 0x4 SLOAD DUP2 JUMP JUMPDEST PUSH32 0x8C7E961E804AF7B2059D42008DE01CCC90FC88B8E6B947B02E12656DDB05CA3A DUP2 JUMP JUMPDEST PUSH1 0x60 PUSH1 0x7 PUSH0 DUP4 PUSH20 0xFFFFFFFFFFFFFFFFFFFFFFFFFFFFFFFFFFFFFFFF AND PUSH20 0xFFFFFFFFFFFFFFFFFFFFFFFFFFFFFFFFFFFFFFFF AND DUP2 MSTORE PUSH1 0x20 ADD SWAP1 DUP2 MSTORE PUSH1 0x20 ADD PUSH0 KECCAK256 DUP1 SLOAD DUP1 PUSH1 0x20 MUL PUSH1 0x20 ADD PUSH1 0x40 MLOAD SWAP1 DUP2 ADD PUSH1 0x40 MSTORE DUP1 SWAP3 SWAP2 SWAP1 DUP2 DUP2 MSTORE PUSH1 0x20 ADD DUP3 DUP1 SLOAD DUP1 ISZERO PUSH2 0x2285 JUMPI PUSH1 0x20 MUL DUP3 ADD SWAP2 SWAP1 PUSH0 MSTORE PUSH1 0x20 PUSH0 KECCAK256 SWAP1 JUMPDEST DUP2 SLOAD DUP2 MSTORE PUSH1 0x20 ADD SWAP1 PUSH1 0x1 ADD SWAP1 DUP1 DUP4 GT PUSH2 0x2271 JUMPI JUMPDEST POP POP POP POP POP SWAP1 POP SWAP2 SWAP1 POP JUMP JUMPDEST PUSH1 0x60 PUSH1 0x8 PUSH0 DUP4 PUSH20 0xFFFFFFFFFFFFFFFFFFFFFFFFFFFFFFFFFFFFFFFF AND PUSH20 0xFFFFFFFFFFFFFFFFFFFFFFFFFFFFFFFFFFFFFFFF AND DUP2 MSTORE PUSH1 0x20 ADD SWAP1 DUP2 MSTORE PUSH1 0x20 ADD PUSH0 KECCAK256 DUP1 SLOAD DUP1 PUSH1 0x20 MUL PUSH1 0x20 ADD PUSH1 0x40 MLOAD SWAP1 DUP2 ADD PUSH1 0x40 MSTORE DUP1 SWAP3 SWAP2 SWAP1 DUP2 DUP2 MSTORE PUSH1 0x20 ADD DUP3 DUP1 SLOAD DUP1 ISZERO PUSH2 0x2318 JUMPI PUSH1 0x20 MUL DUP3 ADD SWAP2 SWAP1 PUSH0 MSTORE PUSH1 0x20 PUSH0 KECCAK256 SWAP1 JUMPDEST DUP2 SLOAD DUP2 MSTORE PUSH1 0x20 ADD SWAP1 PUSH1 0x1 ADD SWAP1 DUP1 DUP4 GT PUSH2 0x2304 JUMPI JUMPDEST POP POP POP POP POP SWAP1 POP SWAP2 SWAP1 POP JUMP JUMPDEST PUSH2 0x232D DUP3 PUSH2 0xCEB JUMP JUMPDEST PUSH2 0x2336 DUP2 PUSH2 0x293A JUMP JUMPDEST PUSH2 0x2340 DUP4 DUP4 PUSH2 0x2A3F JUMP JUMPDEST POP POP POP POP JUMP JUMPDEST PUSH1 0x5 PUSH1 0x20 MSTORE DUP1 PUSH0 MSTORE PUSH1 0x40 PUSH0 KECCAK256 PUSH0 SWAP2 POP SWAP1 POP DUP1 PUSH0 ADD PUSH0 SWAP1 SLOAD SWAP1 PUSH2 0x100 EXP SWAP1 DIV PUSH20 0xFFFFFFFFFFFFFFFFFFFFFFFFFFFFFFFFFFFFFFFF AND SWAP1 DUP1 PUSH1 0x2 ADD SLOAD SWAP1 DUP1 PUSH1 0x4 ADD PUSH0 SWAP1 SLOAD SWAP1 PUSH2 0x100 EXP SWAP1 DIV PUSH1 0xFF AND SWAP1 DUP1 PUSH1 0x6 ADD SLOAD SWAP1 DUP1 PUSH1 0x7 ADD SLOAD SWAP1 DUP1 PUSH1 0x8 ADD DUP1 SLOAD PUSH2 0x23AE SWAP1 PUSH2 0x3A46 JUMP JUMPDEST DUP1 PUSH1 0x1F ADD PUSH1 0x20 DUP1 SWAP2 DIV MUL PUSH1 0x20 ADD PUSH1 0x40 MLOAD SWAP1 DUP2 ADD PUSH1 0x40 MSTORE DUP1 SWAP3 SWAP2 SWAP1 DUP2 DUP2 MSTORE PUSH1 0x20 ADD DUP3 DUP1 SLOAD PUSH2 0x23DA SWAP1 PUSH2 0x3A46 JUMP JUMPDEST DUP1 ISZERO PUSH2 0x2425 JUMPI DUP1 PUSH1 0x1F LT PUSH2 0x23FC JUMPI PUSH2 0x100 DUP1 DUP4 SLOAD DIV MUL DUP4 MSTORE SWAP2 PUSH1 0x20 ADD SWAP2 PUSH2 0x2425 JUMP JUMPDEST DUP3 ADD SWAP2 SWAP1 PUSH0 MSTORE PUSH1 0x20 PUSH0 KECCAK256 SWAP1 JUMPDEST DUP2 SLOAD DUP2 MSTORE SWAP1 PUSH1 0x1 ADD SWAP1 PUSH1 0x20 ADD DUP1 DUP4 GT PUSH2 0x2408 JUMPI DUP3 SWAP1 SUB PUSH1 0x1F AND DUP3 ADD SWAP2 JUMPDEST POP POP POP POP POP SWAP1 DUP1 PUSH1 0x9 ADD PUSH0 SWAP1 SLOAD SWAP1 PUSH2 0x100 EXP SWAP1 DIV PUSH1 0xFF AND SWAP1 POP DUP8 JUMP JUMPDEST PUSH32 0xA49807205CE4D355092EF5A8A18F56E8913CF4A201FBE287825B095693C21775 PUSH2 0x246B DUP2 PUSH2 0x293A JUMP JUMPDEST POP POP JUMP JUMPDEST PUSH32 0xA49807205CE4D355092EF5A8A18F56E8913CF4A201FBE287825B095693C21775 PUSH2 0x2499 DUP2 PUSH2 0x293A JUMP JUMPDEST PUSH0 SELFBALANCE SWAP1 POP PUSH0 CALLER PUSH20 0xFFFFFFFFFFFFFFFFFFFFFFFFFFFFFFFFFFFFFFFF AND DUP3 PUSH1 0x40 MLOAD PUSH2 0x24C2 SWAP1 PUSH2 0x3B44 JUMP JUMPDEST PUSH0 PUSH1 0x40 MLOAD DUP1 DUP4 SUB DUP2 DUP6 DUP8 GAS CALL SWAP3 POP POP POP RETURNDATASIZE DUP1 PUSH0 DUP2 EQ PUSH2 0x24FC JUMPI PUSH1 0x40 MLOAD SWAP2 POP PUSH1 0x1F NOT PUSH1 0x3F RETURNDATASIZE ADD AND DUP3 ADD PUSH1 0x40 MSTORE RETURNDATASIZE DUP3 MSTORE RETURNDATASIZE PUSH0 PUSH1 0x20 DUP5 ADD RETURNDATACOPY PUSH2 0x2501 JUMP JUMPDEST PUSH1 0x60 SWAP2 POP JUMPDEST POP POP SWAP1 POP DUP1 PUSH2 0x2545 JUMPI PUSH1 0x40 MLOAD PUSH32 0x8C379A000000000000000000000000000000000000000000000000000000000 DUP2 MSTORE PUSH1 0x4 ADD PUSH2 0x253C SWAP1 PUSH2 0x3EF8 JUMP JUMPDEST PUSH1 0x40 MLOAD DUP1 SWAP2 SUB SWAP1 REVERT JUMPDEST POP POP POP JUMP JUMPDEST PUSH1 0x9 PUSH1 0x20 MSTORE DUP1 PUSH0 MSTORE PUSH1 0x40 PUSH0 KECCAK256 PUSH0 SWAP2 POP SWAP1 POP SLOAD DUP2 JUMP JUMPDEST PUSH7 0x2386F26FC10000 DUP2 JUMP JUMPDEST PUSH2 0x2572 PUSH2 0x2B8A JUMP JUMPDEST PUSH2 0x257A PUSH2 0x2BD4 JUMP JUMPDEST PUSH0 DUP2 EQ DUP1 PUSH2 0x2589 JUMPI POP PUSH1 0x3 SLOAD DUP2 GT JUMPDEST ISZERO PUSH2 0x25C0 JUMPI PUSH1 0x40 MLOAD PUSH32 0xB817E7DD00000000000000000000000000000000000000000000000000000000 DUP2 MSTORE PUSH1 0x4 ADD PUSH1 0x40 MLOAD DUP1 SWAP2 SUB SWAP1 REVERT JUMPDEST PUSH0 PUSH1 0x5 PUSH0 DUP4 DUP2 MSTORE PUSH1 0x20 ADD SWAP1 DUP2 MSTORE PUSH1 0x20 ADD PUSH0 KECCAK256 SWAP1 POP DUP1 PUSH0 ADD PUSH0 SWAP1 SLOAD SWAP1 PUSH2 0x100 EXP SWAP1 DIV PUSH20 0xFFFFFFFFFFFFFFFFFFFFFFFFFFFFFFFFFFFFFFFF AND PUSH20 0xFFFFFFFFFFFFFFFFFFFFFFFFFFFFFFFFFFFFFFFF AND CALLER PUSH20 0xFFFFFFFFFFFFFFFFFFFFFFFFFFFFFFFFFFFFFFFF AND EQ DUP1 PUSH2 0x2642 JUMPI POP PUSH3 0x93A80 DUP2 PUSH1 0x7 ADD SLOAD PUSH2 0x263E SWAP2 SWAP1 PUSH2 0x3E54 JUMP JUMPDEST TIMESTAMP LT ISZERO JUMPDEST PUSH2 0x2681 JUMPI PUSH1 0x40 MLOAD PUSH32 0x8C379A000000000000000000000000000000000000000000000000000000000 DUP2 MSTORE PUSH1 0x4 ADD PUSH2 0x2678 SWAP1 PUSH2 0x3F60 JUMP JUMPDEST PUSH1 0x40 MLOAD DUP1 SWAP2 SUB SWAP1 REVERT JUMPDEST DUP1 PUSH1 0x9 ADD PUSH0 SWAP1 SLOAD SWAP1 PUSH2 0x100 EXP SWAP1 DIV PUSH1 0xFF AND PUSH2 0x26C8 JUMPI PUSH1 0x40 MLOAD PUSH32 0x5D43425900000000000000000000000000000000000000000000000000000000 DUP2 MSTORE PUSH1 0x4 ADD PUSH1 0x40 MLOAD DUP1 SWAP2 SUB SWAP1 REVERT JUMPDEST PUSH0 DUP2 PUSH1 0x9 ADD PUSH0 PUSH2 0x100 EXP DUP2 SLOAD DUP2 PUSH1 0xFF MUL NOT AND SWAP1 DUP4 ISZERO ISZERO MUL OR SWAP1 SSTORE POP PUSH0 PUSH0 SWAP1 POP PUSH0 PUSH0 SWAP1 POP JUMPDEST DUP3 PUSH1 0x1 ADD DUP1 SLOAD SWAP1 POP DUP2 LT ISZERO PUSH2 0x27C2 JUMPI DUP3 PUSH1 0x5 ADD PUSH0 DUP5 PUSH1 0x1 ADD DUP4 DUP2 SLOAD DUP2 LT PUSH2 0x2716 JUMPI PUSH2 0x2715 PUSH2 0x3A76 JUMP JUMPDEST JUMPDEST SWAP1 PUSH0 MSTORE PUSH1 0x20 PUSH0 KECCAK256 ADD PUSH0 SWAP1 SLOAD SWAP1 PUSH2 0x100 EXP SWAP1 DIV PUSH20 0xFFFFFFFFFFFFFFFFFFFFFFFFFFFFFFFFFFFFFFFF AND PUSH20 0xFFFFFFFFFFFFFFFFFFFFFFFFFFFFFFFFFFFFFFFF AND PUSH20 0xFFFFFFFFFFFFFFFFFFFFFFFFFFFFFFFFFFFFFFFF AND DUP2 MSTORE PUSH1 0x20 ADD SWAP1 DUP2 MSTORE PUSH1 0x20 ADD PUSH0 KECCAK256 PUSH0 SWAP1 SLOAD SWAP1 PUSH2 0x100 EXP SWAP1 DIV PUSH1 0xFF AND PUSH2 0x27B5 JUMPI DUP3 PUSH1 0x3 ADD DUP2 DUP2 SLOAD DUP2 LT PUSH2 0x279E JUMPI PUSH2 0x279D PUSH2 0x3A76 JUMP JUMPDEST JUMPDEST SWAP1 PUSH0 MSTORE PUSH1 0x20 PUSH0 KECCAK256 ADD SLOAD DUP3 PUSH2 0x27B2 SWAP2 SWAP1 PUSH2 0x3E54 JUMP JUMPDEST SWAP2 POP JUMPDEST DUP1 DUP1 PUSH1 0x1 ADD SWAP2 POP POP PUSH2 0x26EC JUMP JUMPDEST POP PUSH0 DUP2 GT ISZERO PUSH2 0x2897 JUMPI PUSH0 DUP3 PUSH0 ADD PUSH0 SWAP1 SLOAD SWAP1 PUSH2 0x100 EXP SWAP1 DIV PUSH20 0xFFFFFFFFFFFFFFFFFFFFFFFFFFFFFFFFFFFFFFFF AND PUSH20 0xFFFFFFFFFFFFFFFFFFFFFFFFFFFFFFFFFFFFFFFF AND DUP3 PUSH1 0x40 MLOAD PUSH2 0x2812 SWAP1 PUSH2 0x3B44 JUMP JUMPDEST PUSH0 PUSH1 0x40 MLOAD DUP1 DUP4 SUB DUP2 DUP6 DUP8 GAS CALL SWAP3 POP POP POP RETURNDATASIZE DUP1 PUSH0 DUP2 EQ PUSH2 0x284C JUMPI PUSH1 0x40 MLOAD SWAP2 POP PUSH1 0x1F NOT PUSH1 0x3F RETURNDATASIZE ADD AND DUP3 ADD PUSH1 0x40 MSTORE RETURNDATASIZE DUP3 MSTORE RETURNDATASIZE PUSH0 PUSH1 0x20 DUP5 ADD RETURNDATACOPY PUSH2 0x2851 JUMP JUMPDEST PUSH1 0x60 SWAP2 POP JUMPDEST POP POP SWAP1 POP DUP1 PUSH2 0x2895 JUMPI PUSH1 0x40 MLOAD PUSH32 0x8C379A000000000000000000000000000000000000000000000000000000000 DUP2 MSTORE PUSH1 0x4 ADD PUSH2 0x288C SWAP1 PUSH2 0x3FC8 JUMP JUMPDEST PUSH1 0x40 MLOAD DUP1 SWAP2 SUB SWAP1 REVERT JUMPDEST POP JUMPDEST DUP3 PUSH32 0xDBC83CB6E4A23B5EFCB48571A7EE8BDEC0789B58F8F3EC922F3CD2B18947DC52 PUSH1 0x40 MLOAD PUSH1 0x40 MLOAD DUP1 SWAP2 SUB SWAP1 LOG2 POP POP PUSH2 0x28CE PUSH2 0x2C21 JUMP JUMPDEST POP JUMP JUMPDEST PUSH0 PUSH32 0x1FFC9A700000000000000000000000000000000000000000000000000000000 PUSH28 0xFFFFFFFFFFFFFFFFFFFFFFFFFFFFFFFFFFFFFFFFFFFFFFFFFFFFFFFF NOT AND DUP3 PUSH28 0xFFFFFFFFFFFFFFFFFFFFFFFFFFFFFFFFFFFFFFFFFFFFFFFFFFFFFFFF NOT AND EQ SWAP1 POP SWAP2 SWAP1 POP JUMP JUMPDEST PUSH2 0x294B DUP2 PUSH2 0x2946 PUSH2 0x2A38 JUMP JUMPDEST PUSH2 0x2E22 JUMP JUMPDEST POP JUMP JUMPDEST PUSH0 PUSH2 0x2959 DUP4 DUP4 PUSH2 0x1500 JUMP JUMPDEST PUSH2 0x2A2E JUMPI PUSH1 0x1 PUSH1 0x2 PUSH0 DUP6 DUP2 MSTORE PUSH1 0x20 ADD SWAP1 DUP2 MSTORE PUSH1 0x20 ADD PUSH0 KECCAK256 PUSH0 ADD PUSH0 DUP5 PUSH20 0xFFFFFFFFFFFFFFFFFFFFFFFFFFFFFFFFFFFFFFFF AND PUSH20 0xFFFFFFFFFFFFFFFFFFFFFFFFFFFFFFFFFFFFFFFF AND DUP2 MSTORE PUSH1 0x20 ADD SWAP1 DUP2 MSTORE PUSH1 0x20 ADD PUSH0 KECCAK256 PUSH0 PUSH2 0x100 EXP DUP2 SLOAD DUP2 PUSH1 0xFF MUL NOT AND SWAP1 DUP4 ISZERO ISZERO MUL OR SWAP1 SSTORE POP PUSH2 0x29CB PUSH2 0x2A38 JUMP JUMPDEST PUSH20 0xFFFFFFFFFFFFFFFFFFFFFFFFFFFFFFFFFFFFFFFF AND DUP3 PUSH20 0xFFFFFFFFFFFFFFFFFFFFFFFFFFFFFFFFFFFFFFFF AND DUP5 PUSH32 0x2F8788117E7EFF1D82E926EC794901D17C78024A50270940304540A733656F0D PUSH1 0x40 MLOAD PUSH1 0x40 MLOAD DUP1 SWAP2 SUB SWAP1 LOG4 PUSH1 0x1 SWAP1 POP PUSH2 0x2A32 JUMP JUMPDEST PUSH0 SWAP1 POP JUMPDEST SWAP3 SWAP2 POP POP JUMP JUMPDEST PUSH0 CALLER SWAP1 POP SWAP1 JUMP JUMPDEST PUSH0 PUSH2 0x2A4A DUP4 DUP4 PUSH2 0x1500 JUMP JUMPDEST ISZERO PUSH2 0x2B1F JUMPI PUSH0 PUSH1 0x2 PUSH0 DUP6 DUP2 MSTORE PUSH1 0x20 ADD SWAP1 DUP2 MSTORE PUSH1 0x20 ADD PUSH0 KECCAK256 PUSH0 ADD PUSH0 DUP5 PUSH20 0xFFFFFFFFFFFFFFFFFFFFFFFFFFFFFFFFFFFFFFFF AND PUSH20 0xFFFFFFFFFFFFFFFFFFFFFFFFFFFFFFFFFFFFFFFF AND DUP2 MSTORE PUSH1 0x20 ADD SWAP1 DUP2 MSTORE PUSH1 0x20 ADD PUSH0 KECCAK256 PUSH0 PUSH2 0x100 EXP DUP2 SLOAD DUP2 PUSH1 0xFF MUL NOT AND SWAP1 DUP4 ISZERO ISZERO MUL OR SWAP1 SSTORE POP PUSH2 0x2ABC PUSH2 0x2A38 JUMP JUMPDEST PUSH20 0xFFFFFFFFFFFFFFFFFFFFFFFFFFFFFFFFFFFFFFFF AND DUP3 PUSH20 0xFFFFFFFFFFFFFFFFFFFFFFFFFFFFFFFFFFFFFFFF AND DUP5 PUSH32 0xF6391F5C32D9C69D2A47EA670B442974B53935D1EDC7FD64EB21E047A839171B PUSH1 0x40 MLOAD PUSH1 0x40 MLOAD DUP1 SWAP2 SUB SWAP1 LOG4 PUSH1 0x1 SWAP1 POP PUSH2 0x2B23 JUMP JUMPDEST PUSH0 SWAP1 POP JUMPDEST SWAP3 SWAP2 POP POP JUMP JUMPDEST PUSH2 0x2B31 PUSH2 0x2E73 JUMP JUMPDEST PUSH0 PUSH1 0x1 PUSH0 PUSH2 0x100 EXP DUP2 SLOAD DUP2 PUSH1 0xFF MUL NOT AND SWAP1 DUP4 ISZERO ISZERO MUL OR SWAP1 SSTORE POP PUSH32 0x5DB9EE0A495BF2E6FF9C91A7834C1BA4FDD244A5E8AA4E537BD38AEAE4B073AA PUSH2 0x2B73 PUSH2 0x2A38 JUMP JUMPDEST PUSH1 0x40 MLOAD PUSH2 0x2B80 SWAP2 SWAP1 PUSH2 0x3FE6 JUMP JUMPDEST PUSH1 0x40 MLOAD DUP1 SWAP2 SUB SWAP1 LOG1 JUMP JUMPDEST PUSH2 0x2B92 PUSH2 0xDEA JUMP JUMPDEST ISZERO PUSH2 0x2BD2 JUMPI PUSH1 0x40 MLOAD PUSH32 0x8C379A000000000000000000000000000000000000000000000000000000000 DUP2 MSTORE PUSH1 0x4 ADD PUSH2 0x2BC9 SWAP1 PUSH2 0x4049 JUMP JUMPDEST PUSH1 0x40 MLOAD DUP1 SWAP2 SUB SWAP1 REVERT JUMPDEST JUMP JUMPDEST PUSH1 0x2 PUSH0 SLOAD SUB PUSH2 0x2C18 JUMPI PUSH1 0x40 MLOAD PUSH32 0x8C379A000000000000000000000000000000000000000000000000000000000 DUP2 MSTORE PUSH1 0x4 ADD PUSH2 0x2C0F SWAP1 PUSH2 0x40B1 JUMP JUMPDEST PUSH1 0x40 MLOAD DUP1 SWAP2 SUB SWAP1 REVERT JUMPDEST PUSH1 0x2 PUSH0 DUP2 SWAP1 SSTORE POP JUMP JUMPDEST PUSH1 0x1 PUSH0 DUP2 SWAP1 SSTORE POP JUMP JUMPDEST PUSH2 0x2C32 PUSH2 0x2B8A JUMP JUMPDEST PUSH1 0x1 DUP1 PUSH0 PUSH2 0x100 EXP DUP2 SLOAD DUP2 PUSH1 0xFF MUL NOT AND SWAP1 DUP4 ISZERO ISZERO MUL OR SWAP1 SSTORE POP PUSH32 0x62E78CEA01BEE320CD4E420270B5EA74000D11B0C9F74754EBDBFC544B05A258 PUSH2 0x2C74 PUSH2 0x2A38 JUMP JUMPDEST PUSH1 0x40 MLOAD PUSH2 0x2C81 SWAP2 SWAP1 PUSH2 0x3FE6 JUMP JUMPDEST PUSH1 0x40 MLOAD DUP1 SWAP2 SUB SWAP1 LOG1 JUMP JUMPDEST PUSH1 0x60 DUP2 PUSH8 0xFFFFFFFFFFFFFFFF DUP2 GT ISZERO PUSH2 0x2CA7 JUMPI PUSH2 0x2CA6 PUSH2 0x363D JUMP JUMPDEST JUMPDEST PUSH1 0x40 MLOAD SWAP1 DUP1 DUP3 MSTORE DUP1 PUSH1 0x20 MUL PUSH1 0x20 ADD DUP3 ADD PUSH1 0x40 MSTORE DUP1 ISZERO PUSH2 0x2CD5 JUMPI DUP2 PUSH1 0x20 ADD PUSH1 0x20 DUP3 MUL DUP1 CALLDATASIZE DUP4 CALLDATACOPY DUP1 DUP3 ADD SWAP2 POP POP SWAP1 POP JUMPDEST POP SWAP1 POP PUSH0 DUP4 SWAP1 POP PUSH0 PUSH0 SWAP1 POP JUMPDEST PUSH1 0x1 DUP5 PUSH2 0x2CEE SWAP2 SWAP1 PUSH2 0x40CF JUMP JUMPDEST DUP2 LT ISZERO PUSH2 0x2DEE JUMPI PUSH0 PUSH1 0xA DUP4 PUSH2 0x2D03 SWAP2 SWAP1 PUSH2 0x3DF4 JUMP JUMPDEST SWAP1 POP PUSH0 PUSH1 0xA PUSH1 0x4 DUP6 PUSH2 0x2D15 SWAP2 SWAP1 PUSH2 0x4102 JUMP JUMPDEST PUSH2 0x2D1F SWAP2 SWAP1 PUSH2 0x3DF4 JUMP JUMPDEST SWAP1 POP DUP2 DUP2 GT ISZERO PUSH2 0x2DB0 JUMPI PUSH0 DUP3 DUP3 PUSH2 0x2D36 SWAP2 SWAP1 PUSH2 0x40CF JUMP JUMPDEST TIMESTAMP PREVRANDAO DUP7 CALLER PUSH1 0x40 MLOAD PUSH1 0x20 ADD PUSH2 0x2D4D SWAP5 SWAP4 SWAP3 SWAP2 SWAP1 PUSH2 0x41A8 JUMP JUMPDEST PUSH1 0x40 MLOAD PUSH1 0x20 DUP2 DUP4 SUB SUB DUP2 MSTORE SWAP1 PUSH1 0x40 MSTORE DUP1 MLOAD SWAP1 PUSH1 0x20 ADD KECCAK256 PUSH0 SHR PUSH2 0x2D6F SWAP2 SWAP1 PUSH2 0x3E24 JUMP JUMPDEST DUP4 PUSH2 0x2D7A SWAP2 SWAP1 PUSH2 0x3E54 JUMP JUMPDEST SWAP1 POP DUP1 DUP7 DUP6 DUP2 MLOAD DUP2 LT PUSH2 0x2D90 JUMPI PUSH2 0x2D8F PUSH2 0x3A76 JUMP JUMPDEST JUMPDEST PUSH1 0x20 MUL PUSH1 0x20 ADD ADD DUP2 DUP2 MSTORE POP POP DUP1 DUP6 PUSH2 0x2DA8 SWAP2 SWAP1 PUSH2 0x40CF JUMP JUMPDEST SWAP5 POP POP PUSH2 0x2DDF JUMP JUMPDEST DUP2 DUP6 DUP5 DUP2 MLOAD DUP2 LT PUSH2 0x2DC4 JUMPI PUSH2 0x2DC3 PUSH2 0x3A76 JUMP JUMPDEST JUMPDEST PUSH1 0x20 MUL PUSH1 0x20 ADD ADD DUP2 DUP2 MSTORE POP POP DUP2 DUP5 PUSH2 0x2DDC SWAP2 SWAP1 PUSH2 0x40CF JUMP JUMPDEST SWAP4 POP JUMPDEST POP POP DUP1 DUP1 PUSH1 0x1 ADD SWAP2 POP POP PUSH2 0x2CE1 JUMP JUMPDEST POP DUP1 DUP3 PUSH1 0x1 DUP6 PUSH2 0x2DFE SWAP2 SWAP1 PUSH2 0x40CF JUMP JUMPDEST DUP2 MLOAD DUP2 LT PUSH2 0x2E0F JUMPI PUSH2 0x2E0E PUSH2 0x3A76 JUMP JUMPDEST JUMPDEST PUSH1 0x20 MUL PUSH1 0x20 ADD ADD DUP2 DUP2 MSTORE POP POP POP SWAP3 SWAP2 POP POP JUMP JUMPDEST PUSH2 0x2E2C DUP3 DUP3 PUSH2 0x1500 JUMP JUMPDEST PUSH2 0x2E6F JUMPI DUP1 DUP3 PUSH1 0x40 MLOAD PUSH32 0xE2517D3F00000000000000000000000000000000000000000000000000000000 DUP2 MSTORE PUSH1 0x4 ADD PUSH2 0x2E66 SWAP3 SWAP2 SWAP1 PUSH2 0x41F5 JUMP JUMPDEST PUSH1 0x40 MLOAD DUP1 SWAP2 SUB SWAP1 REVERT JUMPDEST POP POP JUMP JUMPDEST PUSH2 0x2E7B PUSH2 0xDEA JUMP JUMPDEST PUSH2 0x2EBA JUMPI PUSH1 0x40 MLOAD PUSH32 0x8C379A000000000000000000000000000000000000000000000000000000000 DUP2 MSTORE PUSH1 0x4 ADD PUSH2 0x2EB1 SWAP1 PUSH2 0x4266 JUMP JUMPDEST PUSH1 0x40 MLOAD DUP1 SWAP2 SUB SWAP1 REVERT JUMPDEST JUMP JUMPDEST PUSH1 0x40 MLOAD DUP1 PUSH1 0xA0 ADD PUSH1 0x40 MSTORE DUP1 PUSH0 PUSH20 0xFFFFFFFFFFFFFFFFFFFFFFFFFFFFFFFFFFFFFFFF AND DUP2 MSTORE PUSH1 0x20 ADD PUSH0 PUSH20 0xFFFFFFFFFFFFFFFFFFFFFFFFFFFFFFFFFFFFFFFF AND DUP2 MSTORE PUSH1 0x20 ADD PUSH0 DUP2 MSTORE PUSH1 0x20 ADD PUSH0 DUP2 MSTORE PUSH1 0x20 ADD PUSH1 0x60 DUP2 MSTORE POP SWAP1 JUMP JUMPDEST DUP3 DUP1 SLOAD DUP3 DUP3 SSTORE SWAP1 PUSH0 MSTORE PUSH1 0x20 PUSH0 KECCAK256 SWAP1 DUP2 ADD SWAP3 DUP3 ISZERO PUSH2 0x2F89 JUMPI SWAP2 PUSH1 0x20 MUL DUP3 ADD JUMPDEST DUP3 DUP2 GT ISZERO PUSH2 0x2F88 JUMPI DUP3 MLOAD DUP3 PUSH0 PUSH2 0x100 EXP DUP2 SLOAD DUP2 PUSH20 0xFFFFFFFFFFFFFFFFFFFFFFFFFFFFFFFFFFFFFFFF MUL NOT AND SWAP1 DUP4 PUSH20 0xFFFFFFFFFFFFFFFFFFFFFFFFFFFFFFFFFFFFFFFF AND MUL OR SWAP1 SSTORE POP SWAP2 PUSH1 0x20 ADD SWAP2 SWAP1 PUSH1 0x1 ADD SWAP1 PUSH2 0x2F31 JUMP JUMPDEST JUMPDEST POP SWAP1 POP PUSH2 0x2F96 SWAP2 SWAP1 PUSH2 0x2FE5 JUMP JUMPDEST POP SWAP1 JUMP JUMPDEST DUP3 DUP1 SLOAD DUP3 DUP3 SSTORE SWAP1 PUSH0 MSTORE PUSH1 0x20 PUSH0 KECCAK256 SWAP1 DUP2 ADD SWAP3 DUP3 ISZERO PUSH2 0x2FD4 JUMPI SWAP2 PUSH1 0x20 MUL DUP3 ADD JUMPDEST DUP3 DUP2 GT ISZERO PUSH2 0x2FD3 JUMPI DUP3 MLOAD DUP3 SSTORE SWAP2 PUSH1 0x20 ADD SWAP2 SWAP1 PUSH1 0x1 ADD SWAP1 PUSH2 0x2FB8 JUMP JUMPDEST JUMPDEST POP SWAP1 POP PUSH2 0x2FE1 SWAP2 SWAP1 PUSH2 0x2FE5 JUMP JUMPDEST POP SWAP1 JUMP JUMPDEST JUMPDEST DUP1 DUP3 GT ISZERO PUSH2 0x2FFC JUMPI PUSH0 DUP2 PUSH0 SWAP1 SSTORE POP PUSH1 0x1 ADD PUSH2 0x2FE6 JUMP JUMPDEST POP SWAP1 JUMP JUMPDEST PUSH0 PUSH1 0x40 MLOAD SWAP1 POP SWAP1 JUMP JUMPDEST PUSH0 PUSH0 REVERT JUMPDEST PUSH0 PUSH0 REVERT JUMPDEST PUSH0 PUSH32 0xFFFFFFFF00000000000000000000000000000000000000000000000000000000 DUP3 AND SWAP1 POP SWAP2 SWAP1 POP JUMP JUMPDEST PUSH2 0x3045 DUP2 PUSH2 0x3011 JUMP JUMPDEST DUP2 EQ PUSH2 0x304F JUMPI PUSH0 PUSH0 REVERT JUMPDEST POP JUMP JUMPDEST PUSH0 DUP2 CALLDATALOAD SWAP1 POP PUSH2 0x3060 DUP2 PUSH2 0x303C JUMP JUMPDEST SWAP3 SWAP2 POP POP JUMP JUMPDEST PUSH0 PUSH1 0x20 DUP3 DUP5 SUB SLT ISZERO PUSH2 0x307B JUMPI PUSH2 0x307A PUSH2 0x3009 JUMP JUMPDEST JUMPDEST PUSH0 PUSH2 0x3088 DUP5 DUP3 DUP6 ADD PUSH2 0x3052 JUMP JUMPDEST SWAP2 POP POP SWAP3 SWAP2 POP POP JUMP JUMPDEST PUSH0 DUP2 ISZERO ISZERO SWAP1 POP SWAP2 SWAP1 POP JUMP JUMPDEST PUSH2 0x30A5 DUP2 PUSH2 0x3091 JUMP JUMPDEST DUP3 MSTORE POP POP JUMP JUMPDEST PUSH0 PUSH1 0x20 DUP3 ADD SWAP1 POP PUSH2 0x30BE PUSH0 DUP4 ADD DUP5 PUSH2 0x309C JUMP JUMPDEST SWAP3 SWAP2 POP POP JUMP JUMPDEST PUSH0 DUP2 SWAP1 POP SWAP2 SWAP1 POP JUMP JUMPDEST PUSH2 0x30D6 DUP2 PUSH2 0x30C4 JUMP JUMPDEST DUP2 EQ PUSH2 0x30E0 JUMPI PUSH0 PUSH0 REVERT JUMPDEST POP JUMP JUMPDEST PUSH0 DUP2 CALLDATALOAD SWAP1 POP PUSH2 0x30F1 DUP2 PUSH2 0x30CD JUMP JUMPDEST SWAP3 SWAP2 POP POP JUMP JUMPDEST PUSH0 PUSH1 0x20 DUP3 DUP5 SUB SLT ISZERO PUSH2 0x310C JUMPI PUSH2 0x310B PUSH2 0x3009 JUMP JUMPDEST JUMPDEST PUSH0 PUSH2 0x3119 DUP5 DUP3 DUP6 ADD PUSH2 0x30E3 JUMP JUMPDEST SWAP2 POP POP SWAP3 SWAP2 POP POP JUMP JUMPDEST PUSH0 PUSH20 0xFFFFFFFFFFFFFFFFFFFFFFFFFFFFFFFFFFFFFFFF DUP3 AND SWAP1 POP SWAP2 SWAP1 POP JUMP JUMPDEST PUSH0 PUSH2 0x314B DUP3 PUSH2 0x3122 JUMP JUMPDEST SWAP1 POP SWAP2 SWAP1 POP JUMP JUMPDEST PUSH2 0x315B DUP2 PUSH2 0x3141 JUMP JUMPDEST DUP3 MSTORE POP POP JUMP JUMPDEST PUSH2 0x316A DUP2 PUSH2 0x30C4 JUMP JUMPDEST DUP3 MSTORE POP POP JUMP JUMPDEST PUSH0 DUP2 MLOAD SWAP1 POP SWAP2 SWAP1 POP JUMP JUMPDEST PUSH0 DUP3 DUP3 MSTORE PUSH1 0x20 DUP3 ADD SWAP1 POP SWAP3 SWAP2 POP POP JUMP JUMPDEST DUP3 DUP2 DUP4 MCOPY PUSH0 DUP4 DUP4 ADD MSTORE POP POP POP JUMP JUMPDEST PUSH0 PUSH1 0x1F NOT PUSH1 0x1F DUP4 ADD AND SWAP1 POP SWAP2 SWAP1 POP JUMP JUMPDEST PUSH0 PUSH2 0x31B2 DUP3 PUSH2 0x3170 JUMP JUMPDEST PUSH2 0x31BC DUP2 DUP6 PUSH2 0x317A JUMP JUMPDEST SWAP4 POP PUSH2 0x31CC DUP2 DUP6 PUSH1 0x20 DUP7 ADD PUSH2 0x318A JUMP JUMPDEST PUSH2 0x31D5 DUP2 PUSH2 0x3198 JUMP JUMPDEST DUP5 ADD SWAP2 POP POP SWAP3 SWAP2 POP POP JUMP JUMPDEST PUSH0 PUSH1 0xA0 DUP4 ADD PUSH0 DUP4 ADD MLOAD PUSH2 0x31F5 PUSH0 DUP7 ADD DUP3 PUSH2 0x3152 JUMP JUMPDEST POP PUSH1 0x20 DUP4 ADD MLOAD PUSH2 0x3208 PUSH1 0x20 DUP7 ADD DUP3 PUSH2 0x3152 JUMP JUMPDEST POP PUSH1 0x40 DUP4 ADD MLOAD PUSH2 0x321B PUSH1 0x40 DUP7 ADD DUP3 PUSH2 0x3161 JUMP JUMPDEST POP PUSH1 0x60 DUP4 ADD MLOAD PUSH2 0x322E PUSH1 0x60 DUP7 ADD DUP3 PUSH2 0x3161 JUMP JUMPDEST POP PUSH1 0x80 DUP4 ADD MLOAD DUP5 DUP3 SUB PUSH1 0x80 DUP7 ADD MSTORE PUSH2 0x3246 DUP3 DUP3 PUSH2 0x31A8 JUMP JUMPDEST SWAP2 POP POP DUP1 SWAP2 POP POP SWAP3 SWAP2 POP POP JUMP JUMPDEST PUSH0 PUSH1 0x20 DUP3 ADD SWAP1 POP DUP2 DUP2 SUB PUSH0 DUP4 ADD MSTORE PUSH2 0x326B DUP2 DUP5 PUSH2 0x31E0 JUMP JUMPDEST SWAP1 POP SWAP3 SWAP2 POP POP JUMP JUMPDEST PUSH2 0x327C DUP2 PUSH2 0x3141 JUMP JUMPDEST DUP3 MSTORE POP POP JUMP JUMPDEST PUSH0 DUP2 MLOAD SWAP1 POP SWAP2 SWAP1 POP JUMP JUMPDEST PUSH0 DUP3 DUP3 MSTORE PUSH1 0x20 DUP3 ADD SWAP1 POP SWAP3 SWAP2 POP POP JUMP JUMPDEST PUSH0 DUP2 SWAP1 POP PUSH1 0x20 DUP3 ADD SWAP1 POP SWAP2 SWAP1 POP JUMP JUMPDEST PUSH0 PUSH2 0x32B6 DUP4 DUP4 PUSH2 0x3152 JUMP JUMPDEST PUSH1 0x20 DUP4 ADD SWAP1 POP SWAP3 SWAP2 POP POP JUMP JUMPDEST PUSH0 PUSH1 0x20 DUP3 ADD SWAP1 POP SWAP2 SWAP1 POP JUMP JUMPDEST PUSH0 PUSH2 0x32D8 DUP3 PUSH2 0x3282 JUMP JUMPDEST PUSH2 0x32E2 DUP2 DUP6 PUSH2 0x328C JUMP JUMPDEST SWAP4 POP PUSH2 0x32ED DUP4 PUSH2 0x329C JUMP JUMPDEST DUP1 PUSH0 JUMPDEST DUP4 DUP2 LT ISZERO PUSH2 0x331D JUMPI DUP2 MLOAD PUSH2 0x3304 DUP9 DUP3 PUSH2 0x32AB JUMP JUMPDEST SWAP8 POP PUSH2 0x330F DUP4 PUSH2 0x32C2 JUMP JUMPDEST SWAP3 POP POP PUSH1 0x1 DUP2 ADD SWAP1 POP PUSH2 0x32F0 JUMP JUMPDEST POP DUP6 SWAP4 POP POP POP POP SWAP3 SWAP2 POP POP JUMP JUMPDEST PUSH2 0x3333 DUP2 PUSH2 0x30C4 JUMP JUMPDEST DUP3 MSTORE POP POP JUMP JUMPDEST PUSH0 DUP2 MLOAD SWAP1 POP SWAP2 SWAP1 POP JUMP JUMPDEST PUSH0 DUP3 DUP3 MSTORE PUSH1 0x20 DUP3 ADD SWAP1 POP SWAP3 SWAP2 POP POP JUMP JUMPDEST PUSH0 DUP2 SWAP1 POP PUSH1 0x20 DUP3 ADD SWAP1 POP SWAP2 SWAP1 POP JUMP JUMPDEST PUSH0 PUSH2 0x336D DUP4 DUP4 PUSH2 0x3161 JUMP JUMPDEST PUSH1 0x20 DUP4 ADD SWAP1 POP SWAP3 SWAP2 POP POP JUMP JUMPDEST PUSH0 PUSH1 0x20 DUP3 ADD SWAP1 POP SWAP2 SWAP1 POP JUMP JUMPDEST PUSH0 PUSH2 0x338F DUP3 PUSH2 0x3339 JUMP JUMPDEST PUSH2 0x3399 DUP2 DUP6 PUSH2 0x3343 JUMP JUMPDEST SWAP4 POP PUSH2 0x33A4 DUP4 PUSH2 0x3353 JUMP JUMPDEST DUP1 PUSH0 JUMPDEST DUP4 DUP2 LT ISZERO PUSH2 0x33D4 JUMPI DUP2 MLOAD PUSH2 0x33BB DUP9 DUP3 PUSH2 0x3362 JUMP JUMPDEST SWAP8 POP PUSH2 0x33C6 DUP4 PUSH2 0x3379 JUMP JUMPDEST SWAP3 POP POP PUSH1 0x1 DUP2 ADD SWAP1 POP PUSH2 0x33A7 JUMP JUMPDEST POP DUP6 SWAP4 POP POP POP POP SWAP3 SWAP2 POP POP JUMP JUMPDEST PUSH0 DUP3 DUP3 MSTORE PUSH1 0x20 DUP3 ADD SWAP1 POP SWAP3 SWAP2 POP POP JUMP JUMPDEST PUSH0 PUSH2 0x33FB DUP3 PUSH2 0x3170 JUMP JUMPDEST PUSH2 0x3405 DUP2 DUP6 PUSH2 0x33E1 JUMP JUMPDEST SWAP4 POP PUSH2 0x3415 DUP2 DUP6 PUSH1 0x20 DUP7 ADD PUSH2 0x318A JUMP JUMPDEST PUSH2 0x341E DUP2 PUSH2 0x3198 JUMP JUMPDEST DUP5 ADD SWAP2 POP POP SWAP3 SWAP2 POP POP JUMP JUMPDEST PUSH0 PUSH2 0x120 DUP3 ADD SWAP1 POP PUSH2 0x343D PUSH0 DUP4 ADD DUP13 PUSH2 0x3273 JUMP JUMPDEST DUP2 DUP2 SUB PUSH1 0x20 DUP4 ADD MSTORE PUSH2 0x344F DUP2 DUP12 PUSH2 0x32CE JUMP JUMPDEST SWAP1 POP PUSH2 0x345E PUSH1 0x40 DUP4 ADD DUP11 PUSH2 0x332A JUMP JUMPDEST DUP2 DUP2 SUB PUSH1 0x60 DUP4 ADD MSTORE PUSH2 0x3470 DUP2 DUP10 PUSH2 0x3385 JUMP JUMPDEST SWAP1 POP PUSH2 0x347F PUSH1 0x80 DUP4 ADD DUP9 PUSH2 0x309C JUMP JUMPDEST PUSH2 0x348C PUSH1 0xA0 DUP4 ADD DUP8 PUSH2 0x332A JUMP JUMPDEST PUSH2 0x3499 PUSH1 0xC0 DUP4 ADD DUP7 PUSH2 0x332A JUMP JUMPDEST DUP2 DUP2 SUB PUSH1 0xE0 DUP4 ADD MSTORE PUSH2 0x34AB DUP2 DUP6 PUSH2 0x33F1 JUMP JUMPDEST SWAP1 POP PUSH2 0x34BB PUSH2 0x100 DUP4 ADD DUP5 PUSH2 0x309C JUMP JUMPDEST SWAP11 SWAP10 POP POP POP POP POP POP POP POP POP POP JUMP JUMPDEST PUSH0 DUP2 SWAP1 POP SWAP2 SWAP1 POP JUMP JUMPDEST PUSH2 0x34DB DUP2 PUSH2 0x34C9 JUMP JUMPDEST DUP2 EQ PUSH2 0x34E5 JUMPI PUSH0 PUSH0 REVERT JUMPDEST POP JUMP JUMPDEST PUSH0 DUP2 CALLDATALOAD SWAP1 POP PUSH2 0x34F6 DUP2 PUSH2 0x34D2 JUMP JUMPDEST SWAP3 SWAP2 POP POP JUMP JUMPDEST PUSH0 PUSH1 0x20 DUP3 DUP5 SUB SLT ISZERO PUSH2 0x3511 JUMPI PUSH2 0x3510 PUSH2 0x3009 JUMP JUMPDEST JUMPDEST PUSH0 PUSH2 0x351E DUP5 DUP3 DUP6 ADD PUSH2 0x34E8 JUMP JUMPDEST SWAP2 POP POP SWAP3 SWAP2 POP POP JUMP JUMPDEST PUSH2 0x3530 DUP2 PUSH2 0x34C9 JUMP JUMPDEST DUP3 MSTORE POP POP JUMP JUMPDEST PUSH0 PUSH1 0x20 DUP3 ADD SWAP1 POP PUSH2 0x3549 PUSH0 DUP4 ADD DUP5 PUSH2 0x3527 JUMP JUMPDEST SWAP3 SWAP2 POP POP JUMP JUMPDEST PUSH2 0x3558 DUP2 PUSH2 0x3141 JUMP JUMPDEST DUP2 EQ PUSH2 0x3562 JUMPI PUSH0 PUSH0 REVERT JUMPDEST POP JUMP JUMPDEST PUSH0 DUP2 CALLDATALOAD SWAP1 POP PUSH2 0x3573 DUP2 PUSH2 0x354F JUMP JUMPDEST SWAP3 SWAP2 POP POP JUMP JUMPDEST PUSH0 PUSH0 PUSH1 0x40 DUP4 DUP6 SUB SLT ISZERO PUSH2 0x358F JUMPI PUSH2 0x358E PUSH2 0x3009 JUMP JUMPDEST JUMPDEST PUSH0 PUSH2 0x359C DUP6 DUP3 DUP7 ADD PUSH2 0x34E8 JUMP JUMPDEST SWAP3 POP POP PUSH1 0x20 PUSH2 0x35AD DUP6 DUP3 DUP7 ADD PUSH2 0x3565 JUMP JUMPDEST SWAP2 POP POP SWAP3 POP SWAP3 SWAP1 POP JUMP JUMPDEST PUSH0 PUSH1 0x20 DUP3 ADD SWAP1 POP PUSH2 0x35CA PUSH0 DUP4 ADD DUP5 PUSH2 0x332A JUMP JUMPDEST SWAP3 SWAP2 POP POP JUMP JUMPDEST PUSH0 PUSH0 PUSH1 0x40 DUP4 DUP6 SUB SLT ISZERO PUSH2 0x35E6 JUMPI PUSH2 0x35E5 PUSH2 0x3009 JUMP JUMPDEST JUMPDEST PUSH0 PUSH2 0x35F3 DUP6 DUP3 DUP7 ADD PUSH2 0x30E3 JUMP JUMPDEST SWAP3 POP POP PUSH1 0x20 PUSH2 0x3604 DUP6 DUP3 DUP7 ADD PUSH2 0x3565 JUMP JUMPDEST SWAP2 POP POP SWAP3 POP SWAP3 SWAP1 POP JUMP JUMPDEST PUSH0 PUSH1 0x20 DUP3 DUP5 SUB SLT ISZERO PUSH2 0x3623 JUMPI PUSH2 0x3622 PUSH2 0x3009 JUMP JUMPDEST JUMPDEST PUSH0 PUSH2 0x3630 DUP5 DUP3 DUP6 ADD PUSH2 0x3565 JUMP JUMPDEST SWAP2 POP POP SWAP3 SWAP2 POP POP JUMP JUMPDEST PUSH0 PUSH0 REVERT JUMPDEST PUSH32 0x4E487B7100000000000000000000000000000000000000000000000000000000 PUSH0 MSTORE PUSH1 0x41 PUSH1 0x4 MSTORE PUSH1 0x24 PUSH0 REVERT JUMPDEST PUSH2 0x3673 DUP3 PUSH2 0x3198 JUMP JUMPDEST DUP2 ADD DUP2 DUP2 LT PUSH8 0xFFFFFFFFFFFFFFFF DUP3 GT OR ISZERO PUSH2 0x3692 JUMPI PUSH2 0x3691 PUSH2 0x363D JUMP JUMPDEST JUMPDEST DUP1 PUSH1 0x40 MSTORE POP POP POP JUMP JUMPDEST PUSH0 PUSH2 0x36A4 PUSH2 0x3000 JUMP JUMPDEST SWAP1 POP PUSH2 0x36B0 DUP3 DUP3 PUSH2 0x366A JUMP JUMPDEST SWAP2 SWAP1 POP JUMP JUMPDEST PUSH0 PUSH8 0xFFFFFFFFFFFFFFFF DUP3 GT ISZERO PUSH2 0x36CF JUMPI PUSH2 0x36CE PUSH2 0x363D JUMP JUMPDEST JUMPDEST PUSH1 0x20 DUP3 MUL SWAP1 POP PUSH1 0x20 DUP2 ADD SWAP1 POP SWAP2 SWAP1 POP JUMP JUMPDEST PUSH0 PUSH0 REVERT JUMPDEST PUSH0 PUSH2 0x36F6 PUSH2 0x36F1 DUP5 PUSH2 0x36B5 JUMP JUMPDEST PUSH2 0x369B JUMP JUMPDEST SWAP1 POP DUP1 DUP4 DUP3 MSTORE PUSH1 0x20 DUP3 ADD SWAP1 POP PUSH1 0x20 DUP5 MUL DUP4 ADD DUP6 DUP2 GT ISZERO PUSH2 0x3719 JUMPI PUSH2 0x3718 PUSH2 0x36E0 JUMP JUMPDEST JUMPDEST DUP4 JUMPDEST DUP2 DUP2 LT ISZERO PUSH2 0x3742 JUMPI DUP1 PUSH2 0x372E DUP9 DUP3 PUSH2 0x3565 JUMP JUMPDEST DUP5 MSTORE PUSH1 0x20 DUP5 ADD SWAP4 POP POP PUSH1 0x20 DUP2 ADD SWAP1 POP PUSH2 0x371B JUMP JUMPDEST POP POP POP SWAP4 SWAP3 POP POP POP JUMP JUMPDEST PUSH0 DUP3 PUSH1 0x1F DUP4 ADD SLT PUSH2 0x3760 JUMPI PUSH2 0x375F PUSH2 0x3639 JUMP JUMPDEST JUMPDEST DUP2 CALLDATALOAD PUSH2 0x3770 DUP5 DUP3 PUSH1 0x20 DUP7 ADD PUSH2 0x36E4 JUMP JUMPDEST SWAP2 POP POP SWAP3 SWAP2 POP POP JUMP JUMPDEST PUSH2 0x3782 DUP2 PUSH2 0x3091 JUMP JUMPDEST DUP2 EQ PUSH2 0x378C JUMPI PUSH0 PUSH0 REVERT JUMPDEST POP JUMP JUMPDEST PUSH0 DUP2 CALLDATALOAD SWAP1 POP PUSH2 0x379D DUP2 PUSH2 0x3779 JUMP JUMPDEST SWAP3 SWAP2 POP POP JUMP JUMPDEST PUSH0 PUSH0 REVERT JUMPDEST PUSH0 PUSH8 0xFFFFFFFFFFFFFFFF DUP3 GT ISZERO PUSH2 0x37C1 JUMPI PUSH2 0x37C0 PUSH2 0x363D JUMP JUMPDEST JUMPDEST PUSH2 0x37CA DUP3 PUSH2 0x3198 JUMP JUMPDEST SWAP1 POP PUSH1 0x20 DUP2 ADD SWAP1 POP SWAP2 SWAP1 POP JUMP JUMPDEST DUP3 DUP2 DUP4 CALLDATACOPY PUSH0 DUP4 DUP4 ADD MSTORE POP POP POP JUMP JUMPDEST PUSH0 PUSH2 0x37F7 PUSH2 0x37F2 DUP5 PUSH2 0x37A7 JUMP JUMPDEST PUSH2 0x369B JUMP JUMPDEST SWAP1 POP DUP3 DUP2 MSTORE PUSH1 0x20 DUP2 ADD DUP5 DUP5 DUP5 ADD GT ISZERO PUSH2 0x3813 JUMPI PUSH2 0x3812 PUSH2 0x37A3 JUMP JUMPDEST JUMPDEST PUSH2 0x381E DUP5 DUP3 DUP6 PUSH2 0x37D7 JUMP JUMPDEST POP SWAP4 SWAP3 POP POP POP JUMP JUMPDEST PUSH0 DUP3 PUSH1 0x1F DUP4 ADD SLT PUSH2 0x383A JUMPI PUSH2 0x3839 PUSH2 0x3639 JUMP JUMPDEST JUMPDEST DUP2 CALLDATALOAD PUSH2 0x384A DUP5 DUP3 PUSH1 0x20 DUP7 ADD PUSH2 0x37E5 JUMP JUMPDEST SWAP2 POP POP SWAP3 SWAP2 POP POP JUMP JUMPDEST PUSH0 PUSH0 PUSH0 PUSH0 PUSH1 0x80 DUP6 DUP8 SUB SLT ISZERO PUSH2 0x386B JUMPI PUSH2 0x386A PUSH2 0x3009 JUMP JUMPDEST JUMPDEST PUSH0 DUP6 ADD CALLDATALOAD PUSH8 0xFFFFFFFFFFFFFFFF DUP2 GT ISZERO PUSH2 0x3888 JUMPI PUSH2 0x3887 PUSH2 0x300D JUMP JUMPDEST JUMPDEST PUSH2 0x3894 DUP8 DUP3 DUP9 ADD PUSH2 0x374C JUMP JUMPDEST SWAP5 POP POP PUSH1 0x20 PUSH2 0x38A5 DUP8 DUP3 DUP9 ADD PUSH2 0x30E3 JUMP JUMPDEST SWAP4 POP POP PUSH1 0x40 PUSH2 0x38B6 DUP8 DUP3 DUP9 ADD PUSH2 0x378F JUMP JUMPDEST SWAP3 POP POP PUSH1 0x60 DUP6 ADD CALLDATALOAD PUSH8 0xFFFFFFFFFFFFFFFF DUP2 GT ISZERO PUSH2 0x38D7 JUMPI PUSH2 0x38D6 PUSH2 0x300D JUMP JUMPDEST JUMPDEST PUSH2 0x38E3 DUP8 DUP3 DUP9 ADD PUSH2 0x3826 JUMP JUMPDEST SWAP2 POP POP SWAP3 SWAP6 SWAP2 SWAP5 POP SWAP3 POP JUMP JUMPDEST PUSH0 PUSH1 0xA0 DUP3 ADD SWAP1 POP PUSH2 0x3902 PUSH0 DUP4 ADD DUP9 PUSH2 0x3273 JUMP JUMPDEST PUSH2 0x390F PUSH1 0x20 DUP4 ADD DUP8 PUSH2 0x3273 JUMP JUMPDEST PUSH2 0x391C PUSH1 0x40 DUP4 ADD DUP7 PUSH2 0x332A JUMP JUMPDEST PUSH2 0x3929 PUSH1 0x60 DUP4 ADD DUP6 PUSH2 0x332A JUMP JUMPDEST DUP2 DUP2 SUB PUSH1 0x80 DUP4 ADD MSTORE PUSH2 0x393B DUP2 DUP5 PUSH2 0x33F1 JUMP JUMPDEST SWAP1 POP SWAP7 SWAP6 POP POP POP POP POP POP JUMP JUMPDEST PUSH0 PUSH0 PUSH1 0x40 DUP4 DUP6 SUB SLT ISZERO PUSH2 0x395D JUMPI PUSH2 0x395C PUSH2 0x3009 JUMP JUMPDEST JUMPDEST PUSH0 PUSH2 0x396A DUP6 DUP3 DUP7 ADD PUSH2 0x3565 JUMP JUMPDEST SWAP3 POP POP PUSH1 0x20 PUSH2 0x397B DUP6 DUP3 DUP7 ADD PUSH2 0x30E3 JUMP JUMPDEST SWAP2 POP POP SWAP3 POP SWAP3 SWAP1 POP JUMP JUMPDEST PUSH0 PUSH1 0x20 DUP3 ADD SWAP1 POP DUP2 DUP2 SUB PUSH0 DUP4 ADD MSTORE PUSH2 0x399D DUP2 DUP5 PUSH2 0x3385 JUMP JUMPDEST SWAP1 POP SWAP3 SWAP2 POP POP JUMP JUMPDEST PUSH0 PUSH1 0xE0 DUP3 ADD SWAP1 POP PUSH2 0x39B8 PUSH0 DUP4 ADD DUP11 PUSH2 0x3273 JUMP JUMPDEST PUSH2 0x39C5 PUSH1 0x20 DUP4 ADD DUP10 PUSH2 0x332A JUMP JUMPDEST PUSH2 0x39D2 PUSH1 0x40 DUP4 ADD DUP9 PUSH2 0x309C JUMP JUMPDEST PUSH2 0x39DF PUSH1 0x60 DUP4 ADD DUP8 PUSH2 0x332A JUMP JUMPDEST PUSH2 0x39EC PUSH1 0x80 DUP4 ADD DUP7 PUSH2 0x332A JUMP JUMPDEST DUP2 DUP2 SUB PUSH1 0xA0 DUP4 ADD MSTORE PUSH2 0x39FE DUP2 DUP6 PUSH2 0x33F1 JUMP JUMPDEST SWAP1 POP PUSH2 0x3A0D PUSH1 0xC0 DUP4 ADD DUP5 PUSH2 0x309C JUMP JUMPDEST SWAP9 SWAP8 POP POP POP POP POP POP POP POP JUMP JUMPDEST PUSH32 0x4E487B7100000000000000000000000000000000000000000000000000000000 PUSH0 MSTORE PUSH1 0x22 PUSH1 0x4 MSTORE PUSH1 0x24 PUSH0 REVERT JUMPDEST PUSH0 PUSH1 0x2 DUP3 DIV SWAP1 POP PUSH1 0x1 DUP3 AND DUP1 PUSH2 0x3A5D JUMPI PUSH1 0x7F DUP3 AND SWAP2 POP JUMPDEST PUSH1 0x20 DUP3 LT DUP2 SUB PUSH2 0x3A70 JUMPI PUSH2 0x3A6F PUSH2 0x3A19 JUMP JUMPDEST JUMPDEST POP SWAP2 SWAP1 POP JUMP JUMPDEST PUSH32 0x4E487B7100000000000000000000000000000000000000000000000000000000 PUSH0 MSTORE PUSH1 0x32 PUSH1 0x4 MSTORE PUSH1 0x24 PUSH0 REVERT JUMPDEST PUSH32 0x4E487B7100000000000000000000000000000000000000000000000000000000 PUSH0 MSTORE PUSH1 0x11 PUSH1 0x4 MSTORE PUSH1 0x24 PUSH0 REVERT JUMPDEST PUSH0 PUSH2 0x3ADA DUP3 PUSH2 0x30C4 JUMP JUMPDEST SWAP2 POP PUSH32 0xFFFFFFFFFFFFFFFFFFFFFFFFFFFFFFFFFFFFFFFFFFFFFFFFFFFFFFFFFFFFFFFF DUP3 SUB PUSH2 0x3B0C JUMPI PUSH2 0x3B0B PUSH2 0x3AA3 JUMP JUMPDEST JUMPDEST PUSH1 0x1 DUP3 ADD SWAP1 POP SWAP2 SWAP1 POP JUMP JUMPDEST PUSH0 DUP2 SWAP1 POP SWAP3 SWAP2 POP POP JUMP JUMPDEST POP JUMP JUMPDEST PUSH0 PUSH2 0x3B2F PUSH0 DUP4 PUSH2 0x3B17 JUMP JUMPDEST SWAP2 POP PUSH2 0x3B3A DUP3 PUSH2 0x3B21 JUMP JUMPDEST PUSH0 DUP3 ADD SWAP1 POP SWAP2 SWAP1 POP JUMP JUMPDEST PUSH0 PUSH2 0x3B4E DUP3 PUSH2 0x3B24 JUMP JUMPDEST SWAP2 POP DUP2 SWAP1 POP SWAP2 SWAP1 POP JUMP JUMPDEST PUSH0 DUP2 SWAP1 POP DUP2 PUSH0 MSTORE PUSH1 0x20 PUSH0 KECCAK256 SWAP1 POP SWAP2 SWAP1 POP JUMP JUMPDEST PUSH0 PUSH1 0x20 PUSH1 0x1F DUP4 ADD DIV SWAP1 POP SWAP2 SWAP1 POP JUMP JUMPDEST PUSH0 DUP3 DUP3 SHL SWAP1 POP SWAP3 SWAP2 POP POP JUMP JUMPDEST PUSH0 PUSH1 0x8 DUP4 MUL PUSH2 0x3BB4 PUSH32 0xFFFFFFFFFFFFFFFFFFFFFFFFFFFFFFFFFFFFFFFFFFFFFFFFFFFFFFFFFFFFFFFF DUP3 PUSH2 0x3B79 JUMP JUMPDEST PUSH2 0x3BBE DUP7 DUP4 PUSH2 0x3B79 JUMP JUMPDEST SWAP6 POP DUP1 NOT DUP5 AND SWAP4 POP DUP1 DUP7 AND DUP5 OR SWAP3 POP POP POP SWAP4 SWAP3 POP POP POP JUMP JUMPDEST PUSH0 DUP2 SWAP1 POP SWAP2 SWAP1 POP JUMP JUMPDEST PUSH0 PUSH2 0x3BF9 PUSH2 0x3BF4 PUSH2 0x3BEF DUP5 PUSH2 0x30C4 JUMP JUMPDEST PUSH2 0x3BD6 JUMP JUMPDEST PUSH2 0x30C4 JUMP JUMPDEST SWAP1 POP SWAP2 SWAP1 POP JUMP JUMPDEST PUSH0 DUP2 SWAP1 POP SWAP2 SWAP1 POP JUMP JUMPDEST PUSH2 0x3C12 DUP4 PUSH2 0x3BDF JUMP JUMPDEST PUSH2 0x3C26 PUSH2 0x3C1E DUP3 PUSH2 0x3C00 JUMP JUMPDEST DUP5 DUP5 SLOAD PUSH2 0x3B85 JUMP JUMPDEST DUP3 SSTORE POP POP POP POP JUMP JUMPDEST PUSH0 PUSH0 SWAP1 POP SWAP1 JUMP JUMPDEST PUSH2 0x3C3D PUSH2 0x3C2E JUMP JUMPDEST PUSH2 0x3C48 DUP2 DUP5 DUP5 PUSH2 0x3C09 JUMP JUMPDEST POP POP POP JUMP JUMPDEST JUMPDEST DUP2 DUP2 LT ISZERO PUSH2 0x3C6B JUMPI PUSH2 0x3C60 PUSH0 DUP3 PUSH2 0x3C35 JUMP JUMPDEST PUSH1 0x1 DUP2 ADD SWAP1 POP PUSH2 0x3C4E JUMP JUMPDEST POP POP JUMP JUMPDEST PUSH1 0x1F DUP3 GT ISZERO PUSH2 0x3CB0 JUMPI PUSH2 0x3C81 DUP2 PUSH2 0x3B58 JUMP JUMPDEST PUSH2 0x3C8A DUP5 PUSH2 0x3B6A JUMP JUMPDEST DUP2 ADD PUSH1 0x20 DUP6 LT ISZERO PUSH2 0x3C99 JUMPI DUP2 SWAP1 POP JUMPDEST PUSH2 0x3CAD PUSH2 0x3CA5 DUP6 PUSH2 0x3B6A JUMP JUMPDEST DUP4 ADD DUP3 PUSH2 0x3C4D JUMP JUMPDEST POP POP JUMPDEST POP POP POP JUMP JUMPDEST PUSH0 DUP3 DUP3 SHR SWAP1 POP SWAP3 SWAP2 POP POP JUMP JUMPDEST PUSH0 PUSH2 0x3CD0 PUSH0 NOT DUP5 PUSH1 0x8 MUL PUSH2 0x3CB5 JUMP JUMPDEST NOT DUP1 DUP4 AND SWAP2 POP POP SWAP3 SWAP2 POP POP JUMP JUMPDEST PUSH0 PUSH2 0x3CE8 DUP4 DUP4 PUSH2 0x3CC1 JUMP JUMPDEST SWAP2 POP DUP3 PUSH1 0x2 MUL DUP3 OR SWAP1 POP SWAP3 SWAP2 POP POP JUMP JUMPDEST PUSH2 0x3D01 DUP3 PUSH2 0x3170 JUMP JUMPDEST PUSH8 0xFFFFFFFFFFFFFFFF DUP2 GT ISZERO PUSH2 0x3D1A JUMPI PUSH2 0x3D19 PUSH2 0x363D JUMP JUMPDEST JUMPDEST PUSH2 0x3D24 DUP3 SLOAD PUSH2 0x3A46 JUMP JUMPDEST PUSH2 0x3D2F DUP3 DUP3 DUP6 PUSH2 0x3C6F JUMP JUMPDEST PUSH0 PUSH1 0x20 SWAP1 POP PUSH1 0x1F DUP4 GT PUSH1 0x1 DUP2 EQ PUSH2 0x3D60 JUMPI PUSH0 DUP5 ISZERO PUSH2 0x3D4E JUMPI DUP3 DUP8 ADD MLOAD SWAP1 POP JUMPDEST PUSH2 0x3D58 DUP6 DUP3 PUSH2 0x3CDD JUMP JUMPDEST DUP7 SSTORE POP PUSH2 0x3DBF JUMP JUMPDEST PUSH1 0x1F NOT DUP5 AND PUSH2 0x3D6E DUP7 PUSH2 0x3B58 JUMP JUMPDEST PUSH0 JUMPDEST DUP3 DUP2 LT ISZERO PUSH2 0x3D95 JUMPI DUP5 DUP10 ADD MLOAD DUP3 SSTORE PUSH1 0x1 DUP3 ADD SWAP2 POP PUSH1 0x20 DUP6 ADD SWAP5 POP PUSH1 0x20 DUP2 ADD SWAP1 POP PUSH2 0x3D70 JUMP JUMPDEST DUP7 DUP4 LT ISZERO PUSH2 0x3DB2 JUMPI DUP5 DUP10 ADD MLOAD PUSH2 0x3DAE PUSH1 0x1F DUP10 AND DUP3 PUSH2 0x3CC1 JUMP JUMPDEST DUP4 SSTORE POP JUMPDEST PUSH1 0x1 PUSH1 0x2 DUP9 MUL ADD DUP9 SSTORE POP POP POP JUMPDEST POP POP POP POP POP POP JUMP JUMPDEST PUSH32 0x4E487B7100000000000000000000000000000000000000000000000000000000 PUSH0 MSTORE PUSH1 0x12 PUSH1 0x4 MSTORE PUSH1 0x24 PUSH0 REVERT JUMPDEST PUSH0 PUSH2 0x3DFE DUP3 PUSH2 0x30C4 JUMP JUMPDEST SWAP2 POP PUSH2 0x3E09 DUP4 PUSH2 0x30C4 JUMP JUMPDEST SWAP3 POP DUP3 PUSH2 0x3E19 JUMPI PUSH2 0x3E18 PUSH2 0x3DC7 JUMP JUMPDEST JUMPDEST DUP3 DUP3 DIV SWAP1 POP SWAP3 SWAP2 POP POP JUMP JUMPDEST PUSH0 PUSH2 0x3E2E DUP3 PUSH2 0x30C4 JUMP JUMPDEST SWAP2 POP PUSH2 0x3E39 DUP4 PUSH2 0x30C4 JUMP JUMPDEST SWAP3 POP DUP3 PUSH2 0x3E49 JUMPI PUSH2 0x3E48 PUSH2 0x3DC7 JUMP JUMPDEST JUMPDEST DUP3 DUP3 MOD SWAP1 POP SWAP3 SWAP2 POP POP JUMP JUMPDEST PUSH0 PUSH2 0x3E5E DUP3 PUSH2 0x30C4 JUMP JUMPDEST SWAP2 POP PUSH2 0x3E69 DUP4 PUSH2 0x30C4 JUMP JUMPDEST SWAP3 POP DUP3 DUP3 ADD SWAP1 POP DUP1 DUP3 GT ISZERO PUSH2 0x3E81 JUMPI PUSH2 0x3E80 PUSH2 0x3AA3 JUMP JUMPDEST JUMPDEST SWAP3 SWAP2 POP POP JUMP JUMPDEST PUSH0 PUSH1 0x40 DUP3 ADD SWAP1 POP PUSH2 0x3E9A PUSH0 DUP4 ADD DUP6 PUSH2 0x332A JUMP JUMPDEST PUSH2 0x3EA7 PUSH1 0x20 DUP4 ADD DUP5 PUSH2 0x332A JUMP JUMPDEST SWAP4 SWAP3 POP POP POP JUMP JUMPDEST PUSH32 0x456D657267656E6379207769746864726177616C206661696C65640000000000 PUSH0 DUP3 ADD MSTORE POP JUMP JUMPDEST PUSH0 PUSH2 0x3EE2 PUSH1 0x1B DUP4 PUSH2 0x33E1 JUMP JUMPDEST SWAP2 POP PUSH2 0x3EED DUP3 PUSH2 0x3EAE JUMP JUMPDEST PUSH1 0x20 DUP3 ADD SWAP1 POP SWAP2 SWAP1 POP JUMP JUMPDEST PUSH0 PUSH1 0x20 DUP3 ADD SWAP1 POP DUP2 DUP2 SUB PUSH0 DUP4 ADD MSTORE PUSH2 0x3F0F DUP2 PUSH2 0x3ED6 JUMP JUMPDEST SWAP1 POP SWAP2 SWAP1 POP JUMP JUMPDEST PUSH32 0x43616E6E6F742065787069726520796574000000000000000000000000000000 PUSH0 DUP3 ADD MSTORE POP JUMP JUMPDEST PUSH0 PUSH2 0x3F4A PUSH1 0x11 DUP4 PUSH2 0x33E1 JUMP JUMPDEST SWAP2 POP PUSH2 0x3F55 DUP3 PUSH2 0x3F16 JUMP JUMPDEST PUSH1 0x20 DUP3 ADD SWAP1 POP SWAP2 SWAP1 POP JUMP JUMPDEST PUSH0 PUSH1 0x20 DUP3 ADD SWAP1 POP DUP2 DUP2 SUB PUSH0 DUP4 ADD MSTORE PUSH2 0x3F77 DUP2 PUSH2 0x3F3E JUMP JUMPDEST SWAP1 POP SWAP2 SWAP1 POP JUMP JUMPDEST PUSH32 0x526566756E64206661696C656400000000000000000000000000000000000000 PUSH0 DUP3 ADD MSTORE POP JUMP JUMPDEST PUSH0 PUSH2 0x3FB2 PUSH1 0xD DUP4 PUSH2 0x33E1 JUMP JUMPDEST SWAP2 POP PUSH2 0x3FBD DUP3 PUSH2 0x3F7E JUMP JUMPDEST PUSH1 0x20 DUP3 ADD SWAP1 POP SWAP2 SWAP1 POP JUMP JUMPDEST PUSH0 PUSH1 0x20 DUP3 ADD SWAP1 POP DUP2 DUP2 SUB PUSH0 DUP4 ADD MSTORE PUSH2 0x3FDF DUP2 PUSH2 0x3FA6 JUMP JUMPDEST SWAP1 POP SWAP2 SWAP1 POP JUMP JUMPDEST PUSH0 PUSH1 0x20 DUP3 ADD SWAP1 POP PUSH2 0x3FF9 PUSH0 DUP4 ADD DUP5 PUSH2 0x3273 JUMP JUMPDEST SWAP3 SWAP2 POP POP JUMP JUMPDEST PUSH32 0x5061757361626C653A2070617573656400000000000000000000000000000000 PUSH0 DUP3 ADD MSTORE POP JUMP JUMPDEST PUSH0 PUSH2 0x4033 PUSH1 0x10 DUP4 PUSH2 0x33E1 JUMP JUMPDEST SWAP2 POP PUSH2 0x403E DUP3 PUSH2 0x3FFF JUMP JUMPDEST PUSH1 0x20 DUP3 ADD SWAP1 POP SWAP2 SWAP1 POP JUMP JUMPDEST PUSH0 PUSH1 0x20 DUP3 ADD SWAP1 POP DUP2 DUP2 SUB PUSH0 DUP4 ADD MSTORE PUSH2 0x4060 DUP2 PUSH2 0x4027 JUMP JUMPDEST SWAP1 POP SWAP2 SWAP1 POP JUMP JUMPDEST PUSH32 0x5265656E7472616E637947756172643A207265656E7472616E742063616C6C00 PUSH0 DUP3 ADD MSTORE POP JUMP JUMPDEST PUSH0 PUSH2 0x409B PUSH1 0x1F DUP4 PUSH2 0x33E1 JUMP JUMPDEST SWAP2 POP PUSH2 0x40A6 DUP3 PUSH2 0x4067 JUMP JUMPDEST PUSH1 0x20 DUP3 ADD SWAP1 POP SWAP2 SWAP1 POP JUMP JUMPDEST PUSH0 PUSH1 0x20 DUP3 ADD SWAP1 POP DUP2 DUP2 SUB PUSH0 DUP4 ADD MSTORE PUSH2 0x40C8 DUP2 PUSH2 0x408F JUMP JUMPDEST SWAP1 POP SWAP2 SWAP1 POP JUMP JUMPDEST PUSH0 PUSH2 0x40D9 DUP3 PUSH2 0x30C4 JUMP JUMPDEST SWAP2 POP PUSH2 0x40E4 DUP4 PUSH2 0x30C4 JUMP JUMPDEST SWAP3 POP DUP3 DUP3 SUB SWAP1 POP DUP2 DUP2 GT ISZERO PUSH2 0x40FC JUMPI PUSH2 0x40FB PUSH2 0x3AA3 JUMP JUMPDEST JUMPDEST SWAP3 SWAP2 POP POP JUMP JUMPDEST PUSH0 PUSH2 0x410C DUP3 PUSH2 0x30C4 JUMP JUMPDEST SWAP2 POP PUSH2 0x4117 DUP4 PUSH2 0x30C4 JUMP JUMPDEST SWAP3 POP DUP3 DUP3 MUL PUSH2 0x4125 DUP2 PUSH2 0x30C4 JUMP JUMPDEST SWAP2 POP DUP3 DUP3 DIV DUP5 EQ DUP4 ISZERO OR PUSH2 0x413C JUMPI PUSH2 0x413B PUSH2 0x3AA3 JUMP JUMPDEST JUMPDEST POP SWAP3 SWAP2 POP POP JUMP JUMPDEST PUSH0 DUP2 SWAP1 POP SWAP2 SWAP1 POP JUMP JUMPDEST PUSH2 0x415D PUSH2 0x4158 DUP3 PUSH2 0x30C4 JUMP JUMPDEST PUSH2 0x4143 JUMP JUMPDEST DUP3 MSTORE POP POP JUMP JUMPDEST PUSH0 DUP2 PUSH1 0x60 SHL SWAP1 POP SWAP2 SWAP1 POP JUMP JUMPDEST PUSH0 PUSH2 0x4179 DUP3 PUSH2 0x4163 JUMP JUMPDEST SWAP1 POP SWAP2 SWAP1 POP JUMP JUMPDEST PUSH0 PUSH2 0x418A DUP3 PUSH2 0x416F JUMP JUMPDEST SWAP1 POP SWAP2 SWAP1 POP JUMP JUMPDEST PUSH2 0x41A2 PUSH2 0x419D DUP3 PUSH2 0x3141 JUMP JUMPDEST PUSH2 0x4180 JUMP JUMPDEST DUP3 MSTORE POP POP JUMP JUMPDEST PUSH0 PUSH2 0x41B3 DUP3 DUP8 PUSH2 0x414C JUMP JUMPDEST PUSH1 0x20 DUP3 ADD SWAP2 POP PUSH2 0x41C3 DUP3 DUP7 PUSH2 0x414C JUMP JUMPDEST PUSH1 0x20 DUP3 ADD SWAP2 POP PUSH2 0x41D3 DUP3 DUP6 PUSH2 0x414C JUMP JUMPDEST PUSH1 0x20 DUP3 ADD SWAP2 POP PUSH2 0x41E3 DUP3 DUP5 PUSH2 0x4191 JUMP JUMPDEST PUSH1 0x14 DUP3 ADD SWAP2 POP DUP2 SWAP1 POP SWAP6 SWAP5 POP POP POP POP POP JUMP JUMPDEST PUSH0 PUSH1 0x40 DUP3 ADD SWAP1 POP PUSH2 0x4208 PUSH0 DUP4 ADD DUP6 PUSH2 0x3273 JUMP JUMPDEST PUSH2 0x4215 PUSH1 0x20 DUP4 ADD DUP5 PUSH2 0x3527 JUMP JUMPDEST SWAP4 SWAP3 POP POP POP JUMP JUMPDEST PUSH32 0x5061757361626C653A206E6F7420706175736564000000000000000000000000 PUSH0 DUP3 ADD MSTORE POP JUMP JUMPDEST PUSH0 PUSH2 0x4250 PUSH1 0x14 DUP4 PUSH2 0x33E1 JUMP JUMPDEST SWAP2 POP PUSH2 0x425B DUP3 PUSH2 0x421C JUMP JUMPDEST PUSH1 0x20 DUP3 ADD SWAP1 POP SWAP2 SWAP1 POP JUMP JUMPDEST PUSH0 PUSH1 0x20 DUP3 ADD SWAP1 POP DUP2 DUP2 SUB PUSH0 DUP4 ADD MSTORE PUSH2 0x427D DUP2 PUSH2 0x4244 JUMP JUMPDEST SWAP1 POP SWAP2 SWAP1 POP JUMP INVALID LOG2 PUSH5 0x6970667358 0x22 SLT KECCAK256 PUSH29 0xFE322A3FDB6C3CB250B37347D339C7DB2348DA2B18D47AF76A52D6459C JUMP LOG1 PUSH5 0x736F6C6343 STOP ADDMOD 0x1E STOP CALLER "
				},
				"gasEstimates": {
					"creation": {
						"codeDepositCost": "3416400",
						"executionCost": "infinite",
						"totalCost": "infinite"
					},
					"external": {
						"ADMIN_ROLE()": "370",
						"DEFAULT_ADMIN_ROLE()": "441",
						"GAMIFICATION_ROLE()": "370",
						"MAX_RECIPIENTS()": "370",
						"MAX_RED_ENVELOPE_AMOUNT()": "435",
						"MIN_TRANSFER_AMOUNT()": "415",
						"claimRedEnvelope(uint256)": "infinite",
						"emergencyWithdraw()": "infinite",
						"expireRedEnvelope(uint256)": "infinite",
						"getRedEnvelopeDetails(uint256)": "infinite",
						"getRoleAdmin(bytes32)": "infinite",
						"getTransactionDetails(uint256)": "infinite",
						"getUserP2PCount(address)": "2896",
						"getUserRedEnvelopeCount(address)": "2919",
						"getUserRedEnvelopes(address)": "infinite",
						"getUserTransactionHistory(address)": "infinite",
						"grantRole(bytes32,address)": "infinite",
						"hasClaimedRedEnvelope(uint256,address)": "3190",
						"hasRole(bytes32,address)": "3254",
						"p2pTransferCount(address)": "2890",
						"pause()": "infinite",
						"paused()": "2519",
						"redEnvelopeCount()": "2559",
						"redEnvelopeSentCount(address)": "2914",
						"redEnvelopes(uint256)": "infinite",
						"renounceRole(bytes32,address)": "infinite",
						"revokeRole(bytes32,address)": "infinite",
						"sendP2P(address)": "infinite",
						"sendRedEnvelope(address[],uint256,bool,string)": "infinite",
						"setGamificationContract(address)": "infinite",
						"setMaxRedEnvelopeAmount(uint256)": "3223",
						"supportsInterface(bytes4)": "764",
						"totalTransactions()": "2558",
						"transactions(uint256)": "infinite",
						"unpause()": "infinite",
						"userRedEnvelopes(address,uint256)": "infinite",
						"userTransactions(address,uint256)": "infinite"
					},
					"internal": {
						"_generateRandomAmounts(uint256,uint256)": "infinite"
					}
				},
				"methodIdentifiers": {
					"ADMIN_ROLE()": "75b238fc",
					"DEFAULT_ADMIN_ROLE()": "a217fddf",
					"GAMIFICATION_ROLE()": "c08f3954",
					"MAX_RECIPIENTS()": "a6980ce2",
					"MAX_RED_ENVELOPE_AMOUNT()": "dfeb662a",
					"MIN_TRANSFER_AMOUNT()": "3c3dbbc7",
					"claimRedEnvelope(uint256)": "783a250e",
					"emergencyWithdraw()": "db2e21bc",
					"expireRedEnvelope(uint256)": "fc8d7a4b",
					"getRedEnvelopeDetails(uint256)": "1bf86ea6",
					"getRoleAdmin(bytes32)": "248a9ca3",
					"getTransactionDetails(uint256)": "0fa683d3",
					"getUserP2PCount(address)": "b30f8a13",
					"getUserRedEnvelopeCount(address)": "68745143",
					"getUserRedEnvelopes(address)": "cb985369",
					"getUserTransactionHistory(address)": "c51309db",
					"grantRole(bytes32,address)": "2f2ff15d",
					"hasClaimedRedEnvelope(uint256,address)": "66a0a329",
					"hasRole(bytes32,address)": "91d14854",
					"p2pTransferCount(address)": "dfb8b314",
					"pause()": "8456cb59",
					"paused()": "5c975abb",
					"redEnvelopeCount()": "42c1b2d0",
					"redEnvelopeSentCount(address)": "73a458bd",
					"redEnvelopes(uint256)": "d5f9f232",
					"renounceRole(bytes32,address)": "36568abe",
					"revokeRole(bytes32,address)": "d547741f",
					"sendP2P(address)": "a17eda18",
					"sendRedEnvelope(address[],uint256,bool,string)": "936df0d7",
					"setGamificationContract(address)": "8a9620ce",
					"setMaxRedEnvelopeAmount(uint256)": "d7262d56",
					"supportsInterface(bytes4)": "01ffc9a7",
					"totalTransactions()": "b9a60038",
					"transactions(uint256)": "9ace38c2",
					"unpause()": "3f4ba83a",
					"userRedEnvelopes(address,uint256)": "b44f0297",
					"userTransactions(address,uint256)": "b842ec44"
				}
			},
			"storageLayout": {
				"storage": [
					{
						"astId": 498,
						"contract": "P2PTransfer.sol:P2PTransfer",
						"label": "_status",
						"offset": 0,
						"slot": "0",
						"type": "t_uint256"
					},
					{
						"astId": 397,
						"contract": "P2PTransfer.sol:P2PTransfer",
						"label": "_paused",
						"offset": 0,
						"slot": "1",
						"type": "t_bool"
					},
					{
						"astId": 27,
						"contract": "P2PTransfer.sol:P2PTransfer",
						"label": "_roles",
						"offset": 0,
						"slot": "2",
						"type": "t_mapping(t_bytes32,t_struct(RoleData)22_storage)"
					},
					{
						"astId": 678,
						"contract": "P2PTransfer.sol:P2PTransfer",
						"label": "redEnvelopeCount",
						"offset": 0,
						"slot": "3",
						"type": "t_uint256"
					},
					{
						"astId": 680,
						"contract": "P2PTransfer.sol:P2PTransfer",
						"label": "totalTransactions",
						"offset": 0,
						"slot": "4",
						"type": "t_uint256"
					},
					{
						"astId": 685,
						"contract": "P2PTransfer.sol:P2PTransfer",
						"label": "redEnvelopes",
						"offset": 0,
						"slot": "5",
						"type": "t_mapping(t_uint256,t_struct(RedEnvelope)676_storage)"
					},
					{
						"astId": 690,
						"contract": "P2PTransfer.sol:P2PTransfer",
						"label": "transactions",
						"offset": 0,
						"slot": "6",
						"type": "t_mapping(t_uint256,t_struct(Transaction)651_storage)"
					},
					{
						"astId": 695,
						"contract": "P2PTransfer.sol:P2PTransfer",
						"label": "userTransactions",
						"offset": 0,
						"slot": "7",
						"type": "t_mapping(t_address,t_array(t_uint256)dyn_storage)"
					},
					{
						"astId": 700,
						"contract": "P2PTransfer.sol:P2PTransfer",
						"label": "userRedEnvelopes",
						"offset": 0,
						"slot": "8",
						"type": "t_mapping(t_address,t_array(t_uint256)dyn_storage)"
					},
					{
						"astId": 704,
						"contract": "P2PTransfer.sol:P2PTransfer",
						"label": "p2pTransferCount",
						"offset": 0,
						"slot": "9",
						"type": "t_mapping(t_address,t_uint256)"
					},
					{
						"astId": 708,
						"contract": "P2PTransfer.sol:P2PTransfer",
						"label": "redEnvelopeSentCount",
						"offset": 0,
						"slot": "10",
						"type": "t_mapping(t_address,t_uint256)"
					}
				],
				"types": {
					"t_address": {
						"encoding": "inplace",
						"label": "address",
						"numberOfBytes": "20"
					},
					"t_array(t_address)dyn_storage": {
						"base": "t_address",
						"encoding": "dynamic_array",
						"label": "address[]",
						"numberOfBytes": "32"
					},
					"t_array(t_uint256)dyn_storage": {
						"base": "t_uint256",
						"encoding": "dynamic_array",
						"label": "uint256[]",
						"numberOfBytes": "32"
					},
					"t_bool": {
						"encoding": "inplace",
						"label": "bool",
						"numberOfBytes": "1"
					},
					"t_bytes32": {
						"encoding": "inplace",
						"label": "bytes32",
						"numberOfBytes": "32"
					},
					"t_mapping(t_address,t_array(t_uint256)dyn_storage)": {
						"encoding": "mapping",
						"key": "t_address",
						"label": "mapping(address => uint256[])",
						"numberOfBytes": "32",
						"value": "t_array(t_uint256)dyn_storage"
					},
					"t_mapping(t_address,t_bool)": {
						"encoding": "mapping",
						"key": "t_address",
						"label": "mapping(address => bool)",
						"numberOfBytes": "32",
						"value": "t_bool"
					},
					"t_mapping(t_address,t_uint256)": {
						"encoding": "mapping",
						"key": "t_address",
						"label": "mapping(address => uint256)",
						"numberOfBytes": "32",
						"value": "t_uint256"
					},
					"t_mapping(t_bytes32,t_struct(RoleData)22_storage)": {
						"encoding": "mapping",
						"key": "t_bytes32",
						"label": "mapping(bytes32 => struct AccessControl.RoleData)",
						"numberOfBytes": "32",
						"value": "t_struct(RoleData)22_storage"
					},
					"t_mapping(t_uint256,t_struct(RedEnvelope)676_storage)": {
						"encoding": "mapping",
						"key": "t_uint256",
						"label": "mapping(uint256 => struct P2PTransfer.RedEnvelope)",
						"numberOfBytes": "32",
						"value": "t_struct(RedEnvelope)676_storage"
					},
					"t_mapping(t_uint256,t_struct(Transaction)651_storage)": {
						"encoding": "mapping",
						"key": "t_uint256",
						"label": "mapping(uint256 => struct P2PTransfer.Transaction)",
						"numberOfBytes": "32",
						"value": "t_struct(Transaction)651_storage"
					},
					"t_string_storage": {
						"encoding": "bytes",
						"label": "string",
						"numberOfBytes": "32"
					},
					"t_struct(RedEnvelope)676_storage": {
						"encoding": "inplace",
						"label": "struct P2PTransfer.RedEnvelope",
						"members": [
							{
								"astId": 653,
								"contract": "P2PTransfer.sol:P2PTransfer",
								"label": "sender",
								"offset": 0,
								"slot": "0",
								"type": "t_address"
							},
							{
								"astId": 656,
								"contract": "P2PTransfer.sol:P2PTransfer",
								"label": "recipients",
								"offset": 0,
								"slot": "1",
								"type": "t_array(t_address)dyn_storage"
							},
							{
								"astId": 658,
								"contract": "P2PTransfer.sol:P2PTransfer",
								"label": "totalAmount",
								"offset": 0,
								"slot": "2",
								"type": "t_uint256"
							},
							{
								"astId": 661,
								"contract": "P2PTransfer.sol:P2PTransfer",
								"label": "amounts",
								"offset": 0,
								"slot": "3",
								"type": "t_array(t_uint256)dyn_storage"
							},
							{
								"astId": 663,
								"contract": "P2PTransfer.sol:P2PTransfer",
								"label": "isRandom",
								"offset": 0,
								"slot": "4",
								"type": "t_bool"
							},
							{
								"astId": 667,
								"contract": "P2PTransfer.sol:P2PTransfer",
								"label": "claimed",
								"offset": 0,
								"slot": "5",
								"type": "t_mapping(t_address,t_bool)"
							},
							{
								"astId": 669,
								"contract": "P2PTransfer.sol:P2PTransfer",
								"label": "claimedCount",
								"offset": 0,
								"slot": "6",
								"type": "t_uint256"
							},
							{
								"astId": 671,
								"contract": "P2PTransfer.sol:P2PTransfer",
								"label": "createdAt",
								"offset": 0,
								"slot": "7",
								"type": "t_uint256"
							},
							{
								"astId": 673,
								"contract": "P2PTransfer.sol:P2PTransfer",
								"label": "message",
								"offset": 0,
								"slot": "8",
								"type": "t_string_storage"
							},
							{
								"astId": 675,
								"contract": "P2PTransfer.sol:P2PTransfer",
								"label": "isActive",
								"offset": 0,
								"slot": "9",
								"type": "t_bool"
							}
						],
						"numberOfBytes": "320"
					},
					"t_struct(RoleData)22_storage": {
						"encoding": "inplace",
						"label": "struct AccessControl.RoleData",
						"members": [
							{
								"astId": 19,
								"contract": "P2PTransfer.sol:P2PTransfer",
								"label": "hasRole",
								"offset": 0,
								"slot": "0",
								"type": "t_mapping(t_address,t_bool)"
							},
							{
								"astId": 21,
								"contract": "P2PTransfer.sol:P2PTransfer",
								"label": "adminRole",
								"offset": 0,
								"slot": "1",
								"type": "t_bytes32"
							}
						],
						"numberOfBytes": "64"
					},
					"t_struct(Transaction)651_storage": {
						"encoding": "inplace",
						"label": "struct P2PTransfer.Transaction",
						"members": [
							{
								"astId": 642,
								"contract": "P2PTransfer.sol:P2PTransfer",
								"label": "sender",
								"offset": 0,
								"slot": "0",
								"type": "t_address"
							},
							{
								"astId": 644,
								"contract": "P2PTransfer.sol:P2PTransfer",
								"label": "receiver",
								"offset": 0,
								"slot": "1",
								"type": "t_address"
							},
							{
								"astId": 646,
								"contract": "P2PTransfer.sol:P2PTransfer",
								"label": "amount",
								"offset": 0,
								"slot": "2",
								"type": "t_uint256"
							},
							{
								"astId": 648,
								"contract": "P2PTransfer.sol:P2PTransfer",
								"label": "timestamp",
								"offset": 0,
								"slot": "3",
								"type": "t_uint256"
							},
							{
								"astId": 650,
								"contract": "P2PTransfer.sol:P2PTransfer",
								"label": "transactionType",
								"offset": 0,
								"slot": "4",
								"type": "t_string_storage"
							}
						],
						"numberOfBytes": "160"
					},
					"t_uint256": {
						"encoding": "inplace",
						"label": "uint256",
						"numberOfBytes": "32"
					}
				}
			},
			"userdoc": {
				"kind": "user",
				"methods": {},
				"notice": "This contract manages P2P transfers and red envelope distribution",
				"version": 1
			}
		}
	}
}