{
	"ChamaCore.sol": {
		"ChamaCore": {
			"abi": [
				{
					"inputs": [],
					"stateMutability": "nonpayable",
					"type": "constructor"
				},
				{
					"inputs": [],
					"name": "AccessControlBadConfirmation",
					"type": "error"
				},
				{
					"inputs": [
						{
							"internalType": "address",
							"name": "account",
							"type": "address"
						},
						{
							"internalType": "bytes32",
							"name": "neededRole",
							"type": "bytes32"
						}
					],
					"name": "AccessControlUnauthorizedAccount",
					"type": "error"
				},
				{
					"inputs": [],
					"name": "AlreadyContributedThisCycle",
					"type": "error"
				},
				{
					"inputs": [],
					"name": "AlreadyMember",
					"type": "error"
				},
				{
					"inputs": [],
					"name": "BelowMinimumContribution",
					"type": "error"
				},
				{
					"inputs": [],
					"name": "ChamaAlreadyStarted",
					"type": "error"
				},
				{
					"inputs": [],
					"name": "ChamaFull",
					"type": "error"
				},
				{
					"inputs": [],
					"name": "ChamaNotActive",
					"type": "error"
				},
				{
					"inputs": [],
					"name": "ChamaNotFound",
					"type": "error"
				},
				{
					"inputs": [],
					"name": "CycleNotComplete",
					"type": "error"
				},
				{
					"inputs": [],
					"name": "GracePeriodNotOver",
					"type": "error"
				},
				{
					"inputs": [],
					"name": "InsufficientCollateral",
					"type": "error"
				},
				{
					"inputs": [],
					"name": "InvalidContributionAmount",
					"type": "error"
				},
				{
					"inputs": [],
					"name": "InvalidCycleDuration",
					"type": "error"
				},
				{
					"inputs": [],
					"name": "InvalidMemberCount",
					"type": "error"
				},
				{
					"inputs": [],
					"name": "NotChamaCreator",
					"type": "error"
				},
				{
					"inputs": [],
					"name": "NotMember",
					"type": "error"
				},
				{
					"anonymous": false,
					"inputs": [
						{
							"indexed": true,
							"internalType": "uint256",
							"name": "chamaId",
							"type": "uint256"
						}
					],
					"name": "ChamaClosed",
					"type": "event"
				},
				{
					"anonymous": false,
					"inputs": [
						{
							"indexed": true,
							"internalType": "uint256",
							"name": "chamaId",
							"type": "uint256"
						}
					],
					"name": "ChamaCompleted",
					"type": "event"
				},
				{
					"anonymous": false,
					"inputs": [
						{
							"indexed": true,
							"internalType": "uint256",
							"name": "chamaId",
							"type": "uint256"
						},
						{
							"indexed": true,
							"internalType": "address",
							"name": "member",
							"type": "address"
						},
						{
							"indexed": false,
							"internalType": "uint256",
							"name": "cycleNumber",
							"type": "uint256"
						}
					],
					"name": "ChamaContributionMissed",
					"type": "event"
				},
				{
					"anonymous": false,
					"inputs": [
						{
							"indexed": true,
							"internalType": "uint256",
							"name": "chamaId",
							"type": "uint256"
						},
						{
							"indexed": false,
							"internalType": "string",
							"name": "name",
							"type": "string"
						},
						{
							"indexed": true,
							"internalType": "address",
							"name": "creator",
							"type": "address"
						},
						{
							"indexed": false,
							"internalType": "uint256",
							"name": "contributionAmount",
							"type": "uint256"
						}
					],
					"name": "ChamaCreated",
					"type": "event"
				},
				{
					"anonymous": false,
					"inputs": [
						{
							"indexed": true,
							"internalType": "uint256",
							"name": "chamaId",
							"type": "uint256"
						},
						{
							"indexed": false,
							"internalType": "uint256",
							"name": "cycleNumber",
							"type": "uint256"
						}
					],
					"name": "ChamaCycleCompleted",
					"type": "event"
				},
				{
					"anonymous": false,
					"inputs": [
						{
							"indexed": true,
							"internalType": "uint256",
							"name": "chamaId",
							"type": "uint256"
						},
						{
							"indexed": true,
							"internalType": "address",
							"name": "recipient",
							"type": "address"
						},
						{
							"indexed": false,
							"internalType": "uint256",
							"name": "amount",
							"type": "uint256"
						},
						{
							"indexed": false,
							"internalType": "uint256",
							"name": "cycleNumber",
							"type": "uint256"
						}
					],
					"name": "ChamaCyclePayout",
					"type": "event"
				},
				{
					"anonymous": false,
					"inputs": [
						{
							"indexed": true,
							"internalType": "uint256",
							"name": "chamaId",
							"type": "uint256"
						},
						{
							"indexed": true,
							"internalType": "address",
							"name": "member",
							"type": "address"
						}
					],
					"name": "ChamaJoined",
					"type": "event"
				},
				{
					"anonymous": false,
					"inputs": [
						{
							"indexed": true,
							"internalType": "uint256",
							"name": "chamaId",
							"type": "uint256"
						},
						{
							"indexed": true,
							"internalType": "address",
							"name": "starter",
							"type": "address"
						},
						{
							"indexed": false,
							"internalType": "uint256",
							"name": "timestamp",
							"type": "uint256"
						}
					],
					"name": "ChamaStarted",
					"type": "event"
				},
				{
					"anonymous": false,
					"inputs": [
						{
							"indexed": true,
							"internalType": "uint256",
							"name": "chamaId",
							"type": "uint256"
						},
						{
							"indexed": true,
							"internalType": "address",
							"name": "member",
							"type": "address"
						},
						{
							"indexed": false,
							"internalType": "uint256",
							"name": "amount",
							"type": "uint256"
						}
					],
					"name": "CollateralDeposited",
					"type": "event"
				},
				{
					"anonymous": false,
					"inputs": [
						{
							"indexed": true,
							"internalType": "uint256",
							"name": "chamaId",
							"type": "uint256"
						},
						{
							"indexed": true,
							"internalType": "address",
							"name": "member",
							"type": "address"
						},
						{
							"indexed": false,
							"internalType": "uint256",
							"name": "amount",
							"type": "uint256"
						}
					],
					"name": "CollateralForfeited",
					"type": "event"
				},
				{
					"anonymous": false,
					"inputs": [
						{
							"indexed": true,
							"internalType": "uint256",
							"name": "chamaId",
							"type": "uint256"
						},
						{
							"indexed": true,
							"internalType": "address",
							"name": "member",
							"type": "address"
						},
						{
							"indexed": false,
							"internalType": "uint256",
							"name": "amount",
							"type": "uint256"
						}
					],
					"name": "CollateralReturned",
					"type": "event"
				},
				{
					"anonymous": false,
					"inputs": [
						{
							"indexed": true,
							"internalType": "uint256",
							"name": "chamaId",
							"type": "uint256"
						},
						{
							"indexed": true,
							"internalType": "address",
							"name": "user",
							"type": "address"
						},
						{
							"indexed": false,
							"internalType": "uint256",
							"name": "amount",
							"type": "uint256"
						}
					],
					"name": "ContributionMade",
					"type": "event"
				},
				{
					"anonymous": false,
					"inputs": [
						{
							"indexed": false,
							"internalType": "address",
							"name": "account",
							"type": "address"
						}
					],
					"name": "Paused",
					"type": "event"
				},
				{
					"anonymous": false,
					"inputs": [
						{
							"indexed": true,
							"internalType": "uint256",
							"name": "chamaId",
							"type": "uint256"
						},
						{
							"indexed": true,
							"internalType": "address",
							"name": "recipient",
							"type": "address"
						},
						{
							"indexed": false,
							"internalType": "uint256",
							"name": "amount",
							"type": "uint256"
						},
						{
							"indexed": false,
							"internalType": "uint256",
							"name": "cycleNumber",
							"type": "uint256"
						}
					],
					"name": "PayoutProcessed",
					"type": "event"
				},
				{
					"anonymous": false,
					"inputs": [
						{
							"indexed": true,
							"internalType": "bytes32",
							"name": "role",
							"type": "bytes32"
						},
						{
							"indexed": true,
							"internalType": "bytes32",
							"name": "previousAdminRole",
							"type": "bytes32"
						},
						{
							"indexed": true,
							"internalType": "bytes32",
							"name": "newAdminRole",
							"type": "bytes32"
						}
					],
					"name": "RoleAdminChanged",
					"type": "event"
				},
				{
					"anonymous": false,
					"inputs": [
						{
							"indexed": true,
							"internalType": "bytes32",
							"name": "role",
							"type": "bytes32"
						},
						{
							"indexed": true,
							"internalType": "address",
							"name": "account",
							"type": "address"
						},
						{
							"indexed": true,
							"internalType": "address",
							"name": "sender",
							"type": "address"
						}
					],
					"name": "RoleGranted",
					"type": "event"
				},
				{
					"anonymous": false,
					"inputs": [
						{
							"indexed": true,
							"internalType": "bytes32",
							"name": "role",
							"type": "bytes32"
						},
						{
							"indexed": true,
							"internalType": "address",
							"name": "account",
							"type": "address"
						},
						{
							"indexed": true,
							"internalType": "address",
							"name": "sender",
							"type": "address"
						}
					],
					"name": "RoleRevoked",
					"type": "event"
				},
				{
					"anonymous": false,
					"inputs": [
						{
							"indexed": false,
							"internalType": "address",
							"name": "account",
							"type": "address"
						}
					],
					"name": "Unpaused",
					"type": "event"
				},
				{
					"inputs": [],
					"name": "ADMIN_ROLE",
					"outputs": [
						{
							"internalType": "bytes32",
							"name": "",
							"type": "bytes32"
						}
					],
					"stateMutability": "view",
					"type": "function"
				},
				{
					"inputs": [],
					"name": "DEFAULT_ADMIN_ROLE",
					"outputs": [
						{
							"internalType": "bytes32",
							"name": "",
							"type": "bytes32"
						}
					],
					"stateMutability": "view",
					"type": "function"
				},
				{
					"inputs": [],
					"name": "GAMIFICATION_ROLE",
					"outputs": [
						{
							"internalType": "bytes32",
							"name": "",
							"type": "bytes32"
						}
					],
					"stateMutability": "view",
					"type": "function"
				},
				{
					"inputs": [],
					"name": "chamaCount",
					"outputs": [
						{
							"internalType": "uint256",
							"name": "",
							"type": "uint256"
						}
					],
					"stateMutability": "view",
					"type": "function"
				},
				{
					"inputs": [
						{
							"internalType": "uint256",
							"name": "",
							"type": "uint256"
						}
					],
					"name": "chamas",
					"outputs": [
						{
							"internalType": "string",
							"name": "name",
							"type": "string"
						},
						{
							"internalType": "uint256",
							"name": "contributionAmount",
							"type": "uint256"
						},
						{
							"internalType": "uint256",
							"name": "cycleDuration",
							"type": "uint256"
						},
						{
							"internalType": "uint256",
							"name": "maxMembers",
							"type": "uint256"
						},
						{
							"internalType": "bool",
							"name": "active",
							"type": "bool"
						},
						{
							"internalType": "uint256",
							"name": "currentCycle",
							"type": "uint256"
						},
						{
							"internalType": "uint256",
							"name": "currentRecipientIndex",
							"type": "uint256"
						},
						{
							"internalType": "uint256",
							"name": "lastCycleTimestamp",
							"type": "uint256"
						},
						{
							"internalType": "uint256",
							"name": "totalPool",
							"type": "uint256"
						},
						{
							"internalType": "uint256",
							"name": "totalCollateral",
							"type": "uint256"
						}
					],
					"stateMutability": "view",
					"type": "function"
				},
				{
					"inputs": [
						{
							"internalType": "uint256",
							"name": "",
							"type": "uint256"
						},
						{
							"internalType": "address",
							"name": "",
							"type": "address"
						},
						{
							"internalType": "uint256",
							"name": "",
							"type": "uint256"
						}
					],
					"name": "contributions",
					"outputs": [
						{
							"internalType": "address",
							"name": "contributor",
							"type": "address"
						},
						{
							"internalType": "uint256",
							"name": "amount",
							"type": "uint256"
						},
						{
							"internalType": "uint256",
							"name": "timestamp",
							"type": "uint256"
						}
					],
					"stateMutability": "view",
					"type": "function"
				},
				{
					"inputs": [
						{
							"internalType": "string",
							"name": "_name",
							"type": "string"
						},
						{
							"internalType": "uint256",
							"name": "_contributionAmount",
							"type": "uint256"
						},
						{
							"internalType": "uint256",
							"name": "_cycleDuration",
							"type": "uint256"
						},
						{
							"internalType": "uint256",
							"name": "_maxMembers",
							"type": "uint256"
						}
					],
					"name": "createChama",
					"outputs": [],
					"stateMutability": "payable",
					"type": "function"
				},
				{
					"inputs": [
						{
							"internalType": "uint256",
							"name": "_chamaId",
							"type": "uint256"
						}
					],
					"name": "getChamaDetails",
					"outputs": [
						{
							"internalType": "string",
							"name": "name",
							"type": "string"
						},
						{
							"internalType": "uint256",
							"name": "contributionAmount",
							"type": "uint256"
						},
						{
							"internalType": "uint256",
							"name": "cycleDuration",
							"type": "uint256"
						},
						{
							"internalType": "uint256",
							"name": "maxMembers",
							"type": "uint256"
						},
						{
							"internalType": "uint256",
							"name": "currentMembers",
							"type": "uint256"
						},
						{
							"internalType": "bool",
							"name": "active",
							"type": "bool"
						},
						{
							"internalType": "uint256",
							"name": "currentCycle",
							"type": "uint256"
						},
						{
							"internalType": "uint256",
							"name": "totalPool",
							"type": "uint256"
						},
						{
							"internalType": "uint256",
							"name": "totalCollateral",
							"type": "uint256"
						}
					],
					"stateMutability": "view",
					"type": "function"
				},
				{
					"inputs": [
						{
							"internalType": "uint256",
							"name": "_chamaId",
							"type": "uint256"
						}
					],
					"name": "getChamaMembers",
					"outputs": [
						{
							"internalType": "address[]",
							"name": "",
							"type": "address[]"
						}
					],
					"stateMutability": "view",
					"type": "function"
				},
				{
					"inputs": [
						{
							"internalType": "uint256",
							"name": "_chamaId",
							"type": "uint256"
						},
						{
							"internalType": "uint256",
							"name": "_cycle",
							"type": "uint256"
						}
					],
					"name": "getCycleInfo",
					"outputs": [
						{
							"internalType": "uint256",
							"name": "cycleContributions",
							"type": "uint256"
						},
						{
							"internalType": "address",
							"name": "recipient",
							"type": "address"
						},
						{
							"internalType": "bool",
							"name": "completed",
							"type": "bool"
						}
					],
					"stateMutability": "view",
					"type": "function"
				},
				{
					"inputs": [
						{
							"internalType": "uint256",
							"name": "_chamaId",
							"type": "uint256"
						},
						{
							"internalType": "address",
							"name": "_member",
							"type": "address"
						}
					],
					"name": "getMemberCollateral",
					"outputs": [
						{
							"internalType": "uint256",
							"name": "",
							"type": "uint256"
						}
					],
					"stateMutability": "view",
					"type": "function"
				},
				{
					"inputs": [
						{
							"internalType": "uint256",
							"name": "_chamaId",
							"type": "uint256"
						},
						{
							"internalType": "address",
							"name": "_member",
							"type": "address"
						}
					],
					"name": "getMemberContributions",
					"outputs": [
						{
							"components": [
								{
									"internalType": "address",
									"name": "contributor",
									"type": "address"
								},
								{
									"internalType": "uint256",
									"name": "amount",
									"type": "uint256"
								},
								{
									"internalType": "uint256",
									"name": "timestamp",
									"type": "uint256"
								}
							],
							"internalType": "struct ChamaCore.Contribution[]",
							"name": "",
							"type": "tuple[]"
						}
					],
					"stateMutability": "view",
					"type": "function"
				},
				{
					"inputs": [
						{
							"internalType": "uint256",
							"name": "_chamaId",
							"type": "uint256"
						},
						{
							"internalType": "address",
							"name": "_member",
							"type": "address"
						}
					],
					"name": "getMemberPayoutPosition",
					"outputs": [
						{
							"internalType": "uint256",
							"name": "",
							"type": "uint256"
						}
					],
					"stateMutability": "view",
					"type": "function"
				},
				{
					"inputs": [
						{
							"internalType": "bytes32",
							"name": "role",
							"type": "bytes32"
						}
					],
					"name": "getRoleAdmin",
					"outputs": [
						{
							"internalType": "bytes32",
							"name": "",
							"type": "bytes32"
						}
					],
					"stateMutability": "view",
					"type": "function"
				},
				{
					"inputs": [
						{
							"internalType": "uint256",
							"name": "_chamaId",
							"type": "uint256"
						}
					],
					"name": "getTotalCollateral",
					"outputs": [
						{
							"internalType": "uint256",
							"name": "",
							"type": "uint256"
						}
					],
					"stateMutability": "view",
					"type": "function"
				},
				{
					"inputs": [
						{
							"internalType": "bytes32",
							"name": "role",
							"type": "bytes32"
						},
						{
							"internalType": "address",
							"name": "account",
							"type": "address"
						}
					],
					"name": "grantRole",
					"outputs": [],
					"stateMutability": "nonpayable",
					"type": "function"
				},
				{
					"inputs": [
						{
							"internalType": "uint256",
							"name": "",
							"type": "uint256"
						},
						{
							"internalType": "address",
							"name": "",
							"type": "address"
						}
					],
					"name": "hasContributedThisCycle",
					"outputs": [
						{
							"internalType": "bool",
							"name": "",
							"type": "bool"
						}
					],
					"stateMutability": "view",
					"type": "function"
				},
				{
					"inputs": [
						{
							"internalType": "uint256",
							"name": "_chamaId",
							"type": "uint256"
						},
						{
							"internalType": "address",
							"name": "_member",
							"type": "address"
						}
					],
					"name": "hasMemberReceivedPayout",
					"outputs": [
						{
							"internalType": "bool",
							"name": "",
							"type": "bool"
						}
					],
					"stateMutability": "view",
					"type": "function"
				},
				{
					"inputs": [
						{
							"internalType": "bytes32",
							"name": "role",
							"type": "bytes32"
						},
						{
							"internalType": "address",
							"name": "account",
							"type": "address"
						}
					],
					"name": "hasRole",
					"outputs": [
						{
							"internalType": "bool",
							"name": "",
							"type": "bool"
						}
					],
					"stateMutability": "view",
					"type": "function"
				},
				{
					"inputs": [
						{
							"internalType": "uint256",
							"name": "_chamaId",
							"type": "uint256"
						},
						{
							"internalType": "address",
							"name": "_member",
							"type": "address"
						}
					],
					"name": "isCollateralReturned",
					"outputs": [
						{
							"internalType": "bool",
							"name": "",
							"type": "bool"
						}
					],
					"stateMutability": "view",
					"type": "function"
				},
				{
					"inputs": [
						{
							"internalType": "uint256",
							"name": "_chamaId",
							"type": "uint256"
						}
					],
					"name": "joinChama",
					"outputs": [],
					"stateMutability": "payable",
					"type": "function"
				},
				{
					"inputs": [
						{
							"internalType": "uint256",
							"name": "",
							"type": "uint256"
						},
						{
							"internalType": "address",
							"name": "",
							"type": "address"
						}
					],
					"name": "lastContributionTimestamp",
					"outputs": [
						{
							"internalType": "uint256",
							"name": "",
							"type": "uint256"
						}
					],
					"stateMutability": "view",
					"type": "function"
				},
				{
					"inputs": [],
					"name": "pause",
					"outputs": [],
					"stateMutability": "nonpayable",
					"type": "function"
				},
				{
					"inputs": [],
					"name": "paused",
					"outputs": [
						{
							"internalType": "bool",
							"name": "",
							"type": "bool"
						}
					],
					"stateMutability": "view",
					"type": "function"
				},
				{
					"inputs": [
						{
							"internalType": "uint256",
							"name": "_chamaId",
							"type": "uint256"
						}
					],
					"name": "processMissedContributions",
					"outputs": [],
					"stateMutability": "nonpayable",
					"type": "function"
				},
				{
					"inputs": [
						{
							"internalType": "bytes32",
							"name": "role",
							"type": "bytes32"
						},
						{
							"internalType": "address",
							"name": "callerConfirmation",
							"type": "address"
						}
					],
					"name": "renounceRole",
					"outputs": [],
					"stateMutability": "nonpayable",
					"type": "function"
				},
				{
					"inputs": [
						{
							"internalType": "bytes32",
							"name": "role",
							"type": "bytes32"
						},
						{
							"internalType": "address",
							"name": "account",
							"type": "address"
						}
					],
					"name": "revokeRole",
					"outputs": [],
					"stateMutability": "nonpayable",
					"type": "function"
				},
				{
					"inputs": [
						{
							"internalType": "address",
							"name": "_gamificationContract",
							"type": "address"
						}
					],
					"name": "setGamificationContract",
					"outputs": [],
					"stateMutability": "nonpayable",
					"type": "function"
				},
				{
					"inputs": [
						{
							"internalType": "uint256",
							"name": "_chamaId",
							"type": "uint256"
						}
					],
					"name": "stackBTC",
					"outputs": [],
					"stateMutability": "payable",
					"type": "function"
				},
				{
					"inputs": [
						{
							"internalType": "uint256",
							"name": "_chamaId",
							"type": "uint256"
						}
					],
					"name": "startChama",
					"outputs": [],
					"stateMutability": "nonpayable",
					"type": "function"
				},
				{
					"inputs": [
						{
							"internalType": "bytes4",
							"name": "interfaceId",
							"type": "bytes4"
						}
					],
					"name": "supportsInterface",
					"outputs": [
						{
							"internalType": "bool",
							"name": "",
							"type": "bool"
						}
					],
					"stateMutability": "view",
					"type": "function"
				},
				{
					"inputs": [],
					"name": "unpause",
					"outputs": [],
					"stateMutability": "nonpayable",
					"type": "function"
				}
			],
			"devdoc": {
				"details": "Core chama functionality - creation, joining, contributions, and payouts",
				"errors": {
					"AccessControlBadConfirmation()": [
						{
							"details": "The caller of a function is not the expected one. NOTE: Don't confuse with {AccessControlUnauthorizedAccount}."
						}
					],
					"AccessControlUnauthorizedAccount(address,bytes32)": [
						{
							"details": "The `account` is missing a role."
						}
					]
				},
				"events": {
					"Paused(address)": {
						"details": "Emitted when the pause is triggered by `account`."
					},
					"RoleAdminChanged(bytes32,bytes32,bytes32)": {
						"details": "Emitted when `newAdminRole` is set as ``role``'s admin role, replacing `previousAdminRole` `DEFAULT_ADMIN_ROLE` is the starting admin for all roles, despite {RoleAdminChanged} not being emitted to signal this."
					},
					"RoleGranted(bytes32,address,address)": {
						"details": "Emitted when `account` is granted `role`. `sender` is the account that originated the contract call. This account bears the admin role (for the granted role). Expected in cases where the role was granted using the internal {AccessControl-_grantRole}."
					},
					"RoleRevoked(bytes32,address,address)": {
						"details": "Emitted when `account` is revoked `role`. `sender` is the account that originated the contract call:   - if using `revokeRole`, it is the admin role bearer   - if using `renounceRole`, it is the role bearer (i.e. `account`)"
					},
					"Unpaused(address)": {
						"details": "Emitted when the pause is lifted by `account`."
					}
				},
				"kind": "dev",
				"methods": {
					"createChama(string,uint256,uint256,uint256)": {
						"details": "Create a new chama",
						"params": {
							"_contributionAmount": "Required contribution amount per cycle",
							"_cycleDuration": "Duration of each cycle in seconds",
							"_maxMembers": "Maximum number of members allowed",
							"_name": "Name of the chama"
						}
					},
					"getRoleAdmin(bytes32)": {
						"details": "Returns the admin role that controls `role`. See {grantRole} and {revokeRole}. To change a role's admin, use {_setRoleAdmin}."
					},
					"grantRole(bytes32,address)": {
						"details": "Grants `role` to `account`. If `account` had not been already granted `role`, emits a {RoleGranted} event. Requirements: - the caller must have ``role``'s admin role. May emit a {RoleGranted} event."
					},
					"hasRole(bytes32,address)": {
						"details": "Returns `true` if `account` has been granted `role`."
					},
					"joinChama(uint256)": {
						"details": "Join an existing chama",
						"params": {
							"_chamaId": "ID of the chama to join"
						}
					},
					"paused()": {
						"details": "Returns true if the contract is paused, and false otherwise."
					},
					"processMissedContributions(uint256)": {
						"details": "Emergency function to process missed contributions",
						"params": {
							"_chamaId": "ID of the chama"
						}
					},
					"renounceRole(bytes32,address)": {
						"details": "Revokes `role` from the calling account. Roles are often managed via {grantRole} and {revokeRole}: this function's purpose is to provide a mechanism for accounts to lose their privileges if they are compromised (such as when a trusted device is misplaced). If the calling account had been revoked `role`, emits a {RoleRevoked} event. Requirements: - the caller must be `callerConfirmation`. May emit a {RoleRevoked} event."
					},
					"revokeRole(bytes32,address)": {
						"details": "Revokes `role` from `account`. If `account` had been granted `role`, emits a {RoleRevoked} event. Requirements: - the caller must have ``role``'s admin role. May emit a {RoleRevoked} event."
					},
					"stackBTC(uint256)": {
						"details": "Make a contribution (stack BTC)",
						"params": {
							"_chamaId": "ID of the chama"
						}
					},
					"startChama(uint256)": {
						"details": "Manually start chama (one-time only, by creator)",
						"params": {
							"_chamaId": "ID of the chama to start"
						}
					},
					"supportsInterface(bytes4)": {
						"details": "Returns true if this contract implements the interface defined by `interfaceId`. See the corresponding https://eips.ethereum.org/EIPS/eip-165#how-interfaces-are-identified[ERC section] to learn more about how these ids are created. This function call must use less than 30 000 gas."
					}
				},
				"title": "ChamaCore",
				"version": 1
			},
			"evm": {
				"assembly": "    /* \"ChamaCore.sol\":426:19066  contract ChamaCore is ReentrancyGuard, Pausable, AccessControl {... */\n  mstore(0x40, 0x80)\n    /* \"ChamaCore.sol\":4275:4392  constructor() {... */\n  callvalue\n  dup1\n  iszero\n  tag_1\n  jumpi\n  revert(0x00, 0x00)\ntag_1:\n  pop\n    /* \"@openzeppelin/contracts/security/ReentrancyGuard.sol\":1716:1717  1 */\n  0x01\n    /* \"@openzeppelin/contracts/security/ReentrancyGuard.sol\":1821:1828  _status */\n  0x00\n    /* \"@openzeppelin/contracts/security/ReentrancyGuard.sol\":1821:1843  _status = _NOT_ENTERED */\n  dup2\n  swap1\n  sstore\n  pop\n    /* \"@openzeppelin/contracts/security/Pausable.sol\":1006:1011  false */\n  0x00\n    /* \"@openzeppelin/contracts/security/Pausable.sol\":996:1003  _paused */\n  0x01\n  0x00\n    /* \"@openzeppelin/contracts/security/Pausable.sol\":996:1011  _paused = false */\n  0x0100\n  exp\n  dup2\n  sload\n  dup2\n  0xff\n  mul\n  not\n  and\n  swap1\n  dup4\n  iszero\n  iszero\n  mul\n  or\n  swap1\n  sstore\n  pop\n    /* \"ChamaCore.sol\":4299:4341  _grantRole(DEFAULT_ADMIN_ROLE, msg.sender) */\n  tag_8\n    /* \"@openzeppelin/contracts/access/AccessControl.sol\":2241:2245  0x00 */\n  0x00\n    /* \"ChamaCore.sol\":4310:4328  DEFAULT_ADMIN_ROLE */\n  0x00\n  shl\n    /* \"ChamaCore.sol\":4330:4340  msg.sender */\n  caller\n    /* \"ChamaCore.sol\":4299:4309  _grantRole */\n  shl(0x20, tag_9)\n    /* \"ChamaCore.sol\":4299:4341  _grantRole(DEFAULT_ADMIN_ROLE, msg.sender) */\n  0x20\n  shr\n  jump\t// in\ntag_8:\n  pop\n    /* \"ChamaCore.sol\":4351:4385  _grantRole(ADMIN_ROLE, msg.sender) */\n  tag_10\n    /* \"ChamaCore.sol\":532:555  keccak256(\"ADMIN_ROLE\") */\n  0xa49807205ce4d355092ef5a8a18f56e8913cf4a201fbe287825b095693c21775\n    /* \"ChamaCore.sol\":4374:4384  msg.sender */\n  caller\n    /* \"ChamaCore.sol\":4351:4361  _grantRole */\n  shl(0x20, tag_9)\n    /* \"ChamaCore.sol\":4351:4385  _grantRole(ADMIN_ROLE, msg.sender) */\n  0x20\n  shr\n  jump\t// in\ntag_10:\n  pop\n    /* \"ChamaCore.sol\":426:19066  contract ChamaCore is ReentrancyGuard, Pausable, AccessControl {... */\n  jump(tag_11)\n    /* \"@openzeppelin/contracts/access/AccessControl.sol\":6155:6471  function _grantRole(bytes32 role, address account) internal virtual returns (bool) {... */\ntag_9:\n    /* \"@openzeppelin/contracts/access/AccessControl.sol\":6232:6236  bool */\n  0x00\n    /* \"@openzeppelin/contracts/access/AccessControl.sol\":6253:6275  hasRole(role, account) */\n  tag_13\n    /* \"@openzeppelin/contracts/access/AccessControl.sol\":6261:6265  role */\n  dup4\n    /* \"@openzeppelin/contracts/access/AccessControl.sol\":6267:6274  account */\n  dup4\n    /* \"@openzeppelin/contracts/access/AccessControl.sol\":6253:6260  hasRole */\n  shl(0x20, tag_14)\n    /* \"@openzeppelin/contracts/access/AccessControl.sol\":6253:6275  hasRole(role, account) */\n  0x20\n  shr\n  jump\t// in\ntag_13:\n    /* \"@openzeppelin/contracts/access/AccessControl.sol\":6248:6465  if (!hasRole(role, account)) {... */\n  tag_15\n  jumpi\n    /* \"@openzeppelin/contracts/access/AccessControl.sol\":6323:6327  true */\n  0x01\n    /* \"@openzeppelin/contracts/access/AccessControl.sol\":6291:6297  _roles */\n  0x02\n    /* \"@openzeppelin/contracts/access/AccessControl.sol\":6291:6303  _roles[role] */\n  0x00\n    /* \"@openzeppelin/contracts/access/AccessControl.sol\":6298:6302  role */\n  dup6\n    /* \"@openzeppelin/contracts/access/AccessControl.sol\":6291:6303  _roles[role] */\n  dup2\n  mstore\n  0x20\n  add\n  swap1\n  dup2\n  mstore\n  0x20\n  add\n  0x00\n  keccak256\n    /* \"@openzeppelin/contracts/access/AccessControl.sol\":6291:6311  _roles[role].hasRole */\n  0x00\n  add\n    /* \"@openzeppelin/contracts/access/AccessControl.sol\":6291:6320  _roles[role].hasRole[account] */\n  0x00\n    /* \"@openzeppelin/contracts/access/AccessControl.sol\":6312:6319  account */\n  dup5\n    /* \"@openzeppelin/contracts/access/AccessControl.sol\":6291:6320  _roles[role].hasRole[account] */\n  0xffffffffffffffffffffffffffffffffffffffff\n  and\n  0xffffffffffffffffffffffffffffffffffffffff\n  and\n  dup2\n  mstore\n  0x20\n  add\n  swap1\n  dup2\n  mstore\n  0x20\n  add\n  0x00\n  keccak256\n  0x00\n    /* \"@openzeppelin/contracts/access/AccessControl.sol\":6291:6327  _roles[role].hasRole[account] = true */\n  0x0100\n  exp\n  dup2\n  sload\n  dup2\n  0xff\n  mul\n  not\n  and\n  swap1\n  dup4\n  iszero\n  iszero\n  mul\n  or\n  swap1\n  sstore\n  pop\n    /* \"@openzeppelin/contracts/access/AccessControl.sol\":6373:6385  _msgSender() */\n  tag_16\n    /* \"@openzeppelin/contracts/access/AccessControl.sol\":6373:6383  _msgSender */\n  shl(0x20, tag_17)\n    /* \"@openzeppelin/contracts/access/AccessControl.sol\":6373:6385  _msgSender() */\n  0x20\n  shr\n  jump\t// in\ntag_16:\n    /* \"@openzeppelin/contracts/access/AccessControl.sol\":6346:6386  RoleGranted(role, account, _msgSender()) */\n  0xffffffffffffffffffffffffffffffffffffffff\n  and\n    /* \"@openzeppelin/contracts/access/AccessControl.sol\":6364:6371  account */\n  dup3\n    /* \"@openzeppelin/contracts/access/AccessControl.sol\":6346:6386  RoleGranted(role, account, _msgSender()) */\n  0xffffffffffffffffffffffffffffffffffffffff\n  and\n    /* \"@openzeppelin/contracts/access/AccessControl.sol\":6358:6362  role */\n  dup5\n    /* \"@openzeppelin/contracts/access/AccessControl.sol\":6346:6386  RoleGranted(role, account, _msgSender()) */\n  0x2f8788117e7eff1d82e926ec794901d17c78024a50270940304540a733656f0d\n  mload(0x40)\n  mload(0x40)\n  dup1\n  swap2\n  sub\n  swap1\n  log4\n    /* \"@openzeppelin/contracts/access/AccessControl.sol\":6407:6411  true */\n  0x01\n    /* \"@openzeppelin/contracts/access/AccessControl.sol\":6400:6411  return true */\n  swap1\n  pop\n  jump(tag_12)\n    /* \"@openzeppelin/contracts/access/AccessControl.sol\":6248:6465  if (!hasRole(role, account)) {... */\ntag_15:\n    /* \"@openzeppelin/contracts/access/AccessControl.sol\":6449:6454  false */\n  0x00\n    /* \"@openzeppelin/contracts/access/AccessControl.sol\":6442:6454  return false */\n  swap1\n  pop\n    /* \"@openzeppelin/contracts/access/AccessControl.sol\":6155:6471  function _grantRole(bytes32 role, address account) internal virtual returns (bool) {... */\ntag_12:\n  swap3\n  swap2\n  pop\n  pop\n  jump\t// out\n    /* \"@openzeppelin/contracts/access/AccessControl.sol\":2830:2966  function hasRole(bytes32 role, address account) public view virtual returns (bool) {... */\ntag_14:\n    /* \"@openzeppelin/contracts/access/AccessControl.sol\":2907:2911  bool */\n  0x00\n    /* \"@openzeppelin/contracts/access/AccessControl.sol\":2930:2936  _roles */\n  0x02\n    /* \"@openzeppelin/contracts/access/AccessControl.sol\":2930:2942  _roles[role] */\n  0x00\n    /* \"@openzeppelin/contracts/access/AccessControl.sol\":2937:2941  role */\n  dup5\n    /* \"@openzeppelin/contracts/access/AccessControl.sol\":2930:2942  _roles[role] */\n  dup2\n  mstore\n  0x20\n  add\n  swap1\n  dup2\n  mstore\n  0x20\n  add\n  0x00\n  keccak256\n    /* \"@openzeppelin/contracts/access/AccessControl.sol\":2930:2950  _roles[role].hasRole */\n  0x00\n  add\n    /* \"@openzeppelin/contracts/access/AccessControl.sol\":2930:2959  _roles[role].hasRole[account] */\n  0x00\n    /* \"@openzeppelin/contracts/access/AccessControl.sol\":2951:2958  account */\n  dup4\n    /* \"@openzeppelin/contracts/access/AccessControl.sol\":2930:2959  _roles[role].hasRole[account] */\n  0xffffffffffffffffffffffffffffffffffffffff\n  and\n  0xffffffffffffffffffffffffffffffffffffffff\n  and\n  dup2\n  mstore\n  0x20\n  add\n  swap1\n  dup2\n  mstore\n  0x20\n  add\n  0x00\n  keccak256\n  0x00\n  swap1\n  sload\n  swap1\n  0x0100\n  exp\n  swap1\n  div\n  0xff\n  and\n    /* \"@openzeppelin/contracts/access/AccessControl.sol\":2923:2959  return _roles[role].hasRole[account] */\n  swap1\n  pop\n    /* \"@openzeppelin/contracts/access/AccessControl.sol\":2830:2966  function hasRole(bytes32 role, address account) public view virtual returns (bool) {... */\n  swap3\n  swap2\n  pop\n  pop\n  jump\t// out\n    /* \"@openzeppelin/contracts/utils/Context.sol\":656:752  function _msgSender() internal view virtual returns (address) {... */\ntag_17:\n    /* \"@openzeppelin/contracts/utils/Context.sol\":709:716  address */\n  0x00\n    /* \"@openzeppelin/contracts/utils/Context.sol\":735:745  msg.sender */\n  caller\n    /* \"@openzeppelin/contracts/utils/Context.sol\":728:745  return msg.sender */\n  swap1\n  pop\n    /* \"@openzeppelin/contracts/utils/Context.sol\":656:752  function _msgSender() internal view virtual returns (address) {... */\n  swap1\n  jump\t// out\n    /* \"ChamaCore.sol\":426:19066  contract ChamaCore is ReentrancyGuard, Pausable, AccessControl {... */\ntag_11:\n  dataSize(sub_0)\n  dup1\n  dataOffset(sub_0)\n  0x00\n  codecopy\n  0x00\n  return\nstop\n\nsub_0: assembly {\n        /* \"ChamaCore.sol\":426:19066  contract ChamaCore is ReentrancyGuard, Pausable, AccessControl {... */\n      mstore(0x40, 0x80)\n      jumpi(tag_1, lt(calldatasize, 0x04))\n      shr(0xe0, calldataload(0x00))\n      dup1\n      0x8456cb59\n      gt\n      tag_34\n      jumpi\n      dup1\n      0xc087e28b\n      gt\n      tag_35\n      jumpi\n      dup1\n      0xd83c6868\n      gt\n      tag_36\n      jumpi\n      dup1\n      0xd83c6868\n      eq\n      tag_30\n      jumpi\n      dup1\n      0xdaa6f020\n      eq\n      tag_31\n      jumpi\n      dup1\n      0xe69269a6\n      eq\n      tag_32\n      jumpi\n      dup1\n      0xe9ac9d1e\n      eq\n      tag_33\n      jumpi\n      jump(tag_1)\n    tag_36:\n      dup1\n      0xc087e28b\n      eq\n      tag_26\n      jumpi\n      dup1\n      0xc08f3954\n      eq\n      tag_27\n      jumpi\n      dup1\n      0xcb00d3d2\n      eq\n      tag_28\n      jumpi\n      dup1\n      0xd547741f\n      eq\n      tag_29\n      jumpi\n      jump(tag_1)\n    tag_35:\n      dup1\n      0x91d14854\n      gt\n      tag_37\n      jumpi\n      dup1\n      0x91d14854\n      eq\n      tag_22\n      jumpi\n      dup1\n      0x9ef4cbcc\n      eq\n      tag_23\n      jumpi\n      dup1\n      0xa217fddf\n      eq\n      tag_24\n      jumpi\n      dup1\n      0xafc737d1\n      eq\n      tag_25\n      jumpi\n      jump(tag_1)\n    tag_37:\n      dup1\n      0x8456cb59\n      eq\n      tag_18\n      jumpi\n      dup1\n      0x863b6a39\n      eq\n      tag_19\n      jumpi\n      dup1\n      0x8a9620ce\n      eq\n      tag_20\n      jumpi\n      dup1\n      0x9155105f\n      eq\n      tag_21\n      jumpi\n      jump(tag_1)\n    tag_34:\n      dup1\n      0x3dd4094f\n      gt\n      tag_38\n      jumpi\n      dup1\n      0x5c975abb\n      gt\n      tag_39\n      jumpi\n      dup1\n      0x5c975abb\n      eq\n      tag_14\n      jumpi\n      dup1\n      0x75b238fc\n      eq\n      tag_15\n      jumpi\n      dup1\n      0x7c2841cd\n      eq\n      tag_16\n      jumpi\n      dup1\n      0x826ce785\n      eq\n      tag_17\n      jumpi\n      jump(tag_1)\n    tag_39:\n      dup1\n      0x3dd4094f\n      eq\n      tag_10\n      jumpi\n      dup1\n      0x3f4ba83a\n      eq\n      tag_11\n      jumpi\n      dup1\n      0x43533e1d\n      eq\n      tag_12\n      jumpi\n      dup1\n      0x45f4bc07\n      eq\n      tag_13\n      jumpi\n      jump(tag_1)\n    tag_38:\n      dup1\n      0x248a9ca3\n      gt\n      tag_40\n      jumpi\n      dup1\n      0x248a9ca3\n      eq\n      tag_6\n      jumpi\n      dup1\n      0x2f2ff15d\n      eq\n      tag_7\n      jumpi\n      dup1\n      0x300e9dae\n      eq\n      tag_8\n      jumpi\n      dup1\n      0x36568abe\n      eq\n      tag_9\n      jumpi\n      jump(tag_1)\n    tag_40:\n      dup1\n      0x01ffc9a7\n      eq\n      tag_2\n      jumpi\n      dup1\n      0x03e4cf5b\n      eq\n      tag_3\n      jumpi\n      dup1\n      0x0b5d7085\n      eq\n      tag_4\n      jumpi\n      dup1\n      0x1dbcfc44\n      eq\n      tag_5\n      jumpi\n    tag_1:\n      revert(0x00, 0x00)\n        /* \"@openzeppelin/contracts/access/AccessControl.sol\":2541:2743  function supportsInterface(bytes4 interfaceId) public view virtual override returns (bool) {... */\n    tag_2:\n      callvalue\n      dup1\n      iszero\n      tag_41\n      jumpi\n      revert(0x00, 0x00)\n    tag_41:\n      pop\n      tag_42\n      0x04\n      dup1\n      calldatasize\n      sub\n      dup2\n      add\n      swap1\n      tag_43\n      swap2\n      swap1\n      tag_44\n      jump\t// in\n    tag_43:\n      tag_45\n      jump\t// in\n    tag_42:\n      mload(0x40)\n      tag_46\n      swap2\n      swap1\n      tag_47\n      jump\t// in\n    tag_46:\n      mload(0x40)\n      dup1\n      swap2\n      sub\n      swap1\n      return\n        /* \"ChamaCore.sol\":2086:2166  mapping(uint256 => mapping(address => uint256)) public lastContributionTimestamp */\n    tag_3:\n      callvalue\n      dup1\n      iszero\n      tag_48\n      jumpi\n      revert(0x00, 0x00)\n    tag_48:\n      pop\n      tag_49\n      0x04\n      dup1\n      calldatasize\n      sub\n      dup2\n      add\n      swap1\n      tag_50\n      swap2\n      swap1\n      tag_51\n      jump\t// in\n    tag_50:\n      tag_52\n      jump\t// in\n    tag_49:\n      mload(0x40)\n      tag_53\n      swap2\n      swap1\n      tag_54\n      jump\t// in\n    tag_53:\n      mload(0x40)\n      dup1\n      swap2\n      sub\n      swap1\n      return\n        /* \"ChamaCore.sol\":1879:1918  mapping(uint256 => Chama) public chamas */\n    tag_4:\n      callvalue\n      dup1\n      iszero\n      tag_55\n      jumpi\n      revert(0x00, 0x00)\n    tag_55:\n      pop\n      tag_56\n      0x04\n      dup1\n      calldatasize\n      sub\n      dup2\n      add\n      swap1\n      tag_57\n      swap2\n      swap1\n      tag_58\n      jump\t// in\n    tag_57:\n      tag_59\n      jump\t// in\n    tag_56:\n      mload(0x40)\n      tag_60\n      swap11\n      swap10\n      swap9\n      swap8\n      swap7\n      swap6\n      swap5\n      swap4\n      swap3\n      swap2\n      swap1\n      tag_61\n      jump\t// in\n    tag_60:\n      mload(0x40)\n      dup1\n      swap2\n      sub\n      swap1\n      return\n        /* \"ChamaCore.sol\":1924:1999  mapping(uint256 => mapping(address => Contribution[])) public contributions */\n    tag_5:\n      callvalue\n      dup1\n      iszero\n      tag_62\n      jumpi\n      revert(0x00, 0x00)\n    tag_62:\n      pop\n      tag_63\n      0x04\n      dup1\n      calldatasize\n      sub\n      dup2\n      add\n      swap1\n      tag_64\n      swap2\n      swap1\n      tag_65\n      jump\t// in\n    tag_64:\n      tag_66\n      jump\t// in\n    tag_63:\n      mload(0x40)\n      tag_67\n      swap4\n      swap3\n      swap2\n      swap1\n      tag_68\n      jump\t// in\n    tag_67:\n      mload(0x40)\n      dup1\n      swap2\n      sub\n      swap1\n      return\n        /* \"@openzeppelin/contracts/access/AccessControl.sol\":3786:3906  function getRoleAdmin(bytes32 role) public view virtual returns (bytes32) {... */\n    tag_6:\n      callvalue\n      dup1\n      iszero\n      tag_69\n      jumpi\n      revert(0x00, 0x00)\n    tag_69:\n      pop\n      tag_70\n      0x04\n      dup1\n      calldatasize\n      sub\n      dup2\n      add\n      swap1\n      tag_71\n      swap2\n      swap1\n      tag_72\n      jump\t// in\n    tag_71:\n      tag_73\n      jump\t// in\n    tag_70:\n      mload(0x40)\n      tag_74\n      swap2\n      swap1\n      tag_75\n      jump\t// in\n    tag_74:\n      mload(0x40)\n      dup1\n      swap2\n      sub\n      swap1\n      return\n        /* \"@openzeppelin/contracts/access/AccessControl.sol\":4202:4338  function grantRole(bytes32 role, address account) public virtual onlyRole(getRoleAdmin(role)) {... */\n    tag_7:\n      callvalue\n      dup1\n      iszero\n      tag_76\n      jumpi\n      revert(0x00, 0x00)\n    tag_76:\n      pop\n      tag_77\n      0x04\n      dup1\n      calldatasize\n      sub\n      dup2\n      add\n      swap1\n      tag_78\n      swap2\n      swap1\n      tag_79\n      jump\t// in\n    tag_78:\n      tag_80\n      jump\t// in\n    tag_77:\n      stop\n        /* \"ChamaCore.sol\":14651:16079  function processMissedContributions(uint256 _chamaId) ... */\n    tag_8:\n      callvalue\n      dup1\n      iszero\n      tag_81\n      jumpi\n      revert(0x00, 0x00)\n    tag_81:\n      pop\n      tag_82\n      0x04\n      dup1\n      calldatasize\n      sub\n      dup2\n      add\n      swap1\n      tag_83\n      swap2\n      swap1\n      tag_58\n      jump\t// in\n    tag_83:\n      tag_84\n      jump\t// in\n    tag_82:\n      stop\n        /* \"@openzeppelin/contracts/access/AccessControl.sol\":5304:5549  function renounceRole(bytes32 role, address callerConfirmation) public virtual {... */\n    tag_9:\n      callvalue\n      dup1\n      iszero\n      tag_85\n      jumpi\n      revert(0x00, 0x00)\n    tag_85:\n      pop\n      tag_86\n      0x04\n      dup1\n      calldatasize\n      sub\n      dup2\n      add\n      swap1\n      tag_87\n      swap2\n      swap1\n      tag_79\n      jump\t// in\n    tag_87:\n      tag_88\n      jump\t// in\n    tag_86:\n      stop\n        /* \"ChamaCore.sol\":16952:17153  function getMemberContributions(uint256 _chamaId, address _member) ... */\n    tag_10:\n      callvalue\n      dup1\n      iszero\n      tag_89\n      jumpi\n      revert(0x00, 0x00)\n    tag_89:\n      pop\n      tag_90\n      0x04\n      dup1\n      calldatasize\n      sub\n      dup2\n      add\n      swap1\n      tag_91\n      swap2\n      swap1\n      tag_51\n      jump\t// in\n    tag_91:\n      tag_92\n      jump\t// in\n    tag_90:\n      mload(0x40)\n      tag_93\n      swap2\n      swap1\n      tag_94\n      jump\t// in\n    tag_93:\n      mload(0x40)\n      dup1\n      swap2\n      sub\n      swap1\n      return\n        /* \"ChamaCore.sol\":18796:18872  function unpause() external onlyRole(ADMIN_ROLE) {... */\n    tag_11:\n      callvalue\n      dup1\n      iszero\n      tag_95\n      jumpi\n      revert(0x00, 0x00)\n    tag_95:\n      pop\n      tag_96\n      tag_97\n      jump\t// in\n    tag_96:\n      stop\n        /* \"ChamaCore.sol\":6547:7609  function joinChama(uint256 _chamaId) ... */\n    tag_12:\n      tag_98\n      0x04\n      dup1\n      calldatasize\n      sub\n      dup2\n      add\n      swap1\n      tag_99\n      swap2\n      swap1\n      tag_58\n      jump\t// in\n    tag_99:\n      tag_100\n      jump\t// in\n    tag_98:\n      stop\n        /* \"ChamaCore.sol\":17749:17943  function isCollateralReturned(uint256 _chamaId, address _member) ... */\n    tag_13:\n      callvalue\n      dup1\n      iszero\n      tag_101\n      jumpi\n      revert(0x00, 0x00)\n    tag_101:\n      pop\n      tag_102\n      0x04\n      dup1\n      calldatasize\n      sub\n      dup2\n      add\n      swap1\n      tag_103\n      swap2\n      swap1\n      tag_51\n      jump\t// in\n    tag_103:\n      tag_104\n      jump\t// in\n    tag_102:\n      mload(0x40)\n      tag_105\n      swap2\n      swap1\n      tag_47\n      jump\t// in\n    tag_105:\n      mload(0x40)\n      dup1\n      swap2\n      sub\n      swap1\n      return\n        /* \"@openzeppelin/contracts/security/Pausable.sol\":1615:1699  function paused() public view virtual returns (bool) {... */\n    tag_14:\n      callvalue\n      dup1\n      iszero\n      tag_106\n      jumpi\n      revert(0x00, 0x00)\n    tag_106:\n      pop\n      tag_107\n      tag_108\n      jump\t// in\n    tag_107:\n      mload(0x40)\n      tag_109\n      swap2\n      swap1\n      tag_47\n      jump\t// in\n    tag_109:\n      mload(0x40)\n      dup1\n      swap2\n      sub\n      swap1\n      return\n        /* \"ChamaCore.sol\":495:555  bytes32 public constant ADMIN_ROLE = keccak256(\"ADMIN_ROLE\") */\n    tag_15:\n      callvalue\n      dup1\n      iszero\n      tag_110\n      jumpi\n      revert(0x00, 0x00)\n    tag_110:\n      pop\n      tag_111\n      tag_112\n      jump\t// in\n    tag_111:\n      mload(0x40)\n      tag_113\n      swap2\n      swap1\n      tag_75\n      jump\t// in\n    tag_113:\n      mload(0x40)\n      dup1\n      swap2\n      sub\n      swap1\n      return\n        /* \"ChamaCore.sol\":2005:2080  mapping(uint256 => mapping(address => bool)) public hasContributedThisCycle */\n    tag_16:\n      callvalue\n      dup1\n      iszero\n      tag_114\n      jumpi\n      revert(0x00, 0x00)\n    tag_114:\n      pop\n      tag_115\n      0x04\n      dup1\n      calldatasize\n      sub\n      dup2\n      add\n      swap1\n      tag_116\n      swap2\n      swap1\n      tag_51\n      jump\t// in\n    tag_116:\n      tag_117\n      jump\t// in\n    tag_115:\n      mload(0x40)\n      tag_118\n      swap2\n      swap1\n      tag_47\n      jump\t// in\n    tag_118:\n      mload(0x40)\n      dup1\n      swap2\n      sub\n      swap1\n      return\n        /* \"ChamaCore.sol\":17549:17743  function getMemberCollateral(uint256 _chamaId, address _member) ... */\n    tag_17:\n      callvalue\n      dup1\n      iszero\n      tag_119\n      jumpi\n      revert(0x00, 0x00)\n    tag_119:\n      pop\n      tag_120\n      0x04\n      dup1\n      calldatasize\n      sub\n      dup2\n      add\n      swap1\n      tag_121\n      swap2\n      swap1\n      tag_51\n      jump\t// in\n    tag_121:\n      tag_122\n      jump\t// in\n    tag_120:\n      mload(0x40)\n      tag_123\n      swap2\n      swap1\n      tag_54\n      jump\t// in\n    tag_123:\n      mload(0x40)\n      dup1\n      swap2\n      sub\n      swap1\n      return\n        /* \"ChamaCore.sol\":18718:18790  function pause() external onlyRole(ADMIN_ROLE) {... */\n    tag_18:\n      callvalue\n      dup1\n      iszero\n      tag_124\n      jumpi\n      revert(0x00, 0x00)\n    tag_124:\n      pop\n      tag_125\n      tag_126\n      jump\t// in\n    tag_125:\n      stop\n        /* \"ChamaCore.sol\":18089:18351  function getMemberPayoutPosition(uint256 _chamaId, address _member) ... */\n    tag_19:\n      callvalue\n      dup1\n      iszero\n      tag_127\n      jumpi\n      revert(0x00, 0x00)\n    tag_127:\n      pop\n      tag_128\n      0x04\n      dup1\n      calldatasize\n      sub\n      dup2\n      add\n      swap1\n      tag_129\n      swap2\n      swap1\n      tag_51\n      jump\t// in\n    tag_129:\n      tag_130\n      jump\t// in\n    tag_128:\n      mload(0x40)\n      tag_131\n      swap2\n      swap1\n      tag_54\n      jump\t// in\n    tag_131:\n      mload(0x40)\n      dup1\n      swap2\n      sub\n      swap1\n      return\n        /* \"ChamaCore.sol\":18878:19064  function setGamificationContract(address _gamificationContract) ... */\n    tag_20:\n      callvalue\n      dup1\n      iszero\n      tag_132\n      jumpi\n      revert(0x00, 0x00)\n    tag_132:\n      pop\n      tag_133\n      0x04\n      dup1\n      calldatasize\n      sub\n      dup2\n      add\n      swap1\n      tag_134\n      swap2\n      swap1\n      tag_135\n      jump\t// in\n    tag_134:\n      tag_136\n      jump\t// in\n    tag_133:\n      stop\n        /* \"ChamaCore.sol\":18357:18689  function hasMemberReceivedPayout(uint256 _chamaId, address _member) ... */\n    tag_21:\n      callvalue\n      dup1\n      iszero\n      tag_137\n      jumpi\n      revert(0x00, 0x00)\n    tag_137:\n      pop\n      tag_138\n      0x04\n      dup1\n      calldatasize\n      sub\n      dup2\n      add\n      swap1\n      tag_139\n      swap2\n      swap1\n      tag_51\n      jump\t// in\n    tag_139:\n      tag_140\n      jump\t// in\n    tag_138:\n      mload(0x40)\n      tag_141\n      swap2\n      swap1\n      tag_47\n      jump\t// in\n    tag_141:\n      mload(0x40)\n      dup1\n      swap2\n      sub\n      swap1\n      return\n        /* \"@openzeppelin/contracts/access/AccessControl.sol\":2830:2966  function hasRole(bytes32 role, address account) public view virtual returns (bool) {... */\n    tag_22:\n      callvalue\n      dup1\n      iszero\n      tag_142\n      jumpi\n      revert(0x00, 0x00)\n    tag_142:\n      pop\n      tag_143\n      0x04\n      dup1\n      calldatasize\n      sub\n      dup2\n      add\n      swap1\n      tag_144\n      swap2\n      swap1\n      tag_79\n      jump\t// in\n    tag_144:\n      tag_145\n      jump\t// in\n    tag_143:\n      mload(0x40)\n      tag_146\n      swap2\n      swap1\n      tag_47\n      jump\t// in\n    tag_146:\n      mload(0x40)\n      dup1\n      swap2\n      sub\n      swap1\n      return\n        /* \"ChamaCore.sol\":9679:10748  function stackBTC(uint256 _chamaId) ... */\n    tag_23:\n      tag_147\n      0x04\n      dup1\n      calldatasize\n      sub\n      dup2\n      add\n      swap1\n      tag_148\n      swap2\n      swap1\n      tag_58\n      jump\t// in\n    tag_148:\n      tag_149\n      jump\t// in\n    tag_147:\n      stop\n        /* \"@openzeppelin/contracts/access/AccessControl.sol\":2196:2245  bytes32 public constant DEFAULT_ADMIN_ROLE = 0x00 */\n    tag_24:\n      callvalue\n      dup1\n      iszero\n      tag_150\n      jumpi\n      revert(0x00, 0x00)\n    tag_150:\n      pop\n      tag_151\n      tag_152\n      jump\t// in\n    tag_151:\n      mload(0x40)\n      tag_153\n      swap2\n      swap1\n      tag_75\n      jump\t// in\n    tag_153:\n      mload(0x40)\n      dup1\n      swap2\n      sub\n      swap1\n      return\n        /* \"ChamaCore.sol\":17949:18083  function getTotalCollateral(uint256 _chamaId) external view returns (uint256) {... */\n    tag_25:\n      callvalue\n      dup1\n      iszero\n      tag_154\n      jumpi\n      revert(0x00, 0x00)\n    tag_154:\n      pop\n      tag_155\n      0x04\n      dup1\n      calldatasize\n      sub\n      dup2\n      add\n      swap1\n      tag_156\n      swap2\n      swap1\n      tag_58\n      jump\t// in\n    tag_156:\n      tag_157\n      jump\t// in\n    tag_155:\n      mload(0x40)\n      tag_158\n      swap2\n      swap1\n      tag_54\n      jump\t// in\n    tag_158:\n      mload(0x40)\n      dup1\n      swap2\n      sub\n      swap1\n      return\n        /* \"ChamaCore.sol\":1848:1873  uint256 public chamaCount */\n    tag_26:\n      callvalue\n      dup1\n      iszero\n      tag_159\n      jumpi\n      revert(0x00, 0x00)\n    tag_159:\n      pop\n      tag_160\n      tag_161\n      jump\t// in\n    tag_160:\n      mload(0x40)\n      tag_162\n      swap2\n      swap1\n      tag_54\n      jump\t// in\n    tag_162:\n      mload(0x40)\n      dup1\n      swap2\n      sub\n      swap1\n      return\n        /* \"ChamaCore.sol\":561:635  bytes32 public constant GAMIFICATION_ROLE = keccak256(\"GAMIFICATION_ROLE\") */\n    tag_27:\n      callvalue\n      dup1\n      iszero\n      tag_163\n      jumpi\n      revert(0x00, 0x00)\n    tag_163:\n      pop\n      tag_164\n      tag_165\n      jump\t// in\n    tag_164:\n      mload(0x40)\n      tag_166\n      swap2\n      swap1\n      tag_75\n      jump\t// in\n    tag_166:\n      mload(0x40)\n      dup1\n      swap2\n      sub\n      swap1\n      return\n        /* \"ChamaCore.sol\":16814:16946  function getChamaMembers(uint256 _chamaId) external view returns (address[] memory) {... */\n    tag_28:\n      callvalue\n      dup1\n      iszero\n      tag_167\n      jumpi\n      revert(0x00, 0x00)\n    tag_167:\n      pop\n      tag_168\n      0x04\n      dup1\n      calldatasize\n      sub\n      dup2\n      add\n      swap1\n      tag_169\n      swap2\n      swap1\n      tag_58\n      jump\t// in\n    tag_169:\n      tag_170\n      jump\t// in\n    tag_168:\n      mload(0x40)\n      tag_171\n      swap2\n      swap1\n      tag_172\n      jump\t// in\n    tag_171:\n      mload(0x40)\n      dup1\n      swap2\n      sub\n      swap1\n      return\n        /* \"@openzeppelin/contracts/access/AccessControl.sol\":4618:4756  function revokeRole(bytes32 role, address account) public virtual onlyRole(getRoleAdmin(role)) {... */\n    tag_29:\n      callvalue\n      dup1\n      iszero\n      tag_173\n      jumpi\n      revert(0x00, 0x00)\n    tag_173:\n      pop\n      tag_174\n      0x04\n      dup1\n      calldatasize\n      sub\n      dup2\n      add\n      swap1\n      tag_175\n      swap2\n      swap1\n      tag_79\n      jump\t// in\n    tag_175:\n      tag_176\n      jump\t// in\n    tag_174:\n      stop\n        /* \"ChamaCore.sol\":16107:16808  function getChamaDetails(uint256 _chamaId) external view returns (... */\n    tag_30:\n      callvalue\n      dup1\n      iszero\n      tag_177\n      jumpi\n      revert(0x00, 0x00)\n    tag_177:\n      pop\n      tag_178\n      0x04\n      dup1\n      calldatasize\n      sub\n      dup2\n      add\n      swap1\n      tag_179\n      swap2\n      swap1\n      tag_58\n      jump\t// in\n    tag_179:\n      tag_180\n      jump\t// in\n    tag_178:\n      mload(0x40)\n      tag_181\n      swap10\n      swap9\n      swap8\n      swap7\n      swap6\n      swap5\n      swap4\n      swap3\n      swap2\n      swap1\n      tag_182\n      jump\t// in\n    tag_181:\n      mload(0x40)\n      dup1\n      swap2\n      sub\n      swap1\n      return\n        /* \"ChamaCore.sol\":7740:8127  function startChama(uint256 _chamaId) ... */\n    tag_31:\n      callvalue\n      dup1\n      iszero\n      tag_183\n      jumpi\n      revert(0x00, 0x00)\n    tag_183:\n      pop\n      tag_184\n      0x04\n      dup1\n      calldatasize\n      sub\n      dup2\n      add\n      swap1\n      tag_185\n      swap2\n      swap1\n      tag_58\n      jump\t// in\n    tag_185:\n      tag_186\n      jump\t// in\n    tag_184:\n      stop\n        /* \"ChamaCore.sol\":4679:6443  function createChama(... */\n    tag_32:\n      tag_187\n      0x04\n      dup1\n      calldatasize\n      sub\n      dup2\n      add\n      swap1\n      tag_188\n      swap2\n      swap1\n      tag_189\n      jump\t// in\n    tag_188:\n      tag_190\n      jump\t// in\n    tag_187:\n      stop\n        /* \"ChamaCore.sol\":17159:17543  function getCycleInfo(uint256 _chamaId, uint256 _cycle) external view returns (... */\n    tag_33:\n      callvalue\n      dup1\n      iszero\n      tag_191\n      jumpi\n      revert(0x00, 0x00)\n    tag_191:\n      pop\n      tag_192\n      0x04\n      dup1\n      calldatasize\n      sub\n      dup2\n      add\n      swap1\n      tag_193\n      swap2\n      swap1\n      tag_194\n      jump\t// in\n    tag_193:\n      tag_195\n      jump\t// in\n    tag_192:\n      mload(0x40)\n      tag_196\n      swap4\n      swap3\n      swap2\n      swap1\n      tag_197\n      jump\t// in\n    tag_196:\n      mload(0x40)\n      dup1\n      swap2\n      sub\n      swap1\n      return\n        /* \"@openzeppelin/contracts/access/AccessControl.sol\":2541:2743  function supportsInterface(bytes4 interfaceId) public view virtual override returns (bool) {... */\n    tag_45:\n        /* \"@openzeppelin/contracts/access/AccessControl.sol\":2626:2630  bool */\n      0x00\n        /* \"@openzeppelin/contracts/access/AccessControl.sol\":2664:2696  type(IAccessControl).interfaceId */\n      0x7965db0b00000000000000000000000000000000000000000000000000000000\n        /* \"@openzeppelin/contracts/access/AccessControl.sol\":2649:2696  interfaceId == type(IAccessControl).interfaceId */\n      not(0xffffffffffffffffffffffffffffffffffffffffffffffffffffffff)\n      and\n        /* \"@openzeppelin/contracts/access/AccessControl.sol\":2649:2660  interfaceId */\n      dup3\n        /* \"@openzeppelin/contracts/access/AccessControl.sol\":2649:2696  interfaceId == type(IAccessControl).interfaceId */\n      not(0xffffffffffffffffffffffffffffffffffffffffffffffffffffffff)\n      and\n      eq\n        /* \"@openzeppelin/contracts/access/AccessControl.sol\":2649:2736  interfaceId == type(IAccessControl).interfaceId || super.supportsInterface(interfaceId) */\n      dup1\n      tag_199\n      jumpi\n      pop\n        /* \"@openzeppelin/contracts/access/AccessControl.sol\":2700:2736  super.supportsInterface(interfaceId) */\n      tag_200\n        /* \"@openzeppelin/contracts/access/AccessControl.sol\":2724:2735  interfaceId */\n      dup3\n        /* \"@openzeppelin/contracts/access/AccessControl.sol\":2700:2723  super.supportsInterface */\n      tag_201\n        /* \"@openzeppelin/contracts/access/AccessControl.sol\":2700:2736  super.supportsInterface(interfaceId) */\n      jump\t// in\n    tag_200:\n        /* \"@openzeppelin/contracts/access/AccessControl.sol\":2649:2736  interfaceId == type(IAccessControl).interfaceId || super.supportsInterface(interfaceId) */\n    tag_199:\n        /* \"@openzeppelin/contracts/access/AccessControl.sol\":2642:2736  return interfaceId == type(IAccessControl).interfaceId || super.supportsInterface(interfaceId) */\n      swap1\n      pop\n        /* \"@openzeppelin/contracts/access/AccessControl.sol\":2541:2743  function supportsInterface(bytes4 interfaceId) public view virtual override returns (bool) {... */\n      swap2\n      swap1\n      pop\n      jump\t// out\n        /* \"ChamaCore.sol\":2086:2166  mapping(uint256 => mapping(address => uint256)) public lastContributionTimestamp */\n    tag_52:\n      mstore(0x20, 0x07)\n      dup2\n      0x00\n      mstore\n      mstore(0x20, keccak256(0x00, 0x40))\n      dup1\n      0x00\n      mstore\n      keccak256(0x00, 0x40)\n      0x00\n      swap2\n      pop\n      swap2\n      pop\n      pop\n      sload\n      dup2\n      jump\t// out\n        /* \"ChamaCore.sol\":1879:1918  mapping(uint256 => Chama) public chamas */\n    tag_59:\n      mstore(0x20, 0x04)\n      dup1\n      0x00\n      mstore\n      keccak256(0x00, 0x40)\n      0x00\n      swap2\n      pop\n      swap1\n      pop\n      dup1\n      0x00\n      add\n      dup1\n      sload\n      tag_202\n      swap1\n      tag_203\n      jump\t// in\n    tag_202:\n      dup1\n      0x1f\n      add\n      0x20\n      dup1\n      swap2\n      div\n      mul\n      0x20\n      add\n      mload(0x40)\n      swap1\n      dup2\n      add\n      0x40\n      mstore\n      dup1\n      swap3\n      swap2\n      swap1\n      dup2\n      dup2\n      mstore\n      0x20\n      add\n      dup3\n      dup1\n      sload\n      tag_204\n      swap1\n      tag_203\n      jump\t// in\n    tag_204:\n      dup1\n      iszero\n      tag_205\n      jumpi\n      dup1\n      0x1f\n      lt\n      tag_206\n      jumpi\n      0x0100\n      dup1\n      dup4\n      sload\n      div\n      mul\n      dup4\n      mstore\n      swap2\n      0x20\n      add\n      swap2\n      jump(tag_205)\n    tag_206:\n      dup3\n      add\n      swap2\n      swap1\n      0x00\n      mstore\n      keccak256(0x00, 0x20)\n      swap1\n    tag_207:\n      dup2\n      sload\n      dup2\n      mstore\n      swap1\n      0x01\n      add\n      swap1\n      0x20\n      add\n      dup1\n      dup4\n      gt\n      tag_207\n      jumpi\n      dup3\n      swap1\n      sub\n      0x1f\n      and\n      dup3\n      add\n      swap2\n    tag_205:\n      pop\n      pop\n      pop\n      pop\n      pop\n      swap1\n      dup1\n      0x01\n      add\n      sload\n      swap1\n      dup1\n      0x02\n      add\n      sload\n      swap1\n      dup1\n      0x03\n      add\n      sload\n      swap1\n      dup1\n      0x05\n      add\n      0x00\n      swap1\n      sload\n      swap1\n      0x0100\n      exp\n      swap1\n      div\n      0xff\n      and\n      swap1\n      dup1\n      0x06\n      add\n      sload\n      swap1\n      dup1\n      0x07\n      add\n      sload\n      swap1\n      dup1\n      0x08\n      add\n      sload\n      swap1\n      dup1\n      0x09\n      add\n      sload\n      swap1\n      dup1\n      0x12\n      add\n      sload\n      swap1\n      pop\n      dup11\n      jump\t// out\n        /* \"ChamaCore.sol\":1924:1999  mapping(uint256 => mapping(address => Contribution[])) public contributions */\n    tag_66:\n      mstore(0x20, 0x05)\n      dup3\n      0x00\n      mstore\n      mstore(0x20, keccak256(0x00, 0x40))\n      dup2\n      0x00\n      mstore\n      keccak256(0x00, 0x40)\n      dup2\n      dup2\n      sload\n      dup2\n      lt\n      tag_208\n      jumpi\n      0x00\n      dup1\n      revert\n    tag_208:\n      swap1\n      0x00\n      mstore\n      keccak256(0x00, 0x20)\n      swap1\n      0x03\n      mul\n      add\n      0x00\n      swap3\n      pop\n      swap3\n      pop\n      pop\n      pop\n      dup1\n      0x00\n      add\n      0x00\n      swap1\n      sload\n      swap1\n      0x0100\n      exp\n      swap1\n      div\n      0xffffffffffffffffffffffffffffffffffffffff\n      and\n      swap1\n      dup1\n      0x01\n      add\n      sload\n      swap1\n      dup1\n      0x02\n      add\n      sload\n      swap1\n      pop\n      dup4\n      jump\t// out\n        /* \"@openzeppelin/contracts/access/AccessControl.sol\":3786:3906  function getRoleAdmin(bytes32 role) public view virtual returns (bytes32) {... */\n    tag_73:\n        /* \"@openzeppelin/contracts/access/AccessControl.sol\":3851:3858  bytes32 */\n      0x00\n        /* \"@openzeppelin/contracts/access/AccessControl.sol\":3877:3883  _roles */\n      0x02\n        /* \"@openzeppelin/contracts/access/AccessControl.sol\":3877:3889  _roles[role] */\n      0x00\n        /* \"@openzeppelin/contracts/access/AccessControl.sol\":3884:3888  role */\n      dup4\n        /* \"@openzeppelin/contracts/access/AccessControl.sol\":3877:3889  _roles[role] */\n      dup2\n      mstore\n      0x20\n      add\n      swap1\n      dup2\n      mstore\n      0x20\n      add\n      0x00\n      keccak256\n        /* \"@openzeppelin/contracts/access/AccessControl.sol\":3877:3899  _roles[role].adminRole */\n      0x01\n      add\n      sload\n        /* \"@openzeppelin/contracts/access/AccessControl.sol\":3870:3899  return _roles[role].adminRole */\n      swap1\n      pop\n        /* \"@openzeppelin/contracts/access/AccessControl.sol\":3786:3906  function getRoleAdmin(bytes32 role) public view virtual returns (bytes32) {... */\n      swap2\n      swap1\n      pop\n      jump\t// out\n        /* \"@openzeppelin/contracts/access/AccessControl.sol\":4202:4338  function grantRole(bytes32 role, address account) public virtual onlyRole(getRoleAdmin(role)) {... */\n    tag_80:\n        /* \"@openzeppelin/contracts/access/AccessControl.sol\":4276:4294  getRoleAdmin(role) */\n      tag_211\n        /* \"@openzeppelin/contracts/access/AccessControl.sol\":4289:4293  role */\n      dup3\n        /* \"@openzeppelin/contracts/access/AccessControl.sol\":4276:4288  getRoleAdmin */\n      tag_73\n        /* \"@openzeppelin/contracts/access/AccessControl.sol\":4276:4294  getRoleAdmin(role) */\n      jump\t// in\n    tag_211:\n        /* \"@openzeppelin/contracts/access/AccessControl.sol\":2473:2489  _checkRole(role) */\n      tag_213\n        /* \"@openzeppelin/contracts/access/AccessControl.sol\":2484:2488  role */\n      dup2\n        /* \"@openzeppelin/contracts/access/AccessControl.sol\":2473:2483  _checkRole */\n      tag_214\n        /* \"@openzeppelin/contracts/access/AccessControl.sol\":2473:2489  _checkRole(role) */\n      jump\t// in\n    tag_213:\n        /* \"@openzeppelin/contracts/access/AccessControl.sol\":4306:4331  _grantRole(role, account) */\n      tag_216\n        /* \"@openzeppelin/contracts/access/AccessControl.sol\":4317:4321  role */\n      dup4\n        /* \"@openzeppelin/contracts/access/AccessControl.sol\":4323:4330  account */\n      dup4\n        /* \"@openzeppelin/contracts/access/AccessControl.sol\":4306:4316  _grantRole */\n      tag_217\n        /* \"@openzeppelin/contracts/access/AccessControl.sol\":4306:4331  _grantRole(role, account) */\n      jump\t// in\n    tag_216:\n      pop\n        /* \"@openzeppelin/contracts/access/AccessControl.sol\":4202:4338  function grantRole(bytes32 role, address account) public virtual onlyRole(getRoleAdmin(role)) {... */\n      pop\n      pop\n      pop\n      jump\t// out\n        /* \"ChamaCore.sol\":14651:16079  function processMissedContributions(uint256 _chamaId) ... */\n    tag_84:\n        /* \"ChamaCore.sol\":14744:14752  _chamaId */\n      dup1\n        /* \"ChamaCore.sol\":4075:4076  0 */\n      0x00\n        /* \"ChamaCore.sol\":4063:4071  _chamaId */\n      dup2\n        /* \"ChamaCore.sol\":4063:4076  _chamaId == 0 */\n      eq\n        /* \"ChamaCore.sol\":4063:4101  _chamaId == 0 || _chamaId > chamaCount */\n      dup1\n      tag_219\n      jumpi\n      pop\n        /* \"ChamaCore.sol\":4091:4101  chamaCount */\n      sload(0x03)\n        /* \"ChamaCore.sol\":4080:4088  _chamaId */\n      dup2\n        /* \"ChamaCore.sol\":4080:4101  _chamaId > chamaCount */\n      gt\n        /* \"ChamaCore.sol\":4063:4101  _chamaId == 0 || _chamaId > chamaCount */\n    tag_219:\n        /* \"ChamaCore.sol\":4059:4125  if (_chamaId == 0 || _chamaId > chamaCount) revert ChamaNotFound() */\n      iszero\n      tag_220\n      jumpi\n        /* \"ChamaCore.sol\":4110:4125  ChamaNotFound() */\n      mload(0x40)\n      0x037ff9d600000000000000000000000000000000000000000000000000000000\n      dup2\n      mstore\n      0x04\n      add\n      mload(0x40)\n      dup1\n      swap2\n      sub\n      swap1\n      revert\n        /* \"ChamaCore.sol\":4059:4125  if (_chamaId == 0 || _chamaId > chamaCount) revert ChamaNotFound() */\n    tag_220:\n        /* \"@openzeppelin/contracts/security/Pausable.sol\":1239:1258  _requireNotPaused() */\n      tag_222\n        /* \"@openzeppelin/contracts/security/Pausable.sol\":1239:1256  _requireNotPaused */\n      tag_223\n        /* \"@openzeppelin/contracts/security/Pausable.sol\":1239:1258  _requireNotPaused() */\n      jump\t// in\n    tag_222:\n        /* \"ChamaCore.sol\":14792:14811  Chama storage chama */\n      0x00\n        /* \"ChamaCore.sol\":14814:14820  chamas */\n      0x04\n        /* \"ChamaCore.sol\":14814:14830  chamas[_chamaId] */\n      0x00\n        /* \"ChamaCore.sol\":14821:14829  _chamaId */\n      dup5\n        /* \"ChamaCore.sol\":14814:14830  chamas[_chamaId] */\n      dup2\n      mstore\n      0x20\n      add\n      swap1\n      dup2\n      mstore\n      0x20\n      add\n      0x00\n      keccak256\n        /* \"ChamaCore.sol\":14792:14830  Chama storage chama = chamas[_chamaId] */\n      swap1\n      pop\n        /* \"ChamaCore.sol\":14854:14859  chama */\n      dup1\n        /* \"ChamaCore.sol\":14854:14866  chama.active */\n      0x05\n      add\n      0x00\n      swap1\n      sload\n      swap1\n      0x0100\n      exp\n      swap1\n      div\n      0xff\n      and\n        /* \"ChamaCore.sol\":14849:14891  if (!chama.active) revert ChamaNotActive() */\n      tag_225\n      jumpi\n        /* \"ChamaCore.sol\":14875:14891  ChamaNotActive() */\n      mload(0x40)\n      0x25500e0300000000000000000000000000000000000000000000000000000000\n      dup2\n      mstore\n      0x04\n      add\n      mload(0x40)\n      dup1\n      swap2\n      sub\n      swap1\n      revert\n        /* \"ChamaCore.sol\":14849:14891  if (!chama.active) revert ChamaNotActive() */\n    tag_225:\n        /* \"ChamaCore.sol\":14972:14978  1 days */\n      0x015180\n        /* \"ChamaCore.sol\":14950:14955  chama */\n      dup2\n        /* \"ChamaCore.sol\":14950:14969  chama.cycleDuration */\n      0x02\n      add\n      sload\n        /* \"ChamaCore.sol\":14923:14928  chama */\n      dup3\n        /* \"ChamaCore.sol\":14923:14947  chama.lastCycleTimestamp */\n      0x08\n      add\n      sload\n        /* \"ChamaCore.sol\":14923:14969  chama.lastCycleTimestamp + chama.cycleDuration */\n      tag_226\n      swap2\n      swap1\n      tag_227\n      jump\t// in\n    tag_226:\n        /* \"ChamaCore.sol\":14923:14978  chama.lastCycleTimestamp + chama.cycleDuration + 1 days */\n      tag_228\n      swap2\n      swap1\n      tag_227\n      jump\t// in\n    tag_228:\n        /* \"ChamaCore.sol\":14905:14920  block.timestamp */\n      timestamp\n        /* \"ChamaCore.sol\":14905:14978  block.timestamp < chama.lastCycleTimestamp + chama.cycleDuration + 1 days */\n      lt\n        /* \"ChamaCore.sol\":14901:15032  if (block.timestamp < chama.lastCycleTimestamp + chama.cycleDuration + 1 days) {... */\n      iszero\n      tag_229\n      jumpi\n        /* \"ChamaCore.sol\":15001:15021  GracePeriodNotOver() */\n      mload(0x40)\n      0xd15f73b500000000000000000000000000000000000000000000000000000000\n      dup2\n      mstore\n      0x04\n      add\n      mload(0x40)\n      dup1\n      swap2\n      sub\n      swap1\n      revert\n        /* \"ChamaCore.sol\":14901:15032  if (block.timestamp < chama.lastCycleTimestamp + chama.cycleDuration + 1 days) {... */\n    tag_229:\n        /* \"ChamaCore.sol\":15132:15141  uint256 i */\n      0x00\n        /* \"ChamaCore.sol\":15144:15145  0 */\n      0x00\n        /* \"ChamaCore.sol\":15132:15145  uint256 i = 0 */\n      swap1\n      pop\n        /* \"ChamaCore.sol\":15127:15964  for (uint256 i = 0; i < chama.members.length; i++) {... */\n    tag_230:\n        /* \"ChamaCore.sol\":15151:15156  chama */\n      dup2\n        /* \"ChamaCore.sol\":15151:15164  chama.members */\n      0x04\n      add\n        /* \"ChamaCore.sol\":15151:15171  chama.members.length */\n      dup1\n      sload\n      swap1\n      pop\n        /* \"ChamaCore.sol\":15147:15148  i */\n      dup2\n        /* \"ChamaCore.sol\":15147:15171  i < chama.members.length */\n      lt\n        /* \"ChamaCore.sol\":15127:15964  for (uint256 i = 0; i < chama.members.length; i++) {... */\n      iszero\n      tag_231\n      jumpi\n        /* \"ChamaCore.sol\":15192:15206  address member */\n      0x00\n        /* \"ChamaCore.sol\":15209:15214  chama */\n      dup3\n        /* \"ChamaCore.sol\":15209:15222  chama.members */\n      0x04\n      add\n        /* \"ChamaCore.sol\":15223:15224  i */\n      dup3\n        /* \"ChamaCore.sol\":15209:15225  chama.members[i] */\n      dup2\n      sload\n      dup2\n      lt\n      tag_233\n      jumpi\n      tag_234\n      tag_235\n      jump\t// in\n    tag_234:\n    tag_233:\n      swap1\n      0x00\n      mstore\n      keccak256(0x00, 0x20)\n      add\n      0x00\n      swap1\n      sload\n      swap1\n      0x0100\n      exp\n      swap1\n      div\n      0xffffffffffffffffffffffffffffffffffffffff\n      and\n        /* \"ChamaCore.sol\":15192:15225  address member = chama.members[i] */\n      swap1\n      pop\n        /* \"ChamaCore.sol\":15244:15267  hasContributedThisCycle */\n      0x06\n        /* \"ChamaCore.sol\":15244:15277  hasContributedThisCycle[_chamaId] */\n      0x00\n        /* \"ChamaCore.sol\":15268:15276  _chamaId */\n      dup7\n        /* \"ChamaCore.sol\":15244:15277  hasContributedThisCycle[_chamaId] */\n      dup2\n      mstore\n      0x20\n      add\n      swap1\n      dup2\n      mstore\n      0x20\n      add\n      0x00\n      keccak256\n        /* \"ChamaCore.sol\":15244:15285  hasContributedThisCycle[_chamaId][member] */\n      0x00\n        /* \"ChamaCore.sol\":15278:15284  member */\n      dup3\n        /* \"ChamaCore.sol\":15244:15285  hasContributedThisCycle[_chamaId][member] */\n      0xffffffffffffffffffffffffffffffffffffffff\n      and\n      0xffffffffffffffffffffffffffffffffffffffff\n      and\n      dup2\n      mstore\n      0x20\n      add\n      swap1\n      dup2\n      mstore\n      0x20\n      add\n      0x00\n      keccak256\n      0x00\n      swap1\n      sload\n      swap1\n      0x0100\n      exp\n      swap1\n      div\n      0xff\n      and\n        /* \"ChamaCore.sol\":15239:15954  if (!hasContributedThisCycle[_chamaId][member]) {... */\n      tag_237\n      jumpi\n        /* \"ChamaCore.sol\":15367:15391  uint256 collateralAmount */\n      0x00\n        /* \"ChamaCore.sol\":15394:15399  chama */\n      dup4\n        /* \"ChamaCore.sol\":15394:15416  chama.memberCollateral */\n      0x10\n      add\n        /* \"ChamaCore.sol\":15394:15424  chama.memberCollateral[member] */\n      0x00\n        /* \"ChamaCore.sol\":15417:15423  member */\n      dup4\n        /* \"ChamaCore.sol\":15394:15424  chama.memberCollateral[member] */\n      0xffffffffffffffffffffffffffffffffffffffff\n      and\n      0xffffffffffffffffffffffffffffffffffffffff\n      and\n      dup2\n      mstore\n      0x20\n      add\n      swap1\n      dup2\n      mstore\n      0x20\n      add\n      0x00\n      keccak256\n      sload\n        /* \"ChamaCore.sol\":15367:15424  uint256 collateralAmount = chama.memberCollateral[member] */\n      swap1\n      pop\n        /* \"ChamaCore.sol\":15465:15466  0 */\n      0x00\n        /* \"ChamaCore.sol\":15446:15462  collateralAmount */\n      dup2\n        /* \"ChamaCore.sol\":15446:15466  collateralAmount > 0 */\n      gt\n        /* \"ChamaCore.sol\":15446:15503  collateralAmount > 0 && !chama.collateralReturned[member] */\n      dup1\n      iszero\n      tag_238\n      jumpi\n      pop\n        /* \"ChamaCore.sol\":15471:15476  chama */\n      dup4\n        /* \"ChamaCore.sol\":15471:15495  chama.collateralReturned */\n      0x11\n      add\n        /* \"ChamaCore.sol\":15471:15503  chama.collateralReturned[member] */\n      0x00\n        /* \"ChamaCore.sol\":15496:15502  member */\n      dup4\n        /* \"ChamaCore.sol\":15471:15503  chama.collateralReturned[member] */\n      0xffffffffffffffffffffffffffffffffffffffff\n      and\n      0xffffffffffffffffffffffffffffffffffffffff\n      and\n      dup2\n      mstore\n      0x20\n      add\n      swap1\n      dup2\n      mstore\n      0x20\n      add\n      0x00\n      keccak256\n      0x00\n      swap1\n      sload\n      swap1\n      0x0100\n      exp\n      swap1\n      div\n      0xff\n      and\n        /* \"ChamaCore.sol\":15470:15503  !chama.collateralReturned[member] */\n      iszero\n        /* \"ChamaCore.sol\":15446:15503  collateralAmount > 0 && !chama.collateralReturned[member] */\n    tag_238:\n        /* \"ChamaCore.sol\":15442:15839  if (collateralAmount > 0 && !chama.collateralReturned[member]) {... */\n      iszero\n      tag_239\n      jumpi\n        /* \"ChamaCore.sol\":15562:15566  true */\n      0x01\n        /* \"ChamaCore.sol\":15527:15532  chama */\n      dup5\n        /* \"ChamaCore.sol\":15527:15551  chama.collateralReturned */\n      0x11\n      add\n        /* \"ChamaCore.sol\":15527:15559  chama.collateralReturned[member] */\n      0x00\n        /* \"ChamaCore.sol\":15552:15558  member */\n      dup5\n        /* \"ChamaCore.sol\":15527:15559  chama.collateralReturned[member] */\n      0xffffffffffffffffffffffffffffffffffffffff\n      and\n      0xffffffffffffffffffffffffffffffffffffffff\n      and\n      dup2\n      mstore\n      0x20\n      add\n      swap1\n      dup2\n      mstore\n      0x20\n      add\n      0x00\n      keccak256\n      0x00\n        /* \"ChamaCore.sol\":15527:15566  chama.collateralReturned[member] = true */\n      0x0100\n      exp\n      dup2\n      sload\n      dup2\n      0xff\n      mul\n      not\n      and\n      swap1\n      dup4\n      iszero\n      iszero\n      mul\n      or\n      swap1\n      sstore\n      pop\n        /* \"ChamaCore.sol\":15634:15650  collateralAmount */\n      dup1\n        /* \"ChamaCore.sol\":15609:15614  chama */\n      dup5\n        /* \"ChamaCore.sol\":15609:15630  chama.totalCollateral */\n      0x12\n      add\n      0x00\n        /* \"ChamaCore.sol\":15609:15650  chama.totalCollateral -= collateralAmount */\n      dup3\n      dup3\n      sload\n      tag_240\n      swap2\n      swap1\n      tag_241\n      jump\t// in\n    tag_240:\n      swap3\n      pop\n      pop\n      dup2\n      swap1\n      sstore\n      pop\n        /* \"ChamaCore.sol\":15795:15801  member */\n      dup2\n        /* \"ChamaCore.sol\":15765:15820  CollateralForfeited(_chamaId, member, collateralAmount) */\n      0xffffffffffffffffffffffffffffffffffffffff\n      and\n        /* \"ChamaCore.sol\":15785:15793  _chamaId */\n      dup7\n        /* \"ChamaCore.sol\":15765:15820  CollateralForfeited(_chamaId, member, collateralAmount) */\n      0x9ed6c8e3f152b165733c0aa8ef3b791333859fb2ebcefd11171ade0c13814f69\n        /* \"ChamaCore.sol\":15803:15819  collateralAmount */\n      dup4\n        /* \"ChamaCore.sol\":15765:15820  CollateralForfeited(_chamaId, member, collateralAmount) */\n      mload(0x40)\n      tag_242\n      swap2\n      swap1\n      tag_54\n      jump\t// in\n    tag_242:\n      mload(0x40)\n      dup1\n      swap2\n      sub\n      swap1\n      log3\n        /* \"ChamaCore.sol\":15442:15839  if (collateralAmount > 0 && !chama.collateralReturned[member]) {... */\n    tag_239:\n        /* \"ChamaCore.sol\":15912:15918  member */\n      dup2\n        /* \"ChamaCore.sol\":15878:15939  ChamaContributionMissed(_chamaId, member, chama.currentCycle) */\n      0xffffffffffffffffffffffffffffffffffffffff\n      and\n        /* \"ChamaCore.sol\":15902:15910  _chamaId */\n      dup7\n        /* \"ChamaCore.sol\":15878:15939  ChamaContributionMissed(_chamaId, member, chama.currentCycle) */\n      0x59ca9b721031f8a20ffb25e62f673b6fe5fc0b301e1d6cc089fcccadf62e4862\n        /* \"ChamaCore.sol\":15920:15925  chama */\n      dup7\n        /* \"ChamaCore.sol\":15920:15938  chama.currentCycle */\n      0x06\n      add\n      sload\n        /* \"ChamaCore.sol\":15878:15939  ChamaContributionMissed(_chamaId, member, chama.currentCycle) */\n      mload(0x40)\n      tag_243\n      swap2\n      swap1\n      tag_54\n      jump\t// in\n    tag_243:\n      mload(0x40)\n      dup1\n      swap2\n      sub\n      swap1\n      log3\n        /* \"ChamaCore.sol\":15287:15954  {... */\n      pop\n        /* \"ChamaCore.sol\":15239:15954  if (!hasContributedThisCycle[_chamaId][member]) {... */\n    tag_237:\n        /* \"ChamaCore.sol\":15178:15964  {... */\n      pop\n        /* \"ChamaCore.sol\":15173:15176  i++ */\n      dup1\n      dup1\n      0x01\n      add\n      swap2\n      pop\n      pop\n        /* \"ChamaCore.sol\":15127:15964  for (uint256 i = 0; i < chama.members.length; i++) {... */\n      jump(tag_230)\n    tag_231:\n      pop\n        /* \"ChamaCore.sol\":16043:16072  _processCyclePayout(_chamaId) */\n      tag_244\n        /* \"ChamaCore.sol\":16063:16071  _chamaId */\n      dup4\n        /* \"ChamaCore.sol\":16043:16062  _processCyclePayout */\n      tag_245\n        /* \"ChamaCore.sol\":16043:16072  _processCyclePayout(_chamaId) */\n      jump\t// in\n    tag_244:\n        /* \"ChamaCore.sol\":14782:16079  {... */\n      pop\n        /* \"ChamaCore.sol\":14651:16079  function processMissedContributions(uint256 _chamaId) ... */\n      pop\n      pop\n      jump\t// out\n        /* \"@openzeppelin/contracts/access/AccessControl.sol\":5304:5549  function renounceRole(bytes32 role, address callerConfirmation) public virtual {... */\n    tag_88:\n        /* \"@openzeppelin/contracts/access/AccessControl.sol\":5419:5431  _msgSender() */\n      tag_247\n        /* \"@openzeppelin/contracts/access/AccessControl.sol\":5419:5429  _msgSender */\n      tag_248\n        /* \"@openzeppelin/contracts/access/AccessControl.sol\":5419:5431  _msgSender() */\n      jump\t// in\n    tag_247:\n        /* \"@openzeppelin/contracts/access/AccessControl.sol\":5397:5431  callerConfirmation != _msgSender() */\n      0xffffffffffffffffffffffffffffffffffffffff\n      and\n        /* \"@openzeppelin/contracts/access/AccessControl.sol\":5397:5415  callerConfirmation */\n      dup2\n        /* \"@openzeppelin/contracts/access/AccessControl.sol\":5397:5431  callerConfirmation != _msgSender() */\n      0xffffffffffffffffffffffffffffffffffffffff\n      and\n      eq\n        /* \"@openzeppelin/contracts/access/AccessControl.sol\":5393:5495  if (callerConfirmation != _msgSender()) {... */\n      tag_249\n      jumpi\n        /* \"@openzeppelin/contracts/access/AccessControl.sol\":5454:5484  AccessControlBadConfirmation() */\n      mload(0x40)\n      0x6697b23200000000000000000000000000000000000000000000000000000000\n      dup2\n      mstore\n      0x04\n      add\n      mload(0x40)\n      dup1\n      swap2\n      sub\n      swap1\n      revert\n        /* \"@openzeppelin/contracts/access/AccessControl.sol\":5393:5495  if (callerConfirmation != _msgSender()) {... */\n    tag_249:\n        /* \"@openzeppelin/contracts/access/AccessControl.sol\":5505:5542  _revokeRole(role, callerConfirmation) */\n      tag_250\n        /* \"@openzeppelin/contracts/access/AccessControl.sol\":5517:5521  role */\n      dup3\n        /* \"@openzeppelin/contracts/access/AccessControl.sol\":5523:5541  callerConfirmation */\n      dup3\n        /* \"@openzeppelin/contracts/access/AccessControl.sol\":5505:5516  _revokeRole */\n      tag_251\n        /* \"@openzeppelin/contracts/access/AccessControl.sol\":5505:5542  _revokeRole(role, callerConfirmation) */\n      jump\t// in\n    tag_250:\n      pop\n        /* \"@openzeppelin/contracts/access/AccessControl.sol\":5304:5549  function renounceRole(bytes32 role, address callerConfirmation) public virtual {... */\n      pop\n      pop\n      jump\t// out\n        /* \"ChamaCore.sol\":16952:17153  function getMemberContributions(uint256 _chamaId, address _member) ... */\n    tag_92:\n        /* \"ChamaCore.sol\":17069:17090  Contribution[] memory */\n      0x60\n        /* \"ChamaCore.sol\":17114:17127  contributions */\n      0x05\n        /* \"ChamaCore.sol\":17114:17137  contributions[_chamaId] */\n      0x00\n        /* \"ChamaCore.sol\":17128:17136  _chamaId */\n      dup5\n        /* \"ChamaCore.sol\":17114:17137  contributions[_chamaId] */\n      dup2\n      mstore\n      0x20\n      add\n      swap1\n      dup2\n      mstore\n      0x20\n      add\n      0x00\n      keccak256\n        /* \"ChamaCore.sol\":17114:17146  contributions[_chamaId][_member] */\n      0x00\n        /* \"ChamaCore.sol\":17138:17145  _member */\n      dup4\n        /* \"ChamaCore.sol\":17114:17146  contributions[_chamaId][_member] */\n      0xffffffffffffffffffffffffffffffffffffffff\n      and\n      0xffffffffffffffffffffffffffffffffffffffff\n      and\n      dup2\n      mstore\n      0x20\n      add\n      swap1\n      dup2\n      mstore\n      0x20\n      add\n      0x00\n      keccak256\n        /* \"ChamaCore.sol\":17107:17146  return contributions[_chamaId][_member] */\n      dup1\n      sload\n      dup1\n      0x20\n      mul\n      0x20\n      add\n      mload(0x40)\n      swap1\n      dup2\n      add\n      0x40\n      mstore\n      dup1\n      swap3\n      swap2\n      swap1\n      dup2\n      dup2\n      mstore\n      0x20\n      add\n      0x00\n      swap1\n    tag_253:\n      dup3\n      dup3\n      lt\n      iszero\n      tag_254\n      jumpi\n      dup4\n      dup3\n      swap1\n      0x00\n      mstore\n      keccak256(0x00, 0x20)\n      swap1\n      0x03\n      mul\n      add\n      mload(0x40)\n      dup1\n      0x60\n      add\n      0x40\n      mstore\n      swap1\n      dup2\n      0x00\n      dup3\n      add\n      0x00\n      swap1\n      sload\n      swap1\n      0x0100\n      exp\n      swap1\n      div\n      0xffffffffffffffffffffffffffffffffffffffff\n      and\n      0xffffffffffffffffffffffffffffffffffffffff\n      and\n      0xffffffffffffffffffffffffffffffffffffffff\n      and\n      dup2\n      mstore\n      0x20\n      add\n      0x01\n      dup3\n      add\n      sload\n      dup2\n      mstore\n      0x20\n      add\n      0x02\n      dup3\n      add\n      sload\n      dup2\n      mstore\n      pop\n      pop\n      dup2\n      mstore\n      0x20\n      add\n      swap1\n      0x01\n      add\n      swap1\n      jump(tag_253)\n    tag_254:\n      pop\n      pop\n      pop\n      pop\n      swap1\n      pop\n        /* \"ChamaCore.sol\":16952:17153  function getMemberContributions(uint256 _chamaId, address _member) ... */\n      swap3\n      swap2\n      pop\n      pop\n      jump\t// out\n        /* \"ChamaCore.sol\":18796:18872  function unpause() external onlyRole(ADMIN_ROLE) {... */\n    tag_97:\n        /* \"ChamaCore.sol\":532:555  keccak256(\"ADMIN_ROLE\") */\n      0xa49807205ce4d355092ef5a8a18f56e8913cf4a201fbe287825b095693c21775\n        /* \"@openzeppelin/contracts/access/AccessControl.sol\":2473:2489  _checkRole(role) */\n      tag_257\n        /* \"@openzeppelin/contracts/access/AccessControl.sol\":2484:2488  role */\n      dup2\n        /* \"@openzeppelin/contracts/access/AccessControl.sol\":2473:2483  _checkRole */\n      tag_214\n        /* \"@openzeppelin/contracts/access/AccessControl.sol\":2473:2489  _checkRole(role) */\n      jump\t// in\n    tag_257:\n        /* \"ChamaCore.sol\":18855:18865  _unpause() */\n      tag_259\n        /* \"ChamaCore.sol\":18855:18863  _unpause */\n      tag_260\n        /* \"ChamaCore.sol\":18855:18865  _unpause() */\n      jump\t// in\n    tag_259:\n        /* \"ChamaCore.sol\":18796:18872  function unpause() external onlyRole(ADMIN_ROLE) {... */\n      pop\n      jump\t// out\n        /* \"ChamaCore.sol\":6547:7609  function joinChama(uint256 _chamaId) ... */\n    tag_100:\n        /* \"ChamaCore.sol\":6640:6648  _chamaId */\n      dup1\n        /* \"ChamaCore.sol\":4075:4076  0 */\n      0x00\n        /* \"ChamaCore.sol\":4063:4071  _chamaId */\n      dup2\n        /* \"ChamaCore.sol\":4063:4076  _chamaId == 0 */\n      eq\n        /* \"ChamaCore.sol\":4063:4101  _chamaId == 0 || _chamaId > chamaCount */\n      dup1\n      tag_262\n      jumpi\n      pop\n        /* \"ChamaCore.sol\":4091:4101  chamaCount */\n      sload(0x03)\n        /* \"ChamaCore.sol\":4080:4088  _chamaId */\n      dup2\n        /* \"ChamaCore.sol\":4080:4101  _chamaId > chamaCount */\n      gt\n        /* \"ChamaCore.sol\":4063:4101  _chamaId == 0 || _chamaId > chamaCount */\n    tag_262:\n        /* \"ChamaCore.sol\":4059:4125  if (_chamaId == 0 || _chamaId > chamaCount) revert ChamaNotFound() */\n      iszero\n      tag_263\n      jumpi\n        /* \"ChamaCore.sol\":4110:4125  ChamaNotFound() */\n      mload(0x40)\n      0x037ff9d600000000000000000000000000000000000000000000000000000000\n      dup2\n      mstore\n      0x04\n      add\n      mload(0x40)\n      dup1\n      swap2\n      sub\n      swap1\n      revert\n        /* \"ChamaCore.sol\":4059:4125  if (_chamaId == 0 || _chamaId > chamaCount) revert ChamaNotFound() */\n    tag_263:\n        /* \"ChamaCore.sol\":6671:6679  _chamaId */\n      dup2\n        /* \"ChamaCore.sol\":4203:4209  chamas */\n      0x04\n        /* \"ChamaCore.sol\":4203:4219  chamas[_chamaId] */\n      0x00\n        /* \"ChamaCore.sol\":4210:4218  _chamaId */\n      dup3\n        /* \"ChamaCore.sol\":4203:4219  chamas[_chamaId] */\n      dup2\n      mstore\n      0x20\n      add\n      swap1\n      dup2\n      mstore\n      0x20\n      add\n      0x00\n      keccak256\n        /* \"ChamaCore.sol\":4203:4226  chamas[_chamaId].active */\n      0x05\n      add\n      0x00\n      swap1\n      sload\n      swap1\n      0x0100\n      exp\n      swap1\n      div\n      0xff\n      and\n        /* \"ChamaCore.sol\":4198:4251  if (!chamas[_chamaId].active) revert ChamaNotActive() */\n      tag_265\n      jumpi\n        /* \"ChamaCore.sol\":4235:4251  ChamaNotActive() */\n      mload(0x40)\n      0x25500e0300000000000000000000000000000000000000000000000000000000\n      dup2\n      mstore\n      0x04\n      add\n      mload(0x40)\n      dup1\n      swap2\n      sub\n      swap1\n      revert\n        /* \"ChamaCore.sol\":4198:4251  if (!chamas[_chamaId].active) revert ChamaNotActive() */\n    tag_265:\n        /* \"@openzeppelin/contracts/security/Pausable.sol\":1239:1258  _requireNotPaused() */\n      tag_267\n        /* \"@openzeppelin/contracts/security/Pausable.sol\":1239:1256  _requireNotPaused */\n      tag_223\n        /* \"@openzeppelin/contracts/security/Pausable.sol\":1239:1258  _requireNotPaused() */\n      jump\t// in\n    tag_267:\n        /* \"@openzeppelin/contracts/security/ReentrancyGuard.sol\":2261:2282  _nonReentrantBefore() */\n      tag_269\n        /* \"@openzeppelin/contracts/security/ReentrancyGuard.sol\":2261:2280  _nonReentrantBefore */\n      tag_270\n        /* \"@openzeppelin/contracts/security/ReentrancyGuard.sol\":2261:2282  _nonReentrantBefore() */\n      jump\t// in\n    tag_269:\n        /* \"ChamaCore.sol\":6741:6760  Chama storage chama */\n      0x00\n        /* \"ChamaCore.sol\":6763:6769  chamas */\n      0x04\n        /* \"ChamaCore.sol\":6763:6779  chamas[_chamaId] */\n      0x00\n        /* \"ChamaCore.sol\":6770:6778  _chamaId */\n      dup6\n        /* \"ChamaCore.sol\":6763:6779  chamas[_chamaId] */\n      dup2\n      mstore\n      0x20\n      add\n      swap1\n      dup2\n      mstore\n      0x20\n      add\n      0x00\n      keccak256\n        /* \"ChamaCore.sol\":6741:6779  Chama storage chama = chamas[_chamaId] */\n      swap1\n      pop\n        /* \"ChamaCore.sol\":6802:6807  chama */\n      dup1\n        /* \"ChamaCore.sol\":6802:6816  chama.isMember */\n      0x0b\n      add\n        /* \"ChamaCore.sol\":6802:6828  chama.isMember[msg.sender] */\n      0x00\n        /* \"ChamaCore.sol\":6817:6827  msg.sender */\n      caller\n        /* \"ChamaCore.sol\":6802:6828  chama.isMember[msg.sender] */\n      0xffffffffffffffffffffffffffffffffffffffff\n      and\n      0xffffffffffffffffffffffffffffffffffffffff\n      and\n      dup2\n      mstore\n      0x20\n      add\n      swap1\n      dup2\n      mstore\n      0x20\n      add\n      0x00\n      keccak256\n      0x00\n      swap1\n      sload\n      swap1\n      0x0100\n      exp\n      swap1\n      div\n      0xff\n      and\n        /* \"ChamaCore.sol\":6798:6852  if (chama.isMember[msg.sender]) revert AlreadyMember() */\n      iszero\n      tag_272\n      jumpi\n        /* \"ChamaCore.sol\":6837:6852  AlreadyMember() */\n      mload(0x40)\n      0x810074be00000000000000000000000000000000000000000000000000000000\n      dup2\n      mstore\n      0x04\n      add\n      mload(0x40)\n      dup1\n      swap2\n      sub\n      swap1\n      revert\n        /* \"ChamaCore.sol\":6798:6852  if (chama.isMember[msg.sender]) revert AlreadyMember() */\n    tag_272:\n        /* \"ChamaCore.sol\":6890:6895  chama */\n      dup1\n        /* \"ChamaCore.sol\":6890:6906  chama.maxMembers */\n      0x03\n      add\n      sload\n        /* \"ChamaCore.sol\":6866:6871  chama */\n      dup2\n        /* \"ChamaCore.sol\":6866:6879  chama.members */\n      0x04\n      add\n        /* \"ChamaCore.sol\":6866:6886  chama.members.length */\n      dup1\n      sload\n      swap1\n      pop\n        /* \"ChamaCore.sol\":6866:6906  chama.members.length >= chama.maxMembers */\n      lt\n        /* \"ChamaCore.sol\":6862:6926  if (chama.members.length >= chama.maxMembers) revert ChamaFull() */\n      tag_273\n      jumpi\n        /* \"ChamaCore.sol\":6915:6926  ChamaFull() */\n      mload(0x40)\n      0xcbc6f21000000000000000000000000000000000000000000000000000000000\n      dup2\n      mstore\n      0x04\n      add\n      mload(0x40)\n      dup1\n      swap2\n      sub\n      swap1\n      revert\n        /* \"ChamaCore.sol\":6862:6926  if (chama.members.length >= chama.maxMembers) revert ChamaFull() */\n    tag_273:\n        /* \"ChamaCore.sol\":6952:6957  chama */\n      dup1\n        /* \"ChamaCore.sol\":6952:6976  chama.contributionAmount */\n      0x01\n      add\n      sload\n        /* \"ChamaCore.sol\":6940:6949  msg.value */\n      callvalue\n        /* \"ChamaCore.sol\":6940:6976  msg.value < chama.contributionAmount */\n      lt\n        /* \"ChamaCore.sol\":6936:7009  if (msg.value < chama.contributionAmount) revert InsufficientCollateral() */\n      iszero\n      tag_274\n      jumpi\n        /* \"ChamaCore.sol\":6985:7009  InsufficientCollateral() */\n      mload(0x40)\n      0x3a23d82500000000000000000000000000000000000000000000000000000000\n      dup2\n      mstore\n      0x04\n      add\n      mload(0x40)\n      dup1\n      swap2\n      sub\n      swap1\n      revert\n        /* \"ChamaCore.sol\":6936:7009  if (msg.value < chama.contributionAmount) revert InsufficientCollateral() */\n    tag_274:\n        /* \"ChamaCore.sol\":7050:7069  uint256 memberIndex */\n      0x00\n        /* \"ChamaCore.sol\":7072:7077  chama */\n      dup2\n        /* \"ChamaCore.sol\":7072:7085  chama.members */\n      0x04\n      add\n        /* \"ChamaCore.sol\":7072:7092  chama.members.length */\n      dup1\n      sload\n      swap1\n      pop\n        /* \"ChamaCore.sol\":7050:7092  uint256 memberIndex = chama.members.length */\n      swap1\n      pop\n        /* \"ChamaCore.sol\":7102:7107  chama */\n      dup2\n        /* \"ChamaCore.sol\":7102:7115  chama.members */\n      0x04\n      add\n        /* \"ChamaCore.sol\":7121:7131  msg.sender */\n      caller\n        /* \"ChamaCore.sol\":7102:7132  chama.members.push(msg.sender) */\n      swap1\n      dup1\n      0x01\n      dup2\n      sload\n      add\n      dup1\n      dup3\n      sstore\n      dup1\n      swap2\n      pop\n      pop\n      0x01\n      swap1\n      sub\n      swap1\n      0x00\n      mstore\n      keccak256(0x00, 0x20)\n      add\n      0x00\n      swap1\n      swap2\n      swap1\n      swap2\n      swap1\n      swap2\n      0x0100\n      exp\n      dup2\n      sload\n      dup2\n      0xffffffffffffffffffffffffffffffffffffffff\n      mul\n      not\n      and\n      swap1\n      dup4\n      0xffffffffffffffffffffffffffffffffffffffff\n      and\n      mul\n      or\n      swap1\n      sstore\n      pop\n        /* \"ChamaCore.sol\":7171:7175  true */\n      0x01\n        /* \"ChamaCore.sol\":7142:7147  chama */\n      dup3\n        /* \"ChamaCore.sol\":7142:7156  chama.isMember */\n      0x0b\n      add\n        /* \"ChamaCore.sol\":7142:7168  chama.isMember[msg.sender] */\n      0x00\n        /* \"ChamaCore.sol\":7157:7167  msg.sender */\n      caller\n        /* \"ChamaCore.sol\":7142:7168  chama.isMember[msg.sender] */\n      0xffffffffffffffffffffffffffffffffffffffff\n      and\n      0xffffffffffffffffffffffffffffffffffffffff\n      and\n      dup2\n      mstore\n      0x20\n      add\n      swap1\n      dup2\n      mstore\n      0x20\n      add\n      0x00\n      keccak256\n      0x00\n        /* \"ChamaCore.sol\":7142:7175  chama.isMember[msg.sender] = true */\n      0x0100\n      exp\n      dup2\n      sload\n      dup2\n      0xff\n      mul\n      not\n      and\n      swap1\n      dup4\n      iszero\n      iszero\n      mul\n      or\n      swap1\n      sstore\n      pop\n        /* \"ChamaCore.sol\":7217:7228  memberIndex */\n      dup1\n        /* \"ChamaCore.sol\":7185:7190  chama */\n      dup3\n        /* \"ChamaCore.sol\":7185:7202  chama.memberIndex */\n      0x0c\n      add\n        /* \"ChamaCore.sol\":7185:7214  chama.memberIndex[msg.sender] */\n      0x00\n        /* \"ChamaCore.sol\":7203:7213  msg.sender */\n      caller\n        /* \"ChamaCore.sol\":7185:7214  chama.memberIndex[msg.sender] */\n      0xffffffffffffffffffffffffffffffffffffffff\n      and\n      0xffffffffffffffffffffffffffffffffffffffff\n      and\n      dup2\n      mstore\n      0x20\n      add\n      swap1\n      dup2\n      mstore\n      0x20\n      add\n      0x00\n      keccak256\n        /* \"ChamaCore.sol\":7185:7228  chama.memberIndex[msg.sender] = memberIndex */\n      dup2\n      swap1\n      sstore\n      pop\n        /* \"ChamaCore.sol\":7275:7284  msg.value */\n      callvalue\n        /* \"ChamaCore.sol\":7238:7243  chama */\n      dup3\n        /* \"ChamaCore.sol\":7238:7260  chama.memberCollateral */\n      0x10\n      add\n        /* \"ChamaCore.sol\":7238:7272  chama.memberCollateral[msg.sender] */\n      0x00\n        /* \"ChamaCore.sol\":7261:7271  msg.sender */\n      caller\n        /* \"ChamaCore.sol\":7238:7272  chama.memberCollateral[msg.sender] */\n      0xffffffffffffffffffffffffffffffffffffffff\n      and\n      0xffffffffffffffffffffffffffffffffffffffff\n      and\n      dup2\n      mstore\n      0x20\n      add\n      swap1\n      dup2\n      mstore\n      0x20\n      add\n      0x00\n      keccak256\n        /* \"ChamaCore.sol\":7238:7284  chama.memberCollateral[msg.sender] = msg.value */\n      dup2\n      swap1\n      sstore\n      pop\n        /* \"ChamaCore.sol\":7319:7328  msg.value */\n      callvalue\n        /* \"ChamaCore.sol\":7294:7299  chama */\n      dup3\n        /* \"ChamaCore.sol\":7294:7315  chama.totalCollateral */\n      0x12\n      add\n      0x00\n        /* \"ChamaCore.sol\":7294:7328  chama.totalCollateral += msg.value */\n      dup3\n      dup3\n      sload\n      tag_276\n      swap2\n      swap1\n      tag_227\n      jump\t// in\n    tag_276:\n      swap3\n      pop\n      pop\n      dup2\n      swap1\n      sstore\n      pop\n        /* \"ChamaCore.sol\":7374:7384  msg.sender */\n      caller\n        /* \"ChamaCore.sol\":7352:7385  ChamaJoined(_chamaId, msg.sender) */\n      0xffffffffffffffffffffffffffffffffffffffff\n      and\n        /* \"ChamaCore.sol\":7364:7372  _chamaId */\n      dup6\n        /* \"ChamaCore.sol\":7352:7385  ChamaJoined(_chamaId, msg.sender) */\n      0x40a8c7a25e1eab32f305b79614cb4eb53a2d5d546bc4a5b0b55e5a7dc1228dce\n      mload(0x40)\n      mload(0x40)\n      dup1\n      swap2\n      sub\n      swap1\n      log3\n        /* \"ChamaCore.sol\":7430:7440  msg.sender */\n      caller\n        /* \"ChamaCore.sol\":7400:7452  CollateralDeposited(_chamaId, msg.sender, msg.value) */\n      0xffffffffffffffffffffffffffffffffffffffff\n      and\n        /* \"ChamaCore.sol\":7420:7428  _chamaId */\n      dup6\n        /* \"ChamaCore.sol\":7400:7452  CollateralDeposited(_chamaId, msg.sender, msg.value) */\n      0xeec2f3feb835e2f2fd44281034b04700a1ddda63dd402949d470a25a7c40b36c\n        /* \"ChamaCore.sol\":7442:7451  msg.value */\n      callvalue\n        /* \"ChamaCore.sol\":7400:7452  CollateralDeposited(_chamaId, msg.sender, msg.value) */\n      mload(0x40)\n      tag_277\n      swap2\n      swap1\n      tag_54\n      jump\t// in\n    tag_277:\n      mload(0x40)\n      dup1\n      swap2\n      sub\n      swap1\n      log3\n        /* \"ChamaCore.sol\":7539:7544  chama */\n      dup2\n        /* \"ChamaCore.sol\":7539:7555  chama.maxMembers */\n      0x03\n      add\n      sload\n        /* \"ChamaCore.sol\":7515:7520  chama */\n      dup3\n        /* \"ChamaCore.sol\":7515:7528  chama.members */\n      0x04\n      add\n        /* \"ChamaCore.sol\":7515:7535  chama.members.length */\n      dup1\n      sload\n      swap1\n      pop\n        /* \"ChamaCore.sol\":7515:7555  chama.members.length == chama.maxMembers */\n      sub\n        /* \"ChamaCore.sol\":7511:7603  if (chama.members.length == chama.maxMembers) {... */\n      tag_278\n      jumpi\n        /* \"ChamaCore.sol\":7571:7592  _startChama(_chamaId) */\n      tag_279\n        /* \"ChamaCore.sol\":7583:7591  _chamaId */\n      dup6\n        /* \"ChamaCore.sol\":7571:7582  _startChama */\n      tag_280\n        /* \"ChamaCore.sol\":7571:7592  _startChama(_chamaId) */\n      jump\t// in\n    tag_279:\n        /* \"ChamaCore.sol\":7511:7603  if (chama.members.length == chama.maxMembers) {... */\n    tag_278:\n        /* \"ChamaCore.sol\":6731:7609  {... */\n      pop\n      pop\n        /* \"@openzeppelin/contracts/security/ReentrancyGuard.sol\":2303:2323  _nonReentrantAfter() */\n      tag_281\n        /* \"@openzeppelin/contracts/security/ReentrancyGuard.sol\":2303:2321  _nonReentrantAfter */\n      tag_282\n        /* \"@openzeppelin/contracts/security/ReentrancyGuard.sol\":2303:2323  _nonReentrantAfter() */\n      jump\t// in\n    tag_281:\n        /* \"ChamaCore.sol\":4135:4136  _ */\n      pop\n        /* \"ChamaCore.sol\":6547:7609  function joinChama(uint256 _chamaId) ... */\n      pop\n      pop\n      jump\t// out\n        /* \"ChamaCore.sol\":17749:17943  function isCollateralReturned(uint256 _chamaId, address _member) ... */\n    tag_104:\n        /* \"ChamaCore.sol\":17864:17868  bool */\n      0x00\n        /* \"ChamaCore.sol\":17892:17898  chamas */\n      0x04\n        /* \"ChamaCore.sol\":17892:17908  chamas[_chamaId] */\n      0x00\n        /* \"ChamaCore.sol\":17899:17907  _chamaId */\n      dup5\n        /* \"ChamaCore.sol\":17892:17908  chamas[_chamaId] */\n      dup2\n      mstore\n      0x20\n      add\n      swap1\n      dup2\n      mstore\n      0x20\n      add\n      0x00\n      keccak256\n        /* \"ChamaCore.sol\":17892:17927  chamas[_chamaId].collateralReturned */\n      0x11\n      add\n        /* \"ChamaCore.sol\":17892:17936  chamas[_chamaId].collateralReturned[_member] */\n      0x00\n        /* \"ChamaCore.sol\":17928:17935  _member */\n      dup4\n        /* \"ChamaCore.sol\":17892:17936  chamas[_chamaId].collateralReturned[_member] */\n      0xffffffffffffffffffffffffffffffffffffffff\n      and\n      0xffffffffffffffffffffffffffffffffffffffff\n      and\n      dup2\n      mstore\n      0x20\n      add\n      swap1\n      dup2\n      mstore\n      0x20\n      add\n      0x00\n      keccak256\n      0x00\n      swap1\n      sload\n      swap1\n      0x0100\n      exp\n      swap1\n      div\n      0xff\n      and\n        /* \"ChamaCore.sol\":17885:17936  return chamas[_chamaId].collateralReturned[_member] */\n      swap1\n      pop\n        /* \"ChamaCore.sol\":17749:17943  function isCollateralReturned(uint256 _chamaId, address _member) ... */\n      swap3\n      swap2\n      pop\n      pop\n      jump\t// out\n        /* \"@openzeppelin/contracts/security/Pausable.sol\":1615:1699  function paused() public view virtual returns (bool) {... */\n    tag_108:\n        /* \"@openzeppelin/contracts/security/Pausable.sol\":1662:1666  bool */\n      0x00\n        /* \"@openzeppelin/contracts/security/Pausable.sol\":1685:1692  _paused */\n      0x01\n      0x00\n      swap1\n      sload\n      swap1\n      0x0100\n      exp\n      swap1\n      div\n      0xff\n      and\n        /* \"@openzeppelin/contracts/security/Pausable.sol\":1678:1692  return _paused */\n      swap1\n      pop\n        /* \"@openzeppelin/contracts/security/Pausable.sol\":1615:1699  function paused() public view virtual returns (bool) {... */\n      swap1\n      jump\t// out\n        /* \"ChamaCore.sol\":495:555  bytes32 public constant ADMIN_ROLE = keccak256(\"ADMIN_ROLE\") */\n    tag_112:\n        /* \"ChamaCore.sol\":532:555  keccak256(\"ADMIN_ROLE\") */\n      0xa49807205ce4d355092ef5a8a18f56e8913cf4a201fbe287825b095693c21775\n        /* \"ChamaCore.sol\":495:555  bytes32 public constant ADMIN_ROLE = keccak256(\"ADMIN_ROLE\") */\n      dup2\n      jump\t// out\n        /* \"ChamaCore.sol\":2005:2080  mapping(uint256 => mapping(address => bool)) public hasContributedThisCycle */\n    tag_117:\n      mstore(0x20, 0x06)\n      dup2\n      0x00\n      mstore\n      mstore(0x20, keccak256(0x00, 0x40))\n      dup1\n      0x00\n      mstore\n      keccak256(0x00, 0x40)\n      0x00\n      swap2\n      pop\n      swap2\n      pop\n      swap1\n      sload\n      swap1\n      0x0100\n      exp\n      swap1\n      div\n      0xff\n      and\n      dup2\n      jump\t// out\n        /* \"ChamaCore.sol\":17549:17743  function getMemberCollateral(uint256 _chamaId, address _member) ... */\n    tag_122:\n        /* \"ChamaCore.sol\":17663:17670  uint256 */\n      0x00\n        /* \"ChamaCore.sol\":17694:17700  chamas */\n      0x04\n        /* \"ChamaCore.sol\":17694:17710  chamas[_chamaId] */\n      0x00\n        /* \"ChamaCore.sol\":17701:17709  _chamaId */\n      dup5\n        /* \"ChamaCore.sol\":17694:17710  chamas[_chamaId] */\n      dup2\n      mstore\n      0x20\n      add\n      swap1\n      dup2\n      mstore\n      0x20\n      add\n      0x00\n      keccak256\n        /* \"ChamaCore.sol\":17694:17727  chamas[_chamaId].memberCollateral */\n      0x10\n      add\n        /* \"ChamaCore.sol\":17694:17736  chamas[_chamaId].memberCollateral[_member] */\n      0x00\n        /* \"ChamaCore.sol\":17728:17735  _member */\n      dup4\n        /* \"ChamaCore.sol\":17694:17736  chamas[_chamaId].memberCollateral[_member] */\n      0xffffffffffffffffffffffffffffffffffffffff\n      and\n      0xffffffffffffffffffffffffffffffffffffffff\n      and\n      dup2\n      mstore\n      0x20\n      add\n      swap1\n      dup2\n      mstore\n      0x20\n      add\n      0x00\n      keccak256\n      sload\n        /* \"ChamaCore.sol\":17687:17736  return chamas[_chamaId].memberCollateral[_member] */\n      swap1\n      pop\n        /* \"ChamaCore.sol\":17549:17743  function getMemberCollateral(uint256 _chamaId, address _member) ... */\n      swap3\n      swap2\n      pop\n      pop\n      jump\t// out\n        /* \"ChamaCore.sol\":18718:18790  function pause() external onlyRole(ADMIN_ROLE) {... */\n    tag_126:\n        /* \"ChamaCore.sol\":532:555  keccak256(\"ADMIN_ROLE\") */\n      0xa49807205ce4d355092ef5a8a18f56e8913cf4a201fbe287825b095693c21775\n        /* \"@openzeppelin/contracts/access/AccessControl.sol\":2473:2489  _checkRole(role) */\n      tag_287\n        /* \"@openzeppelin/contracts/access/AccessControl.sol\":2484:2488  role */\n      dup2\n        /* \"@openzeppelin/contracts/access/AccessControl.sol\":2473:2483  _checkRole */\n      tag_214\n        /* \"@openzeppelin/contracts/access/AccessControl.sol\":2473:2489  _checkRole(role) */\n      jump\t// in\n    tag_287:\n        /* \"ChamaCore.sol\":18775:18783  _pause() */\n      tag_289\n        /* \"ChamaCore.sol\":18775:18781  _pause */\n      tag_290\n        /* \"ChamaCore.sol\":18775:18783  _pause() */\n      jump\t// in\n    tag_289:\n        /* \"ChamaCore.sol\":18718:18790  function pause() external onlyRole(ADMIN_ROLE) {... */\n      pop\n      jump\t// out\n        /* \"ChamaCore.sol\":18089:18351  function getMemberPayoutPosition(uint256 _chamaId, address _member) ... */\n    tag_130:\n        /* \"ChamaCore.sol\":18207:18214  uint256 */\n      0x00\n        /* \"ChamaCore.sol\":18236:18242  chamas */\n      0x04\n        /* \"ChamaCore.sol\":18236:18252  chamas[_chamaId] */\n      0x00\n        /* \"ChamaCore.sol\":18243:18251  _chamaId */\n      dup5\n        /* \"ChamaCore.sol\":18236:18252  chamas[_chamaId] */\n      dup2\n      mstore\n      0x20\n      add\n      swap1\n      dup2\n      mstore\n      0x20\n      add\n      0x00\n      keccak256\n        /* \"ChamaCore.sol\":18236:18261  chamas[_chamaId].isMember */\n      0x0b\n      add\n        /* \"ChamaCore.sol\":18236:18270  chamas[_chamaId].isMember[_member] */\n      0x00\n        /* \"ChamaCore.sol\":18262:18269  _member */\n      dup4\n        /* \"ChamaCore.sol\":18236:18270  chamas[_chamaId].isMember[_member] */\n      0xffffffffffffffffffffffffffffffffffffffff\n      and\n      0xffffffffffffffffffffffffffffffffffffffff\n      and\n      dup2\n      mstore\n      0x20\n      add\n      swap1\n      dup2\n      mstore\n      0x20\n      add\n      0x00\n      keccak256\n      0x00\n      swap1\n      sload\n      swap1\n      0x0100\n      exp\n      swap1\n      div\n      0xff\n      and\n        /* \"ChamaCore.sol\":18231:18290  if (!chamas[_chamaId].isMember[_member]) revert NotMember() */\n      tag_292\n      jumpi\n        /* \"ChamaCore.sol\":18279:18290  NotMember() */\n      mload(0x40)\n      0x291fc44200000000000000000000000000000000000000000000000000000000\n      dup2\n      mstore\n      0x04\n      add\n      mload(0x40)\n      dup1\n      swap2\n      sub\n      swap1\n      revert\n        /* \"ChamaCore.sol\":18231:18290  if (!chamas[_chamaId].isMember[_member]) revert NotMember() */\n    tag_292:\n        /* \"ChamaCore.sol\":18307:18313  chamas */\n      0x04\n        /* \"ChamaCore.sol\":18307:18323  chamas[_chamaId] */\n      0x00\n        /* \"ChamaCore.sol\":18314:18322  _chamaId */\n      dup5\n        /* \"ChamaCore.sol\":18307:18323  chamas[_chamaId] */\n      dup2\n      mstore\n      0x20\n      add\n      swap1\n      dup2\n      mstore\n      0x20\n      add\n      0x00\n      keccak256\n        /* \"ChamaCore.sol\":18307:18335  chamas[_chamaId].memberIndex */\n      0x0c\n      add\n        /* \"ChamaCore.sol\":18307:18344  chamas[_chamaId].memberIndex[_member] */\n      0x00\n        /* \"ChamaCore.sol\":18336:18343  _member */\n      dup4\n        /* \"ChamaCore.sol\":18307:18344  chamas[_chamaId].memberIndex[_member] */\n      0xffffffffffffffffffffffffffffffffffffffff\n      and\n      0xffffffffffffffffffffffffffffffffffffffff\n      and\n      dup2\n      mstore\n      0x20\n      add\n      swap1\n      dup2\n      mstore\n      0x20\n      add\n      0x00\n      keccak256\n      sload\n        /* \"ChamaCore.sol\":18300:18344  return chamas[_chamaId].memberIndex[_member] */\n      swap1\n      pop\n        /* \"ChamaCore.sol\":18089:18351  function getMemberPayoutPosition(uint256 _chamaId, address _member) ... */\n      swap3\n      swap2\n      pop\n      pop\n      jump\t// out\n        /* \"ChamaCore.sol\":18878:19064  function setGamificationContract(address _gamificationContract) ... */\n    tag_136:\n        /* \"ChamaCore.sol\":532:555  keccak256(\"ADMIN_ROLE\") */\n      0xa49807205ce4d355092ef5a8a18f56e8913cf4a201fbe287825b095693c21775\n        /* \"@openzeppelin/contracts/access/AccessControl.sol\":2473:2489  _checkRole(role) */\n      tag_294\n        /* \"@openzeppelin/contracts/access/AccessControl.sol\":2484:2488  role */\n      dup2\n        /* \"@openzeppelin/contracts/access/AccessControl.sol\":2473:2483  _checkRole */\n      tag_214\n        /* \"@openzeppelin/contracts/access/AccessControl.sol\":2473:2489  _checkRole(role) */\n      jump\t// in\n    tag_294:\n        /* \"ChamaCore.sol\":19005:19057  _grantRole(GAMIFICATION_ROLE, _gamificationContract) */\n      tag_296\n        /* \"ChamaCore.sol\":605:635  keccak256(\"GAMIFICATION_ROLE\") */\n      0x8c7e961e804af7b2059d42008de01ccc90fc88b8e6b947b02e12656ddb05ca3a\n        /* \"ChamaCore.sol\":19035:19056  _gamificationContract */\n      dup4\n        /* \"ChamaCore.sol\":19005:19015  _grantRole */\n      tag_217\n        /* \"ChamaCore.sol\":19005:19057  _grantRole(GAMIFICATION_ROLE, _gamificationContract) */\n      jump\t// in\n    tag_296:\n      pop\n        /* \"ChamaCore.sol\":18878:19064  function setGamificationContract(address _gamificationContract) ... */\n      pop\n      pop\n      jump\t// out\n        /* \"ChamaCore.sol\":18357:18689  function hasMemberReceivedPayout(uint256 _chamaId, address _member) ... */\n    tag_140:\n        /* \"ChamaCore.sol\":18475:18479  bool */\n      0x00\n        /* \"ChamaCore.sol\":18501:18507  chamas */\n      0x04\n        /* \"ChamaCore.sol\":18501:18517  chamas[_chamaId] */\n      0x00\n        /* \"ChamaCore.sol\":18508:18516  _chamaId */\n      dup5\n        /* \"ChamaCore.sol\":18501:18517  chamas[_chamaId] */\n      dup2\n      mstore\n      0x20\n      add\n      swap1\n      dup2\n      mstore\n      0x20\n      add\n      0x00\n      keccak256\n        /* \"ChamaCore.sol\":18501:18526  chamas[_chamaId].isMember */\n      0x0b\n      add\n        /* \"ChamaCore.sol\":18501:18535  chamas[_chamaId].isMember[_member] */\n      0x00\n        /* \"ChamaCore.sol\":18527:18534  _member */\n      dup4\n        /* \"ChamaCore.sol\":18501:18535  chamas[_chamaId].isMember[_member] */\n      0xffffffffffffffffffffffffffffffffffffffff\n      and\n      0xffffffffffffffffffffffffffffffffffffffff\n      and\n      dup2\n      mstore\n      0x20\n      add\n      swap1\n      dup2\n      mstore\n      0x20\n      add\n      0x00\n      keccak256\n      0x00\n      swap1\n      sload\n      swap1\n      0x0100\n      exp\n      swap1\n      div\n      0xff\n      and\n        /* \"ChamaCore.sol\":18496:18555  if (!chamas[_chamaId].isMember[_member]) revert NotMember() */\n      tag_298\n      jumpi\n        /* \"ChamaCore.sol\":18544:18555  NotMember() */\n      mload(0x40)\n      0x291fc44200000000000000000000000000000000000000000000000000000000\n      dup2\n      mstore\n      0x04\n      add\n      mload(0x40)\n      dup1\n      swap2\n      sub\n      swap1\n      revert\n        /* \"ChamaCore.sol\":18496:18555  if (!chamas[_chamaId].isMember[_member]) revert NotMember() */\n    tag_298:\n        /* \"ChamaCore.sol\":18565:18584  uint256 memberIndex */\n      0x00\n        /* \"ChamaCore.sol\":18587:18593  chamas */\n      0x04\n        /* \"ChamaCore.sol\":18587:18603  chamas[_chamaId] */\n      0x00\n        /* \"ChamaCore.sol\":18594:18602  _chamaId */\n      dup6\n        /* \"ChamaCore.sol\":18587:18603  chamas[_chamaId] */\n      dup2\n      mstore\n      0x20\n      add\n      swap1\n      dup2\n      mstore\n      0x20\n      add\n      0x00\n      keccak256\n        /* \"ChamaCore.sol\":18587:18615  chamas[_chamaId].memberIndex */\n      0x0c\n      add\n        /* \"ChamaCore.sol\":18587:18624  chamas[_chamaId].memberIndex[_member] */\n      0x00\n        /* \"ChamaCore.sol\":18616:18623  _member */\n      dup5\n        /* \"ChamaCore.sol\":18587:18624  chamas[_chamaId].memberIndex[_member] */\n      0xffffffffffffffffffffffffffffffffffffffff\n      and\n      0xffffffffffffffffffffffffffffffffffffffff\n      and\n      dup2\n      mstore\n      0x20\n      add\n      swap1\n      dup2\n      mstore\n      0x20\n      add\n      0x00\n      keccak256\n      sload\n        /* \"ChamaCore.sol\":18565:18624  uint256 memberIndex = chamas[_chamaId].memberIndex[_member] */\n      swap1\n      pop\n        /* \"ChamaCore.sol\":18641:18647  chamas */\n      0x04\n        /* \"ChamaCore.sol\":18641:18657  chamas[_chamaId] */\n      0x00\n        /* \"ChamaCore.sol\":18648:18656  _chamaId */\n      dup6\n        /* \"ChamaCore.sol\":18641:18657  chamas[_chamaId] */\n      dup2\n      mstore\n      0x20\n      add\n      swap1\n      dup2\n      mstore\n      0x20\n      add\n      0x00\n      keccak256\n        /* \"ChamaCore.sol\":18641:18669  chamas[_chamaId].membersPaid */\n      0x0a\n      add\n        /* \"ChamaCore.sol\":18670:18681  memberIndex */\n      dup2\n        /* \"ChamaCore.sol\":18641:18682  chamas[_chamaId].membersPaid[memberIndex] */\n      dup2\n      sload\n      dup2\n      lt\n      tag_299\n      jumpi\n      tag_300\n      tag_235\n      jump\t// in\n    tag_300:\n    tag_299:\n      swap1\n      0x00\n      mstore\n      keccak256(0x00, 0x20)\n      swap1\n      0x20\n      swap2\n      dup3\n      dup3\n      div\n      add\n      swap2\n      swap1\n      mod\n      swap1\n      sload\n      swap1\n      0x0100\n      exp\n      swap1\n      div\n      0xff\n      and\n        /* \"ChamaCore.sol\":18634:18682  return chamas[_chamaId].membersPaid[memberIndex] */\n      swap2\n      pop\n      pop\n        /* \"ChamaCore.sol\":18357:18689  function hasMemberReceivedPayout(uint256 _chamaId, address _member) ... */\n      swap3\n      swap2\n      pop\n      pop\n      jump\t// out\n        /* \"@openzeppelin/contracts/access/AccessControl.sol\":2830:2966  function hasRole(bytes32 role, address account) public view virtual returns (bool) {... */\n    tag_145:\n        /* \"@openzeppelin/contracts/access/AccessControl.sol\":2907:2911  bool */\n      0x00\n        /* \"@openzeppelin/contracts/access/AccessControl.sol\":2930:2936  _roles */\n      0x02\n        /* \"@openzeppelin/contracts/access/AccessControl.sol\":2930:2942  _roles[role] */\n      0x00\n        /* \"@openzeppelin/contracts/access/AccessControl.sol\":2937:2941  role */\n      dup5\n        /* \"@openzeppelin/contracts/access/AccessControl.sol\":2930:2942  _roles[role] */\n      dup2\n      mstore\n      0x20\n      add\n      swap1\n      dup2\n      mstore\n      0x20\n      add\n      0x00\n      keccak256\n        /* \"@openzeppelin/contracts/access/AccessControl.sol\":2930:2950  _roles[role].hasRole */\n      0x00\n      add\n        /* \"@openzeppelin/contracts/access/AccessControl.sol\":2930:2959  _roles[role].hasRole[account] */\n      0x00\n        /* \"@openzeppelin/contracts/access/AccessControl.sol\":2951:2958  account */\n      dup4\n        /* \"@openzeppelin/contracts/access/AccessControl.sol\":2930:2959  _roles[role].hasRole[account] */\n      0xffffffffffffffffffffffffffffffffffffffff\n      and\n      0xffffffffffffffffffffffffffffffffffffffff\n      and\n      dup2\n      mstore\n      0x20\n      add\n      swap1\n      dup2\n      mstore\n      0x20\n      add\n      0x00\n      keccak256\n      0x00\n      swap1\n      sload\n      swap1\n      0x0100\n      exp\n      swap1\n      div\n      0xff\n      and\n        /* \"@openzeppelin/contracts/access/AccessControl.sol\":2923:2959  return _roles[role].hasRole[account] */\n      swap1\n      pop\n        /* \"@openzeppelin/contracts/access/AccessControl.sol\":2830:2966  function hasRole(bytes32 role, address account) public view virtual returns (bool) {... */\n      swap3\n      swap2\n      pop\n      pop\n      jump\t// out\n        /* \"ChamaCore.sol\":9679:10748  function stackBTC(uint256 _chamaId) ... */\n    tag_149:\n        /* \"ChamaCore.sol\":9775:9783  _chamaId */\n      dup1\n        /* \"ChamaCore.sol\":3929:3935  chamas */\n      0x04\n        /* \"ChamaCore.sol\":3929:3945  chamas[_chamaId] */\n      0x00\n        /* \"ChamaCore.sol\":3936:3944  _chamaId */\n      dup3\n        /* \"ChamaCore.sol\":3929:3945  chamas[_chamaId] */\n      dup2\n      mstore\n      0x20\n      add\n      swap1\n      dup2\n      mstore\n      0x20\n      add\n      0x00\n      keccak256\n        /* \"ChamaCore.sol\":3929:3954  chamas[_chamaId].isMember */\n      0x0b\n      add\n        /* \"ChamaCore.sol\":3929:3966  chamas[_chamaId].isMember[msg.sender] */\n      0x00\n        /* \"ChamaCore.sol\":3955:3965  msg.sender */\n      caller\n        /* \"ChamaCore.sol\":3929:3966  chamas[_chamaId].isMember[msg.sender] */\n      0xffffffffffffffffffffffffffffffffffffffff\n      and\n      0xffffffffffffffffffffffffffffffffffffffff\n      and\n      dup2\n      mstore\n      0x20\n      add\n      swap1\n      dup2\n      mstore\n      0x20\n      add\n      0x00\n      keccak256\n      0x00\n      swap1\n      sload\n      swap1\n      0x0100\n      exp\n      swap1\n      div\n      0xff\n      and\n        /* \"ChamaCore.sol\":3924:3986  if (!chamas[_chamaId].isMember[msg.sender]) revert NotMember() */\n      tag_304\n      jumpi\n        /* \"ChamaCore.sol\":3975:3986  NotMember() */\n      mload(0x40)\n      0x291fc44200000000000000000000000000000000000000000000000000000000\n      dup2\n      mstore\n      0x04\n      add\n      mload(0x40)\n      dup1\n      swap2\n      sub\n      swap1\n      revert\n        /* \"ChamaCore.sol\":3924:3986  if (!chamas[_chamaId].isMember[msg.sender]) revert NotMember() */\n    tag_304:\n        /* \"ChamaCore.sol\":9806:9814  _chamaId */\n      dup2\n        /* \"ChamaCore.sol\":4203:4209  chamas */\n      0x04\n        /* \"ChamaCore.sol\":4203:4219  chamas[_chamaId] */\n      0x00\n        /* \"ChamaCore.sol\":4210:4218  _chamaId */\n      dup3\n        /* \"ChamaCore.sol\":4203:4219  chamas[_chamaId] */\n      dup2\n      mstore\n      0x20\n      add\n      swap1\n      dup2\n      mstore\n      0x20\n      add\n      0x00\n      keccak256\n        /* \"ChamaCore.sol\":4203:4226  chamas[_chamaId].active */\n      0x05\n      add\n      0x00\n      swap1\n      sload\n      swap1\n      0x0100\n      exp\n      swap1\n      div\n      0xff\n      and\n        /* \"ChamaCore.sol\":4198:4251  if (!chamas[_chamaId].active) revert ChamaNotActive() */\n      tag_306\n      jumpi\n        /* \"ChamaCore.sol\":4235:4251  ChamaNotActive() */\n      mload(0x40)\n      0x25500e0300000000000000000000000000000000000000000000000000000000\n      dup2\n      mstore\n      0x04\n      add\n      mload(0x40)\n      dup1\n      swap2\n      sub\n      swap1\n      revert\n        /* \"ChamaCore.sol\":4198:4251  if (!chamas[_chamaId].active) revert ChamaNotActive() */\n    tag_306:\n        /* \"@openzeppelin/contracts/security/Pausable.sol\":1239:1258  _requireNotPaused() */\n      tag_308\n        /* \"@openzeppelin/contracts/security/Pausable.sol\":1239:1256  _requireNotPaused */\n      tag_223\n        /* \"@openzeppelin/contracts/security/Pausable.sol\":1239:1258  _requireNotPaused() */\n      jump\t// in\n    tag_308:\n        /* \"@openzeppelin/contracts/security/ReentrancyGuard.sol\":2261:2282  _nonReentrantBefore() */\n      tag_310\n        /* \"@openzeppelin/contracts/security/ReentrancyGuard.sol\":2261:2280  _nonReentrantBefore */\n      tag_270\n        /* \"@openzeppelin/contracts/security/ReentrancyGuard.sol\":2261:2282  _nonReentrantBefore() */\n      jump\t// in\n    tag_310:\n        /* \"ChamaCore.sol\":9876:9895  Chama storage chama */\n      0x00\n        /* \"ChamaCore.sol\":9898:9904  chamas */\n      0x04\n        /* \"ChamaCore.sol\":9898:9914  chamas[_chamaId] */\n      0x00\n        /* \"ChamaCore.sol\":9905:9913  _chamaId */\n      dup6\n        /* \"ChamaCore.sol\":9898:9914  chamas[_chamaId] */\n      dup2\n      mstore\n      0x20\n      add\n      swap1\n      dup2\n      mstore\n      0x20\n      add\n      0x00\n      keccak256\n        /* \"ChamaCore.sol\":9876:9914  Chama storage chama = chamas[_chamaId] */\n      swap1\n      pop\n        /* \"ChamaCore.sol\":9949:9954  chama */\n      dup1\n        /* \"ChamaCore.sol\":9949:9973  chama.contributionAmount */\n      0x01\n      add\n      sload\n        /* \"ChamaCore.sol\":9937:9946  msg.value */\n      callvalue\n        /* \"ChamaCore.sol\":9937:9973  msg.value < chama.contributionAmount */\n      lt\n        /* \"ChamaCore.sol\":9933:10008  if (msg.value < chama.contributionAmount) revert BelowMinimumContribution() */\n      iszero\n      tag_312\n      jumpi\n        /* \"ChamaCore.sol\":9982:10008  BelowMinimumContribution() */\n      mload(0x40)\n      0xabed41c400000000000000000000000000000000000000000000000000000000\n      dup2\n      mstore\n      0x04\n      add\n      mload(0x40)\n      dup1\n      swap2\n      sub\n      swap1\n      revert\n        /* \"ChamaCore.sol\":9933:10008  if (msg.value < chama.contributionAmount) revert BelowMinimumContribution() */\n    tag_312:\n        /* \"ChamaCore.sol\":10022:10045  hasContributedThisCycle */\n      0x06\n        /* \"ChamaCore.sol\":10022:10055  hasContributedThisCycle[_chamaId] */\n      0x00\n        /* \"ChamaCore.sol\":10046:10054  _chamaId */\n      dup6\n        /* \"ChamaCore.sol\":10022:10055  hasContributedThisCycle[_chamaId] */\n      dup2\n      mstore\n      0x20\n      add\n      swap1\n      dup2\n      mstore\n      0x20\n      add\n      0x00\n      keccak256\n        /* \"ChamaCore.sol\":10022:10067  hasContributedThisCycle[_chamaId][msg.sender] */\n      0x00\n        /* \"ChamaCore.sol\":10056:10066  msg.sender */\n      caller\n        /* \"ChamaCore.sol\":10022:10067  hasContributedThisCycle[_chamaId][msg.sender] */\n      0xffffffffffffffffffffffffffffffffffffffff\n      and\n      0xffffffffffffffffffffffffffffffffffffffff\n      and\n      dup2\n      mstore\n      0x20\n      add\n      swap1\n      dup2\n      mstore\n      0x20\n      add\n      0x00\n      keccak256\n      0x00\n      swap1\n      sload\n      swap1\n      0x0100\n      exp\n      swap1\n      div\n      0xff\n      and\n        /* \"ChamaCore.sol\":10018:10105  if (hasContributedThisCycle[_chamaId][msg.sender]) revert AlreadyContributedThisCycle() */\n      iszero\n      tag_313\n      jumpi\n        /* \"ChamaCore.sol\":10076:10105  AlreadyContributedThisCycle() */\n      mload(0x40)\n      0x7d3af1a800000000000000000000000000000000000000000000000000000000\n      dup2\n      mstore\n      0x04\n      add\n      mload(0x40)\n      dup1\n      swap2\n      sub\n      swap1\n      revert\n        /* \"ChamaCore.sol\":10018:10105  if (hasContributedThisCycle[_chamaId][msg.sender]) revert AlreadyContributedThisCycle() */\n    tag_313:\n        /* \"ChamaCore.sol\":10155:10168  contributions */\n      0x05\n        /* \"ChamaCore.sol\":10155:10178  contributions[_chamaId] */\n      0x00\n        /* \"ChamaCore.sol\":10169:10177  _chamaId */\n      dup6\n        /* \"ChamaCore.sol\":10155:10178  contributions[_chamaId] */\n      dup2\n      mstore\n      0x20\n      add\n      swap1\n      dup2\n      mstore\n      0x20\n      add\n      0x00\n      keccak256\n        /* \"ChamaCore.sol\":10155:10190  contributions[_chamaId][msg.sender] */\n      0x00\n        /* \"ChamaCore.sol\":10179:10189  msg.sender */\n      caller\n        /* \"ChamaCore.sol\":10155:10190  contributions[_chamaId][msg.sender] */\n      0xffffffffffffffffffffffffffffffffffffffff\n      and\n      0xffffffffffffffffffffffffffffffffffffffff\n      and\n      dup2\n      mstore\n      0x20\n      add\n      swap1\n      dup2\n      mstore\n      0x20\n      add\n      0x00\n      keccak256\n        /* \"ChamaCore.sol\":10196:10328  Contribution({... */\n      mload(0x40)\n      dup1\n      0x60\n      add\n      0x40\n      mstore\n      dup1\n        /* \"ChamaCore.sol\":10236:10246  msg.sender */\n      caller\n        /* \"ChamaCore.sol\":10196:10328  Contribution({... */\n      0xffffffffffffffffffffffffffffffffffffffff\n      and\n      dup2\n      mstore\n      0x20\n      add\n        /* \"ChamaCore.sol\":10268:10277  msg.value */\n      callvalue\n        /* \"ChamaCore.sol\":10196:10328  Contribution({... */\n      dup2\n      mstore\n      0x20\n      add\n        /* \"ChamaCore.sol\":10302:10317  block.timestamp */\n      timestamp\n        /* \"ChamaCore.sol\":10196:10328  Contribution({... */\n      dup2\n      mstore\n      pop\n        /* \"ChamaCore.sol\":10155:10329  contributions[_chamaId][msg.sender].push(Contribution({... */\n      swap1\n      dup1\n      0x01\n      dup2\n      sload\n      add\n      dup1\n      dup3\n      sstore\n      dup1\n      swap2\n      pop\n      pop\n      0x01\n      swap1\n      sub\n      swap1\n      0x00\n      mstore\n      keccak256(0x00, 0x20)\n      swap1\n      0x03\n      mul\n      add\n      0x00\n      swap1\n      swap2\n      swap1\n      swap2\n      swap1\n      swap2\n      pop\n      0x00\n      dup3\n      add\n      mload\n      dup2\n      0x00\n      add\n      exp(0x0100, 0x00)\n      dup2\n      sload\n      dup2\n      0xffffffffffffffffffffffffffffffffffffffff\n      mul\n      not\n      and\n      swap1\n      dup4\n      0xffffffffffffffffffffffffffffffffffffffff\n      and\n      mul\n      or\n      swap1\n      sstore\n      pop\n      0x20\n      dup3\n      add\n      mload\n      dup2\n      0x01\n      add\n      sstore\n      0x40\n      dup3\n      add\n      mload\n      dup2\n      0x02\n      add\n      sstore\n      pop\n      pop\n        /* \"ChamaCore.sol\":10396:10400  true */\n      0x01\n        /* \"ChamaCore.sol\":10348:10371  hasContributedThisCycle */\n      0x06\n        /* \"ChamaCore.sol\":10348:10381  hasContributedThisCycle[_chamaId] */\n      0x00\n        /* \"ChamaCore.sol\":10372:10380  _chamaId */\n      dup7\n        /* \"ChamaCore.sol\":10348:10381  hasContributedThisCycle[_chamaId] */\n      dup2\n      mstore\n      0x20\n      add\n      swap1\n      dup2\n      mstore\n      0x20\n      add\n      0x00\n      keccak256\n        /* \"ChamaCore.sol\":10348:10393  hasContributedThisCycle[_chamaId][msg.sender] */\n      0x00\n        /* \"ChamaCore.sol\":10382:10392  msg.sender */\n      caller\n        /* \"ChamaCore.sol\":10348:10393  hasContributedThisCycle[_chamaId][msg.sender] */\n      0xffffffffffffffffffffffffffffffffffffffff\n      and\n      0xffffffffffffffffffffffffffffffffffffffff\n      and\n      dup2\n      mstore\n      0x20\n      add\n      swap1\n      dup2\n      mstore\n      0x20\n      add\n      0x00\n      keccak256\n      0x00\n        /* \"ChamaCore.sol\":10348:10400  hasContributedThisCycle[_chamaId][msg.sender] = true */\n      0x0100\n      exp\n      dup2\n      sload\n      dup2\n      0xff\n      mul\n      not\n      and\n      swap1\n      dup4\n      iszero\n      iszero\n      mul\n      or\n      swap1\n      sstore\n      pop\n        /* \"ChamaCore.sol\":10460:10475  block.timestamp */\n      timestamp\n        /* \"ChamaCore.sol\":10410:10435  lastContributionTimestamp */\n      0x07\n        /* \"ChamaCore.sol\":10410:10445  lastContributionTimestamp[_chamaId] */\n      0x00\n        /* \"ChamaCore.sol\":10436:10444  _chamaId */\n      dup7\n        /* \"ChamaCore.sol\":10410:10445  lastContributionTimestamp[_chamaId] */\n      dup2\n      mstore\n      0x20\n      add\n      swap1\n      dup2\n      mstore\n      0x20\n      add\n      0x00\n      keccak256\n        /* \"ChamaCore.sol\":10410:10457  lastContributionTimestamp[_chamaId][msg.sender] */\n      0x00\n        /* \"ChamaCore.sol\":10446:10456  msg.sender */\n      caller\n        /* \"ChamaCore.sol\":10410:10457  lastContributionTimestamp[_chamaId][msg.sender] */\n      0xffffffffffffffffffffffffffffffffffffffff\n      and\n      0xffffffffffffffffffffffffffffffffffffffff\n      and\n      dup2\n      mstore\n      0x20\n      add\n      swap1\n      dup2\n      mstore\n      0x20\n      add\n      0x00\n      keccak256\n        /* \"ChamaCore.sol\":10410:10475  lastContributionTimestamp[_chamaId][msg.sender] = block.timestamp */\n      dup2\n      swap1\n      sstore\n      pop\n        /* \"ChamaCore.sol\":10504:10513  msg.value */\n      callvalue\n        /* \"ChamaCore.sol\":10485:10490  chama */\n      dup2\n        /* \"ChamaCore.sol\":10485:10500  chama.totalPool */\n      0x09\n      add\n      0x00\n        /* \"ChamaCore.sol\":10485:10513  chama.totalPool += msg.value */\n      dup3\n      dup3\n      sload\n      tag_315\n      swap2\n      swap1\n      tag_227\n      jump\t// in\n    tag_315:\n      swap3\n      pop\n      pop\n      dup2\n      swap1\n      sstore\n      pop\n        /* \"ChamaCore.sol\":10571:10580  msg.value */\n      callvalue\n        /* \"ChamaCore.sol\":10523:10528  chama */\n      dup2\n        /* \"ChamaCore.sol\":10523:10547  chama.cycleContributions */\n      0x0d\n      add\n        /* \"ChamaCore.sol\":10523:10567  chama.cycleContributions[chama.currentCycle] */\n      0x00\n        /* \"ChamaCore.sol\":10548:10553  chama */\n      dup4\n        /* \"ChamaCore.sol\":10548:10566  chama.currentCycle */\n      0x06\n      add\n      sload\n        /* \"ChamaCore.sol\":10523:10567  chama.cycleContributions[chama.currentCycle] */\n      dup2\n      mstore\n      0x20\n      add\n      swap1\n      dup2\n      mstore\n      0x20\n      add\n      0x00\n      keccak256\n      0x00\n        /* \"ChamaCore.sol\":10523:10580  chama.cycleContributions[chama.currentCycle] += msg.value */\n      dup3\n      dup3\n      sload\n      tag_316\n      swap2\n      swap1\n      tag_227\n      jump\t// in\n    tag_316:\n      swap3\n      pop\n      pop\n      dup2\n      swap1\n      sstore\n      pop\n        /* \"ChamaCore.sol\":10631:10641  msg.sender */\n      caller\n        /* \"ChamaCore.sol\":10604:10653  ContributionMade(_chamaId, msg.sender, msg.value) */\n      0xffffffffffffffffffffffffffffffffffffffff\n      and\n        /* \"ChamaCore.sol\":10621:10629  _chamaId */\n      dup5\n        /* \"ChamaCore.sol\":10604:10653  ContributionMade(_chamaId, msg.sender, msg.value) */\n      0x0a4a91237423e0a1766a761c7cb029311d8b95d6b1b81db1b949a70c98b4e08e\n        /* \"ChamaCore.sol\":10643:10652  msg.value */\n      callvalue\n        /* \"ChamaCore.sol\":10604:10653  ContributionMade(_chamaId, msg.sender, msg.value) */\n      mload(0x40)\n      tag_317\n      swap2\n      swap1\n      tag_54\n      jump\t// in\n    tag_317:\n      mload(0x40)\n      dup1\n      swap2\n      sub\n      swap1\n      log3\n        /* \"ChamaCore.sol\":10710:10741  _checkCycleCompletion(_chamaId) */\n      tag_318\n        /* \"ChamaCore.sol\":10732:10740  _chamaId */\n      dup5\n        /* \"ChamaCore.sol\":10710:10731  _checkCycleCompletion */\n      tag_319\n        /* \"ChamaCore.sol\":10710:10741  _checkCycleCompletion(_chamaId) */\n      jump\t// in\n    tag_318:\n        /* \"ChamaCore.sol\":9866:10748  {... */\n      pop\n        /* \"@openzeppelin/contracts/security/ReentrancyGuard.sol\":2303:2323  _nonReentrantAfter() */\n      tag_320\n        /* \"@openzeppelin/contracts/security/ReentrancyGuard.sol\":2303:2321  _nonReentrantAfter */\n      tag_282\n        /* \"@openzeppelin/contracts/security/ReentrancyGuard.sol\":2303:2323  _nonReentrantAfter() */\n      jump\t// in\n    tag_320:\n        /* \"ChamaCore.sol\":3996:3997  _ */\n      pop\n        /* \"ChamaCore.sol\":9679:10748  function stackBTC(uint256 _chamaId) ... */\n      pop\n      pop\n      jump\t// out\n        /* \"@openzeppelin/contracts/access/AccessControl.sol\":2196:2245  bytes32 public constant DEFAULT_ADMIN_ROLE = 0x00 */\n    tag_152:\n        /* \"@openzeppelin/contracts/access/AccessControl.sol\":2241:2245  0x00 */\n      0x00\n        /* \"@openzeppelin/contracts/access/AccessControl.sol\":2196:2245  bytes32 public constant DEFAULT_ADMIN_ROLE = 0x00 */\n      0x00\n      shl\n      dup2\n      jump\t// out\n        /* \"ChamaCore.sol\":17949:18083  function getTotalCollateral(uint256 _chamaId) external view returns (uint256) {... */\n    tag_157:\n        /* \"ChamaCore.sol\":18018:18025  uint256 */\n      0x00\n        /* \"ChamaCore.sol\":18044:18050  chamas */\n      0x04\n        /* \"ChamaCore.sol\":18044:18060  chamas[_chamaId] */\n      0x00\n        /* \"ChamaCore.sol\":18051:18059  _chamaId */\n      dup4\n        /* \"ChamaCore.sol\":18044:18060  chamas[_chamaId] */\n      dup2\n      mstore\n      0x20\n      add\n      swap1\n      dup2\n      mstore\n      0x20\n      add\n      0x00\n      keccak256\n        /* \"ChamaCore.sol\":18044:18076  chamas[_chamaId].totalCollateral */\n      0x12\n      add\n      sload\n        /* \"ChamaCore.sol\":18037:18076  return chamas[_chamaId].totalCollateral */\n      swap1\n      pop\n        /* \"ChamaCore.sol\":17949:18083  function getTotalCollateral(uint256 _chamaId) external view returns (uint256) {... */\n      swap2\n      swap1\n      pop\n      jump\t// out\n        /* \"ChamaCore.sol\":1848:1873  uint256 public chamaCount */\n    tag_161:\n      sload(0x03)\n      dup2\n      jump\t// out\n        /* \"ChamaCore.sol\":561:635  bytes32 public constant GAMIFICATION_ROLE = keccak256(\"GAMIFICATION_ROLE\") */\n    tag_165:\n        /* \"ChamaCore.sol\":605:635  keccak256(\"GAMIFICATION_ROLE\") */\n      0x8c7e961e804af7b2059d42008de01ccc90fc88b8e6b947b02e12656ddb05ca3a\n        /* \"ChamaCore.sol\":561:635  bytes32 public constant GAMIFICATION_ROLE = keccak256(\"GAMIFICATION_ROLE\") */\n      dup2\n      jump\t// out\n        /* \"ChamaCore.sol\":16814:16946  function getChamaMembers(uint256 _chamaId) external view returns (address[] memory) {... */\n    tag_170:\n        /* \"ChamaCore.sol\":16880:16896  address[] memory */\n      0x60\n        /* \"ChamaCore.sol\":16915:16921  chamas */\n      0x04\n        /* \"ChamaCore.sol\":16915:16931  chamas[_chamaId] */\n      0x00\n        /* \"ChamaCore.sol\":16922:16930  _chamaId */\n      dup4\n        /* \"ChamaCore.sol\":16915:16931  chamas[_chamaId] */\n      dup2\n      mstore\n      0x20\n      add\n      swap1\n      dup2\n      mstore\n      0x20\n      add\n      0x00\n      keccak256\n        /* \"ChamaCore.sol\":16915:16939  chamas[_chamaId].members */\n      0x04\n      add\n        /* \"ChamaCore.sol\":16908:16939  return chamas[_chamaId].members */\n      dup1\n      sload\n      dup1\n      0x20\n      mul\n      0x20\n      add\n      mload(0x40)\n      swap1\n      dup2\n      add\n      0x40\n      mstore\n      dup1\n      swap3\n      swap2\n      swap1\n      dup2\n      dup2\n      mstore\n      0x20\n      add\n      dup3\n      dup1\n      sload\n      dup1\n      iszero\n      tag_323\n      jumpi\n      0x20\n      mul\n      dup3\n      add\n      swap2\n      swap1\n      0x00\n      mstore\n      keccak256(0x00, 0x20)\n      swap1\n    tag_324:\n      dup2\n      0x00\n      swap1\n      sload\n      swap1\n      0x0100\n      exp\n      swap1\n      div\n      0xffffffffffffffffffffffffffffffffffffffff\n      and\n      0xffffffffffffffffffffffffffffffffffffffff\n      and\n      dup2\n      mstore\n      0x20\n      add\n      swap1\n      0x01\n      add\n      swap1\n      dup1\n      dup4\n      gt\n      tag_324\n      jumpi\n    tag_323:\n      pop\n      pop\n      pop\n      pop\n      pop\n      swap1\n      pop\n        /* \"ChamaCore.sol\":16814:16946  function getChamaMembers(uint256 _chamaId) external view returns (address[] memory) {... */\n      swap2\n      swap1\n      pop\n      jump\t// out\n        /* \"@openzeppelin/contracts/access/AccessControl.sol\":4618:4756  function revokeRole(bytes32 role, address account) public virtual onlyRole(getRoleAdmin(role)) {... */\n    tag_176:\n        /* \"@openzeppelin/contracts/access/AccessControl.sol\":4693:4711  getRoleAdmin(role) */\n      tag_325\n        /* \"@openzeppelin/contracts/access/AccessControl.sol\":4706:4710  role */\n      dup3\n        /* \"@openzeppelin/contracts/access/AccessControl.sol\":4693:4705  getRoleAdmin */\n      tag_73\n        /* \"@openzeppelin/contracts/access/AccessControl.sol\":4693:4711  getRoleAdmin(role) */\n      jump\t// in\n    tag_325:\n        /* \"@openzeppelin/contracts/access/AccessControl.sol\":2473:2489  _checkRole(role) */\n      tag_327\n        /* \"@openzeppelin/contracts/access/AccessControl.sol\":2484:2488  role */\n      dup2\n        /* \"@openzeppelin/contracts/access/AccessControl.sol\":2473:2483  _checkRole */\n      tag_214\n        /* \"@openzeppelin/contracts/access/AccessControl.sol\":2473:2489  _checkRole(role) */\n      jump\t// in\n    tag_327:\n        /* \"@openzeppelin/contracts/access/AccessControl.sol\":4723:4749  _revokeRole(role, account) */\n      tag_329\n        /* \"@openzeppelin/contracts/access/AccessControl.sol\":4735:4739  role */\n      dup4\n        /* \"@openzeppelin/contracts/access/AccessControl.sol\":4741:4748  account */\n      dup4\n        /* \"@openzeppelin/contracts/access/AccessControl.sol\":4723:4734  _revokeRole */\n      tag_251\n        /* \"@openzeppelin/contracts/access/AccessControl.sol\":4723:4749  _revokeRole(role, account) */\n      jump\t// in\n    tag_329:\n      pop\n        /* \"@openzeppelin/contracts/access/AccessControl.sol\":4618:4756  function revokeRole(bytes32 role, address account) public virtual onlyRole(getRoleAdmin(role)) {... */\n      pop\n      pop\n      pop\n      jump\t// out\n        /* \"ChamaCore.sol\":16107:16808  function getChamaDetails(uint256 _chamaId) external view returns (... */\n    tag_180:\n        /* \"ChamaCore.sol\":16182:16200  string memory name */\n      0x60\n        /* \"ChamaCore.sol\":16210:16236  uint256 contributionAmount */\n      0x00\n        /* \"ChamaCore.sol\":16246:16267  uint256 cycleDuration */\n      0x00\n        /* \"ChamaCore.sol\":16277:16295  uint256 maxMembers */\n      0x00\n        /* \"ChamaCore.sol\":16305:16327  uint256 currentMembers */\n      0x00\n        /* \"ChamaCore.sol\":16337:16348  bool active */\n      0x00\n        /* \"ChamaCore.sol\":16358:16378  uint256 currentCycle */\n      0x00\n        /* \"ChamaCore.sol\":16388:16405  uint256 totalPool */\n      0x00\n        /* \"ChamaCore.sol\":16415:16438  uint256 totalCollateral */\n      0x00\n        /* \"ChamaCore.sol\":16455:16474  Chama storage chama */\n      0x00\n        /* \"ChamaCore.sol\":16477:16483  chamas */\n      0x04\n        /* \"ChamaCore.sol\":16477:16493  chamas[_chamaId] */\n      0x00\n        /* \"ChamaCore.sol\":16484:16492  _chamaId */\n      dup13\n        /* \"ChamaCore.sol\":16477:16493  chamas[_chamaId] */\n      dup2\n      mstore\n      0x20\n      add\n      swap1\n      dup2\n      mstore\n      0x20\n      add\n      0x00\n      keccak256\n        /* \"ChamaCore.sol\":16455:16493  Chama storage chama = chamas[_chamaId] */\n      swap1\n      pop\n        /* \"ChamaCore.sol\":16524:16529  chama */\n      dup1\n        /* \"ChamaCore.sol\":16524:16534  chama.name */\n      0x00\n      add\n        /* \"ChamaCore.sol\":16548:16553  chama */\n      dup2\n        /* \"ChamaCore.sol\":16548:16572  chama.contributionAmount */\n      0x01\n      add\n      sload\n        /* \"ChamaCore.sol\":16586:16591  chama */\n      dup3\n        /* \"ChamaCore.sol\":16586:16605  chama.cycleDuration */\n      0x02\n      add\n      sload\n        /* \"ChamaCore.sol\":16619:16624  chama */\n      dup4\n        /* \"ChamaCore.sol\":16619:16635  chama.maxMembers */\n      0x03\n      add\n      sload\n        /* \"ChamaCore.sol\":16649:16654  chama */\n      dup5\n        /* \"ChamaCore.sol\":16649:16662  chama.members */\n      0x04\n      add\n        /* \"ChamaCore.sol\":16649:16669  chama.members.length */\n      dup1\n      sload\n      swap1\n      pop\n        /* \"ChamaCore.sol\":16683:16688  chama */\n      dup6\n        /* \"ChamaCore.sol\":16683:16695  chama.active */\n      0x05\n      add\n      0x00\n      swap1\n      sload\n      swap1\n      0x0100\n      exp\n      swap1\n      div\n      0xff\n      and\n        /* \"ChamaCore.sol\":16709:16714  chama */\n      dup7\n        /* \"ChamaCore.sol\":16709:16727  chama.currentCycle */\n      0x06\n      add\n      sload\n        /* \"ChamaCore.sol\":16741:16746  chama */\n      dup8\n        /* \"ChamaCore.sol\":16741:16756  chama.totalPool */\n      0x09\n      add\n      sload\n        /* \"ChamaCore.sol\":16770:16775  chama */\n      dup9\n        /* \"ChamaCore.sol\":16770:16791  chama.totalCollateral */\n      0x12\n      add\n      sload\n        /* \"ChamaCore.sol\":16503:16801  return (... */\n      dup9\n      dup1\n      sload\n      tag_331\n      swap1\n      tag_203\n      jump\t// in\n    tag_331:\n      dup1\n      0x1f\n      add\n      0x20\n      dup1\n      swap2\n      div\n      mul\n      0x20\n      add\n      mload(0x40)\n      swap1\n      dup2\n      add\n      0x40\n      mstore\n      dup1\n      swap3\n      swap2\n      swap1\n      dup2\n      dup2\n      mstore\n      0x20\n      add\n      dup3\n      dup1\n      sload\n      tag_332\n      swap1\n      tag_203\n      jump\t// in\n    tag_332:\n      dup1\n      iszero\n      tag_333\n      jumpi\n      dup1\n      0x1f\n      lt\n      tag_334\n      jumpi\n      0x0100\n      dup1\n      dup4\n      sload\n      div\n      mul\n      dup4\n      mstore\n      swap2\n      0x20\n      add\n      swap2\n      jump(tag_333)\n    tag_334:\n      dup3\n      add\n      swap2\n      swap1\n      0x00\n      mstore\n      keccak256(0x00, 0x20)\n      swap1\n    tag_335:\n      dup2\n      sload\n      dup2\n      mstore\n      swap1\n      0x01\n      add\n      swap1\n      0x20\n      add\n      dup1\n      dup4\n      gt\n      tag_335\n      jumpi\n      dup3\n      swap1\n      sub\n      0x1f\n      and\n      dup3\n      add\n      swap2\n    tag_333:\n      pop\n      pop\n      pop\n      pop\n      pop\n      swap9\n      pop\n      swap10\n      pop\n      swap10\n      pop\n      swap10\n      pop\n      swap10\n      pop\n      swap10\n      pop\n      swap10\n      pop\n      swap10\n      pop\n      swap10\n      pop\n      swap10\n      pop\n      pop\n        /* \"ChamaCore.sol\":16107:16808  function getChamaDetails(uint256 _chamaId) external view returns (... */\n      swap2\n      swap4\n      swap6\n      swap8\n      swap10\n      swap1\n      swap3\n      swap5\n      swap7\n      swap9\n      pop\n      jump\t// out\n        /* \"ChamaCore.sol\":7740:8127  function startChama(uint256 _chamaId) ... */\n    tag_186:\n        /* \"ChamaCore.sol\":7817:7825  _chamaId */\n      dup1\n        /* \"ChamaCore.sol\":4075:4076  0 */\n      0x00\n        /* \"ChamaCore.sol\":4063:4071  _chamaId */\n      dup2\n        /* \"ChamaCore.sol\":4063:4076  _chamaId == 0 */\n      eq\n        /* \"ChamaCore.sol\":4063:4101  _chamaId == 0 || _chamaId > chamaCount */\n      dup1\n      tag_337\n      jumpi\n      pop\n        /* \"ChamaCore.sol\":4091:4101  chamaCount */\n      sload(0x03)\n        /* \"ChamaCore.sol\":4080:4088  _chamaId */\n      dup2\n        /* \"ChamaCore.sol\":4080:4101  _chamaId > chamaCount */\n      gt\n        /* \"ChamaCore.sol\":4063:4101  _chamaId == 0 || _chamaId > chamaCount */\n    tag_337:\n        /* \"ChamaCore.sol\":4059:4125  if (_chamaId == 0 || _chamaId > chamaCount) revert ChamaNotFound() */\n      iszero\n      tag_338\n      jumpi\n        /* \"ChamaCore.sol\":4110:4125  ChamaNotFound() */\n      mload(0x40)\n      0x037ff9d600000000000000000000000000000000000000000000000000000000\n      dup2\n      mstore\n      0x04\n      add\n      mload(0x40)\n      dup1\n      swap2\n      sub\n      swap1\n      revert\n        /* \"ChamaCore.sol\":4059:4125  if (_chamaId == 0 || _chamaId > chamaCount) revert ChamaNotFound() */\n    tag_338:\n        /* \"ChamaCore.sol\":7848:7856  _chamaId */\n      dup2\n        /* \"ChamaCore.sol\":4203:4209  chamas */\n      0x04\n        /* \"ChamaCore.sol\":4203:4219  chamas[_chamaId] */\n      0x00\n        /* \"ChamaCore.sol\":4210:4218  _chamaId */\n      dup3\n        /* \"ChamaCore.sol\":4203:4219  chamas[_chamaId] */\n      dup2\n      mstore\n      0x20\n      add\n      swap1\n      dup2\n      mstore\n      0x20\n      add\n      0x00\n      keccak256\n        /* \"ChamaCore.sol\":4203:4226  chamas[_chamaId].active */\n      0x05\n      add\n      0x00\n      swap1\n      sload\n      swap1\n      0x0100\n      exp\n      swap1\n      div\n      0xff\n      and\n        /* \"ChamaCore.sol\":4198:4251  if (!chamas[_chamaId].active) revert ChamaNotActive() */\n      tag_340\n      jumpi\n        /* \"ChamaCore.sol\":4235:4251  ChamaNotActive() */\n      mload(0x40)\n      0x25500e0300000000000000000000000000000000000000000000000000000000\n      dup2\n      mstore\n      0x04\n      add\n      mload(0x40)\n      dup1\n      swap2\n      sub\n      swap1\n      revert\n        /* \"ChamaCore.sol\":4198:4251  if (!chamas[_chamaId].active) revert ChamaNotActive() */\n    tag_340:\n        /* \"@openzeppelin/contracts/security/Pausable.sol\":1239:1258  _requireNotPaused() */\n      tag_342\n        /* \"@openzeppelin/contracts/security/Pausable.sol\":1239:1256  _requireNotPaused */\n      tag_223\n        /* \"@openzeppelin/contracts/security/Pausable.sol\":1239:1258  _requireNotPaused() */\n      jump\t// in\n    tag_342:\n        /* \"ChamaCore.sol\":7896:7915  Chama storage chama */\n      0x00\n        /* \"ChamaCore.sol\":7918:7924  chamas */\n      0x04\n        /* \"ChamaCore.sol\":7918:7934  chamas[_chamaId] */\n      0x00\n        /* \"ChamaCore.sol\":7925:7933  _chamaId */\n      dup6\n        /* \"ChamaCore.sol\":7918:7934  chamas[_chamaId] */\n      dup2\n      mstore\n      0x20\n      add\n      swap1\n      dup2\n      mstore\n      0x20\n      add\n      0x00\n      keccak256\n        /* \"ChamaCore.sol\":7896:7934  Chama storage chama = chamas[_chamaId] */\n      swap1\n      pop\n        /* \"ChamaCore.sol\":7979:7980  0 */\n      0x00\n        /* \"ChamaCore.sol\":7957:7962  chama */\n      dup2\n        /* \"ChamaCore.sol\":7957:7975  chama.currentCycle */\n      0x06\n      add\n      sload\n        /* \"ChamaCore.sol\":7957:7980  chama.currentCycle != 0 */\n      eq\n        /* \"ChamaCore.sol\":7953:8010  if (chama.currentCycle != 0) revert ChamaAlreadyStarted() */\n      tag_344\n      jumpi\n        /* \"ChamaCore.sol\":7989:8010  ChamaAlreadyStarted() */\n      mload(0x40)\n      0x65e9fe1900000000000000000000000000000000000000000000000000000000\n      dup2\n      mstore\n      0x04\n      add\n      mload(0x40)\n      dup1\n      swap2\n      sub\n      swap1\n      revert\n        /* \"ChamaCore.sol\":7953:8010  if (chama.currentCycle != 0) revert ChamaAlreadyStarted() */\n    tag_344:\n        /* \"ChamaCore.sol\":8044:8054  msg.sender */\n      caller\n        /* \"ChamaCore.sol\":8024:8054  chama.members[0] != msg.sender */\n      0xffffffffffffffffffffffffffffffffffffffff\n      and\n        /* \"ChamaCore.sol\":8024:8029  chama */\n      dup2\n        /* \"ChamaCore.sol\":8024:8037  chama.members */\n      0x04\n      add\n        /* \"ChamaCore.sol\":8038:8039  0 */\n      0x00\n        /* \"ChamaCore.sol\":8024:8040  chama.members[0] */\n      dup2\n      sload\n      dup2\n      lt\n      tag_345\n      jumpi\n      tag_346\n      tag_235\n      jump\t// in\n    tag_346:\n    tag_345:\n      swap1\n      0x00\n      mstore\n      keccak256(0x00, 0x20)\n      add\n      0x00\n      swap1\n      sload\n      swap1\n      0x0100\n      exp\n      swap1\n      div\n      0xffffffffffffffffffffffffffffffffffffffff\n      and\n        /* \"ChamaCore.sol\":8024:8054  chama.members[0] != msg.sender */\n      0xffffffffffffffffffffffffffffffffffffffff\n      and\n      eq\n        /* \"ChamaCore.sol\":8020:8080  if (chama.members[0] != msg.sender) revert NotChamaCreator() */\n      tag_348\n      jumpi\n        /* \"ChamaCore.sol\":8063:8080  NotChamaCreator() */\n      mload(0x40)\n      0xc0b0546300000000000000000000000000000000000000000000000000000000\n      dup2\n      mstore\n      0x04\n      add\n      mload(0x40)\n      dup1\n      swap2\n      sub\n      swap1\n      revert\n        /* \"ChamaCore.sol\":8020:8080  if (chama.members[0] != msg.sender) revert NotChamaCreator() */\n    tag_348:\n        /* \"ChamaCore.sol\":8099:8120  _startChama(_chamaId) */\n      tag_349\n        /* \"ChamaCore.sol\":8111:8119  _chamaId */\n      dup5\n        /* \"ChamaCore.sol\":8099:8110  _startChama */\n      tag_280\n        /* \"ChamaCore.sol\":8099:8120  _startChama(_chamaId) */\n      jump\t// in\n    tag_349:\n        /* \"ChamaCore.sol\":7886:8127  {... */\n      pop\n        /* \"ChamaCore.sol\":4135:4136  _ */\n      pop\n        /* \"ChamaCore.sol\":7740:8127  function startChama(uint256 _chamaId) ... */\n      pop\n      pop\n      jump\t// out\n        /* \"ChamaCore.sol\":4679:6443  function createChama(... */\n    tag_190:\n        /* \"@openzeppelin/contracts/security/Pausable.sol\":1239:1258  _requireNotPaused() */\n      tag_351\n        /* \"@openzeppelin/contracts/security/Pausable.sol\":1239:1256  _requireNotPaused */\n      tag_223\n        /* \"@openzeppelin/contracts/security/Pausable.sol\":1239:1258  _requireNotPaused() */\n      jump\t// in\n    tag_351:\n        /* \"@openzeppelin/contracts/security/ReentrancyGuard.sol\":2261:2282  _nonReentrantBefore() */\n      tag_353\n        /* \"@openzeppelin/contracts/security/ReentrancyGuard.sol\":2261:2280  _nonReentrantBefore */\n      tag_270\n        /* \"@openzeppelin/contracts/security/ReentrancyGuard.sol\":2261:2282  _nonReentrantBefore() */\n      jump\t// in\n    tag_353:\n        /* \"ChamaCore.sol\":4914:4915  0 */\n      0x00\n        /* \"ChamaCore.sol\":4891:4910  _contributionAmount */\n      dup4\n        /* \"ChamaCore.sol\":4891:4915  _contributionAmount == 0 */\n      sub\n        /* \"ChamaCore.sol\":4887:4951  if (_contributionAmount == 0) revert InvalidContributionAmount() */\n      tag_355\n      jumpi\n        /* \"ChamaCore.sol\":4924:4951  InvalidContributionAmount() */\n      mload(0x40)\n      0xb8bd675800000000000000000000000000000000000000000000000000000000\n      dup2\n      mstore\n      0x04\n      add\n      mload(0x40)\n      dup1\n      swap2\n      sub\n      swap1\n      revert\n        /* \"ChamaCore.sol\":4887:4951  if (_contributionAmount == 0) revert InvalidContributionAmount() */\n    tag_355:\n        /* \"ChamaCore.sol\":4982:4991  7 minutes */\n      0x01a4\n        /* \"ChamaCore.sol\":4965:4979  _cycleDuration */\n      dup3\n        /* \"ChamaCore.sol\":4965:4991  _cycleDuration < 7 minutes */\n      lt\n        /* \"ChamaCore.sol\":4961:5022  if (_cycleDuration < 7 minutes) revert InvalidCycleDuration() */\n      iszero\n      tag_356\n      jumpi\n        /* \"ChamaCore.sol\":5000:5022  InvalidCycleDuration() */\n      mload(0x40)\n      0xec68216200000000000000000000000000000000000000000000000000000000\n      dup2\n      mstore\n      0x04\n      add\n      mload(0x40)\n      dup1\n      swap2\n      sub\n      swap1\n      revert\n        /* \"ChamaCore.sol\":4961:5022  if (_cycleDuration < 7 minutes) revert InvalidCycleDuration() */\n    tag_356:\n        /* \"ChamaCore.sol\":5050:5051  3 */\n      0x03\n        /* \"ChamaCore.sol\":5036:5047  _maxMembers */\n      dup2\n        /* \"ChamaCore.sol\":5036:5051  _maxMembers < 3 */\n      lt\n        /* \"ChamaCore.sol\":5036:5071  _maxMembers < 3 || _maxMembers > 20 */\n      dup1\n      tag_357\n      jumpi\n      pop\n        /* \"ChamaCore.sol\":5069:5071  20 */\n      0x14\n        /* \"ChamaCore.sol\":5055:5066  _maxMembers */\n      dup2\n        /* \"ChamaCore.sol\":5055:5071  _maxMembers > 20 */\n      gt\n        /* \"ChamaCore.sol\":5036:5071  _maxMembers < 3 || _maxMembers > 20 */\n    tag_357:\n        /* \"ChamaCore.sol\":5032:5100  if (_maxMembers < 3 || _maxMembers > 20) revert InvalidMemberCount() */\n      iszero\n      tag_358\n      jumpi\n        /* \"ChamaCore.sol\":5080:5100  InvalidMemberCount() */\n      mload(0x40)\n      0x4fdd01a000000000000000000000000000000000000000000000000000000000\n      dup2\n      mstore\n      0x04\n      add\n      mload(0x40)\n      dup1\n      swap2\n      sub\n      swap1\n      revert\n        /* \"ChamaCore.sol\":5032:5100  if (_maxMembers < 3 || _maxMembers > 20) revert InvalidMemberCount() */\n    tag_358:\n        /* \"ChamaCore.sol\":5126:5145  _contributionAmount */\n      dup3\n        /* \"ChamaCore.sol\":5114:5123  msg.value */\n      callvalue\n        /* \"ChamaCore.sol\":5114:5145  msg.value < _contributionAmount */\n      lt\n        /* \"ChamaCore.sol\":5110:5178  if (msg.value < _contributionAmount) revert InsufficientCollateral() */\n      iszero\n      tag_359\n      jumpi\n        /* \"ChamaCore.sol\":5154:5178  InsufficientCollateral() */\n      mload(0x40)\n      0x3a23d82500000000000000000000000000000000000000000000000000000000\n      dup2\n      mstore\n      0x04\n      add\n      mload(0x40)\n      dup1\n      swap2\n      sub\n      swap1\n      revert\n        /* \"ChamaCore.sol\":5110:5178  if (msg.value < _contributionAmount) revert InsufficientCollateral() */\n    tag_359:\n        /* \"ChamaCore.sol\":5189:5199  chamaCount */\n      0x03\n      0x00\n        /* \"ChamaCore.sol\":5189:5201  chamaCount++ */\n      dup2\n      sload\n      dup1\n      swap3\n      swap2\n      swap1\n      tag_360\n      swap1\n      tag_361\n      jump\t// in\n    tag_360:\n      swap2\n      swap1\n      pop\n      sstore\n      pop\n        /* \"ChamaCore.sol\":5211:5233  Chama storage newChama */\n      0x00\n        /* \"ChamaCore.sol\":5236:5242  chamas */\n      0x04\n        /* \"ChamaCore.sol\":5236:5254  chamas[chamaCount] */\n      0x00\n        /* \"ChamaCore.sol\":5243:5253  chamaCount */\n      sload(0x03)\n        /* \"ChamaCore.sol\":5236:5254  chamas[chamaCount] */\n      dup2\n      mstore\n      0x20\n      add\n      swap1\n      dup2\n      mstore\n      0x20\n      add\n      0x00\n      keccak256\n        /* \"ChamaCore.sol\":5211:5254  Chama storage newChama = chamas[chamaCount] */\n      swap1\n      pop\n        /* \"ChamaCore.sol\":5289:5294  _name */\n      dup5\n        /* \"ChamaCore.sol\":5273:5281  newChama */\n      dup2\n        /* \"ChamaCore.sol\":5273:5286  newChama.name */\n      0x00\n      add\n        /* \"ChamaCore.sol\":5273:5294  newChama.name = _name */\n      swap1\n      dup2\n      tag_362\n      swap2\n      swap1\n      tag_363\n      jump\t// in\n    tag_362:\n      pop\n        /* \"ChamaCore.sol\":5334:5353  _contributionAmount */\n      dup4\n        /* \"ChamaCore.sol\":5304:5312  newChama */\n      dup2\n        /* \"ChamaCore.sol\":5304:5331  newChama.contributionAmount */\n      0x01\n      add\n        /* \"ChamaCore.sol\":5304:5353  newChama.contributionAmount = _contributionAmount */\n      dup2\n      swap1\n      sstore\n      pop\n        /* \"ChamaCore.sol\":5388:5402  _cycleDuration */\n      dup3\n        /* \"ChamaCore.sol\":5363:5371  newChama */\n      dup2\n        /* \"ChamaCore.sol\":5363:5385  newChama.cycleDuration */\n      0x02\n      add\n        /* \"ChamaCore.sol\":5363:5402  newChama.cycleDuration = _cycleDuration */\n      dup2\n      swap1\n      sstore\n      pop\n        /* \"ChamaCore.sol\":5434:5445  _maxMembers */\n      dup2\n        /* \"ChamaCore.sol\":5412:5420  newChama */\n      dup2\n        /* \"ChamaCore.sol\":5412:5431  newChama.maxMembers */\n      0x03\n      add\n        /* \"ChamaCore.sol\":5412:5445  newChama.maxMembers = _maxMembers */\n      dup2\n      swap1\n      sstore\n      pop\n        /* \"ChamaCore.sol\":5473:5477  true */\n      0x01\n        /* \"ChamaCore.sol\":5455:5463  newChama */\n      dup2\n        /* \"ChamaCore.sol\":5455:5470  newChama.active */\n      0x05\n      add\n      0x00\n        /* \"ChamaCore.sol\":5455:5477  newChama.active = true */\n      0x0100\n      exp\n      dup2\n      sload\n      dup2\n      0xff\n      mul\n      not\n      and\n      swap1\n      dup4\n      iszero\n      iszero\n      mul\n      or\n      swap1\n      sstore\n      pop\n        /* \"ChamaCore.sol\":5511:5512  0 */\n      0x00\n        /* \"ChamaCore.sol\":5487:5495  newChama */\n      dup2\n        /* \"ChamaCore.sol\":5487:5508  newChama.currentCycle */\n      0x06\n      add\n        /* \"ChamaCore.sol\":5487:5512  newChama.currentCycle = 0 */\n      dup2\n      swap1\n      sstore\n      pop\n        /* \"ChamaCore.sol\":5555:5556  0 */\n      0x00\n        /* \"ChamaCore.sol\":5522:5530  newChama */\n      dup2\n        /* \"ChamaCore.sol\":5522:5552  newChama.currentRecipientIndex */\n      0x07\n      add\n        /* \"ChamaCore.sol\":5522:5556  newChama.currentRecipientIndex = 0 */\n      dup2\n      swap1\n      sstore\n      pop\n        /* \"ChamaCore.sol\":5596:5611  block.timestamp */\n      timestamp\n        /* \"ChamaCore.sol\":5566:5574  newChama */\n      dup2\n        /* \"ChamaCore.sol\":5566:5593  newChama.lastCycleTimestamp */\n      0x08\n      add\n        /* \"ChamaCore.sol\":5566:5611  newChama.lastCycleTimestamp = block.timestamp */\n      dup2\n      swap1\n      sstore\n      pop\n        /* \"ChamaCore.sol\":5642:5643  0 */\n      0x00\n        /* \"ChamaCore.sol\":5621:5629  newChama */\n      dup2\n        /* \"ChamaCore.sol\":5621:5639  newChama.totalPool */\n      0x09\n      add\n        /* \"ChamaCore.sol\":5621:5643  newChama.totalPool = 0 */\n      dup2\n      swap1\n      sstore\n      pop\n        /* \"ChamaCore.sol\":5680:5689  msg.value */\n      callvalue\n        /* \"ChamaCore.sol\":5653:5661  newChama */\n      dup2\n        /* \"ChamaCore.sol\":5653:5677  newChama.totalCollateral */\n      0x12\n      add\n        /* \"ChamaCore.sol\":5653:5689  newChama.totalCollateral = msg.value */\n      dup2\n      swap1\n      sstore\n      pop\n        /* \"ChamaCore.sol\":5782:5793  _maxMembers */\n      dup2\n        /* \"ChamaCore.sol\":5771:5794  new bool[](_maxMembers) */\n      0xffffffffffffffff\n      dup2\n      gt\n      iszero\n      tag_364\n      jumpi\n      tag_365\n      tag_366\n      jump\t// in\n    tag_365:\n    tag_364:\n      mload(0x40)\n      swap1\n      dup1\n      dup3\n      mstore\n      dup1\n      0x20\n      mul\n      0x20\n      add\n      dup3\n      add\n      0x40\n      mstore\n      dup1\n      iszero\n      tag_367\n      jumpi\n      dup2\n      0x20\n      add\n      0x20\n      dup3\n      mul\n      dup1\n      calldatasize\n      dup4\n      calldatacopy\n      dup1\n      dup3\n      add\n      swap2\n      pop\n      pop\n      swap1\n      pop\n    tag_367:\n      pop\n        /* \"ChamaCore.sol\":5748:5756  newChama */\n      dup2\n        /* \"ChamaCore.sol\":5748:5768  newChama.membersPaid */\n      0x0a\n      add\n        /* \"ChamaCore.sol\":5748:5794  newChama.membersPaid = new bool[](_maxMembers) */\n      swap1\n      dup1\n      mload\n      swap1\n      0x20\n      add\n      swap1\n      tag_368\n      swap3\n      swap2\n      swap1\n      tag_369\n      jump\t// in\n    tag_368:\n      pop\n        /* \"ChamaCore.sol\":5852:5860  newChama */\n      dup1\n        /* \"ChamaCore.sol\":5852:5868  newChama.members */\n      0x04\n      add\n        /* \"ChamaCore.sol\":5874:5884  msg.sender */\n      caller\n        /* \"ChamaCore.sol\":5852:5885  newChama.members.push(msg.sender) */\n      swap1\n      dup1\n      0x01\n      dup2\n      sload\n      add\n      dup1\n      dup3\n      sstore\n      dup1\n      swap2\n      pop\n      pop\n      0x01\n      swap1\n      sub\n      swap1\n      0x00\n      mstore\n      keccak256(0x00, 0x20)\n      add\n      0x00\n      swap1\n      swap2\n      swap1\n      swap2\n      swap1\n      swap2\n      0x0100\n      exp\n      dup2\n      sload\n      dup2\n      0xffffffffffffffffffffffffffffffffffffffff\n      mul\n      not\n      and\n      swap1\n      dup4\n      0xffffffffffffffffffffffffffffffffffffffff\n      and\n      mul\n      or\n      swap1\n      sstore\n      pop\n        /* \"ChamaCore.sol\":5927:5931  true */\n      0x01\n        /* \"ChamaCore.sol\":5895:5903  newChama */\n      dup2\n        /* \"ChamaCore.sol\":5895:5912  newChama.isMember */\n      0x0b\n      add\n        /* \"ChamaCore.sol\":5895:5924  newChama.isMember[msg.sender] */\n      0x00\n        /* \"ChamaCore.sol\":5913:5923  msg.sender */\n      caller\n        /* \"ChamaCore.sol\":5895:5924  newChama.isMember[msg.sender] */\n      0xffffffffffffffffffffffffffffffffffffffff\n      and\n      0xffffffffffffffffffffffffffffffffffffffff\n      and\n      dup2\n      mstore\n      0x20\n      add\n      swap1\n      dup2\n      mstore\n      0x20\n      add\n      0x00\n      keccak256\n      0x00\n        /* \"ChamaCore.sol\":5895:5931  newChama.isMember[msg.sender] = true */\n      0x0100\n      exp\n      dup2\n      sload\n      dup2\n      0xff\n      mul\n      not\n      and\n      swap1\n      dup4\n      iszero\n      iszero\n      mul\n      or\n      swap1\n      sstore\n      pop\n        /* \"ChamaCore.sol\":5976:5977  0 */\n      0x00\n        /* \"ChamaCore.sol\":5941:5949  newChama */\n      dup2\n        /* \"ChamaCore.sol\":5941:5961  newChama.memberIndex */\n      0x0c\n      add\n        /* \"ChamaCore.sol\":5941:5973  newChama.memberIndex[msg.sender] */\n      0x00\n        /* \"ChamaCore.sol\":5962:5972  msg.sender */\n      caller\n        /* \"ChamaCore.sol\":5941:5973  newChama.memberIndex[msg.sender] */\n      0xffffffffffffffffffffffffffffffffffffffff\n      and\n      0xffffffffffffffffffffffffffffffffffffffff\n      and\n      dup2\n      mstore\n      0x20\n      add\n      swap1\n      dup2\n      mstore\n      0x20\n      add\n      0x00\n      keccak256\n        /* \"ChamaCore.sol\":5941:5977  newChama.memberIndex[msg.sender] = 0 */\n      dup2\n      swap1\n      sstore\n      pop\n        /* \"ChamaCore.sol\":6027:6036  msg.value */\n      callvalue\n        /* \"ChamaCore.sol\":5987:5995  newChama */\n      dup2\n        /* \"ChamaCore.sol\":5987:6012  newChama.memberCollateral */\n      0x10\n      add\n        /* \"ChamaCore.sol\":5987:6024  newChama.memberCollateral[msg.sender] */\n      0x00\n        /* \"ChamaCore.sol\":6013:6023  msg.sender */\n      caller\n        /* \"ChamaCore.sol\":5987:6024  newChama.memberCollateral[msg.sender] */\n      0xffffffffffffffffffffffffffffffffffffffff\n      and\n      0xffffffffffffffffffffffffffffffffffffffff\n      and\n      dup2\n      mstore\n      0x20\n      add\n      swap1\n      dup2\n      mstore\n      0x20\n      add\n      0x00\n      keccak256\n        /* \"ChamaCore.sol\":5987:6036  newChama.memberCollateral[msg.sender] = msg.value */\n      dup2\n      swap1\n      sstore\n      pop\n        /* \"ChamaCore.sol\":6120:6158  hasRole(GAMIFICATION_ROLE, msg.sender) */\n      tag_371\n        /* \"ChamaCore.sol\":605:635  keccak256(\"GAMIFICATION_ROLE\") */\n      0x8c7e961e804af7b2059d42008de01ccc90fc88b8e6b947b02e12656ddb05ca3a\n        /* \"ChamaCore.sol\":6147:6157  msg.sender */\n      caller\n        /* \"ChamaCore.sol\":6120:6127  hasRole */\n      tag_145\n        /* \"ChamaCore.sol\":6120:6158  hasRole(GAMIFICATION_ROLE, msg.sender) */\n      jump\t// in\n    tag_371:\n        /* \"ChamaCore.sol\":6116:6230  if (hasRole(GAMIFICATION_ROLE, msg.sender)) {... */\n      pop\n        /* \"ChamaCore.sol\":6285:6295  msg.sender */\n      caller\n        /* \"ChamaCore.sol\":6253:6317  ChamaCreated(chamaCount, _name, msg.sender, _contributionAmount) */\n      0xffffffffffffffffffffffffffffffffffffffff\n      and\n        /* \"ChamaCore.sol\":6266:6276  chamaCount */\n      sload(0x03)\n        /* \"ChamaCore.sol\":6253:6317  ChamaCreated(chamaCount, _name, msg.sender, _contributionAmount) */\n      0xf4262469916388c16d1454945cd27f61664f3ae726c205e66b8f9212a3534f8c\n        /* \"ChamaCore.sol\":6278:6283  _name */\n      dup8\n        /* \"ChamaCore.sol\":6297:6316  _contributionAmount */\n      dup8\n        /* \"ChamaCore.sol\":6253:6317  ChamaCreated(chamaCount, _name, msg.sender, _contributionAmount) */\n      mload(0x40)\n      tag_373\n      swap3\n      swap2\n      swap1\n      tag_374\n      jump\t// in\n    tag_373:\n      mload(0x40)\n      dup1\n      swap2\n      sub\n      swap1\n      log3\n        /* \"ChamaCore.sol\":6356:6366  msg.sender */\n      caller\n        /* \"ChamaCore.sol\":6332:6367  ChamaJoined(chamaCount, msg.sender) */\n      0xffffffffffffffffffffffffffffffffffffffff\n      and\n        /* \"ChamaCore.sol\":6344:6354  chamaCount */\n      sload(0x03)\n        /* \"ChamaCore.sol\":6332:6367  ChamaJoined(chamaCount, msg.sender) */\n      0x40a8c7a25e1eab32f305b79614cb4eb53a2d5d546bc4a5b0b55e5a7dc1228dce\n      mload(0x40)\n      mload(0x40)\n      dup1\n      swap2\n      sub\n      swap1\n      log3\n        /* \"ChamaCore.sol\":6414:6424  msg.sender */\n      caller\n        /* \"ChamaCore.sol\":6382:6436  CollateralDeposited(chamaCount, msg.sender, msg.value) */\n      0xffffffffffffffffffffffffffffffffffffffff\n      and\n        /* \"ChamaCore.sol\":6402:6412  chamaCount */\n      sload(0x03)\n        /* \"ChamaCore.sol\":6382:6436  CollateralDeposited(chamaCount, msg.sender, msg.value) */\n      0xeec2f3feb835e2f2fd44281034b04700a1ddda63dd402949d470a25a7c40b36c\n        /* \"ChamaCore.sol\":6426:6435  msg.value */\n      callvalue\n        /* \"ChamaCore.sol\":6382:6436  CollateralDeposited(chamaCount, msg.sender, msg.value) */\n      mload(0x40)\n      tag_375\n      swap2\n      swap1\n      tag_54\n      jump\t// in\n    tag_375:\n      mload(0x40)\n      dup1\n      swap2\n      sub\n      swap1\n      log3\n        /* \"ChamaCore.sol\":4877:6443  {... */\n      pop\n        /* \"@openzeppelin/contracts/security/ReentrancyGuard.sol\":2303:2323  _nonReentrantAfter() */\n      tag_376\n        /* \"@openzeppelin/contracts/security/ReentrancyGuard.sol\":2303:2321  _nonReentrantAfter */\n      tag_282\n        /* \"@openzeppelin/contracts/security/ReentrancyGuard.sol\":2303:2323  _nonReentrantAfter() */\n      jump\t// in\n    tag_376:\n        /* \"ChamaCore.sol\":4679:6443  function createChama(... */\n      pop\n      pop\n      pop\n      pop\n      jump\t// out\n        /* \"ChamaCore.sol\":17159:17543  function getCycleInfo(uint256 _chamaId, uint256 _cycle) external view returns (... */\n    tag_195:\n        /* \"ChamaCore.sol\":17247:17273  uint256 cycleContributions */\n      0x00\n        /* \"ChamaCore.sol\":17283:17300  address recipient */\n      0x00\n        /* \"ChamaCore.sol\":17310:17324  bool completed */\n      0x00\n        /* \"ChamaCore.sol\":17341:17360  Chama storage chama */\n      0x00\n        /* \"ChamaCore.sol\":17363:17369  chamas */\n      0x04\n        /* \"ChamaCore.sol\":17363:17379  chamas[_chamaId] */\n      0x00\n        /* \"ChamaCore.sol\":17370:17378  _chamaId */\n      dup8\n        /* \"ChamaCore.sol\":17363:17379  chamas[_chamaId] */\n      dup2\n      mstore\n      0x20\n      add\n      swap1\n      dup2\n      mstore\n      0x20\n      add\n      0x00\n      keccak256\n        /* \"ChamaCore.sol\":17341:17379  Chama storage chama = chamas[_chamaId] */\n      swap1\n      pop\n        /* \"ChamaCore.sol\":17410:17415  chama */\n      dup1\n        /* \"ChamaCore.sol\":17410:17434  chama.cycleContributions */\n      0x0d\n      add\n        /* \"ChamaCore.sol\":17410:17442  chama.cycleContributions[_cycle] */\n      0x00\n        /* \"ChamaCore.sol\":17435:17441  _cycle */\n      dup7\n        /* \"ChamaCore.sol\":17410:17442  chama.cycleContributions[_cycle] */\n      dup2\n      mstore\n      0x20\n      add\n      swap1\n      dup2\n      mstore\n      0x20\n      add\n      0x00\n      keccak256\n      sload\n        /* \"ChamaCore.sol\":17456:17461  chama */\n      dup2\n        /* \"ChamaCore.sol\":17456:17476  chama.cycleRecipient */\n      0x0e\n      add\n        /* \"ChamaCore.sol\":17456:17484  chama.cycleRecipient[_cycle] */\n      0x00\n        /* \"ChamaCore.sol\":17477:17483  _cycle */\n      dup8\n        /* \"ChamaCore.sol\":17456:17484  chama.cycleRecipient[_cycle] */\n      dup2\n      mstore\n      0x20\n      add\n      swap1\n      dup2\n      mstore\n      0x20\n      add\n      0x00\n      keccak256\n      0x00\n      swap1\n      sload\n      swap1\n      0x0100\n      exp\n      swap1\n      div\n      0xffffffffffffffffffffffffffffffffffffffff\n      and\n        /* \"ChamaCore.sol\":17498:17503  chama */\n      dup3\n        /* \"ChamaCore.sol\":17498:17518  chama.cycleCompleted */\n      0x0f\n      add\n        /* \"ChamaCore.sol\":17498:17526  chama.cycleCompleted[_cycle] */\n      0x00\n        /* \"ChamaCore.sol\":17519:17525  _cycle */\n      dup9\n        /* \"ChamaCore.sol\":17498:17526  chama.cycleCompleted[_cycle] */\n      dup2\n      mstore\n      0x20\n      add\n      swap1\n      dup2\n      mstore\n      0x20\n      add\n      0x00\n      keccak256\n      0x00\n      swap1\n      sload\n      swap1\n      0x0100\n      exp\n      swap1\n      div\n      0xff\n      and\n        /* \"ChamaCore.sol\":17389:17536  return (... */\n      swap4\n      pop\n      swap4\n      pop\n      swap4\n      pop\n      pop\n        /* \"ChamaCore.sol\":17159:17543  function getCycleInfo(uint256 _chamaId, uint256 _cycle) external view returns (... */\n      swap3\n      pop\n      swap3\n      pop\n      swap3\n      jump\t// out\n        /* \"@openzeppelin/contracts/utils/introspection/ERC165.sol\":730:876  function supportsInterface(bytes4 interfaceId) public view virtual returns (bool) {... */\n    tag_201:\n        /* \"@openzeppelin/contracts/utils/introspection/ERC165.sol\":806:810  bool */\n      0x00\n        /* \"@openzeppelin/contracts/utils/introspection/ERC165.sol\":844:869  type(IERC165).interfaceId */\n      0x01ffc9a700000000000000000000000000000000000000000000000000000000\n        /* \"@openzeppelin/contracts/utils/introspection/ERC165.sol\":829:869  interfaceId == type(IERC165).interfaceId */\n      not(0xffffffffffffffffffffffffffffffffffffffffffffffffffffffff)\n      and\n        /* \"@openzeppelin/contracts/utils/introspection/ERC165.sol\":829:840  interfaceId */\n      dup3\n        /* \"@openzeppelin/contracts/utils/introspection/ERC165.sol\":829:869  interfaceId == type(IERC165).interfaceId */\n      not(0xffffffffffffffffffffffffffffffffffffffffffffffffffffffff)\n      and\n      eq\n        /* \"@openzeppelin/contracts/utils/introspection/ERC165.sol\":822:869  return interfaceId == type(IERC165).interfaceId */\n      swap1\n      pop\n        /* \"@openzeppelin/contracts/utils/introspection/ERC165.sol\":730:876  function supportsInterface(bytes4 interfaceId) public view virtual returns (bool) {... */\n      swap2\n      swap1\n      pop\n      jump\t// out\n        /* \"@openzeppelin/contracts/access/AccessControl.sol\":3175:3278  function _checkRole(bytes32 role) internal view virtual {... */\n    tag_214:\n        /* \"@openzeppelin/contracts/access/AccessControl.sol\":3241:3271  _checkRole(role, _msgSender()) */\n      tag_380\n        /* \"@openzeppelin/contracts/access/AccessControl.sol\":3252:3256  role */\n      dup2\n        /* \"@openzeppelin/contracts/access/AccessControl.sol\":3258:3270  _msgSender() */\n      tag_381\n        /* \"@openzeppelin/contracts/access/AccessControl.sol\":3258:3268  _msgSender */\n      tag_248\n        /* \"@openzeppelin/contracts/access/AccessControl.sol\":3258:3270  _msgSender() */\n      jump\t// in\n    tag_381:\n        /* \"@openzeppelin/contracts/access/AccessControl.sol\":3241:3251  _checkRole */\n      tag_382\n        /* \"@openzeppelin/contracts/access/AccessControl.sol\":3241:3271  _checkRole(role, _msgSender()) */\n      jump\t// in\n    tag_380:\n        /* \"@openzeppelin/contracts/access/AccessControl.sol\":3175:3278  function _checkRole(bytes32 role) internal view virtual {... */\n      pop\n      jump\t// out\n        /* \"@openzeppelin/contracts/access/AccessControl.sol\":6155:6471  function _grantRole(bytes32 role, address account) internal virtual returns (bool) {... */\n    tag_217:\n        /* \"@openzeppelin/contracts/access/AccessControl.sol\":6232:6236  bool */\n      0x00\n        /* \"@openzeppelin/contracts/access/AccessControl.sol\":6253:6275  hasRole(role, account) */\n      tag_384\n        /* \"@openzeppelin/contracts/access/AccessControl.sol\":6261:6265  role */\n      dup4\n        /* \"@openzeppelin/contracts/access/AccessControl.sol\":6267:6274  account */\n      dup4\n        /* \"@openzeppelin/contracts/access/AccessControl.sol\":6253:6260  hasRole */\n      tag_145\n        /* \"@openzeppelin/contracts/access/AccessControl.sol\":6253:6275  hasRole(role, account) */\n      jump\t// in\n    tag_384:\n        /* \"@openzeppelin/contracts/access/AccessControl.sol\":6248:6465  if (!hasRole(role, account)) {... */\n      tag_385\n      jumpi\n        /* \"@openzeppelin/contracts/access/AccessControl.sol\":6323:6327  true */\n      0x01\n        /* \"@openzeppelin/contracts/access/AccessControl.sol\":6291:6297  _roles */\n      0x02\n        /* \"@openzeppelin/contracts/access/AccessControl.sol\":6291:6303  _roles[role] */\n      0x00\n        /* \"@openzeppelin/contracts/access/AccessControl.sol\":6298:6302  role */\n      dup6\n        /* \"@openzeppelin/contracts/access/AccessControl.sol\":6291:6303  _roles[role] */\n      dup2\n      mstore\n      0x20\n      add\n      swap1\n      dup2\n      mstore\n      0x20\n      add\n      0x00\n      keccak256\n        /* \"@openzeppelin/contracts/access/AccessControl.sol\":6291:6311  _roles[role].hasRole */\n      0x00\n      add\n        /* \"@openzeppelin/contracts/access/AccessControl.sol\":6291:6320  _roles[role].hasRole[account] */\n      0x00\n        /* \"@openzeppelin/contracts/access/AccessControl.sol\":6312:6319  account */\n      dup5\n        /* \"@openzeppelin/contracts/access/AccessControl.sol\":6291:6320  _roles[role].hasRole[account] */\n      0xffffffffffffffffffffffffffffffffffffffff\n      and\n      0xffffffffffffffffffffffffffffffffffffffff\n      and\n      dup2\n      mstore\n      0x20\n      add\n      swap1\n      dup2\n      mstore\n      0x20\n      add\n      0x00\n      keccak256\n      0x00\n        /* \"@openzeppelin/contracts/access/AccessControl.sol\":6291:6327  _roles[role].hasRole[account] = true */\n      0x0100\n      exp\n      dup2\n      sload\n      dup2\n      0xff\n      mul\n      not\n      and\n      swap1\n      dup4\n      iszero\n      iszero\n      mul\n      or\n      swap1\n      sstore\n      pop\n        /* \"@openzeppelin/contracts/access/AccessControl.sol\":6373:6385  _msgSender() */\n      tag_386\n        /* \"@openzeppelin/contracts/access/AccessControl.sol\":6373:6383  _msgSender */\n      tag_248\n        /* \"@openzeppelin/contracts/access/AccessControl.sol\":6373:6385  _msgSender() */\n      jump\t// in\n    tag_386:\n        /* \"@openzeppelin/contracts/access/AccessControl.sol\":6346:6386  RoleGranted(role, account, _msgSender()) */\n      0xffffffffffffffffffffffffffffffffffffffff\n      and\n        /* \"@openzeppelin/contracts/access/AccessControl.sol\":6364:6371  account */\n      dup3\n        /* \"@openzeppelin/contracts/access/AccessControl.sol\":6346:6386  RoleGranted(role, account, _msgSender()) */\n      0xffffffffffffffffffffffffffffffffffffffff\n      and\n        /* \"@openzeppelin/contracts/access/AccessControl.sol\":6358:6362  role */\n      dup5\n        /* \"@openzeppelin/contracts/access/AccessControl.sol\":6346:6386  RoleGranted(role, account, _msgSender()) */\n      0x2f8788117e7eff1d82e926ec794901d17c78024a50270940304540a733656f0d\n      mload(0x40)\n      mload(0x40)\n      dup1\n      swap2\n      sub\n      swap1\n      log4\n        /* \"@openzeppelin/contracts/access/AccessControl.sol\":6407:6411  true */\n      0x01\n        /* \"@openzeppelin/contracts/access/AccessControl.sol\":6400:6411  return true */\n      swap1\n      pop\n      jump(tag_383)\n        /* \"@openzeppelin/contracts/access/AccessControl.sol\":6248:6465  if (!hasRole(role, account)) {... */\n    tag_385:\n        /* \"@openzeppelin/contracts/access/AccessControl.sol\":6449:6454  false */\n      0x00\n        /* \"@openzeppelin/contracts/access/AccessControl.sol\":6442:6454  return false */\n      swap1\n      pop\n        /* \"@openzeppelin/contracts/access/AccessControl.sol\":6155:6471  function _grantRole(bytes32 role, address account) internal virtual returns (bool) {... */\n    tag_383:\n      swap3\n      swap2\n      pop\n      pop\n      jump\t// out\n        /* \"@openzeppelin/contracts/security/Pausable.sol\":1767:1873  function _requireNotPaused() internal view virtual {... */\n    tag_223:\n        /* \"@openzeppelin/contracts/security/Pausable.sol\":1837:1845  paused() */\n      tag_389\n        /* \"@openzeppelin/contracts/security/Pausable.sol\":1837:1843  paused */\n      tag_108\n        /* \"@openzeppelin/contracts/security/Pausable.sol\":1837:1845  paused() */\n      jump\t// in\n    tag_389:\n        /* \"@openzeppelin/contracts/security/Pausable.sol\":1836:1845  !paused() */\n      iszero\n        /* \"@openzeppelin/contracts/security/Pausable.sol\":1828:1866  require(!paused(), \"Pausable: paused\") */\n      tag_390\n      jumpi\n      mload(0x40)\n      0x08c379a000000000000000000000000000000000000000000000000000000000\n      dup2\n      mstore\n      0x04\n      add\n      tag_391\n      swap1\n      tag_392\n      jump\t// in\n    tag_391:\n      mload(0x40)\n      dup1\n      swap2\n      sub\n      swap1\n      revert\n    tag_390:\n        /* \"@openzeppelin/contracts/security/Pausable.sol\":1767:1873  function _requireNotPaused() internal view virtual {... */\n      jump\t// out\n        /* \"ChamaCore.sol\":11574:12661  function _processCyclePayout(uint256 _chamaId) internal {... */\n    tag_245:\n        /* \"ChamaCore.sol\":11640:11659  Chama storage chama */\n      0x00\n        /* \"ChamaCore.sol\":11662:11668  chamas */\n      0x04\n        /* \"ChamaCore.sol\":11662:11678  chamas[_chamaId] */\n      0x00\n        /* \"ChamaCore.sol\":11669:11677  _chamaId */\n      dup4\n        /* \"ChamaCore.sol\":11662:11678  chamas[_chamaId] */\n      dup2\n      mstore\n      0x20\n      add\n      swap1\n      dup2\n      mstore\n      0x20\n      add\n      0x00\n      keccak256\n        /* \"ChamaCore.sol\":11640:11678  Chama storage chama = chamas[_chamaId] */\n      swap1\n      pop\n        /* \"ChamaCore.sol\":11730:11747  address recipient */\n      0x00\n        /* \"ChamaCore.sol\":11750:11755  chama */\n      dup2\n        /* \"ChamaCore.sol\":11750:11763  chama.members */\n      0x04\n      add\n        /* \"ChamaCore.sol\":11764:11769  chama */\n      dup3\n        /* \"ChamaCore.sol\":11764:11791  chama.currentRecipientIndex */\n      0x07\n      add\n      sload\n        /* \"ChamaCore.sol\":11750:11792  chama.members[chama.currentRecipientIndex] */\n      dup2\n      sload\n      dup2\n      lt\n      tag_394\n      jumpi\n      tag_395\n      tag_235\n      jump\t// in\n    tag_395:\n    tag_394:\n      swap1\n      0x00\n      mstore\n      keccak256(0x00, 0x20)\n      add\n      0x00\n      swap1\n      sload\n      swap1\n      0x0100\n      exp\n      swap1\n      div\n      0xffffffffffffffffffffffffffffffffffffffff\n      and\n        /* \"ChamaCore.sol\":11730:11792  address recipient = chama.members[chama.currentRecipientIndex] */\n      swap1\n      pop\n        /* \"ChamaCore.sol\":11802:11822  uint256 payoutAmount */\n      0x00\n        /* \"ChamaCore.sol\":11825:11830  chama */\n      dup3\n        /* \"ChamaCore.sol\":11825:11849  chama.cycleContributions */\n      0x0d\n      add\n        /* \"ChamaCore.sol\":11825:11869  chama.cycleContributions[chama.currentCycle] */\n      0x00\n        /* \"ChamaCore.sol\":11850:11855  chama */\n      dup5\n        /* \"ChamaCore.sol\":11850:11868  chama.currentCycle */\n      0x06\n      add\n      sload\n        /* \"ChamaCore.sol\":11825:11869  chama.cycleContributions[chama.currentCycle] */\n      dup2\n      mstore\n      0x20\n      add\n      swap1\n      dup2\n      mstore\n      0x20\n      add\n      0x00\n      keccak256\n      sload\n        /* \"ChamaCore.sol\":11802:11869  uint256 payoutAmount = chama.cycleContributions[chama.currentCycle] */\n      swap1\n      pop\n        /* \"ChamaCore.sol\":11971:11975  true */\n      0x01\n        /* \"ChamaCore.sol\":11922:11927  chama */\n      dup4\n        /* \"ChamaCore.sol\":11922:11939  chama.membersPaid */\n      0x0a\n      add\n        /* \"ChamaCore.sol\":11940:11945  chama */\n      dup5\n        /* \"ChamaCore.sol\":11940:11967  chama.currentRecipientIndex */\n      0x07\n      add\n      sload\n        /* \"ChamaCore.sol\":11922:11968  chama.membersPaid[chama.currentRecipientIndex] */\n      dup2\n      sload\n      dup2\n      lt\n      tag_397\n      jumpi\n      tag_398\n      tag_235\n      jump\t// in\n    tag_398:\n    tag_397:\n      swap1\n      0x00\n      mstore\n      keccak256(0x00, 0x20)\n      swap1\n      0x20\n      swap2\n      dup3\n      dup3\n      div\n      add\n      swap2\n      swap1\n      mod\n        /* \"ChamaCore.sol\":11922:11975  chama.membersPaid[chama.currentRecipientIndex] = true */\n      0x0100\n      exp\n      dup2\n      sload\n      dup2\n      0xff\n      mul\n      not\n      and\n      swap1\n      dup4\n      iszero\n      iszero\n      mul\n      or\n      swap1\n      sstore\n      pop\n        /* \"ChamaCore.sol\":12028:12037  recipient */\n      dup2\n        /* \"ChamaCore.sol\":11985:11990  chama */\n      dup4\n        /* \"ChamaCore.sol\":11985:12005  chama.cycleRecipient */\n      0x0e\n      add\n        /* \"ChamaCore.sol\":11985:12025  chama.cycleRecipient[chama.currentCycle] */\n      0x00\n        /* \"ChamaCore.sol\":12006:12011  chama */\n      dup6\n        /* \"ChamaCore.sol\":12006:12024  chama.currentCycle */\n      0x06\n      add\n      sload\n        /* \"ChamaCore.sol\":11985:12025  chama.cycleRecipient[chama.currentCycle] */\n      dup2\n      mstore\n      0x20\n      add\n      swap1\n      dup2\n      mstore\n      0x20\n      add\n      0x00\n      keccak256\n      0x00\n        /* \"ChamaCore.sol\":11985:12037  chama.cycleRecipient[chama.currentCycle] = recipient */\n      0x0100\n      exp\n      dup2\n      sload\n      dup2\n      0xffffffffffffffffffffffffffffffffffffffff\n      mul\n      not\n      and\n      swap1\n      dup4\n      0xffffffffffffffffffffffffffffffffffffffff\n      and\n      mul\n      or\n      swap1\n      sstore\n      pop\n        /* \"ChamaCore.sol\":12090:12094  true */\n      0x01\n        /* \"ChamaCore.sol\":12047:12052  chama */\n      dup4\n        /* \"ChamaCore.sol\":12047:12067  chama.cycleCompleted */\n      0x0f\n      add\n        /* \"ChamaCore.sol\":12047:12087  chama.cycleCompleted[chama.currentCycle] */\n      0x00\n        /* \"ChamaCore.sol\":12068:12073  chama */\n      dup6\n        /* \"ChamaCore.sol\":12068:12086  chama.currentCycle */\n      0x06\n      add\n      sload\n        /* \"ChamaCore.sol\":12047:12087  chama.cycleCompleted[chama.currentCycle] */\n      dup2\n      mstore\n      0x20\n      add\n      swap1\n      dup2\n      mstore\n      0x20\n      add\n      0x00\n      keccak256\n      0x00\n        /* \"ChamaCore.sol\":12047:12094  chama.cycleCompleted[chama.currentCycle] = true */\n      0x0100\n      exp\n      dup2\n      sload\n      dup2\n      0xff\n      mul\n      not\n      and\n      swap1\n      dup4\n      iszero\n      iszero\n      mul\n      or\n      swap1\n      sstore\n      pop\n        /* \"ChamaCore.sol\":12141:12153  bool success */\n      0x00\n        /* \"ChamaCore.sol\":12167:12176  recipient */\n      dup3\n        /* \"ChamaCore.sol\":12159:12182  payable(recipient).call */\n      0xffffffffffffffffffffffffffffffffffffffff\n      and\n        /* \"ChamaCore.sol\":12190:12202  payoutAmount */\n      dup3\n        /* \"ChamaCore.sol\":12159:12207  payable(recipient).call{value: payoutAmount}(\"\") */\n      mload(0x40)\n      tag_400\n      swap1\n      tag_401\n      jump\t// in\n    tag_400:\n      0x00\n      mload(0x40)\n      dup1\n      dup4\n      sub\n      dup2\n      dup6\n      dup8\n      gas\n      call\n      swap3\n      pop\n      pop\n      pop\n      returndatasize\n      dup1\n      0x00\n      dup2\n      eq\n      tag_404\n      jumpi\n      mload(0x40)\n      swap2\n      pop\n      and(add(returndatasize, 0x3f), not(0x1f))\n      dup3\n      add\n      0x40\n      mstore\n      returndatasize\n      dup3\n      mstore\n      returndatasize\n      0x00\n      0x20\n      dup5\n      add\n      returndatacopy\n      jump(tag_403)\n    tag_404:\n      0x60\n      swap2\n      pop\n    tag_403:\n      pop\n        /* \"ChamaCore.sol\":12140:12207  (bool success, ) = payable(recipient).call{value: payoutAmount}(\"\") */\n      pop\n      swap1\n      pop\n        /* \"ChamaCore.sol\":12225:12232  success */\n      dup1\n        /* \"ChamaCore.sol\":12217:12259  require(success, \"Payout transfer failed\") */\n      tag_405\n      jumpi\n      mload(0x40)\n      0x08c379a000000000000000000000000000000000000000000000000000000000\n      dup2\n      mstore\n      0x04\n      add\n      tag_406\n      swap1\n      tag_407\n      jump\t// in\n    tag_406:\n      mload(0x40)\n      dup1\n      swap2\n      sub\n      swap1\n      revert\n    tag_405:\n        /* \"ChamaCore.sol\":12310:12319  recipient */\n      dup3\n        /* \"ChamaCore.sol\":12283:12354  ChamaCyclePayout(_chamaId, recipient, payoutAmount, chama.currentCycle) */\n      0xffffffffffffffffffffffffffffffffffffffff\n      and\n        /* \"ChamaCore.sol\":12300:12308  _chamaId */\n      dup6\n        /* \"ChamaCore.sol\":12283:12354  ChamaCyclePayout(_chamaId, recipient, payoutAmount, chama.currentCycle) */\n      0xdae483580262260a8703065b8e8083a9551c49ac35cf5bd0201aa07b174875c2\n        /* \"ChamaCore.sol\":12321:12333  payoutAmount */\n      dup5\n        /* \"ChamaCore.sol\":12335:12340  chama */\n      dup8\n        /* \"ChamaCore.sol\":12335:12353  chama.currentCycle */\n      0x06\n      add\n      sload\n        /* \"ChamaCore.sol\":12283:12354  ChamaCyclePayout(_chamaId, recipient, payoutAmount, chama.currentCycle) */\n      mload(0x40)\n      tag_408\n      swap3\n      swap2\n      swap1\n      tag_409\n      jump\t// in\n    tag_408:\n      mload(0x40)\n      dup1\n      swap2\n      sub\n      swap1\n      log3\n        /* \"ChamaCore.sol\":12395:12404  recipient */\n      dup3\n        /* \"ChamaCore.sol\":12369:12439  PayoutProcessed(_chamaId, recipient, payoutAmount, chama.currentCycle) */\n      0xffffffffffffffffffffffffffffffffffffffff\n      and\n        /* \"ChamaCore.sol\":12385:12393  _chamaId */\n      dup6\n        /* \"ChamaCore.sol\":12369:12439  PayoutProcessed(_chamaId, recipient, payoutAmount, chama.currentCycle) */\n      0xb4aeb9fb59644d1c26001b986295cde5bbfae34be7c5240fbccf4c37308e20fe\n        /* \"ChamaCore.sol\":12406:12418  payoutAmount */\n      dup5\n        /* \"ChamaCore.sol\":12420:12425  chama */\n      dup8\n        /* \"ChamaCore.sol\":12420:12438  chama.currentCycle */\n      0x06\n      add\n      sload\n        /* \"ChamaCore.sol\":12369:12439  PayoutProcessed(_chamaId, recipient, payoutAmount, chama.currentCycle) */\n      mload(0x40)\n      tag_410\n      swap3\n      swap2\n      swap1\n      tag_409\n      jump\t// in\n    tag_410:\n      mload(0x40)\n      dup1\n      swap2\n      sub\n      swap1\n      log3\n        /* \"ChamaCore.sol\":12481:12502  _resetCycle(_chamaId) */\n      tag_411\n        /* \"ChamaCore.sol\":12493:12501  _chamaId */\n      dup6\n        /* \"ChamaCore.sol\":12481:12492  _resetCycle */\n      tag_412\n        /* \"ChamaCore.sol\":12481:12502  _resetCycle(_chamaId) */\n      jump\t// in\n    tag_411:\n        /* \"ChamaCore.sol\":12584:12589  chama */\n      dup4\n        /* \"ChamaCore.sol\":12584:12597  chama.members */\n      0x04\n      add\n        /* \"ChamaCore.sol\":12584:12604  chama.members.length */\n      dup1\n      sload\n      swap1\n      pop\n        /* \"ChamaCore.sol\":12563:12568  chama */\n      dup5\n        /* \"ChamaCore.sol\":12563:12581  chama.currentCycle */\n      0x06\n      add\n      sload\n        /* \"ChamaCore.sol\":12563:12604  chama.currentCycle > chama.members.length */\n      gt\n        /* \"ChamaCore.sol\":12559:12655  if (chama.currentCycle > chama.members.length) {... */\n      iszero\n      tag_413\n      jumpi\n        /* \"ChamaCore.sol\":12620:12644  _completeChama(_chamaId) */\n      tag_414\n        /* \"ChamaCore.sol\":12635:12643  _chamaId */\n      dup6\n        /* \"ChamaCore.sol\":12620:12634  _completeChama */\n      tag_415\n        /* \"ChamaCore.sol\":12620:12644  _completeChama(_chamaId) */\n      jump\t// in\n    tag_414:\n        /* \"ChamaCore.sol\":12559:12655  if (chama.currentCycle > chama.members.length) {... */\n    tag_413:\n        /* \"ChamaCore.sol\":11630:12661  {... */\n      pop\n      pop\n      pop\n      pop\n        /* \"ChamaCore.sol\":11574:12661  function _processCyclePayout(uint256 _chamaId) internal {... */\n      pop\n      jump\t// out\n        /* \"@openzeppelin/contracts/utils/Context.sol\":656:752  function _msgSender() internal view virtual returns (address) {... */\n    tag_248:\n        /* \"@openzeppelin/contracts/utils/Context.sol\":709:716  address */\n      0x00\n        /* \"@openzeppelin/contracts/utils/Context.sol\":735:745  msg.sender */\n      caller\n        /* \"@openzeppelin/contracts/utils/Context.sol\":728:745  return msg.sender */\n      swap1\n      pop\n        /* \"@openzeppelin/contracts/utils/Context.sol\":656:752  function _msgSender() internal view virtual returns (address) {... */\n      swap1\n      jump\t// out\n        /* \"@openzeppelin/contracts/access/AccessControl.sol\":6708:7025  function _revokeRole(bytes32 role, address account) internal virtual returns (bool) {... */\n    tag_251:\n        /* \"@openzeppelin/contracts/access/AccessControl.sol\":6786:6790  bool */\n      0x00\n        /* \"@openzeppelin/contracts/access/AccessControl.sol\":6806:6828  hasRole(role, account) */\n      tag_418\n        /* \"@openzeppelin/contracts/access/AccessControl.sol\":6814:6818  role */\n      dup4\n        /* \"@openzeppelin/contracts/access/AccessControl.sol\":6820:6827  account */\n      dup4\n        /* \"@openzeppelin/contracts/access/AccessControl.sol\":6806:6813  hasRole */\n      tag_145\n        /* \"@openzeppelin/contracts/access/AccessControl.sol\":6806:6828  hasRole(role, account) */\n      jump\t// in\n    tag_418:\n        /* \"@openzeppelin/contracts/access/AccessControl.sol\":6802:7019  if (hasRole(role, account)) {... */\n      iszero\n      tag_419\n      jumpi\n        /* \"@openzeppelin/contracts/access/AccessControl.sol\":6876:6881  false */\n      0x00\n        /* \"@openzeppelin/contracts/access/AccessControl.sol\":6844:6850  _roles */\n      0x02\n        /* \"@openzeppelin/contracts/access/AccessControl.sol\":6844:6856  _roles[role] */\n      0x00\n        /* \"@openzeppelin/contracts/access/AccessControl.sol\":6851:6855  role */\n      dup6\n        /* \"@openzeppelin/contracts/access/AccessControl.sol\":6844:6856  _roles[role] */\n      dup2\n      mstore\n      0x20\n      add\n      swap1\n      dup2\n      mstore\n      0x20\n      add\n      0x00\n      keccak256\n        /* \"@openzeppelin/contracts/access/AccessControl.sol\":6844:6864  _roles[role].hasRole */\n      0x00\n      add\n        /* \"@openzeppelin/contracts/access/AccessControl.sol\":6844:6873  _roles[role].hasRole[account] */\n      0x00\n        /* \"@openzeppelin/contracts/access/AccessControl.sol\":6865:6872  account */\n      dup5\n        /* \"@openzeppelin/contracts/access/AccessControl.sol\":6844:6873  _roles[role].hasRole[account] */\n      0xffffffffffffffffffffffffffffffffffffffff\n      and\n      0xffffffffffffffffffffffffffffffffffffffff\n      and\n      dup2\n      mstore\n      0x20\n      add\n      swap1\n      dup2\n      mstore\n      0x20\n      add\n      0x00\n      keccak256\n      0x00\n        /* \"@openzeppelin/contracts/access/AccessControl.sol\":6844:6881  _roles[role].hasRole[account] = false */\n      0x0100\n      exp\n      dup2\n      sload\n      dup2\n      0xff\n      mul\n      not\n      and\n      swap1\n      dup4\n      iszero\n      iszero\n      mul\n      or\n      swap1\n      sstore\n      pop\n        /* \"@openzeppelin/contracts/access/AccessControl.sol\":6927:6939  _msgSender() */\n      tag_420\n        /* \"@openzeppelin/contracts/access/AccessControl.sol\":6927:6937  _msgSender */\n      tag_248\n        /* \"@openzeppelin/contracts/access/AccessControl.sol\":6927:6939  _msgSender() */\n      jump\t// in\n    tag_420:\n        /* \"@openzeppelin/contracts/access/AccessControl.sol\":6900:6940  RoleRevoked(role, account, _msgSender()) */\n      0xffffffffffffffffffffffffffffffffffffffff\n      and\n        /* \"@openzeppelin/contracts/access/AccessControl.sol\":6918:6925  account */\n      dup3\n        /* \"@openzeppelin/contracts/access/AccessControl.sol\":6900:6940  RoleRevoked(role, account, _msgSender()) */\n      0xffffffffffffffffffffffffffffffffffffffff\n      and\n        /* \"@openzeppelin/contracts/access/AccessControl.sol\":6912:6916  role */\n      dup5\n        /* \"@openzeppelin/contracts/access/AccessControl.sol\":6900:6940  RoleRevoked(role, account, _msgSender()) */\n      0xf6391f5c32d9c69d2a47ea670b442974b53935d1edc7fd64eb21e047a839171b\n      mload(0x40)\n      mload(0x40)\n      dup1\n      swap2\n      sub\n      swap1\n      log4\n        /* \"@openzeppelin/contracts/access/AccessControl.sol\":6961:6965  true */\n      0x01\n        /* \"@openzeppelin/contracts/access/AccessControl.sol\":6954:6965  return true */\n      swap1\n      pop\n      jump(tag_417)\n        /* \"@openzeppelin/contracts/access/AccessControl.sol\":6802:7019  if (hasRole(role, account)) {... */\n    tag_419:\n        /* \"@openzeppelin/contracts/access/AccessControl.sol\":7003:7008  false */\n      0x00\n        /* \"@openzeppelin/contracts/access/AccessControl.sol\":6996:7008  return false */\n      swap1\n      pop\n        /* \"@openzeppelin/contracts/access/AccessControl.sol\":6708:7025  function _revokeRole(bytes32 role, address account) internal virtual returns (bool) {... */\n    tag_417:\n      swap3\n      swap2\n      pop\n      pop\n      jump\t// out\n        /* \"@openzeppelin/contracts/security/Pausable.sol\":2433:2550  function _unpause() internal virtual whenPaused {... */\n    tag_260:\n        /* \"@openzeppelin/contracts/security/Pausable.sol\":1486:1502  _requirePaused() */\n      tag_423\n        /* \"@openzeppelin/contracts/security/Pausable.sol\":1486:1500  _requirePaused */\n      tag_424\n        /* \"@openzeppelin/contracts/security/Pausable.sol\":1486:1502  _requirePaused() */\n      jump\t// in\n    tag_423:\n        /* \"@openzeppelin/contracts/security/Pausable.sol\":2501:2506  false */\n      0x00\n        /* \"@openzeppelin/contracts/security/Pausable.sol\":2491:2498  _paused */\n      0x01\n      0x00\n        /* \"@openzeppelin/contracts/security/Pausable.sol\":2491:2506  _paused = false */\n      0x0100\n      exp\n      dup2\n      sload\n      dup2\n      0xff\n      mul\n      not\n      and\n      swap1\n      dup4\n      iszero\n      iszero\n      mul\n      or\n      swap1\n      sstore\n      pop\n        /* \"@openzeppelin/contracts/security/Pausable.sol\":2521:2543  Unpaused(_msgSender()) */\n      0x5db9ee0a495bf2e6ff9c91a7834c1ba4fdd244a5e8aa4e537bd38aeae4b073aa\n        /* \"@openzeppelin/contracts/security/Pausable.sol\":2530:2542  _msgSender() */\n      tag_426\n        /* \"@openzeppelin/contracts/security/Pausable.sol\":2530:2540  _msgSender */\n      tag_248\n        /* \"@openzeppelin/contracts/security/Pausable.sol\":2530:2542  _msgSender() */\n      jump\t// in\n    tag_426:\n        /* \"@openzeppelin/contracts/security/Pausable.sol\":2521:2543  Unpaused(_msgSender()) */\n      mload(0x40)\n      tag_427\n      swap2\n      swap1\n      tag_428\n      jump\t// in\n    tag_427:\n      mload(0x40)\n      dup1\n      swap2\n      sub\n      swap1\n      log1\n        /* \"@openzeppelin/contracts/security/Pausable.sol\":2433:2550  function _unpause() internal virtual whenPaused {... */\n      jump\t// out\n        /* \"@openzeppelin/contracts/security/ReentrancyGuard.sol\":2336:2623  function _nonReentrantBefore() private {... */\n    tag_270:\n        /* \"@openzeppelin/contracts/security/ReentrancyGuard.sol\":1759:1760  2 */\n      0x02\n        /* \"@openzeppelin/contracts/security/ReentrancyGuard.sol\":2468:2475  _status */\n      sload(0x00)\n        /* \"@openzeppelin/contracts/security/ReentrancyGuard.sol\":2468:2487  _status != _ENTERED */\n      sub\n        /* \"@openzeppelin/contracts/security/ReentrancyGuard.sol\":2460:2523  require(_status != _ENTERED, \"ReentrancyGuard: reentrant call\") */\n      tag_430\n      jumpi\n      mload(0x40)\n      0x08c379a000000000000000000000000000000000000000000000000000000000\n      dup2\n      mstore\n      0x04\n      add\n      tag_431\n      swap1\n      tag_432\n      jump\t// in\n    tag_431:\n      mload(0x40)\n      dup1\n      swap2\n      sub\n      swap1\n      revert\n    tag_430:\n        /* \"@openzeppelin/contracts/security/ReentrancyGuard.sol\":1759:1760  2 */\n      0x02\n        /* \"@openzeppelin/contracts/security/ReentrancyGuard.sol\":2598:2605  _status */\n      0x00\n        /* \"@openzeppelin/contracts/security/ReentrancyGuard.sol\":2598:2616  _status = _ENTERED */\n      dup2\n      swap1\n      sstore\n      pop\n        /* \"@openzeppelin/contracts/security/ReentrancyGuard.sol\":2336:2623  function _nonReentrantBefore() private {... */\n      jump\t// out\n        /* \"ChamaCore.sol\":8242:8602  function _startChama(uint256 _chamaId) internal {... */\n    tag_280:\n        /* \"ChamaCore.sol\":8300:8319  Chama storage chama */\n      0x00\n        /* \"ChamaCore.sol\":8322:8328  chamas */\n      0x04\n        /* \"ChamaCore.sol\":8322:8338  chamas[_chamaId] */\n      0x00\n        /* \"ChamaCore.sol\":8329:8337  _chamaId */\n      dup4\n        /* \"ChamaCore.sol\":8322:8338  chamas[_chamaId] */\n      dup2\n      mstore\n      0x20\n      add\n      swap1\n      dup2\n      mstore\n      0x20\n      add\n      0x00\n      keccak256\n        /* \"ChamaCore.sol\":8300:8338  Chama storage chama = chamas[_chamaId] */\n      swap1\n      pop\n        /* \"ChamaCore.sol\":8378:8379  1 */\n      0x01\n        /* \"ChamaCore.sol\":8357:8362  chama */\n      dup2\n        /* \"ChamaCore.sol\":8357:8375  chama.currentCycle */\n      0x06\n      add\n        /* \"ChamaCore.sol\":8357:8379  chama.currentCycle = 1 */\n      dup2\n      swap1\n      sstore\n      pop\n        /* \"ChamaCore.sol\":8416:8431  block.timestamp */\n      timestamp\n        /* \"ChamaCore.sol\":8389:8394  chama */\n      dup2\n        /* \"ChamaCore.sol\":8389:8413  chama.lastCycleTimestamp */\n      0x08\n      add\n        /* \"ChamaCore.sol\":8389:8431  chama.lastCycleTimestamp = block.timestamp */\n      dup2\n      swap1\n      sstore\n      pop\n        /* \"ChamaCore.sol\":8495:8520  _shuffleMembers(_chamaId) */\n      tag_434\n        /* \"ChamaCore.sol\":8511:8519  _chamaId */\n      dup3\n        /* \"ChamaCore.sol\":8495:8510  _shuffleMembers */\n      tag_435\n        /* \"ChamaCore.sol\":8495:8520  _shuffleMembers(_chamaId) */\n      jump\t// in\n    tag_434:\n        /* \"ChamaCore.sol\":8567:8577  msg.sender */\n      caller\n        /* \"ChamaCore.sol\":8544:8595  ChamaStarted(_chamaId, msg.sender, block.timestamp) */\n      0xffffffffffffffffffffffffffffffffffffffff\n      and\n        /* \"ChamaCore.sol\":8557:8565  _chamaId */\n      dup3\n        /* \"ChamaCore.sol\":8544:8595  ChamaStarted(_chamaId, msg.sender, block.timestamp) */\n      0x39874af9b7f4ab9e4c5c47a7280fdb5f5db4081446e9d2cdfd23d5d5aa781c64\n        /* \"ChamaCore.sol\":8579:8594  block.timestamp */\n      timestamp\n        /* \"ChamaCore.sol\":8544:8595  ChamaStarted(_chamaId, msg.sender, block.timestamp) */\n      mload(0x40)\n      tag_436\n      swap2\n      swap1\n      tag_54\n      jump\t// in\n    tag_436:\n      mload(0x40)\n      dup1\n      swap2\n      sub\n      swap1\n      log3\n        /* \"ChamaCore.sol\":8290:8602  {... */\n      pop\n        /* \"ChamaCore.sol\":8242:8602  function _startChama(uint256 _chamaId) internal {... */\n      pop\n      jump\t// out\n        /* \"@openzeppelin/contracts/security/ReentrancyGuard.sol\":2629:2838  function _nonReentrantAfter() private {... */\n    tag_282:\n        /* \"@openzeppelin/contracts/security/ReentrancyGuard.sol\":1716:1717  1 */\n      0x01\n        /* \"@openzeppelin/contracts/security/ReentrancyGuard.sol\":2809:2816  _status */\n      0x00\n        /* \"@openzeppelin/contracts/security/ReentrancyGuard.sol\":2809:2831  _status = _NOT_ENTERED */\n      dup2\n      swap1\n      sstore\n      pop\n        /* \"@openzeppelin/contracts/security/ReentrancyGuard.sol\":2629:2838  function _nonReentrantAfter() private {... */\n      jump\t// out\n        /* \"@openzeppelin/contracts/security/Pausable.sol\":2186:2301  function _pause() internal virtual whenNotPaused {... */\n    tag_290:\n        /* \"@openzeppelin/contracts/security/Pausable.sol\":1239:1258  _requireNotPaused() */\n      tag_439\n        /* \"@openzeppelin/contracts/security/Pausable.sol\":1239:1256  _requireNotPaused */\n      tag_223\n        /* \"@openzeppelin/contracts/security/Pausable.sol\":1239:1258  _requireNotPaused() */\n      jump\t// in\n    tag_439:\n        /* \"@openzeppelin/contracts/security/Pausable.sol\":2255:2259  true */\n      0x01\n        /* \"@openzeppelin/contracts/security/Pausable.sol\":2245:2252  _paused */\n      dup1\n      0x00\n        /* \"@openzeppelin/contracts/security/Pausable.sol\":2245:2259  _paused = true */\n      0x0100\n      exp\n      dup2\n      sload\n      dup2\n      0xff\n      mul\n      not\n      and\n      swap1\n      dup4\n      iszero\n      iszero\n      mul\n      or\n      swap1\n      sstore\n      pop\n        /* \"@openzeppelin/contracts/security/Pausable.sol\":2274:2294  Paused(_msgSender()) */\n      0x62e78cea01bee320cd4e420270b5ea74000d11b0c9f74754ebdbfc544b05a258\n        /* \"@openzeppelin/contracts/security/Pausable.sol\":2281:2293  _msgSender() */\n      tag_441\n        /* \"@openzeppelin/contracts/security/Pausable.sol\":2281:2291  _msgSender */\n      tag_248\n        /* \"@openzeppelin/contracts/security/Pausable.sol\":2281:2293  _msgSender() */\n      jump\t// in\n    tag_441:\n        /* \"@openzeppelin/contracts/security/Pausable.sol\":2274:2294  Paused(_msgSender()) */\n      mload(0x40)\n      tag_442\n      swap2\n      swap1\n      tag_428\n      jump\t// in\n    tag_442:\n      mload(0x40)\n      dup1\n      swap2\n      sub\n      swap1\n      log1\n        /* \"@openzeppelin/contracts/security/Pausable.sol\":2186:2301  function _pause() internal virtual whenNotPaused {... */\n      jump\t// out\n        /* \"ChamaCore.sol\":10875:11466  function _checkCycleCompletion(uint256 _chamaId) internal {... */\n    tag_319:\n        /* \"ChamaCore.sol\":10943:10962  Chama storage chama */\n      0x00\n        /* \"ChamaCore.sol\":10965:10971  chamas */\n      0x04\n        /* \"ChamaCore.sol\":10965:10981  chamas[_chamaId] */\n      0x00\n        /* \"ChamaCore.sol\":10972:10980  _chamaId */\n      dup4\n        /* \"ChamaCore.sol\":10965:10981  chamas[_chamaId] */\n      dup2\n      mstore\n      0x20\n      add\n      swap1\n      dup2\n      mstore\n      0x20\n      add\n      0x00\n      keccak256\n        /* \"ChamaCore.sol\":10943:10981  Chama storage chama = chamas[_chamaId] */\n      swap1\n      pop\n        /* \"ChamaCore.sol\":11049:11079  uint256 contributionsThisCycle */\n      0x00\n        /* \"ChamaCore.sol\":11082:11083  0 */\n      0x00\n        /* \"ChamaCore.sol\":11049:11083  uint256 contributionsThisCycle = 0 */\n      swap1\n      pop\n        /* \"ChamaCore.sol\":11098:11107  uint256 i */\n      0x00\n        /* \"ChamaCore.sol\":11110:11111  0 */\n      0x00\n        /* \"ChamaCore.sol\":11098:11111  uint256 i = 0 */\n      swap1\n      pop\n        /* \"ChamaCore.sol\":11093:11282  for (uint256 i = 0; i < chama.members.length; i++) {... */\n    tag_444:\n        /* \"ChamaCore.sol\":11117:11122  chama */\n      dup3\n        /* \"ChamaCore.sol\":11117:11130  chama.members */\n      0x04\n      add\n        /* \"ChamaCore.sol\":11117:11137  chama.members.length */\n      dup1\n      sload\n      swap1\n      pop\n        /* \"ChamaCore.sol\":11113:11114  i */\n      dup2\n        /* \"ChamaCore.sol\":11113:11137  i < chama.members.length */\n      lt\n        /* \"ChamaCore.sol\":11093:11282  for (uint256 i = 0; i < chama.members.length; i++) {... */\n      iszero\n      tag_445\n      jumpi\n        /* \"ChamaCore.sol\":11162:11185  hasContributedThisCycle */\n      0x06\n        /* \"ChamaCore.sol\":11162:11195  hasContributedThisCycle[_chamaId] */\n      0x00\n        /* \"ChamaCore.sol\":11186:11194  _chamaId */\n      dup6\n        /* \"ChamaCore.sol\":11162:11195  hasContributedThisCycle[_chamaId] */\n      dup2\n      mstore\n      0x20\n      add\n      swap1\n      dup2\n      mstore\n      0x20\n      add\n      0x00\n      keccak256\n        /* \"ChamaCore.sol\":11162:11213  hasContributedThisCycle[_chamaId][chama.members[i]] */\n      0x00\n        /* \"ChamaCore.sol\":11196:11201  chama */\n      dup5\n        /* \"ChamaCore.sol\":11196:11209  chama.members */\n      0x04\n      add\n        /* \"ChamaCore.sol\":11210:11211  i */\n      dup4\n        /* \"ChamaCore.sol\":11196:11212  chama.members[i] */\n      dup2\n      sload\n      dup2\n      lt\n      tag_447\n      jumpi\n      tag_448\n      tag_235\n      jump\t// in\n    tag_448:\n    tag_447:\n      swap1\n      0x00\n      mstore\n      keccak256(0x00, 0x20)\n      add\n      0x00\n      swap1\n      sload\n      swap1\n      0x0100\n      exp\n      swap1\n      div\n      0xffffffffffffffffffffffffffffffffffffffff\n      and\n        /* \"ChamaCore.sol\":11162:11213  hasContributedThisCycle[_chamaId][chama.members[i]] */\n      0xffffffffffffffffffffffffffffffffffffffff\n      and\n      0xffffffffffffffffffffffffffffffffffffffff\n      and\n      dup2\n      mstore\n      0x20\n      add\n      swap1\n      dup2\n      mstore\n      0x20\n      add\n      0x00\n      keccak256\n      0x00\n      swap1\n      sload\n      swap1\n      0x0100\n      exp\n      swap1\n      div\n      0xff\n      and\n        /* \"ChamaCore.sol\":11158:11272  if (hasContributedThisCycle[_chamaId][chama.members[i]]) {... */\n      iszero\n      tag_450\n      jumpi\n        /* \"ChamaCore.sol\":11233:11257  contributionsThisCycle++ */\n      dup2\n      dup1\n      tag_451\n      swap1\n      tag_361\n      jump\t// in\n    tag_451:\n      swap3\n      pop\n      pop\n        /* \"ChamaCore.sol\":11158:11272  if (hasContributedThisCycle[_chamaId][chama.members[i]]) {... */\n    tag_450:\n        /* \"ChamaCore.sol\":11139:11142  i++ */\n      dup1\n      dup1\n      0x01\n      add\n      swap2\n      pop\n      pop\n        /* \"ChamaCore.sol\":11093:11282  for (uint256 i = 0; i < chama.members.length; i++) {... */\n      jump(tag_444)\n    tag_445:\n      pop\n        /* \"ChamaCore.sol\":11384:11389  chama */\n      dup2\n        /* \"ChamaCore.sol\":11384:11397  chama.members */\n      0x04\n      add\n        /* \"ChamaCore.sol\":11384:11404  chama.members.length */\n      dup1\n      sload\n      swap1\n      pop\n        /* \"ChamaCore.sol\":11358:11380  contributionsThisCycle */\n      dup2\n        /* \"ChamaCore.sol\":11358:11404  contributionsThisCycle == chama.members.length */\n      sub\n        /* \"ChamaCore.sol\":11354:11460  if (contributionsThisCycle == chama.members.length) {... */\n      tag_452\n      jumpi\n        /* \"ChamaCore.sol\":11420:11449  _processCyclePayout(_chamaId) */\n      tag_453\n        /* \"ChamaCore.sol\":11440:11448  _chamaId */\n      dup4\n        /* \"ChamaCore.sol\":11420:11439  _processCyclePayout */\n      tag_245\n        /* \"ChamaCore.sol\":11420:11449  _processCyclePayout(_chamaId) */\n      jump\t// in\n    tag_453:\n        /* \"ChamaCore.sol\":11354:11460  if (contributionsThisCycle == chama.members.length) {... */\n    tag_452:\n        /* \"ChamaCore.sol\":10933:11466  {... */\n      pop\n      pop\n        /* \"ChamaCore.sol\":10875:11466  function _checkCycleCompletion(uint256 _chamaId) internal {... */\n      pop\n      jump\t// out\n        /* \"@openzeppelin/contracts/access/AccessControl.sol\":3408:3605  function _checkRole(bytes32 role, address account) internal view virtual {... */\n    tag_382:\n        /* \"@openzeppelin/contracts/access/AccessControl.sol\":3496:3518  hasRole(role, account) */\n      tag_455\n        /* \"@openzeppelin/contracts/access/AccessControl.sol\":3504:3508  role */\n      dup3\n        /* \"@openzeppelin/contracts/access/AccessControl.sol\":3510:3517  account */\n      dup3\n        /* \"@openzeppelin/contracts/access/AccessControl.sol\":3496:3503  hasRole */\n      tag_145\n        /* \"@openzeppelin/contracts/access/AccessControl.sol\":3496:3518  hasRole(role, account) */\n      jump\t// in\n    tag_455:\n        /* \"@openzeppelin/contracts/access/AccessControl.sol\":3491:3599  if (!hasRole(role, account)) {... */\n      tag_456\n      jumpi\n        /* \"@openzeppelin/contracts/access/AccessControl.sol\":3574:3581  account */\n      dup1\n        /* \"@openzeppelin/contracts/access/AccessControl.sol\":3583:3587  role */\n      dup3\n        /* \"@openzeppelin/contracts/access/AccessControl.sol\":3541:3588  AccessControlUnauthorizedAccount(account, role) */\n      mload(0x40)\n      0xe2517d3f00000000000000000000000000000000000000000000000000000000\n      dup2\n      mstore\n      0x04\n      add\n      tag_457\n      swap3\n      swap2\n      swap1\n      tag_458\n      jump\t// in\n    tag_457:\n      mload(0x40)\n      dup1\n      swap2\n      sub\n      swap1\n      revert\n        /* \"@openzeppelin/contracts/access/AccessControl.sol\":3491:3599  if (!hasRole(role, account)) {... */\n    tag_456:\n        /* \"@openzeppelin/contracts/access/AccessControl.sol\":3408:3605  function _checkRole(bytes32 role, address account) internal view virtual {... */\n      pop\n      pop\n      jump\t// out\n        /* \"ChamaCore.sol\":12767:13425  function _resetCycle(uint256 _chamaId) internal {... */\n    tag_412:\n        /* \"ChamaCore.sol\":12825:12844  Chama storage chama */\n      0x00\n        /* \"ChamaCore.sol\":12847:12853  chamas */\n      0x04\n        /* \"ChamaCore.sol\":12847:12863  chamas[_chamaId] */\n      0x00\n        /* \"ChamaCore.sol\":12854:12862  _chamaId */\n      dup4\n        /* \"ChamaCore.sol\":12847:12863  chamas[_chamaId] */\n      dup2\n      mstore\n      0x20\n      add\n      swap1\n      dup2\n      mstore\n      0x20\n      add\n      0x00\n      keccak256\n        /* \"ChamaCore.sol\":12825:12863  Chama storage chama = chamas[_chamaId] */\n      swap1\n      pop\n        /* \"ChamaCore.sol\":12923:12932  uint256 i */\n      0x00\n        /* \"ChamaCore.sol\":12935:12936  0 */\n      0x00\n        /* \"ChamaCore.sol\":12923:12936  uint256 i = 0 */\n      swap1\n      pop\n        /* \"ChamaCore.sol\":12918:13053  for (uint256 i = 0; i < chama.members.length; i++) {... */\n    tag_460:\n        /* \"ChamaCore.sol\":12942:12947  chama */\n      dup2\n        /* \"ChamaCore.sol\":12942:12955  chama.members */\n      0x04\n      add\n        /* \"ChamaCore.sol\":12942:12962  chama.members.length */\n      dup1\n      sload\n      swap1\n      pop\n        /* \"ChamaCore.sol\":12938:12939  i */\n      dup2\n        /* \"ChamaCore.sol\":12938:12962  i < chama.members.length */\n      lt\n        /* \"ChamaCore.sol\":12918:13053  for (uint256 i = 0; i < chama.members.length; i++) {... */\n      iszero\n      tag_461\n      jumpi\n        /* \"ChamaCore.sol\":13037:13042  false */\n      0x00\n        /* \"ChamaCore.sol\":12983:13006  hasContributedThisCycle */\n      0x06\n        /* \"ChamaCore.sol\":12983:13016  hasContributedThisCycle[_chamaId] */\n      0x00\n        /* \"ChamaCore.sol\":13007:13015  _chamaId */\n      dup6\n        /* \"ChamaCore.sol\":12983:13016  hasContributedThisCycle[_chamaId] */\n      dup2\n      mstore\n      0x20\n      add\n      swap1\n      dup2\n      mstore\n      0x20\n      add\n      0x00\n      keccak256\n        /* \"ChamaCore.sol\":12983:13034  hasContributedThisCycle[_chamaId][chama.members[i]] */\n      0x00\n        /* \"ChamaCore.sol\":13017:13022  chama */\n      dup5\n        /* \"ChamaCore.sol\":13017:13030  chama.members */\n      0x04\n      add\n        /* \"ChamaCore.sol\":13031:13032  i */\n      dup5\n        /* \"ChamaCore.sol\":13017:13033  chama.members[i] */\n      dup2\n      sload\n      dup2\n      lt\n      tag_463\n      jumpi\n      tag_464\n      tag_235\n      jump\t// in\n    tag_464:\n    tag_463:\n      swap1\n      0x00\n      mstore\n      keccak256(0x00, 0x20)\n      add\n      0x00\n      swap1\n      sload\n      swap1\n      0x0100\n      exp\n      swap1\n      div\n      0xffffffffffffffffffffffffffffffffffffffff\n      and\n        /* \"ChamaCore.sol\":12983:13034  hasContributedThisCycle[_chamaId][chama.members[i]] */\n      0xffffffffffffffffffffffffffffffffffffffff\n      and\n      0xffffffffffffffffffffffffffffffffffffffff\n      and\n      dup2\n      mstore\n      0x20\n      add\n      swap1\n      dup2\n      mstore\n      0x20\n      add\n      0x00\n      keccak256\n      0x00\n        /* \"ChamaCore.sol\":12983:13042  hasContributedThisCycle[_chamaId][chama.members[i]] = false */\n      0x0100\n      exp\n      dup2\n      sload\n      dup2\n      0xff\n      mul\n      not\n      and\n      swap1\n      dup4\n      iszero\n      iszero\n      mul\n      or\n      swap1\n      sstore\n      pop\n        /* \"ChamaCore.sol\":12964:12967  i++ */\n      dup1\n      dup1\n      0x01\n      add\n      swap2\n      pop\n      pop\n        /* \"ChamaCore.sol\":12918:13053  for (uint256 i = 0; i < chama.members.length; i++) {... */\n      jump(tag_460)\n    tag_461:\n      pop\n        /* \"ChamaCore.sol\":13115:13120  chama */\n      dup1\n        /* \"ChamaCore.sol\":13115:13133  chama.currentCycle */\n      0x06\n      add\n      0x00\n        /* \"ChamaCore.sol\":13115:13135  chama.currentCycle++ */\n      dup2\n      sload\n      dup1\n      swap3\n      swap2\n      swap1\n      tag_466\n      swap1\n      tag_361\n      jump\t// in\n    tag_466:\n      swap2\n      swap1\n      pop\n      sstore\n      pop\n        /* \"ChamaCore.sol\":13211:13216  chama */\n      dup1\n        /* \"ChamaCore.sol\":13211:13224  chama.members */\n      0x04\n      add\n        /* \"ChamaCore.sol\":13211:13231  chama.members.length */\n      dup1\n      sload\n      swap1\n      pop\n        /* \"ChamaCore.sol\":13206:13207  1 */\n      0x01\n        /* \"ChamaCore.sol\":13176:13181  chama */\n      dup3\n        /* \"ChamaCore.sol\":13176:13203  chama.currentRecipientIndex */\n      0x07\n      add\n      sload\n        /* \"ChamaCore.sol\":13176:13207  chama.currentRecipientIndex + 1 */\n      tag_467\n      swap2\n      swap1\n      tag_227\n      jump\t// in\n    tag_467:\n        /* \"ChamaCore.sol\":13175:13231  (chama.currentRecipientIndex + 1) % chama.members.length */\n      tag_468\n      swap2\n      swap1\n      tag_469\n      jump\t// in\n    tag_468:\n        /* \"ChamaCore.sol\":13145:13150  chama */\n      dup2\n        /* \"ChamaCore.sol\":13145:13172  chama.currentRecipientIndex */\n      0x07\n      add\n        /* \"ChamaCore.sol\":13145:13231  chama.currentRecipientIndex = (chama.currentRecipientIndex + 1) % chama.members.length */\n      dup2\n      swap1\n      sstore\n      pop\n        /* \"ChamaCore.sol\":13268:13283  block.timestamp */\n      timestamp\n        /* \"ChamaCore.sol\":13241:13246  chama */\n      dup2\n        /* \"ChamaCore.sol\":13241:13265  chama.lastCycleTimestamp */\n      0x08\n      add\n        /* \"ChamaCore.sol\":13241:13283  chama.lastCycleTimestamp = block.timestamp */\n      dup2\n      swap1\n      sstore\n      pop\n        /* \"ChamaCore.sol\":13340:13341  0 */\n      0x00\n        /* \"ChamaCore.sol\":13293:13298  chama */\n      dup2\n        /* \"ChamaCore.sol\":13293:13317  chama.cycleContributions */\n      0x0d\n      add\n        /* \"ChamaCore.sol\":13293:13337  chama.cycleContributions[chama.currentCycle] */\n      0x00\n        /* \"ChamaCore.sol\":13318:13323  chama */\n      dup4\n        /* \"ChamaCore.sol\":13318:13336  chama.currentCycle */\n      0x06\n      add\n      sload\n        /* \"ChamaCore.sol\":13293:13337  chama.cycleContributions[chama.currentCycle] */\n      dup2\n      mstore\n      0x20\n      add\n      swap1\n      dup2\n      mstore\n      0x20\n      add\n      0x00\n      keccak256\n        /* \"ChamaCore.sol\":13293:13341  chama.cycleContributions[chama.currentCycle] = 0 */\n      dup2\n      swap1\n      sstore\n      pop\n        /* \"ChamaCore.sol\":13385:13393  _chamaId */\n      dup2\n        /* \"ChamaCore.sol\":13365:13418  ChamaCycleCompleted(_chamaId, chama.currentCycle - 1) */\n      0x42463706cb812379c7405bba67d1414b3473b66942ecd48fd66e7ad3cd3abdd4\n        /* \"ChamaCore.sol\":13416:13417  1 */\n      0x01\n        /* \"ChamaCore.sol\":13395:13400  chama */\n      dup4\n        /* \"ChamaCore.sol\":13395:13413  chama.currentCycle */\n      0x06\n      add\n      sload\n        /* \"ChamaCore.sol\":13395:13417  chama.currentCycle - 1 */\n      tag_470\n      swap2\n      swap1\n      tag_241\n      jump\t// in\n    tag_470:\n        /* \"ChamaCore.sol\":13365:13418  ChamaCycleCompleted(_chamaId, chama.currentCycle - 1) */\n      mload(0x40)\n      tag_471\n      swap2\n      swap1\n      tag_54\n      jump\t// in\n    tag_471:\n      mload(0x40)\n      dup1\n      swap2\n      sub\n      swap1\n      log2\n        /* \"ChamaCore.sol\":12815:13425  {... */\n      pop\n        /* \"ChamaCore.sol\":12767:13425  function _resetCycle(uint256 _chamaId) internal {... */\n      pop\n      jump\t// out\n        /* \"ChamaCore.sol\":13551:14527  function _completeChama(uint256 _chamaId) internal {... */\n    tag_415:\n        /* \"ChamaCore.sol\":13612:13631  Chama storage chama */\n      0x00\n        /* \"ChamaCore.sol\":13634:13640  chamas */\n      0x04\n        /* \"ChamaCore.sol\":13634:13650  chamas[_chamaId] */\n      0x00\n        /* \"ChamaCore.sol\":13641:13649  _chamaId */\n      dup4\n        /* \"ChamaCore.sol\":13634:13650  chamas[_chamaId] */\n      dup2\n      mstore\n      0x20\n      add\n      swap1\n      dup2\n      mstore\n      0x20\n      add\n      0x00\n      keccak256\n        /* \"ChamaCore.sol\":13612:13650  Chama storage chama = chamas[_chamaId] */\n      swap1\n      pop\n        /* \"ChamaCore.sol\":13675:13680  false */\n      0x00\n        /* \"ChamaCore.sol\":13660:13665  chama */\n      dup2\n        /* \"ChamaCore.sol\":13660:13672  chama.active */\n      0x05\n      add\n      0x00\n        /* \"ChamaCore.sol\":13660:13680  chama.active = false */\n      0x0100\n      exp\n      dup2\n      sload\n      dup2\n      0xff\n      mul\n      not\n      and\n      swap1\n      dup4\n      iszero\n      iszero\n      mul\n      or\n      swap1\n      sstore\n      pop\n        /* \"ChamaCore.sol\":13772:13781  uint256 i */\n      0x00\n        /* \"ChamaCore.sol\":13784:13785  0 */\n      0x00\n        /* \"ChamaCore.sol\":13772:13785  uint256 i = 0 */\n      swap1\n      pop\n        /* \"ChamaCore.sol\":13767:14473  for (uint256 i = 0; i < chama.members.length; i++) {... */\n    tag_473:\n        /* \"ChamaCore.sol\":13791:13796  chama */\n      dup2\n        /* \"ChamaCore.sol\":13791:13804  chama.members */\n      0x04\n      add\n        /* \"ChamaCore.sol\":13791:13811  chama.members.length */\n      dup1\n      sload\n      swap1\n      pop\n        /* \"ChamaCore.sol\":13787:13788  i */\n      dup2\n        /* \"ChamaCore.sol\":13787:13811  i < chama.members.length */\n      lt\n        /* \"ChamaCore.sol\":13767:14473  for (uint256 i = 0; i < chama.members.length; i++) {... */\n      iszero\n      tag_474\n      jumpi\n        /* \"ChamaCore.sol\":13832:13846  address member */\n      0x00\n        /* \"ChamaCore.sol\":13849:13854  chama */\n      dup3\n        /* \"ChamaCore.sol\":13849:13862  chama.members */\n      0x04\n      add\n        /* \"ChamaCore.sol\":13863:13864  i */\n      dup3\n        /* \"ChamaCore.sol\":13849:13865  chama.members[i] */\n      dup2\n      sload\n      dup2\n      lt\n      tag_476\n      jumpi\n      tag_477\n      tag_235\n      jump\t// in\n    tag_477:\n    tag_476:\n      swap1\n      0x00\n      mstore\n      keccak256(0x00, 0x20)\n      add\n      0x00\n      swap1\n      sload\n      swap1\n      0x0100\n      exp\n      swap1\n      div\n      0xffffffffffffffffffffffffffffffffffffffff\n      and\n        /* \"ChamaCore.sol\":13832:13865  address member = chama.members[i] */\n      swap1\n      pop\n        /* \"ChamaCore.sol\":13879:13903  uint256 collateralAmount */\n      0x00\n        /* \"ChamaCore.sol\":13906:13911  chama */\n      dup4\n        /* \"ChamaCore.sol\":13906:13928  chama.memberCollateral */\n      0x10\n      add\n        /* \"ChamaCore.sol\":13906:13936  chama.memberCollateral[member] */\n      0x00\n        /* \"ChamaCore.sol\":13929:13935  member */\n      dup4\n        /* \"ChamaCore.sol\":13906:13936  chama.memberCollateral[member] */\n      0xffffffffffffffffffffffffffffffffffffffff\n      and\n      0xffffffffffffffffffffffffffffffffffffffff\n      and\n      dup2\n      mstore\n      0x20\n      add\n      swap1\n      dup2\n      mstore\n      0x20\n      add\n      0x00\n      keccak256\n      sload\n        /* \"ChamaCore.sol\":13879:13936  uint256 collateralAmount = chama.memberCollateral[member] */\n      swap1\n      pop\n        /* \"ChamaCore.sol\":13986:13987  0 */\n      0x00\n        /* \"ChamaCore.sol\":13967:13983  collateralAmount */\n      dup2\n        /* \"ChamaCore.sol\":13967:13987  collateralAmount > 0 */\n      gt\n        /* \"ChamaCore.sol\":13967:14024  collateralAmount > 0 && !chama.collateralReturned[member] */\n      dup1\n      iszero\n      tag_479\n      jumpi\n      pop\n        /* \"ChamaCore.sol\":13992:13997  chama */\n      dup4\n        /* \"ChamaCore.sol\":13992:14016  chama.collateralReturned */\n      0x11\n      add\n        /* \"ChamaCore.sol\":13992:14024  chama.collateralReturned[member] */\n      0x00\n        /* \"ChamaCore.sol\":14017:14023  member */\n      dup4\n        /* \"ChamaCore.sol\":13992:14024  chama.collateralReturned[member] */\n      0xffffffffffffffffffffffffffffffffffffffff\n      and\n      0xffffffffffffffffffffffffffffffffffffffff\n      and\n      dup2\n      mstore\n      0x20\n      add\n      swap1\n      dup2\n      mstore\n      0x20\n      add\n      0x00\n      keccak256\n      0x00\n      swap1\n      sload\n      swap1\n      0x0100\n      exp\n      swap1\n      div\n      0xff\n      and\n        /* \"ChamaCore.sol\":13991:14024  !chama.collateralReturned[member] */\n      iszero\n        /* \"ChamaCore.sol\":13967:14024  collateralAmount > 0 && !chama.collateralReturned[member] */\n    tag_479:\n        /* \"ChamaCore.sol\":13963:14463  if (collateralAmount > 0 && !chama.collateralReturned[member]) {... */\n      iszero\n      tag_480\n      jumpi\n        /* \"ChamaCore.sol\":14079:14083  true */\n      0x01\n        /* \"ChamaCore.sol\":14044:14049  chama */\n      dup5\n        /* \"ChamaCore.sol\":14044:14068  chama.collateralReturned */\n      0x11\n      add\n        /* \"ChamaCore.sol\":14044:14076  chama.collateralReturned[member] */\n      0x00\n        /* \"ChamaCore.sol\":14069:14075  member */\n      dup5\n        /* \"ChamaCore.sol\":14044:14076  chama.collateralReturned[member] */\n      0xffffffffffffffffffffffffffffffffffffffff\n      and\n      0xffffffffffffffffffffffffffffffffffffffff\n      and\n      dup2\n      mstore\n      0x20\n      add\n      swap1\n      dup2\n      mstore\n      0x20\n      add\n      0x00\n      keccak256\n      0x00\n        /* \"ChamaCore.sol\":14044:14083  chama.collateralReturned[member] = true */\n      0x0100\n      exp\n      dup2\n      sload\n      dup2\n      0xff\n      mul\n      not\n      and\n      swap1\n      dup4\n      iszero\n      iszero\n      mul\n      or\n      swap1\n      sstore\n      pop\n        /* \"ChamaCore.sol\":14126:14142  collateralAmount */\n      dup1\n        /* \"ChamaCore.sol\":14101:14106  chama */\n      dup5\n        /* \"ChamaCore.sol\":14101:14122  chama.totalCollateral */\n      0x12\n      add\n      0x00\n        /* \"ChamaCore.sol\":14101:14142  chama.totalCollateral -= collateralAmount */\n      dup3\n      dup3\n      sload\n      tag_481\n      swap2\n      swap1\n      tag_241\n      jump\t// in\n    tag_481:\n      swap3\n      pop\n      pop\n      dup2\n      swap1\n      sstore\n      pop\n        /* \"ChamaCore.sol\":14225:14237  bool success */\n      0x00\n        /* \"ChamaCore.sol\":14251:14257  member */\n      dup3\n        /* \"ChamaCore.sol\":14243:14263  payable(member).call */\n      0xffffffffffffffffffffffffffffffffffffffff\n      and\n        /* \"ChamaCore.sol\":14271:14287  collateralAmount */\n      dup3\n        /* \"ChamaCore.sol\":14243:14292  payable(member).call{value: collateralAmount}(\"\") */\n      mload(0x40)\n      tag_482\n      swap1\n      tag_401\n      jump\t// in\n    tag_482:\n      0x00\n      mload(0x40)\n      dup1\n      dup4\n      sub\n      dup2\n      dup6\n      dup8\n      gas\n      call\n      swap3\n      pop\n      pop\n      pop\n      returndatasize\n      dup1\n      0x00\n      dup2\n      eq\n      tag_485\n      jumpi\n      mload(0x40)\n      swap2\n      pop\n      and(add(returndatasize, 0x3f), not(0x1f))\n      dup3\n      add\n      0x40\n      mstore\n      returndatasize\n      dup3\n      mstore\n      returndatasize\n      0x00\n      0x20\n      dup5\n      add\n      returndatacopy\n      jump(tag_484)\n    tag_485:\n      0x60\n      swap2\n      pop\n    tag_484:\n      pop\n        /* \"ChamaCore.sol\":14224:14292  (bool success, ) = payable(member).call{value: collateralAmount}(\"\") */\n      pop\n      swap1\n      pop\n        /* \"ChamaCore.sol\":14318:14325  success */\n      dup1\n        /* \"ChamaCore.sol\":14310:14354  require(success, \"Collateral return failed\") */\n      tag_486\n      jumpi\n      mload(0x40)\n      0x08c379a000000000000000000000000000000000000000000000000000000000\n      dup2\n      mstore\n      0x04\n      add\n      tag_487\n      swap1\n      tag_488\n      jump\t// in\n    tag_487:\n      mload(0x40)\n      dup1\n      swap2\n      sub\n      swap1\n      revert\n    tag_486:\n        /* \"ChamaCore.sol\":14423:14429  member */\n      dup3\n        /* \"ChamaCore.sol\":14394:14448  CollateralReturned(_chamaId, member, collateralAmount) */\n      0xffffffffffffffffffffffffffffffffffffffff\n      and\n        /* \"ChamaCore.sol\":14413:14421  _chamaId */\n      dup7\n        /* \"ChamaCore.sol\":14394:14448  CollateralReturned(_chamaId, member, collateralAmount) */\n      0x83f3d3d0a8132e9bf23ae6cde659d5f3963a6973816e144f05bfccef184279\n        /* \"ChamaCore.sol\":14431:14447  collateralAmount */\n      dup5\n        /* \"ChamaCore.sol\":14394:14448  CollateralReturned(_chamaId, member, collateralAmount) */\n      mload(0x40)\n      tag_489\n      swap2\n      swap1\n      tag_54\n      jump\t// in\n    tag_489:\n      mload(0x40)\n      dup1\n      swap2\n      sub\n      swap1\n      log3\n        /* \"ChamaCore.sol\":14026:14463  {... */\n      pop\n        /* \"ChamaCore.sol\":13963:14463  if (collateralAmount > 0 && !chama.collateralReturned[member]) {... */\n    tag_480:\n        /* \"ChamaCore.sol\":13818:14473  {... */\n      pop\n      pop\n        /* \"ChamaCore.sol\":13813:13816  i++ */\n      dup1\n      dup1\n      0x01\n      add\n      swap2\n      pop\n      pop\n        /* \"ChamaCore.sol\":13767:14473  for (uint256 i = 0; i < chama.members.length; i++) {... */\n      jump(tag_473)\n    tag_474:\n      pop\n        /* \"ChamaCore.sol\":14511:14519  _chamaId */\n      dup2\n        /* \"ChamaCore.sol\":14496:14520  ChamaCompleted(_chamaId) */\n      0xdb5e126e6a121da8028405972761f7c42dff3d626273cd61fd32a13d4c3f56c7\n      mload(0x40)\n      mload(0x40)\n      dup1\n      swap2\n      sub\n      swap1\n      log2\n        /* \"ChamaCore.sol\":13602:14527  {... */\n      pop\n        /* \"ChamaCore.sol\":13551:14527  function _completeChama(uint256 _chamaId) internal {... */\n      pop\n      jump\t// out\n        /* \"@openzeppelin/contracts/security/Pausable.sol\":1945:2051  function _requirePaused() internal view virtual {... */\n    tag_424:\n        /* \"@openzeppelin/contracts/security/Pausable.sol\":2011:2019  paused() */\n      tag_491\n        /* \"@openzeppelin/contracts/security/Pausable.sol\":2011:2017  paused */\n      tag_108\n        /* \"@openzeppelin/contracts/security/Pausable.sol\":2011:2019  paused() */\n      jump\t// in\n    tag_491:\n        /* \"@openzeppelin/contracts/security/Pausable.sol\":2003:2044  require(paused(), \"Pausable: not paused\") */\n      tag_492\n      jumpi\n      mload(0x40)\n      0x08c379a000000000000000000000000000000000000000000000000000000000\n      dup2\n      mstore\n      0x04\n      add\n      tag_493\n      swap1\n      tag_494\n      jump\t// in\n    tag_493:\n      mload(0x40)\n      dup1\n      swap2\n      sub\n      swap1\n      revert\n    tag_492:\n        /* \"@openzeppelin/contracts/security/Pausable.sol\":1945:2051  function _requirePaused() internal view virtual {... */\n      jump\t// out\n        /* \"ChamaCore.sol\":8716:9574  function _shuffleMembers(uint256 _chamaId) internal {... */\n    tag_435:\n        /* \"ChamaCore.sol\":8778:8797  Chama storage chama */\n      0x00\n        /* \"ChamaCore.sol\":8800:8806  chamas */\n      0x04\n        /* \"ChamaCore.sol\":8800:8816  chamas[_chamaId] */\n      0x00\n        /* \"ChamaCore.sol\":8807:8815  _chamaId */\n      dup4\n        /* \"ChamaCore.sol\":8800:8816  chamas[_chamaId] */\n      dup2\n      mstore\n      0x20\n      add\n      swap1\n      dup2\n      mstore\n      0x20\n      add\n      0x00\n      keccak256\n        /* \"ChamaCore.sol\":8778:8816  Chama storage chama = chamas[_chamaId] */\n      swap1\n      pop\n        /* \"ChamaCore.sol\":8826:8840  uint256 length */\n      0x00\n        /* \"ChamaCore.sol\":8843:8848  chama */\n      dup2\n        /* \"ChamaCore.sol\":8843:8856  chama.members */\n      0x04\n      add\n        /* \"ChamaCore.sol\":8843:8863  chama.members.length */\n      dup1\n      sload\n      swap1\n      pop\n        /* \"ChamaCore.sol\":8826:8863  uint256 length = chama.members.length */\n      swap1\n      pop\n        /* \"ChamaCore.sol\":8887:8896  uint256 i */\n      0x00\n        /* \"ChamaCore.sol\":8899:8900  0 */\n      0x00\n        /* \"ChamaCore.sol\":8887:8900  uint256 i = 0 */\n      swap1\n      pop\n        /* \"ChamaCore.sol\":8882:9568  for (uint256 i = 0; i < length; i++) {... */\n    tag_496:\n        /* \"ChamaCore.sol\":8906:8912  length */\n      dup2\n        /* \"ChamaCore.sol\":8902:8903  i */\n      dup2\n        /* \"ChamaCore.sol\":8902:8912  i < length */\n      lt\n        /* \"ChamaCore.sol\":8882:9568  for (uint256 i = 0; i < length; i++) {... */\n      iszero\n      tag_497\n      jumpi\n        /* \"ChamaCore.sol\":9008:9027  uint256 randomIndex */\n      0x00\n        /* \"ChamaCore.sol\":9188:9189  i */\n      dup2\n        /* \"ChamaCore.sol\":9182:9183  i */\n      dup3\n        /* \"ChamaCore.sol\":9173:9179  length */\n      dup5\n        /* \"ChamaCore.sol\":9173:9183  length - i */\n      tag_499\n      swap2\n      swap1\n      tag_241\n      jump\t// in\n    tag_499:\n        /* \"ChamaCore.sol\":9083:9098  block.timestamp */\n      timestamp\n        /* \"ChamaCore.sol\":9117:9133  block.prevrandao */\n      prevrandao\n        /* \"ChamaCore.sol\":9152:9153  i */\n      dup6\n        /* \"ChamaCore.sol\":9049:9167  abi.encodePacked(... */\n      add(0x20, mload(0x40))\n      tag_500\n      swap4\n      swap3\n      swap2\n      swap1\n      tag_501\n      jump\t// in\n    tag_500:\n      mload(0x40)\n      0x20\n      dup2\n      dup4\n      sub\n      sub\n      dup2\n      mstore\n      swap1\n      0x40\n      mstore\n        /* \"ChamaCore.sol\":9039:9168  keccak256(abi.encodePacked(... */\n      dup1\n      mload\n      swap1\n      0x20\n      add\n      keccak256\n        /* \"ChamaCore.sol\":9031:9169  uint256(keccak256(abi.encodePacked(... */\n      0x00\n      shr\n        /* \"ChamaCore.sol\":9031:9184  uint256(keccak256(abi.encodePacked(... */\n      tag_502\n      swap2\n      swap1\n      tag_469\n      jump\t// in\n    tag_502:\n        /* \"ChamaCore.sol\":9030:9189  (uint256(keccak256(abi.encodePacked(... */\n      tag_503\n      swap2\n      swap1\n      tag_227\n      jump\t// in\n    tag_503:\n        /* \"ChamaCore.sol\":9008:9189  uint256 randomIndex = (uint256(keccak256(abi.encodePacked(... */\n      swap1\n      pop\n        /* \"ChamaCore.sol\":9244:9256  address temp */\n      0x00\n        /* \"ChamaCore.sol\":9259:9264  chama */\n      dup5\n        /* \"ChamaCore.sol\":9259:9272  chama.members */\n      0x04\n      add\n        /* \"ChamaCore.sol\":9273:9274  i */\n      dup4\n        /* \"ChamaCore.sol\":9259:9275  chama.members[i] */\n      dup2\n      sload\n      dup2\n      lt\n      tag_504\n      jumpi\n      tag_505\n      tag_235\n      jump\t// in\n    tag_505:\n    tag_504:\n      swap1\n      0x00\n      mstore\n      keccak256(0x00, 0x20)\n      add\n      0x00\n      swap1\n      sload\n      swap1\n      0x0100\n      exp\n      swap1\n      div\n      0xffffffffffffffffffffffffffffffffffffffff\n      and\n        /* \"ChamaCore.sol\":9244:9275  address temp = chama.members[i] */\n      swap1\n      pop\n        /* \"ChamaCore.sol\":9308:9313  chama */\n      dup5\n        /* \"ChamaCore.sol\":9308:9321  chama.members */\n      0x04\n      add\n        /* \"ChamaCore.sol\":9322:9333  randomIndex */\n      dup3\n        /* \"ChamaCore.sol\":9308:9334  chama.members[randomIndex] */\n      dup2\n      sload\n      dup2\n      lt\n      tag_507\n      jumpi\n      tag_508\n      tag_235\n      jump\t// in\n    tag_508:\n    tag_507:\n      swap1\n      0x00\n      mstore\n      keccak256(0x00, 0x20)\n      add\n      0x00\n      swap1\n      sload\n      swap1\n      0x0100\n      exp\n      swap1\n      div\n      0xffffffffffffffffffffffffffffffffffffffff\n      and\n        /* \"ChamaCore.sol\":9289:9294  chama */\n      dup6\n        /* \"ChamaCore.sol\":9289:9302  chama.members */\n      0x04\n      add\n        /* \"ChamaCore.sol\":9303:9304  i */\n      dup5\n        /* \"ChamaCore.sol\":9289:9305  chama.members[i] */\n      dup2\n      sload\n      dup2\n      lt\n      tag_510\n      jumpi\n      tag_511\n      tag_235\n      jump\t// in\n    tag_511:\n    tag_510:\n      swap1\n      0x00\n      mstore\n      keccak256(0x00, 0x20)\n      add\n      0x00\n        /* \"ChamaCore.sol\":9289:9334  chama.members[i] = chama.members[randomIndex] */\n      0x0100\n      exp\n      dup2\n      sload\n      dup2\n      0xffffffffffffffffffffffffffffffffffffffff\n      mul\n      not\n      and\n      swap1\n      dup4\n      0xffffffffffffffffffffffffffffffffffffffff\n      and\n      mul\n      or\n      swap1\n      sstore\n      pop\n        /* \"ChamaCore.sol\":9377:9381  temp */\n      dup1\n        /* \"ChamaCore.sol\":9348:9353  chama */\n      dup6\n        /* \"ChamaCore.sol\":9348:9361  chama.members */\n      0x04\n      add\n        /* \"ChamaCore.sol\":9362:9373  randomIndex */\n      dup4\n        /* \"ChamaCore.sol\":9348:9374  chama.members[randomIndex] */\n      dup2\n      sload\n      dup2\n      lt\n      tag_513\n      jumpi\n      tag_514\n      tag_235\n      jump\t// in\n    tag_514:\n    tag_513:\n      swap1\n      0x00\n      mstore\n      keccak256(0x00, 0x20)\n      add\n      0x00\n        /* \"ChamaCore.sol\":9348:9381  chama.members[randomIndex] = temp */\n      0x0100\n      exp\n      dup2\n      sload\n      dup2\n      0xffffffffffffffffffffffffffffffffffffffff\n      mul\n      not\n      and\n      swap1\n      dup4\n      0xffffffffffffffffffffffffffffffffffffffff\n      and\n      mul\n      or\n      swap1\n      sstore\n      pop\n        /* \"ChamaCore.sol\":9483:9484  i */\n      dup3\n        /* \"ChamaCore.sol\":9445:9450  chama */\n      dup6\n        /* \"ChamaCore.sol\":9445:9462  chama.memberIndex */\n      0x0c\n      add\n        /* \"ChamaCore.sol\":9445:9480  chama.memberIndex[chama.members[i]] */\n      0x00\n        /* \"ChamaCore.sol\":9463:9468  chama */\n      dup8\n        /* \"ChamaCore.sol\":9463:9476  chama.members */\n      0x04\n      add\n        /* \"ChamaCore.sol\":9477:9478  i */\n      dup7\n        /* \"ChamaCore.sol\":9463:9479  chama.members[i] */\n      dup2\n      sload\n      dup2\n      lt\n      tag_516\n      jumpi\n      tag_517\n      tag_235\n      jump\t// in\n    tag_517:\n    tag_516:\n      swap1\n      0x00\n      mstore\n      keccak256(0x00, 0x20)\n      add\n      0x00\n      swap1\n      sload\n      swap1\n      0x0100\n      exp\n      swap1\n      div\n      0xffffffffffffffffffffffffffffffffffffffff\n      and\n        /* \"ChamaCore.sol\":9445:9480  chama.memberIndex[chama.members[i]] */\n      0xffffffffffffffffffffffffffffffffffffffff\n      and\n      0xffffffffffffffffffffffffffffffffffffffff\n      and\n      dup2\n      mstore\n      0x20\n      add\n      swap1\n      dup2\n      mstore\n      0x20\n      add\n      0x00\n      keccak256\n        /* \"ChamaCore.sol\":9445:9484  chama.memberIndex[chama.members[i]] = i */\n      dup2\n      swap1\n      sstore\n      pop\n        /* \"ChamaCore.sol\":9546:9557  randomIndex */\n      dup2\n        /* \"ChamaCore.sol\":9498:9503  chama */\n      dup6\n        /* \"ChamaCore.sol\":9498:9515  chama.memberIndex */\n      0x0c\n      add\n        /* \"ChamaCore.sol\":9498:9543  chama.memberIndex[chama.members[randomIndex]] */\n      0x00\n        /* \"ChamaCore.sol\":9516:9521  chama */\n      dup8\n        /* \"ChamaCore.sol\":9516:9529  chama.members */\n      0x04\n      add\n        /* \"ChamaCore.sol\":9530:9541  randomIndex */\n      dup6\n        /* \"ChamaCore.sol\":9516:9542  chama.members[randomIndex] */\n      dup2\n      sload\n      dup2\n      lt\n      tag_519\n      jumpi\n      tag_520\n      tag_235\n      jump\t// in\n    tag_520:\n    tag_519:\n      swap1\n      0x00\n      mstore\n      keccak256(0x00, 0x20)\n      add\n      0x00\n      swap1\n      sload\n      swap1\n      0x0100\n      exp\n      swap1\n      div\n      0xffffffffffffffffffffffffffffffffffffffff\n      and\n        /* \"ChamaCore.sol\":9498:9543  chama.memberIndex[chama.members[randomIndex]] */\n      0xffffffffffffffffffffffffffffffffffffffff\n      and\n      0xffffffffffffffffffffffffffffffffffffffff\n      and\n      dup2\n      mstore\n      0x20\n      add\n      swap1\n      dup2\n      mstore\n      0x20\n      add\n      0x00\n      keccak256\n        /* \"ChamaCore.sol\":9498:9557  chama.memberIndex[chama.members[randomIndex]] = randomIndex */\n      dup2\n      swap1\n      sstore\n      pop\n        /* \"ChamaCore.sol\":8919:9568  {... */\n      pop\n      pop\n        /* \"ChamaCore.sol\":8914:8917  i++ */\n      dup1\n      dup1\n      0x01\n      add\n      swap2\n      pop\n      pop\n        /* \"ChamaCore.sol\":8882:9568  for (uint256 i = 0; i < length; i++) {... */\n      jump(tag_496)\n    tag_497:\n      pop\n        /* \"ChamaCore.sol\":8768:9574  {... */\n      pop\n      pop\n        /* \"ChamaCore.sol\":8716:9574  function _shuffleMembers(uint256 _chamaId) internal {... */\n      pop\n      jump\t// out\n    tag_369:\n      dup3\n      dup1\n      sload\n      dup3\n      dup3\n      sstore\n      swap1\n      0x00\n      mstore\n      keccak256(0x00, 0x20)\n      swap1\n      0x1f\n      add\n      0x20\n      swap1\n      div\n      dup2\n      add\n      swap3\n      dup3\n      iszero\n      tag_522\n      jumpi\n      swap2\n      0x20\n      mul\n      dup3\n      add\n      0x00\n    tag_523:\n      dup4\n      dup3\n      gt\n      iszero\n      tag_524\n      jumpi\n      dup4\n      mload\n      dup4\n      dup3\n      0x0100\n      exp\n      dup2\n      sload\n      dup2\n      0xff\n      mul\n      not\n      and\n      swap1\n      dup4\n      iszero\n      iszero\n      mul\n      or\n      swap1\n      sstore\n      pop\n      swap3\n      0x20\n      add\n      swap3\n      0x01\n      add\n      0x20\n      dup2\n      0x00\n      add\n      div\n      swap3\n      dup4\n      add\n      swap3\n      0x01\n      sub\n      mul\n      jump(tag_523)\n    tag_524:\n      dup1\n      iszero\n      tag_525\n      jumpi\n      dup3\n      dup2\n      0x0100\n      exp\n      dup2\n      sload\n      swap1\n      0xff\n      mul\n      not\n      and\n      swap1\n      sstore\n      0x01\n      add\n      0x20\n      dup2\n      0x00\n      add\n      div\n      swap3\n      dup4\n      add\n      swap3\n      0x01\n      sub\n      mul\n      jump(tag_524)\n    tag_525:\n      pop\n    tag_522:\n      pop\n      swap1\n      pop\n      tag_526\n      swap2\n      swap1\n      tag_527\n      jump\t// in\n    tag_526:\n      pop\n      swap1\n      jump\t// out\n    tag_527:\n    tag_528:\n      dup1\n      dup3\n      gt\n      iszero\n      tag_529\n      jumpi\n      0x00\n      dup2\n      0x00\n      swap1\n      sstore\n      pop\n      0x01\n      add\n      jump(tag_528)\n    tag_529:\n      pop\n      swap1\n      jump\t// out\n        /* \"#utility.yul\":7:82   */\n    tag_530:\n        /* \"#utility.yul\":40:46   */\n      0x00\n        /* \"#utility.yul\":73:75   */\n      0x40\n        /* \"#utility.yul\":67:76   */\n      mload\n        /* \"#utility.yul\":57:76   */\n      swap1\n      pop\n        /* \"#utility.yul\":7:82   */\n      swap1\n      jump\t// out\n        /* \"#utility.yul\":88:205   */\n    tag_531:\n        /* \"#utility.yul\":197:198   */\n      0x00\n        /* \"#utility.yul\":194:195   */\n      0x00\n        /* \"#utility.yul\":187:199   */\n      revert\n        /* \"#utility.yul\":211:328   */\n    tag_532:\n        /* \"#utility.yul\":320:321   */\n      0x00\n        /* \"#utility.yul\":317:318   */\n      0x00\n        /* \"#utility.yul\":310:322   */\n      revert\n        /* \"#utility.yul\":334:483   */\n    tag_533:\n        /* \"#utility.yul\":370:377   */\n      0x00\n        /* \"#utility.yul\":410:476   */\n      0xffffffff00000000000000000000000000000000000000000000000000000000\n        /* \"#utility.yul\":403:408   */\n      dup3\n        /* \"#utility.yul\":399:477   */\n      and\n        /* \"#utility.yul\":388:477   */\n      swap1\n      pop\n        /* \"#utility.yul\":334:483   */\n      swap2\n      swap1\n      pop\n      jump\t// out\n        /* \"#utility.yul\":489:609   */\n    tag_534:\n        /* \"#utility.yul\":561:584   */\n      tag_618\n        /* \"#utility.yul\":578:583   */\n      dup2\n        /* \"#utility.yul\":561:584   */\n      tag_533\n      jump\t// in\n    tag_618:\n        /* \"#utility.yul\":554:559   */\n      dup2\n        /* \"#utility.yul\":551:585   */\n      eq\n        /* \"#utility.yul\":541:603   */\n      tag_619\n      jumpi\n        /* \"#utility.yul\":599:600   */\n      0x00\n        /* \"#utility.yul\":596:597   */\n      0x00\n        /* \"#utility.yul\":589:601   */\n      revert\n        /* \"#utility.yul\":541:603   */\n    tag_619:\n        /* \"#utility.yul\":489:609   */\n      pop\n      jump\t// out\n        /* \"#utility.yul\":615:752   */\n    tag_535:\n        /* \"#utility.yul\":660:665   */\n      0x00\n        /* \"#utility.yul\":698:704   */\n      dup2\n        /* \"#utility.yul\":685:705   */\n      calldataload\n        /* \"#utility.yul\":676:705   */\n      swap1\n      pop\n        /* \"#utility.yul\":714:746   */\n      tag_621\n        /* \"#utility.yul\":740:745   */\n      dup2\n        /* \"#utility.yul\":714:746   */\n      tag_534\n      jump\t// in\n    tag_621:\n        /* \"#utility.yul\":615:752   */\n      swap3\n      swap2\n      pop\n      pop\n      jump\t// out\n        /* \"#utility.yul\":758:1085   */\n    tag_44:\n        /* \"#utility.yul\":816:822   */\n      0x00\n        /* \"#utility.yul\":865:867   */\n      0x20\n        /* \"#utility.yul\":853:862   */\n      dup3\n        /* \"#utility.yul\":844:851   */\n      dup5\n        /* \"#utility.yul\":840:863   */\n      sub\n        /* \"#utility.yul\":836:868   */\n      slt\n        /* \"#utility.yul\":833:952   */\n      iszero\n      tag_623\n      jumpi\n        /* \"#utility.yul\":871:950   */\n      tag_624\n      tag_531\n      jump\t// in\n    tag_624:\n        /* \"#utility.yul\":833:952   */\n    tag_623:\n        /* \"#utility.yul\":991:992   */\n      0x00\n        /* \"#utility.yul\":1016:1068   */\n      tag_625\n        /* \"#utility.yul\":1060:1067   */\n      dup5\n        /* \"#utility.yul\":1051:1057   */\n      dup3\n        /* \"#utility.yul\":1040:1049   */\n      dup6\n        /* \"#utility.yul\":1036:1058   */\n      add\n        /* \"#utility.yul\":1016:1068   */\n      tag_535\n      jump\t// in\n    tag_625:\n        /* \"#utility.yul\":1006:1068   */\n      swap2\n      pop\n        /* \"#utility.yul\":962:1078   */\n      pop\n        /* \"#utility.yul\":758:1085   */\n      swap3\n      swap2\n      pop\n      pop\n      jump\t// out\n        /* \"#utility.yul\":1091:1181   */\n    tag_536:\n        /* \"#utility.yul\":1125:1132   */\n      0x00\n        /* \"#utility.yul\":1168:1173   */\n      dup2\n        /* \"#utility.yul\":1161:1174   */\n      iszero\n        /* \"#utility.yul\":1154:1175   */\n      iszero\n        /* \"#utility.yul\":1143:1175   */\n      swap1\n      pop\n        /* \"#utility.yul\":1091:1181   */\n      swap2\n      swap1\n      pop\n      jump\t// out\n        /* \"#utility.yul\":1187:1296   */\n    tag_537:\n        /* \"#utility.yul\":1268:1289   */\n      tag_628\n        /* \"#utility.yul\":1283:1288   */\n      dup2\n        /* \"#utility.yul\":1268:1289   */\n      tag_536\n      jump\t// in\n    tag_628:\n        /* \"#utility.yul\":1263:1266   */\n      dup3\n        /* \"#utility.yul\":1256:1290   */\n      mstore\n        /* \"#utility.yul\":1187:1296   */\n      pop\n      pop\n      jump\t// out\n        /* \"#utility.yul\":1302:1512   */\n    tag_47:\n        /* \"#utility.yul\":1389:1393   */\n      0x00\n        /* \"#utility.yul\":1427:1429   */\n      0x20\n        /* \"#utility.yul\":1416:1425   */\n      dup3\n        /* \"#utility.yul\":1412:1430   */\n      add\n        /* \"#utility.yul\":1404:1430   */\n      swap1\n      pop\n        /* \"#utility.yul\":1440:1505   */\n      tag_630\n        /* \"#utility.yul\":1502:1503   */\n      0x00\n        /* \"#utility.yul\":1491:1500   */\n      dup4\n        /* \"#utility.yul\":1487:1504   */\n      add\n        /* \"#utility.yul\":1478:1484   */\n      dup5\n        /* \"#utility.yul\":1440:1505   */\n      tag_537\n      jump\t// in\n    tag_630:\n        /* \"#utility.yul\":1302:1512   */\n      swap3\n      swap2\n      pop\n      pop\n      jump\t// out\n        /* \"#utility.yul\":1518:1595   */\n    tag_538:\n        /* \"#utility.yul\":1555:1562   */\n      0x00\n        /* \"#utility.yul\":1584:1589   */\n      dup2\n        /* \"#utility.yul\":1573:1589   */\n      swap1\n      pop\n        /* \"#utility.yul\":1518:1595   */\n      swap2\n      swap1\n      pop\n      jump\t// out\n        /* \"#utility.yul\":1601:1723   */\n    tag_539:\n        /* \"#utility.yul\":1674:1698   */\n      tag_633\n        /* \"#utility.yul\":1692:1697   */\n      dup2\n        /* \"#utility.yul\":1674:1698   */\n      tag_538\n      jump\t// in\n    tag_633:\n        /* \"#utility.yul\":1667:1672   */\n      dup2\n        /* \"#utility.yul\":1664:1699   */\n      eq\n        /* \"#utility.yul\":1654:1717   */\n      tag_634\n      jumpi\n        /* \"#utility.yul\":1713:1714   */\n      0x00\n        /* \"#utility.yul\":1710:1711   */\n      0x00\n        /* \"#utility.yul\":1703:1715   */\n      revert\n        /* \"#utility.yul\":1654:1717   */\n    tag_634:\n        /* \"#utility.yul\":1601:1723   */\n      pop\n      jump\t// out\n        /* \"#utility.yul\":1729:1868   */\n    tag_540:\n        /* \"#utility.yul\":1775:1780   */\n      0x00\n        /* \"#utility.yul\":1813:1819   */\n      dup2\n        /* \"#utility.yul\":1800:1820   */\n      calldataload\n        /* \"#utility.yul\":1791:1820   */\n      swap1\n      pop\n        /* \"#utility.yul\":1829:1862   */\n      tag_636\n        /* \"#utility.yul\":1856:1861   */\n      dup2\n        /* \"#utility.yul\":1829:1862   */\n      tag_539\n      jump\t// in\n    tag_636:\n        /* \"#utility.yul\":1729:1868   */\n      swap3\n      swap2\n      pop\n      pop\n      jump\t// out\n        /* \"#utility.yul\":1874:2000   */\n    tag_541:\n        /* \"#utility.yul\":1911:1918   */\n      0x00\n        /* \"#utility.yul\":1951:1993   */\n      0xffffffffffffffffffffffffffffffffffffffff\n        /* \"#utility.yul\":1944:1949   */\n      dup3\n        /* \"#utility.yul\":1940:1994   */\n      and\n        /* \"#utility.yul\":1929:1994   */\n      swap1\n      pop\n        /* \"#utility.yul\":1874:2000   */\n      swap2\n      swap1\n      pop\n      jump\t// out\n        /* \"#utility.yul\":2006:2102   */\n    tag_542:\n        /* \"#utility.yul\":2043:2050   */\n      0x00\n        /* \"#utility.yul\":2072:2096   */\n      tag_639\n        /* \"#utility.yul\":2090:2095   */\n      dup3\n        /* \"#utility.yul\":2072:2096   */\n      tag_541\n      jump\t// in\n    tag_639:\n        /* \"#utility.yul\":2061:2096   */\n      swap1\n      pop\n        /* \"#utility.yul\":2006:2102   */\n      swap2\n      swap1\n      pop\n      jump\t// out\n        /* \"#utility.yul\":2108:2230   */\n    tag_543:\n        /* \"#utility.yul\":2181:2205   */\n      tag_641\n        /* \"#utility.yul\":2199:2204   */\n      dup2\n        /* \"#utility.yul\":2181:2205   */\n      tag_542\n      jump\t// in\n    tag_641:\n        /* \"#utility.yul\":2174:2179   */\n      dup2\n        /* \"#utility.yul\":2171:2206   */\n      eq\n        /* \"#utility.yul\":2161:2224   */\n      tag_642\n      jumpi\n        /* \"#utility.yul\":2220:2221   */\n      0x00\n        /* \"#utility.yul\":2217:2218   */\n      0x00\n        /* \"#utility.yul\":2210:2222   */\n      revert\n        /* \"#utility.yul\":2161:2224   */\n    tag_642:\n        /* \"#utility.yul\":2108:2230   */\n      pop\n      jump\t// out\n        /* \"#utility.yul\":2236:2375   */\n    tag_544:\n        /* \"#utility.yul\":2282:2287   */\n      0x00\n        /* \"#utility.yul\":2320:2326   */\n      dup2\n        /* \"#utility.yul\":2307:2327   */\n      calldataload\n        /* \"#utility.yul\":2298:2327   */\n      swap1\n      pop\n        /* \"#utility.yul\":2336:2369   */\n      tag_644\n        /* \"#utility.yul\":2363:2368   */\n      dup2\n        /* \"#utility.yul\":2336:2369   */\n      tag_543\n      jump\t// in\n    tag_644:\n        /* \"#utility.yul\":2236:2375   */\n      swap3\n      swap2\n      pop\n      pop\n      jump\t// out\n        /* \"#utility.yul\":2381:2855   */\n    tag_51:\n        /* \"#utility.yul\":2449:2455   */\n      0x00\n        /* \"#utility.yul\":2457:2463   */\n      0x00\n        /* \"#utility.yul\":2506:2508   */\n      0x40\n        /* \"#utility.yul\":2494:2503   */\n      dup4\n        /* \"#utility.yul\":2485:2492   */\n      dup6\n        /* \"#utility.yul\":2481:2504   */\n      sub\n        /* \"#utility.yul\":2477:2509   */\n      slt\n        /* \"#utility.yul\":2474:2593   */\n      iszero\n      tag_646\n      jumpi\n        /* \"#utility.yul\":2512:2591   */\n      tag_647\n      tag_531\n      jump\t// in\n    tag_647:\n        /* \"#utility.yul\":2474:2593   */\n    tag_646:\n        /* \"#utility.yul\":2632:2633   */\n      0x00\n        /* \"#utility.yul\":2657:2710   */\n      tag_648\n        /* \"#utility.yul\":2702:2709   */\n      dup6\n        /* \"#utility.yul\":2693:2699   */\n      dup3\n        /* \"#utility.yul\":2682:2691   */\n      dup7\n        /* \"#utility.yul\":2678:2700   */\n      add\n        /* \"#utility.yul\":2657:2710   */\n      tag_540\n      jump\t// in\n    tag_648:\n        /* \"#utility.yul\":2647:2710   */\n      swap3\n      pop\n        /* \"#utility.yul\":2603:2720   */\n      pop\n        /* \"#utility.yul\":2759:2761   */\n      0x20\n        /* \"#utility.yul\":2785:2838   */\n      tag_649\n        /* \"#utility.yul\":2830:2837   */\n      dup6\n        /* \"#utility.yul\":2821:2827   */\n      dup3\n        /* \"#utility.yul\":2810:2819   */\n      dup7\n        /* \"#utility.yul\":2806:2828   */\n      add\n        /* \"#utility.yul\":2785:2838   */\n      tag_544\n      jump\t// in\n    tag_649:\n        /* \"#utility.yul\":2775:2838   */\n      swap2\n      pop\n        /* \"#utility.yul\":2730:2848   */\n      pop\n        /* \"#utility.yul\":2381:2855   */\n      swap3\n      pop\n      swap3\n      swap1\n      pop\n      jump\t// out\n        /* \"#utility.yul\":2861:2979   */\n    tag_545:\n        /* \"#utility.yul\":2948:2972   */\n      tag_651\n        /* \"#utility.yul\":2966:2971   */\n      dup2\n        /* \"#utility.yul\":2948:2972   */\n      tag_538\n      jump\t// in\n    tag_651:\n        /* \"#utility.yul\":2943:2946   */\n      dup3\n        /* \"#utility.yul\":2936:2973   */\n      mstore\n        /* \"#utility.yul\":2861:2979   */\n      pop\n      pop\n      jump\t// out\n        /* \"#utility.yul\":2985:3207   */\n    tag_54:\n        /* \"#utility.yul\":3078:3082   */\n      0x00\n        /* \"#utility.yul\":3116:3118   */\n      0x20\n        /* \"#utility.yul\":3105:3114   */\n      dup3\n        /* \"#utility.yul\":3101:3119   */\n      add\n        /* \"#utility.yul\":3093:3119   */\n      swap1\n      pop\n        /* \"#utility.yul\":3129:3200   */\n      tag_653\n        /* \"#utility.yul\":3197:3198   */\n      0x00\n        /* \"#utility.yul\":3186:3195   */\n      dup4\n        /* \"#utility.yul\":3182:3199   */\n      add\n        /* \"#utility.yul\":3173:3179   */\n      dup5\n        /* \"#utility.yul\":3129:3200   */\n      tag_545\n      jump\t// in\n    tag_653:\n        /* \"#utility.yul\":2985:3207   */\n      swap3\n      swap2\n      pop\n      pop\n      jump\t// out\n        /* \"#utility.yul\":3213:3542   */\n    tag_58:\n        /* \"#utility.yul\":3272:3278   */\n      0x00\n        /* \"#utility.yul\":3321:3323   */\n      0x20\n        /* \"#utility.yul\":3309:3318   */\n      dup3\n        /* \"#utility.yul\":3300:3307   */\n      dup5\n        /* \"#utility.yul\":3296:3319   */\n      sub\n        /* \"#utility.yul\":3292:3324   */\n      slt\n        /* \"#utility.yul\":3289:3408   */\n      iszero\n      tag_655\n      jumpi\n        /* \"#utility.yul\":3327:3406   */\n      tag_656\n      tag_531\n      jump\t// in\n    tag_656:\n        /* \"#utility.yul\":3289:3408   */\n    tag_655:\n        /* \"#utility.yul\":3447:3448   */\n      0x00\n        /* \"#utility.yul\":3472:3525   */\n      tag_657\n        /* \"#utility.yul\":3517:3524   */\n      dup5\n        /* \"#utility.yul\":3508:3514   */\n      dup3\n        /* \"#utility.yul\":3497:3506   */\n      dup6\n        /* \"#utility.yul\":3493:3515   */\n      add\n        /* \"#utility.yul\":3472:3525   */\n      tag_540\n      jump\t// in\n    tag_657:\n        /* \"#utility.yul\":3462:3525   */\n      swap2\n      pop\n        /* \"#utility.yul\":3418:3535   */\n      pop\n        /* \"#utility.yul\":3213:3542   */\n      swap3\n      swap2\n      pop\n      pop\n      jump\t// out\n        /* \"#utility.yul\":3548:3647   */\n    tag_546:\n        /* \"#utility.yul\":3600:3606   */\n      0x00\n        /* \"#utility.yul\":3634:3639   */\n      dup2\n        /* \"#utility.yul\":3628:3640   */\n      mload\n        /* \"#utility.yul\":3618:3640   */\n      swap1\n      pop\n        /* \"#utility.yul\":3548:3647   */\n      swap2\n      swap1\n      pop\n      jump\t// out\n        /* \"#utility.yul\":3653:3822   */\n    tag_547:\n        /* \"#utility.yul\":3737:3748   */\n      0x00\n        /* \"#utility.yul\":3771:3777   */\n      dup3\n        /* \"#utility.yul\":3766:3769   */\n      dup3\n        /* \"#utility.yul\":3759:3778   */\n      mstore\n        /* \"#utility.yul\":3811:3815   */\n      0x20\n        /* \"#utility.yul\":3806:3809   */\n      dup3\n        /* \"#utility.yul\":3802:3816   */\n      add\n        /* \"#utility.yul\":3787:3816   */\n      swap1\n      pop\n        /* \"#utility.yul\":3653:3822   */\n      swap3\n      swap2\n      pop\n      pop\n      jump\t// out\n        /* \"#utility.yul\":3828:3967   */\n    tag_548:\n        /* \"#utility.yul\":3917:3923   */\n      dup3\n        /* \"#utility.yul\":3912:3915   */\n      dup2\n        /* \"#utility.yul\":3907:3910   */\n      dup4\n        /* \"#utility.yul\":3901:3924   */\n      mcopy\n        /* \"#utility.yul\":3958:3959   */\n      0x00\n        /* \"#utility.yul\":3949:3955   */\n      dup4\n        /* \"#utility.yul\":3944:3947   */\n      dup4\n        /* \"#utility.yul\":3940:3956   */\n      add\n        /* \"#utility.yul\":3933:3960   */\n      mstore\n        /* \"#utility.yul\":3828:3967   */\n      pop\n      pop\n      pop\n      jump\t// out\n        /* \"#utility.yul\":3973:4075   */\n    tag_549:\n        /* \"#utility.yul\":4014:4020   */\n      0x00\n        /* \"#utility.yul\":4065:4067   */\n      0x1f\n        /* \"#utility.yul\":4061:4068   */\n      not\n        /* \"#utility.yul\":4056:4058   */\n      0x1f\n        /* \"#utility.yul\":4049:4054   */\n      dup4\n        /* \"#utility.yul\":4045:4059   */\n      add\n        /* \"#utility.yul\":4041:4069   */\n      and\n        /* \"#utility.yul\":4031:4069   */\n      swap1\n      pop\n        /* \"#utility.yul\":3973:4075   */\n      swap2\n      swap1\n      pop\n      jump\t// out\n        /* \"#utility.yul\":4081:4458   */\n    tag_550:\n        /* \"#utility.yul\":4169:4172   */\n      0x00\n        /* \"#utility.yul\":4197:4236   */\n      tag_663\n        /* \"#utility.yul\":4230:4235   */\n      dup3\n        /* \"#utility.yul\":4197:4236   */\n      tag_546\n      jump\t// in\n    tag_663:\n        /* \"#utility.yul\":4252:4323   */\n      tag_664\n        /* \"#utility.yul\":4316:4322   */\n      dup2\n        /* \"#utility.yul\":4311:4314   */\n      dup6\n        /* \"#utility.yul\":4252:4323   */\n      tag_547\n      jump\t// in\n    tag_664:\n        /* \"#utility.yul\":4245:4323   */\n      swap4\n      pop\n        /* \"#utility.yul\":4332:4397   */\n      tag_665\n        /* \"#utility.yul\":4390:4396   */\n      dup2\n        /* \"#utility.yul\":4385:4388   */\n      dup6\n        /* \"#utility.yul\":4378:4382   */\n      0x20\n        /* \"#utility.yul\":4371:4376   */\n      dup7\n        /* \"#utility.yul\":4367:4383   */\n      add\n        /* \"#utility.yul\":4332:4397   */\n      tag_548\n      jump\t// in\n    tag_665:\n        /* \"#utility.yul\":4422:4451   */\n      tag_666\n        /* \"#utility.yul\":4444:4450   */\n      dup2\n        /* \"#utility.yul\":4422:4451   */\n      tag_549\n      jump\t// in\n    tag_666:\n        /* \"#utility.yul\":4417:4420   */\n      dup5\n        /* \"#utility.yul\":4413:4452   */\n      add\n        /* \"#utility.yul\":4406:4452   */\n      swap2\n      pop\n        /* \"#utility.yul\":4173:4458   */\n      pop\n        /* \"#utility.yul\":4081:4458   */\n      swap3\n      swap2\n      pop\n      pop\n      jump\t// out\n        /* \"#utility.yul\":4464:5762   */\n    tag_61:\n        /* \"#utility.yul\":4823:4827   */\n      0x00\n        /* \"#utility.yul\":4861:4864   */\n      0x0140\n        /* \"#utility.yul\":4850:4859   */\n      dup3\n        /* \"#utility.yul\":4846:4865   */\n      add\n        /* \"#utility.yul\":4838:4865   */\n      swap1\n      pop\n        /* \"#utility.yul\":4911:4920   */\n      dup2\n        /* \"#utility.yul\":4905:4909   */\n      dup2\n        /* \"#utility.yul\":4901:4921   */\n      sub\n        /* \"#utility.yul\":4897:4898   */\n      0x00\n        /* \"#utility.yul\":4886:4895   */\n      dup4\n        /* \"#utility.yul\":4882:4899   */\n      add\n        /* \"#utility.yul\":4875:4922   */\n      mstore\n        /* \"#utility.yul\":4939:5017   */\n      tag_668\n        /* \"#utility.yul\":5012:5016   */\n      dup2\n        /* \"#utility.yul\":5003:5009   */\n      dup14\n        /* \"#utility.yul\":4939:5017   */\n      tag_550\n      jump\t// in\n    tag_668:\n        /* \"#utility.yul\":4931:5017   */\n      swap1\n      pop\n        /* \"#utility.yul\":5027:5099   */\n      tag_669\n        /* \"#utility.yul\":5095:5097   */\n      0x20\n        /* \"#utility.yul\":5084:5093   */\n      dup4\n        /* \"#utility.yul\":5080:5098   */\n      add\n        /* \"#utility.yul\":5071:5077   */\n      dup13\n        /* \"#utility.yul\":5027:5099   */\n      tag_545\n      jump\t// in\n    tag_669:\n        /* \"#utility.yul\":5109:5181   */\n      tag_670\n        /* \"#utility.yul\":5177:5179   */\n      0x40\n        /* \"#utility.yul\":5166:5175   */\n      dup4\n        /* \"#utility.yul\":5162:5180   */\n      add\n        /* \"#utility.yul\":5153:5159   */\n      dup12\n        /* \"#utility.yul\":5109:5181   */\n      tag_545\n      jump\t// in\n    tag_670:\n        /* \"#utility.yul\":5191:5263   */\n      tag_671\n        /* \"#utility.yul\":5259:5261   */\n      0x60\n        /* \"#utility.yul\":5248:5257   */\n      dup4\n        /* \"#utility.yul\":5244:5262   */\n      add\n        /* \"#utility.yul\":5235:5241   */\n      dup11\n        /* \"#utility.yul\":5191:5263   */\n      tag_545\n      jump\t// in\n    tag_671:\n        /* \"#utility.yul\":5273:5340   */\n      tag_672\n        /* \"#utility.yul\":5335:5338   */\n      0x80\n        /* \"#utility.yul\":5324:5333   */\n      dup4\n        /* \"#utility.yul\":5320:5339   */\n      add\n        /* \"#utility.yul\":5311:5317   */\n      dup10\n        /* \"#utility.yul\":5273:5340   */\n      tag_537\n      jump\t// in\n    tag_672:\n        /* \"#utility.yul\":5350:5423   */\n      tag_673\n        /* \"#utility.yul\":5418:5421   */\n      0xa0\n        /* \"#utility.yul\":5407:5416   */\n      dup4\n        /* \"#utility.yul\":5403:5422   */\n      add\n        /* \"#utility.yul\":5394:5400   */\n      dup9\n        /* \"#utility.yul\":5350:5423   */\n      tag_545\n      jump\t// in\n    tag_673:\n        /* \"#utility.yul\":5433:5506   */\n      tag_674\n        /* \"#utility.yul\":5501:5504   */\n      0xc0\n        /* \"#utility.yul\":5490:5499   */\n      dup4\n        /* \"#utility.yul\":5486:5505   */\n      add\n        /* \"#utility.yul\":5477:5483   */\n      dup8\n        /* \"#utility.yul\":5433:5506   */\n      tag_545\n      jump\t// in\n    tag_674:\n        /* \"#utility.yul\":5516:5589   */\n      tag_675\n        /* \"#utility.yul\":5584:5587   */\n      0xe0\n        /* \"#utility.yul\":5573:5582   */\n      dup4\n        /* \"#utility.yul\":5569:5588   */\n      add\n        /* \"#utility.yul\":5560:5566   */\n      dup7\n        /* \"#utility.yul\":5516:5589   */\n      tag_545\n      jump\t// in\n    tag_675:\n        /* \"#utility.yul\":5599:5672   */\n      tag_676\n        /* \"#utility.yul\":5667:5670   */\n      0x0100\n        /* \"#utility.yul\":5656:5665   */\n      dup4\n        /* \"#utility.yul\":5652:5671   */\n      add\n        /* \"#utility.yul\":5643:5649   */\n      dup6\n        /* \"#utility.yul\":5599:5672   */\n      tag_545\n      jump\t// in\n    tag_676:\n        /* \"#utility.yul\":5682:5755   */\n      tag_677\n        /* \"#utility.yul\":5750:5753   */\n      0x0120\n        /* \"#utility.yul\":5739:5748   */\n      dup4\n        /* \"#utility.yul\":5735:5754   */\n      add\n        /* \"#utility.yul\":5726:5732   */\n      dup5\n        /* \"#utility.yul\":5682:5755   */\n      tag_545\n      jump\t// in\n    tag_677:\n        /* \"#utility.yul\":4464:5762   */\n      swap12\n      swap11\n      pop\n      pop\n      pop\n      pop\n      pop\n      pop\n      pop\n      pop\n      pop\n      pop\n      pop\n      jump\t// out\n        /* \"#utility.yul\":5768:6387   */\n    tag_65:\n        /* \"#utility.yul\":5845:5851   */\n      0x00\n        /* \"#utility.yul\":5853:5859   */\n      0x00\n        /* \"#utility.yul\":5861:5867   */\n      0x00\n        /* \"#utility.yul\":5910:5912   */\n      0x60\n        /* \"#utility.yul\":5898:5907   */\n      dup5\n        /* \"#utility.yul\":5889:5896   */\n      dup7\n        /* \"#utility.yul\":5885:5908   */\n      sub\n        /* \"#utility.yul\":5881:5913   */\n      slt\n        /* \"#utility.yul\":5878:5997   */\n      iszero\n      tag_679\n      jumpi\n        /* \"#utility.yul\":5916:5995   */\n      tag_680\n      tag_531\n      jump\t// in\n    tag_680:\n        /* \"#utility.yul\":5878:5997   */\n    tag_679:\n        /* \"#utility.yul\":6036:6037   */\n      0x00\n        /* \"#utility.yul\":6061:6114   */\n      tag_681\n        /* \"#utility.yul\":6106:6113   */\n      dup7\n        /* \"#utility.yul\":6097:6103   */\n      dup3\n        /* \"#utility.yul\":6086:6095   */\n      dup8\n        /* \"#utility.yul\":6082:6104   */\n      add\n        /* \"#utility.yul\":6061:6114   */\n      tag_540\n      jump\t// in\n    tag_681:\n        /* \"#utility.yul\":6051:6114   */\n      swap4\n      pop\n        /* \"#utility.yul\":6007:6124   */\n      pop\n        /* \"#utility.yul\":6163:6165   */\n      0x20\n        /* \"#utility.yul\":6189:6242   */\n      tag_682\n        /* \"#utility.yul\":6234:6241   */\n      dup7\n        /* \"#utility.yul\":6225:6231   */\n      dup3\n        /* \"#utility.yul\":6214:6223   */\n      dup8\n        /* \"#utility.yul\":6210:6232   */\n      add\n        /* \"#utility.yul\":6189:6242   */\n      tag_544\n      jump\t// in\n    tag_682:\n        /* \"#utility.yul\":6179:6242   */\n      swap3\n      pop\n        /* \"#utility.yul\":6134:6252   */\n      pop\n        /* \"#utility.yul\":6291:6293   */\n      0x40\n        /* \"#utility.yul\":6317:6370   */\n      tag_683\n        /* \"#utility.yul\":6362:6369   */\n      dup7\n        /* \"#utility.yul\":6353:6359   */\n      dup3\n        /* \"#utility.yul\":6342:6351   */\n      dup8\n        /* \"#utility.yul\":6338:6360   */\n      add\n        /* \"#utility.yul\":6317:6370   */\n      tag_540\n      jump\t// in\n    tag_683:\n        /* \"#utility.yul\":6307:6370   */\n      swap2\n      pop\n        /* \"#utility.yul\":6262:6380   */\n      pop\n        /* \"#utility.yul\":5768:6387   */\n      swap3\n      pop\n      swap3\n      pop\n      swap3\n      jump\t// out\n        /* \"#utility.yul\":6393:6511   */\n    tag_551:\n        /* \"#utility.yul\":6480:6504   */\n      tag_685\n        /* \"#utility.yul\":6498:6503   */\n      dup2\n        /* \"#utility.yul\":6480:6504   */\n      tag_542\n      jump\t// in\n    tag_685:\n        /* \"#utility.yul\":6475:6478   */\n      dup3\n        /* \"#utility.yul\":6468:6505   */\n      mstore\n        /* \"#utility.yul\":6393:6511   */\n      pop\n      pop\n      jump\t// out\n        /* \"#utility.yul\":6517:6959   */\n    tag_68:\n        /* \"#utility.yul\":6666:6670   */\n      0x00\n        /* \"#utility.yul\":6704:6706   */\n      0x60\n        /* \"#utility.yul\":6693:6702   */\n      dup3\n        /* \"#utility.yul\":6689:6707   */\n      add\n        /* \"#utility.yul\":6681:6707   */\n      swap1\n      pop\n        /* \"#utility.yul\":6717:6788   */\n      tag_687\n        /* \"#utility.yul\":6785:6786   */\n      0x00\n        /* \"#utility.yul\":6774:6783   */\n      dup4\n        /* \"#utility.yul\":6770:6787   */\n      add\n        /* \"#utility.yul\":6761:6767   */\n      dup7\n        /* \"#utility.yul\":6717:6788   */\n      tag_551\n      jump\t// in\n    tag_687:\n        /* \"#utility.yul\":6798:6870   */\n      tag_688\n        /* \"#utility.yul\":6866:6868   */\n      0x20\n        /* \"#utility.yul\":6855:6864   */\n      dup4\n        /* \"#utility.yul\":6851:6869   */\n      add\n        /* \"#utility.yul\":6842:6848   */\n      dup6\n        /* \"#utility.yul\":6798:6870   */\n      tag_545\n      jump\t// in\n    tag_688:\n        /* \"#utility.yul\":6880:6952   */\n      tag_689\n        /* \"#utility.yul\":6948:6950   */\n      0x40\n        /* \"#utility.yul\":6937:6946   */\n      dup4\n        /* \"#utility.yul\":6933:6951   */\n      add\n        /* \"#utility.yul\":6924:6930   */\n      dup5\n        /* \"#utility.yul\":6880:6952   */\n      tag_545\n      jump\t// in\n    tag_689:\n        /* \"#utility.yul\":6517:6959   */\n      swap5\n      swap4\n      pop\n      pop\n      pop\n      pop\n      jump\t// out\n        /* \"#utility.yul\":6965:7042   */\n    tag_552:\n        /* \"#utility.yul\":7002:7009   */\n      0x00\n        /* \"#utility.yul\":7031:7036   */\n      dup2\n        /* \"#utility.yul\":7020:7036   */\n      swap1\n      pop\n        /* \"#utility.yul\":6965:7042   */\n      swap2\n      swap1\n      pop\n      jump\t// out\n        /* \"#utility.yul\":7048:7170   */\n    tag_553:\n        /* \"#utility.yul\":7121:7145   */\n      tag_692\n        /* \"#utility.yul\":7139:7144   */\n      dup2\n        /* \"#utility.yul\":7121:7145   */\n      tag_552\n      jump\t// in\n    tag_692:\n        /* \"#utility.yul\":7114:7119   */\n      dup2\n        /* \"#utility.yul\":7111:7146   */\n      eq\n        /* \"#utility.yul\":7101:7164   */\n      tag_693\n      jumpi\n        /* \"#utility.yul\":7160:7161   */\n      0x00\n        /* \"#utility.yul\":7157:7158   */\n      0x00\n        /* \"#utility.yul\":7150:7162   */\n      revert\n        /* \"#utility.yul\":7101:7164   */\n    tag_693:\n        /* \"#utility.yul\":7048:7170   */\n      pop\n      jump\t// out\n        /* \"#utility.yul\":7176:7315   */\n    tag_554:\n        /* \"#utility.yul\":7222:7227   */\n      0x00\n        /* \"#utility.yul\":7260:7266   */\n      dup2\n        /* \"#utility.yul\":7247:7267   */\n      calldataload\n        /* \"#utility.yul\":7238:7267   */\n      swap1\n      pop\n        /* \"#utility.yul\":7276:7309   */\n      tag_695\n        /* \"#utility.yul\":7303:7308   */\n      dup2\n        /* \"#utility.yul\":7276:7309   */\n      tag_553\n      jump\t// in\n    tag_695:\n        /* \"#utility.yul\":7176:7315   */\n      swap3\n      swap2\n      pop\n      pop\n      jump\t// out\n        /* \"#utility.yul\":7321:7650   */\n    tag_72:\n        /* \"#utility.yul\":7380:7386   */\n      0x00\n        /* \"#utility.yul\":7429:7431   */\n      0x20\n        /* \"#utility.yul\":7417:7426   */\n      dup3\n        /* \"#utility.yul\":7408:7415   */\n      dup5\n        /* \"#utility.yul\":7404:7427   */\n      sub\n        /* \"#utility.yul\":7400:7432   */\n      slt\n        /* \"#utility.yul\":7397:7516   */\n      iszero\n      tag_697\n      jumpi\n        /* \"#utility.yul\":7435:7514   */\n      tag_698\n      tag_531\n      jump\t// in\n    tag_698:\n        /* \"#utility.yul\":7397:7516   */\n    tag_697:\n        /* \"#utility.yul\":7555:7556   */\n      0x00\n        /* \"#utility.yul\":7580:7633   */\n      tag_699\n        /* \"#utility.yul\":7625:7632   */\n      dup5\n        /* \"#utility.yul\":7616:7622   */\n      dup3\n        /* \"#utility.yul\":7605:7614   */\n      dup6\n        /* \"#utility.yul\":7601:7623   */\n      add\n        /* \"#utility.yul\":7580:7633   */\n      tag_554\n      jump\t// in\n    tag_699:\n        /* \"#utility.yul\":7570:7633   */\n      swap2\n      pop\n        /* \"#utility.yul\":7526:7643   */\n      pop\n        /* \"#utility.yul\":7321:7650   */\n      swap3\n      swap2\n      pop\n      pop\n      jump\t// out\n        /* \"#utility.yul\":7656:7774   */\n    tag_555:\n        /* \"#utility.yul\":7743:7767   */\n      tag_701\n        /* \"#utility.yul\":7761:7766   */\n      dup2\n        /* \"#utility.yul\":7743:7767   */\n      tag_552\n      jump\t// in\n    tag_701:\n        /* \"#utility.yul\":7738:7741   */\n      dup3\n        /* \"#utility.yul\":7731:7768   */\n      mstore\n        /* \"#utility.yul\":7656:7774   */\n      pop\n      pop\n      jump\t// out\n        /* \"#utility.yul\":7780:8002   */\n    tag_75:\n        /* \"#utility.yul\":7873:7877   */\n      0x00\n        /* \"#utility.yul\":7911:7913   */\n      0x20\n        /* \"#utility.yul\":7900:7909   */\n      dup3\n        /* \"#utility.yul\":7896:7914   */\n      add\n        /* \"#utility.yul\":7888:7914   */\n      swap1\n      pop\n        /* \"#utility.yul\":7924:7995   */\n      tag_703\n        /* \"#utility.yul\":7992:7993   */\n      0x00\n        /* \"#utility.yul\":7981:7990   */\n      dup4\n        /* \"#utility.yul\":7977:7994   */\n      add\n        /* \"#utility.yul\":7968:7974   */\n      dup5\n        /* \"#utility.yul\":7924:7995   */\n      tag_555\n      jump\t// in\n    tag_703:\n        /* \"#utility.yul\":7780:8002   */\n      swap3\n      swap2\n      pop\n      pop\n      jump\t// out\n        /* \"#utility.yul\":8008:8482   */\n    tag_79:\n        /* \"#utility.yul\":8076:8082   */\n      0x00\n        /* \"#utility.yul\":8084:8090   */\n      0x00\n        /* \"#utility.yul\":8133:8135   */\n      0x40\n        /* \"#utility.yul\":8121:8130   */\n      dup4\n        /* \"#utility.yul\":8112:8119   */\n      dup6\n        /* \"#utility.yul\":8108:8131   */\n      sub\n        /* \"#utility.yul\":8104:8136   */\n      slt\n        /* \"#utility.yul\":8101:8220   */\n      iszero\n      tag_705\n      jumpi\n        /* \"#utility.yul\":8139:8218   */\n      tag_706\n      tag_531\n      jump\t// in\n    tag_706:\n        /* \"#utility.yul\":8101:8220   */\n    tag_705:\n        /* \"#utility.yul\":8259:8260   */\n      0x00\n        /* \"#utility.yul\":8284:8337   */\n      tag_707\n        /* \"#utility.yul\":8329:8336   */\n      dup6\n        /* \"#utility.yul\":8320:8326   */\n      dup3\n        /* \"#utility.yul\":8309:8318   */\n      dup7\n        /* \"#utility.yul\":8305:8327   */\n      add\n        /* \"#utility.yul\":8284:8337   */\n      tag_554\n      jump\t// in\n    tag_707:\n        /* \"#utility.yul\":8274:8337   */\n      swap3\n      pop\n        /* \"#utility.yul\":8230:8347   */\n      pop\n        /* \"#utility.yul\":8386:8388   */\n      0x20\n        /* \"#utility.yul\":8412:8465   */\n      tag_708\n        /* \"#utility.yul\":8457:8464   */\n      dup6\n        /* \"#utility.yul\":8448:8454   */\n      dup3\n        /* \"#utility.yul\":8437:8446   */\n      dup7\n        /* \"#utility.yul\":8433:8455   */\n      add\n        /* \"#utility.yul\":8412:8465   */\n      tag_544\n      jump\t// in\n    tag_708:\n        /* \"#utility.yul\":8402:8465   */\n      swap2\n      pop\n        /* \"#utility.yul\":8357:8475   */\n      pop\n        /* \"#utility.yul\":8008:8482   */\n      swap3\n      pop\n      swap3\n      swap1\n      pop\n      jump\t// out\n        /* \"#utility.yul\":8488:8631   */\n    tag_556:\n        /* \"#utility.yul\":8584:8590   */\n      0x00\n        /* \"#utility.yul\":8618:8623   */\n      dup2\n        /* \"#utility.yul\":8612:8624   */\n      mload\n        /* \"#utility.yul\":8602:8624   */\n      swap1\n      pop\n        /* \"#utility.yul\":8488:8631   */\n      swap2\n      swap1\n      pop\n      jump\t// out\n        /* \"#utility.yul\":8637:8850   */\n    tag_557:\n        /* \"#utility.yul\":8765:8776   */\n      0x00\n        /* \"#utility.yul\":8799:8805   */\n      dup3\n        /* \"#utility.yul\":8794:8797   */\n      dup3\n        /* \"#utility.yul\":8787:8806   */\n      mstore\n        /* \"#utility.yul\":8839:8843   */\n      0x20\n        /* \"#utility.yul\":8834:8837   */\n      dup3\n        /* \"#utility.yul\":8830:8844   */\n      add\n        /* \"#utility.yul\":8815:8844   */\n      swap1\n      pop\n        /* \"#utility.yul\":8637:8850   */\n      swap3\n      swap2\n      pop\n      pop\n      jump\t// out\n        /* \"#utility.yul\":8856:9017   */\n    tag_558:\n        /* \"#utility.yul\":8952:8956   */\n      0x00\n        /* \"#utility.yul\":8975:8978   */\n      dup2\n        /* \"#utility.yul\":8967:8978   */\n      swap1\n      pop\n        /* \"#utility.yul\":9005:9009   */\n      0x20\n        /* \"#utility.yul\":9000:9003   */\n      dup3\n        /* \"#utility.yul\":8996:9010   */\n      add\n        /* \"#utility.yul\":8988:9010   */\n      swap1\n      pop\n        /* \"#utility.yul\":8856:9017   */\n      swap2\n      swap1\n      pop\n      jump\t// out\n        /* \"#utility.yul\":9023:9131   */\n    tag_559:\n        /* \"#utility.yul\":9100:9124   */\n      tag_713\n        /* \"#utility.yul\":9118:9123   */\n      dup2\n        /* \"#utility.yul\":9100:9124   */\n      tag_542\n      jump\t// in\n    tag_713:\n        /* \"#utility.yul\":9095:9098   */\n      dup3\n        /* \"#utility.yul\":9088:9125   */\n      mstore\n        /* \"#utility.yul\":9023:9131   */\n      pop\n      pop\n      jump\t// out\n        /* \"#utility.yul\":9137:9245   */\n    tag_560:\n        /* \"#utility.yul\":9214:9238   */\n      tag_715\n        /* \"#utility.yul\":9232:9237   */\n      dup2\n        /* \"#utility.yul\":9214:9238   */\n      tag_538\n      jump\t// in\n    tag_715:\n        /* \"#utility.yul\":9209:9212   */\n      dup3\n        /* \"#utility.yul\":9202:9239   */\n      mstore\n        /* \"#utility.yul\":9137:9245   */\n      pop\n      pop\n      jump\t// out\n        /* \"#utility.yul\":9321:10014   */\n    tag_561:\n        /* \"#utility.yul\":9466:9470   */\n      0x60\n        /* \"#utility.yul\":9461:9464   */\n      dup3\n        /* \"#utility.yul\":9457:9471   */\n      add\n        /* \"#utility.yul\":9560:9564   */\n      0x00\n        /* \"#utility.yul\":9553:9558   */\n      dup3\n        /* \"#utility.yul\":9549:9565   */\n      add\n        /* \"#utility.yul\":9543:9566   */\n      mload\n        /* \"#utility.yul\":9579:9642   */\n      tag_717\n        /* \"#utility.yul\":9636:9640   */\n      0x00\n        /* \"#utility.yul\":9631:9634   */\n      dup6\n        /* \"#utility.yul\":9627:9641   */\n      add\n        /* \"#utility.yul\":9613:9625   */\n      dup3\n        /* \"#utility.yul\":9579:9642   */\n      tag_559\n      jump\t// in\n    tag_717:\n        /* \"#utility.yul\":9481:9652   */\n      pop\n        /* \"#utility.yul\":9736:9740   */\n      0x20\n        /* \"#utility.yul\":9729:9734   */\n      dup3\n        /* \"#utility.yul\":9725:9741   */\n      add\n        /* \"#utility.yul\":9719:9742   */\n      mload\n        /* \"#utility.yul\":9755:9818   */\n      tag_718\n        /* \"#utility.yul\":9812:9816   */\n      0x20\n        /* \"#utility.yul\":9807:9810   */\n      dup6\n        /* \"#utility.yul\":9803:9817   */\n      add\n        /* \"#utility.yul\":9789:9801   */\n      dup3\n        /* \"#utility.yul\":9755:9818   */\n      tag_560\n      jump\t// in\n    tag_718:\n        /* \"#utility.yul\":9662:9828   */\n      pop\n        /* \"#utility.yul\":9915:9919   */\n      0x40\n        /* \"#utility.yul\":9908:9913   */\n      dup3\n        /* \"#utility.yul\":9904:9920   */\n      add\n        /* \"#utility.yul\":9898:9921   */\n      mload\n        /* \"#utility.yul\":9934:9997   */\n      tag_719\n        /* \"#utility.yul\":9991:9995   */\n      0x40\n        /* \"#utility.yul\":9986:9989   */\n      dup6\n        /* \"#utility.yul\":9982:9996   */\n      add\n        /* \"#utility.yul\":9968:9980   */\n      dup3\n        /* \"#utility.yul\":9934:9997   */\n      tag_560\n      jump\t// in\n    tag_719:\n        /* \"#utility.yul\":9838:10007   */\n      pop\n        /* \"#utility.yul\":9435:10014   */\n      pop\n        /* \"#utility.yul\":9321:10014   */\n      pop\n      pop\n      jump\t// out\n        /* \"#utility.yul\":10020:10315   */\n    tag_562:\n        /* \"#utility.yul\":10147:10157   */\n      0x00\n        /* \"#utility.yul\":10168:10272   */\n      tag_721\n        /* \"#utility.yul\":10268:10271   */\n      dup4\n        /* \"#utility.yul\":10260:10266   */\n      dup4\n        /* \"#utility.yul\":10168:10272   */\n      tag_561\n      jump\t// in\n    tag_721:\n        /* \"#utility.yul\":10304:10308   */\n      0x60\n        /* \"#utility.yul\":10299:10302   */\n      dup4\n        /* \"#utility.yul\":10295:10309   */\n      add\n        /* \"#utility.yul\":10281:10309   */\n      swap1\n      pop\n        /* \"#utility.yul\":10020:10315   */\n      swap3\n      swap2\n      pop\n      pop\n      jump\t// out\n        /* \"#utility.yul\":10321:10463   */\n    tag_563:\n        /* \"#utility.yul\":10420:10424   */\n      0x00\n        /* \"#utility.yul\":10452:10456   */\n      0x20\n        /* \"#utility.yul\":10447:10450   */\n      dup3\n        /* \"#utility.yul\":10443:10457   */\n      add\n        /* \"#utility.yul\":10435:10457   */\n      swap1\n      pop\n        /* \"#utility.yul\":10321:10463   */\n      swap2\n      swap1\n      pop\n      jump\t// out\n        /* \"#utility.yul\":10543:11507   */\n    tag_564:\n        /* \"#utility.yul\":10720:10723   */\n      0x00\n        /* \"#utility.yul\":10749:10832   */\n      tag_724\n        /* \"#utility.yul\":10826:10831   */\n      dup3\n        /* \"#utility.yul\":10749:10832   */\n      tag_556\n      jump\t// in\n    tag_724:\n        /* \"#utility.yul\":10848:10963   */\n      tag_725\n        /* \"#utility.yul\":10956:10962   */\n      dup2\n        /* \"#utility.yul\":10951:10954   */\n      dup6\n        /* \"#utility.yul\":10848:10963   */\n      tag_557\n      jump\t// in\n    tag_725:\n        /* \"#utility.yul\":10841:10963   */\n      swap4\n      pop\n        /* \"#utility.yul\":10987:11072   */\n      tag_726\n        /* \"#utility.yul\":11066:11071   */\n      dup4\n        /* \"#utility.yul\":10987:11072   */\n      tag_558\n      jump\t// in\n    tag_726:\n        /* \"#utility.yul\":11095:11102   */\n      dup1\n        /* \"#utility.yul\":11126:11127   */\n      0x00\n        /* \"#utility.yul\":11111:11482   */\n    tag_727:\n        /* \"#utility.yul\":11136:11142   */\n      dup4\n        /* \"#utility.yul\":11133:11134   */\n      dup2\n        /* \"#utility.yul\":11130:11143   */\n      lt\n        /* \"#utility.yul\":11111:11482   */\n      iszero\n      tag_729\n      jumpi\n        /* \"#utility.yul\":11212:11218   */\n      dup2\n        /* \"#utility.yul\":11206:11219   */\n      mload\n        /* \"#utility.yul\":11239:11360   */\n      tag_730\n        /* \"#utility.yul\":11356:11359   */\n      dup9\n        /* \"#utility.yul\":11341:11354   */\n      dup3\n        /* \"#utility.yul\":11239:11360   */\n      tag_562\n      jump\t// in\n    tag_730:\n        /* \"#utility.yul\":11232:11360   */\n      swap8\n      pop\n        /* \"#utility.yul\":11383:11472   */\n      tag_731\n        /* \"#utility.yul\":11465:11471   */\n      dup4\n        /* \"#utility.yul\":11383:11472   */\n      tag_563\n      jump\t// in\n    tag_731:\n        /* \"#utility.yul\":11373:11472   */\n      swap3\n      pop\n        /* \"#utility.yul\":11171:11482   */\n      pop\n        /* \"#utility.yul\":11158:11159   */\n      0x01\n        /* \"#utility.yul\":11155:11156   */\n      dup2\n        /* \"#utility.yul\":11151:11160   */\n      add\n        /* \"#utility.yul\":11146:11160   */\n      swap1\n      pop\n        /* \"#utility.yul\":11111:11482   */\n      jump(tag_727)\n    tag_729:\n        /* \"#utility.yul\":11115:11129   */\n      pop\n        /* \"#utility.yul\":11498:11501   */\n      dup6\n        /* \"#utility.yul\":11491:11501   */\n      swap4\n      pop\n        /* \"#utility.yul\":10725:11507   */\n      pop\n      pop\n      pop\n        /* \"#utility.yul\":10543:11507   */\n      swap3\n      swap2\n      pop\n      pop\n      jump\t// out\n        /* \"#utility.yul\":11513:12002   */\n    tag_94:\n        /* \"#utility.yul\":11714:11718   */\n      0x00\n        /* \"#utility.yul\":11752:11754   */\n      0x20\n        /* \"#utility.yul\":11741:11750   */\n      dup3\n        /* \"#utility.yul\":11737:11755   */\n      add\n        /* \"#utility.yul\":11729:11755   */\n      swap1\n      pop\n        /* \"#utility.yul\":11801:11810   */\n      dup2\n        /* \"#utility.yul\":11795:11799   */\n      dup2\n        /* \"#utility.yul\":11791:11811   */\n      sub\n        /* \"#utility.yul\":11787:11788   */\n      0x00\n        /* \"#utility.yul\":11776:11785   */\n      dup4\n        /* \"#utility.yul\":11772:11789   */\n      add\n        /* \"#utility.yul\":11765:11812   */\n      mstore\n        /* \"#utility.yul\":11829:11995   */\n      tag_733\n        /* \"#utility.yul\":11990:11994   */\n      dup2\n        /* \"#utility.yul\":11981:11987   */\n      dup5\n        /* \"#utility.yul\":11829:11995   */\n      tag_564\n      jump\t// in\n    tag_733:\n        /* \"#utility.yul\":11821:11995   */\n      swap1\n      pop\n        /* \"#utility.yul\":11513:12002   */\n      swap3\n      swap2\n      pop\n      pop\n      jump\t// out\n        /* \"#utility.yul\":12008:12337   */\n    tag_135:\n        /* \"#utility.yul\":12067:12073   */\n      0x00\n        /* \"#utility.yul\":12116:12118   */\n      0x20\n        /* \"#utility.yul\":12104:12113   */\n      dup3\n        /* \"#utility.yul\":12095:12102   */\n      dup5\n        /* \"#utility.yul\":12091:12114   */\n      sub\n        /* \"#utility.yul\":12087:12119   */\n      slt\n        /* \"#utility.yul\":12084:12203   */\n      iszero\n      tag_735\n      jumpi\n        /* \"#utility.yul\":12122:12201   */\n      tag_736\n      tag_531\n      jump\t// in\n    tag_736:\n        /* \"#utility.yul\":12084:12203   */\n    tag_735:\n        /* \"#utility.yul\":12242:12243   */\n      0x00\n        /* \"#utility.yul\":12267:12320   */\n      tag_737\n        /* \"#utility.yul\":12312:12319   */\n      dup5\n        /* \"#utility.yul\":12303:12309   */\n      dup3\n        /* \"#utility.yul\":12292:12301   */\n      dup6\n        /* \"#utility.yul\":12288:12310   */\n      add\n        /* \"#utility.yul\":12267:12320   */\n      tag_544\n      jump\t// in\n    tag_737:\n        /* \"#utility.yul\":12257:12320   */\n      swap2\n      pop\n        /* \"#utility.yul\":12213:12330   */\n      pop\n        /* \"#utility.yul\":12008:12337   */\n      swap3\n      swap2\n      pop\n      pop\n      jump\t// out\n        /* \"#utility.yul\":12343:12457   */\n    tag_565:\n        /* \"#utility.yul\":12410:12416   */\n      0x00\n        /* \"#utility.yul\":12444:12449   */\n      dup2\n        /* \"#utility.yul\":12438:12450   */\n      mload\n        /* \"#utility.yul\":12428:12450   */\n      swap1\n      pop\n        /* \"#utility.yul\":12343:12457   */\n      swap2\n      swap1\n      pop\n      jump\t// out\n        /* \"#utility.yul\":12463:12647   */\n    tag_566:\n        /* \"#utility.yul\":12562:12573   */\n      0x00\n        /* \"#utility.yul\":12596:12602   */\n      dup3\n        /* \"#utility.yul\":12591:12594   */\n      dup3\n        /* \"#utility.yul\":12584:12603   */\n      mstore\n        /* \"#utility.yul\":12636:12640   */\n      0x20\n        /* \"#utility.yul\":12631:12634   */\n      dup3\n        /* \"#utility.yul\":12627:12641   */\n      add\n        /* \"#utility.yul\":12612:12641   */\n      swap1\n      pop\n        /* \"#utility.yul\":12463:12647   */\n      swap3\n      swap2\n      pop\n      pop\n      jump\t// out\n        /* \"#utility.yul\":12653:12785   */\n    tag_567:\n        /* \"#utility.yul\":12720:12724   */\n      0x00\n        /* \"#utility.yul\":12743:12746   */\n      dup2\n        /* \"#utility.yul\":12735:12746   */\n      swap1\n      pop\n        /* \"#utility.yul\":12773:12777   */\n      0x20\n        /* \"#utility.yul\":12768:12771   */\n      dup3\n        /* \"#utility.yul\":12764:12778   */\n      add\n        /* \"#utility.yul\":12756:12778   */\n      swap1\n      pop\n        /* \"#utility.yul\":12653:12785   */\n      swap2\n      swap1\n      pop\n      jump\t// out\n        /* \"#utility.yul\":12791:12970   */\n    tag_568:\n        /* \"#utility.yul\":12860:12870   */\n      0x00\n        /* \"#utility.yul\":12881:12927   */\n      tag_742\n        /* \"#utility.yul\":12923:12926   */\n      dup4\n        /* \"#utility.yul\":12915:12921   */\n      dup4\n        /* \"#utility.yul\":12881:12927   */\n      tag_559\n      jump\t// in\n    tag_742:\n        /* \"#utility.yul\":12959:12963   */\n      0x20\n        /* \"#utility.yul\":12954:12957   */\n      dup4\n        /* \"#utility.yul\":12950:12964   */\n      add\n        /* \"#utility.yul\":12936:12964   */\n      swap1\n      pop\n        /* \"#utility.yul\":12791:12970   */\n      swap3\n      swap2\n      pop\n      pop\n      jump\t// out\n        /* \"#utility.yul\":12976:13089   */\n    tag_569:\n        /* \"#utility.yul\":13046:13050   */\n      0x00\n        /* \"#utility.yul\":13078:13082   */\n      0x20\n        /* \"#utility.yul\":13073:13076   */\n      dup3\n        /* \"#utility.yul\":13069:13083   */\n      add\n        /* \"#utility.yul\":13061:13083   */\n      swap1\n      pop\n        /* \"#utility.yul\":12976:13089   */\n      swap2\n      swap1\n      pop\n      jump\t// out\n        /* \"#utility.yul\":13125:13857   */\n    tag_570:\n        /* \"#utility.yul\":13244:13247   */\n      0x00\n        /* \"#utility.yul\":13273:13327   */\n      tag_745\n        /* \"#utility.yul\":13321:13326   */\n      dup3\n        /* \"#utility.yul\":13273:13327   */\n      tag_565\n      jump\t// in\n    tag_745:\n        /* \"#utility.yul\":13343:13429   */\n      tag_746\n        /* \"#utility.yul\":13422:13428   */\n      dup2\n        /* \"#utility.yul\":13417:13420   */\n      dup6\n        /* \"#utility.yul\":13343:13429   */\n      tag_566\n      jump\t// in\n    tag_746:\n        /* \"#utility.yul\":13336:13429   */\n      swap4\n      pop\n        /* \"#utility.yul\":13453:13509   */\n      tag_747\n        /* \"#utility.yul\":13503:13508   */\n      dup4\n        /* \"#utility.yul\":13453:13509   */\n      tag_567\n      jump\t// in\n    tag_747:\n        /* \"#utility.yul\":13532:13539   */\n      dup1\n        /* \"#utility.yul\":13563:13564   */\n      0x00\n        /* \"#utility.yul\":13548:13832   */\n    tag_748:\n        /* \"#utility.yul\":13573:13579   */\n      dup4\n        /* \"#utility.yul\":13570:13571   */\n      dup2\n        /* \"#utility.yul\":13567:13580   */\n      lt\n        /* \"#utility.yul\":13548:13832   */\n      iszero\n      tag_750\n      jumpi\n        /* \"#utility.yul\":13649:13655   */\n      dup2\n        /* \"#utility.yul\":13643:13656   */\n      mload\n        /* \"#utility.yul\":13676:13739   */\n      tag_751\n        /* \"#utility.yul\":13735:13738   */\n      dup9\n        /* \"#utility.yul\":13720:13733   */\n      dup3\n        /* \"#utility.yul\":13676:13739   */\n      tag_568\n      jump\t// in\n    tag_751:\n        /* \"#utility.yul\":13669:13739   */\n      swap8\n      pop\n        /* \"#utility.yul\":13762:13822   */\n      tag_752\n        /* \"#utility.yul\":13815:13821   */\n      dup4\n        /* \"#utility.yul\":13762:13822   */\n      tag_569\n      jump\t// in\n    tag_752:\n        /* \"#utility.yul\":13752:13822   */\n      swap3\n      pop\n        /* \"#utility.yul\":13608:13832   */\n      pop\n        /* \"#utility.yul\":13595:13596   */\n      0x01\n        /* \"#utility.yul\":13592:13593   */\n      dup2\n        /* \"#utility.yul\":13588:13597   */\n      add\n        /* \"#utility.yul\":13583:13597   */\n      swap1\n      pop\n        /* \"#utility.yul\":13548:13832   */\n      jump(tag_748)\n    tag_750:\n        /* \"#utility.yul\":13552:13566   */\n      pop\n        /* \"#utility.yul\":13848:13851   */\n      dup6\n        /* \"#utility.yul\":13841:13851   */\n      swap4\n      pop\n        /* \"#utility.yul\":13249:13857   */\n      pop\n      pop\n      pop\n        /* \"#utility.yul\":13125:13857   */\n      swap3\n      swap2\n      pop\n      pop\n      jump\t// out\n        /* \"#utility.yul\":13863:14236   */\n    tag_172:\n        /* \"#utility.yul\":14006:14010   */\n      0x00\n        /* \"#utility.yul\":14044:14046   */\n      0x20\n        /* \"#utility.yul\":14033:14042   */\n      dup3\n        /* \"#utility.yul\":14029:14047   */\n      add\n        /* \"#utility.yul\":14021:14047   */\n      swap1\n      pop\n        /* \"#utility.yul\":14093:14102   */\n      dup2\n        /* \"#utility.yul\":14087:14091   */\n      dup2\n        /* \"#utility.yul\":14083:14103   */\n      sub\n        /* \"#utility.yul\":14079:14080   */\n      0x00\n        /* \"#utility.yul\":14068:14077   */\n      dup4\n        /* \"#utility.yul\":14064:14081   */\n      add\n        /* \"#utility.yul\":14057:14104   */\n      mstore\n        /* \"#utility.yul\":14121:14229   */\n      tag_754\n        /* \"#utility.yul\":14224:14228   */\n      dup2\n        /* \"#utility.yul\":14215:14221   */\n      dup5\n        /* \"#utility.yul\":14121:14229   */\n      tag_570\n      jump\t// in\n    tag_754:\n        /* \"#utility.yul\":14113:14229   */\n      swap1\n      pop\n        /* \"#utility.yul\":13863:14236   */\n      swap3\n      swap2\n      pop\n      pop\n      jump\t// out\n        /* \"#utility.yul\":14242:15429   */\n    tag_182:\n        /* \"#utility.yul\":14573:14577   */\n      0x00\n        /* \"#utility.yul\":14611:14614   */\n      0x0120\n        /* \"#utility.yul\":14600:14609   */\n      dup3\n        /* \"#utility.yul\":14596:14615   */\n      add\n        /* \"#utility.yul\":14588:14615   */\n      swap1\n      pop\n        /* \"#utility.yul\":14661:14670   */\n      dup2\n        /* \"#utility.yul\":14655:14659   */\n      dup2\n        /* \"#utility.yul\":14651:14671   */\n      sub\n        /* \"#utility.yul\":14647:14648   */\n      0x00\n        /* \"#utility.yul\":14636:14645   */\n      dup4\n        /* \"#utility.yul\":14632:14649   */\n      add\n        /* \"#utility.yul\":14625:14672   */\n      mstore\n        /* \"#utility.yul\":14689:14767   */\n      tag_756\n        /* \"#utility.yul\":14762:14766   */\n      dup2\n        /* \"#utility.yul\":14753:14759   */\n      dup13\n        /* \"#utility.yul\":14689:14767   */\n      tag_550\n      jump\t// in\n    tag_756:\n        /* \"#utility.yul\":14681:14767   */\n      swap1\n      pop\n        /* \"#utility.yul\":14777:14849   */\n      tag_757\n        /* \"#utility.yul\":14845:14847   */\n      0x20\n        /* \"#utility.yul\":14834:14843   */\n      dup4\n        /* \"#utility.yul\":14830:14848   */\n      add\n        /* \"#utility.yul\":14821:14827   */\n      dup12\n        /* \"#utility.yul\":14777:14849   */\n      tag_545\n      jump\t// in\n    tag_757:\n        /* \"#utility.yul\":14859:14931   */\n      tag_758\n        /* \"#utility.yul\":14927:14929   */\n      0x40\n        /* \"#utility.yul\":14916:14925   */\n      dup4\n        /* \"#utility.yul\":14912:14930   */\n      add\n        /* \"#utility.yul\":14903:14909   */\n      dup11\n        /* \"#utility.yul\":14859:14931   */\n      tag_545\n      jump\t// in\n    tag_758:\n        /* \"#utility.yul\":14941:15013   */\n      tag_759\n        /* \"#utility.yul\":15009:15011   */\n      0x60\n        /* \"#utility.yul\":14998:15007   */\n      dup4\n        /* \"#utility.yul\":14994:15012   */\n      add\n        /* \"#utility.yul\":14985:14991   */\n      dup10\n        /* \"#utility.yul\":14941:15013   */\n      tag_545\n      jump\t// in\n    tag_759:\n        /* \"#utility.yul\":15023:15096   */\n      tag_760\n        /* \"#utility.yul\":15091:15094   */\n      0x80\n        /* \"#utility.yul\":15080:15089   */\n      dup4\n        /* \"#utility.yul\":15076:15095   */\n      add\n        /* \"#utility.yul\":15067:15073   */\n      dup9\n        /* \"#utility.yul\":15023:15096   */\n      tag_545\n      jump\t// in\n    tag_760:\n        /* \"#utility.yul\":15106:15173   */\n      tag_761\n        /* \"#utility.yul\":15168:15171   */\n      0xa0\n        /* \"#utility.yul\":15157:15166   */\n      dup4\n        /* \"#utility.yul\":15153:15172   */\n      add\n        /* \"#utility.yul\":15144:15150   */\n      dup8\n        /* \"#utility.yul\":15106:15173   */\n      tag_537\n      jump\t// in\n    tag_761:\n        /* \"#utility.yul\":15183:15256   */\n      tag_762\n        /* \"#utility.yul\":15251:15254   */\n      0xc0\n        /* \"#utility.yul\":15240:15249   */\n      dup4\n        /* \"#utility.yul\":15236:15255   */\n      add\n        /* \"#utility.yul\":15227:15233   */\n      dup7\n        /* \"#utility.yul\":15183:15256   */\n      tag_545\n      jump\t// in\n    tag_762:\n        /* \"#utility.yul\":15266:15339   */\n      tag_763\n        /* \"#utility.yul\":15334:15337   */\n      0xe0\n        /* \"#utility.yul\":15323:15332   */\n      dup4\n        /* \"#utility.yul\":15319:15338   */\n      add\n        /* \"#utility.yul\":15310:15316   */\n      dup6\n        /* \"#utility.yul\":15266:15339   */\n      tag_545\n      jump\t// in\n    tag_763:\n        /* \"#utility.yul\":15349:15422   */\n      tag_764\n        /* \"#utility.yul\":15417:15420   */\n      0x0100\n        /* \"#utility.yul\":15406:15415   */\n      dup4\n        /* \"#utility.yul\":15402:15421   */\n      add\n        /* \"#utility.yul\":15393:15399   */\n      dup5\n        /* \"#utility.yul\":15349:15422   */\n      tag_545\n      jump\t// in\n    tag_764:\n        /* \"#utility.yul\":14242:15429   */\n      swap11\n      swap10\n      pop\n      pop\n      pop\n      pop\n      pop\n      pop\n      pop\n      pop\n      pop\n      pop\n      jump\t// out\n        /* \"#utility.yul\":15435:15552   */\n    tag_571:\n        /* \"#utility.yul\":15544:15545   */\n      0x00\n        /* \"#utility.yul\":15541:15542   */\n      0x00\n        /* \"#utility.yul\":15534:15546   */\n      revert\n        /* \"#utility.yul\":15558:15675   */\n    tag_572:\n        /* \"#utility.yul\":15667:15668   */\n      0x00\n        /* \"#utility.yul\":15664:15665   */\n      0x00\n        /* \"#utility.yul\":15657:15669   */\n      revert\n        /* \"#utility.yul\":15681:15861   */\n    tag_366:\n        /* \"#utility.yul\":15729:15806   */\n      0x4e487b7100000000000000000000000000000000000000000000000000000000\n        /* \"#utility.yul\":15726:15727   */\n      0x00\n        /* \"#utility.yul\":15719:15807   */\n      mstore\n        /* \"#utility.yul\":15826:15830   */\n      0x41\n        /* \"#utility.yul\":15823:15824   */\n      0x04\n        /* \"#utility.yul\":15816:15831   */\n      mstore\n        /* \"#utility.yul\":15850:15854   */\n      0x24\n        /* \"#utility.yul\":15847:15848   */\n      0x00\n        /* \"#utility.yul\":15840:15855   */\n      revert\n        /* \"#utility.yul\":15867:16148   */\n    tag_573:\n        /* \"#utility.yul\":15950:15977   */\n      tag_769\n        /* \"#utility.yul\":15972:15976   */\n      dup3\n        /* \"#utility.yul\":15950:15977   */\n      tag_549\n      jump\t// in\n    tag_769:\n        /* \"#utility.yul\":15942:15948   */\n      dup2\n        /* \"#utility.yul\":15938:15978   */\n      add\n        /* \"#utility.yul\":16080:16086   */\n      dup2\n        /* \"#utility.yul\":16068:16078   */\n      dup2\n        /* \"#utility.yul\":16065:16087   */\n      lt\n        /* \"#utility.yul\":16044:16062   */\n      0xffffffffffffffff\n        /* \"#utility.yul\":16032:16042   */\n      dup3\n        /* \"#utility.yul\":16029:16063   */\n      gt\n        /* \"#utility.yul\":16026:16088   */\n      or\n        /* \"#utility.yul\":16023:16111   */\n      iszero\n      tag_770\n      jumpi\n        /* \"#utility.yul\":16091:16109   */\n      tag_771\n      tag_366\n      jump\t// in\n    tag_771:\n        /* \"#utility.yul\":16023:16111   */\n    tag_770:\n        /* \"#utility.yul\":16131:16141   */\n      dup1\n        /* \"#utility.yul\":16127:16129   */\n      0x40\n        /* \"#utility.yul\":16120:16142   */\n      mstore\n        /* \"#utility.yul\":15910:16148   */\n      pop\n        /* \"#utility.yul\":15867:16148   */\n      pop\n      pop\n      jump\t// out\n        /* \"#utility.yul\":16154:16283   */\n    tag_574:\n        /* \"#utility.yul\":16188:16194   */\n      0x00\n        /* \"#utility.yul\":16215:16235   */\n      tag_773\n      tag_530\n      jump\t// in\n    tag_773:\n        /* \"#utility.yul\":16205:16235   */\n      swap1\n      pop\n        /* \"#utility.yul\":16244:16277   */\n      tag_774\n        /* \"#utility.yul\":16272:16276   */\n      dup3\n        /* \"#utility.yul\":16264:16270   */\n      dup3\n        /* \"#utility.yul\":16244:16277   */\n      tag_573\n      jump\t// in\n    tag_774:\n        /* \"#utility.yul\":16154:16283   */\n      swap2\n      swap1\n      pop\n      jump\t// out\n        /* \"#utility.yul\":16289:16597   */\n    tag_575:\n        /* \"#utility.yul\":16351:16355   */\n      0x00\n        /* \"#utility.yul\":16441:16459   */\n      0xffffffffffffffff\n        /* \"#utility.yul\":16433:16439   */\n      dup3\n        /* \"#utility.yul\":16430:16460   */\n      gt\n        /* \"#utility.yul\":16427:16483   */\n      iszero\n      tag_776\n      jumpi\n        /* \"#utility.yul\":16463:16481   */\n      tag_777\n      tag_366\n      jump\t// in\n    tag_777:\n        /* \"#utility.yul\":16427:16483   */\n    tag_776:\n        /* \"#utility.yul\":16501:16530   */\n      tag_778\n        /* \"#utility.yul\":16523:16529   */\n      dup3\n        /* \"#utility.yul\":16501:16530   */\n      tag_549\n      jump\t// in\n    tag_778:\n        /* \"#utility.yul\":16493:16530   */\n      swap1\n      pop\n        /* \"#utility.yul\":16585:16589   */\n      0x20\n        /* \"#utility.yul\":16579:16583   */\n      dup2\n        /* \"#utility.yul\":16575:16590   */\n      add\n        /* \"#utility.yul\":16567:16590   */\n      swap1\n      pop\n        /* \"#utility.yul\":16289:16597   */\n      swap2\n      swap1\n      pop\n      jump\t// out\n        /* \"#utility.yul\":16603:16751   */\n    tag_576:\n        /* \"#utility.yul\":16701:16707   */\n      dup3\n        /* \"#utility.yul\":16696:16699   */\n      dup2\n        /* \"#utility.yul\":16691:16694   */\n      dup4\n        /* \"#utility.yul\":16678:16708   */\n      calldatacopy\n        /* \"#utility.yul\":16742:16743   */\n      0x00\n        /* \"#utility.yul\":16733:16739   */\n      dup4\n        /* \"#utility.yul\":16728:16731   */\n      dup4\n        /* \"#utility.yul\":16724:16740   */\n      add\n        /* \"#utility.yul\":16717:16744   */\n      mstore\n        /* \"#utility.yul\":16603:16751   */\n      pop\n      pop\n      pop\n      jump\t// out\n        /* \"#utility.yul\":16757:17182   */\n    tag_577:\n        /* \"#utility.yul\":16835:16840   */\n      0x00\n        /* \"#utility.yul\":16860:16926   */\n      tag_781\n        /* \"#utility.yul\":16876:16925   */\n      tag_782\n        /* \"#utility.yul\":16918:16924   */\n      dup5\n        /* \"#utility.yul\":16876:16925   */\n      tag_575\n      jump\t// in\n    tag_782:\n        /* \"#utility.yul\":16860:16926   */\n      tag_574\n      jump\t// in\n    tag_781:\n        /* \"#utility.yul\":16851:16926   */\n      swap1\n      pop\n        /* \"#utility.yul\":16949:16955   */\n      dup3\n        /* \"#utility.yul\":16942:16947   */\n      dup2\n        /* \"#utility.yul\":16935:16956   */\n      mstore\n        /* \"#utility.yul\":16987:16991   */\n      0x20\n        /* \"#utility.yul\":16980:16985   */\n      dup2\n        /* \"#utility.yul\":16976:16992   */\n      add\n        /* \"#utility.yul\":17025:17028   */\n      dup5\n        /* \"#utility.yul\":17016:17022   */\n      dup5\n        /* \"#utility.yul\":17011:17014   */\n      dup5\n        /* \"#utility.yul\":17007:17023   */\n      add\n        /* \"#utility.yul\":17004:17029   */\n      gt\n        /* \"#utility.yul\":17001:17113   */\n      iszero\n      tag_783\n      jumpi\n        /* \"#utility.yul\":17032:17111   */\n      tag_784\n      tag_572\n      jump\t// in\n    tag_784:\n        /* \"#utility.yul\":17001:17113   */\n    tag_783:\n        /* \"#utility.yul\":17122:17176   */\n      tag_785\n        /* \"#utility.yul\":17169:17175   */\n      dup5\n        /* \"#utility.yul\":17164:17167   */\n      dup3\n        /* \"#utility.yul\":17159:17162   */\n      dup6\n        /* \"#utility.yul\":17122:17176   */\n      tag_576\n      jump\t// in\n    tag_785:\n        /* \"#utility.yul\":16841:17182   */\n      pop\n        /* \"#utility.yul\":16757:17182   */\n      swap4\n      swap3\n      pop\n      pop\n      pop\n      jump\t// out\n        /* \"#utility.yul\":17202:17542   */\n    tag_578:\n        /* \"#utility.yul\":17258:17263   */\n      0x00\n        /* \"#utility.yul\":17307:17310   */\n      dup3\n        /* \"#utility.yul\":17300:17304   */\n      0x1f\n        /* \"#utility.yul\":17292:17298   */\n      dup4\n        /* \"#utility.yul\":17288:17305   */\n      add\n        /* \"#utility.yul\":17284:17311   */\n      slt\n        /* \"#utility.yul\":17274:17396   */\n      tag_787\n      jumpi\n        /* \"#utility.yul\":17315:17394   */\n      tag_788\n      tag_571\n      jump\t// in\n    tag_788:\n        /* \"#utility.yul\":17274:17396   */\n    tag_787:\n        /* \"#utility.yul\":17432:17438   */\n      dup2\n        /* \"#utility.yul\":17419:17439   */\n      calldataload\n        /* \"#utility.yul\":17457:17536   */\n      tag_789\n        /* \"#utility.yul\":17532:17535   */\n      dup5\n        /* \"#utility.yul\":17524:17530   */\n      dup3\n        /* \"#utility.yul\":17517:17521   */\n      0x20\n        /* \"#utility.yul\":17509:17515   */\n      dup7\n        /* \"#utility.yul\":17505:17522   */\n      add\n        /* \"#utility.yul\":17457:17536   */\n      tag_577\n      jump\t// in\n    tag_789:\n        /* \"#utility.yul\":17448:17536   */\n      swap2\n      pop\n        /* \"#utility.yul\":17264:17542   */\n      pop\n        /* \"#utility.yul\":17202:17542   */\n      swap3\n      swap2\n      pop\n      pop\n      jump\t// out\n        /* \"#utility.yul\":17548:18493   */\n    tag_189:\n        /* \"#utility.yul\":17644:17650   */\n      0x00\n        /* \"#utility.yul\":17652:17658   */\n      0x00\n        /* \"#utility.yul\":17660:17666   */\n      0x00\n        /* \"#utility.yul\":17668:17674   */\n      0x00\n        /* \"#utility.yul\":17717:17720   */\n      0x80\n        /* \"#utility.yul\":17705:17714   */\n      dup6\n        /* \"#utility.yul\":17696:17703   */\n      dup8\n        /* \"#utility.yul\":17692:17715   */\n      sub\n        /* \"#utility.yul\":17688:17721   */\n      slt\n        /* \"#utility.yul\":17685:17805   */\n      iszero\n      tag_791\n      jumpi\n        /* \"#utility.yul\":17724:17803   */\n      tag_792\n      tag_531\n      jump\t// in\n    tag_792:\n        /* \"#utility.yul\":17685:17805   */\n    tag_791:\n        /* \"#utility.yul\":17872:17873   */\n      0x00\n        /* \"#utility.yul\":17861:17870   */\n      dup6\n        /* \"#utility.yul\":17857:17874   */\n      add\n        /* \"#utility.yul\":17844:17875   */\n      calldataload\n        /* \"#utility.yul\":17902:17920   */\n      0xffffffffffffffff\n        /* \"#utility.yul\":17894:17900   */\n      dup2\n        /* \"#utility.yul\":17891:17921   */\n      gt\n        /* \"#utility.yul\":17888:18005   */\n      iszero\n      tag_793\n      jumpi\n        /* \"#utility.yul\":17924:18003   */\n      tag_794\n      tag_532\n      jump\t// in\n    tag_794:\n        /* \"#utility.yul\":17888:18005   */\n    tag_793:\n        /* \"#utility.yul\":18029:18092   */\n      tag_795\n        /* \"#utility.yul\":18084:18091   */\n      dup8\n        /* \"#utility.yul\":18075:18081   */\n      dup3\n        /* \"#utility.yul\":18064:18073   */\n      dup9\n        /* \"#utility.yul\":18060:18082   */\n      add\n        /* \"#utility.yul\":18029:18092   */\n      tag_578\n      jump\t// in\n    tag_795:\n        /* \"#utility.yul\":18019:18092   */\n      swap5\n      pop\n        /* \"#utility.yul\":17815:18102   */\n      pop\n        /* \"#utility.yul\":18141:18143   */\n      0x20\n        /* \"#utility.yul\":18167:18220   */\n      tag_796\n        /* \"#utility.yul\":18212:18219   */\n      dup8\n        /* \"#utility.yul\":18203:18209   */\n      dup3\n        /* \"#utility.yul\":18192:18201   */\n      dup9\n        /* \"#utility.yul\":18188:18210   */\n      add\n        /* \"#utility.yul\":18167:18220   */\n      tag_540\n      jump\t// in\n    tag_796:\n        /* \"#utility.yul\":18157:18220   */\n      swap4\n      pop\n        /* \"#utility.yul\":18112:18230   */\n      pop\n        /* \"#utility.yul\":18269:18271   */\n      0x40\n        /* \"#utility.yul\":18295:18348   */\n      tag_797\n        /* \"#utility.yul\":18340:18347   */\n      dup8\n        /* \"#utility.yul\":18331:18337   */\n      dup3\n        /* \"#utility.yul\":18320:18329   */\n      dup9\n        /* \"#utility.yul\":18316:18338   */\n      add\n        /* \"#utility.yul\":18295:18348   */\n      tag_540\n      jump\t// in\n    tag_797:\n        /* \"#utility.yul\":18285:18348   */\n      swap3\n      pop\n        /* \"#utility.yul\":18240:18358   */\n      pop\n        /* \"#utility.yul\":18397:18399   */\n      0x60\n        /* \"#utility.yul\":18423:18476   */\n      tag_798\n        /* \"#utility.yul\":18468:18475   */\n      dup8\n        /* \"#utility.yul\":18459:18465   */\n      dup3\n        /* \"#utility.yul\":18448:18457   */\n      dup9\n        /* \"#utility.yul\":18444:18466   */\n      add\n        /* \"#utility.yul\":18423:18476   */\n      tag_540\n      jump\t// in\n    tag_798:\n        /* \"#utility.yul\":18413:18476   */\n      swap2\n      pop\n        /* \"#utility.yul\":18368:18486   */\n      pop\n        /* \"#utility.yul\":17548:18493   */\n      swap3\n      swap6\n      swap2\n      swap5\n      pop\n      swap3\n      pop\n      jump\t// out\n        /* \"#utility.yul\":18499:18973   */\n    tag_194:\n        /* \"#utility.yul\":18567:18573   */\n      0x00\n        /* \"#utility.yul\":18575:18581   */\n      0x00\n        /* \"#utility.yul\":18624:18626   */\n      0x40\n        /* \"#utility.yul\":18612:18621   */\n      dup4\n        /* \"#utility.yul\":18603:18610   */\n      dup6\n        /* \"#utility.yul\":18599:18622   */\n      sub\n        /* \"#utility.yul\":18595:18627   */\n      slt\n        /* \"#utility.yul\":18592:18711   */\n      iszero\n      tag_800\n      jumpi\n        /* \"#utility.yul\":18630:18709   */\n      tag_801\n      tag_531\n      jump\t// in\n    tag_801:\n        /* \"#utility.yul\":18592:18711   */\n    tag_800:\n        /* \"#utility.yul\":18750:18751   */\n      0x00\n        /* \"#utility.yul\":18775:18828   */\n      tag_802\n        /* \"#utility.yul\":18820:18827   */\n      dup6\n        /* \"#utility.yul\":18811:18817   */\n      dup3\n        /* \"#utility.yul\":18800:18809   */\n      dup7\n        /* \"#utility.yul\":18796:18818   */\n      add\n        /* \"#utility.yul\":18775:18828   */\n      tag_540\n      jump\t// in\n    tag_802:\n        /* \"#utility.yul\":18765:18828   */\n      swap3\n      pop\n        /* \"#utility.yul\":18721:18838   */\n      pop\n        /* \"#utility.yul\":18877:18879   */\n      0x20\n        /* \"#utility.yul\":18903:18956   */\n      tag_803\n        /* \"#utility.yul\":18948:18955   */\n      dup6\n        /* \"#utility.yul\":18939:18945   */\n      dup3\n        /* \"#utility.yul\":18928:18937   */\n      dup7\n        /* \"#utility.yul\":18924:18946   */\n      add\n        /* \"#utility.yul\":18903:18956   */\n      tag_540\n      jump\t// in\n    tag_803:\n        /* \"#utility.yul\":18893:18956   */\n      swap2\n      pop\n        /* \"#utility.yul\":18848:18966   */\n      pop\n        /* \"#utility.yul\":18499:18973   */\n      swap3\n      pop\n      swap3\n      swap1\n      pop\n      jump\t// out\n        /* \"#utility.yul\":18979:19409   */\n    tag_197:\n        /* \"#utility.yul\":19122:19126   */\n      0x00\n        /* \"#utility.yul\":19160:19162   */\n      0x60\n        /* \"#utility.yul\":19149:19158   */\n      dup3\n        /* \"#utility.yul\":19145:19163   */\n      add\n        /* \"#utility.yul\":19137:19163   */\n      swap1\n      pop\n        /* \"#utility.yul\":19173:19244   */\n      tag_805\n        /* \"#utility.yul\":19241:19242   */\n      0x00\n        /* \"#utility.yul\":19230:19239   */\n      dup4\n        /* \"#utility.yul\":19226:19243   */\n      add\n        /* \"#utility.yul\":19217:19223   */\n      dup7\n        /* \"#utility.yul\":19173:19244   */\n      tag_545\n      jump\t// in\n    tag_805:\n        /* \"#utility.yul\":19254:19326   */\n      tag_806\n        /* \"#utility.yul\":19322:19324   */\n      0x20\n        /* \"#utility.yul\":19311:19320   */\n      dup4\n        /* \"#utility.yul\":19307:19325   */\n      add\n        /* \"#utility.yul\":19298:19304   */\n      dup6\n        /* \"#utility.yul\":19254:19326   */\n      tag_551\n      jump\t// in\n    tag_806:\n        /* \"#utility.yul\":19336:19402   */\n      tag_807\n        /* \"#utility.yul\":19398:19400   */\n      0x40\n        /* \"#utility.yul\":19387:19396   */\n      dup4\n        /* \"#utility.yul\":19383:19401   */\n      add\n        /* \"#utility.yul\":19374:19380   */\n      dup5\n        /* \"#utility.yul\":19336:19402   */\n      tag_537\n      jump\t// in\n    tag_807:\n        /* \"#utility.yul\":18979:19409   */\n      swap5\n      swap4\n      pop\n      pop\n      pop\n      pop\n      jump\t// out\n        /* \"#utility.yul\":19415:19595   */\n    tag_579:\n        /* \"#utility.yul\":19463:19540   */\n      0x4e487b7100000000000000000000000000000000000000000000000000000000\n        /* \"#utility.yul\":19460:19461   */\n      0x00\n        /* \"#utility.yul\":19453:19541   */\n      mstore\n        /* \"#utility.yul\":19560:19564   */\n      0x22\n        /* \"#utility.yul\":19557:19558   */\n      0x04\n        /* \"#utility.yul\":19550:19565   */\n      mstore\n        /* \"#utility.yul\":19584:19588   */\n      0x24\n        /* \"#utility.yul\":19581:19582   */\n      0x00\n        /* \"#utility.yul\":19574:19589   */\n      revert\n        /* \"#utility.yul\":19601:19921   */\n    tag_203:\n        /* \"#utility.yul\":19645:19651   */\n      0x00\n        /* \"#utility.yul\":19682:19683   */\n      0x02\n        /* \"#utility.yul\":19676:19680   */\n      dup3\n        /* \"#utility.yul\":19672:19684   */\n      div\n        /* \"#utility.yul\":19662:19684   */\n      swap1\n      pop\n        /* \"#utility.yul\":19729:19730   */\n      0x01\n        /* \"#utility.yul\":19723:19727   */\n      dup3\n        /* \"#utility.yul\":19719:19731   */\n      and\n        /* \"#utility.yul\":19750:19768   */\n      dup1\n        /* \"#utility.yul\":19740:19821   */\n      tag_810\n      jumpi\n        /* \"#utility.yul\":19806:19810   */\n      0x7f\n        /* \"#utility.yul\":19798:19804   */\n      dup3\n        /* \"#utility.yul\":19794:19811   */\n      and\n        /* \"#utility.yul\":19784:19811   */\n      swap2\n      pop\n        /* \"#utility.yul\":19740:19821   */\n    tag_810:\n        /* \"#utility.yul\":19868:19870   */\n      0x20\n        /* \"#utility.yul\":19860:19866   */\n      dup3\n        /* \"#utility.yul\":19857:19871   */\n      lt\n        /* \"#utility.yul\":19837:19855   */\n      dup2\n        /* \"#utility.yul\":19834:19872   */\n      sub\n        /* \"#utility.yul\":19831:19915   */\n      tag_811\n      jumpi\n        /* \"#utility.yul\":19887:19905   */\n      tag_812\n      tag_579\n      jump\t// in\n    tag_812:\n        /* \"#utility.yul\":19831:19915   */\n    tag_811:\n        /* \"#utility.yul\":19652:19921   */\n      pop\n        /* \"#utility.yul\":19601:19921   */\n      swap2\n      swap1\n      pop\n      jump\t// out\n        /* \"#utility.yul\":19927:20107   */\n    tag_580:\n        /* \"#utility.yul\":19975:20052   */\n      0x4e487b7100000000000000000000000000000000000000000000000000000000\n        /* \"#utility.yul\":19972:19973   */\n      0x00\n        /* \"#utility.yul\":19965:20053   */\n      mstore\n        /* \"#utility.yul\":20072:20076   */\n      0x11\n        /* \"#utility.yul\":20069:20070   */\n      0x04\n        /* \"#utility.yul\":20062:20077   */\n      mstore\n        /* \"#utility.yul\":20096:20100   */\n      0x24\n        /* \"#utility.yul\":20093:20094   */\n      0x00\n        /* \"#utility.yul\":20086:20101   */\n      revert\n        /* \"#utility.yul\":20113:20304   */\n    tag_227:\n        /* \"#utility.yul\":20153:20156   */\n      0x00\n        /* \"#utility.yul\":20172:20192   */\n      tag_815\n        /* \"#utility.yul\":20190:20191   */\n      dup3\n        /* \"#utility.yul\":20172:20192   */\n      tag_538\n      jump\t// in\n    tag_815:\n        /* \"#utility.yul\":20167:20192   */\n      swap2\n      pop\n        /* \"#utility.yul\":20206:20226   */\n      tag_816\n        /* \"#utility.yul\":20224:20225   */\n      dup4\n        /* \"#utility.yul\":20206:20226   */\n      tag_538\n      jump\t// in\n    tag_816:\n        /* \"#utility.yul\":20201:20226   */\n      swap3\n      pop\n        /* \"#utility.yul\":20249:20250   */\n      dup3\n        /* \"#utility.yul\":20246:20247   */\n      dup3\n        /* \"#utility.yul\":20242:20251   */\n      add\n        /* \"#utility.yul\":20235:20251   */\n      swap1\n      pop\n        /* \"#utility.yul\":20270:20273   */\n      dup1\n        /* \"#utility.yul\":20267:20268   */\n      dup3\n        /* \"#utility.yul\":20264:20274   */\n      gt\n        /* \"#utility.yul\":20261:20297   */\n      iszero\n      tag_817\n      jumpi\n        /* \"#utility.yul\":20277:20295   */\n      tag_818\n      tag_580\n      jump\t// in\n    tag_818:\n        /* \"#utility.yul\":20261:20297   */\n    tag_817:\n        /* \"#utility.yul\":20113:20304   */\n      swap3\n      swap2\n      pop\n      pop\n      jump\t// out\n        /* \"#utility.yul\":20310:20490   */\n    tag_235:\n        /* \"#utility.yul\":20358:20435   */\n      0x4e487b7100000000000000000000000000000000000000000000000000000000\n        /* \"#utility.yul\":20355:20356   */\n      0x00\n        /* \"#utility.yul\":20348:20436   */\n      mstore\n        /* \"#utility.yul\":20455:20459   */\n      0x32\n        /* \"#utility.yul\":20452:20453   */\n      0x04\n        /* \"#utility.yul\":20445:20460   */\n      mstore\n        /* \"#utility.yul\":20479:20483   */\n      0x24\n        /* \"#utility.yul\":20476:20477   */\n      0x00\n        /* \"#utility.yul\":20469:20484   */\n      revert\n        /* \"#utility.yul\":20496:20690   */\n    tag_241:\n        /* \"#utility.yul\":20536:20540   */\n      0x00\n        /* \"#utility.yul\":20556:20576   */\n      tag_821\n        /* \"#utility.yul\":20574:20575   */\n      dup3\n        /* \"#utility.yul\":20556:20576   */\n      tag_538\n      jump\t// in\n    tag_821:\n        /* \"#utility.yul\":20551:20576   */\n      swap2\n      pop\n        /* \"#utility.yul\":20590:20610   */\n      tag_822\n        /* \"#utility.yul\":20608:20609   */\n      dup4\n        /* \"#utility.yul\":20590:20610   */\n      tag_538\n      jump\t// in\n    tag_822:\n        /* \"#utility.yul\":20585:20610   */\n      swap3\n      pop\n        /* \"#utility.yul\":20634:20635   */\n      dup3\n        /* \"#utility.yul\":20631:20632   */\n      dup3\n        /* \"#utility.yul\":20627:20636   */\n      sub\n        /* \"#utility.yul\":20619:20636   */\n      swap1\n      pop\n        /* \"#utility.yul\":20658:20659   */\n      dup2\n        /* \"#utility.yul\":20652:20656   */\n      dup2\n        /* \"#utility.yul\":20649:20660   */\n      gt\n        /* \"#utility.yul\":20646:20683   */\n      iszero\n      tag_823\n      jumpi\n        /* \"#utility.yul\":20663:20681   */\n      tag_824\n      tag_580\n      jump\t// in\n    tag_824:\n        /* \"#utility.yul\":20646:20683   */\n    tag_823:\n        /* \"#utility.yul\":20496:20690   */\n      swap3\n      swap2\n      pop\n      pop\n      jump\t// out\n        /* \"#utility.yul\":20696:20929   */\n    tag_361:\n        /* \"#utility.yul\":20735:20738   */\n      0x00\n        /* \"#utility.yul\":20758:20782   */\n      tag_826\n        /* \"#utility.yul\":20776:20781   */\n      dup3\n        /* \"#utility.yul\":20758:20782   */\n      tag_538\n      jump\t// in\n    tag_826:\n        /* \"#utility.yul\":20749:20782   */\n      swap2\n      pop\n        /* \"#utility.yul\":20804:20870   */\n      0xffffffffffffffffffffffffffffffffffffffffffffffffffffffffffffffff\n        /* \"#utility.yul\":20797:20802   */\n      dup3\n        /* \"#utility.yul\":20794:20871   */\n      sub\n        /* \"#utility.yul\":20791:20894   */\n      tag_827\n      jumpi\n        /* \"#utility.yul\":20874:20892   */\n      tag_828\n      tag_580\n      jump\t// in\n    tag_828:\n        /* \"#utility.yul\":20791:20894   */\n    tag_827:\n        /* \"#utility.yul\":20921:20922   */\n      0x01\n        /* \"#utility.yul\":20914:20919   */\n      dup3\n        /* \"#utility.yul\":20910:20923   */\n      add\n        /* \"#utility.yul\":20903:20923   */\n      swap1\n      pop\n        /* \"#utility.yul\":20696:20929   */\n      swap2\n      swap1\n      pop\n      jump\t// out\n        /* \"#utility.yul\":20935:21076   */\n    tag_581:\n        /* \"#utility.yul\":20984:20988   */\n      0x00\n        /* \"#utility.yul\":21007:21010   */\n      dup2\n        /* \"#utility.yul\":20999:21010   */\n      swap1\n      pop\n        /* \"#utility.yul\":21030:21033   */\n      dup2\n        /* \"#utility.yul\":21027:21028   */\n      0x00\n        /* \"#utility.yul\":21020:21034   */\n      mstore\n        /* \"#utility.yul\":21064:21068   */\n      0x20\n        /* \"#utility.yul\":21061:21062   */\n      0x00\n        /* \"#utility.yul\":21051:21069   */\n      keccak256\n        /* \"#utility.yul\":21043:21069   */\n      swap1\n      pop\n        /* \"#utility.yul\":20935:21076   */\n      swap2\n      swap1\n      pop\n      jump\t// out\n        /* \"#utility.yul\":21082:21175   */\n    tag_582:\n        /* \"#utility.yul\":21119:21125   */\n      0x00\n        /* \"#utility.yul\":21166:21168   */\n      0x20\n        /* \"#utility.yul\":21161:21163   */\n      0x1f\n        /* \"#utility.yul\":21154:21159   */\n      dup4\n        /* \"#utility.yul\":21150:21164   */\n      add\n        /* \"#utility.yul\":21146:21169   */\n      div\n        /* \"#utility.yul\":21136:21169   */\n      swap1\n      pop\n        /* \"#utility.yul\":21082:21175   */\n      swap2\n      swap1\n      pop\n      jump\t// out\n        /* \"#utility.yul\":21181:21288   */\n    tag_583:\n        /* \"#utility.yul\":21225:21233   */\n      0x00\n        /* \"#utility.yul\":21275:21280   */\n      dup3\n        /* \"#utility.yul\":21269:21273   */\n      dup3\n        /* \"#utility.yul\":21265:21281   */\n      shl\n        /* \"#utility.yul\":21244:21281   */\n      swap1\n      pop\n        /* \"#utility.yul\":21181:21288   */\n      swap3\n      swap2\n      pop\n      pop\n      jump\t// out\n        /* \"#utility.yul\":21294:21687   */\n    tag_584:\n        /* \"#utility.yul\":21363:21369   */\n      0x00\n        /* \"#utility.yul\":21413:21414   */\n      0x08\n        /* \"#utility.yul\":21401:21411   */\n      dup4\n        /* \"#utility.yul\":21397:21415   */\n      mul\n        /* \"#utility.yul\":21436:21533   */\n      tag_833\n        /* \"#utility.yul\":21466:21532   */\n      0xffffffffffffffffffffffffffffffffffffffffffffffffffffffffffffffff\n        /* \"#utility.yul\":21455:21464   */\n      dup3\n        /* \"#utility.yul\":21436:21533   */\n      tag_583\n      jump\t// in\n    tag_833:\n        /* \"#utility.yul\":21554:21593   */\n      tag_834\n        /* \"#utility.yul\":21584:21592   */\n      dup7\n        /* \"#utility.yul\":21573:21582   */\n      dup4\n        /* \"#utility.yul\":21554:21593   */\n      tag_583\n      jump\t// in\n    tag_834:\n        /* \"#utility.yul\":21542:21593   */\n      swap6\n      pop\n        /* \"#utility.yul\":21626:21630   */\n      dup1\n        /* \"#utility.yul\":21622:21631   */\n      not\n        /* \"#utility.yul\":21615:21620   */\n      dup5\n        /* \"#utility.yul\":21611:21632   */\n      and\n        /* \"#utility.yul\":21602:21632   */\n      swap4\n      pop\n        /* \"#utility.yul\":21675:21679   */\n      dup1\n        /* \"#utility.yul\":21665:21673   */\n      dup7\n        /* \"#utility.yul\":21661:21680   */\n      and\n        /* \"#utility.yul\":21654:21659   */\n      dup5\n        /* \"#utility.yul\":21651:21681   */\n      or\n        /* \"#utility.yul\":21641:21681   */\n      swap3\n      pop\n        /* \"#utility.yul\":21370:21687   */\n      pop\n      pop\n        /* \"#utility.yul\":21294:21687   */\n      swap4\n      swap3\n      pop\n      pop\n      pop\n      jump\t// out\n        /* \"#utility.yul\":21693:21753   */\n    tag_585:\n        /* \"#utility.yul\":21721:21724   */\n      0x00\n        /* \"#utility.yul\":21742:21747   */\n      dup2\n        /* \"#utility.yul\":21735:21747   */\n      swap1\n      pop\n        /* \"#utility.yul\":21693:21753   */\n      swap2\n      swap1\n      pop\n      jump\t// out\n        /* \"#utility.yul\":21759:21901   */\n    tag_586:\n        /* \"#utility.yul\":21809:21818   */\n      0x00\n        /* \"#utility.yul\":21842:21895   */\n      tag_837\n        /* \"#utility.yul\":21860:21894   */\n      tag_838\n        /* \"#utility.yul\":21869:21893   */\n      tag_839\n        /* \"#utility.yul\":21887:21892   */\n      dup5\n        /* \"#utility.yul\":21869:21893   */\n      tag_538\n      jump\t// in\n    tag_839:\n        /* \"#utility.yul\":21860:21894   */\n      tag_585\n      jump\t// in\n    tag_838:\n        /* \"#utility.yul\":21842:21895   */\n      tag_538\n      jump\t// in\n    tag_837:\n        /* \"#utility.yul\":21829:21895   */\n      swap1\n      pop\n        /* \"#utility.yul\":21759:21901   */\n      swap2\n      swap1\n      pop\n      jump\t// out\n        /* \"#utility.yul\":21907:21982   */\n    tag_587:\n        /* \"#utility.yul\":21950:21953   */\n      0x00\n        /* \"#utility.yul\":21971:21976   */\n      dup2\n        /* \"#utility.yul\":21964:21976   */\n      swap1\n      pop\n        /* \"#utility.yul\":21907:21982   */\n      swap2\n      swap1\n      pop\n      jump\t// out\n        /* \"#utility.yul\":21988:22257   */\n    tag_588:\n        /* \"#utility.yul\":22098:22137   */\n      tag_842\n        /* \"#utility.yul\":22129:22136   */\n      dup4\n        /* \"#utility.yul\":22098:22137   */\n      tag_586\n      jump\t// in\n    tag_842:\n        /* \"#utility.yul\":22159:22250   */\n      tag_843\n        /* \"#utility.yul\":22208:22249   */\n      tag_844\n        /* \"#utility.yul\":22232:22248   */\n      dup3\n        /* \"#utility.yul\":22208:22249   */\n      tag_587\n      jump\t// in\n    tag_844:\n        /* \"#utility.yul\":22200:22206   */\n      dup5\n        /* \"#utility.yul\":22193:22197   */\n      dup5\n        /* \"#utility.yul\":22187:22198   */\n      sload\n        /* \"#utility.yul\":22159:22250   */\n      tag_584\n      jump\t// in\n    tag_843:\n        /* \"#utility.yul\":22153:22157   */\n      dup3\n        /* \"#utility.yul\":22146:22251   */\n      sstore\n        /* \"#utility.yul\":22064:22257   */\n      pop\n        /* \"#utility.yul\":21988:22257   */\n      pop\n      pop\n      pop\n      jump\t// out\n        /* \"#utility.yul\":22263:22336   */\n    tag_589:\n        /* \"#utility.yul\":22308:22311   */\n      0x00\n        /* \"#utility.yul\":22329:22330   */\n      0x00\n        /* \"#utility.yul\":22322:22330   */\n      swap1\n      pop\n        /* \"#utility.yul\":22263:22336   */\n      swap1\n      jump\t// out\n        /* \"#utility.yul\":22342:22531   */\n    tag_590:\n        /* \"#utility.yul\":22419:22451   */\n      tag_847\n      tag_589\n      jump\t// in\n    tag_847:\n        /* \"#utility.yul\":22460:22525   */\n      tag_848\n        /* \"#utility.yul\":22518:22524   */\n      dup2\n        /* \"#utility.yul\":22510:22516   */\n      dup5\n        /* \"#utility.yul\":22504:22508   */\n      dup5\n        /* \"#utility.yul\":22460:22525   */\n      tag_588\n      jump\t// in\n    tag_848:\n        /* \"#utility.yul\":22395:22531   */\n      pop\n        /* \"#utility.yul\":22342:22531   */\n      pop\n      pop\n      jump\t// out\n        /* \"#utility.yul\":22537:22723   */\n    tag_591:\n        /* \"#utility.yul\":22597:22717   */\n    tag_850:\n        /* \"#utility.yul\":22614:22617   */\n      dup2\n        /* \"#utility.yul\":22607:22612   */\n      dup2\n        /* \"#utility.yul\":22604:22618   */\n      lt\n        /* \"#utility.yul\":22597:22717   */\n      iszero\n      tag_852\n      jumpi\n        /* \"#utility.yul\":22668:22707   */\n      tag_853\n        /* \"#utility.yul\":22705:22706   */\n      0x00\n        /* \"#utility.yul\":22698:22703   */\n      dup3\n        /* \"#utility.yul\":22668:22707   */\n      tag_590\n      jump\t// in\n    tag_853:\n        /* \"#utility.yul\":22641:22642   */\n      0x01\n        /* \"#utility.yul\":22634:22639   */\n      dup2\n        /* \"#utility.yul\":22630:22643   */\n      add\n        /* \"#utility.yul\":22621:22643   */\n      swap1\n      pop\n        /* \"#utility.yul\":22597:22717   */\n      jump(tag_850)\n    tag_852:\n        /* \"#utility.yul\":22537:22723   */\n      pop\n      pop\n      jump\t// out\n        /* \"#utility.yul\":22729:23272   */\n    tag_592:\n        /* \"#utility.yul\":22830:22832   */\n      0x1f\n        /* \"#utility.yul\":22825:22828   */\n      dup3\n        /* \"#utility.yul\":22822:22833   */\n      gt\n        /* \"#utility.yul\":22819:23265   */\n      iszero\n      tag_855\n      jumpi\n        /* \"#utility.yul\":22864:22902   */\n      tag_856\n        /* \"#utility.yul\":22896:22901   */\n      dup2\n        /* \"#utility.yul\":22864:22902   */\n      tag_581\n      jump\t// in\n    tag_856:\n        /* \"#utility.yul\":22948:22977   */\n      tag_857\n        /* \"#utility.yul\":22966:22976   */\n      dup5\n        /* \"#utility.yul\":22948:22977   */\n      tag_582\n      jump\t// in\n    tag_857:\n        /* \"#utility.yul\":22938:22946   */\n      dup2\n        /* \"#utility.yul\":22934:22978   */\n      add\n        /* \"#utility.yul\":23131:23133   */\n      0x20\n        /* \"#utility.yul\":23119:23129   */\n      dup6\n        /* \"#utility.yul\":23116:23134   */\n      lt\n        /* \"#utility.yul\":23113:23162   */\n      iszero\n      tag_858\n      jumpi\n        /* \"#utility.yul\":23152:23160   */\n      dup2\n        /* \"#utility.yul\":23137:23160   */\n      swap1\n      pop\n        /* \"#utility.yul\":23113:23162   */\n    tag_858:\n        /* \"#utility.yul\":23175:23255   */\n      tag_859\n        /* \"#utility.yul\":23231:23253   */\n      tag_860\n        /* \"#utility.yul\":23249:23252   */\n      dup6\n        /* \"#utility.yul\":23231:23253   */\n      tag_582\n      jump\t// in\n    tag_860:\n        /* \"#utility.yul\":23221:23229   */\n      dup4\n        /* \"#utility.yul\":23217:23254   */\n      add\n        /* \"#utility.yul\":23204:23215   */\n      dup3\n        /* \"#utility.yul\":23175:23255   */\n      tag_591\n      jump\t// in\n    tag_859:\n        /* \"#utility.yul\":22834:23265   */\n      pop\n      pop\n        /* \"#utility.yul\":22819:23265   */\n    tag_855:\n        /* \"#utility.yul\":22729:23272   */\n      pop\n      pop\n      pop\n      jump\t// out\n        /* \"#utility.yul\":23278:23395   */\n    tag_593:\n        /* \"#utility.yul\":23332:23340   */\n      0x00\n        /* \"#utility.yul\":23382:23387   */\n      dup3\n        /* \"#utility.yul\":23376:23380   */\n      dup3\n        /* \"#utility.yul\":23372:23388   */\n      shr\n        /* \"#utility.yul\":23351:23388   */\n      swap1\n      pop\n        /* \"#utility.yul\":23278:23395   */\n      swap3\n      swap2\n      pop\n      pop\n      jump\t// out\n        /* \"#utility.yul\":23401:23570   */\n    tag_594:\n        /* \"#utility.yul\":23445:23451   */\n      0x00\n        /* \"#utility.yul\":23478:23529   */\n      tag_863\n        /* \"#utility.yul\":23526:23527   */\n      0x00\n        /* \"#utility.yul\":23522:23528   */\n      not\n        /* \"#utility.yul\":23514:23519   */\n      dup5\n        /* \"#utility.yul\":23511:23512   */\n      0x08\n        /* \"#utility.yul\":23507:23520   */\n      mul\n        /* \"#utility.yul\":23478:23529   */\n      tag_593\n      jump\t// in\n    tag_863:\n        /* \"#utility.yul\":23474:23530   */\n      not\n        /* \"#utility.yul\":23559:23563   */\n      dup1\n        /* \"#utility.yul\":23553:23557   */\n      dup4\n        /* \"#utility.yul\":23549:23564   */\n      and\n        /* \"#utility.yul\":23539:23564   */\n      swap2\n      pop\n        /* \"#utility.yul\":23452:23570   */\n      pop\n        /* \"#utility.yul\":23401:23570   */\n      swap3\n      swap2\n      pop\n      pop\n      jump\t// out\n        /* \"#utility.yul\":23575:23870   */\n    tag_595:\n        /* \"#utility.yul\":23651:23655   */\n      0x00\n        /* \"#utility.yul\":23797:23826   */\n      tag_865\n        /* \"#utility.yul\":23822:23825   */\n      dup4\n        /* \"#utility.yul\":23816:23820   */\n      dup4\n        /* \"#utility.yul\":23797:23826   */\n      tag_594\n      jump\t// in\n    tag_865:\n        /* \"#utility.yul\":23789:23826   */\n      swap2\n      pop\n        /* \"#utility.yul\":23859:23862   */\n      dup3\n        /* \"#utility.yul\":23856:23857   */\n      0x02\n        /* \"#utility.yul\":23852:23863   */\n      mul\n        /* \"#utility.yul\":23846:23850   */\n      dup3\n        /* \"#utility.yul\":23843:23864   */\n      or\n        /* \"#utility.yul\":23835:23864   */\n      swap1\n      pop\n        /* \"#utility.yul\":23575:23870   */\n      swap3\n      swap2\n      pop\n      pop\n      jump\t// out\n        /* \"#utility.yul\":23875:25270   */\n    tag_363:\n        /* \"#utility.yul\":23992:24029   */\n      tag_867\n        /* \"#utility.yul\":24025:24028   */\n      dup3\n        /* \"#utility.yul\":23992:24029   */\n      tag_546\n      jump\t// in\n    tag_867:\n        /* \"#utility.yul\":24094:24112   */\n      0xffffffffffffffff\n        /* \"#utility.yul\":24086:24092   */\n      dup2\n        /* \"#utility.yul\":24083:24113   */\n      gt\n        /* \"#utility.yul\":24080:24136   */\n      iszero\n      tag_868\n      jumpi\n        /* \"#utility.yul\":24116:24134   */\n      tag_869\n      tag_366\n      jump\t// in\n    tag_869:\n        /* \"#utility.yul\":24080:24136   */\n    tag_868:\n        /* \"#utility.yul\":24160:24198   */\n      tag_870\n        /* \"#utility.yul\":24192:24196   */\n      dup3\n        /* \"#utility.yul\":24186:24197   */\n      sload\n        /* \"#utility.yul\":24160:24198   */\n      tag_203\n      jump\t// in\n    tag_870:\n        /* \"#utility.yul\":24245:24312   */\n      tag_871\n        /* \"#utility.yul\":24305:24311   */\n      dup3\n        /* \"#utility.yul\":24297:24303   */\n      dup3\n        /* \"#utility.yul\":24291:24295   */\n      dup6\n        /* \"#utility.yul\":24245:24312   */\n      tag_592\n      jump\t// in\n    tag_871:\n        /* \"#utility.yul\":24339:24340   */\n      0x00\n        /* \"#utility.yul\":24363:24367   */\n      0x20\n        /* \"#utility.yul\":24350:24367   */\n      swap1\n      pop\n        /* \"#utility.yul\":24395:24397   */\n      0x1f\n        /* \"#utility.yul\":24387:24393   */\n      dup4\n        /* \"#utility.yul\":24384:24398   */\n      gt\n        /* \"#utility.yul\":24412:24413   */\n      0x01\n        /* \"#utility.yul\":24407:25025   */\n      dup2\n      eq\n      tag_873\n      jumpi\n        /* \"#utility.yul\":25069:25070   */\n      0x00\n        /* \"#utility.yul\":25086:25092   */\n      dup5\n        /* \"#utility.yul\":25083:25160   */\n      iszero\n      tag_874\n      jumpi\n        /* \"#utility.yul\":25135:25144   */\n      dup3\n        /* \"#utility.yul\":25130:25133   */\n      dup8\n        /* \"#utility.yul\":25126:25145   */\n      add\n        /* \"#utility.yul\":25120:25146   */\n      mload\n        /* \"#utility.yul\":25111:25146   */\n      swap1\n      pop\n        /* \"#utility.yul\":25083:25160   */\n    tag_874:\n        /* \"#utility.yul\":25186:25253   */\n      tag_875\n        /* \"#utility.yul\":25246:25252   */\n      dup6\n        /* \"#utility.yul\":25239:25244   */\n      dup3\n        /* \"#utility.yul\":25186:25253   */\n      tag_595\n      jump\t// in\n    tag_875:\n        /* \"#utility.yul\":25180:25184   */\n      dup7\n        /* \"#utility.yul\":25173:25254   */\n      sstore\n        /* \"#utility.yul\":25042:25264   */\n      pop\n        /* \"#utility.yul\":24377:25264   */\n      jump(tag_872)\n        /* \"#utility.yul\":24407:25025   */\n    tag_873:\n        /* \"#utility.yul\":24459:24463   */\n      0x1f\n        /* \"#utility.yul\":24455:24464   */\n      not\n        /* \"#utility.yul\":24447:24453   */\n      dup5\n        /* \"#utility.yul\":24443:24465   */\n      and\n        /* \"#utility.yul\":24493:24530   */\n      tag_876\n        /* \"#utility.yul\":24525:24529   */\n      dup7\n        /* \"#utility.yul\":24493:24530   */\n      tag_581\n      jump\t// in\n    tag_876:\n        /* \"#utility.yul\":24552:24553   */\n      0x00\n        /* \"#utility.yul\":24566:24774   */\n    tag_877:\n        /* \"#utility.yul\":24580:24587   */\n      dup3\n        /* \"#utility.yul\":24577:24578   */\n      dup2\n        /* \"#utility.yul\":24574:24588   */\n      lt\n        /* \"#utility.yul\":24566:24774   */\n      iszero\n      tag_879\n      jumpi\n        /* \"#utility.yul\":24659:24668   */\n      dup5\n        /* \"#utility.yul\":24654:24657   */\n      dup10\n        /* \"#utility.yul\":24650:24669   */\n      add\n        /* \"#utility.yul\":24644:24670   */\n      mload\n        /* \"#utility.yul\":24636:24642   */\n      dup3\n        /* \"#utility.yul\":24629:24671   */\n      sstore\n        /* \"#utility.yul\":24710:24711   */\n      0x01\n        /* \"#utility.yul\":24702:24708   */\n      dup3\n        /* \"#utility.yul\":24698:24712   */\n      add\n        /* \"#utility.yul\":24688:24712   */\n      swap2\n      pop\n        /* \"#utility.yul\":24757:24759   */\n      0x20\n        /* \"#utility.yul\":24746:24755   */\n      dup6\n        /* \"#utility.yul\":24742:24760   */\n      add\n        /* \"#utility.yul\":24729:24760   */\n      swap5\n      pop\n        /* \"#utility.yul\":24603:24607   */\n      0x20\n        /* \"#utility.yul\":24600:24601   */\n      dup2\n        /* \"#utility.yul\":24596:24608   */\n      add\n        /* \"#utility.yul\":24591:24608   */\n      swap1\n      pop\n        /* \"#utility.yul\":24566:24774   */\n      jump(tag_877)\n    tag_879:\n        /* \"#utility.yul\":24802:24808   */\n      dup7\n        /* \"#utility.yul\":24793:24800   */\n      dup4\n        /* \"#utility.yul\":24790:24809   */\n      lt\n        /* \"#utility.yul\":24787:24966   */\n      iszero\n      tag_880\n      jumpi\n        /* \"#utility.yul\":24860:24869   */\n      dup5\n        /* \"#utility.yul\":24855:24858   */\n      dup10\n        /* \"#utility.yul\":24851:24870   */\n      add\n        /* \"#utility.yul\":24845:24871   */\n      mload\n        /* \"#utility.yul\":24903:24951   */\n      tag_881\n        /* \"#utility.yul\":24945:24949   */\n      0x1f\n        /* \"#utility.yul\":24937:24943   */\n      dup10\n        /* \"#utility.yul\":24933:24950   */\n      and\n        /* \"#utility.yul\":24922:24931   */\n      dup3\n        /* \"#utility.yul\":24903:24951   */\n      tag_594\n      jump\t// in\n    tag_881:\n        /* \"#utility.yul\":24895:24901   */\n      dup4\n        /* \"#utility.yul\":24888:24952   */\n      sstore\n        /* \"#utility.yul\":24810:24966   */\n      pop\n        /* \"#utility.yul\":24787:24966   */\n    tag_880:\n        /* \"#utility.yul\":25012:25013   */\n      0x01\n        /* \"#utility.yul\":25008:25009   */\n      0x02\n        /* \"#utility.yul\":25000:25006   */\n      dup9\n        /* \"#utility.yul\":24996:25010   */\n      mul\n        /* \"#utility.yul\":24992:25014   */\n      add\n        /* \"#utility.yul\":24986:24990   */\n      dup9\n        /* \"#utility.yul\":24979:25015   */\n      sstore\n        /* \"#utility.yul\":24414:25025   */\n      pop\n      pop\n      pop\n        /* \"#utility.yul\":24377:25264   */\n    tag_872:\n      pop\n        /* \"#utility.yul\":23967:25270   */\n      pop\n      pop\n      pop\n        /* \"#utility.yul\":23875:25270   */\n      pop\n      pop\n      jump\t// out\n        /* \"#utility.yul\":25276:25699   */\n    tag_374:\n        /* \"#utility.yul\":25417:25421   */\n      0x00\n        /* \"#utility.yul\":25455:25457   */\n      0x40\n        /* \"#utility.yul\":25444:25453   */\n      dup3\n        /* \"#utility.yul\":25440:25458   */\n      add\n        /* \"#utility.yul\":25432:25458   */\n      swap1\n      pop\n        /* \"#utility.yul\":25504:25513   */\n      dup2\n        /* \"#utility.yul\":25498:25502   */\n      dup2\n        /* \"#utility.yul\":25494:25514   */\n      sub\n        /* \"#utility.yul\":25490:25491   */\n      0x00\n        /* \"#utility.yul\":25479:25488   */\n      dup4\n        /* \"#utility.yul\":25475:25492   */\n      add\n        /* \"#utility.yul\":25468:25515   */\n      mstore\n        /* \"#utility.yul\":25532:25610   */\n      tag_883\n        /* \"#utility.yul\":25605:25609   */\n      dup2\n        /* \"#utility.yul\":25596:25602   */\n      dup6\n        /* \"#utility.yul\":25532:25610   */\n      tag_550\n      jump\t// in\n    tag_883:\n        /* \"#utility.yul\":25524:25610   */\n      swap1\n      pop\n        /* \"#utility.yul\":25620:25692   */\n      tag_884\n        /* \"#utility.yul\":25688:25690   */\n      0x20\n        /* \"#utility.yul\":25677:25686   */\n      dup4\n        /* \"#utility.yul\":25673:25691   */\n      add\n        /* \"#utility.yul\":25664:25670   */\n      dup5\n        /* \"#utility.yul\":25620:25692   */\n      tag_545\n      jump\t// in\n    tag_884:\n        /* \"#utility.yul\":25276:25699   */\n      swap4\n      swap3\n      pop\n      pop\n      pop\n      jump\t// out\n        /* \"#utility.yul\":25705:25871   */\n    tag_596:\n        /* \"#utility.yul\":25845:25863   */\n      0x5061757361626c653a2070617573656400000000000000000000000000000000\n        /* \"#utility.yul\":25841:25842   */\n      0x00\n        /* \"#utility.yul\":25833:25839   */\n      dup3\n        /* \"#utility.yul\":25829:25843   */\n      add\n        /* \"#utility.yul\":25822:25864   */\n      mstore\n        /* \"#utility.yul\":25705:25871   */\n      pop\n      jump\t// out\n        /* \"#utility.yul\":25877:26243   */\n    tag_597:\n        /* \"#utility.yul\":26019:26022   */\n      0x00\n        /* \"#utility.yul\":26040:26107   */\n      tag_887\n        /* \"#utility.yul\":26104:26106   */\n      0x10\n        /* \"#utility.yul\":26099:26102   */\n      dup4\n        /* \"#utility.yul\":26040:26107   */\n      tag_547\n      jump\t// in\n    tag_887:\n        /* \"#utility.yul\":26033:26107   */\n      swap2\n      pop\n        /* \"#utility.yul\":26116:26209   */\n      tag_888\n        /* \"#utility.yul\":26205:26208   */\n      dup3\n        /* \"#utility.yul\":26116:26209   */\n      tag_596\n      jump\t// in\n    tag_888:\n        /* \"#utility.yul\":26234:26236   */\n      0x20\n        /* \"#utility.yul\":26229:26232   */\n      dup3\n        /* \"#utility.yul\":26225:26237   */\n      add\n        /* \"#utility.yul\":26218:26237   */\n      swap1\n      pop\n        /* \"#utility.yul\":25877:26243   */\n      swap2\n      swap1\n      pop\n      jump\t// out\n        /* \"#utility.yul\":26249:26668   */\n    tag_392:\n        /* \"#utility.yul\":26415:26419   */\n      0x00\n        /* \"#utility.yul\":26453:26455   */\n      0x20\n        /* \"#utility.yul\":26442:26451   */\n      dup3\n        /* \"#utility.yul\":26438:26456   */\n      add\n        /* \"#utility.yul\":26430:26456   */\n      swap1\n      pop\n        /* \"#utility.yul\":26502:26511   */\n      dup2\n        /* \"#utility.yul\":26496:26500   */\n      dup2\n        /* \"#utility.yul\":26492:26512   */\n      sub\n        /* \"#utility.yul\":26488:26489   */\n      0x00\n        /* \"#utility.yul\":26477:26486   */\n      dup4\n        /* \"#utility.yul\":26473:26490   */\n      add\n        /* \"#utility.yul\":26466:26513   */\n      mstore\n        /* \"#utility.yul\":26530:26661   */\n      tag_890\n        /* \"#utility.yul\":26656:26660   */\n      dup2\n        /* \"#utility.yul\":26530:26661   */\n      tag_597\n      jump\t// in\n    tag_890:\n        /* \"#utility.yul\":26522:26661   */\n      swap1\n      pop\n        /* \"#utility.yul\":26249:26668   */\n      swap2\n      swap1\n      pop\n      jump\t// out\n        /* \"#utility.yul\":26674:26821   */\n    tag_598:\n        /* \"#utility.yul\":26775:26786   */\n      0x00\n        /* \"#utility.yul\":26812:26815   */\n      dup2\n        /* \"#utility.yul\":26797:26815   */\n      swap1\n      pop\n        /* \"#utility.yul\":26674:26821   */\n      swap3\n      swap2\n      pop\n      pop\n      jump\t// out\n        /* \"#utility.yul\":26827:26941   */\n    tag_599:\n      pop\n      jump\t// out\n        /* \"#utility.yul\":26947:27345   */\n    tag_600:\n        /* \"#utility.yul\":27106:27109   */\n      0x00\n        /* \"#utility.yul\":27127:27210   */\n      tag_894\n        /* \"#utility.yul\":27208:27209   */\n      0x00\n        /* \"#utility.yul\":27203:27206   */\n      dup4\n        /* \"#utility.yul\":27127:27210   */\n      tag_598\n      jump\t// in\n    tag_894:\n        /* \"#utility.yul\":27120:27210   */\n      swap2\n      pop\n        /* \"#utility.yul\":27219:27312   */\n      tag_895\n        /* \"#utility.yul\":27308:27311   */\n      dup3\n        /* \"#utility.yul\":27219:27312   */\n      tag_599\n      jump\t// in\n    tag_895:\n        /* \"#utility.yul\":27337:27338   */\n      0x00\n        /* \"#utility.yul\":27332:27335   */\n      dup3\n        /* \"#utility.yul\":27328:27339   */\n      add\n        /* \"#utility.yul\":27321:27339   */\n      swap1\n      pop\n        /* \"#utility.yul\":26947:27345   */\n      swap2\n      swap1\n      pop\n      jump\t// out\n        /* \"#utility.yul\":27351:27730   */\n    tag_401:\n        /* \"#utility.yul\":27535:27538   */\n      0x00\n        /* \"#utility.yul\":27557:27704   */\n      tag_897\n        /* \"#utility.yul\":27700:27703   */\n      dup3\n        /* \"#utility.yul\":27557:27704   */\n      tag_600\n      jump\t// in\n    tag_897:\n        /* \"#utility.yul\":27550:27704   */\n      swap2\n      pop\n        /* \"#utility.yul\":27721:27724   */\n      dup2\n        /* \"#utility.yul\":27714:27724   */\n      swap1\n      pop\n        /* \"#utility.yul\":27351:27730   */\n      swap2\n      swap1\n      pop\n      jump\t// out\n        /* \"#utility.yul\":27736:27908   */\n    tag_601:\n        /* \"#utility.yul\":27876:27900   */\n      0x5061796f7574207472616e73666572206661696c656400000000000000000000\n        /* \"#utility.yul\":27872:27873   */\n      0x00\n        /* \"#utility.yul\":27864:27870   */\n      dup3\n        /* \"#utility.yul\":27860:27874   */\n      add\n        /* \"#utility.yul\":27853:27901   */\n      mstore\n        /* \"#utility.yul\":27736:27908   */\n      pop\n      jump\t// out\n        /* \"#utility.yul\":27914:28280   */\n    tag_602:\n        /* \"#utility.yul\":28056:28059   */\n      0x00\n        /* \"#utility.yul\":28077:28144   */\n      tag_900\n        /* \"#utility.yul\":28141:28143   */\n      0x16\n        /* \"#utility.yul\":28136:28139   */\n      dup4\n        /* \"#utility.yul\":28077:28144   */\n      tag_547\n      jump\t// in\n    tag_900:\n        /* \"#utility.yul\":28070:28144   */\n      swap2\n      pop\n        /* \"#utility.yul\":28153:28246   */\n      tag_901\n        /* \"#utility.yul\":28242:28245   */\n      dup3\n        /* \"#utility.yul\":28153:28246   */\n      tag_601\n      jump\t// in\n    tag_901:\n        /* \"#utility.yul\":28271:28273   */\n      0x20\n        /* \"#utility.yul\":28266:28269   */\n      dup3\n        /* \"#utility.yul\":28262:28274   */\n      add\n        /* \"#utility.yul\":28255:28274   */\n      swap1\n      pop\n        /* \"#utility.yul\":27914:28280   */\n      swap2\n      swap1\n      pop\n      jump\t// out\n        /* \"#utility.yul\":28286:28705   */\n    tag_407:\n        /* \"#utility.yul\":28452:28456   */\n      0x00\n        /* \"#utility.yul\":28490:28492   */\n      0x20\n        /* \"#utility.yul\":28479:28488   */\n      dup3\n        /* \"#utility.yul\":28475:28493   */\n      add\n        /* \"#utility.yul\":28467:28493   */\n      swap1\n      pop\n        /* \"#utility.yul\":28539:28548   */\n      dup2\n        /* \"#utility.yul\":28533:28537   */\n      dup2\n        /* \"#utility.yul\":28529:28549   */\n      sub\n        /* \"#utility.yul\":28525:28526   */\n      0x00\n        /* \"#utility.yul\":28514:28523   */\n      dup4\n        /* \"#utility.yul\":28510:28527   */\n      add\n        /* \"#utility.yul\":28503:28550   */\n      mstore\n        /* \"#utility.yul\":28567:28698   */\n      tag_903\n        /* \"#utility.yul\":28693:28697   */\n      dup2\n        /* \"#utility.yul\":28567:28698   */\n      tag_602\n      jump\t// in\n    tag_903:\n        /* \"#utility.yul\":28559:28698   */\n      swap1\n      pop\n        /* \"#utility.yul\":28286:28705   */\n      swap2\n      swap1\n      pop\n      jump\t// out\n        /* \"#utility.yul\":28711:29043   */\n    tag_409:\n        /* \"#utility.yul\":28832:28836   */\n      0x00\n        /* \"#utility.yul\":28870:28872   */\n      0x40\n        /* \"#utility.yul\":28859:28868   */\n      dup3\n        /* \"#utility.yul\":28855:28873   */\n      add\n        /* \"#utility.yul\":28847:28873   */\n      swap1\n      pop\n        /* \"#utility.yul\":28883:28954   */\n      tag_905\n        /* \"#utility.yul\":28951:28952   */\n      0x00\n        /* \"#utility.yul\":28940:28949   */\n      dup4\n        /* \"#utility.yul\":28936:28953   */\n      add\n        /* \"#utility.yul\":28927:28933   */\n      dup6\n        /* \"#utility.yul\":28883:28954   */\n      tag_545\n      jump\t// in\n    tag_905:\n        /* \"#utility.yul\":28964:29036   */\n      tag_906\n        /* \"#utility.yul\":29032:29034   */\n      0x20\n        /* \"#utility.yul\":29021:29030   */\n      dup4\n        /* \"#utility.yul\":29017:29035   */\n      add\n        /* \"#utility.yul\":29008:29014   */\n      dup5\n        /* \"#utility.yul\":28964:29036   */\n      tag_545\n      jump\t// in\n    tag_906:\n        /* \"#utility.yul\":28711:29043   */\n      swap4\n      swap3\n      pop\n      pop\n      pop\n      jump\t// out\n        /* \"#utility.yul\":29049:29271   */\n    tag_428:\n        /* \"#utility.yul\":29142:29146   */\n      0x00\n        /* \"#utility.yul\":29180:29182   */\n      0x20\n        /* \"#utility.yul\":29169:29178   */\n      dup3\n        /* \"#utility.yul\":29165:29183   */\n      add\n        /* \"#utility.yul\":29157:29183   */\n      swap1\n      pop\n        /* \"#utility.yul\":29193:29264   */\n      tag_908\n        /* \"#utility.yul\":29261:29262   */\n      0x00\n        /* \"#utility.yul\":29250:29259   */\n      dup4\n        /* \"#utility.yul\":29246:29263   */\n      add\n        /* \"#utility.yul\":29237:29243   */\n      dup5\n        /* \"#utility.yul\":29193:29264   */\n      tag_551\n      jump\t// in\n    tag_908:\n        /* \"#utility.yul\":29049:29271   */\n      swap3\n      swap2\n      pop\n      pop\n      jump\t// out\n        /* \"#utility.yul\":29277:29458   */\n    tag_603:\n        /* \"#utility.yul\":29417:29450   */\n      0x5265656e7472616e637947756172643a207265656e7472616e742063616c6c00\n        /* \"#utility.yul\":29413:29414   */\n      0x00\n        /* \"#utility.yul\":29405:29411   */\n      dup3\n        /* \"#utility.yul\":29401:29415   */\n      add\n        /* \"#utility.yul\":29394:29451   */\n      mstore\n        /* \"#utility.yul\":29277:29458   */\n      pop\n      jump\t// out\n        /* \"#utility.yul\":29464:29830   */\n    tag_604:\n        /* \"#utility.yul\":29606:29609   */\n      0x00\n        /* \"#utility.yul\":29627:29694   */\n      tag_911\n        /* \"#utility.yul\":29691:29693   */\n      0x1f\n        /* \"#utility.yul\":29686:29689   */\n      dup4\n        /* \"#utility.yul\":29627:29694   */\n      tag_547\n      jump\t// in\n    tag_911:\n        /* \"#utility.yul\":29620:29694   */\n      swap2\n      pop\n        /* \"#utility.yul\":29703:29796   */\n      tag_912\n        /* \"#utility.yul\":29792:29795   */\n      dup3\n        /* \"#utility.yul\":29703:29796   */\n      tag_603\n      jump\t// in\n    tag_912:\n        /* \"#utility.yul\":29821:29823   */\n      0x20\n        /* \"#utility.yul\":29816:29819   */\n      dup3\n        /* \"#utility.yul\":29812:29824   */\n      add\n        /* \"#utility.yul\":29805:29824   */\n      swap1\n      pop\n        /* \"#utility.yul\":29464:29830   */\n      swap2\n      swap1\n      pop\n      jump\t// out\n        /* \"#utility.yul\":29836:30255   */\n    tag_432:\n        /* \"#utility.yul\":30002:30006   */\n      0x00\n        /* \"#utility.yul\":30040:30042   */\n      0x20\n        /* \"#utility.yul\":30029:30038   */\n      dup3\n        /* \"#utility.yul\":30025:30043   */\n      add\n        /* \"#utility.yul\":30017:30043   */\n      swap1\n      pop\n        /* \"#utility.yul\":30089:30098   */\n      dup2\n        /* \"#utility.yul\":30083:30087   */\n      dup2\n        /* \"#utility.yul\":30079:30099   */\n      sub\n        /* \"#utility.yul\":30075:30076   */\n      0x00\n        /* \"#utility.yul\":30064:30073   */\n      dup4\n        /* \"#utility.yul\":30060:30077   */\n      add\n        /* \"#utility.yul\":30053:30100   */\n      mstore\n        /* \"#utility.yul\":30117:30248   */\n      tag_914\n        /* \"#utility.yul\":30243:30247   */\n      dup2\n        /* \"#utility.yul\":30117:30248   */\n      tag_604\n      jump\t// in\n    tag_914:\n        /* \"#utility.yul\":30109:30248   */\n      swap1\n      pop\n        /* \"#utility.yul\":29836:30255   */\n      swap2\n      swap1\n      pop\n      jump\t// out\n        /* \"#utility.yul\":30261:30593   */\n    tag_458:\n        /* \"#utility.yul\":30382:30386   */\n      0x00\n        /* \"#utility.yul\":30420:30422   */\n      0x40\n        /* \"#utility.yul\":30409:30418   */\n      dup3\n        /* \"#utility.yul\":30405:30423   */\n      add\n        /* \"#utility.yul\":30397:30423   */\n      swap1\n      pop\n        /* \"#utility.yul\":30433:30504   */\n      tag_916\n        /* \"#utility.yul\":30501:30502   */\n      0x00\n        /* \"#utility.yul\":30490:30499   */\n      dup4\n        /* \"#utility.yul\":30486:30503   */\n      add\n        /* \"#utility.yul\":30477:30483   */\n      dup6\n        /* \"#utility.yul\":30433:30504   */\n      tag_551\n      jump\t// in\n    tag_916:\n        /* \"#utility.yul\":30514:30586   */\n      tag_917\n        /* \"#utility.yul\":30582:30584   */\n      0x20\n        /* \"#utility.yul\":30571:30580   */\n      dup4\n        /* \"#utility.yul\":30567:30585   */\n      add\n        /* \"#utility.yul\":30558:30564   */\n      dup5\n        /* \"#utility.yul\":30514:30586   */\n      tag_555\n      jump\t// in\n    tag_917:\n        /* \"#utility.yul\":30261:30593   */\n      swap4\n      swap3\n      pop\n      pop\n      pop\n      jump\t// out\n        /* \"#utility.yul\":30599:30779   */\n    tag_605:\n        /* \"#utility.yul\":30647:30724   */\n      0x4e487b7100000000000000000000000000000000000000000000000000000000\n        /* \"#utility.yul\":30644:30645   */\n      0x00\n        /* \"#utility.yul\":30637:30725   */\n      mstore\n        /* \"#utility.yul\":30744:30748   */\n      0x12\n        /* \"#utility.yul\":30741:30742   */\n      0x04\n        /* \"#utility.yul\":30734:30749   */\n      mstore\n        /* \"#utility.yul\":30768:30772   */\n      0x24\n        /* \"#utility.yul\":30765:30766   */\n      0x00\n        /* \"#utility.yul\":30758:30773   */\n      revert\n        /* \"#utility.yul\":30785:30961   */\n    tag_469:\n        /* \"#utility.yul\":30817:30818   */\n      0x00\n        /* \"#utility.yul\":30834:30854   */\n      tag_920\n        /* \"#utility.yul\":30852:30853   */\n      dup3\n        /* \"#utility.yul\":30834:30854   */\n      tag_538\n      jump\t// in\n    tag_920:\n        /* \"#utility.yul\":30829:30854   */\n      swap2\n      pop\n        /* \"#utility.yul\":30868:30888   */\n      tag_921\n        /* \"#utility.yul\":30886:30887   */\n      dup4\n        /* \"#utility.yul\":30868:30888   */\n      tag_538\n      jump\t// in\n    tag_921:\n        /* \"#utility.yul\":30863:30888   */\n      swap3\n      pop\n        /* \"#utility.yul\":30907:30908   */\n      dup3\n        /* \"#utility.yul\":30897:30932   */\n      tag_922\n      jumpi\n        /* \"#utility.yul\":30912:30930   */\n      tag_923\n      tag_605\n      jump\t// in\n    tag_923:\n        /* \"#utility.yul\":30897:30932   */\n    tag_922:\n        /* \"#utility.yul\":30953:30954   */\n      dup3\n        /* \"#utility.yul\":30950:30951   */\n      dup3\n        /* \"#utility.yul\":30946:30955   */\n      mod\n        /* \"#utility.yul\":30941:30955   */\n      swap1\n      pop\n        /* \"#utility.yul\":30785:30961   */\n      swap3\n      swap2\n      pop\n      pop\n      jump\t// out\n        /* \"#utility.yul\":30967:31141   */\n    tag_606:\n        /* \"#utility.yul\":31107:31133   */\n      0x436f6c6c61746572616c2072657475726e206661696c65640000000000000000\n        /* \"#utility.yul\":31103:31104   */\n      0x00\n        /* \"#utility.yul\":31095:31101   */\n      dup3\n        /* \"#utility.yul\":31091:31105   */\n      add\n        /* \"#utility.yul\":31084:31134   */\n      mstore\n        /* \"#utility.yul\":30967:31141   */\n      pop\n      jump\t// out\n        /* \"#utility.yul\":31147:31513   */\n    tag_607:\n        /* \"#utility.yul\":31289:31292   */\n      0x00\n        /* \"#utility.yul\":31310:31377   */\n      tag_926\n        /* \"#utility.yul\":31374:31376   */\n      0x18\n        /* \"#utility.yul\":31369:31372   */\n      dup4\n        /* \"#utility.yul\":31310:31377   */\n      tag_547\n      jump\t// in\n    tag_926:\n        /* \"#utility.yul\":31303:31377   */\n      swap2\n      pop\n        /* \"#utility.yul\":31386:31479   */\n      tag_927\n        /* \"#utility.yul\":31475:31478   */\n      dup3\n        /* \"#utility.yul\":31386:31479   */\n      tag_606\n      jump\t// in\n    tag_927:\n        /* \"#utility.yul\":31504:31506   */\n      0x20\n        /* \"#utility.yul\":31499:31502   */\n      dup3\n        /* \"#utility.yul\":31495:31507   */\n      add\n        /* \"#utility.yul\":31488:31507   */\n      swap1\n      pop\n        /* \"#utility.yul\":31147:31513   */\n      swap2\n      swap1\n      pop\n      jump\t// out\n        /* \"#utility.yul\":31519:31938   */\n    tag_488:\n        /* \"#utility.yul\":31685:31689   */\n      0x00\n        /* \"#utility.yul\":31723:31725   */\n      0x20\n        /* \"#utility.yul\":31712:31721   */\n      dup3\n        /* \"#utility.yul\":31708:31726   */\n      add\n        /* \"#utility.yul\":31700:31726   */\n      swap1\n      pop\n        /* \"#utility.yul\":31772:31781   */\n      dup2\n        /* \"#utility.yul\":31766:31770   */\n      dup2\n        /* \"#utility.yul\":31762:31782   */\n      sub\n        /* \"#utility.yul\":31758:31759   */\n      0x00\n        /* \"#utility.yul\":31747:31756   */\n      dup4\n        /* \"#utility.yul\":31743:31760   */\n      add\n        /* \"#utility.yul\":31736:31783   */\n      mstore\n        /* \"#utility.yul\":31800:31931   */\n      tag_929\n        /* \"#utility.yul\":31926:31930   */\n      dup2\n        /* \"#utility.yul\":31800:31931   */\n      tag_607\n      jump\t// in\n    tag_929:\n        /* \"#utility.yul\":31792:31931   */\n      swap1\n      pop\n        /* \"#utility.yul\":31519:31938   */\n      swap2\n      swap1\n      pop\n      jump\t// out\n        /* \"#utility.yul\":31944:32114   */\n    tag_608:\n        /* \"#utility.yul\":32084:32106   */\n      0x5061757361626c653a206e6f7420706175736564000000000000000000000000\n        /* \"#utility.yul\":32080:32081   */\n      0x00\n        /* \"#utility.yul\":32072:32078   */\n      dup3\n        /* \"#utility.yul\":32068:32082   */\n      add\n        /* \"#utility.yul\":32061:32107   */\n      mstore\n        /* \"#utility.yul\":31944:32114   */\n      pop\n      jump\t// out\n        /* \"#utility.yul\":32120:32486   */\n    tag_609:\n        /* \"#utility.yul\":32262:32265   */\n      0x00\n        /* \"#utility.yul\":32283:32350   */\n      tag_932\n        /* \"#utility.yul\":32347:32349   */\n      0x14\n        /* \"#utility.yul\":32342:32345   */\n      dup4\n        /* \"#utility.yul\":32283:32350   */\n      tag_547\n      jump\t// in\n    tag_932:\n        /* \"#utility.yul\":32276:32350   */\n      swap2\n      pop\n        /* \"#utility.yul\":32359:32452   */\n      tag_933\n        /* \"#utility.yul\":32448:32451   */\n      dup3\n        /* \"#utility.yul\":32359:32452   */\n      tag_608\n      jump\t// in\n    tag_933:\n        /* \"#utility.yul\":32477:32479   */\n      0x20\n        /* \"#utility.yul\":32472:32475   */\n      dup3\n        /* \"#utility.yul\":32468:32480   */\n      add\n        /* \"#utility.yul\":32461:32480   */\n      swap1\n      pop\n        /* \"#utility.yul\":32120:32486   */\n      swap2\n      swap1\n      pop\n      jump\t// out\n        /* \"#utility.yul\":32492:32911   */\n    tag_494:\n        /* \"#utility.yul\":32658:32662   */\n      0x00\n        /* \"#utility.yul\":32696:32698   */\n      0x20\n        /* \"#utility.yul\":32685:32694   */\n      dup3\n        /* \"#utility.yul\":32681:32699   */\n      add\n        /* \"#utility.yul\":32673:32699   */\n      swap1\n      pop\n        /* \"#utility.yul\":32745:32754   */\n      dup2\n        /* \"#utility.yul\":32739:32743   */\n      dup2\n        /* \"#utility.yul\":32735:32755   */\n      sub\n        /* \"#utility.yul\":32731:32732   */\n      0x00\n        /* \"#utility.yul\":32720:32729   */\n      dup4\n        /* \"#utility.yul\":32716:32733   */\n      add\n        /* \"#utility.yul\":32709:32756   */\n      mstore\n        /* \"#utility.yul\":32773:32904   */\n      tag_935\n        /* \"#utility.yul\":32899:32903   */\n      dup2\n        /* \"#utility.yul\":32773:32904   */\n      tag_609\n      jump\t// in\n    tag_935:\n        /* \"#utility.yul\":32765:32904   */\n      swap1\n      pop\n        /* \"#utility.yul\":32492:32911   */\n      swap2\n      swap1\n      pop\n      jump\t// out\n        /* \"#utility.yul\":32917:32996   */\n    tag_610:\n        /* \"#utility.yul\":32956:32963   */\n      0x00\n        /* \"#utility.yul\":32985:32990   */\n      dup2\n        /* \"#utility.yul\":32974:32990   */\n      swap1\n      pop\n        /* \"#utility.yul\":32917:32996   */\n      swap2\n      swap1\n      pop\n      jump\t// out\n        /* \"#utility.yul\":33002:33159   */\n    tag_611:\n        /* \"#utility.yul\":33107:33152   */\n      tag_938\n        /* \"#utility.yul\":33127:33151   */\n      tag_939\n        /* \"#utility.yul\":33145:33150   */\n      dup3\n        /* \"#utility.yul\":33127:33151   */\n      tag_538\n      jump\t// in\n    tag_939:\n        /* \"#utility.yul\":33107:33152   */\n      tag_610\n      jump\t// in\n    tag_938:\n        /* \"#utility.yul\":33102:33105   */\n      dup3\n        /* \"#utility.yul\":33095:33153   */\n      mstore\n        /* \"#utility.yul\":33002:33159   */\n      pop\n      pop\n      jump\t// out\n        /* \"#utility.yul\":33165:33703   */\n    tag_501:\n        /* \"#utility.yul\":33333:33336   */\n      0x00\n        /* \"#utility.yul\":33348:33423   */\n      tag_941\n        /* \"#utility.yul\":33419:33422   */\n      dup3\n        /* \"#utility.yul\":33410:33416   */\n      dup7\n        /* \"#utility.yul\":33348:33423   */\n      tag_611\n      jump\t// in\n    tag_941:\n        /* \"#utility.yul\":33448:33450   */\n      0x20\n        /* \"#utility.yul\":33443:33446   */\n      dup3\n        /* \"#utility.yul\":33439:33451   */\n      add\n        /* \"#utility.yul\":33432:33451   */\n      swap2\n      pop\n        /* \"#utility.yul\":33461:33536   */\n      tag_942\n        /* \"#utility.yul\":33532:33535   */\n      dup3\n        /* \"#utility.yul\":33523:33529   */\n      dup6\n        /* \"#utility.yul\":33461:33536   */\n      tag_611\n      jump\t// in\n    tag_942:\n        /* \"#utility.yul\":33561:33563   */\n      0x20\n        /* \"#utility.yul\":33556:33559   */\n      dup3\n        /* \"#utility.yul\":33552:33564   */\n      add\n        /* \"#utility.yul\":33545:33564   */\n      swap2\n      pop\n        /* \"#utility.yul\":33574:33649   */\n      tag_943\n        /* \"#utility.yul\":33645:33648   */\n      dup3\n        /* \"#utility.yul\":33636:33642   */\n      dup5\n        /* \"#utility.yul\":33574:33649   */\n      tag_611\n      jump\t// in\n    tag_943:\n        /* \"#utility.yul\":33674:33676   */\n      0x20\n        /* \"#utility.yul\":33669:33672   */\n      dup3\n        /* \"#utility.yul\":33665:33677   */\n      add\n        /* \"#utility.yul\":33658:33677   */\n      swap2\n      pop\n        /* \"#utility.yul\":33694:33697   */\n      dup2\n        /* \"#utility.yul\":33687:33697   */\n      swap1\n      pop\n        /* \"#utility.yul\":33165:33703   */\n      swap5\n      swap4\n      pop\n      pop\n      pop\n      pop\n      jump\t// out\n\n    auxdata: 0xa26469706673582212201cd1cf1fd9374b437826c0d817c8035702352ca4bd811cdf3f1432296aa2ce8d64736f6c634300081e0033\n}\n",
				"bytecode": {
					"linkReferences": {},
					"object": "608060405234801561000f575f5ffd5b5060015f819055505f60015f6101000a81548160ff0219169083151502179055506100425f5f1b3361007960201b60201c565b506100737fa49807205ce4d355092ef5a8a18f56e8913cf4a201fbe287825b095693c217753361007960201b60201c565b506101da565b5f61008a838361016f60201b60201c565b61016557600160025f8581526020019081526020015f205f015f8473ffffffffffffffffffffffffffffffffffffffff1673ffffffffffffffffffffffffffffffffffffffff1681526020019081526020015f205f6101000a81548160ff0219169083151502179055506101026101d360201b60201c565b73ffffffffffffffffffffffffffffffffffffffff168273ffffffffffffffffffffffffffffffffffffffff16847f2f8788117e7eff1d82e926ec794901d17c78024a50270940304540a733656f0d60405160405180910390a460019050610169565b5f90505b92915050565b5f60025f8481526020019081526020015f205f015f8373ffffffffffffffffffffffffffffffffffffffff1673ffffffffffffffffffffffffffffffffffffffff1681526020019081526020015f205f9054906101000a900460ff16905092915050565b5f33905090565b61459d806101e75f395ff3fe6080604052600436106101e2575f3560e01c80638456cb5911610101578063c087e28b11610094578063d83c686811610063578063d83c686814610737578063daa6f0201461077b578063e69269a6146107a3578063e9ac9d1e146107bf576101e2565b8063c087e28b1461067f578063c08f3954146106a9578063cb00d3d2146106d3578063d547741f1461070f576101e2565b806391d14854116100d057806391d14854146105c15780639ef4cbcc146105fd578063a217fddf14610619578063afc737d114610643576101e2565b80638456cb591461050b578063863b6a39146105215780638a9620ce1461055d5780639155105f14610585576101e2565b80633dd4094f116101795780635c975abb116101485780635c975abb1461043f57806375b238fc146104695780637c2841cd14610493578063826ce785146104cf576101e2565b80633dd4094f146103955780633f4ba83a146103d157806343533e1d146103e757806345f4bc0714610403576101e2565b8063248a9ca3116101b5578063248a9ca3146102e15780632f2ff15d1461031d578063300e9dae1461034557806336568abe1461036d576101e2565b806301ffc9a7146101e657806303e4cf5b146102225780630b5d70851461025e5780631dbcfc44146102a3575b5f5ffd5b3480156101f1575f5ffd5b5061020c6004803603810190610207919061354e565b6107fd565b6040516102199190613593565b60405180910390f35b34801561022d575f5ffd5b5061024860048036038101906102439190613639565b610876565b6040516102559190613686565b60405180910390f35b348015610269575f5ffd5b50610284600480360381019061027f919061369f565b610896565b60405161029a9a9998979695949392919061373a565b60405180910390f35b3480156102ae575f5ffd5b506102c960048036038101906102c491906137db565b610978565b6040516102d89392919061383a565b60405180910390f35b3480156102ec575f5ffd5b50610307600480360381019061030291906138a2565b6109e2565b60405161031491906138dc565b60405180910390f35b348015610328575f5ffd5b50610343600480360381019061033e91906138f5565b6109ff565b005b348015610350575f5ffd5b5061036b6004803603810190610366919061369f565b610a21565b005b348015610378575f5ffd5b50610393600480360381019061038e91906138f5565b610dab565b005b3480156103a0575f5ffd5b506103bb60048036038101906103b69190613639565b610e26565b6040516103c89190613a39565b60405180910390f35b3480156103dc575f5ffd5b506103e5610f37565b005b61040160048036038101906103fc919061369f565b610f6c565b005b34801561040e575f5ffd5b5061042960048036038101906104249190613639565b611358565b6040516104369190613593565b60405180910390f35b34801561044a575f5ffd5b506104536113bd565b6040516104609190613593565b60405180910390f35b348015610474575f5ffd5b5061047d6113d2565b60405161048a91906138dc565b60405180910390f35b34801561049e575f5ffd5b506104b960048036038101906104b49190613639565b6113f6565b6040516104c69190613593565b60405180910390f35b3480156104da575f5ffd5b506104f560048036038101906104f09190613639565b611420565b6040516105029190613686565b60405180910390f35b348015610516575f5ffd5b5061051f611479565b005b34801561052c575f5ffd5b5061054760048036038101906105429190613639565b6114ae565b6040516105549190613686565b60405180910390f35b348015610568575f5ffd5b50610583600480360381019061057e9190613a59565b611599565b005b348015610590575f5ffd5b506105ab60048036038101906105a69190613639565b6115f2565b6040516105b89190613593565b60405180910390f35b3480156105cc575f5ffd5b506105e760048036038101906105e291906138f5565b611725565b6040516105f49190613593565b60405180910390f35b6106176004803603810190610612919061369f565b611789565b005b348015610624575f5ffd5b5061062d611bc5565b60405161063a91906138dc565b60405180910390f35b34801561064e575f5ffd5b506106696004803603810190610664919061369f565b611bcb565b6040516106769190613686565b60405180910390f35b34801561068a575f5ffd5b50610693611be8565b6040516106a09190613686565b60405180910390f35b3480156106b4575f5ffd5b506106bd611bee565b6040516106ca91906138dc565b60405180910390f35b3480156106de575f5ffd5b506106f960048036038101906106f4919061369f565b611c12565b6040516107069190613b2c565b60405180910390f35b34801561071a575f5ffd5b50610735600480360381019061073091906138f5565b611cb1565b005b348015610742575f5ffd5b5061075d6004803603810190610758919061369f565b611cd3565b60405161077299989796959493929190613b4c565b60405180910390f35b348015610786575f5ffd5b506107a1600480360381019061079c919061369f565b611dd5565b005b6107bd60048036038101906107b89190613d0a565b611f7e565b005b3480156107ca575f5ffd5b506107e560048036038101906107e09190613d8a565b6123eb565b6040516107f493929190613dc8565b60405180910390f35b5f7f7965db0b000000000000000000000000000000000000000000000000000000007bffffffffffffffffffffffffffffffffffffffffffffffffffffffff1916827bffffffffffffffffffffffffffffffffffffffffffffffffffffffff1916148061086f575061086e82612477565b5b9050919050565b6007602052815f5260405f20602052805f5260405f205f91509150505481565b6004602052805f5260405f205f91509050805f0180546108b590613e2a565b80601f01602080910402602001604051908101604052809291908181526020018280546108e190613e2a565b801561092c5780601f106109035761010080835404028352916020019161092c565b820191905f5260205f20905b81548152906001019060200180831161090f57829003601f168201915b505050505090806001015490806002015490806003015490806005015f9054906101000a900460ff1690806006015490806007015490806008015490806009015490806012015490508a565b6005602052825f5260405f20602052815f5260405f20818154811061099b575f80fd5b905f5260205f2090600302015f925092505050805f015f9054906101000a900473ffffffffffffffffffffffffffffffffffffffff16908060010154908060020154905083565b5f60025f8381526020019081526020015f20600101549050919050565b610a08826109e2565b610a11816124e0565b610a1b83836124f4565b50505050565b805f811480610a31575060035481115b15610a68576040517f037ff9d600000000000000000000000000000000000000000000000000000000815260040160405180910390fd5b610a706125de565b5f60045f8481526020019081526020015f209050806005015f9054906101000a900460ff16610acb576040517f25500e0300000000000000000000000000000000000000000000000000000000815260040160405180910390fd5b6201518081600201548260080154610ae39190613e87565b610aed9190613e87565b421015610b26576040517fd15f73b500000000000000000000000000000000000000000000000000000000815260040160405180910390fd5b5f5f90505b8160040180549050811015610d9c575f826004018281548110610b5157610b50613eba565b5b905f5260205f20015f9054906101000a900473ffffffffffffffffffffffffffffffffffffffff16905060065f8681526020019081526020015f205f8273ffffffffffffffffffffffffffffffffffffffff1673ffffffffffffffffffffffffffffffffffffffff1681526020019081526020015f205f9054906101000a900460ff16610d8e575f836010015f8373ffffffffffffffffffffffffffffffffffffffff1673ffffffffffffffffffffffffffffffffffffffff1681526020019081526020015f205490505f81118015610c735750836011015f8373ffffffffffffffffffffffffffffffffffffffff1673ffffffffffffffffffffffffffffffffffffffff1681526020019081526020015f205f9054906101000a900460ff16155b15610d39576001846011015f8473ffffffffffffffffffffffffffffffffffffffff1673ffffffffffffffffffffffffffffffffffffffff1681526020019081526020015f205f6101000a81548160ff02191690831515021790555080846012015f828254610ce29190613ee7565b925050819055508173ffffffffffffffffffffffffffffffffffffffff16867f9ed6c8e3f152b165733c0aa8ef3b791333859fb2ebcefd11171ade0c13814f6983604051610d309190613686565b60405180910390a35b8173ffffffffffffffffffffffffffffffffffffffff16867f59ca9b721031f8a20ffb25e62f673b6fe5fc0b301e1d6cc089fcccadf62e48628660060154604051610d849190613686565b60405180910390a3505b508080600101915050610b2b565b50610da683612628565b505050565b610db36128e2565b73ffffffffffffffffffffffffffffffffffffffff168173ffffffffffffffffffffffffffffffffffffffff1614610e17576040517f6697b23200000000000000000000000000000000000000000000000000000000815260040160405180910390fd5b610e2182826128e9565b505050565b606060055f8481526020019081526020015f205f8373ffffffffffffffffffffffffffffffffffffffff1673ffffffffffffffffffffffffffffffffffffffff1681526020019081526020015f20805480602002602001604051908101604052809291908181526020015f905b82821015610f2b578382905f5260205f2090600302016040518060600160405290815f82015f9054906101000a900473ffffffffffffffffffffffffffffffffffffffff1673ffffffffffffffffffffffffffffffffffffffff1673ffffffffffffffffffffffffffffffffffffffff1681526020016001820154815260200160028201548152505081526020019060010190610e93565b50505050905092915050565b7fa49807205ce4d355092ef5a8a18f56e8913cf4a201fbe287825b095693c21775610f61816124e0565b610f696129d3565b50565b805f811480610f7c575060035481115b15610fb3576040517f037ff9d600000000000000000000000000000000000000000000000000000000815260040160405180910390fd5b8160045f8281526020019081526020015f206005015f9054906101000a900460ff1661100b576040517f25500e0300000000000000000000000000000000000000000000000000000000815260040160405180910390fd5b6110136125de565b61101b612a34565b5f60045f8581526020019081526020015f20905080600b015f3373ffffffffffffffffffffffffffffffffffffffff1673ffffffffffffffffffffffffffffffffffffffff1681526020019081526020015f205f9054906101000a900460ff16156110b2576040517f810074be00000000000000000000000000000000000000000000000000000000815260040160405180910390fd5b80600301548160040180549050106110f6576040517fcbc6f21000000000000000000000000000000000000000000000000000000000815260040160405180910390fd5b8060010154341015611134576040517f3a23d82500000000000000000000000000000000000000000000000000000000815260040160405180910390fd5b5f816004018054905090508160040133908060018154018082558091505060019003905f5260205f20015f9091909190916101000a81548173ffffffffffffffffffffffffffffffffffffffff021916908373ffffffffffffffffffffffffffffffffffffffff160217905550600182600b015f3373ffffffffffffffffffffffffffffffffffffffff1673ffffffffffffffffffffffffffffffffffffffff1681526020019081526020015f205f6101000a81548160ff0219169083151502179055508082600c015f3373ffffffffffffffffffffffffffffffffffffffff1673ffffffffffffffffffffffffffffffffffffffff1681526020019081526020015f208190555034826010015f3373ffffffffffffffffffffffffffffffffffffffff1673ffffffffffffffffffffffffffffffffffffffff1681526020019081526020015f208190555034826012015f8282546112939190613e87565b925050819055503373ffffffffffffffffffffffffffffffffffffffff16857f40a8c7a25e1eab32f305b79614cb4eb53a2d5d546bc4a5b0b55e5a7dc1228dce60405160405180910390a33373ffffffffffffffffffffffffffffffffffffffff16857feec2f3feb835e2f2fd44281034b04700a1ddda63dd402949d470a25a7c40b36c346040516113259190613686565b60405180910390a381600301548260040180549050036113495761134885612a81565b5b5050611353612b04565b505050565b5f60045f8481526020019081526020015f206011015f8373ffffffffffffffffffffffffffffffffffffffff1673ffffffffffffffffffffffffffffffffffffffff1681526020019081526020015f205f9054906101000a900460ff16905092915050565b5f60015f9054906101000a900460ff16905090565b7fa49807205ce4d355092ef5a8a18f56e8913cf4a201fbe287825b095693c2177581565b6006602052815f5260405f20602052805f5260405f205f915091509054906101000a900460ff1681565b5f60045f8481526020019081526020015f206010015f8373ffffffffffffffffffffffffffffffffffffffff1673ffffffffffffffffffffffffffffffffffffffff1681526020019081526020015f2054905092915050565b7fa49807205ce4d355092ef5a8a18f56e8913cf4a201fbe287825b095693c217756114a3816124e0565b6114ab612b0d565b50565b5f60045f8481526020019081526020015f20600b015f8373ffffffffffffffffffffffffffffffffffffffff1673ffffffffffffffffffffffffffffffffffffffff1681526020019081526020015f205f9054906101000a900460ff16611541576040517f291fc44200000000000000000000000000000000000000000000000000000000815260040160405180910390fd5b60045f8481526020019081526020015f20600c015f8373ffffffffffffffffffffffffffffffffffffffff1673ffffffffffffffffffffffffffffffffffffffff1681526020019081526020015f2054905092915050565b7fa49807205ce4d355092ef5a8a18f56e8913cf4a201fbe287825b095693c217756115c3816124e0565b6115ed7f8c7e961e804af7b2059d42008de01ccc90fc88b8e6b947b02e12656ddb05ca3a836124f4565b505050565b5f60045f8481526020019081526020015f20600b015f8373ffffffffffffffffffffffffffffffffffffffff1673ffffffffffffffffffffffffffffffffffffffff1681526020019081526020015f205f9054906101000a900460ff16611685576040517f291fc44200000000000000000000000000000000000000000000000000000000815260040160405180910390fd5b5f60045f8581526020019081526020015f20600c015f8473ffffffffffffffffffffffffffffffffffffffff1673ffffffffffffffffffffffffffffffffffffffff1681526020019081526020015f2054905060045f8581526020019081526020015f20600a0181815481106116fe576116fd613eba565b5b905f5260205f2090602091828204019190069054906101000a900460ff1691505092915050565b5f60025f8481526020019081526020015f205f015f8373ffffffffffffffffffffffffffffffffffffffff1673ffffffffffffffffffffffffffffffffffffffff1681526020019081526020015f205f9054906101000a900460ff16905092915050565b8060045f8281526020019081526020015f20600b015f3373ffffffffffffffffffffffffffffffffffffffff1673ffffffffffffffffffffffffffffffffffffffff1681526020019081526020015f205f9054906101000a900460ff1661181c576040517f291fc44200000000000000000000000000000000000000000000000000000000815260040160405180910390fd5b8160045f8281526020019081526020015f206005015f9054906101000a900460ff16611874576040517f25500e0300000000000000000000000000000000000000000000000000000000815260040160405180910390fd5b61187c6125de565b611884612a34565b5f60045f8581526020019081526020015f20905080600101543410156118d6576040517fabed41c400000000000000000000000000000000000000000000000000000000815260040160405180910390fd5b60065f8581526020019081526020015f205f3373ffffffffffffffffffffffffffffffffffffffff1673ffffffffffffffffffffffffffffffffffffffff1681526020019081526020015f205f9054906101000a900460ff1615611966576040517f7d3af1a800000000000000000000000000000000000000000000000000000000815260040160405180910390fd5b60055f8581526020019081526020015f205f3373ffffffffffffffffffffffffffffffffffffffff1673ffffffffffffffffffffffffffffffffffffffff1681526020019081526020015f2060405180606001604052803373ffffffffffffffffffffffffffffffffffffffff16815260200134815260200142815250908060018154018082558091505060019003905f5260205f2090600302015f909190919091505f820151815f015f6101000a81548173ffffffffffffffffffffffffffffffffffffffff021916908373ffffffffffffffffffffffffffffffffffffffff16021790555060208201518160010155604082015181600201555050600160065f8681526020019081526020015f205f3373ffffffffffffffffffffffffffffffffffffffff1673ffffffffffffffffffffffffffffffffffffffff1681526020019081526020015f205f6101000a81548160ff0219169083151502179055504260075f8681526020019081526020015f205f3373ffffffffffffffffffffffffffffffffffffffff1673ffffffffffffffffffffffffffffffffffffffff1681526020019081526020015f208190555034816009015f828254611b2b9190613e87565b925050819055503481600d015f836006015481526020019081526020015f205f828254611b589190613e87565b925050819055503373ffffffffffffffffffffffffffffffffffffffff16847f0a4a91237423e0a1766a761c7cb029311d8b95d6b1b81db1b949a70c98b4e08e34604051611ba69190613686565b60405180910390a3611bb784612b6e565b50611bc0612b04565b505050565b5f5f1b81565b5f60045f8381526020019081526020015f20601201549050919050565b60035481565b7f8c7e961e804af7b2059d42008de01ccc90fc88b8e6b947b02e12656ddb05ca3a81565b606060045f8381526020019081526020015f20600401805480602002602001604051908101604052809291908181526020018280548015611ca557602002820191905f5260205f20905b815f9054906101000a900473ffffffffffffffffffffffffffffffffffffffff1673ffffffffffffffffffffffffffffffffffffffff1681526020019060010190808311611c5c575b50505050509050919050565b611cba826109e2565b611cc3816124e0565b611ccd83836128e9565b50505050565b60605f5f5f5f5f5f5f5f5f60045f8c81526020019081526020015f209050805f018160010154826002015483600301548460040180549050856005015f9054906101000a900460ff16866006015487600901548860120154888054611d3790613e2a565b80601f0160208091040260200160405190810160405280929190818152602001828054611d6390613e2a565b8015611dae5780601f10611d8557610100808354040283529160200191611dae565b820191905f5260205f20905b815481529060010190602001808311611d9157829003601f168201915b50505050509850995099509950995099509950995099509950509193959799909294969850565b805f811480611de5575060035481115b15611e1c576040517f037ff9d600000000000000000000000000000000000000000000000000000000815260040160405180910390fd5b8160045f8281526020019081526020015f206005015f9054906101000a900460ff16611e74576040517f25500e0300000000000000000000000000000000000000000000000000000000815260040160405180910390fd5b611e7c6125de565b5f60045f8581526020019081526020015f2090505f816006015414611ecd576040517f65e9fe1900000000000000000000000000000000000000000000000000000000815260040160405180910390fd5b3373ffffffffffffffffffffffffffffffffffffffff16816004015f81548110611efa57611ef9613eba565b5b905f5260205f20015f9054906101000a900473ffffffffffffffffffffffffffffffffffffffff1673ffffffffffffffffffffffffffffffffffffffff1614611f6f576040517fc0b0546300000000000000000000000000000000000000000000000000000000815260040160405180910390fd5b611f7884612a81565b50505050565b611f866125de565b611f8e612a34565b5f8303611fc7576040517fb8bd675800000000000000000000000000000000000000000000000000000000815260040160405180910390fd5b6101a4821015612003576040517fec68216200000000000000000000000000000000000000000000000000000000815260040160405180910390fd5b60038110806120125750601481115b15612049576040517f4fdd01a000000000000000000000000000000000000000000000000000000000815260040160405180910390fd5b82341015612083576040517f3a23d82500000000000000000000000000000000000000000000000000000000815260040160405180910390fd5b60035f81548092919061209590613f1a565b91905055505f60045f60035481526020019081526020015f20905084815f0190816120c09190614101565b508381600101819055508281600201819055508181600301819055506001816005015f6101000a81548160ff0219169083151502179055505f81600601819055505f81600701819055504281600801819055505f81600901819055503481601201819055508167ffffffffffffffff81111561213f5761213e613be6565b5b60405190808252806020026020018201604052801561216d5781602001602082028036833780820191505090505b5081600a01908051906020019061218592919061342c565b508060040133908060018154018082558091505060019003905f5260205f20015f9091909190916101000a81548173ffffffffffffffffffffffffffffffffffffffff021916908373ffffffffffffffffffffffffffffffffffffffff160217905550600181600b015f3373ffffffffffffffffffffffffffffffffffffffff1673ffffffffffffffffffffffffffffffffffffffff1681526020019081526020015f205f6101000a81548160ff0219169083151502179055505f81600c015f3373ffffffffffffffffffffffffffffffffffffffff1673ffffffffffffffffffffffffffffffffffffffff1681526020019081526020015f208190555034816010015f3373ffffffffffffffffffffffffffffffffffffffff1673ffffffffffffffffffffffffffffffffffffffff1681526020019081526020015f20819055506122f17f8c7e961e804af7b2059d42008de01ccc90fc88b8e6b947b02e12656ddb05ca3a33611725565b503373ffffffffffffffffffffffffffffffffffffffff166003547ff4262469916388c16d1454945cd27f61664f3ae726c205e66b8f9212a3534f8c878760405161233d9291906141d0565b60405180910390a33373ffffffffffffffffffffffffffffffffffffffff166003547f40a8c7a25e1eab32f305b79614cb4eb53a2d5d546bc4a5b0b55e5a7dc1228dce60405160405180910390a33373ffffffffffffffffffffffffffffffffffffffff166003547feec2f3feb835e2f2fd44281034b04700a1ddda63dd402949d470a25a7c40b36c346040516123d49190613686565b60405180910390a3506123e5612b04565b50505050565b5f5f5f5f60045f8781526020019081526020015f20905080600d015f8681526020019081526020015f205481600e015f8781526020019081526020015f205f9054906101000a900473ffffffffffffffffffffffffffffffffffffffff1682600f015f8881526020019081526020015f205f9054906101000a900460ff16935093509350509250925092565b5f7f01ffc9a7000000000000000000000000000000000000000000000000000000007bffffffffffffffffffffffffffffffffffffffffffffffffffffffff1916827bffffffffffffffffffffffffffffffffffffffffffffffffffffffff1916149050919050565b6124f1816124ec6128e2565b612c6f565b50565b5f6124ff8383611725565b6125d457600160025f8581526020019081526020015f205f015f8473ffffffffffffffffffffffffffffffffffffffff1673ffffffffffffffffffffffffffffffffffffffff1681526020019081526020015f205f6101000a81548160ff0219169083151502179055506125716128e2565b73ffffffffffffffffffffffffffffffffffffffff168273ffffffffffffffffffffffffffffffffffffffff16847f2f8788117e7eff1d82e926ec794901d17c78024a50270940304540a733656f0d60405160405180910390a4600190506125d8565b5f90505b92915050565b6125e66113bd565b15612626576040517f08c379a000000000000000000000000000000000000000000000000000000000815260040161261d90614248565b60405180910390fd5b565b5f60045f8381526020019081526020015f2090505f8160040182600701548154811061265757612656613eba565b5b905f5260205f20015f9054906101000a900473ffffffffffffffffffffffffffffffffffffffff1690505f82600d015f846006015481526020019081526020015f20549050600183600a018460070154815481106126b8576126b7613eba565b5b905f5260205f2090602091828204019190066101000a81548160ff0219169083151502179055508183600e015f856006015481526020019081526020015f205f6101000a81548173ffffffffffffffffffffffffffffffffffffffff021916908373ffffffffffffffffffffffffffffffffffffffff160217905550600183600f015f856006015481526020019081526020015f205f6101000a81548160ff0219169083151502179055505f8273ffffffffffffffffffffffffffffffffffffffff168260405161278890614293565b5f6040518083038185875af1925050503d805f81146127c2576040519150601f19603f3d011682016040523d82523d5f602084013e6127c7565b606091505b505090508061280b576040517f08c379a0000000000000000000000000000000000000000000000000000000008152600401612802906142f1565b60405180910390fd5b8273ffffffffffffffffffffffffffffffffffffffff16857fdae483580262260a8703065b8e8083a9551c49ac35cf5bd0201aa07b174875c284876006015460405161285892919061430f565b60405180910390a38273ffffffffffffffffffffffffffffffffffffffff16857fb4aeb9fb59644d1c26001b986295cde5bbfae34be7c5240fbccf4c37308e20fe8487600601546040516128ad92919061430f565b60405180910390a36128be85612cc0565b8360040180549050846006015411156128db576128da85612e4b565b5b5050505050565b5f33905090565b5f6128f48383611725565b156129c9575f60025f8581526020019081526020015f205f015f8473ffffffffffffffffffffffffffffffffffffffff1673ffffffffffffffffffffffffffffffffffffffff1681526020019081526020015f205f6101000a81548160ff0219169083151502179055506129666128e2565b73ffffffffffffffffffffffffffffffffffffffff168273ffffffffffffffffffffffffffffffffffffffff16847ff6391f5c32d9c69d2a47ea670b442974b53935d1edc7fd64eb21e047a839171b60405160405180910390a4600190506129cd565b5f90505b92915050565b6129db613119565b5f60015f6101000a81548160ff0219169083151502179055507f5db9ee0a495bf2e6ff9c91a7834c1ba4fdd244a5e8aa4e537bd38aeae4b073aa612a1d6128e2565b604051612a2a9190614336565b60405180910390a1565b60025f5403612a78576040517f08c379a0000000000000000000000000000000000000000000000000000000008152600401612a6f90614399565b60405180910390fd5b60025f81905550565b5f60045f8381526020019081526020015f20905060018160060181905550428160080181905550612ab182613162565b3373ffffffffffffffffffffffffffffffffffffffff16827f39874af9b7f4ab9e4c5c47a7280fdb5f5db4081446e9d2cdfd23d5d5aa781c6442604051612af89190613686565b60405180910390a35050565b60015f81905550565b612b156125de565b6001805f6101000a81548160ff0219169083151502179055507f62e78cea01bee320cd4e420270b5ea74000d11b0c9f74754ebdbfc544b05a258612b576128e2565b604051612b649190614336565b60405180910390a1565b5f60045f8381526020019081526020015f2090505f5f90505f5f90505b8260040180549050811015612c515760065f8581526020019081526020015f205f846004018381548110612bc257612bc1613eba565b5b905f5260205f20015f9054906101000a900473ffffffffffffffffffffffffffffffffffffffff1673ffffffffffffffffffffffffffffffffffffffff1673ffffffffffffffffffffffffffffffffffffffff1681526020019081526020015f205f9054906101000a900460ff1615612c44578180612c4090613f1a565b9250505b8080600101915050612b8b565b5081600401805490508103612c6a57612c6983612628565b5b505050565b612c798282611725565b612cbc5780826040517fe2517d3f000000000000000000000000000000000000000000000000000000008152600401612cb39291906143b7565b60405180910390fd5b5050565b5f60045f8381526020019081526020015f2090505f5f90505b8160040180549050811015612d95575f60065f8581526020019081526020015f205f846004018481548110612d1157612d10613eba565b5b905f5260205f20015f9054906101000a900473ffffffffffffffffffffffffffffffffffffffff1673ffffffffffffffffffffffffffffffffffffffff1673ffffffffffffffffffffffffffffffffffffffff1681526020019081526020015f205f6101000a81548160ff0219169083151502179055508080600101915050612cd9565b50806006015f815480929190612daa90613f1a565b9190505550806004018054905060018260070154612dc89190613e87565b612dd2919061440b565b81600701819055504281600801819055505f81600d015f836006015481526020019081526020015f2081905550817f42463706cb812379c7405bba67d1414b3473b66942ecd48fd66e7ad3cd3abdd460018360060154612e329190613ee7565b604051612e3f9190613686565b60405180910390a25050565b5f60045f8381526020019081526020015f2090505f816005015f6101000a81548160ff0219169083151502179055505f5f90505b81600401805490508110156130e7575f826004018281548110612ea557612ea4613eba565b5b905f5260205f20015f9054906101000a900473ffffffffffffffffffffffffffffffffffffffff1690505f836010015f8373ffffffffffffffffffffffffffffffffffffffff1673ffffffffffffffffffffffffffffffffffffffff1681526020019081526020015f205490505f81118015612f6a5750836011015f8373ffffffffffffffffffffffffffffffffffffffff1673ffffffffffffffffffffffffffffffffffffffff1681526020019081526020015f205f9054906101000a900460ff16155b156130d8576001846011015f8473ffffffffffffffffffffffffffffffffffffffff1673ffffffffffffffffffffffffffffffffffffffff1681526020019081526020015f205f6101000a81548160ff02191690831515021790555080846012015f828254612fd99190613ee7565b925050819055505f8273ffffffffffffffffffffffffffffffffffffffff168260405161300590614293565b5f6040518083038185875af1925050503d805f811461303f576040519150601f19603f3d011682016040523d82523d5f602084013e613044565b606091505b5050905080613088576040517f08c379a000000000000000000000000000000000000000000000000000000000815260040161307f90614485565b60405180910390fd5b8273ffffffffffffffffffffffffffffffffffffffff16867e83f3d3d0a8132e9bf23ae6cde659d5f3963a6973816e144f05bfccef184279846040516130ce9190613686565b60405180910390a3505b50508080600101915050612e7f565b50817fdb5e126e6a121da8028405972761f7c42dff3d626273cd61fd32a13d4c3f56c760405160405180910390a25050565b6131216113bd565b613160576040517f08c379a0000000000000000000000000000000000000000000000000000000008152600401613157906144ed565b60405180910390fd5b565b5f60045f8381526020019081526020015f2090505f816004018054905090505f5f90505b81811015613426575f81828461319c9190613ee7565b4244856040516020016131b19392919061452b565b604051602081830303815290604052805190602001205f1c6131d3919061440b565b6131dd9190613e87565b90505f8460040183815481106131f6576131f5613eba565b5b905f5260205f20015f9054906101000a900473ffffffffffffffffffffffffffffffffffffffff16905084600401828154811061323657613235613eba565b5b905f5260205f20015f9054906101000a900473ffffffffffffffffffffffffffffffffffffffff1685600401848154811061327457613273613eba565b5b905f5260205f20015f6101000a81548173ffffffffffffffffffffffffffffffffffffffff021916908373ffffffffffffffffffffffffffffffffffffffff160217905550808560040183815481106132d0576132cf613eba565b5b905f5260205f20015f6101000a81548173ffffffffffffffffffffffffffffffffffffffff021916908373ffffffffffffffffffffffffffffffffffffffff1602179055508285600c015f87600401868154811061333157613330613eba565b5b905f5260205f20015f9054906101000a900473ffffffffffffffffffffffffffffffffffffffff1673ffffffffffffffffffffffffffffffffffffffff1673ffffffffffffffffffffffffffffffffffffffff1681526020019081526020015f20819055508185600c015f8760040185815481106133b2576133b1613eba565b5b905f5260205f20015f9054906101000a900473ffffffffffffffffffffffffffffffffffffffff1673ffffffffffffffffffffffffffffffffffffffff1673ffffffffffffffffffffffffffffffffffffffff1681526020019081526020015f208190555050508080600101915050613186565b50505050565b828054828255905f5260205f2090601f016020900481019282156134bc579160200282015f5b8382111561348e57835183826101000a81548160ff02191690831515021790555092602001926001016020815f01049283019260010302613452565b80156134ba5782816101000a81549060ff02191690556001016020815f0104928301926001030261348e565b505b5090506134c991906134cd565b5090565b5b808211156134e4575f815f9055506001016134ce565b5090565b5f604051905090565b5f5ffd5b5f5ffd5b5f7fffffffff0000000000000000000000000000000000000000000000000000000082169050919050565b61352d816134f9565b8114613537575f5ffd5b50565b5f8135905061354881613524565b92915050565b5f60208284031215613563576135626134f1565b5b5f6135708482850161353a565b91505092915050565b5f8115159050919050565b61358d81613579565b82525050565b5f6020820190506135a65f830184613584565b92915050565b5f819050919050565b6135be816135ac565b81146135c8575f5ffd5b50565b5f813590506135d9816135b5565b92915050565b5f73ffffffffffffffffffffffffffffffffffffffff82169050919050565b5f613608826135df565b9050919050565b613618816135fe565b8114613622575f5ffd5b50565b5f813590506136338161360f565b92915050565b5f5f6040838503121561364f5761364e6134f1565b5b5f61365c858286016135cb565b925050602061366d85828601613625565b9150509250929050565b613680816135ac565b82525050565b5f6020820190506136995f830184613677565b92915050565b5f602082840312156136b4576136b36134f1565b5b5f6136c1848285016135cb565b91505092915050565b5f81519050919050565b5f82825260208201905092915050565b8281835e5f83830152505050565b5f601f19601f8301169050919050565b5f61370c826136ca565b61371681856136d4565b93506137268185602086016136e4565b61372f816136f2565b840191505092915050565b5f610140820190508181035f830152613753818d613702565b9050613762602083018c613677565b61376f604083018b613677565b61377c606083018a613677565b6137896080830189613584565b61379660a0830188613677565b6137a360c0830187613677565b6137b060e0830186613677565b6137be610100830185613677565b6137cc610120830184613677565b9b9a5050505050505050505050565b5f5f5f606084860312156137f2576137f16134f1565b5b5f6137ff868287016135cb565b935050602061381086828701613625565b9250506040613821868287016135cb565b9150509250925092565b613834816135fe565b82525050565b5f60608201905061384d5f83018661382b565b61385a6020830185613677565b6138676040830184613677565b949350505050565b5f819050919050565b6138818161386f565b811461388b575f5ffd5b50565b5f8135905061389c81613878565b92915050565b5f602082840312156138b7576138b66134f1565b5b5f6138c48482850161388e565b91505092915050565b6138d68161386f565b82525050565b5f6020820190506138ef5f8301846138cd565b92915050565b5f5f6040838503121561390b5761390a6134f1565b5b5f6139188582860161388e565b925050602061392985828601613625565b9150509250929050565b5f81519050919050565b5f82825260208201905092915050565b5f819050602082019050919050565b613965816135fe565b82525050565b613974816135ac565b82525050565b606082015f82015161398e5f85018261395c565b5060208201516139a1602085018261396b565b5060408201516139b4604085018261396b565b50505050565b5f6139c5838361397a565b60608301905092915050565b5f602082019050919050565b5f6139e782613933565b6139f1818561393d565b93506139fc8361394d565b805f5b83811015613a2c578151613a1388826139ba565b9750613a1e836139d1565b9250506001810190506139ff565b5085935050505092915050565b5f6020820190508181035f830152613a5181846139dd565b905092915050565b5f60208284031215613a6e57613a6d6134f1565b5b5f613a7b84828501613625565b91505092915050565b5f81519050919050565b5f82825260208201905092915050565b5f819050602082019050919050565b5f613ab8838361395c565b60208301905092915050565b5f602082019050919050565b5f613ada82613a84565b613ae48185613a8e565b9350613aef83613a9e565b805f5b83811015613b1f578151613b068882613aad565b9750613b1183613ac4565b925050600181019050613af2565b5085935050505092915050565b5f6020820190508181035f830152613b448184613ad0565b905092915050565b5f610120820190508181035f830152613b65818c613702565b9050613b74602083018b613677565b613b81604083018a613677565b613b8e6060830189613677565b613b9b6080830188613677565b613ba860a0830187613584565b613bb560c0830186613677565b613bc260e0830185613677565b613bd0610100830184613677565b9a9950505050505050505050565b5f5ffd5b5f5ffd5b7f4e487b71000000000000000000000000000000000000000000000000000000005f52604160045260245ffd5b613c1c826136f2565b810181811067ffffffffffffffff82111715613c3b57613c3a613be6565b5b80604052505050565b5f613c4d6134e8565b9050613c598282613c13565b919050565b5f67ffffffffffffffff821115613c7857613c77613be6565b5b613c81826136f2565b9050602081019050919050565b828183375f83830152505050565b5f613cae613ca984613c5e565b613c44565b905082815260208101848484011115613cca57613cc9613be2565b5b613cd5848285613c8e565b509392505050565b5f82601f830112613cf157613cf0613bde565b5b8135613d01848260208601613c9c565b91505092915050565b5f5f5f5f60808587031215613d2257613d216134f1565b5b5f85013567ffffffffffffffff811115613d3f57613d3e6134f5565b5b613d4b87828801613cdd565b9450506020613d5c878288016135cb565b9350506040613d6d878288016135cb565b9250506060613d7e878288016135cb565b91505092959194509250565b5f5f60408385031215613da057613d9f6134f1565b5b5f613dad858286016135cb565b9250506020613dbe858286016135cb565b9150509250929050565b5f606082019050613ddb5f830186613677565b613de8602083018561382b565b613df56040830184613584565b949350505050565b7f4e487b71000000000000000000000000000000000000000000000000000000005f52602260045260245ffd5b5f6002820490506001821680613e4157607f821691505b602082108103613e5457613e53613dfd565b5b50919050565b7f4e487b71000000000000000000000000000000000000000000000000000000005f52601160045260245ffd5b5f613e91826135ac565b9150613e9c836135ac565b9250828201905080821115613eb457613eb3613e5a565b5b92915050565b7f4e487b71000000000000000000000000000000000000000000000000000000005f52603260045260245ffd5b5f613ef1826135ac565b9150613efc836135ac565b9250828203905081811115613f1457613f13613e5a565b5b92915050565b5f613f24826135ac565b91507fffffffffffffffffffffffffffffffffffffffffffffffffffffffffffffffff8203613f5657613f55613e5a565b5b600182019050919050565b5f819050815f5260205f209050919050565b5f6020601f8301049050919050565b5f82821b905092915050565b5f60088302613fbd7fffffffffffffffffffffffffffffffffffffffffffffffffffffffffffffffff82613f82565b613fc78683613f82565b95508019841693508086168417925050509392505050565b5f819050919050565b5f614002613ffd613ff8846135ac565b613fdf565b6135ac565b9050919050565b5f819050919050565b61401b83613fe8565b61402f61402782614009565b848454613f8e565b825550505050565b5f5f905090565b614046614037565b614051818484614012565b505050565b5b81811015614074576140695f8261403e565b600181019050614057565b5050565b601f8211156140b95761408a81613f61565b61409384613f73565b810160208510156140a2578190505b6140b66140ae85613f73565b830182614056565b50505b505050565b5f82821c905092915050565b5f6140d95f19846008026140be565b1980831691505092915050565b5f6140f183836140ca565b9150826002028217905092915050565b61410a826136ca565b67ffffffffffffffff81111561412357614122613be6565b5b61412d8254613e2a565b614138828285614078565b5f60209050601f831160018114614169575f8415614157578287015190505b61416185826140e6565b8655506141c8565b601f19841661417786613f61565b5f5b8281101561419e57848901518255600182019150602085019450602081019050614179565b868310156141bb57848901516141b7601f8916826140ca565b8355505b6001600288020188555050505b505050505050565b5f6040820190508181035f8301526141e88185613702565b90506141f76020830184613677565b9392505050565b7f5061757361626c653a20706175736564000000000000000000000000000000005f82015250565b5f6142326010836136d4565b915061423d826141fe565b602082019050919050565b5f6020820190508181035f83015261425f81614226565b9050919050565b5f81905092915050565b50565b5f61427e5f83614266565b915061428982614270565b5f82019050919050565b5f61429d82614273565b9150819050919050565b7f5061796f7574207472616e73666572206661696c6564000000000000000000005f82015250565b5f6142db6016836136d4565b91506142e6826142a7565b602082019050919050565b5f6020820190508181035f830152614308816142cf565b9050919050565b5f6040820190506143225f830185613677565b61432f6020830184613677565b9392505050565b5f6020820190506143495f83018461382b565b92915050565b7f5265656e7472616e637947756172643a207265656e7472616e742063616c6c005f82015250565b5f614383601f836136d4565b915061438e8261434f565b602082019050919050565b5f6020820190508181035f8301526143b081614377565b9050919050565b5f6040820190506143ca5f83018561382b565b6143d760208301846138cd565b9392505050565b7f4e487b71000000000000000000000000000000000000000000000000000000005f52601260045260245ffd5b5f614415826135ac565b9150614420836135ac565b9250826144305761442f6143de565b5b828206905092915050565b7f436f6c6c61746572616c2072657475726e206661696c656400000000000000005f82015250565b5f61446f6018836136d4565b915061447a8261443b565b602082019050919050565b5f6020820190508181035f83015261449c81614463565b9050919050565b7f5061757361626c653a206e6f74207061757365640000000000000000000000005f82015250565b5f6144d76014836136d4565b91506144e2826144a3565b602082019050919050565b5f6020820190508181035f830152614504816144cb565b9050919050565b5f819050919050565b614525614520826135ac565b61450b565b82525050565b5f6145368286614514565b6020820191506145468285614514565b6020820191506145568284614514565b60208201915081905094935050505056fea26469706673582212201cd1cf1fd9374b437826c0d817c8035702352ca4bd811cdf3f1432296aa2ce8d64736f6c634300081e0033",
					"opcodes": "PUSH1 0x80 PUSH1 0x40 MSTORE CALLVALUE DUP1 ISZERO PUSH2 0xF JUMPI PUSH0 PUSH0 REVERT JUMPDEST POP PUSH1 0x1 PUSH0 DUP2 SWAP1 SSTORE POP PUSH0 PUSH1 0x1 PUSH0 PUSH2 0x100 EXP DUP2 SLOAD DUP2 PUSH1 0xFF MUL NOT AND SWAP1 DUP4 ISZERO ISZERO MUL OR SWAP1 SSTORE POP PUSH2 0x42 PUSH0 PUSH0 SHL CALLER PUSH2 0x79 PUSH1 0x20 SHL PUSH1 0x20 SHR JUMP JUMPDEST POP PUSH2 0x73 PUSH32 0xA49807205CE4D355092EF5A8A18F56E8913CF4A201FBE287825B095693C21775 CALLER PUSH2 0x79 PUSH1 0x20 SHL PUSH1 0x20 SHR JUMP JUMPDEST POP PUSH2 0x1DA JUMP JUMPDEST PUSH0 PUSH2 0x8A DUP4 DUP4 PUSH2 0x16F PUSH1 0x20 SHL PUSH1 0x20 SHR JUMP JUMPDEST PUSH2 0x165 JUMPI PUSH1 0x1 PUSH1 0x2 PUSH0 DUP6 DUP2 MSTORE PUSH1 0x20 ADD SWAP1 DUP2 MSTORE PUSH1 0x20 ADD PUSH0 KECCAK256 PUSH0 ADD PUSH0 DUP5 PUSH20 0xFFFFFFFFFFFFFFFFFFFFFFFFFFFFFFFFFFFFFFFF AND PUSH20 0xFFFFFFFFFFFFFFFFFFFFFFFFFFFFFFFFFFFFFFFF AND DUP2 MSTORE PUSH1 0x20 ADD SWAP1 DUP2 MSTORE PUSH1 0x20 ADD PUSH0 KECCAK256 PUSH0 PUSH2 0x100 EXP DUP2 SLOAD DUP2 PUSH1 0xFF MUL NOT AND SWAP1 DUP4 ISZERO ISZERO MUL OR SWAP1 SSTORE POP PUSH2 0x102 PUSH2 0x1D3 PUSH1 0x20 SHL PUSH1 0x20 SHR JUMP JUMPDEST PUSH20 0xFFFFFFFFFFFFFFFFFFFFFFFFFFFFFFFFFFFFFFFF AND DUP3 PUSH20 0xFFFFFFFFFFFFFFFFFFFFFFFFFFFFFFFFFFFFFFFF AND DUP5 PUSH32 0x2F8788117E7EFF1D82E926EC794901D17C78024A50270940304540A733656F0D PUSH1 0x40 MLOAD PUSH1 0x40 MLOAD DUP1 SWAP2 SUB SWAP1 LOG4 PUSH1 0x1 SWAP1 POP PUSH2 0x169 JUMP JUMPDEST PUSH0 SWAP1 POP JUMPDEST SWAP3 SWAP2 POP POP JUMP JUMPDEST PUSH0 PUSH1 0x2 PUSH0 DUP5 DUP2 MSTORE PUSH1 0x20 ADD SWAP1 DUP2 MSTORE PUSH1 0x20 ADD PUSH0 KECCAK256 PUSH0 ADD PUSH0 DUP4 PUSH20 0xFFFFFFFFFFFFFFFFFFFFFFFFFFFFFFFFFFFFFFFF AND PUSH20 0xFFFFFFFFFFFFFFFFFFFFFFFFFFFFFFFFFFFFFFFF AND DUP2 MSTORE PUSH1 0x20 ADD SWAP1 DUP2 MSTORE PUSH1 0x20 ADD PUSH0 KECCAK256 PUSH0 SWAP1 SLOAD SWAP1 PUSH2 0x100 EXP SWAP1 DIV PUSH1 0xFF AND SWAP1 POP SWAP3 SWAP2 POP POP JUMP JUMPDEST PUSH0 CALLER SWAP1 POP SWAP1 JUMP JUMPDEST PUSH2 0x459D DUP1 PUSH2 0x1E7 PUSH0 CODECOPY PUSH0 RETURN INVALID PUSH1 0x80 PUSH1 0x40 MSTORE PUSH1 0x4 CALLDATASIZE LT PUSH2 0x1E2 JUMPI PUSH0 CALLDATALOAD PUSH1 0xE0 SHR DUP1 PUSH4 0x8456CB59 GT PUSH2 0x101 JUMPI DUP1 PUSH4 0xC087E28B GT PUSH2 0x94 JUMPI DUP1 PUSH4 0xD83C6868 GT PUSH2 0x63 JUMPI DUP1 PUSH4 0xD83C6868 EQ PUSH2 0x737 JUMPI DUP1 PUSH4 0xDAA6F020 EQ PUSH2 0x77B JUMPI DUP1 PUSH4 0xE69269A6 EQ PUSH2 0x7A3 JUMPI DUP1 PUSH4 0xE9AC9D1E EQ PUSH2 0x7BF JUMPI PUSH2 0x1E2 JUMP JUMPDEST DUP1 PUSH4 0xC087E28B EQ PUSH2 0x67F JUMPI DUP1 PUSH4 0xC08F3954 EQ PUSH2 0x6A9 JUMPI DUP1 PUSH4 0xCB00D3D2 EQ PUSH2 0x6D3 JUMPI DUP1 PUSH4 0xD547741F EQ PUSH2 0x70F JUMPI PUSH2 0x1E2 JUMP JUMPDEST DUP1 PUSH4 0x91D14854 GT PUSH2 0xD0 JUMPI DUP1 PUSH4 0x91D14854 EQ PUSH2 0x5C1 JUMPI DUP1 PUSH4 0x9EF4CBCC EQ PUSH2 0x5FD JUMPI DUP1 PUSH4 0xA217FDDF EQ PUSH2 0x619 JUMPI DUP1 PUSH4 0xAFC737D1 EQ PUSH2 0x643 JUMPI PUSH2 0x1E2 JUMP JUMPDEST DUP1 PUSH4 0x8456CB59 EQ PUSH2 0x50B JUMPI DUP1 PUSH4 0x863B6A39 EQ PUSH2 0x521 JUMPI DUP1 PUSH4 0x8A9620CE EQ PUSH2 0x55D JUMPI DUP1 PUSH4 0x9155105F EQ PUSH2 0x585 JUMPI PUSH2 0x1E2 JUMP JUMPDEST DUP1 PUSH4 0x3DD4094F GT PUSH2 0x179 JUMPI DUP1 PUSH4 0x5C975ABB GT PUSH2 0x148 JUMPI DUP1 PUSH4 0x5C975ABB EQ PUSH2 0x43F JUMPI DUP1 PUSH4 0x75B238FC EQ PUSH2 0x469 JUMPI DUP1 PUSH4 0x7C2841CD EQ PUSH2 0x493 JUMPI DUP1 PUSH4 0x826CE785 EQ PUSH2 0x4CF JUMPI PUSH2 0x1E2 JUMP JUMPDEST DUP1 PUSH4 0x3DD4094F EQ PUSH2 0x395 JUMPI DUP1 PUSH4 0x3F4BA83A EQ PUSH2 0x3D1 JUMPI DUP1 PUSH4 0x43533E1D EQ PUSH2 0x3E7 JUMPI DUP1 PUSH4 0x45F4BC07 EQ PUSH2 0x403 JUMPI PUSH2 0x1E2 JUMP JUMPDEST DUP1 PUSH4 0x248A9CA3 GT PUSH2 0x1B5 JUMPI DUP1 PUSH4 0x248A9CA3 EQ PUSH2 0x2E1 JUMPI DUP1 PUSH4 0x2F2FF15D EQ PUSH2 0x31D JUMPI DUP1 PUSH4 0x300E9DAE EQ PUSH2 0x345 JUMPI DUP1 PUSH4 0x36568ABE EQ PUSH2 0x36D JUMPI PUSH2 0x1E2 JUMP JUMPDEST DUP1 PUSH4 0x1FFC9A7 EQ PUSH2 0x1E6 JUMPI DUP1 PUSH4 0x3E4CF5B EQ PUSH2 0x222 JUMPI DUP1 PUSH4 0xB5D7085 EQ PUSH2 0x25E JUMPI DUP1 PUSH4 0x1DBCFC44 EQ PUSH2 0x2A3 JUMPI JUMPDEST PUSH0 PUSH0 REVERT JUMPDEST CALLVALUE DUP1 ISZERO PUSH2 0x1F1 JUMPI PUSH0 PUSH0 REVERT JUMPDEST POP PUSH2 0x20C PUSH1 0x4 DUP1 CALLDATASIZE SUB DUP2 ADD SWAP1 PUSH2 0x207 SWAP2 SWAP1 PUSH2 0x354E JUMP JUMPDEST PUSH2 0x7FD JUMP JUMPDEST PUSH1 0x40 MLOAD PUSH2 0x219 SWAP2 SWAP1 PUSH2 0x3593 JUMP JUMPDEST PUSH1 0x40 MLOAD DUP1 SWAP2 SUB SWAP1 RETURN JUMPDEST CALLVALUE DUP1 ISZERO PUSH2 0x22D JUMPI PUSH0 PUSH0 REVERT JUMPDEST POP PUSH2 0x248 PUSH1 0x4 DUP1 CALLDATASIZE SUB DUP2 ADD SWAP1 PUSH2 0x243 SWAP2 SWAP1 PUSH2 0x3639 JUMP JUMPDEST PUSH2 0x876 JUMP JUMPDEST PUSH1 0x40 MLOAD PUSH2 0x255 SWAP2 SWAP1 PUSH2 0x3686 JUMP JUMPDEST PUSH1 0x40 MLOAD DUP1 SWAP2 SUB SWAP1 RETURN JUMPDEST CALLVALUE DUP1 ISZERO PUSH2 0x269 JUMPI PUSH0 PUSH0 REVERT JUMPDEST POP PUSH2 0x284 PUSH1 0x4 DUP1 CALLDATASIZE SUB DUP2 ADD SWAP1 PUSH2 0x27F SWAP2 SWAP1 PUSH2 0x369F JUMP JUMPDEST PUSH2 0x896 JUMP JUMPDEST PUSH1 0x40 MLOAD PUSH2 0x29A SWAP11 SWAP10 SWAP9 SWAP8 SWAP7 SWAP6 SWAP5 SWAP4 SWAP3 SWAP2 SWAP1 PUSH2 0x373A JUMP JUMPDEST PUSH1 0x40 MLOAD DUP1 SWAP2 SUB SWAP1 RETURN JUMPDEST CALLVALUE DUP1 ISZERO PUSH2 0x2AE JUMPI PUSH0 PUSH0 REVERT JUMPDEST POP PUSH2 0x2C9 PUSH1 0x4 DUP1 CALLDATASIZE SUB DUP2 ADD SWAP1 PUSH2 0x2C4 SWAP2 SWAP1 PUSH2 0x37DB JUMP JUMPDEST PUSH2 0x978 JUMP JUMPDEST PUSH1 0x40 MLOAD PUSH2 0x2D8 SWAP4 SWAP3 SWAP2 SWAP1 PUSH2 0x383A JUMP JUMPDEST PUSH1 0x40 MLOAD DUP1 SWAP2 SUB SWAP1 RETURN JUMPDEST CALLVALUE DUP1 ISZERO PUSH2 0x2EC JUMPI PUSH0 PUSH0 REVERT JUMPDEST POP PUSH2 0x307 PUSH1 0x4 DUP1 CALLDATASIZE SUB DUP2 ADD SWAP1 PUSH2 0x302 SWAP2 SWAP1 PUSH2 0x38A2 JUMP JUMPDEST PUSH2 0x9E2 JUMP JUMPDEST PUSH1 0x40 MLOAD PUSH2 0x314 SWAP2 SWAP1 PUSH2 0x38DC JUMP JUMPDEST PUSH1 0x40 MLOAD DUP1 SWAP2 SUB SWAP1 RETURN JUMPDEST CALLVALUE DUP1 ISZERO PUSH2 0x328 JUMPI PUSH0 PUSH0 REVERT JUMPDEST POP PUSH2 0x343 PUSH1 0x4 DUP1 CALLDATASIZE SUB DUP2 ADD SWAP1 PUSH2 0x33E SWAP2 SWAP1 PUSH2 0x38F5 JUMP JUMPDEST PUSH2 0x9FF JUMP JUMPDEST STOP JUMPDEST CALLVALUE DUP1 ISZERO PUSH2 0x350 JUMPI PUSH0 PUSH0 REVERT JUMPDEST POP PUSH2 0x36B PUSH1 0x4 DUP1 CALLDATASIZE SUB DUP2 ADD SWAP1 PUSH2 0x366 SWAP2 SWAP1 PUSH2 0x369F JUMP JUMPDEST PUSH2 0xA21 JUMP JUMPDEST STOP JUMPDEST CALLVALUE DUP1 ISZERO PUSH2 0x378 JUMPI PUSH0 PUSH0 REVERT JUMPDEST POP PUSH2 0x393 PUSH1 0x4 DUP1 CALLDATASIZE SUB DUP2 ADD SWAP1 PUSH2 0x38E SWAP2 SWAP1 PUSH2 0x38F5 JUMP JUMPDEST PUSH2 0xDAB JUMP JUMPDEST STOP JUMPDEST CALLVALUE DUP1 ISZERO PUSH2 0x3A0 JUMPI PUSH0 PUSH0 REVERT JUMPDEST POP PUSH2 0x3BB PUSH1 0x4 DUP1 CALLDATASIZE SUB DUP2 ADD SWAP1 PUSH2 0x3B6 SWAP2 SWAP1 PUSH2 0x3639 JUMP JUMPDEST PUSH2 0xE26 JUMP JUMPDEST PUSH1 0x40 MLOAD PUSH2 0x3C8 SWAP2 SWAP1 PUSH2 0x3A39 JUMP JUMPDEST PUSH1 0x40 MLOAD DUP1 SWAP2 SUB SWAP1 RETURN JUMPDEST CALLVALUE DUP1 ISZERO PUSH2 0x3DC JUMPI PUSH0 PUSH0 REVERT JUMPDEST POP PUSH2 0x3E5 PUSH2 0xF37 JUMP JUMPDEST STOP JUMPDEST PUSH2 0x401 PUSH1 0x4 DUP1 CALLDATASIZE SUB DUP2 ADD SWAP1 PUSH2 0x3FC SWAP2 SWAP1 PUSH2 0x369F JUMP JUMPDEST PUSH2 0xF6C JUMP JUMPDEST STOP JUMPDEST CALLVALUE DUP1 ISZERO PUSH2 0x40E JUMPI PUSH0 PUSH0 REVERT JUMPDEST POP PUSH2 0x429 PUSH1 0x4 DUP1 CALLDATASIZE SUB DUP2 ADD SWAP1 PUSH2 0x424 SWAP2 SWAP1 PUSH2 0x3639 JUMP JUMPDEST PUSH2 0x1358 JUMP JUMPDEST PUSH1 0x40 MLOAD PUSH2 0x436 SWAP2 SWAP1 PUSH2 0x3593 JUMP JUMPDEST PUSH1 0x40 MLOAD DUP1 SWAP2 SUB SWAP1 RETURN JUMPDEST CALLVALUE DUP1 ISZERO PUSH2 0x44A JUMPI PUSH0 PUSH0 REVERT JUMPDEST POP PUSH2 0x453 PUSH2 0x13BD JUMP JUMPDEST PUSH1 0x40 MLOAD PUSH2 0x460 SWAP2 SWAP1 PUSH2 0x3593 JUMP JUMPDEST PUSH1 0x40 MLOAD DUP1 SWAP2 SUB SWAP1 RETURN JUMPDEST CALLVALUE DUP1 ISZERO PUSH2 0x474 JUMPI PUSH0 PUSH0 REVERT JUMPDEST POP PUSH2 0x47D PUSH2 0x13D2 JUMP JUMPDEST PUSH1 0x40 MLOAD PUSH2 0x48A SWAP2 SWAP1 PUSH2 0x38DC JUMP JUMPDEST PUSH1 0x40 MLOAD DUP1 SWAP2 SUB SWAP1 RETURN JUMPDEST CALLVALUE DUP1 ISZERO PUSH2 0x49E JUMPI PUSH0 PUSH0 REVERT JUMPDEST POP PUSH2 0x4B9 PUSH1 0x4 DUP1 CALLDATASIZE SUB DUP2 ADD SWAP1 PUSH2 0x4B4 SWAP2 SWAP1 PUSH2 0x3639 JUMP JUMPDEST PUSH2 0x13F6 JUMP JUMPDEST PUSH1 0x40 MLOAD PUSH2 0x4C6 SWAP2 SWAP1 PUSH2 0x3593 JUMP JUMPDEST PUSH1 0x40 MLOAD DUP1 SWAP2 SUB SWAP1 RETURN JUMPDEST CALLVALUE DUP1 ISZERO PUSH2 0x4DA JUMPI PUSH0 PUSH0 REVERT JUMPDEST POP PUSH2 0x4F5 PUSH1 0x4 DUP1 CALLDATASIZE SUB DUP2 ADD SWAP1 PUSH2 0x4F0 SWAP2 SWAP1 PUSH2 0x3639 JUMP JUMPDEST PUSH2 0x1420 JUMP JUMPDEST PUSH1 0x40 MLOAD PUSH2 0x502 SWAP2 SWAP1 PUSH2 0x3686 JUMP JUMPDEST PUSH1 0x40 MLOAD DUP1 SWAP2 SUB SWAP1 RETURN JUMPDEST CALLVALUE DUP1 ISZERO PUSH2 0x516 JUMPI PUSH0 PUSH0 REVERT JUMPDEST POP PUSH2 0x51F PUSH2 0x1479 JUMP JUMPDEST STOP JUMPDEST CALLVALUE DUP1 ISZERO PUSH2 0x52C JUMPI PUSH0 PUSH0 REVERT JUMPDEST POP PUSH2 0x547 PUSH1 0x4 DUP1 CALLDATASIZE SUB DUP2 ADD SWAP1 PUSH2 0x542 SWAP2 SWAP1 PUSH2 0x3639 JUMP JUMPDEST PUSH2 0x14AE JUMP JUMPDEST PUSH1 0x40 MLOAD PUSH2 0x554 SWAP2 SWAP1 PUSH2 0x3686 JUMP JUMPDEST PUSH1 0x40 MLOAD DUP1 SWAP2 SUB SWAP1 RETURN JUMPDEST CALLVALUE DUP1 ISZERO PUSH2 0x568 JUMPI PUSH0 PUSH0 REVERT JUMPDEST POP PUSH2 0x583 PUSH1 0x4 DUP1 CALLDATASIZE SUB DUP2 ADD SWAP1 PUSH2 0x57E SWAP2 SWAP1 PUSH2 0x3A59 JUMP JUMPDEST PUSH2 0x1599 JUMP JUMPDEST STOP JUMPDEST CALLVALUE DUP1 ISZERO PUSH2 0x590 JUMPI PUSH0 PUSH0 REVERT JUMPDEST POP PUSH2 0x5AB PUSH1 0x4 DUP1 CALLDATASIZE SUB DUP2 ADD SWAP1 PUSH2 0x5A6 SWAP2 SWAP1 PUSH2 0x3639 JUMP JUMPDEST PUSH2 0x15F2 JUMP JUMPDEST PUSH1 0x40 MLOAD PUSH2 0x5B8 SWAP2 SWAP1 PUSH2 0x3593 JUMP JUMPDEST PUSH1 0x40 MLOAD DUP1 SWAP2 SUB SWAP1 RETURN JUMPDEST CALLVALUE DUP1 ISZERO PUSH2 0x5CC JUMPI PUSH0 PUSH0 REVERT JUMPDEST POP PUSH2 0x5E7 PUSH1 0x4 DUP1 CALLDATASIZE SUB DUP2 ADD SWAP1 PUSH2 0x5E2 SWAP2 SWAP1 PUSH2 0x38F5 JUMP JUMPDEST PUSH2 0x1725 JUMP JUMPDEST PUSH1 0x40 MLOAD PUSH2 0x5F4 SWAP2 SWAP1 PUSH2 0x3593 JUMP JUMPDEST PUSH1 0x40 MLOAD DUP1 SWAP2 SUB SWAP1 RETURN JUMPDEST PUSH2 0x617 PUSH1 0x4 DUP1 CALLDATASIZE SUB DUP2 ADD SWAP1 PUSH2 0x612 SWAP2 SWAP1 PUSH2 0x369F JUMP JUMPDEST PUSH2 0x1789 JUMP JUMPDEST STOP JUMPDEST CALLVALUE DUP1 ISZERO PUSH2 0x624 JUMPI PUSH0 PUSH0 REVERT JUMPDEST POP PUSH2 0x62D PUSH2 0x1BC5 JUMP JUMPDEST PUSH1 0x40 MLOAD PUSH2 0x63A SWAP2 SWAP1 PUSH2 0x38DC JUMP JUMPDEST PUSH1 0x40 MLOAD DUP1 SWAP2 SUB SWAP1 RETURN JUMPDEST CALLVALUE DUP1 ISZERO PUSH2 0x64E JUMPI PUSH0 PUSH0 REVERT JUMPDEST POP PUSH2 0x669 PUSH1 0x4 DUP1 CALLDATASIZE SUB DUP2 ADD SWAP1 PUSH2 0x664 SWAP2 SWAP1 PUSH2 0x369F JUMP JUMPDEST PUSH2 0x1BCB JUMP JUMPDEST PUSH1 0x40 MLOAD PUSH2 0x676 SWAP2 SWAP1 PUSH2 0x3686 JUMP JUMPDEST PUSH1 0x40 MLOAD DUP1 SWAP2 SUB SWAP1 RETURN JUMPDEST CALLVALUE DUP1 ISZERO PUSH2 0x68A JUMPI PUSH0 PUSH0 REVERT JUMPDEST POP PUSH2 0x693 PUSH2 0x1BE8 JUMP JUMPDEST PUSH1 0x40 MLOAD PUSH2 0x6A0 SWAP2 SWAP1 PUSH2 0x3686 JUMP JUMPDEST PUSH1 0x40 MLOAD DUP1 SWAP2 SUB SWAP1 RETURN JUMPDEST CALLVALUE DUP1 ISZERO PUSH2 0x6B4 JUMPI PUSH0 PUSH0 REVERT JUMPDEST POP PUSH2 0x6BD PUSH2 0x1BEE JUMP JUMPDEST PUSH1 0x40 MLOAD PUSH2 0x6CA SWAP2 SWAP1 PUSH2 0x38DC JUMP JUMPDEST PUSH1 0x40 MLOAD DUP1 SWAP2 SUB SWAP1 RETURN JUMPDEST CALLVALUE DUP1 ISZERO PUSH2 0x6DE JUMPI PUSH0 PUSH0 REVERT JUMPDEST POP PUSH2 0x6F9 PUSH1 0x4 DUP1 CALLDATASIZE SUB DUP2 ADD SWAP1 PUSH2 0x6F4 SWAP2 SWAP1 PUSH2 0x369F JUMP JUMPDEST PUSH2 0x1C12 JUMP JUMPDEST PUSH1 0x40 MLOAD PUSH2 0x706 SWAP2 SWAP1 PUSH2 0x3B2C JUMP JUMPDEST PUSH1 0x40 MLOAD DUP1 SWAP2 SUB SWAP1 RETURN JUMPDEST CALLVALUE DUP1 ISZERO PUSH2 0x71A JUMPI PUSH0 PUSH0 REVERT JUMPDEST POP PUSH2 0x735 PUSH1 0x4 DUP1 CALLDATASIZE SUB DUP2 ADD SWAP1 PUSH2 0x730 SWAP2 SWAP1 PUSH2 0x38F5 JUMP JUMPDEST PUSH2 0x1CB1 JUMP JUMPDEST STOP JUMPDEST CALLVALUE DUP1 ISZERO PUSH2 0x742 JUMPI PUSH0 PUSH0 REVERT JUMPDEST POP PUSH2 0x75D PUSH1 0x4 DUP1 CALLDATASIZE SUB DUP2 ADD SWAP1 PUSH2 0x758 SWAP2 SWAP1 PUSH2 0x369F JUMP JUMPDEST PUSH2 0x1CD3 JUMP JUMPDEST PUSH1 0x40 MLOAD PUSH2 0x772 SWAP10 SWAP9 SWAP8 SWAP7 SWAP6 SWAP5 SWAP4 SWAP3 SWAP2 SWAP1 PUSH2 0x3B4C JUMP JUMPDEST PUSH1 0x40 MLOAD DUP1 SWAP2 SUB SWAP1 RETURN JUMPDEST CALLVALUE DUP1 ISZERO PUSH2 0x786 JUMPI PUSH0 PUSH0 REVERT JUMPDEST POP PUSH2 0x7A1 PUSH1 0x4 DUP1 CALLDATASIZE SUB DUP2 ADD SWAP1 PUSH2 0x79C SWAP2 SWAP1 PUSH2 0x369F JUMP JUMPDEST PUSH2 0x1DD5 JUMP JUMPDEST STOP JUMPDEST PUSH2 0x7BD PUSH1 0x4 DUP1 CALLDATASIZE SUB DUP2 ADD SWAP1 PUSH2 0x7B8 SWAP2 SWAP1 PUSH2 0x3D0A JUMP JUMPDEST PUSH2 0x1F7E JUMP JUMPDEST STOP JUMPDEST CALLVALUE DUP1 ISZERO PUSH2 0x7CA JUMPI PUSH0 PUSH0 REVERT JUMPDEST POP PUSH2 0x7E5 PUSH1 0x4 DUP1 CALLDATASIZE SUB DUP2 ADD SWAP1 PUSH2 0x7E0 SWAP2 SWAP1 PUSH2 0x3D8A JUMP JUMPDEST PUSH2 0x23EB JUMP JUMPDEST PUSH1 0x40 MLOAD PUSH2 0x7F4 SWAP4 SWAP3 SWAP2 SWAP1 PUSH2 0x3DC8 JUMP JUMPDEST PUSH1 0x40 MLOAD DUP1 SWAP2 SUB SWAP1 RETURN JUMPDEST PUSH0 PUSH32 0x7965DB0B00000000000000000000000000000000000000000000000000000000 PUSH28 0xFFFFFFFFFFFFFFFFFFFFFFFFFFFFFFFFFFFFFFFFFFFFFFFFFFFFFFFF NOT AND DUP3 PUSH28 0xFFFFFFFFFFFFFFFFFFFFFFFFFFFFFFFFFFFFFFFFFFFFFFFFFFFFFFFF NOT AND EQ DUP1 PUSH2 0x86F JUMPI POP PUSH2 0x86E DUP3 PUSH2 0x2477 JUMP JUMPDEST JUMPDEST SWAP1 POP SWAP2 SWAP1 POP JUMP JUMPDEST PUSH1 0x7 PUSH1 0x20 MSTORE DUP2 PUSH0 MSTORE PUSH1 0x40 PUSH0 KECCAK256 PUSH1 0x20 MSTORE DUP1 PUSH0 MSTORE PUSH1 0x40 PUSH0 KECCAK256 PUSH0 SWAP2 POP SWAP2 POP POP SLOAD DUP2 JUMP JUMPDEST PUSH1 0x4 PUSH1 0x20 MSTORE DUP1 PUSH0 MSTORE PUSH1 0x40 PUSH0 KECCAK256 PUSH0 SWAP2 POP SWAP1 POP DUP1 PUSH0 ADD DUP1 SLOAD PUSH2 0x8B5 SWAP1 PUSH2 0x3E2A JUMP JUMPDEST DUP1 PUSH1 0x1F ADD PUSH1 0x20 DUP1 SWAP2 DIV MUL PUSH1 0x20 ADD PUSH1 0x40 MLOAD SWAP1 DUP2 ADD PUSH1 0x40 MSTORE DUP1 SWAP3 SWAP2 SWAP1 DUP2 DUP2 MSTORE PUSH1 0x20 ADD DUP3 DUP1 SLOAD PUSH2 0x8E1 SWAP1 PUSH2 0x3E2A JUMP JUMPDEST DUP1 ISZERO PUSH2 0x92C JUMPI DUP1 PUSH1 0x1F LT PUSH2 0x903 JUMPI PUSH2 0x100 DUP1 DUP4 SLOAD DIV MUL DUP4 MSTORE SWAP2 PUSH1 0x20 ADD SWAP2 PUSH2 0x92C JUMP JUMPDEST DUP3 ADD SWAP2 SWAP1 PUSH0 MSTORE PUSH1 0x20 PUSH0 KECCAK256 SWAP1 JUMPDEST DUP2 SLOAD DUP2 MSTORE SWAP1 PUSH1 0x1 ADD SWAP1 PUSH1 0x20 ADD DUP1 DUP4 GT PUSH2 0x90F JUMPI DUP3 SWAP1 SUB PUSH1 0x1F AND DUP3 ADD SWAP2 JUMPDEST POP POP POP POP POP SWAP1 DUP1 PUSH1 0x1 ADD SLOAD SWAP1 DUP1 PUSH1 0x2 ADD SLOAD SWAP1 DUP1 PUSH1 0x3 ADD SLOAD SWAP1 DUP1 PUSH1 0x5 ADD PUSH0 SWAP1 SLOAD SWAP1 PUSH2 0x100 EXP SWAP1 DIV PUSH1 0xFF AND SWAP1 DUP1 PUSH1 0x6 ADD SLOAD SWAP1 DUP1 PUSH1 0x7 ADD SLOAD SWAP1 DUP1 PUSH1 0x8 ADD SLOAD SWAP1 DUP1 PUSH1 0x9 ADD SLOAD SWAP1 DUP1 PUSH1 0x12 ADD SLOAD SWAP1 POP DUP11 JUMP JUMPDEST PUSH1 0x5 PUSH1 0x20 MSTORE DUP3 PUSH0 MSTORE PUSH1 0x40 PUSH0 KECCAK256 PUSH1 0x20 MSTORE DUP2 PUSH0 MSTORE PUSH1 0x40 PUSH0 KECCAK256 DUP2 DUP2 SLOAD DUP2 LT PUSH2 0x99B JUMPI PUSH0 DUP1 REVERT JUMPDEST SWAP1 PUSH0 MSTORE PUSH1 0x20 PUSH0 KECCAK256 SWAP1 PUSH1 0x3 MUL ADD PUSH0 SWAP3 POP SWAP3 POP POP POP DUP1 PUSH0 ADD PUSH0 SWAP1 SLOAD SWAP1 PUSH2 0x100 EXP SWAP1 DIV PUSH20 0xFFFFFFFFFFFFFFFFFFFFFFFFFFFFFFFFFFFFFFFF AND SWAP1 DUP1 PUSH1 0x1 ADD SLOAD SWAP1 DUP1 PUSH1 0x2 ADD SLOAD SWAP1 POP DUP4 JUMP JUMPDEST PUSH0 PUSH1 0x2 PUSH0 DUP4 DUP2 MSTORE PUSH1 0x20 ADD SWAP1 DUP2 MSTORE PUSH1 0x20 ADD PUSH0 KECCAK256 PUSH1 0x1 ADD SLOAD SWAP1 POP SWAP2 SWAP1 POP JUMP JUMPDEST PUSH2 0xA08 DUP3 PUSH2 0x9E2 JUMP JUMPDEST PUSH2 0xA11 DUP2 PUSH2 0x24E0 JUMP JUMPDEST PUSH2 0xA1B DUP4 DUP4 PUSH2 0x24F4 JUMP JUMPDEST POP POP POP POP JUMP JUMPDEST DUP1 PUSH0 DUP2 EQ DUP1 PUSH2 0xA31 JUMPI POP PUSH1 0x3 SLOAD DUP2 GT JUMPDEST ISZERO PUSH2 0xA68 JUMPI PUSH1 0x40 MLOAD PUSH32 0x37FF9D600000000000000000000000000000000000000000000000000000000 DUP2 MSTORE PUSH1 0x4 ADD PUSH1 0x40 MLOAD DUP1 SWAP2 SUB SWAP1 REVERT JUMPDEST PUSH2 0xA70 PUSH2 0x25DE JUMP JUMPDEST PUSH0 PUSH1 0x4 PUSH0 DUP5 DUP2 MSTORE PUSH1 0x20 ADD SWAP1 DUP2 MSTORE PUSH1 0x20 ADD PUSH0 KECCAK256 SWAP1 POP DUP1 PUSH1 0x5 ADD PUSH0 SWAP1 SLOAD SWAP1 PUSH2 0x100 EXP SWAP1 DIV PUSH1 0xFF AND PUSH2 0xACB JUMPI PUSH1 0x40 MLOAD PUSH32 0x25500E0300000000000000000000000000000000000000000000000000000000 DUP2 MSTORE PUSH1 0x4 ADD PUSH1 0x40 MLOAD DUP1 SWAP2 SUB SWAP1 REVERT JUMPDEST PUSH3 0x15180 DUP2 PUSH1 0x2 ADD SLOAD DUP3 PUSH1 0x8 ADD SLOAD PUSH2 0xAE3 SWAP2 SWAP1 PUSH2 0x3E87 JUMP JUMPDEST PUSH2 0xAED SWAP2 SWAP1 PUSH2 0x3E87 JUMP JUMPDEST TIMESTAMP LT ISZERO PUSH2 0xB26 JUMPI PUSH1 0x40 MLOAD PUSH32 0xD15F73B500000000000000000000000000000000000000000000000000000000 DUP2 MSTORE PUSH1 0x4 ADD PUSH1 0x40 MLOAD DUP1 SWAP2 SUB SWAP1 REVERT JUMPDEST PUSH0 PUSH0 SWAP1 POP JUMPDEST DUP2 PUSH1 0x4 ADD DUP1 SLOAD SWAP1 POP DUP2 LT ISZERO PUSH2 0xD9C JUMPI PUSH0 DUP3 PUSH1 0x4 ADD DUP3 DUP2 SLOAD DUP2 LT PUSH2 0xB51 JUMPI PUSH2 0xB50 PUSH2 0x3EBA JUMP JUMPDEST JUMPDEST SWAP1 PUSH0 MSTORE PUSH1 0x20 PUSH0 KECCAK256 ADD PUSH0 SWAP1 SLOAD SWAP1 PUSH2 0x100 EXP SWAP1 DIV PUSH20 0xFFFFFFFFFFFFFFFFFFFFFFFFFFFFFFFFFFFFFFFF AND SWAP1 POP PUSH1 0x6 PUSH0 DUP7 DUP2 MSTORE PUSH1 0x20 ADD SWAP1 DUP2 MSTORE PUSH1 0x20 ADD PUSH0 KECCAK256 PUSH0 DUP3 PUSH20 0xFFFFFFFFFFFFFFFFFFFFFFFFFFFFFFFFFFFFFFFF AND PUSH20 0xFFFFFFFFFFFFFFFFFFFFFFFFFFFFFFFFFFFFFFFF AND DUP2 MSTORE PUSH1 0x20 ADD SWAP1 DUP2 MSTORE PUSH1 0x20 ADD PUSH0 KECCAK256 PUSH0 SWAP1 SLOAD SWAP1 PUSH2 0x100 EXP SWAP1 DIV PUSH1 0xFF AND PUSH2 0xD8E JUMPI PUSH0 DUP4 PUSH1 0x10 ADD PUSH0 DUP4 PUSH20 0xFFFFFFFFFFFFFFFFFFFFFFFFFFFFFFFFFFFFFFFF AND PUSH20 0xFFFFFFFFFFFFFFFFFFFFFFFFFFFFFFFFFFFFFFFF AND DUP2 MSTORE PUSH1 0x20 ADD SWAP1 DUP2 MSTORE PUSH1 0x20 ADD PUSH0 KECCAK256 SLOAD SWAP1 POP PUSH0 DUP2 GT DUP1 ISZERO PUSH2 0xC73 JUMPI POP DUP4 PUSH1 0x11 ADD PUSH0 DUP4 PUSH20 0xFFFFFFFFFFFFFFFFFFFFFFFFFFFFFFFFFFFFFFFF AND PUSH20 0xFFFFFFFFFFFFFFFFFFFFFFFFFFFFFFFFFFFFFFFF AND DUP2 MSTORE PUSH1 0x20 ADD SWAP1 DUP2 MSTORE PUSH1 0x20 ADD PUSH0 KECCAK256 PUSH0 SWAP1 SLOAD SWAP1 PUSH2 0x100 EXP SWAP1 DIV PUSH1 0xFF AND ISZERO JUMPDEST ISZERO PUSH2 0xD39 JUMPI PUSH1 0x1 DUP5 PUSH1 0x11 ADD PUSH0 DUP5 PUSH20 0xFFFFFFFFFFFFFFFFFFFFFFFFFFFFFFFFFFFFFFFF AND PUSH20 0xFFFFFFFFFFFFFFFFFFFFFFFFFFFFFFFFFFFFFFFF AND DUP2 MSTORE PUSH1 0x20 ADD SWAP1 DUP2 MSTORE PUSH1 0x20 ADD PUSH0 KECCAK256 PUSH0 PUSH2 0x100 EXP DUP2 SLOAD DUP2 PUSH1 0xFF MUL NOT AND SWAP1 DUP4 ISZERO ISZERO MUL OR SWAP1 SSTORE POP DUP1 DUP5 PUSH1 0x12 ADD PUSH0 DUP3 DUP3 SLOAD PUSH2 0xCE2 SWAP2 SWAP1 PUSH2 0x3EE7 JUMP JUMPDEST SWAP3 POP POP DUP2 SWAP1 SSTORE POP DUP2 PUSH20 0xFFFFFFFFFFFFFFFFFFFFFFFFFFFFFFFFFFFFFFFF AND DUP7 PUSH32 0x9ED6C8E3F152B165733C0AA8EF3B791333859FB2EBCEFD11171ADE0C13814F69 DUP4 PUSH1 0x40 MLOAD PUSH2 0xD30 SWAP2 SWAP1 PUSH2 0x3686 JUMP JUMPDEST PUSH1 0x40 MLOAD DUP1 SWAP2 SUB SWAP1 LOG3 JUMPDEST DUP2 PUSH20 0xFFFFFFFFFFFFFFFFFFFFFFFFFFFFFFFFFFFFFFFF AND DUP7 PUSH32 0x59CA9B721031F8A20FFB25E62F673B6FE5FC0B301E1D6CC089FCCCADF62E4862 DUP7 PUSH1 0x6 ADD SLOAD PUSH1 0x40 MLOAD PUSH2 0xD84 SWAP2 SWAP1 PUSH2 0x3686 JUMP JUMPDEST PUSH1 0x40 MLOAD DUP1 SWAP2 SUB SWAP1 LOG3 POP JUMPDEST POP DUP1 DUP1 PUSH1 0x1 ADD SWAP2 POP POP PUSH2 0xB2B JUMP JUMPDEST POP PUSH2 0xDA6 DUP4 PUSH2 0x2628 JUMP JUMPDEST POP POP POP JUMP JUMPDEST PUSH2 0xDB3 PUSH2 0x28E2 JUMP JUMPDEST PUSH20 0xFFFFFFFFFFFFFFFFFFFFFFFFFFFFFFFFFFFFFFFF AND DUP2 PUSH20 0xFFFFFFFFFFFFFFFFFFFFFFFFFFFFFFFFFFFFFFFF AND EQ PUSH2 0xE17 JUMPI PUSH1 0x40 MLOAD PUSH32 0x6697B23200000000000000000000000000000000000000000000000000000000 DUP2 MSTORE PUSH1 0x4 ADD PUSH1 0x40 MLOAD DUP1 SWAP2 SUB SWAP1 REVERT JUMPDEST PUSH2 0xE21 DUP3 DUP3 PUSH2 0x28E9 JUMP JUMPDEST POP POP POP JUMP JUMPDEST PUSH1 0x60 PUSH1 0x5 PUSH0 DUP5 DUP2 MSTORE PUSH1 0x20 ADD SWAP1 DUP2 MSTORE PUSH1 0x20 ADD PUSH0 KECCAK256 PUSH0 DUP4 PUSH20 0xFFFFFFFFFFFFFFFFFFFFFFFFFFFFFFFFFFFFFFFF AND PUSH20 0xFFFFFFFFFFFFFFFFFFFFFFFFFFFFFFFFFFFFFFFF AND DUP2 MSTORE PUSH1 0x20 ADD SWAP1 DUP2 MSTORE PUSH1 0x20 ADD PUSH0 KECCAK256 DUP1 SLOAD DUP1 PUSH1 0x20 MUL PUSH1 0x20 ADD PUSH1 0x40 MLOAD SWAP1 DUP2 ADD PUSH1 0x40 MSTORE DUP1 SWAP3 SWAP2 SWAP1 DUP2 DUP2 MSTORE PUSH1 0x20 ADD PUSH0 SWAP1 JUMPDEST DUP3 DUP3 LT ISZERO PUSH2 0xF2B JUMPI DUP4 DUP3 SWAP1 PUSH0 MSTORE PUSH1 0x20 PUSH0 KECCAK256 SWAP1 PUSH1 0x3 MUL ADD PUSH1 0x40 MLOAD DUP1 PUSH1 0x60 ADD PUSH1 0x40 MSTORE SWAP1 DUP2 PUSH0 DUP3 ADD PUSH0 SWAP1 SLOAD SWAP1 PUSH2 0x100 EXP SWAP1 DIV PUSH20 0xFFFFFFFFFFFFFFFFFFFFFFFFFFFFFFFFFFFFFFFF AND PUSH20 0xFFFFFFFFFFFFFFFFFFFFFFFFFFFFFFFFFFFFFFFF AND PUSH20 0xFFFFFFFFFFFFFFFFFFFFFFFFFFFFFFFFFFFFFFFF AND DUP2 MSTORE PUSH1 0x20 ADD PUSH1 0x1 DUP3 ADD SLOAD DUP2 MSTORE PUSH1 0x20 ADD PUSH1 0x2 DUP3 ADD SLOAD DUP2 MSTORE POP POP DUP2 MSTORE PUSH1 0x20 ADD SWAP1 PUSH1 0x1 ADD SWAP1 PUSH2 0xE93 JUMP JUMPDEST POP POP POP POP SWAP1 POP SWAP3 SWAP2 POP POP JUMP JUMPDEST PUSH32 0xA49807205CE4D355092EF5A8A18F56E8913CF4A201FBE287825B095693C21775 PUSH2 0xF61 DUP2 PUSH2 0x24E0 JUMP JUMPDEST PUSH2 0xF69 PUSH2 0x29D3 JUMP JUMPDEST POP JUMP JUMPDEST DUP1 PUSH0 DUP2 EQ DUP1 PUSH2 0xF7C JUMPI POP PUSH1 0x3 SLOAD DUP2 GT JUMPDEST ISZERO PUSH2 0xFB3 JUMPI PUSH1 0x40 MLOAD PUSH32 0x37FF9D600000000000000000000000000000000000000000000000000000000 DUP2 MSTORE PUSH1 0x4 ADD PUSH1 0x40 MLOAD DUP1 SWAP2 SUB SWAP1 REVERT JUMPDEST DUP2 PUSH1 0x4 PUSH0 DUP3 DUP2 MSTORE PUSH1 0x20 ADD SWAP1 DUP2 MSTORE PUSH1 0x20 ADD PUSH0 KECCAK256 PUSH1 0x5 ADD PUSH0 SWAP1 SLOAD SWAP1 PUSH2 0x100 EXP SWAP1 DIV PUSH1 0xFF AND PUSH2 0x100B JUMPI PUSH1 0x40 MLOAD PUSH32 0x25500E0300000000000000000000000000000000000000000000000000000000 DUP2 MSTORE PUSH1 0x4 ADD PUSH1 0x40 MLOAD DUP1 SWAP2 SUB SWAP1 REVERT JUMPDEST PUSH2 0x1013 PUSH2 0x25DE JUMP JUMPDEST PUSH2 0x101B PUSH2 0x2A34 JUMP JUMPDEST PUSH0 PUSH1 0x4 PUSH0 DUP6 DUP2 MSTORE PUSH1 0x20 ADD SWAP1 DUP2 MSTORE PUSH1 0x20 ADD PUSH0 KECCAK256 SWAP1 POP DUP1 PUSH1 0xB ADD PUSH0 CALLER PUSH20 0xFFFFFFFFFFFFFFFFFFFFFFFFFFFFFFFFFFFFFFFF AND PUSH20 0xFFFFFFFFFFFFFFFFFFFFFFFFFFFFFFFFFFFFFFFF AND DUP2 MSTORE PUSH1 0x20 ADD SWAP1 DUP2 MSTORE PUSH1 0x20 ADD PUSH0 KECCAK256 PUSH0 SWAP1 SLOAD SWAP1 PUSH2 0x100 EXP SWAP1 DIV PUSH1 0xFF AND ISZERO PUSH2 0x10B2 JUMPI PUSH1 0x40 MLOAD PUSH32 0x810074BE00000000000000000000000000000000000000000000000000000000 DUP2 MSTORE PUSH1 0x4 ADD PUSH1 0x40 MLOAD DUP1 SWAP2 SUB SWAP1 REVERT JUMPDEST DUP1 PUSH1 0x3 ADD SLOAD DUP2 PUSH1 0x4 ADD DUP1 SLOAD SWAP1 POP LT PUSH2 0x10F6 JUMPI PUSH1 0x40 MLOAD PUSH32 0xCBC6F21000000000000000000000000000000000000000000000000000000000 DUP2 MSTORE PUSH1 0x4 ADD PUSH1 0x40 MLOAD DUP1 SWAP2 SUB SWAP1 REVERT JUMPDEST DUP1 PUSH1 0x1 ADD SLOAD CALLVALUE LT ISZERO PUSH2 0x1134 JUMPI PUSH1 0x40 MLOAD PUSH32 0x3A23D82500000000000000000000000000000000000000000000000000000000 DUP2 MSTORE PUSH1 0x4 ADD PUSH1 0x40 MLOAD DUP1 SWAP2 SUB SWAP1 REVERT JUMPDEST PUSH0 DUP2 PUSH1 0x4 ADD DUP1 SLOAD SWAP1 POP SWAP1 POP DUP2 PUSH1 0x4 ADD CALLER SWAP1 DUP1 PUSH1 0x1 DUP2 SLOAD ADD DUP1 DUP3 SSTORE DUP1 SWAP2 POP POP PUSH1 0x1 SWAP1 SUB SWAP1 PUSH0 MSTORE PUSH1 0x20 PUSH0 KECCAK256 ADD PUSH0 SWAP1 SWAP2 SWAP1 SWAP2 SWAP1 SWAP2 PUSH2 0x100 EXP DUP2 SLOAD DUP2 PUSH20 0xFFFFFFFFFFFFFFFFFFFFFFFFFFFFFFFFFFFFFFFF MUL NOT AND SWAP1 DUP4 PUSH20 0xFFFFFFFFFFFFFFFFFFFFFFFFFFFFFFFFFFFFFFFF AND MUL OR SWAP1 SSTORE POP PUSH1 0x1 DUP3 PUSH1 0xB ADD PUSH0 CALLER PUSH20 0xFFFFFFFFFFFFFFFFFFFFFFFFFFFFFFFFFFFFFFFF AND PUSH20 0xFFFFFFFFFFFFFFFFFFFFFFFFFFFFFFFFFFFFFFFF AND DUP2 MSTORE PUSH1 0x20 ADD SWAP1 DUP2 MSTORE PUSH1 0x20 ADD PUSH0 KECCAK256 PUSH0 PUSH2 0x100 EXP DUP2 SLOAD DUP2 PUSH1 0xFF MUL NOT AND SWAP1 DUP4 ISZERO ISZERO MUL OR SWAP1 SSTORE POP DUP1 DUP3 PUSH1 0xC ADD PUSH0 CALLER PUSH20 0xFFFFFFFFFFFFFFFFFFFFFFFFFFFFFFFFFFFFFFFF AND PUSH20 0xFFFFFFFFFFFFFFFFFFFFFFFFFFFFFFFFFFFFFFFF AND DUP2 MSTORE PUSH1 0x20 ADD SWAP1 DUP2 MSTORE PUSH1 0x20 ADD PUSH0 KECCAK256 DUP2 SWAP1 SSTORE POP CALLVALUE DUP3 PUSH1 0x10 ADD PUSH0 CALLER PUSH20 0xFFFFFFFFFFFFFFFFFFFFFFFFFFFFFFFFFFFFFFFF AND PUSH20 0xFFFFFFFFFFFFFFFFFFFFFFFFFFFFFFFFFFFFFFFF AND DUP2 MSTORE PUSH1 0x20 ADD SWAP1 DUP2 MSTORE PUSH1 0x20 ADD PUSH0 KECCAK256 DUP2 SWAP1 SSTORE POP CALLVALUE DUP3 PUSH1 0x12 ADD PUSH0 DUP3 DUP3 SLOAD PUSH2 0x1293 SWAP2 SWAP1 PUSH2 0x3E87 JUMP JUMPDEST SWAP3 POP POP DUP2 SWAP1 SSTORE POP CALLER PUSH20 0xFFFFFFFFFFFFFFFFFFFFFFFFFFFFFFFFFFFFFFFF AND DUP6 PUSH32 0x40A8C7A25E1EAB32F305B79614CB4EB53A2D5D546BC4A5B0B55E5A7DC1228DCE PUSH1 0x40 MLOAD PUSH1 0x40 MLOAD DUP1 SWAP2 SUB SWAP1 LOG3 CALLER PUSH20 0xFFFFFFFFFFFFFFFFFFFFFFFFFFFFFFFFFFFFFFFF AND DUP6 PUSH32 0xEEC2F3FEB835E2F2FD44281034B04700A1DDDA63DD402949D470A25A7C40B36C CALLVALUE PUSH1 0x40 MLOAD PUSH2 0x1325 SWAP2 SWAP1 PUSH2 0x3686 JUMP JUMPDEST PUSH1 0x40 MLOAD DUP1 SWAP2 SUB SWAP1 LOG3 DUP2 PUSH1 0x3 ADD SLOAD DUP3 PUSH1 0x4 ADD DUP1 SLOAD SWAP1 POP SUB PUSH2 0x1349 JUMPI PUSH2 0x1348 DUP6 PUSH2 0x2A81 JUMP JUMPDEST JUMPDEST POP POP PUSH2 0x1353 PUSH2 0x2B04 JUMP JUMPDEST POP POP POP JUMP JUMPDEST PUSH0 PUSH1 0x4 PUSH0 DUP5 DUP2 MSTORE PUSH1 0x20 ADD SWAP1 DUP2 MSTORE PUSH1 0x20 ADD PUSH0 KECCAK256 PUSH1 0x11 ADD PUSH0 DUP4 PUSH20 0xFFFFFFFFFFFFFFFFFFFFFFFFFFFFFFFFFFFFFFFF AND PUSH20 0xFFFFFFFFFFFFFFFFFFFFFFFFFFFFFFFFFFFFFFFF AND DUP2 MSTORE PUSH1 0x20 ADD SWAP1 DUP2 MSTORE PUSH1 0x20 ADD PUSH0 KECCAK256 PUSH0 SWAP1 SLOAD SWAP1 PUSH2 0x100 EXP SWAP1 DIV PUSH1 0xFF AND SWAP1 POP SWAP3 SWAP2 POP POP JUMP JUMPDEST PUSH0 PUSH1 0x1 PUSH0 SWAP1 SLOAD SWAP1 PUSH2 0x100 EXP SWAP1 DIV PUSH1 0xFF AND SWAP1 POP SWAP1 JUMP JUMPDEST PUSH32 0xA49807205CE4D355092EF5A8A18F56E8913CF4A201FBE287825B095693C21775 DUP2 JUMP JUMPDEST PUSH1 0x6 PUSH1 0x20 MSTORE DUP2 PUSH0 MSTORE PUSH1 0x40 PUSH0 KECCAK256 PUSH1 0x20 MSTORE DUP1 PUSH0 MSTORE PUSH1 0x40 PUSH0 KECCAK256 PUSH0 SWAP2 POP SWAP2 POP SWAP1 SLOAD SWAP1 PUSH2 0x100 EXP SWAP1 DIV PUSH1 0xFF AND DUP2 JUMP JUMPDEST PUSH0 PUSH1 0x4 PUSH0 DUP5 DUP2 MSTORE PUSH1 0x20 ADD SWAP1 DUP2 MSTORE PUSH1 0x20 ADD PUSH0 KECCAK256 PUSH1 0x10 ADD PUSH0 DUP4 PUSH20 0xFFFFFFFFFFFFFFFFFFFFFFFFFFFFFFFFFFFFFFFF AND PUSH20 0xFFFFFFFFFFFFFFFFFFFFFFFFFFFFFFFFFFFFFFFF AND DUP2 MSTORE PUSH1 0x20 ADD SWAP1 DUP2 MSTORE PUSH1 0x20 ADD PUSH0 KECCAK256 SLOAD SWAP1 POP SWAP3 SWAP2 POP POP JUMP JUMPDEST PUSH32 0xA49807205CE4D355092EF5A8A18F56E8913CF4A201FBE287825B095693C21775 PUSH2 0x14A3 DUP2 PUSH2 0x24E0 JUMP JUMPDEST PUSH2 0x14AB PUSH2 0x2B0D JUMP JUMPDEST POP JUMP JUMPDEST PUSH0 PUSH1 0x4 PUSH0 DUP5 DUP2 MSTORE PUSH1 0x20 ADD SWAP1 DUP2 MSTORE PUSH1 0x20 ADD PUSH0 KECCAK256 PUSH1 0xB ADD PUSH0 DUP4 PUSH20 0xFFFFFFFFFFFFFFFFFFFFFFFFFFFFFFFFFFFFFFFF AND PUSH20 0xFFFFFFFFFFFFFFFFFFFFFFFFFFFFFFFFFFFFFFFF AND DUP2 MSTORE PUSH1 0x20 ADD SWAP1 DUP2 MSTORE PUSH1 0x20 ADD PUSH0 KECCAK256 PUSH0 SWAP1 SLOAD SWAP1 PUSH2 0x100 EXP SWAP1 DIV PUSH1 0xFF AND PUSH2 0x1541 JUMPI PUSH1 0x40 MLOAD PUSH32 0x291FC44200000000000000000000000000000000000000000000000000000000 DUP2 MSTORE PUSH1 0x4 ADD PUSH1 0x40 MLOAD DUP1 SWAP2 SUB SWAP1 REVERT JUMPDEST PUSH1 0x4 PUSH0 DUP5 DUP2 MSTORE PUSH1 0x20 ADD SWAP1 DUP2 MSTORE PUSH1 0x20 ADD PUSH0 KECCAK256 PUSH1 0xC ADD PUSH0 DUP4 PUSH20 0xFFFFFFFFFFFFFFFFFFFFFFFFFFFFFFFFFFFFFFFF AND PUSH20 0xFFFFFFFFFFFFFFFFFFFFFFFFFFFFFFFFFFFFFFFF AND DUP2 MSTORE PUSH1 0x20 ADD SWAP1 DUP2 MSTORE PUSH1 0x20 ADD PUSH0 KECCAK256 SLOAD SWAP1 POP SWAP3 SWAP2 POP POP JUMP JUMPDEST PUSH32 0xA49807205CE4D355092EF5A8A18F56E8913CF4A201FBE287825B095693C21775 PUSH2 0x15C3 DUP2 PUSH2 0x24E0 JUMP JUMPDEST PUSH2 0x15ED PUSH32 0x8C7E961E804AF7B2059D42008DE01CCC90FC88B8E6B947B02E12656DDB05CA3A DUP4 PUSH2 0x24F4 JUMP JUMPDEST POP POP POP JUMP JUMPDEST PUSH0 PUSH1 0x4 PUSH0 DUP5 DUP2 MSTORE PUSH1 0x20 ADD SWAP1 DUP2 MSTORE PUSH1 0x20 ADD PUSH0 KECCAK256 PUSH1 0xB ADD PUSH0 DUP4 PUSH20 0xFFFFFFFFFFFFFFFFFFFFFFFFFFFFFFFFFFFFFFFF AND PUSH20 0xFFFFFFFFFFFFFFFFFFFFFFFFFFFFFFFFFFFFFFFF AND DUP2 MSTORE PUSH1 0x20 ADD SWAP1 DUP2 MSTORE PUSH1 0x20 ADD PUSH0 KECCAK256 PUSH0 SWAP1 SLOAD SWAP1 PUSH2 0x100 EXP SWAP1 DIV PUSH1 0xFF AND PUSH2 0x1685 JUMPI PUSH1 0x40 MLOAD PUSH32 0x291FC44200000000000000000000000000000000000000000000000000000000 DUP2 MSTORE PUSH1 0x4 ADD PUSH1 0x40 MLOAD DUP1 SWAP2 SUB SWAP1 REVERT JUMPDEST PUSH0 PUSH1 0x4 PUSH0 DUP6 DUP2 MSTORE PUSH1 0x20 ADD SWAP1 DUP2 MSTORE PUSH1 0x20 ADD PUSH0 KECCAK256 PUSH1 0xC ADD PUSH0 DUP5 PUSH20 0xFFFFFFFFFFFFFFFFFFFFFFFFFFFFFFFFFFFFFFFF AND PUSH20 0xFFFFFFFFFFFFFFFFFFFFFFFFFFFFFFFFFFFFFFFF AND DUP2 MSTORE PUSH1 0x20 ADD SWAP1 DUP2 MSTORE PUSH1 0x20 ADD PUSH0 KECCAK256 SLOAD SWAP1 POP PUSH1 0x4 PUSH0 DUP6 DUP2 MSTORE PUSH1 0x20 ADD SWAP1 DUP2 MSTORE PUSH1 0x20 ADD PUSH0 KECCAK256 PUSH1 0xA ADD DUP2 DUP2 SLOAD DUP2 LT PUSH2 0x16FE JUMPI PUSH2 0x16FD PUSH2 0x3EBA JUMP JUMPDEST JUMPDEST SWAP1 PUSH0 MSTORE PUSH1 0x20 PUSH0 KECCAK256 SWAP1 PUSH1 0x20 SWAP2 DUP3 DUP3 DIV ADD SWAP2 SWAP1 MOD SWAP1 SLOAD SWAP1 PUSH2 0x100 EXP SWAP1 DIV PUSH1 0xFF AND SWAP2 POP POP SWAP3 SWAP2 POP POP JUMP JUMPDEST PUSH0 PUSH1 0x2 PUSH0 DUP5 DUP2 MSTORE PUSH1 0x20 ADD SWAP1 DUP2 MSTORE PUSH1 0x20 ADD PUSH0 KECCAK256 PUSH0 ADD PUSH0 DUP4 PUSH20 0xFFFFFFFFFFFFFFFFFFFFFFFFFFFFFFFFFFFFFFFF AND PUSH20 0xFFFFFFFFFFFFFFFFFFFFFFFFFFFFFFFFFFFFFFFF AND DUP2 MSTORE PUSH1 0x20 ADD SWAP1 DUP2 MSTORE PUSH1 0x20 ADD PUSH0 KECCAK256 PUSH0 SWAP1 SLOAD SWAP1 PUSH2 0x100 EXP SWAP1 DIV PUSH1 0xFF AND SWAP1 POP SWAP3 SWAP2 POP POP JUMP JUMPDEST DUP1 PUSH1 0x4 PUSH0 DUP3 DUP2 MSTORE PUSH1 0x20 ADD SWAP1 DUP2 MSTORE PUSH1 0x20 ADD PUSH0 KECCAK256 PUSH1 0xB ADD PUSH0 CALLER PUSH20 0xFFFFFFFFFFFFFFFFFFFFFFFFFFFFFFFFFFFFFFFF AND PUSH20 0xFFFFFFFFFFFFFFFFFFFFFFFFFFFFFFFFFFFFFFFF AND DUP2 MSTORE PUSH1 0x20 ADD SWAP1 DUP2 MSTORE PUSH1 0x20 ADD PUSH0 KECCAK256 PUSH0 SWAP1 SLOAD SWAP1 PUSH2 0x100 EXP SWAP1 DIV PUSH1 0xFF AND PUSH2 0x181C JUMPI PUSH1 0x40 MLOAD PUSH32 0x291FC44200000000000000000000000000000000000000000000000000000000 DUP2 MSTORE PUSH1 0x4 ADD PUSH1 0x40 MLOAD DUP1 SWAP2 SUB SWAP1 REVERT JUMPDEST DUP2 PUSH1 0x4 PUSH0 DUP3 DUP2 MSTORE PUSH1 0x20 ADD SWAP1 DUP2 MSTORE PUSH1 0x20 ADD PUSH0 KECCAK256 PUSH1 0x5 ADD PUSH0 SWAP1 SLOAD SWAP1 PUSH2 0x100 EXP SWAP1 DIV PUSH1 0xFF AND PUSH2 0x1874 JUMPI PUSH1 0x40 MLOAD PUSH32 0x25500E0300000000000000000000000000000000000000000000000000000000 DUP2 MSTORE PUSH1 0x4 ADD PUSH1 0x40 MLOAD DUP1 SWAP2 SUB SWAP1 REVERT JUMPDEST PUSH2 0x187C PUSH2 0x25DE JUMP JUMPDEST PUSH2 0x1884 PUSH2 0x2A34 JUMP JUMPDEST PUSH0 PUSH1 0x4 PUSH0 DUP6 DUP2 MSTORE PUSH1 0x20 ADD SWAP1 DUP2 MSTORE PUSH1 0x20 ADD PUSH0 KECCAK256 SWAP1 POP DUP1 PUSH1 0x1 ADD SLOAD CALLVALUE LT ISZERO PUSH2 0x18D6 JUMPI PUSH1 0x40 MLOAD PUSH32 0xABED41C400000000000000000000000000000000000000000000000000000000 DUP2 MSTORE PUSH1 0x4 ADD PUSH1 0x40 MLOAD DUP1 SWAP2 SUB SWAP1 REVERT JUMPDEST PUSH1 0x6 PUSH0 DUP6 DUP2 MSTORE PUSH1 0x20 ADD SWAP1 DUP2 MSTORE PUSH1 0x20 ADD PUSH0 KECCAK256 PUSH0 CALLER PUSH20 0xFFFFFFFFFFFFFFFFFFFFFFFFFFFFFFFFFFFFFFFF AND PUSH20 0xFFFFFFFFFFFFFFFFFFFFFFFFFFFFFFFFFFFFFFFF AND DUP2 MSTORE PUSH1 0x20 ADD SWAP1 DUP2 MSTORE PUSH1 0x20 ADD PUSH0 KECCAK256 PUSH0 SWAP1 SLOAD SWAP1 PUSH2 0x100 EXP SWAP1 DIV PUSH1 0xFF AND ISZERO PUSH2 0x1966 JUMPI PUSH1 0x40 MLOAD PUSH32 0x7D3AF1A800000000000000000000000000000000000000000000000000000000 DUP2 MSTORE PUSH1 0x4 ADD PUSH1 0x40 MLOAD DUP1 SWAP2 SUB SWAP1 REVERT JUMPDEST PUSH1 0x5 PUSH0 DUP6 DUP2 MSTORE PUSH1 0x20 ADD SWAP1 DUP2 MSTORE PUSH1 0x20 ADD PUSH0 KECCAK256 PUSH0 CALLER PUSH20 0xFFFFFFFFFFFFFFFFFFFFFFFFFFFFFFFFFFFFFFFF AND PUSH20 0xFFFFFFFFFFFFFFFFFFFFFFFFFFFFFFFFFFFFFFFF AND DUP2 MSTORE PUSH1 0x20 ADD SWAP1 DUP2 MSTORE PUSH1 0x20 ADD PUSH0 KECCAK256 PUSH1 0x40 MLOAD DUP1 PUSH1 0x60 ADD PUSH1 0x40 MSTORE DUP1 CALLER PUSH20 0xFFFFFFFFFFFFFFFFFFFFFFFFFFFFFFFFFFFFFFFF AND DUP2 MSTORE PUSH1 0x20 ADD CALLVALUE DUP2 MSTORE PUSH1 0x20 ADD TIMESTAMP DUP2 MSTORE POP SWAP1 DUP1 PUSH1 0x1 DUP2 SLOAD ADD DUP1 DUP3 SSTORE DUP1 SWAP2 POP POP PUSH1 0x1 SWAP1 SUB SWAP1 PUSH0 MSTORE PUSH1 0x20 PUSH0 KECCAK256 SWAP1 PUSH1 0x3 MUL ADD PUSH0 SWAP1 SWAP2 SWAP1 SWAP2 SWAP1 SWAP2 POP PUSH0 DUP3 ADD MLOAD DUP2 PUSH0 ADD PUSH0 PUSH2 0x100 EXP DUP2 SLOAD DUP2 PUSH20 0xFFFFFFFFFFFFFFFFFFFFFFFFFFFFFFFFFFFFFFFF MUL NOT AND SWAP1 DUP4 PUSH20 0xFFFFFFFFFFFFFFFFFFFFFFFFFFFFFFFFFFFFFFFF AND MUL OR SWAP1 SSTORE POP PUSH1 0x20 DUP3 ADD MLOAD DUP2 PUSH1 0x1 ADD SSTORE PUSH1 0x40 DUP3 ADD MLOAD DUP2 PUSH1 0x2 ADD SSTORE POP POP PUSH1 0x1 PUSH1 0x6 PUSH0 DUP7 DUP2 MSTORE PUSH1 0x20 ADD SWAP1 DUP2 MSTORE PUSH1 0x20 ADD PUSH0 KECCAK256 PUSH0 CALLER PUSH20 0xFFFFFFFFFFFFFFFFFFFFFFFFFFFFFFFFFFFFFFFF AND PUSH20 0xFFFFFFFFFFFFFFFFFFFFFFFFFFFFFFFFFFFFFFFF AND DUP2 MSTORE PUSH1 0x20 ADD SWAP1 DUP2 MSTORE PUSH1 0x20 ADD PUSH0 KECCAK256 PUSH0 PUSH2 0x100 EXP DUP2 SLOAD DUP2 PUSH1 0xFF MUL NOT AND SWAP1 DUP4 ISZERO ISZERO MUL OR SWAP1 SSTORE POP TIMESTAMP PUSH1 0x7 PUSH0 DUP7 DUP2 MSTORE PUSH1 0x20 ADD SWAP1 DUP2 MSTORE PUSH1 0x20 ADD PUSH0 KECCAK256 PUSH0 CALLER PUSH20 0xFFFFFFFFFFFFFFFFFFFFFFFFFFFFFFFFFFFFFFFF AND PUSH20 0xFFFFFFFFFFFFFFFFFFFFFFFFFFFFFFFFFFFFFFFF AND DUP2 MSTORE PUSH1 0x20 ADD SWAP1 DUP2 MSTORE PUSH1 0x20 ADD PUSH0 KECCAK256 DUP2 SWAP1 SSTORE POP CALLVALUE DUP2 PUSH1 0x9 ADD PUSH0 DUP3 DUP3 SLOAD PUSH2 0x1B2B SWAP2 SWAP1 PUSH2 0x3E87 JUMP JUMPDEST SWAP3 POP POP DUP2 SWAP1 SSTORE POP CALLVALUE DUP2 PUSH1 0xD ADD PUSH0 DUP4 PUSH1 0x6 ADD SLOAD DUP2 MSTORE PUSH1 0x20 ADD SWAP1 DUP2 MSTORE PUSH1 0x20 ADD PUSH0 KECCAK256 PUSH0 DUP3 DUP3 SLOAD PUSH2 0x1B58 SWAP2 SWAP1 PUSH2 0x3E87 JUMP JUMPDEST SWAP3 POP POP DUP2 SWAP1 SSTORE POP CALLER PUSH20 0xFFFFFFFFFFFFFFFFFFFFFFFFFFFFFFFFFFFFFFFF AND DUP5 PUSH32 0xA4A91237423E0A1766A761C7CB029311D8B95D6B1B81DB1B949A70C98B4E08E CALLVALUE PUSH1 0x40 MLOAD PUSH2 0x1BA6 SWAP2 SWAP1 PUSH2 0x3686 JUMP JUMPDEST PUSH1 0x40 MLOAD DUP1 SWAP2 SUB SWAP1 LOG3 PUSH2 0x1BB7 DUP5 PUSH2 0x2B6E JUMP JUMPDEST POP PUSH2 0x1BC0 PUSH2 0x2B04 JUMP JUMPDEST POP POP POP JUMP JUMPDEST PUSH0 PUSH0 SHL DUP2 JUMP JUMPDEST PUSH0 PUSH1 0x4 PUSH0 DUP4 DUP2 MSTORE PUSH1 0x20 ADD SWAP1 DUP2 MSTORE PUSH1 0x20 ADD PUSH0 KECCAK256 PUSH1 0x12 ADD SLOAD SWAP1 POP SWAP2 SWAP1 POP JUMP JUMPDEST PUSH1 0x3 SLOAD DUP2 JUMP JUMPDEST PUSH32 0x8C7E961E804AF7B2059D42008DE01CCC90FC88B8E6B947B02E12656DDB05CA3A DUP2 JUMP JUMPDEST PUSH1 0x60 PUSH1 0x4 PUSH0 DUP4 DUP2 MSTORE PUSH1 0x20 ADD SWAP1 DUP2 MSTORE PUSH1 0x20 ADD PUSH0 KECCAK256 PUSH1 0x4 ADD DUP1 SLOAD DUP1 PUSH1 0x20 MUL PUSH1 0x20 ADD PUSH1 0x40 MLOAD SWAP1 DUP2 ADD PUSH1 0x40 MSTORE DUP1 SWAP3 SWAP2 SWAP1 DUP2 DUP2 MSTORE PUSH1 0x20 ADD DUP3 DUP1 SLOAD DUP1 ISZERO PUSH2 0x1CA5 JUMPI PUSH1 0x20 MUL DUP3 ADD SWAP2 SWAP1 PUSH0 MSTORE PUSH1 0x20 PUSH0 KECCAK256 SWAP1 JUMPDEST DUP2 PUSH0 SWAP1 SLOAD SWAP1 PUSH2 0x100 EXP SWAP1 DIV PUSH20 0xFFFFFFFFFFFFFFFFFFFFFFFFFFFFFFFFFFFFFFFF AND PUSH20 0xFFFFFFFFFFFFFFFFFFFFFFFFFFFFFFFFFFFFFFFF AND DUP2 MSTORE PUSH1 0x20 ADD SWAP1 PUSH1 0x1 ADD SWAP1 DUP1 DUP4 GT PUSH2 0x1C5C JUMPI JUMPDEST POP POP POP POP POP SWAP1 POP SWAP2 SWAP1 POP JUMP JUMPDEST PUSH2 0x1CBA DUP3 PUSH2 0x9E2 JUMP JUMPDEST PUSH2 0x1CC3 DUP2 PUSH2 0x24E0 JUMP JUMPDEST PUSH2 0x1CCD DUP4 DUP4 PUSH2 0x28E9 JUMP JUMPDEST POP POP POP POP JUMP JUMPDEST PUSH1 0x60 PUSH0 PUSH0 PUSH0 PUSH0 PUSH0 PUSH0 PUSH0 PUSH0 PUSH0 PUSH1 0x4 PUSH0 DUP13 DUP2 MSTORE PUSH1 0x20 ADD SWAP1 DUP2 MSTORE PUSH1 0x20 ADD PUSH0 KECCAK256 SWAP1 POP DUP1 PUSH0 ADD DUP2 PUSH1 0x1 ADD SLOAD DUP3 PUSH1 0x2 ADD SLOAD DUP4 PUSH1 0x3 ADD SLOAD DUP5 PUSH1 0x4 ADD DUP1 SLOAD SWAP1 POP DUP6 PUSH1 0x5 ADD PUSH0 SWAP1 SLOAD SWAP1 PUSH2 0x100 EXP SWAP1 DIV PUSH1 0xFF AND DUP7 PUSH1 0x6 ADD SLOAD DUP8 PUSH1 0x9 ADD SLOAD DUP9 PUSH1 0x12 ADD SLOAD DUP9 DUP1 SLOAD PUSH2 0x1D37 SWAP1 PUSH2 0x3E2A JUMP JUMPDEST DUP1 PUSH1 0x1F ADD PUSH1 0x20 DUP1 SWAP2 DIV MUL PUSH1 0x20 ADD PUSH1 0x40 MLOAD SWAP1 DUP2 ADD PUSH1 0x40 MSTORE DUP1 SWAP3 SWAP2 SWAP1 DUP2 DUP2 MSTORE PUSH1 0x20 ADD DUP3 DUP1 SLOAD PUSH2 0x1D63 SWAP1 PUSH2 0x3E2A JUMP JUMPDEST DUP1 ISZERO PUSH2 0x1DAE JUMPI DUP1 PUSH1 0x1F LT PUSH2 0x1D85 JUMPI PUSH2 0x100 DUP1 DUP4 SLOAD DIV MUL DUP4 MSTORE SWAP2 PUSH1 0x20 ADD SWAP2 PUSH2 0x1DAE JUMP JUMPDEST DUP3 ADD SWAP2 SWAP1 PUSH0 MSTORE PUSH1 0x20 PUSH0 KECCAK256 SWAP1 JUMPDEST DUP2 SLOAD DUP2 MSTORE SWAP1 PUSH1 0x1 ADD SWAP1 PUSH1 0x20 ADD DUP1 DUP4 GT PUSH2 0x1D91 JUMPI DUP3 SWAP1 SUB PUSH1 0x1F AND DUP3 ADD SWAP2 JUMPDEST POP POP POP POP POP SWAP9 POP SWAP10 POP SWAP10 POP SWAP10 POP SWAP10 POP SWAP10 POP SWAP10 POP SWAP10 POP SWAP10 POP SWAP10 POP POP SWAP2 SWAP4 SWAP6 SWAP8 SWAP10 SWAP1 SWAP3 SWAP5 SWAP7 SWAP9 POP JUMP JUMPDEST DUP1 PUSH0 DUP2 EQ DUP1 PUSH2 0x1DE5 JUMPI POP PUSH1 0x3 SLOAD DUP2 GT JUMPDEST ISZERO PUSH2 0x1E1C JUMPI PUSH1 0x40 MLOAD PUSH32 0x37FF9D600000000000000000000000000000000000000000000000000000000 DUP2 MSTORE PUSH1 0x4 ADD PUSH1 0x40 MLOAD DUP1 SWAP2 SUB SWAP1 REVERT JUMPDEST DUP2 PUSH1 0x4 PUSH0 DUP3 DUP2 MSTORE PUSH1 0x20 ADD SWAP1 DUP2 MSTORE PUSH1 0x20 ADD PUSH0 KECCAK256 PUSH1 0x5 ADD PUSH0 SWAP1 SLOAD SWAP1 PUSH2 0x100 EXP SWAP1 DIV PUSH1 0xFF AND PUSH2 0x1E74 JUMPI PUSH1 0x40 MLOAD PUSH32 0x25500E0300000000000000000000000000000000000000000000000000000000 DUP2 MSTORE PUSH1 0x4 ADD PUSH1 0x40 MLOAD DUP1 SWAP2 SUB SWAP1 REVERT JUMPDEST PUSH2 0x1E7C PUSH2 0x25DE JUMP JUMPDEST PUSH0 PUSH1 0x4 PUSH0 DUP6 DUP2 MSTORE PUSH1 0x20 ADD SWAP1 DUP2 MSTORE PUSH1 0x20 ADD PUSH0 KECCAK256 SWAP1 POP PUSH0 DUP2 PUSH1 0x6 ADD SLOAD EQ PUSH2 0x1ECD JUMPI PUSH1 0x40 MLOAD PUSH32 0x65E9FE1900000000000000000000000000000000000000000000000000000000 DUP2 MSTORE PUSH1 0x4 ADD PUSH1 0x40 MLOAD DUP1 SWAP2 SUB SWAP1 REVERT JUMPDEST CALLER PUSH20 0xFFFFFFFFFFFFFFFFFFFFFFFFFFFFFFFFFFFFFFFF AND DUP2 PUSH1 0x4 ADD PUSH0 DUP2 SLOAD DUP2 LT PUSH2 0x1EFA JUMPI PUSH2 0x1EF9 PUSH2 0x3EBA JUMP JUMPDEST JUMPDEST SWAP1 PUSH0 MSTORE PUSH1 0x20 PUSH0 KECCAK256 ADD PUSH0 SWAP1 SLOAD SWAP1 PUSH2 0x100 EXP SWAP1 DIV PUSH20 0xFFFFFFFFFFFFFFFFFFFFFFFFFFFFFFFFFFFFFFFF AND PUSH20 0xFFFFFFFFFFFFFFFFFFFFFFFFFFFFFFFFFFFFFFFF AND EQ PUSH2 0x1F6F JUMPI PUSH1 0x40 MLOAD PUSH32 0xC0B0546300000000000000000000000000000000000000000000000000000000 DUP2 MSTORE PUSH1 0x4 ADD PUSH1 0x40 MLOAD DUP1 SWAP2 SUB SWAP1 REVERT JUMPDEST PUSH2 0x1F78 DUP5 PUSH2 0x2A81 JUMP JUMPDEST POP POP POP POP JUMP JUMPDEST PUSH2 0x1F86 PUSH2 0x25DE JUMP JUMPDEST PUSH2 0x1F8E PUSH2 0x2A34 JUMP JUMPDEST PUSH0 DUP4 SUB PUSH2 0x1FC7 JUMPI PUSH1 0x40 MLOAD PUSH32 0xB8BD675800000000000000000000000000000000000000000000000000000000 DUP2 MSTORE PUSH1 0x4 ADD PUSH1 0x40 MLOAD DUP1 SWAP2 SUB SWAP1 REVERT JUMPDEST PUSH2 0x1A4 DUP3 LT ISZERO PUSH2 0x2003 JUMPI PUSH1 0x40 MLOAD PUSH32 0xEC68216200000000000000000000000000000000000000000000000000000000 DUP2 MSTORE PUSH1 0x4 ADD PUSH1 0x40 MLOAD DUP1 SWAP2 SUB SWAP1 REVERT JUMPDEST PUSH1 0x3 DUP2 LT DUP1 PUSH2 0x2012 JUMPI POP PUSH1 0x14 DUP2 GT JUMPDEST ISZERO PUSH2 0x2049 JUMPI PUSH1 0x40 MLOAD PUSH32 0x4FDD01A000000000000000000000000000000000000000000000000000000000 DUP2 MSTORE PUSH1 0x4 ADD PUSH1 0x40 MLOAD DUP1 SWAP2 SUB SWAP1 REVERT JUMPDEST DUP3 CALLVALUE LT ISZERO PUSH2 0x2083 JUMPI PUSH1 0x40 MLOAD PUSH32 0x3A23D82500000000000000000000000000000000000000000000000000000000 DUP2 MSTORE PUSH1 0x4 ADD PUSH1 0x40 MLOAD DUP1 SWAP2 SUB SWAP1 REVERT JUMPDEST PUSH1 0x3 PUSH0 DUP2 SLOAD DUP1 SWAP3 SWAP2 SWAP1 PUSH2 0x2095 SWAP1 PUSH2 0x3F1A JUMP JUMPDEST SWAP2 SWAP1 POP SSTORE POP PUSH0 PUSH1 0x4 PUSH0 PUSH1 0x3 SLOAD DUP2 MSTORE PUSH1 0x20 ADD SWAP1 DUP2 MSTORE PUSH1 0x20 ADD PUSH0 KECCAK256 SWAP1 POP DUP5 DUP2 PUSH0 ADD SWAP1 DUP2 PUSH2 0x20C0 SWAP2 SWAP1 PUSH2 0x4101 JUMP JUMPDEST POP DUP4 DUP2 PUSH1 0x1 ADD DUP2 SWAP1 SSTORE POP DUP3 DUP2 PUSH1 0x2 ADD DUP2 SWAP1 SSTORE POP DUP2 DUP2 PUSH1 0x3 ADD DUP2 SWAP1 SSTORE POP PUSH1 0x1 DUP2 PUSH1 0x5 ADD PUSH0 PUSH2 0x100 EXP DUP2 SLOAD DUP2 PUSH1 0xFF MUL NOT AND SWAP1 DUP4 ISZERO ISZERO MUL OR SWAP1 SSTORE POP PUSH0 DUP2 PUSH1 0x6 ADD DUP2 SWAP1 SSTORE POP PUSH0 DUP2 PUSH1 0x7 ADD DUP2 SWAP1 SSTORE POP TIMESTAMP DUP2 PUSH1 0x8 ADD DUP2 SWAP1 SSTORE POP PUSH0 DUP2 PUSH1 0x9 ADD DUP2 SWAP1 SSTORE POP CALLVALUE DUP2 PUSH1 0x12 ADD DUP2 SWAP1 SSTORE POP DUP2 PUSH8 0xFFFFFFFFFFFFFFFF DUP2 GT ISZERO PUSH2 0x213F JUMPI PUSH2 0x213E PUSH2 0x3BE6 JUMP JUMPDEST JUMPDEST PUSH1 0x40 MLOAD SWAP1 DUP1 DUP3 MSTORE DUP1 PUSH1 0x20 MUL PUSH1 0x20 ADD DUP3 ADD PUSH1 0x40 MSTORE DUP1 ISZERO PUSH2 0x216D JUMPI DUP2 PUSH1 0x20 ADD PUSH1 0x20 DUP3 MUL DUP1 CALLDATASIZE DUP4 CALLDATACOPY DUP1 DUP3 ADD SWAP2 POP POP SWAP1 POP JUMPDEST POP DUP2 PUSH1 0xA ADD SWAP1 DUP1 MLOAD SWAP1 PUSH1 0x20 ADD SWAP1 PUSH2 0x2185 SWAP3 SWAP2 SWAP1 PUSH2 0x342C JUMP JUMPDEST POP DUP1 PUSH1 0x4 ADD CALLER SWAP1 DUP1 PUSH1 0x1 DUP2 SLOAD ADD DUP1 DUP3 SSTORE DUP1 SWAP2 POP POP PUSH1 0x1 SWAP1 SUB SWAP1 PUSH0 MSTORE PUSH1 0x20 PUSH0 KECCAK256 ADD PUSH0 SWAP1 SWAP2 SWAP1 SWAP2 SWAP1 SWAP2 PUSH2 0x100 EXP DUP2 SLOAD DUP2 PUSH20 0xFFFFFFFFFFFFFFFFFFFFFFFFFFFFFFFFFFFFFFFF MUL NOT AND SWAP1 DUP4 PUSH20 0xFFFFFFFFFFFFFFFFFFFFFFFFFFFFFFFFFFFFFFFF AND MUL OR SWAP1 SSTORE POP PUSH1 0x1 DUP2 PUSH1 0xB ADD PUSH0 CALLER PUSH20 0xFFFFFFFFFFFFFFFFFFFFFFFFFFFFFFFFFFFFFFFF AND PUSH20 0xFFFFFFFFFFFFFFFFFFFFFFFFFFFFFFFFFFFFFFFF AND DUP2 MSTORE PUSH1 0x20 ADD SWAP1 DUP2 MSTORE PUSH1 0x20 ADD PUSH0 KECCAK256 PUSH0 PUSH2 0x100 EXP DUP2 SLOAD DUP2 PUSH1 0xFF MUL NOT AND SWAP1 DUP4 ISZERO ISZERO MUL OR SWAP1 SSTORE POP PUSH0 DUP2 PUSH1 0xC ADD PUSH0 CALLER PUSH20 0xFFFFFFFFFFFFFFFFFFFFFFFFFFFFFFFFFFFFFFFF AND PUSH20 0xFFFFFFFFFFFFFFFFFFFFFFFFFFFFFFFFFFFFFFFF AND DUP2 MSTORE PUSH1 0x20 ADD SWAP1 DUP2 MSTORE PUSH1 0x20 ADD PUSH0 KECCAK256 DUP2 SWAP1 SSTORE POP CALLVALUE DUP2 PUSH1 0x10 ADD PUSH0 CALLER PUSH20 0xFFFFFFFFFFFFFFFFFFFFFFFFFFFFFFFFFFFFFFFF AND PUSH20 0xFFFFFFFFFFFFFFFFFFFFFFFFFFFFFFFFFFFFFFFF AND DUP2 MSTORE PUSH1 0x20 ADD SWAP1 DUP2 MSTORE PUSH1 0x20 ADD PUSH0 KECCAK256 DUP2 SWAP1 SSTORE POP PUSH2 0x22F1 PUSH32 0x8C7E961E804AF7B2059D42008DE01CCC90FC88B8E6B947B02E12656DDB05CA3A CALLER PUSH2 0x1725 JUMP JUMPDEST POP CALLER PUSH20 0xFFFFFFFFFFFFFFFFFFFFFFFFFFFFFFFFFFFFFFFF AND PUSH1 0x3 SLOAD PUSH32 0xF4262469916388C16D1454945CD27F61664F3AE726C205E66B8F9212A3534F8C DUP8 DUP8 PUSH1 0x40 MLOAD PUSH2 0x233D SWAP3 SWAP2 SWAP1 PUSH2 0x41D0 JUMP JUMPDEST PUSH1 0x40 MLOAD DUP1 SWAP2 SUB SWAP1 LOG3 CALLER PUSH20 0xFFFFFFFFFFFFFFFFFFFFFFFFFFFFFFFFFFFFFFFF AND PUSH1 0x3 SLOAD PUSH32 0x40A8C7A25E1EAB32F305B79614CB4EB53A2D5D546BC4A5B0B55E5A7DC1228DCE PUSH1 0x40 MLOAD PUSH1 0x40 MLOAD DUP1 SWAP2 SUB SWAP1 LOG3 CALLER PUSH20 0xFFFFFFFFFFFFFFFFFFFFFFFFFFFFFFFFFFFFFFFF AND PUSH1 0x3 SLOAD PUSH32 0xEEC2F3FEB835E2F2FD44281034B04700A1DDDA63DD402949D470A25A7C40B36C CALLVALUE PUSH1 0x40 MLOAD PUSH2 0x23D4 SWAP2 SWAP1 PUSH2 0x3686 JUMP JUMPDEST PUSH1 0x40 MLOAD DUP1 SWAP2 SUB SWAP1 LOG3 POP PUSH2 0x23E5 PUSH2 0x2B04 JUMP JUMPDEST POP POP POP POP JUMP JUMPDEST PUSH0 PUSH0 PUSH0 PUSH0 PUSH1 0x4 PUSH0 DUP8 DUP2 MSTORE PUSH1 0x20 ADD SWAP1 DUP2 MSTORE PUSH1 0x20 ADD PUSH0 KECCAK256 SWAP1 POP DUP1 PUSH1 0xD ADD PUSH0 DUP7 DUP2 MSTORE PUSH1 0x20 ADD SWAP1 DUP2 MSTORE PUSH1 0x20 ADD PUSH0 KECCAK256 SLOAD DUP2 PUSH1 0xE ADD PUSH0 DUP8 DUP2 MSTORE PUSH1 0x20 ADD SWAP1 DUP2 MSTORE PUSH1 0x20 ADD PUSH0 KECCAK256 PUSH0 SWAP1 SLOAD SWAP1 PUSH2 0x100 EXP SWAP1 DIV PUSH20 0xFFFFFFFFFFFFFFFFFFFFFFFFFFFFFFFFFFFFFFFF AND DUP3 PUSH1 0xF ADD PUSH0 DUP9 DUP2 MSTORE PUSH1 0x20 ADD SWAP1 DUP2 MSTORE PUSH1 0x20 ADD PUSH0 KECCAK256 PUSH0 SWAP1 SLOAD SWAP1 PUSH2 0x100 EXP SWAP1 DIV PUSH1 0xFF AND SWAP4 POP SWAP4 POP SWAP4 POP POP SWAP3 POP SWAP3 POP SWAP3 JUMP JUMPDEST PUSH0 PUSH32 0x1FFC9A700000000000000000000000000000000000000000000000000000000 PUSH28 0xFFFFFFFFFFFFFFFFFFFFFFFFFFFFFFFFFFFFFFFFFFFFFFFFFFFFFFFF NOT AND DUP3 PUSH28 0xFFFFFFFFFFFFFFFFFFFFFFFFFFFFFFFFFFFFFFFFFFFFFFFFFFFFFFFF NOT AND EQ SWAP1 POP SWAP2 SWAP1 POP JUMP JUMPDEST PUSH2 0x24F1 DUP2 PUSH2 0x24EC PUSH2 0x28E2 JUMP JUMPDEST PUSH2 0x2C6F JUMP JUMPDEST POP JUMP JUMPDEST PUSH0 PUSH2 0x24FF DUP4 DUP4 PUSH2 0x1725 JUMP JUMPDEST PUSH2 0x25D4 JUMPI PUSH1 0x1 PUSH1 0x2 PUSH0 DUP6 DUP2 MSTORE PUSH1 0x20 ADD SWAP1 DUP2 MSTORE PUSH1 0x20 ADD PUSH0 KECCAK256 PUSH0 ADD PUSH0 DUP5 PUSH20 0xFFFFFFFFFFFFFFFFFFFFFFFFFFFFFFFFFFFFFFFF AND PUSH20 0xFFFFFFFFFFFFFFFFFFFFFFFFFFFFFFFFFFFFFFFF AND DUP2 MSTORE PUSH1 0x20 ADD SWAP1 DUP2 MSTORE PUSH1 0x20 ADD PUSH0 KECCAK256 PUSH0 PUSH2 0x100 EXP DUP2 SLOAD DUP2 PUSH1 0xFF MUL NOT AND SWAP1 DUP4 ISZERO ISZERO MUL OR SWAP1 SSTORE POP PUSH2 0x2571 PUSH2 0x28E2 JUMP JUMPDEST PUSH20 0xFFFFFFFFFFFFFFFFFFFFFFFFFFFFFFFFFFFFFFFF AND DUP3 PUSH20 0xFFFFFFFFFFFFFFFFFFFFFFFFFFFFFFFFFFFFFFFF AND DUP5 PUSH32 0x2F8788117E7EFF1D82E926EC794901D17C78024A50270940304540A733656F0D PUSH1 0x40 MLOAD PUSH1 0x40 MLOAD DUP1 SWAP2 SUB SWAP1 LOG4 PUSH1 0x1 SWAP1 POP PUSH2 0x25D8 JUMP JUMPDEST PUSH0 SWAP1 POP JUMPDEST SWAP3 SWAP2 POP POP JUMP JUMPDEST PUSH2 0x25E6 PUSH2 0x13BD JUMP JUMPDEST ISZERO PUSH2 0x2626 JUMPI PUSH1 0x40 MLOAD PUSH32 0x8C379A000000000000000000000000000000000000000000000000000000000 DUP2 MSTORE PUSH1 0x4 ADD PUSH2 0x261D SWAP1 PUSH2 0x4248 JUMP JUMPDEST PUSH1 0x40 MLOAD DUP1 SWAP2 SUB SWAP1 REVERT JUMPDEST JUMP JUMPDEST PUSH0 PUSH1 0x4 PUSH0 DUP4 DUP2 MSTORE PUSH1 0x20 ADD SWAP1 DUP2 MSTORE PUSH1 0x20 ADD PUSH0 KECCAK256 SWAP1 POP PUSH0 DUP2 PUSH1 0x4 ADD DUP3 PUSH1 0x7 ADD SLOAD DUP2 SLOAD DUP2 LT PUSH2 0x2657 JUMPI PUSH2 0x2656 PUSH2 0x3EBA JUMP JUMPDEST JUMPDEST SWAP1 PUSH0 MSTORE PUSH1 0x20 PUSH0 KECCAK256 ADD PUSH0 SWAP1 SLOAD SWAP1 PUSH2 0x100 EXP SWAP1 DIV PUSH20 0xFFFFFFFFFFFFFFFFFFFFFFFFFFFFFFFFFFFFFFFF AND SWAP1 POP PUSH0 DUP3 PUSH1 0xD ADD PUSH0 DUP5 PUSH1 0x6 ADD SLOAD DUP2 MSTORE PUSH1 0x20 ADD SWAP1 DUP2 MSTORE PUSH1 0x20 ADD PUSH0 KECCAK256 SLOAD SWAP1 POP PUSH1 0x1 DUP4 PUSH1 0xA ADD DUP5 PUSH1 0x7 ADD SLOAD DUP2 SLOAD DUP2 LT PUSH2 0x26B8 JUMPI PUSH2 0x26B7 PUSH2 0x3EBA JUMP JUMPDEST JUMPDEST SWAP1 PUSH0 MSTORE PUSH1 0x20 PUSH0 KECCAK256 SWAP1 PUSH1 0x20 SWAP2 DUP3 DUP3 DIV ADD SWAP2 SWAP1 MOD PUSH2 0x100 EXP DUP2 SLOAD DUP2 PUSH1 0xFF MUL NOT AND SWAP1 DUP4 ISZERO ISZERO MUL OR SWAP1 SSTORE POP DUP2 DUP4 PUSH1 0xE ADD PUSH0 DUP6 PUSH1 0x6 ADD SLOAD DUP2 MSTORE PUSH1 0x20 ADD SWAP1 DUP2 MSTORE PUSH1 0x20 ADD PUSH0 KECCAK256 PUSH0 PUSH2 0x100 EXP DUP2 SLOAD DUP2 PUSH20 0xFFFFFFFFFFFFFFFFFFFFFFFFFFFFFFFFFFFFFFFF MUL NOT AND SWAP1 DUP4 PUSH20 0xFFFFFFFFFFFFFFFFFFFFFFFFFFFFFFFFFFFFFFFF AND MUL OR SWAP1 SSTORE POP PUSH1 0x1 DUP4 PUSH1 0xF ADD PUSH0 DUP6 PUSH1 0x6 ADD SLOAD DUP2 MSTORE PUSH1 0x20 ADD SWAP1 DUP2 MSTORE PUSH1 0x20 ADD PUSH0 KECCAK256 PUSH0 PUSH2 0x100 EXP DUP2 SLOAD DUP2 PUSH1 0xFF MUL NOT AND SWAP1 DUP4 ISZERO ISZERO MUL OR SWAP1 SSTORE POP PUSH0 DUP3 PUSH20 0xFFFFFFFFFFFFFFFFFFFFFFFFFFFFFFFFFFFFFFFF AND DUP3 PUSH1 0x40 MLOAD PUSH2 0x2788 SWAP1 PUSH2 0x4293 JUMP JUMPDEST PUSH0 PUSH1 0x40 MLOAD DUP1 DUP4 SUB DUP2 DUP6 DUP8 GAS CALL SWAP3 POP POP POP RETURNDATASIZE DUP1 PUSH0 DUP2 EQ PUSH2 0x27C2 JUMPI PUSH1 0x40 MLOAD SWAP2 POP PUSH1 0x1F NOT PUSH1 0x3F RETURNDATASIZE ADD AND DUP3 ADD PUSH1 0x40 MSTORE RETURNDATASIZE DUP3 MSTORE RETURNDATASIZE PUSH0 PUSH1 0x20 DUP5 ADD RETURNDATACOPY PUSH2 0x27C7 JUMP JUMPDEST PUSH1 0x60 SWAP2 POP JUMPDEST POP POP SWAP1 POP DUP1 PUSH2 0x280B JUMPI PUSH1 0x40 MLOAD PUSH32 0x8C379A000000000000000000000000000000000000000000000000000000000 DUP2 MSTORE PUSH1 0x4 ADD PUSH2 0x2802 SWAP1 PUSH2 0x42F1 JUMP JUMPDEST PUSH1 0x40 MLOAD DUP1 SWAP2 SUB SWAP1 REVERT JUMPDEST DUP3 PUSH20 0xFFFFFFFFFFFFFFFFFFFFFFFFFFFFFFFFFFFFFFFF AND DUP6 PUSH32 0xDAE483580262260A8703065B8E8083A9551C49AC35CF5BD0201AA07B174875C2 DUP5 DUP8 PUSH1 0x6 ADD SLOAD PUSH1 0x40 MLOAD PUSH2 0x2858 SWAP3 SWAP2 SWAP1 PUSH2 0x430F JUMP JUMPDEST PUSH1 0x40 MLOAD DUP1 SWAP2 SUB SWAP1 LOG3 DUP3 PUSH20 0xFFFFFFFFFFFFFFFFFFFFFFFFFFFFFFFFFFFFFFFF AND DUP6 PUSH32 0xB4AEB9FB59644D1C26001B986295CDE5BBFAE34BE7C5240FBCCF4C37308E20FE DUP5 DUP8 PUSH1 0x6 ADD SLOAD PUSH1 0x40 MLOAD PUSH2 0x28AD SWAP3 SWAP2 SWAP1 PUSH2 0x430F JUMP JUMPDEST PUSH1 0x40 MLOAD DUP1 SWAP2 SUB SWAP1 LOG3 PUSH2 0x28BE DUP6 PUSH2 0x2CC0 JUMP JUMPDEST DUP4 PUSH1 0x4 ADD DUP1 SLOAD SWAP1 POP DUP5 PUSH1 0x6 ADD SLOAD GT ISZERO PUSH2 0x28DB JUMPI PUSH2 0x28DA DUP6 PUSH2 0x2E4B JUMP JUMPDEST JUMPDEST POP POP POP POP POP JUMP JUMPDEST PUSH0 CALLER SWAP1 POP SWAP1 JUMP JUMPDEST PUSH0 PUSH2 0x28F4 DUP4 DUP4 PUSH2 0x1725 JUMP JUMPDEST ISZERO PUSH2 0x29C9 JUMPI PUSH0 PUSH1 0x2 PUSH0 DUP6 DUP2 MSTORE PUSH1 0x20 ADD SWAP1 DUP2 MSTORE PUSH1 0x20 ADD PUSH0 KECCAK256 PUSH0 ADD PUSH0 DUP5 PUSH20 0xFFFFFFFFFFFFFFFFFFFFFFFFFFFFFFFFFFFFFFFF AND PUSH20 0xFFFFFFFFFFFFFFFFFFFFFFFFFFFFFFFFFFFFFFFF AND DUP2 MSTORE PUSH1 0x20 ADD SWAP1 DUP2 MSTORE PUSH1 0x20 ADD PUSH0 KECCAK256 PUSH0 PUSH2 0x100 EXP DUP2 SLOAD DUP2 PUSH1 0xFF MUL NOT AND SWAP1 DUP4 ISZERO ISZERO MUL OR SWAP1 SSTORE POP PUSH2 0x2966 PUSH2 0x28E2 JUMP JUMPDEST PUSH20 0xFFFFFFFFFFFFFFFFFFFFFFFFFFFFFFFFFFFFFFFF AND DUP3 PUSH20 0xFFFFFFFFFFFFFFFFFFFFFFFFFFFFFFFFFFFFFFFF AND DUP5 PUSH32 0xF6391F5C32D9C69D2A47EA670B442974B53935D1EDC7FD64EB21E047A839171B PUSH1 0x40 MLOAD PUSH1 0x40 MLOAD DUP1 SWAP2 SUB SWAP1 LOG4 PUSH1 0x1 SWAP1 POP PUSH2 0x29CD JUMP JUMPDEST PUSH0 SWAP1 POP JUMPDEST SWAP3 SWAP2 POP POP JUMP JUMPDEST PUSH2 0x29DB PUSH2 0x3119 JUMP JUMPDEST PUSH0 PUSH1 0x1 PUSH0 PUSH2 0x100 EXP DUP2 SLOAD DUP2 PUSH1 0xFF MUL NOT AND SWAP1 DUP4 ISZERO ISZERO MUL OR SWAP1 SSTORE POP PUSH32 0x5DB9EE0A495BF2E6FF9C91A7834C1BA4FDD244A5E8AA4E537BD38AEAE4B073AA PUSH2 0x2A1D PUSH2 0x28E2 JUMP JUMPDEST PUSH1 0x40 MLOAD PUSH2 0x2A2A SWAP2 SWAP1 PUSH2 0x4336 JUMP JUMPDEST PUSH1 0x40 MLOAD DUP1 SWAP2 SUB SWAP1 LOG1 JUMP JUMPDEST PUSH1 0x2 PUSH0 SLOAD SUB PUSH2 0x2A78 JUMPI PUSH1 0x40 MLOAD PUSH32 0x8C379A000000000000000000000000000000000000000000000000000000000 DUP2 MSTORE PUSH1 0x4 ADD PUSH2 0x2A6F SWAP1 PUSH2 0x4399 JUMP JUMPDEST PUSH1 0x40 MLOAD DUP1 SWAP2 SUB SWAP1 REVERT JUMPDEST PUSH1 0x2 PUSH0 DUP2 SWAP1 SSTORE POP JUMP JUMPDEST PUSH0 PUSH1 0x4 PUSH0 DUP4 DUP2 MSTORE PUSH1 0x20 ADD SWAP1 DUP2 MSTORE PUSH1 0x20 ADD PUSH0 KECCAK256 SWAP1 POP PUSH1 0x1 DUP2 PUSH1 0x6 ADD DUP2 SWAP1 SSTORE POP TIMESTAMP DUP2 PUSH1 0x8 ADD DUP2 SWAP1 SSTORE POP PUSH2 0x2AB1 DUP3 PUSH2 0x3162 JUMP JUMPDEST CALLER PUSH20 0xFFFFFFFFFFFFFFFFFFFFFFFFFFFFFFFFFFFFFFFF AND DUP3 PUSH32 0x39874AF9B7F4AB9E4C5C47A7280FDB5F5DB4081446E9D2CDFD23D5D5AA781C64 TIMESTAMP PUSH1 0x40 MLOAD PUSH2 0x2AF8 SWAP2 SWAP1 PUSH2 0x3686 JUMP JUMPDEST PUSH1 0x40 MLOAD DUP1 SWAP2 SUB SWAP1 LOG3 POP POP JUMP JUMPDEST PUSH1 0x1 PUSH0 DUP2 SWAP1 SSTORE POP JUMP JUMPDEST PUSH2 0x2B15 PUSH2 0x25DE JUMP JUMPDEST PUSH1 0x1 DUP1 PUSH0 PUSH2 0x100 EXP DUP2 SLOAD DUP2 PUSH1 0xFF MUL NOT AND SWAP1 DUP4 ISZERO ISZERO MUL OR SWAP1 SSTORE POP PUSH32 0x62E78CEA01BEE320CD4E420270B5EA74000D11B0C9F74754EBDBFC544B05A258 PUSH2 0x2B57 PUSH2 0x28E2 JUMP JUMPDEST PUSH1 0x40 MLOAD PUSH2 0x2B64 SWAP2 SWAP1 PUSH2 0x4336 JUMP JUMPDEST PUSH1 0x40 MLOAD DUP1 SWAP2 SUB SWAP1 LOG1 JUMP JUMPDEST PUSH0 PUSH1 0x4 PUSH0 DUP4 DUP2 MSTORE PUSH1 0x20 ADD SWAP1 DUP2 MSTORE PUSH1 0x20 ADD PUSH0 KECCAK256 SWAP1 POP PUSH0 PUSH0 SWAP1 POP PUSH0 PUSH0 SWAP1 POP JUMPDEST DUP3 PUSH1 0x4 ADD DUP1 SLOAD SWAP1 POP DUP2 LT ISZERO PUSH2 0x2C51 JUMPI PUSH1 0x6 PUSH0 DUP6 DUP2 MSTORE PUSH1 0x20 ADD SWAP1 DUP2 MSTORE PUSH1 0x20 ADD PUSH0 KECCAK256 PUSH0 DUP5 PUSH1 0x4 ADD DUP4 DUP2 SLOAD DUP2 LT PUSH2 0x2BC2 JUMPI PUSH2 0x2BC1 PUSH2 0x3EBA JUMP JUMPDEST JUMPDEST SWAP1 PUSH0 MSTORE PUSH1 0x20 PUSH0 KECCAK256 ADD PUSH0 SWAP1 SLOAD SWAP1 PUSH2 0x100 EXP SWAP1 DIV PUSH20 0xFFFFFFFFFFFFFFFFFFFFFFFFFFFFFFFFFFFFFFFF AND PUSH20 0xFFFFFFFFFFFFFFFFFFFFFFFFFFFFFFFFFFFFFFFF AND PUSH20 0xFFFFFFFFFFFFFFFFFFFFFFFFFFFFFFFFFFFFFFFF AND DUP2 MSTORE PUSH1 0x20 ADD SWAP1 DUP2 MSTORE PUSH1 0x20 ADD PUSH0 KECCAK256 PUSH0 SWAP1 SLOAD SWAP1 PUSH2 0x100 EXP SWAP1 DIV PUSH1 0xFF AND ISZERO PUSH2 0x2C44 JUMPI DUP2 DUP1 PUSH2 0x2C40 SWAP1 PUSH2 0x3F1A JUMP JUMPDEST SWAP3 POP POP JUMPDEST DUP1 DUP1 PUSH1 0x1 ADD SWAP2 POP POP PUSH2 0x2B8B JUMP JUMPDEST POP DUP2 PUSH1 0x4 ADD DUP1 SLOAD SWAP1 POP DUP2 SUB PUSH2 0x2C6A JUMPI PUSH2 0x2C69 DUP4 PUSH2 0x2628 JUMP JUMPDEST JUMPDEST POP POP POP JUMP JUMPDEST PUSH2 0x2C79 DUP3 DUP3 PUSH2 0x1725 JUMP JUMPDEST PUSH2 0x2CBC JUMPI DUP1 DUP3 PUSH1 0x40 MLOAD PUSH32 0xE2517D3F00000000000000000000000000000000000000000000000000000000 DUP2 MSTORE PUSH1 0x4 ADD PUSH2 0x2CB3 SWAP3 SWAP2 SWAP1 PUSH2 0x43B7 JUMP JUMPDEST PUSH1 0x40 MLOAD DUP1 SWAP2 SUB SWAP1 REVERT JUMPDEST POP POP JUMP JUMPDEST PUSH0 PUSH1 0x4 PUSH0 DUP4 DUP2 MSTORE PUSH1 0x20 ADD SWAP1 DUP2 MSTORE PUSH1 0x20 ADD PUSH0 KECCAK256 SWAP1 POP PUSH0 PUSH0 SWAP1 POP JUMPDEST DUP2 PUSH1 0x4 ADD DUP1 SLOAD SWAP1 POP DUP2 LT ISZERO PUSH2 0x2D95 JUMPI PUSH0 PUSH1 0x6 PUSH0 DUP6 DUP2 MSTORE PUSH1 0x20 ADD SWAP1 DUP2 MSTORE PUSH1 0x20 ADD PUSH0 KECCAK256 PUSH0 DUP5 PUSH1 0x4 ADD DUP5 DUP2 SLOAD DUP2 LT PUSH2 0x2D11 JUMPI PUSH2 0x2D10 PUSH2 0x3EBA JUMP JUMPDEST JUMPDEST SWAP1 PUSH0 MSTORE PUSH1 0x20 PUSH0 KECCAK256 ADD PUSH0 SWAP1 SLOAD SWAP1 PUSH2 0x100 EXP SWAP1 DIV PUSH20 0xFFFFFFFFFFFFFFFFFFFFFFFFFFFFFFFFFFFFFFFF AND PUSH20 0xFFFFFFFFFFFFFFFFFFFFFFFFFFFFFFFFFFFFFFFF AND PUSH20 0xFFFFFFFFFFFFFFFFFFFFFFFFFFFFFFFFFFFFFFFF AND DUP2 MSTORE PUSH1 0x20 ADD SWAP1 DUP2 MSTORE PUSH1 0x20 ADD PUSH0 KECCAK256 PUSH0 PUSH2 0x100 EXP DUP2 SLOAD DUP2 PUSH1 0xFF MUL NOT AND SWAP1 DUP4 ISZERO ISZERO MUL OR SWAP1 SSTORE POP DUP1 DUP1 PUSH1 0x1 ADD SWAP2 POP POP PUSH2 0x2CD9 JUMP JUMPDEST POP DUP1 PUSH1 0x6 ADD PUSH0 DUP2 SLOAD DUP1 SWAP3 SWAP2 SWAP1 PUSH2 0x2DAA SWAP1 PUSH2 0x3F1A JUMP JUMPDEST SWAP2 SWAP1 POP SSTORE POP DUP1 PUSH1 0x4 ADD DUP1 SLOAD SWAP1 POP PUSH1 0x1 DUP3 PUSH1 0x7 ADD SLOAD PUSH2 0x2DC8 SWAP2 SWAP1 PUSH2 0x3E87 JUMP JUMPDEST PUSH2 0x2DD2 SWAP2 SWAP1 PUSH2 0x440B JUMP JUMPDEST DUP2 PUSH1 0x7 ADD DUP2 SWAP1 SSTORE POP TIMESTAMP DUP2 PUSH1 0x8 ADD DUP2 SWAP1 SSTORE POP PUSH0 DUP2 PUSH1 0xD ADD PUSH0 DUP4 PUSH1 0x6 ADD SLOAD DUP2 MSTORE PUSH1 0x20 ADD SWAP1 DUP2 MSTORE PUSH1 0x20 ADD PUSH0 KECCAK256 DUP2 SWAP1 SSTORE POP DUP2 PUSH32 0x42463706CB812379C7405BBA67D1414B3473B66942ECD48FD66E7AD3CD3ABDD4 PUSH1 0x1 DUP4 PUSH1 0x6 ADD SLOAD PUSH2 0x2E32 SWAP2 SWAP1 PUSH2 0x3EE7 JUMP JUMPDEST PUSH1 0x40 MLOAD PUSH2 0x2E3F SWAP2 SWAP1 PUSH2 0x3686 JUMP JUMPDEST PUSH1 0x40 MLOAD DUP1 SWAP2 SUB SWAP1 LOG2 POP POP JUMP JUMPDEST PUSH0 PUSH1 0x4 PUSH0 DUP4 DUP2 MSTORE PUSH1 0x20 ADD SWAP1 DUP2 MSTORE PUSH1 0x20 ADD PUSH0 KECCAK256 SWAP1 POP PUSH0 DUP2 PUSH1 0x5 ADD PUSH0 PUSH2 0x100 EXP DUP2 SLOAD DUP2 PUSH1 0xFF MUL NOT AND SWAP1 DUP4 ISZERO ISZERO MUL OR SWAP1 SSTORE POP PUSH0 PUSH0 SWAP1 POP JUMPDEST DUP2 PUSH1 0x4 ADD DUP1 SLOAD SWAP1 POP DUP2 LT ISZERO PUSH2 0x30E7 JUMPI PUSH0 DUP3 PUSH1 0x4 ADD DUP3 DUP2 SLOAD DUP2 LT PUSH2 0x2EA5 JUMPI PUSH2 0x2EA4 PUSH2 0x3EBA JUMP JUMPDEST JUMPDEST SWAP1 PUSH0 MSTORE PUSH1 0x20 PUSH0 KECCAK256 ADD PUSH0 SWAP1 SLOAD SWAP1 PUSH2 0x100 EXP SWAP1 DIV PUSH20 0xFFFFFFFFFFFFFFFFFFFFFFFFFFFFFFFFFFFFFFFF AND SWAP1 POP PUSH0 DUP4 PUSH1 0x10 ADD PUSH0 DUP4 PUSH20 0xFFFFFFFFFFFFFFFFFFFFFFFFFFFFFFFFFFFFFFFF AND PUSH20 0xFFFFFFFFFFFFFFFFFFFFFFFFFFFFFFFFFFFFFFFF AND DUP2 MSTORE PUSH1 0x20 ADD SWAP1 DUP2 MSTORE PUSH1 0x20 ADD PUSH0 KECCAK256 SLOAD SWAP1 POP PUSH0 DUP2 GT DUP1 ISZERO PUSH2 0x2F6A JUMPI POP DUP4 PUSH1 0x11 ADD PUSH0 DUP4 PUSH20 0xFFFFFFFFFFFFFFFFFFFFFFFFFFFFFFFFFFFFFFFF AND PUSH20 0xFFFFFFFFFFFFFFFFFFFFFFFFFFFFFFFFFFFFFFFF AND DUP2 MSTORE PUSH1 0x20 ADD SWAP1 DUP2 MSTORE PUSH1 0x20 ADD PUSH0 KECCAK256 PUSH0 SWAP1 SLOAD SWAP1 PUSH2 0x100 EXP SWAP1 DIV PUSH1 0xFF AND ISZERO JUMPDEST ISZERO PUSH2 0x30D8 JUMPI PUSH1 0x1 DUP5 PUSH1 0x11 ADD PUSH0 DUP5 PUSH20 0xFFFFFFFFFFFFFFFFFFFFFFFFFFFFFFFFFFFFFFFF AND PUSH20 0xFFFFFFFFFFFFFFFFFFFFFFFFFFFFFFFFFFFFFFFF AND DUP2 MSTORE PUSH1 0x20 ADD SWAP1 DUP2 MSTORE PUSH1 0x20 ADD PUSH0 KECCAK256 PUSH0 PUSH2 0x100 EXP DUP2 SLOAD DUP2 PUSH1 0xFF MUL NOT AND SWAP1 DUP4 ISZERO ISZERO MUL OR SWAP1 SSTORE POP DUP1 DUP5 PUSH1 0x12 ADD PUSH0 DUP3 DUP3 SLOAD PUSH2 0x2FD9 SWAP2 SWAP1 PUSH2 0x3EE7 JUMP JUMPDEST SWAP3 POP POP DUP2 SWAP1 SSTORE POP PUSH0 DUP3 PUSH20 0xFFFFFFFFFFFFFFFFFFFFFFFFFFFFFFFFFFFFFFFF AND DUP3 PUSH1 0x40 MLOAD PUSH2 0x3005 SWAP1 PUSH2 0x4293 JUMP JUMPDEST PUSH0 PUSH1 0x40 MLOAD DUP1 DUP4 SUB DUP2 DUP6 DUP8 GAS CALL SWAP3 POP POP POP RETURNDATASIZE DUP1 PUSH0 DUP2 EQ PUSH2 0x303F JUMPI PUSH1 0x40 MLOAD SWAP2 POP PUSH1 0x1F NOT PUSH1 0x3F RETURNDATASIZE ADD AND DUP3 ADD PUSH1 0x40 MSTORE RETURNDATASIZE DUP3 MSTORE RETURNDATASIZE PUSH0 PUSH1 0x20 DUP5 ADD RETURNDATACOPY PUSH2 0x3044 JUMP JUMPDEST PUSH1 0x60 SWAP2 POP JUMPDEST POP POP SWAP1 POP DUP1 PUSH2 0x3088 JUMPI PUSH1 0x40 MLOAD PUSH32 0x8C379A000000000000000000000000000000000000000000000000000000000 DUP2 MSTORE PUSH1 0x4 ADD PUSH2 0x307F SWAP1 PUSH2 0x4485 JUMP JUMPDEST PUSH1 0x40 MLOAD DUP1 SWAP2 SUB SWAP1 REVERT JUMPDEST DUP3 PUSH20 0xFFFFFFFFFFFFFFFFFFFFFFFFFFFFFFFFFFFFFFFF AND DUP7 PUSH31 0x83F3D3D0A8132E9BF23AE6CDE659D5F3963A6973816E144F05BFCCEF184279 DUP5 PUSH1 0x40 MLOAD PUSH2 0x30CE SWAP2 SWAP1 PUSH2 0x3686 JUMP JUMPDEST PUSH1 0x40 MLOAD DUP1 SWAP2 SUB SWAP1 LOG3 POP JUMPDEST POP POP DUP1 DUP1 PUSH1 0x1 ADD SWAP2 POP POP PUSH2 0x2E7F JUMP JUMPDEST POP DUP2 PUSH32 0xDB5E126E6A121DA8028405972761F7C42DFF3D626273CD61FD32A13D4C3F56C7 PUSH1 0x40 MLOAD PUSH1 0x40 MLOAD DUP1 SWAP2 SUB SWAP1 LOG2 POP POP JUMP JUMPDEST PUSH2 0x3121 PUSH2 0x13BD JUMP JUMPDEST PUSH2 0x3160 JUMPI PUSH1 0x40 MLOAD PUSH32 0x8C379A000000000000000000000000000000000000000000000000000000000 DUP2 MSTORE PUSH1 0x4 ADD PUSH2 0x3157 SWAP1 PUSH2 0x44ED JUMP JUMPDEST PUSH1 0x40 MLOAD DUP1 SWAP2 SUB SWAP1 REVERT JUMPDEST JUMP JUMPDEST PUSH0 PUSH1 0x4 PUSH0 DUP4 DUP2 MSTORE PUSH1 0x20 ADD SWAP1 DUP2 MSTORE PUSH1 0x20 ADD PUSH0 KECCAK256 SWAP1 POP PUSH0 DUP2 PUSH1 0x4 ADD DUP1 SLOAD SWAP1 POP SWAP1 POP PUSH0 PUSH0 SWAP1 POP JUMPDEST DUP2 DUP2 LT ISZERO PUSH2 0x3426 JUMPI PUSH0 DUP2 DUP3 DUP5 PUSH2 0x319C SWAP2 SWAP1 PUSH2 0x3EE7 JUMP JUMPDEST TIMESTAMP PREVRANDAO DUP6 PUSH1 0x40 MLOAD PUSH1 0x20 ADD PUSH2 0x31B1 SWAP4 SWAP3 SWAP2 SWAP1 PUSH2 0x452B JUMP JUMPDEST PUSH1 0x40 MLOAD PUSH1 0x20 DUP2 DUP4 SUB SUB DUP2 MSTORE SWAP1 PUSH1 0x40 MSTORE DUP1 MLOAD SWAP1 PUSH1 0x20 ADD KECCAK256 PUSH0 SHR PUSH2 0x31D3 SWAP2 SWAP1 PUSH2 0x440B JUMP JUMPDEST PUSH2 0x31DD SWAP2 SWAP1 PUSH2 0x3E87 JUMP JUMPDEST SWAP1 POP PUSH0 DUP5 PUSH1 0x4 ADD DUP4 DUP2 SLOAD DUP2 LT PUSH2 0x31F6 JUMPI PUSH2 0x31F5 PUSH2 0x3EBA JUMP JUMPDEST JUMPDEST SWAP1 PUSH0 MSTORE PUSH1 0x20 PUSH0 KECCAK256 ADD PUSH0 SWAP1 SLOAD SWAP1 PUSH2 0x100 EXP SWAP1 DIV PUSH20 0xFFFFFFFFFFFFFFFFFFFFFFFFFFFFFFFFFFFFFFFF AND SWAP1 POP DUP5 PUSH1 0x4 ADD DUP3 DUP2 SLOAD DUP2 LT PUSH2 0x3236 JUMPI PUSH2 0x3235 PUSH2 0x3EBA JUMP JUMPDEST JUMPDEST SWAP1 PUSH0 MSTORE PUSH1 0x20 PUSH0 KECCAK256 ADD PUSH0 SWAP1 SLOAD SWAP1 PUSH2 0x100 EXP SWAP1 DIV PUSH20 0xFFFFFFFFFFFFFFFFFFFFFFFFFFFFFFFFFFFFFFFF AND DUP6 PUSH1 0x4 ADD DUP5 DUP2 SLOAD DUP2 LT PUSH2 0x3274 JUMPI PUSH2 0x3273 PUSH2 0x3EBA JUMP JUMPDEST JUMPDEST SWAP1 PUSH0 MSTORE PUSH1 0x20 PUSH0 KECCAK256 ADD PUSH0 PUSH2 0x100 EXP DUP2 SLOAD DUP2 PUSH20 0xFFFFFFFFFFFFFFFFFFFFFFFFFFFFFFFFFFFFFFFF MUL NOT AND SWAP1 DUP4 PUSH20 0xFFFFFFFFFFFFFFFFFFFFFFFFFFFFFFFFFFFFFFFF AND MUL OR SWAP1 SSTORE POP DUP1 DUP6 PUSH1 0x4 ADD DUP4 DUP2 SLOAD DUP2 LT PUSH2 0x32D0 JUMPI PUSH2 0x32CF PUSH2 0x3EBA JUMP JUMPDEST JUMPDEST SWAP1 PUSH0 MSTORE PUSH1 0x20 PUSH0 KECCAK256 ADD PUSH0 PUSH2 0x100 EXP DUP2 SLOAD DUP2 PUSH20 0xFFFFFFFFFFFFFFFFFFFFFFFFFFFFFFFFFFFFFFFF MUL NOT AND SWAP1 DUP4 PUSH20 0xFFFFFFFFFFFFFFFFFFFFFFFFFFFFFFFFFFFFFFFF AND MUL OR SWAP1 SSTORE POP DUP3 DUP6 PUSH1 0xC ADD PUSH0 DUP8 PUSH1 0x4 ADD DUP7 DUP2 SLOAD DUP2 LT PUSH2 0x3331 JUMPI PUSH2 0x3330 PUSH2 0x3EBA JUMP JUMPDEST JUMPDEST SWAP1 PUSH0 MSTORE PUSH1 0x20 PUSH0 KECCAK256 ADD PUSH0 SWAP1 SLOAD SWAP1 PUSH2 0x100 EXP SWAP1 DIV PUSH20 0xFFFFFFFFFFFFFFFFFFFFFFFFFFFFFFFFFFFFFFFF AND PUSH20 0xFFFFFFFFFFFFFFFFFFFFFFFFFFFFFFFFFFFFFFFF AND PUSH20 0xFFFFFFFFFFFFFFFFFFFFFFFFFFFFFFFFFFFFFFFF AND DUP2 MSTORE PUSH1 0x20 ADD SWAP1 DUP2 MSTORE PUSH1 0x20 ADD PUSH0 KECCAK256 DUP2 SWAP1 SSTORE POP DUP2 DUP6 PUSH1 0xC ADD PUSH0 DUP8 PUSH1 0x4 ADD DUP6 DUP2 SLOAD DUP2 LT PUSH2 0x33B2 JUMPI PUSH2 0x33B1 PUSH2 0x3EBA JUMP JUMPDEST JUMPDEST SWAP1 PUSH0 MSTORE PUSH1 0x20 PUSH0 KECCAK256 ADD PUSH0 SWAP1 SLOAD SWAP1 PUSH2 0x100 EXP SWAP1 DIV PUSH20 0xFFFFFFFFFFFFFFFFFFFFFFFFFFFFFFFFFFFFFFFF AND PUSH20 0xFFFFFFFFFFFFFFFFFFFFFFFFFFFFFFFFFFFFFFFF AND PUSH20 0xFFFFFFFFFFFFFFFFFFFFFFFFFFFFFFFFFFFFFFFF AND DUP2 MSTORE PUSH1 0x20 ADD SWAP1 DUP2 MSTORE PUSH1 0x20 ADD PUSH0 KECCAK256 DUP2 SWAP1 SSTORE POP POP POP DUP1 DUP1 PUSH1 0x1 ADD SWAP2 POP POP PUSH2 0x3186 JUMP JUMPDEST POP POP POP POP JUMP JUMPDEST DUP3 DUP1 SLOAD DUP3 DUP3 SSTORE SWAP1 PUSH0 MSTORE PUSH1 0x20 PUSH0 KECCAK256 SWAP1 PUSH1 0x1F ADD PUSH1 0x20 SWAP1 DIV DUP2 ADD SWAP3 DUP3 ISZERO PUSH2 0x34BC JUMPI SWAP2 PUSH1 0x20 MUL DUP3 ADD PUSH0 JUMPDEST DUP4 DUP3 GT ISZERO PUSH2 0x348E JUMPI DUP4 MLOAD DUP4 DUP3 PUSH2 0x100 EXP DUP2 SLOAD DUP2 PUSH1 0xFF MUL NOT AND SWAP1 DUP4 ISZERO ISZERO MUL OR SWAP1 SSTORE POP SWAP3 PUSH1 0x20 ADD SWAP3 PUSH1 0x1 ADD PUSH1 0x20 DUP2 PUSH0 ADD DIV SWAP3 DUP4 ADD SWAP3 PUSH1 0x1 SUB MUL PUSH2 0x3452 JUMP JUMPDEST DUP1 ISZERO PUSH2 0x34BA JUMPI DUP3 DUP2 PUSH2 0x100 EXP DUP2 SLOAD SWAP1 PUSH1 0xFF MUL NOT AND SWAP1 SSTORE PUSH1 0x1 ADD PUSH1 0x20 DUP2 PUSH0 ADD DIV SWAP3 DUP4 ADD SWAP3 PUSH1 0x1 SUB MUL PUSH2 0x348E JUMP JUMPDEST POP JUMPDEST POP SWAP1 POP PUSH2 0x34C9 SWAP2 SWAP1 PUSH2 0x34CD JUMP JUMPDEST POP SWAP1 JUMP JUMPDEST JUMPDEST DUP1 DUP3 GT ISZERO PUSH2 0x34E4 JUMPI PUSH0 DUP2 PUSH0 SWAP1 SSTORE POP PUSH1 0x1 ADD PUSH2 0x34CE JUMP JUMPDEST POP SWAP1 JUMP JUMPDEST PUSH0 PUSH1 0x40 MLOAD SWAP1 POP SWAP1 JUMP JUMPDEST PUSH0 PUSH0 REVERT JUMPDEST PUSH0 PUSH0 REVERT JUMPDEST PUSH0 PUSH32 0xFFFFFFFF00000000000000000000000000000000000000000000000000000000 DUP3 AND SWAP1 POP SWAP2 SWAP1 POP JUMP JUMPDEST PUSH2 0x352D DUP2 PUSH2 0x34F9 JUMP JUMPDEST DUP2 EQ PUSH2 0x3537 JUMPI PUSH0 PUSH0 REVERT JUMPDEST POP JUMP JUMPDEST PUSH0 DUP2 CALLDATALOAD SWAP1 POP PUSH2 0x3548 DUP2 PUSH2 0x3524 JUMP JUMPDEST SWAP3 SWAP2 POP POP JUMP JUMPDEST PUSH0 PUSH1 0x20 DUP3 DUP5 SUB SLT ISZERO PUSH2 0x3563 JUMPI PUSH2 0x3562 PUSH2 0x34F1 JUMP JUMPDEST JUMPDEST PUSH0 PUSH2 0x3570 DUP5 DUP3 DUP6 ADD PUSH2 0x353A JUMP JUMPDEST SWAP2 POP POP SWAP3 SWAP2 POP POP JUMP JUMPDEST PUSH0 DUP2 ISZERO ISZERO SWAP1 POP SWAP2 SWAP1 POP JUMP JUMPDEST PUSH2 0x358D DUP2 PUSH2 0x3579 JUMP JUMPDEST DUP3 MSTORE POP POP JUMP JUMPDEST PUSH0 PUSH1 0x20 DUP3 ADD SWAP1 POP PUSH2 0x35A6 PUSH0 DUP4 ADD DUP5 PUSH2 0x3584 JUMP JUMPDEST SWAP3 SWAP2 POP POP JUMP JUMPDEST PUSH0 DUP2 SWAP1 POP SWAP2 SWAP1 POP JUMP JUMPDEST PUSH2 0x35BE DUP2 PUSH2 0x35AC JUMP JUMPDEST DUP2 EQ PUSH2 0x35C8 JUMPI PUSH0 PUSH0 REVERT JUMPDEST POP JUMP JUMPDEST PUSH0 DUP2 CALLDATALOAD SWAP1 POP PUSH2 0x35D9 DUP2 PUSH2 0x35B5 JUMP JUMPDEST SWAP3 SWAP2 POP POP JUMP JUMPDEST PUSH0 PUSH20 0xFFFFFFFFFFFFFFFFFFFFFFFFFFFFFFFFFFFFFFFF DUP3 AND SWAP1 POP SWAP2 SWAP1 POP JUMP JUMPDEST PUSH0 PUSH2 0x3608 DUP3 PUSH2 0x35DF JUMP JUMPDEST SWAP1 POP SWAP2 SWAP1 POP JUMP JUMPDEST PUSH2 0x3618 DUP2 PUSH2 0x35FE JUMP JUMPDEST DUP2 EQ PUSH2 0x3622 JUMPI PUSH0 PUSH0 REVERT JUMPDEST POP JUMP JUMPDEST PUSH0 DUP2 CALLDATALOAD SWAP1 POP PUSH2 0x3633 DUP2 PUSH2 0x360F JUMP JUMPDEST SWAP3 SWAP2 POP POP JUMP JUMPDEST PUSH0 PUSH0 PUSH1 0x40 DUP4 DUP6 SUB SLT ISZERO PUSH2 0x364F JUMPI PUSH2 0x364E PUSH2 0x34F1 JUMP JUMPDEST JUMPDEST PUSH0 PUSH2 0x365C DUP6 DUP3 DUP7 ADD PUSH2 0x35CB JUMP JUMPDEST SWAP3 POP POP PUSH1 0x20 PUSH2 0x366D DUP6 DUP3 DUP7 ADD PUSH2 0x3625 JUMP JUMPDEST SWAP2 POP POP SWAP3 POP SWAP3 SWAP1 POP JUMP JUMPDEST PUSH2 0x3680 DUP2 PUSH2 0x35AC JUMP JUMPDEST DUP3 MSTORE POP POP JUMP JUMPDEST PUSH0 PUSH1 0x20 DUP3 ADD SWAP1 POP PUSH2 0x3699 PUSH0 DUP4 ADD DUP5 PUSH2 0x3677 JUMP JUMPDEST SWAP3 SWAP2 POP POP JUMP JUMPDEST PUSH0 PUSH1 0x20 DUP3 DUP5 SUB SLT ISZERO PUSH2 0x36B4 JUMPI PUSH2 0x36B3 PUSH2 0x34F1 JUMP JUMPDEST JUMPDEST PUSH0 PUSH2 0x36C1 DUP5 DUP3 DUP6 ADD PUSH2 0x35CB JUMP JUMPDEST SWAP2 POP POP SWAP3 SWAP2 POP POP JUMP JUMPDEST PUSH0 DUP2 MLOAD SWAP1 POP SWAP2 SWAP1 POP JUMP JUMPDEST PUSH0 DUP3 DUP3 MSTORE PUSH1 0x20 DUP3 ADD SWAP1 POP SWAP3 SWAP2 POP POP JUMP JUMPDEST DUP3 DUP2 DUP4 MCOPY PUSH0 DUP4 DUP4 ADD MSTORE POP POP POP JUMP JUMPDEST PUSH0 PUSH1 0x1F NOT PUSH1 0x1F DUP4 ADD AND SWAP1 POP SWAP2 SWAP1 POP JUMP JUMPDEST PUSH0 PUSH2 0x370C DUP3 PUSH2 0x36CA JUMP JUMPDEST PUSH2 0x3716 DUP2 DUP6 PUSH2 0x36D4 JUMP JUMPDEST SWAP4 POP PUSH2 0x3726 DUP2 DUP6 PUSH1 0x20 DUP7 ADD PUSH2 0x36E4 JUMP JUMPDEST PUSH2 0x372F DUP2 PUSH2 0x36F2 JUMP JUMPDEST DUP5 ADD SWAP2 POP POP SWAP3 SWAP2 POP POP JUMP JUMPDEST PUSH0 PUSH2 0x140 DUP3 ADD SWAP1 POP DUP2 DUP2 SUB PUSH0 DUP4 ADD MSTORE PUSH2 0x3753 DUP2 DUP14 PUSH2 0x3702 JUMP JUMPDEST SWAP1 POP PUSH2 0x3762 PUSH1 0x20 DUP4 ADD DUP13 PUSH2 0x3677 JUMP JUMPDEST PUSH2 0x376F PUSH1 0x40 DUP4 ADD DUP12 PUSH2 0x3677 JUMP JUMPDEST PUSH2 0x377C PUSH1 0x60 DUP4 ADD DUP11 PUSH2 0x3677 JUMP JUMPDEST PUSH2 0x3789 PUSH1 0x80 DUP4 ADD DUP10 PUSH2 0x3584 JUMP JUMPDEST PUSH2 0x3796 PUSH1 0xA0 DUP4 ADD DUP9 PUSH2 0x3677 JUMP JUMPDEST PUSH2 0x37A3 PUSH1 0xC0 DUP4 ADD DUP8 PUSH2 0x3677 JUMP JUMPDEST PUSH2 0x37B0 PUSH1 0xE0 DUP4 ADD DUP7 PUSH2 0x3677 JUMP JUMPDEST PUSH2 0x37BE PUSH2 0x100 DUP4 ADD DUP6 PUSH2 0x3677 JUMP JUMPDEST PUSH2 0x37CC PUSH2 0x120 DUP4 ADD DUP5 PUSH2 0x3677 JUMP JUMPDEST SWAP12 SWAP11 POP POP POP POP POP POP POP POP POP POP POP JUMP JUMPDEST PUSH0 PUSH0 PUSH0 PUSH1 0x60 DUP5 DUP7 SUB SLT ISZERO PUSH2 0x37F2 JUMPI PUSH2 0x37F1 PUSH2 0x34F1 JUMP JUMPDEST JUMPDEST PUSH0 PUSH2 0x37FF DUP7 DUP3 DUP8 ADD PUSH2 0x35CB JUMP JUMPDEST SWAP4 POP POP PUSH1 0x20 PUSH2 0x3810 DUP7 DUP3 DUP8 ADD PUSH2 0x3625 JUMP JUMPDEST SWAP3 POP POP PUSH1 0x40 PUSH2 0x3821 DUP7 DUP3 DUP8 ADD PUSH2 0x35CB JUMP JUMPDEST SWAP2 POP POP SWAP3 POP SWAP3 POP SWAP3 JUMP JUMPDEST PUSH2 0x3834 DUP2 PUSH2 0x35FE JUMP JUMPDEST DUP3 MSTORE POP POP JUMP JUMPDEST PUSH0 PUSH1 0x60 DUP3 ADD SWAP1 POP PUSH2 0x384D PUSH0 DUP4 ADD DUP7 PUSH2 0x382B JUMP JUMPDEST PUSH2 0x385A PUSH1 0x20 DUP4 ADD DUP6 PUSH2 0x3677 JUMP JUMPDEST PUSH2 0x3867 PUSH1 0x40 DUP4 ADD DUP5 PUSH2 0x3677 JUMP JUMPDEST SWAP5 SWAP4 POP POP POP POP JUMP JUMPDEST PUSH0 DUP2 SWAP1 POP SWAP2 SWAP1 POP JUMP JUMPDEST PUSH2 0x3881 DUP2 PUSH2 0x386F JUMP JUMPDEST DUP2 EQ PUSH2 0x388B JUMPI PUSH0 PUSH0 REVERT JUMPDEST POP JUMP JUMPDEST PUSH0 DUP2 CALLDATALOAD SWAP1 POP PUSH2 0x389C DUP2 PUSH2 0x3878 JUMP JUMPDEST SWAP3 SWAP2 POP POP JUMP JUMPDEST PUSH0 PUSH1 0x20 DUP3 DUP5 SUB SLT ISZERO PUSH2 0x38B7 JUMPI PUSH2 0x38B6 PUSH2 0x34F1 JUMP JUMPDEST JUMPDEST PUSH0 PUSH2 0x38C4 DUP5 DUP3 DUP6 ADD PUSH2 0x388E JUMP JUMPDEST SWAP2 POP POP SWAP3 SWAP2 POP POP JUMP JUMPDEST PUSH2 0x38D6 DUP2 PUSH2 0x386F JUMP JUMPDEST DUP3 MSTORE POP POP JUMP JUMPDEST PUSH0 PUSH1 0x20 DUP3 ADD SWAP1 POP PUSH2 0x38EF PUSH0 DUP4 ADD DUP5 PUSH2 0x38CD JUMP JUMPDEST SWAP3 SWAP2 POP POP JUMP JUMPDEST PUSH0 PUSH0 PUSH1 0x40 DUP4 DUP6 SUB SLT ISZERO PUSH2 0x390B JUMPI PUSH2 0x390A PUSH2 0x34F1 JUMP JUMPDEST JUMPDEST PUSH0 PUSH2 0x3918 DUP6 DUP3 DUP7 ADD PUSH2 0x388E JUMP JUMPDEST SWAP3 POP POP PUSH1 0x20 PUSH2 0x3929 DUP6 DUP3 DUP7 ADD PUSH2 0x3625 JUMP JUMPDEST SWAP2 POP POP SWAP3 POP SWAP3 SWAP1 POP JUMP JUMPDEST PUSH0 DUP2 MLOAD SWAP1 POP SWAP2 SWAP1 POP JUMP JUMPDEST PUSH0 DUP3 DUP3 MSTORE PUSH1 0x20 DUP3 ADD SWAP1 POP SWAP3 SWAP2 POP POP JUMP JUMPDEST PUSH0 DUP2 SWAP1 POP PUSH1 0x20 DUP3 ADD SWAP1 POP SWAP2 SWAP1 POP JUMP JUMPDEST PUSH2 0x3965 DUP2 PUSH2 0x35FE JUMP JUMPDEST DUP3 MSTORE POP POP JUMP JUMPDEST PUSH2 0x3974 DUP2 PUSH2 0x35AC JUMP JUMPDEST DUP3 MSTORE POP POP JUMP JUMPDEST PUSH1 0x60 DUP3 ADD PUSH0 DUP3 ADD MLOAD PUSH2 0x398E PUSH0 DUP6 ADD DUP3 PUSH2 0x395C JUMP JUMPDEST POP PUSH1 0x20 DUP3 ADD MLOAD PUSH2 0x39A1 PUSH1 0x20 DUP6 ADD DUP3 PUSH2 0x396B JUMP JUMPDEST POP PUSH1 0x40 DUP3 ADD MLOAD PUSH2 0x39B4 PUSH1 0x40 DUP6 ADD DUP3 PUSH2 0x396B JUMP JUMPDEST POP POP POP POP JUMP JUMPDEST PUSH0 PUSH2 0x39C5 DUP4 DUP4 PUSH2 0x397A JUMP JUMPDEST PUSH1 0x60 DUP4 ADD SWAP1 POP SWAP3 SWAP2 POP POP JUMP JUMPDEST PUSH0 PUSH1 0x20 DUP3 ADD SWAP1 POP SWAP2 SWAP1 POP JUMP JUMPDEST PUSH0 PUSH2 0x39E7 DUP3 PUSH2 0x3933 JUMP JUMPDEST PUSH2 0x39F1 DUP2 DUP6 PUSH2 0x393D JUMP JUMPDEST SWAP4 POP PUSH2 0x39FC DUP4 PUSH2 0x394D JUMP JUMPDEST DUP1 PUSH0 JUMPDEST DUP4 DUP2 LT ISZERO PUSH2 0x3A2C JUMPI DUP2 MLOAD PUSH2 0x3A13 DUP9 DUP3 PUSH2 0x39BA JUMP JUMPDEST SWAP8 POP PUSH2 0x3A1E DUP4 PUSH2 0x39D1 JUMP JUMPDEST SWAP3 POP POP PUSH1 0x1 DUP2 ADD SWAP1 POP PUSH2 0x39FF JUMP JUMPDEST POP DUP6 SWAP4 POP POP POP POP SWAP3 SWAP2 POP POP JUMP JUMPDEST PUSH0 PUSH1 0x20 DUP3 ADD SWAP1 POP DUP2 DUP2 SUB PUSH0 DUP4 ADD MSTORE PUSH2 0x3A51 DUP2 DUP5 PUSH2 0x39DD JUMP JUMPDEST SWAP1 POP SWAP3 SWAP2 POP POP JUMP JUMPDEST PUSH0 PUSH1 0x20 DUP3 DUP5 SUB SLT ISZERO PUSH2 0x3A6E JUMPI PUSH2 0x3A6D PUSH2 0x34F1 JUMP JUMPDEST JUMPDEST PUSH0 PUSH2 0x3A7B DUP5 DUP3 DUP6 ADD PUSH2 0x3625 JUMP JUMPDEST SWAP2 POP POP SWAP3 SWAP2 POP POP JUMP JUMPDEST PUSH0 DUP2 MLOAD SWAP1 POP SWAP2 SWAP1 POP JUMP JUMPDEST PUSH0 DUP3 DUP3 MSTORE PUSH1 0x20 DUP3 ADD SWAP1 POP SWAP3 SWAP2 POP POP JUMP JUMPDEST PUSH0 DUP2 SWAP1 POP PUSH1 0x20 DUP3 ADD SWAP1 POP SWAP2 SWAP1 POP JUMP JUMPDEST PUSH0 PUSH2 0x3AB8 DUP4 DUP4 PUSH2 0x395C JUMP JUMPDEST PUSH1 0x20 DUP4 ADD SWAP1 POP SWAP3 SWAP2 POP POP JUMP JUMPDEST PUSH0 PUSH1 0x20 DUP3 ADD SWAP1 POP SWAP2 SWAP1 POP JUMP JUMPDEST PUSH0 PUSH2 0x3ADA DUP3 PUSH2 0x3A84 JUMP JUMPDEST PUSH2 0x3AE4 DUP2 DUP6 PUSH2 0x3A8E JUMP JUMPDEST SWAP4 POP PUSH2 0x3AEF DUP4 PUSH2 0x3A9E JUMP JUMPDEST DUP1 PUSH0 JUMPDEST DUP4 DUP2 LT ISZERO PUSH2 0x3B1F JUMPI DUP2 MLOAD PUSH2 0x3B06 DUP9 DUP3 PUSH2 0x3AAD JUMP JUMPDEST SWAP8 POP PUSH2 0x3B11 DUP4 PUSH2 0x3AC4 JUMP JUMPDEST SWAP3 POP POP PUSH1 0x1 DUP2 ADD SWAP1 POP PUSH2 0x3AF2 JUMP JUMPDEST POP DUP6 SWAP4 POP POP POP POP SWAP3 SWAP2 POP POP JUMP JUMPDEST PUSH0 PUSH1 0x20 DUP3 ADD SWAP1 POP DUP2 DUP2 SUB PUSH0 DUP4 ADD MSTORE PUSH2 0x3B44 DUP2 DUP5 PUSH2 0x3AD0 JUMP JUMPDEST SWAP1 POP SWAP3 SWAP2 POP POP JUMP JUMPDEST PUSH0 PUSH2 0x120 DUP3 ADD SWAP1 POP DUP2 DUP2 SUB PUSH0 DUP4 ADD MSTORE PUSH2 0x3B65 DUP2 DUP13 PUSH2 0x3702 JUMP JUMPDEST SWAP1 POP PUSH2 0x3B74 PUSH1 0x20 DUP4 ADD DUP12 PUSH2 0x3677 JUMP JUMPDEST PUSH2 0x3B81 PUSH1 0x40 DUP4 ADD DUP11 PUSH2 0x3677 JUMP JUMPDEST PUSH2 0x3B8E PUSH1 0x60 DUP4 ADD DUP10 PUSH2 0x3677 JUMP JUMPDEST PUSH2 0x3B9B PUSH1 0x80 DUP4 ADD DUP9 PUSH2 0x3677 JUMP JUMPDEST PUSH2 0x3BA8 PUSH1 0xA0 DUP4 ADD DUP8 PUSH2 0x3584 JUMP JUMPDEST PUSH2 0x3BB5 PUSH1 0xC0 DUP4 ADD DUP7 PUSH2 0x3677 JUMP JUMPDEST PUSH2 0x3BC2 PUSH1 0xE0 DUP4 ADD DUP6 PUSH2 0x3677 JUMP JUMPDEST PUSH2 0x3BD0 PUSH2 0x100 DUP4 ADD DUP5 PUSH2 0x3677 JUMP JUMPDEST SWAP11 SWAP10 POP POP POP POP POP POP POP POP POP POP JUMP JUMPDEST PUSH0 PUSH0 REVERT JUMPDEST PUSH0 PUSH0 REVERT JUMPDEST PUSH32 0x4E487B7100000000000000000000000000000000000000000000000000000000 PUSH0 MSTORE PUSH1 0x41 PUSH1 0x4 MSTORE PUSH1 0x24 PUSH0 REVERT JUMPDEST PUSH2 0x3C1C DUP3 PUSH2 0x36F2 JUMP JUMPDEST DUP2 ADD DUP2 DUP2 LT PUSH8 0xFFFFFFFFFFFFFFFF DUP3 GT OR ISZERO PUSH2 0x3C3B JUMPI PUSH2 0x3C3A PUSH2 0x3BE6 JUMP JUMPDEST JUMPDEST DUP1 PUSH1 0x40 MSTORE POP POP POP JUMP JUMPDEST PUSH0 PUSH2 0x3C4D PUSH2 0x34E8 JUMP JUMPDEST SWAP1 POP PUSH2 0x3C59 DUP3 DUP3 PUSH2 0x3C13 JUMP JUMPDEST SWAP2 SWAP1 POP JUMP JUMPDEST PUSH0 PUSH8 0xFFFFFFFFFFFFFFFF DUP3 GT ISZERO PUSH2 0x3C78 JUMPI PUSH2 0x3C77 PUSH2 0x3BE6 JUMP JUMPDEST JUMPDEST PUSH2 0x3C81 DUP3 PUSH2 0x36F2 JUMP JUMPDEST SWAP1 POP PUSH1 0x20 DUP2 ADD SWAP1 POP SWAP2 SWAP1 POP JUMP JUMPDEST DUP3 DUP2 DUP4 CALLDATACOPY PUSH0 DUP4 DUP4 ADD MSTORE POP POP POP JUMP JUMPDEST PUSH0 PUSH2 0x3CAE PUSH2 0x3CA9 DUP5 PUSH2 0x3C5E JUMP JUMPDEST PUSH2 0x3C44 JUMP JUMPDEST SWAP1 POP DUP3 DUP2 MSTORE PUSH1 0x20 DUP2 ADD DUP5 DUP5 DUP5 ADD GT ISZERO PUSH2 0x3CCA JUMPI PUSH2 0x3CC9 PUSH2 0x3BE2 JUMP JUMPDEST JUMPDEST PUSH2 0x3CD5 DUP5 DUP3 DUP6 PUSH2 0x3C8E JUMP JUMPDEST POP SWAP4 SWAP3 POP POP POP JUMP JUMPDEST PUSH0 DUP3 PUSH1 0x1F DUP4 ADD SLT PUSH2 0x3CF1 JUMPI PUSH2 0x3CF0 PUSH2 0x3BDE JUMP JUMPDEST JUMPDEST DUP2 CALLDATALOAD PUSH2 0x3D01 DUP5 DUP3 PUSH1 0x20 DUP7 ADD PUSH2 0x3C9C JUMP JUMPDEST SWAP2 POP POP SWAP3 SWAP2 POP POP JUMP JUMPDEST PUSH0 PUSH0 PUSH0 PUSH0 PUSH1 0x80 DUP6 DUP8 SUB SLT ISZERO PUSH2 0x3D22 JUMPI PUSH2 0x3D21 PUSH2 0x34F1 JUMP JUMPDEST JUMPDEST PUSH0 DUP6 ADD CALLDATALOAD PUSH8 0xFFFFFFFFFFFFFFFF DUP2 GT ISZERO PUSH2 0x3D3F JUMPI PUSH2 0x3D3E PUSH2 0x34F5 JUMP JUMPDEST JUMPDEST PUSH2 0x3D4B DUP8 DUP3 DUP9 ADD PUSH2 0x3CDD JUMP JUMPDEST SWAP5 POP POP PUSH1 0x20 PUSH2 0x3D5C DUP8 DUP3 DUP9 ADD PUSH2 0x35CB JUMP JUMPDEST SWAP4 POP POP PUSH1 0x40 PUSH2 0x3D6D DUP8 DUP3 DUP9 ADD PUSH2 0x35CB JUMP JUMPDEST SWAP3 POP POP PUSH1 0x60 PUSH2 0x3D7E DUP8 DUP3 DUP9 ADD PUSH2 0x35CB JUMP JUMPDEST SWAP2 POP POP SWAP3 SWAP6 SWAP2 SWAP5 POP SWAP3 POP JUMP JUMPDEST PUSH0 PUSH0 PUSH1 0x40 DUP4 DUP6 SUB SLT ISZERO PUSH2 0x3DA0 JUMPI PUSH2 0x3D9F PUSH2 0x34F1 JUMP JUMPDEST JUMPDEST PUSH0 PUSH2 0x3DAD DUP6 DUP3 DUP7 ADD PUSH2 0x35CB JUMP JUMPDEST SWAP3 POP POP PUSH1 0x20 PUSH2 0x3DBE DUP6 DUP3 DUP7 ADD PUSH2 0x35CB JUMP JUMPDEST SWAP2 POP POP SWAP3 POP SWAP3 SWAP1 POP JUMP JUMPDEST PUSH0 PUSH1 0x60 DUP3 ADD SWAP1 POP PUSH2 0x3DDB PUSH0 DUP4 ADD DUP7 PUSH2 0x3677 JUMP JUMPDEST PUSH2 0x3DE8 PUSH1 0x20 DUP4 ADD DUP6 PUSH2 0x382B JUMP JUMPDEST PUSH2 0x3DF5 PUSH1 0x40 DUP4 ADD DUP5 PUSH2 0x3584 JUMP JUMPDEST SWAP5 SWAP4 POP POP POP POP JUMP JUMPDEST PUSH32 0x4E487B7100000000000000000000000000000000000000000000000000000000 PUSH0 MSTORE PUSH1 0x22 PUSH1 0x4 MSTORE PUSH1 0x24 PUSH0 REVERT JUMPDEST PUSH0 PUSH1 0x2 DUP3 DIV SWAP1 POP PUSH1 0x1 DUP3 AND DUP1 PUSH2 0x3E41 JUMPI PUSH1 0x7F DUP3 AND SWAP2 POP JUMPDEST PUSH1 0x20 DUP3 LT DUP2 SUB PUSH2 0x3E54 JUMPI PUSH2 0x3E53 PUSH2 0x3DFD JUMP JUMPDEST JUMPDEST POP SWAP2 SWAP1 POP JUMP JUMPDEST PUSH32 0x4E487B7100000000000000000000000000000000000000000000000000000000 PUSH0 MSTORE PUSH1 0x11 PUSH1 0x4 MSTORE PUSH1 0x24 PUSH0 REVERT JUMPDEST PUSH0 PUSH2 0x3E91 DUP3 PUSH2 0x35AC JUMP JUMPDEST SWAP2 POP PUSH2 0x3E9C DUP4 PUSH2 0x35AC JUMP JUMPDEST SWAP3 POP DUP3 DUP3 ADD SWAP1 POP DUP1 DUP3 GT ISZERO PUSH2 0x3EB4 JUMPI PUSH2 0x3EB3 PUSH2 0x3E5A JUMP JUMPDEST JUMPDEST SWAP3 SWAP2 POP POP JUMP JUMPDEST PUSH32 0x4E487B7100000000000000000000000000000000000000000000000000000000 PUSH0 MSTORE PUSH1 0x32 PUSH1 0x4 MSTORE PUSH1 0x24 PUSH0 REVERT JUMPDEST PUSH0 PUSH2 0x3EF1 DUP3 PUSH2 0x35AC JUMP JUMPDEST SWAP2 POP PUSH2 0x3EFC DUP4 PUSH2 0x35AC JUMP JUMPDEST SWAP3 POP DUP3 DUP3 SUB SWAP1 POP DUP2 DUP2 GT ISZERO PUSH2 0x3F14 JUMPI PUSH2 0x3F13 PUSH2 0x3E5A JUMP JUMPDEST JUMPDEST SWAP3 SWAP2 POP POP JUMP JUMPDEST PUSH0 PUSH2 0x3F24 DUP3 PUSH2 0x35AC JUMP JUMPDEST SWAP2 POP PUSH32 0xFFFFFFFFFFFFFFFFFFFFFFFFFFFFFFFFFFFFFFFFFFFFFFFFFFFFFFFFFFFFFFFF DUP3 SUB PUSH2 0x3F56 JUMPI PUSH2 0x3F55 PUSH2 0x3E5A JUMP JUMPDEST JUMPDEST PUSH1 0x1 DUP3 ADD SWAP1 POP SWAP2 SWAP1 POP JUMP JUMPDEST PUSH0 DUP2 SWAP1 POP DUP2 PUSH0 MSTORE PUSH1 0x20 PUSH0 KECCAK256 SWAP1 POP SWAP2 SWAP1 POP JUMP JUMPDEST PUSH0 PUSH1 0x20 PUSH1 0x1F DUP4 ADD DIV SWAP1 POP SWAP2 SWAP1 POP JUMP JUMPDEST PUSH0 DUP3 DUP3 SHL SWAP1 POP SWAP3 SWAP2 POP POP JUMP JUMPDEST PUSH0 PUSH1 0x8 DUP4 MUL PUSH2 0x3FBD PUSH32 0xFFFFFFFFFFFFFFFFFFFFFFFFFFFFFFFFFFFFFFFFFFFFFFFFFFFFFFFFFFFFFFFF DUP3 PUSH2 0x3F82 JUMP JUMPDEST PUSH2 0x3FC7 DUP7 DUP4 PUSH2 0x3F82 JUMP JUMPDEST SWAP6 POP DUP1 NOT DUP5 AND SWAP4 POP DUP1 DUP7 AND DUP5 OR SWAP3 POP POP POP SWAP4 SWAP3 POP POP POP JUMP JUMPDEST PUSH0 DUP2 SWAP1 POP SWAP2 SWAP1 POP JUMP JUMPDEST PUSH0 PUSH2 0x4002 PUSH2 0x3FFD PUSH2 0x3FF8 DUP5 PUSH2 0x35AC JUMP JUMPDEST PUSH2 0x3FDF JUMP JUMPDEST PUSH2 0x35AC JUMP JUMPDEST SWAP1 POP SWAP2 SWAP1 POP JUMP JUMPDEST PUSH0 DUP2 SWAP1 POP SWAP2 SWAP1 POP JUMP JUMPDEST PUSH2 0x401B DUP4 PUSH2 0x3FE8 JUMP JUMPDEST PUSH2 0x402F PUSH2 0x4027 DUP3 PUSH2 0x4009 JUMP JUMPDEST DUP5 DUP5 SLOAD PUSH2 0x3F8E JUMP JUMPDEST DUP3 SSTORE POP POP POP POP JUMP JUMPDEST PUSH0 PUSH0 SWAP1 POP SWAP1 JUMP JUMPDEST PUSH2 0x4046 PUSH2 0x4037 JUMP JUMPDEST PUSH2 0x4051 DUP2 DUP5 DUP5 PUSH2 0x4012 JUMP JUMPDEST POP POP POP JUMP JUMPDEST JUMPDEST DUP2 DUP2 LT ISZERO PUSH2 0x4074 JUMPI PUSH2 0x4069 PUSH0 DUP3 PUSH2 0x403E JUMP JUMPDEST PUSH1 0x1 DUP2 ADD SWAP1 POP PUSH2 0x4057 JUMP JUMPDEST POP POP JUMP JUMPDEST PUSH1 0x1F DUP3 GT ISZERO PUSH2 0x40B9 JUMPI PUSH2 0x408A DUP2 PUSH2 0x3F61 JUMP JUMPDEST PUSH2 0x4093 DUP5 PUSH2 0x3F73 JUMP JUMPDEST DUP2 ADD PUSH1 0x20 DUP6 LT ISZERO PUSH2 0x40A2 JUMPI DUP2 SWAP1 POP JUMPDEST PUSH2 0x40B6 PUSH2 0x40AE DUP6 PUSH2 0x3F73 JUMP JUMPDEST DUP4 ADD DUP3 PUSH2 0x4056 JUMP JUMPDEST POP POP JUMPDEST POP POP POP JUMP JUMPDEST PUSH0 DUP3 DUP3 SHR SWAP1 POP SWAP3 SWAP2 POP POP JUMP JUMPDEST PUSH0 PUSH2 0x40D9 PUSH0 NOT DUP5 PUSH1 0x8 MUL PUSH2 0x40BE JUMP JUMPDEST NOT DUP1 DUP4 AND SWAP2 POP POP SWAP3 SWAP2 POP POP JUMP JUMPDEST PUSH0 PUSH2 0x40F1 DUP4 DUP4 PUSH2 0x40CA JUMP JUMPDEST SWAP2 POP DUP3 PUSH1 0x2 MUL DUP3 OR SWAP1 POP SWAP3 SWAP2 POP POP JUMP JUMPDEST PUSH2 0x410A DUP3 PUSH2 0x36CA JUMP JUMPDEST PUSH8 0xFFFFFFFFFFFFFFFF DUP2 GT ISZERO PUSH2 0x4123 JUMPI PUSH2 0x4122 PUSH2 0x3BE6 JUMP JUMPDEST JUMPDEST PUSH2 0x412D DUP3 SLOAD PUSH2 0x3E2A JUMP JUMPDEST PUSH2 0x4138 DUP3 DUP3 DUP6 PUSH2 0x4078 JUMP JUMPDEST PUSH0 PUSH1 0x20 SWAP1 POP PUSH1 0x1F DUP4 GT PUSH1 0x1 DUP2 EQ PUSH2 0x4169 JUMPI PUSH0 DUP5 ISZERO PUSH2 0x4157 JUMPI DUP3 DUP8 ADD MLOAD SWAP1 POP JUMPDEST PUSH2 0x4161 DUP6 DUP3 PUSH2 0x40E6 JUMP JUMPDEST DUP7 SSTORE POP PUSH2 0x41C8 JUMP JUMPDEST PUSH1 0x1F NOT DUP5 AND PUSH2 0x4177 DUP7 PUSH2 0x3F61 JUMP JUMPDEST PUSH0 JUMPDEST DUP3 DUP2 LT ISZERO PUSH2 0x419E JUMPI DUP5 DUP10 ADD MLOAD DUP3 SSTORE PUSH1 0x1 DUP3 ADD SWAP2 POP PUSH1 0x20 DUP6 ADD SWAP5 POP PUSH1 0x20 DUP2 ADD SWAP1 POP PUSH2 0x4179 JUMP JUMPDEST DUP7 DUP4 LT ISZERO PUSH2 0x41BB JUMPI DUP5 DUP10 ADD MLOAD PUSH2 0x41B7 PUSH1 0x1F DUP10 AND DUP3 PUSH2 0x40CA JUMP JUMPDEST DUP4 SSTORE POP JUMPDEST PUSH1 0x1 PUSH1 0x2 DUP9 MUL ADD DUP9 SSTORE POP POP POP JUMPDEST POP POP POP POP POP POP JUMP JUMPDEST PUSH0 PUSH1 0x40 DUP3 ADD SWAP1 POP DUP2 DUP2 SUB PUSH0 DUP4 ADD MSTORE PUSH2 0x41E8 DUP2 DUP6 PUSH2 0x3702 JUMP JUMPDEST SWAP1 POP PUSH2 0x41F7 PUSH1 0x20 DUP4 ADD DUP5 PUSH2 0x3677 JUMP JUMPDEST SWAP4 SWAP3 POP POP POP JUMP JUMPDEST PUSH32 0x5061757361626C653A2070617573656400000000000000000000000000000000 PUSH0 DUP3 ADD MSTORE POP JUMP JUMPDEST PUSH0 PUSH2 0x4232 PUSH1 0x10 DUP4 PUSH2 0x36D4 JUMP JUMPDEST SWAP2 POP PUSH2 0x423D DUP3 PUSH2 0x41FE JUMP JUMPDEST PUSH1 0x20 DUP3 ADD SWAP1 POP SWAP2 SWAP1 POP JUMP JUMPDEST PUSH0 PUSH1 0x20 DUP3 ADD SWAP1 POP DUP2 DUP2 SUB PUSH0 DUP4 ADD MSTORE PUSH2 0x425F DUP2 PUSH2 0x4226 JUMP JUMPDEST SWAP1 POP SWAP2 SWAP1 POP JUMP JUMPDEST PUSH0 DUP2 SWAP1 POP SWAP3 SWAP2 POP POP JUMP JUMPDEST POP JUMP JUMPDEST PUSH0 PUSH2 0x427E PUSH0 DUP4 PUSH2 0x4266 JUMP JUMPDEST SWAP2 POP PUSH2 0x4289 DUP3 PUSH2 0x4270 JUMP JUMPDEST PUSH0 DUP3 ADD SWAP1 POP SWAP2 SWAP1 POP JUMP JUMPDEST PUSH0 PUSH2 0x429D DUP3 PUSH2 0x4273 JUMP JUMPDEST SWAP2 POP DUP2 SWAP1 POP SWAP2 SWAP1 POP JUMP JUMPDEST PUSH32 0x5061796F7574207472616E73666572206661696C656400000000000000000000 PUSH0 DUP3 ADD MSTORE POP JUMP JUMPDEST PUSH0 PUSH2 0x42DB PUSH1 0x16 DUP4 PUSH2 0x36D4 JUMP JUMPDEST SWAP2 POP PUSH2 0x42E6 DUP3 PUSH2 0x42A7 JUMP JUMPDEST PUSH1 0x20 DUP3 ADD SWAP1 POP SWAP2 SWAP1 POP JUMP JUMPDEST PUSH0 PUSH1 0x20 DUP3 ADD SWAP1 POP DUP2 DUP2 SUB PUSH0 DUP4 ADD MSTORE PUSH2 0x4308 DUP2 PUSH2 0x42CF JUMP JUMPDEST SWAP1 POP SWAP2 SWAP1 POP JUMP JUMPDEST PUSH0 PUSH1 0x40 DUP3 ADD SWAP1 POP PUSH2 0x4322 PUSH0 DUP4 ADD DUP6 PUSH2 0x3677 JUMP JUMPDEST PUSH2 0x432F PUSH1 0x20 DUP4 ADD DUP5 PUSH2 0x3677 JUMP JUMPDEST SWAP4 SWAP3 POP POP POP JUMP JUMPDEST PUSH0 PUSH1 0x20 DUP3 ADD SWAP1 POP PUSH2 0x4349 PUSH0 DUP4 ADD DUP5 PUSH2 0x382B JUMP JUMPDEST SWAP3 SWAP2 POP POP JUMP JUMPDEST PUSH32 0x5265656E7472616E637947756172643A207265656E7472616E742063616C6C00 PUSH0 DUP3 ADD MSTORE POP JUMP JUMPDEST PUSH0 PUSH2 0x4383 PUSH1 0x1F DUP4 PUSH2 0x36D4 JUMP JUMPDEST SWAP2 POP PUSH2 0x438E DUP3 PUSH2 0x434F JUMP JUMPDEST PUSH1 0x20 DUP3 ADD SWAP1 POP SWAP2 SWAP1 POP JUMP JUMPDEST PUSH0 PUSH1 0x20 DUP3 ADD SWAP1 POP DUP2 DUP2 SUB PUSH0 DUP4 ADD MSTORE PUSH2 0x43B0 DUP2 PUSH2 0x4377 JUMP JUMPDEST SWAP1 POP SWAP2 SWAP1 POP JUMP JUMPDEST PUSH0 PUSH1 0x40 DUP3 ADD SWAP1 POP PUSH2 0x43CA PUSH0 DUP4 ADD DUP6 PUSH2 0x382B JUMP JUMPDEST PUSH2 0x43D7 PUSH1 0x20 DUP4 ADD DUP5 PUSH2 0x38CD JUMP JUMPDEST SWAP4 SWAP3 POP POP POP JUMP JUMPDEST PUSH32 0x4E487B7100000000000000000000000000000000000000000000000000000000 PUSH0 MSTORE PUSH1 0x12 PUSH1 0x4 MSTORE PUSH1 0x24 PUSH0 REVERT JUMPDEST PUSH0 PUSH2 0x4415 DUP3 PUSH2 0x35AC JUMP JUMPDEST SWAP2 POP PUSH2 0x4420 DUP4 PUSH2 0x35AC JUMP JUMPDEST SWAP3 POP DUP3 PUSH2 0x4430 JUMPI PUSH2 0x442F PUSH2 0x43DE JUMP JUMPDEST JUMPDEST DUP3 DUP3 MOD SWAP1 POP SWAP3 SWAP2 POP POP JUMP JUMPDEST PUSH32 0x436F6C6C61746572616C2072657475726E206661696C65640000000000000000 PUSH0 DUP3 ADD MSTORE POP JUMP JUMPDEST PUSH0 PUSH2 0x446F PUSH1 0x18 DUP4 PUSH2 0x36D4 JUMP JUMPDEST SWAP2 POP PUSH2 0x447A DUP3 PUSH2 0x443B JUMP JUMPDEST PUSH1 0x20 DUP3 ADD SWAP1 POP SWAP2 SWAP1 POP JUMP JUMPDEST PUSH0 PUSH1 0x20 DUP3 ADD SWAP1 POP DUP2 DUP2 SUB PUSH0 DUP4 ADD MSTORE PUSH2 0x449C DUP2 PUSH2 0x4463 JUMP JUMPDEST SWAP1 POP SWAP2 SWAP1 POP JUMP JUMPDEST PUSH32 0x5061757361626C653A206E6F7420706175736564000000000000000000000000 PUSH0 DUP3 ADD MSTORE POP JUMP JUMPDEST PUSH0 PUSH2 0x44D7 PUSH1 0x14 DUP4 PUSH2 0x36D4 JUMP JUMPDEST SWAP2 POP PUSH2 0x44E2 DUP3 PUSH2 0x44A3 JUMP JUMPDEST PUSH1 0x20 DUP3 ADD SWAP1 POP SWAP2 SWAP1 POP JUMP JUMPDEST PUSH0 PUSH1 0x20 DUP3 ADD SWAP1 POP DUP2 DUP2 SUB PUSH0 DUP4 ADD MSTORE PUSH2 0x4504 DUP2 PUSH2 0x44CB JUMP JUMPDEST SWAP1 POP SWAP2 SWAP1 POP JUMP JUMPDEST PUSH0 DUP2 SWAP1 POP SWAP2 SWAP1 POP JUMP JUMPDEST PUSH2 0x4525 PUSH2 0x4520 DUP3 PUSH2 0x35AC JUMP JUMPDEST PUSH2 0x450B JUMP JUMPDEST DUP3 MSTORE POP POP JUMP JUMPDEST PUSH0 PUSH2 0x4536 DUP3 DUP7 PUSH2 0x4514 JUMP JUMPDEST PUSH1 0x20 DUP3 ADD SWAP2 POP PUSH2 0x4546 DUP3 DUP6 PUSH2 0x4514 JUMP JUMPDEST PUSH1 0x20 DUP3 ADD SWAP2 POP PUSH2 0x4556 DUP3 DUP5 PUSH2 0x4514 JUMP JUMPDEST PUSH1 0x20 DUP3 ADD SWAP2 POP DUP2 SWAP1 POP SWAP5 SWAP4 POP POP POP POP JUMP INVALID LOG2 PUSH5 0x6970667358 0x22 SLT KECCAK256 SHR DATALOADN 0xCF1F 0xD9 CALLDATACOPY 0x4B NUMBER PUSH25 0x26C0D817C8035702352CA4BD811CDF3F1432296AA2CE8D6473 PUSH16 0x6C634300081E00330000000000000000 "
				},
				"gasEstimates": {
					"creation": {
						"codeDepositCost": "3564200",
						"executionCost": "infinite",
						"totalCost": "infinite"
					},
					"external": {
						"ADMIN_ROLE()": "392",
						"DEFAULT_ADMIN_ROLE()": "418",
						"GAMIFICATION_ROLE()": "392",
						"chamaCount()": "2470",
						"chamas(uint256)": "infinite",
						"contributions(uint256,address,uint256)": "infinite",
						"createChama(string,uint256,uint256,uint256)": "infinite",
						"getChamaDetails(uint256)": "infinite",
						"getChamaMembers(uint256)": "infinite",
						"getCycleInfo(uint256,uint256)": "infinite",
						"getMemberCollateral(uint256,address)": "infinite",
						"getMemberContributions(uint256,address)": "infinite",
						"getMemberPayoutPosition(uint256,address)": "infinite",
						"getRoleAdmin(bytes32)": "infinite",
						"getTotalCollateral(uint256)": "infinite",
						"grantRole(bytes32,address)": "infinite",
						"hasContributedThisCycle(uint256,address)": "3159",
						"hasMemberReceivedPayout(uint256,address)": "11557",
						"hasRole(bytes32,address)": "3166",
						"isCollateralReturned(uint256,address)": "3234",
						"joinChama(uint256)": "infinite",
						"lastContributionTimestamp(uint256,address)": "infinite",
						"pause()": "infinite",
						"paused()": "2518",
						"processMissedContributions(uint256)": "infinite",
						"renounceRole(bytes32,address)": "infinite",
						"revokeRole(bytes32,address)": "infinite",
						"setGamificationContract(address)": "infinite",
						"stackBTC(uint256)": "infinite",
						"startChama(uint256)": "infinite",
						"supportsInterface(bytes4)": "764",
						"unpause()": "infinite"
					},
					"internal": {
						"_checkCycleCompletion(uint256)": "infinite",
						"_completeChama(uint256)": "infinite",
						"_processCyclePayout(uint256)": "infinite",
						"_resetCycle(uint256)": "infinite",
						"_shuffleMembers(uint256)": "infinite",
						"_startChama(uint256)": "infinite"
					}
				},
				"methodIdentifiers": {
					"ADMIN_ROLE()": "75b238fc",
					"DEFAULT_ADMIN_ROLE()": "a217fddf",
					"GAMIFICATION_ROLE()": "c08f3954",
					"chamaCount()": "c087e28b",
					"chamas(uint256)": "0b5d7085",
					"contributions(uint256,address,uint256)": "1dbcfc44",
					"createChama(string,uint256,uint256,uint256)": "e69269a6",
					"getChamaDetails(uint256)": "d83c6868",
					"getChamaMembers(uint256)": "cb00d3d2",
					"getCycleInfo(uint256,uint256)": "e9ac9d1e",
					"getMemberCollateral(uint256,address)": "826ce785",
					"getMemberContributions(uint256,address)": "3dd4094f",
					"getMemberPayoutPosition(uint256,address)": "863b6a39",
					"getRoleAdmin(bytes32)": "248a9ca3",
					"getTotalCollateral(uint256)": "afc737d1",
					"grantRole(bytes32,address)": "2f2ff15d",
					"hasContributedThisCycle(uint256,address)": "7c2841cd",
					"hasMemberReceivedPayout(uint256,address)": "9155105f",
					"hasRole(bytes32,address)": "91d14854",
					"isCollateralReturned(uint256,address)": "45f4bc07",
					"joinChama(uint256)": "43533e1d",
					"lastContributionTimestamp(uint256,address)": "03e4cf5b",
					"pause()": "8456cb59",
					"paused()": "5c975abb",
					"processMissedContributions(uint256)": "300e9dae",
					"renounceRole(bytes32,address)": "36568abe",
					"revokeRole(bytes32,address)": "d547741f",
					"setGamificationContract(address)": "8a9620ce",
					"stackBTC(uint256)": "9ef4cbcc",
					"startChama(uint256)": "daa6f020",
					"supportsInterface(bytes4)": "01ffc9a7",
					"unpause()": "3f4ba83a"
				}
			},
			"storageLayout": {
				"storage": [
					{
						"astId": 498,
						"contract": "ChamaCore.sol:ChamaCore",
						"label": "_status",
						"offset": 0,
						"slot": "0",
						"type": "t_uint256"
					},
					{
						"astId": 397,
						"contract": "ChamaCore.sol:ChamaCore",
						"label": "_paused",
						"offset": 0,
						"slot": "1",
						"type": "t_bool"
					},
					{
						"astId": 27,
						"contract": "ChamaCore.sol:ChamaCore",
						"label": "_roles",
						"offset": 0,
						"slot": "2",
						"type": "t_mapping(t_bytes32,t_struct(RoleData)22_storage)"
					},
					{
						"astId": 704,
						"contract": "ChamaCore.sol:ChamaCore",
						"label": "chamaCount",
						"offset": 0,
						"slot": "3",
						"type": "t_uint256"
					},
					{
						"astId": 709,
						"contract": "ChamaCore.sol:ChamaCore",
						"label": "chamas",
						"offset": 0,
						"slot": "4",
						"type": "t_mapping(t_uint256,t_struct(Chama)695_storage)"
					},
					{
						"astId": 717,
						"contract": "ChamaCore.sol:ChamaCore",
						"label": "contributions",
						"offset": 0,
						"slot": "5",
						"type": "t_mapping(t_uint256,t_mapping(t_address,t_array(t_struct(Contribution)702_storage)dyn_storage))"
					},
					{
						"astId": 723,
						"contract": "ChamaCore.sol:ChamaCore",
						"label": "hasContributedThisCycle",
						"offset": 0,
						"slot": "6",
						"type": "t_mapping(t_uint256,t_mapping(t_address,t_bool))"
					},
					{
						"astId": 729,
						"contract": "ChamaCore.sol:ChamaCore",
						"label": "lastContributionTimestamp",
						"offset": 0,
						"slot": "7",
						"type": "t_mapping(t_uint256,t_mapping(t_address,t_uint256))"
					}
				],
				"types": {
					"t_address": {
						"encoding": "inplace",
						"label": "address",
						"numberOfBytes": "20"
					},
					"t_array(t_address)dyn_storage": {
						"base": "t_address",
						"encoding": "dynamic_array",
						"label": "address[]",
						"numberOfBytes": "32"
					},
					"t_array(t_bool)dyn_storage": {
						"base": "t_bool",
						"encoding": "dynamic_array",
						"label": "bool[]",
						"numberOfBytes": "32"
					},
					"t_array(t_struct(Contribution)702_storage)dyn_storage": {
						"base": "t_struct(Contribution)702_storage",
						"encoding": "dynamic_array",
						"label": "struct ChamaCore.Contribution[]",
						"numberOfBytes": "32"
					},
					"t_bool": {
						"encoding": "inplace",
						"label": "bool",
						"numberOfBytes": "1"
					},
					"t_bytes32": {
						"encoding": "inplace",
						"label": "bytes32",
						"numberOfBytes": "32"
					},
					"t_mapping(t_address,t_array(t_struct(Contribution)702_storage)dyn_storage)": {
						"encoding": "mapping",
						"key": "t_address",
						"label": "mapping(address => struct ChamaCore.Contribution[])",
						"numberOfBytes": "32",
						"value": "t_array(t_struct(Contribution)702_storage)dyn_storage"
					},
					"t_mapping(t_address,t_bool)": {
						"encoding": "mapping",
						"key": "t_address",
						"label": "mapping(address => bool)",
						"numberOfBytes": "32",
						"value": "t_bool"
					},
					"t_mapping(t_address,t_uint256)": {
						"encoding": "mapping",
						"key": "t_address",
						"label": "mapping(address => uint256)",
						"numberOfBytes": "32",
						"value": "t_uint256"
					},
					"t_mapping(t_bytes32,t_struct(RoleData)22_storage)": {
						"encoding": "mapping",
						"key": "t_bytes32",
						"label": "mapping(bytes32 => struct AccessControl.RoleData)",
						"numberOfBytes": "32",
						"value": "t_struct(RoleData)22_storage"
					},
					"t_mapping(t_uint256,t_address)": {
						"encoding": "mapping",
						"key": "t_uint256",
						"label": "mapping(uint256 => address)",
						"numberOfBytes": "32",
						"value": "t_address"
					},
					"t_mapping(t_uint256,t_bool)": {
						"encoding": "mapping",
						"key": "t_uint256",
						"label": "mapping(uint256 => bool)",
						"numberOfBytes": "32",
						"value": "t_bool"
					},
					"t_mapping(t_uint256,t_mapping(t_address,t_array(t_struct(Contribution)702_storage)dyn_storage))": {
						"encoding": "mapping",
						"key": "t_uint256",
						"label": "mapping(uint256 => mapping(address => struct ChamaCore.Contribution[]))",
						"numberOfBytes": "32",
						"value": "t_mapping(t_address,t_array(t_struct(Contribution)702_storage)dyn_storage)"
					},
					"t_mapping(t_uint256,t_mapping(t_address,t_bool))": {
						"encoding": "mapping",
						"key": "t_uint256",
						"label": "mapping(uint256 => mapping(address => bool))",
						"numberOfBytes": "32",
						"value": "t_mapping(t_address,t_bool)"
					},
					"t_mapping(t_uint256,t_mapping(t_address,t_uint256))": {
						"encoding": "mapping",
						"key": "t_uint256",
						"label": "mapping(uint256 => mapping(address => uint256))",
						"numberOfBytes": "32",
						"value": "t_mapping(t_address,t_uint256)"
					},
					"t_mapping(t_uint256,t_struct(Chama)695_storage)": {
						"encoding": "mapping",
						"key": "t_uint256",
						"label": "mapping(uint256 => struct ChamaCore.Chama)",
						"numberOfBytes": "32",
						"value": "t_struct(Chama)695_storage"
					},
					"t_mapping(t_uint256,t_uint256)": {
						"encoding": "mapping",
						"key": "t_uint256",
						"label": "mapping(uint256 => uint256)",
						"numberOfBytes": "32",
						"value": "t_uint256"
					},
					"t_string_storage": {
						"encoding": "bytes",
						"label": "string",
						"numberOfBytes": "32"
					},
					"t_struct(Chama)695_storage": {
						"encoding": "inplace",
						"label": "struct ChamaCore.Chama",
						"members": [
							{
								"astId": 642,
								"contract": "ChamaCore.sol:ChamaCore",
								"label": "name",
								"offset": 0,
								"slot": "0",
								"type": "t_string_storage"
							},
							{
								"astId": 644,
								"contract": "ChamaCore.sol:ChamaCore",
								"label": "contributionAmount",
								"offset": 0,
								"slot": "1",
								"type": "t_uint256"
							},
							{
								"astId": 646,
								"contract": "ChamaCore.sol:ChamaCore",
								"label": "cycleDuration",
								"offset": 0,
								"slot": "2",
								"type": "t_uint256"
							},
							{
								"astId": 648,
								"contract": "ChamaCore.sol:ChamaCore",
								"label": "maxMembers",
								"offset": 0,
								"slot": "3",
								"type": "t_uint256"
							},
							{
								"astId": 651,
								"contract": "ChamaCore.sol:ChamaCore",
								"label": "members",
								"offset": 0,
								"slot": "4",
								"type": "t_array(t_address)dyn_storage"
							},
							{
								"astId": 653,
								"contract": "ChamaCore.sol:ChamaCore",
								"label": "active",
								"offset": 0,
								"slot": "5",
								"type": "t_bool"
							},
							{
								"astId": 655,
								"contract": "ChamaCore.sol:ChamaCore",
								"label": "currentCycle",
								"offset": 0,
								"slot": "6",
								"type": "t_uint256"
							},
							{
								"astId": 657,
								"contract": "ChamaCore.sol:ChamaCore",
								"label": "currentRecipientIndex",
								"offset": 0,
								"slot": "7",
								"type": "t_uint256"
							},
							{
								"astId": 659,
								"contract": "ChamaCore.sol:ChamaCore",
								"label": "lastCycleTimestamp",
								"offset": 0,
								"slot": "8",
								"type": "t_uint256"
							},
							{
								"astId": 661,
								"contract": "ChamaCore.sol:ChamaCore",
								"label": "totalPool",
								"offset": 0,
								"slot": "9",
								"type": "t_uint256"
							},
							{
								"astId": 664,
								"contract": "ChamaCore.sol:ChamaCore",
								"label": "membersPaid",
								"offset": 0,
								"slot": "10",
								"type": "t_array(t_bool)dyn_storage"
							},
							{
								"astId": 668,
								"contract": "ChamaCore.sol:ChamaCore",
								"label": "isMember",
								"offset": 0,
								"slot": "11",
								"type": "t_mapping(t_address,t_bool)"
							},
							{
								"astId": 672,
								"contract": "ChamaCore.sol:ChamaCore",
								"label": "memberIndex",
								"offset": 0,
								"slot": "12",
								"type": "t_mapping(t_address,t_uint256)"
							},
							{
								"astId": 676,
								"contract": "ChamaCore.sol:ChamaCore",
								"label": "cycleContributions",
								"offset": 0,
								"slot": "13",
								"type": "t_mapping(t_uint256,t_uint256)"
							},
							{
								"astId": 680,
								"contract": "ChamaCore.sol:ChamaCore",
								"label": "cycleRecipient",
								"offset": 0,
								"slot": "14",
								"type": "t_mapping(t_uint256,t_address)"
							},
							{
								"astId": 684,
								"contract": "ChamaCore.sol:ChamaCore",
								"label": "cycleCompleted",
								"offset": 0,
								"slot": "15",
								"type": "t_mapping(t_uint256,t_bool)"
							},
							{
								"astId": 688,
								"contract": "ChamaCore.sol:ChamaCore",
								"label": "memberCollateral",
								"offset": 0,
								"slot": "16",
								"type": "t_mapping(t_address,t_uint256)"
							},
							{
								"astId": 692,
								"contract": "ChamaCore.sol:ChamaCore",
								"label": "collateralReturned",
								"offset": 0,
								"slot": "17",
								"type": "t_mapping(t_address,t_bool)"
							},
							{
								"astId": 694,
								"contract": "ChamaCore.sol:ChamaCore",
								"label": "totalCollateral",
								"offset": 0,
								"slot": "18",
								"type": "t_uint256"
							}
						],
						"numberOfBytes": "608"
					},
					"t_struct(Contribution)702_storage": {
						"encoding": "inplace",
						"label": "struct ChamaCore.Contribution",
						"members": [
							{
								"astId": 697,
								"contract": "ChamaCore.sol:ChamaCore",
								"label": "contributor",
								"offset": 0,
								"slot": "0",
								"type": "t_address"
							},
							{
								"astId": 699,
								"contract": "ChamaCore.sol:ChamaCore",
								"label": "amount",
								"offset": 0,
								"slot": "1",
								"type": "t_uint256"
							},
							{
								"astId": 701,
								"contract": "ChamaCore.sol:ChamaCore",
								"label": "timestamp",
								"offset": 0,
								"slot": "2",
								"type": "t_uint256"
							}
						],
						"numberOfBytes": "96"
					},
					"t_struct(RoleData)22_storage": {
						"encoding": "inplace",
						"label": "struct AccessControl.RoleData",
						"members": [
							{
								"astId": 19,
								"contract": "ChamaCore.sol:ChamaCore",
								"label": "hasRole",
								"offset": 0,
								"slot": "0",
								"type": "t_mapping(t_address,t_bool)"
							},
							{
								"astId": 21,
								"contract": "ChamaCore.sol:ChamaCore",
								"label": "adminRole",
								"offset": 0,
								"slot": "1",
								"type": "t_bytes32"
							}
						],
						"numberOfBytes": "64"
					},
					"t_uint256": {
						"encoding": "inplace",
						"label": "uint256",
						"numberOfBytes": "32"
					}
				}
			},
			"userdoc": {
				"kind": "user",
				"methods": {},
				"notice": "This contract handles the core rotating savings circle (chama) logic",
				"version": 1
			}
		}
	}
}