{
	"modules/JengaCore.sol": {
		"JengaCore": {
			"abi": [
				{
					"inputs": [],
					"stateMutability": "nonpayable",
					"type": "constructor"
				},
				{
					"anonymous": false,
					"inputs": [
						{
							"indexed": false,
							"internalType": "address",
							"name": "user",
							"type": "address"
						},
						{
							"indexed": false,
							"internalType": "string",
							"name": "achievement",
							"type": "string"
						}
					],
					"name": "AchievementUnlocked",
					"type": "event"
				},
				{
					"anonymous": false,
					"inputs": [
						{
							"indexed": false,
							"internalType": "uint256",
							"name": "chamaId",
							"type": "uint256"
						}
					],
					"name": "ChamaCompleted",
					"type": "event"
				},
				{
					"anonymous": false,
					"inputs": [
						{
							"indexed": false,
							"internalType": "uint256",
							"name": "chamaId",
							"type": "uint256"
						},
						{
							"indexed": false,
							"internalType": "string",
							"name": "name",
							"type": "string"
						},
						{
							"indexed": false,
							"internalType": "address",
							"name": "creator",
							"type": "address"
						},
						{
							"indexed": false,
							"internalType": "uint256",
							"name": "contributionAmount",
							"type": "uint256"
						}
					],
					"name": "ChamaCreated",
					"type": "event"
				},
				{
					"anonymous": false,
					"inputs": [
						{
							"indexed": false,
							"internalType": "uint256",
							"name": "chamaId",
							"type": "uint256"
						},
						{
							"indexed": false,
							"internalType": "uint256",
							"name": "cycleNumber",
							"type": "uint256"
						}
					],
					"name": "ChamaCycleCompleted",
					"type": "event"
				},
				{
					"anonymous": false,
					"inputs": [
						{
							"indexed": false,
							"internalType": "uint256",
							"name": "chamaId",
							"type": "uint256"
						},
						{
							"indexed": false,
							"internalType": "address",
							"name": "member",
							"type": "address"
						}
					],
					"name": "ChamaJoined",
					"type": "event"
				},
				{
					"anonymous": false,
					"inputs": [
						{
							"indexed": false,
							"internalType": "uint256",
							"name": "chamaId",
							"type": "uint256"
						},
						{
							"indexed": false,
							"internalType": "address",
							"name": "starter",
							"type": "address"
						},
						{
							"indexed": false,
							"internalType": "uint256",
							"name": "timestamp",
							"type": "uint256"
						}
					],
					"name": "ChamaStarted",
					"type": "event"
				},
				{
					"anonymous": false,
					"inputs": [
						{
							"indexed": false,
							"internalType": "uint256",
							"name": "chamaId",
							"type": "uint256"
						},
						{
							"indexed": false,
							"internalType": "address",
							"name": "member",
							"type": "address"
						},
						{
							"indexed": false,
							"internalType": "uint256",
							"name": "amount",
							"type": "uint256"
						}
					],
					"name": "CollateralDeposited",
					"type": "event"
				},
				{
					"anonymous": false,
					"inputs": [
						{
							"indexed": false,
							"internalType": "uint256",
							"name": "chamaId",
							"type": "uint256"
						},
						{
							"indexed": false,
							"internalType": "address",
							"name": "member",
							"type": "address"
						},
						{
							"indexed": false,
							"internalType": "uint256",
							"name": "amount",
							"type": "uint256"
						}
					],
					"name": "CollateralForfeited",
					"type": "event"
				},
				{
					"anonymous": false,
					"inputs": [
						{
							"indexed": false,
							"internalType": "uint256",
							"name": "chamaId",
							"type": "uint256"
						},
						{
							"indexed": false,
							"internalType": "address",
							"name": "member",
							"type": "address"
						},
						{
							"indexed": false,
							"internalType": "uint256",
							"name": "amount",
							"type": "uint256"
						}
					],
					"name": "CollateralReturned",
					"type": "event"
				},
				{
					"anonymous": false,
					"inputs": [
						{
							"indexed": false,
							"internalType": "uint256",
							"name": "chamaId",
							"type": "uint256"
						},
						{
							"indexed": false,
							"internalType": "address",
							"name": "user",
							"type": "address"
						},
						{
							"indexed": false,
							"internalType": "uint256",
							"name": "amount",
							"type": "uint256"
						}
					],
					"name": "ContributionMade",
					"type": "event"
				},
				{
					"anonymous": false,
					"inputs": [
						{
							"indexed": false,
							"internalType": "uint256",
							"name": "chamaId",
							"type": "uint256"
						},
						{
							"indexed": false,
							"internalType": "address",
							"name": "recipient",
							"type": "address"
						},
						{
							"indexed": false,
							"internalType": "uint256",
							"name": "amount",
							"type": "uint256"
						},
						{
							"indexed": false,
							"internalType": "uint256",
							"name": "cycleNumber",
							"type": "uint256"
						}
					],
					"name": "PayoutProcessed",
					"type": "event"
				},
				{
					"inputs": [
						{
							"internalType": "address",
							"name": "",
							"type": "address"
						},
						{
							"internalType": "uint256",
							"name": "",
							"type": "uint256"
						}
					],
					"name": "achievements",
					"outputs": [
						{
							"internalType": "string",
							"name": "",
							"type": "string"
						}
					],
					"stateMutability": "view",
					"type": "function"
				},
				{
					"inputs": [],
					"name": "chamaCount",
					"outputs": [
						{
							"internalType": "uint256",
							"name": "",
							"type": "uint256"
						}
					],
					"stateMutability": "view",
					"type": "function"
				},
				{
					"inputs": [
						{
							"internalType": "uint256",
							"name": "",
							"type": "uint256"
						}
					],
					"name": "chamas",
					"outputs": [
						{
							"internalType": "string",
							"name": "name",
							"type": "string"
						},
						{
							"internalType": "uint256",
							"name": "contributionAmount",
							"type": "uint256"
						},
						{
							"internalType": "uint256",
							"name": "cycleDuration",
							"type": "uint256"
						},
						{
							"internalType": "uint256",
							"name": "maxMembers",
							"type": "uint256"
						},
						{
							"internalType": "bool",
							"name": "active",
							"type": "bool"
						},
						{
							"internalType": "uint256",
							"name": "currentCycle",
							"type": "uint256"
						},
						{
							"internalType": "uint256",
							"name": "currentRecipientIndex",
							"type": "uint256"
						},
						{
							"internalType": "uint256",
							"name": "lastCycleTimestamp",
							"type": "uint256"
						},
						{
							"internalType": "uint256",
							"name": "totalPool",
							"type": "uint256"
						},
						{
							"internalType": "uint256",
							"name": "totalCollateral",
							"type": "uint256"
						}
					],
					"stateMutability": "view",
					"type": "function"
				},
				{
					"inputs": [
						{
							"internalType": "uint256",
							"name": "",
							"type": "uint256"
						},
						{
							"internalType": "uint256",
							"name": "",
							"type": "uint256"
						}
					],
					"name": "contributions",
					"outputs": [
						{
							"internalType": "address",
							"name": "contributor",
							"type": "address"
						},
						{
							"internalType": "uint256",
							"name": "amount",
							"type": "uint256"
						},
						{
							"internalType": "uint256",
							"name": "timestamp",
							"type": "uint256"
						}
					],
					"stateMutability": "view",
					"type": "function"
				},
				{
					"inputs": [
						{
							"internalType": "string",
							"name": "_name",
							"type": "string"
						},
						{
							"internalType": "uint256",
							"name": "_contributionAmount",
							"type": "uint256"
						},
						{
							"internalType": "uint256",
							"name": "_cycleDuration",
							"type": "uint256"
						},
						{
							"internalType": "uint256",
							"name": "_maxMembers",
							"type": "uint256"
						}
					],
					"name": "createChama",
					"outputs": [],
					"stateMutability": "payable",
					"type": "function"
				},
				{
					"inputs": [
						{
							"internalType": "uint256",
							"name": "_chamaId",
							"type": "uint256"
						},
						{
							"internalType": "address",
							"name": "_recipient",
							"type": "address"
						}
					],
					"name": "emergencyPayout",
					"outputs": [],
					"stateMutability": "nonpayable",
					"type": "function"
				},
				{
					"inputs": [
						{
							"internalType": "uint256",
							"name": "_chamaId",
							"type": "uint256"
						}
					],
					"name": "getChamaInfo",
					"outputs": [
						{
							"internalType": "string",
							"name": "name",
							"type": "string"
						},
						{
							"internalType": "uint256",
							"name": "contributionAmount",
							"type": "uint256"
						},
						{
							"internalType": "uint256",
							"name": "cycleDuration",
							"type": "uint256"
						},
						{
							"internalType": "uint256",
							"name": "maxMembers",
							"type": "uint256"
						},
						{
							"internalType": "bool",
							"name": "active",
							"type": "bool"
						},
						{
							"internalType": "uint256",
							"name": "currentCycle",
							"type": "uint256"
						},
						{
							"internalType": "uint256",
							"name": "currentRecipientIndex",
							"type": "uint256"
						},
						{
							"internalType": "uint256",
							"name": "lastCycleTimestamp",
							"type": "uint256"
						},
						{
							"internalType": "uint256",
							"name": "totalPool",
							"type": "uint256"
						},
						{
							"internalType": "uint256",
							"name": "totalCollateral",
							"type": "uint256"
						}
					],
					"stateMutability": "view",
					"type": "function"
				},
				{
					"inputs": [
						{
							"internalType": "uint256",
							"name": "_chamaId",
							"type": "uint256"
						}
					],
					"name": "getChamaMembers",
					"outputs": [
						{
							"internalType": "address[]",
							"name": "",
							"type": "address[]"
						}
					],
					"stateMutability": "view",
					"type": "function"
				},
				{
					"inputs": [
						{
							"internalType": "uint256",
							"name": "_chamaId",
							"type": "uint256"
						},
						{
							"internalType": "uint256",
							"name": "_cycle",
							"type": "uint256"
						}
					],
					"name": "getCycleInfo",
					"outputs": [
						{
							"internalType": "uint256",
							"name": "cycleContributions",
							"type": "uint256"
						},
						{
							"internalType": "address",
							"name": "recipient",
							"type": "address"
						},
						{
							"internalType": "bool",
							"name": "completed",
							"type": "bool"
						}
					],
					"stateMutability": "view",
					"type": "function"
				},
				{
					"inputs": [
						{
							"internalType": "uint256",
							"name": "_chamaId",
							"type": "uint256"
						},
						{
							"internalType": "address",
							"name": "_member",
							"type": "address"
						}
					],
					"name": "getMemberCollateral",
					"outputs": [
						{
							"internalType": "uint256",
							"name": "",
							"type": "uint256"
						}
					],
					"stateMutability": "view",
					"type": "function"
				},
				{
					"inputs": [
						{
							"internalType": "uint256",
							"name": "_chamaId",
							"type": "uint256"
						},
						{
							"internalType": "address",
							"name": "_member",
							"type": "address"
						}
					],
					"name": "getMemberPayoutPosition",
					"outputs": [
						{
							"internalType": "uint256",
							"name": "",
							"type": "uint256"
						}
					],
					"stateMutability": "view",
					"type": "function"
				},
				{
					"inputs": [
						{
							"internalType": "uint256",
							"name": "_chamaId",
							"type": "uint256"
						}
					],
					"name": "getTotalCollateral",
					"outputs": [
						{
							"internalType": "uint256",
							"name": "",
							"type": "uint256"
						}
					],
					"stateMutability": "view",
					"type": "function"
				},
				{
					"inputs": [
						{
							"internalType": "address",
							"name": "_user",
							"type": "address"
						}
					],
					"name": "getUserScore",
					"outputs": [
						{
							"internalType": "uint256",
							"name": "",
							"type": "uint256"
						}
					],
					"stateMutability": "view",
					"type": "function"
				},
				{
					"inputs": [
						{
							"internalType": "address",
							"name": "",
							"type": "address"
						},
						{
							"internalType": "uint256",
							"name": "",
							"type": "uint256"
						}
					],
					"name": "hasContributedThisCycle",
					"outputs": [
						{
							"internalType": "bool",
							"name": "",
							"type": "bool"
						}
					],
					"stateMutability": "view",
					"type": "function"
				},
				{
					"inputs": [
						{
							"internalType": "uint256",
							"name": "_chamaId",
							"type": "uint256"
						},
						{
							"internalType": "address",
							"name": "_member",
							"type": "address"
						}
					],
					"name": "hasMemberReceivedPayout",
					"outputs": [
						{
							"internalType": "bool",
							"name": "",
							"type": "bool"
						}
					],
					"stateMutability": "view",
					"type": "function"
				},
				{
					"inputs": [
						{
							"internalType": "uint256",
							"name": "_chamaId",
							"type": "uint256"
						},
						{
							"internalType": "address",
							"name": "_user",
							"type": "address"
						}
					],
					"name": "isChamaMember",
					"outputs": [
						{
							"internalType": "bool",
							"name": "",
							"type": "bool"
						}
					],
					"stateMutability": "view",
					"type": "function"
				},
				{
					"inputs": [
						{
							"internalType": "uint256",
							"name": "_chamaId",
							"type": "uint256"
						},
						{
							"internalType": "address",
							"name": "_member",
							"type": "address"
						}
					],
					"name": "isCollateralReturned",
					"outputs": [
						{
							"internalType": "bool",
							"name": "",
							"type": "bool"
						}
					],
					"stateMutability": "view",
					"type": "function"
				},
				{
					"inputs": [
						{
							"internalType": "uint256",
							"name": "_chamaId",
							"type": "uint256"
						}
					],
					"name": "joinChama",
					"outputs": [],
					"stateMutability": "payable",
					"type": "function"
				},
				{
					"inputs": [
						{
							"internalType": "address",
							"name": "",
							"type": "address"
						},
						{
							"internalType": "uint256",
							"name": "",
							"type": "uint256"
						}
					],
					"name": "lastContributionTimestamp",
					"outputs": [
						{
							"internalType": "uint256",
							"name": "",
							"type": "uint256"
						}
					],
					"stateMutability": "view",
					"type": "function"
				},
				{
					"inputs": [],
					"name": "owner",
					"outputs": [
						{
							"internalType": "address",
							"name": "",
							"type": "address"
						}
					],
					"stateMutability": "view",
					"type": "function"
				},
				{
					"inputs": [
						{
							"internalType": "uint256",
							"name": "_chamaId",
							"type": "uint256"
						}
					],
					"name": "processMissedContributions",
					"outputs": [],
					"stateMutability": "nonpayable",
					"type": "function"
				},
				{
					"inputs": [
						{
							"internalType": "address",
							"name": "",
							"type": "address"
						}
					],
					"name": "scores",
					"outputs": [
						{
							"internalType": "uint256",
							"name": "",
							"type": "uint256"
						}
					],
					"stateMutability": "view",
					"type": "function"
				},
				{
					"inputs": [
						{
							"internalType": "uint256",
							"name": "_chamaId",
							"type": "uint256"
						}
					],
					"name": "stackBTC",
					"outputs": [],
					"stateMutability": "payable",
					"type": "function"
				},
				{
					"inputs": [
						{
							"internalType": "uint256",
							"name": "_chamaId",
							"type": "uint256"
						}
					],
					"name": "startChama",
					"outputs": [],
					"stateMutability": "nonpayable",
					"type": "function"
				},
				{
					"inputs": [
						{
							"internalType": "address",
							"name": "_user",
							"type": "address"
						},
						{
							"internalType": "uint256",
							"name": "_points",
							"type": "uint256"
						}
					],
					"name": "updateUserScore",
					"outputs": [],
					"stateMutability": "nonpayable",
					"type": "function"
				},
				{
					"inputs": [
						{
							"internalType": "address",
							"name": "",
							"type": "address"
						},
						{
							"internalType": "uint256",
							"name": "",
							"type": "uint256"
						}
					],
					"name": "userChamas",
					"outputs": [
						{
							"internalType": "uint256",
							"name": "",
							"type": "uint256"
						}
					],
					"stateMutability": "view",
					"type": "function"
				},
				{
					"inputs": [
						{
							"internalType": "address",
							"name": "",
							"type": "address"
						},
						{
							"internalType": "uint256",
							"name": "",
							"type": "uint256"
						}
					],
					"name": "userContributions",
					"outputs": [
						{
							"internalType": "uint256",
							"name": "",
							"type": "uint256"
						}
					],
					"stateMutability": "view",
					"type": "function"
				}
			],
			"devdoc": {
				"kind": "dev",
				"methods": {},
				"version": 1
			},
			"evm": {
				"assembly": "    /* \"modules/JengaCore.sol\":97:15848  contract JengaCore {... */\n  mstore(0x40, 0x80)\n    /* \"modules/JengaCore.sol\":745:746  0 */\n  0x00\n    /* \"modules/JengaCore.sol\":717:746  uint256 public chamaCount = 0 */\n  0x08\n  sstore\n    /* \"modules/JengaCore.sol\":2145:2194  constructor() {... */\n  callvalue\n  dup1\n  iszero\n  tag_1\n  jumpi\n  revert(0x00, 0x00)\ntag_1:\n  pop\n    /* \"modules/JengaCore.sol\":2169:2174  owner */\n  0x09\n    /* \"modules/JengaCore.sol\":2169:2187  owner = msg.sender */\n  dup1\n  sload\n  not(sub(shl(0xa0, 0x01), 0x01))\n  and\n    /* \"modules/JengaCore.sol\":2177:2187  msg.sender */\n  caller\n    /* \"modules/JengaCore.sol\":2169:2187  owner = msg.sender */\n  or\n  swap1\n  sstore\n    /* \"modules/JengaCore.sol\":97:15848  contract JengaCore {... */\n  dataSize(sub_0)\n  dup1\n  dataOffset(sub_0)\n  0x00\n  codecopy\n  0x00\n  return\nstop\n\nsub_0: assembly {\n        /* \"modules/JengaCore.sol\":97:15848  contract JengaCore {... */\n      mstore(0x40, 0x80)\n      jumpi(tag_1, lt(calldatasize, 0x04))\n      shr(0xe0, calldataload(0x00))\n      dup1\n      0x9155105f\n      gt\n      tag_29\n      jumpi\n      dup1\n      0xbf882e73\n      gt\n      tag_30\n      jumpi\n      dup1\n      0xcb00d3d2\n      gt\n      tag_31\n      jumpi\n      dup1\n      0xcb00d3d2\n      eq\n      tag_25\n      jumpi\n      dup1\n      0xdaa6f020\n      eq\n      tag_26\n      jumpi\n      dup1\n      0xe69269a6\n      eq\n      tag_27\n      jumpi\n      dup1\n      0xe9ac9d1e\n      eq\n      tag_28\n      jumpi\n      revert(0x00, 0x00)\n    tag_31:\n      dup1\n      0xbf882e73\n      eq\n      tag_22\n      jumpi\n      dup1\n      0xc087e28b\n      eq\n      tag_23\n      jumpi\n      dup1\n      0xc14a2ae0\n      eq\n      tag_24\n      jumpi\n      revert(0x00, 0x00)\n    tag_30:\n      dup1\n      0x9facefc5\n      gt\n      tag_32\n      jumpi\n      dup1\n      0x9facefc5\n      eq\n      tag_18\n      jumpi\n      dup1\n      0xafc737d1\n      eq\n      tag_19\n      jumpi\n      dup1\n      0xb34e0c47\n      eq\n      tag_20\n      jumpi\n      dup1\n      0xb4bebcfd\n      eq\n      tag_21\n      jumpi\n      revert(0x00, 0x00)\n    tag_32:\n      dup1\n      0x9155105f\n      eq\n      tag_15\n      jumpi\n      dup1\n      0x9db6a08f\n      eq\n      tag_16\n      jumpi\n      dup1\n      0x9ef4cbcc\n      eq\n      tag_17\n      jumpi\n      revert(0x00, 0x00)\n    tag_29:\n      dup1\n      0x76dd110f\n      gt\n      tag_33\n      jumpi\n      dup1\n      0x830e28f6\n      gt\n      tag_34\n      jumpi\n      dup1\n      0x830e28f6\n      eq\n      tag_11\n      jumpi\n      dup1\n      0x863b6a39\n      eq\n      tag_12\n      jumpi\n      dup1\n      0x8da5cb5b\n      eq\n      tag_13\n      jumpi\n      dup1\n      0x8ea3b0de\n      eq\n      tag_14\n      jumpi\n      revert(0x00, 0x00)\n    tag_34:\n      dup1\n      0x76dd110f\n      eq\n      tag_8\n      jumpi\n      dup1\n      0x7d13ee50\n      eq\n      tag_9\n      jumpi\n      dup1\n      0x826ce785\n      eq\n      tag_10\n      jumpi\n      revert(0x00, 0x00)\n    tag_33:\n      dup1\n      0x0ae2ce89\n      eq\n      tag_2\n      jumpi\n      dup1\n      0x0b5d7085\n      eq\n      tag_3\n      jumpi\n      dup1\n      0x300e9dae\n      eq\n      tag_4\n      jumpi\n      dup1\n      0x43533e1d\n      eq\n      tag_5\n      jumpi\n      dup1\n      0x45f4bc07\n      eq\n      tag_6\n      jumpi\n      dup1\n      0x7331fa95\n      eq\n      tag_7\n      jumpi\n    tag_1:\n      revert(0x00, 0x00)\n        /* \"modules/JengaCore.sol\":11162:11829  function emergencyPayout(uint256 _chamaId, address _recipient) public {... */\n    tag_2:\n      callvalue\n      dup1\n      iszero\n      tag_35\n      jumpi\n      revert(0x00, 0x00)\n    tag_35:\n      pop\n      tag_36\n      tag_37\n      calldatasize\n      0x04\n      tag_38\n      jump\t// in\n    tag_37:\n      tag_39\n      jump\t// in\n    tag_36:\n      stop\n        /* \"modules/JengaCore.sol\":189:239  mapping(uint256 => JengaTypes.Chama) public chamas */\n    tag_3:\n      callvalue\n      dup1\n      iszero\n      tag_40\n      jumpi\n      revert(0x00, 0x00)\n    tag_40:\n      pop\n      tag_41\n      tag_42\n      calldatasize\n      0x04\n      tag_43\n      jump\t// in\n    tag_42:\n      tag_44\n      jump\t// in\n    tag_41:\n      mload(0x40)\n      tag_45\n      swap11\n      swap10\n      swap9\n      swap8\n      swap7\n      swap6\n      swap5\n      swap4\n      swap3\n      swap2\n      swap1\n      tag_46\n      jump\t// in\n    tag_45:\n      mload(0x40)\n      dup1\n      swap2\n      sub\n      swap1\n      return\n        /* \"modules/JengaCore.sol\":11893:13102  function processMissedContributions(uint256 _chamaId) public {... */\n    tag_4:\n      callvalue\n      dup1\n      iszero\n      tag_47\n      jumpi\n      revert(0x00, 0x00)\n    tag_47:\n      pop\n      tag_36\n      tag_49\n      calldatasize\n      0x04\n      tag_43\n      jump\t// in\n    tag_49:\n      tag_50\n      jump\t// in\n        /* \"modules/JengaCore.sol\":3819:4897  function joinChama(uint256 _chamaId) public payable chamaExists(_chamaId) chamaActive(_chamaId) {... */\n    tag_5:\n      tag_36\n      tag_52\n      calldatasize\n      0x04\n      tag_43\n      jump\t// in\n    tag_52:\n      tag_53\n      jump\t// in\n        /* \"modules/JengaCore.sol\":14233:14393  function isCollateralReturned(uint256 _chamaId, address _member) public view returns (bool) {... */\n    tag_6:\n      callvalue\n      dup1\n      iszero\n      tag_54\n      jumpi\n      revert(0x00, 0x00)\n    tag_54:\n      pop\n      tag_55\n      tag_56\n      calldatasize\n      0x04\n      tag_38\n      jump\t// in\n    tag_56:\n      tag_57\n      jump\t// in\n    tag_55:\n      mload(0x40)\n        /* \"#utility.yul\":2069:2083   */\n      swap1\n      iszero\n        /* \"#utility.yul\":2062:2084   */\n      iszero\n        /* \"#utility.yul\":2044:2085   */\n      dup2\n      mstore\n        /* \"#utility.yul\":2032:2034   */\n      0x20\n        /* \"#utility.yul\":2017:2035   */\n      add\n        /* \"modules/JengaCore.sol\":14233:14393  function isCollateralReturned(uint256 _chamaId, address _member) public view returns (bool) {... */\n      tag_45\n        /* \"#utility.yul\":1904:2091   */\n      jump\n        /* \"modules/JengaCore.sol\":471:543  mapping(address => mapping(uint256 => uint256)) public userContributions */\n    tag_7:\n      callvalue\n      dup1\n      iszero\n      tag_60\n      jumpi\n      revert(0x00, 0x00)\n    tag_60:\n      pop\n      tag_61\n      tag_62\n      calldatasize\n      0x04\n      tag_63\n      jump\t// in\n    tag_62:\n      0x05\n      0x20\n      swap1\n      dup2\n      mstore\n      0x00\n      swap3\n      dup4\n      mstore\n      0x40\n      dup1\n      dup5\n      keccak256\n      swap1\n      swap2\n      mstore\n      swap1\n      dup3\n      mstore\n      swap1\n      keccak256\n      sload\n      dup2\n      jump\n    tag_61:\n      mload(0x40)\n        /* \"#utility.yul\":2547:2572   */\n      swap1\n      dup2\n      mstore\n        /* \"#utility.yul\":2535:2537   */\n      0x20\n        /* \"#utility.yul\":2520:2538   */\n      add\n        /* \"modules/JengaCore.sol\":471:543  mapping(address => mapping(uint256 => uint256)) public userContributions */\n      tag_45\n        /* \"#utility.yul\":2401:2578   */\n      jump\n        /* \"modules/JengaCore.sol\":245:286  mapping(address => uint256) public scores */\n    tag_8:\n      callvalue\n      dup1\n      iszero\n      tag_67\n      jumpi\n      revert(0x00, 0x00)\n    tag_67:\n      pop\n      tag_61\n      tag_69\n      calldatasize\n      0x04\n      tag_70\n      jump\t// in\n    tag_69:\n      mstore(0x20, 0x01)\n      0x00\n      swap1\n      dup2\n      mstore\n      0x40\n      swap1\n      keccak256\n      sload\n      dup2\n      jump\n        /* \"modules/JengaCore.sol\":418:465  mapping(address => uint256[]) public userChamas */\n    tag_9:\n      callvalue\n      dup1\n      iszero\n      tag_73\n      jumpi\n      revert(0x00, 0x00)\n    tag_73:\n      pop\n      tag_61\n      tag_75\n      calldatasize\n      0x04\n      tag_63\n      jump\t// in\n    tag_75:\n      tag_76\n      jump\t// in\n        /* \"modules/JengaCore.sol\":14067:14227  function getMemberCollateral(uint256 _chamaId, address _member) public view returns (uint256) {... */\n    tag_10:\n      callvalue\n      dup1\n      iszero\n      tag_78\n      jumpi\n      revert(0x00, 0x00)\n    tag_78:\n      pop\n      tag_61\n      tag_80\n      calldatasize\n      0x04\n      tag_38\n      jump\t// in\n    tag_80:\n        /* \"modules/JengaCore.sol\":14152:14159  uint256 */\n      0x00\n        /* \"modules/JengaCore.sol\":14178:14194  chamas[_chamaId] */\n      dup3\n      dup2\n      mstore\n      0x20\n      dup2\n      dup2\n      mstore\n      0x40\n      dup1\n      dup4\n      keccak256\n      sub(shl(0xa0, 0x01), 0x01)\n        /* \"modules/JengaCore.sol\":14178:14220  chamas[_chamaId].memberCollateral[_member] */\n      dup6\n      and\n      dup5\n      mstore\n        /* \"modules/JengaCore.sol\":14178:14211  chamas[_chamaId].memberCollateral */\n      0x10\n      add\n        /* \"modules/JengaCore.sol\":14178:14220  chamas[_chamaId].memberCollateral[_member] */\n      swap1\n      swap2\n      mstore\n      swap1\n      keccak256\n      sload\n        /* \"modules/JengaCore.sol\":14067:14227  function getMemberCollateral(uint256 _chamaId, address _member) public view returns (uint256) {... */\n      swap3\n      swap2\n      pop\n      pop\n      jump\n        /* \"modules/JengaCore.sol\":346:412  mapping(uint256 => JengaTypes.Contribution[]) public contributions */\n    tag_11:\n      callvalue\n      dup1\n      iszero\n      tag_83\n      jumpi\n      revert(0x00, 0x00)\n    tag_83:\n      pop\n      tag_84\n      tag_85\n      calldatasize\n      0x04\n      tag_86\n      jump\t// in\n    tag_85:\n      tag_87\n      jump\t// in\n    tag_84:\n      0x40\n      dup1\n      mload\n      sub(shl(0xa0, 0x01), 0x01)\n        /* \"#utility.yul\":3345:3377   */\n      swap1\n      swap5\n      and\n        /* \"#utility.yul\":3327:3378   */\n      dup5\n      mstore\n        /* \"#utility.yul\":3409:3411   */\n      0x20\n        /* \"#utility.yul\":3394:3412   */\n      dup5\n      add\n        /* \"#utility.yul\":3387:3421   */\n      swap3\n      swap1\n      swap3\n      mstore\n        /* \"#utility.yul\":3437:3455   */\n      swap1\n      dup3\n      add\n        /* \"#utility.yul\":3430:3464   */\n      mstore\n        /* \"#utility.yul\":3315:3317   */\n      0x60\n        /* \"#utility.yul\":3300:3318   */\n      add\n        /* \"modules/JengaCore.sol\":346:412  mapping(uint256 => JengaTypes.Contribution[]) public contributions */\n      tag_45\n        /* \"#utility.yul\":3125:3470   */\n      jump\n        /* \"modules/JengaCore.sol\":14537:14765  function getMemberPayoutPosition(uint256 _chamaId, address _member) public view returns (uint256) {... */\n    tag_12:\n      callvalue\n      dup1\n      iszero\n      tag_90\n      jumpi\n      revert(0x00, 0x00)\n    tag_90:\n      pop\n      tag_61\n      tag_92\n      calldatasize\n      0x04\n      tag_38\n      jump\t// in\n    tag_92:\n      tag_93\n      jump\t// in\n        /* \"modules/JengaCore.sol\":752:772  address public owner */\n    tag_13:\n      callvalue\n      dup1\n      iszero\n      tag_95\n      jumpi\n      revert(0x00, 0x00)\n    tag_95:\n      pop\n      sload(0x09)\n      tag_96\n      swap1\n      sub(shl(0xa0, 0x01), 0x01)\n      and\n      dup2\n      jump\n    tag_96:\n      mload(0x40)\n      sub(shl(0xa0, 0x01), 0x01)\n        /* \"#utility.yul\":3639:3671   */\n      swap1\n      swap2\n      and\n        /* \"#utility.yul\":3621:3672   */\n      dup2\n      mstore\n        /* \"#utility.yul\":3609:3611   */\n      0x20\n        /* \"#utility.yul\":3594:3612   */\n      add\n        /* \"modules/JengaCore.sol\":752:772  address public owner */\n      tag_45\n        /* \"#utility.yul\":3475:3678   */\n      jump\n        /* \"modules/JengaCore.sol\":549:629  mapping(address => mapping(uint256 => uint256)) public lastContributionTimestamp */\n    tag_14:\n      callvalue\n      dup1\n      iszero\n      tag_100\n      jumpi\n      revert(0x00, 0x00)\n    tag_100:\n      pop\n      tag_61\n      tag_102\n      calldatasize\n      0x04\n      tag_63\n      jump\t// in\n    tag_102:\n      0x06\n      0x20\n      swap1\n      dup2\n      mstore\n      0x00\n      swap3\n      dup4\n      mstore\n      0x40\n      dup1\n      dup5\n      keccak256\n      swap1\n      swap2\n      mstore\n      swap1\n      dup3\n      mstore\n      swap1\n      keccak256\n      sload\n      dup2\n      jump\n        /* \"modules/JengaCore.sol\":14771:15069  function hasMemberReceivedPayout(uint256 _chamaId, address _member) public view returns (bool) {... */\n    tag_15:\n      callvalue\n      dup1\n      iszero\n      tag_105\n      jumpi\n      revert(0x00, 0x00)\n    tag_105:\n      pop\n      tag_55\n      tag_107\n      calldatasize\n      0x04\n      tag_38\n      jump\t// in\n    tag_107:\n      tag_108\n      jump\t// in\n        /* \"modules/JengaCore.sol\":15474:15613  function isChamaMember(uint256 _chamaId, address _user) public view returns (bool) {... */\n    tag_16:\n      callvalue\n      dup1\n      iszero\n      tag_110\n      jumpi\n      revert(0x00, 0x00)\n    tag_110:\n      pop\n      tag_55\n      tag_112\n      calldatasize\n      0x04\n      tag_38\n      jump\t// in\n    tag_112:\n        /* \"modules/JengaCore.sol\":15551:15555  bool */\n      0x00\n        /* \"modules/JengaCore.sol\":15574:15590  chamas[_chamaId] */\n      dup3\n      dup2\n      mstore\n      0x20\n      dup2\n      dup2\n      mstore\n      0x40\n      dup1\n      dup4\n      keccak256\n      sub(shl(0xa0, 0x01), 0x01)\n        /* \"modules/JengaCore.sol\":15574:15606  chamas[_chamaId].isMember[_user] */\n      dup6\n      and\n      dup5\n      mstore\n        /* \"modules/JengaCore.sol\":15574:15599  chamas[_chamaId].isMember */\n      0x0b\n      add\n        /* \"modules/JengaCore.sol\":15574:15606  chamas[_chamaId].isMember[_user] */\n      swap1\n      swap2\n      mstore\n      swap1\n      keccak256\n      sload\n      0xff\n      and\n        /* \"modules/JengaCore.sol\":15474:15613  function isChamaMember(uint256 _chamaId, address _user) public view returns (bool) {... */\n      swap3\n      swap2\n      pop\n      pop\n      jump\n        /* \"modules/JengaCore.sol\":6600:7991  function stackBTC(uint256 _chamaId) public payable onlyChamaMember(_chamaId) chamaActive(_chamaId) {... */\n    tag_17:\n      tag_36\n      tag_116\n      calldatasize\n      0x04\n      tag_43\n      jump\t// in\n    tag_116:\n      tag_117\n      jump\t// in\n        /* \"modules/JengaCore.sol\":15729:15846  function updateUserScore(address _user, uint256 _points) external onlyOwner {... */\n    tag_18:\n      callvalue\n      dup1\n      iszero\n      tag_118\n      jumpi\n      revert(0x00, 0x00)\n    tag_118:\n      pop\n      tag_36\n      tag_120\n      calldatasize\n      0x04\n      tag_63\n      jump\t// in\n    tag_120:\n      tag_121\n      jump\t// in\n        /* \"modules/JengaCore.sol\":14399:14531  function getTotalCollateral(uint256 _chamaId) public view returns (uint256) {... */\n    tag_19:\n      callvalue\n      dup1\n      iszero\n      tag_122\n      jumpi\n      revert(0x00, 0x00)\n    tag_122:\n      pop\n      tag_61\n      tag_124\n      calldatasize\n      0x04\n      tag_43\n      jump\t// in\n    tag_124:\n        /* \"modules/JengaCore.sol\":14466:14473  uint256 */\n      0x00\n        /* \"modules/JengaCore.sol\":14492:14508  chamas[_chamaId] */\n      swap1\n      dup2\n      mstore\n      0x20\n      dup2\n      swap1\n      mstore\n      0x40\n      swap1\n      keccak256\n        /* \"modules/JengaCore.sol\":14492:14524  chamas[_chamaId].totalCollateral */\n      0x12\n      add\n      sload\n      swap1\n        /* \"modules/JengaCore.sol\":14399:14531  function getTotalCollateral(uint256 _chamaId) public view returns (uint256) {... */\n      jump\n        /* \"modules/JengaCore.sol\":15619:15723  function getUserScore(address _user) public view returns (uint256) {... */\n    tag_20:\n      callvalue\n      dup1\n      iszero\n      tag_127\n      jumpi\n      revert(0x00, 0x00)\n    tag_127:\n      pop\n      tag_61\n      tag_129\n      calldatasize\n      0x04\n      tag_70\n      jump\t// in\n    tag_129:\n      sub(shl(0xa0, 0x01), 0x01)\n        /* \"modules/JengaCore.sol\":15703:15716  scores[_user] */\n      and\n        /* \"modules/JengaCore.sol\":15677:15684  uint256 */\n      0x00\n        /* \"modules/JengaCore.sol\":15703:15716  scores[_user] */\n      swap1\n      dup2\n      mstore\n        /* \"modules/JengaCore.sol\":15703:15709  scores */\n      0x01\n        /* \"modules/JengaCore.sol\":15703:15716  scores[_user] */\n      0x20\n      mstore\n      0x40\n      swap1\n      keccak256\n      sload\n      swap1\n        /* \"modules/JengaCore.sol\":15619:15723  function getUserScore(address _user) public view returns (uint256) {... */\n      jump\n        /* \"modules/JengaCore.sol\":13130:13925  function getChamaInfo(uint256 _chamaId) public view returns (... */\n    tag_21:\n      callvalue\n      dup1\n      iszero\n      tag_132\n      jumpi\n      revert(0x00, 0x00)\n    tag_132:\n      pop\n      tag_41\n      tag_134\n      calldatasize\n      0x04\n      tag_43\n      jump\t// in\n    tag_134:\n      tag_135\n      jump\t// in\n        /* \"modules/JengaCore.sol\":292:340  mapping(address => string[]) public achievements */\n    tag_22:\n      callvalue\n      dup1\n      iszero\n      tag_137\n      jumpi\n      revert(0x00, 0x00)\n    tag_137:\n      pop\n      tag_138\n      tag_139\n      calldatasize\n      0x04\n      tag_63\n      jump\t// in\n    tag_139:\n      tag_140\n      jump\t// in\n    tag_138:\n      mload(0x40)\n      tag_45\n      swap2\n      swap1\n      tag_142\n      jump\t// in\n        /* \"modules/JengaCore.sol\":717:746  uint256 public chamaCount = 0 */\n    tag_23:\n      callvalue\n      dup1\n      iszero\n      tag_143\n      jumpi\n      revert(0x00, 0x00)\n    tag_143:\n      pop\n      tag_61\n      sload(0x08)\n      dup2\n      jump\n        /* \"modules/JengaCore.sol\":635:710  mapping(address => mapping(uint256 => bool)) public hasContributedThisCycle */\n    tag_24:\n      callvalue\n      dup1\n      iszero\n      tag_147\n      jumpi\n      revert(0x00, 0x00)\n    tag_147:\n      pop\n      tag_55\n      tag_149\n      calldatasize\n      0x04\n      tag_63\n      jump\t// in\n    tag_149:\n      0x07\n      0x20\n      swap1\n      dup2\n      mstore\n      0x00\n      swap3\n      dup4\n      mstore\n      0x40\n      dup1\n      dup5\n      keccak256\n      swap1\n      swap2\n      mstore\n      swap1\n      dup3\n      mstore\n      swap1\n      keccak256\n      sload\n      0xff\n      and\n      dup2\n      jump\n        /* \"modules/JengaCore.sol\":13931:14061  function getChamaMembers(uint256 _chamaId) public view returns (address[] memory) {... */\n    tag_25:\n      callvalue\n      dup1\n      iszero\n      tag_152\n      jumpi\n      revert(0x00, 0x00)\n    tag_152:\n      pop\n      tag_153\n      tag_154\n      calldatasize\n      0x04\n      tag_43\n      jump\t// in\n    tag_154:\n      tag_155\n      jump\t// in\n    tag_153:\n      mload(0x40)\n      tag_45\n      swap2\n      swap1\n      tag_157\n      jump\t// in\n        /* \"modules/JengaCore.sol\":4978:5374  function startChama(uint256 _chamaId) public chamaExists(_chamaId) chamaActive(_chamaId) {... */\n    tag_26:\n      callvalue\n      dup1\n      iszero\n      tag_158\n      jumpi\n      revert(0x00, 0x00)\n    tag_158:\n      pop\n      tag_36\n      tag_160\n      calldatasize\n      0x04\n      tag_43\n      jump\t// in\n    tag_160:\n      tag_161\n      jump\t// in\n        /* \"modules/JengaCore.sol\":2226:3783  function createChama(... */\n    tag_27:\n      tag_36\n      tag_163\n      calldatasize\n      0x04\n      tag_164\n      jump\t// in\n    tag_163:\n      tag_165\n      jump\t// in\n        /* \"modules/JengaCore.sol\":15075:15468  function getCycleInfo(uint256 _chamaId, uint256 _cycle) public view returns (... */\n    tag_28:\n      callvalue\n      dup1\n      iszero\n      tag_166\n      jumpi\n      revert(0x00, 0x00)\n    tag_166:\n      pop\n      tag_167\n      tag_168\n      calldatasize\n      0x04\n      tag_86\n      jump\t// in\n    tag_168:\n        /* \"modules/JengaCore.sol\":15161:15187  uint256 cycleContributions */\n      0x00\n        /* \"modules/JengaCore.sol\":15288:15304  chamas[_chamaId] */\n      swap2\n      dup3\n      mstore\n      0x20\n      dup3\n      dup2\n      mstore\n      0x40\n      dup1\n      dup5\n      keccak256\n        /* \"modules/JengaCore.sol\":15335:15367  chama.cycleContributions[_cycle] */\n      swap3\n      dup5\n      mstore\n        /* \"modules/JengaCore.sol\":15335:15359  chama.cycleContributions */\n      0x0d\n      dup4\n      add\n        /* \"modules/JengaCore.sol\":15335:15367  chama.cycleContributions[_cycle] */\n      dup3\n      mstore\n      dup1\n      dup5\n      keccak256\n      sload\n        /* \"modules/JengaCore.sol\":15381:15401  chama.cycleRecipient */\n      0x0e\n      dup5\n      add\n        /* \"modules/JengaCore.sol\":15381:15409  chama.cycleRecipient[_cycle] */\n      dup4\n      mstore\n      dup2\n      dup6\n      keccak256\n      sload\n        /* \"modules/JengaCore.sol\":15423:15443  chama.cycleCompleted */\n      0x0f\n      swap1\n      swap5\n      add\n        /* \"modules/JengaCore.sol\":15423:15451  chama.cycleCompleted[_cycle] */\n      swap1\n      swap3\n      mstore\n      swap1\n      swap3\n      keccak256\n      sload\n        /* \"modules/JengaCore.sol\":15335:15367  chama.cycleContributions[_cycle] */\n      swap2\n      swap3\n      sub(shl(0xa0, 0x01), 0x01)\n        /* \"modules/JengaCore.sol\":15381:15409  chama.cycleRecipient[_cycle] */\n      swap1\n      swap2\n      and\n      swap2\n        /* \"modules/JengaCore.sol\":15423:15451  chama.cycleCompleted[_cycle] */\n      0xff\n      and\n      swap1\n        /* \"modules/JengaCore.sol\":15075:15468  function getCycleInfo(uint256 _chamaId, uint256 _cycle) public view returns (... */\n      jump\n    tag_167:\n      0x40\n      dup1\n      mload\n        /* \"#utility.yul\":6193:6218   */\n      swap4\n      dup5\n      mstore\n      sub(shl(0xa0, 0x01), 0x01)\n        /* \"#utility.yul\":6254:6286   */\n      swap1\n      swap3\n      and\n        /* \"#utility.yul\":6249:6251   */\n      0x20\n        /* \"#utility.yul\":6234:6252   */\n      dup5\n      add\n        /* \"#utility.yul\":6227:6287   */\n      mstore\n        /* \"#utility.yul\":6330:6344   */\n      iszero\n        /* \"#utility.yul\":6323:6345   */\n      iszero\n        /* \"#utility.yul\":6303:6321   */\n      swap1\n      dup3\n      add\n        /* \"#utility.yul\":6296:6346   */\n      mstore\n        /* \"#utility.yul\":6181:6183   */\n      0x60\n        /* \"#utility.yul\":6166:6184   */\n      add\n        /* \"modules/JengaCore.sol\":15075:15468  function getCycleInfo(uint256 _chamaId, uint256 _cycle) public view returns (... */\n      tag_45\n        /* \"#utility.yul\":5997:6352   */\n      jump\n        /* \"modules/JengaCore.sol\":11162:11829  function emergencyPayout(uint256 _chamaId, address _recipient) public {... */\n    tag_39:\n        /* \"modules/JengaCore.sol\":11242:11272  JengaTypes.Chama storage chama */\n      0x00\n        /* \"modules/JengaCore.sol\":11275:11291  chamas[_chamaId] */\n      dup3\n      dup2\n      mstore\n      0x20\n      dup2\n      swap1\n      mstore\n      0x40\n      swap1\n      keccak256\n        /* \"modules/JengaCore.sol\":11310:11322  chama.active */\n      0x05\n      dup2\n      add\n      sload\n      0xff\n      and\n        /* \"modules/JengaCore.sol\":11309:11322  !chama.active */\n      iszero\n        /* \"modules/JengaCore.sol\":11301:11345  require(!chama.active, \"Chama still active\") */\n      tag_173\n      jumpi\n      mload(0x40)\n      shl(0xe5, 0x461bcd)\n      dup2\n      mstore\n        /* \"#utility.yul\":6559:6561   */\n      0x20\n        /* \"modules/JengaCore.sol\":11301:11345  require(!chama.active, \"Chama still active\") */\n      0x04\n      dup3\n      add\n        /* \"#utility.yul\":6541:6562   */\n      mstore\n        /* \"#utility.yul\":6598:6600   */\n      0x12\n        /* \"#utility.yul\":6578:6596   */\n      0x24\n      dup3\n      add\n        /* \"#utility.yul\":6571:6601   */\n      mstore\n      shl(0x70, 0x4368616d61207374696c6c20616374697665)\n        /* \"#utility.yul\":6617:6635   */\n      0x44\n      dup3\n      add\n        /* \"#utility.yul\":6610:6658   */\n      mstore\n        /* \"#utility.yul\":6675:6693   */\n      0x64\n      add\n        /* \"modules/JengaCore.sol\":11301:11345  require(!chama.active, \"Chama still active\") */\n    tag_174:\n      mload(0x40)\n      dup1\n      swap2\n      sub\n      swap1\n      revert\n    tag_173:\n      sub(shl(0xa0, 0x01), 0x01)\n        /* \"modules/JengaCore.sol\":11363:11389  chama.isMember[_recipient] */\n      dup3\n      and\n      0x00\n      swap1\n      dup2\n      mstore\n        /* \"modules/JengaCore.sol\":11363:11377  chama.isMember */\n      0x0b\n      dup3\n      add\n        /* \"modules/JengaCore.sol\":11363:11389  chama.isMember[_recipient] */\n      0x20\n      mstore\n      0x40\n      swap1\n      keccak256\n      sload\n      0xff\n      and\n        /* \"modules/JengaCore.sol\":11355:11406  require(chama.isMember[_recipient], \"Not a member\") */\n      tag_176\n      jumpi\n      mload(0x40)\n      shl(0xe5, 0x461bcd)\n      dup2\n      mstore\n      0x04\n      add\n      tag_174\n      swap1\n      tag_178\n      jump\t// in\n    tag_176:\n      sub(shl(0xa0, 0x01), 0x01)\n        /* \"modules/JengaCore.sol\":11447:11476  chama.memberIndex[_recipient] */\n      dup3\n      and\n        /* \"modules/JengaCore.sol\":11425:11444  uint256 memberIndex */\n      0x00\n        /* \"modules/JengaCore.sol\":11447:11476  chama.memberIndex[_recipient] */\n      swap1\n      dup2\n      mstore\n        /* \"modules/JengaCore.sol\":11447:11464  chama.memberIndex */\n      0x0c\n      dup3\n      add\n        /* \"modules/JengaCore.sol\":11447:11476  chama.memberIndex[_recipient] */\n      0x20\n      mstore\n      0x40\n      swap1\n      keccak256\n      sload\n        /* \"modules/JengaCore.sol\":11495:11512  chama.membersPaid */\n      0x0a\n      dup3\n      add\n        /* \"modules/JengaCore.sol\":11495:11525  chama.membersPaid[memberIndex] */\n      dup1\n      sload\n        /* \"modules/JengaCore.sol\":11447:11476  chama.memberIndex[_recipient] */\n      dup3\n      swap1\n        /* \"modules/JengaCore.sol\":11495:11525  chama.membersPaid[memberIndex] */\n      dup2\n      lt\n      tag_180\n      jumpi\n      tag_180\n      tag_181\n      jump\t// in\n    tag_180:\n      swap1\n      0x00\n      mstore\n      keccak256(0x00, 0x20)\n      swap1\n      0x20\n      swap2\n      dup3\n      dup3\n      div\n      add\n      swap2\n      swap1\n      mod\n      swap1\n      sload\n      swap1\n      0x0100\n      exp\n      swap1\n      div\n      0xff\n      and\n        /* \"modules/JengaCore.sol\":11494:11525  !chama.membersPaid[memberIndex] */\n      iszero\n        /* \"modules/JengaCore.sol\":11486:11542  require(!chama.membersPaid[memberIndex], \"Already paid\") */\n      tag_183\n      jumpi\n      mload(0x40)\n      shl(0xe5, 0x461bcd)\n      dup2\n      mstore\n        /* \"#utility.yul\":7379:7381   */\n      0x20\n        /* \"modules/JengaCore.sol\":11486:11542  require(!chama.membersPaid[memberIndex], \"Already paid\") */\n      0x04\n      dup3\n      add\n        /* \"#utility.yul\":7361:7382   */\n      mstore\n        /* \"#utility.yul\":7418:7420   */\n      0x0c\n        /* \"#utility.yul\":7398:7416   */\n      0x24\n      dup3\n      add\n        /* \"#utility.yul\":7391:7421   */\n      mstore\n      shl(0xa2, 0x105b1c9958591e481c185a59)\n        /* \"#utility.yul\":7437:7455   */\n      0x44\n      dup3\n      add\n        /* \"#utility.yul\":7430:7472   */\n      mstore\n        /* \"#utility.yul\":7489:7507   */\n      0x64\n      add\n        /* \"modules/JengaCore.sol\":11486:11542  require(!chama.membersPaid[memberIndex], \"Already paid\") */\n      tag_174\n        /* \"#utility.yul\":7177:7513   */\n      jump\n        /* \"modules/JengaCore.sol\":11486:11542  require(!chama.membersPaid[memberIndex], \"Already paid\") */\n    tag_183:\n        /* \"modules/JengaCore.sol\":11611:11624  chama.members */\n      0x04\n      dup3\n      add\n        /* \"modules/JengaCore.sol\":11611:11631  chama.members.length */\n      sload\n        /* \"modules/JengaCore.sol\":11584:11608  chama.contributionAmount */\n      0x01\n      dup4\n      add\n      sload\n        /* \"modules/JengaCore.sol\":11561:11581  uint256 payoutAmount */\n      0x00\n      swap2\n        /* \"modules/JengaCore.sol\":11584:11631  chama.contributionAmount * chama.members.length */\n      tag_186\n      swap2\n      tag_187\n      jump\t// in\n    tag_186:\n        /* \"modules/JengaCore.sol\":11561:11631  uint256 payoutAmount = chama.contributionAmount * chama.members.length */\n      swap1\n      pop\n        /* \"modules/JengaCore.sol\":11674:11678  true */\n      0x01\n        /* \"modules/JengaCore.sol\":11641:11646  chama */\n      dup4\n        /* \"modules/JengaCore.sol\":11641:11658  chama.membersPaid */\n      0x0a\n      add\n        /* \"modules/JengaCore.sol\":11659:11670  memberIndex */\n      dup4\n        /* \"modules/JengaCore.sol\":11641:11671  chama.membersPaid[memberIndex] */\n      dup2\n      sload\n      dup2\n      lt\n      tag_189\n      jumpi\n      tag_189\n      tag_181\n      jump\t// in\n    tag_189:\n      swap1\n      0x00\n      mstore\n      keccak256(0x00, 0x20)\n      swap1\n      0x20\n      swap2\n      dup3\n      dup3\n      div\n      add\n      swap2\n      swap1\n      mod\n        /* \"modules/JengaCore.sol\":11641:11678  chama.membersPaid[memberIndex] = true */\n      0x0100\n      exp\n      dup2\n      sload\n      dup2\n      0xff\n      mul\n      not\n      and\n      swap1\n      dup4\n      iszero\n      iszero\n      mul\n      or\n      swap1\n      sstore\n      pop\n        /* \"modules/JengaCore.sol\":11696:11706  _recipient */\n      dup4\n      sub(shl(0xa0, 0x01), 0x01)\n        /* \"modules/JengaCore.sol\":11688:11716  payable(_recipient).transfer */\n      and\n        /* \"modules/JengaCore.sol\":11688:11730  payable(_recipient).transfer(payoutAmount) */\n      0x08fc\n        /* \"modules/JengaCore.sol\":11717:11729  payoutAmount */\n      dup3\n        /* \"modules/JengaCore.sol\":11688:11730  payable(_recipient).transfer(payoutAmount) */\n      swap1\n      dup2\n      iszero\n      mul\n      swap1\n      mload(0x40)\n      0x00\n      mload(0x40)\n      dup1\n      dup4\n      sub\n      dup2\n      dup6\n      dup9\n      dup9\n      call\n      swap4\n      pop\n      pop\n      pop\n      pop\n      iszero\n      dup1\n      iszero\n      tag_192\n      jumpi\n      returndatacopy(0x00, 0x00, returndatasize)\n      revert(0x00, returndatasize)\n    tag_192:\n      pop\n        /* \"modules/JengaCore.sol\":11754:11822  PayoutProcessed(_chamaId, _recipient, payoutAmount, memberIndex + 1) */\n      0xb4aeb9fb59644d1c26001b986295cde5bbfae34be7c5240fbccf4c37308e20fe\n        /* \"modules/JengaCore.sol\":11770:11778  _chamaId */\n      dup6\n        /* \"modules/JengaCore.sol\":11780:11790  _recipient */\n      dup6\n        /* \"modules/JengaCore.sol\":11792:11804  payoutAmount */\n      dup4\n        /* \"modules/JengaCore.sol\":11806:11821  memberIndex + 1 */\n      tag_193\n        /* \"modules/JengaCore.sol\":11806:11817  memberIndex */\n      dup7\n        /* \"modules/JengaCore.sol\":11820:11821  1 */\n      0x01\n        /* \"modules/JengaCore.sol\":11806:11821  memberIndex + 1 */\n      tag_194\n      jump\t// in\n    tag_193:\n        /* \"modules/JengaCore.sol\":11754:11822  PayoutProcessed(_chamaId, _recipient, payoutAmount, memberIndex + 1) */\n      0x40\n      dup1\n      mload\n        /* \"#utility.yul\":8184:8209   */\n      swap5\n      dup6\n      mstore\n      sub(shl(0xa0, 0x01), 0x01)\n        /* \"#utility.yul\":8245:8277   */\n      swap1\n      swap4\n      and\n        /* \"#utility.yul\":8240:8242   */\n      0x20\n        /* \"#utility.yul\":8225:8243   */\n      dup6\n      add\n        /* \"#utility.yul\":8218:8278   */\n      mstore\n        /* \"#utility.yul\":8294:8312   */\n      swap2\n      dup4\n      add\n        /* \"#utility.yul\":8287:8321   */\n      mstore\n        /* \"#utility.yul\":8352:8354   */\n      0x60\n        /* \"#utility.yul\":8337:8355   */\n      dup3\n      add\n        /* \"#utility.yul\":8330:8364   */\n      mstore\n        /* \"#utility.yul\":8171:8174   */\n      0x80\n        /* \"#utility.yul\":8156:8175   */\n      add\n        /* \"modules/JengaCore.sol\":11754:11822  PayoutProcessed(_chamaId, _recipient, payoutAmount, memberIndex + 1) */\n    tag_195:\n      mload(0x40)\n      dup1\n      swap2\n      sub\n      swap1\n      log1\n        /* \"modules/JengaCore.sol\":11232:11829  {... */\n      pop\n      pop\n      pop\n        /* \"modules/JengaCore.sol\":11162:11829  function emergencyPayout(uint256 _chamaId, address _recipient) public {... */\n      pop\n      pop\n      jump\t// out\n        /* \"modules/JengaCore.sol\":189:239  mapping(uint256 => JengaTypes.Chama) public chamas */\n    tag_44:\n      0x00\n      0x20\n      dup2\n      swap1\n      mstore\n      swap1\n      dup2\n      mstore\n      0x40\n      swap1\n      keccak256\n      dup1\n      sload\n      dup2\n      swap1\n      tag_197\n      swap1\n      tag_198\n      jump\t// in\n    tag_197:\n      dup1\n      0x1f\n      add\n      0x20\n      dup1\n      swap2\n      div\n      mul\n      0x20\n      add\n      mload(0x40)\n      swap1\n      dup2\n      add\n      0x40\n      mstore\n      dup1\n      swap3\n      swap2\n      swap1\n      dup2\n      dup2\n      mstore\n      0x20\n      add\n      dup3\n      dup1\n      sload\n      tag_199\n      swap1\n      tag_198\n      jump\t// in\n    tag_199:\n      dup1\n      iszero\n      tag_200\n      jumpi\n      dup1\n      0x1f\n      lt\n      tag_201\n      jumpi\n      0x0100\n      dup1\n      dup4\n      sload\n      div\n      mul\n      dup4\n      mstore\n      swap2\n      0x20\n      add\n      swap2\n      jump(tag_200)\n    tag_201:\n      dup3\n      add\n      swap2\n      swap1\n      0x00\n      mstore\n      keccak256(0x00, 0x20)\n      swap1\n    tag_202:\n      dup2\n      sload\n      dup2\n      mstore\n      swap1\n      0x01\n      add\n      swap1\n      0x20\n      add\n      dup1\n      dup4\n      gt\n      tag_202\n      jumpi\n      dup3\n      swap1\n      sub\n      0x1f\n      and\n      dup3\n      add\n      swap2\n    tag_200:\n      pop\n      pop\n      pop\n      0x01\n      dup5\n      add\n      sload\n      0x02\n      dup6\n      add\n      sload\n      0x03\n      dup7\n      add\n      sload\n      0x05\n      dup8\n      add\n      sload\n      0x06\n      dup9\n      add\n      sload\n      0x07\n      dup10\n      add\n      sload\n      0x08\n      dup11\n      add\n      sload\n      0x09\n      dup12\n      add\n      sload\n      0x12\n      swap1\n      swap12\n      add\n      sload\n      swap10\n      swap11\n      swap7\n      swap10\n      swap6\n      swap9\n      pop\n      swap4\n      swap7\n      pop\n      0xff\n      swap1\n      swap3\n      and\n      swap5\n      swap1\n      swap4\n      swap2\n      swap3\n      swap2\n      dup11\n      jump\t// out\n        /* \"modules/JengaCore.sol\":11893:13102  function processMissedContributions(uint256 _chamaId) public {... */\n    tag_50:\n        /* \"modules/JengaCore.sol\":11964:11994  JengaTypes.Chama storage chama */\n      0x00\n        /* \"modules/JengaCore.sol\":11997:12013  chamas[_chamaId] */\n      dup2\n      dup2\n      mstore\n      0x20\n      dup2\n      swap1\n      mstore\n      0x40\n      swap1\n      keccak256\n        /* \"modules/JengaCore.sol\":12031:12043  chama.active */\n      0x05\n      dup2\n      add\n      sload\n      0xff\n      and\n        /* \"modules/JengaCore.sol\":12023:12064  require(chama.active, \"Chama not active\") */\n      tag_204\n      jumpi\n      mload(0x40)\n      shl(0xe5, 0x461bcd)\n      dup2\n      mstore\n      0x04\n      add\n      tag_174\n      swap1\n      tag_206\n      jump\t// in\n    tag_204:\n        /* \"modules/JengaCore.sol\":12103:12104  0 */\n      0x00\n        /* \"modules/JengaCore.sol\":12082:12087  chama */\n      dup2\n        /* \"modules/JengaCore.sol\":12082:12100  chama.currentCycle */\n      0x06\n      add\n      sload\n        /* \"modules/JengaCore.sol\":12082:12104  chama.currentCycle > 0 */\n      gt\n        /* \"modules/JengaCore.sol\":12074:12126  require(chama.currentCycle > 0, \"Chama not started\") */\n      tag_207\n      jumpi\n      mload(0x40)\n      shl(0xe5, 0x461bcd)\n      dup2\n      mstore\n        /* \"#utility.yul\":9307:9309   */\n      0x20\n        /* \"modules/JengaCore.sol\":12074:12126  require(chama.currentCycle > 0, \"Chama not started\") */\n      0x04\n      dup3\n      add\n        /* \"#utility.yul\":9289:9310   */\n      mstore\n        /* \"#utility.yul\":9346:9348   */\n      0x11\n        /* \"#utility.yul\":9326:9344   */\n      0x24\n      dup3\n      add\n        /* \"#utility.yul\":9319:9349   */\n      mstore\n      shl(0x7a, 0x10da185b58481b9bdd081cdd185c9d1959)\n        /* \"#utility.yul\":9365:9383   */\n      0x44\n      dup3\n      add\n        /* \"#utility.yul\":9358:9405   */\n      mstore\n        /* \"#utility.yul\":9422:9440   */\n      0x64\n      add\n        /* \"modules/JengaCore.sol\":12074:12126  require(chama.currentCycle > 0, \"Chama not started\") */\n      tag_174\n        /* \"#utility.yul\":9105:9446   */\n      jump\n        /* \"modules/JengaCore.sol\":12074:12126  require(chama.currentCycle > 0, \"Chama not started\") */\n    tag_207:\n        /* \"modules/JengaCore.sol\":12245:12250  chama */\n      dup1\n        /* \"modules/JengaCore.sol\":12245:12264  chama.cycleDuration */\n      0x02\n      add\n      sload\n        /* \"modules/JengaCore.sol\":12218:12223  chama */\n      dup2\n        /* \"modules/JengaCore.sol\":12218:12242  chama.lastCycleTimestamp */\n      0x08\n      add\n      sload\n        /* \"modules/JengaCore.sol\":12218:12264  chama.lastCycleTimestamp + chama.cycleDuration */\n      tag_210\n      swap2\n      swap1\n      tag_194\n      jump\t// in\n    tag_210:\n        /* \"modules/JengaCore.sol\":12199:12214  block.timestamp */\n      timestamp\n        /* \"modules/JengaCore.sol\":12199:12264  block.timestamp >= chama.lastCycleTimestamp + chama.cycleDuration */\n      lt\n      iszero\n        /* \"modules/JengaCore.sol\":12191:12286  require(block.timestamp >= chama.lastCycleTimestamp + chama.cycleDuration, \"Cycle not expired\") */\n      tag_211\n      jumpi\n      mload(0x40)\n      shl(0xe5, 0x461bcd)\n      dup2\n      mstore\n        /* \"#utility.yul\":9653:9655   */\n      0x20\n        /* \"modules/JengaCore.sol\":12191:12286  require(block.timestamp >= chama.lastCycleTimestamp + chama.cycleDuration, \"Cycle not expired\") */\n      0x04\n      dup3\n      add\n        /* \"#utility.yul\":9635:9656   */\n      mstore\n        /* \"#utility.yul\":9692:9694   */\n      0x11\n        /* \"#utility.yul\":9672:9690   */\n      0x24\n      dup3\n      add\n        /* \"#utility.yul\":9665:9695   */\n      mstore\n      shl(0x7a, 0x10de58db19481b9bdd08195e1c1a5c9959)\n        /* \"#utility.yul\":9711:9729   */\n      0x44\n      dup3\n      add\n        /* \"#utility.yul\":9704:9751   */\n      mstore\n        /* \"#utility.yul\":9768:9786   */\n      0x64\n      add\n        /* \"modules/JengaCore.sol\":12191:12286  require(block.timestamp >= chama.lastCycleTimestamp + chama.cycleDuration, \"Cycle not expired\") */\n      tag_174\n        /* \"#utility.yul\":9451:9792   */\n      jump\n        /* \"modules/JengaCore.sol\":12191:12286  require(block.timestamp >= chama.lastCycleTimestamp + chama.cycleDuration, \"Cycle not expired\") */\n    tag_211:\n        /* \"modules/JengaCore.sol\":12358:12367  uint256 i */\n      0x00\n        /* \"modules/JengaCore.sol\":12353:13001  for (uint256 i = 0; i < chama.members.length; i++) {... */\n    tag_214:\n        /* \"modules/JengaCore.sol\":12377:12390  chama.members */\n      0x04\n      dup3\n      add\n        /* \"modules/JengaCore.sol\":12377:12397  chama.members.length */\n      sload\n        /* \"modules/JengaCore.sol\":12373:12397  i < chama.members.length */\n      dup2\n      lt\n        /* \"modules/JengaCore.sol\":12353:13001  for (uint256 i = 0; i < chama.members.length; i++) {... */\n      iszero\n      tag_215\n      jumpi\n        /* \"modules/JengaCore.sol\":12418:12432  address member */\n      0x00\n        /* \"modules/JengaCore.sol\":12435:12440  chama */\n      dup3\n        /* \"modules/JengaCore.sol\":12435:12448  chama.members */\n      0x04\n      add\n        /* \"modules/JengaCore.sol\":12449:12450  i */\n      dup3\n        /* \"modules/JengaCore.sol\":12435:12451  chama.members[i] */\n      dup2\n      sload\n      dup2\n      lt\n      tag_218\n      jumpi\n      tag_218\n      tag_181\n      jump\t// in\n    tag_218:\n      0x00\n      swap2\n      dup3\n      mstore\n      0x20\n      dup1\n      dup4\n      keccak256\n      swap1\n      swap2\n      add\n      sload\n      sub(shl(0xa0, 0x01), 0x01)\n      and\n        /* \"modules/JengaCore.sol\":12470:12501  hasContributedThisCycle[member] */\n      dup1\n      dup4\n      mstore\n        /* \"modules/JengaCore.sol\":12470:12493  hasContributedThisCycle */\n      0x07\n        /* \"modules/JengaCore.sol\":12470:12501  hasContributedThisCycle[member] */\n      dup3\n      mstore\n      0x40\n      dup1\n      dup5\n      keccak256\n        /* \"modules/JengaCore.sol\":12470:12511  hasContributedThisCycle[member][_chamaId] */\n      dup9\n      dup6\n      mstore\n      swap1\n      swap3\n      mstore\n      swap2\n      keccak256\n      sload\n        /* \"modules/JengaCore.sol\":12435:12451  chama.members[i] */\n      swap1\n      swap2\n      pop\n        /* \"modules/JengaCore.sol\":12470:12511  hasContributedThisCycle[member][_chamaId] */\n      0xff\n      and\n        /* \"modules/JengaCore.sol\":12465:12991  if (!hasContributedThisCycle[member][_chamaId]) {... */\n      tag_220\n      jumpi\n      sub(shl(0xa0, 0x01), 0x01)\n        /* \"modules/JengaCore.sol\":12602:12632  chama.memberCollateral[member] */\n      dup2\n      and\n        /* \"modules/JengaCore.sol\":12575:12599  uint256 collateralAmount */\n      0x00\n        /* \"modules/JengaCore.sol\":12602:12632  chama.memberCollateral[member] */\n      swap1\n      dup2\n      mstore\n        /* \"modules/JengaCore.sol\":12602:12624  chama.memberCollateral */\n      0x10\n      dup5\n      add\n        /* \"modules/JengaCore.sol\":12602:12632  chama.memberCollateral[member] */\n      0x20\n      mstore\n      0x40\n      swap1\n      keccak256\n      sload\n        /* \"modules/JengaCore.sol\":12654:12674  collateralAmount > 0 */\n      dup1\n      iszero\n        /* \"modules/JengaCore.sol\":12650:12977  if (collateralAmount > 0) {... */\n      tag_221\n      jumpi\n      sub(shl(0xa0, 0x01), 0x01)\n        /* \"modules/JengaCore.sol\":12698:12728  chama.memberCollateral[member] */\n      dup3\n      and\n        /* \"modules/JengaCore.sol\":12731:12732  0 */\n      0x00\n        /* \"modules/JengaCore.sol\":12698:12728  chama.memberCollateral[member] */\n      swap1\n      dup2\n      mstore\n        /* \"modules/JengaCore.sol\":12698:12720  chama.memberCollateral */\n      0x10\n      dup6\n      add\n        /* \"modules/JengaCore.sol\":12698:12728  chama.memberCollateral[member] */\n      0x20\n      swap1\n      dup2\n      mstore\n      0x40\n      dup1\n      dup4\n      keccak256\n        /* \"modules/JengaCore.sol\":12698:12732  chama.memberCollateral[member] = 0 */\n      dup4\n      swap1\n      sstore\n        /* \"modules/JengaCore.sol\":12837:12855  chama.currentCycle */\n      0x06\n      dup8\n      add\n      sload\n        /* \"modules/JengaCore.sol\":12812:12856  chama.cycleContributions[chama.currentCycle] */\n      dup4\n      mstore\n        /* \"modules/JengaCore.sol\":12812:12836  chama.cycleContributions */\n      0x0d\n      dup8\n      add\n        /* \"modules/JengaCore.sol\":12812:12856  chama.cycleContributions[chama.currentCycle] */\n      swap1\n      swap2\n      mstore\n      dup2\n      keccak256\n        /* \"modules/JengaCore.sol\":12812:12876  chama.cycleContributions[chama.currentCycle] += collateralAmount */\n      dup1\n      sload\n        /* \"modules/JengaCore.sol\":12860:12876  collateralAmount */\n      dup4\n      swap3\n        /* \"modules/JengaCore.sol\":12731:12732  0 */\n      swap1\n        /* \"modules/JengaCore.sol\":12812:12876  chama.cycleContributions[chama.currentCycle] += collateralAmount */\n      tag_222\n      swap1\n        /* \"modules/JengaCore.sol\":12860:12876  collateralAmount */\n      dup5\n      swap1\n        /* \"modules/JengaCore.sol\":12812:12876  chama.cycleContributions[chama.currentCycle] += collateralAmount */\n      tag_194\n      jump\t// in\n    tag_222:\n      swap1\n      swap2\n      sstore\n      pop\n      pop\n        /* \"modules/JengaCore.sol\":12903:12958  CollateralForfeited(_chamaId, member, collateralAmount) */\n      mload(0x40)\n      0x9ed6c8e3f152b165733c0aa8ef3b791333859fb2ebcefd11171ade0c13814f69\n      swap1\n      tag_223\n      swap1\n        /* \"modules/JengaCore.sol\":12923:12931  _chamaId */\n      dup8\n      swap1\n        /* \"modules/JengaCore.sol\":12933:12939  member */\n      dup6\n      swap1\n        /* \"modules/JengaCore.sol\":12941:12957  collateralAmount */\n      dup6\n      swap1\n        /* \"modules/JengaCore.sol\":12903:12958  CollateralForfeited(_chamaId, member, collateralAmount) */\n      tag_224\n      jump\t// in\n    tag_223:\n      mload(0x40)\n      dup1\n      swap2\n      sub\n      swap1\n      log1\n        /* \"modules/JengaCore.sol\":12650:12977  if (collateralAmount > 0) {... */\n    tag_221:\n        /* \"modules/JengaCore.sol\":12513:12991  {... */\n      pop\n        /* \"modules/JengaCore.sol\":12465:12991  if (!hasContributedThisCycle[member][_chamaId]) {... */\n    tag_220:\n      pop\n        /* \"modules/JengaCore.sol\":12399:12402  i++ */\n      0x01\n      add\n        /* \"modules/JengaCore.sol\":12353:13001  for (uint256 i = 0; i < chama.members.length; i++) {... */\n      jump(tag_214)\n    tag_215:\n      pop\n        /* \"modules/JengaCore.sol\":13066:13095  _processCyclePayout(_chamaId) */\n      tag_225\n        /* \"modules/JengaCore.sol\":13086:13094  _chamaId */\n      dup3\n        /* \"modules/JengaCore.sol\":13066:13085  _processCyclePayout */\n      tag_226\n        /* \"modules/JengaCore.sol\":13066:13095  _processCyclePayout(_chamaId) */\n      jump\t// in\n    tag_225:\n        /* \"modules/JengaCore.sol\":11954:13102  {... */\n      pop\n        /* \"modules/JengaCore.sol\":11893:13102  function processMissedContributions(uint256 _chamaId) public {... */\n      pop\n      jump\t// out\n        /* \"modules/JengaCore.sol\":3819:4897  function joinChama(uint256 _chamaId) public payable chamaExists(_chamaId) chamaActive(_chamaId) {... */\n    tag_53:\n        /* \"modules/JengaCore.sol\":3883:3891  _chamaId */\n      dup1\n        /* \"modules/JengaCore.sol\":1799:1800  0 */\n      0x00\n        /* \"modules/JengaCore.sol\":1788:1796  _chamaId */\n      dup2\n        /* \"modules/JengaCore.sol\":1788:1800  _chamaId > 0 */\n      gt\n        /* \"modules/JengaCore.sol\":1788:1826  _chamaId > 0 && _chamaId <= chamaCount */\n      dup1\n      iszero\n      tag_228\n      jumpi\n      pop\n        /* \"modules/JengaCore.sol\":1816:1826  chamaCount */\n      sload(0x08)\n        /* \"modules/JengaCore.sol\":1804:1812  _chamaId */\n      dup2\n        /* \"modules/JengaCore.sol\":1804:1826  _chamaId <= chamaCount */\n      gt\n      iszero\n        /* \"modules/JengaCore.sol\":1788:1826  _chamaId > 0 && _chamaId <= chamaCount */\n    tag_228:\n        /* \"modules/JengaCore.sol\":1780:1851  require(_chamaId > 0 && _chamaId <= chamaCount, \"Chama does not exist\") */\n      tag_229\n      jumpi\n      mload(0x40)\n      shl(0xe5, 0x461bcd)\n      dup2\n      mstore\n        /* \"#utility.yul\":10349:10351   */\n      0x20\n        /* \"modules/JengaCore.sol\":1780:1851  require(_chamaId > 0 && _chamaId <= chamaCount, \"Chama does not exist\") */\n      0x04\n      dup3\n      add\n        /* \"#utility.yul\":10331:10352   */\n      mstore\n        /* \"#utility.yul\":10388:10390   */\n      0x14\n        /* \"#utility.yul\":10368:10386   */\n      0x24\n      dup3\n      add\n        /* \"#utility.yul\":10361:10391   */\n      mstore\n      shl(0x62, 0x10da185b5848191bd95cc81b9bdd08195e1a5cdd)\n        /* \"#utility.yul\":10407:10425   */\n      0x44\n      dup3\n      add\n        /* \"#utility.yul\":10400:10450   */\n      mstore\n        /* \"#utility.yul\":10467:10485   */\n      0x64\n      add\n        /* \"modules/JengaCore.sol\":1780:1851  require(_chamaId > 0 && _chamaId <= chamaCount, \"Chama does not exist\") */\n      tag_174\n        /* \"#utility.yul\":10147:10491   */\n      jump\n        /* \"modules/JengaCore.sol\":1780:1851  require(_chamaId > 0 && _chamaId <= chamaCount, \"Chama does not exist\") */\n    tag_229:\n        /* \"modules/JengaCore.sol\":1932:1938  chamas */\n      0x00\n        /* \"modules/JengaCore.sol\":1932:1948  chamas[_chamaId] */\n      dup3\n      dup2\n      mstore\n      0x20\n      dup2\n      swap1\n      mstore\n      0x40\n      swap1\n      keccak256\n        /* \"modules/JengaCore.sol\":1932:1955  chamas[_chamaId].active */\n      0x05\n      add\n      sload\n        /* \"modules/JengaCore.sol\":3905:3913  _chamaId */\n      dup3\n      swap1\n        /* \"modules/JengaCore.sol\":1932:1955  chamas[_chamaId].active */\n      0xff\n      and\n        /* \"modules/JengaCore.sol\":1924:1976  require(chamas[_chamaId].active, \"Chama not active\") */\n      tag_233\n      jumpi\n      mload(0x40)\n      shl(0xe5, 0x461bcd)\n      dup2\n      mstore\n      0x04\n      add\n      tag_174\n      swap1\n      tag_206\n      jump\t// in\n    tag_233:\n        /* \"modules/JengaCore.sol\":3925:3955  JengaTypes.Chama storage chama */\n      0x00\n        /* \"modules/JengaCore.sol\":3958:3974  chamas[_chamaId] */\n      dup4\n      dup2\n      mstore\n      0x20\n      dup2\n      dup2\n      mstore\n      0x40\n      dup1\n      dup4\n      keccak256\n        /* \"modules/JengaCore.sol\":4008:4018  msg.sender */\n      caller\n        /* \"modules/JengaCore.sol\":3993:4019  chama.isMember[msg.sender] */\n      dup5\n      mstore\n        /* \"modules/JengaCore.sol\":3993:4007  chama.isMember */\n      0x0b\n      dup2\n      add\n        /* \"modules/JengaCore.sol\":3993:4019  chama.isMember[msg.sender] */\n      swap1\n      swap3\n      mstore\n      swap1\n      swap2\n      keccak256\n      sload\n      0xff\n      and\n        /* \"modules/JengaCore.sol\":3992:4019  !chama.isMember[msg.sender] */\n      iszero\n        /* \"modules/JengaCore.sol\":3984:4040  require(!chama.isMember[msg.sender], \"Already a member\") */\n      tag_236\n      jumpi\n      mload(0x40)\n      shl(0xe5, 0x461bcd)\n      dup2\n      mstore\n        /* \"#utility.yul\":10698:10700   */\n      0x20\n        /* \"modules/JengaCore.sol\":3984:4040  require(!chama.isMember[msg.sender], \"Already a member\") */\n      0x04\n      dup3\n      add\n        /* \"#utility.yul\":10680:10701   */\n      mstore\n        /* \"#utility.yul\":10737:10739   */\n      0x10\n        /* \"#utility.yul\":10717:10735   */\n      0x24\n      dup3\n      add\n        /* \"#utility.yul\":10710:10740   */\n      mstore\n      shl(0x81, 0x20b63932b0b23c90309036b2b6b132b9)\n        /* \"#utility.yul\":10756:10774   */\n      0x44\n      dup3\n      add\n        /* \"#utility.yul\":10749:10795   */\n      mstore\n        /* \"#utility.yul\":10812:10830   */\n      0x64\n      add\n        /* \"modules/JengaCore.sol\":3984:4040  require(!chama.isMember[msg.sender], \"Already a member\") */\n      tag_174\n        /* \"#utility.yul\":10496:10836   */\n      jump\n        /* \"modules/JengaCore.sol\":3984:4040  require(!chama.isMember[msg.sender], \"Already a member\") */\n    tag_236:\n        /* \"modules/JengaCore.sol\":4081:4097  chama.maxMembers */\n      0x03\n      dup2\n      add\n      sload\n        /* \"modules/JengaCore.sol\":4058:4071  chama.members */\n      0x04\n      dup3\n      add\n        /* \"modules/JengaCore.sol\":4058:4078  chama.members.length */\n      sload\n        /* \"modules/JengaCore.sol\":4058:4097  chama.members.length < chama.maxMembers */\n      lt\n        /* \"modules/JengaCore.sol\":4050:4112  require(chama.members.length < chama.maxMembers, \"Chama full\") */\n      tag_239\n      jumpi\n      mload(0x40)\n      shl(0xe5, 0x461bcd)\n      dup2\n      mstore\n        /* \"#utility.yul\":11043:11045   */\n      0x20\n        /* \"modules/JengaCore.sol\":4050:4112  require(chama.members.length < chama.maxMembers, \"Chama full\") */\n      0x04\n      dup3\n      add\n        /* \"#utility.yul\":11025:11046   */\n      mstore\n        /* \"#utility.yul\":11082:11084   */\n      0x0a\n        /* \"#utility.yul\":11062:11080   */\n      0x24\n      dup3\n      add\n        /* \"#utility.yul\":11055:11085   */\n      mstore\n      shl(0xb2, 0x10da185b5848199d5b1b)\n        /* \"#utility.yul\":11101:11119   */\n      0x44\n      dup3\n      add\n        /* \"#utility.yul\":11094:11134   */\n      mstore\n        /* \"#utility.yul\":11151:11169   */\n      0x64\n      add\n        /* \"modules/JengaCore.sol\":4050:4112  require(chama.members.length < chama.maxMembers, \"Chama full\") */\n      tag_174\n        /* \"#utility.yul\":10841:11175   */\n      jump\n        /* \"modules/JengaCore.sol\":4050:4112  require(chama.members.length < chama.maxMembers, \"Chama full\") */\n    tag_239:\n        /* \"modules/JengaCore.sol\":4143:4148  chama */\n      dup1\n        /* \"modules/JengaCore.sol\":4143:4167  chama.contributionAmount */\n      0x01\n      add\n      sload\n        /* \"modules/JengaCore.sol\":4130:4139  msg.value */\n      callvalue\n        /* \"modules/JengaCore.sol\":4130:4167  msg.value >= chama.contributionAmount */\n      lt\n      iszero\n        /* \"modules/JengaCore.sol\":4122:4195  require(msg.value >= chama.contributionAmount, \"Insufficient collateral\") */\n      tag_242\n      jumpi\n      mload(0x40)\n      shl(0xe5, 0x461bcd)\n      dup2\n      mstore\n        /* \"#utility.yul\":11382:11384   */\n      0x20\n        /* \"modules/JengaCore.sol\":4122:4195  require(msg.value >= chama.contributionAmount, \"Insufficient collateral\") */\n      0x04\n      dup3\n      add\n        /* \"#utility.yul\":11364:11385   */\n      mstore\n        /* \"#utility.yul\":11421:11423   */\n      0x17\n        /* \"#utility.yul\":11401:11419   */\n      0x24\n      dup3\n      add\n        /* \"#utility.yul\":11394:11424   */\n      mstore\n        /* \"#utility.yul\":11460:11485   */\n      0x496e73756666696369656e7420636f6c6c61746572616c000000000000000000\n        /* \"#utility.yul\":11440:11458   */\n      0x44\n      dup3\n      add\n        /* \"#utility.yul\":11433:11486   */\n      mstore\n        /* \"#utility.yul\":11503:11521   */\n      0x64\n      add\n        /* \"modules/JengaCore.sol\":4122:4195  require(msg.value >= chama.contributionAmount, \"Insufficient collateral\") */\n      tag_174\n        /* \"#utility.yul\":11180:11527   */\n      jump\n        /* \"modules/JengaCore.sol\":4122:4195  require(msg.value >= chama.contributionAmount, \"Insufficient collateral\") */\n    tag_242:\n        /* \"modules/JengaCore.sol\":4228:4241  chama.members */\n      0x04\n      dup2\n      add\n        /* \"modules/JengaCore.sol\":4228:4248  chama.members.length */\n      dup1\n      sload\n        /* \"modules/JengaCore.sol\":4258:4288  chama.members.push(msg.sender) */\n      0x01\n      dup1\n      dup3\n      add\n      dup4\n      sstore\n        /* \"modules/JengaCore.sol\":4206:4225  uint256 memberIndex */\n      0x00\n        /* \"modules/JengaCore.sol\":4258:4288  chama.members.push(msg.sender) */\n      swap3\n      dup4\n      mstore\n      0x20\n      dup1\n      dup5\n      keccak256\n      dup4\n      add\n      dup1\n      sload\n      not(sub(shl(0xa0, 0x01), 0x01))\n      and\n        /* \"modules/JengaCore.sol\":4277:4287  msg.sender */\n      caller\n        /* \"modules/JengaCore.sol\":4258:4288  chama.members.push(msg.sender) */\n      swap1\n      dup2\n      or\n      swap1\n      swap2\n      sstore\n        /* \"modules/JengaCore.sol\":4298:4324  chama.isMember[msg.sender] */\n      dup1\n      dup6\n      mstore\n        /* \"modules/JengaCore.sol\":4298:4312  chama.isMember */\n      0x0b\n      dup7\n      add\n        /* \"modules/JengaCore.sol\":4298:4324  chama.isMember[msg.sender] */\n      dup3\n      mstore\n      0x40\n      dup1\n      dup7\n      keccak256\n        /* \"modules/JengaCore.sol\":4298:4331  chama.isMember[msg.sender] = true */\n      dup1\n      sload\n      not(0xff)\n      and\n      dup6\n      or\n      swap1\n      sstore\n        /* \"modules/JengaCore.sol\":4341:4358  chama.memberIndex */\n      0x0c\n      dup8\n      add\n        /* \"modules/JengaCore.sol\":4341:4370  chama.memberIndex[msg.sender] */\n      dup4\n      mstore\n      dup1\n      dup7\n      keccak256\n        /* \"modules/JengaCore.sol\":4341:4384  chama.memberIndex[msg.sender] = memberIndex */\n      dup6\n      swap1\n      sstore\n        /* \"modules/JengaCore.sol\":4394:4411  chama.membersPaid */\n      0x0a\n      dup8\n      add\n        /* \"modules/JengaCore.sol\":4394:4423  chama.membersPaid.push(false) */\n      dup1\n      sload\n      swap5\n      dup6\n      add\n      dup2\n      sstore\n      dup7\n      mstore\n      dup3\n      dup7\n      keccak256\n      dup4\n      dup6\n      div\n      add\n      dup1\n      sload\n      0x1f\n      swap1\n      swap6\n      and\n        /* \"modules/JengaCore.sol\":4258:4288  chama.members.push(msg.sender) */\n      0x0100\n        /* \"modules/JengaCore.sol\":4394:4423  chama.membersPaid.push(false) */\n      exp\n        /* \"modules/JengaCore.sol\":4298:4331  chama.isMember[msg.sender] = true */\n      0xff\n        /* \"modules/JengaCore.sol\":4394:4423  chama.membersPaid.push(false) */\n      mul\n      not\n      swap1\n      swap5\n      and\n      swap1\n      swap4\n      sstore\n        /* \"modules/JengaCore.sol\":4433:4467  chama.memberCollateral[msg.sender] */\n      dup5\n      mstore\n        /* \"modules/JengaCore.sol\":4433:4455  chama.memberCollateral */\n      0x10\n      dup6\n      add\n        /* \"modules/JengaCore.sol\":4433:4467  chama.memberCollateral[msg.sender] */\n      swap1\n      mstore\n      dup3\n      keccak256\n        /* \"modules/JengaCore.sol\":4470:4479  msg.value */\n      callvalue\n        /* \"modules/JengaCore.sol\":4433:4479  chama.memberCollateral[msg.sender] = msg.value */\n      swap1\n      dup2\n      swap1\n      sstore\n        /* \"modules/JengaCore.sol\":4489:4510  chama.totalCollateral */\n      0x12\n      dup5\n      add\n        /* \"modules/JengaCore.sol\":4489:4523  chama.totalCollateral += msg.value */\n      dup1\n      sload\n        /* \"modules/JengaCore.sol\":4228:4248  chama.members.length */\n      swap3\n      swap4\n        /* \"modules/JengaCore.sol\":4470:4479  msg.value */\n      swap2\n      swap3\n        /* \"modules/JengaCore.sol\":4489:4510  chama.totalCollateral */\n      swap1\n      swap2\n        /* \"modules/JengaCore.sol\":4206:4225  uint256 memberIndex */\n      swap1\n        /* \"modules/JengaCore.sol\":4489:4523  chama.totalCollateral += msg.value */\n      tag_247\n      swap1\n        /* \"modules/JengaCore.sol\":4470:4479  msg.value */\n      dup5\n      swap1\n        /* \"modules/JengaCore.sol\":4489:4523  chama.totalCollateral += msg.value */\n      tag_194\n      jump\t// in\n    tag_247:\n      swap1\n      swap2\n      sstore\n      pop\n      pop\n        /* \"modules/JengaCore.sol\":4545:4555  msg.sender */\n      caller\n        /* \"modules/JengaCore.sol\":4534:4556  userChamas[msg.sender] */\n      0x00\n      dup2\n      dup2\n      mstore\n        /* \"modules/JengaCore.sol\":4534:4544  userChamas */\n      0x04\n        /* \"modules/JengaCore.sol\":4534:4556  userChamas[msg.sender] */\n      0x20\n      swap1\n      dup2\n      mstore\n      0x40\n      dup1\n      dup4\n      keccak256\n        /* \"modules/JengaCore.sol\":4534:4571  userChamas[msg.sender].push(_chamaId) */\n      dup1\n      sload\n      0x01\n      dup2\n      dup2\n      add\n      dup4\n      sstore\n      swap2\n      dup6\n      mstore\n      dup4\n      dup6\n      keccak256\n      add\n      dup11\n      swap1\n      sstore\n        /* \"modules/JengaCore.sol\":4581:4599  scores[msg.sender] */\n      swap4\n      dup4\n      mstore\n      swap3\n      swap1\n      mstore\n      swap1\n      dup2\n      keccak256\n        /* \"modules/JengaCore.sol\":4581:4605  scores[msg.sender] += 50 */\n      dup1\n      sload\n        /* \"modules/JengaCore.sol\":4603:4605  50 */\n      0x32\n      swap3\n        /* \"modules/JengaCore.sol\":4534:4556  userChamas[msg.sender] */\n      swap1\n        /* \"modules/JengaCore.sol\":4581:4605  scores[msg.sender] += 50 */\n      tag_249\n      swap1\n        /* \"modules/JengaCore.sol\":4603:4605  50 */\n      dup5\n      swap1\n        /* \"modules/JengaCore.sol\":4581:4605  scores[msg.sender] += 50 */\n      tag_194\n      jump\t// in\n    tag_249:\n      swap1\n      swap2\n      sstore\n      pop\n      pop\n        /* \"modules/JengaCore.sol\":4649:4682  ChamaJoined(_chamaId, msg.sender) */\n      0x40\n      dup1\n      mload\n        /* \"#utility.yul\":11706:11731   */\n      dup7\n      dup2\n      mstore\n        /* \"modules/JengaCore.sol\":4671:4681  msg.sender */\n      caller\n        /* \"#utility.yul\":11762:11764   */\n      0x20\n        /* \"#utility.yul\":11747:11765   */\n      dup3\n      add\n        /* \"#utility.yul\":11740:11800   */\n      mstore\n        /* \"modules/JengaCore.sol\":4649:4682  ChamaJoined(_chamaId, msg.sender) */\n      0x40a8c7a25e1eab32f305b79614cb4eb53a2d5d546bc4a5b0b55e5a7dc1228dce\n      swap2\n        /* \"#utility.yul\":11679:11697   */\n      add\n        /* \"modules/JengaCore.sol\":4649:4682  ChamaJoined(_chamaId, msg.sender) */\n      mload(0x40)\n      dup1\n      swap2\n      sub\n      swap1\n      log1\n        /* \"modules/JengaCore.sol\":4697:4749  CollateralDeposited(_chamaId, msg.sender, msg.value) */\n      0xeec2f3feb835e2f2fd44281034b04700a1ddda63dd402949d470a25a7c40b36c\n        /* \"modules/JengaCore.sol\":4717:4725  _chamaId */\n      dup6\n        /* \"modules/JengaCore.sol\":4727:4737  msg.sender */\n      caller\n        /* \"modules/JengaCore.sol\":4739:4748  msg.value */\n      callvalue\n        /* \"modules/JengaCore.sol\":4697:4749  CollateralDeposited(_chamaId, msg.sender, msg.value) */\n      mload(0x40)\n      tag_252\n      swap4\n      swap3\n      swap2\n      swap1\n      tag_224\n      jump\t// in\n    tag_252:\n      mload(0x40)\n      dup1\n      swap2\n      sub\n      swap1\n      log1\n        /* \"modules/JengaCore.sol\":4827:4843  chama.maxMembers */\n      0x03\n      dup3\n      add\n      sload\n        /* \"modules/JengaCore.sol\":4803:4816  chama.members */\n      0x04\n      dup4\n      add\n        /* \"modules/JengaCore.sol\":4803:4823  chama.members.length */\n      sload\n        /* \"modules/JengaCore.sol\":4803:4843  chama.members.length == chama.maxMembers */\n      sub\n        /* \"modules/JengaCore.sol\":4799:4891  if (chama.members.length == chama.maxMembers) {... */\n      tag_254\n      jumpi\n        /* \"modules/JengaCore.sol\":4859:4880  _startChama(_chamaId) */\n      tag_254\n        /* \"modules/JengaCore.sol\":4871:4879  _chamaId */\n      dup6\n        /* \"modules/JengaCore.sol\":4859:4870  _startChama */\n      tag_255\n        /* \"modules/JengaCore.sol\":4859:4880  _startChama(_chamaId) */\n      jump\t// in\n    tag_254:\n        /* \"modules/JengaCore.sol\":3915:4897  {... */\n      pop\n      pop\n        /* \"modules/JengaCore.sol\":1861:1862  _ */\n      pop\n        /* \"modules/JengaCore.sol\":3819:4897  function joinChama(uint256 _chamaId) public payable chamaExists(_chamaId) chamaActive(_chamaId) {... */\n      pop\n      pop\n      jump\t// out\n        /* \"modules/JengaCore.sol\":14233:14393  function isCollateralReturned(uint256 _chamaId, address _member) public view returns (bool) {... */\n    tag_57:\n        /* \"modules/JengaCore.sol\":14319:14323  bool */\n      0x00\n        /* \"modules/JengaCore.sol\":14342:14358  chamas[_chamaId] */\n      dup3\n      dup2\n      mstore\n      0x20\n      dup2\n      dup2\n      mstore\n      0x40\n      dup1\n      dup4\n      keccak256\n      sub(shl(0xa0, 0x01), 0x01)\n        /* \"modules/JengaCore.sol\":14342:14386  chamas[_chamaId].collateralReturned[_member] */\n      dup6\n      and\n      dup5\n      mstore\n        /* \"modules/JengaCore.sol\":14342:14377  chamas[_chamaId].collateralReturned */\n      0x11\n      add\n        /* \"modules/JengaCore.sol\":14342:14386  chamas[_chamaId].collateralReturned[_member] */\n      swap1\n      swap2\n      mstore\n      swap1\n      keccak256\n      sload\n      0xff\n      and\n        /* \"modules/JengaCore.sol\":14233:14393  function isCollateralReturned(uint256 _chamaId, address _member) public view returns (bool) {... */\n    tag_256:\n      swap3\n      swap2\n      pop\n      pop\n      jump\t// out\n        /* \"modules/JengaCore.sol\":418:465  mapping(address => uint256[]) public userChamas */\n    tag_76:\n      mstore(0x20, 0x04)\n      dup2\n      0x00\n      mstore\n      keccak256(0x00, 0x40)\n      dup2\n      dup2\n      sload\n      dup2\n      lt\n      tag_257\n      jumpi\n      0x00\n      dup1\n      revert\n    tag_257:\n      swap1\n      0x00\n      mstore\n      keccak256(0x00, 0x20)\n      add\n      0x00\n      swap2\n      pop\n      swap2\n      pop\n      pop\n      sload\n      dup2\n      jump\t// out\n        /* \"modules/JengaCore.sol\":346:412  mapping(uint256 => JengaTypes.Contribution[]) public contributions */\n    tag_87:\n      mstore(0x20, 0x03)\n      dup2\n      0x00\n      mstore\n      keccak256(0x00, 0x40)\n      dup2\n      dup2\n      sload\n      dup2\n      lt\n      tag_260\n      jumpi\n      0x00\n      dup1\n      revert\n    tag_260:\n      0x00\n      swap2\n      dup3\n      mstore\n      0x20\n      swap1\n      swap2\n      keccak256\n      0x03\n      swap1\n      swap2\n      mul\n      add\n      dup1\n      sload\n      0x01\n      dup3\n      add\n      sload\n      0x02\n      swap1\n      swap3\n      add\n      sload\n      sub(shl(0xa0, 0x01), 0x01)\n      swap1\n      swap2\n      and\n      swap4\n      pop\n      swap1\n      swap2\n      pop\n      dup4\n      jump\t// out\n        /* \"modules/JengaCore.sol\":14537:14765  function getMemberPayoutPosition(uint256 _chamaId, address _member) public view returns (uint256) {... */\n    tag_93:\n        /* \"modules/JengaCore.sol\":14626:14633  uint256 */\n      0x00\n        /* \"modules/JengaCore.sol\":14653:14669  chamas[_chamaId] */\n      dup3\n      dup2\n      mstore\n      0x20\n      dup2\n      dup2\n      mstore\n      0x40\n      dup1\n      dup4\n      keccak256\n      sub(shl(0xa0, 0x01), 0x01)\n        /* \"modules/JengaCore.sol\":14653:14687  chamas[_chamaId].isMember[_member] */\n      dup6\n      and\n      dup5\n      mstore\n        /* \"modules/JengaCore.sol\":14653:14678  chamas[_chamaId].isMember */\n      0x0b\n      add\n        /* \"modules/JengaCore.sol\":14653:14687  chamas[_chamaId].isMember[_member] */\n      swap1\n      swap2\n      mstore\n      dup2\n      keccak256\n      sload\n      0xff\n      and\n        /* \"modules/JengaCore.sol\":14645:14704  require(chamas[_chamaId].isMember[_member], \"Not a member\") */\n      tag_263\n      jumpi\n      mload(0x40)\n      shl(0xe5, 0x461bcd)\n      dup2\n      mstore\n      0x04\n      add\n      tag_174\n      swap1\n      tag_178\n      jump\t// in\n    tag_263:\n      pop\n        /* \"modules/JengaCore.sol\":14721:14727  chamas */\n      0x00\n        /* \"modules/JengaCore.sol\":14721:14737  chamas[_chamaId] */\n      dup3\n      dup2\n      mstore\n      0x20\n      dup2\n      dup2\n      mstore\n      0x40\n      dup1\n      dup4\n      keccak256\n      sub(shl(0xa0, 0x01), 0x01)\n        /* \"modules/JengaCore.sol\":14721:14758  chamas[_chamaId].memberIndex[_member] */\n      dup6\n      and\n      dup5\n      mstore\n        /* \"modules/JengaCore.sol\":14721:14749  chamas[_chamaId].memberIndex */\n      0x0c\n      add\n        /* \"modules/JengaCore.sol\":14721:14758  chamas[_chamaId].memberIndex[_member] */\n      swap1\n      swap2\n      mstore\n      swap1\n      keccak256\n      sload\n        /* \"modules/JengaCore.sol\":14537:14765  function getMemberPayoutPosition(uint256 _chamaId, address _member) public view returns (uint256) {... */\n      swap3\n      swap2\n      pop\n      pop\n      jump\t// out\n        /* \"modules/JengaCore.sol\":14771:15069  function hasMemberReceivedPayout(uint256 _chamaId, address _member) public view returns (bool) {... */\n    tag_108:\n        /* \"modules/JengaCore.sol\":14860:14864  bool */\n      0x00\n        /* \"modules/JengaCore.sol\":14884:14900  chamas[_chamaId] */\n      dup3\n      dup2\n      mstore\n      0x20\n      dup2\n      dup2\n      mstore\n      0x40\n      dup1\n      dup4\n      keccak256\n      sub(shl(0xa0, 0x01), 0x01)\n        /* \"modules/JengaCore.sol\":14884:14918  chamas[_chamaId].isMember[_member] */\n      dup6\n      and\n      dup5\n      mstore\n        /* \"modules/JengaCore.sol\":14884:14909  chamas[_chamaId].isMember */\n      0x0b\n      add\n        /* \"modules/JengaCore.sol\":14884:14918  chamas[_chamaId].isMember[_member] */\n      swap1\n      swap2\n      mstore\n      dup2\n      keccak256\n      sload\n      0xff\n      and\n        /* \"modules/JengaCore.sol\":14876:14935  require(chamas[_chamaId].isMember[_member], \"Not a member\") */\n      tag_266\n      jumpi\n      mload(0x40)\n      shl(0xe5, 0x461bcd)\n      dup2\n      mstore\n      0x04\n      add\n      tag_174\n      swap1\n      tag_178\n      jump\t// in\n    tag_266:\n        /* \"modules/JengaCore.sol\":14945:14964  uint256 memberIndex */\n      0x00\n        /* \"modules/JengaCore.sol\":14967:14983  chamas[_chamaId] */\n      dup4\n      dup2\n      mstore\n      0x20\n      dup2\n      dup2\n      mstore\n      0x40\n      dup1\n      dup4\n      keccak256\n      sub(shl(0xa0, 0x01), 0x01)\n        /* \"modules/JengaCore.sol\":14967:15004  chamas[_chamaId].memberIndex[_member] */\n      dup7\n      and\n      dup5\n      mstore\n        /* \"modules/JengaCore.sol\":14967:14995  chamas[_chamaId].memberIndex */\n      0x0c\n      dup2\n      add\n        /* \"modules/JengaCore.sol\":14967:15004  chamas[_chamaId].memberIndex[_member] */\n      dup4\n      mstore\n      swap1\n      dup4\n      keccak256\n      sload\n        /* \"modules/JengaCore.sol\":15021:15037  chamas[_chamaId] */\n      dup7\n      dup5\n      mstore\n      swap3\n      swap1\n      swap2\n      mstore\n        /* \"modules/JengaCore.sol\":15021:15049  chamas[_chamaId].membersPaid */\n      0x0a\n      add\n        /* \"modules/JengaCore.sol\":15021:15062  chamas[_chamaId].membersPaid[memberIndex] */\n      dup1\n      sload\n        /* \"modules/JengaCore.sol\":14967:15004  chamas[_chamaId].memberIndex[_member] */\n      dup3\n      swap1\n        /* \"modules/JengaCore.sol\":15021:15062  chamas[_chamaId].membersPaid[memberIndex] */\n      dup2\n      lt\n      tag_269\n      jumpi\n      tag_269\n      tag_181\n      jump\t// in\n    tag_269:\n      swap1\n      0x00\n      mstore\n      keccak256(0x00, 0x20)\n      swap1\n      0x20\n      swap2\n      dup3\n      dup3\n      div\n      add\n      swap2\n      swap1\n      mod\n      swap1\n      sload\n      swap1\n      0x0100\n      exp\n      swap1\n      div\n      0xff\n      and\n        /* \"modules/JengaCore.sol\":15014:15062  return chamas[_chamaId].membersPaid[memberIndex] */\n      swap2\n      pop\n      pop\n        /* \"modules/JengaCore.sol\":14771:15069  function hasMemberReceivedPayout(uint256 _chamaId, address _member) public view returns (bool) {... */\n      swap3\n      swap2\n      pop\n      pop\n      jump\t// out\n        /* \"modules/JengaCore.sol\":6600:7991  function stackBTC(uint256 _chamaId) public payable onlyChamaMember(_chamaId) chamaActive(_chamaId) {... */\n    tag_117:\n        /* \"modules/JengaCore.sol\":2061:2067  chamas */\n      0x00\n        /* \"modules/JengaCore.sol\":2061:2077  chamas[_chamaId] */\n      dup2\n      dup2\n      mstore\n      0x20\n      dup2\n      dup2\n      mstore\n      0x40\n      dup1\n      dup4\n      keccak256\n        /* \"modules/JengaCore.sol\":2087:2097  msg.sender */\n      caller\n        /* \"modules/JengaCore.sol\":2061:2098  chamas[_chamaId].isMember[msg.sender] */\n      dup5\n      mstore\n        /* \"modules/JengaCore.sol\":2061:2086  chamas[_chamaId].isMember */\n      0x0b\n      add\n        /* \"modules/JengaCore.sol\":2061:2098  chamas[_chamaId].isMember[msg.sender] */\n      swap1\n      swap2\n      mstore\n      swap1\n      keccak256\n      sload\n        /* \"modules/JengaCore.sol\":6667:6675  _chamaId */\n      dup2\n      swap1\n        /* \"modules/JengaCore.sol\":2061:2098  chamas[_chamaId].isMember[msg.sender] */\n      0xff\n      and\n        /* \"modules/JengaCore.sol\":2053:2121  require(chamas[_chamaId].isMember[msg.sender], \"Not a chama member\") */\n      tag_273\n      jumpi\n      mload(0x40)\n      shl(0xe5, 0x461bcd)\n      dup2\n      mstore\n        /* \"#utility.yul\":12013:12015   */\n      0x20\n        /* \"modules/JengaCore.sol\":2053:2121  require(chamas[_chamaId].isMember[msg.sender], \"Not a chama member\") */\n      0x04\n      dup3\n      add\n        /* \"#utility.yul\":11995:12016   */\n      mstore\n        /* \"#utility.yul\":12052:12054   */\n      0x12\n        /* \"#utility.yul\":12032:12050   */\n      0x24\n      dup3\n      add\n        /* \"#utility.yul\":12025:12055   */\n      mstore\n      shl(0x71, 0x2737ba10309031b430b6b09036b2b6b132b9)\n        /* \"#utility.yul\":12071:12089   */\n      0x44\n      dup3\n      add\n        /* \"#utility.yul\":12064:12112   */\n      mstore\n        /* \"#utility.yul\":12129:12147   */\n      0x64\n      add\n        /* \"modules/JengaCore.sol\":2053:2121  require(chamas[_chamaId].isMember[msg.sender], \"Not a chama member\") */\n      tag_174\n        /* \"#utility.yul\":11811:12153   */\n      jump\n        /* \"modules/JengaCore.sol\":2053:2121  require(chamas[_chamaId].isMember[msg.sender], \"Not a chama member\") */\n    tag_273:\n        /* \"modules/JengaCore.sol\":1932:1938  chamas */\n      0x00\n        /* \"modules/JengaCore.sol\":1932:1948  chamas[_chamaId] */\n      dup3\n      dup2\n      mstore\n      0x20\n      dup2\n      swap1\n      mstore\n      0x40\n      swap1\n      keccak256\n        /* \"modules/JengaCore.sol\":1932:1955  chamas[_chamaId].active */\n      0x05\n      add\n      sload\n        /* \"modules/JengaCore.sol\":6689:6697  _chamaId */\n      dup3\n      swap1\n        /* \"modules/JengaCore.sol\":1932:1955  chamas[_chamaId].active */\n      0xff\n      and\n        /* \"modules/JengaCore.sol\":1924:1976  require(chamas[_chamaId].active, \"Chama not active\") */\n      tag_277\n      jumpi\n      mload(0x40)\n      shl(0xe5, 0x461bcd)\n      dup2\n      mstore\n      0x04\n      add\n      tag_174\n      swap1\n      tag_206\n      jump\t// in\n    tag_277:\n        /* \"modules/JengaCore.sol\":6709:6739  JengaTypes.Chama storage chama */\n      0x00\n        /* \"modules/JengaCore.sol\":6742:6758  chamas[_chamaId] */\n      dup4\n      dup2\n      mstore\n      0x20\n      dup2\n      swap1\n      mstore\n      0x40\n      swap1\n      keccak256\n        /* \"modules/JengaCore.sol\":6789:6813  chama.contributionAmount */\n      0x01\n      dup2\n      add\n      sload\n        /* \"modules/JengaCore.sol\":6776:6785  msg.value */\n      callvalue\n        /* \"modules/JengaCore.sol\":6776:6813  msg.value >= chama.contributionAmount */\n      lt\n      iszero\n        /* \"modules/JengaCore.sol\":6768:6840  require(msg.value >= chama.contributionAmount, \"Below min contribution\") */\n      tag_280\n      jumpi\n      mload(0x40)\n      shl(0xe5, 0x461bcd)\n      dup2\n      mstore\n        /* \"#utility.yul\":12360:12362   */\n      0x20\n        /* \"modules/JengaCore.sol\":6768:6840  require(msg.value >= chama.contributionAmount, \"Below min contribution\") */\n      0x04\n      dup3\n      add\n        /* \"#utility.yul\":12342:12363   */\n      mstore\n        /* \"#utility.yul\":12399:12401   */\n      0x16\n        /* \"#utility.yul\":12379:12397   */\n      0x24\n      dup3\n      add\n        /* \"#utility.yul\":12372:12402   */\n      mstore\n      shl(0x51, 0x2132b637bb9036b4b71031b7b73a3934b13aba34b7b7)\n        /* \"#utility.yul\":12418:12436   */\n      0x44\n      dup3\n      add\n        /* \"#utility.yul\":12411:12463   */\n      mstore\n        /* \"#utility.yul\":12480:12498   */\n      0x64\n      add\n        /* \"modules/JengaCore.sol\":6768:6840  require(msg.value >= chama.contributionAmount, \"Below min contribution\") */\n      tag_174\n        /* \"#utility.yul\":12158:12504   */\n      jump\n        /* \"modules/JengaCore.sol\":6768:6840  require(msg.value >= chama.contributionAmount, \"Below min contribution\") */\n    tag_280:\n        /* \"modules/JengaCore.sol\":6879:6880  0 */\n      0x00\n        /* \"modules/JengaCore.sol\":6858:6863  chama */\n      dup2\n        /* \"modules/JengaCore.sol\":6858:6876  chama.currentCycle */\n      0x06\n      add\n      sload\n        /* \"modules/JengaCore.sol\":6858:6880  chama.currentCycle > 0 */\n      gt\n        /* \"modules/JengaCore.sol\":6850:6902  require(chama.currentCycle > 0, \"Chama not started\") */\n      tag_283\n      jumpi\n      mload(0x40)\n      shl(0xe5, 0x461bcd)\n      dup2\n      mstore\n        /* \"#utility.yul\":9307:9309   */\n      0x20\n        /* \"modules/JengaCore.sol\":6850:6902  require(chama.currentCycle > 0, \"Chama not started\") */\n      0x04\n      dup3\n      add\n        /* \"#utility.yul\":9289:9310   */\n      mstore\n        /* \"#utility.yul\":9346:9348   */\n      0x11\n        /* \"#utility.yul\":9326:9344   */\n      0x24\n      dup3\n      add\n        /* \"#utility.yul\":9319:9349   */\n      mstore\n      shl(0x7a, 0x10da185b58481b9bdd081cdd185c9d1959)\n        /* \"#utility.yul\":9365:9383   */\n      0x44\n      dup3\n      add\n        /* \"#utility.yul\":9358:9405   */\n      mstore\n        /* \"#utility.yul\":9422:9440   */\n      0x64\n      add\n        /* \"modules/JengaCore.sol\":6850:6902  require(chama.currentCycle > 0, \"Chama not started\") */\n      tag_174\n        /* \"#utility.yul\":9105:9446   */\n      jump\n        /* \"modules/JengaCore.sol\":6850:6902  require(chama.currentCycle > 0, \"Chama not started\") */\n    tag_283:\n        /* \"modules/JengaCore.sol\":6945:6955  msg.sender */\n      caller\n        /* \"modules/JengaCore.sol\":6921:6956  hasContributedThisCycle[msg.sender] */\n      0x00\n      swap1\n      dup2\n      mstore\n        /* \"modules/JengaCore.sol\":6921:6944  hasContributedThisCycle */\n      0x07\n        /* \"modules/JengaCore.sol\":6921:6956  hasContributedThisCycle[msg.sender] */\n      0x20\n      swap1\n      dup2\n      mstore\n      0x40\n      dup1\n      dup4\n      keccak256\n        /* \"modules/JengaCore.sol\":6921:6966  hasContributedThisCycle[msg.sender][_chamaId] */\n      dup8\n      dup5\n      mstore\n      swap1\n      swap2\n      mstore\n      swap1\n      keccak256\n      sload\n      0xff\n      and\n        /* \"modules/JengaCore.sol\":6920:6966  !hasContributedThisCycle[msg.sender][_chamaId] */\n      iszero\n        /* \"modules/JengaCore.sol\":6912:7001  require(!hasContributedThisCycle[msg.sender][_chamaId], \"Already contributed this cycle\") */\n      tag_285\n      jumpi\n      mload(0x40)\n      shl(0xe5, 0x461bcd)\n      dup2\n      mstore\n        /* \"#utility.yul\":12711:12713   */\n      0x20\n        /* \"modules/JengaCore.sol\":6912:7001  require(!hasContributedThisCycle[msg.sender][_chamaId], \"Already contributed this cycle\") */\n      0x04\n      dup3\n      add\n        /* \"#utility.yul\":12693:12714   */\n      mstore\n        /* \"#utility.yul\":12750:12752   */\n      0x1e\n        /* \"#utility.yul\":12730:12748   */\n      0x24\n      dup3\n      add\n        /* \"#utility.yul\":12723:12753   */\n      mstore\n        /* \"#utility.yul\":12789:12821   */\n      0x416c726561647920636f6e74726962757465642074686973206379636c650000\n        /* \"#utility.yul\":12769:12787   */\n      0x44\n      dup3\n      add\n        /* \"#utility.yul\":12762:12822   */\n      mstore\n        /* \"#utility.yul\":12839:12857   */\n      0x64\n      add\n        /* \"modules/JengaCore.sol\":6912:7001  require(!hasContributedThisCycle[msg.sender][_chamaId], \"Already contributed this cycle\") */\n      tag_174\n        /* \"#utility.yul\":12509:12863   */\n      jump\n        /* \"modules/JengaCore.sol\":6912:7001  require(!hasContributedThisCycle[msg.sender][_chamaId], \"Already contributed this cycle\") */\n    tag_285:\n        /* \"modules/JengaCore.sol\":7139:7144  chama */\n      dup1\n        /* \"modules/JengaCore.sol\":7139:7158  chama.cycleDuration */\n      0x02\n      add\n      sload\n        /* \"modules/JengaCore.sol\":7112:7117  chama */\n      dup2\n        /* \"modules/JengaCore.sol\":7112:7136  chama.lastCycleTimestamp */\n      0x08\n      add\n      sload\n        /* \"modules/JengaCore.sol\":7112:7158  chama.lastCycleTimestamp + chama.cycleDuration */\n      tag_288\n      swap2\n      swap1\n      tag_194\n      jump\t// in\n    tag_288:\n        /* \"modules/JengaCore.sol\":7093:7108  block.timestamp */\n      timestamp\n        /* \"modules/JengaCore.sol\":7093:7158  block.timestamp >= chama.lastCycleTimestamp + chama.cycleDuration */\n      lt\n      iszero\n        /* \"modules/JengaCore.sol\":7093:7198  block.timestamp >= chama.lastCycleTimestamp + chama.cycleDuration || ... */\n      dup1\n      tag_289\n      jumpi\n      pop\n        /* \"modules/JengaCore.sol\":7175:7180  chama */\n      dup1\n        /* \"modules/JengaCore.sol\":7175:7193  chama.currentCycle */\n      0x06\n      add\n      sload\n        /* \"modules/JengaCore.sol\":7197:7198  1 */\n      0x01\n        /* \"modules/JengaCore.sol\":7175:7198  chama.currentCycle == 1 */\n      eq\n        /* \"modules/JengaCore.sol\":7093:7198  block.timestamp >= chama.lastCycleTimestamp + chama.cycleDuration || ... */\n    tag_289:\n        /* \"modules/JengaCore.sol\":7072:7240  require(... */\n      tag_290\n      jumpi\n      mload(0x40)\n      shl(0xe5, 0x461bcd)\n      dup2\n      mstore\n        /* \"#utility.yul\":13070:13072   */\n      0x20\n        /* \"modules/JengaCore.sol\":7072:7240  require(... */\n      0x04\n      dup3\n      add\n        /* \"#utility.yul\":13052:13073   */\n      mstore\n        /* \"#utility.yul\":13109:13111   */\n      0x0f\n        /* \"#utility.yul\":13089:13107   */\n      0x24\n      dup3\n      add\n        /* \"#utility.yul\":13082:13112   */\n      mstore\n      shl(0x88, 0x4379636c65206e6f74207265616479)\n        /* \"#utility.yul\":13128:13146   */\n      0x44\n      dup3\n      add\n        /* \"#utility.yul\":13121:13166   */\n      mstore\n        /* \"#utility.yul\":13183:13201   */\n      0x64\n      add\n        /* \"modules/JengaCore.sol\":7072:7240  require(... */\n      tag_174\n        /* \"#utility.yul\":12868:13207   */\n      jump\n        /* \"modules/JengaCore.sol\":7072:7240  require(... */\n    tag_290:\n        /* \"modules/JengaCore.sol\":7282:7305  contributions[_chamaId] */\n      0x00\n      dup5\n      dup2\n      mstore\n        /* \"modules/JengaCore.sol\":7282:7295  contributions */\n      0x03\n        /* \"modules/JengaCore.sol\":7282:7305  contributions[_chamaId] */\n      0x20\n      dup2\n      dup2\n      mstore\n      0x40\n      dup1\n      dup5\n      keccak256\n        /* \"modules/JengaCore.sol\":7311:7454  JengaTypes.Contribution({... */\n      dup2\n      mload\n      0x60\n      dup2\n      add\n      dup4\n      mstore\n        /* \"modules/JengaCore.sol\":7362:7372  msg.sender */\n      caller\n        /* \"modules/JengaCore.sol\":7311:7454  JengaTypes.Contribution({... */\n      dup1\n      dup3\n      mstore\n        /* \"modules/JengaCore.sol\":7394:7403  msg.value */\n      callvalue\n        /* \"modules/JengaCore.sol\":7311:7454  JengaTypes.Contribution({... */\n      dup3\n      dup7\n      add\n      dup2\n      dup2\n      mstore\n        /* \"modules/JengaCore.sol\":7428:7443  block.timestamp */\n      timestamp\n        /* \"modules/JengaCore.sol\":7311:7454  JengaTypes.Contribution({... */\n      dup5\n      dup8\n      add\n      swap1\n      dup2\n      mstore\n        /* \"modules/JengaCore.sol\":7282:7455  contributions[_chamaId].push(JengaTypes.Contribution({... */\n      dup6\n      sload\n      0x01\n      dup1\n      dup3\n      add\n      dup9\n      sstore\n      swap7\n      dup12\n      mstore\n      dup9\n      dup12\n      keccak256\n      swap6\n      mload\n      swap10\n      mul\n      swap1\n      swap5\n      add\n      dup1\n      sload\n      not(sub(shl(0xa0, 0x01), 0x01))\n      and\n      sub(shl(0xa0, 0x01), 0x01)\n      swap1\n      swap10\n      and\n      swap9\n      swap1\n      swap9\n      or\n      dup9\n      sstore\n      mload\n      swap4\n      dup8\n      add\n      swap4\n      swap1\n      swap4\n      sstore\n      swap1\n      mload\n      0x02\n      swap1\n      swap6\n      add\n      swap5\n      swap1\n      swap5\n      sstore\n        /* \"modules/JengaCore.sol\":7466:7495  userContributions[msg.sender] */\n      swap3\n      dup5\n      mstore\n        /* \"modules/JengaCore.sol\":7466:7483  userContributions */\n      0x05\n        /* \"modules/JengaCore.sol\":7466:7495  userContributions[msg.sender] */\n      dup3\n      mstore\n      dup1\n      dup5\n      keccak256\n        /* \"modules/JengaCore.sol\":7466:7505  userContributions[msg.sender][_chamaId] */\n      dup9\n      dup6\n      mstore\n      swap1\n      swap2\n      mstore\n      dup3\n      keccak256\n        /* \"modules/JengaCore.sol\":7466:7518  userContributions[msg.sender][_chamaId] += msg.value */\n      dup1\n      sload\n        /* \"modules/JengaCore.sol\":7394:7403  msg.value */\n      swap2\n      swap3\n        /* \"modules/JengaCore.sol\":7466:7505  userContributions[msg.sender][_chamaId] */\n      swap1\n      swap2\n        /* \"modules/JengaCore.sol\":7466:7518  userContributions[msg.sender][_chamaId] += msg.value */\n      tag_294\n      swap1\n        /* \"modules/JengaCore.sol\":7394:7403  msg.value */\n      dup5\n      swap1\n        /* \"modules/JengaCore.sol\":7466:7518  userContributions[msg.sender][_chamaId] += msg.value */\n      tag_194\n      jump\t// in\n    tag_294:\n      swap1\n      swap2\n      sstore\n      pop\n      pop\n        /* \"modules/JengaCore.sol\":7554:7564  msg.sender */\n      caller\n        /* \"modules/JengaCore.sol\":7528:7565  lastContributionTimestamp[msg.sender] */\n      0x00\n      dup2\n      dup2\n      mstore\n        /* \"modules/JengaCore.sol\":7528:7553  lastContributionTimestamp */\n      0x06\n        /* \"modules/JengaCore.sol\":7528:7565  lastContributionTimestamp[msg.sender] */\n      0x20\n      dup2\n      dup2\n      mstore\n      0x40\n      dup1\n      dup5\n      keccak256\n        /* \"modules/JengaCore.sol\":7528:7575  lastContributionTimestamp[msg.sender][_chamaId] */\n      dup10\n      dup6\n      mstore\n      dup3\n      mstore\n      dup1\n      dup5\n      keccak256\n        /* \"modules/JengaCore.sol\":7578:7593  block.timestamp */\n      timestamp\n        /* \"modules/JengaCore.sol\":7528:7593  lastContributionTimestamp[msg.sender][_chamaId] = block.timestamp */\n      swap1\n      sstore\n        /* \"modules/JengaCore.sol\":7603:7638  hasContributedThisCycle[msg.sender] */\n      swap4\n      dup4\n      mstore\n        /* \"modules/JengaCore.sol\":7603:7626  hasContributedThisCycle */\n      0x07\n        /* \"modules/JengaCore.sol\":7603:7638  hasContributedThisCycle[msg.sender] */\n      dup2\n      mstore\n      dup4\n      dup4\n      keccak256\n        /* \"modules/JengaCore.sol\":7603:7648  hasContributedThisCycle[msg.sender][_chamaId] */\n      dup9\n      dup5\n      mstore\n      dup2\n      mstore\n      dup4\n      dup4\n      keccak256\n        /* \"modules/JengaCore.sol\":7603:7655  hasContributedThisCycle[msg.sender][_chamaId] = true */\n      dup1\n      sload\n      not(0xff)\n      and\n        /* \"modules/JengaCore.sol\":7651:7655  true */\n      0x01\n        /* \"modules/JengaCore.sol\":7603:7655  hasContributedThisCycle[msg.sender][_chamaId] = true */\n      or\n      swap1\n      sstore\n        /* \"modules/JengaCore.sol\":7699:7717  chama.currentCycle */\n      swap1\n      dup5\n      add\n      sload\n        /* \"modules/JengaCore.sol\":7674:7718  chama.cycleContributions[chama.currentCycle] */\n      dup3\n      mstore\n        /* \"modules/JengaCore.sol\":7674:7698  chama.cycleContributions */\n      0x0d\n      dup5\n      add\n        /* \"modules/JengaCore.sol\":7674:7718  chama.cycleContributions[chama.currentCycle] */\n      swap1\n      mstore\n      swap1\n      dup2\n      keccak256\n        /* \"modules/JengaCore.sol\":7674:7731  chama.cycleContributions[chama.currentCycle] += msg.value */\n      dup1\n      sload\n        /* \"modules/JengaCore.sol\":7722:7731  msg.value */\n      callvalue\n      swap3\n        /* \"modules/JengaCore.sol\":7528:7565  lastContributionTimestamp[msg.sender] */\n      swap1\n        /* \"modules/JengaCore.sol\":7674:7731  chama.cycleContributions[chama.currentCycle] += msg.value */\n      tag_295\n      swap1\n        /* \"modules/JengaCore.sol\":7722:7731  msg.value */\n      dup5\n      swap1\n        /* \"modules/JengaCore.sol\":7674:7731  chama.cycleContributions[chama.currentCycle] += msg.value */\n      tag_194\n      jump\t// in\n    tag_295:\n      swap3\n      pop\n      pop\n      dup2\n      swap1\n      sstore\n      pop\n        /* \"modules/JengaCore.sol\":7760:7769  msg.value */\n      callvalue\n        /* \"modules/JengaCore.sol\":7741:7746  chama */\n      dup2\n        /* \"modules/JengaCore.sol\":7741:7756  chama.totalPool */\n      0x09\n      add\n      0x00\n        /* \"modules/JengaCore.sol\":7741:7769  chama.totalPool += msg.value */\n      dup3\n      dup3\n      sload\n      tag_296\n      swap2\n      swap1\n      tag_194\n      jump\t// in\n    tag_296:\n      swap1\n      swap2\n      sstore\n      pop\n      pop\n        /* \"modules/JengaCore.sol\":7795:7805  msg.sender */\n      caller\n        /* \"modules/JengaCore.sol\":7788:7806  scores[msg.sender] */\n      0x00\n      swap1\n      dup2\n      mstore\n        /* \"modules/JengaCore.sol\":7788:7794  scores */\n      0x01\n        /* \"modules/JengaCore.sol\":7788:7806  scores[msg.sender] */\n      0x20\n      mstore\n      0x40\n      dup2\n      keccak256\n        /* \"modules/JengaCore.sol\":7788:7812  scores[msg.sender] += 25 */\n      dup1\n      sload\n        /* \"modules/JengaCore.sol\":7810:7812  25 */\n      0x19\n      swap3\n        /* \"modules/JengaCore.sol\":7788:7806  scores[msg.sender] */\n      swap1\n        /* \"modules/JengaCore.sol\":7788:7812  scores[msg.sender] += 25 */\n      tag_297\n      swap1\n        /* \"modules/JengaCore.sol\":7810:7812  25 */\n      dup5\n      swap1\n        /* \"modules/JengaCore.sol\":7788:7812  scores[msg.sender] += 25 */\n      tag_194\n      jump\t// in\n    tag_297:\n      swap1\n      swap2\n      sstore\n      pop\n      pop\n        /* \"modules/JengaCore.sol\":7855:7904  ContributionMade(_chamaId, msg.sender, msg.value) */\n      mload(0x40)\n      0x0a4a91237423e0a1766a761c7cb029311d8b95d6b1b81db1b949a70c98b4e08e\n      swap1\n      tag_298\n      swap1\n        /* \"modules/JengaCore.sol\":7872:7880  _chamaId */\n      dup7\n      swap1\n        /* \"modules/JengaCore.sol\":7882:7892  msg.sender */\n      caller\n      swap1\n        /* \"modules/JengaCore.sol\":7894:7903  msg.value */\n      callvalue\n      swap1\n        /* \"modules/JengaCore.sol\":7855:7904  ContributionMade(_chamaId, msg.sender, msg.value) */\n      tag_224\n      jump\t// in\n    tag_298:\n      mload(0x40)\n      dup1\n      swap2\n      sub\n      swap1\n      log1\n        /* \"modules/JengaCore.sol\":7953:7984  _checkCycleCompletion(_chamaId) */\n      tag_299\n        /* \"modules/JengaCore.sol\":7975:7983  _chamaId */\n      dup5\n        /* \"modules/JengaCore.sol\":7953:7974  _checkCycleCompletion */\n      tag_300\n        /* \"modules/JengaCore.sol\":7953:7984  _checkCycleCompletion(_chamaId) */\n      jump\t// in\n    tag_299:\n        /* \"modules/JengaCore.sol\":6699:7991  {... */\n      pop\n        /* \"modules/JengaCore.sol\":2131:2132  _ */\n      pop\n        /* \"modules/JengaCore.sol\":6600:7991  function stackBTC(uint256 _chamaId) public payable onlyChamaMember(_chamaId) chamaActive(_chamaId) {... */\n      pop\n      pop\n      jump\t// out\n        /* \"modules/JengaCore.sol\":15729:15846  function updateUserScore(address _user, uint256 _points) external onlyOwner {... */\n    tag_121:\n        /* \"modules/JengaCore.sol\":1687:1692  owner */\n      and(sub(shl(0xa0, 0x01), 0x01), sload(0x09))\n        /* \"modules/JengaCore.sol\":1673:1683  msg.sender */\n      caller\n        /* \"modules/JengaCore.sol\":1673:1692  msg.sender == owner */\n      eq\n        /* \"modules/JengaCore.sol\":1665:1707  require(msg.sender == owner, \"Only owner\") */\n      tag_302\n      jumpi\n      mload(0x40)\n      shl(0xe5, 0x461bcd)\n      dup2\n      mstore\n        /* \"#utility.yul\":13414:13416   */\n      0x20\n        /* \"modules/JengaCore.sol\":1665:1707  require(msg.sender == owner, \"Only owner\") */\n      0x04\n      dup3\n      add\n        /* \"#utility.yul\":13396:13417   */\n      mstore\n        /* \"#utility.yul\":13453:13455   */\n      0x0a\n        /* \"#utility.yul\":13433:13451   */\n      0x24\n      dup3\n      add\n        /* \"#utility.yul\":13426:13456   */\n      mstore\n      shl(0xb1, 0x27b7363c9037bbb732b9)\n        /* \"#utility.yul\":13472:13490   */\n      0x44\n      dup3\n      add\n        /* \"#utility.yul\":13465:13505   */\n      mstore\n        /* \"#utility.yul\":13522:13540   */\n      0x64\n      add\n        /* \"modules/JengaCore.sol\":1665:1707  require(msg.sender == owner, \"Only owner\") */\n      tag_174\n        /* \"#utility.yul\":13212:13546   */\n      jump\n        /* \"modules/JengaCore.sol\":1665:1707  require(msg.sender == owner, \"Only owner\") */\n    tag_302:\n      sub(shl(0xa0, 0x01), 0x01)\n        /* \"modules/JengaCore.sol\":15815:15828  scores[_user] */\n      dup3\n      and\n      0x00\n      swap1\n      dup2\n      mstore\n        /* \"modules/JengaCore.sol\":15815:15821  scores */\n      0x01\n        /* \"modules/JengaCore.sol\":15815:15828  scores[_user] */\n      0x20\n      mstore\n      0x40\n      dup2\n      keccak256\n        /* \"modules/JengaCore.sol\":15815:15839  scores[_user] += _points */\n      dup1\n      sload\n        /* \"modules/JengaCore.sol\":15832:15839  _points */\n      dup4\n      swap3\n        /* \"modules/JengaCore.sol\":15815:15828  scores[_user] */\n      swap1\n        /* \"modules/JengaCore.sol\":15815:15839  scores[_user] += _points */\n      tag_306\n      swap1\n        /* \"modules/JengaCore.sol\":15832:15839  _points */\n      dup5\n      swap1\n        /* \"modules/JengaCore.sol\":15815:15839  scores[_user] += _points */\n      tag_194\n      jump\t// in\n    tag_306:\n      swap1\n      swap2\n      sstore\n      pop\n      pop\n      pop\n      pop\n        /* \"modules/JengaCore.sol\":15729:15846  function updateUserScore(address _user, uint256 _points) external onlyOwner {... */\n      jump\t// out\n        /* \"modules/JengaCore.sol\":13130:13925  function getChamaInfo(uint256 _chamaId) public view returns (... */\n    tag_135:\n        /* \"modules/JengaCore.sol\":13200:13218  string memory name */\n      0x60\n        /* \"modules/JengaCore.sol\":13228:13254  uint256 contributionAmount */\n      0x00\n        /* \"modules/JengaCore.sol\":13264:13285  uint256 cycleDuration */\n      0x00\n        /* \"modules/JengaCore.sol\":13295:13313  uint256 maxMembers */\n      0x00\n        /* \"modules/JengaCore.sol\":13323:13334  bool active */\n      0x00\n        /* \"modules/JengaCore.sol\":13344:13364  uint256 currentCycle */\n      0x00\n        /* \"modules/JengaCore.sol\":13374:13403  uint256 currentRecipientIndex */\n      0x00\n        /* \"modules/JengaCore.sol\":13413:13439  uint256 lastCycleTimestamp */\n      0x00\n        /* \"modules/JengaCore.sol\":13449:13466  uint256 totalPool */\n      0x00\n        /* \"modules/JengaCore.sol\":13476:13499  uint256 totalCollateral */\n      0x00\n        /* \"modules/JengaCore.sol\":13516:13546  JengaTypes.Chama storage chama */\n      0x00\n        /* \"modules/JengaCore.sol\":13549:13555  chamas */\n      0x00\n        /* \"modules/JengaCore.sol\":13549:13565  chamas[_chamaId] */\n      0x00\n        /* \"modules/JengaCore.sol\":13556:13564  _chamaId */\n      dup14\n        /* \"modules/JengaCore.sol\":13549:13565  chamas[_chamaId] */\n      dup2\n      mstore\n      0x20\n      add\n      swap1\n      dup2\n      mstore\n      0x20\n      add\n      0x00\n      keccak256\n        /* \"modules/JengaCore.sol\":13516:13565  JengaTypes.Chama storage chama = chamas[_chamaId] */\n      swap1\n      pop\n        /* \"modules/JengaCore.sol\":13596:13601  chama */\n      dup1\n        /* \"modules/JengaCore.sol\":13596:13606  chama.name */\n      0x00\n      add\n        /* \"modules/JengaCore.sol\":13620:13625  chama */\n      dup2\n        /* \"modules/JengaCore.sol\":13620:13644  chama.contributionAmount */\n      0x01\n      add\n      sload\n        /* \"modules/JengaCore.sol\":13658:13663  chama */\n      dup3\n        /* \"modules/JengaCore.sol\":13658:13677  chama.cycleDuration */\n      0x02\n      add\n      sload\n        /* \"modules/JengaCore.sol\":13691:13696  chama */\n      dup4\n        /* \"modules/JengaCore.sol\":13691:13707  chama.maxMembers */\n      0x03\n      add\n      sload\n        /* \"modules/JengaCore.sol\":13721:13726  chama */\n      dup5\n        /* \"modules/JengaCore.sol\":13721:13733  chama.active */\n      0x05\n      add\n      0x00\n      swap1\n      sload\n      swap1\n      0x0100\n      exp\n      swap1\n      div\n      0xff\n      and\n        /* \"modules/JengaCore.sol\":13747:13752  chama */\n      dup6\n        /* \"modules/JengaCore.sol\":13747:13765  chama.currentCycle */\n      0x06\n      add\n      sload\n        /* \"modules/JengaCore.sol\":13779:13784  chama */\n      dup7\n        /* \"modules/JengaCore.sol\":13779:13806  chama.currentRecipientIndex */\n      0x07\n      add\n      sload\n        /* \"modules/JengaCore.sol\":13820:13825  chama */\n      dup8\n        /* \"modules/JengaCore.sol\":13820:13844  chama.lastCycleTimestamp */\n      0x08\n      add\n      sload\n        /* \"modules/JengaCore.sol\":13858:13863  chama */\n      dup9\n        /* \"modules/JengaCore.sol\":13858:13873  chama.totalPool */\n      0x09\n      add\n      sload\n        /* \"modules/JengaCore.sol\":13887:13892  chama */\n      dup10\n        /* \"modules/JengaCore.sol\":13887:13908  chama.totalCollateral */\n      0x12\n      add\n      sload\n        /* \"modules/JengaCore.sol\":13575:13918  return (... */\n      dup10\n      dup1\n      sload\n      tag_310\n      swap1\n      tag_198\n      jump\t// in\n    tag_310:\n      dup1\n      0x1f\n      add\n      0x20\n      dup1\n      swap2\n      div\n      mul\n      0x20\n      add\n      mload(0x40)\n      swap1\n      dup2\n      add\n      0x40\n      mstore\n      dup1\n      swap3\n      swap2\n      swap1\n      dup2\n      dup2\n      mstore\n      0x20\n      add\n      dup3\n      dup1\n      sload\n      tag_311\n      swap1\n      tag_198\n      jump\t// in\n    tag_311:\n      dup1\n      iszero\n      tag_312\n      jumpi\n      dup1\n      0x1f\n      lt\n      tag_313\n      jumpi\n      0x0100\n      dup1\n      dup4\n      sload\n      div\n      mul\n      dup4\n      mstore\n      swap2\n      0x20\n      add\n      swap2\n      jump(tag_312)\n    tag_313:\n      dup3\n      add\n      swap2\n      swap1\n      0x00\n      mstore\n      keccak256(0x00, 0x20)\n      swap1\n    tag_314:\n      dup2\n      sload\n      dup2\n      mstore\n      swap1\n      0x01\n      add\n      swap1\n      0x20\n      add\n      dup1\n      dup4\n      gt\n      tag_314\n      jumpi\n      dup3\n      swap1\n      sub\n      0x1f\n      and\n      dup3\n      add\n      swap2\n    tag_312:\n      pop\n      pop\n      pop\n      pop\n      pop\n      swap10\n      pop\n      swap11\n      pop\n      swap11\n      pop\n      swap11\n      pop\n      swap11\n      pop\n      swap11\n      pop\n      swap11\n      pop\n      swap11\n      pop\n      swap11\n      pop\n      swap11\n      pop\n      swap11\n      pop\n      pop\n        /* \"modules/JengaCore.sol\":13130:13925  function getChamaInfo(uint256 _chamaId) public view returns (... */\n      swap2\n      swap4\n      swap6\n      swap8\n      swap10\n      pop\n      swap2\n      swap4\n      swap6\n      swap8\n      swap10\n      jump\t// out\n        /* \"modules/JengaCore.sol\":292:340  mapping(address => string[]) public achievements */\n    tag_140:\n      mstore(0x20, 0x02)\n      dup2\n      0x00\n      mstore\n      keccak256(0x00, 0x40)\n      dup2\n      dup2\n      sload\n      dup2\n      lt\n      tag_315\n      jumpi\n      0x00\n      dup1\n      revert\n    tag_315:\n      swap1\n      0x00\n      mstore\n      keccak256(0x00, 0x20)\n      add\n      0x00\n      swap2\n      pop\n      swap2\n      pop\n      pop\n      dup1\n      sload\n      tag_317\n      swap1\n      tag_198\n      jump\t// in\n    tag_317:\n      dup1\n      0x1f\n      add\n      0x20\n      dup1\n      swap2\n      div\n      mul\n      0x20\n      add\n      mload(0x40)\n      swap1\n      dup2\n      add\n      0x40\n      mstore\n      dup1\n      swap3\n      swap2\n      swap1\n      dup2\n      dup2\n      mstore\n      0x20\n      add\n      dup3\n      dup1\n      sload\n      tag_318\n      swap1\n      tag_198\n      jump\t// in\n    tag_318:\n      dup1\n      iszero\n      tag_319\n      jumpi\n      dup1\n      0x1f\n      lt\n      tag_320\n      jumpi\n      0x0100\n      dup1\n      dup4\n      sload\n      div\n      mul\n      dup4\n      mstore\n      swap2\n      0x20\n      add\n      swap2\n      jump(tag_319)\n    tag_320:\n      dup3\n      add\n      swap2\n      swap1\n      0x00\n      mstore\n      keccak256(0x00, 0x20)\n      swap1\n    tag_321:\n      dup2\n      sload\n      dup2\n      mstore\n      swap1\n      0x01\n      add\n      swap1\n      0x20\n      add\n      dup1\n      dup4\n      gt\n      tag_321\n      jumpi\n      dup3\n      swap1\n      sub\n      0x1f\n      and\n      dup3\n      add\n      swap2\n    tag_319:\n      pop\n      pop\n      pop\n      pop\n      pop\n      dup2\n      jump\t// out\n        /* \"modules/JengaCore.sol\":13931:14061  function getChamaMembers(uint256 _chamaId) public view returns (address[] memory) {... */\n    tag_155:\n        /* \"modules/JengaCore.sol\":14030:14036  chamas */\n      0x00\n        /* \"modules/JengaCore.sol\":14030:14046  chamas[_chamaId] */\n      dup2\n      dup2\n      mstore\n      0x20\n      dup2\n      dup2\n      mstore\n      0x40\n      swap2\n      dup3\n      swap1\n      keccak256\n        /* \"modules/JengaCore.sol\":14030:14054  chamas[_chamaId].members */\n      0x04\n      add\n        /* \"modules/JengaCore.sol\":14023:14054  return chamas[_chamaId].members */\n      dup1\n      sload\n      dup4\n      mload\n      dup2\n      dup5\n      mul\n      dup2\n      add\n      dup5\n      add\n      swap1\n      swap5\n      mstore\n      dup1\n      dup5\n      mstore\n        /* \"modules/JengaCore.sol\":13995:14011  address[] memory */\n      0x60\n      swap4\n        /* \"modules/JengaCore.sol\":14023:14054  return chamas[_chamaId].members */\n      swap3\n      dup4\n      add\n        /* \"modules/JengaCore.sol\":14030:14054  chamas[_chamaId].members */\n      dup3\n        /* \"modules/JengaCore.sol\":14023:14054  return chamas[_chamaId].members */\n      dup3\n      dup1\n      iszero\n      tag_323\n      jumpi\n      0x20\n      mul\n      dup3\n      add\n      swap2\n      swap1\n      0x00\n      mstore\n      keccak256(0x00, 0x20)\n      swap1\n    tag_324:\n      dup2\n      sload\n      sub(shl(0xa0, 0x01), 0x01)\n      and\n      dup2\n      mstore\n      0x01\n      swap1\n      swap2\n      add\n      swap1\n      0x20\n      add\n      dup1\n      dup4\n      gt\n      tag_324\n      jumpi\n    tag_323:\n      pop\n      pop\n      pop\n      pop\n      pop\n      swap1\n      pop\n        /* \"modules/JengaCore.sol\":13931:14061  function getChamaMembers(uint256 _chamaId) public view returns (address[] memory) {... */\n      swap2\n      swap1\n      pop\n      jump\t// out\n        /* \"modules/JengaCore.sol\":4978:5374  function startChama(uint256 _chamaId) public chamaExists(_chamaId) chamaActive(_chamaId) {... */\n    tag_161:\n        /* \"modules/JengaCore.sol\":5035:5043  _chamaId */\n      dup1\n        /* \"modules/JengaCore.sol\":1799:1800  0 */\n      0x00\n        /* \"modules/JengaCore.sol\":1788:1796  _chamaId */\n      dup2\n        /* \"modules/JengaCore.sol\":1788:1800  _chamaId > 0 */\n      gt\n        /* \"modules/JengaCore.sol\":1788:1826  _chamaId > 0 && _chamaId <= chamaCount */\n      dup1\n      iszero\n      tag_326\n      jumpi\n      pop\n        /* \"modules/JengaCore.sol\":1816:1826  chamaCount */\n      sload(0x08)\n        /* \"modules/JengaCore.sol\":1804:1812  _chamaId */\n      dup2\n        /* \"modules/JengaCore.sol\":1804:1826  _chamaId <= chamaCount */\n      gt\n      iszero\n        /* \"modules/JengaCore.sol\":1788:1826  _chamaId > 0 && _chamaId <= chamaCount */\n    tag_326:\n        /* \"modules/JengaCore.sol\":1780:1851  require(_chamaId > 0 && _chamaId <= chamaCount, \"Chama does not exist\") */\n      tag_327\n      jumpi\n      mload(0x40)\n      shl(0xe5, 0x461bcd)\n      dup2\n      mstore\n        /* \"#utility.yul\":10349:10351   */\n      0x20\n        /* \"modules/JengaCore.sol\":1780:1851  require(_chamaId > 0 && _chamaId <= chamaCount, \"Chama does not exist\") */\n      0x04\n      dup3\n      add\n        /* \"#utility.yul\":10331:10352   */\n      mstore\n        /* \"#utility.yul\":10388:10390   */\n      0x14\n        /* \"#utility.yul\":10368:10386   */\n      0x24\n      dup3\n      add\n        /* \"#utility.yul\":10361:10391   */\n      mstore\n      shl(0x62, 0x10da185b5848191bd95cc81b9bdd08195e1a5cdd)\n        /* \"#utility.yul\":10407:10425   */\n      0x44\n      dup3\n      add\n        /* \"#utility.yul\":10400:10450   */\n      mstore\n        /* \"#utility.yul\":10467:10485   */\n      0x64\n      add\n        /* \"modules/JengaCore.sol\":1780:1851  require(_chamaId > 0 && _chamaId <= chamaCount, \"Chama does not exist\") */\n      tag_174\n        /* \"#utility.yul\":10147:10491   */\n      jump\n        /* \"modules/JengaCore.sol\":1780:1851  require(_chamaId > 0 && _chamaId <= chamaCount, \"Chama does not exist\") */\n    tag_327:\n        /* \"modules/JengaCore.sol\":1932:1938  chamas */\n      0x00\n        /* \"modules/JengaCore.sol\":1932:1948  chamas[_chamaId] */\n      dup3\n      dup2\n      mstore\n      0x20\n      dup2\n      swap1\n      mstore\n      0x40\n      swap1\n      keccak256\n        /* \"modules/JengaCore.sol\":1932:1955  chamas[_chamaId].active */\n      0x05\n      add\n      sload\n        /* \"modules/JengaCore.sol\":5057:5065  _chamaId */\n      dup3\n      swap1\n        /* \"modules/JengaCore.sol\":1932:1955  chamas[_chamaId].active */\n      0xff\n      and\n        /* \"modules/JengaCore.sol\":1924:1976  require(chamas[_chamaId].active, \"Chama not active\") */\n      tag_330\n      jumpi\n      mload(0x40)\n      shl(0xe5, 0x461bcd)\n      dup2\n      mstore\n      0x04\n      add\n      tag_174\n      swap1\n      tag_206\n      jump\t// in\n    tag_330:\n        /* \"modules/JengaCore.sol\":5077:5107  JengaTypes.Chama storage chama */\n      0x00\n        /* \"modules/JengaCore.sol\":5110:5126  chamas[_chamaId] */\n      dup4\n      dup2\n      mstore\n      0x20\n      dup2\n      swap1\n      mstore\n      0x40\n      swap1\n      keccak256\n        /* \"modules/JengaCore.sol\":5144:5162  chama.currentCycle */\n      0x06\n      dup2\n      add\n      sload\n        /* \"modules/JengaCore.sol\":5144:5167  chama.currentCycle == 0 */\n      iszero\n        /* \"modules/JengaCore.sol\":5136:5193  require(chama.currentCycle == 0, \"Chama already started\") */\n      tag_333\n      jumpi\n      mload(0x40)\n      shl(0xe5, 0x461bcd)\n      dup2\n      mstore\n        /* \"#utility.yul\":13753:13755   */\n      0x20\n        /* \"modules/JengaCore.sol\":5136:5193  require(chama.currentCycle == 0, \"Chama already started\") */\n      0x04\n      dup3\n      add\n        /* \"#utility.yul\":13735:13756   */\n      mstore\n        /* \"#utility.yul\":13792:13794   */\n      0x15\n        /* \"#utility.yul\":13772:13790   */\n      0x24\n      dup3\n      add\n        /* \"#utility.yul\":13765:13795   */\n      mstore\n      shl(0x5a, 0x10da185b5848185b1c9958591e481cdd185c9d1959)\n        /* \"#utility.yul\":13811:13829   */\n      0x44\n      dup3\n      add\n        /* \"#utility.yul\":13804:13855   */\n      mstore\n        /* \"#utility.yul\":13872:13890   */\n      0x64\n      add\n        /* \"modules/JengaCore.sol\":5136:5193  require(chama.currentCycle == 0, \"Chama already started\") */\n      tag_174\n        /* \"#utility.yul\":13551:13896   */\n      jump\n        /* \"modules/JengaCore.sol\":5136:5193  require(chama.currentCycle == 0, \"Chama already started\") */\n    tag_333:\n        /* \"modules/JengaCore.sol\":5226:5236  msg.sender */\n      caller\n        /* \"modules/JengaCore.sol\":5211:5237  chama.isMember[msg.sender] */\n      0x00\n      swap1\n      dup2\n      mstore\n        /* \"modules/JengaCore.sol\":5211:5225  chama.isMember */\n      0x0b\n      dup3\n      add\n        /* \"modules/JengaCore.sol\":5211:5237  chama.isMember[msg.sender] */\n      0x20\n      mstore\n      0x40\n      swap1\n      keccak256\n      sload\n      0xff\n      and\n        /* \"modules/JengaCore.sol\":5203:5264  require(chama.isMember[msg.sender], \"Only members can start\") */\n      tag_336\n      jumpi\n      mload(0x40)\n      shl(0xe5, 0x461bcd)\n      dup2\n      mstore\n        /* \"#utility.yul\":14103:14105   */\n      0x20\n        /* \"modules/JengaCore.sol\":5203:5264  require(chama.isMember[msg.sender], \"Only members can start\") */\n      0x04\n      dup3\n      add\n        /* \"#utility.yul\":14085:14106   */\n      mstore\n        /* \"#utility.yul\":14142:14144   */\n      0x16\n        /* \"#utility.yul\":14122:14140   */\n      0x24\n      dup3\n      add\n        /* \"#utility.yul\":14115:14145   */\n      mstore\n      shl(0x52, 0x13db9b1e481b595b58995c9cc818d85b881cdd185c9d)\n        /* \"#utility.yul\":14161:14179   */\n      0x44\n      dup3\n      add\n        /* \"#utility.yul\":14154:14206   */\n      mstore\n        /* \"#utility.yul\":14223:14241   */\n      0x64\n      add\n        /* \"modules/JengaCore.sol\":5203:5264  require(chama.isMember[msg.sender], \"Only members can start\") */\n      tag_174\n        /* \"#utility.yul\":13901:14247   */\n      jump\n        /* \"modules/JengaCore.sol\":5203:5264  require(chama.isMember[msg.sender], \"Only members can start\") */\n    tag_336:\n        /* \"modules/JengaCore.sol\":5282:5295  chama.members */\n      0x04\n      dup2\n      add\n        /* \"modules/JengaCore.sol\":5282:5302  chama.members.length */\n      sload\n        /* \"modules/JengaCore.sol\":5306:5307  3 */\n      0x03\n      gt\n        /* \"modules/JengaCore.sol\":5282:5307  chama.members.length >= 3 */\n      iszero\n        /* \"modules/JengaCore.sol\":5274:5335  require(chama.members.length >= 3, \"Need at least 3 members\") */\n      tag_339\n      jumpi\n      mload(0x40)\n      shl(0xe5, 0x461bcd)\n      dup2\n      mstore\n        /* \"#utility.yul\":14454:14456   */\n      0x20\n        /* \"modules/JengaCore.sol\":5274:5335  require(chama.members.length >= 3, \"Need at least 3 members\") */\n      0x04\n      dup3\n      add\n        /* \"#utility.yul\":14436:14457   */\n      mstore\n        /* \"#utility.yul\":14493:14495   */\n      0x17\n        /* \"#utility.yul\":14473:14491   */\n      0x24\n      dup3\n      add\n        /* \"#utility.yul\":14466:14496   */\n      mstore\n        /* \"#utility.yul\":14532:14557   */\n      0x4e656564206174206c656173742033206d656d62657273000000000000000000\n        /* \"#utility.yul\":14512:14530   */\n      0x44\n      dup3\n      add\n        /* \"#utility.yul\":14505:14558   */\n      mstore\n        /* \"#utility.yul\":14575:14593   */\n      0x64\n      add\n        /* \"modules/JengaCore.sol\":5274:5335  require(chama.members.length >= 3, \"Need at least 3 members\") */\n      tag_174\n        /* \"#utility.yul\":14252:14599   */\n      jump\n        /* \"modules/JengaCore.sol\":5274:5335  require(chama.members.length >= 3, \"Need at least 3 members\") */\n    tag_339:\n        /* \"modules/JengaCore.sol\":5346:5367  _startChama(_chamaId) */\n      tag_299\n        /* \"modules/JengaCore.sol\":5358:5366  _chamaId */\n      dup5\n        /* \"modules/JengaCore.sol\":5346:5357  _startChama */\n      tag_255\n        /* \"modules/JengaCore.sol\":5346:5367  _startChama(_chamaId) */\n      jump\t// in\n        /* \"modules/JengaCore.sol\":2226:3783  function createChama(... */\n    tag_165:\n        /* \"modules/JengaCore.sol\":2435:2436  0 */\n      0x00\n        /* \"modules/JengaCore.sol\":2413:2432  _contributionAmount */\n      dup4\n        /* \"modules/JengaCore.sol\":2413:2436  _contributionAmount > 0 */\n      gt\n        /* \"modules/JengaCore.sol\":2405:2465  require(_contributionAmount > 0, \"Contribution must be > 0\") */\n      tag_344\n      jumpi\n      mload(0x40)\n      shl(0xe5, 0x461bcd)\n      dup2\n      mstore\n        /* \"#utility.yul\":14806:14808   */\n      0x20\n        /* \"modules/JengaCore.sol\":2405:2465  require(_contributionAmount > 0, \"Contribution must be > 0\") */\n      0x04\n      dup3\n      add\n        /* \"#utility.yul\":14788:14809   */\n      mstore\n        /* \"#utility.yul\":14845:14847   */\n      0x18\n        /* \"#utility.yul\":14825:14843   */\n      0x24\n      dup3\n      add\n        /* \"#utility.yul\":14818:14848   */\n      mstore\n        /* \"#utility.yul\":14884:14910   */\n      0x436f6e747269627574696f6e206d757374206265203e20300000000000000000\n        /* \"#utility.yul\":14864:14882   */\n      0x44\n      dup3\n      add\n        /* \"#utility.yul\":14857:14911   */\n      mstore\n        /* \"#utility.yul\":14928:14946   */\n      0x64\n      add\n        /* \"modules/JengaCore.sol\":2405:2465  require(_contributionAmount > 0, \"Contribution must be > 0\") */\n      tag_174\n        /* \"#utility.yul\":14604:14952   */\n      jump\n        /* \"modules/JengaCore.sol\":2405:2465  require(_contributionAmount > 0, \"Contribution must be > 0\") */\n    tag_344:\n        /* \"modules/JengaCore.sol\":2501:2507  7 days */\n      0x093a80\n        /* \"modules/JengaCore.sol\":2483:2497  _cycleDuration */\n      dup3\n        /* \"modules/JengaCore.sol\":2483:2507  _cycleDuration >= 7 days */\n      lt\n      iszero\n        /* \"modules/JengaCore.sol\":2475:2535  require(_cycleDuration >= 7 days, \"Cycle must be >= 7 days\") */\n      tag_347\n      jumpi\n      mload(0x40)\n      shl(0xe5, 0x461bcd)\n      dup2\n      mstore\n        /* \"#utility.yul\":15159:15161   */\n      0x20\n        /* \"modules/JengaCore.sol\":2475:2535  require(_cycleDuration >= 7 days, \"Cycle must be >= 7 days\") */\n      0x04\n      dup3\n      add\n        /* \"#utility.yul\":15141:15162   */\n      mstore\n        /* \"#utility.yul\":15198:15200   */\n      0x17\n        /* \"#utility.yul\":15178:15196   */\n      0x24\n      dup3\n      add\n        /* \"#utility.yul\":15171:15201   */\n      mstore\n        /* \"#utility.yul\":15237:15262   */\n      0x4379636c65206d757374206265203e3d20372064617973000000000000000000\n        /* \"#utility.yul\":15217:15235   */\n      0x44\n      dup3\n      add\n        /* \"#utility.yul\":15210:15263   */\n      mstore\n        /* \"#utility.yul\":15280:15298   */\n      0x64\n      add\n        /* \"modules/JengaCore.sol\":2475:2535  require(_cycleDuration >= 7 days, \"Cycle must be >= 7 days\") */\n      tag_174\n        /* \"#utility.yul\":14957:15304   */\n      jump\n        /* \"modules/JengaCore.sol\":2475:2535  require(_cycleDuration >= 7 days, \"Cycle must be >= 7 days\") */\n    tag_347:\n        /* \"modules/JengaCore.sol\":2568:2569  3 */\n      0x03\n        /* \"modules/JengaCore.sol\":2553:2564  _maxMembers */\n      dup2\n        /* \"modules/JengaCore.sol\":2553:2569  _maxMembers >= 3 */\n      lt\n      iszero\n        /* \"modules/JengaCore.sol\":2553:2590  _maxMembers >= 3 && _maxMembers <= 20 */\n      dup1\n      iszero\n      tag_350\n      jumpi\n      pop\n        /* \"modules/JengaCore.sol\":2588:2590  20 */\n      0x14\n        /* \"modules/JengaCore.sol\":2573:2584  _maxMembers */\n      dup2\n        /* \"modules/JengaCore.sol\":2573:2590  _maxMembers <= 20 */\n      gt\n      iszero\n        /* \"modules/JengaCore.sol\":2553:2590  _maxMembers >= 3 && _maxMembers <= 20 */\n    tag_350:\n        /* \"modules/JengaCore.sol\":2545:2608  require(_maxMembers >= 3 && _maxMembers <= 20, \"Members: 3-20\") */\n      tag_351\n      jumpi\n      mload(0x40)\n      shl(0xe5, 0x461bcd)\n      dup2\n      mstore\n        /* \"#utility.yul\":15511:15513   */\n      0x20\n        /* \"modules/JengaCore.sol\":2545:2608  require(_maxMembers >= 3 && _maxMembers <= 20, \"Members: 3-20\") */\n      0x04\n      dup3\n      add\n        /* \"#utility.yul\":15493:15514   */\n      mstore\n        /* \"#utility.yul\":15550:15552   */\n      0x0d\n        /* \"#utility.yul\":15530:15548   */\n      0x24\n      dup3\n      add\n        /* \"#utility.yul\":15523:15553   */\n      mstore\n      shl(0x9c, 0x04d656d626572733a20332d323)\n        /* \"#utility.yul\":15569:15587   */\n      0x44\n      dup3\n      add\n        /* \"#utility.yul\":15562:15605   */\n      mstore\n        /* \"#utility.yul\":15622:15640   */\n      0x64\n      add\n        /* \"modules/JengaCore.sol\":2545:2608  require(_maxMembers >= 3 && _maxMembers <= 20, \"Members: 3-20\") */\n      tag_174\n        /* \"#utility.yul\":15309:15646   */\n      jump\n        /* \"modules/JengaCore.sol\":2545:2608  require(_maxMembers >= 3 && _maxMembers <= 20, \"Members: 3-20\") */\n    tag_351:\n        /* \"modules/JengaCore.sol\":2639:2658  _contributionAmount */\n      dup3\n        /* \"modules/JengaCore.sol\":2626:2635  msg.value */\n      callvalue\n        /* \"modules/JengaCore.sol\":2626:2658  msg.value >= _contributionAmount */\n      lt\n      iszero\n        /* \"modules/JengaCore.sol\":2618:2715  require(msg.value >= _contributionAmount, \"Must deposit collateral equal to contribution amount\") */\n      tag_354\n      jumpi\n      mload(0x40)\n      shl(0xe5, 0x461bcd)\n      dup2\n      mstore\n        /* \"#utility.yul\":15853:15855   */\n      0x20\n        /* \"modules/JengaCore.sol\":2618:2715  require(msg.value >= _contributionAmount, \"Must deposit collateral equal to contribution amount\") */\n      0x04\n      dup3\n      add\n        /* \"#utility.yul\":15835:15856   */\n      mstore\n        /* \"#utility.yul\":15892:15894   */\n      0x34\n        /* \"#utility.yul\":15872:15890   */\n      0x24\n      dup3\n      add\n        /* \"#utility.yul\":15865:15895   */\n      mstore\n        /* \"#utility.yul\":15931:15965   */\n      0x4d757374206465706f73697420636f6c6c61746572616c20657175616c20746f\n        /* \"#utility.yul\":15911:15929   */\n      0x44\n      dup3\n      add\n        /* \"#utility.yul\":15904:15966   */\n      mstore\n      shl(0x62, 0x0818dbdb9d1c9a589d5d1a5bdb88185b5bdd5b9d)\n        /* \"#utility.yul\":15982:16000   */\n      0x64\n      dup3\n      add\n        /* \"#utility.yul\":15975:16025   */\n      mstore\n        /* \"#utility.yul\":16042:16061   */\n      0x84\n      add\n        /* \"modules/JengaCore.sol\":2618:2715  require(msg.value >= _contributionAmount, \"Must deposit collateral equal to contribution amount\") */\n      tag_174\n        /* \"#utility.yul\":15651:16067   */\n      jump\n        /* \"modules/JengaCore.sol\":2618:2715  require(msg.value >= _contributionAmount, \"Must deposit collateral equal to contribution amount\") */\n    tag_354:\n        /* \"modules/JengaCore.sol\":2726:2736  chamaCount */\n      0x08\n        /* \"modules/JengaCore.sol\":2726:2738  chamaCount++ */\n      dup1\n      sload\n      swap1\n        /* \"modules/JengaCore.sol\":2726:2736  chamaCount */\n      0x00\n        /* \"modules/JengaCore.sol\":2726:2738  chamaCount++ */\n      tag_357\n      dup4\n      tag_358\n      jump\t// in\n    tag_357:\n      swap1\n      swap2\n      sstore\n      pop\n      pop\n        /* \"modules/JengaCore.sol\":2791:2801  chamaCount */\n      sload(0x08)\n        /* \"modules/JengaCore.sol\":2748:2781  JengaTypes.Chama storage newChama */\n      0x00\n        /* \"modules/JengaCore.sol\":2784:2802  chamas[chamaCount] */\n      swap1\n      dup2\n      mstore\n      0x20\n      dup2\n      swap1\n      mstore\n      0x40\n      swap1\n      keccak256\n      dup1\n        /* \"modules/JengaCore.sol\":2821:2842  newChama.name = _name */\n      tag_359\n        /* \"modules/JengaCore.sol\":2837:2842  _name */\n      dup7\n        /* \"modules/JengaCore.sol\":2784:2802  chamas[chamaCount] */\n      dup3\n        /* \"modules/JengaCore.sol\":2821:2842  newChama.name = _name */\n      tag_360\n      jump\t// in\n    tag_359:\n      pop\n        /* \"modules/JengaCore.sol\":2852:2879  newChama.contributionAmount */\n      0x01\n      dup1\n      dup3\n      add\n        /* \"modules/JengaCore.sol\":2852:2901  newChama.contributionAmount = _contributionAmount */\n      dup6\n      swap1\n      sstore\n        /* \"modules/JengaCore.sol\":2911:2933  newChama.cycleDuration */\n      0x02\n      dup3\n      add\n        /* \"modules/JengaCore.sol\":2911:2950  newChama.cycleDuration = _cycleDuration */\n      dup5\n      swap1\n      sstore\n        /* \"modules/JengaCore.sol\":2960:2979  newChama.maxMembers */\n      0x03\n      dup3\n      add\n        /* \"modules/JengaCore.sol\":2960:2993  newChama.maxMembers = _maxMembers */\n      dup4\n      swap1\n      sstore\n        /* \"modules/JengaCore.sol\":3003:3018  newChama.active */\n      0x05\n      dup3\n      add\n        /* \"modules/JengaCore.sol\":3003:3025  newChama.active = true */\n      dup1\n      sload\n      not(0xff)\n      swap1\n      dup2\n      and\n      dup4\n      or\n      swap1\n      swap2\n      sstore\n      0x00\n        /* \"modules/JengaCore.sol\":3035:3056  newChama.currentCycle */\n      0x06\n      dup5\n      add\n        /* \"modules/JengaCore.sol\":3035:3060  newChama.currentCycle = 0 */\n      dup2\n      swap1\n      sstore\n        /* \"modules/JengaCore.sol\":3070:3100  newChama.currentRecipientIndex */\n      0x07\n      dup5\n      add\n        /* \"modules/JengaCore.sol\":3070:3104  newChama.currentRecipientIndex = 0 */\n      dup2\n      swap1\n      sstore\n        /* \"modules/JengaCore.sol\":3144:3159  block.timestamp */\n      timestamp\n        /* \"modules/JengaCore.sol\":3114:3141  newChama.lastCycleTimestamp */\n      0x08\n      dup1\n      dup7\n      add\n        /* \"modules/JengaCore.sol\":3114:3159  newChama.lastCycleTimestamp = block.timestamp */\n      swap2\n      swap1\n      swap2\n      sstore\n        /* \"modules/JengaCore.sol\":3169:3187  newChama.totalPool */\n      0x09\n      dup6\n      add\n        /* \"modules/JengaCore.sol\":3169:3191  newChama.totalPool = 0 */\n      dup3\n      swap1\n      sstore\n        /* \"modules/JengaCore.sol\":3228:3237  msg.value */\n      callvalue\n        /* \"modules/JengaCore.sol\":3201:3225  newChama.totalCollateral */\n      0x12\n      dup7\n      add\n        /* \"modules/JengaCore.sol\":3201:3237  newChama.totalCollateral = msg.value */\n      dup2\n      swap1\n      sstore\n        /* \"modules/JengaCore.sol\":3287:3303  newChama.members */\n      0x04\n      dup1\n      dup8\n      add\n        /* \"modules/JengaCore.sol\":3287:3320  newChama.members.push(msg.sender) */\n      dup1\n      sload\n      dup1\n      dup9\n      add\n      dup3\n      sstore\n      swap1\n      dup6\n      mstore\n      0x20\n      dup1\n      dup7\n      keccak256\n      swap1\n      swap2\n      add\n      dup1\n      sload\n      not(sub(shl(0xa0, 0x01), 0x01))\n      and\n        /* \"modules/JengaCore.sol\":3309:3319  msg.sender */\n      caller\n        /* \"modules/JengaCore.sol\":3287:3320  newChama.members.push(msg.sender) */\n      swap1\n      dup2\n      or\n      swap1\n      swap2\n      sstore\n        /* \"modules/JengaCore.sol\":3330:3359  newChama.isMember[msg.sender] */\n      dup1\n      dup7\n      mstore\n        /* \"modules/JengaCore.sol\":3330:3347  newChama.isMember */\n      0x0b\n      dup10\n      add\n        /* \"modules/JengaCore.sol\":3330:3359  newChama.isMember[msg.sender] */\n      dup3\n      mstore\n      0x40\n      dup1\n      dup8\n      keccak256\n        /* \"modules/JengaCore.sol\":3330:3366  newChama.isMember[msg.sender] = true */\n      dup1\n      sload\n      swap1\n      swap9\n      and\n      dup10\n      or\n      swap1\n      swap8\n      sstore\n        /* \"modules/JengaCore.sol\":3376:3396  newChama.memberIndex */\n      0x0c\n      dup10\n      add\n        /* \"modules/JengaCore.sol\":3376:3408  newChama.memberIndex[msg.sender] */\n      dup3\n      mstore\n      dup7\n      dup7\n      keccak256\n        /* \"modules/JengaCore.sol\":3376:3412  newChama.memberIndex[msg.sender] = 0 */\n      dup7\n      swap1\n      sstore\n        /* \"modules/JengaCore.sol\":3422:3442  newChama.membersPaid */\n      0x0a\n      dup10\n      add\n        /* \"modules/JengaCore.sol\":3422:3454  newChama.membersPaid.push(false) */\n      dup1\n      sload\n      dup1\n      dup11\n      add\n      dup3\n      sstore\n      swap1\n      dup8\n      mstore\n      dup3\n      dup8\n      keccak256\n      dup4\n      dup3\n      div\n      add\n      dup1\n      sload\n      0x1f\n      swap1\n      swap3\n      and\n        /* \"modules/JengaCore.sol\":3003:3025  newChama.active = true */\n      0x0100\n        /* \"modules/JengaCore.sol\":3422:3454  newChama.membersPaid.push(false) */\n      exp\n        /* \"modules/JengaCore.sol\":3003:3025  newChama.active = true */\n      0xff\n        /* \"modules/JengaCore.sol\":3422:3454  newChama.membersPaid.push(false) */\n      mul\n      not\n      swap1\n      swap2\n      and\n      swap1\n      sstore\n        /* \"modules/JengaCore.sol\":3464:3501  newChama.memberCollateral[msg.sender] */\n      dup1\n      dup7\n      mstore\n        /* \"modules/JengaCore.sol\":3464:3489  newChama.memberCollateral */\n      0x10\n      dup10\n      add\n        /* \"modules/JengaCore.sol\":3464:3501  newChama.memberCollateral[msg.sender] */\n      dup3\n      mstore\n      dup7\n      dup7\n      keccak256\n        /* \"modules/JengaCore.sol\":3464:3513  newChama.memberCollateral[msg.sender] = msg.value */\n      swap4\n      swap1\n      swap4\n      sstore\n        /* \"modules/JengaCore.sol\":3524:3546  userChamas[msg.sender] */\n      swap1\n      dup2\n      mstore\n      dup5\n      dup5\n      keccak256\n        /* \"modules/JengaCore.sol\":3552:3562  chamaCount */\n      swap3\n      sload\n        /* \"modules/JengaCore.sol\":3524:3563  userChamas[msg.sender].push(chamaCount) */\n      dup4\n      sload\n      dup1\n      dup9\n      add\n      dup6\n      sstore\n      swap4\n      dup6\n      mstore\n      dup2\n      dup6\n      keccak256\n      swap1\n      swap4\n      add\n      swap3\n      swap1\n      swap3\n      sstore\n        /* \"modules/JengaCore.sol\":3573:3591  scores[msg.sender] */\n      dup3\n      mstore\n      swap3\n      swap1\n      swap3\n      mstore\n      dup2\n      keccak256\n        /* \"modules/JengaCore.sol\":3573:3598  scores[msg.sender] += 100 */\n      dup1\n      sload\n        /* \"modules/JengaCore.sol\":3595:3598  100 */\n      0x64\n      swap3\n      swap1\n        /* \"modules/JengaCore.sol\":3573:3598  scores[msg.sender] += 100 */\n      tag_364\n      swap1\n        /* \"modules/JengaCore.sol\":3595:3598  100 */\n      dup5\n      swap1\n        /* \"modules/JengaCore.sol\":3573:3598  scores[msg.sender] += 100 */\n      tag_194\n      jump\t// in\n    tag_364:\n      swap1\n      swap2\n      sstore\n      pop\n      pop\n        /* \"modules/JengaCore.sol\":3656:3666  chamaCount */\n      sload(0x08)\n        /* \"modules/JengaCore.sol\":3643:3707  ChamaCreated(chamaCount, _name, msg.sender, _contributionAmount) */\n      mload(0x40)\n      0xf4262469916388c16d1454945cd27f61664f3ae726c205e66b8f9212a3534f8c\n      swap2\n      tag_365\n      swap2\n        /* \"modules/JengaCore.sol\":3668:3673  _name */\n      dup9\n      swap1\n        /* \"modules/JengaCore.sol\":3675:3685  msg.sender */\n      caller\n      swap1\n        /* \"modules/JengaCore.sol\":3687:3706  _contributionAmount */\n      dup10\n      swap1\n        /* \"modules/JengaCore.sol\":3643:3707  ChamaCreated(chamaCount, _name, msg.sender, _contributionAmount) */\n      tag_366\n      jump\t// in\n    tag_365:\n      mload(0x40)\n      dup1\n      swap2\n      sub\n      swap1\n      log1\n        /* \"modules/JengaCore.sol\":3722:3776  CollateralDeposited(chamaCount, msg.sender, msg.value) */\n      0xeec2f3feb835e2f2fd44281034b04700a1ddda63dd402949d470a25a7c40b36c\n        /* \"modules/JengaCore.sol\":3742:3752  chamaCount */\n      sload(0x08)\n        /* \"modules/JengaCore.sol\":3754:3764  msg.sender */\n      caller\n        /* \"modules/JengaCore.sol\":3766:3775  msg.value */\n      callvalue\n        /* \"modules/JengaCore.sol\":3722:3776  CollateralDeposited(chamaCount, msg.sender, msg.value) */\n      mload(0x40)\n      tag_195\n      swap4\n      swap3\n      swap2\n      swap1\n      tag_224\n      jump\t// in\n        /* \"modules/JengaCore.sol\":8713:9793  function _processCyclePayout(uint256 _chamaId) internal {... */\n    tag_226:\n        /* \"modules/JengaCore.sol\":8779:8809  JengaTypes.Chama storage chama */\n      0x00\n        /* \"modules/JengaCore.sol\":8812:8828  chamas[_chamaId] */\n      dup2\n      dup2\n      mstore\n      0x20\n      dup2\n      dup2\n      mstore\n      0x40\n      dup1\n      dup4\n      keccak256\n        /* \"modules/JengaCore.sol\":8965:8983  chama.currentCycle */\n      0x06\n      dup2\n      add\n      sload\n        /* \"modules/JengaCore.sol\":8940:8984  chama.cycleContributions[chama.currentCycle] */\n      dup5\n      mstore\n        /* \"modules/JengaCore.sol\":8940:8964  chama.cycleContributions */\n      0x0d\n      dup2\n      add\n        /* \"modules/JengaCore.sol\":8940:8984  chama.cycleContributions[chama.currentCycle] */\n      swap1\n      swap3\n      mstore\n      dup3\n      keccak256\n      sload\n        /* \"modules/JengaCore.sol\":9070:9097  chama.currentRecipientIndex */\n      0x07\n      dup3\n      add\n      sload\n        /* \"modules/JengaCore.sol\":9056:9069  chama.members */\n      0x04\n      dup4\n      add\n        /* \"modules/JengaCore.sol\":9056:9098  chama.members[chama.currentRecipientIndex] */\n      dup1\n      sload\n        /* \"modules/JengaCore.sol\":8812:8828  chamas[_chamaId] */\n      swap4\n      swap5\n        /* \"modules/JengaCore.sol\":8940:8984  chama.cycleContributions[chama.currentCycle] */\n      swap3\n      swap4\n        /* \"modules/JengaCore.sol\":9056:9069  chama.members */\n      swap1\n      swap2\n        /* \"modules/JengaCore.sol\":9070:9097  chama.currentRecipientIndex */\n      swap1\n        /* \"modules/JengaCore.sol\":9056:9098  chama.members[chama.currentRecipientIndex] */\n      dup2\n      lt\n      tag_371\n      jumpi\n      tag_371\n      tag_181\n      jump\t// in\n    tag_371:\n      swap1\n      0x00\n      mstore\n      keccak256(0x00, 0x20)\n      add\n      0x00\n      swap1\n      sload\n      swap1\n      0x0100\n      exp\n      swap1\n      div\n      sub(shl(0xa0, 0x01), 0x01)\n      and\n        /* \"modules/JengaCore.sol\":9036:9098  address recipient = chama.members[chama.currentRecipientIndex] */\n      swap1\n      pop\n        /* \"modules/JengaCore.sol\":9200:9204  true */\n      0x01\n        /* \"modules/JengaCore.sol\":9151:9156  chama */\n      dup4\n        /* \"modules/JengaCore.sol\":9151:9168  chama.membersPaid */\n      0x0a\n      add\n        /* \"modules/JengaCore.sol\":9169:9174  chama */\n      dup5\n        /* \"modules/JengaCore.sol\":9169:9196  chama.currentRecipientIndex */\n      0x07\n      add\n      sload\n        /* \"modules/JengaCore.sol\":9151:9197  chama.membersPaid[chama.currentRecipientIndex] */\n      dup2\n      sload\n      dup2\n      lt\n      tag_374\n      jumpi\n      tag_374\n      tag_181\n      jump\t// in\n    tag_374:\n      0x00\n      swap2\n      dup3\n      mstore\n      0x20\n      dup1\n      dup4\n      keccak256\n      dup2\n      dup4\n      div\n      add\n        /* \"modules/JengaCore.sol\":9151:9204  chama.membersPaid[chama.currentRecipientIndex] = true */\n      dup1\n      sload\n      0xff\n        /* \"modules/JengaCore.sol\":9151:9197  chama.membersPaid[chama.currentRecipientIndex] */\n      0x1f\n      swap1\n      swap5\n      and\n        /* \"modules/JengaCore.sol\":9151:9204  chama.membersPaid[chama.currentRecipientIndex] = true */\n      0x0100\n      exp\n      swap4\n      dup5\n      mul\n      not\n      and\n      swap5\n      iszero\n      iszero\n      swap3\n      swap1\n      swap3\n      mul\n      swap4\n      swap1\n      swap4\n      or\n      swap1\n      sstore\n        /* \"modules/JengaCore.sol\":9235:9253  chama.currentCycle */\n      0x06\n      dup6\n      add\n      dup1\n      sload\n        /* \"modules/JengaCore.sol\":9214:9254  chama.cycleRecipient[chama.currentCycle] */\n      dup3\n      mstore\n        /* \"modules/JengaCore.sol\":9214:9234  chama.cycleRecipient */\n      0x0e\n      dup7\n      add\n        /* \"modules/JengaCore.sol\":9214:9254  chama.cycleRecipient[chama.currentCycle] */\n      dup4\n      mstore\n      0x40\n      dup1\n      dup4\n      keccak256\n        /* \"modules/JengaCore.sol\":9214:9266  chama.cycleRecipient[chama.currentCycle] = recipient */\n      dup1\n      sload\n      not(sub(shl(0xa0, 0x01), 0x01))\n      and\n      sub(shl(0xa0, 0x01), 0x01)\n      dup8\n      and\n      swap1\n      dup2\n      or\n      swap1\n      swap2\n      sstore\n        /* \"modules/JengaCore.sol\":9297:9315  chama.currentCycle */\n      swap2\n      sload\n        /* \"modules/JengaCore.sol\":9276:9316  chama.cycleCompleted[chama.currentCycle] */\n      dup4\n      mstore\n        /* \"modules/JengaCore.sol\":9276:9296  chama.cycleCompleted */\n      0x0f\n      dup8\n      add\n        /* \"modules/JengaCore.sol\":9276:9316  chama.cycleCompleted[chama.currentCycle] */\n      swap1\n      swap4\n      mstore\n      dup3\n      dup3\n      keccak256\n        /* \"modules/JengaCore.sol\":9276:9323  chama.cycleCompleted[chama.currentCycle] = true */\n      dup1\n      sload\n      not(0xff)\n      and\n      0x01\n      or\n      swap1\n      sstore\n        /* \"modules/JengaCore.sol\":9369:9410  payable(recipient).transfer(payoutAmount) */\n      swap2\n      mload\n      0x08fc\n      dup6\n      iszero\n      mul\n      swap2\n      dup6\n      swap2\n      swap1\n      dup2\n        /* \"modules/JengaCore.sol\":9151:9197  chama.membersPaid[chama.currentRecipientIndex] */\n      dup2\n        /* \"modules/JengaCore.sol\":9369:9410  payable(recipient).transfer(payoutAmount) */\n      dup2\n      dup6\n        /* \"modules/JengaCore.sol\":9214:9266  chama.cycleRecipient[chama.currentCycle] = recipient */\n      dup9\n        /* \"modules/JengaCore.sol\":9369:9410  payable(recipient).transfer(payoutAmount) */\n      dup9\n      call\n      swap4\n      pop\n      pop\n      pop\n      pop\n      iszero\n      dup1\n      iszero\n      tag_377\n      jumpi\n      returndatacopy(0x00, 0x00, returndatasize)\n      revert(0x00, returndatasize)\n    tag_377:\n      pop\n        /* \"modules/JengaCore.sol\":9485:9503  chama.currentCycle */\n      0x06\n      dup4\n      add\n      sload\n        /* \"modules/JengaCore.sol\":9434:9504  PayoutProcessed(_chamaId, recipient, payoutAmount, chama.currentCycle) */\n      0x40\n      dup1\n      mload\n        /* \"#utility.yul\":8184:8209   */\n      dup7\n      dup2\n      mstore\n      sub(shl(0xa0, 0x01), 0x01)\n        /* \"#utility.yul\":8245:8277   */\n      dup5\n      and\n        /* \"#utility.yul\":8240:8242   */\n      0x20\n        /* \"#utility.yul\":8225:8243   */\n      dup3\n      add\n        /* \"#utility.yul\":8218:8278   */\n      mstore\n        /* \"#utility.yul\":8294:8312   */\n      dup1\n      dup3\n      add\n        /* \"#utility.yul\":8287:8321   */\n      dup6\n      swap1\n      mstore\n        /* \"#utility.yul\":8352:8354   */\n      0x60\n        /* \"#utility.yul\":8337:8355   */\n      dup2\n      add\n        /* \"#utility.yul\":8330:8364   */\n      swap3\n      swap1\n      swap3\n      mstore\n        /* \"modules/JengaCore.sol\":9434:9504  PayoutProcessed(_chamaId, recipient, payoutAmount, chama.currentCycle) */\n      mload\n      0xb4aeb9fb59644d1c26001b986295cde5bbfae34be7c5240fbccf4c37308e20fe\n      swap2\n      dup2\n      swap1\n      sub\n        /* \"#utility.yul\":8171:8174   */\n      0x80\n        /* \"modules/JengaCore.sol\":9434:9504  PayoutProcessed(_chamaId, recipient, payoutAmount, chama.currentCycle) */\n      add\n      swap1\n      log1\n        /* \"modules/JengaCore.sol\":9549:9567  chama.currentCycle */\n      0x06\n      dup4\n      add\n      sload\n        /* \"modules/JengaCore.sol\":9519:9568  ChamaCycleCompleted(_chamaId, chama.currentCycle) */\n      0x40\n      dup1\n      mload\n        /* \"#utility.yul\":18976:19001   */\n      dup7\n      dup2\n      mstore\n        /* \"#utility.yul\":19032:19034   */\n      0x20\n        /* \"#utility.yul\":19017:19035   */\n      dup2\n      add\n        /* \"#utility.yul\":19010:19044   */\n      swap3\n      swap1\n      swap3\n      mstore\n        /* \"modules/JengaCore.sol\":9519:9568  ChamaCycleCompleted(_chamaId, chama.currentCycle) */\n      0x42463706cb812379c7405bba67d1414b3473b66942ecd48fd66e7ad3cd3abdd4\n      swap2\n        /* \"#utility.yul\":18949:18967   */\n      add\n        /* \"modules/JengaCore.sol\":9519:9568  ChamaCycleCompleted(_chamaId, chama.currentCycle) */\n      mload(0x40)\n      dup1\n      swap2\n      sub\n      swap1\n      log1\n        /* \"modules/JengaCore.sol\":9660:9673  chama.members */\n      0x04\n      dup4\n      add\n        /* \"modules/JengaCore.sol\":9660:9680  chama.members.length */\n      sload\n        /* \"modules/JengaCore.sol\":9660:9684  chama.members.length - 1 */\n      tag_381\n      swap1\n        /* \"modules/JengaCore.sol\":9683:9684  1 */\n      0x01\n      swap1\n        /* \"modules/JengaCore.sol\":9660:9684  chama.members.length - 1 */\n      tag_382\n      jump\t// in\n    tag_381:\n        /* \"modules/JengaCore.sol\":9629:9634  chama */\n      dup4\n        /* \"modules/JengaCore.sol\":9629:9656  chama.currentRecipientIndex */\n      0x07\n      add\n      sload\n        /* \"modules/JengaCore.sol\":9629:9684  chama.currentRecipientIndex == chama.members.length - 1 */\n      sub\n        /* \"modules/JengaCore.sol\":9625:9787  if (chama.currentRecipientIndex == chama.members.length - 1) {... */\n      tag_383\n      jumpi\n        /* \"modules/JengaCore.sol\":9700:9724  _completeChama(_chamaId) */\n      tag_384\n        /* \"modules/JengaCore.sol\":9715:9723  _chamaId */\n      dup5\n        /* \"modules/JengaCore.sol\":9700:9714  _completeChama */\n      tag_385\n        /* \"modules/JengaCore.sol\":9700:9724  _completeChama(_chamaId) */\n      jump\t// in\n    tag_384:\n        /* \"modules/JengaCore.sol\":9625:9787  if (chama.currentRecipientIndex == chama.members.length - 1) {... */\n      jump(tag_299)\n    tag_383:\n        /* \"modules/JengaCore.sol\":9755:9776  _resetCycle(_chamaId) */\n      tag_299\n        /* \"modules/JengaCore.sol\":9767:9775  _chamaId */\n      dup5\n        /* \"modules/JengaCore.sol\":9755:9766  _resetCycle */\n      tag_388\n        /* \"modules/JengaCore.sol\":9755:9776  _resetCycle(_chamaId) */\n      jump\t// in\n        /* \"modules/JengaCore.sol\":5422:5783  function _startChama(uint256 _chamaId) internal {... */\n    tag_255:\n        /* \"modules/JengaCore.sol\":5480:5510  JengaTypes.Chama storage chama */\n      0x00\n        /* \"modules/JengaCore.sol\":5513:5529  chamas[_chamaId] */\n      dup2\n      dup2\n      mstore\n      0x20\n      dup2\n      swap1\n      mstore\n      0x40\n      swap1\n      keccak256\n        /* \"modules/JengaCore.sol\":5560:5561  1 */\n      0x01\n        /* \"modules/JengaCore.sol\":5539:5557  chama.currentCycle */\n      0x06\n      dup3\n      add\n        /* \"modules/JengaCore.sol\":5539:5561  chama.currentCycle = 1 */\n      sstore\n        /* \"modules/JengaCore.sol\":5598:5613  block.timestamp */\n      timestamp\n        /* \"modules/JengaCore.sol\":5571:5595  chama.lastCycleTimestamp */\n      0x08\n      dup3\n      add\n        /* \"modules/JengaCore.sol\":5571:5613  chama.lastCycleTimestamp = block.timestamp */\n      sstore\n        /* \"modules/JengaCore.sol\":5676:5701  _shuffleMembers(_chamaId) */\n      tag_390\n        /* \"modules/JengaCore.sol\":5520:5528  _chamaId */\n      dup3\n        /* \"modules/JengaCore.sol\":5676:5691  _shuffleMembers */\n      tag_391\n        /* \"modules/JengaCore.sol\":5676:5701  _shuffleMembers(_chamaId) */\n      jump\t// in\n    tag_390:\n        /* \"modules/JengaCore.sol\":5725:5776  ChamaStarted(_chamaId, msg.sender, block.timestamp) */\n      0x39874af9b7f4ab9e4c5c47a7280fdb5f5db4081446e9d2cdfd23d5d5aa781c64\n        /* \"modules/JengaCore.sol\":5738:5746  _chamaId */\n      dup3\n        /* \"modules/JengaCore.sol\":5748:5758  msg.sender */\n      caller\n        /* \"modules/JengaCore.sol\":5760:5775  block.timestamp */\n      timestamp\n        /* \"modules/JengaCore.sol\":5725:5776  ChamaStarted(_chamaId, msg.sender, block.timestamp) */\n      mload(0x40)\n      tag_392\n      swap4\n      swap3\n      swap2\n      swap1\n      tag_224\n      jump\t// in\n    tag_392:\n      mload(0x40)\n      dup1\n      swap2\n      sub\n      swap1\n      log1\n        /* \"modules/JengaCore.sol\":5470:5783  {... */\n      pop\n        /* \"modules/JengaCore.sol\":5422:5783  function _startChama(uint256 _chamaId) internal {... */\n      pop\n      jump\t// out\n        /* \"modules/JengaCore.sol\":8058:8665  function _checkCycleCompletion(uint256 _chamaId) internal {... */\n    tag_300:\n        /* \"modules/JengaCore.sol\":8126:8156  JengaTypes.Chama storage chama */\n      0x00\n        /* \"modules/JengaCore.sol\":8159:8175  chamas[_chamaId] */\n      dup2\n      dup2\n      mstore\n      0x20\n      dup2\n      swap1\n      mstore\n      0x40\n      dup2\n      keccak256\n      swap1\n        /* \"modules/JengaCore.sol\":8126:8156  JengaTypes.Chama storage chama */\n      dup1\n        /* \"modules/JengaCore.sol\":8287:8476  for (uint256 i = 0; i < chama.members.length; i++) {... */\n    tag_394:\n        /* \"modules/JengaCore.sol\":8311:8324  chama.members */\n      0x04\n      dup4\n      add\n        /* \"modules/JengaCore.sol\":8311:8331  chama.members.length */\n      sload\n        /* \"modules/JengaCore.sol\":8307:8331  i < chama.members.length */\n      dup2\n      lt\n        /* \"modules/JengaCore.sol\":8287:8476  for (uint256 i = 0; i < chama.members.length; i++) {... */\n      iszero\n      tag_395\n      jumpi\n        /* \"modules/JengaCore.sol\":8356:8379  hasContributedThisCycle */\n      0x07\n        /* \"modules/JengaCore.sol\":8356:8397  hasContributedThisCycle[chama.members[i]] */\n      0x00\n        /* \"modules/JengaCore.sol\":8380:8385  chama */\n      dup5\n        /* \"modules/JengaCore.sol\":8380:8393  chama.members */\n      0x04\n      add\n        /* \"modules/JengaCore.sol\":8394:8395  i */\n      dup4\n        /* \"modules/JengaCore.sol\":8380:8396  chama.members[i] */\n      dup2\n      sload\n      dup2\n      lt\n      tag_398\n      jumpi\n      tag_398\n      tag_181\n      jump\t// in\n    tag_398:\n      0x00\n      swap2\n      dup3\n      mstore\n      0x20\n      dup1\n      dup4\n      keccak256\n      swap1\n      swap2\n      add\n      sload\n      sub(shl(0xa0, 0x01), 0x01)\n      and\n        /* \"modules/JengaCore.sol\":8356:8397  hasContributedThisCycle[chama.members[i]] */\n      dup4\n      mstore\n      dup3\n      dup2\n      add\n      swap4\n      swap1\n      swap4\n      mstore\n      0x40\n      swap2\n      dup3\n      add\n      dup2\n      keccak256\n        /* \"modules/JengaCore.sol\":8356:8407  hasContributedThisCycle[chama.members[i]][_chamaId] */\n      dup8\n      dup3\n      mstore\n      swap1\n      swap3\n      mstore\n      swap1\n      keccak256\n      sload\n      0xff\n      and\n        /* \"modules/JengaCore.sol\":8352:8466  if (hasContributedThisCycle[chama.members[i]][_chamaId]) {... */\n      iszero\n      tag_400\n      jumpi\n        /* \"modules/JengaCore.sol\":8427:8451  contributionsThisCycle++ */\n      dup2\n      tag_401\n      dup2\n      tag_358\n      jump\t// in\n    tag_401:\n      swap3\n      pop\n      pop\n        /* \"modules/JengaCore.sol\":8352:8466  if (hasContributedThisCycle[chama.members[i]][_chamaId]) {... */\n    tag_400:\n        /* \"modules/JengaCore.sol\":8333:8336  i++ */\n      0x01\n      add\n        /* \"modules/JengaCore.sol\":8287:8476  for (uint256 i = 0; i < chama.members.length; i++) {... */\n      jump(tag_394)\n    tag_395:\n      pop\n        /* \"modules/JengaCore.sol\":8583:8596  chama.members */\n      0x04\n      dup3\n      add\n        /* \"modules/JengaCore.sol\":8583:8603  chama.members.length */\n      sload\n        /* \"modules/JengaCore.sol\":8557:8603  contributionsThisCycle == chama.members.length */\n      dup2\n      sub\n        /* \"modules/JengaCore.sol\":8553:8659  if (contributionsThisCycle == chama.members.length) {... */\n      tag_403\n      jumpi\n        /* \"modules/JengaCore.sol\":8619:8648  _processCyclePayout(_chamaId) */\n      tag_403\n        /* \"modules/JengaCore.sol\":8639:8647  _chamaId */\n      dup4\n        /* \"modules/JengaCore.sol\":8619:8638  _processCyclePayout */\n      tag_226\n        /* \"modules/JengaCore.sol\":8619:8648  _processCyclePayout(_chamaId) */\n      jump\t// in\n    tag_403:\n        /* \"modules/JengaCore.sol\":8116:8665  {... */\n      pop\n      pop\n        /* \"modules/JengaCore.sol\":8058:8665  function _checkCycleCompletion(uint256 _chamaId) internal {... */\n      pop\n      jump\t// out\n        /* \"modules/JengaCore.sol\":10388:11123  function _completeChama(uint256 _chamaId) internal {... */\n    tag_385:\n        /* \"modules/JengaCore.sol\":10449:10479  JengaTypes.Chama storage chama */\n      0x00\n        /* \"modules/JengaCore.sol\":10482:10498  chamas[_chamaId] */\n      dup2\n      dup2\n      mstore\n      0x20\n      dup2\n      swap1\n      mstore\n      0x40\n      dup2\n      keccak256\n        /* \"modules/JengaCore.sol\":10508:10520  chama.active */\n      0x05\n      dup2\n      add\n        /* \"modules/JengaCore.sol\":10508:10528  chama.active = false */\n      dup1\n      sload\n      not(0xff)\n      and\n      swap1\n      sstore\n        /* \"modules/JengaCore.sol\":10482:10498  chamas[_chamaId] */\n      swap1\n        /* \"modules/JengaCore.sol\":10591:11069  for (uint256 i = 0; i < chama.members.length; i++) {... */\n    tag_405:\n        /* \"modules/JengaCore.sol\":10615:10628  chama.members */\n      0x04\n      dup3\n      add\n        /* \"modules/JengaCore.sol\":10615:10635  chama.members.length */\n      sload\n        /* \"modules/JengaCore.sol\":10611:10635  i < chama.members.length */\n      dup2\n      lt\n        /* \"modules/JengaCore.sol\":10591:11069  for (uint256 i = 0; i < chama.members.length; i++) {... */\n      iszero\n      tag_406\n      jumpi\n        /* \"modules/JengaCore.sol\":10656:10670  address member */\n      0x00\n        /* \"modules/JengaCore.sol\":10673:10678  chama */\n      dup3\n        /* \"modules/JengaCore.sol\":10673:10686  chama.members */\n      0x04\n      add\n        /* \"modules/JengaCore.sol\":10687:10688  i */\n      dup3\n        /* \"modules/JengaCore.sol\":10673:10689  chama.members[i] */\n      dup2\n      sload\n      dup2\n      lt\n      tag_409\n      jumpi\n      tag_409\n      tag_181\n      jump\t// in\n    tag_409:\n      0x00\n      swap2\n      dup3\n      mstore\n      0x20\n      dup1\n      dup4\n      keccak256\n      swap1\n      swap2\n      add\n      sload\n      sub(shl(0xa0, 0x01), 0x01)\n      and\n        /* \"modules/JengaCore.sol\":10730:10760  chama.memberCollateral[member] */\n      dup1\n      dup4\n      mstore\n        /* \"modules/JengaCore.sol\":10730:10752  chama.memberCollateral */\n      0x10\n      dup7\n      add\n        /* \"modules/JengaCore.sol\":10730:10760  chama.memberCollateral[member] */\n      swap1\n      swap2\n      mstore\n      0x40\n      swap1\n      swap2\n      keccak256\n      sload\n        /* \"modules/JengaCore.sol\":10673:10689  chama.members[i] */\n      swap1\n      swap2\n      pop\n        /* \"modules/JengaCore.sol\":10791:10811  collateralAmount > 0 */\n      dup1\n      iszero\n      dup1\n      iszero\n      swap1\n        /* \"modules/JengaCore.sol\":10791:10848  collateralAmount > 0 && !chama.collateralReturned[member] */\n      tag_411\n      jumpi\n      pop\n      sub(shl(0xa0, 0x01), 0x01)\n        /* \"modules/JengaCore.sol\":10816:10848  chama.collateralReturned[member] */\n      dup3\n      and\n      0x00\n      swap1\n      dup2\n      mstore\n        /* \"modules/JengaCore.sol\":10816:10840  chama.collateralReturned */\n      0x11\n      dup6\n      add\n        /* \"modules/JengaCore.sol\":10816:10848  chama.collateralReturned[member] */\n      0x20\n      mstore\n      0x40\n      swap1\n      keccak256\n      sload\n      0xff\n      and\n        /* \"modules/JengaCore.sol\":10815:10848  !chama.collateralReturned[member] */\n      iszero\n        /* \"modules/JengaCore.sol\":10791:10848  collateralAmount > 0 && !chama.collateralReturned[member] */\n    tag_411:\n        /* \"modules/JengaCore.sol\":10787:11059  if (collateralAmount > 0 && !chama.collateralReturned[member]) {... */\n      iszero\n      tag_412\n      jumpi\n      sub(shl(0xa0, 0x01), 0x01)\n        /* \"modules/JengaCore.sol\":10868:10900  chama.collateralReturned[member] */\n      dup3\n      and\n      0x00\n      dup2\n      dup2\n      mstore\n        /* \"modules/JengaCore.sol\":10868:10892  chama.collateralReturned */\n      0x11\n      dup7\n      add\n        /* \"modules/JengaCore.sol\":10868:10900  chama.collateralReturned[member] */\n      0x20\n      mstore\n      0x40\n      dup1\n      dup3\n      keccak256\n        /* \"modules/JengaCore.sol\":10868:10907  chama.collateralReturned[member] = true */\n      dup1\n      sload\n      not(0xff)\n      and\n        /* \"modules/JengaCore.sol\":10903:10907  true */\n      0x01\n        /* \"modules/JengaCore.sol\":10868:10907  chama.collateralReturned[member] = true */\n      or\n      swap1\n      sstore\n        /* \"modules/JengaCore.sol\":10925:10967  payable(member).transfer(collateralAmount) */\n      mload\n      dup4\n      iszero\n      0x08fc\n      mul\n      swap2\n        /* \"modules/JengaCore.sol\":10950:10966  collateralAmount */\n      dup5\n      swap2\n        /* \"modules/JengaCore.sol\":10925:10967  payable(member).transfer(collateralAmount) */\n      swap1\n      dup2\n        /* \"modules/JengaCore.sol\":10868:10900  chama.collateralReturned[member] */\n      dup2\n        /* \"modules/JengaCore.sol\":10925:10967  payable(member).transfer(collateralAmount) */\n      dup2\n        /* \"modules/JengaCore.sol\":10950:10966  collateralAmount */\n      dup6\n        /* \"modules/JengaCore.sol\":10868:10900  chama.collateralReturned[member] */\n      dup9\n        /* \"modules/JengaCore.sol\":10925:10967  payable(member).transfer(collateralAmount) */\n      dup9\n      call\n      swap4\n      pop\n      pop\n      pop\n      pop\n      iszero\n      dup1\n      iszero\n      tag_414\n      jumpi\n      returndatacopy(0x00, 0x00, returndatasize)\n      revert(0x00, returndatasize)\n    tag_414:\n      pop\n        /* \"modules/JengaCore.sol\":10990:11044  CollateralReturned(_chamaId, member, collateralAmount) */\n      0x83f3d3d0a8132e9bf23ae6cde659d5f3963a6973816e144f05bfccef184279\n        /* \"modules/JengaCore.sol\":11009:11017  _chamaId */\n      dup6\n        /* \"modules/JengaCore.sol\":11019:11025  member */\n      dup4\n        /* \"modules/JengaCore.sol\":11027:11043  collateralAmount */\n      dup4\n        /* \"modules/JengaCore.sol\":10990:11044  CollateralReturned(_chamaId, member, collateralAmount) */\n      mload(0x40)\n      tag_415\n      swap4\n      swap3\n      swap2\n      swap1\n      tag_224\n      jump\t// in\n    tag_415:\n      mload(0x40)\n      dup1\n      swap2\n      sub\n      swap1\n      log1\n        /* \"modules/JengaCore.sol\":10787:11059  if (collateralAmount > 0 && !chama.collateralReturned[member]) {... */\n    tag_412:\n      pop\n      pop\n        /* \"modules/JengaCore.sol\":10637:10640  i++ */\n      0x01\n      add\n        /* \"modules/JengaCore.sol\":10591:11069  for (uint256 i = 0; i < chama.members.length; i++) {... */\n      jump(tag_405)\n    tag_406:\n      pop\n        /* \"modules/JengaCore.sol\":11092:11116  ChamaCompleted(_chamaId) */\n      mload(0x40)\n        /* \"#utility.yul\":2547:2572   */\n      dup3\n      dup2\n      mstore\n        /* \"modules/JengaCore.sol\":11092:11116  ChamaCompleted(_chamaId) */\n      0xdb5e126e6a121da8028405972761f7c42dff3d626273cd61fd32a13d4c3f56c7\n      swap1\n        /* \"#utility.yul\":2535:2537   */\n      0x20\n        /* \"#utility.yul\":2520:2538   */\n      add\n        /* \"modules/JengaCore.sol\":11092:11116  ChamaCompleted(_chamaId) */\n      tag_392\n        /* \"#utility.yul\":2401:2578   */\n      jump\n        /* \"modules/JengaCore.sol\":9839:10322  function _resetCycle(uint256 _chamaId) internal {... */\n    tag_388:\n        /* \"modules/JengaCore.sol\":9897:9927  JengaTypes.Chama storage chama */\n      0x00\n        /* \"modules/JengaCore.sol\":9930:9946  chamas[_chamaId] */\n      dup2\n      dup2\n      mstore\n      0x20\n      dup2\n      swap1\n      mstore\n      0x40\n      dup2\n      keccak256\n        /* \"modules/JengaCore.sol\":9999:10026  chama.currentRecipientIndex */\n      0x07\n      dup2\n      add\n        /* \"modules/JengaCore.sol\":9999:10028  chama.currentRecipientIndex++ */\n      dup1\n      sload\n        /* \"modules/JengaCore.sol\":9930:9946  chamas[_chamaId] */\n      swap2\n      swap3\n        /* \"modules/JengaCore.sol\":9999:10028  chama.currentRecipientIndex++ */\n      tag_418\n      dup4\n      tag_358\n      jump\t// in\n    tag_418:\n      swap1\n      swap2\n      sstore\n      pop\n      pop\n        /* \"modules/JengaCore.sol\":10038:10056  chama.currentCycle */\n      0x06\n      dup2\n      add\n        /* \"modules/JengaCore.sol\":10038:10058  chama.currentCycle++ */\n      dup1\n      sload\n      swap1\n        /* \"modules/JengaCore.sol\":10038:10056  chama.currentCycle */\n      0x00\n        /* \"modules/JengaCore.sol\":10038:10058  chama.currentCycle++ */\n      tag_419\n      dup4\n      tag_358\n      jump\t// in\n    tag_419:\n      swap1\n      swap2\n      sstore\n      pop\n      pop\n        /* \"modules/JengaCore.sol\":10095:10110  block.timestamp */\n      timestamp\n        /* \"modules/JengaCore.sol\":10068:10092  chama.lastCycleTimestamp */\n      0x08\n      dup3\n      add\n        /* \"modules/JengaCore.sol\":10068:10110  chama.lastCycleTimestamp = block.timestamp */\n      sstore\n        /* \"modules/JengaCore.sol\":10186:10195  uint256 i */\n      0x00\n        /* \"modules/JengaCore.sol\":10181:10316  for (uint256 i = 0; i < chama.members.length; i++) {... */\n    tag_420:\n        /* \"modules/JengaCore.sol\":10205:10218  chama.members */\n      0x04\n      dup3\n      add\n        /* \"modules/JengaCore.sol\":10205:10225  chama.members.length */\n      sload\n        /* \"modules/JengaCore.sol\":10201:10225  i < chama.members.length */\n      dup2\n      lt\n        /* \"modules/JengaCore.sol\":10181:10316  for (uint256 i = 0; i < chama.members.length; i++) {... */\n      iszero\n      tag_403\n      jumpi\n        /* \"modules/JengaCore.sol\":10300:10305  false */\n      0x00\n        /* \"modules/JengaCore.sol\":10246:10269  hasContributedThisCycle */\n      0x07\n        /* \"modules/JengaCore.sol\":10246:10287  hasContributedThisCycle[chama.members[i]] */\n      0x00\n        /* \"modules/JengaCore.sol\":10270:10275  chama */\n      dup5\n        /* \"modules/JengaCore.sol\":10270:10283  chama.members */\n      0x04\n      add\n        /* \"modules/JengaCore.sol\":10284:10285  i */\n      dup5\n        /* \"modules/JengaCore.sol\":10270:10286  chama.members[i] */\n      dup2\n      sload\n      dup2\n      lt\n      tag_424\n      jumpi\n      tag_424\n      tag_181\n      jump\t// in\n    tag_424:\n      0x00\n      swap2\n      dup3\n      mstore\n      0x20\n      dup1\n      dup4\n      keccak256\n      swap2\n      swap1\n      swap2\n      add\n      sload\n      sub(shl(0xa0, 0x01), 0x01)\n      and\n        /* \"modules/JengaCore.sol\":10246:10287  hasContributedThisCycle[chama.members[i]] */\n      dup4\n      mstore\n      dup3\n      dup2\n      add\n      swap4\n      swap1\n      swap4\n      mstore\n      0x40\n      swap2\n      dup3\n      add\n      dup2\n      keccak256\n        /* \"modules/JengaCore.sol\":10246:10297  hasContributedThisCycle[chama.members[i]][_chamaId] */\n      dup8\n      dup3\n      mstore\n      swap1\n      swap3\n      mstore\n      swap1\n      keccak256\n        /* \"modules/JengaCore.sol\":10246:10305  hasContributedThisCycle[chama.members[i]][_chamaId] = false */\n      dup1\n      sload\n      not(0xff)\n      and\n      swap2\n      iszero\n      iszero\n      swap2\n      swap1\n      swap2\n      or\n      swap1\n      sstore\n      0x01\n        /* \"modules/JengaCore.sol\":10227:10230  i++ */\n      add\n        /* \"modules/JengaCore.sol\":10181:10316  for (uint256 i = 0; i < chama.members.length; i++) {... */\n      jump(tag_420)\n        /* \"modules/JengaCore.sol\":5837:6555  function _shuffleMembers(uint256 _chamaId) internal {... */\n    tag_391:\n        /* \"modules/JengaCore.sol\":5899:5929  JengaTypes.Chama storage chama */\n      0x00\n        /* \"modules/JengaCore.sol\":5932:5948  chamas[_chamaId] */\n      dup2\n      dup2\n      mstore\n      0x20\n      dup2\n      swap1\n      mstore\n      0x40\n      dup2\n      keccak256\n        /* \"modules/JengaCore.sol\":5975:5988  chama.members */\n      0x04\n      dup2\n      add\n        /* \"modules/JengaCore.sol\":5975:5995  chama.members.length */\n      sload\n        /* \"modules/JengaCore.sol\":5932:5948  chamas[_chamaId] */\n      swap1\n      swap2\n        /* \"modules/JengaCore.sol\":6014:6549  for (uint256 i = 0; i < length; i++) {... */\n    tag_427:\n        /* \"modules/JengaCore.sol\":6038:6044  length */\n      dup2\n        /* \"modules/JengaCore.sol\":6034:6035  i */\n      dup2\n        /* \"modules/JengaCore.sol\":6034:6044  i < length */\n      lt\n        /* \"modules/JengaCore.sol\":6014:6549  for (uint256 i = 0; i < length; i++) {... */\n      iszero\n      tag_299\n      jumpi\n        /* \"modules/JengaCore.sol\":6105:6159  abi.encodePacked(block.timestamp, block.prevrandao, i) */\n      0x40\n      dup1\n      mload\n        /* \"modules/JengaCore.sol\":6122:6137  block.timestamp */\n      timestamp\n        /* \"modules/JengaCore.sol\":6105:6159  abi.encodePacked(block.timestamp, block.prevrandao, i) */\n      0x20\n      dup3\n      add\n        /* \"#utility.yul\":19373:19392   */\n      mstore\n        /* \"modules/JengaCore.sol\":6139:6155  block.prevrandao */\n      prevrandao\n        /* \"#utility.yul\":19408:19420   */\n      swap2\n      dup2\n      add\n        /* \"#utility.yul\":19401:19429   */\n      swap2\n      swap1\n      swap2\n      mstore\n        /* \"#utility.yul\":19445:19457   */\n      0x60\n      dup2\n      add\n        /* \"#utility.yul\":19438:19466   */\n      dup3\n      swap1\n      mstore\n        /* \"modules/JengaCore.sol\":6065:6084  uint256 randomIndex */\n      0x00\n      swap1\n        /* \"modules/JengaCore.sol\":6164:6170  length */\n      dup4\n      swap1\n        /* \"#utility.yul\":19482:19494   */\n      0x80\n      add\n        /* \"modules/JengaCore.sol\":6105:6159  abi.encodePacked(block.timestamp, block.prevrandao, i) */\n      mload(0x40)\n      0x20\n      dup2\n      dup4\n      sub\n      sub\n      dup2\n      mstore\n      swap1\n      0x40\n      mstore\n        /* \"modules/JengaCore.sol\":6095:6160  keccak256(abi.encodePacked(block.timestamp, block.prevrandao, i)) */\n      dup1\n      mload\n      swap1\n      0x20\n      add\n      keccak256\n        /* \"modules/JengaCore.sol\":6087:6161  uint256(keccak256(abi.encodePacked(block.timestamp, block.prevrandao, i))) */\n      0x00\n      shr\n        /* \"modules/JengaCore.sol\":6087:6170  uint256(keccak256(abi.encodePacked(block.timestamp, block.prevrandao, i))) % length */\n      tag_432\n      swap2\n      swap1\n      tag_433\n      jump\t// in\n    tag_432:\n        /* \"modules/JengaCore.sol\":6065:6170  uint256 randomIndex = uint256(keccak256(abi.encodePacked(block.timestamp, block.prevrandao, i))) % length */\n      swap1\n      pop\n        /* \"modules/JengaCore.sol\":6225:6237  address temp */\n      0x00\n        /* \"modules/JengaCore.sol\":6240:6245  chama */\n      dup5\n        /* \"modules/JengaCore.sol\":6240:6253  chama.members */\n      0x04\n      add\n        /* \"modules/JengaCore.sol\":6254:6255  i */\n      dup4\n        /* \"modules/JengaCore.sol\":6240:6256  chama.members[i] */\n      dup2\n      sload\n      dup2\n      lt\n      tag_435\n      jumpi\n      tag_435\n      tag_181\n      jump\t// in\n    tag_435:\n      0x00\n      swap2\n      dup3\n      mstore\n      0x20\n      swap1\n      swap2\n      keccak256\n      add\n      sload\n        /* \"modules/JengaCore.sol\":6289:6302  chama.members */\n      0x04\n      dup7\n      add\n        /* \"modules/JengaCore.sol\":6289:6315  chama.members[randomIndex] */\n      dup1\n      sload\n      sub(shl(0xa0, 0x01), 0x01)\n        /* \"modules/JengaCore.sol\":6240:6256  chama.members[i] */\n      swap1\n      swap3\n      and\n      swap3\n      pop\n        /* \"modules/JengaCore.sol\":6289:6302  chama.members */\n      swap1\n        /* \"modules/JengaCore.sol\":6303:6314  randomIndex */\n      dup4\n      swap1\n        /* \"modules/JengaCore.sol\":6289:6315  chama.members[randomIndex] */\n      dup2\n      lt\n      tag_438\n      jumpi\n      tag_438\n      tag_181\n      jump\t// in\n    tag_438:\n      0x00\n      swap2\n      dup3\n      mstore\n      0x20\n      swap1\n      swap2\n      keccak256\n      add\n      sload\n        /* \"modules/JengaCore.sol\":6270:6283  chama.members */\n      0x04\n      dup7\n      add\n        /* \"modules/JengaCore.sol\":6270:6286  chama.members[i] */\n      dup1\n      sload\n      sub(shl(0xa0, 0x01), 0x01)\n        /* \"modules/JengaCore.sol\":6289:6315  chama.members[randomIndex] */\n      swap1\n      swap3\n      and\n      swap2\n        /* \"modules/JengaCore.sol\":6284:6285  i */\n      dup6\n      swap1\n        /* \"modules/JengaCore.sol\":6270:6286  chama.members[i] */\n      dup2\n      lt\n      tag_441\n      jumpi\n      tag_441\n      tag_181\n      jump\t// in\n    tag_441:\n      swap1\n      0x00\n      mstore\n      keccak256(0x00, 0x20)\n      add\n      0x00\n        /* \"modules/JengaCore.sol\":6270:6315  chama.members[i] = chama.members[randomIndex] */\n      0x0100\n      exp\n      dup2\n      sload\n      dup2\n      sub(shl(0xa0, 0x01), 0x01)\n      mul\n      not\n      and\n      swap1\n      dup4\n      sub(shl(0xa0, 0x01), 0x01)\n      and\n      mul\n      or\n      swap1\n      sstore\n      pop\n        /* \"modules/JengaCore.sol\":6358:6362  temp */\n      dup1\n        /* \"modules/JengaCore.sol\":6329:6334  chama */\n      dup6\n        /* \"modules/JengaCore.sol\":6329:6342  chama.members */\n      0x04\n      add\n        /* \"modules/JengaCore.sol\":6343:6354  randomIndex */\n      dup4\n        /* \"modules/JengaCore.sol\":6329:6355  chama.members[randomIndex] */\n      dup2\n      sload\n      dup2\n      lt\n      tag_444\n      jumpi\n      tag_444\n      tag_181\n      jump\t// in\n    tag_444:\n      swap1\n      0x00\n      mstore\n      keccak256(0x00, 0x20)\n      add\n      0x00\n        /* \"modules/JengaCore.sol\":6329:6362  chama.members[randomIndex] = temp */\n      0x0100\n      exp\n      dup2\n      sload\n      dup2\n      sub(shl(0xa0, 0x01), 0x01)\n      mul\n      not\n      and\n      swap1\n      dup4\n      sub(shl(0xa0, 0x01), 0x01)\n      and\n      mul\n      or\n      swap1\n      sstore\n      pop\n        /* \"modules/JengaCore.sol\":6464:6465  i */\n      dup3\n        /* \"modules/JengaCore.sol\":6426:6431  chama */\n      dup6\n        /* \"modules/JengaCore.sol\":6426:6443  chama.memberIndex */\n      0x0c\n      add\n        /* \"modules/JengaCore.sol\":6426:6461  chama.memberIndex[chama.members[i]] */\n      0x00\n        /* \"modules/JengaCore.sol\":6444:6449  chama */\n      dup8\n        /* \"modules/JengaCore.sol\":6444:6457  chama.members */\n      0x04\n      add\n        /* \"modules/JengaCore.sol\":6458:6459  i */\n      dup7\n        /* \"modules/JengaCore.sol\":6444:6460  chama.members[i] */\n      dup2\n      sload\n      dup2\n      lt\n      tag_447\n      jumpi\n      tag_447\n      tag_181\n      jump\t// in\n    tag_447:\n      0x00\n      swap2\n      dup3\n      mstore\n      0x20\n      dup1\n      dup4\n      keccak256\n      swap1\n      swap2\n      add\n      sload\n      sub(shl(0xa0, 0x01), 0x01)\n      and\n        /* \"modules/JengaCore.sol\":6426:6461  chama.memberIndex[chama.members[i]] */\n      dup4\n      mstore\n      dup3\n      add\n      swap3\n      swap1\n      swap3\n      mstore\n      0x40\n      add\n      dup2\n      keccak256\n        /* \"modules/JengaCore.sol\":6426:6465  chama.memberIndex[chama.members[i]] = i */\n      swap2\n      swap1\n      swap2\n      sstore\n        /* \"modules/JengaCore.sol\":6497:6510  chama.members */\n      0x04\n      dup7\n      add\n        /* \"modules/JengaCore.sol\":6497:6523  chama.members[randomIndex] */\n      dup1\n      sload\n        /* \"modules/JengaCore.sol\":6527:6538  randomIndex */\n      dup5\n      swap3\n        /* \"modules/JengaCore.sol\":6479:6496  chama.memberIndex */\n      0x0c\n      dup10\n      add\n      swap3\n        /* \"modules/JengaCore.sol\":6444:6460  chama.members[i] */\n      swap1\n      swap2\n        /* \"modules/JengaCore.sol\":6527:6538  randomIndex */\n      dup5\n      swap1\n        /* \"modules/JengaCore.sol\":6497:6523  chama.members[randomIndex] */\n      dup2\n      lt\n      tag_450\n      jumpi\n      tag_450\n      tag_181\n      jump\t// in\n    tag_450:\n      0x00\n      swap2\n      dup3\n      mstore\n      0x20\n      dup1\n      dup4\n      keccak256\n      swap1\n      swap2\n      add\n      sload\n      sub(shl(0xa0, 0x01), 0x01)\n      and\n        /* \"modules/JengaCore.sol\":6479:6524  chama.memberIndex[chama.members[randomIndex]] */\n      dup4\n      mstore\n      dup3\n      add\n      swap3\n      swap1\n      swap3\n      mstore\n      0x40\n      add\n      swap1\n      keccak256\n        /* \"modules/JengaCore.sol\":6479:6538  chama.memberIndex[chama.members[randomIndex]] = randomIndex */\n      sstore\n      pop\n      pop\n        /* \"modules/JengaCore.sol\":6497:6523  chama.members[randomIndex] */\n      0x01\n        /* \"modules/JengaCore.sol\":6046:6049  i++ */\n      add\n        /* \"modules/JengaCore.sol\":6014:6549  for (uint256 i = 0; i < length; i++) {... */\n      jump(tag_427)\n        /* \"#utility.yul\":14:187   */\n    tag_452:\n        /* \"#utility.yul\":82:102   */\n      dup1\n      calldataload\n      sub(shl(0xa0, 0x01), 0x01)\n        /* \"#utility.yul\":131:162   */\n      dup2\n      and\n        /* \"#utility.yul\":121:163   */\n      dup2\n      eq\n        /* \"#utility.yul\":111:181   */\n      tag_461\n      jumpi\n        /* \"#utility.yul\":177:178   */\n      0x00\n        /* \"#utility.yul\":174:175   */\n      0x00\n        /* \"#utility.yul\":167:179   */\n      revert\n        /* \"#utility.yul\":111:181   */\n    tag_461:\n        /* \"#utility.yul\":14:187   */\n      swap2\n      swap1\n      pop\n      jump\t// out\n        /* \"#utility.yul\":192:492   */\n    tag_38:\n        /* \"#utility.yul\":260:266   */\n      0x00\n        /* \"#utility.yul\":268:274   */\n      0x00\n        /* \"#utility.yul\":321:323   */\n      0x40\n        /* \"#utility.yul\":309:318   */\n      dup4\n        /* \"#utility.yul\":300:307   */\n      dup6\n        /* \"#utility.yul\":296:319   */\n      sub\n        /* \"#utility.yul\":292:324   */\n      slt\n        /* \"#utility.yul\":289:341   */\n      iszero\n      tag_463\n      jumpi\n        /* \"#utility.yul\":337:338   */\n      0x00\n        /* \"#utility.yul\":334:335   */\n      0x00\n        /* \"#utility.yul\":327:339   */\n      revert\n        /* \"#utility.yul\":289:341   */\n    tag_463:\n        /* \"#utility.yul\":382:405   */\n      dup3\n      calldataload\n      swap2\n      pop\n        /* \"#utility.yul\":448:486   */\n      tag_464\n        /* \"#utility.yul\":482:484   */\n      0x20\n        /* \"#utility.yul\":467:485   */\n      dup5\n      add\n        /* \"#utility.yul\":448:486   */\n      tag_452\n      jump\t// in\n    tag_464:\n        /* \"#utility.yul\":438:486   */\n      swap1\n      pop\n        /* \"#utility.yul\":192:492   */\n      swap3\n      pop\n      swap3\n      swap1\n      pop\n      jump\t// out\n        /* \"#utility.yul\":497:723   */\n    tag_43:\n        /* \"#utility.yul\":556:562   */\n      0x00\n        /* \"#utility.yul\":609:611   */\n      0x20\n        /* \"#utility.yul\":597:606   */\n      dup3\n        /* \"#utility.yul\":588:595   */\n      dup5\n        /* \"#utility.yul\":584:607   */\n      sub\n        /* \"#utility.yul\":580:612   */\n      slt\n        /* \"#utility.yul\":577:629   */\n      iszero\n      tag_466\n      jumpi\n        /* \"#utility.yul\":625:626   */\n      0x00\n        /* \"#utility.yul\":622:623   */\n      0x00\n        /* \"#utility.yul\":615:627   */\n      revert\n        /* \"#utility.yul\":577:629   */\n    tag_466:\n      pop\n        /* \"#utility.yul\":670:693   */\n      calldataload\n      swap2\n        /* \"#utility.yul\":497:723   */\n      swap1\n      pop\n      jump\t// out\n        /* \"#utility.yul\":728:1017   */\n    tag_453:\n        /* \"#utility.yul\":770:773   */\n      0x00\n        /* \"#utility.yul\":808:813   */\n      dup2\n        /* \"#utility.yul\":802:814   */\n      mload\n        /* \"#utility.yul\":835:841   */\n      dup1\n        /* \"#utility.yul\":830:833   */\n      dup5\n        /* \"#utility.yul\":823:842   */\n      mstore\n        /* \"#utility.yul\":891:897   */\n      dup1\n        /* \"#utility.yul\":884:888   */\n      0x20\n        /* \"#utility.yul\":877:882   */\n      dup5\n        /* \"#utility.yul\":873:889   */\n      add\n        /* \"#utility.yul\":866:870   */\n      0x20\n        /* \"#utility.yul\":861:864   */\n      dup7\n        /* \"#utility.yul\":857:871   */\n      add\n        /* \"#utility.yul\":851:898   */\n      mcopy\n        /* \"#utility.yul\":943:944   */\n      0x00\n        /* \"#utility.yul\":936:940   */\n      0x20\n        /* \"#utility.yul\":927:933   */\n      dup3\n        /* \"#utility.yul\":922:925   */\n      dup7\n        /* \"#utility.yul\":918:934   */\n      add\n        /* \"#utility.yul\":914:941   */\n      add\n        /* \"#utility.yul\":907:945   */\n      mstore\n        /* \"#utility.yul\":1006:1010   */\n      0x20\n        /* \"#utility.yul\":999:1001   */\n      0x1f\n        /* \"#utility.yul\":995:1002   */\n      not\n        /* \"#utility.yul\":990:992   */\n      0x1f\n        /* \"#utility.yul\":982:988   */\n      dup4\n        /* \"#utility.yul\":978:993   */\n      add\n        /* \"#utility.yul\":974:1003   */\n      and\n        /* \"#utility.yul\":969:972   */\n      dup6\n        /* \"#utility.yul\":965:1004   */\n      add\n        /* \"#utility.yul\":961:1011   */\n      add\n        /* \"#utility.yul\":954:1011   */\n      swap2\n      pop\n      pop\n        /* \"#utility.yul\":728:1017   */\n      swap3\n      swap2\n      pop\n      pop\n      jump\t// out\n        /* \"#utility.yul\":1022:1899   */\n    tag_46:\n        /* \"#utility.yul\":1417:1420   */\n      0x0140\n        /* \"#utility.yul\":1406:1415   */\n      dup2\n        /* \"#utility.yul\":1399:1421   */\n      mstore\n        /* \"#utility.yul\":1380:1384   */\n      0x00\n        /* \"#utility.yul\":1438:1484   */\n      tag_469\n        /* \"#utility.yul\":1479:1482   */\n      0x0140\n        /* \"#utility.yul\":1468:1477   */\n      dup4\n        /* \"#utility.yul\":1464:1483   */\n      add\n        /* \"#utility.yul\":1456:1462   */\n      dup14\n        /* \"#utility.yul\":1438:1484   */\n      tag_453\n      jump\t// in\n    tag_469:\n        /* \"#utility.yul\":1515:1517   */\n      0x20\n        /* \"#utility.yul\":1500:1518   */\n      dup4\n      add\n        /* \"#utility.yul\":1493:1527   */\n      swap12\n      swap1\n      swap12\n      mstore\n      pop\n        /* \"#utility.yul\":1558:1560   */\n      0x40\n        /* \"#utility.yul\":1543:1561   */\n      dup2\n      add\n        /* \"#utility.yul\":1536:1570   */\n      swap9\n      swap1\n      swap9\n      mstore\n        /* \"#utility.yul\":1601:1603   */\n      0x60\n        /* \"#utility.yul\":1586:1604   */\n      dup9\n      add\n        /* \"#utility.yul\":1579:1613   */\n      swap7\n      swap1\n      swap7\n      mstore\n        /* \"#utility.yul\":1657:1671   */\n      swap4\n      iszero\n        /* \"#utility.yul\":1650:1672   */\n      iszero\n        /* \"#utility.yul\":1644:1647   */\n      0x80\n        /* \"#utility.yul\":1629:1648   */\n      dup8\n      add\n        /* \"#utility.yul\":1622:1673   */\n      mstore\n        /* \"#utility.yul\":1704:1707   */\n      0xa0\n        /* \"#utility.yul\":1689:1708   */\n      dup7\n      add\n        /* \"#utility.yul\":1682:1717   */\n      swap3\n      swap1\n      swap3\n      mstore\n        /* \"#utility.yul\":1748:1751   */\n      0xc0\n        /* \"#utility.yul\":1733:1752   */\n      dup6\n      add\n        /* \"#utility.yul\":1726:1761   */\n      mstore\n        /* \"#utility.yul\":1792:1795   */\n      0xe0\n        /* \"#utility.yul\":1777:1796   */\n      dup5\n      add\n        /* \"#utility.yul\":1770:1805   */\n      mstore\n        /* \"#utility.yul\":1836:1839   */\n      0x0100\n        /* \"#utility.yul\":1821:1840   */\n      dup4\n      add\n        /* \"#utility.yul\":1814:1849   */\n      mstore\n        /* \"#utility.yul\":1880:1883   */\n      0x0120\n        /* \"#utility.yul\":1865:1884   */\n      swap1\n      swap2\n      add\n        /* \"#utility.yul\":1858:1893   */\n      mstore\n        /* \"#utility.yul\":1430:1484   */\n      swap2\n        /* \"#utility.yul\":1022:1899   */\n      swap1\n      pop\n      jump\t// out\n        /* \"#utility.yul\":2096:2396   */\n    tag_63:\n        /* \"#utility.yul\":2164:2170   */\n      0x00\n        /* \"#utility.yul\":2172:2178   */\n      0x00\n        /* \"#utility.yul\":2225:2227   */\n      0x40\n        /* \"#utility.yul\":2213:2222   */\n      dup4\n        /* \"#utility.yul\":2204:2211   */\n      dup6\n        /* \"#utility.yul\":2200:2223   */\n      sub\n        /* \"#utility.yul\":2196:2228   */\n      slt\n        /* \"#utility.yul\":2193:2245   */\n      iszero\n      tag_472\n      jumpi\n        /* \"#utility.yul\":2241:2242   */\n      0x00\n        /* \"#utility.yul\":2238:2239   */\n      0x00\n        /* \"#utility.yul\":2231:2243   */\n      revert\n        /* \"#utility.yul\":2193:2245   */\n    tag_472:\n        /* \"#utility.yul\":2264:2293   */\n      tag_473\n        /* \"#utility.yul\":2283:2292   */\n      dup4\n        /* \"#utility.yul\":2264:2293   */\n      tag_452\n      jump\t// in\n    tag_473:\n        /* \"#utility.yul\":2254:2293   */\n      swap5\n        /* \"#utility.yul\":2362:2364   */\n      0x20\n        /* \"#utility.yul\":2347:2365   */\n      swap4\n      swap1\n      swap4\n      add\n        /* \"#utility.yul\":2334:2366   */\n      calldataload\n      swap4\n      pop\n      pop\n      pop\n        /* \"#utility.yul\":2096:2396   */\n      jump\t// out\n        /* \"#utility.yul\":2583:2769   */\n    tag_70:\n        /* \"#utility.yul\":2642:2648   */\n      0x00\n        /* \"#utility.yul\":2695:2697   */\n      0x20\n        /* \"#utility.yul\":2683:2692   */\n      dup3\n        /* \"#utility.yul\":2674:2681   */\n      dup5\n        /* \"#utility.yul\":2670:2693   */\n      sub\n        /* \"#utility.yul\":2666:2698   */\n      slt\n        /* \"#utility.yul\":2663:2715   */\n      iszero\n      tag_476\n      jumpi\n        /* \"#utility.yul\":2711:2712   */\n      0x00\n        /* \"#utility.yul\":2708:2709   */\n      0x00\n        /* \"#utility.yul\":2701:2713   */\n      revert\n        /* \"#utility.yul\":2663:2715   */\n    tag_476:\n        /* \"#utility.yul\":2734:2763   */\n      tag_477\n        /* \"#utility.yul\":2753:2762   */\n      dup3\n        /* \"#utility.yul\":2734:2763   */\n      tag_452\n      jump\t// in\n    tag_477:\n        /* \"#utility.yul\":2724:2763   */\n      swap4\n        /* \"#utility.yul\":2583:2769   */\n      swap3\n      pop\n      pop\n      pop\n      jump\t// out\n        /* \"#utility.yul\":2774:3120   */\n    tag_86:\n        /* \"#utility.yul\":2842:2848   */\n      0x00\n        /* \"#utility.yul\":2850:2856   */\n      0x00\n        /* \"#utility.yul\":2903:2905   */\n      0x40\n        /* \"#utility.yul\":2891:2900   */\n      dup4\n        /* \"#utility.yul\":2882:2889   */\n      dup6\n        /* \"#utility.yul\":2878:2901   */\n      sub\n        /* \"#utility.yul\":2874:2906   */\n      slt\n        /* \"#utility.yul\":2871:2923   */\n      iszero\n      tag_479\n      jumpi\n        /* \"#utility.yul\":2919:2920   */\n      0x00\n        /* \"#utility.yul\":2916:2917   */\n      0x00\n        /* \"#utility.yul\":2909:2921   */\n      revert\n        /* \"#utility.yul\":2871:2923   */\n    tag_479:\n      pop\n      pop\n        /* \"#utility.yul\":2964:2987   */\n      dup1\n      calldataload\n      swap3\n        /* \"#utility.yul\":3084:3086   */\n      0x20\n        /* \"#utility.yul\":3069:3087   */\n      swap1\n      swap2\n      add\n        /* \"#utility.yul\":3056:3088   */\n      calldataload\n      swap2\n      pop\n        /* \"#utility.yul\":2774:3120   */\n      jump\t// out\n        /* \"#utility.yul\":3683:3903   */\n    tag_142:\n        /* \"#utility.yul\":3832:3834   */\n      0x20\n        /* \"#utility.yul\":3821:3830   */\n      dup2\n        /* \"#utility.yul\":3814:3835   */\n      mstore\n        /* \"#utility.yul\":3795:3799   */\n      0x00\n        /* \"#utility.yul\":3852:3897   */\n      tag_477\n        /* \"#utility.yul\":3893:3895   */\n      0x20\n        /* \"#utility.yul\":3882:3891   */\n      dup4\n        /* \"#utility.yul\":3878:3896   */\n      add\n        /* \"#utility.yul\":3870:3876   */\n      dup5\n        /* \"#utility.yul\":3852:3897   */\n      tag_453\n      jump\t// in\n        /* \"#utility.yul\":3908:4545   */\n    tag_157:\n        /* \"#utility.yul\":4098:4100   */\n      0x20\n        /* \"#utility.yul\":4110:4131   */\n      dup1\n      dup3\n      mstore\n        /* \"#utility.yul\":4180:4193   */\n      dup3\n      mload\n        /* \"#utility.yul\":4083:4101   */\n      dup3\n      dup3\n      add\n        /* \"#utility.yul\":4202:4224   */\n      dup2\n      swap1\n      mstore\n        /* \"#utility.yul\":4050:4054   */\n      0x00\n      swap2\n        /* \"#utility.yul\":4281:4296   */\n      dup5\n      add\n      swap1\n        /* \"#utility.yul\":4255:4257   */\n      0x40\n        /* \"#utility.yul\":4240:4258   */\n      dup5\n      add\n      swap1\n        /* \"#utility.yul\":4050:4054   */\n      dup4\n        /* \"#utility.yul\":4324:4519   */\n    tag_485:\n        /* \"#utility.yul\":4338:4344   */\n      dup2\n        /* \"#utility.yul\":4335:4336   */\n      dup2\n        /* \"#utility.yul\":4332:4345   */\n      lt\n        /* \"#utility.yul\":4324:4519   */\n      iszero\n      tag_487\n      jumpi\n        /* \"#utility.yul\":4403:4416   */\n      dup4\n      mload\n      sub(shl(0xa0, 0x01), 0x01)\n        /* \"#utility.yul\":4399:4438   */\n      and\n        /* \"#utility.yul\":4387:4439   */\n      dup4\n      mstore\n        /* \"#utility.yul\":4468:4470   */\n      0x20\n        /* \"#utility.yul\":4494:4509   */\n      swap4\n      dup5\n      add\n      swap4\n        /* \"#utility.yul\":4459:4471   */\n      swap1\n      swap3\n      add\n      swap2\n        /* \"#utility.yul\":4435:4436   */\n      0x01\n        /* \"#utility.yul\":4353:4362   */\n      add\n        /* \"#utility.yul\":4324:4519   */\n      jump(tag_485)\n    tag_487:\n      pop\n        /* \"#utility.yul\":4536:4539   */\n      swap1\n      swap6\n        /* \"#utility.yul\":3908:4545   */\n      swap5\n      pop\n      pop\n      pop\n      pop\n      pop\n      jump\t// out\n        /* \"#utility.yul\":4550:4677   */\n    tag_454:\n        /* \"#utility.yul\":4611:4621   */\n      0x4e487b71\n        /* \"#utility.yul\":4606:4609   */\n      0xe0\n        /* \"#utility.yul\":4602:4622   */\n      shl\n        /* \"#utility.yul\":4599:4600   */\n      0x00\n        /* \"#utility.yul\":4592:4623   */\n      mstore\n        /* \"#utility.yul\":4642:4646   */\n      0x41\n        /* \"#utility.yul\":4639:4640   */\n      0x04\n        /* \"#utility.yul\":4632:4647   */\n      mstore\n        /* \"#utility.yul\":4666:4670   */\n      0x24\n        /* \"#utility.yul\":4663:4664   */\n      0x00\n        /* \"#utility.yul\":4656:4671   */\n      revert\n        /* \"#utility.yul\":4682:5992   */\n    tag_164:\n        /* \"#utility.yul\":4778:4784   */\n      0x00\n        /* \"#utility.yul\":4786:4792   */\n      0x00\n        /* \"#utility.yul\":4794:4800   */\n      0x00\n        /* \"#utility.yul\":4802:4808   */\n      0x00\n        /* \"#utility.yul\":4855:4858   */\n      0x80\n        /* \"#utility.yul\":4843:4852   */\n      dup6\n        /* \"#utility.yul\":4834:4841   */\n      dup8\n        /* \"#utility.yul\":4830:4853   */\n      sub\n        /* \"#utility.yul\":4826:4859   */\n      slt\n        /* \"#utility.yul\":4823:4876   */\n      iszero\n      tag_490\n      jumpi\n        /* \"#utility.yul\":4872:4873   */\n      0x00\n        /* \"#utility.yul\":4869:4870   */\n      0x00\n        /* \"#utility.yul\":4862:4874   */\n      revert\n        /* \"#utility.yul\":4823:4876   */\n    tag_490:\n        /* \"#utility.yul\":4912:4921   */\n      dup5\n        /* \"#utility.yul\":4899:4922   */\n      calldataload\n        /* \"#utility.yul\":4945:4963   */\n      0xffffffffffffffff\n        /* \"#utility.yul\":4937:4943   */\n      dup2\n        /* \"#utility.yul\":4934:4964   */\n      gt\n        /* \"#utility.yul\":4931:4981   */\n      iszero\n      tag_491\n      jumpi\n        /* \"#utility.yul\":4977:4978   */\n      0x00\n        /* \"#utility.yul\":4974:4975   */\n      0x00\n        /* \"#utility.yul\":4967:4979   */\n      revert\n        /* \"#utility.yul\":4931:4981   */\n    tag_491:\n        /* \"#utility.yul\":5000:5022   */\n      dup6\n      add\n        /* \"#utility.yul\":5053:5057   */\n      0x1f\n        /* \"#utility.yul\":5045:5058   */\n      dup2\n      add\n        /* \"#utility.yul\":5041:5068   */\n      dup8\n      sgt\n        /* \"#utility.yul\":5031:5086   */\n      tag_492\n      jumpi\n        /* \"#utility.yul\":5082:5083   */\n      0x00\n        /* \"#utility.yul\":5079:5080   */\n      0x00\n        /* \"#utility.yul\":5072:5084   */\n      revert\n        /* \"#utility.yul\":5031:5086   */\n    tag_492:\n        /* \"#utility.yul\":5122:5124   */\n      dup1\n        /* \"#utility.yul\":5109:5125   */\n      calldataload\n        /* \"#utility.yul\":5148:5166   */\n      0xffffffffffffffff\n        /* \"#utility.yul\":5140:5146   */\n      dup2\n        /* \"#utility.yul\":5137:5167   */\n      gt\n        /* \"#utility.yul\":5134:5190   */\n      iszero\n      tag_494\n      jumpi\n        /* \"#utility.yul\":5170:5188   */\n      tag_494\n      tag_454\n      jump\t// in\n    tag_494:\n        /* \"#utility.yul\":5219:5221   */\n      0x40\n        /* \"#utility.yul\":5213:5222   */\n      mload\n        /* \"#utility.yul\":5311:5313   */\n      0x1f\n        /* \"#utility.yul\":5273:5290   */\n      dup3\n      add\n      not(0x1f)\n        /* \"#utility.yul\":5269:5300   */\n      swap1\n      dup2\n      and\n        /* \"#utility.yul\":5302:5304   */\n      0x3f\n        /* \"#utility.yul\":5265:5305   */\n      add\n        /* \"#utility.yul\":5261:5315   */\n      and\n        /* \"#utility.yul\":5249:5316   */\n      dup2\n      add\n        /* \"#utility.yul\":5346:5364   */\n      0xffffffffffffffff\n        /* \"#utility.yul\":5331:5365   */\n      dup2\n      gt\n        /* \"#utility.yul\":5367:5389   */\n      dup3\n      dup3\n      lt\n        /* \"#utility.yul\":5328:5390   */\n      or\n        /* \"#utility.yul\":5325:5413   */\n      iszero\n      tag_496\n      jumpi\n        /* \"#utility.yul\":5393:5411   */\n      tag_496\n      tag_454\n      jump\t// in\n    tag_496:\n        /* \"#utility.yul\":5429:5431   */\n      0x40\n        /* \"#utility.yul\":5422:5444   */\n      mstore\n        /* \"#utility.yul\":5453:5475   */\n      dup2\n      dup2\n      mstore\n        /* \"#utility.yul\":5494:5509   */\n      dup3\n      dup3\n      add\n        /* \"#utility.yul\":5511:5515   */\n      0x20\n        /* \"#utility.yul\":5490:5516   */\n      add\n        /* \"#utility.yul\":5487:5526   */\n      dup10\n      lt\n        /* \"#utility.yul\":5484:5543   */\n      iszero\n      tag_497\n      jumpi\n        /* \"#utility.yul\":5539:5540   */\n      0x00\n        /* \"#utility.yul\":5536:5537   */\n      0x00\n        /* \"#utility.yul\":5529:5541   */\n      revert\n        /* \"#utility.yul\":5484:5543   */\n    tag_497:\n        /* \"#utility.yul\":5599:5605   */\n      dup2\n        /* \"#utility.yul\":5592:5596   */\n      0x20\n        /* \"#utility.yul\":5588:5590   */\n      dup5\n        /* \"#utility.yul\":5584:5597   */\n      add\n        /* \"#utility.yul\":5577:5581   */\n      0x20\n        /* \"#utility.yul\":5569:5575   */\n      dup4\n        /* \"#utility.yul\":5565:5582   */\n      add\n        /* \"#utility.yul\":5552:5606   */\n      calldatacopy\n        /* \"#utility.yul\":5654:5655   */\n      0x00\n        /* \"#utility.yul\":5647:5651   */\n      0x20\n        /* \"#utility.yul\":5626:5645   */\n      swap3\n      dup3\n      add\n        /* \"#utility.yul\":5622:5652   */\n      dup4\n      add\n        /* \"#utility.yul\":5615:5656   */\n      mstore\n        /* \"#utility.yul\":5626:5645   */\n      swap9\n        /* \"#utility.yul\":5735:5755   */\n      swap1\n      dup8\n      add\n        /* \"#utility.yul\":5722:5756   */\n      calldataload\n      swap8\n      pop\n        /* \"#utility.yul\":5853:5855   */\n      0x40\n        /* \"#utility.yul\":5838:5856   */\n      dup8\n      add\n        /* \"#utility.yul\":5825:5857   */\n      calldataload\n      swap7\n        /* \"#utility.yul\":5956:5958   */\n      0x60\n        /* \"#utility.yul\":5941:5959   */\n      add\n        /* \"#utility.yul\":5928:5960   */\n      calldataload\n      swap6\n      pop\n        /* \"#utility.yul\":5630:5636   */\n      swap4\n      pop\n      pop\n      pop\n      pop\n        /* \"#utility.yul\":4682:5992   */\n      jump\t// out\n        /* \"#utility.yul\":6704:7040   */\n    tag_178:\n        /* \"#utility.yul\":6906:6908   */\n      0x20\n        /* \"#utility.yul\":6888:6909   */\n      dup1\n      dup3\n      mstore\n        /* \"#utility.yul\":6945:6947   */\n      0x0c\n        /* \"#utility.yul\":6925:6943   */\n      swap1\n      dup3\n      add\n        /* \"#utility.yul\":6918:6948   */\n      mstore\n      shl(0xa1, 0x2737ba10309036b2b6b132b9)\n        /* \"#utility.yul\":6979:6981   */\n      0x40\n        /* \"#utility.yul\":6964:6982   */\n      dup3\n      add\n        /* \"#utility.yul\":6957:6999   */\n      mstore\n        /* \"#utility.yul\":7031:7033   */\n      0x60\n        /* \"#utility.yul\":7016:7034   */\n      add\n      swap1\n        /* \"#utility.yul\":6704:7040   */\n      jump\t// out\n        /* \"#utility.yul\":7045:7172   */\n    tag_181:\n        /* \"#utility.yul\":7106:7116   */\n      0x4e487b71\n        /* \"#utility.yul\":7101:7104   */\n      0xe0\n        /* \"#utility.yul\":7097:7117   */\n      shl\n        /* \"#utility.yul\":7094:7095   */\n      0x00\n        /* \"#utility.yul\":7087:7118   */\n      mstore\n        /* \"#utility.yul\":7137:7141   */\n      0x32\n        /* \"#utility.yul\":7134:7135   */\n      0x04\n        /* \"#utility.yul\":7127:7142   */\n      mstore\n        /* \"#utility.yul\":7161:7165   */\n      0x24\n        /* \"#utility.yul\":7158:7159   */\n      0x00\n        /* \"#utility.yul\":7151:7166   */\n      revert\n        /* \"#utility.yul\":7518:7645   */\n    tag_455:\n        /* \"#utility.yul\":7579:7589   */\n      0x4e487b71\n        /* \"#utility.yul\":7574:7577   */\n      0xe0\n        /* \"#utility.yul\":7570:7590   */\n      shl\n        /* \"#utility.yul\":7567:7568   */\n      0x00\n        /* \"#utility.yul\":7560:7591   */\n      mstore\n        /* \"#utility.yul\":7610:7614   */\n      0x11\n        /* \"#utility.yul\":7607:7608   */\n      0x04\n        /* \"#utility.yul\":7600:7615   */\n      mstore\n        /* \"#utility.yul\":7634:7638   */\n      0x24\n        /* \"#utility.yul\":7631:7632   */\n      0x00\n        /* \"#utility.yul\":7624:7639   */\n      revert\n        /* \"#utility.yul\":7650:7818   */\n    tag_187:\n        /* \"#utility.yul\":7723:7732   */\n      dup1\n      dup3\n      mul\n        /* \"#utility.yul\":7754:7763   */\n      dup2\n      iszero\n        /* \"#utility.yul\":7771:7786   */\n      dup3\n      dup3\n      div\n        /* \"#utility.yul\":7765:7787   */\n      dup5\n      eq\n        /* \"#utility.yul\":7751:7788   */\n      or\n        /* \"#utility.yul\":7741:7812   */\n      tag_256\n      jumpi\n        /* \"#utility.yul\":7792:7810   */\n      tag_256\n      tag_455\n      jump\t// in\n        /* \"#utility.yul\":7823:7948   */\n    tag_194:\n        /* \"#utility.yul\":7888:7897   */\n      dup1\n      dup3\n      add\n        /* \"#utility.yul\":7909:7919   */\n      dup1\n      dup3\n      gt\n        /* \"#utility.yul\":7906:7942   */\n      iszero\n      tag_256\n      jumpi\n        /* \"#utility.yul\":7922:7940   */\n      tag_256\n      tag_455\n      jump\t// in\n        /* \"#utility.yul\":8375:8755   */\n    tag_198:\n        /* \"#utility.yul\":8454:8455   */\n      0x01\n        /* \"#utility.yul\":8450:8462   */\n      dup2\n      dup2\n      shr\n      swap1\n        /* \"#utility.yul\":8497:8509   */\n      dup3\n      and\n      dup1\n        /* \"#utility.yul\":8518:8579   */\n      tag_512\n      jumpi\n        /* \"#utility.yul\":8572:8576   */\n      0x7f\n        /* \"#utility.yul\":8564:8570   */\n      dup3\n        /* \"#utility.yul\":8560:8577   */\n      and\n        /* \"#utility.yul\":8550:8577   */\n      swap2\n      pop\n        /* \"#utility.yul\":8518:8579   */\n    tag_512:\n        /* \"#utility.yul\":8625:8627   */\n      0x20\n        /* \"#utility.yul\":8617:8623   */\n      dup3\n        /* \"#utility.yul\":8614:8628   */\n      lt\n        /* \"#utility.yul\":8594:8612   */\n      dup2\n        /* \"#utility.yul\":8591:8629   */\n      sub\n        /* \"#utility.yul\":8588:8749   */\n      tag_513\n      jumpi\n        /* \"#utility.yul\":8671:8681   */\n      0x4e487b71\n        /* \"#utility.yul\":8666:8669   */\n      0xe0\n        /* \"#utility.yul\":8662:8682   */\n      shl\n        /* \"#utility.yul\":8659:8660   */\n      0x00\n        /* \"#utility.yul\":8652:8683   */\n      mstore\n        /* \"#utility.yul\":8706:8710   */\n      0x22\n        /* \"#utility.yul\":8703:8704   */\n      0x04\n        /* \"#utility.yul\":8696:8711   */\n      mstore\n        /* \"#utility.yul\":8734:8738   */\n      0x24\n        /* \"#utility.yul\":8731:8732   */\n      0x00\n        /* \"#utility.yul\":8724:8739   */\n      revert\n        /* \"#utility.yul\":8588:8749   */\n    tag_513:\n      pop\n        /* \"#utility.yul\":8375:8755   */\n      swap2\n      swap1\n      pop\n      jump\t// out\n        /* \"#utility.yul\":8760:9100   */\n    tag_206:\n        /* \"#utility.yul\":8962:8964   */\n      0x20\n        /* \"#utility.yul\":8944:8965   */\n      dup1\n      dup3\n      mstore\n        /* \"#utility.yul\":9001:9003   */\n      0x10\n        /* \"#utility.yul\":8981:8999   */\n      swap1\n      dup3\n      add\n        /* \"#utility.yul\":8974:9004   */\n      mstore\n      shl(0x80, 0x4368616d61206e6f7420616374697665)\n        /* \"#utility.yul\":9035:9037   */\n      0x40\n        /* \"#utility.yul\":9020:9038   */\n      dup3\n      add\n        /* \"#utility.yul\":9013:9059   */\n      mstore\n        /* \"#utility.yul\":9091:9093   */\n      0x60\n        /* \"#utility.yul\":9076:9094   */\n      add\n      swap1\n        /* \"#utility.yul\":8760:9100   */\n      jump\t// out\n        /* \"#utility.yul\":9797:10142   */\n    tag_224:\n        /* \"#utility.yul\":9999:10024   */\n      swap3\n      dup4\n      mstore\n      sub(shl(0xa0, 0x01), 0x01)\n        /* \"#utility.yul\":10060:10092   */\n      swap2\n      swap1\n      swap2\n      and\n        /* \"#utility.yul\":10055:10057   */\n      0x20\n        /* \"#utility.yul\":10040:10058   */\n      dup4\n      add\n        /* \"#utility.yul\":10033:10093   */\n      mstore\n        /* \"#utility.yul\":10124:10126   */\n      0x40\n        /* \"#utility.yul\":10109:10127   */\n      dup3\n      add\n        /* \"#utility.yul\":10102:10136   */\n      mstore\n        /* \"#utility.yul\":9987:9989   */\n      0x60\n        /* \"#utility.yul\":9972:9990   */\n      add\n      swap1\n        /* \"#utility.yul\":9797:10142   */\n      jump\t// out\n        /* \"#utility.yul\":16072:16207   */\n    tag_358:\n        /* \"#utility.yul\":16111:16114   */\n      0x00\n        /* \"#utility.yul\":16132:16149   */\n      0x01\n      dup3\n      add\n        /* \"#utility.yul\":16129:16172   */\n      tag_537\n      jumpi\n        /* \"#utility.yul\":16152:16170   */\n      tag_537\n      tag_455\n      jump\t// in\n    tag_537:\n      pop\n        /* \"#utility.yul\":16199:16200   */\n      0x01\n        /* \"#utility.yul\":16188:16201   */\n      add\n      swap1\n        /* \"#utility.yul\":16072:16207   */\n      jump\t// out\n        /* \"#utility.yul\":16338:16856   */\n    tag_457:\n        /* \"#utility.yul\":16440:16442   */\n      0x1f\n        /* \"#utility.yul\":16435:16438   */\n      dup3\n        /* \"#utility.yul\":16432:16443   */\n      gt\n        /* \"#utility.yul\":16429:16850   */\n      iszero\n      tag_403\n      jumpi\n        /* \"#utility.yul\":16476:16481   */\n      dup1\n        /* \"#utility.yul\":16473:16474   */\n      0x00\n        /* \"#utility.yul\":16466:16482   */\n      mstore\n        /* \"#utility.yul\":16520:16524   */\n      0x20\n        /* \"#utility.yul\":16517:16518   */\n      0x00\n        /* \"#utility.yul\":16507:16525   */\n      keccak256\n        /* \"#utility.yul\":16590:16592   */\n      0x1f\n        /* \"#utility.yul\":16578:16588   */\n      dup5\n        /* \"#utility.yul\":16574:16593   */\n      add\n        /* \"#utility.yul\":16571:16572   */\n      0x05\n        /* \"#utility.yul\":16567:16594   */\n      shr\n        /* \"#utility.yul\":16561:16565   */\n      dup2\n        /* \"#utility.yul\":16557:16595   */\n      add\n        /* \"#utility.yul\":16626:16630   */\n      0x20\n        /* \"#utility.yul\":16614:16624   */\n      dup6\n        /* \"#utility.yul\":16611:16631   */\n      lt\n        /* \"#utility.yul\":16608:16655   */\n      iszero\n      tag_541\n      jumpi\n      pop\n        /* \"#utility.yul\":16649:16653   */\n      dup1\n        /* \"#utility.yul\":16608:16655   */\n    tag_541:\n        /* \"#utility.yul\":16704:16706   */\n      0x1f\n        /* \"#utility.yul\":16699:16702   */\n      dup5\n        /* \"#utility.yul\":16695:16707   */\n      add\n        /* \"#utility.yul\":16692:16693   */\n      0x05\n        /* \"#utility.yul\":16688:16708   */\n      shr\n        /* \"#utility.yul\":16682:16686   */\n      dup3\n        /* \"#utility.yul\":16678:16709   */\n      add\n        /* \"#utility.yul\":16668:16709   */\n      swap2\n      pop\n        /* \"#utility.yul\":16759:16840   */\n    tag_542:\n        /* \"#utility.yul\":16777:16779   */\n      dup2\n        /* \"#utility.yul\":16770:16775   */\n      dup2\n        /* \"#utility.yul\":16767:16780   */\n      lt\n        /* \"#utility.yul\":16759:16840   */\n      iszero\n      tag_254\n      jumpi\n        /* \"#utility.yul\":16836:16837   */\n      0x00\n        /* \"#utility.yul\":16822:16838   */\n      dup2\n      sstore\n        /* \"#utility.yul\":16803:16804   */\n      0x01\n        /* \"#utility.yul\":16792:16805   */\n      add\n        /* \"#utility.yul\":16759:16840   */\n      jump(tag_542)\n        /* \"#utility.yul\":17032:18331   */\n    tag_360:\n        /* \"#utility.yul\":17158:17161   */\n      dup2\n        /* \"#utility.yul\":17152:17162   */\n      mload\n        /* \"#utility.yul\":17185:17203   */\n      0xffffffffffffffff\n        /* \"#utility.yul\":17177:17183   */\n      dup2\n        /* \"#utility.yul\":17174:17204   */\n      gt\n        /* \"#utility.yul\":17171:17227   */\n      iszero\n      tag_548\n      jumpi\n        /* \"#utility.yul\":17207:17225   */\n      tag_548\n      tag_454\n      jump\t// in\n    tag_548:\n        /* \"#utility.yul\":17236:17333   */\n      tag_549\n        /* \"#utility.yul\":17326:17332   */\n      dup2\n        /* \"#utility.yul\":17286:17324   */\n      tag_550\n        /* \"#utility.yul\":17318:17322   */\n      dup5\n        /* \"#utility.yul\":17312:17323   */\n      sload\n        /* \"#utility.yul\":17286:17324   */\n      tag_198\n      jump\t// in\n    tag_550:\n        /* \"#utility.yul\":17280:17284   */\n      dup5\n        /* \"#utility.yul\":17236:17333   */\n      tag_457\n      jump\t// in\n    tag_549:\n        /* \"#utility.yul\":17382:17386   */\n      0x20\n        /* \"#utility.yul\":17413:17415   */\n      0x1f\n        /* \"#utility.yul\":17402:17416   */\n      dup3\n      gt\n        /* \"#utility.yul\":17430:17431   */\n      0x01\n        /* \"#utility.yul\":17425:18074   */\n      dup2\n      eq\n      tag_552\n      jumpi\n        /* \"#utility.yul\":18118:18119   */\n      0x00\n        /* \"#utility.yul\":18135:18141   */\n      dup4\n        /* \"#utility.yul\":18132:18221   */\n      iszero\n      tag_553\n      jumpi\n      pop\n        /* \"#utility.yul\":18187:18206   */\n      dup5\n      dup3\n      add\n        /* \"#utility.yul\":18181:18207   */\n      mload\n        /* \"#utility.yul\":18132:18221   */\n    tag_553:\n      not(0x00)\n        /* \"#utility.yul\":16989:16990   */\n      0x03\n        /* \"#utility.yul\":16985:16996   */\n      dup6\n      swap1\n      shl\n        /* \"#utility.yul\":16981:17005   */\n      shr\n        /* \"#utility.yul\":16977:17006   */\n      not\n        /* \"#utility.yul\":16967:17007   */\n      and\n        /* \"#utility.yul\":17013:17014   */\n      0x01\n        /* \"#utility.yul\":17009:17020   */\n      dup5\n      swap1\n      shl\n        /* \"#utility.yul\":16964:17021   */\n      or\n        /* \"#utility.yul\":18234:18315   */\n      dup5\n      sstore\n        /* \"#utility.yul\":17395:18325   */\n      jump(tag_254)\n        /* \"#utility.yul\":17425:18074   */\n    tag_552:\n        /* \"#utility.yul\":16285:16286   */\n      0x00\n        /* \"#utility.yul\":16278:16292   */\n      dup5\n      dup2\n      mstore\n        /* \"#utility.yul\":16322:16326   */\n      0x20\n        /* \"#utility.yul\":16309:16327   */\n      dup2\n      keccak256\n      not(0x1f)\n        /* \"#utility.yul\":17461:17481   */\n      dup6\n      and\n      swap2\n        /* \"#utility.yul\":17579:17801   */\n    tag_556:\n        /* \"#utility.yul\":17593:17600   */\n      dup3\n        /* \"#utility.yul\":17590:17591   */\n      dup2\n        /* \"#utility.yul\":17587:17601   */\n      lt\n        /* \"#utility.yul\":17579:17801   */\n      iszero\n      tag_558\n      jumpi\n        /* \"#utility.yul\":17675:17694   */\n      dup8\n      dup6\n      add\n        /* \"#utility.yul\":17669:17695   */\n      mload\n        /* \"#utility.yul\":17654:17696   */\n      dup3\n      sstore\n        /* \"#utility.yul\":17782:17786   */\n      0x20\n        /* \"#utility.yul\":17767:17787   */\n      swap5\n      dup6\n      add\n      swap5\n        /* \"#utility.yul\":17735:17736   */\n      0x01\n        /* \"#utility.yul\":17723:17737   */\n      swap1\n      swap3\n      add\n      swap2\n        /* \"#utility.yul\":17609:17621   */\n      add\n        /* \"#utility.yul\":17579:17801   */\n      jump(tag_556)\n    tag_558:\n        /* \"#utility.yul\":17583:17586   */\n      pop\n        /* \"#utility.yul\":17829:17835   */\n      dup5\n        /* \"#utility.yul\":17820:17827   */\n      dup3\n        /* \"#utility.yul\":17817:17836   */\n      lt\n        /* \"#utility.yul\":17814:18015   */\n      iszero\n      tag_559\n      jumpi\n        /* \"#utility.yul\":17890:17909   */\n      dup7\n      dup5\n      add\n        /* \"#utility.yul\":17884:17910   */\n      mload\n      not(0x00)\n        /* \"#utility.yul\":17973:17974   */\n      0x03\n        /* \"#utility.yul\":17969:17983   */\n      dup8\n      swap1\n      shl\n        /* \"#utility.yul\":17985:17988   */\n      0xf8\n        /* \"#utility.yul\":17965:17989   */\n      and\n        /* \"#utility.yul\":17961:17998   */\n      shr\n        /* \"#utility.yul\":17957:17999   */\n      not\n        /* \"#utility.yul\":17942:18000   */\n      and\n        /* \"#utility.yul\":17927:18001   */\n      dup2\n      sstore\n        /* \"#utility.yul\":17814:18015   */\n    tag_559:\n      pop\n      pop\n      pop\n      pop\n        /* \"#utility.yul\":18061:18062   */\n      0x01\n        /* \"#utility.yul\":18045:18059   */\n      swap1\n      dup2\n      shl\n        /* \"#utility.yul\":18041:18063   */\n      add\n        /* \"#utility.yul\":18028:18064   */\n      swap1\n      sstore\n      pop\n        /* \"#utility.yul\":17032:18331   */\n      jump\t// out\n        /* \"#utility.yul\":18336:18797   */\n    tag_366:\n        /* \"#utility.yul\":18569:18575   */\n      dup5\n        /* \"#utility.yul\":18558:18567   */\n      dup2\n        /* \"#utility.yul\":18551:18576   */\n      mstore\n        /* \"#utility.yul\":18612:18615   */\n      0x80\n        /* \"#utility.yul\":18607:18609   */\n      0x20\n        /* \"#utility.yul\":18596:18605   */\n      dup3\n        /* \"#utility.yul\":18592:18610   */\n      add\n        /* \"#utility.yul\":18585:18616   */\n      mstore\n        /* \"#utility.yul\":18532:18536   */\n      0x00\n        /* \"#utility.yul\":18633:18679   */\n      tag_561\n        /* \"#utility.yul\":18674:18677   */\n      0x80\n        /* \"#utility.yul\":18663:18672   */\n      dup4\n        /* \"#utility.yul\":18659:18678   */\n      add\n        /* \"#utility.yul\":18651:18657   */\n      dup7\n        /* \"#utility.yul\":18633:18679   */\n      tag_453\n      jump\t// in\n    tag_561:\n      sub(shl(0xa0, 0x01), 0x01)\n        /* \"#utility.yul\":18715:18747   */\n      swap5\n      swap1\n      swap5\n      and\n        /* \"#utility.yul\":18710:18712   */\n      0x40\n        /* \"#utility.yul\":18695:18713   */\n      dup4\n      add\n        /* \"#utility.yul\":18688:18748   */\n      mstore\n      pop\n        /* \"#utility.yul\":18779:18781   */\n      0x60\n        /* \"#utility.yul\":18764:18782   */\n      add\n        /* \"#utility.yul\":18757:18791   */\n      mstore\n        /* \"#utility.yul\":18625:18679   */\n      swap3\n        /* \"#utility.yul\":18336:18797   */\n      swap2\n      pop\n      pop\n      jump\t// out\n        /* \"#utility.yul\":19055:19183   */\n    tag_382:\n        /* \"#utility.yul\":19122:19131   */\n      dup2\n      dup2\n      sub\n        /* \"#utility.yul\":19143:19154   */\n      dup2\n      dup2\n      gt\n        /* \"#utility.yul\":19140:19177   */\n      iszero\n      tag_256\n      jumpi\n        /* \"#utility.yul\":19157:19175   */\n      tag_256\n      tag_455\n      jump\t// in\n        /* \"#utility.yul\":19505:19714   */\n    tag_433:\n        /* \"#utility.yul\":19537:19538   */\n      0x00\n        /* \"#utility.yul\":19563:19564   */\n      dup3\n        /* \"#utility.yul\":19553:19685   */\n      tag_568\n      jumpi\n        /* \"#utility.yul\":19607:19617   */\n      0x4e487b71\n        /* \"#utility.yul\":19602:19605   */\n      0xe0\n        /* \"#utility.yul\":19598:19618   */\n      shl\n        /* \"#utility.yul\":19595:19596   */\n      0x00\n        /* \"#utility.yul\":19588:19619   */\n      mstore\n        /* \"#utility.yul\":19642:19646   */\n      0x12\n        /* \"#utility.yul\":19639:19640   */\n      0x04\n        /* \"#utility.yul\":19632:19647   */\n      mstore\n        /* \"#utility.yul\":19670:19674   */\n      0x24\n        /* \"#utility.yul\":19667:19668   */\n      0x00\n        /* \"#utility.yul\":19660:19675   */\n      revert\n        /* \"#utility.yul\":19553:19685   */\n    tag_568:\n      pop\n        /* \"#utility.yul\":19699:19708   */\n      mod\n      swap1\n        /* \"#utility.yul\":19505:19714   */\n      jump\t// out\n\n    auxdata: 0xa2646970667358221220ce55b88c53ba3badda60c98efc72f1c55167e623e5703433e941440307a949af64736f6c634300081e0033\n}\n",
				"bytecode": {
					"linkReferences": {},
					"object": "60806040525f6008553480156012575f5ffd5b50600980546001600160a01b03191633179055612673806100325f395ff3fe608060405260043610610195575f3560e01c80639155105f116100e7578063bf882e7311610087578063cb00d3d211610062578063cb00d3d21461058c578063daa6f020146105b8578063e69269a6146105d7578063e9ac9d1e146105ea575f5ffd5b8063bf882e7314610512578063c087e28b1461053e578063c14a2ae014610553575f5ffd5b80639facefc5116100c25780639facefc514610472578063afc737d114610491578063b34e0c47146104bf578063b4bebcfd146104f3575f5ffd5b80639155105f146103fa5780639db6a08f146104195780639ef4cbcc1461045f575f5ffd5b806376dd110f11610152578063830e28f61161012d578063830e28f61461032a578063863b6a391461036e5780638da5cb5b1461038d5780638ea3b0de146103c4575f5ffd5b806376dd110f1461029d5780637d13ee50146102c8578063826ce785146102e7575f5ffd5b80630ae2ce89146101995780630b5d7085146101ba578063300e9dae146101f857806343533e1d1461021757806345f4bc071461022a5780637331fa9514610259575b5f5ffd5b3480156101a4575f5ffd5b506101b86101b3366004612160565b61066e565b005b3480156101c5575f5ffd5b506101d96101d436600461218a565b61087b565b6040516101ef9a999897969594939291906121cf565b60405180910390f35b348015610203575f5ffd5b506101b861021236600461218a565b610955565b6101b861022536600461218a565b610b37565b348015610235575f5ffd5b50610249610244366004612160565b610e2e565b60405190151581526020016101ef565b348015610264575f5ffd5b5061028f610273366004612228565b600560209081525f928352604080842090915290825290205481565b6040519081526020016101ef565b3480156102a8575f5ffd5b5061028f6102b7366004612250565b60016020525f908152604090205481565b3480156102d3575f5ffd5b5061028f6102e2366004612228565b610e5b565b3480156102f2575f5ffd5b5061028f610301366004612160565b5f828152602081815260408083206001600160a01b038516845260100190915290205492915050565b348015610335575f5ffd5b50610349610344366004612270565b610e86565b604080516001600160a01b0390941684526020840192909252908201526060016101ef565b348015610379575f5ffd5b5061028f610388366004612160565b610ece565b348015610398575f5ffd5b506009546103ac906001600160a01b031681565b6040516001600160a01b0390911681526020016101ef565b3480156103cf575f5ffd5b5061028f6103de366004612228565b600660209081525f928352604080842090915290825290205481565b348015610405575f5ffd5b50610249610414366004612160565b610f3a565b348015610424575f5ffd5b50610249610433366004612160565b5f828152602081815260408083206001600160a01b0385168452600b0190915290205460ff1692915050565b6101b861046d36600461218a565b610fe3565b34801561047d575f5ffd5b506101b861048c366004612228565b611362565b34801561049c575f5ffd5b5061028f6104ab36600461218a565b5f9081526020819052604090206012015490565b3480156104ca575f5ffd5b5061028f6104d9366004612250565b6001600160a01b03165f9081526001602052604090205490565b3480156104fe575f5ffd5b506101d961050d36600461218a565b6113d9565b34801561051d575f5ffd5b5061053161052c366004612228565b6114df565b6040516101ef9190612290565b348015610549575f5ffd5b5061028f60085481565b34801561055e575f5ffd5b5061024961056d366004612228565b600760209081525f928352604080842090915290825290205460ff1681565b348015610597575f5ffd5b506105ab6105a636600461218a565b611590565b6040516101ef91906122a2565b3480156105c3575f5ffd5b506101b86105d236600461218a565b6115fa565b6101b86105e5366004612301565b61178f565b3480156105f5575f5ffd5b50610649610604366004612270565b5f91825260208281526040808420928452600d8301825280842054600e8401835281852054600f9094019092529092205491926001600160a01b039091169160ff1690565b604080519384526001600160a01b0390921660208401521515908201526060016101ef565b5f828152602081905260409020600581015460ff16156106ca5760405162461bcd60e51b81526020600482015260126024820152714368616d61207374696c6c2061637469766560701b60448201526064015b60405180910390fd5b6001600160a01b0382165f908152600b8201602052604090205460ff166107035760405162461bcd60e51b81526004016106c1906123c7565b6001600160a01b0382165f908152600c82016020526040902054600a8201805482908110610733576107336123ed565b905f5260205f2090602091828204019190069054906101000a900460ff161561078d5760405162461bcd60e51b815260206004820152600c60248201526b105b1c9958591e481c185a5960a21b60448201526064016106c1565b600482015460018301545f916107a291612415565b9050600183600a0183815481106107bb576107bb6123ed565b905f5260205f2090602091828204019190066101000a81548160ff021916908315150217905550836001600160a01b03166108fc8290811502906040515f60405180830381858888f19350505050158015610818573d5f5f3e3d5ffd5b507fb4aeb9fb59644d1c26001b986295cde5bbfae34be7c5240fbccf4c37308e20fe85858361084886600161242c565b604080519485526001600160a01b0390931660208501529183015260608201526080015b60405180910390a15050505050565b5f602081905290815260409020805481906108959061243f565b80601f01602080910402602001604051908101604052809291908181526020018280546108c19061243f565b801561090c5780601f106108e35761010080835404028352916020019161090c565b820191905f5260205f20905b8154815290600101906020018083116108ef57829003601f168201915b50505060018401546002850154600386015460058701546006880154600789015460088a015460098b01546012909b0154999a969995985093965060ff9092169490939192918a565b5f818152602081905260409020600581015460ff166109865760405162461bcd60e51b81526004016106c190612477565b5f8160060154116109cd5760405162461bcd60e51b815260206004820152601160248201527010da185b58481b9bdd081cdd185c9d1959607a1b60448201526064016106c1565b806002015481600801546109e1919061242c565b421015610a245760405162461bcd60e51b815260206004820152601160248201527010de58db19481b9bdd08195e1c1a5c9959607a1b60448201526064016106c1565b5f5b6004820154811015610b29575f826004018281548110610a4857610a486123ed565b5f9182526020808320909101546001600160a01b031680835260078252604080842088855290925291205490915060ff16610b20576001600160a01b0381165f9081526010840160205260409020548015610b1e576001600160a01b0382165f908152601085016020908152604080832083905560068701548352600d870190915281208054839290610adc90849061242c565b90915550506040517f9ed6c8e3f152b165733c0aa8ef3b791333859fb2ebcefd11171ade0c13814f6990610b15908790859085906124a1565b60405180910390a15b505b50600101610a26565b50610b3382611aa0565b5050565b805f81118015610b4957506008548111155b610b8c5760405162461bcd60e51b815260206004820152601460248201527310da185b5848191bd95cc81b9bdd08195e1a5cdd60621b60448201526064016106c1565b5f82815260208190526040902060050154829060ff16610bbe5760405162461bcd60e51b81526004016106c190612477565b5f83815260208181526040808320338452600b81019092529091205460ff1615610c1d5760405162461bcd60e51b815260206004820152601060248201526f20b63932b0b23c90309036b2b6b132b960811b60448201526064016106c1565b6003810154600482015410610c615760405162461bcd60e51b815260206004820152600a60248201526910da185b5848199d5b1b60b21b60448201526064016106c1565b8060010154341015610cb55760405162461bcd60e51b815260206004820152601760248201527f496e73756666696369656e7420636f6c6c61746572616c00000000000000000060448201526064016106c1565b600481018054600180820183555f9283526020808420830180546001600160a01b03191633908117909155808552600b860182526040808620805460ff191685179055600c87018352808620859055600a8701805494850181558652828620838504018054601f9095166101000a60ff021990941690935584526010850190528220349081905560128401805492939192909190610d5490849061242c565b9091555050335f818152600460209081526040808320805460018181018355918552838520018a9055938352929052908120805460329290610d9790849061242c565b9091555050604080518681523360208201527f40a8c7a25e1eab32f305b79614cb4eb53a2d5d546bc4a5b0b55e5a7dc1228dce910160405180910390a17feec2f3feb835e2f2fd44281034b04700a1ddda63dd402949d470a25a7c40b36c853334604051610e07939291906124a1565b60405180910390a16003820154600483015403610e2757610e2785611c78565b5050505050565b5f828152602081815260408083206001600160a01b038516845260110190915290205460ff165b92915050565b6004602052815f5260405f208181548110610e74575f80fd5b905f5260205f20015f91509150505481565b6003602052815f5260405f208181548110610e9f575f80fd5b5f9182526020909120600390910201805460018201546002909201546001600160a01b03909116935090915083565b5f828152602081815260408083206001600160a01b0385168452600b0190915281205460ff16610f105760405162461bcd60e51b81526004016106c1906123c7565b505f828152602081815260408083206001600160a01b0385168452600c0190915290205492915050565b5f828152602081815260408083206001600160a01b0385168452600b0190915281205460ff16610f7c5760405162461bcd60e51b81526004016106c1906123c7565b5f838152602081815260408083206001600160a01b0386168452600c810183529083205486845292909152600a01805482908110610fbc57610fbc6123ed565b905f5260205f2090602091828204019190069054906101000a900460ff1691505092915050565b5f81815260208181526040808320338452600b01909152902054819060ff166110435760405162461bcd60e51b81526020600482015260126024820152712737ba10309031b430b6b09036b2b6b132b960711b60448201526064016106c1565b5f82815260208190526040902060050154829060ff166110755760405162461bcd60e51b81526004016106c190612477565b5f83815260208190526040902060018101543410156110cf5760405162461bcd60e51b81526020600482015260166024820152752132b637bb9036b4b71031b7b73a3934b13aba34b7b760511b60448201526064016106c1565b5f8160060154116111165760405162461bcd60e51b815260206004820152601160248201527010da185b58481b9bdd081cdd185c9d1959607a1b60448201526064016106c1565b335f90815260076020908152604080832087845290915290205460ff16156111805760405162461bcd60e51b815260206004820152601e60248201527f416c726561647920636f6e74726962757465642074686973206379636c65000060448201526064016106c1565b80600201548160080154611194919061242c565b421015806111a6575080600601546001145b6111e45760405162461bcd60e51b815260206004820152600f60248201526e4379636c65206e6f7420726561647960881b60448201526064016106c1565b5f8481526003602081815260408084208151606081018352338082523482860181815242848701908152855460018082018855968b52888b209551990290940180546001600160a01b0319166001600160a01b039099169890981788555193870193909355905160029095019490945592845260058252808420888552909152822080549192909161127790849061242c565b9091555050335f8181526006602081815260408084208985528252808420429055938352600781528383208884528152838320805460ff19166001179055908401548252600d8401905290812080543492906112d490849061242c565b9250508190555034816009015f8282546112ee919061242c565b9091555050335f90815260016020526040812080546019929061131290849061242c565b90915550506040517f0a4a91237423e0a1766a761c7cb029311d8b95d6b1b81db1b949a70c98b4e08e9061134b908690339034906124a1565b60405180910390a161135c84611cda565b50505050565b6009546001600160a01b031633146113a95760405162461bcd60e51b815260206004820152600a60248201526927b7363c9037bbb732b960b11b60448201526064016106c1565b6001600160a01b0382165f90815260016020526040812080548392906113d090849061242c565b90915550505050565b60605f5f5f5f5f5f5f5f5f5f5f5f8d81526020019081526020015f209050805f01816001015482600201548360030154846005015f9054906101000a900460ff168560060154866007015487600801548860090154896012015489805461143f9061243f565b80601f016020809104026020016040519081016040528092919081815260200182805461146b9061243f565b80156114b65780601f1061148d576101008083540402835291602001916114b6565b820191905f5260205f20905b81548152906001019060200180831161149957829003601f168201915b505050505099509a509a509a509a509a509a509a509a509a509a50509193959799509193959799565b6002602052815f5260405f2081815481106114f8575f80fd5b905f5260205f20015f915091505080546115119061243f565b80601f016020809104026020016040519081016040528092919081815260200182805461153d9061243f565b80156115885780601f1061155f57610100808354040283529160200191611588565b820191905f5260205f20905b81548152906001019060200180831161156b57829003601f168201915b505050505081565b5f81815260208181526040918290206004018054835181840281018401909452808452606093928301828280156115ee57602002820191905f5260205f20905b81546001600160a01b031681526001909101906020018083116115d0575b50505050509050919050565b805f8111801561160c57506008548111155b61164f5760405162461bcd60e51b815260206004820152601460248201527310da185b5848191bd95cc81b9bdd08195e1a5cdd60621b60448201526064016106c1565b5f82815260208190526040902060050154829060ff166116815760405162461bcd60e51b81526004016106c190612477565b5f8381526020819052604090206006810154156116d85760405162461bcd60e51b815260206004820152601560248201527410da185b5848185b1c9958591e481cdd185c9d1959605a1b60448201526064016106c1565b335f908152600b8201602052604090205460ff166117315760405162461bcd60e51b815260206004820152601660248201527513db9b1e481b595b58995c9cc818d85b881cdd185c9d60521b60448201526064016106c1565b6004810154600311156117865760405162461bcd60e51b815260206004820152601760248201527f4e656564206174206c656173742033206d656d6265727300000000000000000060448201526064016106c1565b61135c84611c78565b5f83116117de5760405162461bcd60e51b815260206004820152601860248201527f436f6e747269627574696f6e206d757374206265203e2030000000000000000060448201526064016106c1565b62093a808210156118315760405162461bcd60e51b815260206004820152601760248201527f4379636c65206d757374206265203e3d2037206461797300000000000000000060448201526064016106c1565b60038110158015611843575060148111155b61187f5760405162461bcd60e51b815260206004820152600d60248201526c04d656d626572733a20332d323609c1b60448201526064016106c1565b823410156118ec5760405162461bcd60e51b815260206004820152603460248201527f4d757374206465706f73697420636f6c6c61746572616c20657175616c20746f6044820152730818dbdb9d1c9a589d5d1a5bdb88185b5bdd5b9d60621b60648201526084016106c1565b60088054905f6118fb836124c0565b90915550506008545f9081526020819052604090208061191b868261251c565b506001808201859055600282018490556003820183905560058201805460ff1990811683179091555f600684018190556007840181905542600880860191909155600985018290553460128601819055600480870180548088018255908552602080862090910180546001600160a01b03191633908117909155808652600b89018252604080872080549098168917909755600c89018252868620869055600a89018054808a018255908752828720838204018054601f9092166101000a60ff0219909116905580865260108901825286862093909355908152848420925483548088018555938552818520909301929092558252929092528120805460649290611a2790849061242c565b90915550506008546040517ff4262469916388c16d1454945cd27f61664f3ae726c205e66b8f9212a3534f8c91611a63918890339089906125d7565b60405180910390a17feec2f3feb835e2f2fd44281034b04700a1ddda63dd402949d470a25a7c40b36c600854333460405161086c939291906124a1565b5f8181526020818152604080832060068101548452600d81019092528220546007820154600483018054939492939091908110611adf57611adf6123ed565b905f5260205f20015f9054906101000a90046001600160a01b03169050600183600a01846007015481548110611b1757611b176123ed565b5f918252602080832081830401805460ff601f9094166101000a9384021916941515929092029390931790556006850180548252600e86018352604080832080546001600160a01b0319166001600160a01b03871690811790915591548352600f8701909352828220805460ff1916600117905591516108fc85150291859190818181858888f19350505050158015611bb2573d5f5f3e3d5ffd5b506006830154604080518681526001600160a01b03841660208201528082018590526060810192909252517fb4aeb9fb59644d1c26001b986295cde5bbfae34be7c5240fbccf4c37308e20fe9181900360800190a160068301546040805186815260208101929092527f42463706cb812379c7405bba67d1414b3473b66942ecd48fd66e7ad3cd3abdd4910160405180910390a16004830154611c579060019061260b565b836007015403611c6f57611c6a84611d75565b61135c565b61135c84611ecb565b5f81815260208190526040902060016006820155426008820155611c9b82611f77565b7f39874af9b7f4ab9e4c5c47a7280fdb5f5db4081446e9d2cdfd23d5d5aa781c64823342604051611cce939291906124a1565b60405180910390a15050565b5f81815260208190526040812090805b6004830154811015611d5b5760075f846004018381548110611d0e57611d0e6123ed565b5f9182526020808320909101546001600160a01b03168352828101939093526040918201812087825290925290205460ff1615611d535781611d4f816124c0565b9250505b600101611cea565b5060048201548103611d7057611d7083611aa0565b505050565b5f81815260208190526040812060058101805460ff19169055905b6004820154811015611e9a575f826004018281548110611db257611db26123ed565b5f9182526020808320909101546001600160a01b0316808352601086019091526040909120549091508015801590611e0457506001600160a01b0382165f90815260118501602052604090205460ff16155b15611e90576001600160a01b0382165f818152601186016020526040808220805460ff191660011790555183156108fc0291849190818181858888f19350505050158015611e54573d5f5f3e3d5ffd5b507e83f3d3d0a8132e9bf23ae6cde659d5f3963a6973816e144f05bfccef184279858383604051611e87939291906124a1565b60405180910390a15b5050600101611d90565b506040518281527fdb5e126e6a121da8028405972761f7c42dff3d626273cd61fd32a13d4c3f56c790602001611cce565b5f8181526020819052604081206007810180549192611ee9836124c0565b9091555050600681018054905f611eff836124c0565b90915550504260088201555f5b6004820154811015611d70575f60075f846004018481548110611f3157611f316123ed565b5f918252602080832091909101546001600160a01b0316835282810193909352604091820181208782529092529020805460ff1916911515919091179055600101611f0c565b5f818152602081905260408120600481015490915b8181101561135c57604080514260208201524491810191909152606081018290525f908390608001604051602081830303815290604052805190602001205f1c611fd6919061261e565b90505f846004018381548110611fee57611fee6123ed565b5f918252602090912001546004860180546001600160a01b039092169250908390811061201d5761201d6123ed565b5f918252602090912001546004860180546001600160a01b03909216918590811061204a5761204a6123ed565b905f5260205f20015f6101000a8154816001600160a01b0302191690836001600160a01b031602179055508085600401838154811061208b5761208b6123ed565b905f5260205f20015f6101000a8154816001600160a01b0302191690836001600160a01b031602179055508285600c015f8760040186815481106120d1576120d16123ed565b5f9182526020808320909101546001600160a01b031683528201929092526040018120919091556004860180548492600c890192909184908110612117576121176123ed565b5f9182526020808320909101546001600160a01b031683528201929092526040019020555050600101611f8c565b80356001600160a01b038116811461215b575f5ffd5b919050565b5f5f60408385031215612171575f5ffd5b8235915061218160208401612145565b90509250929050565b5f6020828403121561219a575f5ffd5b5035919050565b5f81518084528060208401602086015e5f602082860101526020601f19601f83011685010191505092915050565b61014081525f6121e361014083018d6121a1565b602083019b909b525060408101989098526060880196909652931515608087015260a086019290925260c085015260e084015261010083015261012090910152919050565b5f5f60408385031215612239575f5ffd5b61224283612145565b946020939093013593505050565b5f60208284031215612260575f5ffd5b61226982612145565b9392505050565b5f5f60408385031215612281575f5ffd5b50508035926020909101359150565b602081525f61226960208301846121a1565b602080825282518282018190525f918401906040840190835b818110156122e25783516001600160a01b03168352602093840193909201916001016122bb565b509095945050505050565b634e487b7160e01b5f52604160045260245ffd5b5f5f5f5f60808587031215612314575f5ffd5b843567ffffffffffffffff81111561232a575f5ffd5b8501601f8101871361233a575f5ffd5b803567ffffffffffffffff811115612354576123546122ed565b604051601f8201601f19908116603f0116810167ffffffffffffffff81118282101715612383576123836122ed565b60405281815282820160200189101561239a575f5ffd5b816020840160208301375f6020928201830152989087013597506040870135966060013595509350505050565b6020808252600c908201526b2737ba10309036b2b6b132b960a11b604082015260600190565b634e487b7160e01b5f52603260045260245ffd5b634e487b7160e01b5f52601160045260245ffd5b8082028115828204841417610e5557610e55612401565b80820180821115610e5557610e55612401565b600181811c9082168061245357607f821691505b60208210810361247157634e487b7160e01b5f52602260045260245ffd5b50919050565b60208082526010908201526f4368616d61206e6f742061637469766560801b604082015260600190565b9283526001600160a01b03919091166020830152604082015260600190565b5f600182016124d1576124d1612401565b5060010190565b601f821115611d7057805f5260205f20601f840160051c810160208510156124fd5750805b601f840160051c820191505b81811015610e27575f8155600101612509565b815167ffffffffffffffff811115612536576125366122ed565b61254a81612544845461243f565b846124d8565b6020601f82116001811461257c575f83156125655750848201515b5f19600385901b1c1916600184901b178455610e27565b5f84815260208120601f198516915b828110156125ab578785015182556020948501946001909201910161258b565b50848210156125c857868401515f19600387901b60f8161c191681555b50505050600190811b01905550565b848152608060208201525f6125ef60808301866121a1565b6001600160a01b03949094166040830152506060015292915050565b81810381811115610e5557610e55612401565b5f8261263857634e487b7160e01b5f52601260045260245ffd5b50069056fea2646970667358221220ce55b88c53ba3badda60c98efc72f1c55167e623e5703433e941440307a949af64736f6c634300081e0033",
					"opcodes": "PUSH1 0x80 PUSH1 0x40 MSTORE PUSH0 PUSH1 0x8 SSTORE CALLVALUE DUP1 ISZERO PUSH1 0x12 JUMPI PUSH0 PUSH0 REVERT JUMPDEST POP PUSH1 0x9 DUP1 SLOAD PUSH1 0x1 PUSH1 0x1 PUSH1 0xA0 SHL SUB NOT AND CALLER OR SWAP1 SSTORE PUSH2 0x2673 DUP1 PUSH2 0x32 PUSH0 CODECOPY PUSH0 RETURN INVALID PUSH1 0x80 PUSH1 0x40 MSTORE PUSH1 0x4 CALLDATASIZE LT PUSH2 0x195 JUMPI PUSH0 CALLDATALOAD PUSH1 0xE0 SHR DUP1 PUSH4 0x9155105F GT PUSH2 0xE7 JUMPI DUP1 PUSH4 0xBF882E73 GT PUSH2 0x87 JUMPI DUP1 PUSH4 0xCB00D3D2 GT PUSH2 0x62 JUMPI DUP1 PUSH4 0xCB00D3D2 EQ PUSH2 0x58C JUMPI DUP1 PUSH4 0xDAA6F020 EQ PUSH2 0x5B8 JUMPI DUP1 PUSH4 0xE69269A6 EQ PUSH2 0x5D7 JUMPI DUP1 PUSH4 0xE9AC9D1E EQ PUSH2 0x5EA JUMPI PUSH0 PUSH0 REVERT JUMPDEST DUP1 PUSH4 0xBF882E73 EQ PUSH2 0x512 JUMPI DUP1 PUSH4 0xC087E28B EQ PUSH2 0x53E JUMPI DUP1 PUSH4 0xC14A2AE0 EQ PUSH2 0x553 JUMPI PUSH0 PUSH0 REVERT JUMPDEST DUP1 PUSH4 0x9FACEFC5 GT PUSH2 0xC2 JUMPI DUP1 PUSH4 0x9FACEFC5 EQ PUSH2 0x472 JUMPI DUP1 PUSH4 0xAFC737D1 EQ PUSH2 0x491 JUMPI DUP1 PUSH4 0xB34E0C47 EQ PUSH2 0x4BF JUMPI DUP1 PUSH4 0xB4BEBCFD EQ PUSH2 0x4F3 JUMPI PUSH0 PUSH0 REVERT JUMPDEST DUP1 PUSH4 0x9155105F EQ PUSH2 0x3FA JUMPI DUP1 PUSH4 0x9DB6A08F EQ PUSH2 0x419 JUMPI DUP1 PUSH4 0x9EF4CBCC EQ PUSH2 0x45F JUMPI PUSH0 PUSH0 REVERT JUMPDEST DUP1 PUSH4 0x76DD110F GT PUSH2 0x152 JUMPI DUP1 PUSH4 0x830E28F6 GT PUSH2 0x12D JUMPI DUP1 PUSH4 0x830E28F6 EQ PUSH2 0x32A JUMPI DUP1 PUSH4 0x863B6A39 EQ PUSH2 0x36E JUMPI DUP1 PUSH4 0x8DA5CB5B EQ PUSH2 0x38D JUMPI DUP1 PUSH4 0x8EA3B0DE EQ PUSH2 0x3C4 JUMPI PUSH0 PUSH0 REVERT JUMPDEST DUP1 PUSH4 0x76DD110F EQ PUSH2 0x29D JUMPI DUP1 PUSH4 0x7D13EE50 EQ PUSH2 0x2C8 JUMPI DUP1 PUSH4 0x826CE785 EQ PUSH2 0x2E7 JUMPI PUSH0 PUSH0 REVERT JUMPDEST DUP1 PUSH4 0xAE2CE89 EQ PUSH2 0x199 JUMPI DUP1 PUSH4 0xB5D7085 EQ PUSH2 0x1BA JUMPI DUP1 PUSH4 0x300E9DAE EQ PUSH2 0x1F8 JUMPI DUP1 PUSH4 0x43533E1D EQ PUSH2 0x217 JUMPI DUP1 PUSH4 0x45F4BC07 EQ PUSH2 0x22A JUMPI DUP1 PUSH4 0x7331FA95 EQ PUSH2 0x259 JUMPI JUMPDEST PUSH0 PUSH0 REVERT JUMPDEST CALLVALUE DUP1 ISZERO PUSH2 0x1A4 JUMPI PUSH0 PUSH0 REVERT JUMPDEST POP PUSH2 0x1B8 PUSH2 0x1B3 CALLDATASIZE PUSH1 0x4 PUSH2 0x2160 JUMP JUMPDEST PUSH2 0x66E JUMP JUMPDEST STOP JUMPDEST CALLVALUE DUP1 ISZERO PUSH2 0x1C5 JUMPI PUSH0 PUSH0 REVERT JUMPDEST POP PUSH2 0x1D9 PUSH2 0x1D4 CALLDATASIZE PUSH1 0x4 PUSH2 0x218A JUMP JUMPDEST PUSH2 0x87B JUMP JUMPDEST PUSH1 0x40 MLOAD PUSH2 0x1EF SWAP11 SWAP10 SWAP9 SWAP8 SWAP7 SWAP6 SWAP5 SWAP4 SWAP3 SWAP2 SWAP1 PUSH2 0x21CF JUMP JUMPDEST PUSH1 0x40 MLOAD DUP1 SWAP2 SUB SWAP1 RETURN JUMPDEST CALLVALUE DUP1 ISZERO PUSH2 0x203 JUMPI PUSH0 PUSH0 REVERT JUMPDEST POP PUSH2 0x1B8 PUSH2 0x212 CALLDATASIZE PUSH1 0x4 PUSH2 0x218A JUMP JUMPDEST PUSH2 0x955 JUMP JUMPDEST PUSH2 0x1B8 PUSH2 0x225 CALLDATASIZE PUSH1 0x4 PUSH2 0x218A JUMP JUMPDEST PUSH2 0xB37 JUMP JUMPDEST CALLVALUE DUP1 ISZERO PUSH2 0x235 JUMPI PUSH0 PUSH0 REVERT JUMPDEST POP PUSH2 0x249 PUSH2 0x244 CALLDATASIZE PUSH1 0x4 PUSH2 0x2160 JUMP JUMPDEST PUSH2 0xE2E JUMP JUMPDEST PUSH1 0x40 MLOAD SWAP1 ISZERO ISZERO DUP2 MSTORE PUSH1 0x20 ADD PUSH2 0x1EF JUMP JUMPDEST CALLVALUE DUP1 ISZERO PUSH2 0x264 JUMPI PUSH0 PUSH0 REVERT JUMPDEST POP PUSH2 0x28F PUSH2 0x273 CALLDATASIZE PUSH1 0x4 PUSH2 0x2228 JUMP JUMPDEST PUSH1 0x5 PUSH1 0x20 SWAP1 DUP2 MSTORE PUSH0 SWAP3 DUP4 MSTORE PUSH1 0x40 DUP1 DUP5 KECCAK256 SWAP1 SWAP2 MSTORE SWAP1 DUP3 MSTORE SWAP1 KECCAK256 SLOAD DUP2 JUMP JUMPDEST PUSH1 0x40 MLOAD SWAP1 DUP2 MSTORE PUSH1 0x20 ADD PUSH2 0x1EF JUMP JUMPDEST CALLVALUE DUP1 ISZERO PUSH2 0x2A8 JUMPI PUSH0 PUSH0 REVERT JUMPDEST POP PUSH2 0x28F PUSH2 0x2B7 CALLDATASIZE PUSH1 0x4 PUSH2 0x2250 JUMP JUMPDEST PUSH1 0x1 PUSH1 0x20 MSTORE PUSH0 SWAP1 DUP2 MSTORE PUSH1 0x40 SWAP1 KECCAK256 SLOAD DUP2 JUMP JUMPDEST CALLVALUE DUP1 ISZERO PUSH2 0x2D3 JUMPI PUSH0 PUSH0 REVERT JUMPDEST POP PUSH2 0x28F PUSH2 0x2E2 CALLDATASIZE PUSH1 0x4 PUSH2 0x2228 JUMP JUMPDEST PUSH2 0xE5B JUMP JUMPDEST CALLVALUE DUP1 ISZERO PUSH2 0x2F2 JUMPI PUSH0 PUSH0 REVERT JUMPDEST POP PUSH2 0x28F PUSH2 0x301 CALLDATASIZE PUSH1 0x4 PUSH2 0x2160 JUMP JUMPDEST PUSH0 DUP3 DUP2 MSTORE PUSH1 0x20 DUP2 DUP2 MSTORE PUSH1 0x40 DUP1 DUP4 KECCAK256 PUSH1 0x1 PUSH1 0x1 PUSH1 0xA0 SHL SUB DUP6 AND DUP5 MSTORE PUSH1 0x10 ADD SWAP1 SWAP2 MSTORE SWAP1 KECCAK256 SLOAD SWAP3 SWAP2 POP POP JUMP JUMPDEST CALLVALUE DUP1 ISZERO PUSH2 0x335 JUMPI PUSH0 PUSH0 REVERT JUMPDEST POP PUSH2 0x349 PUSH2 0x344 CALLDATASIZE PUSH1 0x4 PUSH2 0x2270 JUMP JUMPDEST PUSH2 0xE86 JUMP JUMPDEST PUSH1 0x40 DUP1 MLOAD PUSH1 0x1 PUSH1 0x1 PUSH1 0xA0 SHL SUB SWAP1 SWAP5 AND DUP5 MSTORE PUSH1 0x20 DUP5 ADD SWAP3 SWAP1 SWAP3 MSTORE SWAP1 DUP3 ADD MSTORE PUSH1 0x60 ADD PUSH2 0x1EF JUMP JUMPDEST CALLVALUE DUP1 ISZERO PUSH2 0x379 JUMPI PUSH0 PUSH0 REVERT JUMPDEST POP PUSH2 0x28F PUSH2 0x388 CALLDATASIZE PUSH1 0x4 PUSH2 0x2160 JUMP JUMPDEST PUSH2 0xECE JUMP JUMPDEST CALLVALUE DUP1 ISZERO PUSH2 0x398 JUMPI PUSH0 PUSH0 REVERT JUMPDEST POP PUSH1 0x9 SLOAD PUSH2 0x3AC SWAP1 PUSH1 0x1 PUSH1 0x1 PUSH1 0xA0 SHL SUB AND DUP2 JUMP JUMPDEST PUSH1 0x40 MLOAD PUSH1 0x1 PUSH1 0x1 PUSH1 0xA0 SHL SUB SWAP1 SWAP2 AND DUP2 MSTORE PUSH1 0x20 ADD PUSH2 0x1EF JUMP JUMPDEST CALLVALUE DUP1 ISZERO PUSH2 0x3CF JUMPI PUSH0 PUSH0 REVERT JUMPDEST POP PUSH2 0x28F PUSH2 0x3DE CALLDATASIZE PUSH1 0x4 PUSH2 0x2228 JUMP JUMPDEST PUSH1 0x6 PUSH1 0x20 SWAP1 DUP2 MSTORE PUSH0 SWAP3 DUP4 MSTORE PUSH1 0x40 DUP1 DUP5 KECCAK256 SWAP1 SWAP2 MSTORE SWAP1 DUP3 MSTORE SWAP1 KECCAK256 SLOAD DUP2 JUMP JUMPDEST CALLVALUE DUP1 ISZERO PUSH2 0x405 JUMPI PUSH0 PUSH0 REVERT JUMPDEST POP PUSH2 0x249 PUSH2 0x414 CALLDATASIZE PUSH1 0x4 PUSH2 0x2160 JUMP JUMPDEST PUSH2 0xF3A JUMP JUMPDEST CALLVALUE DUP1 ISZERO PUSH2 0x424 JUMPI PUSH0 PUSH0 REVERT JUMPDEST POP PUSH2 0x249 PUSH2 0x433 CALLDATASIZE PUSH1 0x4 PUSH2 0x2160 JUMP JUMPDEST PUSH0 DUP3 DUP2 MSTORE PUSH1 0x20 DUP2 DUP2 MSTORE PUSH1 0x40 DUP1 DUP4 KECCAK256 PUSH1 0x1 PUSH1 0x1 PUSH1 0xA0 SHL SUB DUP6 AND DUP5 MSTORE PUSH1 0xB ADD SWAP1 SWAP2 MSTORE SWAP1 KECCAK256 SLOAD PUSH1 0xFF AND SWAP3 SWAP2 POP POP JUMP JUMPDEST PUSH2 0x1B8 PUSH2 0x46D CALLDATASIZE PUSH1 0x4 PUSH2 0x218A JUMP JUMPDEST PUSH2 0xFE3 JUMP JUMPDEST CALLVALUE DUP1 ISZERO PUSH2 0x47D JUMPI PUSH0 PUSH0 REVERT JUMPDEST POP PUSH2 0x1B8 PUSH2 0x48C CALLDATASIZE PUSH1 0x4 PUSH2 0x2228 JUMP JUMPDEST PUSH2 0x1362 JUMP JUMPDEST CALLVALUE DUP1 ISZERO PUSH2 0x49C JUMPI PUSH0 PUSH0 REVERT JUMPDEST POP PUSH2 0x28F PUSH2 0x4AB CALLDATASIZE PUSH1 0x4 PUSH2 0x218A JUMP JUMPDEST PUSH0 SWAP1 DUP2 MSTORE PUSH1 0x20 DUP2 SWAP1 MSTORE PUSH1 0x40 SWAP1 KECCAK256 PUSH1 0x12 ADD SLOAD SWAP1 JUMP JUMPDEST CALLVALUE DUP1 ISZERO PUSH2 0x4CA JUMPI PUSH0 PUSH0 REVERT JUMPDEST POP PUSH2 0x28F PUSH2 0x4D9 CALLDATASIZE PUSH1 0x4 PUSH2 0x2250 JUMP JUMPDEST PUSH1 0x1 PUSH1 0x1 PUSH1 0xA0 SHL SUB AND PUSH0 SWAP1 DUP2 MSTORE PUSH1 0x1 PUSH1 0x20 MSTORE PUSH1 0x40 SWAP1 KECCAK256 SLOAD SWAP1 JUMP JUMPDEST CALLVALUE DUP1 ISZERO PUSH2 0x4FE JUMPI PUSH0 PUSH0 REVERT JUMPDEST POP PUSH2 0x1D9 PUSH2 0x50D CALLDATASIZE PUSH1 0x4 PUSH2 0x218A JUMP JUMPDEST PUSH2 0x13D9 JUMP JUMPDEST CALLVALUE DUP1 ISZERO PUSH2 0x51D JUMPI PUSH0 PUSH0 REVERT JUMPDEST POP PUSH2 0x531 PUSH2 0x52C CALLDATASIZE PUSH1 0x4 PUSH2 0x2228 JUMP JUMPDEST PUSH2 0x14DF JUMP JUMPDEST PUSH1 0x40 MLOAD PUSH2 0x1EF SWAP2 SWAP1 PUSH2 0x2290 JUMP JUMPDEST CALLVALUE DUP1 ISZERO PUSH2 0x549 JUMPI PUSH0 PUSH0 REVERT JUMPDEST POP PUSH2 0x28F PUSH1 0x8 SLOAD DUP2 JUMP JUMPDEST CALLVALUE DUP1 ISZERO PUSH2 0x55E JUMPI PUSH0 PUSH0 REVERT JUMPDEST POP PUSH2 0x249 PUSH2 0x56D CALLDATASIZE PUSH1 0x4 PUSH2 0x2228 JUMP JUMPDEST PUSH1 0x7 PUSH1 0x20 SWAP1 DUP2 MSTORE PUSH0 SWAP3 DUP4 MSTORE PUSH1 0x40 DUP1 DUP5 KECCAK256 SWAP1 SWAP2 MSTORE SWAP1 DUP3 MSTORE SWAP1 KECCAK256 SLOAD PUSH1 0xFF AND DUP2 JUMP JUMPDEST CALLVALUE DUP1 ISZERO PUSH2 0x597 JUMPI PUSH0 PUSH0 REVERT JUMPDEST POP PUSH2 0x5AB PUSH2 0x5A6 CALLDATASIZE PUSH1 0x4 PUSH2 0x218A JUMP JUMPDEST PUSH2 0x1590 JUMP JUMPDEST PUSH1 0x40 MLOAD PUSH2 0x1EF SWAP2 SWAP1 PUSH2 0x22A2 JUMP JUMPDEST CALLVALUE DUP1 ISZERO PUSH2 0x5C3 JUMPI PUSH0 PUSH0 REVERT JUMPDEST POP PUSH2 0x1B8 PUSH2 0x5D2 CALLDATASIZE PUSH1 0x4 PUSH2 0x218A JUMP JUMPDEST PUSH2 0x15FA JUMP JUMPDEST PUSH2 0x1B8 PUSH2 0x5E5 CALLDATASIZE PUSH1 0x4 PUSH2 0x2301 JUMP JUMPDEST PUSH2 0x178F JUMP JUMPDEST CALLVALUE DUP1 ISZERO PUSH2 0x5F5 JUMPI PUSH0 PUSH0 REVERT JUMPDEST POP PUSH2 0x649 PUSH2 0x604 CALLDATASIZE PUSH1 0x4 PUSH2 0x2270 JUMP JUMPDEST PUSH0 SWAP2 DUP3 MSTORE PUSH1 0x20 DUP3 DUP2 MSTORE PUSH1 0x40 DUP1 DUP5 KECCAK256 SWAP3 DUP5 MSTORE PUSH1 0xD DUP4 ADD DUP3 MSTORE DUP1 DUP5 KECCAK256 SLOAD PUSH1 0xE DUP5 ADD DUP4 MSTORE DUP2 DUP6 KECCAK256 SLOAD PUSH1 0xF SWAP1 SWAP5 ADD SWAP1 SWAP3 MSTORE SWAP1 SWAP3 KECCAK256 SLOAD SWAP2 SWAP3 PUSH1 0x1 PUSH1 0x1 PUSH1 0xA0 SHL SUB SWAP1 SWAP2 AND SWAP2 PUSH1 0xFF AND SWAP1 JUMP JUMPDEST PUSH1 0x40 DUP1 MLOAD SWAP4 DUP5 MSTORE PUSH1 0x1 PUSH1 0x1 PUSH1 0xA0 SHL SUB SWAP1 SWAP3 AND PUSH1 0x20 DUP5 ADD MSTORE ISZERO ISZERO SWAP1 DUP3 ADD MSTORE PUSH1 0x60 ADD PUSH2 0x1EF JUMP JUMPDEST PUSH0 DUP3 DUP2 MSTORE PUSH1 0x20 DUP2 SWAP1 MSTORE PUSH1 0x40 SWAP1 KECCAK256 PUSH1 0x5 DUP2 ADD SLOAD PUSH1 0xFF AND ISZERO PUSH2 0x6CA JUMPI PUSH1 0x40 MLOAD PUSH3 0x461BCD PUSH1 0xE5 SHL DUP2 MSTORE PUSH1 0x20 PUSH1 0x4 DUP3 ADD MSTORE PUSH1 0x12 PUSH1 0x24 DUP3 ADD MSTORE PUSH18 0x4368616D61207374696C6C20616374697665 PUSH1 0x70 SHL PUSH1 0x44 DUP3 ADD MSTORE PUSH1 0x64 ADD JUMPDEST PUSH1 0x40 MLOAD DUP1 SWAP2 SUB SWAP1 REVERT JUMPDEST PUSH1 0x1 PUSH1 0x1 PUSH1 0xA0 SHL SUB DUP3 AND PUSH0 SWAP1 DUP2 MSTORE PUSH1 0xB DUP3 ADD PUSH1 0x20 MSTORE PUSH1 0x40 SWAP1 KECCAK256 SLOAD PUSH1 0xFF AND PUSH2 0x703 JUMPI PUSH1 0x40 MLOAD PUSH3 0x461BCD PUSH1 0xE5 SHL DUP2 MSTORE PUSH1 0x4 ADD PUSH2 0x6C1 SWAP1 PUSH2 0x23C7 JUMP JUMPDEST PUSH1 0x1 PUSH1 0x1 PUSH1 0xA0 SHL SUB DUP3 AND PUSH0 SWAP1 DUP2 MSTORE PUSH1 0xC DUP3 ADD PUSH1 0x20 MSTORE PUSH1 0x40 SWAP1 KECCAK256 SLOAD PUSH1 0xA DUP3 ADD DUP1 SLOAD DUP3 SWAP1 DUP2 LT PUSH2 0x733 JUMPI PUSH2 0x733 PUSH2 0x23ED JUMP JUMPDEST SWAP1 PUSH0 MSTORE PUSH1 0x20 PUSH0 KECCAK256 SWAP1 PUSH1 0x20 SWAP2 DUP3 DUP3 DIV ADD SWAP2 SWAP1 MOD SWAP1 SLOAD SWAP1 PUSH2 0x100 EXP SWAP1 DIV PUSH1 0xFF AND ISZERO PUSH2 0x78D JUMPI PUSH1 0x40 MLOAD PUSH3 0x461BCD PUSH1 0xE5 SHL DUP2 MSTORE PUSH1 0x20 PUSH1 0x4 DUP3 ADD MSTORE PUSH1 0xC PUSH1 0x24 DUP3 ADD MSTORE PUSH12 0x105B1C9958591E481C185A59 PUSH1 0xA2 SHL PUSH1 0x44 DUP3 ADD MSTORE PUSH1 0x64 ADD PUSH2 0x6C1 JUMP JUMPDEST PUSH1 0x4 DUP3 ADD SLOAD PUSH1 0x1 DUP4 ADD SLOAD PUSH0 SWAP2 PUSH2 0x7A2 SWAP2 PUSH2 0x2415 JUMP JUMPDEST SWAP1 POP PUSH1 0x1 DUP4 PUSH1 0xA ADD DUP4 DUP2 SLOAD DUP2 LT PUSH2 0x7BB JUMPI PUSH2 0x7BB PUSH2 0x23ED JUMP JUMPDEST SWAP1 PUSH0 MSTORE PUSH1 0x20 PUSH0 KECCAK256 SWAP1 PUSH1 0x20 SWAP2 DUP3 DUP3 DIV ADD SWAP2 SWAP1 MOD PUSH2 0x100 EXP DUP2 SLOAD DUP2 PUSH1 0xFF MUL NOT AND SWAP1 DUP4 ISZERO ISZERO MUL OR SWAP1 SSTORE POP DUP4 PUSH1 0x1 PUSH1 0x1 PUSH1 0xA0 SHL SUB AND PUSH2 0x8FC DUP3 SWAP1 DUP2 ISZERO MUL SWAP1 PUSH1 0x40 MLOAD PUSH0 PUSH1 0x40 MLOAD DUP1 DUP4 SUB DUP2 DUP6 DUP9 DUP9 CALL SWAP4 POP POP POP POP ISZERO DUP1 ISZERO PUSH2 0x818 JUMPI RETURNDATASIZE PUSH0 PUSH0 RETURNDATACOPY RETURNDATASIZE PUSH0 REVERT JUMPDEST POP PUSH32 0xB4AEB9FB59644D1C26001B986295CDE5BBFAE34BE7C5240FBCCF4C37308E20FE DUP6 DUP6 DUP4 PUSH2 0x848 DUP7 PUSH1 0x1 PUSH2 0x242C JUMP JUMPDEST PUSH1 0x40 DUP1 MLOAD SWAP5 DUP6 MSTORE PUSH1 0x1 PUSH1 0x1 PUSH1 0xA0 SHL SUB SWAP1 SWAP4 AND PUSH1 0x20 DUP6 ADD MSTORE SWAP2 DUP4 ADD MSTORE PUSH1 0x60 DUP3 ADD MSTORE PUSH1 0x80 ADD JUMPDEST PUSH1 0x40 MLOAD DUP1 SWAP2 SUB SWAP1 LOG1 POP POP POP POP POP JUMP JUMPDEST PUSH0 PUSH1 0x20 DUP2 SWAP1 MSTORE SWAP1 DUP2 MSTORE PUSH1 0x40 SWAP1 KECCAK256 DUP1 SLOAD DUP2 SWAP1 PUSH2 0x895 SWAP1 PUSH2 0x243F JUMP JUMPDEST DUP1 PUSH1 0x1F ADD PUSH1 0x20 DUP1 SWAP2 DIV MUL PUSH1 0x20 ADD PUSH1 0x40 MLOAD SWAP1 DUP2 ADD PUSH1 0x40 MSTORE DUP1 SWAP3 SWAP2 SWAP1 DUP2 DUP2 MSTORE PUSH1 0x20 ADD DUP3 DUP1 SLOAD PUSH2 0x8C1 SWAP1 PUSH2 0x243F JUMP JUMPDEST DUP1 ISZERO PUSH2 0x90C JUMPI DUP1 PUSH1 0x1F LT PUSH2 0x8E3 JUMPI PUSH2 0x100 DUP1 DUP4 SLOAD DIV MUL DUP4 MSTORE SWAP2 PUSH1 0x20 ADD SWAP2 PUSH2 0x90C JUMP JUMPDEST DUP3 ADD SWAP2 SWAP1 PUSH0 MSTORE PUSH1 0x20 PUSH0 KECCAK256 SWAP1 JUMPDEST DUP2 SLOAD DUP2 MSTORE SWAP1 PUSH1 0x1 ADD SWAP1 PUSH1 0x20 ADD DUP1 DUP4 GT PUSH2 0x8EF JUMPI DUP3 SWAP1 SUB PUSH1 0x1F AND DUP3 ADD SWAP2 JUMPDEST POP POP POP PUSH1 0x1 DUP5 ADD SLOAD PUSH1 0x2 DUP6 ADD SLOAD PUSH1 0x3 DUP7 ADD SLOAD PUSH1 0x5 DUP8 ADD SLOAD PUSH1 0x6 DUP9 ADD SLOAD PUSH1 0x7 DUP10 ADD SLOAD PUSH1 0x8 DUP11 ADD SLOAD PUSH1 0x9 DUP12 ADD SLOAD PUSH1 0x12 SWAP1 SWAP12 ADD SLOAD SWAP10 SWAP11 SWAP7 SWAP10 SWAP6 SWAP9 POP SWAP4 SWAP7 POP PUSH1 0xFF SWAP1 SWAP3 AND SWAP5 SWAP1 SWAP4 SWAP2 SWAP3 SWAP2 DUP11 JUMP JUMPDEST PUSH0 DUP2 DUP2 MSTORE PUSH1 0x20 DUP2 SWAP1 MSTORE PUSH1 0x40 SWAP1 KECCAK256 PUSH1 0x5 DUP2 ADD SLOAD PUSH1 0xFF AND PUSH2 0x986 JUMPI PUSH1 0x40 MLOAD PUSH3 0x461BCD PUSH1 0xE5 SHL DUP2 MSTORE PUSH1 0x4 ADD PUSH2 0x6C1 SWAP1 PUSH2 0x2477 JUMP JUMPDEST PUSH0 DUP2 PUSH1 0x6 ADD SLOAD GT PUSH2 0x9CD JUMPI PUSH1 0x40 MLOAD PUSH3 0x461BCD PUSH1 0xE5 SHL DUP2 MSTORE PUSH1 0x20 PUSH1 0x4 DUP3 ADD MSTORE PUSH1 0x11 PUSH1 0x24 DUP3 ADD MSTORE PUSH17 0x10DA185B58481B9BDD081CDD185C9D1959 PUSH1 0x7A SHL PUSH1 0x44 DUP3 ADD MSTORE PUSH1 0x64 ADD PUSH2 0x6C1 JUMP JUMPDEST DUP1 PUSH1 0x2 ADD SLOAD DUP2 PUSH1 0x8 ADD SLOAD PUSH2 0x9E1 SWAP2 SWAP1 PUSH2 0x242C JUMP JUMPDEST TIMESTAMP LT ISZERO PUSH2 0xA24 JUMPI PUSH1 0x40 MLOAD PUSH3 0x461BCD PUSH1 0xE5 SHL DUP2 MSTORE PUSH1 0x20 PUSH1 0x4 DUP3 ADD MSTORE PUSH1 0x11 PUSH1 0x24 DUP3 ADD MSTORE PUSH17 0x10DE58DB19481B9BDD08195E1C1A5C9959 PUSH1 0x7A SHL PUSH1 0x44 DUP3 ADD MSTORE PUSH1 0x64 ADD PUSH2 0x6C1 JUMP JUMPDEST PUSH0 JUMPDEST PUSH1 0x4 DUP3 ADD SLOAD DUP2 LT ISZERO PUSH2 0xB29 JUMPI PUSH0 DUP3 PUSH1 0x4 ADD DUP3 DUP2 SLOAD DUP2 LT PUSH2 0xA48 JUMPI PUSH2 0xA48 PUSH2 0x23ED JUMP JUMPDEST PUSH0 SWAP2 DUP3 MSTORE PUSH1 0x20 DUP1 DUP4 KECCAK256 SWAP1 SWAP2 ADD SLOAD PUSH1 0x1 PUSH1 0x1 PUSH1 0xA0 SHL SUB AND DUP1 DUP4 MSTORE PUSH1 0x7 DUP3 MSTORE PUSH1 0x40 DUP1 DUP5 KECCAK256 DUP9 DUP6 MSTORE SWAP1 SWAP3 MSTORE SWAP2 KECCAK256 SLOAD SWAP1 SWAP2 POP PUSH1 0xFF AND PUSH2 0xB20 JUMPI PUSH1 0x1 PUSH1 0x1 PUSH1 0xA0 SHL SUB DUP2 AND PUSH0 SWAP1 DUP2 MSTORE PUSH1 0x10 DUP5 ADD PUSH1 0x20 MSTORE PUSH1 0x40 SWAP1 KECCAK256 SLOAD DUP1 ISZERO PUSH2 0xB1E JUMPI PUSH1 0x1 PUSH1 0x1 PUSH1 0xA0 SHL SUB DUP3 AND PUSH0 SWAP1 DUP2 MSTORE PUSH1 0x10 DUP6 ADD PUSH1 0x20 SWAP1 DUP2 MSTORE PUSH1 0x40 DUP1 DUP4 KECCAK256 DUP4 SWAP1 SSTORE PUSH1 0x6 DUP8 ADD SLOAD DUP4 MSTORE PUSH1 0xD DUP8 ADD SWAP1 SWAP2 MSTORE DUP2 KECCAK256 DUP1 SLOAD DUP4 SWAP3 SWAP1 PUSH2 0xADC SWAP1 DUP5 SWAP1 PUSH2 0x242C JUMP JUMPDEST SWAP1 SWAP2 SSTORE POP POP PUSH1 0x40 MLOAD PUSH32 0x9ED6C8E3F152B165733C0AA8EF3B791333859FB2EBCEFD11171ADE0C13814F69 SWAP1 PUSH2 0xB15 SWAP1 DUP8 SWAP1 DUP6 SWAP1 DUP6 SWAP1 PUSH2 0x24A1 JUMP JUMPDEST PUSH1 0x40 MLOAD DUP1 SWAP2 SUB SWAP1 LOG1 JUMPDEST POP JUMPDEST POP PUSH1 0x1 ADD PUSH2 0xA26 JUMP JUMPDEST POP PUSH2 0xB33 DUP3 PUSH2 0x1AA0 JUMP JUMPDEST POP POP JUMP JUMPDEST DUP1 PUSH0 DUP2 GT DUP1 ISZERO PUSH2 0xB49 JUMPI POP PUSH1 0x8 SLOAD DUP2 GT ISZERO JUMPDEST PUSH2 0xB8C JUMPI PUSH1 0x40 MLOAD PUSH3 0x461BCD PUSH1 0xE5 SHL DUP2 MSTORE PUSH1 0x20 PUSH1 0x4 DUP3 ADD MSTORE PUSH1 0x14 PUSH1 0x24 DUP3 ADD MSTORE PUSH20 0x10DA185B5848191BD95CC81B9BDD08195E1A5CDD PUSH1 0x62 SHL PUSH1 0x44 DUP3 ADD MSTORE PUSH1 0x64 ADD PUSH2 0x6C1 JUMP JUMPDEST PUSH0 DUP3 DUP2 MSTORE PUSH1 0x20 DUP2 SWAP1 MSTORE PUSH1 0x40 SWAP1 KECCAK256 PUSH1 0x5 ADD SLOAD DUP3 SWAP1 PUSH1 0xFF AND PUSH2 0xBBE JUMPI PUSH1 0x40 MLOAD PUSH3 0x461BCD PUSH1 0xE5 SHL DUP2 MSTORE PUSH1 0x4 ADD PUSH2 0x6C1 SWAP1 PUSH2 0x2477 JUMP JUMPDEST PUSH0 DUP4 DUP2 MSTORE PUSH1 0x20 DUP2 DUP2 MSTORE PUSH1 0x40 DUP1 DUP4 KECCAK256 CALLER DUP5 MSTORE PUSH1 0xB DUP2 ADD SWAP1 SWAP3 MSTORE SWAP1 SWAP2 KECCAK256 SLOAD PUSH1 0xFF AND ISZERO PUSH2 0xC1D JUMPI PUSH1 0x40 MLOAD PUSH3 0x461BCD PUSH1 0xE5 SHL DUP2 MSTORE PUSH1 0x20 PUSH1 0x4 DUP3 ADD MSTORE PUSH1 0x10 PUSH1 0x24 DUP3 ADD MSTORE PUSH16 0x20B63932B0B23C90309036B2B6B132B9 PUSH1 0x81 SHL PUSH1 0x44 DUP3 ADD MSTORE PUSH1 0x64 ADD PUSH2 0x6C1 JUMP JUMPDEST PUSH1 0x3 DUP2 ADD SLOAD PUSH1 0x4 DUP3 ADD SLOAD LT PUSH2 0xC61 JUMPI PUSH1 0x40 MLOAD PUSH3 0x461BCD PUSH1 0xE5 SHL DUP2 MSTORE PUSH1 0x20 PUSH1 0x4 DUP3 ADD MSTORE PUSH1 0xA PUSH1 0x24 DUP3 ADD MSTORE PUSH10 0x10DA185B5848199D5B1B PUSH1 0xB2 SHL PUSH1 0x44 DUP3 ADD MSTORE PUSH1 0x64 ADD PUSH2 0x6C1 JUMP JUMPDEST DUP1 PUSH1 0x1 ADD SLOAD CALLVALUE LT ISZERO PUSH2 0xCB5 JUMPI PUSH1 0x40 MLOAD PUSH3 0x461BCD PUSH1 0xE5 SHL DUP2 MSTORE PUSH1 0x20 PUSH1 0x4 DUP3 ADD MSTORE PUSH1 0x17 PUSH1 0x24 DUP3 ADD MSTORE PUSH32 0x496E73756666696369656E7420636F6C6C61746572616C000000000000000000 PUSH1 0x44 DUP3 ADD MSTORE PUSH1 0x64 ADD PUSH2 0x6C1 JUMP JUMPDEST PUSH1 0x4 DUP2 ADD DUP1 SLOAD PUSH1 0x1 DUP1 DUP3 ADD DUP4 SSTORE PUSH0 SWAP3 DUP4 MSTORE PUSH1 0x20 DUP1 DUP5 KECCAK256 DUP4 ADD DUP1 SLOAD PUSH1 0x1 PUSH1 0x1 PUSH1 0xA0 SHL SUB NOT AND CALLER SWAP1 DUP2 OR SWAP1 SWAP2 SSTORE DUP1 DUP6 MSTORE PUSH1 0xB DUP7 ADD DUP3 MSTORE PUSH1 0x40 DUP1 DUP7 KECCAK256 DUP1 SLOAD PUSH1 0xFF NOT AND DUP6 OR SWAP1 SSTORE PUSH1 0xC DUP8 ADD DUP4 MSTORE DUP1 DUP7 KECCAK256 DUP6 SWAP1 SSTORE PUSH1 0xA DUP8 ADD DUP1 SLOAD SWAP5 DUP6 ADD DUP2 SSTORE DUP7 MSTORE DUP3 DUP7 KECCAK256 DUP4 DUP6 DIV ADD DUP1 SLOAD PUSH1 0x1F SWAP1 SWAP6 AND PUSH2 0x100 EXP PUSH1 0xFF MUL NOT SWAP1 SWAP5 AND SWAP1 SWAP4 SSTORE DUP5 MSTORE PUSH1 0x10 DUP6 ADD SWAP1 MSTORE DUP3 KECCAK256 CALLVALUE SWAP1 DUP2 SWAP1 SSTORE PUSH1 0x12 DUP5 ADD DUP1 SLOAD SWAP3 SWAP4 SWAP2 SWAP3 SWAP1 SWAP2 SWAP1 PUSH2 0xD54 SWAP1 DUP5 SWAP1 PUSH2 0x242C JUMP JUMPDEST SWAP1 SWAP2 SSTORE POP POP CALLER PUSH0 DUP2 DUP2 MSTORE PUSH1 0x4 PUSH1 0x20 SWAP1 DUP2 MSTORE PUSH1 0x40 DUP1 DUP4 KECCAK256 DUP1 SLOAD PUSH1 0x1 DUP2 DUP2 ADD DUP4 SSTORE SWAP2 DUP6 MSTORE DUP4 DUP6 KECCAK256 ADD DUP11 SWAP1 SSTORE SWAP4 DUP4 MSTORE SWAP3 SWAP1 MSTORE SWAP1 DUP2 KECCAK256 DUP1 SLOAD PUSH1 0x32 SWAP3 SWAP1 PUSH2 0xD97 SWAP1 DUP5 SWAP1 PUSH2 0x242C JUMP JUMPDEST SWAP1 SWAP2 SSTORE POP POP PUSH1 0x40 DUP1 MLOAD DUP7 DUP2 MSTORE CALLER PUSH1 0x20 DUP3 ADD MSTORE PUSH32 0x40A8C7A25E1EAB32F305B79614CB4EB53A2D5D546BC4A5B0B55E5A7DC1228DCE SWAP2 ADD PUSH1 0x40 MLOAD DUP1 SWAP2 SUB SWAP1 LOG1 PUSH32 0xEEC2F3FEB835E2F2FD44281034B04700A1DDDA63DD402949D470A25A7C40B36C DUP6 CALLER CALLVALUE PUSH1 0x40 MLOAD PUSH2 0xE07 SWAP4 SWAP3 SWAP2 SWAP1 PUSH2 0x24A1 JUMP JUMPDEST PUSH1 0x40 MLOAD DUP1 SWAP2 SUB SWAP1 LOG1 PUSH1 0x3 DUP3 ADD SLOAD PUSH1 0x4 DUP4 ADD SLOAD SUB PUSH2 0xE27 JUMPI PUSH2 0xE27 DUP6 PUSH2 0x1C78 JUMP JUMPDEST POP POP POP POP POP JUMP JUMPDEST PUSH0 DUP3 DUP2 MSTORE PUSH1 0x20 DUP2 DUP2 MSTORE PUSH1 0x40 DUP1 DUP4 KECCAK256 PUSH1 0x1 PUSH1 0x1 PUSH1 0xA0 SHL SUB DUP6 AND DUP5 MSTORE PUSH1 0x11 ADD SWAP1 SWAP2 MSTORE SWAP1 KECCAK256 SLOAD PUSH1 0xFF AND JUMPDEST SWAP3 SWAP2 POP POP JUMP JUMPDEST PUSH1 0x4 PUSH1 0x20 MSTORE DUP2 PUSH0 MSTORE PUSH1 0x40 PUSH0 KECCAK256 DUP2 DUP2 SLOAD DUP2 LT PUSH2 0xE74 JUMPI PUSH0 DUP1 REVERT JUMPDEST SWAP1 PUSH0 MSTORE PUSH1 0x20 PUSH0 KECCAK256 ADD PUSH0 SWAP2 POP SWAP2 POP POP SLOAD DUP2 JUMP JUMPDEST PUSH1 0x3 PUSH1 0x20 MSTORE DUP2 PUSH0 MSTORE PUSH1 0x40 PUSH0 KECCAK256 DUP2 DUP2 SLOAD DUP2 LT PUSH2 0xE9F JUMPI PUSH0 DUP1 REVERT JUMPDEST PUSH0 SWAP2 DUP3 MSTORE PUSH1 0x20 SWAP1 SWAP2 KECCAK256 PUSH1 0x3 SWAP1 SWAP2 MUL ADD DUP1 SLOAD PUSH1 0x1 DUP3 ADD SLOAD PUSH1 0x2 SWAP1 SWAP3 ADD SLOAD PUSH1 0x1 PUSH1 0x1 PUSH1 0xA0 SHL SUB SWAP1 SWAP2 AND SWAP4 POP SWAP1 SWAP2 POP DUP4 JUMP JUMPDEST PUSH0 DUP3 DUP2 MSTORE PUSH1 0x20 DUP2 DUP2 MSTORE PUSH1 0x40 DUP1 DUP4 KECCAK256 PUSH1 0x1 PUSH1 0x1 PUSH1 0xA0 SHL SUB DUP6 AND DUP5 MSTORE PUSH1 0xB ADD SWAP1 SWAP2 MSTORE DUP2 KECCAK256 SLOAD PUSH1 0xFF AND PUSH2 0xF10 JUMPI PUSH1 0x40 MLOAD PUSH3 0x461BCD PUSH1 0xE5 SHL DUP2 MSTORE PUSH1 0x4 ADD PUSH2 0x6C1 SWAP1 PUSH2 0x23C7 JUMP JUMPDEST POP PUSH0 DUP3 DUP2 MSTORE PUSH1 0x20 DUP2 DUP2 MSTORE PUSH1 0x40 DUP1 DUP4 KECCAK256 PUSH1 0x1 PUSH1 0x1 PUSH1 0xA0 SHL SUB DUP6 AND DUP5 MSTORE PUSH1 0xC ADD SWAP1 SWAP2 MSTORE SWAP1 KECCAK256 SLOAD SWAP3 SWAP2 POP POP JUMP JUMPDEST PUSH0 DUP3 DUP2 MSTORE PUSH1 0x20 DUP2 DUP2 MSTORE PUSH1 0x40 DUP1 DUP4 KECCAK256 PUSH1 0x1 PUSH1 0x1 PUSH1 0xA0 SHL SUB DUP6 AND DUP5 MSTORE PUSH1 0xB ADD SWAP1 SWAP2 MSTORE DUP2 KECCAK256 SLOAD PUSH1 0xFF AND PUSH2 0xF7C JUMPI PUSH1 0x40 MLOAD PUSH3 0x461BCD PUSH1 0xE5 SHL DUP2 MSTORE PUSH1 0x4 ADD PUSH2 0x6C1 SWAP1 PUSH2 0x23C7 JUMP JUMPDEST PUSH0 DUP4 DUP2 MSTORE PUSH1 0x20 DUP2 DUP2 MSTORE PUSH1 0x40 DUP1 DUP4 KECCAK256 PUSH1 0x1 PUSH1 0x1 PUSH1 0xA0 SHL SUB DUP7 AND DUP5 MSTORE PUSH1 0xC DUP2 ADD DUP4 MSTORE SWAP1 DUP4 KECCAK256 SLOAD DUP7 DUP5 MSTORE SWAP3 SWAP1 SWAP2 MSTORE PUSH1 0xA ADD DUP1 SLOAD DUP3 SWAP1 DUP2 LT PUSH2 0xFBC JUMPI PUSH2 0xFBC PUSH2 0x23ED JUMP JUMPDEST SWAP1 PUSH0 MSTORE PUSH1 0x20 PUSH0 KECCAK256 SWAP1 PUSH1 0x20 SWAP2 DUP3 DUP3 DIV ADD SWAP2 SWAP1 MOD SWAP1 SLOAD SWAP1 PUSH2 0x100 EXP SWAP1 DIV PUSH1 0xFF AND SWAP2 POP POP SWAP3 SWAP2 POP POP JUMP JUMPDEST PUSH0 DUP2 DUP2 MSTORE PUSH1 0x20 DUP2 DUP2 MSTORE PUSH1 0x40 DUP1 DUP4 KECCAK256 CALLER DUP5 MSTORE PUSH1 0xB ADD SWAP1 SWAP2 MSTORE SWAP1 KECCAK256 SLOAD DUP2 SWAP1 PUSH1 0xFF AND PUSH2 0x1043 JUMPI PUSH1 0x40 MLOAD PUSH3 0x461BCD PUSH1 0xE5 SHL DUP2 MSTORE PUSH1 0x20 PUSH1 0x4 DUP3 ADD MSTORE PUSH1 0x12 PUSH1 0x24 DUP3 ADD MSTORE PUSH18 0x2737BA10309031B430B6B09036B2B6B132B9 PUSH1 0x71 SHL PUSH1 0x44 DUP3 ADD MSTORE PUSH1 0x64 ADD PUSH2 0x6C1 JUMP JUMPDEST PUSH0 DUP3 DUP2 MSTORE PUSH1 0x20 DUP2 SWAP1 MSTORE PUSH1 0x40 SWAP1 KECCAK256 PUSH1 0x5 ADD SLOAD DUP3 SWAP1 PUSH1 0xFF AND PUSH2 0x1075 JUMPI PUSH1 0x40 MLOAD PUSH3 0x461BCD PUSH1 0xE5 SHL DUP2 MSTORE PUSH1 0x4 ADD PUSH2 0x6C1 SWAP1 PUSH2 0x2477 JUMP JUMPDEST PUSH0 DUP4 DUP2 MSTORE PUSH1 0x20 DUP2 SWAP1 MSTORE PUSH1 0x40 SWAP1 KECCAK256 PUSH1 0x1 DUP2 ADD SLOAD CALLVALUE LT ISZERO PUSH2 0x10CF JUMPI PUSH1 0x40 MLOAD PUSH3 0x461BCD PUSH1 0xE5 SHL DUP2 MSTORE PUSH1 0x20 PUSH1 0x4 DUP3 ADD MSTORE PUSH1 0x16 PUSH1 0x24 DUP3 ADD MSTORE PUSH22 0x2132B637BB9036B4B71031B7B73A3934B13ABA34B7B7 PUSH1 0x51 SHL PUSH1 0x44 DUP3 ADD MSTORE PUSH1 0x64 ADD PUSH2 0x6C1 JUMP JUMPDEST PUSH0 DUP2 PUSH1 0x6 ADD SLOAD GT PUSH2 0x1116 JUMPI PUSH1 0x40 MLOAD PUSH3 0x461BCD PUSH1 0xE5 SHL DUP2 MSTORE PUSH1 0x20 PUSH1 0x4 DUP3 ADD MSTORE PUSH1 0x11 PUSH1 0x24 DUP3 ADD MSTORE PUSH17 0x10DA185B58481B9BDD081CDD185C9D1959 PUSH1 0x7A SHL PUSH1 0x44 DUP3 ADD MSTORE PUSH1 0x64 ADD PUSH2 0x6C1 JUMP JUMPDEST CALLER PUSH0 SWAP1 DUP2 MSTORE PUSH1 0x7 PUSH1 0x20 SWAP1 DUP2 MSTORE PUSH1 0x40 DUP1 DUP4 KECCAK256 DUP8 DUP5 MSTORE SWAP1 SWAP2 MSTORE SWAP1 KECCAK256 SLOAD PUSH1 0xFF AND ISZERO PUSH2 0x1180 JUMPI PUSH1 0x40 MLOAD PUSH3 0x461BCD PUSH1 0xE5 SHL DUP2 MSTORE PUSH1 0x20 PUSH1 0x4 DUP3 ADD MSTORE PUSH1 0x1E PUSH1 0x24 DUP3 ADD MSTORE PUSH32 0x416C726561647920636F6E74726962757465642074686973206379636C650000 PUSH1 0x44 DUP3 ADD MSTORE PUSH1 0x64 ADD PUSH2 0x6C1 JUMP JUMPDEST DUP1 PUSH1 0x2 ADD SLOAD DUP2 PUSH1 0x8 ADD SLOAD PUSH2 0x1194 SWAP2 SWAP1 PUSH2 0x242C JUMP JUMPDEST TIMESTAMP LT ISZERO DUP1 PUSH2 0x11A6 JUMPI POP DUP1 PUSH1 0x6 ADD SLOAD PUSH1 0x1 EQ JUMPDEST PUSH2 0x11E4 JUMPI PUSH1 0x40 MLOAD PUSH3 0x461BCD PUSH1 0xE5 SHL DUP2 MSTORE PUSH1 0x20 PUSH1 0x4 DUP3 ADD MSTORE PUSH1 0xF PUSH1 0x24 DUP3 ADD MSTORE PUSH15 0x4379636C65206E6F74207265616479 PUSH1 0x88 SHL PUSH1 0x44 DUP3 ADD MSTORE PUSH1 0x64 ADD PUSH2 0x6C1 JUMP JUMPDEST PUSH0 DUP5 DUP2 MSTORE PUSH1 0x3 PUSH1 0x20 DUP2 DUP2 MSTORE PUSH1 0x40 DUP1 DUP5 KECCAK256 DUP2 MLOAD PUSH1 0x60 DUP2 ADD DUP4 MSTORE CALLER DUP1 DUP3 MSTORE CALLVALUE DUP3 DUP7 ADD DUP2 DUP2 MSTORE TIMESTAMP DUP5 DUP8 ADD SWAP1 DUP2 MSTORE DUP6 SLOAD PUSH1 0x1 DUP1 DUP3 ADD DUP9 SSTORE SWAP7 DUP12 MSTORE DUP9 DUP12 KECCAK256 SWAP6 MLOAD SWAP10 MUL SWAP1 SWAP5 ADD DUP1 SLOAD PUSH1 0x1 PUSH1 0x1 PUSH1 0xA0 SHL SUB NOT AND PUSH1 0x1 PUSH1 0x1 PUSH1 0xA0 SHL SUB SWAP1 SWAP10 AND SWAP9 SWAP1 SWAP9 OR DUP9 SSTORE MLOAD SWAP4 DUP8 ADD SWAP4 SWAP1 SWAP4 SSTORE SWAP1 MLOAD PUSH1 0x2 SWAP1 SWAP6 ADD SWAP5 SWAP1 SWAP5 SSTORE SWAP3 DUP5 MSTORE PUSH1 0x5 DUP3 MSTORE DUP1 DUP5 KECCAK256 DUP9 DUP6 MSTORE SWAP1 SWAP2 MSTORE DUP3 KECCAK256 DUP1 SLOAD SWAP2 SWAP3 SWAP1 SWAP2 PUSH2 0x1277 SWAP1 DUP5 SWAP1 PUSH2 0x242C JUMP JUMPDEST SWAP1 SWAP2 SSTORE POP POP CALLER PUSH0 DUP2 DUP2 MSTORE PUSH1 0x6 PUSH1 0x20 DUP2 DUP2 MSTORE PUSH1 0x40 DUP1 DUP5 KECCAK256 DUP10 DUP6 MSTORE DUP3 MSTORE DUP1 DUP5 KECCAK256 TIMESTAMP SWAP1 SSTORE SWAP4 DUP4 MSTORE PUSH1 0x7 DUP2 MSTORE DUP4 DUP4 KECCAK256 DUP9 DUP5 MSTORE DUP2 MSTORE DUP4 DUP4 KECCAK256 DUP1 SLOAD PUSH1 0xFF NOT AND PUSH1 0x1 OR SWAP1 SSTORE SWAP1 DUP5 ADD SLOAD DUP3 MSTORE PUSH1 0xD DUP5 ADD SWAP1 MSTORE SWAP1 DUP2 KECCAK256 DUP1 SLOAD CALLVALUE SWAP3 SWAP1 PUSH2 0x12D4 SWAP1 DUP5 SWAP1 PUSH2 0x242C JUMP JUMPDEST SWAP3 POP POP DUP2 SWAP1 SSTORE POP CALLVALUE DUP2 PUSH1 0x9 ADD PUSH0 DUP3 DUP3 SLOAD PUSH2 0x12EE SWAP2 SWAP1 PUSH2 0x242C JUMP JUMPDEST SWAP1 SWAP2 SSTORE POP POP CALLER PUSH0 SWAP1 DUP2 MSTORE PUSH1 0x1 PUSH1 0x20 MSTORE PUSH1 0x40 DUP2 KECCAK256 DUP1 SLOAD PUSH1 0x19 SWAP3 SWAP1 PUSH2 0x1312 SWAP1 DUP5 SWAP1 PUSH2 0x242C JUMP JUMPDEST SWAP1 SWAP2 SSTORE POP POP PUSH1 0x40 MLOAD PUSH32 0xA4A91237423E0A1766A761C7CB029311D8B95D6B1B81DB1B949A70C98B4E08E SWAP1 PUSH2 0x134B SWAP1 DUP7 SWAP1 CALLER SWAP1 CALLVALUE SWAP1 PUSH2 0x24A1 JUMP JUMPDEST PUSH1 0x40 MLOAD DUP1 SWAP2 SUB SWAP1 LOG1 PUSH2 0x135C DUP5 PUSH2 0x1CDA JUMP JUMPDEST POP POP POP POP JUMP JUMPDEST PUSH1 0x9 SLOAD PUSH1 0x1 PUSH1 0x1 PUSH1 0xA0 SHL SUB AND CALLER EQ PUSH2 0x13A9 JUMPI PUSH1 0x40 MLOAD PUSH3 0x461BCD PUSH1 0xE5 SHL DUP2 MSTORE PUSH1 0x20 PUSH1 0x4 DUP3 ADD MSTORE PUSH1 0xA PUSH1 0x24 DUP3 ADD MSTORE PUSH10 0x27B7363C9037BBB732B9 PUSH1 0xB1 SHL PUSH1 0x44 DUP3 ADD MSTORE PUSH1 0x64 ADD PUSH2 0x6C1 JUMP JUMPDEST PUSH1 0x1 PUSH1 0x1 PUSH1 0xA0 SHL SUB DUP3 AND PUSH0 SWAP1 DUP2 MSTORE PUSH1 0x1 PUSH1 0x20 MSTORE PUSH1 0x40 DUP2 KECCAK256 DUP1 SLOAD DUP4 SWAP3 SWAP1 PUSH2 0x13D0 SWAP1 DUP5 SWAP1 PUSH2 0x242C JUMP JUMPDEST SWAP1 SWAP2 SSTORE POP POP POP POP JUMP JUMPDEST PUSH1 0x60 PUSH0 PUSH0 PUSH0 PUSH0 PUSH0 PUSH0 PUSH0 PUSH0 PUSH0 PUSH0 PUSH0 PUSH0 DUP14 DUP2 MSTORE PUSH1 0x20 ADD SWAP1 DUP2 MSTORE PUSH1 0x20 ADD PUSH0 KECCAK256 SWAP1 POP DUP1 PUSH0 ADD DUP2 PUSH1 0x1 ADD SLOAD DUP3 PUSH1 0x2 ADD SLOAD DUP4 PUSH1 0x3 ADD SLOAD DUP5 PUSH1 0x5 ADD PUSH0 SWAP1 SLOAD SWAP1 PUSH2 0x100 EXP SWAP1 DIV PUSH1 0xFF AND DUP6 PUSH1 0x6 ADD SLOAD DUP7 PUSH1 0x7 ADD SLOAD DUP8 PUSH1 0x8 ADD SLOAD DUP9 PUSH1 0x9 ADD SLOAD DUP10 PUSH1 0x12 ADD SLOAD DUP10 DUP1 SLOAD PUSH2 0x143F SWAP1 PUSH2 0x243F JUMP JUMPDEST DUP1 PUSH1 0x1F ADD PUSH1 0x20 DUP1 SWAP2 DIV MUL PUSH1 0x20 ADD PUSH1 0x40 MLOAD SWAP1 DUP2 ADD PUSH1 0x40 MSTORE DUP1 SWAP3 SWAP2 SWAP1 DUP2 DUP2 MSTORE PUSH1 0x20 ADD DUP3 DUP1 SLOAD PUSH2 0x146B SWAP1 PUSH2 0x243F JUMP JUMPDEST DUP1 ISZERO PUSH2 0x14B6 JUMPI DUP1 PUSH1 0x1F LT PUSH2 0x148D JUMPI PUSH2 0x100 DUP1 DUP4 SLOAD DIV MUL DUP4 MSTORE SWAP2 PUSH1 0x20 ADD SWAP2 PUSH2 0x14B6 JUMP JUMPDEST DUP3 ADD SWAP2 SWAP1 PUSH0 MSTORE PUSH1 0x20 PUSH0 KECCAK256 SWAP1 JUMPDEST DUP2 SLOAD DUP2 MSTORE SWAP1 PUSH1 0x1 ADD SWAP1 PUSH1 0x20 ADD DUP1 DUP4 GT PUSH2 0x1499 JUMPI DUP3 SWAP1 SUB PUSH1 0x1F AND DUP3 ADD SWAP2 JUMPDEST POP POP POP POP POP SWAP10 POP SWAP11 POP SWAP11 POP SWAP11 POP SWAP11 POP SWAP11 POP SWAP11 POP SWAP11 POP SWAP11 POP SWAP11 POP SWAP11 POP POP SWAP2 SWAP4 SWAP6 SWAP8 SWAP10 POP SWAP2 SWAP4 SWAP6 SWAP8 SWAP10 JUMP JUMPDEST PUSH1 0x2 PUSH1 0x20 MSTORE DUP2 PUSH0 MSTORE PUSH1 0x40 PUSH0 KECCAK256 DUP2 DUP2 SLOAD DUP2 LT PUSH2 0x14F8 JUMPI PUSH0 DUP1 REVERT JUMPDEST SWAP1 PUSH0 MSTORE PUSH1 0x20 PUSH0 KECCAK256 ADD PUSH0 SWAP2 POP SWAP2 POP POP DUP1 SLOAD PUSH2 0x1511 SWAP1 PUSH2 0x243F JUMP JUMPDEST DUP1 PUSH1 0x1F ADD PUSH1 0x20 DUP1 SWAP2 DIV MUL PUSH1 0x20 ADD PUSH1 0x40 MLOAD SWAP1 DUP2 ADD PUSH1 0x40 MSTORE DUP1 SWAP3 SWAP2 SWAP1 DUP2 DUP2 MSTORE PUSH1 0x20 ADD DUP3 DUP1 SLOAD PUSH2 0x153D SWAP1 PUSH2 0x243F JUMP JUMPDEST DUP1 ISZERO PUSH2 0x1588 JUMPI DUP1 PUSH1 0x1F LT PUSH2 0x155F JUMPI PUSH2 0x100 DUP1 DUP4 SLOAD DIV MUL DUP4 MSTORE SWAP2 PUSH1 0x20 ADD SWAP2 PUSH2 0x1588 JUMP JUMPDEST DUP3 ADD SWAP2 SWAP1 PUSH0 MSTORE PUSH1 0x20 PUSH0 KECCAK256 SWAP1 JUMPDEST DUP2 SLOAD DUP2 MSTORE SWAP1 PUSH1 0x1 ADD SWAP1 PUSH1 0x20 ADD DUP1 DUP4 GT PUSH2 0x156B JUMPI DUP3 SWAP1 SUB PUSH1 0x1F AND DUP3 ADD SWAP2 JUMPDEST POP POP POP POP POP DUP2 JUMP JUMPDEST PUSH0 DUP2 DUP2 MSTORE PUSH1 0x20 DUP2 DUP2 MSTORE PUSH1 0x40 SWAP2 DUP3 SWAP1 KECCAK256 PUSH1 0x4 ADD DUP1 SLOAD DUP4 MLOAD DUP2 DUP5 MUL DUP2 ADD DUP5 ADD SWAP1 SWAP5 MSTORE DUP1 DUP5 MSTORE PUSH1 0x60 SWAP4 SWAP3 DUP4 ADD DUP3 DUP3 DUP1 ISZERO PUSH2 0x15EE JUMPI PUSH1 0x20 MUL DUP3 ADD SWAP2 SWAP1 PUSH0 MSTORE PUSH1 0x20 PUSH0 KECCAK256 SWAP1 JUMPDEST DUP2 SLOAD PUSH1 0x1 PUSH1 0x1 PUSH1 0xA0 SHL SUB AND DUP2 MSTORE PUSH1 0x1 SWAP1 SWAP2 ADD SWAP1 PUSH1 0x20 ADD DUP1 DUP4 GT PUSH2 0x15D0 JUMPI JUMPDEST POP POP POP POP POP SWAP1 POP SWAP2 SWAP1 POP JUMP JUMPDEST DUP1 PUSH0 DUP2 GT DUP1 ISZERO PUSH2 0x160C JUMPI POP PUSH1 0x8 SLOAD DUP2 GT ISZERO JUMPDEST PUSH2 0x164F JUMPI PUSH1 0x40 MLOAD PUSH3 0x461BCD PUSH1 0xE5 SHL DUP2 MSTORE PUSH1 0x20 PUSH1 0x4 DUP3 ADD MSTORE PUSH1 0x14 PUSH1 0x24 DUP3 ADD MSTORE PUSH20 0x10DA185B5848191BD95CC81B9BDD08195E1A5CDD PUSH1 0x62 SHL PUSH1 0x44 DUP3 ADD MSTORE PUSH1 0x64 ADD PUSH2 0x6C1 JUMP JUMPDEST PUSH0 DUP3 DUP2 MSTORE PUSH1 0x20 DUP2 SWAP1 MSTORE PUSH1 0x40 SWAP1 KECCAK256 PUSH1 0x5 ADD SLOAD DUP3 SWAP1 PUSH1 0xFF AND PUSH2 0x1681 JUMPI PUSH1 0x40 MLOAD PUSH3 0x461BCD PUSH1 0xE5 SHL DUP2 MSTORE PUSH1 0x4 ADD PUSH2 0x6C1 SWAP1 PUSH2 0x2477 JUMP JUMPDEST PUSH0 DUP4 DUP2 MSTORE PUSH1 0x20 DUP2 SWAP1 MSTORE PUSH1 0x40 SWAP1 KECCAK256 PUSH1 0x6 DUP2 ADD SLOAD ISZERO PUSH2 0x16D8 JUMPI PUSH1 0x40 MLOAD PUSH3 0x461BCD PUSH1 0xE5 SHL DUP2 MSTORE PUSH1 0x20 PUSH1 0x4 DUP3 ADD MSTORE PUSH1 0x15 PUSH1 0x24 DUP3 ADD MSTORE PUSH21 0x10DA185B5848185B1C9958591E481CDD185C9D1959 PUSH1 0x5A SHL PUSH1 0x44 DUP3 ADD MSTORE PUSH1 0x64 ADD PUSH2 0x6C1 JUMP JUMPDEST CALLER PUSH0 SWAP1 DUP2 MSTORE PUSH1 0xB DUP3 ADD PUSH1 0x20 MSTORE PUSH1 0x40 SWAP1 KECCAK256 SLOAD PUSH1 0xFF AND PUSH2 0x1731 JUMPI PUSH1 0x40 MLOAD PUSH3 0x461BCD PUSH1 0xE5 SHL DUP2 MSTORE PUSH1 0x20 PUSH1 0x4 DUP3 ADD MSTORE PUSH1 0x16 PUSH1 0x24 DUP3 ADD MSTORE PUSH22 0x13DB9B1E481B595B58995C9CC818D85B881CDD185C9D PUSH1 0x52 SHL PUSH1 0x44 DUP3 ADD MSTORE PUSH1 0x64 ADD PUSH2 0x6C1 JUMP JUMPDEST PUSH1 0x4 DUP2 ADD SLOAD PUSH1 0x3 GT ISZERO PUSH2 0x1786 JUMPI PUSH1 0x40 MLOAD PUSH3 0x461BCD PUSH1 0xE5 SHL DUP2 MSTORE PUSH1 0x20 PUSH1 0x4 DUP3 ADD MSTORE PUSH1 0x17 PUSH1 0x24 DUP3 ADD MSTORE PUSH32 0x4E656564206174206C656173742033206D656D62657273000000000000000000 PUSH1 0x44 DUP3 ADD MSTORE PUSH1 0x64 ADD PUSH2 0x6C1 JUMP JUMPDEST PUSH2 0x135C DUP5 PUSH2 0x1C78 JUMP JUMPDEST PUSH0 DUP4 GT PUSH2 0x17DE JUMPI PUSH1 0x40 MLOAD PUSH3 0x461BCD PUSH1 0xE5 SHL DUP2 MSTORE PUSH1 0x20 PUSH1 0x4 DUP3 ADD MSTORE PUSH1 0x18 PUSH1 0x24 DUP3 ADD MSTORE PUSH32 0x436F6E747269627574696F6E206D757374206265203E20300000000000000000 PUSH1 0x44 DUP3 ADD MSTORE PUSH1 0x64 ADD PUSH2 0x6C1 JUMP JUMPDEST PUSH3 0x93A80 DUP3 LT ISZERO PUSH2 0x1831 JUMPI PUSH1 0x40 MLOAD PUSH3 0x461BCD PUSH1 0xE5 SHL DUP2 MSTORE PUSH1 0x20 PUSH1 0x4 DUP3 ADD MSTORE PUSH1 0x17 PUSH1 0x24 DUP3 ADD MSTORE PUSH32 0x4379636C65206D757374206265203E3D20372064617973000000000000000000 PUSH1 0x44 DUP3 ADD MSTORE PUSH1 0x64 ADD PUSH2 0x6C1 JUMP JUMPDEST PUSH1 0x3 DUP2 LT ISZERO DUP1 ISZERO PUSH2 0x1843 JUMPI POP PUSH1 0x14 DUP2 GT ISZERO JUMPDEST PUSH2 0x187F JUMPI PUSH1 0x40 MLOAD PUSH3 0x461BCD PUSH1 0xE5 SHL DUP2 MSTORE PUSH1 0x20 PUSH1 0x4 DUP3 ADD MSTORE PUSH1 0xD PUSH1 0x24 DUP3 ADD MSTORE PUSH13 0x4D656D626572733A20332D323 PUSH1 0x9C SHL PUSH1 0x44 DUP3 ADD MSTORE PUSH1 0x64 ADD PUSH2 0x6C1 JUMP JUMPDEST DUP3 CALLVALUE LT ISZERO PUSH2 0x18EC JUMPI PUSH1 0x40 MLOAD PUSH3 0x461BCD PUSH1 0xE5 SHL DUP2 MSTORE PUSH1 0x20 PUSH1 0x4 DUP3 ADD MSTORE PUSH1 0x34 PUSH1 0x24 DUP3 ADD MSTORE PUSH32 0x4D757374206465706F73697420636F6C6C61746572616C20657175616C20746F PUSH1 0x44 DUP3 ADD MSTORE PUSH20 0x818DBDB9D1C9A589D5D1A5BDB88185B5BDD5B9D PUSH1 0x62 SHL PUSH1 0x64 DUP3 ADD MSTORE PUSH1 0x84 ADD PUSH2 0x6C1 JUMP JUMPDEST PUSH1 0x8 DUP1 SLOAD SWAP1 PUSH0 PUSH2 0x18FB DUP4 PUSH2 0x24C0 JUMP JUMPDEST SWAP1 SWAP2 SSTORE POP POP PUSH1 0x8 SLOAD PUSH0 SWAP1 DUP2 MSTORE PUSH1 0x20 DUP2 SWAP1 MSTORE PUSH1 0x40 SWAP1 KECCAK256 DUP1 PUSH2 0x191B DUP7 DUP3 PUSH2 0x251C JUMP JUMPDEST POP PUSH1 0x1 DUP1 DUP3 ADD DUP6 SWAP1 SSTORE PUSH1 0x2 DUP3 ADD DUP5 SWAP1 SSTORE PUSH1 0x3 DUP3 ADD DUP4 SWAP1 SSTORE PUSH1 0x5 DUP3 ADD DUP1 SLOAD PUSH1 0xFF NOT SWAP1 DUP2 AND DUP4 OR SWAP1 SWAP2 SSTORE PUSH0 PUSH1 0x6 DUP5 ADD DUP2 SWAP1 SSTORE PUSH1 0x7 DUP5 ADD DUP2 SWAP1 SSTORE TIMESTAMP PUSH1 0x8 DUP1 DUP7 ADD SWAP2 SWAP1 SWAP2 SSTORE PUSH1 0x9 DUP6 ADD DUP3 SWAP1 SSTORE CALLVALUE PUSH1 0x12 DUP7 ADD DUP2 SWAP1 SSTORE PUSH1 0x4 DUP1 DUP8 ADD DUP1 SLOAD DUP1 DUP9 ADD DUP3 SSTORE SWAP1 DUP6 MSTORE PUSH1 0x20 DUP1 DUP7 KECCAK256 SWAP1 SWAP2 ADD DUP1 SLOAD PUSH1 0x1 PUSH1 0x1 PUSH1 0xA0 SHL SUB NOT AND CALLER SWAP1 DUP2 OR SWAP1 SWAP2 SSTORE DUP1 DUP7 MSTORE PUSH1 0xB DUP10 ADD DUP3 MSTORE PUSH1 0x40 DUP1 DUP8 KECCAK256 DUP1 SLOAD SWAP1 SWAP9 AND DUP10 OR SWAP1 SWAP8 SSTORE PUSH1 0xC DUP10 ADD DUP3 MSTORE DUP7 DUP7 KECCAK256 DUP7 SWAP1 SSTORE PUSH1 0xA DUP10 ADD DUP1 SLOAD DUP1 DUP11 ADD DUP3 SSTORE SWAP1 DUP8 MSTORE DUP3 DUP8 KECCAK256 DUP4 DUP3 DIV ADD DUP1 SLOAD PUSH1 0x1F SWAP1 SWAP3 AND PUSH2 0x100 EXP PUSH1 0xFF MUL NOT SWAP1 SWAP2 AND SWAP1 SSTORE DUP1 DUP7 MSTORE PUSH1 0x10 DUP10 ADD DUP3 MSTORE DUP7 DUP7 KECCAK256 SWAP4 SWAP1 SWAP4 SSTORE SWAP1 DUP2 MSTORE DUP5 DUP5 KECCAK256 SWAP3 SLOAD DUP4 SLOAD DUP1 DUP9 ADD DUP6 SSTORE SWAP4 DUP6 MSTORE DUP2 DUP6 KECCAK256 SWAP1 SWAP4 ADD SWAP3 SWAP1 SWAP3 SSTORE DUP3 MSTORE SWAP3 SWAP1 SWAP3 MSTORE DUP2 KECCAK256 DUP1 SLOAD PUSH1 0x64 SWAP3 SWAP1 PUSH2 0x1A27 SWAP1 DUP5 SWAP1 PUSH2 0x242C JUMP JUMPDEST SWAP1 SWAP2 SSTORE POP POP PUSH1 0x8 SLOAD PUSH1 0x40 MLOAD PUSH32 0xF4262469916388C16D1454945CD27F61664F3AE726C205E66B8F9212A3534F8C SWAP2 PUSH2 0x1A63 SWAP2 DUP9 SWAP1 CALLER SWAP1 DUP10 SWAP1 PUSH2 0x25D7 JUMP JUMPDEST PUSH1 0x40 MLOAD DUP1 SWAP2 SUB SWAP1 LOG1 PUSH32 0xEEC2F3FEB835E2F2FD44281034B04700A1DDDA63DD402949D470A25A7C40B36C PUSH1 0x8 SLOAD CALLER CALLVALUE PUSH1 0x40 MLOAD PUSH2 0x86C SWAP4 SWAP3 SWAP2 SWAP1 PUSH2 0x24A1 JUMP JUMPDEST PUSH0 DUP2 DUP2 MSTORE PUSH1 0x20 DUP2 DUP2 MSTORE PUSH1 0x40 DUP1 DUP4 KECCAK256 PUSH1 0x6 DUP2 ADD SLOAD DUP5 MSTORE PUSH1 0xD DUP2 ADD SWAP1 SWAP3 MSTORE DUP3 KECCAK256 SLOAD PUSH1 0x7 DUP3 ADD SLOAD PUSH1 0x4 DUP4 ADD DUP1 SLOAD SWAP4 SWAP5 SWAP3 SWAP4 SWAP1 SWAP2 SWAP1 DUP2 LT PUSH2 0x1ADF JUMPI PUSH2 0x1ADF PUSH2 0x23ED JUMP JUMPDEST SWAP1 PUSH0 MSTORE PUSH1 0x20 PUSH0 KECCAK256 ADD PUSH0 SWAP1 SLOAD SWAP1 PUSH2 0x100 EXP SWAP1 DIV PUSH1 0x1 PUSH1 0x1 PUSH1 0xA0 SHL SUB AND SWAP1 POP PUSH1 0x1 DUP4 PUSH1 0xA ADD DUP5 PUSH1 0x7 ADD SLOAD DUP2 SLOAD DUP2 LT PUSH2 0x1B17 JUMPI PUSH2 0x1B17 PUSH2 0x23ED JUMP JUMPDEST PUSH0 SWAP2 DUP3 MSTORE PUSH1 0x20 DUP1 DUP4 KECCAK256 DUP2 DUP4 DIV ADD DUP1 SLOAD PUSH1 0xFF PUSH1 0x1F SWAP1 SWAP5 AND PUSH2 0x100 EXP SWAP4 DUP5 MUL NOT AND SWAP5 ISZERO ISZERO SWAP3 SWAP1 SWAP3 MUL SWAP4 SWAP1 SWAP4 OR SWAP1 SSTORE PUSH1 0x6 DUP6 ADD DUP1 SLOAD DUP3 MSTORE PUSH1 0xE DUP7 ADD DUP4 MSTORE PUSH1 0x40 DUP1 DUP4 KECCAK256 DUP1 SLOAD PUSH1 0x1 PUSH1 0x1 PUSH1 0xA0 SHL SUB NOT AND PUSH1 0x1 PUSH1 0x1 PUSH1 0xA0 SHL SUB DUP8 AND SWAP1 DUP2 OR SWAP1 SWAP2 SSTORE SWAP2 SLOAD DUP4 MSTORE PUSH1 0xF DUP8 ADD SWAP1 SWAP4 MSTORE DUP3 DUP3 KECCAK256 DUP1 SLOAD PUSH1 0xFF NOT AND PUSH1 0x1 OR SWAP1 SSTORE SWAP2 MLOAD PUSH2 0x8FC DUP6 ISZERO MUL SWAP2 DUP6 SWAP2 SWAP1 DUP2 DUP2 DUP2 DUP6 DUP9 DUP9 CALL SWAP4 POP POP POP POP ISZERO DUP1 ISZERO PUSH2 0x1BB2 JUMPI RETURNDATASIZE PUSH0 PUSH0 RETURNDATACOPY RETURNDATASIZE PUSH0 REVERT JUMPDEST POP PUSH1 0x6 DUP4 ADD SLOAD PUSH1 0x40 DUP1 MLOAD DUP7 DUP2 MSTORE PUSH1 0x1 PUSH1 0x1 PUSH1 0xA0 SHL SUB DUP5 AND PUSH1 0x20 DUP3 ADD MSTORE DUP1 DUP3 ADD DUP6 SWAP1 MSTORE PUSH1 0x60 DUP2 ADD SWAP3 SWAP1 SWAP3 MSTORE MLOAD PUSH32 0xB4AEB9FB59644D1C26001B986295CDE5BBFAE34BE7C5240FBCCF4C37308E20FE SWAP2 DUP2 SWAP1 SUB PUSH1 0x80 ADD SWAP1 LOG1 PUSH1 0x6 DUP4 ADD SLOAD PUSH1 0x40 DUP1 MLOAD DUP7 DUP2 MSTORE PUSH1 0x20 DUP2 ADD SWAP3 SWAP1 SWAP3 MSTORE PUSH32 0x42463706CB812379C7405BBA67D1414B3473B66942ECD48FD66E7AD3CD3ABDD4 SWAP2 ADD PUSH1 0x40 MLOAD DUP1 SWAP2 SUB SWAP1 LOG1 PUSH1 0x4 DUP4 ADD SLOAD PUSH2 0x1C57 SWAP1 PUSH1 0x1 SWAP1 PUSH2 0x260B JUMP JUMPDEST DUP4 PUSH1 0x7 ADD SLOAD SUB PUSH2 0x1C6F JUMPI PUSH2 0x1C6A DUP5 PUSH2 0x1D75 JUMP JUMPDEST PUSH2 0x135C JUMP JUMPDEST PUSH2 0x135C DUP5 PUSH2 0x1ECB JUMP JUMPDEST PUSH0 DUP2 DUP2 MSTORE PUSH1 0x20 DUP2 SWAP1 MSTORE PUSH1 0x40 SWAP1 KECCAK256 PUSH1 0x1 PUSH1 0x6 DUP3 ADD SSTORE TIMESTAMP PUSH1 0x8 DUP3 ADD SSTORE PUSH2 0x1C9B DUP3 PUSH2 0x1F77 JUMP JUMPDEST PUSH32 0x39874AF9B7F4AB9E4C5C47A7280FDB5F5DB4081446E9D2CDFD23D5D5AA781C64 DUP3 CALLER TIMESTAMP PUSH1 0x40 MLOAD PUSH2 0x1CCE SWAP4 SWAP3 SWAP2 SWAP1 PUSH2 0x24A1 JUMP JUMPDEST PUSH1 0x40 MLOAD DUP1 SWAP2 SUB SWAP1 LOG1 POP POP JUMP JUMPDEST PUSH0 DUP2 DUP2 MSTORE PUSH1 0x20 DUP2 SWAP1 MSTORE PUSH1 0x40 DUP2 KECCAK256 SWAP1 DUP1 JUMPDEST PUSH1 0x4 DUP4 ADD SLOAD DUP2 LT ISZERO PUSH2 0x1D5B JUMPI PUSH1 0x7 PUSH0 DUP5 PUSH1 0x4 ADD DUP4 DUP2 SLOAD DUP2 LT PUSH2 0x1D0E JUMPI PUSH2 0x1D0E PUSH2 0x23ED JUMP JUMPDEST PUSH0 SWAP2 DUP3 MSTORE PUSH1 0x20 DUP1 DUP4 KECCAK256 SWAP1 SWAP2 ADD SLOAD PUSH1 0x1 PUSH1 0x1 PUSH1 0xA0 SHL SUB AND DUP4 MSTORE DUP3 DUP2 ADD SWAP4 SWAP1 SWAP4 MSTORE PUSH1 0x40 SWAP2 DUP3 ADD DUP2 KECCAK256 DUP8 DUP3 MSTORE SWAP1 SWAP3 MSTORE SWAP1 KECCAK256 SLOAD PUSH1 0xFF AND ISZERO PUSH2 0x1D53 JUMPI DUP2 PUSH2 0x1D4F DUP2 PUSH2 0x24C0 JUMP JUMPDEST SWAP3 POP POP JUMPDEST PUSH1 0x1 ADD PUSH2 0x1CEA JUMP JUMPDEST POP PUSH1 0x4 DUP3 ADD SLOAD DUP2 SUB PUSH2 0x1D70 JUMPI PUSH2 0x1D70 DUP4 PUSH2 0x1AA0 JUMP JUMPDEST POP POP POP JUMP JUMPDEST PUSH0 DUP2 DUP2 MSTORE PUSH1 0x20 DUP2 SWAP1 MSTORE PUSH1 0x40 DUP2 KECCAK256 PUSH1 0x5 DUP2 ADD DUP1 SLOAD PUSH1 0xFF NOT AND SWAP1 SSTORE SWAP1 JUMPDEST PUSH1 0x4 DUP3 ADD SLOAD DUP2 LT ISZERO PUSH2 0x1E9A JUMPI PUSH0 DUP3 PUSH1 0x4 ADD DUP3 DUP2 SLOAD DUP2 LT PUSH2 0x1DB2 JUMPI PUSH2 0x1DB2 PUSH2 0x23ED JUMP JUMPDEST PUSH0 SWAP2 DUP3 MSTORE PUSH1 0x20 DUP1 DUP4 KECCAK256 SWAP1 SWAP2 ADD SLOAD PUSH1 0x1 PUSH1 0x1 PUSH1 0xA0 SHL SUB AND DUP1 DUP4 MSTORE PUSH1 0x10 DUP7 ADD SWAP1 SWAP2 MSTORE PUSH1 0x40 SWAP1 SWAP2 KECCAK256 SLOAD SWAP1 SWAP2 POP DUP1 ISZERO DUP1 ISZERO SWAP1 PUSH2 0x1E04 JUMPI POP PUSH1 0x1 PUSH1 0x1 PUSH1 0xA0 SHL SUB DUP3 AND PUSH0 SWAP1 DUP2 MSTORE PUSH1 0x11 DUP6 ADD PUSH1 0x20 MSTORE PUSH1 0x40 SWAP1 KECCAK256 SLOAD PUSH1 0xFF AND ISZERO JUMPDEST ISZERO PUSH2 0x1E90 JUMPI PUSH1 0x1 PUSH1 0x1 PUSH1 0xA0 SHL SUB DUP3 AND PUSH0 DUP2 DUP2 MSTORE PUSH1 0x11 DUP7 ADD PUSH1 0x20 MSTORE PUSH1 0x40 DUP1 DUP3 KECCAK256 DUP1 SLOAD PUSH1 0xFF NOT AND PUSH1 0x1 OR SWAP1 SSTORE MLOAD DUP4 ISZERO PUSH2 0x8FC MUL SWAP2 DUP5 SWAP2 SWAP1 DUP2 DUP2 DUP2 DUP6 DUP9 DUP9 CALL SWAP4 POP POP POP POP ISZERO DUP1 ISZERO PUSH2 0x1E54 JUMPI RETURNDATASIZE PUSH0 PUSH0 RETURNDATACOPY RETURNDATASIZE PUSH0 REVERT JUMPDEST POP PUSH31 0x83F3D3D0A8132E9BF23AE6CDE659D5F3963A6973816E144F05BFCCEF184279 DUP6 DUP4 DUP4 PUSH1 0x40 MLOAD PUSH2 0x1E87 SWAP4 SWAP3 SWAP2 SWAP1 PUSH2 0x24A1 JUMP JUMPDEST PUSH1 0x40 MLOAD DUP1 SWAP2 SUB SWAP1 LOG1 JUMPDEST POP POP PUSH1 0x1 ADD PUSH2 0x1D90 JUMP JUMPDEST POP PUSH1 0x40 MLOAD DUP3 DUP2 MSTORE PUSH32 0xDB5E126E6A121DA8028405972761F7C42DFF3D626273CD61FD32A13D4C3F56C7 SWAP1 PUSH1 0x20 ADD PUSH2 0x1CCE JUMP JUMPDEST PUSH0 DUP2 DUP2 MSTORE PUSH1 0x20 DUP2 SWAP1 MSTORE PUSH1 0x40 DUP2 KECCAK256 PUSH1 0x7 DUP2 ADD DUP1 SLOAD SWAP2 SWAP3 PUSH2 0x1EE9 DUP4 PUSH2 0x24C0 JUMP JUMPDEST SWAP1 SWAP2 SSTORE POP POP PUSH1 0x6 DUP2 ADD DUP1 SLOAD SWAP1 PUSH0 PUSH2 0x1EFF DUP4 PUSH2 0x24C0 JUMP JUMPDEST SWAP1 SWAP2 SSTORE POP POP TIMESTAMP PUSH1 0x8 DUP3 ADD SSTORE PUSH0 JUMPDEST PUSH1 0x4 DUP3 ADD SLOAD DUP2 LT ISZERO PUSH2 0x1D70 JUMPI PUSH0 PUSH1 0x7 PUSH0 DUP5 PUSH1 0x4 ADD DUP5 DUP2 SLOAD DUP2 LT PUSH2 0x1F31 JUMPI PUSH2 0x1F31 PUSH2 0x23ED JUMP JUMPDEST PUSH0 SWAP2 DUP3 MSTORE PUSH1 0x20 DUP1 DUP4 KECCAK256 SWAP2 SWAP1 SWAP2 ADD SLOAD PUSH1 0x1 PUSH1 0x1 PUSH1 0xA0 SHL SUB AND DUP4 MSTORE DUP3 DUP2 ADD SWAP4 SWAP1 SWAP4 MSTORE PUSH1 0x40 SWAP2 DUP3 ADD DUP2 KECCAK256 DUP8 DUP3 MSTORE SWAP1 SWAP3 MSTORE SWAP1 KECCAK256 DUP1 SLOAD PUSH1 0xFF NOT AND SWAP2 ISZERO ISZERO SWAP2 SWAP1 SWAP2 OR SWAP1 SSTORE PUSH1 0x1 ADD PUSH2 0x1F0C JUMP JUMPDEST PUSH0 DUP2 DUP2 MSTORE PUSH1 0x20 DUP2 SWAP1 MSTORE PUSH1 0x40 DUP2 KECCAK256 PUSH1 0x4 DUP2 ADD SLOAD SWAP1 SWAP2 JUMPDEST DUP2 DUP2 LT ISZERO PUSH2 0x135C JUMPI PUSH1 0x40 DUP1 MLOAD TIMESTAMP PUSH1 0x20 DUP3 ADD MSTORE PREVRANDAO SWAP2 DUP2 ADD SWAP2 SWAP1 SWAP2 MSTORE PUSH1 0x60 DUP2 ADD DUP3 SWAP1 MSTORE PUSH0 SWAP1 DUP4 SWAP1 PUSH1 0x80 ADD PUSH1 0x40 MLOAD PUSH1 0x20 DUP2 DUP4 SUB SUB DUP2 MSTORE SWAP1 PUSH1 0x40 MSTORE DUP1 MLOAD SWAP1 PUSH1 0x20 ADD KECCAK256 PUSH0 SHR PUSH2 0x1FD6 SWAP2 SWAP1 PUSH2 0x261E JUMP JUMPDEST SWAP1 POP PUSH0 DUP5 PUSH1 0x4 ADD DUP4 DUP2 SLOAD DUP2 LT PUSH2 0x1FEE JUMPI PUSH2 0x1FEE PUSH2 0x23ED JUMP JUMPDEST PUSH0 SWAP2 DUP3 MSTORE PUSH1 0x20 SWAP1 SWAP2 KECCAK256 ADD SLOAD PUSH1 0x4 DUP7 ADD DUP1 SLOAD PUSH1 0x1 PUSH1 0x1 PUSH1 0xA0 SHL SUB SWAP1 SWAP3 AND SWAP3 POP SWAP1 DUP4 SWAP1 DUP2 LT PUSH2 0x201D JUMPI PUSH2 0x201D PUSH2 0x23ED JUMP JUMPDEST PUSH0 SWAP2 DUP3 MSTORE PUSH1 0x20 SWAP1 SWAP2 KECCAK256 ADD SLOAD PUSH1 0x4 DUP7 ADD DUP1 SLOAD PUSH1 0x1 PUSH1 0x1 PUSH1 0xA0 SHL SUB SWAP1 SWAP3 AND SWAP2 DUP6 SWAP1 DUP2 LT PUSH2 0x204A JUMPI PUSH2 0x204A PUSH2 0x23ED JUMP JUMPDEST SWAP1 PUSH0 MSTORE PUSH1 0x20 PUSH0 KECCAK256 ADD PUSH0 PUSH2 0x100 EXP DUP2 SLOAD DUP2 PUSH1 0x1 PUSH1 0x1 PUSH1 0xA0 SHL SUB MUL NOT AND SWAP1 DUP4 PUSH1 0x1 PUSH1 0x1 PUSH1 0xA0 SHL SUB AND MUL OR SWAP1 SSTORE POP DUP1 DUP6 PUSH1 0x4 ADD DUP4 DUP2 SLOAD DUP2 LT PUSH2 0x208B JUMPI PUSH2 0x208B PUSH2 0x23ED JUMP JUMPDEST SWAP1 PUSH0 MSTORE PUSH1 0x20 PUSH0 KECCAK256 ADD PUSH0 PUSH2 0x100 EXP DUP2 SLOAD DUP2 PUSH1 0x1 PUSH1 0x1 PUSH1 0xA0 SHL SUB MUL NOT AND SWAP1 DUP4 PUSH1 0x1 PUSH1 0x1 PUSH1 0xA0 SHL SUB AND MUL OR SWAP1 SSTORE POP DUP3 DUP6 PUSH1 0xC ADD PUSH0 DUP8 PUSH1 0x4 ADD DUP7 DUP2 SLOAD DUP2 LT PUSH2 0x20D1 JUMPI PUSH2 0x20D1 PUSH2 0x23ED JUMP JUMPDEST PUSH0 SWAP2 DUP3 MSTORE PUSH1 0x20 DUP1 DUP4 KECCAK256 SWAP1 SWAP2 ADD SLOAD PUSH1 0x1 PUSH1 0x1 PUSH1 0xA0 SHL SUB AND DUP4 MSTORE DUP3 ADD SWAP3 SWAP1 SWAP3 MSTORE PUSH1 0x40 ADD DUP2 KECCAK256 SWAP2 SWAP1 SWAP2 SSTORE PUSH1 0x4 DUP7 ADD DUP1 SLOAD DUP5 SWAP3 PUSH1 0xC DUP10 ADD SWAP3 SWAP1 SWAP2 DUP5 SWAP1 DUP2 LT PUSH2 0x2117 JUMPI PUSH2 0x2117 PUSH2 0x23ED JUMP JUMPDEST PUSH0 SWAP2 DUP3 MSTORE PUSH1 0x20 DUP1 DUP4 KECCAK256 SWAP1 SWAP2 ADD SLOAD PUSH1 0x1 PUSH1 0x1 PUSH1 0xA0 SHL SUB AND DUP4 MSTORE DUP3 ADD SWAP3 SWAP1 SWAP3 MSTORE PUSH1 0x40 ADD SWAP1 KECCAK256 SSTORE POP POP PUSH1 0x1 ADD PUSH2 0x1F8C JUMP JUMPDEST DUP1 CALLDATALOAD PUSH1 0x1 PUSH1 0x1 PUSH1 0xA0 SHL SUB DUP2 AND DUP2 EQ PUSH2 0x215B JUMPI PUSH0 PUSH0 REVERT JUMPDEST SWAP2 SWAP1 POP JUMP JUMPDEST PUSH0 PUSH0 PUSH1 0x40 DUP4 DUP6 SUB SLT ISZERO PUSH2 0x2171 JUMPI PUSH0 PUSH0 REVERT JUMPDEST DUP3 CALLDATALOAD SWAP2 POP PUSH2 0x2181 PUSH1 0x20 DUP5 ADD PUSH2 0x2145 JUMP JUMPDEST SWAP1 POP SWAP3 POP SWAP3 SWAP1 POP JUMP JUMPDEST PUSH0 PUSH1 0x20 DUP3 DUP5 SUB SLT ISZERO PUSH2 0x219A JUMPI PUSH0 PUSH0 REVERT JUMPDEST POP CALLDATALOAD SWAP2 SWAP1 POP JUMP JUMPDEST PUSH0 DUP2 MLOAD DUP1 DUP5 MSTORE DUP1 PUSH1 0x20 DUP5 ADD PUSH1 0x20 DUP7 ADD MCOPY PUSH0 PUSH1 0x20 DUP3 DUP7 ADD ADD MSTORE PUSH1 0x20 PUSH1 0x1F NOT PUSH1 0x1F DUP4 ADD AND DUP6 ADD ADD SWAP2 POP POP SWAP3 SWAP2 POP POP JUMP JUMPDEST PUSH2 0x140 DUP2 MSTORE PUSH0 PUSH2 0x21E3 PUSH2 0x140 DUP4 ADD DUP14 PUSH2 0x21A1 JUMP JUMPDEST PUSH1 0x20 DUP4 ADD SWAP12 SWAP1 SWAP12 MSTORE POP PUSH1 0x40 DUP2 ADD SWAP9 SWAP1 SWAP9 MSTORE PUSH1 0x60 DUP9 ADD SWAP7 SWAP1 SWAP7 MSTORE SWAP4 ISZERO ISZERO PUSH1 0x80 DUP8 ADD MSTORE PUSH1 0xA0 DUP7 ADD SWAP3 SWAP1 SWAP3 MSTORE PUSH1 0xC0 DUP6 ADD MSTORE PUSH1 0xE0 DUP5 ADD MSTORE PUSH2 0x100 DUP4 ADD MSTORE PUSH2 0x120 SWAP1 SWAP2 ADD MSTORE SWAP2 SWAP1 POP JUMP JUMPDEST PUSH0 PUSH0 PUSH1 0x40 DUP4 DUP6 SUB SLT ISZERO PUSH2 0x2239 JUMPI PUSH0 PUSH0 REVERT JUMPDEST PUSH2 0x2242 DUP4 PUSH2 0x2145 JUMP JUMPDEST SWAP5 PUSH1 0x20 SWAP4 SWAP1 SWAP4 ADD CALLDATALOAD SWAP4 POP POP POP JUMP JUMPDEST PUSH0 PUSH1 0x20 DUP3 DUP5 SUB SLT ISZERO PUSH2 0x2260 JUMPI PUSH0 PUSH0 REVERT JUMPDEST PUSH2 0x2269 DUP3 PUSH2 0x2145 JUMP JUMPDEST SWAP4 SWAP3 POP POP POP JUMP JUMPDEST PUSH0 PUSH0 PUSH1 0x40 DUP4 DUP6 SUB SLT ISZERO PUSH2 0x2281 JUMPI PUSH0 PUSH0 REVERT JUMPDEST POP POP DUP1 CALLDATALOAD SWAP3 PUSH1 0x20 SWAP1 SWAP2 ADD CALLDATALOAD SWAP2 POP JUMP JUMPDEST PUSH1 0x20 DUP2 MSTORE PUSH0 PUSH2 0x2269 PUSH1 0x20 DUP4 ADD DUP5 PUSH2 0x21A1 JUMP JUMPDEST PUSH1 0x20 DUP1 DUP3 MSTORE DUP3 MLOAD DUP3 DUP3 ADD DUP2 SWAP1 MSTORE PUSH0 SWAP2 DUP5 ADD SWAP1 PUSH1 0x40 DUP5 ADD SWAP1 DUP4 JUMPDEST DUP2 DUP2 LT ISZERO PUSH2 0x22E2 JUMPI DUP4 MLOAD PUSH1 0x1 PUSH1 0x1 PUSH1 0xA0 SHL SUB AND DUP4 MSTORE PUSH1 0x20 SWAP4 DUP5 ADD SWAP4 SWAP1 SWAP3 ADD SWAP2 PUSH1 0x1 ADD PUSH2 0x22BB JUMP JUMPDEST POP SWAP1 SWAP6 SWAP5 POP POP POP POP POP JUMP JUMPDEST PUSH4 0x4E487B71 PUSH1 0xE0 SHL PUSH0 MSTORE PUSH1 0x41 PUSH1 0x4 MSTORE PUSH1 0x24 PUSH0 REVERT JUMPDEST PUSH0 PUSH0 PUSH0 PUSH0 PUSH1 0x80 DUP6 DUP8 SUB SLT ISZERO PUSH2 0x2314 JUMPI PUSH0 PUSH0 REVERT JUMPDEST DUP5 CALLDATALOAD PUSH8 0xFFFFFFFFFFFFFFFF DUP2 GT ISZERO PUSH2 0x232A JUMPI PUSH0 PUSH0 REVERT JUMPDEST DUP6 ADD PUSH1 0x1F DUP2 ADD DUP8 SGT PUSH2 0x233A JUMPI PUSH0 PUSH0 REVERT JUMPDEST DUP1 CALLDATALOAD PUSH8 0xFFFFFFFFFFFFFFFF DUP2 GT ISZERO PUSH2 0x2354 JUMPI PUSH2 0x2354 PUSH2 0x22ED JUMP JUMPDEST PUSH1 0x40 MLOAD PUSH1 0x1F DUP3 ADD PUSH1 0x1F NOT SWAP1 DUP2 AND PUSH1 0x3F ADD AND DUP2 ADD PUSH8 0xFFFFFFFFFFFFFFFF DUP2 GT DUP3 DUP3 LT OR ISZERO PUSH2 0x2383 JUMPI PUSH2 0x2383 PUSH2 0x22ED JUMP JUMPDEST PUSH1 0x40 MSTORE DUP2 DUP2 MSTORE DUP3 DUP3 ADD PUSH1 0x20 ADD DUP10 LT ISZERO PUSH2 0x239A JUMPI PUSH0 PUSH0 REVERT JUMPDEST DUP2 PUSH1 0x20 DUP5 ADD PUSH1 0x20 DUP4 ADD CALLDATACOPY PUSH0 PUSH1 0x20 SWAP3 DUP3 ADD DUP4 ADD MSTORE SWAP9 SWAP1 DUP8 ADD CALLDATALOAD SWAP8 POP PUSH1 0x40 DUP8 ADD CALLDATALOAD SWAP7 PUSH1 0x60 ADD CALLDATALOAD SWAP6 POP SWAP4 POP POP POP POP JUMP JUMPDEST PUSH1 0x20 DUP1 DUP3 MSTORE PUSH1 0xC SWAP1 DUP3 ADD MSTORE PUSH12 0x2737BA10309036B2B6B132B9 PUSH1 0xA1 SHL PUSH1 0x40 DUP3 ADD MSTORE PUSH1 0x60 ADD SWAP1 JUMP JUMPDEST PUSH4 0x4E487B71 PUSH1 0xE0 SHL PUSH0 MSTORE PUSH1 0x32 PUSH1 0x4 MSTORE PUSH1 0x24 PUSH0 REVERT JUMPDEST PUSH4 0x4E487B71 PUSH1 0xE0 SHL PUSH0 MSTORE PUSH1 0x11 PUSH1 0x4 MSTORE PUSH1 0x24 PUSH0 REVERT JUMPDEST DUP1 DUP3 MUL DUP2 ISZERO DUP3 DUP3 DIV DUP5 EQ OR PUSH2 0xE55 JUMPI PUSH2 0xE55 PUSH2 0x2401 JUMP JUMPDEST DUP1 DUP3 ADD DUP1 DUP3 GT ISZERO PUSH2 0xE55 JUMPI PUSH2 0xE55 PUSH2 0x2401 JUMP JUMPDEST PUSH1 0x1 DUP2 DUP2 SHR SWAP1 DUP3 AND DUP1 PUSH2 0x2453 JUMPI PUSH1 0x7F DUP3 AND SWAP2 POP JUMPDEST PUSH1 0x20 DUP3 LT DUP2 SUB PUSH2 0x2471 JUMPI PUSH4 0x4E487B71 PUSH1 0xE0 SHL PUSH0 MSTORE PUSH1 0x22 PUSH1 0x4 MSTORE PUSH1 0x24 PUSH0 REVERT JUMPDEST POP SWAP2 SWAP1 POP JUMP JUMPDEST PUSH1 0x20 DUP1 DUP3 MSTORE PUSH1 0x10 SWAP1 DUP3 ADD MSTORE PUSH16 0x4368616D61206E6F7420616374697665 PUSH1 0x80 SHL PUSH1 0x40 DUP3 ADD MSTORE PUSH1 0x60 ADD SWAP1 JUMP JUMPDEST SWAP3 DUP4 MSTORE PUSH1 0x1 PUSH1 0x1 PUSH1 0xA0 SHL SUB SWAP2 SWAP1 SWAP2 AND PUSH1 0x20 DUP4 ADD MSTORE PUSH1 0x40 DUP3 ADD MSTORE PUSH1 0x60 ADD SWAP1 JUMP JUMPDEST PUSH0 PUSH1 0x1 DUP3 ADD PUSH2 0x24D1 JUMPI PUSH2 0x24D1 PUSH2 0x2401 JUMP JUMPDEST POP PUSH1 0x1 ADD SWAP1 JUMP JUMPDEST PUSH1 0x1F DUP3 GT ISZERO PUSH2 0x1D70 JUMPI DUP1 PUSH0 MSTORE PUSH1 0x20 PUSH0 KECCAK256 PUSH1 0x1F DUP5 ADD PUSH1 0x5 SHR DUP2 ADD PUSH1 0x20 DUP6 LT ISZERO PUSH2 0x24FD JUMPI POP DUP1 JUMPDEST PUSH1 0x1F DUP5 ADD PUSH1 0x5 SHR DUP3 ADD SWAP2 POP JUMPDEST DUP2 DUP2 LT ISZERO PUSH2 0xE27 JUMPI PUSH0 DUP2 SSTORE PUSH1 0x1 ADD PUSH2 0x2509 JUMP JUMPDEST DUP2 MLOAD PUSH8 0xFFFFFFFFFFFFFFFF DUP2 GT ISZERO PUSH2 0x2536 JUMPI PUSH2 0x2536 PUSH2 0x22ED JUMP JUMPDEST PUSH2 0x254A DUP2 PUSH2 0x2544 DUP5 SLOAD PUSH2 0x243F JUMP JUMPDEST DUP5 PUSH2 0x24D8 JUMP JUMPDEST PUSH1 0x20 PUSH1 0x1F DUP3 GT PUSH1 0x1 DUP2 EQ PUSH2 0x257C JUMPI PUSH0 DUP4 ISZERO PUSH2 0x2565 JUMPI POP DUP5 DUP3 ADD MLOAD JUMPDEST PUSH0 NOT PUSH1 0x3 DUP6 SWAP1 SHL SHR NOT AND PUSH1 0x1 DUP5 SWAP1 SHL OR DUP5 SSTORE PUSH2 0xE27 JUMP JUMPDEST PUSH0 DUP5 DUP2 MSTORE PUSH1 0x20 DUP2 KECCAK256 PUSH1 0x1F NOT DUP6 AND SWAP2 JUMPDEST DUP3 DUP2 LT ISZERO PUSH2 0x25AB JUMPI DUP8 DUP6 ADD MLOAD DUP3 SSTORE PUSH1 0x20 SWAP5 DUP6 ADD SWAP5 PUSH1 0x1 SWAP1 SWAP3 ADD SWAP2 ADD PUSH2 0x258B JUMP JUMPDEST POP DUP5 DUP3 LT ISZERO PUSH2 0x25C8 JUMPI DUP7 DUP5 ADD MLOAD PUSH0 NOT PUSH1 0x3 DUP8 SWAP1 SHL PUSH1 0xF8 AND SHR NOT AND DUP2 SSTORE JUMPDEST POP POP POP POP PUSH1 0x1 SWAP1 DUP2 SHL ADD SWAP1 SSTORE POP JUMP JUMPDEST DUP5 DUP2 MSTORE PUSH1 0x80 PUSH1 0x20 DUP3 ADD MSTORE PUSH0 PUSH2 0x25EF PUSH1 0x80 DUP4 ADD DUP7 PUSH2 0x21A1 JUMP JUMPDEST PUSH1 0x1 PUSH1 0x1 PUSH1 0xA0 SHL SUB SWAP5 SWAP1 SWAP5 AND PUSH1 0x40 DUP4 ADD MSTORE POP PUSH1 0x60 ADD MSTORE SWAP3 SWAP2 POP POP JUMP JUMPDEST DUP2 DUP2 SUB DUP2 DUP2 GT ISZERO PUSH2 0xE55 JUMPI PUSH2 0xE55 PUSH2 0x2401 JUMP JUMPDEST PUSH0 DUP3 PUSH2 0x2638 JUMPI PUSH4 0x4E487B71 PUSH1 0xE0 SHL PUSH0 MSTORE PUSH1 0x12 PUSH1 0x4 MSTORE PUSH1 0x24 PUSH0 REVERT JUMPDEST POP MOD SWAP1 JUMP INVALID LOG2 PUSH5 0x6970667358 0x22 SLT KECCAK256 0xCE SSTORE 0xB8 DUP13 MSTORE8 0xBA EXTCODESIZE 0xAD 0xDA PUSH1 0xC9 DUP15 0xFC PUSH19 0xF1C55167E623E5703433E941440307A949AF64 PUSH20 0x6F6C634300081E00330000000000000000000000 "
				},
				"gasEstimates": {
					"creation": {
						"codeDepositCost": "1968600",
						"executionCost": "31322",
						"totalCost": "1999922"
					},
					"external": {
						"achievements(address,uint256)": "infinite",
						"chamaCount()": "2361",
						"chamas(uint256)": "infinite",
						"contributions(uint256,uint256)": "9033",
						"createChama(string,uint256,uint256,uint256)": "infinite",
						"emergencyPayout(uint256,address)": "infinite",
						"getChamaInfo(uint256)": "infinite",
						"getChamaMembers(uint256)": "infinite",
						"getCycleInfo(uint256,uint256)": "7079",
						"getMemberCollateral(uint256,address)": "2731",
						"getMemberPayoutPosition(uint256,address)": "5003",
						"getTotalCollateral(uint256)": "2511",
						"getUserScore(address)": "2623",
						"hasContributedThisCycle(address,uint256)": "2709",
						"hasMemberReceivedPayout(uint256,address)": "10968",
						"isChamaMember(uint256,address)": "2721",
						"isCollateralReturned(uint256,address)": "2778",
						"joinChama(uint256)": "infinite",
						"lastContributionTimestamp(address,uint256)": "2719",
						"owner()": "2425",
						"processMissedContributions(uint256)": "infinite",
						"scores(address)": "2562",
						"stackBTC(uint256)": "infinite",
						"startChama(uint256)": "infinite",
						"updateUserScore(address,uint256)": "26898",
						"userChamas(address,uint256)": "4804",
						"userContributions(address,uint256)": "2742"
					},
					"internal": {
						"_checkCycleCompletion(uint256)": "infinite",
						"_completeChama(uint256)": "infinite",
						"_processCyclePayout(uint256)": "infinite",
						"_resetCycle(uint256)": "infinite",
						"_shuffleMembers(uint256)": "infinite",
						"_startChama(uint256)": "infinite"
					}
				},
				"methodIdentifiers": {
					"achievements(address,uint256)": "bf882e73",
					"chamaCount()": "c087e28b",
					"chamas(uint256)": "0b5d7085",
					"contributions(uint256,uint256)": "830e28f6",
					"createChama(string,uint256,uint256,uint256)": "e69269a6",
					"emergencyPayout(uint256,address)": "0ae2ce89",
					"getChamaInfo(uint256)": "b4bebcfd",
					"getChamaMembers(uint256)": "cb00d3d2",
					"getCycleInfo(uint256,uint256)": "e9ac9d1e",
					"getMemberCollateral(uint256,address)": "826ce785",
					"getMemberPayoutPosition(uint256,address)": "863b6a39",
					"getTotalCollateral(uint256)": "afc737d1",
					"getUserScore(address)": "b34e0c47",
					"hasContributedThisCycle(address,uint256)": "c14a2ae0",
					"hasMemberReceivedPayout(uint256,address)": "9155105f",
					"isChamaMember(uint256,address)": "9db6a08f",
					"isCollateralReturned(uint256,address)": "45f4bc07",
					"joinChama(uint256)": "43533e1d",
					"lastContributionTimestamp(address,uint256)": "8ea3b0de",
					"owner()": "8da5cb5b",
					"processMissedContributions(uint256)": "300e9dae",
					"scores(address)": "76dd110f",
					"stackBTC(uint256)": "9ef4cbcc",
					"startChama(uint256)": "daa6f020",
					"updateUserScore(address,uint256)": "9facefc5",
					"userChamas(address,uint256)": "7d13ee50",
					"userContributions(address,uint256)": "7331fa95"
				}
			},
			"storageLayout": {
				"storage": [
					{
						"astId": 241,
						"contract": "modules/JengaCore.sol:JengaCore",
						"label": "chamas",
						"offset": 0,
						"slot": "0",
						"type": "t_mapping(t_uint256,t_struct(Chama)56_storage)"
					},
					{
						"astId": 245,
						"contract": "modules/JengaCore.sol:JengaCore",
						"label": "scores",
						"offset": 0,
						"slot": "1",
						"type": "t_mapping(t_address,t_uint256)"
					},
					{
						"astId": 250,
						"contract": "modules/JengaCore.sol:JengaCore",
						"label": "achievements",
						"offset": 0,
						"slot": "2",
						"type": "t_mapping(t_address,t_array(t_string_storage)dyn_storage)"
					},
					{
						"astId": 256,
						"contract": "modules/JengaCore.sol:JengaCore",
						"label": "contributions",
						"offset": 0,
						"slot": "3",
						"type": "t_mapping(t_uint256,t_array(t_struct(Contribution)63_storage)dyn_storage)"
					},
					{
						"astId": 261,
						"contract": "modules/JengaCore.sol:JengaCore",
						"label": "userChamas",
						"offset": 0,
						"slot": "4",
						"type": "t_mapping(t_address,t_array(t_uint256)dyn_storage)"
					},
					{
						"astId": 267,
						"contract": "modules/JengaCore.sol:JengaCore",
						"label": "userContributions",
						"offset": 0,
						"slot": "5",
						"type": "t_mapping(t_address,t_mapping(t_uint256,t_uint256))"
					},
					{
						"astId": 273,
						"contract": "modules/JengaCore.sol:JengaCore",
						"label": "lastContributionTimestamp",
						"offset": 0,
						"slot": "6",
						"type": "t_mapping(t_address,t_mapping(t_uint256,t_uint256))"
					},
					{
						"astId": 279,
						"contract": "modules/JengaCore.sol:JengaCore",
						"label": "hasContributedThisCycle",
						"offset": 0,
						"slot": "7",
						"type": "t_mapping(t_address,t_mapping(t_uint256,t_bool))"
					},
					{
						"astId": 282,
						"contract": "modules/JengaCore.sol:JengaCore",
						"label": "chamaCount",
						"offset": 0,
						"slot": "8",
						"type": "t_uint256"
					},
					{
						"astId": 284,
						"contract": "modules/JengaCore.sol:JengaCore",
						"label": "owner",
						"offset": 0,
						"slot": "9",
						"type": "t_address"
					}
				],
				"types": {
					"t_address": {
						"encoding": "inplace",
						"label": "address",
						"numberOfBytes": "20"
					},
					"t_array(t_address)dyn_storage": {
						"base": "t_address",
						"encoding": "dynamic_array",
						"label": "address[]",
						"numberOfBytes": "32"
					},
					"t_array(t_bool)dyn_storage": {
						"base": "t_bool",
						"encoding": "dynamic_array",
						"label": "bool[]",
						"numberOfBytes": "32"
					},
					"t_array(t_string_storage)dyn_storage": {
						"base": "t_string_storage",
						"encoding": "dynamic_array",
						"label": "string[]",
						"numberOfBytes": "32"
					},
					"t_array(t_struct(Contribution)63_storage)dyn_storage": {
						"base": "t_struct(Contribution)63_storage",
						"encoding": "dynamic_array",
						"label": "struct JengaTypes.Contribution[]",
						"numberOfBytes": "32"
					},
					"t_array(t_uint256)dyn_storage": {
						"base": "t_uint256",
						"encoding": "dynamic_array",
						"label": "uint256[]",
						"numberOfBytes": "32"
					},
					"t_bool": {
						"encoding": "inplace",
						"label": "bool",
						"numberOfBytes": "1"
					},
					"t_mapping(t_address,t_array(t_string_storage)dyn_storage)": {
						"encoding": "mapping",
						"key": "t_address",
						"label": "mapping(address => string[])",
						"numberOfBytes": "32",
						"value": "t_array(t_string_storage)dyn_storage"
					},
					"t_mapping(t_address,t_array(t_uint256)dyn_storage)": {
						"encoding": "mapping",
						"key": "t_address",
						"label": "mapping(address => uint256[])",
						"numberOfBytes": "32",
						"value": "t_array(t_uint256)dyn_storage"
					},
					"t_mapping(t_address,t_bool)": {
						"encoding": "mapping",
						"key": "t_address",
						"label": "mapping(address => bool)",
						"numberOfBytes": "32",
						"value": "t_bool"
					},
					"t_mapping(t_address,t_mapping(t_uint256,t_bool))": {
						"encoding": "mapping",
						"key": "t_address",
						"label": "mapping(address => mapping(uint256 => bool))",
						"numberOfBytes": "32",
						"value": "t_mapping(t_uint256,t_bool)"
					},
					"t_mapping(t_address,t_mapping(t_uint256,t_uint256))": {
						"encoding": "mapping",
						"key": "t_address",
						"label": "mapping(address => mapping(uint256 => uint256))",
						"numberOfBytes": "32",
						"value": "t_mapping(t_uint256,t_uint256)"
					},
					"t_mapping(t_address,t_uint256)": {
						"encoding": "mapping",
						"key": "t_address",
						"label": "mapping(address => uint256)",
						"numberOfBytes": "32",
						"value": "t_uint256"
					},
					"t_mapping(t_uint256,t_address)": {
						"encoding": "mapping",
						"key": "t_uint256",
						"label": "mapping(uint256 => address)",
						"numberOfBytes": "32",
						"value": "t_address"
					},
					"t_mapping(t_uint256,t_array(t_struct(Contribution)63_storage)dyn_storage)": {
						"encoding": "mapping",
						"key": "t_uint256",
						"label": "mapping(uint256 => struct JengaTypes.Contribution[])",
						"numberOfBytes": "32",
						"value": "t_array(t_struct(Contribution)63_storage)dyn_storage"
					},
					"t_mapping(t_uint256,t_bool)": {
						"encoding": "mapping",
						"key": "t_uint256",
						"label": "mapping(uint256 => bool)",
						"numberOfBytes": "32",
						"value": "t_bool"
					},
					"t_mapping(t_uint256,t_struct(Chama)56_storage)": {
						"encoding": "mapping",
						"key": "t_uint256",
						"label": "mapping(uint256 => struct JengaTypes.Chama)",
						"numberOfBytes": "32",
						"value": "t_struct(Chama)56_storage"
					},
					"t_mapping(t_uint256,t_uint256)": {
						"encoding": "mapping",
						"key": "t_uint256",
						"label": "mapping(uint256 => uint256)",
						"numberOfBytes": "32",
						"value": "t_uint256"
					},
					"t_string_storage": {
						"encoding": "bytes",
						"label": "string",
						"numberOfBytes": "32"
					},
					"t_struct(Chama)56_storage": {
						"encoding": "inplace",
						"label": "struct JengaTypes.Chama",
						"members": [
							{
								"astId": 3,
								"contract": "modules/JengaCore.sol:JengaCore",
								"label": "name",
								"offset": 0,
								"slot": "0",
								"type": "t_string_storage"
							},
							{
								"astId": 5,
								"contract": "modules/JengaCore.sol:JengaCore",
								"label": "contributionAmount",
								"offset": 0,
								"slot": "1",
								"type": "t_uint256"
							},
							{
								"astId": 7,
								"contract": "modules/JengaCore.sol:JengaCore",
								"label": "cycleDuration",
								"offset": 0,
								"slot": "2",
								"type": "t_uint256"
							},
							{
								"astId": 9,
								"contract": "modules/JengaCore.sol:JengaCore",
								"label": "maxMembers",
								"offset": 0,
								"slot": "3",
								"type": "t_uint256"
							},
							{
								"astId": 12,
								"contract": "modules/JengaCore.sol:JengaCore",
								"label": "members",
								"offset": 0,
								"slot": "4",
								"type": "t_array(t_address)dyn_storage"
							},
							{
								"astId": 14,
								"contract": "modules/JengaCore.sol:JengaCore",
								"label": "active",
								"offset": 0,
								"slot": "5",
								"type": "t_bool"
							},
							{
								"astId": 16,
								"contract": "modules/JengaCore.sol:JengaCore",
								"label": "currentCycle",
								"offset": 0,
								"slot": "6",
								"type": "t_uint256"
							},
							{
								"astId": 18,
								"contract": "modules/JengaCore.sol:JengaCore",
								"label": "currentRecipientIndex",
								"offset": 0,
								"slot": "7",
								"type": "t_uint256"
							},
							{
								"astId": 20,
								"contract": "modules/JengaCore.sol:JengaCore",
								"label": "lastCycleTimestamp",
								"offset": 0,
								"slot": "8",
								"type": "t_uint256"
							},
							{
								"astId": 22,
								"contract": "modules/JengaCore.sol:JengaCore",
								"label": "totalPool",
								"offset": 0,
								"slot": "9",
								"type": "t_uint256"
							},
							{
								"astId": 25,
								"contract": "modules/JengaCore.sol:JengaCore",
								"label": "membersPaid",
								"offset": 0,
								"slot": "10",
								"type": "t_array(t_bool)dyn_storage"
							},
							{
								"astId": 29,
								"contract": "modules/JengaCore.sol:JengaCore",
								"label": "isMember",
								"offset": 0,
								"slot": "11",
								"type": "t_mapping(t_address,t_bool)"
							},
							{
								"astId": 33,
								"contract": "modules/JengaCore.sol:JengaCore",
								"label": "memberIndex",
								"offset": 0,
								"slot": "12",
								"type": "t_mapping(t_address,t_uint256)"
							},
							{
								"astId": 37,
								"contract": "modules/JengaCore.sol:JengaCore",
								"label": "cycleContributions",
								"offset": 0,
								"slot": "13",
								"type": "t_mapping(t_uint256,t_uint256)"
							},
							{
								"astId": 41,
								"contract": "modules/JengaCore.sol:JengaCore",
								"label": "cycleRecipient",
								"offset": 0,
								"slot": "14",
								"type": "t_mapping(t_uint256,t_address)"
							},
							{
								"astId": 45,
								"contract": "modules/JengaCore.sol:JengaCore",
								"label": "cycleCompleted",
								"offset": 0,
								"slot": "15",
								"type": "t_mapping(t_uint256,t_bool)"
							},
							{
								"astId": 49,
								"contract": "modules/JengaCore.sol:JengaCore",
								"label": "memberCollateral",
								"offset": 0,
								"slot": "16",
								"type": "t_mapping(t_address,t_uint256)"
							},
							{
								"astId": 53,
								"contract": "modules/JengaCore.sol:JengaCore",
								"label": "collateralReturned",
								"offset": 0,
								"slot": "17",
								"type": "t_mapping(t_address,t_bool)"
							},
							{
								"astId": 55,
								"contract": "modules/JengaCore.sol:JengaCore",
								"label": "totalCollateral",
								"offset": 0,
								"slot": "18",
								"type": "t_uint256"
							}
						],
						"numberOfBytes": "608"
					},
					"t_struct(Contribution)63_storage": {
						"encoding": "inplace",
						"label": "struct JengaTypes.Contribution",
						"members": [
							{
								"astId": 58,
								"contract": "modules/JengaCore.sol:JengaCore",
								"label": "contributor",
								"offset": 0,
								"slot": "0",
								"type": "t_address"
							},
							{
								"astId": 60,
								"contract": "modules/JengaCore.sol:JengaCore",
								"label": "amount",
								"offset": 0,
								"slot": "1",
								"type": "t_uint256"
							},
							{
								"astId": 62,
								"contract": "modules/JengaCore.sol:JengaCore",
								"label": "timestamp",
								"offset": 0,
								"slot": "2",
								"type": "t_uint256"
							}
						],
						"numberOfBytes": "96"
					},
					"t_uint256": {
						"encoding": "inplace",
						"label": "uint256",
						"numberOfBytes": "32"
					}
				}
			},
			"userdoc": {
				"kind": "user",
				"methods": {},
				"version": 1
			}
		}
	}
}