{
  "_format": "hh-sol-artifact-1",
  "contractName": "MicroSacco",
  "sourceName": "contracts/MicroSacco.sol",
  "abi": [
    {
      "inputs": [
        {
          "internalType": "address",
          "name": "_govToken",
          "type": "address"
        },
        {
          "internalType": "address",
          "name": "_usdc",
          "type": "address"
        }
      ],
      "stateMutability": "nonpayable",
      "type": "constructor"
    },
    {
      "inputs": [],
      "name": "ReentrancyGuardReentrantCall",
      "type": "error"
    },
    {
      "anonymous": false,
      "inputs": [
        {
          "indexed": true,
          "internalType": "address",
          "name": "member",
          "type": "address"
        },
        {
          "indexed": false,
          "internalType": "uint256",
          "name": "amount",
          "type": "uint256"
        }
      ],
      "name": "BigApproved",
      "type": "event"
    },
    {
      "anonymous": false,
      "inputs": [
        {
          "indexed": true,
          "internalType": "address",
          "name": "member",
          "type": "address"
        },
        {
          "indexed": false,
          "internalType": "uint256",
          "name": "usdcAmount",
          "type": "uint256"
        }
      ],
      "name": "BorrowUSDC",
      "type": "event"
    },
    {
      "anonymous": false,
      "inputs": [
        {
          "indexed": true,
          "internalType": "address",
          "name": "member",
          "type": "address"
        },
        {
          "indexed": false,
          "internalType": "uint256",
          "name": "ethAmount",
          "type": "uint256"
        }
      ],
      "name": "DepositETH",
      "type": "event"
    },
    {
      "anonymous": false,
      "inputs": [
        {
          "indexed": true,
          "internalType": "address",
          "name": "member",
          "type": "address"
        },
        {
          "indexed": false,
          "internalType": "uint256",
          "name": "ethFee",
          "type": "uint256"
        }
      ],
      "name": "Joined",
      "type": "event"
    },
    {
      "anonymous": false,
      "inputs": [
        {
          "indexed": true,
          "internalType": "address",
          "name": "member",
          "type": "address"
        },
        {
          "indexed": false,
          "internalType": "uint256",
          "name": "newLimit",
          "type": "uint256"
        }
      ],
      "name": "LimitUp",
      "type": "event"
    },
    {
      "anonymous": false,
      "inputs": [
        {
          "indexed": false,
          "internalType": "int16",
          "name": "delta",
          "type": "int16"
        },
        {
          "indexed": false,
          "internalType": "uint256",
          "name": "newRate",
          "type": "uint256"
        }
      ],
      "name": "RateChange",
      "type": "event"
    },
    {
      "anonymous": false,
      "inputs": [
        {
          "indexed": true,
          "internalType": "address",
          "name": "member",
          "type": "address"
        },
        {
          "indexed": false,
          "internalType": "uint256",
          "name": "usdcAmount",
          "type": "uint256"
        }
      ],
      "name": "RepayUSDC",
      "type": "event"
    },
    {
      "inputs": [],
      "name": "BIG_THRESHOLD",
      "outputs": [
        {
          "internalType": "uint256",
          "name": "",
          "type": "uint256"
        }
      ],
      "stateMutability": "view",
      "type": "function"
    },
    {
      "inputs": [],
      "name": "INIT_RATE_BPS",
      "outputs": [
        {
          "internalType": "uint256",
          "name": "",
          "type": "uint256"
        }
      ],
      "stateMutability": "view",
      "type": "function"
    },
    {
      "inputs": [],
      "name": "JOIN_FEE",
      "outputs": [
        {
          "internalType": "uint256",
          "name": "",
          "type": "uint256"
        }
      ],
      "stateMutability": "view",
      "type": "function"
    },
    {
      "inputs": [],
      "name": "MAX_LTV_BPS",
      "outputs": [
        {
          "internalType": "uint256",
          "name": "",
          "type": "uint256"
        }
      ],
      "stateMutability": "view",
      "type": "function"
    },
    {
      "inputs": [],
      "name": "QUORUM",
      "outputs": [
        {
          "internalType": "uint256",
          "name": "",
          "type": "uint256"
        }
      ],
      "stateMutability": "view",
      "type": "function"
    },
    {
      "inputs": [
        {
          "internalType": "uint256",
          "name": "usdcAmount",
          "type": "uint256"
        }
      ],
      "name": "borrowUSDC",
      "outputs": [],
      "stateMutability": "nonpayable",
      "type": "function"
    },
    {
      "inputs": [],
      "name": "depositETH",
      "outputs": [],
      "stateMutability": "payable",
      "type": "function"
    },
    {
      "inputs": [
        {
          "internalType": "uint256",
          "name": "amt",
          "type": "uint256"
        }
      ],
      "name": "fundTreasury",
      "outputs": [],
      "stateMutability": "nonpayable",
      "type": "function"
    },
    {
      "inputs": [],
      "name": "globalRateBps",
      "outputs": [
        {
          "internalType": "uint256",
          "name": "",
          "type": "uint256"
        }
      ],
      "stateMutability": "view",
      "type": "function"
    },
    {
      "inputs": [],
      "name": "govToken",
      "outputs": [
        {
          "internalType": "contract IERC20",
          "name": "",
          "type": "address"
        }
      ],
      "stateMutability": "view",
      "type": "function"
    },
    {
      "inputs": [],
      "name": "join",
      "outputs": [],
      "stateMutability": "payable",
      "type": "function"
    },
    {
      "inputs": [
        {
          "internalType": "address",
          "name": "a",
          "type": "address"
        }
      ],
      "name": "maxUSDC",
      "outputs": [
        {
          "internalType": "uint256",
          "name": "",
          "type": "uint256"
        }
      ],
      "stateMutability": "view",
      "type": "function"
    },
    {
      "inputs": [
        {
          "internalType": "address",
          "name": "",
          "type": "address"
        }
      ],
      "name": "members",
      "outputs": [
        {
          "internalType": "bool",
          "name": "isMember",
          "type": "bool"
        },
        {
          "internalType": "uint96",
          "name": "ethDeposited",
          "type": "uint96"
        },
        {
          "internalType": "uint96",
          "name": "usdcBorrowed",
          "type": "uint96"
        }
      ],
      "stateMutability": "view",
      "type": "function"
    },
    {
      "inputs": [
        {
          "internalType": "uint256",
          "name": "usdcAmount",
          "type": "uint256"
        }
      ],
      "name": "repayUSDC",
      "outputs": [],
      "stateMutability": "nonpayable",
      "type": "function"
    },
    {
      "inputs": [
        {
          "internalType": "address",
          "name": "a",
          "type": "address"
        }
      ],
      "name": "totalUSDCOwed",
      "outputs": [
        {
          "internalType": "uint256",
          "name": "",
          "type": "uint256"
        }
      ],
      "stateMutability": "view",
      "type": "function"
    },
    {
      "inputs": [],
      "name": "treasuryUSDC",
      "outputs": [
        {
          "internalType": "uint256",
          "name": "",
          "type": "uint256"
        }
      ],
      "stateMutability": "view",
      "type": "function"
    },
    {
      "inputs": [],
      "name": "usdc",
      "outputs": [
        {
          "internalType": "contract IERC20",
          "name": "",
          "type": "address"
        }
      ],
      "stateMutability": "view",
      "type": "function"
    },
    {
      "inputs": [
        {
          "internalType": "bytes32",
          "name": "key",
          "type": "bytes32"
        },
        {
          "internalType": "bool",
          "name": "yes",
          "type": "bool"
        }
      ],
      "name": "vote",
      "outputs": [],
      "stateMutability": "nonpayable",
      "type": "function"
    },
    {
      "inputs": [
        {
          "internalType": "uint256",
          "name": "ethAmount",
          "type": "uint256"
        }
      ],
      "name": "withdrawETH",
      "outputs": [],
      "stateMutability": "nonpayable",
      "type": "function"
    },
    {
      "stateMutability": "payable",
      "type": "receive"
    }
  ],
  "bytecode": "0x60c060405234801561001057600080fd5b5060405161134d38038061134d83398101604081905261002f9161006f565b600160008190556001600160a01b03928316608052911660a0526104b090556100a2565b80516001600160a01b038116811461006a57600080fd5b919050565b6000806040838503121561008257600080fd5b61008b83610053565b915061009960208401610053565b90509250929050565b60805160a05161126a6100e3600039600081816102f70152818161055d0152818161068f015281816108460152610f91015260006101e6015261126a6000f3fe6080604052600436106101185760003560e01c80639f2ce678116100a0578063f14210a611610064578063f14210a6146103f2578063f4f8c84714610412578063f537050f14610428578063f6326fb314610441578063f6471f4b1461044957600080fd5b80639f2ce6781461036f578063b688a3631461038f578063bc6a8e6914610397578063c0b226dc146103b7578063d753dc0c146103d257600080fd5b80632e80d9b6116100e75780632e80d9b6146102d05780633e413bee146102e55780635547c6e6146103195780637a9fe9ff1461032f5780639236a51d1461034f57600080fd5b806305268cff146101d457806308ae4b0c146102255780630f913115146102965780631bfaae1d146102ba57600080fd5b366101cf573360009081526003602052604090205460ff16156101cd57336000908152600360205260409020805434919060019061016590849061010090046001600160601b031661107c565b92506101000a8154816001600160601b0302191690836001600160601b03160217905550336001600160a01b03167fced5d8bf10823804603bba066e4f53aa6e8f6f4be68bf0114cf7a0e52183e4e9346040516101c491815260200190565b60405180910390a25b005b600080fd5b3480156101e057600080fd5b506102087f000000000000000000000000000000000000000000000000000000000000000081565b6040516001600160a01b0390911681526020015b60405180910390f35b34801561023157600080fd5b5061026f6102403660046110a3565b60036020526000908152604090205460ff8116906001600160601b036101008204811691600160681b90041683565b6040805193151584526001600160601b03928316602085015291169082015260600161021c565b3480156102a257600080fd5b506102ac60025481565b60405190815260200161021c565b3480156102c657600080fd5b506102ac61177081565b3480156102dc57600080fd5b506102ac600381565b3480156102f157600080fd5b506102087f000000000000000000000000000000000000000000000000000000000000000081565b34801561032557600080fd5b506102ac6104b081565b34801561033b57600080fd5b506101cd61034a3660046110d3565b610469565b34801561035b57600080fd5b506101cd61036a3660046110d3565b61075b565b34801561037b57600080fd5b506101cd61038a3660046110fa565b610976565b6101cd6109a9565b3480156103a357600080fd5b506102ac6103b23660046110a3565b610aa1565b3480156103c357600080fd5b506102ac662386f26fc1000081565b3480156103de57600080fd5b506102ac6103ed3660046110a3565b610b34565b3480156103fe57600080fd5b506101cd61040d3660046110d3565b610bee565b34801561041e57600080fd5b506102ac60015481565b34801561043457600080fd5b506102ac6402540be40081565b6101cd610e2b565b34801561045557600080fd5b506101cd6104643660046110d3565b610f2c565b3360009081526003602052604090205460ff166104a15760405162461bcd60e51b81526004016104989061112a565b60405180910390fd5b6104a961103c565b600081116104ee5760405162461bcd60e51b815260206004820152601260248201527143616e6e6f7420626f72726f77207a65726f60701b6044820152606401610498565b6104f733610b34565b8111156105465760405162461bcd60e51b815260206004820152601760248201527f4578636565647320626f72726f77696e67206c696d69740000000000000000006044820152606401610498565b6040516370a0823160e01b815230600482015281907f00000000000000000000000000000000000000000000000000000000000000006001600160a01b0316906370a0823190602401602060405180830381865afa1580156105ac573d6000803e3d6000fd5b505050506040513d601f19601f820116820180604052508101906105d09190611150565b10156106165760405162461bcd60e51b8152602060048201526015602482015274496e73756666696369656e7420747265617375727960581b6044820152606401610498565b3360009081526003602052604090208054829190600d90610648908490600160681b90046001600160601b031661107c565b82546001600160601b039182166101009390930a92830291909202199091161790555060405163a9059cbb60e01b8152336004820152602481018290526001600160a01b037f0000000000000000000000000000000000000000000000000000000000000000169063a9059cbb906044016020604051808303816000875af11580156106d8573d6000803e3d6000fd5b505050506040513d601f19601f820116820180604052508101906106fc9190611169565b6107185760405162461bcd60e51b815260040161049890611186565b60405181815233907f0eb9c34d34198a3c7869c2ee7d54066cbc8798a2c8a7227c415e15eee85a8abb906020015b60405180910390a26107586001600055565b50565b3360009081526003602052604090205460ff1661078a5760405162461bcd60e51b81526004016104989061112a565b61079261103c565b600081116107d65760405162461bcd60e51b815260206004820152601160248201527043616e6e6f74207265706179207a65726f60781b6044820152606401610498565b6107df33610aa1565b8111156108245760405162461bcd60e51b8152602060048201526013602482015272115e18d959591cc81bddd95908185b5bdd5b9d606a1b6044820152606401610498565b6040516323b872dd60e01b8152336004820152306024820152604481018290527f00000000000000000000000000000000000000000000000000000000000000006001600160a01b0316906323b872dd906064016020604051808303816000875af1158015610897573d6000803e3d6000fd5b505050506040513d601f19601f820116820180604052508101906108bb9190611169565b6108d75760405162461bcd60e51b815260040161049890611186565b3360009081526003602052604090208054829190600d90610909908490600160681b90046001600160601b03166111af565b92506101000a8154816001600160601b0302191690836001600160601b03160217905550806002600082825461093f91906111cf565b909155505060405181815233907f25384730156f33cc4feb54d0f66a665c289760ad997314bf888de5d9b970914f90602001610746565b3360009081526003602052604090205460ff166109a55760405162461bcd60e51b81526004016104989061112a565b5050565b662386f26fc100003410156109f85760405162461bcd60e51b8152602060048201526015602482015274496e73756666696369656e74206a6f696e2066656560581b6044820152606401610498565b3360009081526003602052604090205460ff1615610a4b5760405162461bcd60e51b815260206004820152601060248201526f20b63932b0b23c90309036b2b6b132b960811b6044820152606401610498565b3360008181526003602052604090819020805460ff19166001179055517f49f8fa5eee2e3f21251c2e968640dcaef35cb9332429eb059bb3cd56ddc2533d90610a979034815260200190565b60405180910390a2565b6001600160a01b03811660009081526003602052604081205460ff16610ac957506000919050565b6001600160a01b038216600090815260036020526040812054600160681b90046001600160601b031690819003610b035750600092915050565b600061271060015483610b1691906111e8565b610b2091906111ff565b9050610b2c81836111cf565b949350505050565b6001600160a01b03811660009081526003602052604081205460ff16610b5c57506000919050565b6001600160a01b03821660009081526003602052604081205461010090046001600160601b031690612710610b93611770846111e8565b610b9d91906111ff565b6001600160a01b038516600090815260036020526040902054909150600160681b90046001600160601b0316808211610bdb57506000949350505050565b610be58183611221565b95945050505050565b3360009081526003602052604090205460ff16610c1d5760405162461bcd60e51b81526004016104989061112a565b610c2561103c565b60008111610c6c5760405162461bcd60e51b815260206004820152601460248201527343616e6e6f74207769746864726177207a65726f60601b6044820152606401610498565b3360009081526003602052604090205461010090046001600160601b0316811115610cd95760405162461bcd60e51b815260206004820152601760248201527f496e73756666696369656e7420636f6c6c61746572616c0000000000000000006044820152606401610498565b33600090815260036020526040812054610d0290839061010090046001600160601b0316611221565b90506000612710610d15611770846111e8565b610d1f91906111ff565b33600090815260036020526040902054909150600160681b90046001600160601b0316811015610d915760405162461bcd60e51b815260206004820152601d60248201527f576f756c642065786365656420636f6c6c61746572616c20726174696f0000006044820152606401610498565b3360009081526003602052604090208054849190600190610dc190849061010090046001600160601b03166111af565b92506101000a8154816001600160601b0302191690836001600160601b03160217905550336001600160a01b03166108fc849081150290604051600060405180830381858888f19350505050158015610e1e573d6000803e3d6000fd5b5050506107586001600055565b3360009081526003602052604090205460ff16610e5a5760405162461bcd60e51b81526004016104989061112a565b60003411610e9d5760405162461bcd60e51b815260206004820152601060248201526f09aeae6e840c8cae0dee6d2e8408aa8960831b6044820152606401610498565b3360009081526003602052604090208054349190600190610ecd90849061010090046001600160601b031661107c565b92506101000a8154816001600160601b0302191690836001600160601b03160217905550336001600160a01b03167fced5d8bf10823804603bba066e4f53aa6e8f6f4be68bf0114cf7a0e52183e4e934604051610a9791815260200190565b60008111610f6f5760405162461bcd60e51b815260206004820152601060248201526f43616e6e6f742066756e64207a65726f60801b6044820152606401610498565b6040516323b872dd60e01b8152336004820152306024820152604481018290527f00000000000000000000000000000000000000000000000000000000000000006001600160a01b0316906323b872dd906064016020604051808303816000875af1158015610fe2573d6000803e3d6000fd5b505050506040513d601f19601f820116820180604052508101906110069190611169565b6110225760405162461bcd60e51b815260040161049890611186565b806002600082825461103491906111cf565b909155505050565b60026000540361105f57604051633ee5aeb560e01b815260040160405180910390fd5b6002600055565b634e487b7160e01b600052601160045260246000fd5b6001600160601b0381811683821601908082111561109c5761109c611066565b5092915050565b6000602082840312156110b557600080fd5b81356001600160a01b03811681146110cc57600080fd5b9392505050565b6000602082840312156110e557600080fd5b5035919050565b801515811461075857600080fd5b6000806040838503121561110d57600080fd5b82359150602083013561111f816110ec565b809150509250929050565b6020808252600c908201526b2737ba10309036b2b6b132b960a11b604082015260600190565b60006020828403121561116257600080fd5b5051919050565b60006020828403121561117b57600080fd5b81516110cc816110ec565b6020808252600f908201526e151c985b9cd9995c8819985a5b1959608a1b604082015260600190565b6001600160601b0382811682821603908082111561109c5761109c611066565b808201808211156111e2576111e2611066565b92915050565b80820281158282048414176111e2576111e2611066565b60008261121c57634e487b7160e01b600052601260045260246000fd5b500490565b818103818111156111e2576111e261106656fea264697066735822122077be55520029aff3066ca6265102df273c208208ab88574ec434f94f4b1bab9264736f6c63430008140033",
  "linkReferences": {},
  "deployedLinkReferences": {}
}