{
  "_format": "hh-sol-artifact-1",
  "contractName": "ROSCAFactory",
  "sourceName": "contracts/ROSCAFactory.sol",
  "abi": [
    {
      "inputs": [],
      "stateMutability": "nonpayable",
      "type": "constructor"
    },
    {
      "inputs": [
        {
          "internalType": "address",
          "name": "owner",
          "type": "address"
        }
      ],
      "name": "OwnableInvalidOwner",
      "type": "error"
    },
    {
      "inputs": [
        {
          "internalType": "address",
          "name": "account",
          "type": "address"
        }
      ],
      "name": "OwnableUnauthorizedAccount",
      "type": "error"
    },
    {
      "inputs": [],
      "name": "ReentrancyGuardReentrantCall",
      "type": "error"
    },
    {
      "anonymous": false,
      "inputs": [
        {
          "indexed": false,
          "internalType": "uint256",
          "name": "oldFee",
          "type": "uint256"
        },
        {
          "indexed": false,
          "internalType": "uint256",
          "name": "newFee",
          "type": "uint256"
        }
      ],
      "name": "CreationFeeUpdated",
      "type": "event"
    },
    {
      "anonymous": false,
      "inputs": [
        {
          "indexed": true,
          "internalType": "address",
          "name": "previousOwner",
          "type": "address"
        },
        {
          "indexed": true,
          "internalType": "address",
          "name": "newOwner",
          "type": "address"
        }
      ],
      "name": "OwnershipTransferred",
      "type": "event"
    },
    {
      "anonymous": false,
      "inputs": [
        {
          "indexed": true,
          "internalType": "uint256",
          "name": "roscaId",
          "type": "uint256"
        },
        {
          "indexed": true,
          "internalType": "address",
          "name": "creator",
          "type": "address"
        },
        {
          "indexed": true,
          "internalType": "address",
          "name": "roscaAddress",
          "type": "address"
        },
        {
          "indexed": false,
          "internalType": "string",
          "name": "name",
          "type": "string"
        },
        {
          "indexed": false,
          "internalType": "address",
          "name": "token",
          "type": "address"
        },
        {
          "indexed": false,
          "internalType": "uint256",
          "name": "contributionAmount",
          "type": "uint256"
        },
        {
          "indexed": false,
          "internalType": "uint256",
          "name": "maxMembers",
          "type": "uint256"
        }
      ],
      "name": "ROSCACreated",
      "type": "event"
    },
    {
      "anonymous": false,
      "inputs": [
        {
          "indexed": true,
          "internalType": "uint256",
          "name": "roscaId",
          "type": "uint256"
        },
        {
          "indexed": false,
          "internalType": "string",
          "name": "reason",
          "type": "string"
        }
      ],
      "name": "ROSCADeactivated",
      "type": "event"
    },
    {
      "inputs": [
        {
          "internalType": "uint256",
          "name": "_contributionAmount",
          "type": "uint256"
        },
        {
          "internalType": "uint256",
          "name": "_roundDuration",
          "type": "uint256"
        },
        {
          "internalType": "uint256",
          "name": "_maxMembers",
          "type": "uint256"
        },
        {
          "internalType": "string",
          "name": "_roscaName",
          "type": "string"
        }
      ],
      "name": "createROSCA",
      "outputs": [
        {
          "internalType": "address",
          "name": "",
          "type": "address"
        }
      ],
      "stateMutability": "payable",
      "type": "function"
    },
    {
      "inputs": [],
      "name": "creationFee",
      "outputs": [
        {
          "internalType": "uint256",
          "name": "",
          "type": "uint256"
        }
      ],
      "stateMutability": "view",
      "type": "function"
    },
    {
      "inputs": [
        {
          "internalType": "uint256",
          "name": "_roscaId",
          "type": "uint256"
        },
        {
          "internalType": "string",
          "name": "_reason",
          "type": "string"
        }
      ],
      "name": "deactivateROSCA",
      "outputs": [],
      "stateMutability": "nonpayable",
      "type": "function"
    },
    {
      "inputs": [
        {
          "internalType": "uint256",
          "name": "",
          "type": "uint256"
        }
      ],
      "name": "deployedROSCAs",
      "outputs": [
        {
          "internalType": "address",
          "name": "roscaAddress",
          "type": "address"
        },
        {
          "internalType": "address",
          "name": "creator",
          "type": "address"
        },
        {
          "internalType": "uint256",
          "name": "creationTime",
          "type": "uint256"
        },
        {
          "internalType": "string",
          "name": "name",
          "type": "string"
        },
        {
          "internalType": "uint256",
          "name": "contributionAmount",
          "type": "uint256"
        },
        {
          "internalType": "uint256",
          "name": "maxMembers",
          "type": "uint256"
        },
        {
          "internalType": "bool",
          "name": "isActive",
          "type": "bool"
        }
      ],
      "stateMutability": "view",
      "type": "function"
    },
    {
      "inputs": [],
      "name": "emergencyWithdraw",
      "outputs": [],
      "stateMutability": "nonpayable",
      "type": "function"
    },
    {
      "inputs": [],
      "name": "feeCollector",
      "outputs": [
        {
          "internalType": "address",
          "name": "",
          "type": "address"
        }
      ],
      "stateMutability": "view",
      "type": "function"
    },
    {
      "inputs": [],
      "name": "getActiveROSCACount",
      "outputs": [
        {
          "internalType": "uint256",
          "name": "",
          "type": "uint256"
        }
      ],
      "stateMutability": "view",
      "type": "function"
    },
    {
      "inputs": [],
      "name": "getAllActiveROSCAs",
      "outputs": [
        {
          "internalType": "uint256[]",
          "name": "ids",
          "type": "uint256[]"
        },
        {
          "internalType": "address[]",
          "name": "addresses",
          "type": "address[]"
        },
        {
          "internalType": "string[]",
          "name": "names",
          "type": "string[]"
        },
        {
          "internalType": "address[]",
          "name": "creators",
          "type": "address[]"
        },
        {
          "internalType": "uint256[]",
          "name": "creationTimes",
          "type": "uint256[]"
        }
      ],
      "stateMutability": "view",
      "type": "function"
    },
    {
      "inputs": [],
      "name": "getFactoryStats",
      "outputs": [
        {
          "internalType": "uint256",
          "name": "totalCreated",
          "type": "uint256"
        },
        {
          "internalType": "uint256",
          "name": "activeCount",
          "type": "uint256"
        },
        {
          "internalType": "uint256",
          "name": "creationFeeAmount",
          "type": "uint256"
        }
      ],
      "stateMutability": "view",
      "type": "function"
    },
    {
      "inputs": [
        {
          "internalType": "uint256",
          "name": "_roscaId",
          "type": "uint256"
        }
      ],
      "name": "getROSCADetails",
      "outputs": [
        {
          "internalType": "address",
          "name": "roscaAddress",
          "type": "address"
        },
        {
          "internalType": "address",
          "name": "creator",
          "type": "address"
        },
        {
          "internalType": "uint256",
          "name": "creationTime",
          "type": "uint256"
        },
        {
          "internalType": "string",
          "name": "name",
          "type": "string"
        },
        {
          "internalType": "uint256",
          "name": "contributionAmount",
          "type": "uint256"
        },
        {
          "internalType": "uint256",
          "name": "maxMembers",
          "type": "uint256"
        },
        {
          "internalType": "bool",
          "name": "isActive",
          "type": "bool"
        }
      ],
      "stateMutability": "view",
      "type": "function"
    },
    {
      "inputs": [
        {
          "internalType": "address",
          "name": "_user",
          "type": "address"
        }
      ],
      "name": "getUserROSCAs",
      "outputs": [
        {
          "internalType": "uint256[]",
          "name": "",
          "type": "uint256[]"
        }
      ],
      "stateMutability": "view",
      "type": "function"
    },
    {
      "inputs": [],
      "name": "owner",
      "outputs": [
        {
          "internalType": "address",
          "name": "",
          "type": "address"
        }
      ],
      "stateMutability": "view",
      "type": "function"
    },
    {
      "inputs": [],
      "name": "renounceOwnership",
      "outputs": [],
      "stateMutability": "nonpayable",
      "type": "function"
    },
    {
      "inputs": [
        {
          "internalType": "string",
          "name": "searchTerm",
          "type": "string"
        }
      ],
      "name": "searchROSCAsByName",
      "outputs": [
        {
          "internalType": "uint256[]",
          "name": "matchingIds",
          "type": "uint256[]"
        },
        {
          "internalType": "address[]",
          "name": "matchingAddresses",
          "type": "address[]"
        },
        {
          "internalType": "string[]",
          "name": "matchingNames",
          "type": "string[]"
        }
      ],
      "stateMutability": "view",
      "type": "function"
    },
    {
      "inputs": [],
      "name": "totalROSCAsCreated",
      "outputs": [
        {
          "internalType": "uint256",
          "name": "",
          "type": "uint256"
        }
      ],
      "stateMutability": "view",
      "type": "function"
    },
    {
      "inputs": [
        {
          "internalType": "address",
          "name": "newOwner",
          "type": "address"
        }
      ],
      "name": "transferOwnership",
      "outputs": [],
      "stateMutability": "nonpayable",
      "type": "function"
    },
    {
      "inputs": [
        {
          "internalType": "uint256",
          "name": "_newFee",
          "type": "uint256"
        }
      ],
      "name": "updateCreationFee",
      "outputs": [],
      "stateMutability": "nonpayable",
      "type": "function"
    },
    {
      "inputs": [
        {
          "internalType": "address",
          "name": "_newFeeCollector",
          "type": "address"
        }
      ],
      "name": "updateFeeCollector",
      "outputs": [],
      "stateMutability": "nonpayable",
      "type": "function"
    },
    {
      "inputs": [
        {
          "internalType": "address",
          "name": "",
          "type": "address"
        },
        {
          "internalType": "uint256",
          "name": "",
          "type": "uint256"
        }
      ],
      "name": "userROSCAs",
      "outputs": [
        {
          "internalType": "uint256",
          "name": "",
          "type": "uint256"
        }
      ],
      "stateMutability": "view",
      "type": "function"
    },
    {
      "stateMutability": "payable",
      "type": "receive"
    }
  ],
  "bytecode": "0x608060405266038d7ea4c6800060055534801561001b57600080fd5b50338061004257604051631e4fbdf760e01b81526000600482015260240160405180910390fd5b61004b81610067565b5060018055600680546001600160a01b031916331790556100b7565b600080546001600160a01b038381166001600160a01b0319831681178455604051919092169283917f8be0079c531659141344cd1fd0a4f28419497f9722a3daafe3b4186f6b6457e09190a35050565b61499380620000c76000396000f3fe6080604052600436106200012f5760003560e01c8063afdd4f3911620000ad578063db2e21bc116200006c578063db2e21bc146200038f578063db76d53314620003a7578063dce0b4e414620003bf578063dfc5b7db14620003d7578063f2fde38b14620003fc57600080fd5b8063afdd4f3914620002c4578063c415b95c14620002ef578063c603e9731462000311578063c92264451462000336578063d2c35ce8146200036a57600080fd5b80636fa2379511620000fa5780636fa23795146200020a578063715018a614620002315780638da5cb5b1462000249578063900a2c711462000269578063ac9aaa2a146200029f57600080fd5b8063207eba99146200013c5780632b4e4dec14620001795780633173dab714620001a95780636859dd6e14620001e357600080fd5b366200013757005b600080fd5b3480156200014957600080fd5b50620001616200015b36600462001950565b62000421565b604051620001709190620019b2565b60405180910390f35b620001906200018a36600462001a71565b6200048f565b6040516001600160a01b03909116815260200162000170565b348015620001b657600080fd5b50620001ce620001c836600462001ace565b62000926565b60405162000170979695949392919062001b30565b348015620001f057600080fd5b50620001fb60025481565b60405190815260200162000170565b3480156200021757600080fd5b506200022f6200022936600462001ace565b62000a2c565b005b3480156200023e57600080fd5b506200022f62000a7b565b3480156200025657600080fd5b506000546001600160a01b031662000190565b3480156200027657600080fd5b506200028e6200028836600462001b86565b62000a93565b604051620001709392919062001c52565b348015620002ac57600080fd5b50620001ce620002be36600462001ace565b62000f1b565b348015620002d157600080fd5b50620002dc62000ffa565b6040516200017095949392919062001c9b565b348015620002fc57600080fd5b5060065462000190906001600160a01b031681565b3480156200031e57600080fd5b50620001fb6200033036600462001d12565b62001395565b3480156200034357600080fd5b506200034e620013c7565b6040805193845260208401929092529082015260600162000170565b3480156200037757600080fd5b506200022f6200038936600462001950565b620013e7565b3480156200039c57600080fd5b506200022f62001463565b348015620003b457600080fd5b50620001fb62001521565b348015620003cc57600080fd5b50620001fb60055481565b348015620003e457600080fd5b506200022f620003f636600462001d3f565b62001577565b3480156200040957600080fd5b506200022f6200041b36600462001950565b62001685565b6001600160a01b0381166000908152600460209081526040918290208054835181840281018401909452808452606093928301828280156200048357602002820191906000526020600020905b8154815260200190600101908083116200046e575b50505050509050919050565b60006200049b620016c6565b600554341015620004f35760405162461bcd60e51b815260206004820152601960248201527f496e73756666696369656e74206372656174696f6e206665650000000000000060448201526064015b60405180910390fd5b6002831015620005465760405162461bcd60e51b815260206004820152601760248201527f4e656564206174206c656173742032206d656d626572730000000000000000006044820152606401620004ea565b620151808410156200059b5760405162461bcd60e51b815260206004820152601860248201527f526f756e64206475726174696f6e20746f6f2073686f727400000000000000006044820152606401620004ea565b60008511620005ed5760405162461bcd60e51b815260206004820152601f60248201527f436f6e747269627574696f6e20616d6f756e74206d757374206265203e2030006044820152606401620004ea565b6000825111620006405760405162461bcd60e51b815260206004820152601a60248201527f524f534341206e616d652063616e6e6f7420626520656d7074790000000000006044820152606401620004ea565b6032825111156200068a5760405162461bcd60e51b8152602060048201526013602482015272524f534341206e616d6520746f6f206c6f6e6760681b6044820152606401620004ea565b600085858533866040516200069f9062001925565b620006af95949392919062001dbf565b604051809103906000f080158015620006cc573d6000803e3d6000fd5b5060028054919250829160009182620006e58362001e15565b9190505590506040518060e00160405280836001600160a01b03168152602001336001600160a01b03168152602001428152602001868152602001898152602001878152602001600115158152506003600083815260200190815260200160002060008201518160000160006101000a8154816001600160a01b0302191690836001600160a01b0316021790555060208201518160010160006101000a8154816001600160a01b0302191690836001600160a01b03160217905550604082015181600201556060820151816003019081620007c1919062001eba565b50608082015160048281019190915560a0830151600583015560c0909201516006909101805460ff19169115159190911790553360009081526020918252604081208054600181018255908252919020018190553415620008bb576006546040516000916001600160a01b03169034908381818185875af1925050503d80600081146200086b576040519150601f19603f3d011682016040523d82523d6000602084013e62000870565b606091505b5050905080620008b95760405162461bcd60e51b8152602060048201526013602482015272119959481d1c985b9cd9995c8819985a5b1959606a1b6044820152606401620004ea565b505b816001600160a01b0316336001600160a01b0316827f1b1b671cffa95fbc16baba6325184278f6c7cf89547ade16bfed77418756cfc28860008d8c60405162000908949392919062001f86565b60405180910390a4509150506200091e60018055565b949350505050565b600081815260036020819052604082208054600182015460028301546004840154600585015460068601549686018054899889986060988a988998899893976001600160a01b03938416979390921695909492939260ff169084906200098c9062001e31565b80601f0160208091040260200160405190810160405280929190818152602001828054620009ba9062001e31565b801562000a0b5780601f10620009df5761010080835404028352916020019162000a0b565b820191906000526020600020905b815481529060010190602001808311620009ed57829003601f168201915b50505050509350975097509750975097509750975050919395979092949650565b62000a36620016f1565b600580549082905560408051828152602081018490527f5de302eeb1c80d4fb0c0953b692353f09ddf431411b8eb2034d5e85769561912910160405180910390a15050565b62000a85620016f1565b62000a91600062001720565b565b6060806060600084511162000aeb5760405162461bcd60e51b815260206004820152601b60248201527f536561726368207465726d2063616e6e6f7420626520656d70747900000000006044820152606401620004ea565b6000805b60025481101562000bf45760008181526003602052604090206006015460ff16801562000bc9575062000bc960036000838152602001908152602001600020600301805462000b3e9062001e31565b80601f016020809104026020016040519081016040528092919081815260200182805462000b6c9062001e31565b801562000bbd5780601f1062000b915761010080835404028352916020019162000bbd565b820191906000526020600020905b81548152906001019060200180831162000b9f57829003601f168201915b50505050508762001770565b1562000bdf578162000bdb8162001e15565b9250505b8062000beb8162001e15565b91505062000aef565b50806001600160401b0381111562000c105762000c10620019c7565b60405190808252806020026020018201604052801562000c3a578160200160208202803683370190505b509350806001600160401b0381111562000c585762000c58620019c7565b60405190808252806020026020018201604052801562000c82578160200160208202803683370190505b509250806001600160401b0381111562000ca05762000ca0620019c7565b60405190808252806020026020018201604052801562000cd557816020015b606081526020019060019003908162000cbf5790505b5091506000805b60025481101562000f115760008181526003602052604090206006015460ff16801562000db6575062000db660036000838152602001908152602001600020600301805462000d2b9062001e31565b80601f016020809104026020016040519081016040528092919081815260200182805462000d599062001e31565b801562000daa5780601f1062000d7e5761010080835404028352916020019162000daa565b820191906000526020600020905b81548152906001019060200180831162000d8c57829003601f168201915b50505050508862001770565b1562000efc578086838151811062000dd25762000dd262001fc0565b60209081029190910181019190915260008281526003909152604090205485516001600160a01b039091169086908490811062000e135762000e1362001fc0565b6001600160a01b0390921660209283029190910182015260008281526003918290526040902001805462000e479062001e31565b80601f016020809104026020016040519081016040528092919081815260200182805462000e759062001e31565b801562000ec65780601f1062000e9a5761010080835404028352916020019162000ec6565b820191906000526020600020905b81548152906001019060200180831162000ea857829003601f168201915b505050505084838151811062000ee05762000ee062001fc0565b6020026020010181905250818062000ef89062001e15565b9250505b8062000f088162001e15565b91505062000cdc565b5050509193909250565b600360208190526000918252604090912080546001820154600283015493830180546001600160a01b039384169593909216939162000f5a9062001e31565b80601f016020809104026020016040519081016040528092919081815260200182805462000f889062001e31565b801562000fd95780601f1062000fad5761010080835404028352916020019162000fd9565b820191906000526020600020905b81548152906001019060200180831162000fbb57829003601f168201915b50505050600483015460058401546006909401549293909290915060ff1687565b606080606080606060006200100e62001521565b9050806001600160401b038111156200102b576200102b620019c7565b60405190808252806020026020018201604052801562001055578160200160208202803683370190505b509550806001600160401b03811115620010735762001073620019c7565b6040519080825280602002602001820160405280156200109d578160200160208202803683370190505b509450806001600160401b03811115620010bb57620010bb620019c7565b604051908082528060200260200182016040528015620010f057816020015b6060815260200190600190039081620010da5790505b509350806001600160401b038111156200110e576200110e620019c7565b60405190808252806020026020018201604052801562001138578160200160208202803683370190505b509250806001600160401b03811115620011565762001156620019c7565b60405190808252806020026020018201604052801562001180578160200160208202803683370190505b5091506000805b6002548110156200138b5760008181526003602052604090206006015460ff1615620013765780888381518110620011c357620011c362001fc0565b60209081029190910181019190915260008281526003909152604090205487516001600160a01b039091169088908490811062001204576200120462001fc0565b6001600160a01b03909216602092830291909101820152600082815260039182905260409020018054620012389062001e31565b80601f0160208091040260200160405190810160405280929190818152602001828054620012669062001e31565b8015620012b75780601f106200128b57610100808354040283529160200191620012b7565b820191906000526020600020905b8154815290600101906020018083116200129957829003601f168201915b5050505050868381518110620012d157620012d162001fc0565b60200260200101819052506003600082815260200190815260200160002060010160009054906101000a90046001600160a01b03168583815181106200131b576200131b62001fc0565b6001600160a01b0390921660209283029190910182015260008281526003909152604090206002015484518590849081106200135b576200135b62001fc0565b602090810291909101015281620013728162001e15565b9250505b80620013828162001e15565b91505062001187565b5050509091929394565b60046020528160005260406000208181548110620013b257600080fd5b90600052602060002001600091509150505481565b6000806000600254620013d962001521565b600554925092509250909192565b620013f1620016f1565b6001600160a01b038116620014415760405162461bcd60e51b815260206004820152601560248201527424b73b30b634b2103332b29031b7b63632b1ba37b960591b6044820152606401620004ea565b600680546001600160a01b0319166001600160a01b0392909216919091179055565b6200146d620016f1565b4780156200151e57600080546040516001600160a01b039091169083908381818185875af1925050503d8060008114620014c4576040519150601f19603f3d011682016040523d82523d6000602084013e620014c9565b606091505b50509050806200151c5760405162461bcd60e51b815260206004820152601b60248201527f456d657267656e6379207769746864726177616c206661696c656400000000006044820152606401620004ea565b505b50565b600080805b600254811015620015715760008181526003602052604090206006015460ff16156200155c5781620015588162001e15565b9250505b80620015688162001e15565b91505062001526565b50919050565b600083815260036020526040902080546001600160a01b0316620015d05760405162461bcd60e51b815260206004820152600f60248201526e1493d4d0d0481b9bdd08199bdd5b99608a1b6044820152606401620004ea565b60018101546001600160a01b0316331480620015f657506000546001600160a01b031633145b620016355760405162461bcd60e51b815260206004820152600e60248201526d139bdd08185d5d1a1bdc9a5e995960921b6044820152606401620004ea565b60068101805460ff1916905560405184907f7b8e24d7fa66d1672375506b58cb3c85f8a5c107c38d8875a5ab333371254af39062001677908690869062001fd6565b60405180910390a250505050565b6200168f620016f1565b6001600160a01b038116620016bb57604051631e4fbdf760e01b815260006004820152602401620004ea565b6200151e8162001720565b600260015403620016ea57604051633ee5aeb560e01b815260040160405180910390fd5b6002600155565b6000546001600160a01b0316331462000a915760405163118cdaa760e01b8152336004820152602401620004ea565b600080546001600160a01b038381166001600160a01b0319831681178455604051919092169283917f8be0079c531659141344cd1fd0a4f28419497f9722a3daafe3b4186f6b6457e09190a35050565b815181516000918491849110156200178e576000925050506200191f565b8051600003620017a4576001925050506200191f565b60005b81518351620017b7919062002005565b81116200191757600160005b8351811015620018eb57600085620017dc83866200201b565b81518110620017ef57620017ef62001fc0565b602001015160f81c60f81b9050600085838151811062001813576200181362001fc0565b01602001516001600160f81b03199081169150604160f81b908316108015906200184b5750602d60f91b6001600160f81b0319831611155b1562001868576200186260f883901c602062002031565b60f81b91505b604160f81b6001600160f81b0319821610801590620018955750602d60f91b6001600160f81b0319821611155b15620018b257620018ac60f882901c602062002031565b60f81b90505b6001600160f81b031982811690821614620018d357600093505050620018eb565b50508080620018e29062001e15565b915050620017c3565b508015620019015760019450505050506200191f565b50806200190e8162001e15565b915050620017a7565b506000925050505b92915050565b612910806200204e83390190565b80356001600160a01b03811681146200194b57600080fd5b919050565b6000602082840312156200196357600080fd5b6200196e8262001933565b9392505050565b600081518084526020808501945080840160005b83811015620019a75781518752958201959082019060010162001989565b509495945050505050565b6020815260006200196e602083018462001975565b634e487b7160e01b600052604160045260246000fd5b600082601f830112620019ef57600080fd5b81356001600160401b038082111562001a0c5762001a0c620019c7565b604051601f8301601f19908116603f0116810190828211818310171562001a375762001a37620019c7565b8160405283815286602085880101111562001a5157600080fd5b836020870160208301376000602085830101528094505050505092915050565b6000806000806080858703121562001a8857600080fd5b84359350602085013592506040850135915060608501356001600160401b0381111562001ab457600080fd5b62001ac287828801620019dd565b91505092959194509250565b60006020828403121562001ae157600080fd5b5035919050565b6000815180845260005b8181101562001b105760208185018101518683018201520162001af2565b506000602082860101526020601f19601f83011685010191505092915050565b6001600160a01b038881168252871660208201526040810186905260e06060820181905260009062001b659083018762001ae8565b60808301959095525060a0810192909252151560c090910152949350505050565b60006020828403121562001b9957600080fd5b81356001600160401b0381111562001bb057600080fd5b6200091e84828501620019dd565b600081518084526020808501945080840160005b83811015620019a75781516001600160a01b03168752958201959082019060010162001bd2565b600081518084526020808501808196508360051b8101915082860160005b8581101562001c4557828403895262001c3284835162001ae8565b9885019893509084019060010162001c17565b5091979650505050505050565b60608152600062001c67606083018662001975565b828103602084015262001c7b818662001bbe565b9050828103604084015262001c91818562001bf9565b9695505050505050565b60a08152600062001cb060a083018862001975565b828103602084015262001cc4818862001bbe565b9050828103604084015262001cda818762001bf9565b9050828103606084015262001cf0818662001bbe565b9050828103608084015262001d06818562001975565b98975050505050505050565b6000806040838503121562001d2657600080fd5b62001d318362001933565b946020939093013593505050565b60008060006040848603121562001d5557600080fd5b8335925060208401356001600160401b038082111562001d7457600080fd5b818601915086601f83011262001d8957600080fd5b81358181111562001d9957600080fd5b87602082850101111562001dac57600080fd5b6020830194508093505050509250925092565b85815284602082015283604082015260018060a01b038316606082015260a06080820152600062001df460a083018462001ae8565b979650505050505050565b634e487b7160e01b600052601160045260246000fd5b60006001820162001e2a5762001e2a62001dff565b5060010190565b600181811c9082168062001e4657607f821691505b6020821081036200157157634e487b7160e01b600052602260045260246000fd5b601f82111562001eb557600081815260208120601f850160051c8101602086101562001e905750805b601f850160051c820191505b8181101562001eb15782815560010162001e9c565b5050505b505050565b81516001600160401b0381111562001ed65762001ed6620019c7565b62001eee8162001ee7845462001e31565b8462001e67565b602080601f83116001811462001f26576000841562001f0d5750858301515b600019600386901b1c1916600185901b17855562001eb1565b600085815260208120601f198616915b8281101562001f575788860151825594840194600190910190840162001f36565b508582101562001f765787850151600019600388901b60f8161c191681555b5050505050600190811b01905550565b60808152600062001f9b608083018762001ae8565b6001600160a01b03959095166020830152506040810192909252606090910152919050565b634e487b7160e01b600052603260045260246000fd5b60208152816020820152818360408301376000818301604090810191909152601f909201601f19160101919050565b818103818111156200191f576200191f62001dff565b808201808211156200191f576200191f62001dff565b60ff81811683821601908111156200191f576200191f62001dff56fe6080604052600260058190556202a3006006556007556009805461ff00191690556000600a819055600b819055600c8190556012553480156200004157600080fd5b506040516200291038038062002910833981016040819052620000649162000477565b6001600055816001600160a01b0381166200009a57604051631e4fbdf760e01b8152600060048201526024015b60405180910390fd5b620000a581620002d8565b506002831015620000f95760405162461bcd60e51b815260206004820152601760248201527f4e656564206174206c656173742032206d656d62657273000000000000000000604482015260640162000091565b600085116200014b5760405162461bcd60e51b815260206004820152601860248201527f436f6e747269627574696f6e206d757374206265203e20300000000000000000604482015260640162000091565b62015180841015620001925760405162461bcd60e51b815260206004820152600f60248201526e149bdd5b99081d1bdbc81cda1bdc9d608a1b604482015260640162000091565b6001600160a01b038216620001ea5760405162461bcd60e51b815260206004820152601e60248201527f43726561746f722063616e6e6f74206265207a65726f20616464726573730000604482015260640162000091565b60008151116200023d5760405162461bcd60e51b815260206004820152601a60248201527f524f534341206e616d652063616e6e6f7420626520656d707479000000000000604482015260640162000091565b603281511115620002915760405162461bcd60e51b815260206004820152601360248201527f524f534341206e616d6520746f6f206c6f6e6700000000000000000000000000604482015260640162000091565b600285905560038490556004839055600c8390556008620002b382826200061b565b50620002bf826200032a565b50506009805460ff19166001179055506200070f915050565b600180546001600160a01b038381166001600160a01b0319831681179093556040519116919082907f8be0079c531659141344cd1fd0a4f28419497f9722a3daafe3b4186f6b6457e090600090a35050565b604080516101008101825260018082524260208084019182526000848601818152606086018281526080870183815260a0880184815260c0890185815260e08a018681526001600160a01b038d16808852600f9098529a862099518a5490151560ff19918216178b5597518a8a0155935160028a0155915160038901555160048801555160058701555160068601805491151591909416179092559351600790930192909255600e80548083019091557fbb7b4a454dc3493923482f07822329ed19e8244eff582cc204f8554c3620c3fd0180546001600160a01b0319908116851790915560118054928301815583527f31ecc21a745e3968a04e9570e4425bc18fa8019c68028196b546d1669c200c689091018054909116909217909155600b8054916200045983620006e7565b919050555050565b634e487b7160e01b600052604160045260246000fd5b600080600080600060a086880312156200049057600080fd5b8551602080880151604089015160608a01519398509096509450906001600160a01b0381168114620004c157600080fd5b60808801519093506001600160401b0380821115620004df57600080fd5b818901915089601f830112620004f457600080fd5b81518181111562000509576200050962000461565b604051601f8201601f19908116603f0116810190838211818310171562000534576200053462000461565b816040528281528c868487010111156200054d57600080fd5b600093505b8284101562000571578484018601518185018701529285019262000552565b60008684830101528096505050505050509295509295909350565b600181811c90821680620005a157607f821691505b602082108103620005c257634e487b7160e01b600052602260045260246000fd5b50919050565b601f8211156200061657600081815260208120601f850160051c81016020861015620005f15750805b601f850160051c820191505b818110156200061257828155600101620005fd565b5050505b505050565b81516001600160401b0381111562000637576200063762000461565b6200064f816200064884546200058c565b84620005c8565b602080601f8311600181146200068757600084156200066e5750858301515b600019600386901b1c1916600185901b17855562000612565b600085815260208120601f198616915b82811015620006b85788860151825594840194600190910190840162000697565b5085821015620006d75787850151600019600388901b60f8161c191681555b5050505050600190811b01905550565b6000600182016200070857634e487b7160e01b600052601160045260246000fd5b5060010190565b6121f1806200071f6000396000f3fe6080604052600436106101f25760003560e01c80637b6cacf91161010d578063a06db7dc116100a0578063d7bb99ba1161006f578063d7bb99ba146106a8578063f2fde38b146106b0578063f7cb789a146106d0578063fd3a949f146106e6578063ff85fba21461067d57600080fd5b8063a06db7dc14610645578063b3fd65881461065b578063bb9d01a41461067d578063bf4386a01461069257600080fd5b80638a568299116100dc5780638a568299146105585780638be485471461056e5780638c65c81f146105835780638da5cb5b1461062757600080fd5b80637b6cacf91461044c5780637bdb04ec1461048357806388c3ffb0146104a35780638a19c8bc1461054257600080fd5b80633fe071be11610185578063605f808311610154578063605f8083146103f65780636766d1ba1461040c578063715018a61461042157806376e925591461043657600080fd5b80633fe071be146103ad57806358e56db4146103c35780635956fdcd146103d85780635fa0b65f146103e057600080fd5b80631724969a116101c15780631724969a14610324578063200d2ed21461033a5780633ab7e0d5146103665780633c7384941461038b57600080fd5b806308ae4b0c146101fe5780630b529a17146102a8578063134200e5146102e057806313b8ad311461030457600080fd5b366101f957005b600080fd5b34801561020a57600080fd5b50610264610219366004611d46565b600f602052600090815260409020805460018201546002830154600384015460048501546005860154600687015460079097015460ff96871697959694959394929391929091169088565b6040805198151589526020890197909752958701949094526060860192909252608085015260a0840152151560c083015260e0820152610100015b60405180910390f35b3480156102b457600080fd5b506102c86102c3366004611d76565b6106fb565b6040516001600160a01b03909116815260200161029f565b3480156102ec57600080fd5b506102f6600d5481565b60405190815260200161029f565b34801561031057600080fd5b506102c861031f366004611d76565b610725565b34801561033057600080fd5b506102f660055481565b34801561034657600080fd5b5060095461035990610100900460ff1681565b60405161029f9190611da5565b34801561037257600080fd5b5061037b610735565b604051901515815260200161029f565b34801561039757600080fd5b506103ab6103a6366004611de3565b61076a565b005b3480156103b957600080fd5b506102f660125481565b3480156103cf57600080fd5b506102f66108ec565b6103ab6108fe565b3480156103ec57600080fd5b506102f660025481565b34801561040257600080fd5b506102f660075481565b34801561041857600080fd5b506102f6610b78565b34801561042d57600080fd5b506103ab610bbd565b34801561044257600080fd5b506102f6600b5481565b34801561045857600080fd5b50610461610bcf565b604080519485526020850193909352918301521515606082015260800161029f565b34801561048f57600080fd5b506103ab61049e366004611e94565b610c8e565b3480156104af57600080fd5b506105056104be366004611d76565b600090815260106020526040902060018101546002820154600383015460048401546005850154600690950154939592946001600160a01b0390921693909260ff90911690565b6040805196875260208701959095526001600160a01b039093169385019390935260608401526080830191909152151560a082015260c00161029f565b34801561054e57600080fd5b506102f6600a5481565b34801561056457600080fd5b506102f6600c5481565b34801561057a57600080fd5b506103ab610d42565b34801561058f57600080fd5b506105e861059e366004611d76565b60106020526000908152604090208054600182015460028301546003840154600485015460058601546006909601549495939492936001600160a01b039092169290919060ff1687565b604080519788526020880196909652948601939093526001600160a01b039091166060850152608084015260a0830152151560c082015260e00161029f565b34801561063357600080fd5b506001546001600160a01b03166102c8565b34801561065157600080fd5b506102f660065481565b34801561066757600080fd5b50610670610e38565b60405161029f9190611f4c565b34801561068957600080fd5b506103ab610ec6565b34801561069e57600080fd5b506102f660045481565b6103ab61105f565b3480156106bc57600080fd5b506103ab6106cb366004611d46565b611385565b3480156106dc57600080fd5b506102f660035481565b3480156106f257600080fd5b506102f66113c0565b6011818154811061070b57600080fd5b6000918252602090912001546001600160a01b0316905081565b600e818154811061070b57600080fd5b60006001600954610100900460ff16600481111561075557610755611d8f565b148015610765575061076561142c565b905090565b6107726114db565b60008151116107c85760405162461bcd60e51b815260206004820152601a60248201527f524f534341206e616d652063616e6e6f7420626520656d70747900000000000060448201526064015b60405180910390fd5b6032815111156108105760405162461bcd60e51b8152602060048201526013602482015272524f534341206e616d6520746f6f206c6f6e6760681b60448201526064016107bf565b60006008805461081f90611f5f565b80601f016020809104026020016040519081016040528092919081815260200182805461084b90611f5f565b80156108985780601f1061086d57610100808354040283529160200191610898565b820191906000526020600020905b81548152906001019060200180831161087b57829003601f168201915b5050505050905081600890816108ae9190611fe8565b507f1b43e3e5f1f5ff0842f33165f672243c3c084948d1ede06a9ac3838be78bc2d081836040516108e09291906120a8565b60405180910390a15050565b600060055460025461076591906120ec565b610906611508565b600080600954610100900460ff16600481111561092557610925611d8f565b146109425760405162461bcd60e51b81526004016107bf90612109565b600060055460025461095491906120ec565b90508034146109a55760405162461bcd60e51b815260206004820152601860248201527f496e636f7272656374206465706f73697420616d6f756e74000000000000000060448201526064016107bf565b336000908152600f602052604090205460ff1615610a2e57336000908152600f602052604090206002015415610a145760405162461bcd60e51b815260206004820152601460248201527311195c1bdcda5d08185b1c9958591e481c185a5960621b60448201526064016107bf565b336000908152600f60205260409020600201819055610a90565b600454600b5410610a715760405162461bcd60e51b815260206004820152600d60248201526c1493d4d0d0481a5cc8199d5b1b609a1b60448201526064016107bf565b610a7a33611532565b336000908152600f602052604090206002018190555b604080514281526020810183905233917fab585a62abffb5c5f3221cacd949f94b54770198cc25af3ad1d315e51be8e3e3910160405180910390a2600454600b54148015610ae15750610ae161142c565b15610b6a576009805461010061ff001990911617905542600d81905560408051918252600060208301527f3356ec9443b31b2e7d0a90086b0da20c9eb480fabb47ebd92ede27dd427efd81910160405180910390a16040514281527f206b07cc4e13c2fee53b9633742b04d623159c85e7b0cdd5b7b54876190068169060200160405180910390a15b5050610b766001600055565b565b60006001600954610100900460ff166004811115610b9857610b98611d8f565b14610ba35750600090565b610bab61142c565b15610bb65750600090565b5060001990565b610bc56114db565b610b766000611667565b6000806000806000805b600e54811015610c6f576000600e8281548110610bf857610bf8612137565b60009182526020808320909101546001600160a01b0316808352600f90915260409091205490915060ff168015610c4957506001600160a01b0381166000908152600f602052604090206002015415155b15610c5c5782610c588161214d565b9350505b5080610c678161214d565b915050610bd9565b50600b5481600454610c7f61142c565b94509450945094505090919293565b610c966114db565b6003600954610100900460ff166004811115610cb457610cb4611d8f565b03610d015760405162461bcd60e51b815260206004820152601760248201527f524f53434120616c726561647920636f6d706c6574656400000000000000000060448201526064016107bf565b6009805461ff0019166104001790556040517ff7b2275e9c2317fc762ef872047135a5255006085768792f663964422d974373906108e09084908490612166565b600280600954610100900460ff166004811115610d6157610d61611d8f565b14610d7e5760405162461bcd60e51b81526004016107bf90612109565b6000600a5411610dc25760405162461bcd60e51b815260206004820152600f60248201526e139bc81858dd1a5d99481c9bdd5b99608a1b60448201526064016107bf565b600a546000908152601060205260409020600201544211610e255760405162461bcd60e51b815260206004820152601960248201527f526f756e6420646561646c696e65206e6f74207061737365640000000000000060448201526064016107bf565b610e2d6116b9565b610e35611898565b50565b60088054610e4590611f5f565b80601f0160208091040260200160405190810160405280929190818152602001828054610e7190611f5f565b8015610ebe5780601f10610e9357610100808354040283529160200191610ebe565b820191906000526020600020905b815481529060010190602001808311610ea157829003601f168201915b505050505081565b336000908152600f602052604090205460ff16610f1c5760405162461bcd60e51b81526020600482015260146024820152732737ba1030b71030b1ba34bb329036b2b6b132b960611b60448201526064016107bf565b600180600954610100900460ff166004811115610f3b57610f3b611d8f565b14610f585760405162461bcd60e51b81526004016107bf90612109565b610f6061142c565b610fb75760405162461bcd60e51b815260206004820152602260248201527f4e6f7420616c6c206d656d6265727320686176652070616964206465706f7369604482015261747360f01b60648201526084016107bf565b6002600b54101561100a5760405162461bcd60e51b815260206004820152601760248201527f4e656564206174206c656173742032206d656d6265727300000000000000000060448201526064016107bf565b6009805461ff0019166102001790556001600a81905561102990611a4d565b6040514281527fdb6b3ceb24eee167482a870c355049d6679c171af69d9c94d9babb5762b6be349060200160405180910390a150565b611067611508565b336000908152600f602052604090205460ff166110bd5760405162461bcd60e51b81526020600482015260146024820152732737ba1030b71030b1ba34bb329036b2b6b132b960611b60448201526064016107bf565b600280600954610100900460ff1660048111156110dc576110dc611d8f565b146110f95760405162461bcd60e51b81526004016107bf90612109565b6000600a541161113d5760405162461bcd60e51b815260206004820152600f60248201526e139bc81858dd1a5d99481c9bdd5b99608a1b60448201526064016107bf565b600a546000908152601060205260409020600681015460ff161561119d5760405162461bcd60e51b8152602060048201526017602482015276149bdd5b9908185b1c9958591e4818dbdb5c1b195d1959604a1b60448201526064016107bf565b33600090815260078201602052604090205460ff16156111ff5760405162461bcd60e51b815260206004820152601e60248201527f416c726561647920636f6e7472696275746564207468697320726f756e64000060448201526064016107bf565b806002015442111561124b5760405162461bcd60e51b8152602060048201526015602482015274149bdd5b9908191958591b1a5b99481c185cdcd959605a1b60448201526064016107bf565b600254341461129c5760405162461bcd60e51b815260206004820152601860248201527f496e636f7272656374207061796d656e7420616d6f756e74000000000000000060448201526064016107bf565b3360009081526007820160205260408120805460ff19166001179055600582018054916112c88361214d565b91905055506002548160040160008282546112e39190612195565b9091555050600254336000908152600f60205260408120600301805490919061130d908490612195565b9091555050336000908152600f602052604081206004018054916113308361214d565b9091555050600a5460025460405190815233907f5dc1fe5ab986a852c4eda8e8bb94247d13307065c593fb83f1a09be2736793829060200160405180910390a3600b54816005015403610b6a57610b6a611898565b61138d6114db565b6001600160a01b0381166113b757604051631e4fbdf760e01b8152600060048201526024016107bf565b610e3581611667565b60006002600954610100900460ff1660048111156113e0576113e0611d8f565b1415806113ed5750600a54155b156113f85750600090565b600a5460009081526010602052604090206002015442811161141c57600091505090565b61142642826121a8565b91505090565b6000600454600b5410156114405750600090565b60005b600e548110156114d3576000600e828154811061146257611462612137565b60009182526020808320909101546001600160a01b0316808352600f90915260409091205490915060ff1680156114b257506001600160a01b0381166000908152600f6020526040902060020154155b156114c05760009250505090565b50806114cb8161214d565b915050611443565b506001905090565b6001546001600160a01b03163314610b765760405163118cdaa760e01b81523360048201526024016107bf565b60026000540361152b57604051633ee5aeb560e01b815260040160405180910390fd5b6002600055565b604080516101008101825260018082524260208084019182526000848601818152606086018281526080870183815260a0880184815260c0890185815260e08a018681526001600160a01b038d16808852600f9098529a862099518a5490151560ff19918216178b5597518a8a0155935160028a0155915160038901555160048801555160058701555160068601805491151591909416179092559351600790930192909255600e80548083019091557fbb7b4a454dc3493923482f07822329ed19e8244eff582cc204f8554c3620c3fd0180546001600160a01b0319908116851790915560118054928301815583527f31ecc21a745e3968a04e9570e4425bc18fa8019c68028196b546d1669c200c689091018054909116909217909155600b80549161165f8361214d565b919050555050565b600180546001600160a01b038381166001600160a01b0319831681179093556040519116919082907f8be0079c531659141344cd1fd0a4f28419497f9722a3daafe3b4186f6b6457e090600090a35050565b600a546000908152601060205260408120905b600e54811015611894576000600e82815481106116eb576116eb612137565b60009182526020808320909101546001600160a01b0316808352600f90915260409091205490915060ff16801561173d57506001600160a01b038116600090815260078401602052604090205460ff16155b15611881576001600160a01b0381166000908152600f602052604081206005018054916117698361214d565b90915550506007546001600160a01b0382166000908152600f6020526040902060050154111561188157600280546001600160a01b0383166000908152600f6020526040902090910154811161187f576001600160a01b0382166000908152600f6020526040812060020180548392906117e49084906121a8565b92505081905550808460040160008282546117ff9190612195565b92505081905550816001600160a01b03167f0c36021ba9160c37844a4fffe59606af0c44bb2336762fa830cc938c432d71e482604051611876918152604060208201819052601e908201527f457863657373697665206d697373656420636f6e747269627574696f6e730000606082015260800190565b60405180910390a25b505b508061188c8161214d565b9150506116cc565b5050565b600a546000908152601060205260409020600681015460ff16156118f85760405162461bcd60e51b8152602060048201526017602482015276149bdd5b9908185b1c9958591e4818dbdb5c1b195d1959604a1b60448201526064016107bf565b600381015460048201546040516001600160a01b0390921691600090839083908381818185875af1925050503d8060008114611950576040519150601f19603f3d011682016040523d82523d6000602084013e611955565b606091505b50509050806119965760405162461bcd60e51b815260206004820152600d60248201526c14185e5bdd5d0819985a5b1959609a1b60448201526064016107bf565b6001600160a01b0383166000818152600f602090815260409182902060068082018054600160ff199182168117909255600a8054600790950194909455918a0180549092161790555491518581527f014300f2034fcadfa0bad884be9053652f78f5fd8054b2e0741293049171747f910160405180910390a3600c54600a5410611a2757611a22611ade565b611a47565b600a8054906000611a378361214d565b9190505550611a47600a54611a4d565b50505050565b60008181526010602052604090208181554260018201819055600354611a7291612195565b6002820155611a7f611c58565b6003820180546001600160a01b0319166001600160a01b03929092169182179055600282015460405190815283907f578960f76997475af77b7eb5b6b4544e5cc867de28b8bcc9052753de5ef6687f9060200160405180910390a35050565b6009805461ff00191661030017905560005b600e54811015611c22576000600e8281548110611b0f57611b0f612137565b60009182526020808320909101546001600160a01b0316808352600f90915260409091205490915060ff168015611b6057506001600160a01b0381166000908152600f602052604090206002015415155b15611c0f576001600160a01b0381166000818152600f6020526040808220600201805490839055905190929083908381818185875af1925050503d8060008114611bc6576040519150601f19603f3d011682016040523d82523d6000602084013e611bcb565b606091505b5050905080611c0c5760405162461bcd60e51b815260206004820152600d60248201526c1499599d5b990819985a5b1959609a1b60448201526064016107bf565b50505b5080611c1a8161214d565b915050611af0565b506040514281527fd57799724d5c069e66abd552aca9bc70e8f36d98f34d0d84841983bc469a4e4a9060200160405180910390a1565b60005b6011546012541015611cfe576000601160125481548110611c7e57611c7e612137565b6000918252602082200154601280546001600160a01b0390921693509091611ca58361214d565b90915550506001600160a01b0381166000908152600f602052604090205460ff168015611cee57506001600160a01b0381166000908152600f602052604090206006015460ff16155b15611cf857919050565b50611c5b565b60405162461bcd60e51b815260206004820152601860248201527f4e6f20656c696769626c652077696e6e657220666f756e64000000000000000060448201526064016107bf565b600060208284031215611d5857600080fd5b81356001600160a01b0381168114611d6f57600080fd5b9392505050565b600060208284031215611d8857600080fd5b5035919050565b634e487b7160e01b600052602160045260246000fd5b6020810160058310611dc757634e487b7160e01b600052602160045260246000fd5b91905290565b634e487b7160e01b600052604160045260246000fd5b600060208284031215611df557600080fd5b813567ffffffffffffffff80821115611e0d57600080fd5b818401915084601f830112611e2157600080fd5b813581811115611e3357611e33611dcd565b604051601f8201601f19908116603f01168101908382118183101715611e5b57611e5b611dcd565b81604052828152876020848701011115611e7457600080fd5b826020860160208301376000928101602001929092525095945050505050565b60008060208385031215611ea757600080fd5b823567ffffffffffffffff80821115611ebf57600080fd5b818501915085601f830112611ed357600080fd5b813581811115611ee257600080fd5b866020828501011115611ef457600080fd5b60209290920196919550909350505050565b6000815180845260005b81811015611f2c57602081850181015186830182015201611f10565b506000602082860101526020601f19601f83011685010191505092915050565b602081526000611d6f6020830184611f06565b600181811c90821680611f7357607f821691505b602082108103611f9357634e487b7160e01b600052602260045260246000fd5b50919050565b601f821115611fe357600081815260208120601f850160051c81016020861015611fc05750805b601f850160051c820191505b81811015611fdf57828155600101611fcc565b5050505b505050565b815167ffffffffffffffff81111561200257612002611dcd565b612016816120108454611f5f565b84611f99565b602080601f83116001811461204b57600084156120335750858301515b600019600386901b1c1916600185901b178555611fdf565b600085815260208120601f198616915b8281101561207a5788860151825594840194600190910190840161205b565b50858210156120985787850151600019600388901b60f8161c191681555b5050505050600190811b01905550565b6040815260006120bb6040830185611f06565b82810360208401526120cd8185611f06565b95945050505050565b634e487b7160e01b600052601160045260246000fd5b8082028115828204841417612103576121036120d6565b92915050565b602080825260149082015273496e76616c696420524f5343412073746174757360601b604082015260600190565b634e487b7160e01b600052603260045260246000fd5b60006001820161215f5761215f6120d6565b5060010190565b60208152816020820152818360408301376000818301604090810191909152601f909201601f19160101919050565b80820180821115612103576121036120d6565b81810381811115612103576121036120d656fea2646970667358221220fd29832367f29396e97126e4ceb5ace94441d208160036054c17b195d0e0a66f64736f6c63430008140033a2646970667358221220a165f1e0272302e6850e8744c8fd6da8a97a5f3c04a0eb2e753671e11ad2c47164736f6c63430008140033",
  "linkReferences": {},
  "deployedLinkReferences": {}
}