{
  "_format": "hh-sol-artifact-1",
  "contractName": "ROSCA",
  "sourceName": "contracts/ROSCA.sol",
  "abi": [
    {
      "inputs": [
        {
          "internalType": "address",
          "name": "_token",
          "type": "address"
        },
        {
          "internalType": "uint256",
          "name": "_contributionAmount",
          "type": "uint256"
        },
        {
          "internalType": "uint256",
          "name": "_roundDuration",
          "type": "uint256"
        },
        {
          "internalType": "uint256",
          "name": "_maxMembers",
          "type": "uint256"
        },
        {
          "internalType": "address",
          "name": "_creator",
          "type": "address"
        }
      ],
      "stateMutability": "nonpayable",
      "type": "constructor"
    },
    {
      "inputs": [
        {
          "internalType": "address",
          "name": "owner",
          "type": "address"
        }
      ],
      "name": "OwnableInvalidOwner",
      "type": "error"
    },
    {
      "inputs": [
        {
          "internalType": "address",
          "name": "account",
          "type": "address"
        }
      ],
      "name": "OwnableUnauthorizedAccount",
      "type": "error"
    },
    {
      "inputs": [],
      "name": "ReentrancyGuardReentrantCall",
      "type": "error"
    },
    {
      "inputs": [
        {
          "internalType": "address",
          "name": "token",
          "type": "address"
        }
      ],
      "name": "SafeERC20FailedOperation",
      "type": "error"
    },
    {
      "anonymous": false,
      "inputs": [
        {
          "indexed": true,
          "internalType": "address",
          "name": "member",
          "type": "address"
        },
        {
          "indexed": true,
          "internalType": "uint256",
          "name": "roundNumber",
          "type": "uint256"
        },
        {
          "indexed": false,
          "internalType": "uint256",
          "name": "amount",
          "type": "uint256"
        }
      ],
      "name": "ContributionMade",
      "type": "event"
    },
    {
      "anonymous": false,
      "inputs": [
        {
          "indexed": true,
          "internalType": "address",
          "name": "member",
          "type": "address"
        },
        {
          "indexed": false,
          "internalType": "uint256",
          "name": "timestamp",
          "type": "uint256"
        },
        {
          "indexed": false,
          "internalType": "uint256",
          "name": "depositAmount",
          "type": "uint256"
        }
      ],
      "name": "MemberJoined",
      "type": "event"
    },
    {
      "anonymous": false,
      "inputs": [
        {
          "indexed": true,
          "internalType": "address",
          "name": "member",
          "type": "address"
        },
        {
          "indexed": false,
          "internalType": "uint256",
          "name": "penaltyAmount",
          "type": "uint256"
        },
        {
          "indexed": false,
          "internalType": "string",
          "name": "reason",
          "type": "string"
        }
      ],
      "name": "MemberPenalized",
      "type": "event"
    },
    {
      "anonymous": false,
      "inputs": [
        {
          "indexed": true,
          "internalType": "address",
          "name": "previousOwner",
          "type": "address"
        },
        {
          "indexed": true,
          "internalType": "address",
          "name": "newOwner",
          "type": "address"
        }
      ],
      "name": "OwnershipTransferred",
      "type": "event"
    },
    {
      "anonymous": false,
      "inputs": [
        {
          "indexed": false,
          "internalType": "string",
          "name": "reason",
          "type": "string"
        }
      ],
      "name": "ROSCACancelled",
      "type": "event"
    },
    {
      "anonymous": false,
      "inputs": [
        {
          "indexed": false,
          "internalType": "uint256",
          "name": "timestamp",
          "type": "uint256"
        }
      ],
      "name": "ROSCACompleted",
      "type": "event"
    },
    {
      "anonymous": false,
      "inputs": [
        {
          "indexed": false,
          "internalType": "uint256",
          "name": "timestamp",
          "type": "uint256"
        }
      ],
      "name": "ROSCAStarted",
      "type": "event"
    },
    {
      "anonymous": false,
      "inputs": [
        {
          "indexed": false,
          "internalType": "uint256",
          "name": "timestamp",
          "type": "uint256"
        },
        {
          "indexed": false,
          "internalType": "uint256",
          "name": "gracePeriodEnd",
          "type": "uint256"
        }
      ],
      "name": "RecruitmentComplete",
      "type": "event"
    },
    {
      "anonymous": false,
      "inputs": [
        {
          "indexed": true,
          "internalType": "uint256",
          "name": "roundNumber",
          "type": "uint256"
        },
        {
          "indexed": true,
          "internalType": "address",
          "name": "winner",
          "type": "address"
        },
        {
          "indexed": false,
          "internalType": "uint256",
          "name": "payout",
          "type": "uint256"
        }
      ],
      "name": "RoundCompleted",
      "type": "event"
    },
    {
      "anonymous": false,
      "inputs": [
        {
          "indexed": true,
          "internalType": "uint256",
          "name": "roundNumber",
          "type": "uint256"
        },
        {
          "indexed": false,
          "internalType": "uint256",
          "name": "deadline",
          "type": "uint256"
        },
        {
          "indexed": true,
          "internalType": "address",
          "name": "winner",
          "type": "address"
        }
      ],
      "name": "RoundStarted",
      "type": "event"
    },
    {
      "inputs": [
        {
          "internalType": "string",
          "name": "reason",
          "type": "string"
        }
      ],
      "name": "cancelROSCA",
      "outputs": [],
      "stateMutability": "nonpayable",
      "type": "function"
    },
    {
      "inputs": [],
      "name": "completeRound",
      "outputs": [],
      "stateMutability": "nonpayable",
      "type": "function"
    },
    {
      "inputs": [],
      "name": "contribute",
      "outputs": [],
      "stateMutability": "payable",
      "type": "function"
    },
    {
      "inputs": [],
      "name": "contributionAmount",
      "outputs": [
        {
          "internalType": "uint256",
          "name": "",
          "type": "uint256"
        }
      ],
      "stateMutability": "view",
      "type": "function"
    },
    {
      "inputs": [],
      "name": "currentRound",
      "outputs": [
        {
          "internalType": "uint256",
          "name": "",
          "type": "uint256"
        }
      ],
      "stateMutability": "view",
      "type": "function"
    },
    {
      "inputs": [],
      "name": "depositMultiplier",
      "outputs": [
        {
          "internalType": "uint256",
          "name": "",
          "type": "uint256"
        }
      ],
      "stateMutability": "view",
      "type": "function"
    },
    {
      "inputs": [],
      "name": "forceStart",
      "outputs": [],
      "stateMutability": "nonpayable",
      "type": "function"
    },
    {
      "inputs": [],
      "name": "getRequiredDeposit",
      "outputs": [
        {
          "internalType": "uint256",
          "name": "",
          "type": "uint256"
        }
      ],
      "stateMutability": "view",
      "type": "function"
    },
    {
      "inputs": [
        {
          "internalType": "uint256",
          "name": "roundNumber",
          "type": "uint256"
        }
      ],
      "name": "getRoundInfo",
      "outputs": [
        {
          "internalType": "uint256",
          "name": "startTime",
          "type": "uint256"
        },
        {
          "internalType": "uint256",
          "name": "deadline",
          "type": "uint256"
        },
        {
          "internalType": "address",
          "name": "winner",
          "type": "address"
        },
        {
          "internalType": "uint256",
          "name": "totalPot",
          "type": "uint256"
        },
        {
          "internalType": "uint256",
          "name": "contributionsReceived",
          "type": "uint256"
        },
        {
          "internalType": "bool",
          "name": "isCompleted",
          "type": "bool"
        }
      ],
      "stateMutability": "view",
      "type": "function"
    },
    {
      "inputs": [],
      "name": "getTimeUntilRoundEnd",
      "outputs": [
        {
          "internalType": "uint256",
          "name": "",
          "type": "uint256"
        }
      ],
      "stateMutability": "view",
      "type": "function"
    },
    {
      "inputs": [],
      "name": "getTimeUntilStart",
      "outputs": [
        {
          "internalType": "uint256",
          "name": "",
          "type": "uint256"
        }
      ],
      "stateMutability": "view",
      "type": "function"
    },
    {
      "inputs": [],
      "name": "gracePeriod",
      "outputs": [
        {
          "internalType": "uint256",
          "name": "",
          "type": "uint256"
        }
      ],
      "stateMutability": "view",
      "type": "function"
    },
    {
      "inputs": [
        {
          "internalType": "address",
          "name": "_token",
          "type": "address"
        },
        {
          "internalType": "uint256",
          "name": "_contributionAmount",
          "type": "uint256"
        },
        {
          "internalType": "uint256",
          "name": "_roundDuration",
          "type": "uint256"
        },
        {
          "internalType": "uint256",
          "name": "_maxMembers",
          "type": "uint256"
        },
        {
          "internalType": "address",
          "name": "_creator",
          "type": "address"
        }
      ],
      "name": "initialize",
      "outputs": [],
      "stateMutability": "nonpayable",
      "type": "function"
    },
    {
      "inputs": [],
      "name": "joinROSCA",
      "outputs": [],
      "stateMutability": "payable",
      "type": "function"
    },
    {
      "inputs": [],
      "name": "maxMembers",
      "outputs": [
        {
          "internalType": "uint256",
          "name": "",
          "type": "uint256"
        }
      ],
      "stateMutability": "view",
      "type": "function"
    },
    {
      "inputs": [],
      "name": "maxMissedRounds",
      "outputs": [
        {
          "internalType": "uint256",
          "name": "",
          "type": "uint256"
        }
      ],
      "stateMutability": "view",
      "type": "function"
    },
    {
      "inputs": [
        {
          "internalType": "address",
          "name": "",
          "type": "address"
        }
      ],
      "name": "members",
      "outputs": [
        {
          "internalType": "bool",
          "name": "isActive",
          "type": "bool"
        },
        {
          "internalType": "uint256",
          "name": "joinTimestamp",
          "type": "uint256"
        },
        {
          "internalType": "uint256",
          "name": "depositAmount",
          "type": "uint256"
        },
        {
          "internalType": "uint256",
          "name": "totalContributions",
          "type": "uint256"
        },
        {
          "internalType": "uint256",
          "name": "roundsPaid",
          "type": "uint256"
        },
        {
          "internalType": "uint256",
          "name": "missedRounds",
          "type": "uint256"
        },
        {
          "internalType": "bool",
          "name": "hasReceivedPayout",
          "type": "bool"
        },
        {
          "internalType": "uint256",
          "name": "payoutRound",
          "type": "uint256"
        }
      ],
      "stateMutability": "view",
      "type": "function"
    },
    {
      "inputs": [
        {
          "internalType": "uint256",
          "name": "",
          "type": "uint256"
        }
      ],
      "name": "membersList",
      "outputs": [
        {
          "internalType": "address",
          "name": "",
          "type": "address"
        }
      ],
      "stateMutability": "view",
      "type": "function"
    },
    {
      "inputs": [],
      "name": "nextPayoutIndex",
      "outputs": [
        {
          "internalType": "uint256",
          "name": "",
          "type": "uint256"
        }
      ],
      "stateMutability": "view",
      "type": "function"
    },
    {
      "inputs": [],
      "name": "owner",
      "outputs": [
        {
          "internalType": "address",
          "name": "",
          "type": "address"
        }
      ],
      "stateMutability": "view",
      "type": "function"
    },
    {
      "inputs": [
        {
          "internalType": "uint256",
          "name": "",
          "type": "uint256"
        }
      ],
      "name": "payoutOrder",
      "outputs": [
        {
          "internalType": "address",
          "name": "",
          "type": "address"
        }
      ],
      "stateMutability": "view",
      "type": "function"
    },
    {
      "inputs": [],
      "name": "recruitmentCompleteTime",
      "outputs": [
        {
          "internalType": "uint256",
          "name": "",
          "type": "uint256"
        }
      ],
      "stateMutability": "view",
      "type": "function"
    },
    {
      "inputs": [],
      "name": "renounceOwnership",
      "outputs": [],
      "stateMutability": "nonpayable",
      "type": "function"
    },
    {
      "inputs": [],
      "name": "roundDuration",
      "outputs": [
        {
          "internalType": "uint256",
          "name": "",
          "type": "uint256"
        }
      ],
      "stateMutability": "view",
      "type": "function"
    },
    {
      "inputs": [
        {
          "internalType": "uint256",
          "name": "",
          "type": "uint256"
        }
      ],
      "name": "rounds",
      "outputs": [
        {
          "internalType": "uint256",
          "name": "roundNumber",
          "type": "uint256"
        },
        {
          "internalType": "uint256",
          "name": "startTime",
          "type": "uint256"
        },
        {
          "internalType": "uint256",
          "name": "deadline",
          "type": "uint256"
        },
        {
          "internalType": "address",
          "name": "winner",
          "type": "address"
        },
        {
          "internalType": "uint256",
          "name": "totalPot",
          "type": "uint256"
        },
        {
          "internalType": "uint256",
          "name": "contributionsReceived",
          "type": "uint256"
        },
        {
          "internalType": "bool",
          "name": "isCompleted",
          "type": "bool"
        }
      ],
      "stateMutability": "view",
      "type": "function"
    },
    {
      "inputs": [],
      "name": "startROSCA",
      "outputs": [],
      "stateMutability": "nonpayable",
      "type": "function"
    },
    {
      "inputs": [],
      "name": "status",
      "outputs": [
        {
          "internalType": "enum ROSCA.ROSCAStatus",
          "name": "",
          "type": "uint8"
        }
      ],
      "stateMutability": "view",
      "type": "function"
    },
    {
      "inputs": [],
      "name": "token",
      "outputs": [
        {
          "internalType": "contract IERC20",
          "name": "",
          "type": "address"
        }
      ],
      "stateMutability": "view",
      "type": "function"
    },
    {
      "inputs": [],
      "name": "totalMembers",
      "outputs": [
        {
          "internalType": "uint256",
          "name": "",
          "type": "uint256"
        }
      ],
      "stateMutability": "view",
      "type": "function"
    },
    {
      "inputs": [],
      "name": "totalRounds",
      "outputs": [
        {
          "internalType": "uint256",
          "name": "",
          "type": "uint256"
        }
      ],
      "stateMutability": "view",
      "type": "function"
    },
    {
      "inputs": [
        {
          "internalType": "address",
          "name": "newOwner",
          "type": "address"
        }
      ],
      "name": "transferOwnership",
      "outputs": [],
      "stateMutability": "nonpayable",
      "type": "function"
    },
    {
      "stateMutability": "payable",
      "type": "receive"
    }
  ],
  "bytecode": "0x6080604052600260068190556202a3006007556008556009805461ff00191690556000600a819055600b819055600c8190556012553480156200004157600080fd5b50604051620022af380380620022af8339810160408190526200006491620003a7565b6001600055806001600160a01b0381166200009a57604051631e4fbdf760e01b8152600060048201526024015b60405180910390fd5b620000a58162000201565b506002821015620000f95760405162461bcd60e51b815260206004820152601760248201527f4e656564206174206c656173742032206d656d62657273000000000000000000604482015260640162000091565b600084116200014b5760405162461bcd60e51b815260206004820152601860248201527f436f6e747269627574696f6e206d757374206265203e20300000000000000000604482015260640162000091565b62015180831015620001925760405162461bcd60e51b815260206004820152600f60248201526e149bdd5b99081d1bdbc81cda1bdc9d608a1b604482015260640162000091565b600280546001600160a01b0319166001600160a01b0387811691909117909155600385905560048490556005839055600c839055811615801590620001d75750600082115b15620001f657620001e88162000253565b6009805460ff191660011790555b505050505062000424565b600180546001600160a01b038381166001600160a01b0319831681179093556040519116919082907f8be0079c531659141344cd1fd0a4f28419497f9722a3daafe3b4186f6b6457e090600090a35050565b604080516101008101825260018082524260208084019182526000848601818152606086018281526080870183815260a0880184815260c0890185815260e08a018681526001600160a01b038d16808852600f9098529a862099518a5490151560ff19918216178b5597518a8a0155935160028a0155915160038901555160048801555160058701555160068601805491151591909416179092559351600790930192909255600e80548083019091557fbb7b4a454dc3493923482f07822329ed19e8244eff582cc204f8554c3620c3fd0180546001600160a01b0319908116851790915560118054928301815583527f31ecc21a745e3968a04e9570e4425bc18fa8019c68028196b546d1669c200c689091018054909116909217909155600b8054916200038283620003fc565b919050555050565b80516001600160a01b0381168114620003a257600080fd5b919050565b600080600080600060a08688031215620003c057600080fd5b620003cb866200038a565b9450602086015193506040860151925060608601519150620003f0608087016200038a565b90509295509295909350565b6000600182016200041d57634e487b7160e01b600052601160045260246000fd5b5060010190565b611e7b80620004346000396000f3fe6080604052600436106101dc5760003560e01c80637bdb04ec11610102578063bb9d01a411610095578063f7cb789a11610064578063f7cb789a1461063c578063fc0c546a14610652578063fd3a949f14610672578063ff85fba21461068757600080fd5b8063bb9d01a4146105e9578063bf4386a0146105fe578063d7bb99ba14610614578063f2fde38b1461061c57600080fd5b80638be48547116100d15780638be48547146104fc5780638c65c81f146105115780638da5cb5b146105b5578063a06db7dc146105d357600080fd5b80637bdb04ec1461041157806388c3ffb0146104315780638a19c8bc146104d05780638a568299146104e657600080fd5b806358e56db41161017a5780636766d1ba116101495780636766d1ba146103b15780636c28e349146103c6578063715018a6146103e657806376e92559146103fb57600080fd5b806358e56db4146103665780635956fdcd1461037b5780635fa0b65f14610385578063605f80831461039b57600080fd5b806313b8ad31116101b657806313b8ad31146102ee5780631724969a1461030e578063200d2ed2146103245780633fe071be1461035057600080fd5b806308ae4b0c146101e85780630b529a1714610292578063134200e5146102ca57600080fd5b366101e357005b600080fd5b3480156101f457600080fd5b5061024e610203366004611c25565b600f602052600090815260409020805460018201546002830154600384015460048501546005860154600687015460079097015460ff96871697959694959394929391929091169088565b6040805198151589526020890197909752958701949094526060860192909252608085015260a0840152151560c083015260e0820152610100015b60405180910390f35b34801561029e57600080fd5b506102b26102ad366004611c47565b61069c565b6040516001600160a01b039091168152602001610289565b3480156102d657600080fd5b506102e0600d5481565b604051908152602001610289565b3480156102fa57600080fd5b506102b2610309366004611c47565b6106c6565b34801561031a57600080fd5b506102e060065481565b34801561033057600080fd5b5060095461034390610100900460ff1681565b6040516102899190611c76565b34801561035c57600080fd5b506102e060125481565b34801561037257600080fd5b506102e06106d6565b6103836106ed565b005b34801561039157600080fd5b506102e060035481565b3480156103a757600080fd5b506102e060085481565b3480156103bd57600080fd5b506102e0610930565b3480156103d257600080fd5b506103836103e1366004611c9e565b61098e565b3480156103f257600080fd5b50610383610b03565b34801561040757600080fd5b506102e0600b5481565b34801561041d57600080fd5b5061038361042c366004611cee565b610b15565b34801561043d57600080fd5b5061049361044c366004611c47565b600090815260106020526040902060018101546002820154600383015460048401546005850154600690950154939592946001600160a01b0390921693909260ff90911690565b6040805196875260208701959095526001600160a01b039093169385019390935260608401526080830191909152151560a082015260c001610289565b3480156104dc57600080fd5b506102e0600a5481565b3480156104f257600080fd5b506102e0600c5481565b34801561050857600080fd5b50610383610bd5565b34801561051d57600080fd5b5061057661052c366004611c47565b60106020526000908152604090208054600182015460028301546003840154600485015460058601546006909601549495939492936001600160a01b039092169290919060ff1687565b604080519788526020880196909652948601939093526001600160a01b039091166060850152608084015260a0830152151560c082015260e001610289565b3480156105c157600080fd5b506001546001600160a01b03166102b2565b3480156105df57600080fd5b506102e060075481565b3480156105f557600080fd5b50610383610ccb565b34801561060a57600080fd5b506102e060055481565b610383610e00565b34801561062857600080fd5b50610383610637366004611c25565b61115c565b34801561064857600080fd5b506102e060045481565b34801561065e57600080fd5b506002546102b2906001600160a01b031681565b34801561067e57600080fd5b506102e0611197565b34801561069357600080fd5b506103836111f3565b601181815481106106ac57600080fd5b6000918252602090912001546001600160a01b0316905081565b600e81815481106106ac57600080fd5b60006006546003546106e89190611d76565b905090565b6106f5611237565b600080600954610100900460ff16600481111561071457610714611c60565b1461073a5760405162461bcd60e51b815260040161073190611d93565b60405180910390fd5b600554600b541061077d5760405162461bcd60e51b815260206004820152600d60248201526c1493d4d0d0481a5cc8199d5b1b609a1b6044820152606401610731565b336000908152600f602052604090205460ff16156107d05760405162461bcd60e51b815260206004820152601060248201526f20b63932b0b23c90309036b2b6b132b960811b6044820152606401610731565b60006006546003546107e29190611d76565b6002549091506001600160a01b0316610849578034146108445760405162461bcd60e51b815260206004820152601860248201527f496e636f7272656374206465706f73697420616d6f756e7400000000000000006044820152606401610731565b610861565b600254610861906001600160a01b0316333084611261565b61086a336112ce565b336000818152600f602090815260409182902060020184905581514281529081018490527fab585a62abffb5c5f3221cacd949f94b54770198cc25af3ad1d315e51be8e3e3910160405180910390a2600554600b5403610922576009805461ff00191661010017905542600d8190556007547f3356ec9443b31b2e7d0a90086b0da20c9eb480fabb47ebd92ede27dd427efd8191906109099082611dc1565b6040805192835260208301919091520160405180910390a15b505061092e6001600055565b565b60006001600954610100900460ff16600481111561095057610950611c60565b1461095b5750600090565b6000600754600d5461096d9190611dc1565b905080421061097e57600091505090565b6109884282611dd4565b91505090565b60095460ff16156109d75760405162461bcd60e51b8152602060048201526013602482015272105b1c9958591e481a5b9a5d1a585b1a5e9959606a1b6044820152606401610731565b6002821015610a225760405162461bcd60e51b81526020600482015260176024820152764e656564206174206c656173742032206d656d6265727360481b6044820152606401610731565b60008411610a725760405162461bcd60e51b815260206004820152601860248201527f436f6e747269627574696f6e206d757374206265203e203000000000000000006044820152606401610731565b62015180831015610ab75760405162461bcd60e51b815260206004820152600f60248201526e149bdd5b99081d1bdbc81cda1bdc9d608a1b6044820152606401610731565b600280546001600160a01b0319166001600160a01b038716179055600384905560048390556005829055600c829055610aef81611403565b50506009805460ff19166001179055505050565b610b0b611455565b61092e6000611403565b610b1d611455565b6003600954610100900460ff166004811115610b3b57610b3b611c60565b03610b885760405162461bcd60e51b815260206004820152601760248201527f524f53434120616c726561647920636f6d706c657465640000000000000000006044820152606401610731565b6009805461ff0019166104001790556040517ff7b2275e9c2317fc762ef872047135a5255006085768792f663964422d97437390610bc99084908490611de7565b60405180910390a15050565b600280600954610100900460ff166004811115610bf457610bf4611c60565b14610c115760405162461bcd60e51b815260040161073190611d93565b6000600a5411610c555760405162461bcd60e51b815260206004820152600f60248201526e139bc81858dd1a5d99481c9bdd5b99608a1b6044820152606401610731565b600a546000908152601060205260409020600201544211610cb85760405162461bcd60e51b815260206004820152601960248201527f526f756e6420646561646c696e65206e6f7420706173736564000000000000006044820152606401610731565b610cc0611482565b610cc8611660565b50565b600180600954610100900460ff166004811115610cea57610cea611c60565b14610d075760405162461bcd60e51b815260040161073190611d93565b600754600d54610d179190611dc1565b421015610d5e5760405162461bcd60e51b815260206004820152601560248201527423b930b1b2903832b934b7b2103737ba1037bb32b960591b6044820152606401610731565b6002600b541015610dab5760405162461bcd60e51b81526020600482015260176024820152764e656564206174206c656173742032206d656d6265727360481b6044820152606401610731565b6009805461ff0019166102001790556001600a819055610dca9061183b565b6040514281527fdb6b3ceb24eee167482a870c355049d6679c171af69d9c94d9babb5762b6be349060200160405180910390a150565b610e08611237565b336000908152600f602052604090205460ff16610e5e5760405162461bcd60e51b81526020600482015260146024820152732737ba1030b71030b1ba34bb329036b2b6b132b960611b6044820152606401610731565b600280600954610100900460ff166004811115610e7d57610e7d611c60565b14610e9a5760405162461bcd60e51b815260040161073190611d93565b6000600a5411610ede5760405162461bcd60e51b815260206004820152600f60248201526e139bc81858dd1a5d99481c9bdd5b99608a1b6044820152606401610731565b600a546000908152601060205260409020600681015460ff1615610f3e5760405162461bcd60e51b8152602060048201526017602482015276149bdd5b9908185b1c9958591e4818dbdb5c1b195d1959604a1b6044820152606401610731565b33600090815260078201602052604090205460ff1615610fa05760405162461bcd60e51b815260206004820152601e60248201527f416c726561647920636f6e7472696275746564207468697320726f756e6400006044820152606401610731565b8060020154421115610fec5760405162461bcd60e51b8152602060048201526015602482015274149bdd5b9908191958591b1a5b99481c185cdcd959605a1b6044820152606401610731565b6002546001600160a01b031661105257600354341461104d5760405162461bcd60e51b815260206004820152601860248201527f496e636f7272656374207061796d656e7420616d6f756e7400000000000000006044820152606401610731565b611071565b600354600254611071916001600160a01b039091169033903090611261565b3360009081526007820160205260408120805460ff191660011790556005820180549161109d83611e16565b91905055506003548160040160008282546110b89190611dc1565b909155505060038054336000908152600f602052604081209092018054919290916110e4908490611dc1565b9091555050336000908152600f6020526040812060040180549161110783611e16565b9091555050600a5460035460405190815233907f5dc1fe5ab986a852c4eda8e8bb94247d13307065c593fb83f1a09be2736793829060200160405180910390a3600b5481600501540361092257610922611660565b611164611455565b6001600160a01b03811661118e57604051631e4fbdf760e01b815260006004820152602401610731565b610cc881611403565b60006002600954610100900460ff1660048111156111b7576111b7611c60565b1415806111c45750600a54155b156111cf5750600090565b600a5460009081526010602052604090206002015442811161097e57600091505090565b6111fb611455565b600180600954610100900460ff16600481111561121a5761121a611c60565b14610d5e5760405162461bcd60e51b815260040161073190611d93565b60026000540361125a57604051633ee5aeb560e01b815260040160405180910390fd5b6002600055565b6040516001600160a01b0384811660248301528381166044830152606482018390526112c89186918216906323b872dd906084015b604051602081830303815290604052915060e01b6020820180516001600160e01b0383818316178352505050506118cc565b50505050565b604080516101008101825260018082524260208084019182526000848601818152606086018281526080870183815260a0880184815260c0890185815260e08a018681526001600160a01b038d16808852600f9098529a862099518a5490151560ff19918216178b5597518a8a0155935160028a0155915160038901555160048801555160058701555160068601805491151591909416179092559351600790930192909255600e80548083019091557fbb7b4a454dc3493923482f07822329ed19e8244eff582cc204f8554c3620c3fd0180546001600160a01b0319908116851790915560118054928301815583527f31ecc21a745e3968a04e9570e4425bc18fa8019c68028196b546d1669c200c689091018054909116909217909155600b8054916113fb83611e16565b919050555050565b600180546001600160a01b038381166001600160a01b0319831681179093556040519116919082907f8be0079c531659141344cd1fd0a4f28419497f9722a3daafe3b4186f6b6457e090600090a35050565b6001546001600160a01b0316331461092e5760405163118cdaa760e01b8152336004820152602401610731565b600a546000908152601060205260408120905b600e5481101561165c576000600e82815481106114b4576114b4611e2f565b60009182526020808320909101546001600160a01b0316808352600f90915260409091205490915060ff16801561150657506001600160a01b038116600090815260078401602052604090205460ff16155b15611649576001600160a01b0381166000908152600f6020526040812060050180549161153283611e16565b90915550506008546001600160a01b0382166000908152600f60205260409020600501541115611649576003546001600160a01b0382166000908152600f60205260409020600201548111611647576001600160a01b0382166000908152600f6020526040812060020180548392906115ac908490611dd4565b92505081905550808460040160008282546115c79190611dc1565b92505081905550816001600160a01b03167f0c36021ba9160c37844a4fffe59606af0c44bb2336762fa830cc938c432d71e48260405161163e918152604060208201819052601e908201527f457863657373697665206d697373656420636f6e747269627574696f6e730000606082015260800190565b60405180910390a25b505b508061165481611e16565b915050611495565b5050565b600a546000908152601060205260409020600681015460ff16156116c05760405162461bcd60e51b8152602060048201526017602482015276149bdd5b9908185b1c9958591e4818dbdb5c1b195d1959604a1b6044820152606401610731565b600381015460048201546002546001600160a01b039283169216611777576000826001600160a01b03168260405160006040518083038185875af1925050503d806000811461172b576040519150601f19603f3d011682016040523d82523d6000602084013e611730565b606091505b50509050806117715760405162461bcd60e51b815260206004820152600d60248201526c14185e5bdd5d0819985a5b1959609a1b6044820152606401610731565b5061178e565b60025461178e906001600160a01b0316838361193d565b6001600160a01b0382166000818152600f602090815260409182902060068082018054600160ff199182168117909255600a805460079095019490945591890180549092161790555491518481527f014300f2034fcadfa0bad884be9053652f78f5fd8054b2e0741293049171747f910160405180910390a3600c54600a541061181f5761181a61196e565b505050565b600a805490600061182f83611e16565b919050555061181a600a545b6000818152601060205260409020818155426001820181905560045461186091611dc1565b600282015561186d611b1b565b6003820180546001600160a01b0319166001600160a01b03929092169182179055600282015460405190815283907f578960f76997475af77b7eb5b6b4544e5cc867de28b8bcc9052753de5ef6687f9060200160405180910390a35050565b600080602060008451602086016000885af1806118ef576040513d6000823e3d81fd5b50506000513d91508115611907578060011415611914565b6001600160a01b0384163b155b156112c857604051635274afe760e01b81526001600160a01b0385166004820152602401610731565b6040516001600160a01b0383811660248301526044820183905261181a91859182169063a9059cbb90606401611296565b6009805461ff00191661030017905560005b600e54811015611ae5576000600e828154811061199f5761199f611e2f565b60009182526020808320909101546001600160a01b0316808352600f90915260409091205490915060ff1680156119f057506001600160a01b0381166000908152600f602052604090206002015415155b15611ad2576001600160a01b038082166000908152600f602052604081206002908101805492905554909116611ab9576000826001600160a01b03168260405160006040518083038185875af1925050503d8060008114611a6d576040519150601f19603f3d011682016040523d82523d6000602084013e611a72565b606091505b5050905080611ab35760405162461bcd60e51b815260206004820152600d60248201526c1499599d5b990819985a5b1959609a1b6044820152606401610731565b50611ad0565b600254611ad0906001600160a01b0316838361193d565b505b5080611add81611e16565b915050611980565b506040514281527fd57799724d5c069e66abd552aca9bc70e8f36d98f34d0d84841983bc469a4e4a9060200160405180910390a1565b60005b6011546012541015611bc1576000601160125481548110611b4157611b41611e2f565b6000918252602082200154601280546001600160a01b0390921693509091611b6883611e16565b90915550506001600160a01b0381166000908152600f602052604090205460ff168015611bb157506001600160a01b0381166000908152600f602052604090206006015460ff16155b15611bbb57919050565b50611b1e565b60405162461bcd60e51b815260206004820152601860248201527f4e6f20656c696769626c652077696e6e657220666f756e6400000000000000006044820152606401610731565b80356001600160a01b0381168114611c2057600080fd5b919050565b600060208284031215611c3757600080fd5b611c4082611c09565b9392505050565b600060208284031215611c5957600080fd5b5035919050565b634e487b7160e01b600052602160045260246000fd5b6020810160058310611c9857634e487b7160e01b600052602160045260246000fd5b91905290565b600080600080600060a08688031215611cb657600080fd5b611cbf86611c09565b9450602086013593506040860135925060608601359150611ce260808701611c09565b90509295509295909350565b60008060208385031215611d0157600080fd5b823567ffffffffffffffff80821115611d1957600080fd5b818501915085601f830112611d2d57600080fd5b813581811115611d3c57600080fd5b866020828501011115611d4e57600080fd5b60209290920196919550909350505050565b634e487b7160e01b600052601160045260246000fd5b8082028115828204841417611d8d57611d8d611d60565b92915050565b602080825260149082015273496e76616c696420524f5343412073746174757360601b604082015260600190565b80820180821115611d8d57611d8d611d60565b81810381811115611d8d57611d8d611d60565b60208152816020820152818360408301376000818301604090810191909152601f909201601f19160101919050565b600060018201611e2857611e28611d60565b5060010190565b634e487b7160e01b600052603260045260246000fdfea26469706673582212203cf0171ad719ae9d43ce78bc2638120fe23198b01f3fa1259c5b4169dad2b24264736f6c63430008140033",
  "linkReferences": {},
  "deployedLinkReferences": {}
}