{"contracts/Rosca.sol":{"ROSCA":{"abi":[{"anonymous":false,"inputs":[{"indexed":true,"internalType":"uint256","name":"id","type":"uint256"},{"indexed":true,"internalType":"address","name":"member","type":"address"},{"indexed":false,"internalType":"uint256","name":"amount","type":"uint256"}],"name":"Contrib","type":"event"},{"anonymous":false,"inputs":[{"indexed":true,"internalType":"uint256","name":"id","type":"uint256"},{"indexed":true,"internalType":"address","name":"creator","type":"address"},{"indexed":true,"internalType":"address","name":"token","type":"address"},{"indexed":false,"internalType":"uint256","name":"contribution","type":"uint256"},{"indexed":false,"internalType":"uint256","name":"roundLength","type":"uint256"},{"indexed":false,"internalType":"uint8","name":"maxMembers","type":"uint8"}],"name":"Created","type":"event"},{"anonymous":false,"inputs":[{"indexed":true,"internalType":"uint256","name":"disputeId","type":"uint256"},{"indexed":true,"internalType":"uint256","name":"groupId","type":"uint256"},{"indexed":true,"internalType":"address","name":"complainant","type":"address"},{"indexed":false,"internalType":"address","name":"defendant","type":"address"},{"indexed":false,"internalType":"string","name":"reason","type":"string"}],"name":"DisputeCreated","type":"event"},{"anonymous":false,"inputs":[{"indexed":true,"internalType":"uint256","name":"disputeId","type":"uint256"},{"indexed":false,"internalType":"bool","name":"upheld","type":"bool"}],"name":"DisputeResolved","type":"event"},{"anonymous":false,"inputs":[{"indexed":true,"internalType":"uint256","name":"disputeId","type":"uint256"},{"indexed":true,"internalType":"address","name":"voter","type":"address"},{"indexed":false,"internalType":"bool","name":"support","type":"bool"}],"name":"DisputeVoted","type":"event"},{"anonymous":false,"inputs":[{"indexed":true,"internalType":"uint256","name":"id","type":"uint256"},{"indexed":false,"internalType":"bool","name":"isActive","type":"bool"}],"name":"GroupStatusChanged","type":"event"},{"anonymous":false,"inputs":[{"indexed":true,"internalType":"uint256","name":"id","type":"uint256"},{"indexed":true,"internalType":"address","name":"member","type":"address"}],"name":"Joined","type":"event"},{"anonymous":false,"inputs":[{"indexed":true,"internalType":"uint256","name":"id","type":"uint256"},{"indexed":true,"internalType":"address","name":"member","type":"address"}],"name":"Leave","type":"event"},{"anonymous":false,"inputs":[{"indexed":true,"internalType":"uint256","name":"id","type":"uint256"},{"indexed":true,"internalType":"address","name":"recipient","type":"address"},{"indexed":false,"internalType":"uint256","name":"amount","type":"uint256"},{"indexed":false,"internalType":"uint8","name":"round","type":"uint8"}],"name":"Payout","type":"event"},{"anonymous":false,"inputs":[{"indexed":true,"internalType":"uint256","name":"id","type":"uint256"},{"indexed":false,"internalType":"uint256","name":"newLength","type":"uint256"},{"indexed":false,"internalType":"uint256","name":"activates","type":"uint256"}],"name":"RoundLenChangeScheduled","type":"event"},{"inputs":[{"internalType":"uint256","name":"gid","type":"uint256"}],"name":"contribute","outputs":[],"stateMutability":"payable","type":"function"},{"inputs":[{"internalType":"uint256","name":"gid","type":"uint256"},{"internalType":"address","name":"defendant","type":"address"},{"internalType":"string","name":"reason","type":"string"}],"name":"createDispute","outputs":[{"internalType":"uint256","name":"disputeId","type":"uint256"}],"stateMutability":"nonpayable","type":"function"},{"inputs":[{"internalType":"address","name":"_token","type":"address"},{"internalType":"uint96","name":"_contribution","type":"uint96"},{"internalType":"uint40","name":"_roundLength","type":"uint40"},{"internalType":"uint8","name":"_maxMembers","type":"uint8"}],"name":"createGroup","outputs":[{"internalType":"uint256","name":"gid","type":"uint256"}],"stateMutability":"payable","type":"function"},{"inputs":[],"name":"disputeCount","outputs":[{"internalType":"uint256","name":"","type":"uint256"}],"stateMutability":"view","type":"function"},{"inputs":[{"internalType":"uint256","name":"","type":"uint256"}],"name":"disputes","outputs":[{"internalType":"uint256","name":"groupId","type":"uint256"},{"internalType":"address","name":"complainant","type":"address"},{"internalType":"address","name":"defendant","type":"address"},{"internalType":"string","name":"reason","type":"string"},{"internalType":"enum ROSCA.DisputeStatus","name":"status","type":"uint8"},{"internalType":"uint256","name":"createdAt","type":"uint256"},{"internalType":"uint256","name":"votesFor","type":"uint256"},{"internalType":"uint256","name":"votesAgainst","type":"uint256"}],"stateMutability":"view","type":"function"},{"inputs":[{"internalType":"uint256","name":"disputeId","type":"uint256"}],"name":"getDispute","outputs":[{"internalType":"uint256","name":"groupId","type":"uint256"},{"internalType":"address","name":"complainant","type":"address"},{"internalType":"address","name":"defendant","type":"address"},{"internalType":"string","name":"reason","type":"string"},{"internalType":"uint8","name":"status","type":"uint8"},{"internalType":"uint256","name":"createdAt","type":"uint256"},{"internalType":"uint256","name":"votesFor","type":"uint256"},{"internalType":"uint256","name":"votesAgainst","type":"uint256"}],"stateMutability":"view","type":"function"},{"inputs":[{"internalType":"uint256","name":"gid","type":"uint256"}],"name":"getGroupDetails","outputs":[{"components":[{"internalType":"uint40","name":"id","type":"uint40"},{"internalType":"uint40","name":"roundLength","type":"uint40"},{"internalType":"uint40","name":"nextDue","type":"uint40"},{"internalType":"address","name":"token","type":"address"},{"internalType":"uint96","name":"contribution","type":"uint96"},{"internalType":"uint8","name":"currentRound","type":"uint8"},{"internalType":"uint8","name":"maxMembers","type":"uint8"},{"internalType":"bool","name":"isActive","type":"bool"},{"internalType":"address","name":"creator","type":"address"},{"internalType":"uint256","name":"memberCount","type":"uint256"},{"internalType":"uint256","name":"totalPaidOut","type":"uint256"},{"internalType":"uint256","name":"groupDisputeCount","type":"uint256"}],"internalType":"struct GroupView","name":"","type":"tuple"}],"stateMutability":"view","type":"function"},{"inputs":[{"internalType":"uint256","name":"gid","type":"uint256"}],"name":"getGroupMembers","outputs":[{"internalType":"address[]","name":"","type":"address[]"}],"stateMutability":"view","type":"function"},{"inputs":[],"name":"groupCount","outputs":[{"internalType":"uint256","name":"","type":"uint256"}],"stateMutability":"view","type":"function"},{"inputs":[{"internalType":"uint256","name":"","type":"uint256"}],"name":"groups","outputs":[{"internalType":"uint40","name":"id","type":"uint40"},{"internalType":"uint40","name":"roundLength","type":"uint40"},{"internalType":"uint40","name":"nextDue","type":"uint40"},{"internalType":"address","name":"token","type":"address"},{"internalType":"uint96","name":"contribution","type":"uint96"},{"internalType":"uint8","name":"currentRound","type":"uint8"},{"internalType":"uint8","name":"maxMembers","type":"uint8"},{"internalType":"bool","name":"isActive","type":"bool"},{"internalType":"address","name":"creator","type":"address"},{"internalType":"uint256","name":"memberCount","type":"uint256"},{"internalType":"uint256","name":"totalPaidOut","type":"uint256"},{"internalType":"uint256","name":"groupDisputeCount","type":"uint256"},{"internalType":"uint40","name":"newRoundLength","type":"uint40"},{"internalType":"uint40","name":"changeActivates","type":"uint40"}],"stateMutability":"view","type":"function"},{"inputs":[{"internalType":"uint256","name":"disputeId","type":"uint256"},{"internalType":"address","name":"voter","type":"address"}],"name":"hasVotedOnDispute","outputs":[{"internalType":"bool","name":"","type":"bool"}],"stateMutability":"view","type":"function"},{"inputs":[{"internalType":"uint256","name":"gid","type":"uint256"}],"name":"joinGroup","outputs":[],"stateMutability":"payable","type":"function"},{"inputs":[{"internalType":"uint256","name":"gid","type":"uint256"},{"internalType":"address","name":"member","type":"address"}],"name":"kickMember","outputs":[],"stateMutability":"nonpayable","type":"function"},{"inputs":[{"internalType":"uint256","name":"gid","type":"uint256"}],"name":"leaveGroup","outputs":[],"stateMutability":"nonpayable","type":"function"},{"inputs":[{"internalType":"uint256","name":"gid","type":"uint256"}],"name":"rageQuit","outputs":[],"stateMutability":"nonpayable","type":"function"},{"inputs":[{"internalType":"uint256","name":"gid","type":"uint256"},{"internalType":"uint40","name":"newLen","type":"uint40"}],"name":"scheduleRoundLength","outputs":[],"stateMutability":"nonpayable","type":"function"},{"inputs":[{"internalType":"uint256","name":"gid","type":"uint256"},{"internalType":"bool","name":"_isActive","type":"bool"}],"name":"setGroupStatus","outputs":[],"stateMutability":"nonpayable","type":"function"},{"inputs":[{"internalType":"uint256","name":"disputeId","type":"uint256"},{"internalType":"bool","name":"support","type":"bool"}],"name":"voteOnDispute","outputs":[],"stateMutability":"nonpayable","type":"function"}],"evm":{"bytecode":{"linkReferences":{},"object":"6080806040523461001657611d21908161001c8239f35b600080fdfe6080604052600436101561001257600080fd5b60003560e01c806333471df5146116e157806336cc813014611619578063564a565d1461157057806365f969f61461144b57806370cb0c5014611123578063721b877614610d835780638649cc7114610cf75780638f23b32614610cd957806396324bd414610c015780639de5e76a14610a17578063a28889e1146109f9578063a4f5df121461081e578063bd0e667c1461063e578063c1cbbca7146104f7578063c3a8fb3414610499578063d047ba3a1461037a578063e3a96cbd146102af5763eed02e4b146100e257600080fd5b6020806003193601126102aa576004356100ff6002548210611b4c565b8060005260008252604060002091600283015461012160ff8260101c16611b8f565b60078401933360005284835260ff6040600020541661027257600381019160ff83549160081c16111561023d579060098260017fb48432d11d752c70ca1285f1694027925770caee068f8a63bd561cee738c421995940196875460018060a01b03811615610229575b5033600052845260406000209260ff19936001858254161790556101b133600a8401611b24565b6101bb8154611ada565b90558654336000526008820185526101dc60406000209160a01c8254611ae9565b90553360005201825260016040600020918254161790556040519333847fc0081eeafa0d002abcd7d58d84b6e688d1526b9c3d915a282212ba08c49a17a7600080a35460a01c84523393a3005b6102379060a01c3414611a82565b3861018a565b60405162461bcd60e51b815260048101849052600d60248201526c11dc9bdd5c081a5cc8199d5b1b609a1b6044820152606490fd5b60405162461bcd60e51b815260048101849052601060248201526f20b63932b0b23c90309036b2b6b132b960811b6044820152606490fd5b600080fd5b346102aa5760203660031901126102aa576004356102d06003548210611ca6565b60005260016020526040600020805460018060a01b039182600182015416926002820154169060ff60048201541691600483101561036457600582015461034b600684015492610327600360078701549601611967565b90604051988998895260208901526040880152610100806060890152870190611a0d565b93608086015260a085015260c084015260e08301520390f35b634e487b7160e01b600052602160045260246000fd5b346102aa5760403660031901126102aa5760043560243564ffffffffff8082168092036102aa578260005260006020526103c860018060a01b0360026040600020015460181c163314611c62565b811561045d577f3af0691376f2273ff685cbb860eb0febf6503e61ae043ebdf9e82f1e78da7511916040918460005260006020528260002061044b826104268160068501948764ffffffffff198754161786555460281c1642611ae9565b835469ffffffffff00000000001916911660281b69ffffffffff000000000016178255565b5460281c1682519182526020820152a2005b60405162461bcd60e51b8152602060048201526014602482015273092dcecc2d8d2c840e4deeadcc840d8cadccee8d60631b6044820152606490fd5b346102aa5760403660031901126102aa576004356104b5611a4d565b906104c36003548210611ca6565b600052600160205260086040600020019060018060a01b0316600052602052602060ff604060002054166040519015158152f35b6020806003193601126102aa576004358060005260008252600760406000200133600052825261052e60ff60406000205416611bd1565b8060005260008252604060002061054e60ff600283015460101c16611b8f565b600981013360005280845260ff604060002054166105f9576001820180547fb48432d11d752c70ca1285f1694027925770caee068f8a63bd561cee738c4219939192916008906001600160a01b038316156105e6575b336000520186526105be60406000209160a01c8254611ae9565b90553360005284526040600020600160ff198254161790555460a01c926040519384523393a3005b6105f48360a01c3414611a82565b6105a4565b60405162461bcd60e51b815260048101859052601e60248201527f416c726561647920636f6e7472696275746564207468697320726f756e6400006044820152606490fd5b346102aa5760403660031901126102aa5760043561065a611a4d565b816000526020916000835260018060a01b036106848160026040600020015460181c163314611c62565b816000526000845260406000209281600785019116948560005281815260ff60406000205416156107eb573386146107b0578560005252604060002060ff1981541690556003928381016106d88154611c12565b9055600a0160005b8154808210156107a55786846106f68486611af6565b905490891b1c1614610711575061070c90611ada565b6106e0565b6000959293949519810190811161078f5761076894610763936107376107449387611af6565b9054911b1c169184611af6565b90919082549060031b9160018060a01b03809116831b921b1916179055565b611c1f565b7fe1a5f763ba0fcc4eb5de6b27b4d1c98d436f84455cc77908a79fa0d5b076ab2d600080a3005b634e487b7160e01b600052601160045260246000fd5b505050509050610768565b6064906040519062461bcd60e51b82526004820152601460248201527321b0b73737ba1035b4b1b5903cb7bab939b2b63360611b6044820152fd5b6064906040519062461bcd60e51b82526004820152600c60248201526b2737ba10309036b2b6b132b960a11b6044820152fd5b346102aa5761082c36611a63565b9061083a6003548210611ca6565b80600052602060018152604060002060ff6004820154166004811015610364576001036109bf57600881013360005280835260ff6040600020541661098a5781546000526000835260076040600020013360005283526108a160ff60406000205416611bd1565b6001820154336001600160a01b0391821614159081610979575b501561093457907f910296c2d7f214e2d62a9c4e6e403cc9c5ac4585d96830dbf018e51c75fd082692913360005282526040600020600160ff1982541617905584600014610920576006016109108154611ada565b90555b60405193151584523393a3005b60070161092d8154611ada565b9055610913565b60405162461bcd60e51b815260048101849052601a60248201527f43616e6e6f7420766f7465206f6e206f776e20646973707574650000000000006044820152606490fd5b9050600283015416331415866108bb565b60405162461bcd60e51b815260048101849052600d60248201526c105b1c9958591e481d9bdd1959609a1b6044820152606490fd5b60405162461bcd60e51b815260048101839052601260248201527144697370757465206e6f742061637469766560701b6044820152606490fd5b346102aa5760003660031901126102aa576020600354604051908152f35b346102aa5760203660031901126102aa576004356000610160604051610a3c81611912565b8281528260208201528260408201528260608201528260808201528260a08201528260c08201528260e08201528261010082015282610120820152826101408201520152610a8d6002548210611b4c565b600052600060205261018060406000206101608154916001810154906002810154906003810154600560048301549201549260405194610acc86611912565b64ffffffffff8816865264ffffffffff8860281c16602087015264ffffffffff8860501c16604087015260018060a01b038116606087015260a01c608086015260ff811660a086015260ff8160081c1660c086015260ff8160101c16151560e086015260018060a01b039060181c166101008501526101208401526101408301528282015264ffffffffff6040519316835264ffffffffff602082015116602084015264ffffffffff604082015116604084015260018060a01b0360608201511660608401526001600160601b03608082015116608084015260ff60a08201511660a084015260ff60c08201511660c084015260e0810151151560e084015260018060a01b03610100820151166101008401526101208101516101208401526101408101516101408401520151610160820152f35b346102aa5760203660031901126102aa5760043560005260006020526101c0604060002080546001820154600283015492600381015460048201549060066005840154930154936040519664ffffffffff87818099168a52818160281c1660208b015260501c16604089015260018060a01b039182811660608a015260a01c608089015260ff811660a089015260ff8160081c1660c089015260ff8160101c16151560e089015260181c1661010087015261012086015261014085015261016084015281811661018084015260281c166101a0820152f35b346102aa5760003660031901126102aa576020600254604051908152f35b346102aa5760207fff8c2d2e63957bab874d9ca5d6346941e30498584c608d392cbda1d7b4a85c51610d2836611a63565b8160009492945260008252610d5160018060a01b0360026040600020015460181c163314611c62565b8360005260008252600260406000200190151590805462ff00008360101b169062ff00001916179055604051908152a2005b346102aa5760603660031901126102aa57610d9c611a4d565b67ffffffffffffffff80604435116102aa573660236044350112156102aa5760443560040135116102aa576024903682604435600401356044350101116102aa576004356000526000602052600760406000200133600052602052610e0860ff60406000205416611bd1565b6004356000526000602052600760406000200160018060a01b03821660005260205260ff60406000205416156110e6576001600160a01b03811633146110a25760035490610e5582611ada565b6003558160005260016020526040600020926004358455600184016001600160601b0360a01b903382825416179055600285019060018060a01b03841690825416179055610ea660038501546118d8565b93601f851161104b575b602094506000601f6044356004013511600114610fc1578260009160443560040135610fb2575b50506044356004013560011b906000196044356004013560031b1c19161760038201555b60048101600160ff19825416179055600542910155600435600052600084526005604060002001610f2c8154611ada565b9055604080516001600160a01b03909316835284830181905260046044359081013591840182905290910160608301376000606060443560040135830101523390827f9aa7f961d449c9d85c37435d8c5d901477931ad97d51f48a6a278911166d158660043592606081601f19601f6044356004013501168101030190a4604051908152f35b60443501013590508287610ed7565b60038201600052856000209060005b60046044350135601f19168110611030575060046044350135601f1981161061100c575b5050600160443560040135811b016003820155610efb565b8360001960f86044356004013560031b161c19916044350101351690558580610ff4565b90918760018192878660443501013581550193019101610fd0565b600381016000526020600020601f604435600401350160051c81019560206044356004013510611098575b601f0160051c01945b85811061108c5750610eb0565b6000815560010161107f565b9095508590611076565b60405162461bcd60e51b8152602060048201526017818401527f43616e6e6f74206469737075746520796f757273656c660000000000000000006044820152606490fd5b60405162461bcd60e51b815260206004820152601681840152752232b332b73230b73a103737ba10309036b2b6b132b960511b6044820152606490fd5b60803660031901126102aa576004356001600160a01b038116908190036102aa576024356001600160601b0381168082036102aa576044359264ffffffffff808516908186036102aa576064359060ff8216918281036102aa5785156114065783156113c1576002831015806113b6575b1561137b57841561136b575b600254966111ad88611ada565b600255876000526111fa60209960008b526040600020948a1664ffffffffff19865416178555849069ffffffffff000000000082549160281b169069ffffffffff00000000001916179055565b6112048542611ae9565b835464ffffffffff60501b191660509190911b64ffffffffff60501b1617835560a01b6001600160a01b031916851760018084019190915560028301805460089390931b61ff001662ffffff199093169290921762010001176301000000600160b81b03191633601881901b6301000000600160b81b031691909117909255600383018190556000828152600784018a5260409020805460ff199081169092179055916009916112b790600a8301611b24565b3360005260088101895286604060002055018752600160406000209182541617905560405191848352868301526040820152837f60ecd745d601b8d99cee443ce42caa7c671391023aa3ce0898e712f5ff0b10cf60603393a46040519033837fc0081eeafa0d002abcd7d58d84b6e688d1526b9c3d915a282212ba08c49a17a7600080a38152817fb48432d11d752c70ca1285f1694027925770caee068f8a63bd561cee738c4219843393a3604051908152f35b611376863414611a82565b6111a0565b60405162461bcd60e51b8152602060048201526013602482015272496e76616c6964206d6178206d656d6265727360681b6044820152606490fd5b506032831115611194565b60405162461bcd60e51b815260206004820152601860248201527f526f756e64206c656e677468206d757374206265203e203000000000000000006044820152606490fd5b60405162461bcd60e51b815260206004820152601860248201527f436f6e747269627574696f6e206d757374206265203e203000000000000000006044820152606490fd5b346102aa576020806003193601126102aa57600435908160005260008152600760406000200133600052815261148860ff60406000205416611bd1565b816000526000815260406000209033600052600782018152604060002060ff1981541690556003918281016114bd8154611c12565b9055600a81019060005b825480821015611562576114db8285611af6565b90546001600160a01b0391881b1c811633146115015750506114fc90611ada565b6114c7565b94956000198201959394929091861161078f5761074461152b946107639361073760089987611af6565b336000520190526000604081205533907fe1a5f763ba0fcc4eb5de6b27b4d1c98d436f84455cc77908a79fa0d5b076ab2d600080a3005b50509050600891925061152b565b346102aa5760203660031901126102aa576004356000526001602052604060002080549060018060a01b038060018301541690600283015416906115b660038401611967565b926115f560ff60048301541694600583015494600760068501549401549460405198895260208901526040880152610100806060890152870190611a0d565b926004851015610364578594608086015260a085015260c084015260e08301520390f35b346102aa576020806003193601126102aa5760043561163b6002548210611b4c565b60005260008152600a60406000200160405190818382549182815201908192600052846000209060005b868282106116c457868661167b82880383611945565b604051928392818401908285525180915260408401929160005b8281106116a457505050500390f35b83516001600160a01b031685528695509381019392810192600101611695565b83546001600160a01b031685529093019260019283019201611665565b346102aa576020806003193601126102aa57600435908160005260008152600760406000200133600052815261171e60ff60406000205416611bd1565b816000526000815260406000206001908160ff6002830154161161188457819233600052600782018152604060002060ff19815416905560038083016117648154611c12565b9055600a83016000855b61180e575b5050509091503360005260088201905260406000209081549283159283156117bf575b33867fe1a5f763ba0fcc4eb5de6b27b4d1c98d436f84455cc77908a79fa0d5b076ab2d600080a3005b6000905501546001600160a01b0316156117dc575b808080611796565b600080809381938290611805575b3390f1156117f95781806117d4565b6040513d6000823e3d90fd5b506108fc6117ea565b81548082101561187e576118228284611af6565b90546001600160a01b039291861b1c8216331461184a57505061184490611ada565b8561176e565b9596509394919291600019810190811161078f5761187394610763936107376107449387611af6565b908291858080611773565b50611773565b60405162461bcd60e51b815260048101849052602660248201527f43616e6e6f74206c6561766520616674657220726f756e6473206861766520736044820152651d185c9d195960d21b6064820152608490fd5b90600182811c92168015611908575b60208310146118f257565b634e487b7160e01b600052602260045260246000fd5b91607f16916118e7565b610180810190811067ffffffffffffffff82111761192f57604052565b634e487b7160e01b600052604160045260246000fd5b90601f8019910116810190811067ffffffffffffffff82111761192f57604052565b906040519182600082549261197b846118d8565b9081845260019485811690816000146119ea57506001146119a7575b50506119a592500383611945565b565b9093915060005260209081600020936000915b8183106119d25750506119a593508201013880611997565b855488840185015294850194879450918301916119ba565b9150506119a594506020925060ff191682840152151560051b8201013880611997565b919082519283825260005b848110611a39575050826000602080949584010152601f8019910116010190565b602081830181015184830182015201611a18565b602435906001600160a01b03821682036102aa57565b60409060031901126102aa576004359060243580151581036102aa5790565b15611a8957565b60405162461bcd60e51b815260206004820152602360248201527f4d7573742073656e6420657861637420636f6e747269627574696f6e20616d6f6044820152621d5b9d60ea1b6064820152608490fd5b600019811461078f5760010190565b9190820180921161078f57565b8054821015611b0e5760005260206000200190600090565b634e487b7160e01b600052603260045260246000fd5b908154916801000000000000000083101561192f57826107449160016119a595018155611af6565b15611b5357565b60405162461bcd60e51b815260206004820152601460248201527311dc9bdd5c08191bd95cc81b9bdd08195e1a5cdd60621b6044820152606490fd5b15611b9657565b60405162461bcd60e51b815260206004820152601360248201527247726f7570206973206e6f742061637469766560681b6044820152606490fd5b15611bd857565b60405162461bcd60e51b81526020600482015260126024820152712737ba10309033b937bab81036b2b6b132b960711b6044820152606490fd5b801561078f576000190190565b80548015611c4c576000190190611c368282611af6565b81549060018060a01b039060031b1b1916905555565b634e487b7160e01b600052603160045260246000fd5b15611c6957565b60405162461bcd60e51b81526020600482015260156024820152742737ba103a34329033b937bab81031b932b0ba37b960591b6044820152606490fd5b15611cad57565b60405162461bcd60e51b8152602060048201526016602482015275111a5cdc1d5d1948191bd95cc81b9bdd08195e1a5cdd60521b6044820152606490fdfea2646970667358221220646bfc38b0e36ad0635b171b1b80a293aa4d1d9c71813950cb51af0db083066064736f6c63430008130033","opcodes":"PUSH1 0x80 DUP1 PUSH1 0x40 MSTORE CALLVALUE PUSH2 0x16 JUMPI PUSH2 0x1D21 SWAP1 DUP2 PUSH2 0x1C DUP3 CODECOPY RETURN JUMPDEST PUSH1 0x0 DUP1 REVERT INVALID PUSH1 0x80 PUSH1 0x40 MSTORE PUSH1 0x4 CALLDATASIZE LT ISZERO PUSH2 0x12 JUMPI PUSH1 0x0 DUP1 REVERT JUMPDEST PUSH1 0x0 CALLDATALOAD PUSH1 0xE0 SHR DUP1 PUSH4 0x33471DF5 EQ PUSH2 0x16E1 JUMPI DUP1 PUSH4 0x36CC8130 EQ PUSH2 0x1619 JUMPI DUP1 PUSH4 0x564A565D EQ PUSH2 0x1570 JUMPI DUP1 PUSH4 0x65F969F6 EQ PUSH2 0x144B JUMPI DUP1 PUSH4 0x70CB0C50 EQ PUSH2 0x1123 JUMPI DUP1 PUSH4 0x721B8776 EQ PUSH2 0xD83 JUMPI DUP1 PUSH4 0x8649CC71 EQ PUSH2 0xCF7 JUMPI DUP1 PUSH4 0x8F23B326 EQ PUSH2 0xCD9 JUMPI DUP1 PUSH4 0x96324BD4 EQ PUSH2 0xC01 JUMPI DUP1 PUSH4 0x9DE5E76A EQ PUSH2 0xA17 JUMPI DUP1 PUSH4 0xA28889E1 EQ PUSH2 0x9F9 JUMPI DUP1 PUSH4 0xA4F5DF12 EQ PUSH2 0x81E JUMPI DUP1 PUSH4 0xBD0E667C EQ PUSH2 0x63E JUMPI DUP1 PUSH4 0xC1CBBCA7 EQ PUSH2 0x4F7 JUMPI DUP1 PUSH4 0xC3A8FB34 EQ PUSH2 0x499 JUMPI DUP1 PUSH4 0xD047BA3A EQ PUSH2 0x37A JUMPI DUP1 PUSH4 0xE3A96CBD EQ PUSH2 0x2AF JUMPI PUSH4 0xEED02E4B EQ PUSH2 0xE2 JUMPI PUSH1 0x0 DUP1 REVERT JUMPDEST PUSH1 0x20 DUP1 PUSH1 0x3 NOT CALLDATASIZE ADD SLT PUSH2 0x2AA JUMPI PUSH1 0x4 CALLDATALOAD PUSH2 0xFF PUSH1 0x2 SLOAD DUP3 LT PUSH2 0x1B4C JUMP JUMPDEST DUP1 PUSH1 0x0 MSTORE PUSH1 0x0 DUP3 MSTORE PUSH1 0x40 PUSH1 0x0 KECCAK256 SWAP2 PUSH1 0x2 DUP4 ADD SLOAD PUSH2 0x121 PUSH1 0xFF DUP3 PUSH1 0x10 SHR AND PUSH2 0x1B8F JUMP JUMPDEST PUSH1 0x7 DUP5 ADD SWAP4 CALLER PUSH1 0x0 MSTORE DUP5 DUP4 MSTORE PUSH1 0xFF PUSH1 0x40 PUSH1 0x0 KECCAK256 SLOAD AND PUSH2 0x272 JUMPI PUSH1 0x3 DUP2 ADD SWAP2 PUSH1 0xFF DUP4 SLOAD SWAP2 PUSH1 0x8 SHR AND GT ISZERO PUSH2 0x23D JUMPI SWAP1 PUSH1 0x9 DUP3 PUSH1 0x1 PUSH32 0xB48432D11D752C70CA1285F1694027925770CAEE068F8A63BD561CEE738C4219 SWAP6 SWAP5 ADD SWAP7 DUP8 SLOAD PUSH1 0x1 DUP1 PUSH1 0xA0 SHL SUB DUP2 AND ISZERO PUSH2 0x229 JUMPI JUMPDEST POP CALLER PUSH1 0x0 MSTORE DUP5 MSTORE PUSH1 0x40 PUSH1 0x0 KECCAK256 SWAP3 PUSH1 0xFF NOT SWAP4 PUSH1 0x1 DUP6 DUP3 SLOAD AND OR SWAP1 SSTORE PUSH2 0x1B1 CALLER PUSH1 0xA DUP5 ADD PUSH2 0x1B24 JUMP JUMPDEST PUSH2 0x1BB DUP2 SLOAD PUSH2 0x1ADA JUMP JUMPDEST SWAP1 SSTORE DUP7 SLOAD CALLER PUSH1 0x0 MSTORE PUSH1 0x8 DUP3 ADD DUP6 MSTORE PUSH2 0x1DC PUSH1 0x40 PUSH1 0x0 KECCAK256 SWAP2 PUSH1 0xA0 SHR DUP3 SLOAD PUSH2 0x1AE9 JUMP JUMPDEST SWAP1 SSTORE CALLER PUSH1 0x0 MSTORE ADD DUP3 MSTORE PUSH1 0x1 PUSH1 0x40 PUSH1 0x0 KECCAK256 SWAP2 DUP3 SLOAD AND OR SWAP1 SSTORE PUSH1 0x40 MLOAD SWAP4 CALLER DUP5 PUSH32 0xC0081EEAFA0D002ABCD7D58D84B6E688D1526B9C3D915A282212BA08C49A17A7 PUSH1 0x0 DUP1 LOG3 SLOAD PUSH1 0xA0 SHR DUP5 MSTORE CALLER SWAP4 LOG3 STOP JUMPDEST PUSH2 0x237 SWAP1 PUSH1 0xA0 SHR CALLVALUE EQ PUSH2 0x1A82 JUMP JUMPDEST CODESIZE PUSH2 0x18A JUMP JUMPDEST PUSH1 0x40 MLOAD PUSH3 0x461BCD PUSH1 0xE5 SHL DUP2 MSTORE PUSH1 0x4 DUP2 ADD DUP5 SWAP1 MSTORE PUSH1 0xD PUSH1 0x24 DUP3 ADD MSTORE PUSH13 0x11DC9BDD5C081A5CC8199D5B1B PUSH1 0x9A SHL PUSH1 0x44 DUP3 ADD MSTORE PUSH1 0x64 SWAP1 REVERT JUMPDEST PUSH1 0x40 MLOAD PUSH3 0x461BCD PUSH1 0xE5 SHL DUP2 MSTORE PUSH1 0x4 DUP2 ADD DUP5 SWAP1 MSTORE PUSH1 0x10 PUSH1 0x24 DUP3 ADD MSTORE PUSH16 0x20B63932B0B23C90309036B2B6B132B9 PUSH1 0x81 SHL PUSH1 0x44 DUP3 ADD MSTORE PUSH1 0x64 SWAP1 REVERT JUMPDEST PUSH1 0x0 DUP1 REVERT JUMPDEST CALLVALUE PUSH2 0x2AA JUMPI PUSH1 0x20 CALLDATASIZE PUSH1 0x3 NOT ADD SLT PUSH2 0x2AA JUMPI PUSH1 0x4 CALLDATALOAD PUSH2 0x2D0 PUSH1 0x3 SLOAD DUP3 LT PUSH2 0x1CA6 JUMP JUMPDEST PUSH1 0x0 MSTORE PUSH1 0x1 PUSH1 0x20 MSTORE PUSH1 0x40 PUSH1 0x0 KECCAK256 DUP1 SLOAD PUSH1 0x1 DUP1 PUSH1 0xA0 SHL SUB SWAP2 DUP3 PUSH1 0x1 DUP3 ADD SLOAD AND SWAP3 PUSH1 0x2 DUP3 ADD SLOAD AND SWAP1 PUSH1 0xFF PUSH1 0x4 DUP3 ADD SLOAD AND SWAP2 PUSH1 0x4 DUP4 LT ISZERO PUSH2 0x364 JUMPI PUSH1 0x5 DUP3 ADD SLOAD PUSH2 0x34B PUSH1 0x6 DUP5 ADD SLOAD SWAP3 PUSH2 0x327 PUSH1 0x3 PUSH1 0x7 DUP8 ADD SLOAD SWAP7 ADD PUSH2 0x1967 JUMP JUMPDEST SWAP1 PUSH1 0x40 MLOAD SWAP9 DUP10 SWAP9 DUP10 MSTORE PUSH1 0x20 DUP10 ADD MSTORE PUSH1 0x40 DUP9 ADD MSTORE PUSH2 0x100 DUP1 PUSH1 0x60 DUP10 ADD MSTORE DUP8 ADD SWAP1 PUSH2 0x1A0D JUMP JUMPDEST SWAP4 PUSH1 0x80 DUP7 ADD MSTORE PUSH1 0xA0 DUP6 ADD MSTORE PUSH1 0xC0 DUP5 ADD MSTORE PUSH1 0xE0 DUP4 ADD MSTORE SUB SWAP1 RETURN JUMPDEST PUSH4 0x4E487B71 PUSH1 0xE0 SHL PUSH1 0x0 MSTORE PUSH1 0x21 PUSH1 0x4 MSTORE PUSH1 0x24 PUSH1 0x0 REVERT JUMPDEST CALLVALUE PUSH2 0x2AA JUMPI PUSH1 0x40 CALLDATASIZE PUSH1 0x3 NOT ADD SLT PUSH2 0x2AA JUMPI PUSH1 0x4 CALLDATALOAD PUSH1 0x24 CALLDATALOAD PUSH5 0xFFFFFFFFFF DUP1 DUP3 AND DUP1 SWAP3 SUB PUSH2 0x2AA JUMPI DUP3 PUSH1 0x0 MSTORE PUSH1 0x0 PUSH1 0x20 MSTORE PUSH2 0x3C8 PUSH1 0x1 DUP1 PUSH1 0xA0 SHL SUB PUSH1 0x2 PUSH1 0x40 PUSH1 0x0 KECCAK256 ADD SLOAD PUSH1 0x18 SHR AND CALLER EQ PUSH2 0x1C62 JUMP JUMPDEST DUP2 ISZERO PUSH2 0x45D JUMPI PUSH32 0x3AF0691376F2273FF685CBB860EB0FEBF6503E61AE043EBDF9E82F1E78DA7511 SWAP2 PUSH1 0x40 SWAP2 DUP5 PUSH1 0x0 MSTORE PUSH1 0x0 PUSH1 0x20 MSTORE DUP3 PUSH1 0x0 KECCAK256 PUSH2 0x44B DUP3 PUSH2 0x426 DUP2 PUSH1 0x6 DUP6 ADD SWAP5 DUP8 PUSH5 0xFFFFFFFFFF NOT DUP8 SLOAD AND OR DUP7 SSTORE SLOAD PUSH1 0x28 SHR AND TIMESTAMP PUSH2 0x1AE9 JUMP JUMPDEST DUP4 SLOAD PUSH10 0xFFFFFFFFFF0000000000 NOT AND SWAP2 AND PUSH1 0x28 SHL PUSH10 0xFFFFFFFFFF0000000000 AND OR DUP3 SSTORE JUMP JUMPDEST SLOAD PUSH1 0x28 SHR AND DUP3 MLOAD SWAP2 DUP3 MSTORE PUSH1 0x20 DUP3 ADD MSTORE LOG2 STOP JUMPDEST PUSH1 0x40 MLOAD PUSH3 0x461BCD PUSH1 0xE5 SHL DUP2 MSTORE PUSH1 0x20 PUSH1 0x4 DUP3 ADD MSTORE PUSH1 0x14 PUSH1 0x24 DUP3 ADD MSTORE PUSH20 0x92DCECC2D8D2C840E4DEEADCC840D8CADCCEE8D PUSH1 0x63 SHL PUSH1 0x44 DUP3 ADD MSTORE PUSH1 0x64 SWAP1 REVERT JUMPDEST CALLVALUE PUSH2 0x2AA JUMPI PUSH1 0x40 CALLDATASIZE PUSH1 0x3 NOT ADD SLT PUSH2 0x2AA JUMPI PUSH1 0x4 CALLDATALOAD PUSH2 0x4B5 PUSH2 0x1A4D JUMP JUMPDEST SWAP1 PUSH2 0x4C3 PUSH1 0x3 SLOAD DUP3 LT PUSH2 0x1CA6 JUMP JUMPDEST PUSH1 0x0 MSTORE PUSH1 0x1 PUSH1 0x20 MSTORE PUSH1 0x8 PUSH1 0x40 PUSH1 0x0 KECCAK256 ADD SWAP1 PUSH1 0x1 DUP1 PUSH1 0xA0 SHL SUB AND PUSH1 0x0 MSTORE PUSH1 0x20 MSTORE PUSH1 0x20 PUSH1 0xFF PUSH1 0x40 PUSH1 0x0 KECCAK256 SLOAD AND PUSH1 0x40 MLOAD SWAP1 ISZERO ISZERO DUP2 MSTORE RETURN JUMPDEST PUSH1 0x20 DUP1 PUSH1 0x3 NOT CALLDATASIZE ADD SLT PUSH2 0x2AA JUMPI PUSH1 0x4 CALLDATALOAD DUP1 PUSH1 0x0 MSTORE PUSH1 0x0 DUP3 MSTORE PUSH1 0x7 PUSH1 0x40 PUSH1 0x0 KECCAK256 ADD CALLER PUSH1 0x0 MSTORE DUP3 MSTORE PUSH2 0x52E PUSH1 0xFF PUSH1 0x40 PUSH1 0x0 KECCAK256 SLOAD AND PUSH2 0x1BD1 JUMP JUMPDEST DUP1 PUSH1 0x0 MSTORE PUSH1 0x0 DUP3 MSTORE PUSH1 0x40 PUSH1 0x0 KECCAK256 PUSH2 0x54E PUSH1 0xFF PUSH1 0x2 DUP4 ADD SLOAD PUSH1 0x10 SHR AND PUSH2 0x1B8F JUMP JUMPDEST PUSH1 0x9 DUP2 ADD CALLER PUSH1 0x0 MSTORE DUP1 DUP5 MSTORE PUSH1 0xFF PUSH1 0x40 PUSH1 0x0 KECCAK256 SLOAD AND PUSH2 0x5F9 JUMPI PUSH1 0x1 DUP3 ADD DUP1 SLOAD PUSH32 0xB48432D11D752C70CA1285F1694027925770CAEE068F8A63BD561CEE738C4219 SWAP4 SWAP2 SWAP3 SWAP2 PUSH1 0x8 SWAP1 PUSH1 0x1 PUSH1 0x1 PUSH1 0xA0 SHL SUB DUP4 AND ISZERO PUSH2 0x5E6 JUMPI JUMPDEST CALLER PUSH1 0x0 MSTORE ADD DUP7 MSTORE PUSH2 0x5BE PUSH1 0x40 PUSH1 0x0 KECCAK256 SWAP2 PUSH1 0xA0 SHR DUP3 SLOAD PUSH2 0x1AE9 JUMP JUMPDEST SWAP1 SSTORE CALLER PUSH1 0x0 MSTORE DUP5 MSTORE PUSH1 0x40 PUSH1 0x0 KECCAK256 PUSH1 0x1 PUSH1 0xFF NOT DUP3 SLOAD AND OR SWAP1 SSTORE SLOAD PUSH1 0xA0 SHR SWAP3 PUSH1 0x40 MLOAD SWAP4 DUP5 MSTORE CALLER SWAP4 LOG3 STOP JUMPDEST PUSH2 0x5F4 DUP4 PUSH1 0xA0 SHR CALLVALUE EQ PUSH2 0x1A82 JUMP JUMPDEST PUSH2 0x5A4 JUMP JUMPDEST PUSH1 0x40 MLOAD PUSH3 0x461BCD PUSH1 0xE5 SHL DUP2 MSTORE PUSH1 0x4 DUP2 ADD DUP6 SWAP1 MSTORE PUSH1 0x1E PUSH1 0x24 DUP3 ADD MSTORE PUSH32 0x416C726561647920636F6E7472696275746564207468697320726F756E640000 PUSH1 0x44 DUP3 ADD MSTORE PUSH1 0x64 SWAP1 REVERT JUMPDEST CALLVALUE PUSH2 0x2AA JUMPI PUSH1 0x40 CALLDATASIZE PUSH1 0x3 NOT ADD SLT PUSH2 0x2AA JUMPI PUSH1 0x4 CALLDATALOAD PUSH2 0x65A PUSH2 0x1A4D JUMP JUMPDEST DUP2 PUSH1 0x0 MSTORE PUSH1 0x20 SWAP2 PUSH1 0x0 DUP4 MSTORE PUSH1 0x1 DUP1 PUSH1 0xA0 SHL SUB PUSH2 0x684 DUP2 PUSH1 0x2 PUSH1 0x40 PUSH1 0x0 KECCAK256 ADD SLOAD PUSH1 0x18 SHR AND CALLER EQ PUSH2 0x1C62 JUMP JUMPDEST DUP2 PUSH1 0x0 MSTORE PUSH1 0x0 DUP5 MSTORE PUSH1 0x40 PUSH1 0x0 KECCAK256 SWAP3 DUP2 PUSH1 0x7 DUP6 ADD SWAP2 AND SWAP5 DUP6 PUSH1 0x0 MSTORE DUP2 DUP2 MSTORE PUSH1 0xFF PUSH1 0x40 PUSH1 0x0 KECCAK256 SLOAD AND ISZERO PUSH2 0x7EB JUMPI CALLER DUP7 EQ PUSH2 0x7B0 JUMPI DUP6 PUSH1 0x0 MSTORE MSTORE PUSH1 0x40 PUSH1 0x0 KECCAK256 PUSH1 0xFF NOT DUP2 SLOAD AND SWAP1 SSTORE PUSH1 0x3 SWAP3 DUP4 DUP2 ADD PUSH2 0x6D8 DUP2 SLOAD PUSH2 0x1C12 JUMP JUMPDEST SWAP1 SSTORE PUSH1 0xA ADD PUSH1 0x0 JUMPDEST DUP2 SLOAD DUP1 DUP3 LT ISZERO PUSH2 0x7A5 JUMPI DUP7 DUP5 PUSH2 0x6F6 DUP5 DUP7 PUSH2 0x1AF6 JUMP JUMPDEST SWAP1 SLOAD SWAP1 DUP10 SHL SHR AND EQ PUSH2 0x711 JUMPI POP PUSH2 0x70C SWAP1 PUSH2 0x1ADA JUMP JUMPDEST PUSH2 0x6E0 JUMP JUMPDEST PUSH1 0x0 SWAP6 SWAP3 SWAP4 SWAP5 SWAP6 NOT DUP2 ADD SWAP1 DUP2 GT PUSH2 0x78F JUMPI PUSH2 0x768 SWAP5 PUSH2 0x763 SWAP4 PUSH2 0x737 PUSH2 0x744 SWAP4 DUP8 PUSH2 0x1AF6 JUMP JUMPDEST SWAP1 SLOAD SWAP2 SHL SHR AND SWAP2 DUP5 PUSH2 0x1AF6 JUMP JUMPDEST SWAP1 SWAP2 SWAP1 DUP3 SLOAD SWAP1 PUSH1 0x3 SHL SWAP2 PUSH1 0x1 DUP1 PUSH1 0xA0 SHL SUB DUP1 SWAP2 AND DUP4 SHL SWAP3 SHL NOT AND OR SWAP1 SSTORE JUMP JUMPDEST PUSH2 0x1C1F JUMP JUMPDEST PUSH32 0xE1A5F763BA0FCC4EB5DE6B27B4D1C98D436F84455CC77908A79FA0D5B076AB2D PUSH1 0x0 DUP1 LOG3 STOP JUMPDEST PUSH4 0x4E487B71 PUSH1 0xE0 SHL PUSH1 0x0 MSTORE PUSH1 0x11 PUSH1 0x4 MSTORE PUSH1 0x24 PUSH1 0x0 REVERT JUMPDEST POP POP POP POP SWAP1 POP PUSH2 0x768 JUMP JUMPDEST PUSH1 0x64 SWAP1 PUSH1 0x40 MLOAD SWAP1 PUSH3 0x461BCD PUSH1 0xE5 SHL DUP3 MSTORE PUSH1 0x4 DUP3 ADD MSTORE PUSH1 0x14 PUSH1 0x24 DUP3 ADD MSTORE PUSH20 0x21B0B73737BA1035B4B1B5903CB7BAB939B2B633 PUSH1 0x61 SHL PUSH1 0x44 DUP3 ADD MSTORE REVERT JUMPDEST PUSH1 0x64 SWAP1 PUSH1 0x40 MLOAD SWAP1 PUSH3 0x461BCD PUSH1 0xE5 SHL DUP3 MSTORE PUSH1 0x4 DUP3 ADD MSTORE PUSH1 0xC PUSH1 0x24 DUP3 ADD MSTORE PUSH12 0x2737BA10309036B2B6B132B9 PUSH1 0xA1 SHL PUSH1 0x44 DUP3 ADD MSTORE REVERT JUMPDEST CALLVALUE PUSH2 0x2AA JUMPI PUSH2 0x82C CALLDATASIZE PUSH2 0x1A63 JUMP JUMPDEST SWAP1 PUSH2 0x83A PUSH1 0x3 SLOAD DUP3 LT PUSH2 0x1CA6 JUMP JUMPDEST DUP1 PUSH1 0x0 MSTORE PUSH1 0x20 PUSH1 0x1 DUP2 MSTORE PUSH1 0x40 PUSH1 0x0 KECCAK256 PUSH1 0xFF PUSH1 0x4 DUP3 ADD SLOAD AND PUSH1 0x4 DUP2 LT ISZERO PUSH2 0x364 JUMPI PUSH1 0x1 SUB PUSH2 0x9BF JUMPI PUSH1 0x8 DUP2 ADD CALLER PUSH1 0x0 MSTORE DUP1 DUP4 MSTORE PUSH1 0xFF PUSH1 0x40 PUSH1 0x0 KECCAK256 SLOAD AND PUSH2 0x98A JUMPI DUP2 SLOAD PUSH1 0x0 MSTORE PUSH1 0x0 DUP4 MSTORE PUSH1 0x7 PUSH1 0x40 PUSH1 0x0 KECCAK256 ADD CALLER PUSH1 0x0 MSTORE DUP4 MSTORE PUSH2 0x8A1 PUSH1 0xFF PUSH1 0x40 PUSH1 0x0 KECCAK256 SLOAD AND PUSH2 0x1BD1 JUMP JUMPDEST PUSH1 0x1 DUP3 ADD SLOAD CALLER PUSH1 0x1 PUSH1 0x1 PUSH1 0xA0 SHL SUB SWAP2 DUP3 AND EQ ISZERO SWAP1 DUP2 PUSH2 0x979 JUMPI JUMPDEST POP ISZERO PUSH2 0x934 JUMPI SWAP1 PUSH32 0x910296C2D7F214E2D62A9C4E6E403CC9C5AC4585D96830DBF018E51C75FD0826 SWAP3 SWAP2 CALLER PUSH1 0x0 MSTORE DUP3 MSTORE PUSH1 0x40 PUSH1 0x0 KECCAK256 PUSH1 0x1 PUSH1 0xFF NOT DUP3 SLOAD AND OR SWAP1 SSTORE DUP5 PUSH1 0x0 EQ PUSH2 0x920 JUMPI PUSH1 0x6 ADD PUSH2 0x910 DUP2 SLOAD PUSH2 0x1ADA JUMP JUMPDEST SWAP1 SSTORE JUMPDEST PUSH1 0x40 MLOAD SWAP4 ISZERO ISZERO DUP5 MSTORE CALLER SWAP4 LOG3 STOP JUMPDEST PUSH1 0x7 ADD PUSH2 0x92D DUP2 SLOAD PUSH2 0x1ADA JUMP JUMPDEST SWAP1 SSTORE PUSH2 0x913 JUMP JUMPDEST PUSH1 0x40 MLOAD PUSH3 0x461BCD PUSH1 0xE5 SHL DUP2 MSTORE PUSH1 0x4 DUP2 ADD DUP5 SWAP1 MSTORE PUSH1 0x1A PUSH1 0x24 DUP3 ADD MSTORE PUSH32 0x43616E6E6F7420766F7465206F6E206F776E2064697370757465000000000000 PUSH1 0x44 DUP3 ADD MSTORE PUSH1 0x64 SWAP1 REVERT JUMPDEST SWAP1 POP PUSH1 0x2 DUP4 ADD SLOAD AND CALLER EQ ISZERO DUP7 PUSH2 0x8BB JUMP JUMPDEST PUSH1 0x40 MLOAD PUSH3 0x461BCD PUSH1 0xE5 SHL DUP2 MSTORE PUSH1 0x4 DUP2 ADD DUP5 SWAP1 MSTORE PUSH1 0xD PUSH1 0x24 DUP3 ADD MSTORE PUSH13 0x105B1C9958591E481D9BDD1959 PUSH1 0x9A SHL PUSH1 0x44 DUP3 ADD MSTORE PUSH1 0x64 SWAP1 REVERT JUMPDEST PUSH1 0x40 MLOAD PUSH3 0x461BCD PUSH1 0xE5 SHL DUP2 MSTORE PUSH1 0x4 DUP2 ADD DUP4 SWAP1 MSTORE PUSH1 0x12 PUSH1 0x24 DUP3 ADD MSTORE PUSH18 0x44697370757465206E6F7420616374697665 PUSH1 0x70 SHL PUSH1 0x44 DUP3 ADD MSTORE PUSH1 0x64 SWAP1 REVERT JUMPDEST CALLVALUE PUSH2 0x2AA JUMPI PUSH1 0x0 CALLDATASIZE PUSH1 0x3 NOT ADD SLT PUSH2 0x2AA JUMPI PUSH1 0x20 PUSH1 0x3 SLOAD PUSH1 0x40 MLOAD SWAP1 DUP2 MSTORE RETURN JUMPDEST CALLVALUE PUSH2 0x2AA JUMPI PUSH1 0x20 CALLDATASIZE PUSH1 0x3 NOT ADD SLT PUSH2 0x2AA JUMPI PUSH1 0x4 CALLDATALOAD PUSH1 0x0 PUSH2 0x160 PUSH1 0x40 MLOAD PUSH2 0xA3C DUP2 PUSH2 0x1912 JUMP JUMPDEST DUP3 DUP2 MSTORE DUP3 PUSH1 0x20 DUP3 ADD MSTORE DUP3 PUSH1 0x40 DUP3 ADD MSTORE DUP3 PUSH1 0x60 DUP3 ADD MSTORE DUP3 PUSH1 0x80 DUP3 ADD MSTORE DUP3 PUSH1 0xA0 DUP3 ADD MSTORE DUP3 PUSH1 0xC0 DUP3 ADD MSTORE DUP3 PUSH1 0xE0 DUP3 ADD MSTORE DUP3 PUSH2 0x100 DUP3 ADD MSTORE DUP3 PUSH2 0x120 DUP3 ADD MSTORE DUP3 PUSH2 0x140 DUP3 ADD MSTORE ADD MSTORE PUSH2 0xA8D PUSH1 0x2 SLOAD DUP3 LT PUSH2 0x1B4C JUMP JUMPDEST PUSH1 0x0 MSTORE PUSH1 0x0 PUSH1 0x20 MSTORE PUSH2 0x180 PUSH1 0x40 PUSH1 0x0 KECCAK256 PUSH2 0x160 DUP2 SLOAD SWAP2 PUSH1 0x1 DUP2 ADD SLOAD SWAP1 PUSH1 0x2 DUP2 ADD SLOAD SWAP1 PUSH1 0x3 DUP2 ADD SLOAD PUSH1 0x5 PUSH1 0x4 DUP4 ADD SLOAD SWAP3 ADD SLOAD SWAP3 PUSH1 0x40 MLOAD SWAP5 PUSH2 0xACC DUP7 PUSH2 0x1912 JUMP JUMPDEST PUSH5 0xFFFFFFFFFF DUP9 AND DUP7 MSTORE PUSH5 0xFFFFFFFFFF DUP9 PUSH1 0x28 SHR AND PUSH1 0x20 DUP8 ADD MSTORE PUSH5 0xFFFFFFFFFF DUP9 PUSH1 0x50 SHR AND PUSH1 0x40 DUP8 ADD MSTORE PUSH1 0x1 DUP1 PUSH1 0xA0 SHL SUB DUP2 AND PUSH1 0x60 DUP8 ADD MSTORE PUSH1 0xA0 SHR PUSH1 0x80 DUP7 ADD MSTORE PUSH1 0xFF DUP2 AND PUSH1 0xA0 DUP7 ADD MSTORE PUSH1 0xFF DUP2 PUSH1 0x8 SHR AND PUSH1 0xC0 DUP7 ADD MSTORE PUSH1 0xFF DUP2 PUSH1 0x10 SHR AND ISZERO ISZERO PUSH1 0xE0 DUP7 ADD MSTORE PUSH1 0x1 DUP1 PUSH1 0xA0 SHL SUB SWAP1 PUSH1 0x18 SHR AND PUSH2 0x100 DUP6 ADD MSTORE PUSH2 0x120 DUP5 ADD MSTORE PUSH2 0x140 DUP4 ADD MSTORE DUP3 DUP3 ADD MSTORE PUSH5 0xFFFFFFFFFF PUSH1 0x40 MLOAD SWAP4 AND DUP4 MSTORE PUSH5 0xFFFFFFFFFF PUSH1 0x20 DUP3 ADD MLOAD AND PUSH1 0x20 DUP5 ADD MSTORE PUSH5 0xFFFFFFFFFF PUSH1 0x40 DUP3 ADD MLOAD AND PUSH1 0x40 DUP5 ADD MSTORE PUSH1 0x1 DUP1 PUSH1 0xA0 SHL SUB PUSH1 0x60 DUP3 ADD MLOAD AND PUSH1 0x60 DUP5 ADD MSTORE PUSH1 0x1 PUSH1 0x1 PUSH1 0x60 SHL SUB PUSH1 0x80 DUP3 ADD MLOAD AND PUSH1 0x80 DUP5 ADD MSTORE PUSH1 0xFF PUSH1 0xA0 DUP3 ADD MLOAD AND PUSH1 0xA0 DUP5 ADD MSTORE PUSH1 0xFF PUSH1 0xC0 DUP3 ADD MLOAD AND PUSH1 0xC0 DUP5 ADD MSTORE PUSH1 0xE0 DUP2 ADD MLOAD ISZERO ISZERO PUSH1 0xE0 DUP5 ADD MSTORE PUSH1 0x1 DUP1 PUSH1 0xA0 SHL SUB PUSH2 0x100 DUP3 ADD MLOAD AND PUSH2 0x100 DUP5 ADD MSTORE PUSH2 0x120 DUP2 ADD MLOAD PUSH2 0x120 DUP5 ADD MSTORE PUSH2 0x140 DUP2 ADD MLOAD PUSH2 0x140 DUP5 ADD MSTORE ADD MLOAD PUSH2 0x160 DUP3 ADD MSTORE RETURN JUMPDEST CALLVALUE PUSH2 0x2AA JUMPI PUSH1 0x20 CALLDATASIZE PUSH1 0x3 NOT ADD SLT PUSH2 0x2AA JUMPI PUSH1 0x4 CALLDATALOAD PUSH1 0x0 MSTORE PUSH1 0x0 PUSH1 0x20 MSTORE PUSH2 0x1C0 PUSH1 0x40 PUSH1 0x0 KECCAK256 DUP1 SLOAD PUSH1 0x1 DUP3 ADD SLOAD PUSH1 0x2 DUP4 ADD SLOAD SWAP3 PUSH1 0x3 DUP2 ADD SLOAD PUSH1 0x4 DUP3 ADD SLOAD SWAP1 PUSH1 0x6 PUSH1 0x5 DUP5 ADD SLOAD SWAP4 ADD SLOAD SWAP4 PUSH1 0x40 MLOAD SWAP7 PUSH5 0xFFFFFFFFFF DUP8 DUP2 DUP1 SWAP10 AND DUP11 MSTORE DUP2 DUP2 PUSH1 0x28 SHR AND PUSH1 0x20 DUP12 ADD MSTORE PUSH1 0x50 SHR AND PUSH1 0x40 DUP10 ADD MSTORE PUSH1 0x1 DUP1 PUSH1 0xA0 SHL SUB SWAP2 DUP3 DUP2 AND PUSH1 0x60 DUP11 ADD MSTORE PUSH1 0xA0 SHR PUSH1 0x80 DUP10 ADD MSTORE PUSH1 0xFF DUP2 AND PUSH1 0xA0 DUP10 ADD MSTORE PUSH1 0xFF DUP2 PUSH1 0x8 SHR AND PUSH1 0xC0 DUP10 ADD MSTORE PUSH1 0xFF DUP2 PUSH1 0x10 SHR AND ISZERO ISZERO PUSH1 0xE0 DUP10 ADD MSTORE PUSH1 0x18 SHR AND PUSH2 0x100 DUP8 ADD MSTORE PUSH2 0x120 DUP7 ADD MSTORE PUSH2 0x140 DUP6 ADD MSTORE PUSH2 0x160 DUP5 ADD MSTORE DUP2 DUP2 AND PUSH2 0x180 DUP5 ADD MSTORE PUSH1 0x28 SHR AND PUSH2 0x1A0 DUP3 ADD MSTORE RETURN JUMPDEST CALLVALUE PUSH2 0x2AA JUMPI PUSH1 0x0 CALLDATASIZE PUSH1 0x3 NOT ADD SLT PUSH2 0x2AA JUMPI PUSH1 0x20 PUSH1 0x2 SLOAD PUSH1 0x40 MLOAD SWAP1 DUP2 MSTORE RETURN JUMPDEST CALLVALUE PUSH2 0x2AA JUMPI PUSH1 0x20 PUSH32 0xFF8C2D2E63957BAB874D9CA5D6346941E30498584C608D392CBDA1D7B4A85C51 PUSH2 0xD28 CALLDATASIZE PUSH2 0x1A63 JUMP JUMPDEST DUP2 PUSH1 0x0 SWAP5 SWAP3 SWAP5 MSTORE PUSH1 0x0 DUP3 MSTORE PUSH2 0xD51 PUSH1 0x1 DUP1 PUSH1 0xA0 SHL SUB PUSH1 0x2 PUSH1 0x40 PUSH1 0x0 KECCAK256 ADD SLOAD PUSH1 0x18 SHR AND CALLER EQ PUSH2 0x1C62 JUMP JUMPDEST DUP4 PUSH1 0x0 MSTORE PUSH1 0x0 DUP3 MSTORE PUSH1 0x2 PUSH1 0x40 PUSH1 0x0 KECCAK256 ADD SWAP1 ISZERO ISZERO SWAP1 DUP1 SLOAD PUSH3 0xFF0000 DUP4 PUSH1 0x10 SHL AND SWAP1 PUSH3 0xFF0000 NOT AND OR SWAP1 SSTORE PUSH1 0x40 MLOAD SWAP1 DUP2 MSTORE LOG2 STOP JUMPDEST CALLVALUE PUSH2 0x2AA JUMPI PUSH1 0x60 CALLDATASIZE PUSH1 0x3 NOT ADD SLT PUSH2 0x2AA JUMPI PUSH2 0xD9C PUSH2 0x1A4D JUMP JUMPDEST PUSH8 0xFFFFFFFFFFFFFFFF DUP1 PUSH1 0x44 CALLDATALOAD GT PUSH2 0x2AA JUMPI CALLDATASIZE PUSH1 0x23 PUSH1 0x44 CALLDATALOAD ADD SLT ISZERO PUSH2 0x2AA JUMPI PUSH1 0x44 CALLDATALOAD PUSH1 0x4 ADD CALLDATALOAD GT PUSH2 0x2AA JUMPI PUSH1 0x24 SWAP1 CALLDATASIZE DUP3 PUSH1 0x44 CALLDATALOAD PUSH1 0x4 ADD CALLDATALOAD PUSH1 0x44 CALLDATALOAD ADD ADD GT PUSH2 0x2AA JUMPI PUSH1 0x4 CALLDATALOAD PUSH1 0x0 MSTORE PUSH1 0x0 PUSH1 0x20 MSTORE PUSH1 0x7 PUSH1 0x40 PUSH1 0x0 KECCAK256 ADD CALLER PUSH1 0x0 MSTORE PUSH1 0x20 MSTORE PUSH2 0xE08 PUSH1 0xFF PUSH1 0x40 PUSH1 0x0 KECCAK256 SLOAD AND PUSH2 0x1BD1 JUMP JUMPDEST PUSH1 0x4 CALLDATALOAD PUSH1 0x0 MSTORE PUSH1 0x0 PUSH1 0x20 MSTORE PUSH1 0x7 PUSH1 0x40 PUSH1 0x0 KECCAK256 ADD PUSH1 0x1 DUP1 PUSH1 0xA0 SHL SUB DUP3 AND PUSH1 0x0 MSTORE PUSH1 0x20 MSTORE PUSH1 0xFF PUSH1 0x40 PUSH1 0x0 KECCAK256 SLOAD AND ISZERO PUSH2 0x10E6 JUMPI PUSH1 0x1 PUSH1 0x1 PUSH1 0xA0 SHL SUB DUP2 AND CALLER EQ PUSH2 0x10A2 JUMPI PUSH1 0x3 SLOAD SWAP1 PUSH2 0xE55 DUP3 PUSH2 0x1ADA JUMP JUMPDEST PUSH1 0x3 SSTORE DUP2 PUSH1 0x0 MSTORE PUSH1 0x1 PUSH1 0x20 MSTORE PUSH1 0x40 PUSH1 0x0 KECCAK256 SWAP3 PUSH1 0x4 CALLDATALOAD DUP5 SSTORE PUSH1 0x1 DUP5 ADD PUSH1 0x1 PUSH1 0x1 PUSH1 0x60 SHL SUB PUSH1 0xA0 SHL SWAP1 CALLER DUP3 DUP3 SLOAD AND OR SWAP1 SSTORE PUSH1 0x2 DUP6 ADD SWAP1 PUSH1 0x1 DUP1 PUSH1 0xA0 SHL SUB DUP5 AND SWAP1 DUP3 SLOAD AND OR SWAP1 SSTORE PUSH2 0xEA6 PUSH1 0x3 DUP6 ADD SLOAD PUSH2 0x18D8 JUMP JUMPDEST SWAP4 PUSH1 0x1F DUP6 GT PUSH2 0x104B JUMPI JUMPDEST PUSH1 0x20 SWAP5 POP PUSH1 0x0 PUSH1 0x1F PUSH1 0x44 CALLDATALOAD PUSH1 0x4 ADD CALLDATALOAD GT PUSH1 0x1 EQ PUSH2 0xFC1 JUMPI DUP3 PUSH1 0x0 SWAP2 PUSH1 0x44 CALLDATALOAD PUSH1 0x4 ADD CALLDATALOAD PUSH2 0xFB2 JUMPI JUMPDEST POP POP PUSH1 0x44 CALLDATALOAD PUSH1 0x4 ADD CALLDATALOAD PUSH1 0x1 SHL SWAP1 PUSH1 0x0 NOT PUSH1 0x44 CALLDATALOAD PUSH1 0x4 ADD CALLDATALOAD PUSH1 0x3 SHL SHR NOT AND OR PUSH1 0x3 DUP3 ADD SSTORE JUMPDEST PUSH1 0x4 DUP2 ADD PUSH1 0x1 PUSH1 0xFF NOT DUP3 SLOAD AND OR SWAP1 SSTORE PUSH1 0x5 TIMESTAMP SWAP2 ADD SSTORE PUSH1 0x4 CALLDATALOAD PUSH1 0x0 MSTORE PUSH1 0x0 DUP5 MSTORE PUSH1 0x5 PUSH1 0x40 PUSH1 0x0 KECCAK256 ADD PUSH2 0xF2C DUP2 SLOAD PUSH2 0x1ADA JUMP JUMPDEST SWAP1 SSTORE PUSH1 0x40 DUP1 MLOAD PUSH1 0x1 PUSH1 0x1 PUSH1 0xA0 SHL SUB SWAP1 SWAP4 AND DUP4 MSTORE DUP5 DUP4 ADD DUP2 SWAP1 MSTORE PUSH1 0x4 PUSH1 0x44 CALLDATALOAD SWAP1 DUP2 ADD CALLDATALOAD SWAP2 DUP5 ADD DUP3 SWAP1 MSTORE SWAP1 SWAP2 ADD PUSH1 0x60 DUP4 ADD CALLDATACOPY PUSH1 0x0 PUSH1 0x60 PUSH1 0x44 CALLDATALOAD PUSH1 0x4 ADD CALLDATALOAD DUP4 ADD ADD MSTORE CALLER SWAP1 DUP3 PUSH32 0x9AA7F961D449C9D85C37435D8C5D901477931AD97D51F48A6A278911166D1586 PUSH1 0x4 CALLDATALOAD SWAP3 PUSH1 0x60 DUP2 PUSH1 0x1F NOT PUSH1 0x1F PUSH1 0x44 CALLDATALOAD PUSH1 0x4 ADD CALLDATALOAD ADD AND DUP2 ADD SUB ADD SWAP1 LOG4 PUSH1 0x40 MLOAD SWAP1 DUP2 MSTORE RETURN JUMPDEST PUSH1 0x44 CALLDATALOAD ADD ADD CALLDATALOAD SWAP1 POP DUP3 DUP8 PUSH2 0xED7 JUMP JUMPDEST PUSH1 0x3 DUP3 ADD PUSH1 0x0 MSTORE DUP6 PUSH1 0x0 KECCAK256 SWAP1 PUSH1 0x0 JUMPDEST PUSH1 0x4 PUSH1 0x44 CALLDATALOAD ADD CALLDATALOAD PUSH1 0x1F NOT AND DUP2 LT PUSH2 0x1030 JUMPI POP PUSH1 0x4 PUSH1 0x44 CALLDATALOAD ADD CALLDATALOAD PUSH1 0x1F NOT DUP2 AND LT PUSH2 0x100C JUMPI JUMPDEST POP POP PUSH1 0x1 PUSH1 0x44 CALLDATALOAD PUSH1 0x4 ADD CALLDATALOAD DUP2 SHL ADD PUSH1 0x3 DUP3 ADD SSTORE PUSH2 0xEFB JUMP JUMPDEST DUP4 PUSH1 0x0 NOT PUSH1 0xF8 PUSH1 0x44 CALLDATALOAD PUSH1 0x4 ADD CALLDATALOAD PUSH1 0x3 SHL AND SHR NOT SWAP2 PUSH1 0x44 CALLDATALOAD ADD ADD CALLDATALOAD AND SWAP1 SSTORE DUP6 DUP1 PUSH2 0xFF4 JUMP JUMPDEST SWAP1 SWAP2 DUP8 PUSH1 0x1 DUP2 SWAP3 DUP8 DUP7 PUSH1 0x44 CALLDATALOAD ADD ADD CALLDATALOAD DUP2 SSTORE ADD SWAP4 ADD SWAP2 ADD PUSH2 0xFD0 JUMP JUMPDEST PUSH1 0x3 DUP2 ADD PUSH1 0x0 MSTORE PUSH1 0x20 PUSH1 0x0 KECCAK256 PUSH1 0x1F PUSH1 0x44 CALLDATALOAD PUSH1 0x4 ADD CALLDATALOAD ADD PUSH1 0x5 SHR DUP2 ADD SWAP6 PUSH1 0x20 PUSH1 0x44 CALLDATALOAD PUSH1 0x4 ADD CALLDATALOAD LT PUSH2 0x1098 JUMPI JUMPDEST PUSH1 0x1F ADD PUSH1 0x5 SHR ADD SWAP5 JUMPDEST DUP6 DUP2 LT PUSH2 0x108C JUMPI POP PUSH2 0xEB0 JUMP JUMPDEST PUSH1 0x0 DUP2 SSTORE PUSH1 0x1 ADD PUSH2 0x107F JUMP JUMPDEST SWAP1 SWAP6 POP DUP6 SWAP1 PUSH2 0x1076 JUMP JUMPDEST PUSH1 0x40 MLOAD PUSH3 0x461BCD PUSH1 0xE5 SHL DUP2 MSTORE PUSH1 0x20 PUSH1 0x4 DUP3 ADD MSTORE PUSH1 0x17 DUP2 DUP5 ADD MSTORE PUSH32 0x43616E6E6F74206469737075746520796F757273656C66000000000000000000 PUSH1 0x44 DUP3 ADD MSTORE PUSH1 0x64 SWAP1 REVERT JUMPDEST PUSH1 0x40 MLOAD PUSH3 0x461BCD PUSH1 0xE5 SHL DUP2 MSTORE PUSH1 0x20 PUSH1 0x4 DUP3 ADD MSTORE PUSH1 0x16 DUP2 DUP5 ADD MSTORE PUSH22 0x2232B332B73230B73A103737BA10309036B2B6B132B9 PUSH1 0x51 SHL PUSH1 0x44 DUP3 ADD MSTORE PUSH1 0x64 SWAP1 REVERT JUMPDEST PUSH1 0x80 CALLDATASIZE PUSH1 0x3 NOT ADD SLT PUSH2 0x2AA JUMPI PUSH1 0x4 CALLDATALOAD PUSH1 0x1 PUSH1 0x1 PUSH1 0xA0 SHL SUB DUP2 AND SWAP1 DUP2 SWAP1 SUB PUSH2 0x2AA JUMPI PUSH1 0x24 CALLDATALOAD PUSH1 0x1 PUSH1 0x1 PUSH1 0x60 SHL SUB DUP2 AND DUP1 DUP3 SUB PUSH2 0x2AA JUMPI PUSH1 0x44 CALLDATALOAD SWAP3 PUSH5 0xFFFFFFFFFF DUP1 DUP6 AND SWAP1 DUP2 DUP7 SUB PUSH2 0x2AA JUMPI PUSH1 0x64 CALLDATALOAD SWAP1 PUSH1 0xFF DUP3 AND SWAP2 DUP3 DUP2 SUB PUSH2 0x2AA JUMPI DUP6 ISZERO PUSH2 0x1406 JUMPI DUP4 ISZERO PUSH2 0x13C1 JUMPI PUSH1 0x2 DUP4 LT ISZERO DUP1 PUSH2 0x13B6 JUMPI JUMPDEST ISZERO PUSH2 0x137B JUMPI DUP5 ISZERO PUSH2 0x136B JUMPI JUMPDEST PUSH1 0x2 SLOAD SWAP7 PUSH2 0x11AD DUP9 PUSH2 0x1ADA JUMP JUMPDEST PUSH1 0x2 SSTORE DUP8 PUSH1 0x0 MSTORE PUSH2 0x11FA PUSH1 0x20 SWAP10 PUSH1 0x0 DUP12 MSTORE PUSH1 0x40 PUSH1 0x0 KECCAK256 SWAP5 DUP11 AND PUSH5 0xFFFFFFFFFF NOT DUP7 SLOAD AND OR DUP6 SSTORE DUP5 SWAP1 PUSH10 0xFFFFFFFFFF0000000000 DUP3 SLOAD SWAP2 PUSH1 0x28 SHL AND SWAP1 PUSH10 0xFFFFFFFFFF0000000000 NOT AND OR SWAP1 SSTORE JUMP JUMPDEST PUSH2 0x1204 DUP6 TIMESTAMP PUSH2 0x1AE9 JUMP JUMPDEST DUP4 SLOAD PUSH5 0xFFFFFFFFFF PUSH1 0x50 SHL NOT AND PUSH1 0x50 SWAP2 SWAP1 SWAP2 SHL PUSH5 0xFFFFFFFFFF PUSH1 0x50 SHL AND OR DUP4 SSTORE PUSH1 0xA0 SHL PUSH1 0x1 PUSH1 0x1 PUSH1 0xA0 SHL SUB NOT AND DUP6 OR PUSH1 0x1 DUP1 DUP5 ADD SWAP2 SWAP1 SWAP2 SSTORE PUSH1 0x2 DUP4 ADD DUP1 SLOAD PUSH1 0x8 SWAP4 SWAP1 SWAP4 SHL PUSH2 0xFF00 AND PUSH3 0xFFFFFF NOT SWAP1 SWAP4 AND SWAP3 SWAP1 SWAP3 OR PUSH3 0x10001 OR PUSH4 0x1000000 PUSH1 0x1 PUSH1 0xB8 SHL SUB NOT AND CALLER PUSH1 0x18 DUP2 SWAP1 SHL PUSH4 0x1000000 PUSH1 0x1 PUSH1 0xB8 SHL SUB AND SWAP2 SWAP1 SWAP2 OR SWAP1 SWAP3 SSTORE PUSH1 0x3 DUP4 ADD DUP2 SWAP1 SSTORE PUSH1 0x0 DUP3 DUP2 MSTORE PUSH1 0x7 DUP5 ADD DUP11 MSTORE PUSH1 0x40 SWAP1 KECCAK256 DUP1 SLOAD PUSH1 0xFF NOT SWAP1 DUP2 AND SWAP1 SWAP3 OR SWAP1 SSTORE SWAP2 PUSH1 0x9 SWAP2 PUSH2 0x12B7 SWAP1 PUSH1 0xA DUP4 ADD PUSH2 0x1B24 JUMP JUMPDEST CALLER PUSH1 0x0 MSTORE PUSH1 0x8 DUP2 ADD DUP10 MSTORE DUP7 PUSH1 0x40 PUSH1 0x0 KECCAK256 SSTORE ADD DUP8 MSTORE PUSH1 0x1 PUSH1 0x40 PUSH1 0x0 KECCAK256 SWAP2 DUP3 SLOAD AND OR SWAP1 SSTORE PUSH1 0x40 MLOAD SWAP2 DUP5 DUP4 MSTORE DUP7 DUP4 ADD MSTORE PUSH1 0x40 DUP3 ADD MSTORE DUP4 PUSH32 0x60ECD745D601B8D99CEE443CE42CAA7C671391023AA3CE0898E712F5FF0B10CF PUSH1 0x60 CALLER SWAP4 LOG4 PUSH1 0x40 MLOAD SWAP1 CALLER DUP4 PUSH32 0xC0081EEAFA0D002ABCD7D58D84B6E688D1526B9C3D915A282212BA08C49A17A7 PUSH1 0x0 DUP1 LOG3 DUP2 MSTORE DUP2 PUSH32 0xB48432D11D752C70CA1285F1694027925770CAEE068F8A63BD561CEE738C4219 DUP5 CALLER SWAP4 LOG3 PUSH1 0x40 MLOAD SWAP1 DUP2 MSTORE RETURN JUMPDEST PUSH2 0x1376 DUP7 CALLVALUE EQ PUSH2 0x1A82 JUMP JUMPDEST PUSH2 0x11A0 JUMP JUMPDEST PUSH1 0x40 MLOAD PUSH3 0x461BCD PUSH1 0xE5 SHL DUP2 MSTORE PUSH1 0x20 PUSH1 0x4 DUP3 ADD MSTORE PUSH1 0x13 PUSH1 0x24 DUP3 ADD MSTORE PUSH19 0x496E76616C6964206D6178206D656D62657273 PUSH1 0x68 SHL PUSH1 0x44 DUP3 ADD MSTORE PUSH1 0x64 SWAP1 REVERT JUMPDEST POP PUSH1 0x32 DUP4 GT ISZERO PUSH2 0x1194 JUMP JUMPDEST PUSH1 0x40 MLOAD PUSH3 0x461BCD PUSH1 0xE5 SHL DUP2 MSTORE PUSH1 0x20 PUSH1 0x4 DUP3 ADD MSTORE PUSH1 0x18 PUSH1 0x24 DUP3 ADD MSTORE PUSH32 0x526F756E64206C656E677468206D757374206265203E20300000000000000000 PUSH1 0x44 DUP3 ADD MSTORE PUSH1 0x64 SWAP1 REVERT JUMPDEST PUSH1 0x40 MLOAD PUSH3 0x461BCD PUSH1 0xE5 SHL DUP2 MSTORE PUSH1 0x20 PUSH1 0x4 DUP3 ADD MSTORE PUSH1 0x18 PUSH1 0x24 DUP3 ADD MSTORE PUSH32 0x436F6E747269627574696F6E206D757374206265203E20300000000000000000 PUSH1 0x44 DUP3 ADD MSTORE PUSH1 0x64 SWAP1 REVERT JUMPDEST CALLVALUE PUSH2 0x2AA JUMPI PUSH1 0x20 DUP1 PUSH1 0x3 NOT CALLDATASIZE ADD SLT PUSH2 0x2AA JUMPI PUSH1 0x4 CALLDATALOAD SWAP1 DUP2 PUSH1 0x0 MSTORE PUSH1 0x0 DUP2 MSTORE PUSH1 0x7 PUSH1 0x40 PUSH1 0x0 KECCAK256 ADD CALLER PUSH1 0x0 MSTORE DUP2 MSTORE PUSH2 0x1488 PUSH1 0xFF PUSH1 0x40 PUSH1 0x0 KECCAK256 SLOAD AND PUSH2 0x1BD1 JUMP JUMPDEST DUP2 PUSH1 0x0 MSTORE PUSH1 0x0 DUP2 MSTORE PUSH1 0x40 PUSH1 0x0 KECCAK256 SWAP1 CALLER PUSH1 0x0 MSTORE PUSH1 0x7 DUP3 ADD DUP2 MSTORE PUSH1 0x40 PUSH1 0x0 KECCAK256 PUSH1 0xFF NOT DUP2 SLOAD AND SWAP1 SSTORE PUSH1 0x3 SWAP2 DUP3 DUP2 ADD PUSH2 0x14BD DUP2 SLOAD PUSH2 0x1C12 JUMP JUMPDEST SWAP1 SSTORE PUSH1 0xA DUP2 ADD SWAP1 PUSH1 0x0 JUMPDEST DUP3 SLOAD DUP1 DUP3 LT ISZERO PUSH2 0x1562 JUMPI PUSH2 0x14DB DUP3 DUP6 PUSH2 0x1AF6 JUMP JUMPDEST SWAP1 SLOAD PUSH1 0x1 PUSH1 0x1 PUSH1 0xA0 SHL SUB SWAP2 DUP9 SHL SHR DUP2 AND CALLER EQ PUSH2 0x1501 JUMPI POP POP PUSH2 0x14FC SWAP1 PUSH2 0x1ADA JUMP JUMPDEST PUSH2 0x14C7 JUMP JUMPDEST SWAP5 SWAP6 PUSH1 0x0 NOT DUP3 ADD SWAP6 SWAP4 SWAP5 SWAP3 SWAP1 SWAP2 DUP7 GT PUSH2 0x78F JUMPI PUSH2 0x744 PUSH2 0x152B SWAP5 PUSH2 0x763 SWAP4 PUSH2 0x737 PUSH1 0x8 SWAP10 DUP8 PUSH2 0x1AF6 JUMP JUMPDEST CALLER PUSH1 0x0 MSTORE ADD SWAP1 MSTORE PUSH1 0x0 PUSH1 0x40 DUP2 KECCAK256 SSTORE CALLER SWAP1 PUSH32 0xE1A5F763BA0FCC4EB5DE6B27B4D1C98D436F84455CC77908A79FA0D5B076AB2D PUSH1 0x0 DUP1 LOG3 STOP JUMPDEST POP POP SWAP1 POP PUSH1 0x8 SWAP2 SWAP3 POP PUSH2 0x152B JUMP JUMPDEST CALLVALUE PUSH2 0x2AA JUMPI PUSH1 0x20 CALLDATASIZE PUSH1 0x3 NOT ADD SLT PUSH2 0x2AA JUMPI PUSH1 0x4 CALLDATALOAD PUSH1 0x0 MSTORE PUSH1 0x1 PUSH1 0x20 MSTORE PUSH1 0x40 PUSH1 0x0 KECCAK256 DUP1 SLOAD SWAP1 PUSH1 0x1 DUP1 PUSH1 0xA0 SHL SUB DUP1 PUSH1 0x1 DUP4 ADD SLOAD AND SWAP1 PUSH1 0x2 DUP4 ADD SLOAD AND SWAP1 PUSH2 0x15B6 PUSH1 0x3 DUP5 ADD PUSH2 0x1967 JUMP JUMPDEST SWAP3 PUSH2 0x15F5 PUSH1 0xFF PUSH1 0x4 DUP4 ADD SLOAD AND SWAP5 PUSH1 0x5 DUP4 ADD SLOAD SWAP5 PUSH1 0x7 PUSH1 0x6 DUP6 ADD SLOAD SWAP5 ADD SLOAD SWAP5 PUSH1 0x40 MLOAD SWAP9 DUP10 MSTORE PUSH1 0x20 DUP10 ADD MSTORE PUSH1 0x40 DUP9 ADD MSTORE PUSH2 0x100 DUP1 PUSH1 0x60 DUP10 ADD MSTORE DUP8 ADD SWAP1 PUSH2 0x1A0D JUMP JUMPDEST SWAP3 PUSH1 0x4 DUP6 LT ISZERO PUSH2 0x364 JUMPI DUP6 SWAP5 PUSH1 0x80 DUP7 ADD MSTORE PUSH1 0xA0 DUP6 ADD MSTORE PUSH1 0xC0 DUP5 ADD MSTORE PUSH1 0xE0 DUP4 ADD MSTORE SUB SWAP1 RETURN JUMPDEST CALLVALUE PUSH2 0x2AA JUMPI PUSH1 0x20 DUP1 PUSH1 0x3 NOT CALLDATASIZE ADD SLT PUSH2 0x2AA JUMPI PUSH1 0x4 CALLDATALOAD PUSH2 0x163B PUSH1 0x2 SLOAD DUP3 LT PUSH2 0x1B4C JUMP JUMPDEST PUSH1 0x0 MSTORE PUSH1 0x0 DUP2 MSTORE PUSH1 0xA PUSH1 0x40 PUSH1 0x0 KECCAK256 ADD PUSH1 0x40 MLOAD SWAP1 DUP2 DUP4 DUP3 SLOAD SWAP2 DUP3 DUP2 MSTORE ADD SWAP1 DUP2 SWAP3 PUSH1 0x0 MSTORE DUP5 PUSH1 0x0 KECCAK256 SWAP1 PUSH1 0x0 JUMPDEST DUP7 DUP3 DUP3 LT PUSH2 0x16C4 JUMPI DUP7 DUP7 PUSH2 0x167B DUP3 DUP9 SUB DUP4 PUSH2 0x1945 JUMP JUMPDEST PUSH1 0x40 MLOAD SWAP3 DUP4 SWAP3 DUP2 DUP5 ADD SWAP1 DUP3 DUP6 MSTORE MLOAD DUP1 SWAP2 MSTORE PUSH1 0x40 DUP5 ADD SWAP3 SWAP2 PUSH1 0x0 JUMPDEST DUP3 DUP2 LT PUSH2 0x16A4 JUMPI POP POP POP POP SUB SWAP1 RETURN JUMPDEST DUP4 MLOAD PUSH1 0x1 PUSH1 0x1 PUSH1 0xA0 SHL SUB AND DUP6 MSTORE DUP7 SWAP6 POP SWAP4 DUP2 ADD SWAP4 SWAP3 DUP2 ADD SWAP3 PUSH1 0x1 ADD PUSH2 0x1695 JUMP JUMPDEST DUP4 SLOAD PUSH1 0x1 PUSH1 0x1 PUSH1 0xA0 SHL SUB AND DUP6 MSTORE SWAP1 SWAP4 ADD SWAP3 PUSH1 0x1 SWAP3 DUP4 ADD SWAP3 ADD PUSH2 0x1665 JUMP JUMPDEST CALLVALUE PUSH2 0x2AA JUMPI PUSH1 0x20 DUP1 PUSH1 0x3 NOT CALLDATASIZE ADD SLT PUSH2 0x2AA JUMPI PUSH1 0x4 CALLDATALOAD SWAP1 DUP2 PUSH1 0x0 MSTORE PUSH1 0x0 DUP2 MSTORE PUSH1 0x7 PUSH1 0x40 PUSH1 0x0 KECCAK256 ADD CALLER PUSH1 0x0 MSTORE DUP2 MSTORE PUSH2 0x171E PUSH1 0xFF PUSH1 0x40 PUSH1 0x0 KECCAK256 SLOAD AND PUSH2 0x1BD1 JUMP JUMPDEST DUP2 PUSH1 0x0 MSTORE PUSH1 0x0 DUP2 MSTORE PUSH1 0x40 PUSH1 0x0 KECCAK256 PUSH1 0x1 SWAP1 DUP2 PUSH1 0xFF PUSH1 0x2 DUP4 ADD SLOAD AND GT PUSH2 0x1884 JUMPI DUP2 SWAP3 CALLER PUSH1 0x0 MSTORE PUSH1 0x7 DUP3 ADD DUP2 MSTORE PUSH1 0x40 PUSH1 0x0 KECCAK256 PUSH1 0xFF NOT DUP2 SLOAD AND SWAP1 SSTORE PUSH1 0x3 DUP1 DUP4 ADD PUSH2 0x1764 DUP2 SLOAD PUSH2 0x1C12 JUMP JUMPDEST SWAP1 SSTORE PUSH1 0xA DUP4 ADD PUSH1 0x0 DUP6 JUMPDEST PUSH2 0x180E JUMPI JUMPDEST POP POP POP SWAP1 SWAP2 POP CALLER PUSH1 0x0 MSTORE PUSH1 0x8 DUP3 ADD SWAP1 MSTORE PUSH1 0x40 PUSH1 0x0 KECCAK256 SWAP1 DUP2 SLOAD SWAP3 DUP4 ISZERO SWAP3 DUP4 ISZERO PUSH2 0x17BF JUMPI JUMPDEST CALLER DUP7 PUSH32 0xE1A5F763BA0FCC4EB5DE6B27B4D1C98D436F84455CC77908A79FA0D5B076AB2D PUSH1 0x0 DUP1 LOG3 STOP JUMPDEST PUSH1 0x0 SWAP1 SSTORE ADD SLOAD PUSH1 0x1 PUSH1 0x1 PUSH1 0xA0 SHL SUB AND ISZERO PUSH2 0x17DC JUMPI JUMPDEST DUP1 DUP1 DUP1 PUSH2 0x1796 JUMP JUMPDEST PUSH1 0x0 DUP1 DUP1 SWAP4 DUP2 SWAP4 DUP3 SWAP1 PUSH2 0x1805 JUMPI JUMPDEST CALLER SWAP1 CALL ISZERO PUSH2 0x17F9 JUMPI DUP2 DUP1 PUSH2 0x17D4 JUMP JUMPDEST PUSH1 0x40 MLOAD RETURNDATASIZE PUSH1 0x0 DUP3 RETURNDATACOPY RETURNDATASIZE SWAP1 REVERT JUMPDEST POP PUSH2 0x8FC PUSH2 0x17EA JUMP JUMPDEST DUP2 SLOAD DUP1 DUP3 LT ISZERO PUSH2 0x187E JUMPI PUSH2 0x1822 DUP3 DUP5 PUSH2 0x1AF6 JUMP JUMPDEST SWAP1 SLOAD PUSH1 0x1 PUSH1 0x1 PUSH1 0xA0 SHL SUB SWAP3 SWAP2 DUP7 SHL SHR DUP3 AND CALLER EQ PUSH2 0x184A JUMPI POP POP PUSH2 0x1844 SWAP1 PUSH2 0x1ADA JUMP JUMPDEST DUP6 PUSH2 0x176E JUMP JUMPDEST SWAP6 SWAP7 POP SWAP4 SWAP5 SWAP2 SWAP3 SWAP2 PUSH1 0x0 NOT DUP2 ADD SWAP1 DUP2 GT PUSH2 0x78F JUMPI PUSH2 0x1873 SWAP5 PUSH2 0x763 SWAP4 PUSH2 0x737 PUSH2 0x744 SWAP4 DUP8 PUSH2 0x1AF6 JUMP JUMPDEST SWAP1 DUP3 SWAP2 DUP6 DUP1 DUP1 PUSH2 0x1773 JUMP JUMPDEST POP PUSH2 0x1773 JUMP JUMPDEST PUSH1 0x40 MLOAD PUSH3 0x461BCD PUSH1 0xE5 SHL DUP2 MSTORE PUSH1 0x4 DUP2 ADD DUP5 SWAP1 MSTORE PUSH1 0x26 PUSH1 0x24 DUP3 ADD MSTORE PUSH32 0x43616E6E6F74206C6561766520616674657220726F756E647320686176652073 PUSH1 0x44 DUP3 ADD MSTORE PUSH6 0x1D185C9D1959 PUSH1 0xD2 SHL PUSH1 0x64 DUP3 ADD MSTORE PUSH1 0x84 SWAP1 REVERT JUMPDEST SWAP1 PUSH1 0x1 DUP3 DUP2 SHR SWAP3 AND DUP1 ISZERO PUSH2 0x1908 JUMPI JUMPDEST PUSH1 0x20 DUP4 LT EQ PUSH2 0x18F2 JUMPI JUMP JUMPDEST PUSH4 0x4E487B71 PUSH1 0xE0 SHL PUSH1 0x0 MSTORE PUSH1 0x22 PUSH1 0x4 MSTORE PUSH1 0x24 PUSH1 0x0 REVERT JUMPDEST SWAP2 PUSH1 0x7F AND SWAP2 PUSH2 0x18E7 JUMP JUMPDEST PUSH2 0x180 DUP2 ADD SWAP1 DUP2 LT PUSH8 0xFFFFFFFFFFFFFFFF DUP3 GT OR PUSH2 0x192F JUMPI PUSH1 0x40 MSTORE JUMP JUMPDEST PUSH4 0x4E487B71 PUSH1 0xE0 SHL PUSH1 0x0 MSTORE PUSH1 0x41 PUSH1 0x4 MSTORE PUSH1 0x24 PUSH1 0x0 REVERT JUMPDEST SWAP1 PUSH1 0x1F DUP1 NOT SWAP2 ADD AND DUP2 ADD SWAP1 DUP2 LT PUSH8 0xFFFFFFFFFFFFFFFF DUP3 GT OR PUSH2 0x192F JUMPI PUSH1 0x40 MSTORE JUMP JUMPDEST SWAP1 PUSH1 0x40 MLOAD SWAP2 DUP3 PUSH1 0x0 DUP3 SLOAD SWAP3 PUSH2 0x197B DUP5 PUSH2 0x18D8 JUMP JUMPDEST SWAP1 DUP2 DUP5 MSTORE PUSH1 0x1 SWAP5 DUP6 DUP2 AND SWAP1 DUP2 PUSH1 0x0 EQ PUSH2 0x19EA JUMPI POP PUSH1 0x1 EQ PUSH2 0x19A7 JUMPI JUMPDEST POP POP PUSH2 0x19A5 SWAP3 POP SUB DUP4 PUSH2 0x1945 JUMP JUMPDEST JUMP JUMPDEST SWAP1 SWAP4 SWAP2 POP PUSH1 0x0 MSTORE PUSH1 0x20 SWAP1 DUP2 PUSH1 0x0 KECCAK256 SWAP4 PUSH1 0x0 SWAP2 JUMPDEST DUP2 DUP4 LT PUSH2 0x19D2 JUMPI POP POP PUSH2 0x19A5 SWAP4 POP DUP3 ADD ADD CODESIZE DUP1 PUSH2 0x1997 JUMP JUMPDEST DUP6 SLOAD DUP9 DUP5 ADD DUP6 ADD MSTORE SWAP5 DUP6 ADD SWAP5 DUP8 SWAP5 POP SWAP2 DUP4 ADD SWAP2 PUSH2 0x19BA JUMP JUMPDEST SWAP2 POP POP PUSH2 0x19A5 SWAP5 POP PUSH1 0x20 SWAP3 POP PUSH1 0xFF NOT AND DUP3 DUP5 ADD MSTORE ISZERO ISZERO PUSH1 0x5 SHL DUP3 ADD ADD CODESIZE DUP1 PUSH2 0x1997 JUMP JUMPDEST SWAP2 SWAP1 DUP3 MLOAD SWAP3 DUP4 DUP3 MSTORE PUSH1 0x0 JUMPDEST DUP5 DUP2 LT PUSH2 0x1A39 JUMPI POP POP DUP3 PUSH1 0x0 PUSH1 0x20 DUP1 SWAP5 SWAP6 DUP5 ADD ADD MSTORE PUSH1 0x1F DUP1 NOT SWAP2 ADD AND ADD ADD SWAP1 JUMP JUMPDEST PUSH1 0x20 DUP2 DUP4 ADD DUP2 ADD MLOAD DUP5 DUP4 ADD DUP3 ADD MSTORE ADD PUSH2 0x1A18 JUMP JUMPDEST PUSH1 0x24 CALLDATALOAD SWAP1 PUSH1 0x1 PUSH1 0x1 PUSH1 0xA0 SHL SUB DUP3 AND DUP3 SUB PUSH2 0x2AA JUMPI JUMP JUMPDEST PUSH1 0x40 SWAP1 PUSH1 0x3 NOT ADD SLT PUSH2 0x2AA JUMPI PUSH1 0x4 CALLDATALOAD SWAP1 PUSH1 0x24 CALLDATALOAD DUP1 ISZERO ISZERO DUP2 SUB PUSH2 0x2AA JUMPI SWAP1 JUMP JUMPDEST ISZERO PUSH2 0x1A89 JUMPI JUMP JUMPDEST PUSH1 0x40 MLOAD PUSH3 0x461BCD PUSH1 0xE5 SHL DUP2 MSTORE PUSH1 0x20 PUSH1 0x4 DUP3 ADD MSTORE PUSH1 0x23 PUSH1 0x24 DUP3 ADD MSTORE PUSH32 0x4D7573742073656E6420657861637420636F6E747269627574696F6E20616D6F PUSH1 0x44 DUP3 ADD MSTORE PUSH3 0x1D5B9D PUSH1 0xEA SHL PUSH1 0x64 DUP3 ADD MSTORE PUSH1 0x84 SWAP1 REVERT JUMPDEST PUSH1 0x0 NOT DUP2 EQ PUSH2 0x78F JUMPI PUSH1 0x1 ADD SWAP1 JUMP JUMPDEST SWAP2 SWAP1 DUP3 ADD DUP1 SWAP3 GT PUSH2 0x78F JUMPI JUMP JUMPDEST DUP1 SLOAD DUP3 LT ISZERO PUSH2 0x1B0E JUMPI PUSH1 0x0 MSTORE PUSH1 0x20 PUSH1 0x0 KECCAK256 ADD SWAP1 PUSH1 0x0 SWAP1 JUMP JUMPDEST PUSH4 0x4E487B71 PUSH1 0xE0 SHL PUSH1 0x0 MSTORE PUSH1 0x32 PUSH1 0x4 MSTORE PUSH1 0x24 PUSH1 0x0 REVERT JUMPDEST SWAP1 DUP2 SLOAD SWAP2 PUSH9 0x10000000000000000 DUP4 LT ISZERO PUSH2 0x192F JUMPI DUP3 PUSH2 0x744 SWAP2 PUSH1 0x1 PUSH2 0x19A5 SWAP6 ADD DUP2 SSTORE PUSH2 0x1AF6 JUMP JUMPDEST ISZERO PUSH2 0x1B53 JUMPI JUMP JUMPDEST PUSH1 0x40 MLOAD PUSH3 0x461BCD PUSH1 0xE5 SHL DUP2 MSTORE PUSH1 0x20 PUSH1 0x4 DUP3 ADD MSTORE PUSH1 0x14 PUSH1 0x24 DUP3 ADD MSTORE PUSH20 0x11DC9BDD5C08191BD95CC81B9BDD08195E1A5CDD PUSH1 0x62 SHL PUSH1 0x44 DUP3 ADD MSTORE PUSH1 0x64 SWAP1 REVERT JUMPDEST ISZERO PUSH2 0x1B96 JUMPI JUMP JUMPDEST PUSH1 0x40 MLOAD PUSH3 0x461BCD PUSH1 0xE5 SHL DUP2 MSTORE PUSH1 0x20 PUSH1 0x4 DUP3 ADD MSTORE PUSH1 0x13 PUSH1 0x24 DUP3 ADD MSTORE PUSH19 0x47726F7570206973206E6F7420616374697665 PUSH1 0x68 SHL PUSH1 0x44 DUP3 ADD MSTORE PUSH1 0x64 SWAP1 REVERT JUMPDEST ISZERO PUSH2 0x1BD8 JUMPI JUMP JUMPDEST PUSH1 0x40 MLOAD PUSH3 0x461BCD PUSH1 0xE5 SHL DUP2 MSTORE PUSH1 0x20 PUSH1 0x4 DUP3 ADD MSTORE PUSH1 0x12 PUSH1 0x24 DUP3 ADD MSTORE PUSH18 0x2737BA10309033B937BAB81036B2B6B132B9 PUSH1 0x71 SHL PUSH1 0x44 DUP3 ADD MSTORE PUSH1 0x64 SWAP1 REVERT JUMPDEST DUP1 ISZERO PUSH2 0x78F JUMPI PUSH1 0x0 NOT ADD SWAP1 JUMP JUMPDEST DUP1 SLOAD DUP1 ISZERO PUSH2 0x1C4C JUMPI PUSH1 0x0 NOT ADD SWAP1 PUSH2 0x1C36 DUP3 DUP3 PUSH2 0x1AF6 JUMP JUMPDEST DUP2 SLOAD SWAP1 PUSH1 0x1 DUP1 PUSH1 0xA0 SHL SUB SWAP1 PUSH1 0x3 SHL SHL NOT AND SWAP1 SSTORE SSTORE JUMP JUMPDEST PUSH4 0x4E487B71 PUSH1 0xE0 SHL PUSH1 0x0 MSTORE PUSH1 0x31 PUSH1 0x4 MSTORE PUSH1 0x24 PUSH1 0x0 REVERT JUMPDEST ISZERO PUSH2 0x1C69 JUMPI JUMP JUMPDEST PUSH1 0x40 MLOAD PUSH3 0x461BCD PUSH1 0xE5 SHL DUP2 MSTORE PUSH1 0x20 PUSH1 0x4 DUP3 ADD MSTORE PUSH1 0x15 PUSH1 0x24 DUP3 ADD MSTORE PUSH21 0x2737BA103A34329033B937BAB81031B932B0BA37B9 PUSH1 0x59 SHL PUSH1 0x44 DUP3 ADD MSTORE PUSH1 0x64 SWAP1 REVERT JUMPDEST ISZERO PUSH2 0x1CAD JUMPI JUMP JUMPDEST PUSH1 0x40 MLOAD PUSH3 0x461BCD PUSH1 0xE5 SHL DUP2 MSTORE PUSH1 0x20 PUSH1 0x4 DUP3 ADD MSTORE PUSH1 0x16 PUSH1 0x24 DUP3 ADD MSTORE PUSH22 0x111A5CDC1D5D1948191BD95CC81B9BDD08195E1A5CDD PUSH1 0x52 SHL PUSH1 0x44 DUP3 ADD MSTORE PUSH1 0x64 SWAP1 REVERT INVALID LOG2 PUSH5 0x6970667358 0x22 SLT KECCAK256 PUSH5 0x6BFC38B0E3 PUSH11 0xD0635B171B1B80A293AA4D SAR SWAP13 PUSH18 0x813950CB51AF0DB083066064736F6C634300 ADDMOD SGT STOP CALLER "},"methodIdentifiers":{"contribute(uint256)":"c1cbbca7","createDispute(uint256,address,string)":"721b8776","createGroup(address,uint96,uint40,uint8)":"70cb0c50","disputeCount()":"a28889e1","disputes(uint256)":"564a565d","getDispute(uint256)":"e3a96cbd","getGroupDetails(uint256)":"9de5e76a","getGroupMembers(uint256)":"36cc8130","groupCount()":"8f23b326","groups(uint256)":"96324bd4","hasVotedOnDispute(uint256,address)":"c3a8fb34","joinGroup(uint256)":"eed02e4b","kickMember(uint256,address)":"bd0e667c","leaveGroup(uint256)":"33471df5","rageQuit(uint256)":"65f969f6","scheduleRoundLength(uint256,uint40)":"d047ba3a","setGroupStatus(uint256,bool)":"8649cc71","voteOnDispute(uint256,bool)":"a4f5df12"}}}}}