{
  "_format": "hh-sol-artifact-1",
  "contractName": "MockUSDC",
  "sourceName": "contracts/MockUSDC.sol",
  "abi": [
    {
      "inputs": [
        {
          "internalType": "uint256",
          "name": "_initialSupply",
          "type": "uint256"
        }
      ],
      "stateMutability": "nonpayable",
      "type": "constructor"
    },
    {
      "anonymous": false,
      "inputs": [
        {
          "indexed": true,
          "internalType": "address",
          "name": "owner",
          "type": "address"
        },
        {
          "indexed": true,
          "internalType": "address",
          "name": "spender",
          "type": "address"
        },
        {
          "indexed": false,
          "internalType": "uint256",
          "name": "value",
          "type": "uint256"
        }
      ],
      "name": "Approval",
      "type": "event"
    },
    {
      "anonymous": false,
      "inputs": [
        {
          "indexed": true,
          "internalType": "address",
          "name": "from",
          "type": "address"
        },
        {
          "indexed": true,
          "internalType": "address",
          "name": "to",
          "type": "address"
        },
        {
          "indexed": false,
          "internalType": "uint256",
          "name": "value",
          "type": "uint256"
        }
      ],
      "name": "Transfer",
      "type": "event"
    },
    {
      "inputs": [
        {
          "internalType": "address",
          "name": "owner",
          "type": "address"
        },
        {
          "internalType": "address",
          "name": "spender",
          "type": "address"
        }
      ],
      "name": "allowance",
      "outputs": [
        {
          "internalType": "uint256",
          "name": "",
          "type": "uint256"
        }
      ],
      "stateMutability": "view",
      "type": "function"
    },
    {
      "inputs": [
        {
          "internalType": "address",
          "name": "spender",
          "type": "address"
        },
        {
          "internalType": "uint256",
          "name": "amount",
          "type": "uint256"
        }
      ],
      "name": "approve",
      "outputs": [
        {
          "internalType": "bool",
          "name": "",
          "type": "bool"
        }
      ],
      "stateMutability": "nonpayable",
      "type": "function"
    },
    {
      "inputs": [
        {
          "internalType": "address",
          "name": "account",
          "type": "address"
        }
      ],
      "name": "balanceOf",
      "outputs": [
        {
          "internalType": "uint256",
          "name": "",
          "type": "uint256"
        }
      ],
      "stateMutability": "view",
      "type": "function"
    },
    {
      "inputs": [],
      "name": "decimals",
      "outputs": [
        {
          "internalType": "uint8",
          "name": "",
          "type": "uint8"
        }
      ],
      "stateMutability": "view",
      "type": "function"
    },
    {
      "inputs": [],
      "name": "faucet",
      "outputs": [],
      "stateMutability": "nonpayable",
      "type": "function"
    },
    {
      "inputs": [
        {
          "internalType": "address",
          "name": "to",
          "type": "address"
        },
        {
          "internalType": "uint256",
          "name": "amount",
          "type": "uint256"
        }
      ],
      "name": "mint",
      "outputs": [],
      "stateMutability": "nonpayable",
      "type": "function"
    },
    {
      "inputs": [],
      "name": "name",
      "outputs": [
        {
          "internalType": "string",
          "name": "",
          "type": "string"
        }
      ],
      "stateMutability": "view",
      "type": "function"
    },
    {
      "inputs": [],
      "name": "symbol",
      "outputs": [
        {
          "internalType": "string",
          "name": "",
          "type": "string"
        }
      ],
      "stateMutability": "view",
      "type": "function"
    },
    {
      "inputs": [],
      "name": "totalSupply",
      "outputs": [
        {
          "internalType": "uint256",
          "name": "",
          "type": "uint256"
        }
      ],
      "stateMutability": "view",
      "type": "function"
    },
    {
      "inputs": [
        {
          "internalType": "address",
          "name": "to",
          "type": "address"
        },
        {
          "internalType": "uint256",
          "name": "amount",
          "type": "uint256"
        }
      ],
      "name": "transfer",
      "outputs": [
        {
          "internalType": "bool",
          "name": "",
          "type": "bool"
        }
      ],
      "stateMutability": "nonpayable",
      "type": "function"
    },
    {
      "inputs": [
        {
          "internalType": "address",
          "name": "from",
          "type": "address"
        },
        {
          "internalType": "address",
          "name": "to",
          "type": "address"
        },
        {
          "internalType": "uint256",
          "name": "amount",
          "type": "uint256"
        }
      ],
      "name": "transferFrom",
      "outputs": [
        {
          "internalType": "bool",
          "name": "",
          "type": "bool"
        }
      ],
      "stateMutability": "nonpayable",
      "type": "function"
    }
  ],
  "bytecode": "0x60806040523480156200001157600080fd5b5060405162000b4c38038062000b4c8339810160408190526200003491620000a5565b620000426006600a620001d4565b6200004e9082620001ec565b600081815533808252600160205260408083208490555190927fddf252ad1be2c89b69c2b068fc378daa952ba7f163c4a11628f55a4df523b3ef916200009691815260200190565b60405180910390a35062000206565b600060208284031215620000b857600080fd5b5051919050565b634e487b7160e01b600052601160045260246000fd5b600181815b8085111562000116578160001904821115620000fa57620000fa620000bf565b808516156200010857918102915b93841c9390800290620000da565b509250929050565b6000826200012f57506001620001ce565b816200013e57506000620001ce565b8160018114620001575760028114620001625762000182565b6001915050620001ce565b60ff841115620001765762000176620000bf565b50506001821b620001ce565b5060208310610133831016604e8410600b8410161715620001a7575081810a620001ce565b620001b38383620000d5565b8060001904821115620001ca57620001ca620000bf565b0290505b92915050565b6000620001e560ff8416836200011e565b9392505050565b8082028115828204841417620001ce57620001ce620000bf565b61093680620002166000396000f3fe608060405234801561001057600080fd5b50600436106100a95760003560e01c806340c10f191161007157806340c10f191461015757806370a082311461016c57806395d89b4114610195578063a9059cbb146101b8578063dd62ed3e146101cb578063de5f72fd1461020457600080fd5b806306fdde03146100ae578063095ea7b3146100f057806318160ddd1461011357806323b872dd1461012a578063313ce5671461013d575b600080fd5b6100da6040518060400160405280600d81526020016c2330b5b2902aa9a21021b7b4b760991b81525081565b6040516100e791906106a8565b60405180910390f35b6101036100fe366004610712565b61020c565b60405190151581526020016100e7565b61011c60005481565b6040519081526020016100e7565b61010361013836600461073c565b610226565b610145600681565b60405160ff90911681526020016100e7565b61016a610165366004610712565b61024a565b005b61011c61017a366004610778565b6001600160a01b031660009081526001602052604090205490565b6100da604051806040016040528060048152602001635553444360e01b81525081565b6101036101c6366004610712565b61030f565b61011c6101d936600461079a565b6001600160a01b03918216600090815260026020908152604080832093909416825291909152205490565b61016a61031d565b60003361021a818585610346565b60019150505b92915050565b60003361023485828561046a565b61023f8585856104fc565b506001949350505050565b6001600160a01b0382166102a55760405162461bcd60e51b815260206004820152601f60248201527f45524332303a206d696e7420746f20746865207a65726f20616464726573730060448201526064015b60405180910390fd5b806000808282546102b691906107e3565b90915550506001600160a01b0382166000818152600160209081526040808320805486019055518481527fddf252ad1be2c89b69c2b068fc378daa952ba7f163c4a11628f55a4df523b3ef910160405180910390a35050565b60003361021a8185856104fc565b600061032b6006600a6108da565b610337906103e86108e9565b9050610343338261024a565b50565b6001600160a01b0383166103a85760405162461bcd60e51b8152602060048201526024808201527f45524332303a20617070726f76652066726f6d20746865207a65726f206164646044820152637265737360e01b606482015260840161029c565b6001600160a01b0382166104095760405162461bcd60e51b815260206004820152602260248201527f45524332303a20617070726f766520746f20746865207a65726f206164647265604482015261737360f01b606482015260840161029c565b6001600160a01b0383811660008181526002602090815260408083209487168084529482529182902085905590518481527f8c5be1e5ebec7d5bd14f71427d1e84f3dd0314c0f7b2291e5b200ac8c7c3b925910160405180910390a3505050565b6001600160a01b0383811660009081526002602090815260408083209386168352929052205460001981146104f657818110156104e95760405162461bcd60e51b815260206004820152601d60248201527f45524332303a20696e73756666696369656e7420616c6c6f77616e6365000000604482015260640161029c565b6104f68484848403610346565b50505050565b6001600160a01b0383166105605760405162461bcd60e51b815260206004820152602560248201527f45524332303a207472616e736665722066726f6d20746865207a65726f206164604482015264647265737360d81b606482015260840161029c565b6001600160a01b0382166105c25760405162461bcd60e51b815260206004820152602360248201527f45524332303a207472616e7366657220746f20746865207a65726f206164647260448201526265737360e81b606482015260840161029c565b6001600160a01b0383166000908152600160205260409020548181101561063a5760405162461bcd60e51b815260206004820152602660248201527f45524332303a207472616e7366657220616d6f756e7420657863656564732062604482015265616c616e636560d01b606482015260840161029c565b6001600160a01b0380851660008181526001602052604080822086860390559286168082529083902080548601905591517fddf252ad1be2c89b69c2b068fc378daa952ba7f163c4a11628f55a4df523b3ef9061069a9086815260200190565b60405180910390a350505050565b600060208083528351808285015260005b818110156106d5578581018301518582016040015282016106b9565b506000604082860101526040601f19601f8301168501019250505092915050565b80356001600160a01b038116811461070d57600080fd5b919050565b6000806040838503121561072557600080fd5b61072e836106f6565b946020939093013593505050565b60008060006060848603121561075157600080fd5b61075a846106f6565b9250610768602085016106f6565b9150604084013590509250925092565b60006020828403121561078a57600080fd5b610793826106f6565b9392505050565b600080604083850312156107ad57600080fd5b6107b6836106f6565b91506107c4602084016106f6565b90509250929050565b634e487b7160e01b600052601160045260246000fd5b80820180821115610220576102206107cd565b600181815b80851115610831578160001904821115610817576108176107cd565b8085161561082457918102915b93841c93908002906107fb565b509250929050565b60008261084857506001610220565b8161085557506000610220565b816001811461086b576002811461087557610891565b6001915050610220565b60ff841115610886576108866107cd565b50506001821b610220565b5060208310610133831016604e8410600b84101617156108b4575081810a610220565b6108be83836107f6565b80600019048211156108d2576108d26107cd565b029392505050565b600061079360ff841683610839565b8082028115828204841417610220576102206107cd56fea26469706673582212203bfe06eb5d9e5c23b5422e669023eb14beabbe94469008020f7086aa446de76e64736f6c63430008140033",
  "linkReferences": {},
  "deployedLinkReferences": {}
}