{
	"data": {
		"bytecode": {
			"linkReferences": {},
			"object": "608060405234801561000f575f5ffd5b5060015f819055505f60015f6101000a81548160ff0219169083151502179055506100425f5f1b3361008760201b60201c565b506100737fa49807205ce4d355092ef5a8a18f56e8913cf4a201fbe287825b095693c217753361008760201b60201c565b5061008261017d60201b60201c565b6109b0565b5f610098838361053160201b60201c565b61017357600160025f8581526020019081526020015f205f015f8473ffffffffffffffffffffffffffffffffffffffff1673ffffffffffffffffffffffffffffffffffffffff1681526020019081526020015f205f6101000a81548160ff02191690831515021790555061011061059560201b60201c565b73ffffffffffffffffffffffffffffffffffffffff168273ffffffffffffffffffffffffffffffffffffffff16847f2f8788117e7eff1d82e926ec794901d17c78024a50270940304540a733656f0d60405160405180910390a460019050610177565b5f90505b92915050565b6064600a60405161018d906105f0565b9081526020016040518091039020819055506019600a6040516101af9061064e565b9081526020016040518091039020819055506032600a6040516101d1906106ac565b9081526020016040518091039020819055506064600a6040516101f39061070a565b908152602001604051809103902081905550604b600a60405161021590610768565b908152602001604051809103902081905550604b600a604051610237906107c6565b9081526020016040518091039020819055506096600a60405161025990610824565b90815260200160405180910390208190555060c8600a60405161027b90610882565b9081526020016040518091039020819055506014600a60405161029d906108e0565b9081526020016040518091039020819055506032600a6040516102bf9061093e565b9081526020016040518091039020819055506064600a6040516102e19061099c565b9081526020016040518091039020819055506001600b604051610303906105f0565b90815260200160405180910390205f6101000a81548160ff0219169083151502179055506001600b6040516103379061064e565b90815260200160405180910390205f6101000a81548160ff0219169083151502179055506001600b60405161036b906106ac565b90815260200160405180910390205f6101000a81548160ff0219169083151502179055506001600b60405161039f9061070a565b90815260200160405180910390205f6101000a81548160ff0219169083151502179055506001600b6040516103d390610768565b90815260200160405180910390205f6101000a81548160ff0219169083151502179055506001600b604051610407906107c6565b90815260200160405180910390205f6101000a81548160ff0219169083151502179055506001600b60405161043b90610824565b90815260200160405180910390205f6101000a81548160ff0219169083151502179055506001600b60405161046f90610882565b90815260200160405180910390205f6101000a81548160ff0219169083151502179055506001600b6040516104a3906108e0565b90815260200160405180910390205f6101000a81548160ff0219169083151502179055506001600b6040516104d79061093e565b90815260200160405180910390205f6101000a81548160ff0219169083151502179055506001600b60405161050b9061099c565b90815260200160405180910390205f6101000a81548160ff021916908315150217905550565b5f60025f8481526020019081526020015f205f015f8373ffffffffffffffffffffffffffffffffffffffff1673ffffffffffffffffffffffffffffffffffffffff1681526020019081526020015f205f9054906101000a900460ff16905092915050565b5f33905090565b5f81905092915050565b7f4368616d612043726561746f72000000000000000000000000000000000000005f82015250565b5f6105da600d8361059c565b91506105e5826105a6565b600d82019050919050565b5f6105fa826105ce565b9150819050919050565b7f466972737420537461636b0000000000000000000000000000000000000000005f82015250565b5f610638600b8361059c565b915061064382610604565b600b82019050919050565b5f6106588261062c565b9150819050919050565b7f3520436f6e747269627574696f6e7300000000000000000000000000000000005f82015250565b5f610696600f8361059c565b91506106a182610662565b600f82019050919050565b5f6106b68261068a565b9150819050919050565b7f4368616d6120436f6d706c6574656400000000000000000000000000000000005f82015250565b5f6106f4600f8361059c565b91506106ff826106c0565b600f82019050919050565b5f610714826106e8565b9150819050919050565b7f5065726665637420417474656e64616e636500000000000000000000000000005f82015250565b5f61075260128361059c565b915061075d8261071e565b601282019050919050565b5f61077282610746565b9150819050919050565b7f496e7669746564203320467269656e64730000000000000000000000000000005f82015250565b5f6107b060118361059c565b91506107bb8261077c565b601182019050919050565b5f6107d0826107a4565b9150819050919050565b7f496e766974656420313020467269656e647300000000000000000000000000005f82015250565b5f61080e60128361059c565b9150610819826107da565b601282019050919050565b5f61082e82610802565b9150819050919050565b7f536f6369616c20427574746572666c79000000000000000000000000000000005f82015250565b5f61086c60108361059c565b915061087782610838565b601082019050919050565b5f61088c82610860565b9150819050919050565b7f46697273742050325000000000000000000000000000000000000000000000005f82015250565b5f6108ca60098361059c565b91506108d582610896565b600982019050919050565b5f6108ea826108be565b9150819050919050565b7f53656e7420352052656420456e76656c6f7065730000000000000000000000005f82015250565b5f61092860148361059c565b9150610933826108f4565b601482019050919050565b5f6109488261091c565b9150819050919050565b7f52656420456e76656c6f7065204d6173746572000000000000000000000000005f82015250565b5f61098660138361059c565b915061099182610952565b601382019050919050565b5f6109a68261097a565b9150819050919050565b613fb3806109bd5f395ff3fe608060405234801561000f575f5ffd5b5060043610610245575f3560e01c806375b238fc11610139578063b34e0c47116100b6578063dde7fe831161007a578063dde7fe831461075c578063e697b5d81461078c578063f09153c4146107bc578063f5c63a65146107ec578063fb6298d51461080857610245565b8063b34e0c471461068d578063bbe15627146106bd578063bf882e73146106f1578063c4641dd714610724578063d547741f1461074057610245565b8063987ee156116100fd578063987ee156146105e95780639888a57c14610619578063a217fddf14610635578063a9c837c914610653578063ac132d2d1461066f57610245565b806375b238fc1461053157806376dd110f1461054f5780638456cb591461057f57806387cf16211461058957806391d14854146105b957610245565b806336568abe116101c757806358f43f761161018b57806358f43f761461047b5780635c975abb146104ab5780635d03ce80146104c957806361e092fc146104e55780637300f6241461051557610245565b806336568abe146103c55780633f4ba83a146103e157806341c57372146103eb578063575cea6b1461041b57806357b24e6b1461044b57610245565b8063248a9ca31161020e578063248a9ca3146102fd57806324acbd691461032d578063258219c21461035d5780632f2ff15d1461038d57806333b0d363146103a957610245565b80629299e31461024957806301ffc9a7146102655780630c860dcc1461029557806314fc7e4d146102b157806316064572146102e1575b5f5ffd5b610263600480360381019061025e9190612f5d565b610838565b005b61027f600480360381019061027a9190612ff9565b6109a2565b60405161028c919061303e565b60405180910390f35b6102af60048036038101906102aa919061308a565b610a1b565b005b6102cb60048036038101906102c69190612f5d565b610aa3565b6040516102d8919061303e565b60405180910390f35b6102fb60048036038101906102f6919061313e565b610ad6565b005b610317600480360381019061031291906131cb565b610b0f565b6040516103249190613205565b60405180910390f35b6103476004803603810190610342919061321e565b610b2c565b6040516103549190613258565b60405180910390f35b61037760048036038101906103729190612f5d565b610b72565b604051610384919061303e565b60405180910390f35b6103a760048036038101906103a29190613271565b610ba7565b005b6103c360048036038101906103be91906131cb565b610bc9565b005b6103df60048036038101906103da9190613271565b610f8f565b005b6103e961100a565b005b61040560048036038101906104009190612f5d565b61103f565b6040516104129190613258565b60405180910390f35b6104356004803603810190610430919061321e565b611066565b6040516104429190613366565b60405180910390f35b6104656004803603810190610460919061321e565b61112e565b6040516104729190613258565b60405180910390f35b6104956004803603810190610490919061321e565b611143565b6040516104a29190613205565b60405180910390f35b6104b3611158565b6040516104c0919061303e565b60405180910390f35b6104e360048036038101906104de9190613386565b61116d565b005b6104ff60048036038101906104fa919061321e565b6111a8565b60405161050c9190613205565b60405180910390f35b61052f600480360381019061052a919061321e565b6111ee565b005b610539611247565b6040516105469190613205565b60405180910390f35b6105696004803603810190610564919061321e565b61126b565b6040516105769190613258565b60405180910390f35b610587611280565b005b6105a3600480360381019061059e91906131cb565b6112b5565b6040516105b09190613401565b60405180910390f35b6105d360048036038101906105ce9190613271565b6112ee565b6040516105e0919061303e565b60405180910390f35b61060360048036038101906105fe919061321e565b611352565b604051610610919061351a565b60405180910390f35b610633600480360381019061062e919061353a565b6114bb565b005b61063d6116e5565b60405161064a9190613205565b60405180910390f35b61066d6004803603810190610668919061353a565b6116eb565b005b610677611a6a565b6040516106849190613205565b60405180910390f35b6106a760048036038101906106a2919061321e565b611a8e565b6040516106b49190613258565b60405180910390f35b6106d760048036038101906106d2919061321e565b611ad4565b6040516106e89594939291906135dc565b60405180910390f35b61070b60048036038101906107069190613634565b611bb7565b60405161071b9493929190613672565b60405180910390f35b61073e6004803603810190610739919061308a565b611d09565b005b61075a60048036038101906107559190613271565b611dbc565b005b610776600480360381019061077191906131cb565b611dde565b6040516107839190613401565b60405180910390f35b6107a660048036038101906107a19190613634565b611e0e565b6040516107b39190613401565b60405180910390f35b6107d660048036038101906107d1919061321e565b611e56565b6040516107e391906137e5565b60405180910390f35b61080660048036038101906108019190613386565b612022565b005b610822600480360381019061081d9190612f5d565b6121be565b60405161082f9190613258565b60405180910390f35b6108406121eb565b5f73ffffffffffffffffffffffffffffffffffffffff1660075f3373ffffffffffffffffffffffffffffffffffffffff1673ffffffffffffffffffffffffffffffffffffffff1681526020019081526020015f205f015f9054906101000a900473ffffffffffffffffffffffffffffffffffffffff1673ffffffffffffffffffffffffffffffffffffffff1603610903576040517f72da560b00000000000000000000000000000000000000000000000000000000815260040160405180910390fd5b8060075f3373ffffffffffffffffffffffffffffffffffffffff1673ffffffffffffffffffffffffffffffffffffffff1681526020019081526020015f2060010190816109509190613a02565b503373ffffffffffffffffffffffffffffffffffffffff167fdd635a4cd84864e37e4479dbfc2ec667acfa473c83c8422a8ac9d9d07599b01c826040516109979190613ad1565b60405180910390a250565b5f7f7965db0b000000000000000000000000000000000000000000000000000000007bffffffffffffffffffffffffffffffffffffffffffffffffffffffff1916827bffffffffffffffffffffffffffffffffffffffffffffffffffffffff19161480610a145750610a1382612235565b5b9050919050565b7fa49807205ce4d355092ef5a8a18f56e8913cf4a201fbe287825b095693c21775610a458161229e565b81600a84604051610a569190613b2b565b9081526020016040518091039020819055506001600b84604051610a7a9190613b2b565b90815260200160405180910390205f6101000a81548160ff021916908315150217905550505050565b5f600b82604051610ab49190613b2b565b90815260200160405180910390205f9054906101000a900460ff169050919050565b7fc5c74b901cb87f1e81a3e0539a5d95bf14fa111210701dd52208a2390204b455610b008161229e565b610b0a83836122b2565b505050565b5f60025f8381526020019081526020015f20600101549050919050565b5f60085f8373ffffffffffffffffffffffffffffffffffffffff1673ffffffffffffffffffffffffffffffffffffffff1681526020019081526020015f20549050919050565b600b818051602081018201805184825260208301602085012081835280955050505050505f915054906101000a900460ff1681565b610bb082610b0f565b610bb98161229e565b610bc3838361252b565b50505050565b610bd16121eb565b5f60065f8381526020019081526020015f205f9054906101000a900473ffffffffffffffffffffffffffffffffffffffff1690505f73ffffffffffffffffffffffffffffffffffffffff168173ffffffffffffffffffffffffffffffffffffffff1603610c6a576040517f6110422800000000000000000000000000000000000000000000000000000000815260040160405180910390fd5b60095f8273ffffffffffffffffffffffffffffffffffffffff1673ffffffffffffffffffffffffffffffffffffffff1681526020019081526020015f2033908060018154018082558091505060019003905f5260205f20015f9091909190916101000a81548173ffffffffffffffffffffffffffffffffffffffff021916908373ffffffffffffffffffffffffffffffffffffffff16021790555060085f8273ffffffffffffffffffffffffffffffffffffffff1673ffffffffffffffffffffffffffffffffffffffff1681526020019081526020015f205f815480929190610d5290613b6e565b9190505550610d988160326040518060400160405280601381526020017f5375636365737366756c20526566657272616c00000000000000000000000000815250612615565b600360085f8373ffffffffffffffffffffffffffffffffffffffff1673ffffffffffffffffffffffffffffffffffffffff1681526020019081526020015f205403610e2157610e1c816040518060400160405280601181526020017f496e7669746564203320467269656e64730000000000000000000000000000008152506122b2565b610f31565b600a60085f8373ffffffffffffffffffffffffffffffffffffffff1673ffffffffffffffffffffffffffffffffffffffff1681526020019081526020015f205403610eaa57610ea5816040518060400160405280601281526020017f496e766974656420313020467269656e647300000000000000000000000000008152506122b2565b610f30565b601960085f8373ffffffffffffffffffffffffffffffffffffffff1673ffffffffffffffffffffffffffffffffffffffff1681526020019081526020015f205403610f2f57610f2e816040518060400160405280601081526020017f536f6369616c20427574746572666c79000000000000000000000000000000008152506122b2565b5b5b5b3373ffffffffffffffffffffffffffffffffffffffff168173ffffffffffffffffffffffffffffffffffffffff167f7dfe7741b2816f4b390ea9c6a8fcef91c87d66b9235a24019b792806bc3ece0260405160405180910390a35050565b610f976126fa565b73ffffffffffffffffffffffffffffffffffffffff168173ffffffffffffffffffffffffffffffffffffffff1614610ffb576040517f6697b23200000000000000000000000000000000000000000000000000000000815260040160405180910390fd5b6110058282612701565b505050565b7fa49807205ce4d355092ef5a8a18f56e8913cf4a201fbe287825b095693c217756110348161229e565b61103c6127eb565b50565b5f600a826040516110509190613b2b565b9081526020016040518091039020549050919050565b606060095f8373ffffffffffffffffffffffffffffffffffffffff1673ffffffffffffffffffffffffffffffffffffffff1681526020019081526020015f2080548060200260200160405190810160405280929190818152602001828054801561112257602002820191905f5260205f20905b815f9054906101000a900473ffffffffffffffffffffffffffffffffffffffff1673ffffffffffffffffffffffffffffffffffffffff16815260200190600101908083116110d9575b50505050509050919050565b6008602052805f5260405f205f915090505481565b6005602052805f5260405f205f915090505481565b5f60015f9054906101000a900460ff16905090565b7fc5c74b901cb87f1e81a3e0539a5d95bf14fa111210701dd52208a2390204b4556111978161229e565b6111a2848484612615565b50505050565b5f60055f8373ffffffffffffffffffffffffffffffffffffffff1673ffffffffffffffffffffffffffffffffffffffff1681526020019081526020015f20549050919050565b7fa49807205ce4d355092ef5a8a18f56e8913cf4a201fbe287825b095693c217756112188161229e565b6112427fc5c74b901cb87f1e81a3e0539a5d95bf14fa111210701dd52208a2390204b4558361252b565b505050565b7fa49807205ce4d355092ef5a8a18f56e8913cf4a201fbe287825b095693c2177581565b6003602052805f5260405f205f915090505481565b7fa49807205ce4d355092ef5a8a18f56e8913cf4a201fbe287825b095693c217756112aa8161229e565b6112b261284c565b50565b5f60065f8381526020019081526020015f205f9054906101000a900473ffffffffffffffffffffffffffffffffffffffff169050919050565b5f60025f8481526020019081526020015f205f015f8373ffffffffffffffffffffffffffffffffffffffff1673ffffffffffffffffffffffffffffffffffffffff1681526020019081526020015f205f9054906101000a900460ff16905092915050565b61135a612dcd565b60075f8373ffffffffffffffffffffffffffffffffffffffff1673ffffffffffffffffffffffffffffffffffffffff1681526020019081526020015f206040518060a00160405290815f82015f9054906101000a900473ffffffffffffffffffffffffffffffffffffffff1673ffffffffffffffffffffffffffffffffffffffff1673ffffffffffffffffffffffffffffffffffffffff16815260200160018201805461140690613832565b80601f016020809104026020016040519081016040528092919081815260200182805461143290613832565b801561147d5780601f106114545761010080835404028352916020019161147d565b820191905f5260205f20905b81548152906001019060200180831161146057829003601f168201915b505050505081526020016002820154815260200160038201548152602001600482015f9054906101000a900460ff1615151515815250509050919050565b6114c36121eb565b5f73ffffffffffffffffffffffffffffffffffffffff1660075f3373ffffffffffffffffffffffffffffffffffffffff1673ffffffffffffffffffffffffffffffffffffffff1681526020019081526020015f205f015f9054906101000a900473ffffffffffffffffffffffffffffffffffffffff1673ffffffffffffffffffffffffffffffffffffffff1614611586576040517f6e8a1b0a00000000000000000000000000000000000000000000000000000000815260040160405180910390fd5b6040518060a001604052803373ffffffffffffffffffffffffffffffffffffffff1681526020018381526020018281526020014281526020016001151581525060075f3373ffffffffffffffffffffffffffffffffffffffff1673ffffffffffffffffffffffffffffffffffffffff1681526020019081526020015f205f820151815f015f6101000a81548173ffffffffffffffffffffffffffffffffffffffff021916908373ffffffffffffffffffffffffffffffffffffffff160217905550602082015181600101908161165c9190613a02565b5060408201518160020155606082015181600301556080820151816004015f6101000a81548160ff0219169083151502179055509050503373ffffffffffffffffffffffffffffffffffffffff167fbafddecbd1dec1c1afb76d693f1de16901f521bdf29a02438e3e6806c0b8d948836040516116d99190613ad1565b60405180910390a25050565b5f5f1b81565b6116f36121eb565b5f5f1b60055f3373ffffffffffffffffffffffffffffffffffffffff1673ffffffffffffffffffffffffffffffffffffffff1681526020019081526020015f20541461176b576040517f052b439c00000000000000000000000000000000000000000000000000000000815260040160405180910390fd5b5f73ffffffffffffffffffffffffffffffffffffffff1660075f3373ffffffffffffffffffffffffffffffffffffffff1673ffffffffffffffffffffffffffffffffffffffff1681526020019081526020015f205f015f9054906101000a900473ffffffffffffffffffffffffffffffffffffffff1673ffffffffffffffffffffffffffffffffffffffff1603611958576040518060a001604052803373ffffffffffffffffffffffffffffffffffffffff1681526020018381526020018281526020014281526020016001151581525060075f3373ffffffffffffffffffffffffffffffffffffffff1673ffffffffffffffffffffffffffffffffffffffff1681526020019081526020015f205f820151815f015f6101000a81548173ffffffffffffffffffffffffffffffffffffffff021916908373ffffffffffffffffffffffffffffffffffffffff16021790555060208201518160010190816118d29190613a02565b5060408201518160020155606082015181600301556080820151816004015f6101000a81548160ff0219169083151502179055509050503373ffffffffffffffffffffffffffffffffffffffff167fbafddecbd1dec1c1afb76d693f1de16901f521bdf29a02438e3e6806c0b8d9488360405161194f9190613ad1565b60405180910390a25b5f33424460405160200161196e93929190613c1a565b6040516020818303038152906040528051906020012090508060055f3373ffffffffffffffffffffffffffffffffffffffff1673ffffffffffffffffffffffffffffffffffffffff1681526020019081526020015f20819055503360065f8381526020019081526020015f205f6101000a81548173ffffffffffffffffffffffffffffffffffffffff021916908373ffffffffffffffffffffffffffffffffffffffff1602179055503373ffffffffffffffffffffffffffffffffffffffff167f1a0bad8b81287df6c7518ad18c022db6e8db24f922a8ff32dbb6fed74c699a2682604051611a5d9190613205565b60405180910390a2505050565b7fc5c74b901cb87f1e81a3e0539a5d95bf14fa111210701dd52208a2390204b45581565b5f60035f8373ffffffffffffffffffffffffffffffffffffffff1673ffffffffffffffffffffffffffffffffffffffff1681526020019081526020015f20549050919050565b6007602052805f5260405f205f91509050805f015f9054906101000a900473ffffffffffffffffffffffffffffffffffffffff1690806001018054611b1890613832565b80601f0160208091040260200160405190810160405280929190818152602001828054611b4490613832565b8015611b8f5780601f10611b6657610100808354040283529160200191611b8f565b820191905f5260205f20905b815481529060010190602001808311611b7257829003601f168201915b505050505090806002015490806003015490806004015f9054906101000a900460ff16905085565b6004602052815f5260405f208181548110611bd0575f80fd5b905f5260205f2090600402015f9150915050805f018054611bf090613832565b80601f0160208091040260200160405190810160405280929190818152602001828054611c1c90613832565b8015611c675780601f10611c3e57610100808354040283529160200191611c67565b820191905f5260205f20905b815481529060010190602001808311611c4a57829003601f168201915b505050505090806001018054611c7c90613832565b80601f0160208091040260200160405190810160405280929190818152602001828054611ca890613832565b8015611cf35780601f10611cca57610100808354040283529160200191611cf3565b820191905f5260205f20905b815481529060010190602001808311611cd657829003601f168201915b5050505050908060020154908060030154905084565b7fa49807205ce4d355092ef5a8a18f56e8913cf4a201fbe287825b095693c21775611d338161229e565b600b83604051611d439190613b2b565b90815260200160405180910390205f9054906101000a900460ff16611d94576040517f5e07eb5300000000000000000000000000000000000000000000000000000000815260040160405180910390fd5b81600a84604051611da59190613b2b565b908152602001604051809103902081905550505050565b611dc582610b0f565b611dce8161229e565b611dd88383612701565b50505050565b6006602052805f5260405f205f915054906101000a900473ffffffffffffffffffffffffffffffffffffffff1681565b6009602052815f5260405f208181548110611e27575f80fd5b905f5260205f20015f915091509054906101000a900473ffffffffffffffffffffffffffffffffffffffff1681565b606060045f8373ffffffffffffffffffffffffffffffffffffffff1673ffffffffffffffffffffffffffffffffffffffff1681526020019081526020015f20805480602002602001604051908101604052809291908181526020015f905b82821015612017578382905f5260205f2090600402016040518060800160405290815f82018054611ee490613832565b80601f0160208091040260200160405190810160405280929190818152602001828054611f1090613832565b8015611f5b5780601f10611f3257610100808354040283529160200191611f5b565b820191905f5260205f20905b815481529060010190602001808311611f3e57829003601f168201915b50505050508152602001600182018054611f7490613832565b80601f0160208091040260200160405190810160405280929190818152602001828054611fa090613832565b8015611feb5780601f10611fc257610100808354040283529160200191611feb565b820191905f5260205f20905b815481529060010190602001808311611fce57829003601f168201915b505050505081526020016002820154815260200160038201548152505081526020019060010190611eb4565b505050509050919050565b7fc5c74b901cb87f1e81a3e0539a5d95bf14fa111210701dd52208a2390204b45561204c8161229e565b8260035f8673ffffffffffffffffffffffffffffffffffffffff1673ffffffffffffffffffffffffffffffffffffffff1681526020019081526020015f2054106120e8578260035f8673ffffffffffffffffffffffffffffffffffffffff1673ffffffffffffffffffffffffffffffffffffffff1681526020019081526020015f205f8282546120dc9190613c56565b9250508190555061212b565b5f60035f8673ffffffffffffffffffffffffffffffffffffffff1673ffffffffffffffffffffffffffffffffffffffff1681526020019081526020015f20819055505b8373ffffffffffffffffffffffffffffffffffffffff167f2b535fbf4d2281f734a35408583a14d4e2b28653b00d761613e8758399dd6e6d60035f8773ffffffffffffffffffffffffffffffffffffffff1673ffffffffffffffffffffffffffffffffffffffff1681526020019081526020015f2054846040516121b0929190613c89565b60405180910390a250505050565b600a818051602081018201805184825260208301602085012081835280955050505050505f915090505481565b6121f3611158565b15612233576040517f08c379a000000000000000000000000000000000000000000000000000000000815260040161222a90613d01565b60405180910390fd5b565b5f7f01ffc9a7000000000000000000000000000000000000000000000000000000007bffffffffffffffffffffffffffffffffffffffffffffffffffffffff1916827bffffffffffffffffffffffffffffffffffffffffffffffffffffffff1916149050919050565b6122af816122aa6126fa565b6128ad565b50565b600b816040516122c29190613b2b565b90815260200160405180910390205f9054906101000a900460ff16612313576040517f5e07eb5300000000000000000000000000000000000000000000000000000000815260040160405180910390fd5b5f60045f8473ffffffffffffffffffffffffffffffffffffffff1673ffffffffffffffffffffffffffffffffffffffff1681526020019081526020015f2090505f5f90505b81805490508110156123bb57828051906020012082828154811061237f5761237e613d1f565b5b905f5260205f2090600402015f0160405161239a9190613de8565b6040518091039020036123ae575050612527565b8080600101915050612358565b505f600a836040516123cd9190613b2b565b908152602001604051809103902054905060045f8573ffffffffffffffffffffffffffffffffffffffff1673ffffffffffffffffffffffffffffffffffffffff1681526020019081526020015f206040518060800160405280858152602001612435866128fe565b815260200183815260200142815250908060018154018082558091505060019003905f5260205f2090600402015f909190919091505f820151815f01908161247d9190613a02565b5060208201518160010190816124939190613a02565b50604082015181600201556060820151816003015550506124d48482856040516020016124c09190613e48565b604051602081830303815290604052612615565b8373ffffffffffffffffffffffffffffffffffffffff167f67a8d47c6ecf3a491ea8a4f20a58352394879c573c678ec5b9abceae075d4dca848360405161251c929190613e69565b60405180910390a250505b5050565b5f61253683836112ee565b61260b57600160025f8581526020019081526020015f205f015f8473ffffffffffffffffffffffffffffffffffffffff1673ffffffffffffffffffffffffffffffffffffffff1681526020019081526020015f205f6101000a81548160ff0219169083151502179055506125a86126fa565b73ffffffffffffffffffffffffffffffffffffffff168273ffffffffffffffffffffffffffffffffffffffff16847f2f8788117e7eff1d82e926ec794901d17c78024a50270940304540a733656f0d60405160405180910390a46001905061260f565b5f90505b92915050565b8160035f8573ffffffffffffffffffffffffffffffffffffffff1673ffffffffffffffffffffffffffffffffffffffff1681526020019081526020015f205f8282546126619190613e97565b925050819055508273ffffffffffffffffffffffffffffffffffffffff167f2b535fbf4d2281f734a35408583a14d4e2b28653b00d761613e8758399dd6e6d60035f8673ffffffffffffffffffffffffffffffffffffffff1673ffffffffffffffffffffffffffffffffffffffff1681526020019081526020015f2054836040516126ed929190613c89565b60405180910390a2505050565b5f33905090565b5f61270c83836112ee565b156127e1575f60025f8581526020019081526020015f205f015f8473ffffffffffffffffffffffffffffffffffffffff1673ffffffffffffffffffffffffffffffffffffffff1681526020019081526020015f205f6101000a81548160ff02191690831515021790555061277e6126fa565b73ffffffffffffffffffffffffffffffffffffffff168273ffffffffffffffffffffffffffffffffffffffff16847ff6391f5c32d9c69d2a47ea670b442974b53935d1edc7fd64eb21e047a839171b60405160405180910390a4600190506127e5565b5f90505b92915050565b6127f3612d84565b5f60015f6101000a81548160ff0219169083151502179055507f5db9ee0a495bf2e6ff9c91a7834c1ba4fdd244a5e8aa4e537bd38aeae4b073aa6128356126fa565b6040516128429190613401565b60405180910390a1565b6128546121eb565b6001805f6101000a81548160ff0219169083151502179055507f62e78cea01bee320cd4e420270b5ea74000d11b0c9f74754ebdbfc544b05a2586128966126fa565b6040516128a39190613401565b60405180910390a1565b6128b782826112ee565b6128fa5780826040517fe2517d3f0000000000000000000000000000000000000000000000000000000081526004016128f1929190613eca565b60405180910390fd5b5050565b60605f828051906020012090507fce3c74d1aa17e71c363f9ec4e9713d22e86f5938ee1536de30ede935b3ea86998103612970576040518060400160405280601881526020017f4372656174656420796f7572206669727374206368616d610000000000000000815250915050612d7f565b7faa639973eeced364b1e49eaf04cdce0e3a448beda1ac572145dcdb4158ff3ee181036129d5576040518060400160405280601c81526020017f4d61646520796f757220666972737420636f6e747269627574696f6e00000000815250915050612d7f565b7f51171439905207316bfbb9035965755dce7f21f64623b2947331b66ce5d9ddc28103612a3a576040518060400160405280601481526020017f4d616465203520636f6e747269627574696f6e73000000000000000000000000815250915050612d7f565b7f9234ab901ad425023426825f1183636ff74e190a0a0f56dc56c1f4af63fcb9618103612a8257604051806060016040528060248152602001613f5a60249139915050612d7f565b7f2b6467a5de24f89e6a97f6828fefa01af0bf00966dbfb0f3b1e24583b812e6b78103612ae7576040518060400160405280601b81526020017f4e65766572206d6973736564206120636f6e747269627574696f6e0000000000815250915050612d7f565b7f17adccfbf6e04b3e995ca25ca6f24d735c9582d0b4df26ea0cadb28c67b208798103612b4c576040518060400160405280601981526020017f496e7669746564203320667269656e647320746f206a6f696e00000000000000815250915050612d7f565b7fb593de05e1f7c32bdf270b509901a2e646b5ecf28a2b92cf5cc27fd0e5f9b6ef8103612bb1576040518060400160405280601a81526020017f496e766974656420313020667269656e647320746f206a6f696e000000000000815250915050612d7f565b7ffd145c518a66acb9507bff5117fe28d0f32d8e354ef4985aa9f1b5ee396778ae8103612c16576040518060400160405280601b81526020017f496e76697465642032352b20667269656e647320746f206a6f696e0000000000815250915050612d7f565b7f8f8053b13b1f22f4796b8c42b5f8a18ec27e9aececf5ac25d15f1ab2c6b2cd208103612c7b576040518060400160405280601c81526020017f53656e7420796f757220666972737420503250207472616e7366657200000000815250915050612d7f565b7f39c1a46344cab3eb38f32fbc5c4c705d79d172521355b97cfffddd54a22a691c8103612ce0576040518060400160405280601481526020017f53656e7420352072656420656e76656c6f706573000000000000000000000000815250915050612d7f565b7f037d1d0b8cfccdae8d03f6142b310d063d6721d6892c4e0d6fb105d6a9525c238103612d45576040518060400160405280601681526020017f53656e742032302b2072656420656e76656c6f70657300000000000000000000815250915050612d7f565b6040518060400160405280601c81526020017f5370656369616c20616368696576656d656e7420756e6c6f636b6564000000008152509150505b919050565b612d8c611158565b612dcb576040517f08c379a0000000000000000000000000000000000000000000000000000000008152600401612dc290613f3b565b60405180910390fd5b565b6040518060a001604052805f73ffffffffffffffffffffffffffffffffffffffff168152602001606081526020015f81526020015f81526020015f151581525090565b5f604051905090565b5f5ffd5b5f5ffd5b5f5ffd5b5f5ffd5b5f601f19601f8301169050919050565b7f4e487b71000000000000000000000000000000000000000000000000000000005f52604160045260245ffd5b612e6f82612e29565b810181811067ffffffffffffffff82111715612e8e57612e8d612e39565b5b80604052505050565b5f612ea0612e10565b9050612eac8282612e66565b919050565b5f67ffffffffffffffff821115612ecb57612eca612e39565b5b612ed482612e29565b9050602081019050919050565b828183375f83830152505050565b5f612f01612efc84612eb1565b612e97565b905082815260208101848484011115612f1d57612f1c612e25565b5b612f28848285612ee1565b509392505050565b5f82601f830112612f4457612f43612e21565b5b8135612f54848260208601612eef565b91505092915050565b5f60208284031215612f7257612f71612e19565b5b5f82013567ffffffffffffffff811115612f8f57612f8e612e1d565b5b612f9b84828501612f30565b91505092915050565b5f7fffffffff0000000000000000000000000000000000000000000000000000000082169050919050565b612fd881612fa4565b8114612fe2575f5ffd5b50565b5f81359050612ff381612fcf565b92915050565b5f6020828403121561300e5761300d612e19565b5b5f61301b84828501612fe5565b91505092915050565b5f8115159050919050565b61303881613024565b82525050565b5f6020820190506130515f83018461302f565b92915050565b5f819050919050565b61306981613057565b8114613073575f5ffd5b50565b5f8135905061308481613060565b92915050565b5f5f604083850312156130a05761309f612e19565b5b5f83013567ffffffffffffffff8111156130bd576130bc612e1d565b5b6130c985828601612f30565b92505060206130da85828601613076565b9150509250929050565b5f73ffffffffffffffffffffffffffffffffffffffff82169050919050565b5f61310d826130e4565b9050919050565b61311d81613103565b8114613127575f5ffd5b50565b5f8135905061313881613114565b92915050565b5f5f6040838503121561315457613153612e19565b5b5f6131618582860161312a565b925050602083013567ffffffffffffffff81111561318257613181612e1d565b5b61318e85828601612f30565b9150509250929050565b5f819050919050565b6131aa81613198565b81146131b4575f5ffd5b50565b5f813590506131c5816131a1565b92915050565b5f602082840312156131e0576131df612e19565b5b5f6131ed848285016131b7565b91505092915050565b6131ff81613198565b82525050565b5f6020820190506132185f8301846131f6565b92915050565b5f6020828403121561323357613232612e19565b5b5f6132408482850161312a565b91505092915050565b61325281613057565b82525050565b5f60208201905061326b5f830184613249565b92915050565b5f5f6040838503121561328757613286612e19565b5b5f613294858286016131b7565b92505060206132a58582860161312a565b9150509250929050565b5f81519050919050565b5f82825260208201905092915050565b5f819050602082019050919050565b6132e181613103565b82525050565b5f6132f283836132d8565b60208301905092915050565b5f602082019050919050565b5f613314826132af565b61331e81856132b9565b9350613329836132c9565b805f5b8381101561335957815161334088826132e7565b975061334b836132fe565b92505060018101905061332c565b5085935050505092915050565b5f6020820190508181035f83015261337e818461330a565b905092915050565b5f5f5f6060848603121561339d5761339c612e19565b5b5f6133aa8682870161312a565b93505060206133bb86828701613076565b925050604084013567ffffffffffffffff8111156133dc576133db612e1d565b5b6133e886828701612f30565b9150509250925092565b6133fb81613103565b82525050565b5f6020820190506134145f8301846133f2565b92915050565b5f81519050919050565b5f82825260208201905092915050565b8281835e5f83830152505050565b5f61344c8261341a565b6134568185613424565b9350613466818560208601613434565b61346f81612e29565b840191505092915050565b61348381613198565b82525050565b61349281613057565b82525050565b6134a181613024565b82525050565b5f60a083015f8301516134bc5f8601826132d8565b50602083015184820360208601526134d48282613442565b91505060408301516134e9604086018261347a565b5060608301516134fc6060860182613489565b50608083015161350f6080860182613498565b508091505092915050565b5f6020820190508181035f83015261353281846134a7565b905092915050565b5f5f604083850312156135505761354f612e19565b5b5f83013567ffffffffffffffff81111561356d5761356c612e1d565b5b61357985828601612f30565b925050602061358a858286016131b7565b9150509250929050565b5f82825260208201905092915050565b5f6135ae8261341a565b6135b88185613594565b93506135c8818560208601613434565b6135d181612e29565b840191505092915050565b5f60a0820190506135ef5f8301886133f2565b818103602083015261360181876135a4565b905061361060408301866131f6565b61361d6060830185613249565b61362a608083018461302f565b9695505050505050565b5f5f6040838503121561364a57613649612e19565b5b5f6136578582860161312a565b925050602061366885828601613076565b9150509250929050565b5f6080820190508181035f83015261368a81876135a4565b9050818103602083015261369e81866135a4565b90506136ad6040830185613249565b6136ba6060830184613249565b95945050505050565b5f81519050919050565b5f82825260208201905092915050565b5f819050602082019050919050565b5f608083015f8301518482035f8601526137068282613442565b915050602083015184820360208601526137208282613442565b91505060408301516137356040860182613489565b5060608301516137486060860182613489565b508091505092915050565b5f61375e83836136ec565b905092915050565b5f602082019050919050565b5f61377c826136c3565b61378681856136cd565b935083602082028501613798856136dd565b805f5b858110156137d357848403895281516137b48582613753565b94506137bf83613766565b925060208a0199505060018101905061379b565b50829750879550505050505092915050565b5f6020820190508181035f8301526137fd8184613772565b905092915050565b7f4e487b71000000000000000000000000000000000000000000000000000000005f52602260045260245ffd5b5f600282049050600182168061384957607f821691505b60208210810361385c5761385b613805565b5b50919050565b5f819050815f5260205f209050919050565b5f6020601f8301049050919050565b5f82821b905092915050565b5f600883026138be7fffffffffffffffffffffffffffffffffffffffffffffffffffffffffffffffff82613883565b6138c88683613883565b95508019841693508086168417925050509392505050565b5f819050919050565b5f6139036138fe6138f984613057565b6138e0565b613057565b9050919050565b5f819050919050565b61391c836138e9565b6139306139288261390a565b84845461388f565b825550505050565b5f5f905090565b613947613938565b613952818484613913565b505050565b5b818110156139755761396a5f8261393f565b600181019050613958565b5050565b601f8211156139ba5761398b81613862565b61399484613874565b810160208510156139a3578190505b6139b76139af85613874565b830182613957565b50505b505050565b5f82821c905092915050565b5f6139da5f19846008026139bf565b1980831691505092915050565b5f6139f283836139cb565b9150826002028217905092915050565b613a0b8261341a565b67ffffffffffffffff811115613a2457613a23612e39565b5b613a2e8254613832565b613a39828285613979565b5f60209050601f831160018114613a6a575f8415613a58578287015190505b613a6285826139e7565b865550613ac9565b601f198416613a7886613862565b5f5b82811015613a9f57848901518255600182019150602085019450602081019050613a7a565b86831015613abc5784890151613ab8601f8916826139cb565b8355505b6001600288020188555050505b505050505050565b5f6020820190508181035f830152613ae981846135a4565b905092915050565b5f81905092915050565b5f613b058261341a565b613b0f8185613af1565b9350613b1f818560208601613434565b80840191505092915050565b5f613b368284613afb565b915081905092915050565b7f4e487b71000000000000000000000000000000000000000000000000000000005f52601160045260245ffd5b5f613b7882613057565b91507fffffffffffffffffffffffffffffffffffffffffffffffffffffffffffffffff8203613baa57613ba9613b41565b5b600182019050919050565b5f8160601b9050919050565b5f613bcb82613bb5565b9050919050565b5f613bdc82613bc1565b9050919050565b613bf4613bef82613103565b613bd2565b82525050565b5f819050919050565b613c14613c0f82613057565b613bfa565b82525050565b5f613c258286613be3565b601482019150613c358285613c03565b602082019150613c458284613c03565b602082019150819050949350505050565b5f613c6082613057565b9150613c6b83613057565b9250828203905081811115613c8357613c82613b41565b5b92915050565b5f604082019050613c9c5f830185613249565b8181036020830152613cae81846135a4565b90509392505050565b7f5061757361626c653a20706175736564000000000000000000000000000000005f82015250565b5f613ceb601083613594565b9150613cf682613cb7565b602082019050919050565b5f6020820190508181035f830152613d1881613cdf565b9050919050565b7f4e487b71000000000000000000000000000000000000000000000000000000005f52603260045260245ffd5b5f81905092915050565b5f819050815f5260205f209050919050565b5f8154613d7481613832565b613d7e8186613d4c565b9450600182165f8114613d985760018114613dad57613ddf565b60ff1983168652811515820286019350613ddf565b613db685613d56565b5f5b83811015613dd757815481890152600182019150602081019050613db8565b838801955050505b50505092915050565b5f613df38284613d68565b915081905092915050565b7f416368696576656d656e743a20000000000000000000000000000000000000005f82015250565b5f613e32600d83613af1565b9150613e3d82613dfe565b600d82019050919050565b5f613e5282613e26565b9150613e5e8284613afb565b915081905092915050565b5f6040820190508181035f830152613e8181856135a4565b9050613e906020830184613249565b9392505050565b5f613ea182613057565b9150613eac83613057565b9250828201905080821115613ec457613ec3613b41565b5b92915050565b5f604082019050613edd5f8301856133f2565b613eea60208301846131f6565b9392505050565b7f5061757361626c653a206e6f74207061757365640000000000000000000000005f82015250565b5f613f25601483613594565b9150613f3082613ef1565b602082019050919050565b5f6020820190508181035f830152613f5281613f19565b905091905056fe5375636365737366756c6c7920636f6d706c657465642061206368616d61206379636c65a264697066735822122099da3b6d4de5a026040d44aff8aba13b007c464fee3c22502f1f9270c55d745464736f6c634300081e0033",
			"opcodes": "PUSH1 0x80 PUSH1 0x40 MSTORE CALLVALUE DUP1 ISZERO PUSH2 0xF JUMPI PUSH0 PUSH0 REVERT JUMPDEST POP PUSH1 0x1 PUSH0 DUP2 SWAP1 SSTORE POP PUSH0 PUSH1 0x1 PUSH0 PUSH2 0x100 EXP DUP2 SLOAD DUP2 PUSH1 0xFF MUL NOT AND SWAP1 DUP4 ISZERO ISZERO MUL OR SWAP1 SSTORE POP PUSH2 0x42 PUSH0 PUSH0 SHL CALLER PUSH2 0x87 PUSH1 0x20 SHL PUSH1 0x20 SHR JUMP JUMPDEST POP PUSH2 0x73 PUSH32 0xA49807205CE4D355092EF5A8A18F56E8913CF4A201FBE287825B095693C21775 CALLER PUSH2 0x87 PUSH1 0x20 SHL PUSH1 0x20 SHR JUMP JUMPDEST POP PUSH2 0x82 PUSH2 0x17D PUSH1 0x20 SHL PUSH1 0x20 SHR JUMP JUMPDEST PUSH2 0x9B0 JUMP JUMPDEST PUSH0 PUSH2 0x98 DUP4 DUP4 PUSH2 0x531 PUSH1 0x20 SHL PUSH1 0x20 SHR JUMP JUMPDEST PUSH2 0x173 JUMPI PUSH1 0x1 PUSH1 0x2 PUSH0 DUP6 DUP2 MSTORE PUSH1 0x20 ADD SWAP1 DUP2 MSTORE PUSH1 0x20 ADD PUSH0 KECCAK256 PUSH0 ADD PUSH0 DUP5 PUSH20 0xFFFFFFFFFFFFFFFFFFFFFFFFFFFFFFFFFFFFFFFF AND PUSH20 0xFFFFFFFFFFFFFFFFFFFFFFFFFFFFFFFFFFFFFFFF AND DUP2 MSTORE PUSH1 0x20 ADD SWAP1 DUP2 MSTORE PUSH1 0x20 ADD PUSH0 KECCAK256 PUSH0 PUSH2 0x100 EXP DUP2 SLOAD DUP2 PUSH1 0xFF MUL NOT AND SWAP1 DUP4 ISZERO ISZERO MUL OR SWAP1 SSTORE POP PUSH2 0x110 PUSH2 0x595 PUSH1 0x20 SHL PUSH1 0x20 SHR JUMP JUMPDEST PUSH20 0xFFFFFFFFFFFFFFFFFFFFFFFFFFFFFFFFFFFFFFFF AND DUP3 PUSH20 0xFFFFFFFFFFFFFFFFFFFFFFFFFFFFFFFFFFFFFFFF AND DUP5 PUSH32 0x2F8788117E7EFF1D82E926EC794901D17C78024A50270940304540A733656F0D PUSH1 0x40 MLOAD PUSH1 0x40 MLOAD DUP1 SWAP2 SUB SWAP1 LOG4 PUSH1 0x1 SWAP1 POP PUSH2 0x177 JUMP JUMPDEST PUSH0 SWAP1 POP JUMPDEST SWAP3 SWAP2 POP POP JUMP JUMPDEST PUSH1 0x64 PUSH1 0xA PUSH1 0x40 MLOAD PUSH2 0x18D SWAP1 PUSH2 0x5F0 JUMP JUMPDEST SWAP1 DUP2 MSTORE PUSH1 0x20 ADD PUSH1 0x40 MLOAD DUP1 SWAP2 SUB SWAP1 KECCAK256 DUP2 SWAP1 SSTORE POP PUSH1 0x19 PUSH1 0xA PUSH1 0x40 MLOAD PUSH2 0x1AF SWAP1 PUSH2 0x64E JUMP JUMPDEST SWAP1 DUP2 MSTORE PUSH1 0x20 ADD PUSH1 0x40 MLOAD DUP1 SWAP2 SUB SWAP1 KECCAK256 DUP2 SWAP1 SSTORE POP PUSH1 0x32 PUSH1 0xA PUSH1 0x40 MLOAD PUSH2 0x1D1 SWAP1 PUSH2 0x6AC JUMP JUMPDEST SWAP1 DUP2 MSTORE PUSH1 0x20 ADD PUSH1 0x40 MLOAD DUP1 SWAP2 SUB SWAP1 KECCAK256 DUP2 SWAP1 SSTORE POP PUSH1 0x64 PUSH1 0xA PUSH1 0x40 MLOAD PUSH2 0x1F3 SWAP1 PUSH2 0x70A JUMP JUMPDEST SWAP1 DUP2 MSTORE PUSH1 0x20 ADD PUSH1 0x40 MLOAD DUP1 SWAP2 SUB SWAP1 KECCAK256 DUP2 SWAP1 SSTORE POP PUSH1 0x4B PUSH1 0xA PUSH1 0x40 MLOAD PUSH2 0x215 SWAP1 PUSH2 0x768 JUMP JUMPDEST SWAP1 DUP2 MSTORE PUSH1 0x20 ADD PUSH1 0x40 MLOAD DUP1 SWAP2 SUB SWAP1 KECCAK256 DUP2 SWAP1 SSTORE POP PUSH1 0x4B PUSH1 0xA PUSH1 0x40 MLOAD PUSH2 0x237 SWAP1 PUSH2 0x7C6 JUMP JUMPDEST SWAP1 DUP2 MSTORE PUSH1 0x20 ADD PUSH1 0x40 MLOAD DUP1 SWAP2 SUB SWAP1 KECCAK256 DUP2 SWAP1 SSTORE POP PUSH1 0x96 PUSH1 0xA PUSH1 0x40 MLOAD PUSH2 0x259 SWAP1 PUSH2 0x824 JUMP JUMPDEST SWAP1 DUP2 MSTORE PUSH1 0x20 ADD PUSH1 0x40 MLOAD DUP1 SWAP2 SUB SWAP1 KECCAK256 DUP2 SWAP1 SSTORE POP PUSH1 0xC8 PUSH1 0xA PUSH1 0x40 MLOAD PUSH2 0x27B SWAP1 PUSH2 0x882 JUMP JUMPDEST SWAP1 DUP2 MSTORE PUSH1 0x20 ADD PUSH1 0x40 MLOAD DUP1 SWAP2 SUB SWAP1 KECCAK256 DUP2 SWAP1 SSTORE POP PUSH1 0x14 PUSH1 0xA PUSH1 0x40 MLOAD PUSH2 0x29D SWAP1 PUSH2 0x8E0 JUMP JUMPDEST SWAP1 DUP2 MSTORE PUSH1 0x20 ADD PUSH1 0x40 MLOAD DUP1 SWAP2 SUB SWAP1 KECCAK256 DUP2 SWAP1 SSTORE POP PUSH1 0x32 PUSH1 0xA PUSH1 0x40 MLOAD PUSH2 0x2BF SWAP1 PUSH2 0x93E JUMP JUMPDEST SWAP1 DUP2 MSTORE PUSH1 0x20 ADD PUSH1 0x40 MLOAD DUP1 SWAP2 SUB SWAP1 KECCAK256 DUP2 SWAP1 SSTORE POP PUSH1 0x64 PUSH1 0xA PUSH1 0x40 MLOAD PUSH2 0x2E1 SWAP1 PUSH2 0x99C JUMP JUMPDEST SWAP1 DUP2 MSTORE PUSH1 0x20 ADD PUSH1 0x40 MLOAD DUP1 SWAP2 SUB SWAP1 KECCAK256 DUP2 SWAP1 SSTORE POP PUSH1 0x1 PUSH1 0xB PUSH1 0x40 MLOAD PUSH2 0x303 SWAP1 PUSH2 0x5F0 JUMP JUMPDEST SWAP1 DUP2 MSTORE PUSH1 0x20 ADD PUSH1 0x40 MLOAD DUP1 SWAP2 SUB SWAP1 KECCAK256 PUSH0 PUSH2 0x100 EXP DUP2 SLOAD DUP2 PUSH1 0xFF MUL NOT AND SWAP1 DUP4 ISZERO ISZERO MUL OR SWAP1 SSTORE POP PUSH1 0x1 PUSH1 0xB PUSH1 0x40 MLOAD PUSH2 0x337 SWAP1 PUSH2 0x64E JUMP JUMPDEST SWAP1 DUP2 MSTORE PUSH1 0x20 ADD PUSH1 0x40 MLOAD DUP1 SWAP2 SUB SWAP1 KECCAK256 PUSH0 PUSH2 0x100 EXP DUP2 SLOAD DUP2 PUSH1 0xFF MUL NOT AND SWAP1 DUP4 ISZERO ISZERO MUL OR SWAP1 SSTORE POP PUSH1 0x1 PUSH1 0xB PUSH1 0x40 MLOAD PUSH2 0x36B SWAP1 PUSH2 0x6AC JUMP JUMPDEST SWAP1 DUP2 MSTORE PUSH1 0x20 ADD PUSH1 0x40 MLOAD DUP1 SWAP2 SUB SWAP1 KECCAK256 PUSH0 PUSH2 0x100 EXP DUP2 SLOAD DUP2 PUSH1 0xFF MUL NOT AND SWAP1 DUP4 ISZERO ISZERO MUL OR SWAP1 SSTORE POP PUSH1 0x1 PUSH1 0xB PUSH1 0x40 MLOAD PUSH2 0x39F SWAP1 PUSH2 0x70A JUMP JUMPDEST SWAP1 DUP2 MSTORE PUSH1 0x20 ADD PUSH1 0x40 MLOAD DUP1 SWAP2 SUB SWAP1 KECCAK256 PUSH0 PUSH2 0x100 EXP DUP2 SLOAD DUP2 PUSH1 0xFF MUL NOT AND SWAP1 DUP4 ISZERO ISZERO MUL OR SWAP1 SSTORE POP PUSH1 0x1 PUSH1 0xB PUSH1 0x40 MLOAD PUSH2 0x3D3 SWAP1 PUSH2 0x768 JUMP JUMPDEST SWAP1 DUP2 MSTORE PUSH1 0x20 ADD PUSH1 0x40 MLOAD DUP1 SWAP2 SUB SWAP1 KECCAK256 PUSH0 PUSH2 0x100 EXP DUP2 SLOAD DUP2 PUSH1 0xFF MUL NOT AND SWAP1 DUP4 ISZERO ISZERO MUL OR SWAP1 SSTORE POP PUSH1 0x1 PUSH1 0xB PUSH1 0x40 MLOAD PUSH2 0x407 SWAP1 PUSH2 0x7C6 JUMP JUMPDEST SWAP1 DUP2 MSTORE PUSH1 0x20 ADD PUSH1 0x40 MLOAD DUP1 SWAP2 SUB SWAP1 KECCAK256 PUSH0 PUSH2 0x100 EXP DUP2 SLOAD DUP2 PUSH1 0xFF MUL NOT AND SWAP1 DUP4 ISZERO ISZERO MUL OR SWAP1 SSTORE POP PUSH1 0x1 PUSH1 0xB PUSH1 0x40 MLOAD PUSH2 0x43B SWAP1 PUSH2 0x824 JUMP JUMPDEST SWAP1 DUP2 MSTORE PUSH1 0x20 ADD PUSH1 0x40 MLOAD DUP1 SWAP2 SUB SWAP1 KECCAK256 PUSH0 PUSH2 0x100 EXP DUP2 SLOAD DUP2 PUSH1 0xFF MUL NOT AND SWAP1 DUP4 ISZERO ISZERO MUL OR SWAP1 SSTORE POP PUSH1 0x1 PUSH1 0xB PUSH1 0x40 MLOAD PUSH2 0x46F SWAP1 PUSH2 0x882 JUMP JUMPDEST SWAP1 DUP2 MSTORE PUSH1 0x20 ADD PUSH1 0x40 MLOAD DUP1 SWAP2 SUB SWAP1 KECCAK256 PUSH0 PUSH2 0x100 EXP DUP2 SLOAD DUP2 PUSH1 0xFF MUL NOT AND SWAP1 DUP4 ISZERO ISZERO MUL OR SWAP1 SSTORE POP PUSH1 0x1 PUSH1 0xB PUSH1 0x40 MLOAD PUSH2 0x4A3 SWAP1 PUSH2 0x8E0 JUMP JUMPDEST SWAP1 DUP2 MSTORE PUSH1 0x20 ADD PUSH1 0x40 MLOAD DUP1 SWAP2 SUB SWAP1 KECCAK256 PUSH0 PUSH2 0x100 EXP DUP2 SLOAD DUP2 PUSH1 0xFF MUL NOT AND SWAP1 DUP4 ISZERO ISZERO MUL OR SWAP1 SSTORE POP PUSH1 0x1 PUSH1 0xB PUSH1 0x40 MLOAD PUSH2 0x4D7 SWAP1 PUSH2 0x93E JUMP JUMPDEST SWAP1 DUP2 MSTORE PUSH1 0x20 ADD PUSH1 0x40 MLOAD DUP1 SWAP2 SUB SWAP1 KECCAK256 PUSH0 PUSH2 0x100 EXP DUP2 SLOAD DUP2 PUSH1 0xFF MUL NOT AND SWAP1 DUP4 ISZERO ISZERO MUL OR SWAP1 SSTORE POP PUSH1 0x1 PUSH1 0xB PUSH1 0x40 MLOAD PUSH2 0x50B SWAP1 PUSH2 0x99C JUMP JUMPDEST SWAP1 DUP2 MSTORE PUSH1 0x20 ADD PUSH1 0x40 MLOAD DUP1 SWAP2 SUB SWAP1 KECCAK256 PUSH0 PUSH2 0x100 EXP DUP2 SLOAD DUP2 PUSH1 0xFF MUL NOT AND SWAP1 DUP4 ISZERO ISZERO MUL OR SWAP1 SSTORE POP JUMP JUMPDEST PUSH0 PUSH1 0x2 PUSH0 DUP5 DUP2 MSTORE PUSH1 0x20 ADD SWAP1 DUP2 MSTORE PUSH1 0x20 ADD PUSH0 KECCAK256 PUSH0 ADD PUSH0 DUP4 PUSH20 0xFFFFFFFFFFFFFFFFFFFFFFFFFFFFFFFFFFFFFFFF AND PUSH20 0xFFFFFFFFFFFFFFFFFFFFFFFFFFFFFFFFFFFFFFFF AND DUP2 MSTORE PUSH1 0x20 ADD SWAP1 DUP2 MSTORE PUSH1 0x20 ADD PUSH0 KECCAK256 PUSH0 SWAP1 SLOAD SWAP1 PUSH2 0x100 EXP SWAP1 DIV PUSH1 0xFF AND SWAP1 POP SWAP3 SWAP2 POP POP JUMP JUMPDEST PUSH0 CALLER SWAP1 POP SWAP1 JUMP JUMPDEST PUSH0 DUP2 SWAP1 POP SWAP3 SWAP2 POP POP JUMP JUMPDEST PUSH32 0x4368616D612043726561746F7200000000000000000000000000000000000000 PUSH0 DUP3 ADD MSTORE POP JUMP JUMPDEST PUSH0 PUSH2 0x5DA PUSH1 0xD DUP4 PUSH2 0x59C JUMP JUMPDEST SWAP2 POP PUSH2 0x5E5 DUP3 PUSH2 0x5A6 JUMP JUMPDEST PUSH1 0xD DUP3 ADD SWAP1 POP SWAP2 SWAP1 POP JUMP JUMPDEST PUSH0 PUSH2 0x5FA DUP3 PUSH2 0x5CE JUMP JUMPDEST SWAP2 POP DUP2 SWAP1 POP SWAP2 SWAP1 POP JUMP JUMPDEST PUSH32 0x466972737420537461636B000000000000000000000000000000000000000000 PUSH0 DUP3 ADD MSTORE POP JUMP JUMPDEST PUSH0 PUSH2 0x638 PUSH1 0xB DUP4 PUSH2 0x59C JUMP JUMPDEST SWAP2 POP PUSH2 0x643 DUP3 PUSH2 0x604 JUMP JUMPDEST PUSH1 0xB DUP3 ADD SWAP1 POP SWAP2 SWAP1 POP JUMP JUMPDEST PUSH0 PUSH2 0x658 DUP3 PUSH2 0x62C JUMP JUMPDEST SWAP2 POP DUP2 SWAP1 POP SWAP2 SWAP1 POP JUMP JUMPDEST PUSH32 0x3520436F6E747269627574696F6E730000000000000000000000000000000000 PUSH0 DUP3 ADD MSTORE POP JUMP JUMPDEST PUSH0 PUSH2 0x696 PUSH1 0xF DUP4 PUSH2 0x59C JUMP JUMPDEST SWAP2 POP PUSH2 0x6A1 DUP3 PUSH2 0x662 JUMP JUMPDEST PUSH1 0xF DUP3 ADD SWAP1 POP SWAP2 SWAP1 POP JUMP JUMPDEST PUSH0 PUSH2 0x6B6 DUP3 PUSH2 0x68A JUMP JUMPDEST SWAP2 POP DUP2 SWAP1 POP SWAP2 SWAP1 POP JUMP JUMPDEST PUSH32 0x4368616D6120436F6D706C657465640000000000000000000000000000000000 PUSH0 DUP3 ADD MSTORE POP JUMP JUMPDEST PUSH0 PUSH2 0x6F4 PUSH1 0xF DUP4 PUSH2 0x59C JUMP JUMPDEST SWAP2 POP PUSH2 0x6FF DUP3 PUSH2 0x6C0 JUMP JUMPDEST PUSH1 0xF DUP3 ADD SWAP1 POP SWAP2 SWAP1 POP JUMP JUMPDEST PUSH0 PUSH2 0x714 DUP3 PUSH2 0x6E8 JUMP JUMPDEST SWAP2 POP DUP2 SWAP1 POP SWAP2 SWAP1 POP JUMP JUMPDEST PUSH32 0x5065726665637420417474656E64616E63650000000000000000000000000000 PUSH0 DUP3 ADD MSTORE POP JUMP JUMPDEST PUSH0 PUSH2 0x752 PUSH1 0x12 DUP4 PUSH2 0x59C JUMP JUMPDEST SWAP2 POP PUSH2 0x75D DUP3 PUSH2 0x71E JUMP JUMPDEST PUSH1 0x12 DUP3 ADD SWAP1 POP SWAP2 SWAP1 POP JUMP JUMPDEST PUSH0 PUSH2 0x772 DUP3 PUSH2 0x746 JUMP JUMPDEST SWAP2 POP DUP2 SWAP1 POP SWAP2 SWAP1 POP JUMP JUMPDEST PUSH32 0x496E7669746564203320467269656E6473000000000000000000000000000000 PUSH0 DUP3 ADD MSTORE POP JUMP JUMPDEST PUSH0 PUSH2 0x7B0 PUSH1 0x11 DUP4 PUSH2 0x59C JUMP JUMPDEST SWAP2 POP PUSH2 0x7BB DUP3 PUSH2 0x77C JUMP JUMPDEST PUSH1 0x11 DUP3 ADD SWAP1 POP SWAP2 SWAP1 POP JUMP JUMPDEST PUSH0 PUSH2 0x7D0 DUP3 PUSH2 0x7A4 JUMP JUMPDEST SWAP2 POP DUP2 SWAP1 POP SWAP2 SWAP1 POP JUMP JUMPDEST PUSH32 0x496E766974656420313020467269656E64730000000000000000000000000000 PUSH0 DUP3 ADD MSTORE POP JUMP JUMPDEST PUSH0 PUSH2 0x80E PUSH1 0x12 DUP4 PUSH2 0x59C JUMP JUMPDEST SWAP2 POP PUSH2 0x819 DUP3 PUSH2 0x7DA JUMP JUMPDEST PUSH1 0x12 DUP3 ADD SWAP1 POP SWAP2 SWAP1 POP JUMP JUMPDEST PUSH0 PUSH2 0x82E DUP3 PUSH2 0x802 JUMP JUMPDEST SWAP2 POP DUP2 SWAP1 POP SWAP2 SWAP1 POP JUMP JUMPDEST PUSH32 0x536F6369616C20427574746572666C7900000000000000000000000000000000 PUSH0 DUP3 ADD MSTORE POP JUMP JUMPDEST PUSH0 PUSH2 0x86C PUSH1 0x10 DUP4 PUSH2 0x59C JUMP JUMPDEST SWAP2 POP PUSH2 0x877 DUP3 PUSH2 0x838 JUMP JUMPDEST PUSH1 0x10 DUP3 ADD SWAP1 POP SWAP2 SWAP1 POP JUMP JUMPDEST PUSH0 PUSH2 0x88C DUP3 PUSH2 0x860 JUMP JUMPDEST SWAP2 POP DUP2 SWAP1 POP SWAP2 SWAP1 POP JUMP JUMPDEST PUSH32 0x4669727374205032500000000000000000000000000000000000000000000000 PUSH0 DUP3 ADD MSTORE POP JUMP JUMPDEST PUSH0 PUSH2 0x8CA PUSH1 0x9 DUP4 PUSH2 0x59C JUMP JUMPDEST SWAP2 POP PUSH2 0x8D5 DUP3 PUSH2 0x896 JUMP JUMPDEST PUSH1 0x9 DUP3 ADD SWAP1 POP SWAP2 SWAP1 POP JUMP JUMPDEST PUSH0 PUSH2 0x8EA DUP3 PUSH2 0x8BE JUMP JUMPDEST SWAP2 POP DUP2 SWAP1 POP SWAP2 SWAP1 POP JUMP JUMPDEST PUSH32 0x53656E7420352052656420456E76656C6F706573000000000000000000000000 PUSH0 DUP3 ADD MSTORE POP JUMP JUMPDEST PUSH0 PUSH2 0x928 PUSH1 0x14 DUP4 PUSH2 0x59C JUMP JUMPDEST SWAP2 POP PUSH2 0x933 DUP3 PUSH2 0x8F4 JUMP JUMPDEST PUSH1 0x14 DUP3 ADD SWAP1 POP SWAP2 SWAP1 POP JUMP JUMPDEST PUSH0 PUSH2 0x948 DUP3 PUSH2 0x91C JUMP JUMPDEST SWAP2 POP DUP2 SWAP1 POP SWAP2 SWAP1 POP JUMP JUMPDEST PUSH32 0x52656420456E76656C6F7065204D617374657200000000000000000000000000 PUSH0 DUP3 ADD MSTORE POP JUMP JUMPDEST PUSH0 PUSH2 0x986 PUSH1 0x13 DUP4 PUSH2 0x59C JUMP JUMPDEST SWAP2 POP PUSH2 0x991 DUP3 PUSH2 0x952 JUMP JUMPDEST PUSH1 0x13 DUP3 ADD SWAP1 POP SWAP2 SWAP1 POP JUMP JUMPDEST PUSH0 PUSH2 0x9A6 DUP3 PUSH2 0x97A JUMP JUMPDEST SWAP2 POP DUP2 SWAP1 POP SWAP2 SWAP1 POP JUMP JUMPDEST PUSH2 0x3FB3 DUP1 PUSH2 0x9BD PUSH0 CODECOPY PUSH0 RETURN INVALID PUSH1 0x80 PUSH1 0x40 MSTORE CALLVALUE DUP1 ISZERO PUSH2 0xF JUMPI PUSH0 PUSH0 REVERT JUMPDEST POP PUSH1 0x4 CALLDATASIZE LT PUSH2 0x245 JUMPI PUSH0 CALLDATALOAD PUSH1 0xE0 SHR DUP1 PUSH4 0x75B238FC GT PUSH2 0x139 JUMPI DUP1 PUSH4 0xB34E0C47 GT PUSH2 0xB6 JUMPI DUP1 PUSH4 0xDDE7FE83 GT PUSH2 0x7A JUMPI DUP1 PUSH4 0xDDE7FE83 EQ PUSH2 0x75C JUMPI DUP1 PUSH4 0xE697B5D8 EQ PUSH2 0x78C JUMPI DUP1 PUSH4 0xF09153C4 EQ PUSH2 0x7BC JUMPI DUP1 PUSH4 0xF5C63A65 EQ PUSH2 0x7EC JUMPI DUP1 PUSH4 0xFB6298D5 EQ PUSH2 0x808 JUMPI PUSH2 0x245 JUMP JUMPDEST DUP1 PUSH4 0xB34E0C47 EQ PUSH2 0x68D JUMPI DUP1 PUSH4 0xBBE15627 EQ PUSH2 0x6BD JUMPI DUP1 PUSH4 0xBF882E73 EQ PUSH2 0x6F1 JUMPI DUP1 PUSH4 0xC4641DD7 EQ PUSH2 0x724 JUMPI DUP1 PUSH4 0xD547741F EQ PUSH2 0x740 JUMPI PUSH2 0x245 JUMP JUMPDEST DUP1 PUSH4 0x987EE156 GT PUSH2 0xFD JUMPI DUP1 PUSH4 0x987EE156 EQ PUSH2 0x5E9 JUMPI DUP1 PUSH4 0x9888A57C EQ PUSH2 0x619 JUMPI DUP1 PUSH4 0xA217FDDF EQ PUSH2 0x635 JUMPI DUP1 PUSH4 0xA9C837C9 EQ PUSH2 0x653 JUMPI DUP1 PUSH4 0xAC132D2D EQ PUSH2 0x66F JUMPI PUSH2 0x245 JUMP JUMPDEST DUP1 PUSH4 0x75B238FC EQ PUSH2 0x531 JUMPI DUP1 PUSH4 0x76DD110F EQ PUSH2 0x54F JUMPI DUP1 PUSH4 0x8456CB59 EQ PUSH2 0x57F JUMPI DUP1 PUSH4 0x87CF1621 EQ PUSH2 0x589 JUMPI DUP1 PUSH4 0x91D14854 EQ PUSH2 0x5B9 JUMPI PUSH2 0x245 JUMP JUMPDEST DUP1 PUSH4 0x36568ABE GT PUSH2 0x1C7 JUMPI DUP1 PUSH4 0x58F43F76 GT PUSH2 0x18B JUMPI DUP1 PUSH4 0x58F43F76 EQ PUSH2 0x47B JUMPI DUP1 PUSH4 0x5C975ABB EQ PUSH2 0x4AB JUMPI DUP1 PUSH4 0x5D03CE80 EQ PUSH2 0x4C9 JUMPI DUP1 PUSH4 0x61E092FC EQ PUSH2 0x4E5 JUMPI DUP1 PUSH4 0x7300F624 EQ PUSH2 0x515 JUMPI PUSH2 0x245 JUMP JUMPDEST DUP1 PUSH4 0x36568ABE EQ PUSH2 0x3C5 JUMPI DUP1 PUSH4 0x3F4BA83A EQ PUSH2 0x3E1 JUMPI DUP1 PUSH4 0x41C57372 EQ PUSH2 0x3EB JUMPI DUP1 PUSH4 0x575CEA6B EQ PUSH2 0x41B JUMPI DUP1 PUSH4 0x57B24E6B EQ PUSH2 0x44B JUMPI PUSH2 0x245 JUMP JUMPDEST DUP1 PUSH4 0x248A9CA3 GT PUSH2 0x20E JUMPI DUP1 PUSH4 0x248A9CA3 EQ PUSH2 0x2FD JUMPI DUP1 PUSH4 0x24ACBD69 EQ PUSH2 0x32D JUMPI DUP1 PUSH4 0x258219C2 EQ PUSH2 0x35D JUMPI DUP1 PUSH4 0x2F2FF15D EQ PUSH2 0x38D JUMPI DUP1 PUSH4 0x33B0D363 EQ PUSH2 0x3A9 JUMPI PUSH2 0x245 JUMP JUMPDEST DUP1 PUSH3 0x9299E3 EQ PUSH2 0x249 JUMPI DUP1 PUSH4 0x1FFC9A7 EQ PUSH2 0x265 JUMPI DUP1 PUSH4 0xC860DCC EQ PUSH2 0x295 JUMPI DUP1 PUSH4 0x14FC7E4D EQ PUSH2 0x2B1 JUMPI DUP1 PUSH4 0x16064572 EQ PUSH2 0x2E1 JUMPI JUMPDEST PUSH0 PUSH0 REVERT JUMPDEST PUSH2 0x263 PUSH1 0x4 DUP1 CALLDATASIZE SUB DUP2 ADD SWAP1 PUSH2 0x25E SWAP2 SWAP1 PUSH2 0x2F5D JUMP JUMPDEST PUSH2 0x838 JUMP JUMPDEST STOP JUMPDEST PUSH2 0x27F PUSH1 0x4 DUP1 CALLDATASIZE SUB DUP2 ADD SWAP1 PUSH2 0x27A SWAP2 SWAP1 PUSH2 0x2FF9 JUMP JUMPDEST PUSH2 0x9A2 JUMP JUMPDEST PUSH1 0x40 MLOAD PUSH2 0x28C SWAP2 SWAP1 PUSH2 0x303E JUMP JUMPDEST PUSH1 0x40 MLOAD DUP1 SWAP2 SUB SWAP1 RETURN JUMPDEST PUSH2 0x2AF PUSH1 0x4 DUP1 CALLDATASIZE SUB DUP2 ADD SWAP1 PUSH2 0x2AA SWAP2 SWAP1 PUSH2 0x308A JUMP JUMPDEST PUSH2 0xA1B JUMP JUMPDEST STOP JUMPDEST PUSH2 0x2CB PUSH1 0x4 DUP1 CALLDATASIZE SUB DUP2 ADD SWAP1 PUSH2 0x2C6 SWAP2 SWAP1 PUSH2 0x2F5D JUMP JUMPDEST PUSH2 0xAA3 JUMP JUMPDEST PUSH1 0x40 MLOAD PUSH2 0x2D8 SWAP2 SWAP1 PUSH2 0x303E JUMP JUMPDEST PUSH1 0x40 MLOAD DUP1 SWAP2 SUB SWAP1 RETURN JUMPDEST PUSH2 0x2FB PUSH1 0x4 DUP1 CALLDATASIZE SUB DUP2 ADD SWAP1 PUSH2 0x2F6 SWAP2 SWAP1 PUSH2 0x313E JUMP JUMPDEST PUSH2 0xAD6 JUMP JUMPDEST STOP JUMPDEST PUSH2 0x317 PUSH1 0x4 DUP1 CALLDATASIZE SUB DUP2 ADD SWAP1 PUSH2 0x312 SWAP2 SWAP1 PUSH2 0x31CB JUMP JUMPDEST PUSH2 0xB0F JUMP JUMPDEST PUSH1 0x40 MLOAD PUSH2 0x324 SWAP2 SWAP1 PUSH2 0x3205 JUMP JUMPDEST PUSH1 0x40 MLOAD DUP1 SWAP2 SUB SWAP1 RETURN JUMPDEST PUSH2 0x347 PUSH1 0x4 DUP1 CALLDATASIZE SUB DUP2 ADD SWAP1 PUSH2 0x342 SWAP2 SWAP1 PUSH2 0x321E JUMP JUMPDEST PUSH2 0xB2C JUMP JUMPDEST PUSH1 0x40 MLOAD PUSH2 0x354 SWAP2 SWAP1 PUSH2 0x3258 JUMP JUMPDEST PUSH1 0x40 MLOAD DUP1 SWAP2 SUB SWAP1 RETURN JUMPDEST PUSH2 0x377 PUSH1 0x4 DUP1 CALLDATASIZE SUB DUP2 ADD SWAP1 PUSH2 0x372 SWAP2 SWAP1 PUSH2 0x2F5D JUMP JUMPDEST PUSH2 0xB72 JUMP JUMPDEST PUSH1 0x40 MLOAD PUSH2 0x384 SWAP2 SWAP1 PUSH2 0x303E JUMP JUMPDEST PUSH1 0x40 MLOAD DUP1 SWAP2 SUB SWAP1 RETURN JUMPDEST PUSH2 0x3A7 PUSH1 0x4 DUP1 CALLDATASIZE SUB DUP2 ADD SWAP1 PUSH2 0x3A2 SWAP2 SWAP1 PUSH2 0x3271 JUMP JUMPDEST PUSH2 0xBA7 JUMP JUMPDEST STOP JUMPDEST PUSH2 0x3C3 PUSH1 0x4 DUP1 CALLDATASIZE SUB DUP2 ADD SWAP1 PUSH2 0x3BE SWAP2 SWAP1 PUSH2 0x31CB JUMP JUMPDEST PUSH2 0xBC9 JUMP JUMPDEST STOP JUMPDEST PUSH2 0x3DF PUSH1 0x4 DUP1 CALLDATASIZE SUB DUP2 ADD SWAP1 PUSH2 0x3DA SWAP2 SWAP1 PUSH2 0x3271 JUMP JUMPDEST PUSH2 0xF8F JUMP JUMPDEST STOP JUMPDEST PUSH2 0x3E9 PUSH2 0x100A JUMP JUMPDEST STOP JUMPDEST PUSH2 0x405 PUSH1 0x4 DUP1 CALLDATASIZE SUB DUP2 ADD SWAP1 PUSH2 0x400 SWAP2 SWAP1 PUSH2 0x2F5D JUMP JUMPDEST PUSH2 0x103F JUMP JUMPDEST PUSH1 0x40 MLOAD PUSH2 0x412 SWAP2 SWAP1 PUSH2 0x3258 JUMP JUMPDEST PUSH1 0x40 MLOAD DUP1 SWAP2 SUB SWAP1 RETURN JUMPDEST PUSH2 0x435 PUSH1 0x4 DUP1 CALLDATASIZE SUB DUP2 ADD SWAP1 PUSH2 0x430 SWAP2 SWAP1 PUSH2 0x321E JUMP JUMPDEST PUSH2 0x1066 JUMP JUMPDEST PUSH1 0x40 MLOAD PUSH2 0x442 SWAP2 SWAP1 PUSH2 0x3366 JUMP JUMPDEST PUSH1 0x40 MLOAD DUP1 SWAP2 SUB SWAP1 RETURN JUMPDEST PUSH2 0x465 PUSH1 0x4 DUP1 CALLDATASIZE SUB DUP2 ADD SWAP1 PUSH2 0x460 SWAP2 SWAP1 PUSH2 0x321E JUMP JUMPDEST PUSH2 0x112E JUMP JUMPDEST PUSH1 0x40 MLOAD PUSH2 0x472 SWAP2 SWAP1 PUSH2 0x3258 JUMP JUMPDEST PUSH1 0x40 MLOAD DUP1 SWAP2 SUB SWAP1 RETURN JUMPDEST PUSH2 0x495 PUSH1 0x4 DUP1 CALLDATASIZE SUB DUP2 ADD SWAP1 PUSH2 0x490 SWAP2 SWAP1 PUSH2 0x321E JUMP JUMPDEST PUSH2 0x1143 JUMP JUMPDEST PUSH1 0x40 MLOAD PUSH2 0x4A2 SWAP2 SWAP1 PUSH2 0x3205 JUMP JUMPDEST PUSH1 0x40 MLOAD DUP1 SWAP2 SUB SWAP1 RETURN JUMPDEST PUSH2 0x4B3 PUSH2 0x1158 JUMP JUMPDEST PUSH1 0x40 MLOAD PUSH2 0x4C0 SWAP2 SWAP1 PUSH2 0x303E JUMP JUMPDEST PUSH1 0x40 MLOAD DUP1 SWAP2 SUB SWAP1 RETURN JUMPDEST PUSH2 0x4E3 PUSH1 0x4 DUP1 CALLDATASIZE SUB DUP2 ADD SWAP1 PUSH2 0x4DE SWAP2 SWAP1 PUSH2 0x3386 JUMP JUMPDEST PUSH2 0x116D JUMP JUMPDEST STOP JUMPDEST PUSH2 0x4FF PUSH1 0x4 DUP1 CALLDATASIZE SUB DUP2 ADD SWAP1 PUSH2 0x4FA SWAP2 SWAP1 PUSH2 0x321E JUMP JUMPDEST PUSH2 0x11A8 JUMP JUMPDEST PUSH1 0x40 MLOAD PUSH2 0x50C SWAP2 SWAP1 PUSH2 0x3205 JUMP JUMPDEST PUSH1 0x40 MLOAD DUP1 SWAP2 SUB SWAP1 RETURN JUMPDEST PUSH2 0x52F PUSH1 0x4 DUP1 CALLDATASIZE SUB DUP2 ADD SWAP1 PUSH2 0x52A SWAP2 SWAP1 PUSH2 0x321E JUMP JUMPDEST PUSH2 0x11EE JUMP JUMPDEST STOP JUMPDEST PUSH2 0x539 PUSH2 0x1247 JUMP JUMPDEST PUSH1 0x40 MLOAD PUSH2 0x546 SWAP2 SWAP1 PUSH2 0x3205 JUMP JUMPDEST PUSH1 0x40 MLOAD DUP1 SWAP2 SUB SWAP1 RETURN JUMPDEST PUSH2 0x569 PUSH1 0x4 DUP1 CALLDATASIZE SUB DUP2 ADD SWAP1 PUSH2 0x564 SWAP2 SWAP1 PUSH2 0x321E JUMP JUMPDEST PUSH2 0x126B JUMP JUMPDEST PUSH1 0x40 MLOAD PUSH2 0x576 SWAP2 SWAP1 PUSH2 0x3258 JUMP JUMPDEST PUSH1 0x40 MLOAD DUP1 SWAP2 SUB SWAP1 RETURN JUMPDEST PUSH2 0x587 PUSH2 0x1280 JUMP JUMPDEST STOP JUMPDEST PUSH2 0x5A3 PUSH1 0x4 DUP1 CALLDATASIZE SUB DUP2 ADD SWAP1 PUSH2 0x59E SWAP2 SWAP1 PUSH2 0x31CB JUMP JUMPDEST PUSH2 0x12B5 JUMP JUMPDEST PUSH1 0x40 MLOAD PUSH2 0x5B0 SWAP2 SWAP1 PUSH2 0x3401 JUMP JUMPDEST PUSH1 0x40 MLOAD DUP1 SWAP2 SUB SWAP1 RETURN JUMPDEST PUSH2 0x5D3 PUSH1 0x4 DUP1 CALLDATASIZE SUB DUP2 ADD SWAP1 PUSH2 0x5CE SWAP2 SWAP1 PUSH2 0x3271 JUMP JUMPDEST PUSH2 0x12EE JUMP JUMPDEST PUSH1 0x40 MLOAD PUSH2 0x5E0 SWAP2 SWAP1 PUSH2 0x303E JUMP JUMPDEST PUSH1 0x40 MLOAD DUP1 SWAP2 SUB SWAP1 RETURN JUMPDEST PUSH2 0x603 PUSH1 0x4 DUP1 CALLDATASIZE SUB DUP2 ADD SWAP1 PUSH2 0x5FE SWAP2 SWAP1 PUSH2 0x321E JUMP JUMPDEST PUSH2 0x1352 JUMP JUMPDEST PUSH1 0x40 MLOAD PUSH2 0x610 SWAP2 SWAP1 PUSH2 0x351A JUMP JUMPDEST PUSH1 0x40 MLOAD DUP1 SWAP2 SUB SWAP1 RETURN JUMPDEST PUSH2 0x633 PUSH1 0x4 DUP1 CALLDATASIZE SUB DUP2 ADD SWAP1 PUSH2 0x62E SWAP2 SWAP1 PUSH2 0x353A JUMP JUMPDEST PUSH2 0x14BB JUMP JUMPDEST STOP JUMPDEST PUSH2 0x63D PUSH2 0x16E5 JUMP JUMPDEST PUSH1 0x40 MLOAD PUSH2 0x64A SWAP2 SWAP1 PUSH2 0x3205 JUMP JUMPDEST PUSH1 0x40 MLOAD DUP1 SWAP2 SUB SWAP1 RETURN JUMPDEST PUSH2 0x66D PUSH1 0x4 DUP1 CALLDATASIZE SUB DUP2 ADD SWAP1 PUSH2 0x668 SWAP2 SWAP1 PUSH2 0x353A JUMP JUMPDEST PUSH2 0x16EB JUMP JUMPDEST STOP JUMPDEST PUSH2 0x677 PUSH2 0x1A6A JUMP JUMPDEST PUSH1 0x40 MLOAD PUSH2 0x684 SWAP2 SWAP1 PUSH2 0x3205 JUMP JUMPDEST PUSH1 0x40 MLOAD DUP1 SWAP2 SUB SWAP1 RETURN JUMPDEST PUSH2 0x6A7 PUSH1 0x4 DUP1 CALLDATASIZE SUB DUP2 ADD SWAP1 PUSH2 0x6A2 SWAP2 SWAP1 PUSH2 0x321E JUMP JUMPDEST PUSH2 0x1A8E JUMP JUMPDEST PUSH1 0x40 MLOAD PUSH2 0x6B4 SWAP2 SWAP1 PUSH2 0x3258 JUMP JUMPDEST PUSH1 0x40 MLOAD DUP1 SWAP2 SUB SWAP1 RETURN JUMPDEST PUSH2 0x6D7 PUSH1 0x4 DUP1 CALLDATASIZE SUB DUP2 ADD SWAP1 PUSH2 0x6D2 SWAP2 SWAP1 PUSH2 0x321E JUMP JUMPDEST PUSH2 0x1AD4 JUMP JUMPDEST PUSH1 0x40 MLOAD PUSH2 0x6E8 SWAP6 SWAP5 SWAP4 SWAP3 SWAP2 SWAP1 PUSH2 0x35DC JUMP JUMPDEST PUSH1 0x40 MLOAD DUP1 SWAP2 SUB SWAP1 RETURN JUMPDEST PUSH2 0x70B PUSH1 0x4 DUP1 CALLDATASIZE SUB DUP2 ADD SWAP1 PUSH2 0x706 SWAP2 SWAP1 PUSH2 0x3634 JUMP JUMPDEST PUSH2 0x1BB7 JUMP JUMPDEST PUSH1 0x40 MLOAD PUSH2 0x71B SWAP5 SWAP4 SWAP3 SWAP2 SWAP1 PUSH2 0x3672 JUMP JUMPDEST PUSH1 0x40 MLOAD DUP1 SWAP2 SUB SWAP1 RETURN JUMPDEST PUSH2 0x73E PUSH1 0x4 DUP1 CALLDATASIZE SUB DUP2 ADD SWAP1 PUSH2 0x739 SWAP2 SWAP1 PUSH2 0x308A JUMP JUMPDEST PUSH2 0x1D09 JUMP JUMPDEST STOP JUMPDEST PUSH2 0x75A PUSH1 0x4 DUP1 CALLDATASIZE SUB DUP2 ADD SWAP1 PUSH2 0x755 SWAP2 SWAP1 PUSH2 0x3271 JUMP JUMPDEST PUSH2 0x1DBC JUMP JUMPDEST STOP JUMPDEST PUSH2 0x776 PUSH1 0x4 DUP1 CALLDATASIZE SUB DUP2 ADD SWAP1 PUSH2 0x771 SWAP2 SWAP1 PUSH2 0x31CB JUMP JUMPDEST PUSH2 0x1DDE JUMP JUMPDEST PUSH1 0x40 MLOAD PUSH2 0x783 SWAP2 SWAP1 PUSH2 0x3401 JUMP JUMPDEST PUSH1 0x40 MLOAD DUP1 SWAP2 SUB SWAP1 RETURN JUMPDEST PUSH2 0x7A6 PUSH1 0x4 DUP1 CALLDATASIZE SUB DUP2 ADD SWAP1 PUSH2 0x7A1 SWAP2 SWAP1 PUSH2 0x3634 JUMP JUMPDEST PUSH2 0x1E0E JUMP JUMPDEST PUSH1 0x40 MLOAD PUSH2 0x7B3 SWAP2 SWAP1 PUSH2 0x3401 JUMP JUMPDEST PUSH1 0x40 MLOAD DUP1 SWAP2 SUB SWAP1 RETURN JUMPDEST PUSH2 0x7D6 PUSH1 0x4 DUP1 CALLDATASIZE SUB DUP2 ADD SWAP1 PUSH2 0x7D1 SWAP2 SWAP1 PUSH2 0x321E JUMP JUMPDEST PUSH2 0x1E56 JUMP JUMPDEST PUSH1 0x40 MLOAD PUSH2 0x7E3 SWAP2 SWAP1 PUSH2 0x37E5 JUMP JUMPDEST PUSH1 0x40 MLOAD DUP1 SWAP2 SUB SWAP1 RETURN JUMPDEST PUSH2 0x806 PUSH1 0x4 DUP1 CALLDATASIZE SUB DUP2 ADD SWAP1 PUSH2 0x801 SWAP2 SWAP1 PUSH2 0x3386 JUMP JUMPDEST PUSH2 0x2022 JUMP JUMPDEST STOP JUMPDEST PUSH2 0x822 PUSH1 0x4 DUP1 CALLDATASIZE SUB DUP2 ADD SWAP1 PUSH2 0x81D SWAP2 SWAP1 PUSH2 0x2F5D JUMP JUMPDEST PUSH2 0x21BE JUMP JUMPDEST PUSH1 0x40 MLOAD PUSH2 0x82F SWAP2 SWAP1 PUSH2 0x3258 JUMP JUMPDEST PUSH1 0x40 MLOAD DUP1 SWAP2 SUB SWAP1 RETURN JUMPDEST PUSH2 0x840 PUSH2 0x21EB JUMP JUMPDEST PUSH0 PUSH20 0xFFFFFFFFFFFFFFFFFFFFFFFFFFFFFFFFFFFFFFFF AND PUSH1 0x7 PUSH0 CALLER PUSH20 0xFFFFFFFFFFFFFFFFFFFFFFFFFFFFFFFFFFFFFFFF AND PUSH20 0xFFFFFFFFFFFFFFFFFFFFFFFFFFFFFFFFFFFFFFFF AND DUP2 MSTORE PUSH1 0x20 ADD SWAP1 DUP2 MSTORE PUSH1 0x20 ADD PUSH0 KECCAK256 PUSH0 ADD PUSH0 SWAP1 SLOAD SWAP1 PUSH2 0x100 EXP SWAP1 DIV PUSH20 0xFFFFFFFFFFFFFFFFFFFFFFFFFFFFFFFFFFFFFFFF AND PUSH20 0xFFFFFFFFFFFFFFFFFFFFFFFFFFFFFFFFFFFFFFFF AND SUB PUSH2 0x903 JUMPI PUSH1 0x40 MLOAD PUSH32 0x72DA560B00000000000000000000000000000000000000000000000000000000 DUP2 MSTORE PUSH1 0x4 ADD PUSH1 0x40 MLOAD DUP1 SWAP2 SUB SWAP1 REVERT JUMPDEST DUP1 PUSH1 0x7 PUSH0 CALLER PUSH20 0xFFFFFFFFFFFFFFFFFFFFFFFFFFFFFFFFFFFFFFFF AND PUSH20 0xFFFFFFFFFFFFFFFFFFFFFFFFFFFFFFFFFFFFFFFF AND DUP2 MSTORE PUSH1 0x20 ADD SWAP1 DUP2 MSTORE PUSH1 0x20 ADD PUSH0 KECCAK256 PUSH1 0x1 ADD SWAP1 DUP2 PUSH2 0x950 SWAP2 SWAP1 PUSH2 0x3A02 JUMP JUMPDEST POP CALLER PUSH20 0xFFFFFFFFFFFFFFFFFFFFFFFFFFFFFFFFFFFFFFFF AND PUSH32 0xDD635A4CD84864E37E4479DBFC2EC667ACFA473C83C8422A8AC9D9D07599B01C DUP3 PUSH1 0x40 MLOAD PUSH2 0x997 SWAP2 SWAP1 PUSH2 0x3AD1 JUMP JUMPDEST PUSH1 0x40 MLOAD DUP1 SWAP2 SUB SWAP1 LOG2 POP JUMP JUMPDEST PUSH0 PUSH32 0x7965DB0B00000000000000000000000000000000000000000000000000000000 PUSH28 0xFFFFFFFFFFFFFFFFFFFFFFFFFFFFFFFFFFFFFFFFFFFFFFFFFFFFFFFF NOT AND DUP3 PUSH28 0xFFFFFFFFFFFFFFFFFFFFFFFFFFFFFFFFFFFFFFFFFFFFFFFFFFFFFFFF NOT AND EQ DUP1 PUSH2 0xA14 JUMPI POP PUSH2 0xA13 DUP3 PUSH2 0x2235 JUMP JUMPDEST JUMPDEST SWAP1 POP SWAP2 SWAP1 POP JUMP JUMPDEST PUSH32 0xA49807205CE4D355092EF5A8A18F56E8913CF4A201FBE287825B095693C21775 PUSH2 0xA45 DUP2 PUSH2 0x229E JUMP JUMPDEST DUP2 PUSH1 0xA DUP5 PUSH1 0x40 MLOAD PUSH2 0xA56 SWAP2 SWAP1 PUSH2 0x3B2B JUMP JUMPDEST SWAP1 DUP2 MSTORE PUSH1 0x20 ADD PUSH1 0x40 MLOAD DUP1 SWAP2 SUB SWAP1 KECCAK256 DUP2 SWAP1 SSTORE POP PUSH1 0x1 PUSH1 0xB DUP5 PUSH1 0x40 MLOAD PUSH2 0xA7A SWAP2 SWAP1 PUSH2 0x3B2B JUMP JUMPDEST SWAP1 DUP2 MSTORE PUSH1 0x20 ADD PUSH1 0x40 MLOAD DUP1 SWAP2 SUB SWAP1 KECCAK256 PUSH0 PUSH2 0x100 EXP DUP2 SLOAD DUP2 PUSH1 0xFF MUL NOT AND SWAP1 DUP4 ISZERO ISZERO MUL OR SWAP1 SSTORE POP POP POP POP JUMP JUMPDEST PUSH0 PUSH1 0xB DUP3 PUSH1 0x40 MLOAD PUSH2 0xAB4 SWAP2 SWAP1 PUSH2 0x3B2B JUMP JUMPDEST SWAP1 DUP2 MSTORE PUSH1 0x20 ADD PUSH1 0x40 MLOAD DUP1 SWAP2 SUB SWAP1 KECCAK256 PUSH0 SWAP1 SLOAD SWAP1 PUSH2 0x100 EXP SWAP1 DIV PUSH1 0xFF AND SWAP1 POP SWAP2 SWAP1 POP JUMP JUMPDEST PUSH32 0xC5C74B901CB87F1E81A3E0539A5D95BF14FA111210701DD52208A2390204B455 PUSH2 0xB00 DUP2 PUSH2 0x229E JUMP JUMPDEST PUSH2 0xB0A DUP4 DUP4 PUSH2 0x22B2 JUMP JUMPDEST POP POP POP JUMP JUMPDEST PUSH0 PUSH1 0x2 PUSH0 DUP4 DUP2 MSTORE PUSH1 0x20 ADD SWAP1 DUP2 MSTORE PUSH1 0x20 ADD PUSH0 KECCAK256 PUSH1 0x1 ADD SLOAD SWAP1 POP SWAP2 SWAP1 POP JUMP JUMPDEST PUSH0 PUSH1 0x8 PUSH0 DUP4 PUSH20 0xFFFFFFFFFFFFFFFFFFFFFFFFFFFFFFFFFFFFFFFF AND PUSH20 0xFFFFFFFFFFFFFFFFFFFFFFFFFFFFFFFFFFFFFFFF AND DUP2 MSTORE PUSH1 0x20 ADD SWAP1 DUP2 MSTORE PUSH1 0x20 ADD PUSH0 KECCAK256 SLOAD SWAP1 POP SWAP2 SWAP1 POP JUMP JUMPDEST PUSH1 0xB DUP2 DUP1 MLOAD PUSH1 0x20 DUP2 ADD DUP3 ADD DUP1 MLOAD DUP5 DUP3 MSTORE PUSH1 0x20 DUP4 ADD PUSH1 0x20 DUP6 ADD KECCAK256 DUP2 DUP4 MSTORE DUP1 SWAP6 POP POP POP POP POP POP PUSH0 SWAP2 POP SLOAD SWAP1 PUSH2 0x100 EXP SWAP1 DIV PUSH1 0xFF AND DUP2 JUMP JUMPDEST PUSH2 0xBB0 DUP3 PUSH2 0xB0F JUMP JUMPDEST PUSH2 0xBB9 DUP2 PUSH2 0x229E JUMP JUMPDEST PUSH2 0xBC3 DUP4 DUP4 PUSH2 0x252B JUMP JUMPDEST POP POP POP POP JUMP JUMPDEST PUSH2 0xBD1 PUSH2 0x21EB JUMP JUMPDEST PUSH0 PUSH1 0x6 PUSH0 DUP4 DUP2 MSTORE PUSH1 0x20 ADD SWAP1 DUP2 MSTORE PUSH1 0x20 ADD PUSH0 KECCAK256 PUSH0 SWAP1 SLOAD SWAP1 PUSH2 0x100 EXP SWAP1 DIV PUSH20 0xFFFFFFFFFFFFFFFFFFFFFFFFFFFFFFFFFFFFFFFF AND SWAP1 POP PUSH0 PUSH20 0xFFFFFFFFFFFFFFFFFFFFFFFFFFFFFFFFFFFFFFFF AND DUP2 PUSH20 0xFFFFFFFFFFFFFFFFFFFFFFFFFFFFFFFFFFFFFFFF AND SUB PUSH2 0xC6A JUMPI PUSH1 0x40 MLOAD PUSH32 0x6110422800000000000000000000000000000000000000000000000000000000 DUP2 MSTORE PUSH1 0x4 ADD PUSH1 0x40 MLOAD DUP1 SWAP2 SUB SWAP1 REVERT JUMPDEST PUSH1 0x9 PUSH0 DUP3 PUSH20 0xFFFFFFFFFFFFFFFFFFFFFFFFFFFFFFFFFFFFFFFF AND PUSH20 0xFFFFFFFFFFFFFFFFFFFFFFFFFFFFFFFFFFFFFFFF AND DUP2 MSTORE PUSH1 0x20 ADD SWAP1 DUP2 MSTORE PUSH1 0x20 ADD PUSH0 KECCAK256 CALLER SWAP1 DUP1 PUSH1 0x1 DUP2 SLOAD ADD DUP1 DUP3 SSTORE DUP1 SWAP2 POP POP PUSH1 0x1 SWAP1 SUB SWAP1 PUSH0 MSTORE PUSH1 0x20 PUSH0 KECCAK256 ADD PUSH0 SWAP1 SWAP2 SWAP1 SWAP2 SWAP1 SWAP2 PUSH2 0x100 EXP DUP2 SLOAD DUP2 PUSH20 0xFFFFFFFFFFFFFFFFFFFFFFFFFFFFFFFFFFFFFFFF MUL NOT AND SWAP1 DUP4 PUSH20 0xFFFFFFFFFFFFFFFFFFFFFFFFFFFFFFFFFFFFFFFF AND MUL OR SWAP1 SSTORE POP PUSH1 0x8 PUSH0 DUP3 PUSH20 0xFFFFFFFFFFFFFFFFFFFFFFFFFFFFFFFFFFFFFFFF AND PUSH20 0xFFFFFFFFFFFFFFFFFFFFFFFFFFFFFFFFFFFFFFFF AND DUP2 MSTORE PUSH1 0x20 ADD SWAP1 DUP2 MSTORE PUSH1 0x20 ADD PUSH0 KECCAK256 PUSH0 DUP2 SLOAD DUP1 SWAP3 SWAP2 SWAP1 PUSH2 0xD52 SWAP1 PUSH2 0x3B6E JUMP JUMPDEST SWAP2 SWAP1 POP SSTORE POP PUSH2 0xD98 DUP2 PUSH1 0x32 PUSH1 0x40 MLOAD DUP1 PUSH1 0x40 ADD PUSH1 0x40 MSTORE DUP1 PUSH1 0x13 DUP2 MSTORE PUSH1 0x20 ADD PUSH32 0x5375636365737366756C20526566657272616C00000000000000000000000000 DUP2 MSTORE POP PUSH2 0x2615 JUMP JUMPDEST PUSH1 0x3 PUSH1 0x8 PUSH0 DUP4 PUSH20 0xFFFFFFFFFFFFFFFFFFFFFFFFFFFFFFFFFFFFFFFF AND PUSH20 0xFFFFFFFFFFFFFFFFFFFFFFFFFFFFFFFFFFFFFFFF AND DUP2 MSTORE PUSH1 0x20 ADD SWAP1 DUP2 MSTORE PUSH1 0x20 ADD PUSH0 KECCAK256 SLOAD SUB PUSH2 0xE21 JUMPI PUSH2 0xE1C DUP2 PUSH1 0x40 MLOAD DUP1 PUSH1 0x40 ADD PUSH1 0x40 MSTORE DUP1 PUSH1 0x11 DUP2 MSTORE PUSH1 0x20 ADD PUSH32 0x496E7669746564203320467269656E6473000000000000000000000000000000 DUP2 MSTORE POP PUSH2 0x22B2 JUMP JUMPDEST PUSH2 0xF31 JUMP JUMPDEST PUSH1 0xA PUSH1 0x8 PUSH0 DUP4 PUSH20 0xFFFFFFFFFFFFFFFFFFFFFFFFFFFFFFFFFFFFFFFF AND PUSH20 0xFFFFFFFFFFFFFFFFFFFFFFFFFFFFFFFFFFFFFFFF AND DUP2 MSTORE PUSH1 0x20 ADD SWAP1 DUP2 MSTORE PUSH1 0x20 ADD PUSH0 KECCAK256 SLOAD SUB PUSH2 0xEAA JUMPI PUSH2 0xEA5 DUP2 PUSH1 0x40 MLOAD DUP1 PUSH1 0x40 ADD PUSH1 0x40 MSTORE DUP1 PUSH1 0x12 DUP2 MSTORE PUSH1 0x20 ADD PUSH32 0x496E766974656420313020467269656E64730000000000000000000000000000 DUP2 MSTORE POP PUSH2 0x22B2 JUMP JUMPDEST PUSH2 0xF30 JUMP JUMPDEST PUSH1 0x19 PUSH1 0x8 PUSH0 DUP4 PUSH20 0xFFFFFFFFFFFFFFFFFFFFFFFFFFFFFFFFFFFFFFFF AND PUSH20 0xFFFFFFFFFFFFFFFFFFFFFFFFFFFFFFFFFFFFFFFF AND DUP2 MSTORE PUSH1 0x20 ADD SWAP1 DUP2 MSTORE PUSH1 0x20 ADD PUSH0 KECCAK256 SLOAD SUB PUSH2 0xF2F JUMPI PUSH2 0xF2E DUP2 PUSH1 0x40 MLOAD DUP1 PUSH1 0x40 ADD PUSH1 0x40 MSTORE DUP1 PUSH1 0x10 DUP2 MSTORE PUSH1 0x20 ADD PUSH32 0x536F6369616C20427574746572666C7900000000000000000000000000000000 DUP2 MSTORE POP PUSH2 0x22B2 JUMP JUMPDEST JUMPDEST JUMPDEST JUMPDEST CALLER PUSH20 0xFFFFFFFFFFFFFFFFFFFFFFFFFFFFFFFFFFFFFFFF AND DUP2 PUSH20 0xFFFFFFFFFFFFFFFFFFFFFFFFFFFFFFFFFFFFFFFF AND PUSH32 0x7DFE7741B2816F4B390EA9C6A8FCEF91C87D66B9235A24019B792806BC3ECE02 PUSH1 0x40 MLOAD PUSH1 0x40 MLOAD DUP1 SWAP2 SUB SWAP1 LOG3 POP POP JUMP JUMPDEST PUSH2 0xF97 PUSH2 0x26FA JUMP JUMPDEST PUSH20 0xFFFFFFFFFFFFFFFFFFFFFFFFFFFFFFFFFFFFFFFF AND DUP2 PUSH20 0xFFFFFFFFFFFFFFFFFFFFFFFFFFFFFFFFFFFFFFFF AND EQ PUSH2 0xFFB JUMPI PUSH1 0x40 MLOAD PUSH32 0x6697B23200000000000000000000000000000000000000000000000000000000 DUP2 MSTORE PUSH1 0x4 ADD PUSH1 0x40 MLOAD DUP1 SWAP2 SUB SWAP1 REVERT JUMPDEST PUSH2 0x1005 DUP3 DUP3 PUSH2 0x2701 JUMP JUMPDEST POP POP POP JUMP JUMPDEST PUSH32 0xA49807205CE4D355092EF5A8A18F56E8913CF4A201FBE287825B095693C21775 PUSH2 0x1034 DUP2 PUSH2 0x229E JUMP JUMPDEST PUSH2 0x103C PUSH2 0x27EB JUMP JUMPDEST POP JUMP JUMPDEST PUSH0 PUSH1 0xA DUP3 PUSH1 0x40 MLOAD PUSH2 0x1050 SWAP2 SWAP1 PUSH2 0x3B2B JUMP JUMPDEST SWAP1 DUP2 MSTORE PUSH1 0x20 ADD PUSH1 0x40 MLOAD DUP1 SWAP2 SUB SWAP1 KECCAK256 SLOAD SWAP1 POP SWAP2 SWAP1 POP JUMP JUMPDEST PUSH1 0x60 PUSH1 0x9 PUSH0 DUP4 PUSH20 0xFFFFFFFFFFFFFFFFFFFFFFFFFFFFFFFFFFFFFFFF AND PUSH20 0xFFFFFFFFFFFFFFFFFFFFFFFFFFFFFFFFFFFFFFFF AND DUP2 MSTORE PUSH1 0x20 ADD SWAP1 DUP2 MSTORE PUSH1 0x20 ADD PUSH0 KECCAK256 DUP1 SLOAD DUP1 PUSH1 0x20 MUL PUSH1 0x20 ADD PUSH1 0x40 MLOAD SWAP1 DUP2 ADD PUSH1 0x40 MSTORE DUP1 SWAP3 SWAP2 SWAP1 DUP2 DUP2 MSTORE PUSH1 0x20 ADD DUP3 DUP1 SLOAD DUP1 ISZERO PUSH2 0x1122 JUMPI PUSH1 0x20 MUL DUP3 ADD SWAP2 SWAP1 PUSH0 MSTORE PUSH1 0x20 PUSH0 KECCAK256 SWAP1 JUMPDEST DUP2 PUSH0 SWAP1 SLOAD SWAP1 PUSH2 0x100 EXP SWAP1 DIV PUSH20 0xFFFFFFFFFFFFFFFFFFFFFFFFFFFFFFFFFFFFFFFF AND PUSH20 0xFFFFFFFFFFFFFFFFFFFFFFFFFFFFFFFFFFFFFFFF AND DUP2 MSTORE PUSH1 0x20 ADD SWAP1 PUSH1 0x1 ADD SWAP1 DUP1 DUP4 GT PUSH2 0x10D9 JUMPI JUMPDEST POP POP POP POP POP SWAP1 POP SWAP2 SWAP1 POP JUMP JUMPDEST PUSH1 0x8 PUSH1 0x20 MSTORE DUP1 PUSH0 MSTORE PUSH1 0x40 PUSH0 KECCAK256 PUSH0 SWAP2 POP SWAP1 POP SLOAD DUP2 JUMP JUMPDEST PUSH1 0x5 PUSH1 0x20 MSTORE DUP1 PUSH0 MSTORE PUSH1 0x40 PUSH0 KECCAK256 PUSH0 SWAP2 POP SWAP1 POP SLOAD DUP2 JUMP JUMPDEST PUSH0 PUSH1 0x1 PUSH0 SWAP1 SLOAD SWAP1 PUSH2 0x100 EXP SWAP1 DIV PUSH1 0xFF AND SWAP1 POP SWAP1 JUMP JUMPDEST PUSH32 0xC5C74B901CB87F1E81A3E0539A5D95BF14FA111210701DD52208A2390204B455 PUSH2 0x1197 DUP2 PUSH2 0x229E JUMP JUMPDEST PUSH2 0x11A2 DUP5 DUP5 DUP5 PUSH2 0x2615 JUMP JUMPDEST POP POP POP POP JUMP JUMPDEST PUSH0 PUSH1 0x5 PUSH0 DUP4 PUSH20 0xFFFFFFFFFFFFFFFFFFFFFFFFFFFFFFFFFFFFFFFF AND PUSH20 0xFFFFFFFFFFFFFFFFFFFFFFFFFFFFFFFFFFFFFFFF AND DUP2 MSTORE PUSH1 0x20 ADD SWAP1 DUP2 MSTORE PUSH1 0x20 ADD PUSH0 KECCAK256 SLOAD SWAP1 POP SWAP2 SWAP1 POP JUMP JUMPDEST PUSH32 0xA49807205CE4D355092EF5A8A18F56E8913CF4A201FBE287825B095693C21775 PUSH2 0x1218 DUP2 PUSH2 0x229E JUMP JUMPDEST PUSH2 0x1242 PUSH32 0xC5C74B901CB87F1E81A3E0539A5D95BF14FA111210701DD52208A2390204B455 DUP4 PUSH2 0x252B JUMP JUMPDEST POP POP POP JUMP JUMPDEST PUSH32 0xA49807205CE4D355092EF5A8A18F56E8913CF4A201FBE287825B095693C21775 DUP2 JUMP JUMPDEST PUSH1 0x3 PUSH1 0x20 MSTORE DUP1 PUSH0 MSTORE PUSH1 0x40 PUSH0 KECCAK256 PUSH0 SWAP2 POP SWAP1 POP SLOAD DUP2 JUMP JUMPDEST PUSH32 0xA49807205CE4D355092EF5A8A18F56E8913CF4A201FBE287825B095693C21775 PUSH2 0x12AA DUP2 PUSH2 0x229E JUMP JUMPDEST PUSH2 0x12B2 PUSH2 0x284C JUMP JUMPDEST POP JUMP JUMPDEST PUSH0 PUSH1 0x6 PUSH0 DUP4 DUP2 MSTORE PUSH1 0x20 ADD SWAP1 DUP2 MSTORE PUSH1 0x20 ADD PUSH0 KECCAK256 PUSH0 SWAP1 SLOAD SWAP1 PUSH2 0x100 EXP SWAP1 DIV PUSH20 0xFFFFFFFFFFFFFFFFFFFFFFFFFFFFFFFFFFFFFFFF AND SWAP1 POP SWAP2 SWAP1 POP JUMP JUMPDEST PUSH0 PUSH1 0x2 PUSH0 DUP5 DUP2 MSTORE PUSH1 0x20 ADD SWAP1 DUP2 MSTORE PUSH1 0x20 ADD PUSH0 KECCAK256 PUSH0 ADD PUSH0 DUP4 PUSH20 0xFFFFFFFFFFFFFFFFFFFFFFFFFFFFFFFFFFFFFFFF AND PUSH20 0xFFFFFFFFFFFFFFFFFFFFFFFFFFFFFFFFFFFFFFFF AND DUP2 MSTORE PUSH1 0x20 ADD SWAP1 DUP2 MSTORE PUSH1 0x20 ADD PUSH0 KECCAK256 PUSH0 SWAP1 SLOAD SWAP1 PUSH2 0x100 EXP SWAP1 DIV PUSH1 0xFF AND SWAP1 POP SWAP3 SWAP2 POP POP JUMP JUMPDEST PUSH2 0x135A PUSH2 0x2DCD JUMP JUMPDEST PUSH1 0x7 PUSH0 DUP4 PUSH20 0xFFFFFFFFFFFFFFFFFFFFFFFFFFFFFFFFFFFFFFFF AND PUSH20 0xFFFFFFFFFFFFFFFFFFFFFFFFFFFFFFFFFFFFFFFF AND DUP2 MSTORE PUSH1 0x20 ADD SWAP1 DUP2 MSTORE PUSH1 0x20 ADD PUSH0 KECCAK256 PUSH1 0x40 MLOAD DUP1 PUSH1 0xA0 ADD PUSH1 0x40 MSTORE SWAP1 DUP2 PUSH0 DUP3 ADD PUSH0 SWAP1 SLOAD SWAP1 PUSH2 0x100 EXP SWAP1 DIV PUSH20 0xFFFFFFFFFFFFFFFFFFFFFFFFFFFFFFFFFFFFFFFF AND PUSH20 0xFFFFFFFFFFFFFFFFFFFFFFFFFFFFFFFFFFFFFFFF AND PUSH20 0xFFFFFFFFFFFFFFFFFFFFFFFFFFFFFFFFFFFFFFFF AND DUP2 MSTORE PUSH1 0x20 ADD PUSH1 0x1 DUP3 ADD DUP1 SLOAD PUSH2 0x1406 SWAP1 PUSH2 0x3832 JUMP JUMPDEST DUP1 PUSH1 0x1F ADD PUSH1 0x20 DUP1 SWAP2 DIV MUL PUSH1 0x20 ADD PUSH1 0x40 MLOAD SWAP1 DUP2 ADD PUSH1 0x40 MSTORE DUP1 SWAP3 SWAP2 SWAP1 DUP2 DUP2 MSTORE PUSH1 0x20 ADD DUP3 DUP1 SLOAD PUSH2 0x1432 SWAP1 PUSH2 0x3832 JUMP JUMPDEST DUP1 ISZERO PUSH2 0x147D JUMPI DUP1 PUSH1 0x1F LT PUSH2 0x1454 JUMPI PUSH2 0x100 DUP1 DUP4 SLOAD DIV MUL DUP4 MSTORE SWAP2 PUSH1 0x20 ADD SWAP2 PUSH2 0x147D JUMP JUMPDEST DUP3 ADD SWAP2 SWAP1 PUSH0 MSTORE PUSH1 0x20 PUSH0 KECCAK256 SWAP1 JUMPDEST DUP2 SLOAD DUP2 MSTORE SWAP1 PUSH1 0x1 ADD SWAP1 PUSH1 0x20 ADD DUP1 DUP4 GT PUSH2 0x1460 JUMPI DUP3 SWAP1 SUB PUSH1 0x1F AND DUP3 ADD SWAP2 JUMPDEST POP POP POP POP POP DUP2 MSTORE PUSH1 0x20 ADD PUSH1 0x2 DUP3 ADD SLOAD DUP2 MSTORE PUSH1 0x20 ADD PUSH1 0x3 DUP3 ADD SLOAD DUP2 MSTORE PUSH1 0x20 ADD PUSH1 0x4 DUP3 ADD PUSH0 SWAP1 SLOAD SWAP1 PUSH2 0x100 EXP SWAP1 DIV PUSH1 0xFF AND ISZERO ISZERO ISZERO ISZERO DUP2 MSTORE POP POP SWAP1 POP SWAP2 SWAP1 POP JUMP JUMPDEST PUSH2 0x14C3 PUSH2 0x21EB JUMP JUMPDEST PUSH0 PUSH20 0xFFFFFFFFFFFFFFFFFFFFFFFFFFFFFFFFFFFFFFFF AND PUSH1 0x7 PUSH0 CALLER PUSH20 0xFFFFFFFFFFFFFFFFFFFFFFFFFFFFFFFFFFFFFFFF AND PUSH20 0xFFFFFFFFFFFFFFFFFFFFFFFFFFFFFFFFFFFFFFFF AND DUP2 MSTORE PUSH1 0x20 ADD SWAP1 DUP2 MSTORE PUSH1 0x20 ADD PUSH0 KECCAK256 PUSH0 ADD PUSH0 SWAP1 SLOAD SWAP1 PUSH2 0x100 EXP SWAP1 DIV PUSH20 0xFFFFFFFFFFFFFFFFFFFFFFFFFFFFFFFFFFFFFFFF AND PUSH20 0xFFFFFFFFFFFFFFFFFFFFFFFFFFFFFFFFFFFFFFFF AND EQ PUSH2 0x1586 JUMPI PUSH1 0x40 MLOAD PUSH32 0x6E8A1B0A00000000000000000000000000000000000000000000000000000000 DUP2 MSTORE PUSH1 0x4 ADD PUSH1 0x40 MLOAD DUP1 SWAP2 SUB SWAP1 REVERT JUMPDEST PUSH1 0x40 MLOAD DUP1 PUSH1 0xA0 ADD PUSH1 0x40 MSTORE DUP1 CALLER PUSH20 0xFFFFFFFFFFFFFFFFFFFFFFFFFFFFFFFFFFFFFFFF AND DUP2 MSTORE PUSH1 0x20 ADD DUP4 DUP2 MSTORE PUSH1 0x20 ADD DUP3 DUP2 MSTORE PUSH1 0x20 ADD TIMESTAMP DUP2 MSTORE PUSH1 0x20 ADD PUSH1 0x1 ISZERO ISZERO DUP2 MSTORE POP PUSH1 0x7 PUSH0 CALLER PUSH20 0xFFFFFFFFFFFFFFFFFFFFFFFFFFFFFFFFFFFFFFFF AND PUSH20 0xFFFFFFFFFFFFFFFFFFFFFFFFFFFFFFFFFFFFFFFF AND DUP2 MSTORE PUSH1 0x20 ADD SWAP1 DUP2 MSTORE PUSH1 0x20 ADD PUSH0 KECCAK256 PUSH0 DUP3 ADD MLOAD DUP2 PUSH0 ADD PUSH0 PUSH2 0x100 EXP DUP2 SLOAD DUP2 PUSH20 0xFFFFFFFFFFFFFFFFFFFFFFFFFFFFFFFFFFFFFFFF MUL NOT AND SWAP1 DUP4 PUSH20 0xFFFFFFFFFFFFFFFFFFFFFFFFFFFFFFFFFFFFFFFF AND MUL OR SWAP1 SSTORE POP PUSH1 0x20 DUP3 ADD MLOAD DUP2 PUSH1 0x1 ADD SWAP1 DUP2 PUSH2 0x165C SWAP2 SWAP1 PUSH2 0x3A02 JUMP JUMPDEST POP PUSH1 0x40 DUP3 ADD MLOAD DUP2 PUSH1 0x2 ADD SSTORE PUSH1 0x60 DUP3 ADD MLOAD DUP2 PUSH1 0x3 ADD SSTORE PUSH1 0x80 DUP3 ADD MLOAD DUP2 PUSH1 0x4 ADD PUSH0 PUSH2 0x100 EXP DUP2 SLOAD DUP2 PUSH1 0xFF MUL NOT AND SWAP1 DUP4 ISZERO ISZERO MUL OR SWAP1 SSTORE POP SWAP1 POP POP CALLER PUSH20 0xFFFFFFFFFFFFFFFFFFFFFFFFFFFFFFFFFFFFFFFF AND PUSH32 0xBAFDDECBD1DEC1C1AFB76D693F1DE16901F521BDF29A02438E3E6806C0B8D948 DUP4 PUSH1 0x40 MLOAD PUSH2 0x16D9 SWAP2 SWAP1 PUSH2 0x3AD1 JUMP JUMPDEST PUSH1 0x40 MLOAD DUP1 SWAP2 SUB SWAP1 LOG2 POP POP JUMP JUMPDEST PUSH0 PUSH0 SHL DUP2 JUMP JUMPDEST PUSH2 0x16F3 PUSH2 0x21EB JUMP JUMPDEST PUSH0 PUSH0 SHL PUSH1 0x5 PUSH0 CALLER PUSH20 0xFFFFFFFFFFFFFFFFFFFFFFFFFFFFFFFFFFFFFFFF AND PUSH20 0xFFFFFFFFFFFFFFFFFFFFFFFFFFFFFFFFFFFFFFFF AND DUP2 MSTORE PUSH1 0x20 ADD SWAP1 DUP2 MSTORE PUSH1 0x20 ADD PUSH0 KECCAK256 SLOAD EQ PUSH2 0x176B JUMPI PUSH1 0x40 MLOAD PUSH32 0x52B439C00000000000000000000000000000000000000000000000000000000 DUP2 MSTORE PUSH1 0x4 ADD PUSH1 0x40 MLOAD DUP1 SWAP2 SUB SWAP1 REVERT JUMPDEST PUSH0 PUSH20 0xFFFFFFFFFFFFFFFFFFFFFFFFFFFFFFFFFFFFFFFF AND PUSH1 0x7 PUSH0 CALLER PUSH20 0xFFFFFFFFFFFFFFFFFFFFFFFFFFFFFFFFFFFFFFFF AND PUSH20 0xFFFFFFFFFFFFFFFFFFFFFFFFFFFFFFFFFFFFFFFF AND DUP2 MSTORE PUSH1 0x20 ADD SWAP1 DUP2 MSTORE PUSH1 0x20 ADD PUSH0 KECCAK256 PUSH0 ADD PUSH0 SWAP1 SLOAD SWAP1 PUSH2 0x100 EXP SWAP1 DIV PUSH20 0xFFFFFFFFFFFFFFFFFFFFFFFFFFFFFFFFFFFFFFFF AND PUSH20 0xFFFFFFFFFFFFFFFFFFFFFFFFFFFFFFFFFFFFFFFF AND SUB PUSH2 0x1958 JUMPI PUSH1 0x40 MLOAD DUP1 PUSH1 0xA0 ADD PUSH1 0x40 MSTORE DUP1 CALLER PUSH20 0xFFFFFFFFFFFFFFFFFFFFFFFFFFFFFFFFFFFFFFFF AND DUP2 MSTORE PUSH1 0x20 ADD DUP4 DUP2 MSTORE PUSH1 0x20 ADD DUP3 DUP2 MSTORE PUSH1 0x20 ADD TIMESTAMP DUP2 MSTORE PUSH1 0x20 ADD PUSH1 0x1 ISZERO ISZERO DUP2 MSTORE POP PUSH1 0x7 PUSH0 CALLER PUSH20 0xFFFFFFFFFFFFFFFFFFFFFFFFFFFFFFFFFFFFFFFF AND PUSH20 0xFFFFFFFFFFFFFFFFFFFFFFFFFFFFFFFFFFFFFFFF AND DUP2 MSTORE PUSH1 0x20 ADD SWAP1 DUP2 MSTORE PUSH1 0x20 ADD PUSH0 KECCAK256 PUSH0 DUP3 ADD MLOAD DUP2 PUSH0 ADD PUSH0 PUSH2 0x100 EXP DUP2 SLOAD DUP2 PUSH20 0xFFFFFFFFFFFFFFFFFFFFFFFFFFFFFFFFFFFFFFFF MUL NOT AND SWAP1 DUP4 PUSH20 0xFFFFFFFFFFFFFFFFFFFFFFFFFFFFFFFFFFFFFFFF AND MUL OR SWAP1 SSTORE POP PUSH1 0x20 DUP3 ADD MLOAD DUP2 PUSH1 0x1 ADD SWAP1 DUP2 PUSH2 0x18D2 SWAP2 SWAP1 PUSH2 0x3A02 JUMP JUMPDEST POP PUSH1 0x40 DUP3 ADD MLOAD DUP2 PUSH1 0x2 ADD SSTORE PUSH1 0x60 DUP3 ADD MLOAD DUP2 PUSH1 0x3 ADD SSTORE PUSH1 0x80 DUP3 ADD MLOAD DUP2 PUSH1 0x4 ADD PUSH0 PUSH2 0x100 EXP DUP2 SLOAD DUP2 PUSH1 0xFF MUL NOT AND SWAP1 DUP4 ISZERO ISZERO MUL OR SWAP1 SSTORE POP SWAP1 POP POP CALLER PUSH20 0xFFFFFFFFFFFFFFFFFFFFFFFFFFFFFFFFFFFFFFFF AND PUSH32 0xBAFDDECBD1DEC1C1AFB76D693F1DE16901F521BDF29A02438E3E6806C0B8D948 DUP4 PUSH1 0x40 MLOAD PUSH2 0x194F SWAP2 SWAP1 PUSH2 0x3AD1 JUMP JUMPDEST PUSH1 0x40 MLOAD DUP1 SWAP2 SUB SWAP1 LOG2 JUMPDEST PUSH0 CALLER TIMESTAMP PREVRANDAO PUSH1 0x40 MLOAD PUSH1 0x20 ADD PUSH2 0x196E SWAP4 SWAP3 SWAP2 SWAP1 PUSH2 0x3C1A JUMP JUMPDEST PUSH1 0x40 MLOAD PUSH1 0x20 DUP2 DUP4 SUB SUB DUP2 MSTORE SWAP1 PUSH1 0x40 MSTORE DUP1 MLOAD SWAP1 PUSH1 0x20 ADD KECCAK256 SWAP1 POP DUP1 PUSH1 0x5 PUSH0 CALLER PUSH20 0xFFFFFFFFFFFFFFFFFFFFFFFFFFFFFFFFFFFFFFFF AND PUSH20 0xFFFFFFFFFFFFFFFFFFFFFFFFFFFFFFFFFFFFFFFF AND DUP2 MSTORE PUSH1 0x20 ADD SWAP1 DUP2 MSTORE PUSH1 0x20 ADD PUSH0 KECCAK256 DUP2 SWAP1 SSTORE POP CALLER PUSH1 0x6 PUSH0 DUP4 DUP2 MSTORE PUSH1 0x20 ADD SWAP1 DUP2 MSTORE PUSH1 0x20 ADD PUSH0 KECCAK256 PUSH0 PUSH2 0x100 EXP DUP2 SLOAD DUP2 PUSH20 0xFFFFFFFFFFFFFFFFFFFFFFFFFFFFFFFFFFFFFFFF MUL NOT AND SWAP1 DUP4 PUSH20 0xFFFFFFFFFFFFFFFFFFFFFFFFFFFFFFFFFFFFFFFF AND MUL OR SWAP1 SSTORE POP CALLER PUSH20 0xFFFFFFFFFFFFFFFFFFFFFFFFFFFFFFFFFFFFFFFF AND PUSH32 0x1A0BAD8B81287DF6C7518AD18C022DB6E8DB24F922A8FF32DBB6FED74C699A26 DUP3 PUSH1 0x40 MLOAD PUSH2 0x1A5D SWAP2 SWAP1 PUSH2 0x3205 JUMP JUMPDEST PUSH1 0x40 MLOAD DUP1 SWAP2 SUB SWAP1 LOG2 POP POP POP JUMP JUMPDEST PUSH32 0xC5C74B901CB87F1E81A3E0539A5D95BF14FA111210701DD52208A2390204B455 DUP2 JUMP JUMPDEST PUSH0 PUSH1 0x3 PUSH0 DUP4 PUSH20 0xFFFFFFFFFFFFFFFFFFFFFFFFFFFFFFFFFFFFFFFF AND PUSH20 0xFFFFFFFFFFFFFFFFFFFFFFFFFFFFFFFFFFFFFFFF AND DUP2 MSTORE PUSH1 0x20 ADD SWAP1 DUP2 MSTORE PUSH1 0x20 ADD PUSH0 KECCAK256 SLOAD SWAP1 POP SWAP2 SWAP1 POP JUMP JUMPDEST PUSH1 0x7 PUSH1 0x20 MSTORE DUP1 PUSH0 MSTORE PUSH1 0x40 PUSH0 KECCAK256 PUSH0 SWAP2 POP SWAP1 POP DUP1 PUSH0 ADD PUSH0 SWAP1 SLOAD SWAP1 PUSH2 0x100 EXP SWAP1 DIV PUSH20 0xFFFFFFFFFFFFFFFFFFFFFFFFFFFFFFFFFFFFFFFF AND SWAP1 DUP1 PUSH1 0x1 ADD DUP1 SLOAD PUSH2 0x1B18 SWAP1 PUSH2 0x3832 JUMP JUMPDEST DUP1 PUSH1 0x1F ADD PUSH1 0x20 DUP1 SWAP2 DIV MUL PUSH1 0x20 ADD PUSH1 0x40 MLOAD SWAP1 DUP2 ADD PUSH1 0x40 MSTORE DUP1 SWAP3 SWAP2 SWAP1 DUP2 DUP2 MSTORE PUSH1 0x20 ADD DUP3 DUP1 SLOAD PUSH2 0x1B44 SWAP1 PUSH2 0x3832 JUMP JUMPDEST DUP1 ISZERO PUSH2 0x1B8F JUMPI DUP1 PUSH1 0x1F LT PUSH2 0x1B66 JUMPI PUSH2 0x100 DUP1 DUP4 SLOAD DIV MUL DUP4 MSTORE SWAP2 PUSH1 0x20 ADD SWAP2 PUSH2 0x1B8F JUMP JUMPDEST DUP3 ADD SWAP2 SWAP1 PUSH0 MSTORE PUSH1 0x20 PUSH0 KECCAK256 SWAP1 JUMPDEST DUP2 SLOAD DUP2 MSTORE SWAP1 PUSH1 0x1 ADD SWAP1 PUSH1 0x20 ADD DUP1 DUP4 GT PUSH2 0x1B72 JUMPI DUP3 SWAP1 SUB PUSH1 0x1F AND DUP3 ADD SWAP2 JUMPDEST POP POP POP POP POP SWAP1 DUP1 PUSH1 0x2 ADD SLOAD SWAP1 DUP1 PUSH1 0x3 ADD SLOAD SWAP1 DUP1 PUSH1 0x4 ADD PUSH0 SWAP1 SLOAD SWAP1 PUSH2 0x100 EXP SWAP1 DIV PUSH1 0xFF AND SWAP1 POP DUP6 JUMP JUMPDEST PUSH1 0x4 PUSH1 0x20 MSTORE DUP2 PUSH0 MSTORE PUSH1 0x40 PUSH0 KECCAK256 DUP2 DUP2 SLOAD DUP2 LT PUSH2 0x1BD0 JUMPI PUSH0 DUP1 REVERT JUMPDEST SWAP1 PUSH0 MSTORE PUSH1 0x20 PUSH0 KECCAK256 SWAP1 PUSH1 0x4 MUL ADD PUSH0 SWAP2 POP SWAP2 POP POP DUP1 PUSH0 ADD DUP1 SLOAD PUSH2 0x1BF0 SWAP1 PUSH2 0x3832 JUMP JUMPDEST DUP1 PUSH1 0x1F ADD PUSH1 0x20 DUP1 SWAP2 DIV MUL PUSH1 0x20 ADD PUSH1 0x40 MLOAD SWAP1 DUP2 ADD PUSH1 0x40 MSTORE DUP1 SWAP3 SWAP2 SWAP1 DUP2 DUP2 MSTORE PUSH1 0x20 ADD DUP3 DUP1 SLOAD PUSH2 0x1C1C SWAP1 PUSH2 0x3832 JUMP JUMPDEST DUP1 ISZERO PUSH2 0x1C67 JUMPI DUP1 PUSH1 0x1F LT PUSH2 0x1C3E JUMPI PUSH2 0x100 DUP1 DUP4 SLOAD DIV MUL DUP4 MSTORE SWAP2 PUSH1 0x20 ADD SWAP2 PUSH2 0x1C67 JUMP JUMPDEST DUP3 ADD SWAP2 SWAP1 PUSH0 MSTORE PUSH1 0x20 PUSH0 KECCAK256 SWAP1 JUMPDEST DUP2 SLOAD DUP2 MSTORE SWAP1 PUSH1 0x1 ADD SWAP1 PUSH1 0x20 ADD DUP1 DUP4 GT PUSH2 0x1C4A JUMPI DUP3 SWAP1 SUB PUSH1 0x1F AND DUP3 ADD SWAP2 JUMPDEST POP POP POP POP POP SWAP1 DUP1 PUSH1 0x1 ADD DUP1 SLOAD PUSH2 0x1C7C SWAP1 PUSH2 0x3832 JUMP JUMPDEST DUP1 PUSH1 0x1F ADD PUSH1 0x20 DUP1 SWAP2 DIV MUL PUSH1 0x20 ADD PUSH1 0x40 MLOAD SWAP1 DUP2 ADD PUSH1 0x40 MSTORE DUP1 SWAP3 SWAP2 SWAP1 DUP2 DUP2 MSTORE PUSH1 0x20 ADD DUP3 DUP1 SLOAD PUSH2 0x1CA8 SWAP1 PUSH2 0x3832 JUMP JUMPDEST DUP1 ISZERO PUSH2 0x1CF3 JUMPI DUP1 PUSH1 0x1F LT PUSH2 0x1CCA JUMPI PUSH2 0x100 DUP1 DUP4 SLOAD DIV MUL DUP4 MSTORE SWAP2 PUSH1 0x20 ADD SWAP2 PUSH2 0x1CF3 JUMP JUMPDEST DUP3 ADD SWAP2 SWAP1 PUSH0 MSTORE PUSH1 0x20 PUSH0 KECCAK256 SWAP1 JUMPDEST DUP2 SLOAD DUP2 MSTORE SWAP1 PUSH1 0x1 ADD SWAP1 PUSH1 0x20 ADD DUP1 DUP4 GT PUSH2 0x1CD6 JUMPI DUP3 SWAP1 SUB PUSH1 0x1F AND DUP3 ADD SWAP2 JUMPDEST POP POP POP POP POP SWAP1 DUP1 PUSH1 0x2 ADD SLOAD SWAP1 DUP1 PUSH1 0x3 ADD SLOAD SWAP1 POP DUP5 JUMP JUMPDEST PUSH32 0xA49807205CE4D355092EF5A8A18F56E8913CF4A201FBE287825B095693C21775 PUSH2 0x1D33 DUP2 PUSH2 0x229E JUMP JUMPDEST PUSH1 0xB DUP4 PUSH1 0x40 MLOAD PUSH2 0x1D43 SWAP2 SWAP1 PUSH2 0x3B2B JUMP JUMPDEST SWAP1 DUP2 MSTORE PUSH1 0x20 ADD PUSH1 0x40 MLOAD DUP1 SWAP2 SUB SWAP1 KECCAK256 PUSH0 SWAP1 SLOAD SWAP1 PUSH2 0x100 EXP SWAP1 DIV PUSH1 0xFF AND PUSH2 0x1D94 JUMPI PUSH1 0x40 MLOAD PUSH32 0x5E07EB5300000000000000000000000000000000000000000000000000000000 DUP2 MSTORE PUSH1 0x4 ADD PUSH1 0x40 MLOAD DUP1 SWAP2 SUB SWAP1 REVERT JUMPDEST DUP2 PUSH1 0xA DUP5 PUSH1 0x40 MLOAD PUSH2 0x1DA5 SWAP2 SWAP1 PUSH2 0x3B2B JUMP JUMPDEST SWAP1 DUP2 MSTORE PUSH1 0x20 ADD PUSH1 0x40 MLOAD DUP1 SWAP2 SUB SWAP1 KECCAK256 DUP2 SWAP1 SSTORE POP POP POP POP JUMP JUMPDEST PUSH2 0x1DC5 DUP3 PUSH2 0xB0F JUMP JUMPDEST PUSH2 0x1DCE DUP2 PUSH2 0x229E JUMP JUMPDEST PUSH2 0x1DD8 DUP4 DUP4 PUSH2 0x2701 JUMP JUMPDEST POP POP POP POP JUMP JUMPDEST PUSH1 0x6 PUSH1 0x20 MSTORE DUP1 PUSH0 MSTORE PUSH1 0x40 PUSH0 KECCAK256 PUSH0 SWAP2 POP SLOAD SWAP1 PUSH2 0x100 EXP SWAP1 DIV PUSH20 0xFFFFFFFFFFFFFFFFFFFFFFFFFFFFFFFFFFFFFFFF AND DUP2 JUMP JUMPDEST PUSH1 0x9 PUSH1 0x20 MSTORE DUP2 PUSH0 MSTORE PUSH1 0x40 PUSH0 KECCAK256 DUP2 DUP2 SLOAD DUP2 LT PUSH2 0x1E27 JUMPI PUSH0 DUP1 REVERT JUMPDEST SWAP1 PUSH0 MSTORE PUSH1 0x20 PUSH0 KECCAK256 ADD PUSH0 SWAP2 POP SWAP2 POP SWAP1 SLOAD SWAP1 PUSH2 0x100 EXP SWAP1 DIV PUSH20 0xFFFFFFFFFFFFFFFFFFFFFFFFFFFFFFFFFFFFFFFF AND DUP2 JUMP JUMPDEST PUSH1 0x60 PUSH1 0x4 PUSH0 DUP4 PUSH20 0xFFFFFFFFFFFFFFFFFFFFFFFFFFFFFFFFFFFFFFFF AND PUSH20 0xFFFFFFFFFFFFFFFFFFFFFFFFFFFFFFFFFFFFFFFF AND DUP2 MSTORE PUSH1 0x20 ADD SWAP1 DUP2 MSTORE PUSH1 0x20 ADD PUSH0 KECCAK256 DUP1 SLOAD DUP1 PUSH1 0x20 MUL PUSH1 0x20 ADD PUSH1 0x40 MLOAD SWAP1 DUP2 ADD PUSH1 0x40 MSTORE DUP1 SWAP3 SWAP2 SWAP1 DUP2 DUP2 MSTORE PUSH1 0x20 ADD PUSH0 SWAP1 JUMPDEST DUP3 DUP3 LT ISZERO PUSH2 0x2017 JUMPI DUP4 DUP3 SWAP1 PUSH0 MSTORE PUSH1 0x20 PUSH0 KECCAK256 SWAP1 PUSH1 0x4 MUL ADD PUSH1 0x40 MLOAD DUP1 PUSH1 0x80 ADD PUSH1 0x40 MSTORE SWAP1 DUP2 PUSH0 DUP3 ADD DUP1 SLOAD PUSH2 0x1EE4 SWAP1 PUSH2 0x3832 JUMP JUMPDEST DUP1 PUSH1 0x1F ADD PUSH1 0x20 DUP1 SWAP2 DIV MUL PUSH1 0x20 ADD PUSH1 0x40 MLOAD SWAP1 DUP2 ADD PUSH1 0x40 MSTORE DUP1 SWAP3 SWAP2 SWAP1 DUP2 DUP2 MSTORE PUSH1 0x20 ADD DUP3 DUP1 SLOAD PUSH2 0x1F10 SWAP1 PUSH2 0x3832 JUMP JUMPDEST DUP1 ISZERO PUSH2 0x1F5B JUMPI DUP1 PUSH1 0x1F LT PUSH2 0x1F32 JUMPI PUSH2 0x100 DUP1 DUP4 SLOAD DIV MUL DUP4 MSTORE SWAP2 PUSH1 0x20 ADD SWAP2 PUSH2 0x1F5B JUMP JUMPDEST DUP3 ADD SWAP2 SWAP1 PUSH0 MSTORE PUSH1 0x20 PUSH0 KECCAK256 SWAP1 JUMPDEST DUP2 SLOAD DUP2 MSTORE SWAP1 PUSH1 0x1 ADD SWAP1 PUSH1 0x20 ADD DUP1 DUP4 GT PUSH2 0x1F3E JUMPI DUP3 SWAP1 SUB PUSH1 0x1F AND DUP3 ADD SWAP2 JUMPDEST POP POP POP POP POP DUP2 MSTORE PUSH1 0x20 ADD PUSH1 0x1 DUP3 ADD DUP1 SLOAD PUSH2 0x1F74 SWAP1 PUSH2 0x3832 JUMP JUMPDEST DUP1 PUSH1 0x1F ADD PUSH1 0x20 DUP1 SWAP2 DIV MUL PUSH1 0x20 ADD PUSH1 0x40 MLOAD SWAP1 DUP2 ADD PUSH1 0x40 MSTORE DUP1 SWAP3 SWAP2 SWAP1 DUP2 DUP2 MSTORE PUSH1 0x20 ADD DUP3 DUP1 SLOAD PUSH2 0x1FA0 SWAP1 PUSH2 0x3832 JUMP JUMPDEST DUP1 ISZERO PUSH2 0x1FEB JUMPI DUP1 PUSH1 0x1F LT PUSH2 0x1FC2 JUMPI PUSH2 0x100 DUP1 DUP4 SLOAD DIV MUL DUP4 MSTORE SWAP2 PUSH1 0x20 ADD SWAP2 PUSH2 0x1FEB JUMP JUMPDEST DUP3 ADD SWAP2 SWAP1 PUSH0 MSTORE PUSH1 0x20 PUSH0 KECCAK256 SWAP1 JUMPDEST DUP2 SLOAD DUP2 MSTORE SWAP1 PUSH1 0x1 ADD SWAP1 PUSH1 0x20 ADD DUP1 DUP4 GT PUSH2 0x1FCE JUMPI DUP3 SWAP1 SUB PUSH1 0x1F AND DUP3 ADD SWAP2 JUMPDEST POP POP POP POP POP DUP2 MSTORE PUSH1 0x20 ADD PUSH1 0x2 DUP3 ADD SLOAD DUP2 MSTORE PUSH1 0x20 ADD PUSH1 0x3 DUP3 ADD SLOAD DUP2 MSTORE POP POP DUP2 MSTORE PUSH1 0x20 ADD SWAP1 PUSH1 0x1 ADD SWAP1 PUSH2 0x1EB4 JUMP JUMPDEST POP POP POP POP SWAP1 POP SWAP2 SWAP1 POP JUMP JUMPDEST PUSH32 0xC5C74B901CB87F1E81A3E0539A5D95BF14FA111210701DD52208A2390204B455 PUSH2 0x204C DUP2 PUSH2 0x229E JUMP JUMPDEST DUP3 PUSH1 0x3 PUSH0 DUP7 PUSH20 0xFFFFFFFFFFFFFFFFFFFFFFFFFFFFFFFFFFFFFFFF AND PUSH20 0xFFFFFFFFFFFFFFFFFFFFFFFFFFFFFFFFFFFFFFFF AND DUP2 MSTORE PUSH1 0x20 ADD SWAP1 DUP2 MSTORE PUSH1 0x20 ADD PUSH0 KECCAK256 SLOAD LT PUSH2 0x20E8 JUMPI DUP3 PUSH1 0x3 PUSH0 DUP7 PUSH20 0xFFFFFFFFFFFFFFFFFFFFFFFFFFFFFFFFFFFFFFFF AND PUSH20 0xFFFFFFFFFFFFFFFFFFFFFFFFFFFFFFFFFFFFFFFF AND DUP2 MSTORE PUSH1 0x20 ADD SWAP1 DUP2 MSTORE PUSH1 0x20 ADD PUSH0 KECCAK256 PUSH0 DUP3 DUP3 SLOAD PUSH2 0x20DC SWAP2 SWAP1 PUSH2 0x3C56 JUMP JUMPDEST SWAP3 POP POP DUP2 SWAP1 SSTORE POP PUSH2 0x212B JUMP JUMPDEST PUSH0 PUSH1 0x3 PUSH0 DUP7 PUSH20 0xFFFFFFFFFFFFFFFFFFFFFFFFFFFFFFFFFFFFFFFF AND PUSH20 0xFFFFFFFFFFFFFFFFFFFFFFFFFFFFFFFFFFFFFFFF AND DUP2 MSTORE PUSH1 0x20 ADD SWAP1 DUP2 MSTORE PUSH1 0x20 ADD PUSH0 KECCAK256 DUP2 SWAP1 SSTORE POP JUMPDEST DUP4 PUSH20 0xFFFFFFFFFFFFFFFFFFFFFFFFFFFFFFFFFFFFFFFF AND PUSH32 0x2B535FBF4D2281F734A35408583A14D4E2B28653B00D761613E8758399DD6E6D PUSH1 0x3 PUSH0 DUP8 PUSH20 0xFFFFFFFFFFFFFFFFFFFFFFFFFFFFFFFFFFFFFFFF AND PUSH20 0xFFFFFFFFFFFFFFFFFFFFFFFFFFFFFFFFFFFFFFFF AND DUP2 MSTORE PUSH1 0x20 ADD SWAP1 DUP2 MSTORE PUSH1 0x20 ADD PUSH0 KECCAK256 SLOAD DUP5 PUSH1 0x40 MLOAD PUSH2 0x21B0 SWAP3 SWAP2 SWAP1 PUSH2 0x3C89 JUMP JUMPDEST PUSH1 0x40 MLOAD DUP1 SWAP2 SUB SWAP1 LOG2 POP POP POP POP JUMP JUMPDEST PUSH1 0xA DUP2 DUP1 MLOAD PUSH1 0x20 DUP2 ADD DUP3 ADD DUP1 MLOAD DUP5 DUP3 MSTORE PUSH1 0x20 DUP4 ADD PUSH1 0x20 DUP6 ADD KECCAK256 DUP2 DUP4 MSTORE DUP1 SWAP6 POP POP POP POP POP POP PUSH0 SWAP2 POP SWAP1 POP SLOAD DUP2 JUMP JUMPDEST PUSH2 0x21F3 PUSH2 0x1158 JUMP JUMPDEST ISZERO PUSH2 0x2233 JUMPI PUSH1 0x40 MLOAD PUSH32 0x8C379A000000000000000000000000000000000000000000000000000000000 DUP2 MSTORE PUSH1 0x4 ADD PUSH2 0x222A SWAP1 PUSH2 0x3D01 JUMP JUMPDEST PUSH1 0x40 MLOAD DUP1 SWAP2 SUB SWAP1 REVERT JUMPDEST JUMP JUMPDEST PUSH0 PUSH32 0x1FFC9A700000000000000000000000000000000000000000000000000000000 PUSH28 0xFFFFFFFFFFFFFFFFFFFFFFFFFFFFFFFFFFFFFFFFFFFFFFFFFFFFFFFF NOT AND DUP3 PUSH28 0xFFFFFFFFFFFFFFFFFFFFFFFFFFFFFFFFFFFFFFFFFFFFFFFFFFFFFFFF NOT AND EQ SWAP1 POP SWAP2 SWAP1 POP JUMP JUMPDEST PUSH2 0x22AF DUP2 PUSH2 0x22AA PUSH2 0x26FA JUMP JUMPDEST PUSH2 0x28AD JUMP JUMPDEST POP JUMP JUMPDEST PUSH1 0xB DUP2 PUSH1 0x40 MLOAD PUSH2 0x22C2 SWAP2 SWAP1 PUSH2 0x3B2B JUMP JUMPDEST SWAP1 DUP2 MSTORE PUSH1 0x20 ADD PUSH1 0x40 MLOAD DUP1 SWAP2 SUB SWAP1 KECCAK256 PUSH0 SWAP1 SLOAD SWAP1 PUSH2 0x100 EXP SWAP1 DIV PUSH1 0xFF AND PUSH2 0x2313 JUMPI PUSH1 0x40 MLOAD PUSH32 0x5E07EB5300000000000000000000000000000000000000000000000000000000 DUP2 MSTORE PUSH1 0x4 ADD PUSH1 0x40 MLOAD DUP1 SWAP2 SUB SWAP1 REVERT JUMPDEST PUSH0 PUSH1 0x4 PUSH0 DUP5 PUSH20 0xFFFFFFFFFFFFFFFFFFFFFFFFFFFFFFFFFFFFFFFF AND PUSH20 0xFFFFFFFFFFFFFFFFFFFFFFFFFFFFFFFFFFFFFFFF AND DUP2 MSTORE PUSH1 0x20 ADD SWAP1 DUP2 MSTORE PUSH1 0x20 ADD PUSH0 KECCAK256 SWAP1 POP PUSH0 PUSH0 SWAP1 POP JUMPDEST DUP2 DUP1 SLOAD SWAP1 POP DUP2 LT ISZERO PUSH2 0x23BB JUMPI DUP3 DUP1 MLOAD SWAP1 PUSH1 0x20 ADD KECCAK256 DUP3 DUP3 DUP2 SLOAD DUP2 LT PUSH2 0x237F JUMPI PUSH2 0x237E PUSH2 0x3D1F JUMP JUMPDEST JUMPDEST SWAP1 PUSH0 MSTORE PUSH1 0x20 PUSH0 KECCAK256 SWAP1 PUSH1 0x4 MUL ADD PUSH0 ADD PUSH1 0x40 MLOAD PUSH2 0x239A SWAP2 SWAP1 PUSH2 0x3DE8 JUMP JUMPDEST PUSH1 0x40 MLOAD DUP1 SWAP2 SUB SWAP1 KECCAK256 SUB PUSH2 0x23AE JUMPI POP POP PUSH2 0x2527 JUMP JUMPDEST DUP1 DUP1 PUSH1 0x1 ADD SWAP2 POP POP PUSH2 0x2358 JUMP JUMPDEST POP PUSH0 PUSH1 0xA DUP4 PUSH1 0x40 MLOAD PUSH2 0x23CD SWAP2 SWAP1 PUSH2 0x3B2B JUMP JUMPDEST SWAP1 DUP2 MSTORE PUSH1 0x20 ADD PUSH1 0x40 MLOAD DUP1 SWAP2 SUB SWAP1 KECCAK256 SLOAD SWAP1 POP PUSH1 0x4 PUSH0 DUP6 PUSH20 0xFFFFFFFFFFFFFFFFFFFFFFFFFFFFFFFFFFFFFFFF AND PUSH20 0xFFFFFFFFFFFFFFFFFFFFFFFFFFFFFFFFFFFFFFFF AND DUP2 MSTORE PUSH1 0x20 ADD SWAP1 DUP2 MSTORE PUSH1 0x20 ADD PUSH0 KECCAK256 PUSH1 0x40 MLOAD DUP1 PUSH1 0x80 ADD PUSH1 0x40 MSTORE DUP1 DUP6 DUP2 MSTORE PUSH1 0x20 ADD PUSH2 0x2435 DUP7 PUSH2 0x28FE JUMP JUMPDEST DUP2 MSTORE PUSH1 0x20 ADD DUP4 DUP2 MSTORE PUSH1 0x20 ADD TIMESTAMP DUP2 MSTORE POP SWAP1 DUP1 PUSH1 0x1 DUP2 SLOAD ADD DUP1 DUP3 SSTORE DUP1 SWAP2 POP POP PUSH1 0x1 SWAP1 SUB SWAP1 PUSH0 MSTORE PUSH1 0x20 PUSH0 KECCAK256 SWAP1 PUSH1 0x4 MUL ADD PUSH0 SWAP1 SWAP2 SWAP1 SWAP2 SWAP1 SWAP2 POP PUSH0 DUP3 ADD MLOAD DUP2 PUSH0 ADD SWAP1 DUP2 PUSH2 0x247D SWAP2 SWAP1 PUSH2 0x3A02 JUMP JUMPDEST POP PUSH1 0x20 DUP3 ADD MLOAD DUP2 PUSH1 0x1 ADD SWAP1 DUP2 PUSH2 0x2493 SWAP2 SWAP1 PUSH2 0x3A02 JUMP JUMPDEST POP PUSH1 0x40 DUP3 ADD MLOAD DUP2 PUSH1 0x2 ADD SSTORE PUSH1 0x60 DUP3 ADD MLOAD DUP2 PUSH1 0x3 ADD SSTORE POP POP PUSH2 0x24D4 DUP5 DUP3 DUP6 PUSH1 0x40 MLOAD PUSH1 0x20 ADD PUSH2 0x24C0 SWAP2 SWAP1 PUSH2 0x3E48 JUMP JUMPDEST PUSH1 0x40 MLOAD PUSH1 0x20 DUP2 DUP4 SUB SUB DUP2 MSTORE SWAP1 PUSH1 0x40 MSTORE PUSH2 0x2615 JUMP JUMPDEST DUP4 PUSH20 0xFFFFFFFFFFFFFFFFFFFFFFFFFFFFFFFFFFFFFFFF AND PUSH32 0x67A8D47C6ECF3A491EA8A4F20A58352394879C573C678EC5B9ABCEAE075D4DCA DUP5 DUP4 PUSH1 0x40 MLOAD PUSH2 0x251C SWAP3 SWAP2 SWAP1 PUSH2 0x3E69 JUMP JUMPDEST PUSH1 0x40 MLOAD DUP1 SWAP2 SUB SWAP1 LOG2 POP POP JUMPDEST POP POP JUMP JUMPDEST PUSH0 PUSH2 0x2536 DUP4 DUP4 PUSH2 0x12EE JUMP JUMPDEST PUSH2 0x260B JUMPI PUSH1 0x1 PUSH1 0x2 PUSH0 DUP6 DUP2 MSTORE PUSH1 0x20 ADD SWAP1 DUP2 MSTORE PUSH1 0x20 ADD PUSH0 KECCAK256 PUSH0 ADD PUSH0 DUP5 PUSH20 0xFFFFFFFFFFFFFFFFFFFFFFFFFFFFFFFFFFFFFFFF AND PUSH20 0xFFFFFFFFFFFFFFFFFFFFFFFFFFFFFFFFFFFFFFFF AND DUP2 MSTORE PUSH1 0x20 ADD SWAP1 DUP2 MSTORE PUSH1 0x20 ADD PUSH0 KECCAK256 PUSH0 PUSH2 0x100 EXP DUP2 SLOAD DUP2 PUSH1 0xFF MUL NOT AND SWAP1 DUP4 ISZERO ISZERO MUL OR SWAP1 SSTORE POP PUSH2 0x25A8 PUSH2 0x26FA JUMP JUMPDEST PUSH20 0xFFFFFFFFFFFFFFFFFFFFFFFFFFFFFFFFFFFFFFFF AND DUP3 PUSH20 0xFFFFFFFFFFFFFFFFFFFFFFFFFFFFFFFFFFFFFFFF AND DUP5 PUSH32 0x2F8788117E7EFF1D82E926EC794901D17C78024A50270940304540A733656F0D PUSH1 0x40 MLOAD PUSH1 0x40 MLOAD DUP1 SWAP2 SUB SWAP1 LOG4 PUSH1 0x1 SWAP1 POP PUSH2 0x260F JUMP JUMPDEST PUSH0 SWAP1 POP JUMPDEST SWAP3 SWAP2 POP POP JUMP JUMPDEST DUP2 PUSH1 0x3 PUSH0 DUP6 PUSH20 0xFFFFFFFFFFFFFFFFFFFFFFFFFFFFFFFFFFFFFFFF AND PUSH20 0xFFFFFFFFFFFFFFFFFFFFFFFFFFFFFFFFFFFFFFFF AND DUP2 MSTORE PUSH1 0x20 ADD SWAP1 DUP2 MSTORE PUSH1 0x20 ADD PUSH0 KECCAK256 PUSH0 DUP3 DUP3 SLOAD PUSH2 0x2661 SWAP2 SWAP1 PUSH2 0x3E97 JUMP JUMPDEST SWAP3 POP POP DUP2 SWAP1 SSTORE POP DUP3 PUSH20 0xFFFFFFFFFFFFFFFFFFFFFFFFFFFFFFFFFFFFFFFF AND PUSH32 0x2B535FBF4D2281F734A35408583A14D4E2B28653B00D761613E8758399DD6E6D PUSH1 0x3 PUSH0 DUP7 PUSH20 0xFFFFFFFFFFFFFFFFFFFFFFFFFFFFFFFFFFFFFFFF AND PUSH20 0xFFFFFFFFFFFFFFFFFFFFFFFFFFFFFFFFFFFFFFFF AND DUP2 MSTORE PUSH1 0x20 ADD SWAP1 DUP2 MSTORE PUSH1 0x20 ADD PUSH0 KECCAK256 SLOAD DUP4 PUSH1 0x40 MLOAD PUSH2 0x26ED SWAP3 SWAP2 SWAP1 PUSH2 0x3C89 JUMP JUMPDEST PUSH1 0x40 MLOAD DUP1 SWAP2 SUB SWAP1 LOG2 POP POP POP JUMP JUMPDEST PUSH0 CALLER SWAP1 POP SWAP1 JUMP JUMPDEST PUSH0 PUSH2 0x270C DUP4 DUP4 PUSH2 0x12EE JUMP JUMPDEST ISZERO PUSH2 0x27E1 JUMPI PUSH0 PUSH1 0x2 PUSH0 DUP6 DUP2 MSTORE PUSH1 0x20 ADD SWAP1 DUP2 MSTORE PUSH1 0x20 ADD PUSH0 KECCAK256 PUSH0 ADD PUSH0 DUP5 PUSH20 0xFFFFFFFFFFFFFFFFFFFFFFFFFFFFFFFFFFFFFFFF AND PUSH20 0xFFFFFFFFFFFFFFFFFFFFFFFFFFFFFFFFFFFFFFFF AND DUP2 MSTORE PUSH1 0x20 ADD SWAP1 DUP2 MSTORE PUSH1 0x20 ADD PUSH0 KECCAK256 PUSH0 PUSH2 0x100 EXP DUP2 SLOAD DUP2 PUSH1 0xFF MUL NOT AND SWAP1 DUP4 ISZERO ISZERO MUL OR SWAP1 SSTORE POP PUSH2 0x277E PUSH2 0x26FA JUMP JUMPDEST PUSH20 0xFFFFFFFFFFFFFFFFFFFFFFFFFFFFFFFFFFFFFFFF AND DUP3 PUSH20 0xFFFFFFFFFFFFFFFFFFFFFFFFFFFFFFFFFFFFFFFF AND DUP5 PUSH32 0xF6391F5C32D9C69D2A47EA670B442974B53935D1EDC7FD64EB21E047A839171B PUSH1 0x40 MLOAD PUSH1 0x40 MLOAD DUP1 SWAP2 SUB SWAP1 LOG4 PUSH1 0x1 SWAP1 POP PUSH2 0x27E5 JUMP JUMPDEST PUSH0 SWAP1 POP JUMPDEST SWAP3 SWAP2 POP POP JUMP JUMPDEST PUSH2 0x27F3 PUSH2 0x2D84 JUMP JUMPDEST PUSH0 PUSH1 0x1 PUSH0 PUSH2 0x100 EXP DUP2 SLOAD DUP2 PUSH1 0xFF MUL NOT AND SWAP1 DUP4 ISZERO ISZERO MUL OR SWAP1 SSTORE POP PUSH32 0x5DB9EE0A495BF2E6FF9C91A7834C1BA4FDD244A5E8AA4E537BD38AEAE4B073AA PUSH2 0x2835 PUSH2 0x26FA JUMP JUMPDEST PUSH1 0x40 MLOAD PUSH2 0x2842 SWAP2 SWAP1 PUSH2 0x3401 JUMP JUMPDEST PUSH1 0x40 MLOAD DUP1 SWAP2 SUB SWAP1 LOG1 JUMP JUMPDEST PUSH2 0x2854 PUSH2 0x21EB JUMP JUMPDEST PUSH1 0x1 DUP1 PUSH0 PUSH2 0x100 EXP DUP2 SLOAD DUP2 PUSH1 0xFF MUL NOT AND SWAP1 DUP4 ISZERO ISZERO MUL OR SWAP1 SSTORE POP PUSH32 0x62E78CEA01BEE320CD4E420270B5EA74000D11B0C9F74754EBDBFC544B05A258 PUSH2 0x2896 PUSH2 0x26FA JUMP JUMPDEST PUSH1 0x40 MLOAD PUSH2 0x28A3 SWAP2 SWAP1 PUSH2 0x3401 JUMP JUMPDEST PUSH1 0x40 MLOAD DUP1 SWAP2 SUB SWAP1 LOG1 JUMP JUMPDEST PUSH2 0x28B7 DUP3 DUP3 PUSH2 0x12EE JUMP JUMPDEST PUSH2 0x28FA JUMPI DUP1 DUP3 PUSH1 0x40 MLOAD PUSH32 0xE2517D3F00000000000000000000000000000000000000000000000000000000 DUP2 MSTORE PUSH1 0x4 ADD PUSH2 0x28F1 SWAP3 SWAP2 SWAP1 PUSH2 0x3ECA JUMP JUMPDEST PUSH1 0x40 MLOAD DUP1 SWAP2 SUB SWAP1 REVERT JUMPDEST POP POP JUMP JUMPDEST PUSH1 0x60 PUSH0 DUP3 DUP1 MLOAD SWAP1 PUSH1 0x20 ADD KECCAK256 SWAP1 POP PUSH32 0xCE3C74D1AA17E71C363F9EC4E9713D22E86F5938EE1536DE30EDE935B3EA8699 DUP2 SUB PUSH2 0x2970 JUMPI PUSH1 0x40 MLOAD DUP1 PUSH1 0x40 ADD PUSH1 0x40 MSTORE DUP1 PUSH1 0x18 DUP2 MSTORE PUSH1 0x20 ADD PUSH32 0x4372656174656420796F7572206669727374206368616D610000000000000000 DUP2 MSTORE POP SWAP2 POP POP PUSH2 0x2D7F JUMP JUMPDEST PUSH32 0xAA639973EECED364B1E49EAF04CDCE0E3A448BEDA1AC572145DCDB4158FF3EE1 DUP2 SUB PUSH2 0x29D5 JUMPI PUSH1 0x40 MLOAD DUP1 PUSH1 0x40 ADD PUSH1 0x40 MSTORE DUP1 PUSH1 0x1C DUP2 MSTORE PUSH1 0x20 ADD PUSH32 0x4D61646520796F757220666972737420636F6E747269627574696F6E00000000 DUP2 MSTORE POP SWAP2 POP POP PUSH2 0x2D7F JUMP JUMPDEST PUSH32 0x51171439905207316BFBB9035965755DCE7F21F64623B2947331B66CE5D9DDC2 DUP2 SUB PUSH2 0x2A3A JUMPI PUSH1 0x40 MLOAD DUP1 PUSH1 0x40 ADD PUSH1 0x40 MSTORE DUP1 PUSH1 0x14 DUP2 MSTORE PUSH1 0x20 ADD PUSH32 0x4D616465203520636F6E747269627574696F6E73000000000000000000000000 DUP2 MSTORE POP SWAP2 POP POP PUSH2 0x2D7F JUMP JUMPDEST PUSH32 0x9234AB901AD425023426825F1183636FF74E190A0A0F56DC56C1F4AF63FCB961 DUP2 SUB PUSH2 0x2A82 JUMPI PUSH1 0x40 MLOAD DUP1 PUSH1 0x60 ADD PUSH1 0x40 MSTORE DUP1 PUSH1 0x24 DUP2 MSTORE PUSH1 0x20 ADD PUSH2 0x3F5A PUSH1 0x24 SWAP2 CODECOPY SWAP2 POP POP PUSH2 0x2D7F JUMP JUMPDEST PUSH32 0x2B6467A5DE24F89E6A97F6828FEFA01AF0BF00966DBFB0F3B1E24583B812E6B7 DUP2 SUB PUSH2 0x2AE7 JUMPI PUSH1 0x40 MLOAD DUP1 PUSH1 0x40 ADD PUSH1 0x40 MSTORE DUP1 PUSH1 0x1B DUP2 MSTORE PUSH1 0x20 ADD PUSH32 0x4E65766572206D6973736564206120636F6E747269627574696F6E0000000000 DUP2 MSTORE POP SWAP2 POP POP PUSH2 0x2D7F JUMP JUMPDEST PUSH32 0x17ADCCFBF6E04B3E995CA25CA6F24D735C9582D0B4DF26EA0CADB28C67B20879 DUP2 SUB PUSH2 0x2B4C JUMPI PUSH1 0x40 MLOAD DUP1 PUSH1 0x40 ADD PUSH1 0x40 MSTORE DUP1 PUSH1 0x19 DUP2 MSTORE PUSH1 0x20 ADD PUSH32 0x496E7669746564203320667269656E647320746F206A6F696E00000000000000 DUP2 MSTORE POP SWAP2 POP POP PUSH2 0x2D7F JUMP JUMPDEST PUSH32 0xB593DE05E1F7C32BDF270B509901A2E646B5ECF28A2B92CF5CC27FD0E5F9B6EF DUP2 SUB PUSH2 0x2BB1 JUMPI PUSH1 0x40 MLOAD DUP1 PUSH1 0x40 ADD PUSH1 0x40 MSTORE DUP1 PUSH1 0x1A DUP2 MSTORE PUSH1 0x20 ADD PUSH32 0x496E766974656420313020667269656E647320746F206A6F696E000000000000 DUP2 MSTORE POP SWAP2 POP POP PUSH2 0x2D7F JUMP JUMPDEST PUSH32 0xFD145C518A66ACB9507BFF5117FE28D0F32D8E354EF4985AA9F1B5EE396778AE DUP2 SUB PUSH2 0x2C16 JUMPI PUSH1 0x40 MLOAD DUP1 PUSH1 0x40 ADD PUSH1 0x40 MSTORE DUP1 PUSH1 0x1B DUP2 MSTORE PUSH1 0x20 ADD PUSH32 0x496E76697465642032352B20667269656E647320746F206A6F696E0000000000 DUP2 MSTORE POP SWAP2 POP POP PUSH2 0x2D7F JUMP JUMPDEST PUSH32 0x8F8053B13B1F22F4796B8C42B5F8A18EC27E9AECECF5AC25D15F1AB2C6B2CD20 DUP2 SUB PUSH2 0x2C7B JUMPI PUSH1 0x40 MLOAD DUP1 PUSH1 0x40 ADD PUSH1 0x40 MSTORE DUP1 PUSH1 0x1C DUP2 MSTORE PUSH1 0x20 ADD PUSH32 0x53656E7420796F757220666972737420503250207472616E7366657200000000 DUP2 MSTORE POP SWAP2 POP POP PUSH2 0x2D7F JUMP JUMPDEST PUSH32 0x39C1A46344CAB3EB38F32FBC5C4C705D79D172521355B97CFFFDDD54A22A691C DUP2 SUB PUSH2 0x2CE0 JUMPI PUSH1 0x40 MLOAD DUP1 PUSH1 0x40 ADD PUSH1 0x40 MSTORE DUP1 PUSH1 0x14 DUP2 MSTORE PUSH1 0x20 ADD PUSH32 0x53656E7420352072656420656E76656C6F706573000000000000000000000000 DUP2 MSTORE POP SWAP2 POP POP PUSH2 0x2D7F JUMP JUMPDEST PUSH32 0x37D1D0B8CFCCDAE8D03F6142B310D063D6721D6892C4E0D6FB105D6A9525C23 DUP2 SUB PUSH2 0x2D45 JUMPI PUSH1 0x40 MLOAD DUP1 PUSH1 0x40 ADD PUSH1 0x40 MSTORE DUP1 PUSH1 0x16 DUP2 MSTORE PUSH1 0x20 ADD PUSH32 0x53656E742032302B2072656420656E76656C6F70657300000000000000000000 DUP2 MSTORE POP SWAP2 POP POP PUSH2 0x2D7F JUMP JUMPDEST PUSH1 0x40 MLOAD DUP1 PUSH1 0x40 ADD PUSH1 0x40 MSTORE DUP1 PUSH1 0x1C DUP2 MSTORE PUSH1 0x20 ADD PUSH32 0x5370656369616C20616368696576656D656E7420756E6C6F636B656400000000 DUP2 MSTORE POP SWAP2 POP POP JUMPDEST SWAP2 SWAP1 POP JUMP JUMPDEST PUSH2 0x2D8C PUSH2 0x1158 JUMP JUMPDEST PUSH2 0x2DCB JUMPI PUSH1 0x40 MLOAD PUSH32 0x8C379A000000000000000000000000000000000000000000000000000000000 DUP2 MSTORE PUSH1 0x4 ADD PUSH2 0x2DC2 SWAP1 PUSH2 0x3F3B JUMP JUMPDEST PUSH1 0x40 MLOAD DUP1 SWAP2 SUB SWAP1 REVERT JUMPDEST JUMP JUMPDEST PUSH1 0x40 MLOAD DUP1 PUSH1 0xA0 ADD PUSH1 0x40 MSTORE DUP1 PUSH0 PUSH20 0xFFFFFFFFFFFFFFFFFFFFFFFFFFFFFFFFFFFFFFFF AND DUP2 MSTORE PUSH1 0x20 ADD PUSH1 0x60 DUP2 MSTORE PUSH1 0x20 ADD PUSH0 DUP2 MSTORE PUSH1 0x20 ADD PUSH0 DUP2 MSTORE PUSH1 0x20 ADD PUSH0 ISZERO ISZERO DUP2 MSTORE POP SWAP1 JUMP JUMPDEST PUSH0 PUSH1 0x40 MLOAD SWAP1 POP SWAP1 JUMP JUMPDEST PUSH0 PUSH0 REVERT JUMPDEST PUSH0 PUSH0 REVERT JUMPDEST PUSH0 PUSH0 REVERT JUMPDEST PUSH0 PUSH0 REVERT JUMPDEST PUSH0 PUSH1 0x1F NOT PUSH1 0x1F DUP4 ADD AND SWAP1 POP SWAP2 SWAP1 POP JUMP JUMPDEST PUSH32 0x4E487B7100000000000000000000000000000000000000000000000000000000 PUSH0 MSTORE PUSH1 0x41 PUSH1 0x4 MSTORE PUSH1 0x24 PUSH0 REVERT JUMPDEST PUSH2 0x2E6F DUP3 PUSH2 0x2E29 JUMP JUMPDEST DUP2 ADD DUP2 DUP2 LT PUSH8 0xFFFFFFFFFFFFFFFF DUP3 GT OR ISZERO PUSH2 0x2E8E JUMPI PUSH2 0x2E8D PUSH2 0x2E39 JUMP JUMPDEST JUMPDEST DUP1 PUSH1 0x40 MSTORE POP POP POP JUMP JUMPDEST PUSH0 PUSH2 0x2EA0 PUSH2 0x2E10 JUMP JUMPDEST SWAP1 POP PUSH2 0x2EAC DUP3 DUP3 PUSH2 0x2E66 JUMP JUMPDEST SWAP2 SWAP1 POP JUMP JUMPDEST PUSH0 PUSH8 0xFFFFFFFFFFFFFFFF DUP3 GT ISZERO PUSH2 0x2ECB JUMPI PUSH2 0x2ECA PUSH2 0x2E39 JUMP JUMPDEST JUMPDEST PUSH2 0x2ED4 DUP3 PUSH2 0x2E29 JUMP JUMPDEST SWAP1 POP PUSH1 0x20 DUP2 ADD SWAP1 POP SWAP2 SWAP1 POP JUMP JUMPDEST DUP3 DUP2 DUP4 CALLDATACOPY PUSH0 DUP4 DUP4 ADD MSTORE POP POP POP JUMP JUMPDEST PUSH0 PUSH2 0x2F01 PUSH2 0x2EFC DUP5 PUSH2 0x2EB1 JUMP JUMPDEST PUSH2 0x2E97 JUMP JUMPDEST SWAP1 POP DUP3 DUP2 MSTORE PUSH1 0x20 DUP2 ADD DUP5 DUP5 DUP5 ADD GT ISZERO PUSH2 0x2F1D JUMPI PUSH2 0x2F1C PUSH2 0x2E25 JUMP JUMPDEST JUMPDEST PUSH2 0x2F28 DUP5 DUP3 DUP6 PUSH2 0x2EE1 JUMP JUMPDEST POP SWAP4 SWAP3 POP POP POP JUMP JUMPDEST PUSH0 DUP3 PUSH1 0x1F DUP4 ADD SLT PUSH2 0x2F44 JUMPI PUSH2 0x2F43 PUSH2 0x2E21 JUMP JUMPDEST JUMPDEST DUP2 CALLDATALOAD PUSH2 0x2F54 DUP5 DUP3 PUSH1 0x20 DUP7 ADD PUSH2 0x2EEF JUMP JUMPDEST SWAP2 POP POP SWAP3 SWAP2 POP POP JUMP JUMPDEST PUSH0 PUSH1 0x20 DUP3 DUP5 SUB SLT ISZERO PUSH2 0x2F72 JUMPI PUSH2 0x2F71 PUSH2 0x2E19 JUMP JUMPDEST JUMPDEST PUSH0 DUP3 ADD CALLDATALOAD PUSH8 0xFFFFFFFFFFFFFFFF DUP2 GT ISZERO PUSH2 0x2F8F JUMPI PUSH2 0x2F8E PUSH2 0x2E1D JUMP JUMPDEST JUMPDEST PUSH2 0x2F9B DUP5 DUP3 DUP6 ADD PUSH2 0x2F30 JUMP JUMPDEST SWAP2 POP POP SWAP3 SWAP2 POP POP JUMP JUMPDEST PUSH0 PUSH32 0xFFFFFFFF00000000000000000000000000000000000000000000000000000000 DUP3 AND SWAP1 POP SWAP2 SWAP1 POP JUMP JUMPDEST PUSH2 0x2FD8 DUP2 PUSH2 0x2FA4 JUMP JUMPDEST DUP2 EQ PUSH2 0x2FE2 JUMPI PUSH0 PUSH0 REVERT JUMPDEST POP JUMP JUMPDEST PUSH0 DUP2 CALLDATALOAD SWAP1 POP PUSH2 0x2FF3 DUP2 PUSH2 0x2FCF JUMP JUMPDEST SWAP3 SWAP2 POP POP JUMP JUMPDEST PUSH0 PUSH1 0x20 DUP3 DUP5 SUB SLT ISZERO PUSH2 0x300E JUMPI PUSH2 0x300D PUSH2 0x2E19 JUMP JUMPDEST JUMPDEST PUSH0 PUSH2 0x301B DUP5 DUP3 DUP6 ADD PUSH2 0x2FE5 JUMP JUMPDEST SWAP2 POP POP SWAP3 SWAP2 POP POP JUMP JUMPDEST PUSH0 DUP2 ISZERO ISZERO SWAP1 POP SWAP2 SWAP1 POP JUMP JUMPDEST PUSH2 0x3038 DUP2 PUSH2 0x3024 JUMP JUMPDEST DUP3 MSTORE POP POP JUMP JUMPDEST PUSH0 PUSH1 0x20 DUP3 ADD SWAP1 POP PUSH2 0x3051 PUSH0 DUP4 ADD DUP5 PUSH2 0x302F JUMP JUMPDEST SWAP3 SWAP2 POP POP JUMP JUMPDEST PUSH0 DUP2 SWAP1 POP SWAP2 SWAP1 POP JUMP JUMPDEST PUSH2 0x3069 DUP2 PUSH2 0x3057 JUMP JUMPDEST DUP2 EQ PUSH2 0x3073 JUMPI PUSH0 PUSH0 REVERT JUMPDEST POP JUMP JUMPDEST PUSH0 DUP2 CALLDATALOAD SWAP1 POP PUSH2 0x3084 DUP2 PUSH2 0x3060 JUMP JUMPDEST SWAP3 SWAP2 POP POP JUMP JUMPDEST PUSH0 PUSH0 PUSH1 0x40 DUP4 DUP6 SUB SLT ISZERO PUSH2 0x30A0 JUMPI PUSH2 0x309F PUSH2 0x2E19 JUMP JUMPDEST JUMPDEST PUSH0 DUP4 ADD CALLDATALOAD PUSH8 0xFFFFFFFFFFFFFFFF DUP2 GT ISZERO PUSH2 0x30BD JUMPI PUSH2 0x30BC PUSH2 0x2E1D JUMP JUMPDEST JUMPDEST PUSH2 0x30C9 DUP6 DUP3 DUP7 ADD PUSH2 0x2F30 JUMP JUMPDEST SWAP3 POP POP PUSH1 0x20 PUSH2 0x30DA DUP6 DUP3 DUP7 ADD PUSH2 0x3076 JUMP JUMPDEST SWAP2 POP POP SWAP3 POP SWAP3 SWAP1 POP JUMP JUMPDEST PUSH0 PUSH20 0xFFFFFFFFFFFFFFFFFFFFFFFFFFFFFFFFFFFFFFFF DUP3 AND SWAP1 POP SWAP2 SWAP1 POP JUMP JUMPDEST PUSH0 PUSH2 0x310D DUP3 PUSH2 0x30E4 JUMP JUMPDEST SWAP1 POP SWAP2 SWAP1 POP JUMP JUMPDEST PUSH2 0x311D DUP2 PUSH2 0x3103 JUMP JUMPDEST DUP2 EQ PUSH2 0x3127 JUMPI PUSH0 PUSH0 REVERT JUMPDEST POP JUMP JUMPDEST PUSH0 DUP2 CALLDATALOAD SWAP1 POP PUSH2 0x3138 DUP2 PUSH2 0x3114 JUMP JUMPDEST SWAP3 SWAP2 POP POP JUMP JUMPDEST PUSH0 PUSH0 PUSH1 0x40 DUP4 DUP6 SUB SLT ISZERO PUSH2 0x3154 JUMPI PUSH2 0x3153 PUSH2 0x2E19 JUMP JUMPDEST JUMPDEST PUSH0 PUSH2 0x3161 DUP6 DUP3 DUP7 ADD PUSH2 0x312A JUMP JUMPDEST SWAP3 POP POP PUSH1 0x20 DUP4 ADD CALLDATALOAD PUSH8 0xFFFFFFFFFFFFFFFF DUP2 GT ISZERO PUSH2 0x3182 JUMPI PUSH2 0x3181 PUSH2 0x2E1D JUMP JUMPDEST JUMPDEST PUSH2 0x318E DUP6 DUP3 DUP7 ADD PUSH2 0x2F30 JUMP JUMPDEST SWAP2 POP POP SWAP3 POP SWAP3 SWAP1 POP JUMP JUMPDEST PUSH0 DUP2 SWAP1 POP SWAP2 SWAP1 POP JUMP JUMPDEST PUSH2 0x31AA DUP2 PUSH2 0x3198 JUMP JUMPDEST DUP2 EQ PUSH2 0x31B4 JUMPI PUSH0 PUSH0 REVERT JUMPDEST POP JUMP JUMPDEST PUSH0 DUP2 CALLDATALOAD SWAP1 POP PUSH2 0x31C5 DUP2 PUSH2 0x31A1 JUMP JUMPDEST SWAP3 SWAP2 POP POP JUMP JUMPDEST PUSH0 PUSH1 0x20 DUP3 DUP5 SUB SLT ISZERO PUSH2 0x31E0 JUMPI PUSH2 0x31DF PUSH2 0x2E19 JUMP JUMPDEST JUMPDEST PUSH0 PUSH2 0x31ED DUP5 DUP3 DUP6 ADD PUSH2 0x31B7 JUMP JUMPDEST SWAP2 POP POP SWAP3 SWAP2 POP POP JUMP JUMPDEST PUSH2 0x31FF DUP2 PUSH2 0x3198 JUMP JUMPDEST DUP3 MSTORE POP POP JUMP JUMPDEST PUSH0 PUSH1 0x20 DUP3 ADD SWAP1 POP PUSH2 0x3218 PUSH0 DUP4 ADD DUP5 PUSH2 0x31F6 JUMP JUMPDEST SWAP3 SWAP2 POP POP JUMP JUMPDEST PUSH0 PUSH1 0x20 DUP3 DUP5 SUB SLT ISZERO PUSH2 0x3233 JUMPI PUSH2 0x3232 PUSH2 0x2E19 JUMP JUMPDEST JUMPDEST PUSH0 PUSH2 0x3240 DUP5 DUP3 DUP6 ADD PUSH2 0x312A JUMP JUMPDEST SWAP2 POP POP SWAP3 SWAP2 POP POP JUMP JUMPDEST PUSH2 0x3252 DUP2 PUSH2 0x3057 JUMP JUMPDEST DUP3 MSTORE POP POP JUMP JUMPDEST PUSH0 PUSH1 0x20 DUP3 ADD SWAP1 POP PUSH2 0x326B PUSH0 DUP4 ADD DUP5 PUSH2 0x3249 JUMP JUMPDEST SWAP3 SWAP2 POP POP JUMP JUMPDEST PUSH0 PUSH0 PUSH1 0x40 DUP4 DUP6 SUB SLT ISZERO PUSH2 0x3287 JUMPI PUSH2 0x3286 PUSH2 0x2E19 JUMP JUMPDEST JUMPDEST PUSH0 PUSH2 0x3294 DUP6 DUP3 DUP7 ADD PUSH2 0x31B7 JUMP JUMPDEST SWAP3 POP POP PUSH1 0x20 PUSH2 0x32A5 DUP6 DUP3 DUP7 ADD PUSH2 0x312A JUMP JUMPDEST SWAP2 POP POP SWAP3 POP SWAP3 SWAP1 POP JUMP JUMPDEST PUSH0 DUP2 MLOAD SWAP1 POP SWAP2 SWAP1 POP JUMP JUMPDEST PUSH0 DUP3 DUP3 MSTORE PUSH1 0x20 DUP3 ADD SWAP1 POP SWAP3 SWAP2 POP POP JUMP JUMPDEST PUSH0 DUP2 SWAP1 POP PUSH1 0x20 DUP3 ADD SWAP1 POP SWAP2 SWAP1 POP JUMP JUMPDEST PUSH2 0x32E1 DUP2 PUSH2 0x3103 JUMP JUMPDEST DUP3 MSTORE POP POP JUMP JUMPDEST PUSH0 PUSH2 0x32F2 DUP4 DUP4 PUSH2 0x32D8 JUMP JUMPDEST PUSH1 0x20 DUP4 ADD SWAP1 POP SWAP3 SWAP2 POP POP JUMP JUMPDEST PUSH0 PUSH1 0x20 DUP3 ADD SWAP1 POP SWAP2 SWAP1 POP JUMP JUMPDEST PUSH0 PUSH2 0x3314 DUP3 PUSH2 0x32AF JUMP JUMPDEST PUSH2 0x331E DUP2 DUP6 PUSH2 0x32B9 JUMP JUMPDEST SWAP4 POP PUSH2 0x3329 DUP4 PUSH2 0x32C9 JUMP JUMPDEST DUP1 PUSH0 JUMPDEST DUP4 DUP2 LT ISZERO PUSH2 0x3359 JUMPI DUP2 MLOAD PUSH2 0x3340 DUP9 DUP3 PUSH2 0x32E7 JUMP JUMPDEST SWAP8 POP PUSH2 0x334B DUP4 PUSH2 0x32FE JUMP JUMPDEST SWAP3 POP POP PUSH1 0x1 DUP2 ADD SWAP1 POP PUSH2 0x332C JUMP JUMPDEST POP DUP6 SWAP4 POP POP POP POP SWAP3 SWAP2 POP POP JUMP JUMPDEST PUSH0 PUSH1 0x20 DUP3 ADD SWAP1 POP DUP2 DUP2 SUB PUSH0 DUP4 ADD MSTORE PUSH2 0x337E DUP2 DUP5 PUSH2 0x330A JUMP JUMPDEST SWAP1 POP SWAP3 SWAP2 POP POP JUMP JUMPDEST PUSH0 PUSH0 PUSH0 PUSH1 0x60 DUP5 DUP7 SUB SLT ISZERO PUSH2 0x339D JUMPI PUSH2 0x339C PUSH2 0x2E19 JUMP JUMPDEST JUMPDEST PUSH0 PUSH2 0x33AA DUP7 DUP3 DUP8 ADD PUSH2 0x312A JUMP JUMPDEST SWAP4 POP POP PUSH1 0x20 PUSH2 0x33BB DUP7 DUP3 DUP8 ADD PUSH2 0x3076 JUMP JUMPDEST SWAP3 POP POP PUSH1 0x40 DUP5 ADD CALLDATALOAD PUSH8 0xFFFFFFFFFFFFFFFF DUP2 GT ISZERO PUSH2 0x33DC JUMPI PUSH2 0x33DB PUSH2 0x2E1D JUMP JUMPDEST JUMPDEST PUSH2 0x33E8 DUP7 DUP3 DUP8 ADD PUSH2 0x2F30 JUMP JUMPDEST SWAP2 POP POP SWAP3 POP SWAP3 POP SWAP3 JUMP JUMPDEST PUSH2 0x33FB DUP2 PUSH2 0x3103 JUMP JUMPDEST DUP3 MSTORE POP POP JUMP JUMPDEST PUSH0 PUSH1 0x20 DUP3 ADD SWAP1 POP PUSH2 0x3414 PUSH0 DUP4 ADD DUP5 PUSH2 0x33F2 JUMP JUMPDEST SWAP3 SWAP2 POP POP JUMP JUMPDEST PUSH0 DUP2 MLOAD SWAP1 POP SWAP2 SWAP1 POP JUMP JUMPDEST PUSH0 DUP3 DUP3 MSTORE PUSH1 0x20 DUP3 ADD SWAP1 POP SWAP3 SWAP2 POP POP JUMP JUMPDEST DUP3 DUP2 DUP4 MCOPY PUSH0 DUP4 DUP4 ADD MSTORE POP POP POP JUMP JUMPDEST PUSH0 PUSH2 0x344C DUP3 PUSH2 0x341A JUMP JUMPDEST PUSH2 0x3456 DUP2 DUP6 PUSH2 0x3424 JUMP JUMPDEST SWAP4 POP PUSH2 0x3466 DUP2 DUP6 PUSH1 0x20 DUP7 ADD PUSH2 0x3434 JUMP JUMPDEST PUSH2 0x346F DUP2 PUSH2 0x2E29 JUMP JUMPDEST DUP5 ADD SWAP2 POP POP SWAP3 SWAP2 POP POP JUMP JUMPDEST PUSH2 0x3483 DUP2 PUSH2 0x3198 JUMP JUMPDEST DUP3 MSTORE POP POP JUMP JUMPDEST PUSH2 0x3492 DUP2 PUSH2 0x3057 JUMP JUMPDEST DUP3 MSTORE POP POP JUMP JUMPDEST PUSH2 0x34A1 DUP2 PUSH2 0x3024 JUMP JUMPDEST DUP3 MSTORE POP POP JUMP JUMPDEST PUSH0 PUSH1 0xA0 DUP4 ADD PUSH0 DUP4 ADD MLOAD PUSH2 0x34BC PUSH0 DUP7 ADD DUP3 PUSH2 0x32D8 JUMP JUMPDEST POP PUSH1 0x20 DUP4 ADD MLOAD DUP5 DUP3 SUB PUSH1 0x20 DUP7 ADD MSTORE PUSH2 0x34D4 DUP3 DUP3 PUSH2 0x3442 JUMP JUMPDEST SWAP2 POP POP PUSH1 0x40 DUP4 ADD MLOAD PUSH2 0x34E9 PUSH1 0x40 DUP7 ADD DUP3 PUSH2 0x347A JUMP JUMPDEST POP PUSH1 0x60 DUP4 ADD MLOAD PUSH2 0x34FC PUSH1 0x60 DUP7 ADD DUP3 PUSH2 0x3489 JUMP JUMPDEST POP PUSH1 0x80 DUP4 ADD MLOAD PUSH2 0x350F PUSH1 0x80 DUP7 ADD DUP3 PUSH2 0x3498 JUMP JUMPDEST POP DUP1 SWAP2 POP POP SWAP3 SWAP2 POP POP JUMP JUMPDEST PUSH0 PUSH1 0x20 DUP3 ADD SWAP1 POP DUP2 DUP2 SUB PUSH0 DUP4 ADD MSTORE PUSH2 0x3532 DUP2 DUP5 PUSH2 0x34A7 JUMP JUMPDEST SWAP1 POP SWAP3 SWAP2 POP POP JUMP JUMPDEST PUSH0 PUSH0 PUSH1 0x40 DUP4 DUP6 SUB SLT ISZERO PUSH2 0x3550 JUMPI PUSH2 0x354F PUSH2 0x2E19 JUMP JUMPDEST JUMPDEST PUSH0 DUP4 ADD CALLDATALOAD PUSH8 0xFFFFFFFFFFFFFFFF DUP2 GT ISZERO PUSH2 0x356D JUMPI PUSH2 0x356C PUSH2 0x2E1D JUMP JUMPDEST JUMPDEST PUSH2 0x3579 DUP6 DUP3 DUP7 ADD PUSH2 0x2F30 JUMP JUMPDEST SWAP3 POP POP PUSH1 0x20 PUSH2 0x358A DUP6 DUP3 DUP7 ADD PUSH2 0x31B7 JUMP JUMPDEST SWAP2 POP POP SWAP3 POP SWAP3 SWAP1 POP JUMP JUMPDEST PUSH0 DUP3 DUP3 MSTORE PUSH1 0x20 DUP3 ADD SWAP1 POP SWAP3 SWAP2 POP POP JUMP JUMPDEST PUSH0 PUSH2 0x35AE DUP3 PUSH2 0x341A JUMP JUMPDEST PUSH2 0x35B8 DUP2 DUP6 PUSH2 0x3594 JUMP JUMPDEST SWAP4 POP PUSH2 0x35C8 DUP2 DUP6 PUSH1 0x20 DUP7 ADD PUSH2 0x3434 JUMP JUMPDEST PUSH2 0x35D1 DUP2 PUSH2 0x2E29 JUMP JUMPDEST DUP5 ADD SWAP2 POP POP SWAP3 SWAP2 POP POP JUMP JUMPDEST PUSH0 PUSH1 0xA0 DUP3 ADD SWAP1 POP PUSH2 0x35EF PUSH0 DUP4 ADD DUP9 PUSH2 0x33F2 JUMP JUMPDEST DUP2 DUP2 SUB PUSH1 0x20 DUP4 ADD MSTORE PUSH2 0x3601 DUP2 DUP8 PUSH2 0x35A4 JUMP JUMPDEST SWAP1 POP PUSH2 0x3610 PUSH1 0x40 DUP4 ADD DUP7 PUSH2 0x31F6 JUMP JUMPDEST PUSH2 0x361D PUSH1 0x60 DUP4 ADD DUP6 PUSH2 0x3249 JUMP JUMPDEST PUSH2 0x362A PUSH1 0x80 DUP4 ADD DUP5 PUSH2 0x302F JUMP JUMPDEST SWAP7 SWAP6 POP POP POP POP POP POP JUMP JUMPDEST PUSH0 PUSH0 PUSH1 0x40 DUP4 DUP6 SUB SLT ISZERO PUSH2 0x364A JUMPI PUSH2 0x3649 PUSH2 0x2E19 JUMP JUMPDEST JUMPDEST PUSH0 PUSH2 0x3657 DUP6 DUP3 DUP7 ADD PUSH2 0x312A JUMP JUMPDEST SWAP3 POP POP PUSH1 0x20 PUSH2 0x3668 DUP6 DUP3 DUP7 ADD PUSH2 0x3076 JUMP JUMPDEST SWAP2 POP POP SWAP3 POP SWAP3 SWAP1 POP JUMP JUMPDEST PUSH0 PUSH1 0x80 DUP3 ADD SWAP1 POP DUP2 DUP2 SUB PUSH0 DUP4 ADD MSTORE PUSH2 0x368A DUP2 DUP8 PUSH2 0x35A4 JUMP JUMPDEST SWAP1 POP DUP2 DUP2 SUB PUSH1 0x20 DUP4 ADD MSTORE PUSH2 0x369E DUP2 DUP7 PUSH2 0x35A4 JUMP JUMPDEST SWAP1 POP PUSH2 0x36AD PUSH1 0x40 DUP4 ADD DUP6 PUSH2 0x3249 JUMP JUMPDEST PUSH2 0x36BA PUSH1 0x60 DUP4 ADD DUP5 PUSH2 0x3249 JUMP JUMPDEST SWAP6 SWAP5 POP POP POP POP POP JUMP JUMPDEST PUSH0 DUP2 MLOAD SWAP1 POP SWAP2 SWAP1 POP JUMP JUMPDEST PUSH0 DUP3 DUP3 MSTORE PUSH1 0x20 DUP3 ADD SWAP1 POP SWAP3 SWAP2 POP POP JUMP JUMPDEST PUSH0 DUP2 SWAP1 POP PUSH1 0x20 DUP3 ADD SWAP1 POP SWAP2 SWAP1 POP JUMP JUMPDEST PUSH0 PUSH1 0x80 DUP4 ADD PUSH0 DUP4 ADD MLOAD DUP5 DUP3 SUB PUSH0 DUP7 ADD MSTORE PUSH2 0x3706 DUP3 DUP3 PUSH2 0x3442 JUMP JUMPDEST SWAP2 POP POP PUSH1 0x20 DUP4 ADD MLOAD DUP5 DUP3 SUB PUSH1 0x20 DUP7 ADD MSTORE PUSH2 0x3720 DUP3 DUP3 PUSH2 0x3442 JUMP JUMPDEST SWAP2 POP POP PUSH1 0x40 DUP4 ADD MLOAD PUSH2 0x3735 PUSH1 0x40 DUP7 ADD DUP3 PUSH2 0x3489 JUMP JUMPDEST POP PUSH1 0x60 DUP4 ADD MLOAD PUSH2 0x3748 PUSH1 0x60 DUP7 ADD DUP3 PUSH2 0x3489 JUMP JUMPDEST POP DUP1 SWAP2 POP POP SWAP3 SWAP2 POP POP JUMP JUMPDEST PUSH0 PUSH2 0x375E DUP4 DUP4 PUSH2 0x36EC JUMP JUMPDEST SWAP1 POP SWAP3 SWAP2 POP POP JUMP JUMPDEST PUSH0 PUSH1 0x20 DUP3 ADD SWAP1 POP SWAP2 SWAP1 POP JUMP JUMPDEST PUSH0 PUSH2 0x377C DUP3 PUSH2 0x36C3 JUMP JUMPDEST PUSH2 0x3786 DUP2 DUP6 PUSH2 0x36CD JUMP JUMPDEST SWAP4 POP DUP4 PUSH1 0x20 DUP3 MUL DUP6 ADD PUSH2 0x3798 DUP6 PUSH2 0x36DD JUMP JUMPDEST DUP1 PUSH0 JUMPDEST DUP6 DUP2 LT ISZERO PUSH2 0x37D3 JUMPI DUP5 DUP5 SUB DUP10 MSTORE DUP2 MLOAD PUSH2 0x37B4 DUP6 DUP3 PUSH2 0x3753 JUMP JUMPDEST SWAP5 POP PUSH2 0x37BF DUP4 PUSH2 0x3766 JUMP JUMPDEST SWAP3 POP PUSH1 0x20 DUP11 ADD SWAP10 POP POP PUSH1 0x1 DUP2 ADD SWAP1 POP PUSH2 0x379B JUMP JUMPDEST POP DUP3 SWAP8 POP DUP8 SWAP6 POP POP POP POP POP POP SWAP3 SWAP2 POP POP JUMP JUMPDEST PUSH0 PUSH1 0x20 DUP3 ADD SWAP1 POP DUP2 DUP2 SUB PUSH0 DUP4 ADD MSTORE PUSH2 0x37FD DUP2 DUP5 PUSH2 0x3772 JUMP JUMPDEST SWAP1 POP SWAP3 SWAP2 POP POP JUMP JUMPDEST PUSH32 0x4E487B7100000000000000000000000000000000000000000000000000000000 PUSH0 MSTORE PUSH1 0x22 PUSH1 0x4 MSTORE PUSH1 0x24 PUSH0 REVERT JUMPDEST PUSH0 PUSH1 0x2 DUP3 DIV SWAP1 POP PUSH1 0x1 DUP3 AND DUP1 PUSH2 0x3849 JUMPI PUSH1 0x7F DUP3 AND SWAP2 POP JUMPDEST PUSH1 0x20 DUP3 LT DUP2 SUB PUSH2 0x385C JUMPI PUSH2 0x385B PUSH2 0x3805 JUMP JUMPDEST JUMPDEST POP SWAP2 SWAP1 POP JUMP JUMPDEST PUSH0 DUP2 SWAP1 POP DUP2 PUSH0 MSTORE PUSH1 0x20 PUSH0 KECCAK256 SWAP1 POP SWAP2 SWAP1 POP JUMP JUMPDEST PUSH0 PUSH1 0x20 PUSH1 0x1F DUP4 ADD DIV SWAP1 POP SWAP2 SWAP1 POP JUMP JUMPDEST PUSH0 DUP3 DUP3 SHL SWAP1 POP SWAP3 SWAP2 POP POP JUMP JUMPDEST PUSH0 PUSH1 0x8 DUP4 MUL PUSH2 0x38BE PUSH32 0xFFFFFFFFFFFFFFFFFFFFFFFFFFFFFFFFFFFFFFFFFFFFFFFFFFFFFFFFFFFFFFFF DUP3 PUSH2 0x3883 JUMP JUMPDEST PUSH2 0x38C8 DUP7 DUP4 PUSH2 0x3883 JUMP JUMPDEST SWAP6 POP DUP1 NOT DUP5 AND SWAP4 POP DUP1 DUP7 AND DUP5 OR SWAP3 POP POP POP SWAP4 SWAP3 POP POP POP JUMP JUMPDEST PUSH0 DUP2 SWAP1 POP SWAP2 SWAP1 POP JUMP JUMPDEST PUSH0 PUSH2 0x3903 PUSH2 0x38FE PUSH2 0x38F9 DUP5 PUSH2 0x3057 JUMP JUMPDEST PUSH2 0x38E0 JUMP JUMPDEST PUSH2 0x3057 JUMP JUMPDEST SWAP1 POP SWAP2 SWAP1 POP JUMP JUMPDEST PUSH0 DUP2 SWAP1 POP SWAP2 SWAP1 POP JUMP JUMPDEST PUSH2 0x391C DUP4 PUSH2 0x38E9 JUMP JUMPDEST PUSH2 0x3930 PUSH2 0x3928 DUP3 PUSH2 0x390A JUMP JUMPDEST DUP5 DUP5 SLOAD PUSH2 0x388F JUMP JUMPDEST DUP3 SSTORE POP POP POP POP JUMP JUMPDEST PUSH0 PUSH0 SWAP1 POP SWAP1 JUMP JUMPDEST PUSH2 0x3947 PUSH2 0x3938 JUMP JUMPDEST PUSH2 0x3952 DUP2 DUP5 DUP5 PUSH2 0x3913 JUMP JUMPDEST POP POP POP JUMP JUMPDEST JUMPDEST DUP2 DUP2 LT ISZERO PUSH2 0x3975 JUMPI PUSH2 0x396A PUSH0 DUP3 PUSH2 0x393F JUMP JUMPDEST PUSH1 0x1 DUP2 ADD SWAP1 POP PUSH2 0x3958 JUMP JUMPDEST POP POP JUMP JUMPDEST PUSH1 0x1F DUP3 GT ISZERO PUSH2 0x39BA JUMPI PUSH2 0x398B DUP2 PUSH2 0x3862 JUMP JUMPDEST PUSH2 0x3994 DUP5 PUSH2 0x3874 JUMP JUMPDEST DUP2 ADD PUSH1 0x20 DUP6 LT ISZERO PUSH2 0x39A3 JUMPI DUP2 SWAP1 POP JUMPDEST PUSH2 0x39B7 PUSH2 0x39AF DUP6 PUSH2 0x3874 JUMP JUMPDEST DUP4 ADD DUP3 PUSH2 0x3957 JUMP JUMPDEST POP POP JUMPDEST POP POP POP JUMP JUMPDEST PUSH0 DUP3 DUP3 SHR SWAP1 POP SWAP3 SWAP2 POP POP JUMP JUMPDEST PUSH0 PUSH2 0x39DA PUSH0 NOT DUP5 PUSH1 0x8 MUL PUSH2 0x39BF JUMP JUMPDEST NOT DUP1 DUP4 AND SWAP2 POP POP SWAP3 SWAP2 POP POP JUMP JUMPDEST PUSH0 PUSH2 0x39F2 DUP4 DUP4 PUSH2 0x39CB JUMP JUMPDEST SWAP2 POP DUP3 PUSH1 0x2 MUL DUP3 OR SWAP1 POP SWAP3 SWAP2 POP POP JUMP JUMPDEST PUSH2 0x3A0B DUP3 PUSH2 0x341A JUMP JUMPDEST PUSH8 0xFFFFFFFFFFFFFFFF DUP2 GT ISZERO PUSH2 0x3A24 JUMPI PUSH2 0x3A23 PUSH2 0x2E39 JUMP JUMPDEST JUMPDEST PUSH2 0x3A2E DUP3 SLOAD PUSH2 0x3832 JUMP JUMPDEST PUSH2 0x3A39 DUP3 DUP3 DUP6 PUSH2 0x3979 JUMP JUMPDEST PUSH0 PUSH1 0x20 SWAP1 POP PUSH1 0x1F DUP4 GT PUSH1 0x1 DUP2 EQ PUSH2 0x3A6A JUMPI PUSH0 DUP5 ISZERO PUSH2 0x3A58 JUMPI DUP3 DUP8 ADD MLOAD SWAP1 POP JUMPDEST PUSH2 0x3A62 DUP6 DUP3 PUSH2 0x39E7 JUMP JUMPDEST DUP7 SSTORE POP PUSH2 0x3AC9 JUMP JUMPDEST PUSH1 0x1F NOT DUP5 AND PUSH2 0x3A78 DUP7 PUSH2 0x3862 JUMP JUMPDEST PUSH0 JUMPDEST DUP3 DUP2 LT ISZERO PUSH2 0x3A9F JUMPI DUP5 DUP10 ADD MLOAD DUP3 SSTORE PUSH1 0x1 DUP3 ADD SWAP2 POP PUSH1 0x20 DUP6 ADD SWAP5 POP PUSH1 0x20 DUP2 ADD SWAP1 POP PUSH2 0x3A7A JUMP JUMPDEST DUP7 DUP4 LT ISZERO PUSH2 0x3ABC JUMPI DUP5 DUP10 ADD MLOAD PUSH2 0x3AB8 PUSH1 0x1F DUP10 AND DUP3 PUSH2 0x39CB JUMP JUMPDEST DUP4 SSTORE POP JUMPDEST PUSH1 0x1 PUSH1 0x2 DUP9 MUL ADD DUP9 SSTORE POP POP POP JUMPDEST POP POP POP POP POP POP JUMP JUMPDEST PUSH0 PUSH1 0x20 DUP3 ADD SWAP1 POP DUP2 DUP2 SUB PUSH0 DUP4 ADD MSTORE PUSH2 0x3AE9 DUP2 DUP5 PUSH2 0x35A4 JUMP JUMPDEST SWAP1 POP SWAP3 SWAP2 POP POP JUMP JUMPDEST PUSH0 DUP2 SWAP1 POP SWAP3 SWAP2 POP POP JUMP JUMPDEST PUSH0 PUSH2 0x3B05 DUP3 PUSH2 0x341A JUMP JUMPDEST PUSH2 0x3B0F DUP2 DUP6 PUSH2 0x3AF1 JUMP JUMPDEST SWAP4 POP PUSH2 0x3B1F DUP2 DUP6 PUSH1 0x20 DUP7 ADD PUSH2 0x3434 JUMP JUMPDEST DUP1 DUP5 ADD SWAP2 POP POP SWAP3 SWAP2 POP POP JUMP JUMPDEST PUSH0 PUSH2 0x3B36 DUP3 DUP5 PUSH2 0x3AFB JUMP JUMPDEST SWAP2 POP DUP2 SWAP1 POP SWAP3 SWAP2 POP POP JUMP JUMPDEST PUSH32 0x4E487B7100000000000000000000000000000000000000000000000000000000 PUSH0 MSTORE PUSH1 0x11 PUSH1 0x4 MSTORE PUSH1 0x24 PUSH0 REVERT JUMPDEST PUSH0 PUSH2 0x3B78 DUP3 PUSH2 0x3057 JUMP JUMPDEST SWAP2 POP PUSH32 0xFFFFFFFFFFFFFFFFFFFFFFFFFFFFFFFFFFFFFFFFFFFFFFFFFFFFFFFFFFFFFFFF DUP3 SUB PUSH2 0x3BAA JUMPI PUSH2 0x3BA9 PUSH2 0x3B41 JUMP JUMPDEST JUMPDEST PUSH1 0x1 DUP3 ADD SWAP1 POP SWAP2 SWAP1 POP JUMP JUMPDEST PUSH0 DUP2 PUSH1 0x60 SHL SWAP1 POP SWAP2 SWAP1 POP JUMP JUMPDEST PUSH0 PUSH2 0x3BCB DUP3 PUSH2 0x3BB5 JUMP JUMPDEST SWAP1 POP SWAP2 SWAP1 POP JUMP JUMPDEST PUSH0 PUSH2 0x3BDC DUP3 PUSH2 0x3BC1 JUMP JUMPDEST SWAP1 POP SWAP2 SWAP1 POP JUMP JUMPDEST PUSH2 0x3BF4 PUSH2 0x3BEF DUP3 PUSH2 0x3103 JUMP JUMPDEST PUSH2 0x3BD2 JUMP JUMPDEST DUP3 MSTORE POP POP JUMP JUMPDEST PUSH0 DUP2 SWAP1 POP SWAP2 SWAP1 POP JUMP JUMPDEST PUSH2 0x3C14 PUSH2 0x3C0F DUP3 PUSH2 0x3057 JUMP JUMPDEST PUSH2 0x3BFA JUMP JUMPDEST DUP3 MSTORE POP POP JUMP JUMPDEST PUSH0 PUSH2 0x3C25 DUP3 DUP7 PUSH2 0x3BE3 JUMP JUMPDEST PUSH1 0x14 DUP3 ADD SWAP2 POP PUSH2 0x3C35 DUP3 DUP6 PUSH2 0x3C03 JUMP JUMPDEST PUSH1 0x20 DUP3 ADD SWAP2 POP PUSH2 0x3C45 DUP3 DUP5 PUSH2 0x3C03 JUMP JUMPDEST PUSH1 0x20 DUP3 ADD SWAP2 POP DUP2 SWAP1 POP SWAP5 SWAP4 POP POP POP POP JUMP JUMPDEST PUSH0 PUSH2 0x3C60 DUP3 PUSH2 0x3057 JUMP JUMPDEST SWAP2 POP PUSH2 0x3C6B DUP4 PUSH2 0x3057 JUMP JUMPDEST SWAP3 POP DUP3 DUP3 SUB SWAP1 POP DUP2 DUP2 GT ISZERO PUSH2 0x3C83 JUMPI PUSH2 0x3C82 PUSH2 0x3B41 JUMP JUMPDEST JUMPDEST SWAP3 SWAP2 POP POP JUMP JUMPDEST PUSH0 PUSH1 0x40 DUP3 ADD SWAP1 POP PUSH2 0x3C9C PUSH0 DUP4 ADD DUP6 PUSH2 0x3249 JUMP JUMPDEST DUP2 DUP2 SUB PUSH1 0x20 DUP4 ADD MSTORE PUSH2 0x3CAE DUP2 DUP5 PUSH2 0x35A4 JUMP JUMPDEST SWAP1 POP SWAP4 SWAP3 POP POP POP JUMP JUMPDEST PUSH32 0x5061757361626C653A2070617573656400000000000000000000000000000000 PUSH0 DUP3 ADD MSTORE POP JUMP JUMPDEST PUSH0 PUSH2 0x3CEB PUSH1 0x10 DUP4 PUSH2 0x3594 JUMP JUMPDEST SWAP2 POP PUSH2 0x3CF6 DUP3 PUSH2 0x3CB7 JUMP JUMPDEST PUSH1 0x20 DUP3 ADD SWAP1 POP SWAP2 SWAP1 POP JUMP JUMPDEST PUSH0 PUSH1 0x20 DUP3 ADD SWAP1 POP DUP2 DUP2 SUB PUSH0 DUP4 ADD MSTORE PUSH2 0x3D18 DUP2 PUSH2 0x3CDF JUMP JUMPDEST SWAP1 POP SWAP2 SWAP1 POP JUMP JUMPDEST PUSH32 0x4E487B7100000000000000000000000000000000000000000000000000000000 PUSH0 MSTORE PUSH1 0x32 PUSH1 0x4 MSTORE PUSH1 0x24 PUSH0 REVERT JUMPDEST PUSH0 DUP2 SWAP1 POP SWAP3 SWAP2 POP POP JUMP JUMPDEST PUSH0 DUP2 SWAP1 POP DUP2 PUSH0 MSTORE PUSH1 0x20 PUSH0 KECCAK256 SWAP1 POP SWAP2 SWAP1 POP JUMP JUMPDEST PUSH0 DUP2 SLOAD PUSH2 0x3D74 DUP2 PUSH2 0x3832 JUMP JUMPDEST PUSH2 0x3D7E DUP2 DUP7 PUSH2 0x3D4C JUMP JUMPDEST SWAP5 POP PUSH1 0x1 DUP3 AND PUSH0 DUP2 EQ PUSH2 0x3D98 JUMPI PUSH1 0x1 DUP2 EQ PUSH2 0x3DAD JUMPI PUSH2 0x3DDF JUMP JUMPDEST PUSH1 0xFF NOT DUP4 AND DUP7 MSTORE DUP2 ISZERO ISZERO DUP3 MUL DUP7 ADD SWAP4 POP PUSH2 0x3DDF JUMP JUMPDEST PUSH2 0x3DB6 DUP6 PUSH2 0x3D56 JUMP JUMPDEST PUSH0 JUMPDEST DUP4 DUP2 LT ISZERO PUSH2 0x3DD7 JUMPI DUP2 SLOAD DUP2 DUP10 ADD MSTORE PUSH1 0x1 DUP3 ADD SWAP2 POP PUSH1 0x20 DUP2 ADD SWAP1 POP PUSH2 0x3DB8 JUMP JUMPDEST DUP4 DUP9 ADD SWAP6 POP POP POP JUMPDEST POP POP POP SWAP3 SWAP2 POP POP JUMP JUMPDEST PUSH0 PUSH2 0x3DF3 DUP3 DUP5 PUSH2 0x3D68 JUMP JUMPDEST SWAP2 POP DUP2 SWAP1 POP SWAP3 SWAP2 POP POP JUMP JUMPDEST PUSH32 0x416368696576656D656E743A2000000000000000000000000000000000000000 PUSH0 DUP3 ADD MSTORE POP JUMP JUMPDEST PUSH0 PUSH2 0x3E32 PUSH1 0xD DUP4 PUSH2 0x3AF1 JUMP JUMPDEST SWAP2 POP PUSH2 0x3E3D DUP3 PUSH2 0x3DFE JUMP JUMPDEST PUSH1 0xD DUP3 ADD SWAP1 POP SWAP2 SWAP1 POP JUMP JUMPDEST PUSH0 PUSH2 0x3E52 DUP3 PUSH2 0x3E26 JUMP JUMPDEST SWAP2 POP PUSH2 0x3E5E DUP3 DUP5 PUSH2 0x3AFB JUMP JUMPDEST SWAP2 POP DUP2 SWAP1 POP SWAP3 SWAP2 POP POP JUMP JUMPDEST PUSH0 PUSH1 0x40 DUP3 ADD SWAP1 POP DUP2 DUP2 SUB PUSH0 DUP4 ADD MSTORE PUSH2 0x3E81 DUP2 DUP6 PUSH2 0x35A4 JUMP JUMPDEST SWAP1 POP PUSH2 0x3E90 PUSH1 0x20 DUP4 ADD DUP5 PUSH2 0x3249 JUMP JUMPDEST SWAP4 SWAP3 POP POP POP JUMP JUMPDEST PUSH0 PUSH2 0x3EA1 DUP3 PUSH2 0x3057 JUMP JUMPDEST SWAP2 POP PUSH2 0x3EAC DUP4 PUSH2 0x3057 JUMP JUMPDEST SWAP3 POP DUP3 DUP3 ADD SWAP1 POP DUP1 DUP3 GT ISZERO PUSH2 0x3EC4 JUMPI PUSH2 0x3EC3 PUSH2 0x3B41 JUMP JUMPDEST JUMPDEST SWAP3 SWAP2 POP POP JUMP JUMPDEST PUSH0 PUSH1 0x40 DUP3 ADD SWAP1 POP PUSH2 0x3EDD PUSH0 DUP4 ADD DUP6 PUSH2 0x33F2 JUMP JUMPDEST PUSH2 0x3EEA PUSH1 0x20 DUP4 ADD DUP5 PUSH2 0x31F6 JUMP JUMPDEST SWAP4 SWAP3 POP POP POP JUMP JUMPDEST PUSH32 0x5061757361626C653A206E6F7420706175736564000000000000000000000000 PUSH0 DUP3 ADD MSTORE POP JUMP JUMPDEST PUSH0 PUSH2 0x3F25 PUSH1 0x14 DUP4 PUSH2 0x3594 JUMP JUMPDEST SWAP2 POP PUSH2 0x3F30 DUP3 PUSH2 0x3EF1 JUMP JUMPDEST PUSH1 0x20 DUP3 ADD SWAP1 POP SWAP2 SWAP1 POP JUMP JUMPDEST PUSH0 PUSH1 0x20 DUP3 ADD SWAP1 POP DUP2 DUP2 SUB PUSH0 DUP4 ADD MSTORE PUSH2 0x3F52 DUP2 PUSH2 0x3F19 JUMP JUMPDEST SWAP1 POP SWAP2 SWAP1 POP JUMP INVALID MSTORE8 PUSH22 0x636365737366756C6C7920636F6D706C657465642061 KECCAK256 PUSH4 0x68616D61 KECCAK256 PUSH4 0x79636C65 LOG2 PUSH5 0x6970667358 0x22 SLT KECCAK256 SWAP10 0xDA EXTCODESIZE PUSH14 0x4DE5A026040D44AFF8ABA13B007C CHAINID 0x4F RETURNCONTRACT 0x3C 0x22 POP 0x2F 0x1F SWAP3 PUSH17 0xC55D745464736F6C634300081E00330000 "
		},
		"gasEstimates": {
			"creation": {
				"codeDepositCost": "3261400",
				"executionCost": "infinite",
				"totalCost": "infinite"
			},
			"external": {
				"ADMIN_ROLE()": "371",
				"CHAMA_CORE_ROLE()": "458",
				"DEFAULT_ADMIN_ROLE()": "418",
				"acceptInvite(bytes32)": "infinite",
				"achievementPoints(string)": "infinite",
				"achievements(address,uint256)": "infinite",
				"addAchievement(string,uint256)": "infinite",
				"addScore(address,uint256,string)": "infinite",
				"createProfile(string,bytes32)": "infinite",
				"findAddressByInviteHash(bytes32)": "2964",
				"generateInvite(string,bytes32)": "infinite",
				"getAchievementPoints(string)": "infinite",
				"getReferralCount(address)": "2897",
				"getRoleAdmin(bytes32)": "infinite",
				"getUserAchievements(address)": "infinite",
				"getUserInviteHash(address)": "2940",
				"getUserProfile(address)": "infinite",
				"getUserReferrals(address)": "infinite",
				"getUserScore(address)": "2874",
				"grantRole(bytes32,address)": "infinite",
				"hasRole(bytes32,address)": "3255",
				"invitations(address)": "2847",
				"inviteCount(address)": "2936",
				"inviteHashToAddress(bytes32)": "2871",
				"isValidAchievement(string)": "infinite",
				"pause()": "infinite",
				"paused()": "2540",
				"profiles(address)": "infinite",
				"referrals(address,uint256)": "infinite",
				"renounceRole(bytes32,address)": "infinite",
				"revokeRole(bytes32,address)": "infinite",
				"scores(address)": "2870",
				"setChamaCore(address)": "infinite",
				"subtractScore(address,uint256,string)": "infinite",
				"supportsInterface(bytes4)": "786",
				"unlockAchievement(address,string)": "infinite",
				"unpause()": "infinite",
				"updateAchievementPoints(string,uint256)": "infinite",
				"updateProfile(string)": "infinite",
				"validAchievements(string)": "infinite"
			},
			"internal": {
				"_addScore(address,uint256,string memory)": "infinite",
				"_getAchievementDescription(string memory)": "infinite",
				"_initializeAchievements()": "infinite",
				"_unlockAchievement(address,string memory)": "infinite"
			}
		},
		"methodIdentifiers": {
			"ADMIN_ROLE()": "75b238fc",
			"CHAMA_CORE_ROLE()": "ac132d2d",
			"DEFAULT_ADMIN_ROLE()": "a217fddf",
			"acceptInvite(bytes32)": "33b0d363",
			"achievementPoints(string)": "fb6298d5",
			"achievements(address,uint256)": "bf882e73",
			"addAchievement(string,uint256)": "0c860dcc",
			"addScore(address,uint256,string)": "5d03ce80",
			"createProfile(string,bytes32)": "9888a57c",
			"findAddressByInviteHash(bytes32)": "87cf1621",
			"generateInvite(string,bytes32)": "a9c837c9",
			"getAchievementPoints(string)": "41c57372",
			"getReferralCount(address)": "24acbd69",
			"getRoleAdmin(bytes32)": "248a9ca3",
			"getUserAchievements(address)": "f09153c4",
			"getUserInviteHash(address)": "61e092fc",
			"getUserProfile(address)": "987ee156",
			"getUserReferrals(address)": "575cea6b",
			"getUserScore(address)": "b34e0c47",
			"grantRole(bytes32,address)": "2f2ff15d",
			"hasRole(bytes32,address)": "91d14854",
			"invitations(address)": "58f43f76",
			"inviteCount(address)": "57b24e6b",
			"inviteHashToAddress(bytes32)": "dde7fe83",
			"isValidAchievement(string)": "14fc7e4d",
			"pause()": "8456cb59",
			"paused()": "5c975abb",
			"profiles(address)": "bbe15627",
			"referrals(address,uint256)": "e697b5d8",
			"renounceRole(bytes32,address)": "36568abe",
			"revokeRole(bytes32,address)": "d547741f",
			"scores(address)": "76dd110f",
			"setChamaCore(address)": "7300f624",
			"subtractScore(address,uint256,string)": "f5c63a65",
			"supportsInterface(bytes4)": "01ffc9a7",
			"unlockAchievement(address,string)": "16064572",
			"unpause()": "3f4ba83a",
			"updateAchievementPoints(string,uint256)": "c4641dd7",
			"updateProfile(string)": "009299e3",
			"validAchievements(string)": "258219c2"
		}
	},
	"abi": [
		{
			"inputs": [],
			"stateMutability": "nonpayable",
			"type": "constructor"
		},
		{
			"inputs": [],
			"name": "AccessControlBadConfirmation",
			"type": "error"
		},
		{
			"inputs": [
				{
					"internalType": "address",
					"name": "account",
					"type": "address"
				},
				{
					"internalType": "bytes32",
					"name": "neededRole",
					"type": "bytes32"
				}
			],
			"name": "AccessControlUnauthorizedAccount",
			"type": "error"
		},
		{
			"inputs": [],
			"name": "AchievementNotValid",
			"type": "error"
		},
		{
			"inputs": [],
			"name": "InvalidReferrer",
			"type": "error"
		},
		{
			"inputs": [],
			"name": "InviteAlreadyGenerated",
			"type": "error"
		},
		{
			"inputs": [],
			"name": "ProfileAlreadyExists",
			"type": "error"
		},
		{
			"inputs": [],
			"name": "ProfileNotFound",
			"type": "error"
		},
		{
			"inputs": [],
			"name": "UnauthorizedCaller",
			"type": "error"
		},
		{
			"anonymous": false,
			"inputs": [
				{
					"indexed": true,
					"internalType": "address",
					"name": "user",
					"type": "address"
				},
				{
					"indexed": false,
					"internalType": "string",
					"name": "achievement",
					"type": "string"
				},
				{
					"indexed": false,
					"internalType": "uint256",
					"name": "points",
					"type": "uint256"
				}
			],
			"name": "AchievementUnlocked",
			"type": "event"
		},
		{
			"anonymous": false,
			"inputs": [
				{
					"indexed": true,
					"internalType": "address",
					"name": "referrer",
					"type": "address"
				},
				{
					"indexed": true,
					"internalType": "address",
					"name": "newUser",
					"type": "address"
				}
			],
			"name": "InviteAccepted",
			"type": "event"
		},
		{
			"anonymous": false,
			"inputs": [
				{
					"indexed": true,
					"internalType": "address",
					"name": "user",
					"type": "address"
				},
				{
					"indexed": false,
					"internalType": "bytes32",
					"name": "inviteHash",
					"type": "bytes32"
				}
			],
			"name": "InviteGenerated",
			"type": "event"
		},
		{
			"anonymous": false,
			"inputs": [
				{
					"indexed": false,
					"internalType": "address",
					"name": "account",
					"type": "address"
				}
			],
			"name": "Paused",
			"type": "event"
		},
		{
			"anonymous": false,
			"inputs": [
				{
					"indexed": true,
					"internalType": "address",
					"name": "user",
					"type": "address"
				},
				{
					"indexed": false,
					"internalType": "string",
					"name": "username",
					"type": "string"
				}
			],
			"name": "ProfileCreated",
			"type": "event"
		},
		{
			"anonymous": false,
			"inputs": [
				{
					"indexed": true,
					"internalType": "address",
					"name": "user",
					"type": "address"
				},
				{
					"indexed": false,
					"internalType": "string",
					"name": "username",
					"type": "string"
				}
			],
			"name": "ProfileUpdated",
			"type": "event"
		},
		{
			"anonymous": false,
			"inputs": [
				{
					"indexed": true,
					"internalType": "bytes32",
					"name": "role",
					"type": "bytes32"
				},
				{
					"indexed": true,
					"internalType": "bytes32",
					"name": "previousAdminRole",
					"type": "bytes32"
				},
				{
					"indexed": true,
					"internalType": "bytes32",
					"name": "newAdminRole",
					"type": "bytes32"
				}
			],
			"name": "RoleAdminChanged",
			"type": "event"
		},
		{
			"anonymous": false,
			"inputs": [
				{
					"indexed": true,
					"internalType": "bytes32",
					"name": "role",
					"type": "bytes32"
				},
				{
					"indexed": true,
					"internalType": "address",
					"name": "account",
					"type": "address"
				},
				{
					"indexed": true,
					"internalType": "address",
					"name": "sender",
					"type": "address"
				}
			],
			"name": "RoleGranted",
			"type": "event"
		},
		{
			"anonymous": false,
			"inputs": [
				{
					"indexed": true,
					"internalType": "bytes32",
					"name": "role",
					"type": "bytes32"
				},
				{
					"indexed": true,
					"internalType": "address",
					"name": "account",
					"type": "address"
				},
				{
					"indexed": true,
					"internalType": "address",
					"name": "sender",
					"type": "address"
				}
			],
			"name": "RoleRevoked",
			"type": "event"
		},
		{
			"anonymous": false,
			"inputs": [
				{
					"indexed": true,
					"internalType": "address",
					"name": "user",
					"type": "address"
				},
				{
					"indexed": false,
					"internalType": "uint256",
					"name": "newScore",
					"type": "uint256"
				},
				{
					"indexed": false,
					"internalType": "string",
					"name": "reason",
					"type": "string"
				}
			],
			"name": "ScoreUpdated",
			"type": "event"
		},
		{
			"anonymous": false,
			"inputs": [
				{
					"indexed": false,
					"internalType": "address",
					"name": "account",
					"type": "address"
				}
			],
			"name": "Unpaused",
			"type": "event"
		},
		{
			"inputs": [],
			"name": "ADMIN_ROLE",
			"outputs": [
				{
					"internalType": "bytes32",
					"name": "",
					"type": "bytes32"
				}
			],
			"stateMutability": "view",
			"type": "function"
		},
		{
			"inputs": [],
			"name": "CHAMA_CORE_ROLE",
			"outputs": [
				{
					"internalType": "bytes32",
					"name": "",
					"type": "bytes32"
				}
			],
			"stateMutability": "view",
			"type": "function"
		},
		{
			"inputs": [],
			"name": "DEFAULT_ADMIN_ROLE",
			"outputs": [
				{
					"internalType": "bytes32",
					"name": "",
					"type": "bytes32"
				}
			],
			"stateMutability": "view",
			"type": "function"
		},
		{
			"inputs": [
				{
					"internalType": "bytes32",
					"name": "_referrerHash",
					"type": "bytes32"
				}
			],
			"name": "acceptInvite",
			"outputs": [],
			"stateMutability": "nonpayable",
			"type": "function"
		},
		{
			"inputs": [
				{
					"internalType": "string",
					"name": "",
					"type": "string"
				}
			],
			"name": "achievementPoints",
			"outputs": [
				{
					"internalType": "uint256",
					"name": "",
					"type": "uint256"
				}
			],
			"stateMutability": "view",
			"type": "function"
		},
		{
			"inputs": [
				{
					"internalType": "address",
					"name": "",
					"type": "address"
				},
				{
					"internalType": "uint256",
					"name": "",
					"type": "uint256"
				}
			],
			"name": "achievements",
			"outputs": [
				{
					"internalType": "string",
					"name": "name",
					"type": "string"
				},
				{
					"internalType": "string",
					"name": "description",
					"type": "string"
				},
				{
					"internalType": "uint256",
					"name": "points",
					"type": "uint256"
				},
				{
					"internalType": "uint256",
					"name": "unlockedAt",
					"type": "uint256"
				}
			],
			"stateMutability": "view",
			"type": "function"
		},
		{
			"inputs": [
				{
					"internalType": "string",
					"name": "_name",
					"type": "string"
				},
				{
					"internalType": "uint256",
					"name": "_points",
					"type": "uint256"
				}
			],
			"name": "addAchievement",
			"outputs": [],
			"stateMutability": "nonpayable",
			"type": "function"
		},
		{
			"inputs": [
				{
					"internalType": "address",
					"name": "_user",
					"type": "address"
				},
				{
					"internalType": "uint256",
					"name": "_points",
					"type": "uint256"
				},
				{
					"internalType": "string",
					"name": "_reason",
					"type": "string"
				}
			],
			"name": "addScore",
			"outputs": [],
			"stateMutability": "nonpayable",
			"type": "function"
		},
		{
			"inputs": [
				{
					"internalType": "string",
					"name": "_username",
					"type": "string"
				},
				{
					"internalType": "bytes32",
					"name": "_emailHash",
					"type": "bytes32"
				}
			],
			"name": "createProfile",
			"outputs": [],
			"stateMutability": "nonpayable",
			"type": "function"
		},
		{
			"inputs": [
				{
					"internalType": "bytes32",
					"name": "_inviteHash",
					"type": "bytes32"
				}
			],
			"name": "findAddressByInviteHash",
			"outputs": [
				{
					"internalType": "address",
					"name": "",
					"type": "address"
				}
			],
			"stateMutability": "view",
			"type": "function"
		},
		{
			"inputs": [
				{
					"internalType": "string",
					"name": "_username",
					"type": "string"
				},
				{
					"internalType": "bytes32",
					"name": "_emailHash",
					"type": "bytes32"
				}
			],
			"name": "generateInvite",
			"outputs": [],
			"stateMutability": "nonpayable",
			"type": "function"
		},
		{
			"inputs": [
				{
					"internalType": "string",
					"name": "_achievementName",
					"type": "string"
				}
			],
			"name": "getAchievementPoints",
			"outputs": [
				{
					"internalType": "uint256",
					"name": "",
					"type": "uint256"
				}
			],
			"stateMutability": "view",
			"type": "function"
		},
		{
			"inputs": [
				{
					"internalType": "address",
					"name": "_user",
					"type": "address"
				}
			],
			"name": "getReferralCount",
			"outputs": [
				{
					"internalType": "uint256",
					"name": "",
					"type": "uint256"
				}
			],
			"stateMutability": "view",
			"type": "function"
		},
		{
			"inputs": [
				{
					"internalType": "bytes32",
					"name": "role",
					"type": "bytes32"
				}
			],
			"name": "getRoleAdmin",
			"outputs": [
				{
					"internalType": "bytes32",
					"name": "",
					"type": "bytes32"
				}
			],
			"stateMutability": "view",
			"type": "function"
		},
		{
			"inputs": [
				{
					"internalType": "address",
					"name": "_user",
					"type": "address"
				}
			],
			"name": "getUserAchievements",
			"outputs": [
				{
					"components": [
						{
							"internalType": "string",
							"name": "name",
							"type": "string"
						},
						{
							"internalType": "string",
							"name": "description",
							"type": "string"
						},
						{
							"internalType": "uint256",
							"name": "points",
							"type": "uint256"
						},
						{
							"internalType": "uint256",
							"name": "unlockedAt",
							"type": "uint256"
						}
					],
					"internalType": "struct ChamaGamification.Achievement[]",
					"name": "",
					"type": "tuple[]"
				}
			],
			"stateMutability": "view",
			"type": "function"
		},
		{
			"inputs": [
				{
					"internalType": "address",
					"name": "_user",
					"type": "address"
				}
			],
			"name": "getUserInviteHash",
			"outputs": [
				{
					"internalType": "bytes32",
					"name": "",
					"type": "bytes32"
				}
			],
			"stateMutability": "view",
			"type": "function"
		},
		{
			"inputs": [
				{
					"internalType": "address",
					"name": "_user",
					"type": "address"
				}
			],
			"name": "getUserProfile",
			"outputs": [
				{
					"components": [
						{
							"internalType": "address",
							"name": "userAddress",
							"type": "address"
						},
						{
							"internalType": "string",
							"name": "username",
							"type": "string"
						},
						{
							"internalType": "bytes32",
							"name": "emailHash",
							"type": "bytes32"
						},
						{
							"internalType": "uint256",
							"name": "createdAt",
							"type": "uint256"
						},
						{
							"internalType": "bool",
							"name": "isActive",
							"type": "bool"
						}
					],
					"internalType": "struct ChamaGamification.Profile",
					"name": "",
					"type": "tuple"
				}
			],
			"stateMutability": "view",
			"type": "function"
		},
		{
			"inputs": [
				{
					"internalType": "address",
					"name": "_user",
					"type": "address"
				}
			],
			"name": "getUserReferrals",
			"outputs": [
				{
					"internalType": "address[]",
					"name": "",
					"type": "address[]"
				}
			],
			"stateMutability": "view",
			"type": "function"
		},
		{
			"inputs": [
				{
					"internalType": "address",
					"name": "_user",
					"type": "address"
				}
			],
			"name": "getUserScore",
			"outputs": [
				{
					"internalType": "uint256",
					"name": "",
					"type": "uint256"
				}
			],
			"stateMutability": "view",
			"type": "function"
		},
		{
			"inputs": [
				{
					"internalType": "bytes32",
					"name": "role",
					"type": "bytes32"
				},
				{
					"internalType": "address",
					"name": "account",
					"type": "address"
				}
			],
			"name": "grantRole",
			"outputs": [],
			"stateMutability": "nonpayable",
			"type": "function"
		},
		{
			"inputs": [
				{
					"internalType": "bytes32",
					"name": "role",
					"type": "bytes32"
				},
				{
					"internalType": "address",
					"name": "account",
					"type": "address"
				}
			],
			"name": "hasRole",
			"outputs": [
				{
					"internalType": "bool",
					"name": "",
					"type": "bool"
				}
			],
			"stateMutability": "view",
			"type": "function"
		},
		{
			"inputs": [
				{
					"internalType": "address",
					"name": "",
					"type": "address"
				}
			],
			"name": "invitations",
			"outputs": [
				{
					"internalType": "bytes32",
					"name": "",
					"type": "bytes32"
				}
			],
			"stateMutability": "view",
			"type": "function"
		},
		{
			"inputs": [
				{
					"internalType": "address",
					"name": "",
					"type": "address"
				}
			],
			"name": "inviteCount",
			"outputs": [
				{
					"internalType": "uint256",
					"name": "",
					"type": "uint256"
				}
			],
			"stateMutability": "view",
			"type": "function"
		},
		{
			"inputs": [
				{
					"internalType": "bytes32",
					"name": "",
					"type": "bytes32"
				}
			],
			"name": "inviteHashToAddress",
			"outputs": [
				{
					"internalType": "address",
					"name": "",
					"type": "address"
				}
			],
			"stateMutability": "view",
			"type": "function"
		},
		{
			"inputs": [
				{
					"internalType": "string",
					"name": "_achievementName",
					"type": "string"
				}
			],
			"name": "isValidAchievement",
			"outputs": [
				{
					"internalType": "bool",
					"name": "",
					"type": "bool"
				}
			],
			"stateMutability": "view",
			"type": "function"
		},
		{
			"inputs": [],
			"name": "pause",
			"outputs": [],
			"stateMutability": "nonpayable",
			"type": "function"
		},
		{
			"inputs": [],
			"name": "paused",
			"outputs": [
				{
					"internalType": "bool",
					"name": "",
					"type": "bool"
				}
			],
			"stateMutability": "view",
			"type": "function"
		},
		{
			"inputs": [
				{
					"internalType": "address",
					"name": "",
					"type": "address"
				}
			],
			"name": "profiles",
			"outputs": [
				{
					"internalType": "address",
					"name": "userAddress",
					"type": "address"
				},
				{
					"internalType": "string",
					"name": "username",
					"type": "string"
				},
				{
					"internalType": "bytes32",
					"name": "emailHash",
					"type": "bytes32"
				},
				{
					"internalType": "uint256",
					"name": "createdAt",
					"type": "uint256"
				},
				{
					"internalType": "bool",
					"name": "isActive",
					"type": "bool"
				}
			],
			"stateMutability": "view",
			"type": "function"
		},
		{
			"inputs": [
				{
					"internalType": "address",
					"name": "",
					"type": "address"
				},
				{
					"internalType": "uint256",
					"name": "",
					"type": "uint256"
				}
			],
			"name": "referrals",
			"outputs": [
				{
					"internalType": "address",
					"name": "",
					"type": "address"
				}
			],
			"stateMutability": "view",
			"type": "function"
		},
		{
			"inputs": [
				{
					"internalType": "bytes32",
					"name": "role",
					"type": "bytes32"
				},
				{
					"internalType": "address",
					"name": "callerConfirmation",
					"type": "address"
				}
			],
			"name": "renounceRole",
			"outputs": [],
			"stateMutability": "nonpayable",
			"type": "function"
		},
		{
			"inputs": [
				{
					"internalType": "bytes32",
					"name": "role",
					"type": "bytes32"
				},
				{
					"internalType": "address",
					"name": "account",
					"type": "address"
				}
			],
			"name": "revokeRole",
			"outputs": [],
			"stateMutability": "nonpayable",
			"type": "function"
		},
		{
			"inputs": [
				{
					"internalType": "address",
					"name": "",
					"type": "address"
				}
			],
			"name": "scores",
			"outputs": [
				{
					"internalType": "uint256",
					"name": "",
					"type": "uint256"
				}
			],
			"stateMutability": "view",
			"type": "function"
		},
		{
			"inputs": [
				{
					"internalType": "address",
					"name": "_chamaCoreContract",
					"type": "address"
				}
			],
			"name": "setChamaCore",
			"outputs": [],
			"stateMutability": "nonpayable",
			"type": "function"
		},
		{
			"inputs": [
				{
					"internalType": "address",
					"name": "_user",
					"type": "address"
				},
				{
					"internalType": "uint256",
					"name": "_points",
					"type": "uint256"
				},
				{
					"internalType": "string",
					"name": "_reason",
					"type": "string"
				}
			],
			"name": "subtractScore",
			"outputs": [],
			"stateMutability": "nonpayable",
			"type": "function"
		},
		{
			"inputs": [
				{
					"internalType": "bytes4",
					"name": "interfaceId",
					"type": "bytes4"
				}
			],
			"name": "supportsInterface",
			"outputs": [
				{
					"internalType": "bool",
					"name": "",
					"type": "bool"
				}
			],
			"stateMutability": "view",
			"type": "function"
		},
		{
			"inputs": [
				{
					"internalType": "address",
					"name": "_user",
					"type": "address"
				},
				{
					"internalType": "string",
					"name": "_achievementName",
					"type": "string"
				}
			],
			"name": "unlockAchievement",
			"outputs": [],
			"stateMutability": "nonpayable",
			"type": "function"
		},
		{
			"inputs": [],
			"name": "unpause",
			"outputs": [],
			"stateMutability": "nonpayable",
			"type": "function"
		},
		{
			"inputs": [
				{
					"internalType": "string",
					"name": "_name",
					"type": "string"
				},
				{
					"internalType": "uint256",
					"name": "_points",
					"type": "uint256"
				}
			],
			"name": "updateAchievementPoints",
			"outputs": [],
			"stateMutability": "nonpayable",
			"type": "function"
		},
		{
			"inputs": [
				{
					"internalType": "string",
					"name": "_username",
					"type": "string"
				}
			],
			"name": "updateProfile",
			"outputs": [],
			"stateMutability": "nonpayable",
			"type": "function"
		},
		{
			"inputs": [
				{
					"internalType": "string",
					"name": "",
					"type": "string"
				}
			],
			"name": "validAchievements",
			"outputs": [
				{
					"internalType": "bool",
					"name": "",
					"type": "bool"
				}
			],
			"stateMutability": "view",
			"type": "function"
		}
	]
}