{
	"data": {
		"bytecode": {
			"linkReferences": {},
			"object": "60806040525f6008553480156012575f5ffd5b50600980546001600160a01b03191633179055612673806100325f395ff3fe608060405260043610610195575f3560e01c80639155105f116100e7578063bf882e7311610087578063cb00d3d211610062578063cb00d3d21461058c578063daa6f020146105b8578063e69269a6146105d7578063e9ac9d1e146105ea575f5ffd5b8063bf882e7314610512578063c087e28b1461053e578063c14a2ae014610553575f5ffd5b80639facefc5116100c25780639facefc514610472578063afc737d114610491578063b34e0c47146104bf578063b4bebcfd146104f3575f5ffd5b80639155105f146103fa5780639db6a08f146104195780639ef4cbcc1461045f575f5ffd5b806376dd110f11610152578063830e28f61161012d578063830e28f61461032a578063863b6a391461036e5780638da5cb5b1461038d5780638ea3b0de146103c4575f5ffd5b806376dd110f1461029d5780637d13ee50146102c8578063826ce785146102e7575f5ffd5b80630ae2ce89146101995780630b5d7085146101ba578063300e9dae146101f857806343533e1d1461021757806345f4bc071461022a5780637331fa9514610259575b5f5ffd5b3480156101a4575f5ffd5b506101b86101b3366004612160565b61066e565b005b3480156101c5575f5ffd5b506101d96101d436600461218a565b61087b565b6040516101ef9a999897969594939291906121cf565b60405180910390f35b348015610203575f5ffd5b506101b861021236600461218a565b610955565b6101b861022536600461218a565b610b37565b348015610235575f5ffd5b50610249610244366004612160565b610e2e565b60405190151581526020016101ef565b348015610264575f5ffd5b5061028f610273366004612228565b600560209081525f928352604080842090915290825290205481565b6040519081526020016101ef565b3480156102a8575f5ffd5b5061028f6102b7366004612250565b60016020525f908152604090205481565b3480156102d3575f5ffd5b5061028f6102e2366004612228565b610e5b565b3480156102f2575f5ffd5b5061028f610301366004612160565b5f828152602081815260408083206001600160a01b038516845260100190915290205492915050565b348015610335575f5ffd5b50610349610344366004612270565b610e86565b604080516001600160a01b0390941684526020840192909252908201526060016101ef565b348015610379575f5ffd5b5061028f610388366004612160565b610ece565b348015610398575f5ffd5b506009546103ac906001600160a01b031681565b6040516001600160a01b0390911681526020016101ef565b3480156103cf575f5ffd5b5061028f6103de366004612228565b600660209081525f928352604080842090915290825290205481565b348015610405575f5ffd5b50610249610414366004612160565b610f3a565b348015610424575f5ffd5b50610249610433366004612160565b5f828152602081815260408083206001600160a01b0385168452600b0190915290205460ff1692915050565b6101b861046d36600461218a565b610fe3565b34801561047d575f5ffd5b506101b861048c366004612228565b611362565b34801561049c575f5ffd5b5061028f6104ab36600461218a565b5f9081526020819052604090206012015490565b3480156104ca575f5ffd5b5061028f6104d9366004612250565b6001600160a01b03165f9081526001602052604090205490565b3480156104fe575f5ffd5b506101d961050d36600461218a565b6113d9565b34801561051d575f5ffd5b5061053161052c366004612228565b6114df565b6040516101ef9190612290565b348015610549575f5ffd5b5061028f60085481565b34801561055e575f5ffd5b5061024961056d366004612228565b600760209081525f928352604080842090915290825290205460ff1681565b348015610597575f5ffd5b506105ab6105a636600461218a565b611590565b6040516101ef91906122a2565b3480156105c3575f5ffd5b506101b86105d236600461218a565b6115fa565b6101b86105e5366004612301565b61178f565b3480156105f5575f5ffd5b50610649610604366004612270565b5f91825260208281526040808420928452600d8301825280842054600e8401835281852054600f9094019092529092205491926001600160a01b039091169160ff1690565b604080519384526001600160a01b0390921660208401521515908201526060016101ef565b5f828152602081905260409020600581015460ff16156106ca5760405162461bcd60e51b81526020600482015260126024820152714368616d61207374696c6c2061637469766560701b60448201526064015b60405180910390fd5b6001600160a01b0382165f908152600b8201602052604090205460ff166107035760405162461bcd60e51b81526004016106c1906123c7565b6001600160a01b0382165f908152600c82016020526040902054600a8201805482908110610733576107336123ed565b905f5260205f2090602091828204019190069054906101000a900460ff161561078d5760405162461bcd60e51b815260206004820152600c60248201526b105b1c9958591e481c185a5960a21b60448201526064016106c1565b600482015460018301545f916107a291612415565b9050600183600a0183815481106107bb576107bb6123ed565b905f5260205f2090602091828204019190066101000a81548160ff021916908315150217905550836001600160a01b03166108fc8290811502906040515f60405180830381858888f19350505050158015610818573d5f5f3e3d5ffd5b507fb4aeb9fb59644d1c26001b986295cde5bbfae34be7c5240fbccf4c37308e20fe85858361084886600161242c565b604080519485526001600160a01b0390931660208501529183015260608201526080015b60405180910390a15050505050565b5f602081905290815260409020805481906108959061243f565b80601f01602080910402602001604051908101604052809291908181526020018280546108c19061243f565b801561090c5780601f106108e35761010080835404028352916020019161090c565b820191905f5260205f20905b8154815290600101906020018083116108ef57829003601f168201915b50505060018401546002850154600386015460058701546006880154600789015460088a015460098b01546012909b0154999a969995985093965060ff9092169490939192918a565b5f818152602081905260409020600581015460ff166109865760405162461bcd60e51b81526004016106c190612477565b5f8160060154116109cd5760405162461bcd60e51b815260206004820152601160248201527010da185b58481b9bdd081cdd185c9d1959607a1b60448201526064016106c1565b806002015481600801546109e1919061242c565b421015610a245760405162461bcd60e51b815260206004820152601160248201527010de58db19481b9bdd08195e1c1a5c9959607a1b60448201526064016106c1565b5f5b6004820154811015610b29575f826004018281548110610a4857610a486123ed565b5f9182526020808320909101546001600160a01b031680835260078252604080842088855290925291205490915060ff16610b20576001600160a01b0381165f9081526010840160205260409020548015610b1e576001600160a01b0382165f908152601085016020908152604080832083905560068701548352600d870190915281208054839290610adc90849061242c565b90915550506040517f9ed6c8e3f152b165733c0aa8ef3b791333859fb2ebcefd11171ade0c13814f6990610b15908790859085906124a1565b60405180910390a15b505b50600101610a26565b50610b3382611aa0565b5050565b805f81118015610b4957506008548111155b610b8c5760405162461bcd60e51b815260206004820152601460248201527310da185b5848191bd95cc81b9bdd08195e1a5cdd60621b60448201526064016106c1565b5f82815260208190526040902060050154829060ff16610bbe5760405162461bcd60e51b81526004016106c190612477565b5f83815260208181526040808320338452600b81019092529091205460ff1615610c1d5760405162461bcd60e51b815260206004820152601060248201526f20b63932b0b23c90309036b2b6b132b960811b60448201526064016106c1565b6003810154600482015410610c615760405162461bcd60e51b815260206004820152600a60248201526910da185b5848199d5b1b60b21b60448201526064016106c1565b8060010154341015610cb55760405162461bcd60e51b815260206004820152601760248201527f496e73756666696369656e7420636f6c6c61746572616c00000000000000000060448201526064016106c1565b600481018054600180820183555f9283526020808420830180546001600160a01b03191633908117909155808552600b860182526040808620805460ff191685179055600c87018352808620859055600a8701805494850181558652828620838504018054601f9095166101000a60ff021990941690935584526010850190528220349081905560128401805492939192909190610d5490849061242c565b9091555050335f818152600460209081526040808320805460018181018355918552838520018a9055938352929052908120805460329290610d9790849061242c565b9091555050604080518681523360208201527f40a8c7a25e1eab32f305b79614cb4eb53a2d5d546bc4a5b0b55e5a7dc1228dce910160405180910390a17feec2f3feb835e2f2fd44281034b04700a1ddda63dd402949d470a25a7c40b36c853334604051610e07939291906124a1565b60405180910390a16003820154600483015403610e2757610e2785611c78565b5050505050565b5f828152602081815260408083206001600160a01b038516845260110190915290205460ff165b92915050565b6004602052815f5260405f208181548110610e74575f80fd5b905f5260205f20015f91509150505481565b6003602052815f5260405f208181548110610e9f575f80fd5b5f9182526020909120600390910201805460018201546002909201546001600160a01b03909116935090915083565b5f828152602081815260408083206001600160a01b0385168452600b0190915281205460ff16610f105760405162461bcd60e51b81526004016106c1906123c7565b505f828152602081815260408083206001600160a01b0385168452600c0190915290205492915050565b5f828152602081815260408083206001600160a01b0385168452600b0190915281205460ff16610f7c5760405162461bcd60e51b81526004016106c1906123c7565b5f838152602081815260408083206001600160a01b0386168452600c810183529083205486845292909152600a01805482908110610fbc57610fbc6123ed565b905f5260205f2090602091828204019190069054906101000a900460ff1691505092915050565b5f81815260208181526040808320338452600b01909152902054819060ff166110435760405162461bcd60e51b81526020600482015260126024820152712737ba10309031b430b6b09036b2b6b132b960711b60448201526064016106c1565b5f82815260208190526040902060050154829060ff166110755760405162461bcd60e51b81526004016106c190612477565b5f83815260208190526040902060018101543410156110cf5760405162461bcd60e51b81526020600482015260166024820152752132b637bb9036b4b71031b7b73a3934b13aba34b7b760511b60448201526064016106c1565b5f8160060154116111165760405162461bcd60e51b815260206004820152601160248201527010da185b58481b9bdd081cdd185c9d1959607a1b60448201526064016106c1565b335f90815260076020908152604080832087845290915290205460ff16156111805760405162461bcd60e51b815260206004820152601e60248201527f416c726561647920636f6e74726962757465642074686973206379636c65000060448201526064016106c1565b80600201548160080154611194919061242c565b421015806111a6575080600601546001145b6111e45760405162461bcd60e51b815260206004820152600f60248201526e4379636c65206e6f7420726561647960881b60448201526064016106c1565b5f8481526003602081815260408084208151606081018352338082523482860181815242848701908152855460018082018855968b52888b209551990290940180546001600160a01b0319166001600160a01b039099169890981788555193870193909355905160029095019490945592845260058252808420888552909152822080549192909161127790849061242c565b9091555050335f8181526006602081815260408084208985528252808420429055938352600781528383208884528152838320805460ff19166001179055908401548252600d8401905290812080543492906112d490849061242c565b9250508190555034816009015f8282546112ee919061242c565b9091555050335f90815260016020526040812080546019929061131290849061242c565b90915550506040517f0a4a91237423e0a1766a761c7cb029311d8b95d6b1b81db1b949a70c98b4e08e9061134b908690339034906124a1565b60405180910390a161135c84611cda565b50505050565b6009546001600160a01b031633146113a95760405162461bcd60e51b815260206004820152600a60248201526927b7363c9037bbb732b960b11b60448201526064016106c1565b6001600160a01b0382165f90815260016020526040812080548392906113d090849061242c565b90915550505050565b60605f5f5f5f5f5f5f5f5f5f5f5f8d81526020019081526020015f209050805f01816001015482600201548360030154846005015f9054906101000a900460ff168560060154866007015487600801548860090154896012015489805461143f9061243f565b80601f016020809104026020016040519081016040528092919081815260200182805461146b9061243f565b80156114b65780601f1061148d576101008083540402835291602001916114b6565b820191905f5260205f20905b81548152906001019060200180831161149957829003601f168201915b505050505099509a509a509a509a509a509a509a509a509a509a50509193959799509193959799565b6002602052815f5260405f2081815481106114f8575f80fd5b905f5260205f20015f915091505080546115119061243f565b80601f016020809104026020016040519081016040528092919081815260200182805461153d9061243f565b80156115885780601f1061155f57610100808354040283529160200191611588565b820191905f5260205f20905b81548152906001019060200180831161156b57829003601f168201915b505050505081565b5f81815260208181526040918290206004018054835181840281018401909452808452606093928301828280156115ee57602002820191905f5260205f20905b81546001600160a01b031681526001909101906020018083116115d0575b50505050509050919050565b805f8111801561160c57506008548111155b61164f5760405162461bcd60e51b815260206004820152601460248201527310da185b5848191bd95cc81b9bdd08195e1a5cdd60621b60448201526064016106c1565b5f82815260208190526040902060050154829060ff166116815760405162461bcd60e51b81526004016106c190612477565b5f8381526020819052604090206006810154156116d85760405162461bcd60e51b815260206004820152601560248201527410da185b5848185b1c9958591e481cdd185c9d1959605a1b60448201526064016106c1565b335f908152600b8201602052604090205460ff166117315760405162461bcd60e51b815260206004820152601660248201527513db9b1e481b595b58995c9cc818d85b881cdd185c9d60521b60448201526064016106c1565b6004810154600311156117865760405162461bcd60e51b815260206004820152601760248201527f4e656564206174206c656173742033206d656d6265727300000000000000000060448201526064016106c1565b61135c84611c78565b5f83116117de5760405162461bcd60e51b815260206004820152601860248201527f436f6e747269627574696f6e206d757374206265203e2030000000000000000060448201526064016106c1565b62093a808210156118315760405162461bcd60e51b815260206004820152601760248201527f4379636c65206d757374206265203e3d2037206461797300000000000000000060448201526064016106c1565b60038110158015611843575060148111155b61187f5760405162461bcd60e51b815260206004820152600d60248201526c04d656d626572733a20332d323609c1b60448201526064016106c1565b823410156118ec5760405162461bcd60e51b815260206004820152603460248201527f4d757374206465706f73697420636f6c6c61746572616c20657175616c20746f6044820152730818dbdb9d1c9a589d5d1a5bdb88185b5bdd5b9d60621b60648201526084016106c1565b60088054905f6118fb836124c0565b90915550506008545f9081526020819052604090208061191b868261251c565b506001808201859055600282018490556003820183905560058201805460ff1990811683179091555f600684018190556007840181905542600880860191909155600985018290553460128601819055600480870180548088018255908552602080862090910180546001600160a01b03191633908117909155808652600b89018252604080872080549098168917909755600c89018252868620869055600a89018054808a018255908752828720838204018054601f9092166101000a60ff0219909116905580865260108901825286862093909355908152848420925483548088018555938552818520909301929092558252929092528120805460649290611a2790849061242c565b90915550506008546040517ff4262469916388c16d1454945cd27f61664f3ae726c205e66b8f9212a3534f8c91611a63918890339089906125d7565b60405180910390a17feec2f3feb835e2f2fd44281034b04700a1ddda63dd402949d470a25a7c40b36c600854333460405161086c939291906124a1565b5f8181526020818152604080832060068101548452600d81019092528220546007820154600483018054939492939091908110611adf57611adf6123ed565b905f5260205f20015f9054906101000a90046001600160a01b03169050600183600a01846007015481548110611b1757611b176123ed565b5f918252602080832081830401805460ff601f9094166101000a9384021916941515929092029390931790556006850180548252600e86018352604080832080546001600160a01b0319166001600160a01b03871690811790915591548352600f8701909352828220805460ff1916600117905591516108fc85150291859190818181858888f19350505050158015611bb2573d5f5f3e3d5ffd5b506006830154604080518681526001600160a01b03841660208201528082018590526060810192909252517fb4aeb9fb59644d1c26001b986295cde5bbfae34be7c5240fbccf4c37308e20fe9181900360800190a160068301546040805186815260208101929092527f42463706cb812379c7405bba67d1414b3473b66942ecd48fd66e7ad3cd3abdd4910160405180910390a16004830154611c579060019061260b565b836007015403611c6f57611c6a84611d75565b61135c565b61135c84611ecb565b5f81815260208190526040902060016006820155426008820155611c9b82611f77565b7f39874af9b7f4ab9e4c5c47a7280fdb5f5db4081446e9d2cdfd23d5d5aa781c64823342604051611cce939291906124a1565b60405180910390a15050565b5f81815260208190526040812090805b6004830154811015611d5b5760075f846004018381548110611d0e57611d0e6123ed565b5f9182526020808320909101546001600160a01b03168352828101939093526040918201812087825290925290205460ff1615611d535781611d4f816124c0565b9250505b600101611cea565b5060048201548103611d7057611d7083611aa0565b505050565b5f81815260208190526040812060058101805460ff19169055905b6004820154811015611e9a575f826004018281548110611db257611db26123ed565b5f9182526020808320909101546001600160a01b0316808352601086019091526040909120549091508015801590611e0457506001600160a01b0382165f90815260118501602052604090205460ff16155b15611e90576001600160a01b0382165f818152601186016020526040808220805460ff191660011790555183156108fc0291849190818181858888f19350505050158015611e54573d5f5f3e3d5ffd5b507e83f3d3d0a8132e9bf23ae6cde659d5f3963a6973816e144f05bfccef184279858383604051611e87939291906124a1565b60405180910390a15b5050600101611d90565b506040518281527fdb5e126e6a121da8028405972761f7c42dff3d626273cd61fd32a13d4c3f56c790602001611cce565b5f8181526020819052604081206007810180549192611ee9836124c0565b9091555050600681018054905f611eff836124c0565b90915550504260088201555f5b6004820154811015611d70575f60075f846004018481548110611f3157611f316123ed565b5f918252602080832091909101546001600160a01b0316835282810193909352604091820181208782529092529020805460ff1916911515919091179055600101611f0c565b5f818152602081905260408120600481015490915b8181101561135c57604080514260208201524491810191909152606081018290525f908390608001604051602081830303815290604052805190602001205f1c611fd6919061261e565b90505f846004018381548110611fee57611fee6123ed565b5f918252602090912001546004860180546001600160a01b039092169250908390811061201d5761201d6123ed565b5f918252602090912001546004860180546001600160a01b03909216918590811061204a5761204a6123ed565b905f5260205f20015f6101000a8154816001600160a01b0302191690836001600160a01b031602179055508085600401838154811061208b5761208b6123ed565b905f5260205f20015f6101000a8154816001600160a01b0302191690836001600160a01b031602179055508285600c015f8760040186815481106120d1576120d16123ed565b5f9182526020808320909101546001600160a01b031683528201929092526040018120919091556004860180548492600c890192909184908110612117576121176123ed565b5f9182526020808320909101546001600160a01b031683528201929092526040019020555050600101611f8c565b80356001600160a01b038116811461215b575f5ffd5b919050565b5f5f60408385031215612171575f5ffd5b8235915061218160208401612145565b90509250929050565b5f6020828403121561219a575f5ffd5b5035919050565b5f81518084528060208401602086015e5f602082860101526020601f19601f83011685010191505092915050565b61014081525f6121e361014083018d6121a1565b602083019b909b525060408101989098526060880196909652931515608087015260a086019290925260c085015260e084015261010083015261012090910152919050565b5f5f60408385031215612239575f5ffd5b61224283612145565b946020939093013593505050565b5f60208284031215612260575f5ffd5b61226982612145565b9392505050565b5f5f60408385031215612281575f5ffd5b50508035926020909101359150565b602081525f61226960208301846121a1565b602080825282518282018190525f918401906040840190835b818110156122e25783516001600160a01b03168352602093840193909201916001016122bb565b509095945050505050565b634e487b7160e01b5f52604160045260245ffd5b5f5f5f5f60808587031215612314575f5ffd5b843567ffffffffffffffff81111561232a575f5ffd5b8501601f8101871361233a575f5ffd5b803567ffffffffffffffff811115612354576123546122ed565b604051601f8201601f19908116603f0116810167ffffffffffffffff81118282101715612383576123836122ed565b60405281815282820160200189101561239a575f5ffd5b816020840160208301375f6020928201830152989087013597506040870135966060013595509350505050565b6020808252600c908201526b2737ba10309036b2b6b132b960a11b604082015260600190565b634e487b7160e01b5f52603260045260245ffd5b634e487b7160e01b5f52601160045260245ffd5b8082028115828204841417610e5557610e55612401565b80820180821115610e5557610e55612401565b600181811c9082168061245357607f821691505b60208210810361247157634e487b7160e01b5f52602260045260245ffd5b50919050565b60208082526010908201526f4368616d61206e6f742061637469766560801b604082015260600190565b9283526001600160a01b03919091166020830152604082015260600190565b5f600182016124d1576124d1612401565b5060010190565b601f821115611d7057805f5260205f20601f840160051c810160208510156124fd5750805b601f840160051c820191505b81811015610e27575f8155600101612509565b815167ffffffffffffffff811115612536576125366122ed565b61254a81612544845461243f565b846124d8565b6020601f82116001811461257c575f83156125655750848201515b5f19600385901b1c1916600184901b178455610e27565b5f84815260208120601f198516915b828110156125ab578785015182556020948501946001909201910161258b565b50848210156125c857868401515f19600387901b60f8161c191681555b50505050600190811b01905550565b848152608060208201525f6125ef60808301866121a1565b6001600160a01b03949094166040830152506060015292915050565b81810381811115610e5557610e55612401565b5f8261263857634e487b7160e01b5f52601260045260245ffd5b50069056fea2646970667358221220ce55b88c53ba3badda60c98efc72f1c55167e623e5703433e941440307a949af64736f6c634300081e0033",
			"opcodes": "PUSH1 0x80 PUSH1 0x40 MSTORE PUSH0 PUSH1 0x8 SSTORE CALLVALUE DUP1 ISZERO PUSH1 0x12 JUMPI PUSH0 PUSH0 REVERT JUMPDEST POP PUSH1 0x9 DUP1 SLOAD PUSH1 0x1 PUSH1 0x1 PUSH1 0xA0 SHL SUB NOT AND CALLER OR SWAP1 SSTORE PUSH2 0x2673 DUP1 PUSH2 0x32 PUSH0 CODECOPY PUSH0 RETURN INVALID PUSH1 0x80 PUSH1 0x40 MSTORE PUSH1 0x4 CALLDATASIZE LT PUSH2 0x195 JUMPI PUSH0 CALLDATALOAD PUSH1 0xE0 SHR DUP1 PUSH4 0x9155105F GT PUSH2 0xE7 JUMPI DUP1 PUSH4 0xBF882E73 GT PUSH2 0x87 JUMPI DUP1 PUSH4 0xCB00D3D2 GT PUSH2 0x62 JUMPI DUP1 PUSH4 0xCB00D3D2 EQ PUSH2 0x58C JUMPI DUP1 PUSH4 0xDAA6F020 EQ PUSH2 0x5B8 JUMPI DUP1 PUSH4 0xE69269A6 EQ PUSH2 0x5D7 JUMPI DUP1 PUSH4 0xE9AC9D1E EQ PUSH2 0x5EA JUMPI PUSH0 PUSH0 REVERT JUMPDEST DUP1 PUSH4 0xBF882E73 EQ PUSH2 0x512 JUMPI DUP1 PUSH4 0xC087E28B EQ PUSH2 0x53E JUMPI DUP1 PUSH4 0xC14A2AE0 EQ PUSH2 0x553 JUMPI PUSH0 PUSH0 REVERT JUMPDEST DUP1 PUSH4 0x9FACEFC5 GT PUSH2 0xC2 JUMPI DUP1 PUSH4 0x9FACEFC5 EQ PUSH2 0x472 JUMPI DUP1 PUSH4 0xAFC737D1 EQ PUSH2 0x491 JUMPI DUP1 PUSH4 0xB34E0C47 EQ PUSH2 0x4BF JUMPI DUP1 PUSH4 0xB4BEBCFD EQ PUSH2 0x4F3 JUMPI PUSH0 PUSH0 REVERT JUMPDEST DUP1 PUSH4 0x9155105F EQ PUSH2 0x3FA JUMPI DUP1 PUSH4 0x9DB6A08F EQ PUSH2 0x419 JUMPI DUP1 PUSH4 0x9EF4CBCC EQ PUSH2 0x45F JUMPI PUSH0 PUSH0 REVERT JUMPDEST DUP1 PUSH4 0x76DD110F GT PUSH2 0x152 JUMPI DUP1 PUSH4 0x830E28F6 GT PUSH2 0x12D JUMPI DUP1 PUSH4 0x830E28F6 EQ PUSH2 0x32A JUMPI DUP1 PUSH4 0x863B6A39 EQ PUSH2 0x36E JUMPI DUP1 PUSH4 0x8DA5CB5B EQ PUSH2 0x38D JUMPI DUP1 PUSH4 0x8EA3B0DE EQ PUSH2 0x3C4 JUMPI PUSH0 PUSH0 REVERT JUMPDEST DUP1 PUSH4 0x76DD110F EQ PUSH2 0x29D JUMPI DUP1 PUSH4 0x7D13EE50 EQ PUSH2 0x2C8 JUMPI DUP1 PUSH4 0x826CE785 EQ PUSH2 0x2E7 JUMPI PUSH0 PUSH0 REVERT JUMPDEST DUP1 PUSH4 0xAE2CE89 EQ PUSH2 0x199 JUMPI DUP1 PUSH4 0xB5D7085 EQ PUSH2 0x1BA JUMPI DUP1 PUSH4 0x300E9DAE EQ PUSH2 0x1F8 JUMPI DUP1 PUSH4 0x43533E1D EQ PUSH2 0x217 JUMPI DUP1 PUSH4 0x45F4BC07 EQ PUSH2 0x22A JUMPI DUP1 PUSH4 0x7331FA95 EQ PUSH2 0x259 JUMPI JUMPDEST PUSH0 PUSH0 REVERT JUMPDEST CALLVALUE DUP1 ISZERO PUSH2 0x1A4 JUMPI PUSH0 PUSH0 REVERT JUMPDEST POP PUSH2 0x1B8 PUSH2 0x1B3 CALLDATASIZE PUSH1 0x4 PUSH2 0x2160 JUMP JUMPDEST PUSH2 0x66E JUMP JUMPDEST STOP JUMPDEST CALLVALUE DUP1 ISZERO PUSH2 0x1C5 JUMPI PUSH0 PUSH0 REVERT JUMPDEST POP PUSH2 0x1D9 PUSH2 0x1D4 CALLDATASIZE PUSH1 0x4 PUSH2 0x218A JUMP JUMPDEST PUSH2 0x87B JUMP JUMPDEST PUSH1 0x40 MLOAD PUSH2 0x1EF SWAP11 SWAP10 SWAP9 SWAP8 SWAP7 SWAP6 SWAP5 SWAP4 SWAP3 SWAP2 SWAP1 PUSH2 0x21CF JUMP JUMPDEST PUSH1 0x40 MLOAD DUP1 SWAP2 SUB SWAP1 RETURN JUMPDEST CALLVALUE DUP1 ISZERO PUSH2 0x203 JUMPI PUSH0 PUSH0 REVERT JUMPDEST POP PUSH2 0x1B8 PUSH2 0x212 CALLDATASIZE PUSH1 0x4 PUSH2 0x218A JUMP JUMPDEST PUSH2 0x955 JUMP JUMPDEST PUSH2 0x1B8 PUSH2 0x225 CALLDATASIZE PUSH1 0x4 PUSH2 0x218A JUMP JUMPDEST PUSH2 0xB37 JUMP JUMPDEST CALLVALUE DUP1 ISZERO PUSH2 0x235 JUMPI PUSH0 PUSH0 REVERT JUMPDEST POP PUSH2 0x249 PUSH2 0x244 CALLDATASIZE PUSH1 0x4 PUSH2 0x2160 JUMP JUMPDEST PUSH2 0xE2E JUMP JUMPDEST PUSH1 0x40 MLOAD SWAP1 ISZERO ISZERO DUP2 MSTORE PUSH1 0x20 ADD PUSH2 0x1EF JUMP JUMPDEST CALLVALUE DUP1 ISZERO PUSH2 0x264 JUMPI PUSH0 PUSH0 REVERT JUMPDEST POP PUSH2 0x28F PUSH2 0x273 CALLDATASIZE PUSH1 0x4 PUSH2 0x2228 JUMP JUMPDEST PUSH1 0x5 PUSH1 0x20 SWAP1 DUP2 MSTORE PUSH0 SWAP3 DUP4 MSTORE PUSH1 0x40 DUP1 DUP5 KECCAK256 SWAP1 SWAP2 MSTORE SWAP1 DUP3 MSTORE SWAP1 KECCAK256 SLOAD DUP2 JUMP JUMPDEST PUSH1 0x40 MLOAD SWAP1 DUP2 MSTORE PUSH1 0x20 ADD PUSH2 0x1EF JUMP JUMPDEST CALLVALUE DUP1 ISZERO PUSH2 0x2A8 JUMPI PUSH0 PUSH0 REVERT JUMPDEST POP PUSH2 0x28F PUSH2 0x2B7 CALLDATASIZE PUSH1 0x4 PUSH2 0x2250 JUMP JUMPDEST PUSH1 0x1 PUSH1 0x20 MSTORE PUSH0 SWAP1 DUP2 MSTORE PUSH1 0x40 SWAP1 KECCAK256 SLOAD DUP2 JUMP JUMPDEST CALLVALUE DUP1 ISZERO PUSH2 0x2D3 JUMPI PUSH0 PUSH0 REVERT JUMPDEST POP PUSH2 0x28F PUSH2 0x2E2 CALLDATASIZE PUSH1 0x4 PUSH2 0x2228 JUMP JUMPDEST PUSH2 0xE5B JUMP JUMPDEST CALLVALUE DUP1 ISZERO PUSH2 0x2F2 JUMPI PUSH0 PUSH0 REVERT JUMPDEST POP PUSH2 0x28F PUSH2 0x301 CALLDATASIZE PUSH1 0x4 PUSH2 0x2160 JUMP JUMPDEST PUSH0 DUP3 DUP2 MSTORE PUSH1 0x20 DUP2 DUP2 MSTORE PUSH1 0x40 DUP1 DUP4 KECCAK256 PUSH1 0x1 PUSH1 0x1 PUSH1 0xA0 SHL SUB DUP6 AND DUP5 MSTORE PUSH1 0x10 ADD SWAP1 SWAP2 MSTORE SWAP1 KECCAK256 SLOAD SWAP3 SWAP2 POP POP JUMP JUMPDEST CALLVALUE DUP1 ISZERO PUSH2 0x335 JUMPI PUSH0 PUSH0 REVERT JUMPDEST POP PUSH2 0x349 PUSH2 0x344 CALLDATASIZE PUSH1 0x4 PUSH2 0x2270 JUMP JUMPDEST PUSH2 0xE86 JUMP JUMPDEST PUSH1 0x40 DUP1 MLOAD PUSH1 0x1 PUSH1 0x1 PUSH1 0xA0 SHL SUB SWAP1 SWAP5 AND DUP5 MSTORE PUSH1 0x20 DUP5 ADD SWAP3 SWAP1 SWAP3 MSTORE SWAP1 DUP3 ADD MSTORE PUSH1 0x60 ADD PUSH2 0x1EF JUMP JUMPDEST CALLVALUE DUP1 ISZERO PUSH2 0x379 JUMPI PUSH0 PUSH0 REVERT JUMPDEST POP PUSH2 0x28F PUSH2 0x388 CALLDATASIZE PUSH1 0x4 PUSH2 0x2160 JUMP JUMPDEST PUSH2 0xECE JUMP JUMPDEST CALLVALUE DUP1 ISZERO PUSH2 0x398 JUMPI PUSH0 PUSH0 REVERT JUMPDEST POP PUSH1 0x9 SLOAD PUSH2 0x3AC SWAP1 PUSH1 0x1 PUSH1 0x1 PUSH1 0xA0 SHL SUB AND DUP2 JUMP JUMPDEST PUSH1 0x40 MLOAD PUSH1 0x1 PUSH1 0x1 PUSH1 0xA0 SHL SUB SWAP1 SWAP2 AND DUP2 MSTORE PUSH1 0x20 ADD PUSH2 0x1EF JUMP JUMPDEST CALLVALUE DUP1 ISZERO PUSH2 0x3CF JUMPI PUSH0 PUSH0 REVERT JUMPDEST POP PUSH2 0x28F PUSH2 0x3DE CALLDATASIZE PUSH1 0x4 PUSH2 0x2228 JUMP JUMPDEST PUSH1 0x6 PUSH1 0x20 SWAP1 DUP2 MSTORE PUSH0 SWAP3 DUP4 MSTORE PUSH1 0x40 DUP1 DUP5 KECCAK256 SWAP1 SWAP2 MSTORE SWAP1 DUP3 MSTORE SWAP1 KECCAK256 SLOAD DUP2 JUMP JUMPDEST CALLVALUE DUP1 ISZERO PUSH2 0x405 JUMPI PUSH0 PUSH0 REVERT JUMPDEST POP PUSH2 0x249 PUSH2 0x414 CALLDATASIZE PUSH1 0x4 PUSH2 0x2160 JUMP JUMPDEST PUSH2 0xF3A JUMP JUMPDEST CALLVALUE DUP1 ISZERO PUSH2 0x424 JUMPI PUSH0 PUSH0 REVERT JUMPDEST POP PUSH2 0x249 PUSH2 0x433 CALLDATASIZE PUSH1 0x4 PUSH2 0x2160 JUMP JUMPDEST PUSH0 DUP3 DUP2 MSTORE PUSH1 0x20 DUP2 DUP2 MSTORE PUSH1 0x40 DUP1 DUP4 KECCAK256 PUSH1 0x1 PUSH1 0x1 PUSH1 0xA0 SHL SUB DUP6 AND DUP5 MSTORE PUSH1 0xB ADD SWAP1 SWAP2 MSTORE SWAP1 KECCAK256 SLOAD PUSH1 0xFF AND SWAP3 SWAP2 POP POP JUMP JUMPDEST PUSH2 0x1B8 PUSH2 0x46D CALLDATASIZE PUSH1 0x4 PUSH2 0x218A JUMP JUMPDEST PUSH2 0xFE3 JUMP JUMPDEST CALLVALUE DUP1 ISZERO PUSH2 0x47D JUMPI PUSH0 PUSH0 REVERT JUMPDEST POP PUSH2 0x1B8 PUSH2 0x48C CALLDATASIZE PUSH1 0x4 PUSH2 0x2228 JUMP JUMPDEST PUSH2 0x1362 JUMP JUMPDEST CALLVALUE DUP1 ISZERO PUSH2 0x49C JUMPI PUSH0 PUSH0 REVERT JUMPDEST POP PUSH2 0x28F PUSH2 0x4AB CALLDATASIZE PUSH1 0x4 PUSH2 0x218A JUMP JUMPDEST PUSH0 SWAP1 DUP2 MSTORE PUSH1 0x20 DUP2 SWAP1 MSTORE PUSH1 0x40 SWAP1 KECCAK256 PUSH1 0x12 ADD SLOAD SWAP1 JUMP JUMPDEST CALLVALUE DUP1 ISZERO PUSH2 0x4CA JUMPI PUSH0 PUSH0 REVERT JUMPDEST POP PUSH2 0x28F PUSH2 0x4D9 CALLDATASIZE PUSH1 0x4 PUSH2 0x2250 JUMP JUMPDEST PUSH1 0x1 PUSH1 0x1 PUSH1 0xA0 SHL SUB AND PUSH0 SWAP1 DUP2 MSTORE PUSH1 0x1 PUSH1 0x20 MSTORE PUSH1 0x40 SWAP1 KECCAK256 SLOAD SWAP1 JUMP JUMPDEST CALLVALUE DUP1 ISZERO PUSH2 0x4FE JUMPI PUSH0 PUSH0 REVERT JUMPDEST POP PUSH2 0x1D9 PUSH2 0x50D CALLDATASIZE PUSH1 0x4 PUSH2 0x218A JUMP JUMPDEST PUSH2 0x13D9 JUMP JUMPDEST CALLVALUE DUP1 ISZERO PUSH2 0x51D JUMPI PUSH0 PUSH0 REVERT JUMPDEST POP PUSH2 0x531 PUSH2 0x52C CALLDATASIZE PUSH1 0x4 PUSH2 0x2228 JUMP JUMPDEST PUSH2 0x14DF JUMP JUMPDEST PUSH1 0x40 MLOAD PUSH2 0x1EF SWAP2 SWAP1 PUSH2 0x2290 JUMP JUMPDEST CALLVALUE DUP1 ISZERO PUSH2 0x549 JUMPI PUSH0 PUSH0 REVERT JUMPDEST POP PUSH2 0x28F PUSH1 0x8 SLOAD DUP2 JUMP JUMPDEST CALLVALUE DUP1 ISZERO PUSH2 0x55E JUMPI PUSH0 PUSH0 REVERT JUMPDEST POP PUSH2 0x249 PUSH2 0x56D CALLDATASIZE PUSH1 0x4 PUSH2 0x2228 JUMP JUMPDEST PUSH1 0x7 PUSH1 0x20 SWAP1 DUP2 MSTORE PUSH0 SWAP3 DUP4 MSTORE PUSH1 0x40 DUP1 DUP5 KECCAK256 SWAP1 SWAP2 MSTORE SWAP1 DUP3 MSTORE SWAP1 KECCAK256 SLOAD PUSH1 0xFF AND DUP2 JUMP JUMPDEST CALLVALUE DUP1 ISZERO PUSH2 0x597 JUMPI PUSH0 PUSH0 REVERT JUMPDEST POP PUSH2 0x5AB PUSH2 0x5A6 CALLDATASIZE PUSH1 0x4 PUSH2 0x218A JUMP JUMPDEST PUSH2 0x1590 JUMP JUMPDEST PUSH1 0x40 MLOAD PUSH2 0x1EF SWAP2 SWAP1 PUSH2 0x22A2 JUMP JUMPDEST CALLVALUE DUP1 ISZERO PUSH2 0x5C3 JUMPI PUSH0 PUSH0 REVERT JUMPDEST POP PUSH2 0x1B8 PUSH2 0x5D2 CALLDATASIZE PUSH1 0x4 PUSH2 0x218A JUMP JUMPDEST PUSH2 0x15FA JUMP JUMPDEST PUSH2 0x1B8 PUSH2 0x5E5 CALLDATASIZE PUSH1 0x4 PUSH2 0x2301 JUMP JUMPDEST PUSH2 0x178F JUMP JUMPDEST CALLVALUE DUP1 ISZERO PUSH2 0x5F5 JUMPI PUSH0 PUSH0 REVERT JUMPDEST POP PUSH2 0x649 PUSH2 0x604 CALLDATASIZE PUSH1 0x4 PUSH2 0x2270 JUMP JUMPDEST PUSH0 SWAP2 DUP3 MSTORE PUSH1 0x20 DUP3 DUP2 MSTORE PUSH1 0x40 DUP1 DUP5 KECCAK256 SWAP3 DUP5 MSTORE PUSH1 0xD DUP4 ADD DUP3 MSTORE DUP1 DUP5 KECCAK256 SLOAD PUSH1 0xE DUP5 ADD DUP4 MSTORE DUP2 DUP6 KECCAK256 SLOAD PUSH1 0xF SWAP1 SWAP5 ADD SWAP1 SWAP3 MSTORE SWAP1 SWAP3 KECCAK256 SLOAD SWAP2 SWAP3 PUSH1 0x1 PUSH1 0x1 PUSH1 0xA0 SHL SUB SWAP1 SWAP2 AND SWAP2 PUSH1 0xFF AND SWAP1 JUMP JUMPDEST PUSH1 0x40 DUP1 MLOAD SWAP4 DUP5 MSTORE PUSH1 0x1 PUSH1 0x1 PUSH1 0xA0 SHL SUB SWAP1 SWAP3 AND PUSH1 0x20 DUP5 ADD MSTORE ISZERO ISZERO SWAP1 DUP3 ADD MSTORE PUSH1 0x60 ADD PUSH2 0x1EF JUMP JUMPDEST PUSH0 DUP3 DUP2 MSTORE PUSH1 0x20 DUP2 SWAP1 MSTORE PUSH1 0x40 SWAP1 KECCAK256 PUSH1 0x5 DUP2 ADD SLOAD PUSH1 0xFF AND ISZERO PUSH2 0x6CA JUMPI PUSH1 0x40 MLOAD PUSH3 0x461BCD PUSH1 0xE5 SHL DUP2 MSTORE PUSH1 0x20 PUSH1 0x4 DUP3 ADD MSTORE PUSH1 0x12 PUSH1 0x24 DUP3 ADD MSTORE PUSH18 0x4368616D61207374696C6C20616374697665 PUSH1 0x70 SHL PUSH1 0x44 DUP3 ADD MSTORE PUSH1 0x64 ADD JUMPDEST PUSH1 0x40 MLOAD DUP1 SWAP2 SUB SWAP1 REVERT JUMPDEST PUSH1 0x1 PUSH1 0x1 PUSH1 0xA0 SHL SUB DUP3 AND PUSH0 SWAP1 DUP2 MSTORE PUSH1 0xB DUP3 ADD PUSH1 0x20 MSTORE PUSH1 0x40 SWAP1 KECCAK256 SLOAD PUSH1 0xFF AND PUSH2 0x703 JUMPI PUSH1 0x40 MLOAD PUSH3 0x461BCD PUSH1 0xE5 SHL DUP2 MSTORE PUSH1 0x4 ADD PUSH2 0x6C1 SWAP1 PUSH2 0x23C7 JUMP JUMPDEST PUSH1 0x1 PUSH1 0x1 PUSH1 0xA0 SHL SUB DUP3 AND PUSH0 SWAP1 DUP2 MSTORE PUSH1 0xC DUP3 ADD PUSH1 0x20 MSTORE PUSH1 0x40 SWAP1 KECCAK256 SLOAD PUSH1 0xA DUP3 ADD DUP1 SLOAD DUP3 SWAP1 DUP2 LT PUSH2 0x733 JUMPI PUSH2 0x733 PUSH2 0x23ED JUMP JUMPDEST SWAP1 PUSH0 MSTORE PUSH1 0x20 PUSH0 KECCAK256 SWAP1 PUSH1 0x20 SWAP2 DUP3 DUP3 DIV ADD SWAP2 SWAP1 MOD SWAP1 SLOAD SWAP1 PUSH2 0x100 EXP SWAP1 DIV PUSH1 0xFF AND ISZERO PUSH2 0x78D JUMPI PUSH1 0x40 MLOAD PUSH3 0x461BCD PUSH1 0xE5 SHL DUP2 MSTORE PUSH1 0x20 PUSH1 0x4 DUP3 ADD MSTORE PUSH1 0xC PUSH1 0x24 DUP3 ADD MSTORE PUSH12 0x105B1C9958591E481C185A59 PUSH1 0xA2 SHL PUSH1 0x44 DUP3 ADD MSTORE PUSH1 0x64 ADD PUSH2 0x6C1 JUMP JUMPDEST PUSH1 0x4 DUP3 ADD SLOAD PUSH1 0x1 DUP4 ADD SLOAD PUSH0 SWAP2 PUSH2 0x7A2 SWAP2 PUSH2 0x2415 JUMP JUMPDEST SWAP1 POP PUSH1 0x1 DUP4 PUSH1 0xA ADD DUP4 DUP2 SLOAD DUP2 LT PUSH2 0x7BB JUMPI PUSH2 0x7BB PUSH2 0x23ED JUMP JUMPDEST SWAP1 PUSH0 MSTORE PUSH1 0x20 PUSH0 KECCAK256 SWAP1 PUSH1 0x20 SWAP2 DUP3 DUP3 DIV ADD SWAP2 SWAP1 MOD PUSH2 0x100 EXP DUP2 SLOAD DUP2 PUSH1 0xFF MUL NOT AND SWAP1 DUP4 ISZERO ISZERO MUL OR SWAP1 SSTORE POP DUP4 PUSH1 0x1 PUSH1 0x1 PUSH1 0xA0 SHL SUB AND PUSH2 0x8FC DUP3 SWAP1 DUP2 ISZERO MUL SWAP1 PUSH1 0x40 MLOAD PUSH0 PUSH1 0x40 MLOAD DUP1 DUP4 SUB DUP2 DUP6 DUP9 DUP9 CALL SWAP4 POP POP POP POP ISZERO DUP1 ISZERO PUSH2 0x818 JUMPI RETURNDATASIZE PUSH0 PUSH0 RETURNDATACOPY RETURNDATASIZE PUSH0 REVERT JUMPDEST POP PUSH32 0xB4AEB9FB59644D1C26001B986295CDE5BBFAE34BE7C5240FBCCF4C37308E20FE DUP6 DUP6 DUP4 PUSH2 0x848 DUP7 PUSH1 0x1 PUSH2 0x242C JUMP JUMPDEST PUSH1 0x40 DUP1 MLOAD SWAP5 DUP6 MSTORE PUSH1 0x1 PUSH1 0x1 PUSH1 0xA0 SHL SUB SWAP1 SWAP4 AND PUSH1 0x20 DUP6 ADD MSTORE SWAP2 DUP4 ADD MSTORE PUSH1 0x60 DUP3 ADD MSTORE PUSH1 0x80 ADD JUMPDEST PUSH1 0x40 MLOAD DUP1 SWAP2 SUB SWAP1 LOG1 POP POP POP POP POP JUMP JUMPDEST PUSH0 PUSH1 0x20 DUP2 SWAP1 MSTORE SWAP1 DUP2 MSTORE PUSH1 0x40 SWAP1 KECCAK256 DUP1 SLOAD DUP2 SWAP1 PUSH2 0x895 SWAP1 PUSH2 0x243F JUMP JUMPDEST DUP1 PUSH1 0x1F ADD PUSH1 0x20 DUP1 SWAP2 DIV MUL PUSH1 0x20 ADD PUSH1 0x40 MLOAD SWAP1 DUP2 ADD PUSH1 0x40 MSTORE DUP1 SWAP3 SWAP2 SWAP1 DUP2 DUP2 MSTORE PUSH1 0x20 ADD DUP3 DUP1 SLOAD PUSH2 0x8C1 SWAP1 PUSH2 0x243F JUMP JUMPDEST DUP1 ISZERO PUSH2 0x90C JUMPI DUP1 PUSH1 0x1F LT PUSH2 0x8E3 JUMPI PUSH2 0x100 DUP1 DUP4 SLOAD DIV MUL DUP4 MSTORE SWAP2 PUSH1 0x20 ADD SWAP2 PUSH2 0x90C JUMP JUMPDEST DUP3 ADD SWAP2 SWAP1 PUSH0 MSTORE PUSH1 0x20 PUSH0 KECCAK256 SWAP1 JUMPDEST DUP2 SLOAD DUP2 MSTORE SWAP1 PUSH1 0x1 ADD SWAP1 PUSH1 0x20 ADD DUP1 DUP4 GT PUSH2 0x8EF JUMPI DUP3 SWAP1 SUB PUSH1 0x1F AND DUP3 ADD SWAP2 JUMPDEST POP POP POP PUSH1 0x1 DUP5 ADD SLOAD PUSH1 0x2 DUP6 ADD SLOAD PUSH1 0x3 DUP7 ADD SLOAD PUSH1 0x5 DUP8 ADD SLOAD PUSH1 0x6 DUP9 ADD SLOAD PUSH1 0x7 DUP10 ADD SLOAD PUSH1 0x8 DUP11 ADD SLOAD PUSH1 0x9 DUP12 ADD SLOAD PUSH1 0x12 SWAP1 SWAP12 ADD SLOAD SWAP10 SWAP11 SWAP7 SWAP10 SWAP6 SWAP9 POP SWAP4 SWAP7 POP PUSH1 0xFF SWAP1 SWAP3 AND SWAP5 SWAP1 SWAP4 SWAP2 SWAP3 SWAP2 DUP11 JUMP JUMPDEST PUSH0 DUP2 DUP2 MSTORE PUSH1 0x20 DUP2 SWAP1 MSTORE PUSH1 0x40 SWAP1 KECCAK256 PUSH1 0x5 DUP2 ADD SLOAD PUSH1 0xFF AND PUSH2 0x986 JUMPI PUSH1 0x40 MLOAD PUSH3 0x461BCD PUSH1 0xE5 SHL DUP2 MSTORE PUSH1 0x4 ADD PUSH2 0x6C1 SWAP1 PUSH2 0x2477 JUMP JUMPDEST PUSH0 DUP2 PUSH1 0x6 ADD SLOAD GT PUSH2 0x9CD JUMPI PUSH1 0x40 MLOAD PUSH3 0x461BCD PUSH1 0xE5 SHL DUP2 MSTORE PUSH1 0x20 PUSH1 0x4 DUP3 ADD MSTORE PUSH1 0x11 PUSH1 0x24 DUP3 ADD MSTORE PUSH17 0x10DA185B58481B9BDD081CDD185C9D1959 PUSH1 0x7A SHL PUSH1 0x44 DUP3 ADD MSTORE PUSH1 0x64 ADD PUSH2 0x6C1 JUMP JUMPDEST DUP1 PUSH1 0x2 ADD SLOAD DUP2 PUSH1 0x8 ADD SLOAD PUSH2 0x9E1 SWAP2 SWAP1 PUSH2 0x242C JUMP JUMPDEST TIMESTAMP LT ISZERO PUSH2 0xA24 JUMPI PUSH1 0x40 MLOAD PUSH3 0x461BCD PUSH1 0xE5 SHL DUP2 MSTORE PUSH1 0x20 PUSH1 0x4 DUP3 ADD MSTORE PUSH1 0x11 PUSH1 0x24 DUP3 ADD MSTORE PUSH17 0x10DE58DB19481B9BDD08195E1C1A5C9959 PUSH1 0x7A SHL PUSH1 0x44 DUP3 ADD MSTORE PUSH1 0x64 ADD PUSH2 0x6C1 JUMP JUMPDEST PUSH0 JUMPDEST PUSH1 0x4 DUP3 ADD SLOAD DUP2 LT ISZERO PUSH2 0xB29 JUMPI PUSH0 DUP3 PUSH1 0x4 ADD DUP3 DUP2 SLOAD DUP2 LT PUSH2 0xA48 JUMPI PUSH2 0xA48 PUSH2 0x23ED JUMP JUMPDEST PUSH0 SWAP2 DUP3 MSTORE PUSH1 0x20 DUP1 DUP4 KECCAK256 SWAP1 SWAP2 ADD SLOAD PUSH1 0x1 PUSH1 0x1 PUSH1 0xA0 SHL SUB AND DUP1 DUP4 MSTORE PUSH1 0x7 DUP3 MSTORE PUSH1 0x40 DUP1 DUP5 KECCAK256 DUP9 DUP6 MSTORE SWAP1 SWAP3 MSTORE SWAP2 KECCAK256 SLOAD SWAP1 SWAP2 POP PUSH1 0xFF AND PUSH2 0xB20 JUMPI PUSH1 0x1 PUSH1 0x1 PUSH1 0xA0 SHL SUB DUP2 AND PUSH0 SWAP1 DUP2 MSTORE PUSH1 0x10 DUP5 ADD PUSH1 0x20 MSTORE PUSH1 0x40 SWAP1 KECCAK256 SLOAD DUP1 ISZERO PUSH2 0xB1E JUMPI PUSH1 0x1 PUSH1 0x1 PUSH1 0xA0 SHL SUB DUP3 AND PUSH0 SWAP1 DUP2 MSTORE PUSH1 0x10 DUP6 ADD PUSH1 0x20 SWAP1 DUP2 MSTORE PUSH1 0x40 DUP1 DUP4 KECCAK256 DUP4 SWAP1 SSTORE PUSH1 0x6 DUP8 ADD SLOAD DUP4 MSTORE PUSH1 0xD DUP8 ADD SWAP1 SWAP2 MSTORE DUP2 KECCAK256 DUP1 SLOAD DUP4 SWAP3 SWAP1 PUSH2 0xADC SWAP1 DUP5 SWAP1 PUSH2 0x242C JUMP JUMPDEST SWAP1 SWAP2 SSTORE POP POP PUSH1 0x40 MLOAD PUSH32 0x9ED6C8E3F152B165733C0AA8EF3B791333859FB2EBCEFD11171ADE0C13814F69 SWAP1 PUSH2 0xB15 SWAP1 DUP8 SWAP1 DUP6 SWAP1 DUP6 SWAP1 PUSH2 0x24A1 JUMP JUMPDEST PUSH1 0x40 MLOAD DUP1 SWAP2 SUB SWAP1 LOG1 JUMPDEST POP JUMPDEST POP PUSH1 0x1 ADD PUSH2 0xA26 JUMP JUMPDEST POP PUSH2 0xB33 DUP3 PUSH2 0x1AA0 JUMP JUMPDEST POP POP JUMP JUMPDEST DUP1 PUSH0 DUP2 GT DUP1 ISZERO PUSH2 0xB49 JUMPI POP PUSH1 0x8 SLOAD DUP2 GT ISZERO JUMPDEST PUSH2 0xB8C JUMPI PUSH1 0x40 MLOAD PUSH3 0x461BCD PUSH1 0xE5 SHL DUP2 MSTORE PUSH1 0x20 PUSH1 0x4 DUP3 ADD MSTORE PUSH1 0x14 PUSH1 0x24 DUP3 ADD MSTORE PUSH20 0x10DA185B5848191BD95CC81B9BDD08195E1A5CDD PUSH1 0x62 SHL PUSH1 0x44 DUP3 ADD MSTORE PUSH1 0x64 ADD PUSH2 0x6C1 JUMP JUMPDEST PUSH0 DUP3 DUP2 MSTORE PUSH1 0x20 DUP2 SWAP1 MSTORE PUSH1 0x40 SWAP1 KECCAK256 PUSH1 0x5 ADD SLOAD DUP3 SWAP1 PUSH1 0xFF AND PUSH2 0xBBE JUMPI PUSH1 0x40 MLOAD PUSH3 0x461BCD PUSH1 0xE5 SHL DUP2 MSTORE PUSH1 0x4 ADD PUSH2 0x6C1 SWAP1 PUSH2 0x2477 JUMP JUMPDEST PUSH0 DUP4 DUP2 MSTORE PUSH1 0x20 DUP2 DUP2 MSTORE PUSH1 0x40 DUP1 DUP4 KECCAK256 CALLER DUP5 MSTORE PUSH1 0xB DUP2 ADD SWAP1 SWAP3 MSTORE SWAP1 SWAP2 KECCAK256 SLOAD PUSH1 0xFF AND ISZERO PUSH2 0xC1D JUMPI PUSH1 0x40 MLOAD PUSH3 0x461BCD PUSH1 0xE5 SHL DUP2 MSTORE PUSH1 0x20 PUSH1 0x4 DUP3 ADD MSTORE PUSH1 0x10 PUSH1 0x24 DUP3 ADD MSTORE PUSH16 0x20B63932B0B23C90309036B2B6B132B9 PUSH1 0x81 SHL PUSH1 0x44 DUP3 ADD MSTORE PUSH1 0x64 ADD PUSH2 0x6C1 JUMP JUMPDEST PUSH1 0x3 DUP2 ADD SLOAD PUSH1 0x4 DUP3 ADD SLOAD LT PUSH2 0xC61 JUMPI PUSH1 0x40 MLOAD PUSH3 0x461BCD PUSH1 0xE5 SHL DUP2 MSTORE PUSH1 0x20 PUSH1 0x4 DUP3 ADD MSTORE PUSH1 0xA PUSH1 0x24 DUP3 ADD MSTORE PUSH10 0x10DA185B5848199D5B1B PUSH1 0xB2 SHL PUSH1 0x44 DUP3 ADD MSTORE PUSH1 0x64 ADD PUSH2 0x6C1 JUMP JUMPDEST DUP1 PUSH1 0x1 ADD SLOAD CALLVALUE LT ISZERO PUSH2 0xCB5 JUMPI PUSH1 0x40 MLOAD PUSH3 0x461BCD PUSH1 0xE5 SHL DUP2 MSTORE PUSH1 0x20 PUSH1 0x4 DUP3 ADD MSTORE PUSH1 0x17 PUSH1 0x24 DUP3 ADD MSTORE PUSH32 0x496E73756666696369656E7420636F6C6C61746572616C000000000000000000 PUSH1 0x44 DUP3 ADD MSTORE PUSH1 0x64 ADD PUSH2 0x6C1 JUMP JUMPDEST PUSH1 0x4 DUP2 ADD DUP1 SLOAD PUSH1 0x1 DUP1 DUP3 ADD DUP4 SSTORE PUSH0 SWAP3 DUP4 MSTORE PUSH1 0x20 DUP1 DUP5 KECCAK256 DUP4 ADD DUP1 SLOAD PUSH1 0x1 PUSH1 0x1 PUSH1 0xA0 SHL SUB NOT AND CALLER SWAP1 DUP2 OR SWAP1 SWAP2 SSTORE DUP1 DUP6 MSTORE PUSH1 0xB DUP7 ADD DUP3 MSTORE PUSH1 0x40 DUP1 DUP7 KECCAK256 DUP1 SLOAD PUSH1 0xFF NOT AND DUP6 OR SWAP1 SSTORE PUSH1 0xC DUP8 ADD DUP4 MSTORE DUP1 DUP7 KECCAK256 DUP6 SWAP1 SSTORE PUSH1 0xA DUP8 ADD DUP1 SLOAD SWAP5 DUP6 ADD DUP2 SSTORE DUP7 MSTORE DUP3 DUP7 KECCAK256 DUP4 DUP6 DIV ADD DUP1 SLOAD PUSH1 0x1F SWAP1 SWAP6 AND PUSH2 0x100 EXP PUSH1 0xFF MUL NOT SWAP1 SWAP5 AND SWAP1 SWAP4 SSTORE DUP5 MSTORE PUSH1 0x10 DUP6 ADD SWAP1 MSTORE DUP3 KECCAK256 CALLVALUE SWAP1 DUP2 SWAP1 SSTORE PUSH1 0x12 DUP5 ADD DUP1 SLOAD SWAP3 SWAP4 SWAP2 SWAP3 SWAP1 SWAP2 SWAP1 PUSH2 0xD54 SWAP1 DUP5 SWAP1 PUSH2 0x242C JUMP JUMPDEST SWAP1 SWAP2 SSTORE POP POP CALLER PUSH0 DUP2 DUP2 MSTORE PUSH1 0x4 PUSH1 0x20 SWAP1 DUP2 MSTORE PUSH1 0x40 DUP1 DUP4 KECCAK256 DUP1 SLOAD PUSH1 0x1 DUP2 DUP2 ADD DUP4 SSTORE SWAP2 DUP6 MSTORE DUP4 DUP6 KECCAK256 ADD DUP11 SWAP1 SSTORE SWAP4 DUP4 MSTORE SWAP3 SWAP1 MSTORE SWAP1 DUP2 KECCAK256 DUP1 SLOAD PUSH1 0x32 SWAP3 SWAP1 PUSH2 0xD97 SWAP1 DUP5 SWAP1 PUSH2 0x242C JUMP JUMPDEST SWAP1 SWAP2 SSTORE POP POP PUSH1 0x40 DUP1 MLOAD DUP7 DUP2 MSTORE CALLER PUSH1 0x20 DUP3 ADD MSTORE PUSH32 0x40A8C7A25E1EAB32F305B79614CB4EB53A2D5D546BC4A5B0B55E5A7DC1228DCE SWAP2 ADD PUSH1 0x40 MLOAD DUP1 SWAP2 SUB SWAP1 LOG1 PUSH32 0xEEC2F3FEB835E2F2FD44281034B04700A1DDDA63DD402949D470A25A7C40B36C DUP6 CALLER CALLVALUE PUSH1 0x40 MLOAD PUSH2 0xE07 SWAP4 SWAP3 SWAP2 SWAP1 PUSH2 0x24A1 JUMP JUMPDEST PUSH1 0x40 MLOAD DUP1 SWAP2 SUB SWAP1 LOG1 PUSH1 0x3 DUP3 ADD SLOAD PUSH1 0x4 DUP4 ADD SLOAD SUB PUSH2 0xE27 JUMPI PUSH2 0xE27 DUP6 PUSH2 0x1C78 JUMP JUMPDEST POP POP POP POP POP JUMP JUMPDEST PUSH0 DUP3 DUP2 MSTORE PUSH1 0x20 DUP2 DUP2 MSTORE PUSH1 0x40 DUP1 DUP4 KECCAK256 PUSH1 0x1 PUSH1 0x1 PUSH1 0xA0 SHL SUB DUP6 AND DUP5 MSTORE PUSH1 0x11 ADD SWAP1 SWAP2 MSTORE SWAP1 KECCAK256 SLOAD PUSH1 0xFF AND JUMPDEST SWAP3 SWAP2 POP POP JUMP JUMPDEST PUSH1 0x4 PUSH1 0x20 MSTORE DUP2 PUSH0 MSTORE PUSH1 0x40 PUSH0 KECCAK256 DUP2 DUP2 SLOAD DUP2 LT PUSH2 0xE74 JUMPI PUSH0 DUP1 REVERT JUMPDEST SWAP1 PUSH0 MSTORE PUSH1 0x20 PUSH0 KECCAK256 ADD PUSH0 SWAP2 POP SWAP2 POP POP SLOAD DUP2 JUMP JUMPDEST PUSH1 0x3 PUSH1 0x20 MSTORE DUP2 PUSH0 MSTORE PUSH1 0x40 PUSH0 KECCAK256 DUP2 DUP2 SLOAD DUP2 LT PUSH2 0xE9F JUMPI PUSH0 DUP1 REVERT JUMPDEST PUSH0 SWAP2 DUP3 MSTORE PUSH1 0x20 SWAP1 SWAP2 KECCAK256 PUSH1 0x3 SWAP1 SWAP2 MUL ADD DUP1 SLOAD PUSH1 0x1 DUP3 ADD SLOAD PUSH1 0x2 SWAP1 SWAP3 ADD SLOAD PUSH1 0x1 PUSH1 0x1 PUSH1 0xA0 SHL SUB SWAP1 SWAP2 AND SWAP4 POP SWAP1 SWAP2 POP DUP4 JUMP JUMPDEST PUSH0 DUP3 DUP2 MSTORE PUSH1 0x20 DUP2 DUP2 MSTORE PUSH1 0x40 DUP1 DUP4 KECCAK256 PUSH1 0x1 PUSH1 0x1 PUSH1 0xA0 SHL SUB DUP6 AND DUP5 MSTORE PUSH1 0xB ADD SWAP1 SWAP2 MSTORE DUP2 KECCAK256 SLOAD PUSH1 0xFF AND PUSH2 0xF10 JUMPI PUSH1 0x40 MLOAD PUSH3 0x461BCD PUSH1 0xE5 SHL DUP2 MSTORE PUSH1 0x4 ADD PUSH2 0x6C1 SWAP1 PUSH2 0x23C7 JUMP JUMPDEST POP PUSH0 DUP3 DUP2 MSTORE PUSH1 0x20 DUP2 DUP2 MSTORE PUSH1 0x40 DUP1 DUP4 KECCAK256 PUSH1 0x1 PUSH1 0x1 PUSH1 0xA0 SHL SUB DUP6 AND DUP5 MSTORE PUSH1 0xC ADD SWAP1 SWAP2 MSTORE SWAP1 KECCAK256 SLOAD SWAP3 SWAP2 POP POP JUMP JUMPDEST PUSH0 DUP3 DUP2 MSTORE PUSH1 0x20 DUP2 DUP2 MSTORE PUSH1 0x40 DUP1 DUP4 KECCAK256 PUSH1 0x1 PUSH1 0x1 PUSH1 0xA0 SHL SUB DUP6 AND DUP5 MSTORE PUSH1 0xB ADD SWAP1 SWAP2 MSTORE DUP2 KECCAK256 SLOAD PUSH1 0xFF AND PUSH2 0xF7C JUMPI PUSH1 0x40 MLOAD PUSH3 0x461BCD PUSH1 0xE5 SHL DUP2 MSTORE PUSH1 0x4 ADD PUSH2 0x6C1 SWAP1 PUSH2 0x23C7 JUMP JUMPDEST PUSH0 DUP4 DUP2 MSTORE PUSH1 0x20 DUP2 DUP2 MSTORE PUSH1 0x40 DUP1 DUP4 KECCAK256 PUSH1 0x1 PUSH1 0x1 PUSH1 0xA0 SHL SUB DUP7 AND DUP5 MSTORE PUSH1 0xC DUP2 ADD DUP4 MSTORE SWAP1 DUP4 KECCAK256 SLOAD DUP7 DUP5 MSTORE SWAP3 SWAP1 SWAP2 MSTORE PUSH1 0xA ADD DUP1 SLOAD DUP3 SWAP1 DUP2 LT PUSH2 0xFBC JUMPI PUSH2 0xFBC PUSH2 0x23ED JUMP JUMPDEST SWAP1 PUSH0 MSTORE PUSH1 0x20 PUSH0 KECCAK256 SWAP1 PUSH1 0x20 SWAP2 DUP3 DUP3 DIV ADD SWAP2 SWAP1 MOD SWAP1 SLOAD SWAP1 PUSH2 0x100 EXP SWAP1 DIV PUSH1 0xFF AND SWAP2 POP POP SWAP3 SWAP2 POP POP JUMP JUMPDEST PUSH0 DUP2 DUP2 MSTORE PUSH1 0x20 DUP2 DUP2 MSTORE PUSH1 0x40 DUP1 DUP4 KECCAK256 CALLER DUP5 MSTORE PUSH1 0xB ADD SWAP1 SWAP2 MSTORE SWAP1 KECCAK256 SLOAD DUP2 SWAP1 PUSH1 0xFF AND PUSH2 0x1043 JUMPI PUSH1 0x40 MLOAD PUSH3 0x461BCD PUSH1 0xE5 SHL DUP2 MSTORE PUSH1 0x20 PUSH1 0x4 DUP3 ADD MSTORE PUSH1 0x12 PUSH1 0x24 DUP3 ADD MSTORE PUSH18 0x2737BA10309031B430B6B09036B2B6B132B9 PUSH1 0x71 SHL PUSH1 0x44 DUP3 ADD MSTORE PUSH1 0x64 ADD PUSH2 0x6C1 JUMP JUMPDEST PUSH0 DUP3 DUP2 MSTORE PUSH1 0x20 DUP2 SWAP1 MSTORE PUSH1 0x40 SWAP1 KECCAK256 PUSH1 0x5 ADD SLOAD DUP3 SWAP1 PUSH1 0xFF AND PUSH2 0x1075 JUMPI PUSH1 0x40 MLOAD PUSH3 0x461BCD PUSH1 0xE5 SHL DUP2 MSTORE PUSH1 0x4 ADD PUSH2 0x6C1 SWAP1 PUSH2 0x2477 JUMP JUMPDEST PUSH0 DUP4 DUP2 MSTORE PUSH1 0x20 DUP2 SWAP1 MSTORE PUSH1 0x40 SWAP1 KECCAK256 PUSH1 0x1 DUP2 ADD SLOAD CALLVALUE LT ISZERO PUSH2 0x10CF JUMPI PUSH1 0x40 MLOAD PUSH3 0x461BCD PUSH1 0xE5 SHL DUP2 MSTORE PUSH1 0x20 PUSH1 0x4 DUP3 ADD MSTORE PUSH1 0x16 PUSH1 0x24 DUP3 ADD MSTORE PUSH22 0x2132B637BB9036B4B71031B7B73A3934B13ABA34B7B7 PUSH1 0x51 SHL PUSH1 0x44 DUP3 ADD MSTORE PUSH1 0x64 ADD PUSH2 0x6C1 JUMP JUMPDEST PUSH0 DUP2 PUSH1 0x6 ADD SLOAD GT PUSH2 0x1116 JUMPI PUSH1 0x40 MLOAD PUSH3 0x461BCD PUSH1 0xE5 SHL DUP2 MSTORE PUSH1 0x20 PUSH1 0x4 DUP3 ADD MSTORE PUSH1 0x11 PUSH1 0x24 DUP3 ADD MSTORE PUSH17 0x10DA185B58481B9BDD081CDD185C9D1959 PUSH1 0x7A SHL PUSH1 0x44 DUP3 ADD MSTORE PUSH1 0x64 ADD PUSH2 0x6C1 JUMP JUMPDEST CALLER PUSH0 SWAP1 DUP2 MSTORE PUSH1 0x7 PUSH1 0x20 SWAP1 DUP2 MSTORE PUSH1 0x40 DUP1 DUP4 KECCAK256 DUP8 DUP5 MSTORE SWAP1 SWAP2 MSTORE SWAP1 KECCAK256 SLOAD PUSH1 0xFF AND ISZERO PUSH2 0x1180 JUMPI PUSH1 0x40 MLOAD PUSH3 0x461BCD PUSH1 0xE5 SHL DUP2 MSTORE PUSH1 0x20 PUSH1 0x4 DUP3 ADD MSTORE PUSH1 0x1E PUSH1 0x24 DUP3 ADD MSTORE PUSH32 0x416C726561647920636F6E74726962757465642074686973206379636C650000 PUSH1 0x44 DUP3 ADD MSTORE PUSH1 0x64 ADD PUSH2 0x6C1 JUMP JUMPDEST DUP1 PUSH1 0x2 ADD SLOAD DUP2 PUSH1 0x8 ADD SLOAD PUSH2 0x1194 SWAP2 SWAP1 PUSH2 0x242C JUMP JUMPDEST TIMESTAMP LT ISZERO DUP1 PUSH2 0x11A6 JUMPI POP DUP1 PUSH1 0x6 ADD SLOAD PUSH1 0x1 EQ JUMPDEST PUSH2 0x11E4 JUMPI PUSH1 0x40 MLOAD PUSH3 0x461BCD PUSH1 0xE5 SHL DUP2 MSTORE PUSH1 0x20 PUSH1 0x4 DUP3 ADD MSTORE PUSH1 0xF PUSH1 0x24 DUP3 ADD MSTORE PUSH15 0x4379636C65206E6F74207265616479 PUSH1 0x88 SHL PUSH1 0x44 DUP3 ADD MSTORE PUSH1 0x64 ADD PUSH2 0x6C1 JUMP JUMPDEST PUSH0 DUP5 DUP2 MSTORE PUSH1 0x3 PUSH1 0x20 DUP2 DUP2 MSTORE PUSH1 0x40 DUP1 DUP5 KECCAK256 DUP2 MLOAD PUSH1 0x60 DUP2 ADD DUP4 MSTORE CALLER DUP1 DUP3 MSTORE CALLVALUE DUP3 DUP7 ADD DUP2 DUP2 MSTORE TIMESTAMP DUP5 DUP8 ADD SWAP1 DUP2 MSTORE DUP6 SLOAD PUSH1 0x1 DUP1 DUP3 ADD DUP9 SSTORE SWAP7 DUP12 MSTORE DUP9 DUP12 KECCAK256 SWAP6 MLOAD SWAP10 MUL SWAP1 SWAP5 ADD DUP1 SLOAD PUSH1 0x1 PUSH1 0x1 PUSH1 0xA0 SHL SUB NOT AND PUSH1 0x1 PUSH1 0x1 PUSH1 0xA0 SHL SUB SWAP1 SWAP10 AND SWAP9 SWAP1 SWAP9 OR DUP9 SSTORE MLOAD SWAP4 DUP8 ADD SWAP4 SWAP1 SWAP4 SSTORE SWAP1 MLOAD PUSH1 0x2 SWAP1 SWAP6 ADD SWAP5 SWAP1 SWAP5 SSTORE SWAP3 DUP5 MSTORE PUSH1 0x5 DUP3 MSTORE DUP1 DUP5 KECCAK256 DUP9 DUP6 MSTORE SWAP1 SWAP2 MSTORE DUP3 KECCAK256 DUP1 SLOAD SWAP2 SWAP3 SWAP1 SWAP2 PUSH2 0x1277 SWAP1 DUP5 SWAP1 PUSH2 0x242C JUMP JUMPDEST SWAP1 SWAP2 SSTORE POP POP CALLER PUSH0 DUP2 DUP2 MSTORE PUSH1 0x6 PUSH1 0x20 DUP2 DUP2 MSTORE PUSH1 0x40 DUP1 DUP5 KECCAK256 DUP10 DUP6 MSTORE DUP3 MSTORE DUP1 DUP5 KECCAK256 TIMESTAMP SWAP1 SSTORE SWAP4 DUP4 MSTORE PUSH1 0x7 DUP2 MSTORE DUP4 DUP4 KECCAK256 DUP9 DUP5 MSTORE DUP2 MSTORE DUP4 DUP4 KECCAK256 DUP1 SLOAD PUSH1 0xFF NOT AND PUSH1 0x1 OR SWAP1 SSTORE SWAP1 DUP5 ADD SLOAD DUP3 MSTORE PUSH1 0xD DUP5 ADD SWAP1 MSTORE SWAP1 DUP2 KECCAK256 DUP1 SLOAD CALLVALUE SWAP3 SWAP1 PUSH2 0x12D4 SWAP1 DUP5 SWAP1 PUSH2 0x242C JUMP JUMPDEST SWAP3 POP POP DUP2 SWAP1 SSTORE POP CALLVALUE DUP2 PUSH1 0x9 ADD PUSH0 DUP3 DUP3 SLOAD PUSH2 0x12EE SWAP2 SWAP1 PUSH2 0x242C JUMP JUMPDEST SWAP1 SWAP2 SSTORE POP POP CALLER PUSH0 SWAP1 DUP2 MSTORE PUSH1 0x1 PUSH1 0x20 MSTORE PUSH1 0x40 DUP2 KECCAK256 DUP1 SLOAD PUSH1 0x19 SWAP3 SWAP1 PUSH2 0x1312 SWAP1 DUP5 SWAP1 PUSH2 0x242C JUMP JUMPDEST SWAP1 SWAP2 SSTORE POP POP PUSH1 0x40 MLOAD PUSH32 0xA4A91237423E0A1766A761C7CB029311D8B95D6B1B81DB1B949A70C98B4E08E SWAP1 PUSH2 0x134B SWAP1 DUP7 SWAP1 CALLER SWAP1 CALLVALUE SWAP1 PUSH2 0x24A1 JUMP JUMPDEST PUSH1 0x40 MLOAD DUP1 SWAP2 SUB SWAP1 LOG1 PUSH2 0x135C DUP5 PUSH2 0x1CDA JUMP JUMPDEST POP POP POP POP JUMP JUMPDEST PUSH1 0x9 SLOAD PUSH1 0x1 PUSH1 0x1 PUSH1 0xA0 SHL SUB AND CALLER EQ PUSH2 0x13A9 JUMPI PUSH1 0x40 MLOAD PUSH3 0x461BCD PUSH1 0xE5 SHL DUP2 MSTORE PUSH1 0x20 PUSH1 0x4 DUP3 ADD MSTORE PUSH1 0xA PUSH1 0x24 DUP3 ADD MSTORE PUSH10 0x27B7363C9037BBB732B9 PUSH1 0xB1 SHL PUSH1 0x44 DUP3 ADD MSTORE PUSH1 0x64 ADD PUSH2 0x6C1 JUMP JUMPDEST PUSH1 0x1 PUSH1 0x1 PUSH1 0xA0 SHL SUB DUP3 AND PUSH0 SWAP1 DUP2 MSTORE PUSH1 0x1 PUSH1 0x20 MSTORE PUSH1 0x40 DUP2 KECCAK256 DUP1 SLOAD DUP4 SWAP3 SWAP1 PUSH2 0x13D0 SWAP1 DUP5 SWAP1 PUSH2 0x242C JUMP JUMPDEST SWAP1 SWAP2 SSTORE POP POP POP POP JUMP JUMPDEST PUSH1 0x60 PUSH0 PUSH0 PUSH0 PUSH0 PUSH0 PUSH0 PUSH0 PUSH0 PUSH0 PUSH0 PUSH0 PUSH0 DUP14 DUP2 MSTORE PUSH1 0x20 ADD SWAP1 DUP2 MSTORE PUSH1 0x20 ADD PUSH0 KECCAK256 SWAP1 POP DUP1 PUSH0 ADD DUP2 PUSH1 0x1 ADD SLOAD DUP3 PUSH1 0x2 ADD SLOAD DUP4 PUSH1 0x3 ADD SLOAD DUP5 PUSH1 0x5 ADD PUSH0 SWAP1 SLOAD SWAP1 PUSH2 0x100 EXP SWAP1 DIV PUSH1 0xFF AND DUP6 PUSH1 0x6 ADD SLOAD DUP7 PUSH1 0x7 ADD SLOAD DUP8 PUSH1 0x8 ADD SLOAD DUP9 PUSH1 0x9 ADD SLOAD DUP10 PUSH1 0x12 ADD SLOAD DUP10 DUP1 SLOAD PUSH2 0x143F SWAP1 PUSH2 0x243F JUMP JUMPDEST DUP1 PUSH1 0x1F ADD PUSH1 0x20 DUP1 SWAP2 DIV MUL PUSH1 0x20 ADD PUSH1 0x40 MLOAD SWAP1 DUP2 ADD PUSH1 0x40 MSTORE DUP1 SWAP3 SWAP2 SWAP1 DUP2 DUP2 MSTORE PUSH1 0x20 ADD DUP3 DUP1 SLOAD PUSH2 0x146B SWAP1 PUSH2 0x243F JUMP JUMPDEST DUP1 ISZERO PUSH2 0x14B6 JUMPI DUP1 PUSH1 0x1F LT PUSH2 0x148D JUMPI PUSH2 0x100 DUP1 DUP4 SLOAD DIV MUL DUP4 MSTORE SWAP2 PUSH1 0x20 ADD SWAP2 PUSH2 0x14B6 JUMP JUMPDEST DUP3 ADD SWAP2 SWAP1 PUSH0 MSTORE PUSH1 0x20 PUSH0 KECCAK256 SWAP1 JUMPDEST DUP2 SLOAD DUP2 MSTORE SWAP1 PUSH1 0x1 ADD SWAP1 PUSH1 0x20 ADD DUP1 DUP4 GT PUSH2 0x1499 JUMPI DUP3 SWAP1 SUB PUSH1 0x1F AND DUP3 ADD SWAP2 JUMPDEST POP POP POP POP POP SWAP10 POP SWAP11 POP SWAP11 POP SWAP11 POP SWAP11 POP SWAP11 POP SWAP11 POP SWAP11 POP SWAP11 POP SWAP11 POP SWAP11 POP POP SWAP2 SWAP4 SWAP6 SWAP8 SWAP10 POP SWAP2 SWAP4 SWAP6 SWAP8 SWAP10 JUMP JUMPDEST PUSH1 0x2 PUSH1 0x20 MSTORE DUP2 PUSH0 MSTORE PUSH1 0x40 PUSH0 KECCAK256 DUP2 DUP2 SLOAD DUP2 LT PUSH2 0x14F8 JUMPI PUSH0 DUP1 REVERT JUMPDEST SWAP1 PUSH0 MSTORE PUSH1 0x20 PUSH0 KECCAK256 ADD PUSH0 SWAP2 POP SWAP2 POP POP DUP1 SLOAD PUSH2 0x1511 SWAP1 PUSH2 0x243F JUMP JUMPDEST DUP1 PUSH1 0x1F ADD PUSH1 0x20 DUP1 SWAP2 DIV MUL PUSH1 0x20 ADD PUSH1 0x40 MLOAD SWAP1 DUP2 ADD PUSH1 0x40 MSTORE DUP1 SWAP3 SWAP2 SWAP1 DUP2 DUP2 MSTORE PUSH1 0x20 ADD DUP3 DUP1 SLOAD PUSH2 0x153D SWAP1 PUSH2 0x243F JUMP JUMPDEST DUP1 ISZERO PUSH2 0x1588 JUMPI DUP1 PUSH1 0x1F LT PUSH2 0x155F JUMPI PUSH2 0x100 DUP1 DUP4 SLOAD DIV MUL DUP4 MSTORE SWAP2 PUSH1 0x20 ADD SWAP2 PUSH2 0x1588 JUMP JUMPDEST DUP3 ADD SWAP2 SWAP1 PUSH0 MSTORE PUSH1 0x20 PUSH0 KECCAK256 SWAP1 JUMPDEST DUP2 SLOAD DUP2 MSTORE SWAP1 PUSH1 0x1 ADD SWAP1 PUSH1 0x20 ADD DUP1 DUP4 GT PUSH2 0x156B JUMPI DUP3 SWAP1 SUB PUSH1 0x1F AND DUP3 ADD SWAP2 JUMPDEST POP POP POP POP POP DUP2 JUMP JUMPDEST PUSH0 DUP2 DUP2 MSTORE PUSH1 0x20 DUP2 DUP2 MSTORE PUSH1 0x40 SWAP2 DUP3 SWAP1 KECCAK256 PUSH1 0x4 ADD DUP1 SLOAD DUP4 MLOAD DUP2 DUP5 MUL DUP2 ADD DUP5 ADD SWAP1 SWAP5 MSTORE DUP1 DUP5 MSTORE PUSH1 0x60 SWAP4 SWAP3 DUP4 ADD DUP3 DUP3 DUP1 ISZERO PUSH2 0x15EE JUMPI PUSH1 0x20 MUL DUP3 ADD SWAP2 SWAP1 PUSH0 MSTORE PUSH1 0x20 PUSH0 KECCAK256 SWAP1 JUMPDEST DUP2 SLOAD PUSH1 0x1 PUSH1 0x1 PUSH1 0xA0 SHL SUB AND DUP2 MSTORE PUSH1 0x1 SWAP1 SWAP2 ADD SWAP1 PUSH1 0x20 ADD DUP1 DUP4 GT PUSH2 0x15D0 JUMPI JUMPDEST POP POP POP POP POP SWAP1 POP SWAP2 SWAP1 POP JUMP JUMPDEST DUP1 PUSH0 DUP2 GT DUP1 ISZERO PUSH2 0x160C JUMPI POP PUSH1 0x8 SLOAD DUP2 GT ISZERO JUMPDEST PUSH2 0x164F JUMPI PUSH1 0x40 MLOAD PUSH3 0x461BCD PUSH1 0xE5 SHL DUP2 MSTORE PUSH1 0x20 PUSH1 0x4 DUP3 ADD MSTORE PUSH1 0x14 PUSH1 0x24 DUP3 ADD MSTORE PUSH20 0x10DA185B5848191BD95CC81B9BDD08195E1A5CDD PUSH1 0x62 SHL PUSH1 0x44 DUP3 ADD MSTORE PUSH1 0x64 ADD PUSH2 0x6C1 JUMP JUMPDEST PUSH0 DUP3 DUP2 MSTORE PUSH1 0x20 DUP2 SWAP1 MSTORE PUSH1 0x40 SWAP1 KECCAK256 PUSH1 0x5 ADD SLOAD DUP3 SWAP1 PUSH1 0xFF AND PUSH2 0x1681 JUMPI PUSH1 0x40 MLOAD PUSH3 0x461BCD PUSH1 0xE5 SHL DUP2 MSTORE PUSH1 0x4 ADD PUSH2 0x6C1 SWAP1 PUSH2 0x2477 JUMP JUMPDEST PUSH0 DUP4 DUP2 MSTORE PUSH1 0x20 DUP2 SWAP1 MSTORE PUSH1 0x40 SWAP1 KECCAK256 PUSH1 0x6 DUP2 ADD SLOAD ISZERO PUSH2 0x16D8 JUMPI PUSH1 0x40 MLOAD PUSH3 0x461BCD PUSH1 0xE5 SHL DUP2 MSTORE PUSH1 0x20 PUSH1 0x4 DUP3 ADD MSTORE PUSH1 0x15 PUSH1 0x24 DUP3 ADD MSTORE PUSH21 0x10DA185B5848185B1C9958591E481CDD185C9D1959 PUSH1 0x5A SHL PUSH1 0x44 DUP3 ADD MSTORE PUSH1 0x64 ADD PUSH2 0x6C1 JUMP JUMPDEST CALLER PUSH0 SWAP1 DUP2 MSTORE PUSH1 0xB DUP3 ADD PUSH1 0x20 MSTORE PUSH1 0x40 SWAP1 KECCAK256 SLOAD PUSH1 0xFF AND PUSH2 0x1731 JUMPI PUSH1 0x40 MLOAD PUSH3 0x461BCD PUSH1 0xE5 SHL DUP2 MSTORE PUSH1 0x20 PUSH1 0x4 DUP3 ADD MSTORE PUSH1 0x16 PUSH1 0x24 DUP3 ADD MSTORE PUSH22 0x13DB9B1E481B595B58995C9CC818D85B881CDD185C9D PUSH1 0x52 SHL PUSH1 0x44 DUP3 ADD MSTORE PUSH1 0x64 ADD PUSH2 0x6C1 JUMP JUMPDEST PUSH1 0x4 DUP2 ADD SLOAD PUSH1 0x3 GT ISZERO PUSH2 0x1786 JUMPI PUSH1 0x40 MLOAD PUSH3 0x461BCD PUSH1 0xE5 SHL DUP2 MSTORE PUSH1 0x20 PUSH1 0x4 DUP3 ADD MSTORE PUSH1 0x17 PUSH1 0x24 DUP3 ADD MSTORE PUSH32 0x4E656564206174206C656173742033206D656D62657273000000000000000000 PUSH1 0x44 DUP3 ADD MSTORE PUSH1 0x64 ADD PUSH2 0x6C1 JUMP JUMPDEST PUSH2 0x135C DUP5 PUSH2 0x1C78 JUMP JUMPDEST PUSH0 DUP4 GT PUSH2 0x17DE JUMPI PUSH1 0x40 MLOAD PUSH3 0x461BCD PUSH1 0xE5 SHL DUP2 MSTORE PUSH1 0x20 PUSH1 0x4 DUP3 ADD MSTORE PUSH1 0x18 PUSH1 0x24 DUP3 ADD MSTORE PUSH32 0x436F6E747269627574696F6E206D757374206265203E20300000000000000000 PUSH1 0x44 DUP3 ADD MSTORE PUSH1 0x64 ADD PUSH2 0x6C1 JUMP JUMPDEST PUSH3 0x93A80 DUP3 LT ISZERO PUSH2 0x1831 JUMPI PUSH1 0x40 MLOAD PUSH3 0x461BCD PUSH1 0xE5 SHL DUP2 MSTORE PUSH1 0x20 PUSH1 0x4 DUP3 ADD MSTORE PUSH1 0x17 PUSH1 0x24 DUP3 ADD MSTORE PUSH32 0x4379636C65206D757374206265203E3D20372064617973000000000000000000 PUSH1 0x44 DUP3 ADD MSTORE PUSH1 0x64 ADD PUSH2 0x6C1 JUMP JUMPDEST PUSH1 0x3 DUP2 LT ISZERO DUP1 ISZERO PUSH2 0x1843 JUMPI POP PUSH1 0x14 DUP2 GT ISZERO JUMPDEST PUSH2 0x187F JUMPI PUSH1 0x40 MLOAD PUSH3 0x461BCD PUSH1 0xE5 SHL DUP2 MSTORE PUSH1 0x20 PUSH1 0x4 DUP3 ADD MSTORE PUSH1 0xD PUSH1 0x24 DUP3 ADD MSTORE PUSH13 0x4D656D626572733A20332D323 PUSH1 0x9C SHL PUSH1 0x44 DUP3 ADD MSTORE PUSH1 0x64 ADD PUSH2 0x6C1 JUMP JUMPDEST DUP3 CALLVALUE LT ISZERO PUSH2 0x18EC JUMPI PUSH1 0x40 MLOAD PUSH3 0x461BCD PUSH1 0xE5 SHL DUP2 MSTORE PUSH1 0x20 PUSH1 0x4 DUP3 ADD MSTORE PUSH1 0x34 PUSH1 0x24 DUP3 ADD MSTORE PUSH32 0x4D757374206465706F73697420636F6C6C61746572616C20657175616C20746F PUSH1 0x44 DUP3 ADD MSTORE PUSH20 0x818DBDB9D1C9A589D5D1A5BDB88185B5BDD5B9D PUSH1 0x62 SHL PUSH1 0x64 DUP3 ADD MSTORE PUSH1 0x84 ADD PUSH2 0x6C1 JUMP JUMPDEST PUSH1 0x8 DUP1 SLOAD SWAP1 PUSH0 PUSH2 0x18FB DUP4 PUSH2 0x24C0 JUMP JUMPDEST SWAP1 SWAP2 SSTORE POP POP PUSH1 0x8 SLOAD PUSH0 SWAP1 DUP2 MSTORE PUSH1 0x20 DUP2 SWAP1 MSTORE PUSH1 0x40 SWAP1 KECCAK256 DUP1 PUSH2 0x191B DUP7 DUP3 PUSH2 0x251C JUMP JUMPDEST POP PUSH1 0x1 DUP1 DUP3 ADD DUP6 SWAP1 SSTORE PUSH1 0x2 DUP3 ADD DUP5 SWAP1 SSTORE PUSH1 0x3 DUP3 ADD DUP4 SWAP1 SSTORE PUSH1 0x5 DUP3 ADD DUP1 SLOAD PUSH1 0xFF NOT SWAP1 DUP2 AND DUP4 OR SWAP1 SWAP2 SSTORE PUSH0 PUSH1 0x6 DUP5 ADD DUP2 SWAP1 SSTORE PUSH1 0x7 DUP5 ADD DUP2 SWAP1 SSTORE TIMESTAMP PUSH1 0x8 DUP1 DUP7 ADD SWAP2 SWAP1 SWAP2 SSTORE PUSH1 0x9 DUP6 ADD DUP3 SWAP1 SSTORE CALLVALUE PUSH1 0x12 DUP7 ADD DUP2 SWAP1 SSTORE PUSH1 0x4 DUP1 DUP8 ADD DUP1 SLOAD DUP1 DUP9 ADD DUP3 SSTORE SWAP1 DUP6 MSTORE PUSH1 0x20 DUP1 DUP7 KECCAK256 SWAP1 SWAP2 ADD DUP1 SLOAD PUSH1 0x1 PUSH1 0x1 PUSH1 0xA0 SHL SUB NOT AND CALLER SWAP1 DUP2 OR SWAP1 SWAP2 SSTORE DUP1 DUP7 MSTORE PUSH1 0xB DUP10 ADD DUP3 MSTORE PUSH1 0x40 DUP1 DUP8 KECCAK256 DUP1 SLOAD SWAP1 SWAP9 AND DUP10 OR SWAP1 SWAP8 SSTORE PUSH1 0xC DUP10 ADD DUP3 MSTORE DUP7 DUP7 KECCAK256 DUP7 SWAP1 SSTORE PUSH1 0xA DUP10 ADD DUP1 SLOAD DUP1 DUP11 ADD DUP3 SSTORE SWAP1 DUP8 MSTORE DUP3 DUP8 KECCAK256 DUP4 DUP3 DIV ADD DUP1 SLOAD PUSH1 0x1F SWAP1 SWAP3 AND PUSH2 0x100 EXP PUSH1 0xFF MUL NOT SWAP1 SWAP2 AND SWAP1 SSTORE DUP1 DUP7 MSTORE PUSH1 0x10 DUP10 ADD DUP3 MSTORE DUP7 DUP7 KECCAK256 SWAP4 SWAP1 SWAP4 SSTORE SWAP1 DUP2 MSTORE DUP5 DUP5 KECCAK256 SWAP3 SLOAD DUP4 SLOAD DUP1 DUP9 ADD DUP6 SSTORE SWAP4 DUP6 MSTORE DUP2 DUP6 KECCAK256 SWAP1 SWAP4 ADD SWAP3 SWAP1 SWAP3 SSTORE DUP3 MSTORE SWAP3 SWAP1 SWAP3 MSTORE DUP2 KECCAK256 DUP1 SLOAD PUSH1 0x64 SWAP3 SWAP1 PUSH2 0x1A27 SWAP1 DUP5 SWAP1 PUSH2 0x242C JUMP JUMPDEST SWAP1 SWAP2 SSTORE POP POP PUSH1 0x8 SLOAD PUSH1 0x40 MLOAD PUSH32 0xF4262469916388C16D1454945CD27F61664F3AE726C205E66B8F9212A3534F8C SWAP2 PUSH2 0x1A63 SWAP2 DUP9 SWAP1 CALLER SWAP1 DUP10 SWAP1 PUSH2 0x25D7 JUMP JUMPDEST PUSH1 0x40 MLOAD DUP1 SWAP2 SUB SWAP1 LOG1 PUSH32 0xEEC2F3FEB835E2F2FD44281034B04700A1DDDA63DD402949D470A25A7C40B36C PUSH1 0x8 SLOAD CALLER CALLVALUE PUSH1 0x40 MLOAD PUSH2 0x86C SWAP4 SWAP3 SWAP2 SWAP1 PUSH2 0x24A1 JUMP JUMPDEST PUSH0 DUP2 DUP2 MSTORE PUSH1 0x20 DUP2 DUP2 MSTORE PUSH1 0x40 DUP1 DUP4 KECCAK256 PUSH1 0x6 DUP2 ADD SLOAD DUP5 MSTORE PUSH1 0xD DUP2 ADD SWAP1 SWAP3 MSTORE DUP3 KECCAK256 SLOAD PUSH1 0x7 DUP3 ADD SLOAD PUSH1 0x4 DUP4 ADD DUP1 SLOAD SWAP4 SWAP5 SWAP3 SWAP4 SWAP1 SWAP2 SWAP1 DUP2 LT PUSH2 0x1ADF JUMPI PUSH2 0x1ADF PUSH2 0x23ED JUMP JUMPDEST SWAP1 PUSH0 MSTORE PUSH1 0x20 PUSH0 KECCAK256 ADD PUSH0 SWAP1 SLOAD SWAP1 PUSH2 0x100 EXP SWAP1 DIV PUSH1 0x1 PUSH1 0x1 PUSH1 0xA0 SHL SUB AND SWAP1 POP PUSH1 0x1 DUP4 PUSH1 0xA ADD DUP5 PUSH1 0x7 ADD SLOAD DUP2 SLOAD DUP2 LT PUSH2 0x1B17 JUMPI PUSH2 0x1B17 PUSH2 0x23ED JUMP JUMPDEST PUSH0 SWAP2 DUP3 MSTORE PUSH1 0x20 DUP1 DUP4 KECCAK256 DUP2 DUP4 DIV ADD DUP1 SLOAD PUSH1 0xFF PUSH1 0x1F SWAP1 SWAP5 AND PUSH2 0x100 EXP SWAP4 DUP5 MUL NOT AND SWAP5 ISZERO ISZERO SWAP3 SWAP1 SWAP3 MUL SWAP4 SWAP1 SWAP4 OR SWAP1 SSTORE PUSH1 0x6 DUP6 ADD DUP1 SLOAD DUP3 MSTORE PUSH1 0xE DUP7 ADD DUP4 MSTORE PUSH1 0x40 DUP1 DUP4 KECCAK256 DUP1 SLOAD PUSH1 0x1 PUSH1 0x1 PUSH1 0xA0 SHL SUB NOT AND PUSH1 0x1 PUSH1 0x1 PUSH1 0xA0 SHL SUB DUP8 AND SWAP1 DUP2 OR SWAP1 SWAP2 SSTORE SWAP2 SLOAD DUP4 MSTORE PUSH1 0xF DUP8 ADD SWAP1 SWAP4 MSTORE DUP3 DUP3 KECCAK256 DUP1 SLOAD PUSH1 0xFF NOT AND PUSH1 0x1 OR SWAP1 SSTORE SWAP2 MLOAD PUSH2 0x8FC DUP6 ISZERO MUL SWAP2 DUP6 SWAP2 SWAP1 DUP2 DUP2 DUP2 DUP6 DUP9 DUP9 CALL SWAP4 POP POP POP POP ISZERO DUP1 ISZERO PUSH2 0x1BB2 JUMPI RETURNDATASIZE PUSH0 PUSH0 RETURNDATACOPY RETURNDATASIZE PUSH0 REVERT JUMPDEST POP PUSH1 0x6 DUP4 ADD SLOAD PUSH1 0x40 DUP1 MLOAD DUP7 DUP2 MSTORE PUSH1 0x1 PUSH1 0x1 PUSH1 0xA0 SHL SUB DUP5 AND PUSH1 0x20 DUP3 ADD MSTORE DUP1 DUP3 ADD DUP6 SWAP1 MSTORE PUSH1 0x60 DUP2 ADD SWAP3 SWAP1 SWAP3 MSTORE MLOAD PUSH32 0xB4AEB9FB59644D1C26001B986295CDE5BBFAE34BE7C5240FBCCF4C37308E20FE SWAP2 DUP2 SWAP1 SUB PUSH1 0x80 ADD SWAP1 LOG1 PUSH1 0x6 DUP4 ADD SLOAD PUSH1 0x40 DUP1 MLOAD DUP7 DUP2 MSTORE PUSH1 0x20 DUP2 ADD SWAP3 SWAP1 SWAP3 MSTORE PUSH32 0x42463706CB812379C7405BBA67D1414B3473B66942ECD48FD66E7AD3CD3ABDD4 SWAP2 ADD PUSH1 0x40 MLOAD DUP1 SWAP2 SUB SWAP1 LOG1 PUSH1 0x4 DUP4 ADD SLOAD PUSH2 0x1C57 SWAP1 PUSH1 0x1 SWAP1 PUSH2 0x260B JUMP JUMPDEST DUP4 PUSH1 0x7 ADD SLOAD SUB PUSH2 0x1C6F JUMPI PUSH2 0x1C6A DUP5 PUSH2 0x1D75 JUMP JUMPDEST PUSH2 0x135C JUMP JUMPDEST PUSH2 0x135C DUP5 PUSH2 0x1ECB JUMP JUMPDEST PUSH0 DUP2 DUP2 MSTORE PUSH1 0x20 DUP2 SWAP1 MSTORE PUSH1 0x40 SWAP1 KECCAK256 PUSH1 0x1 PUSH1 0x6 DUP3 ADD SSTORE TIMESTAMP PUSH1 0x8 DUP3 ADD SSTORE PUSH2 0x1C9B DUP3 PUSH2 0x1F77 JUMP JUMPDEST PUSH32 0x39874AF9B7F4AB9E4C5C47A7280FDB5F5DB4081446E9D2CDFD23D5D5AA781C64 DUP3 CALLER TIMESTAMP PUSH1 0x40 MLOAD PUSH2 0x1CCE SWAP4 SWAP3 SWAP2 SWAP1 PUSH2 0x24A1 JUMP JUMPDEST PUSH1 0x40 MLOAD DUP1 SWAP2 SUB SWAP1 LOG1 POP POP JUMP JUMPDEST PUSH0 DUP2 DUP2 MSTORE PUSH1 0x20 DUP2 SWAP1 MSTORE PUSH1 0x40 DUP2 KECCAK256 SWAP1 DUP1 JUMPDEST PUSH1 0x4 DUP4 ADD SLOAD DUP2 LT ISZERO PUSH2 0x1D5B JUMPI PUSH1 0x7 PUSH0 DUP5 PUSH1 0x4 ADD DUP4 DUP2 SLOAD DUP2 LT PUSH2 0x1D0E JUMPI PUSH2 0x1D0E PUSH2 0x23ED JUMP JUMPDEST PUSH0 SWAP2 DUP3 MSTORE PUSH1 0x20 DUP1 DUP4 KECCAK256 SWAP1 SWAP2 ADD SLOAD PUSH1 0x1 PUSH1 0x1 PUSH1 0xA0 SHL SUB AND DUP4 MSTORE DUP3 DUP2 ADD SWAP4 SWAP1 SWAP4 MSTORE PUSH1 0x40 SWAP2 DUP3 ADD DUP2 KECCAK256 DUP8 DUP3 MSTORE SWAP1 SWAP3 MSTORE SWAP1 KECCAK256 SLOAD PUSH1 0xFF AND ISZERO PUSH2 0x1D53 JUMPI DUP2 PUSH2 0x1D4F DUP2 PUSH2 0x24C0 JUMP JUMPDEST SWAP3 POP POP JUMPDEST PUSH1 0x1 ADD PUSH2 0x1CEA JUMP JUMPDEST POP PUSH1 0x4 DUP3 ADD SLOAD DUP2 SUB PUSH2 0x1D70 JUMPI PUSH2 0x1D70 DUP4 PUSH2 0x1AA0 JUMP JUMPDEST POP POP POP JUMP JUMPDEST PUSH0 DUP2 DUP2 MSTORE PUSH1 0x20 DUP2 SWAP1 MSTORE PUSH1 0x40 DUP2 KECCAK256 PUSH1 0x5 DUP2 ADD DUP1 SLOAD PUSH1 0xFF NOT AND SWAP1 SSTORE SWAP1 JUMPDEST PUSH1 0x4 DUP3 ADD SLOAD DUP2 LT ISZERO PUSH2 0x1E9A JUMPI PUSH0 DUP3 PUSH1 0x4 ADD DUP3 DUP2 SLOAD DUP2 LT PUSH2 0x1DB2 JUMPI PUSH2 0x1DB2 PUSH2 0x23ED JUMP JUMPDEST PUSH0 SWAP2 DUP3 MSTORE PUSH1 0x20 DUP1 DUP4 KECCAK256 SWAP1 SWAP2 ADD SLOAD PUSH1 0x1 PUSH1 0x1 PUSH1 0xA0 SHL SUB AND DUP1 DUP4 MSTORE PUSH1 0x10 DUP7 ADD SWAP1 SWAP2 MSTORE PUSH1 0x40 SWAP1 SWAP2 KECCAK256 SLOAD SWAP1 SWAP2 POP DUP1 ISZERO DUP1 ISZERO SWAP1 PUSH2 0x1E04 JUMPI POP PUSH1 0x1 PUSH1 0x1 PUSH1 0xA0 SHL SUB DUP3 AND PUSH0 SWAP1 DUP2 MSTORE PUSH1 0x11 DUP6 ADD PUSH1 0x20 MSTORE PUSH1 0x40 SWAP1 KECCAK256 SLOAD PUSH1 0xFF AND ISZERO JUMPDEST ISZERO PUSH2 0x1E90 JUMPI PUSH1 0x1 PUSH1 0x1 PUSH1 0xA0 SHL SUB DUP3 AND PUSH0 DUP2 DUP2 MSTORE PUSH1 0x11 DUP7 ADD PUSH1 0x20 MSTORE PUSH1 0x40 DUP1 DUP3 KECCAK256 DUP1 SLOAD PUSH1 0xFF NOT AND PUSH1 0x1 OR SWAP1 SSTORE MLOAD DUP4 ISZERO PUSH2 0x8FC MUL SWAP2 DUP5 SWAP2 SWAP1 DUP2 DUP2 DUP2 DUP6 DUP9 DUP9 CALL SWAP4 POP POP POP POP ISZERO DUP1 ISZERO PUSH2 0x1E54 JUMPI RETURNDATASIZE PUSH0 PUSH0 RETURNDATACOPY RETURNDATASIZE PUSH0 REVERT JUMPDEST POP PUSH31 0x83F3D3D0A8132E9BF23AE6CDE659D5F3963A6973816E144F05BFCCEF184279 DUP6 DUP4 DUP4 PUSH1 0x40 MLOAD PUSH2 0x1E87 SWAP4 SWAP3 SWAP2 SWAP1 PUSH2 0x24A1 JUMP JUMPDEST PUSH1 0x40 MLOAD DUP1 SWAP2 SUB SWAP1 LOG1 JUMPDEST POP POP PUSH1 0x1 ADD PUSH2 0x1D90 JUMP JUMPDEST POP PUSH1 0x40 MLOAD DUP3 DUP2 MSTORE PUSH32 0xDB5E126E6A121DA8028405972761F7C42DFF3D626273CD61FD32A13D4C3F56C7 SWAP1 PUSH1 0x20 ADD PUSH2 0x1CCE JUMP JUMPDEST PUSH0 DUP2 DUP2 MSTORE PUSH1 0x20 DUP2 SWAP1 MSTORE PUSH1 0x40 DUP2 KECCAK256 PUSH1 0x7 DUP2 ADD DUP1 SLOAD SWAP2 SWAP3 PUSH2 0x1EE9 DUP4 PUSH2 0x24C0 JUMP JUMPDEST SWAP1 SWAP2 SSTORE POP POP PUSH1 0x6 DUP2 ADD DUP1 SLOAD SWAP1 PUSH0 PUSH2 0x1EFF DUP4 PUSH2 0x24C0 JUMP JUMPDEST SWAP1 SWAP2 SSTORE POP POP TIMESTAMP PUSH1 0x8 DUP3 ADD SSTORE PUSH0 JUMPDEST PUSH1 0x4 DUP3 ADD SLOAD DUP2 LT ISZERO PUSH2 0x1D70 JUMPI PUSH0 PUSH1 0x7 PUSH0 DUP5 PUSH1 0x4 ADD DUP5 DUP2 SLOAD DUP2 LT PUSH2 0x1F31 JUMPI PUSH2 0x1F31 PUSH2 0x23ED JUMP JUMPDEST PUSH0 SWAP2 DUP3 MSTORE PUSH1 0x20 DUP1 DUP4 KECCAK256 SWAP2 SWAP1 SWAP2 ADD SLOAD PUSH1 0x1 PUSH1 0x1 PUSH1 0xA0 SHL SUB AND DUP4 MSTORE DUP3 DUP2 ADD SWAP4 SWAP1 SWAP4 MSTORE PUSH1 0x40 SWAP2 DUP3 ADD DUP2 KECCAK256 DUP8 DUP3 MSTORE SWAP1 SWAP3 MSTORE SWAP1 KECCAK256 DUP1 SLOAD PUSH1 0xFF NOT AND SWAP2 ISZERO ISZERO SWAP2 SWAP1 SWAP2 OR SWAP1 SSTORE PUSH1 0x1 ADD PUSH2 0x1F0C JUMP JUMPDEST PUSH0 DUP2 DUP2 MSTORE PUSH1 0x20 DUP2 SWAP1 MSTORE PUSH1 0x40 DUP2 KECCAK256 PUSH1 0x4 DUP2 ADD SLOAD SWAP1 SWAP2 JUMPDEST DUP2 DUP2 LT ISZERO PUSH2 0x135C JUMPI PUSH1 0x40 DUP1 MLOAD TIMESTAMP PUSH1 0x20 DUP3 ADD MSTORE PREVRANDAO SWAP2 DUP2 ADD SWAP2 SWAP1 SWAP2 MSTORE PUSH1 0x60 DUP2 ADD DUP3 SWAP1 MSTORE PUSH0 SWAP1 DUP4 SWAP1 PUSH1 0x80 ADD PUSH1 0x40 MLOAD PUSH1 0x20 DUP2 DUP4 SUB SUB DUP2 MSTORE SWAP1 PUSH1 0x40 MSTORE DUP1 MLOAD SWAP1 PUSH1 0x20 ADD KECCAK256 PUSH0 SHR PUSH2 0x1FD6 SWAP2 SWAP1 PUSH2 0x261E JUMP JUMPDEST SWAP1 POP PUSH0 DUP5 PUSH1 0x4 ADD DUP4 DUP2 SLOAD DUP2 LT PUSH2 0x1FEE JUMPI PUSH2 0x1FEE PUSH2 0x23ED JUMP JUMPDEST PUSH0 SWAP2 DUP3 MSTORE PUSH1 0x20 SWAP1 SWAP2 KECCAK256 ADD SLOAD PUSH1 0x4 DUP7 ADD DUP1 SLOAD PUSH1 0x1 PUSH1 0x1 PUSH1 0xA0 SHL SUB SWAP1 SWAP3 AND SWAP3 POP SWAP1 DUP4 SWAP1 DUP2 LT PUSH2 0x201D JUMPI PUSH2 0x201D PUSH2 0x23ED JUMP JUMPDEST PUSH0 SWAP2 DUP3 MSTORE PUSH1 0x20 SWAP1 SWAP2 KECCAK256 ADD SLOAD PUSH1 0x4 DUP7 ADD DUP1 SLOAD PUSH1 0x1 PUSH1 0x1 PUSH1 0xA0 SHL SUB SWAP1 SWAP3 AND SWAP2 DUP6 SWAP1 DUP2 LT PUSH2 0x204A JUMPI PUSH2 0x204A PUSH2 0x23ED JUMP JUMPDEST SWAP1 PUSH0 MSTORE PUSH1 0x20 PUSH0 KECCAK256 ADD PUSH0 PUSH2 0x100 EXP DUP2 SLOAD DUP2 PUSH1 0x1 PUSH1 0x1 PUSH1 0xA0 SHL SUB MUL NOT AND SWAP1 DUP4 PUSH1 0x1 PUSH1 0x1 PUSH1 0xA0 SHL SUB AND MUL OR SWAP1 SSTORE POP DUP1 DUP6 PUSH1 0x4 ADD DUP4 DUP2 SLOAD DUP2 LT PUSH2 0x208B JUMPI PUSH2 0x208B PUSH2 0x23ED JUMP JUMPDEST SWAP1 PUSH0 MSTORE PUSH1 0x20 PUSH0 KECCAK256 ADD PUSH0 PUSH2 0x100 EXP DUP2 SLOAD DUP2 PUSH1 0x1 PUSH1 0x1 PUSH1 0xA0 SHL SUB MUL NOT AND SWAP1 DUP4 PUSH1 0x1 PUSH1 0x1 PUSH1 0xA0 SHL SUB AND MUL OR SWAP1 SSTORE POP DUP3 DUP6 PUSH1 0xC ADD PUSH0 DUP8 PUSH1 0x4 ADD DUP7 DUP2 SLOAD DUP2 LT PUSH2 0x20D1 JUMPI PUSH2 0x20D1 PUSH2 0x23ED JUMP JUMPDEST PUSH0 SWAP2 DUP3 MSTORE PUSH1 0x20 DUP1 DUP4 KECCAK256 SWAP1 SWAP2 ADD SLOAD PUSH1 0x1 PUSH1 0x1 PUSH1 0xA0 SHL SUB AND DUP4 MSTORE DUP3 ADD SWAP3 SWAP1 SWAP3 MSTORE PUSH1 0x40 ADD DUP2 KECCAK256 SWAP2 SWAP1 SWAP2 SSTORE PUSH1 0x4 DUP7 ADD DUP1 SLOAD DUP5 SWAP3 PUSH1 0xC DUP10 ADD SWAP3 SWAP1 SWAP2 DUP5 SWAP1 DUP2 LT PUSH2 0x2117 JUMPI PUSH2 0x2117 PUSH2 0x23ED JUMP JUMPDEST PUSH0 SWAP2 DUP3 MSTORE PUSH1 0x20 DUP1 DUP4 KECCAK256 SWAP1 SWAP2 ADD SLOAD PUSH1 0x1 PUSH1 0x1 PUSH1 0xA0 SHL SUB AND DUP4 MSTORE DUP3 ADD SWAP3 SWAP1 SWAP3 MSTORE PUSH1 0x40 ADD SWAP1 KECCAK256 SSTORE POP POP PUSH1 0x1 ADD PUSH2 0x1F8C JUMP JUMPDEST DUP1 CALLDATALOAD PUSH1 0x1 PUSH1 0x1 PUSH1 0xA0 SHL SUB DUP2 AND DUP2 EQ PUSH2 0x215B JUMPI PUSH0 PUSH0 REVERT JUMPDEST SWAP2 SWAP1 POP JUMP JUMPDEST PUSH0 PUSH0 PUSH1 0x40 DUP4 DUP6 SUB SLT ISZERO PUSH2 0x2171 JUMPI PUSH0 PUSH0 REVERT JUMPDEST DUP3 CALLDATALOAD SWAP2 POP PUSH2 0x2181 PUSH1 0x20 DUP5 ADD PUSH2 0x2145 JUMP JUMPDEST SWAP1 POP SWAP3 POP SWAP3 SWAP1 POP JUMP JUMPDEST PUSH0 PUSH1 0x20 DUP3 DUP5 SUB SLT ISZERO PUSH2 0x219A JUMPI PUSH0 PUSH0 REVERT JUMPDEST POP CALLDATALOAD SWAP2 SWAP1 POP JUMP JUMPDEST PUSH0 DUP2 MLOAD DUP1 DUP5 MSTORE DUP1 PUSH1 0x20 DUP5 ADD PUSH1 0x20 DUP7 ADD MCOPY PUSH0 PUSH1 0x20 DUP3 DUP7 ADD ADD MSTORE PUSH1 0x20 PUSH1 0x1F NOT PUSH1 0x1F DUP4 ADD AND DUP6 ADD ADD SWAP2 POP POP SWAP3 SWAP2 POP POP JUMP JUMPDEST PUSH2 0x140 DUP2 MSTORE PUSH0 PUSH2 0x21E3 PUSH2 0x140 DUP4 ADD DUP14 PUSH2 0x21A1 JUMP JUMPDEST PUSH1 0x20 DUP4 ADD SWAP12 SWAP1 SWAP12 MSTORE POP PUSH1 0x40 DUP2 ADD SWAP9 SWAP1 SWAP9 MSTORE PUSH1 0x60 DUP9 ADD SWAP7 SWAP1 SWAP7 MSTORE SWAP4 ISZERO ISZERO PUSH1 0x80 DUP8 ADD MSTORE PUSH1 0xA0 DUP7 ADD SWAP3 SWAP1 SWAP3 MSTORE PUSH1 0xC0 DUP6 ADD MSTORE PUSH1 0xE0 DUP5 ADD MSTORE PUSH2 0x100 DUP4 ADD MSTORE PUSH2 0x120 SWAP1 SWAP2 ADD MSTORE SWAP2 SWAP1 POP JUMP JUMPDEST PUSH0 PUSH0 PUSH1 0x40 DUP4 DUP6 SUB SLT ISZERO PUSH2 0x2239 JUMPI PUSH0 PUSH0 REVERT JUMPDEST PUSH2 0x2242 DUP4 PUSH2 0x2145 JUMP JUMPDEST SWAP5 PUSH1 0x20 SWAP4 SWAP1 SWAP4 ADD CALLDATALOAD SWAP4 POP POP POP JUMP JUMPDEST PUSH0 PUSH1 0x20 DUP3 DUP5 SUB SLT ISZERO PUSH2 0x2260 JUMPI PUSH0 PUSH0 REVERT JUMPDEST PUSH2 0x2269 DUP3 PUSH2 0x2145 JUMP JUMPDEST SWAP4 SWAP3 POP POP POP JUMP JUMPDEST PUSH0 PUSH0 PUSH1 0x40 DUP4 DUP6 SUB SLT ISZERO PUSH2 0x2281 JUMPI PUSH0 PUSH0 REVERT JUMPDEST POP POP DUP1 CALLDATALOAD SWAP3 PUSH1 0x20 SWAP1 SWAP2 ADD CALLDATALOAD SWAP2 POP JUMP JUMPDEST PUSH1 0x20 DUP2 MSTORE PUSH0 PUSH2 0x2269 PUSH1 0x20 DUP4 ADD DUP5 PUSH2 0x21A1 JUMP JUMPDEST PUSH1 0x20 DUP1 DUP3 MSTORE DUP3 MLOAD DUP3 DUP3 ADD DUP2 SWAP1 MSTORE PUSH0 SWAP2 DUP5 ADD SWAP1 PUSH1 0x40 DUP5 ADD SWAP1 DUP4 JUMPDEST DUP2 DUP2 LT ISZERO PUSH2 0x22E2 JUMPI DUP4 MLOAD PUSH1 0x1 PUSH1 0x1 PUSH1 0xA0 SHL SUB AND DUP4 MSTORE PUSH1 0x20 SWAP4 DUP5 ADD SWAP4 SWAP1 SWAP3 ADD SWAP2 PUSH1 0x1 ADD PUSH2 0x22BB JUMP JUMPDEST POP SWAP1 SWAP6 SWAP5 POP POP POP POP POP JUMP JUMPDEST PUSH4 0x4E487B71 PUSH1 0xE0 SHL PUSH0 MSTORE PUSH1 0x41 PUSH1 0x4 MSTORE PUSH1 0x24 PUSH0 REVERT JUMPDEST PUSH0 PUSH0 PUSH0 PUSH0 PUSH1 0x80 DUP6 DUP8 SUB SLT ISZERO PUSH2 0x2314 JUMPI PUSH0 PUSH0 REVERT JUMPDEST DUP5 CALLDATALOAD PUSH8 0xFFFFFFFFFFFFFFFF DUP2 GT ISZERO PUSH2 0x232A JUMPI PUSH0 PUSH0 REVERT JUMPDEST DUP6 ADD PUSH1 0x1F DUP2 ADD DUP8 SGT PUSH2 0x233A JUMPI PUSH0 PUSH0 REVERT JUMPDEST DUP1 CALLDATALOAD PUSH8 0xFFFFFFFFFFFFFFFF DUP2 GT ISZERO PUSH2 0x2354 JUMPI PUSH2 0x2354 PUSH2 0x22ED JUMP JUMPDEST PUSH1 0x40 MLOAD PUSH1 0x1F DUP3 ADD PUSH1 0x1F NOT SWAP1 DUP2 AND PUSH1 0x3F ADD AND DUP2 ADD PUSH8 0xFFFFFFFFFFFFFFFF DUP2 GT DUP3 DUP3 LT OR ISZERO PUSH2 0x2383 JUMPI PUSH2 0x2383 PUSH2 0x22ED JUMP JUMPDEST PUSH1 0x40 MSTORE DUP2 DUP2 MSTORE DUP3 DUP3 ADD PUSH1 0x20 ADD DUP10 LT ISZERO PUSH2 0x239A JUMPI PUSH0 PUSH0 REVERT JUMPDEST DUP2 PUSH1 0x20 DUP5 ADD PUSH1 0x20 DUP4 ADD CALLDATACOPY PUSH0 PUSH1 0x20 SWAP3 DUP3 ADD DUP4 ADD MSTORE SWAP9 SWAP1 DUP8 ADD CALLDATALOAD SWAP8 POP PUSH1 0x40 DUP8 ADD CALLDATALOAD SWAP7 PUSH1 0x60 ADD CALLDATALOAD SWAP6 POP SWAP4 POP POP POP POP JUMP JUMPDEST PUSH1 0x20 DUP1 DUP3 MSTORE PUSH1 0xC SWAP1 DUP3 ADD MSTORE PUSH12 0x2737BA10309036B2B6B132B9 PUSH1 0xA1 SHL PUSH1 0x40 DUP3 ADD MSTORE PUSH1 0x60 ADD SWAP1 JUMP JUMPDEST PUSH4 0x4E487B71 PUSH1 0xE0 SHL PUSH0 MSTORE PUSH1 0x32 PUSH1 0x4 MSTORE PUSH1 0x24 PUSH0 REVERT JUMPDEST PUSH4 0x4E487B71 PUSH1 0xE0 SHL PUSH0 MSTORE PUSH1 0x11 PUSH1 0x4 MSTORE PUSH1 0x24 PUSH0 REVERT JUMPDEST DUP1 DUP3 MUL DUP2 ISZERO DUP3 DUP3 DIV DUP5 EQ OR PUSH2 0xE55 JUMPI PUSH2 0xE55 PUSH2 0x2401 JUMP JUMPDEST DUP1 DUP3 ADD DUP1 DUP3 GT ISZERO PUSH2 0xE55 JUMPI PUSH2 0xE55 PUSH2 0x2401 JUMP JUMPDEST PUSH1 0x1 DUP2 DUP2 SHR SWAP1 DUP3 AND DUP1 PUSH2 0x2453 JUMPI PUSH1 0x7F DUP3 AND SWAP2 POP JUMPDEST PUSH1 0x20 DUP3 LT DUP2 SUB PUSH2 0x2471 JUMPI PUSH4 0x4E487B71 PUSH1 0xE0 SHL PUSH0 MSTORE PUSH1 0x22 PUSH1 0x4 MSTORE PUSH1 0x24 PUSH0 REVERT JUMPDEST POP SWAP2 SWAP1 POP JUMP JUMPDEST PUSH1 0x20 DUP1 DUP3 MSTORE PUSH1 0x10 SWAP1 DUP3 ADD MSTORE PUSH16 0x4368616D61206E6F7420616374697665 PUSH1 0x80 SHL PUSH1 0x40 DUP3 ADD MSTORE PUSH1 0x60 ADD SWAP1 JUMP JUMPDEST SWAP3 DUP4 MSTORE PUSH1 0x1 PUSH1 0x1 PUSH1 0xA0 SHL SUB SWAP2 SWAP1 SWAP2 AND PUSH1 0x20 DUP4 ADD MSTORE PUSH1 0x40 DUP3 ADD MSTORE PUSH1 0x60 ADD SWAP1 JUMP JUMPDEST PUSH0 PUSH1 0x1 DUP3 ADD PUSH2 0x24D1 JUMPI PUSH2 0x24D1 PUSH2 0x2401 JUMP JUMPDEST POP PUSH1 0x1 ADD SWAP1 JUMP JUMPDEST PUSH1 0x1F DUP3 GT ISZERO PUSH2 0x1D70 JUMPI DUP1 PUSH0 MSTORE PUSH1 0x20 PUSH0 KECCAK256 PUSH1 0x1F DUP5 ADD PUSH1 0x5 SHR DUP2 ADD PUSH1 0x20 DUP6 LT ISZERO PUSH2 0x24FD JUMPI POP DUP1 JUMPDEST PUSH1 0x1F DUP5 ADD PUSH1 0x5 SHR DUP3 ADD SWAP2 POP JUMPDEST DUP2 DUP2 LT ISZERO PUSH2 0xE27 JUMPI PUSH0 DUP2 SSTORE PUSH1 0x1 ADD PUSH2 0x2509 JUMP JUMPDEST DUP2 MLOAD PUSH8 0xFFFFFFFFFFFFFFFF DUP2 GT ISZERO PUSH2 0x2536 JUMPI PUSH2 0x2536 PUSH2 0x22ED JUMP JUMPDEST PUSH2 0x254A DUP2 PUSH2 0x2544 DUP5 SLOAD PUSH2 0x243F JUMP JUMPDEST DUP5 PUSH2 0x24D8 JUMP JUMPDEST PUSH1 0x20 PUSH1 0x1F DUP3 GT PUSH1 0x1 DUP2 EQ PUSH2 0x257C JUMPI PUSH0 DUP4 ISZERO PUSH2 0x2565 JUMPI POP DUP5 DUP3 ADD MLOAD JUMPDEST PUSH0 NOT PUSH1 0x3 DUP6 SWAP1 SHL SHR NOT AND PUSH1 0x1 DUP5 SWAP1 SHL OR DUP5 SSTORE PUSH2 0xE27 JUMP JUMPDEST PUSH0 DUP5 DUP2 MSTORE PUSH1 0x20 DUP2 KECCAK256 PUSH1 0x1F NOT DUP6 AND SWAP2 JUMPDEST DUP3 DUP2 LT ISZERO PUSH2 0x25AB JUMPI DUP8 DUP6 ADD MLOAD DUP3 SSTORE PUSH1 0x20 SWAP5 DUP6 ADD SWAP5 PUSH1 0x1 SWAP1 SWAP3 ADD SWAP2 ADD PUSH2 0x258B JUMP JUMPDEST POP DUP5 DUP3 LT ISZERO PUSH2 0x25C8 JUMPI DUP7 DUP5 ADD MLOAD PUSH0 NOT PUSH1 0x3 DUP8 SWAP1 SHL PUSH1 0xF8 AND SHR NOT AND DUP2 SSTORE JUMPDEST POP POP POP POP PUSH1 0x1 SWAP1 DUP2 SHL ADD SWAP1 SSTORE POP JUMP JUMPDEST DUP5 DUP2 MSTORE PUSH1 0x80 PUSH1 0x20 DUP3 ADD MSTORE PUSH0 PUSH2 0x25EF PUSH1 0x80 DUP4 ADD DUP7 PUSH2 0x21A1 JUMP JUMPDEST PUSH1 0x1 PUSH1 0x1 PUSH1 0xA0 SHL SUB SWAP5 SWAP1 SWAP5 AND PUSH1 0x40 DUP4 ADD MSTORE POP PUSH1 0x60 ADD MSTORE SWAP3 SWAP2 POP POP JUMP JUMPDEST DUP2 DUP2 SUB DUP2 DUP2 GT ISZERO PUSH2 0xE55 JUMPI PUSH2 0xE55 PUSH2 0x2401 JUMP JUMPDEST PUSH0 DUP3 PUSH2 0x2638 JUMPI PUSH4 0x4E487B71 PUSH1 0xE0 SHL PUSH0 MSTORE PUSH1 0x12 PUSH1 0x4 MSTORE PUSH1 0x24 PUSH0 REVERT JUMPDEST POP MOD SWAP1 JUMP INVALID LOG2 PUSH5 0x6970667358 0x22 SLT KECCAK256 0xCE SSTORE 0xB8 DUP13 MSTORE8 0xBA EXTCODESIZE 0xAD 0xDA PUSH1 0xC9 DUP15 0xFC PUSH19 0xF1C55167E623E5703433E941440307A949AF64 PUSH20 0x6F6C634300081E00330000000000000000000000 "
		},
		"gasEstimates": {
			"creation": {
				"codeDepositCost": "1968600",
				"executionCost": "31322",
				"totalCost": "1999922"
			},
			"external": {
				"achievements(address,uint256)": "infinite",
				"chamaCount()": "2361",
				"chamas(uint256)": "infinite",
				"contributions(uint256,uint256)": "9033",
				"createChama(string,uint256,uint256,uint256)": "infinite",
				"emergencyPayout(uint256,address)": "infinite",
				"getChamaInfo(uint256)": "infinite",
				"getChamaMembers(uint256)": "infinite",
				"getCycleInfo(uint256,uint256)": "7079",
				"getMemberCollateral(uint256,address)": "2731",
				"getMemberPayoutPosition(uint256,address)": "5003",
				"getTotalCollateral(uint256)": "2511",
				"getUserScore(address)": "2623",
				"hasContributedThisCycle(address,uint256)": "2709",
				"hasMemberReceivedPayout(uint256,address)": "10968",
				"isChamaMember(uint256,address)": "2721",
				"isCollateralReturned(uint256,address)": "2778",
				"joinChama(uint256)": "infinite",
				"lastContributionTimestamp(address,uint256)": "2719",
				"owner()": "2425",
				"processMissedContributions(uint256)": "infinite",
				"scores(address)": "2562",
				"stackBTC(uint256)": "infinite",
				"startChama(uint256)": "infinite",
				"updateUserScore(address,uint256)": "26898",
				"userChamas(address,uint256)": "4804",
				"userContributions(address,uint256)": "2742"
			},
			"internal": {
				"_checkCycleCompletion(uint256)": "infinite",
				"_completeChama(uint256)": "infinite",
				"_processCyclePayout(uint256)": "infinite",
				"_resetCycle(uint256)": "infinite",
				"_shuffleMembers(uint256)": "infinite",
				"_startChama(uint256)": "infinite"
			}
		},
		"methodIdentifiers": {
			"achievements(address,uint256)": "bf882e73",
			"chamaCount()": "c087e28b",
			"chamas(uint256)": "0b5d7085",
			"contributions(uint256,uint256)": "830e28f6",
			"createChama(string,uint256,uint256,uint256)": "e69269a6",
			"emergencyPayout(uint256,address)": "0ae2ce89",
			"getChamaInfo(uint256)": "b4bebcfd",
			"getChamaMembers(uint256)": "cb00d3d2",
			"getCycleInfo(uint256,uint256)": "e9ac9d1e",
			"getMemberCollateral(uint256,address)": "826ce785",
			"getMemberPayoutPosition(uint256,address)": "863b6a39",
			"getTotalCollateral(uint256)": "afc737d1",
			"getUserScore(address)": "b34e0c47",
			"hasContributedThisCycle(address,uint256)": "c14a2ae0",
			"hasMemberReceivedPayout(uint256,address)": "9155105f",
			"isChamaMember(uint256,address)": "9db6a08f",
			"isCollateralReturned(uint256,address)": "45f4bc07",
			"joinChama(uint256)": "43533e1d",
			"lastContributionTimestamp(address,uint256)": "8ea3b0de",
			"owner()": "8da5cb5b",
			"processMissedContributions(uint256)": "300e9dae",
			"scores(address)": "76dd110f",
			"stackBTC(uint256)": "9ef4cbcc",
			"startChama(uint256)": "daa6f020",
			"updateUserScore(address,uint256)": "9facefc5",
			"userChamas(address,uint256)": "7d13ee50",
			"userContributions(address,uint256)": "7331fa95"
		}
	},
	"abi": [
		{
			"inputs": [],
			"stateMutability": "nonpayable",
			"type": "constructor"
		},
		{
			"anonymous": false,
			"inputs": [
				{
					"indexed": false,
					"internalType": "address",
					"name": "user",
					"type": "address"
				},
				{
					"indexed": false,
					"internalType": "string",
					"name": "achievement",
					"type": "string"
				}
			],
			"name": "AchievementUnlocked",
			"type": "event"
		},
		{
			"anonymous": false,
			"inputs": [
				{
					"indexed": false,
					"internalType": "uint256",
					"name": "chamaId",
					"type": "uint256"
				}
			],
			"name": "ChamaCompleted",
			"type": "event"
		},
		{
			"anonymous": false,
			"inputs": [
				{
					"indexed": false,
					"internalType": "uint256",
					"name": "chamaId",
					"type": "uint256"
				},
				{
					"indexed": false,
					"internalType": "string",
					"name": "name",
					"type": "string"
				},
				{
					"indexed": false,
					"internalType": "address",
					"name": "creator",
					"type": "address"
				},
				{
					"indexed": false,
					"internalType": "uint256",
					"name": "contributionAmount",
					"type": "uint256"
				}
			],
			"name": "ChamaCreated",
			"type": "event"
		},
		{
			"anonymous": false,
			"inputs": [
				{
					"indexed": false,
					"internalType": "uint256",
					"name": "chamaId",
					"type": "uint256"
				},
				{
					"indexed": false,
					"internalType": "uint256",
					"name": "cycleNumber",
					"type": "uint256"
				}
			],
			"name": "ChamaCycleCompleted",
			"type": "event"
		},
		{
			"anonymous": false,
			"inputs": [
				{
					"indexed": false,
					"internalType": "uint256",
					"name": "chamaId",
					"type": "uint256"
				},
				{
					"indexed": false,
					"internalType": "address",
					"name": "member",
					"type": "address"
				}
			],
			"name": "ChamaJoined",
			"type": "event"
		},
		{
			"anonymous": false,
			"inputs": [
				{
					"indexed": false,
					"internalType": "uint256",
					"name": "chamaId",
					"type": "uint256"
				},
				{
					"indexed": false,
					"internalType": "address",
					"name": "starter",
					"type": "address"
				},
				{
					"indexed": false,
					"internalType": "uint256",
					"name": "timestamp",
					"type": "uint256"
				}
			],
			"name": "ChamaStarted",
			"type": "event"
		},
		{
			"anonymous": false,
			"inputs": [
				{
					"indexed": false,
					"internalType": "uint256",
					"name": "chamaId",
					"type": "uint256"
				},
				{
					"indexed": false,
					"internalType": "address",
					"name": "member",
					"type": "address"
				},
				{
					"indexed": false,
					"internalType": "uint256",
					"name": "amount",
					"type": "uint256"
				}
			],
			"name": "CollateralDeposited",
			"type": "event"
		},
		{
			"anonymous": false,
			"inputs": [
				{
					"indexed": false,
					"internalType": "uint256",
					"name": "chamaId",
					"type": "uint256"
				},
				{
					"indexed": false,
					"internalType": "address",
					"name": "member",
					"type": "address"
				},
				{
					"indexed": false,
					"internalType": "uint256",
					"name": "amount",
					"type": "uint256"
				}
			],
			"name": "CollateralForfeited",
			"type": "event"
		},
		{
			"anonymous": false,
			"inputs": [
				{
					"indexed": false,
					"internalType": "uint256",
					"name": "chamaId",
					"type": "uint256"
				},
				{
					"indexed": false,
					"internalType": "address",
					"name": "member",
					"type": "address"
				},
				{
					"indexed": false,
					"internalType": "uint256",
					"name": "amount",
					"type": "uint256"
				}
			],
			"name": "CollateralReturned",
			"type": "event"
		},
		{
			"anonymous": false,
			"inputs": [
				{
					"indexed": false,
					"internalType": "uint256",
					"name": "chamaId",
					"type": "uint256"
				},
				{
					"indexed": false,
					"internalType": "address",
					"name": "user",
					"type": "address"
				},
				{
					"indexed": false,
					"internalType": "uint256",
					"name": "amount",
					"type": "uint256"
				}
			],
			"name": "ContributionMade",
			"type": "event"
		},
		{
			"anonymous": false,
			"inputs": [
				{
					"indexed": false,
					"internalType": "uint256",
					"name": "chamaId",
					"type": "uint256"
				},
				{
					"indexed": false,
					"internalType": "address",
					"name": "recipient",
					"type": "address"
				},
				{
					"indexed": false,
					"internalType": "uint256",
					"name": "amount",
					"type": "uint256"
				},
				{
					"indexed": false,
					"internalType": "uint256",
					"name": "cycleNumber",
					"type": "uint256"
				}
			],
			"name": "PayoutProcessed",
			"type": "event"
		},
		{
			"inputs": [
				{
					"internalType": "address",
					"name": "",
					"type": "address"
				},
				{
					"internalType": "uint256",
					"name": "",
					"type": "uint256"
				}
			],
			"name": "achievements",
			"outputs": [
				{
					"internalType": "string",
					"name": "",
					"type": "string"
				}
			],
			"stateMutability": "view",
			"type": "function"
		},
		{
			"inputs": [],
			"name": "chamaCount",
			"outputs": [
				{
					"internalType": "uint256",
					"name": "",
					"type": "uint256"
				}
			],
			"stateMutability": "view",
			"type": "function"
		},
		{
			"inputs": [
				{
					"internalType": "uint256",
					"name": "",
					"type": "uint256"
				}
			],
			"name": "chamas",
			"outputs": [
				{
					"internalType": "string",
					"name": "name",
					"type": "string"
				},
				{
					"internalType": "uint256",
					"name": "contributionAmount",
					"type": "uint256"
				},
				{
					"internalType": "uint256",
					"name": "cycleDuration",
					"type": "uint256"
				},
				{
					"internalType": "uint256",
					"name": "maxMembers",
					"type": "uint256"
				},
				{
					"internalType": "bool",
					"name": "active",
					"type": "bool"
				},
				{
					"internalType": "uint256",
					"name": "currentCycle",
					"type": "uint256"
				},
				{
					"internalType": "uint256",
					"name": "currentRecipientIndex",
					"type": "uint256"
				},
				{
					"internalType": "uint256",
					"name": "lastCycleTimestamp",
					"type": "uint256"
				},
				{
					"internalType": "uint256",
					"name": "totalPool",
					"type": "uint256"
				},
				{
					"internalType": "uint256",
					"name": "totalCollateral",
					"type": "uint256"
				}
			],
			"stateMutability": "view",
			"type": "function"
		},
		{
			"inputs": [
				{
					"internalType": "uint256",
					"name": "",
					"type": "uint256"
				},
				{
					"internalType": "uint256",
					"name": "",
					"type": "uint256"
				}
			],
			"name": "contributions",
			"outputs": [
				{
					"internalType": "address",
					"name": "contributor",
					"type": "address"
				},
				{
					"internalType": "uint256",
					"name": "amount",
					"type": "uint256"
				},
				{
					"internalType": "uint256",
					"name": "timestamp",
					"type": "uint256"
				}
			],
			"stateMutability": "view",
			"type": "function"
		},
		{
			"inputs": [
				{
					"internalType": "string",
					"name": "_name",
					"type": "string"
				},
				{
					"internalType": "uint256",
					"name": "_contributionAmount",
					"type": "uint256"
				},
				{
					"internalType": "uint256",
					"name": "_cycleDuration",
					"type": "uint256"
				},
				{
					"internalType": "uint256",
					"name": "_maxMembers",
					"type": "uint256"
				}
			],
			"name": "createChama",
			"outputs": [],
			"stateMutability": "payable",
			"type": "function"
		},
		{
			"inputs": [
				{
					"internalType": "uint256",
					"name": "_chamaId",
					"type": "uint256"
				},
				{
					"internalType": "address",
					"name": "_recipient",
					"type": "address"
				}
			],
			"name": "emergencyPayout",
			"outputs": [],
			"stateMutability": "nonpayable",
			"type": "function"
		},
		{
			"inputs": [
				{
					"internalType": "uint256",
					"name": "_chamaId",
					"type": "uint256"
				}
			],
			"name": "getChamaInfo",
			"outputs": [
				{
					"internalType": "string",
					"name": "name",
					"type": "string"
				},
				{
					"internalType": "uint256",
					"name": "contributionAmount",
					"type": "uint256"
				},
				{
					"internalType": "uint256",
					"name": "cycleDuration",
					"type": "uint256"
				},
				{
					"internalType": "uint256",
					"name": "maxMembers",
					"type": "uint256"
				},
				{
					"internalType": "bool",
					"name": "active",
					"type": "bool"
				},
				{
					"internalType": "uint256",
					"name": "currentCycle",
					"type": "uint256"
				},
				{
					"internalType": "uint256",
					"name": "currentRecipientIndex",
					"type": "uint256"
				},
				{
					"internalType": "uint256",
					"name": "lastCycleTimestamp",
					"type": "uint256"
				},
				{
					"internalType": "uint256",
					"name": "totalPool",
					"type": "uint256"
				},
				{
					"internalType": "uint256",
					"name": "totalCollateral",
					"type": "uint256"
				}
			],
			"stateMutability": "view",
			"type": "function"
		},
		{
			"inputs": [
				{
					"internalType": "uint256",
					"name": "_chamaId",
					"type": "uint256"
				}
			],
			"name": "getChamaMembers",
			"outputs": [
				{
					"internalType": "address[]",
					"name": "",
					"type": "address[]"
				}
			],
			"stateMutability": "view",
			"type": "function"
		},
		{
			"inputs": [
				{
					"internalType": "uint256",
					"name": "_chamaId",
					"type": "uint256"
				},
				{
					"internalType": "uint256",
					"name": "_cycle",
					"type": "uint256"
				}
			],
			"name": "getCycleInfo",
			"outputs": [
				{
					"internalType": "uint256",
					"name": "cycleContributions",
					"type": "uint256"
				},
				{
					"internalType": "address",
					"name": "recipient",
					"type": "address"
				},
				{
					"internalType": "bool",
					"name": "completed",
					"type": "bool"
				}
			],
			"stateMutability": "view",
			"type": "function"
		},
		{
			"inputs": [
				{
					"internalType": "uint256",
					"name": "_chamaId",
					"type": "uint256"
				},
				{
					"internalType": "address",
					"name": "_member",
					"type": "address"
				}
			],
			"name": "getMemberCollateral",
			"outputs": [
				{
					"internalType": "uint256",
					"name": "",
					"type": "uint256"
				}
			],
			"stateMutability": "view",
			"type": "function"
		},
		{
			"inputs": [
				{
					"internalType": "uint256",
					"name": "_chamaId",
					"type": "uint256"
				},
				{
					"internalType": "address",
					"name": "_member",
					"type": "address"
				}
			],
			"name": "getMemberPayoutPosition",
			"outputs": [
				{
					"internalType": "uint256",
					"name": "",
					"type": "uint256"
				}
			],
			"stateMutability": "view",
			"type": "function"
		},
		{
			"inputs": [
				{
					"internalType": "uint256",
					"name": "_chamaId",
					"type": "uint256"
				}
			],
			"name": "getTotalCollateral",
			"outputs": [
				{
					"internalType": "uint256",
					"name": "",
					"type": "uint256"
				}
			],
			"stateMutability": "view",
			"type": "function"
		},
		{
			"inputs": [
				{
					"internalType": "address",
					"name": "_user",
					"type": "address"
				}
			],
			"name": "getUserScore",
			"outputs": [
				{
					"internalType": "uint256",
					"name": "",
					"type": "uint256"
				}
			],
			"stateMutability": "view",
			"type": "function"
		},
		{
			"inputs": [
				{
					"internalType": "address",
					"name": "",
					"type": "address"
				},
				{
					"internalType": "uint256",
					"name": "",
					"type": "uint256"
				}
			],
			"name": "hasContributedThisCycle",
			"outputs": [
				{
					"internalType": "bool",
					"name": "",
					"type": "bool"
				}
			],
			"stateMutability": "view",
			"type": "function"
		},
		{
			"inputs": [
				{
					"internalType": "uint256",
					"name": "_chamaId",
					"type": "uint256"
				},
				{
					"internalType": "address",
					"name": "_member",
					"type": "address"
				}
			],
			"name": "hasMemberReceivedPayout",
			"outputs": [
				{
					"internalType": "bool",
					"name": "",
					"type": "bool"
				}
			],
			"stateMutability": "view",
			"type": "function"
		},
		{
			"inputs": [
				{
					"internalType": "uint256",
					"name": "_chamaId",
					"type": "uint256"
				},
				{
					"internalType": "address",
					"name": "_user",
					"type": "address"
				}
			],
			"name": "isChamaMember",
			"outputs": [
				{
					"internalType": "bool",
					"name": "",
					"type": "bool"
				}
			],
			"stateMutability": "view",
			"type": "function"
		},
		{
			"inputs": [
				{
					"internalType": "uint256",
					"name": "_chamaId",
					"type": "uint256"
				},
				{
					"internalType": "address",
					"name": "_member",
					"type": "address"
				}
			],
			"name": "isCollateralReturned",
			"outputs": [
				{
					"internalType": "bool",
					"name": "",
					"type": "bool"
				}
			],
			"stateMutability": "view",
			"type": "function"
		},
		{
			"inputs": [
				{
					"internalType": "uint256",
					"name": "_chamaId",
					"type": "uint256"
				}
			],
			"name": "joinChama",
			"outputs": [],
			"stateMutability": "payable",
			"type": "function"
		},
		{
			"inputs": [
				{
					"internalType": "address",
					"name": "",
					"type": "address"
				},
				{
					"internalType": "uint256",
					"name": "",
					"type": "uint256"
				}
			],
			"name": "lastContributionTimestamp",
			"outputs": [
				{
					"internalType": "uint256",
					"name": "",
					"type": "uint256"
				}
			],
			"stateMutability": "view",
			"type": "function"
		},
		{
			"inputs": [],
			"name": "owner",
			"outputs": [
				{
					"internalType": "address",
					"name": "",
					"type": "address"
				}
			],
			"stateMutability": "view",
			"type": "function"
		},
		{
			"inputs": [
				{
					"internalType": "uint256",
					"name": "_chamaId",
					"type": "uint256"
				}
			],
			"name": "processMissedContributions",
			"outputs": [],
			"stateMutability": "nonpayable",
			"type": "function"
		},
		{
			"inputs": [
				{
					"internalType": "address",
					"name": "",
					"type": "address"
				}
			],
			"name": "scores",
			"outputs": [
				{
					"internalType": "uint256",
					"name": "",
					"type": "uint256"
				}
			],
			"stateMutability": "view",
			"type": "function"
		},
		{
			"inputs": [
				{
					"internalType": "uint256",
					"name": "_chamaId",
					"type": "uint256"
				}
			],
			"name": "stackBTC",
			"outputs": [],
			"stateMutability": "payable",
			"type": "function"
		},
		{
			"inputs": [
				{
					"internalType": "uint256",
					"name": "_chamaId",
					"type": "uint256"
				}
			],
			"name": "startChama",
			"outputs": [],
			"stateMutability": "nonpayable",
			"type": "function"
		},
		{
			"inputs": [
				{
					"internalType": "address",
					"name": "_user",
					"type": "address"
				},
				{
					"internalType": "uint256",
					"name": "_points",
					"type": "uint256"
				}
			],
			"name": "updateUserScore",
			"outputs": [],
			"stateMutability": "nonpayable",
			"type": "function"
		},
		{
			"inputs": [
				{
					"internalType": "address",
					"name": "",
					"type": "address"
				},
				{
					"internalType": "uint256",
					"name": "",
					"type": "uint256"
				}
			],
			"name": "userChamas",
			"outputs": [
				{
					"internalType": "uint256",
					"name": "",
					"type": "uint256"
				}
			],
			"stateMutability": "view",
			"type": "function"
		},
		{
			"inputs": [
				{
					"internalType": "address",
					"name": "",
					"type": "address"
				},
				{
					"internalType": "uint256",
					"name": "",
					"type": "uint256"
				}
			],
			"name": "userContributions",
			"outputs": [
				{
					"internalType": "uint256",
					"name": "",
					"type": "uint256"
				}
			],
			"stateMutability": "view",
			"type": "function"
		}
	]
}