{
  "_format": "hh-sol-artifact-1",
  "contractName": "FakeDAI",
  "sourceName": "contracts/FakeDAI.sol",
  "abi": [
    {
      "inputs": [],
      "stateMutability": "nonpayable",
      "type": "constructor"
    },
    {
      "inputs": [
        {
          "internalType": "address",
          "name": "spender",
          "type": "address"
        },
        {
          "internalType": "uint256",
          "name": "allowance",
          "type": "uint256"
        },
        {
          "internalType": "uint256",
          "name": "needed",
          "type": "uint256"
        }
      ],
      "name": "ERC20InsufficientAllowance",
      "type": "error"
    },
    {
      "inputs": [
        {
          "internalType": "address",
          "name": "sender",
          "type": "address"
        },
        {
          "internalType": "uint256",
          "name": "balance",
          "type": "uint256"
        },
        {
          "internalType": "uint256",
          "name": "needed",
          "type": "uint256"
        }
      ],
      "name": "ERC20InsufficientBalance",
      "type": "error"
    },
    {
      "inputs": [
        {
          "internalType": "address",
          "name": "approver",
          "type": "address"
        }
      ],
      "name": "ERC20InvalidApprover",
      "type": "error"
    },
    {
      "inputs": [
        {
          "internalType": "address",
          "name": "receiver",
          "type": "address"
        }
      ],
      "name": "ERC20InvalidReceiver",
      "type": "error"
    },
    {
      "inputs": [
        {
          "internalType": "address",
          "name": "sender",
          "type": "address"
        }
      ],
      "name": "ERC20InvalidSender",
      "type": "error"
    },
    {
      "inputs": [
        {
          "internalType": "address",
          "name": "spender",
          "type": "address"
        }
      ],
      "name": "ERC20InvalidSpender",
      "type": "error"
    },
    {
      "inputs": [
        {
          "internalType": "address",
          "name": "owner",
          "type": "address"
        }
      ],
      "name": "OwnableInvalidOwner",
      "type": "error"
    },
    {
      "inputs": [
        {
          "internalType": "address",
          "name": "account",
          "type": "address"
        }
      ],
      "name": "OwnableUnauthorizedAccount",
      "type": "error"
    },
    {
      "anonymous": false,
      "inputs": [
        {
          "indexed": true,
          "internalType": "address",
          "name": "owner",
          "type": "address"
        },
        {
          "indexed": true,
          "internalType": "address",
          "name": "spender",
          "type": "address"
        },
        {
          "indexed": false,
          "internalType": "uint256",
          "name": "value",
          "type": "uint256"
        }
      ],
      "name": "Approval",
      "type": "event"
    },
    {
      "anonymous": false,
      "inputs": [
        {
          "indexed": true,
          "internalType": "address",
          "name": "previousOwner",
          "type": "address"
        },
        {
          "indexed": true,
          "internalType": "address",
          "name": "newOwner",
          "type": "address"
        }
      ],
      "name": "OwnershipTransferred",
      "type": "event"
    },
    {
      "anonymous": false,
      "inputs": [
        {
          "indexed": true,
          "internalType": "address",
          "name": "from",
          "type": "address"
        },
        {
          "indexed": true,
          "internalType": "address",
          "name": "to",
          "type": "address"
        },
        {
          "indexed": false,
          "internalType": "uint256",
          "name": "value",
          "type": "uint256"
        }
      ],
      "name": "Transfer",
      "type": "event"
    },
    {
      "inputs": [],
      "name": "FAUCET_AMOUNT",
      "outputs": [
        {
          "internalType": "uint256",
          "name": "",
          "type": "uint256"
        }
      ],
      "stateMutability": "view",
      "type": "function"
    },
    {
      "inputs": [],
      "name": "FAUCET_COOLDOWN",
      "outputs": [
        {
          "internalType": "uint256",
          "name": "",
          "type": "uint256"
        }
      ],
      "stateMutability": "view",
      "type": "function"
    },
    {
      "inputs": [
        {
          "internalType": "address",
          "name": "owner",
          "type": "address"
        },
        {
          "internalType": "address",
          "name": "spender",
          "type": "address"
        }
      ],
      "name": "allowance",
      "outputs": [
        {
          "internalType": "uint256",
          "name": "",
          "type": "uint256"
        }
      ],
      "stateMutability": "view",
      "type": "function"
    },
    {
      "inputs": [
        {
          "internalType": "address",
          "name": "spender",
          "type": "address"
        },
        {
          "internalType": "uint256",
          "name": "value",
          "type": "uint256"
        }
      ],
      "name": "approve",
      "outputs": [
        {
          "internalType": "bool",
          "name": "",
          "type": "bool"
        }
      ],
      "stateMutability": "nonpayable",
      "type": "function"
    },
    {
      "inputs": [
        {
          "internalType": "address",
          "name": "account",
          "type": "address"
        }
      ],
      "name": "balanceOf",
      "outputs": [
        {
          "internalType": "uint256",
          "name": "",
          "type": "uint256"
        }
      ],
      "stateMutability": "view",
      "type": "function"
    },
    {
      "inputs": [
        {
          "internalType": "uint256",
          "name": "amount",
          "type": "uint256"
        }
      ],
      "name": "burn",
      "outputs": [],
      "stateMutability": "nonpayable",
      "type": "function"
    },
    {
      "inputs": [
        {
          "internalType": "address",
          "name": "user",
          "type": "address"
        }
      ],
      "name": "canClaimFaucet",
      "outputs": [
        {
          "internalType": "bool",
          "name": "canClaim",
          "type": "bool"
        },
        {
          "internalType": "uint256",
          "name": "timeUntilNextClaim",
          "type": "uint256"
        }
      ],
      "stateMutability": "view",
      "type": "function"
    },
    {
      "inputs": [],
      "name": "decimals",
      "outputs": [
        {
          "internalType": "uint8",
          "name": "",
          "type": "uint8"
        }
      ],
      "stateMutability": "view",
      "type": "function"
    },
    {
      "inputs": [],
      "name": "faucet",
      "outputs": [],
      "stateMutability": "nonpayable",
      "type": "function"
    },
    {
      "inputs": [
        {
          "internalType": "address",
          "name": "",
          "type": "address"
        }
      ],
      "name": "lastFaucetClaim",
      "outputs": [
        {
          "internalType": "uint256",
          "name": "",
          "type": "uint256"
        }
      ],
      "stateMutability": "view",
      "type": "function"
    },
    {
      "inputs": [
        {
          "internalType": "address",
          "name": "to",
          "type": "address"
        },
        {
          "internalType": "uint256",
          "name": "amount",
          "type": "uint256"
        }
      ],
      "name": "mint",
      "outputs": [],
      "stateMutability": "nonpayable",
      "type": "function"
    },
    {
      "inputs": [],
      "name": "name",
      "outputs": [
        {
          "internalType": "string",
          "name": "",
          "type": "string"
        }
      ],
      "stateMutability": "view",
      "type": "function"
    },
    {
      "inputs": [],
      "name": "owner",
      "outputs": [
        {
          "internalType": "address",
          "name": "",
          "type": "address"
        }
      ],
      "stateMutability": "view",
      "type": "function"
    },
    {
      "inputs": [],
      "name": "renounceOwnership",
      "outputs": [],
      "stateMutability": "nonpayable",
      "type": "function"
    },
    {
      "inputs": [],
      "name": "symbol",
      "outputs": [
        {
          "internalType": "string",
          "name": "",
          "type": "string"
        }
      ],
      "stateMutability": "view",
      "type": "function"
    },
    {
      "inputs": [],
      "name": "totalSupply",
      "outputs": [
        {
          "internalType": "uint256",
          "name": "",
          "type": "uint256"
        }
      ],
      "stateMutability": "view",
      "type": "function"
    },
    {
      "inputs": [
        {
          "internalType": "address",
          "name": "to",
          "type": "address"
        },
        {
          "internalType": "uint256",
          "name": "value",
          "type": "uint256"
        }
      ],
      "name": "transfer",
      "outputs": [
        {
          "internalType": "bool",
          "name": "",
          "type": "bool"
        }
      ],
      "stateMutability": "nonpayable",
      "type": "function"
    },
    {
      "inputs": [
        {
          "internalType": "address",
          "name": "from",
          "type": "address"
        },
        {
          "internalType": "address",
          "name": "to",
          "type": "address"
        },
        {
          "internalType": "uint256",
          "name": "value",
          "type": "uint256"
        }
      ],
      "name": "transferFrom",
      "outputs": [
        {
          "internalType": "bool",
          "name": "",
          "type": "bool"
        }
      ],
      "stateMutability": "nonpayable",
      "type": "function"
    },
    {
      "inputs": [
        {
          "internalType": "address",
          "name": "newOwner",
          "type": "address"
        }
      ],
      "name": "transferOwnership",
      "outputs": [],
      "stateMutability": "nonpayable",
      "type": "function"
    }
  ],
  "bytecode": "0x60803462000418576040906001600160401b03908083018281118282101762000402578352601381526020907f46616b652044616920537461626c65636f696e00000000000000000000000000828201528351928484018481108282111762000402578552600493848152636644414960e01b848201528251828111620003ed576003918254916001958684811c94168015620003e2575b88851014620003cd578190601f9485811162000377575b508890858311600114620003105760009262000304575b505060001982861b1c191690861b1783555b8051938411620002ef5786548581811c91168015620002e4575b87821014620002cf5782811162000284575b508591841160011462000219579383949184926000956200020d575b50501b92600019911b1c19161782555b3315620001f65760058054336001600160a01b0319821681179092556001600160a01b03167f8be0079c531659141344cd1fd0a4f28419497f9722a3daafe3b4186f6b6457e0600080a360025469d3c21bcecceda100000092838201809211620001e157506000917fddf252ad1be2c89b69c2b068fc378daa952ba7f163c4a11628f55a4df523b3ef9160025533835282815284832084815401905584519384523393a351610c1790816200041e8239f35b601190634e487b7160e01b6000525260246000fd5b5060006024925191631e4fbdf760e01b8352820152fd5b0151935038806200011f565b9190601f198416928760005284876000209460005b89898383106200026c575050501062000251575b50505050811b0182556200012f565b01519060f884600019921b161c191690553880808062000242565b8686015189559097019694850194889350016200022e565b87600052866000208380870160051c820192898810620002c5575b0160051c019086905b828110620002b857505062000103565b60008155018690620002a8565b925081926200029f565b602288634e487b7160e01b6000525260246000fd5b90607f1690620000f1565b604187634e487b7160e01b6000525260246000fd5b015190503880620000c5565b90889350601f19831691876000528a6000209260005b8c82821062000360575050841162000347575b505050811b018355620000d7565b015160001983881b60f8161c1916905538808062000339565b8385015186558c9790950194938401930162000326565b90915085600052886000208580850160051c8201928b8610620003c3575b918a91869594930160051c01915b828110620003b3575050620000ae565b600081558594508a9101620003a3565b9250819262000395565b602289634e487b7160e01b6000525260246000fd5b93607f169362000097565b604186634e487b7160e01b6000525260246000fd5b634e487b7160e01b600052604160045260246000fd5b600080fdfe6040608081526004908136101561001557600080fd5b600091823560e01c806301d8a296146109ab57806306fdde03146108d0578063095ea7b31461082757806318160ddd1461080857806323b872dd14610715578063313ce567146106f957806340c10f191461062f57806342966c681461055f57806370a0823114610528578063715018a6146104c857806376697640146104ab5780637d1d5d191461048d5780638a877205146104555780638da5cb5b1461042c57806395d89b411461030c578063a9059cbb146102db578063dd62ed3e1461028e578063de5f72fd146101845763f2fde38b146100f257600080fd5b346101805760203660031901126101805761010b6109dd565b90610114610a57565b6001600160a01b0391821692831561016a575050600554826bffffffffffffffffffffffff60a01b821617600555167f8be0079c531659141344cd1fd0a4f28419497f9722a3daafe3b4186f6b6457e08380a380f35b51631e4fbdf760e01b8152908101849052602490fd5b8280fd5b50903461018057826003193601126101805733835260066020528083205462015180810180911161027b5742106102385733835260066020524281842055331561022357600254683635c9adc5dea00000928382018092116102105750600255338352826020528083208281540190555190815281600080516020610bc283398151915260203393a380f35b634e487b7160e01b855260119052602484fd5b91602492519163ec442f0560e01b8352820152fd5b906020606492519162461bcd60e51b8352820152601760248201527f46617563657420636f6f6c646f776e206e6f74206d65740000000000000000006044820152fd5b634e487b7160e01b845260118352602484fd5b5050346102d757806003193601126102d757806020926102ac6109dd565b6102b46109f8565b6001600160a01b0391821683526001865283832091168252845220549051908152f35b5080fd5b5050346102d757806003193601126102d7576020906103056102fb6109dd565b6024359033610a83565b5160018152f35b509190346102d757816003193601126102d757805190828454600181811c90808316928315610422575b602093848410811461040f578388529081156103f3575060011461039e575b505050829003601f01601f191682019267ffffffffffffffff84118385101761038b5750829182610387925282610a0e565b0390f35b634e487b7160e01b815260418552602490fd5b8787529192508591837f8a35acfbc15ff81a39ae7d344fd709f28e8600b4aa8c65c6b64bfe7fe36bd19b5b8385106103df5750505050830101388080610355565b8054888601830152930192849082016103c9565b60ff1916878501525050151560051b8401019050388080610355565b634e487b7160e01b895260228a52602489fd5b91607f1691610336565b5050346102d757816003193601126102d75760055490516001600160a01b039091168152602090f35b5050346102d75760203660031901126102d75760209181906001600160a01b0361047d6109dd565b1681526006845220549051908152f35b5050346102d757816003193601126102d75760209051620151808152f35b5050346102d757816003193601126102d757602090516103e88152f35b83346105255780600319360112610525576104e1610a57565b600580546001600160a01b0319811690915581906001600160a01b03167f8be0079c531659141344cd1fd0a4f28419497f9722a3daafe3b4186f6b6457e08280a380f35b80fd5b5050346102d75760203660031901126102d75760209181906001600160a01b036105506109dd565b16815280845220549051908152f35b509190346102d75760203660031901126102d757670de0b6b3a764000083358181029291811591840414171561061c573315610606573383528260205280832054938285106105db5750818394338552846020520381842055816002540360025551908152600080516020610bc283398151915260203392a380f35b905163391434e360e21b81523391810191825260208201859052604082018390529081906060010390fd5b51634b637e8f60e11b8152808401839052602490fd5b634e487b7160e01b835260118452602483fd5b5090346101805780600319360112610180576106496109dd565b9060243591610656610a57565b670de0b6b3a7640000928381029381850414901517156106e6576001600160a01b03169283156106d157600254908382018092116106be57508492600080516020610bc28339815191529260209260025585855284835280852082815401905551908152a380f35b634e487b7160e01b865260119052602485fd5b84602492519163ec442f0560e01b8352820152fd5b634e487b7160e01b855260118452602485fd5b5050346102d757816003193601126102d7576020905160128152f35b508234610525576060366003190112610525576107306109dd565b6107386109f8565b916044359360018060a01b038316808352600160205286832033845260205286832054916000198310610774575b602088610305898989610a83565b8683106107dc5781156107c55733156107ae5750825260016020908152868320338452815291869020908590039055829061030587610766565b8751634a1406b160e11b8152908101849052602490fd5b875163e602df0560e01b8152908101849052602490fd5b8751637dc7a0d960e11b8152339181019182526020820193909352604081018790528291506060010390fd5b5050346102d757816003193601126102d7576020906002549051908152f35b50346101805781600319360112610180576108406109dd565b6024359033156108b9576001600160a01b03169182156108a257508083602095338152600187528181208582528752205582519081527f8c5be1e5ebec7d5bd14f71427d1e84f3dd0314c0f7b2291e5b200ac8c7c3b925843392a35160018152f35b8351634a1406b160e11b8152908101859052602490fd5b835163e602df0560e01b8152808401869052602490fd5b509190346102d757816003193601126102d75780519082600354600181811c908083169283156109a1575b602093848410811461040f578388529081156103f3575060011461094b57505050829003601f01601f191682019267ffffffffffffffff84118385101761038b5750829182610387925282610a0e565b600387529192508591837fc2575a0e9e593c00f959f8c92f12db2869c3395a3b0502d05e2516446f71f85b5b83851061098d5750505050830101388080610355565b805488860183015293019284908201610977565b91607f16916108fb565b82843461052557602036600319011261052557506109cf6109ca6109dd565b610b4f565b825191151582526020820152f35b600435906001600160a01b03821682036109f357565b600080fd5b602435906001600160a01b03821682036109f357565b6020808252825181830181905290939260005b828110610a4357505060409293506000838284010152601f8019910116010190565b818101860151848201604001528501610a21565b6005546001600160a01b03163303610a6b57565b60405163118cdaa760e01b8152336004820152602490fd5b916001600160a01b03808416928315610b365716928315610b1d5760009083825281602052604082205490838210610aeb57509160408282600080516020610bc2833981519152958760209652828652038282205586815220818154019055604051908152a3565b60405163391434e360e21b81526001600160a01b03919091166004820152602481019190915260448101839052606490fd5b60405163ec442f0560e01b815260006004820152602490fd5b604051634b637e8f60e11b815260006004820152602490fd5b6001600160a01b03166000908152600660205260408120549091906201518080820191828111610bad57428311610b895750505060019190565b4290030192908311610b99579190565b634e487b7160e01b81526011600452602490fd5b634e487b7160e01b85526011600452602485fdfeddf252ad1be2c89b69c2b068fc378daa952ba7f163c4a11628f55a4df523b3efa26469706673582212207fbaaba66ada9c31cd8fa8195f0def2de80353e42be25d3be301a2a30494b89664736f6c63430008140033",
  "linkReferences": {},
  "deployedLinkReferences": {}
}