{"contracts/ROSCAFactory.sol":{"ROSCAFactory":{"abi":[{"inputs":[],"stateMutability":"nonpayable","type":"constructor"},{"inputs":[{"internalType":"address","name":"owner","type":"address"}],"name":"OwnableInvalidOwner","type":"error"},{"inputs":[{"internalType":"address","name":"account","type":"address"}],"name":"OwnableUnauthorizedAccount","type":"error"},{"inputs":[],"name":"ReentrancyGuardReentrantCall","type":"error"},{"anonymous":false,"inputs":[{"indexed":false,"internalType":"uint256","name":"oldFee","type":"uint256"},{"indexed":false,"internalType":"uint256","name":"newFee","type":"uint256"}],"name":"CreationFeeUpdated","type":"event"},{"anonymous":false,"inputs":[{"indexed":true,"internalType":"address","name":"previousOwner","type":"address"},{"indexed":true,"internalType":"address","name":"newOwner","type":"address"}],"name":"OwnershipTransferred","type":"event"},{"anonymous":false,"inputs":[{"indexed":true,"internalType":"uint256","name":"roscaId","type":"uint256"},{"indexed":true,"internalType":"address","name":"creator","type":"address"},{"indexed":true,"internalType":"address","name":"roscaAddress","type":"address"},{"indexed":false,"internalType":"string","name":"name","type":"string"},{"indexed":false,"internalType":"address","name":"token","type":"address"},{"indexed":false,"internalType":"uint256","name":"contributionAmount","type":"uint256"},{"indexed":false,"internalType":"uint256","name":"maxMembers","type":"uint256"}],"name":"ROSCACreated","type":"event"},{"anonymous":false,"inputs":[{"indexed":true,"internalType":"uint256","name":"roscaId","type":"uint256"},{"indexed":false,"internalType":"string","name":"reason","type":"string"}],"name":"ROSCADeactivated","type":"event"},{"inputs":[{"internalType":"uint256","name":"_contributionAmount","type":"uint256"},{"internalType":"uint256","name":"_roundDuration","type":"uint256"},{"internalType":"uint256","name":"_maxMembers","type":"uint256"}],"name":"createROSCA","outputs":[{"internalType":"address","name":"","type":"address"}],"stateMutability":"payable","type":"function"},{"inputs":[],"name":"creationFee","outputs":[{"internalType":"uint256","name":"","type":"uint256"}],"stateMutability":"view","type":"function"},{"inputs":[{"internalType":"uint256","name":"_roscaId","type":"uint256"},{"internalType":"string","name":"_reason","type":"string"}],"name":"deactivateROSCA","outputs":[],"stateMutability":"nonpayable","type":"function"},{"inputs":[{"internalType":"uint256","name":"","type":"uint256"}],"name":"deployedROSCAs","outputs":[{"internalType":"address","name":"roscaAddress","type":"address"},{"internalType":"address","name":"creator","type":"address"},{"internalType":"uint256","name":"creationTime","type":"uint256"},{"internalType":"string","name":"name","type":"string"},{"internalType":"uint256","name":"contributionAmount","type":"uint256"},{"internalType":"uint256","name":"maxMembers","type":"uint256"},{"internalType":"bool","name":"isActive","type":"bool"}],"stateMutability":"view","type":"function"},{"inputs":[],"name":"emergencyWithdraw","outputs":[],"stateMutability":"nonpayable","type":"function"},{"inputs":[],"name":"feeCollector","outputs":[{"internalType":"address","name":"","type":"address"}],"stateMutability":"view","type":"function"},{"inputs":[],"name":"getActiveROSCACount","outputs":[{"internalType":"uint256","name":"","type":"uint256"}],"stateMutability":"view","type":"function"},{"inputs":[],"name":"getFactoryStats","outputs":[{"internalType":"uint256","name":"totalCreated","type":"uint256"},{"internalType":"uint256","name":"activeCount","type":"uint256"},{"internalType":"uint256","name":"creationFeeAmount","type":"uint256"}],"stateMutability":"view","type":"function"},{"inputs":[{"internalType":"uint256","name":"_roscaId","type":"uint256"}],"name":"getROSCADetails","outputs":[{"internalType":"address","name":"roscaAddress","type":"address"},{"internalType":"address","name":"creator","type":"address"},{"internalType":"uint256","name":"creationTime","type":"uint256"},{"internalType":"string","name":"name","type":"string"},{"internalType":"uint256","name":"contributionAmount","type":"uint256"},{"internalType":"uint256","name":"maxMembers","type":"uint256"},{"internalType":"bool","name":"isActive","type":"bool"}],"stateMutability":"view","type":"function"},{"inputs":[{"internalType":"address","name":"_user","type":"address"}],"name":"getUserROSCAs","outputs":[{"internalType":"uint256[]","name":"","type":"uint256[]"}],"stateMutability":"view","type":"function"},{"inputs":[],"name":"owner","outputs":[{"internalType":"address","name":"","type":"address"}],"stateMutability":"view","type":"function"},{"inputs":[],"name":"renounceOwnership","outputs":[],"stateMutability":"nonpayable","type":"function"},{"inputs":[],"name":"totalROSCAsCreated","outputs":[{"internalType":"uint256","name":"","type":"uint256"}],"stateMutability":"view","type":"function"},{"inputs":[{"internalType":"address","name":"newOwner","type":"address"}],"name":"transferOwnership","outputs":[],"stateMutability":"nonpayable","type":"function"},{"inputs":[{"internalType":"uint256","name":"_newFee","type":"uint256"}],"name":"updateCreationFee","outputs":[],"stateMutability":"nonpayable","type":"function"},{"inputs":[{"internalType":"address","name":"_newFeeCollector","type":"address"}],"name":"updateFeeCollector","outputs":[],"stateMutability":"nonpayable","type":"function"},{"inputs":[{"internalType":"address","name":"","type":"address"},{"internalType":"uint256","name":"","type":"uint256"}],"name":"userROSCAs","outputs":[{"internalType":"uint256","name":"","type":"uint256"}],"stateMutability":"view","type":"function"},{"stateMutability":"payable","type":"receive"}],"evm":{"bytecode":{"linkReferences":{},"object":"608060405266038d7ea4c6800060055534801561001b57600080fd5b50338061004257604051631e4fbdf760e01b81526000600482015260240160405180910390fd5b61004b81610067565b5060018055600680546001600160a01b031916331790556100b7565b600080546001600160a01b038381166001600160a01b0319831681178455604051919092169283917f8be0079c531659141344cd1fd0a4f28419497f9722a3daafe3b4186f6b6457e09190a35050565b613348806100c66000396000f3fe608060405260043610620001175760003560e01c8063c415b95c11620000a1578063db2e21bc116200006c578063db2e21bc1462000316578063db76d533146200032e578063dce0b4e41462000346578063dfc5b7db146200035e578063f2fde38b146200038357600080fd5b8063c415b95c1462000276578063c603e9731462000298578063c922644514620002bd578063d2c35ce814620002f157600080fd5b80636fa2379511620000e25780636fa2379514620001f2578063715018a614620002195780638da5cb5b1462000231578063ac9aaa2a146200025157600080fd5b8063207eba9914620001245780633173dab714620001615780636859dd6e146200019b5780636b4b87ab14620001c257600080fd5b366200011f57005b600080fd5b3480156200013157600080fd5b50620001496200014336600462000fc4565b620003a8565b60405162000158919062000fe2565b60405180910390f35b3480156200016e57600080fd5b50620001866200018036600462001028565b62000416565b60405162000158979695949392919062001096565b348015620001a857600080fd5b50620001b360025481565b60405190815260200162000158565b620001d9620001d3366004620010ec565b6200051c565b6040516001600160a01b03909116815260200162000158565b348015620001ff57600080fd5b50620002176200021136600462001028565b62000957565b005b3480156200022657600080fd5b5062000217620009a6565b3480156200023e57600080fd5b506000546001600160a01b0316620001d9565b3480156200025e57600080fd5b50620001866200027036600462001028565b620009be565b3480156200028357600080fd5b50600654620001d9906001600160a01b031681565b348015620002a557600080fd5b50620001b3620002b736600462001119565b62000a9d565b348015620002ca57600080fd5b50620002d562000acf565b6040805193845260208401929092529082015260600162000158565b348015620002fe57600080fd5b50620002176200031036600462000fc4565b62000aef565b3480156200032357600080fd5b506200021762000b6b565b3480156200033b57600080fd5b50620001b362000c29565b3480156200035357600080fd5b50620001b360055481565b3480156200036b57600080fd5b50620002176200037d36600462001146565b62000c7f565b3480156200039057600080fd5b5062000217620003a236600462000fc4565b62000d8d565b6001600160a01b0381166000908152600460209081526040918290208054835181840281018401909452808452606093928301828280156200040a57602002820191906000526020600020905b815481526020019060010190808311620003f5575b50505050509050919050565b600081815260036020819052604082208054600182015460028301546004840154600585015460068601549686018054899889986060988a988998899893976001600160a01b03938416979390921695909492939260ff169084906200047c90620011c7565b80601f0160208091040260200160405190810160405280929190818152602001828054620004aa90620011c7565b8015620004fb5780601f10620004cf57610100808354040283529160200191620004fb565b820191906000526020600020905b815481529060010190602001808311620004dd57829003601f168201915b50505050509350975097509750975097509750975050919395979092949650565b60006200052862000dce565b600554341015620005805760405162461bcd60e51b815260206004820152601960248201527f496e73756666696369656e74206372656174696f6e206665650000000000000060448201526064015b60405180910390fd5b6002821015620005d35760405162461bcd60e51b815260206004820152601760248201527f4e656564206174206c656173742032206d656d62657273000000000000000000604482015260640162000577565b62015180831015620006285760405162461bcd60e51b815260206004820152601860248201527f526f756e64206475726174696f6e20746f6f2073686f72740000000000000000604482015260640162000577565b600084116200067a5760405162461bcd60e51b815260206004820152601f60248201527f436f6e747269627574696f6e20616d6f756e74206d757374206265203e203000604482015260640162000577565b6000848484336040516200068e9062000f99565b938452602084019290925260408301526001600160a01b03166060820152608001604051809103906000f080158015620006cc573d6000803e3d6000fd5b5060028054919250829160009182620006e58362001213565b9190505590506000620006f88262000df9565b6040516020016200070a91906200122f565b60405160208183030381529060405290506040518060e00160405280846001600160a01b03168152602001336001600160a01b03168152602001428152602001828152602001898152602001878152602001600115158152506003600084815260200190815260200160002060008201518160000160006101000a8154816001600160a01b0302191690836001600160a01b0316021790555060208201518160010160006101000a8154816001600160a01b0302191690836001600160a01b03160217905550604082015181600201556060820151816003019081620007f19190620012c9565b50608082015160048281019190915560a0830151600583015560c0909201516006909101805460ff19169115159190911790553360009081526020918252604081208054600181018255908252919020018290553415620008eb576006546040516000916001600160a01b03169034908381818185875af1925050503d80600081146200089b576040519150601f19603f3d011682016040523d82523d6000602084013e620008a0565b606091505b5050905080620008e95760405162461bcd60e51b8152602060048201526013602482015272119959481d1c985b9cd9995c8819985a5b1959606a1b604482015260640162000577565b505b826001600160a01b0316336001600160a01b0316837f1b1b671cffa95fbc16baba6325184278f6c7cf89547ade16bfed77418756cfc28460008d8c60405162000938949392919062001396565b60405180910390a45090925050506200095060018055565b9392505050565b6200096162000f1a565b600580549082905560408051828152602081018490527f5de302eeb1c80d4fb0c0953b692353f09ddf431411b8eb2034d5e85769561912910160405180910390a15050565b620009b062000f1a565b620009bc600062000f49565b565b600360208190526000918252604090912080546001820154600283015493830180546001600160a01b0393841695939092169391620009fd90620011c7565b80601f016020809104026020016040519081016040528092919081815260200182805462000a2b90620011c7565b801562000a7c5780601f1062000a505761010080835404028352916020019162000a7c565b820191906000526020600020905b81548152906001019060200180831162000a5e57829003601f168201915b50505050600483015460058401546006909401549293909290915060ff1687565b6004602052816000526040600020818154811062000aba57600080fd5b90600052602060002001600091509150505481565b600080600060025462000ae162000c29565b600554925092509250909192565b62000af962000f1a565b6001600160a01b03811662000b495760405162461bcd60e51b815260206004820152601560248201527424b73b30b634b2103332b29031b7b63632b1ba37b960591b604482015260640162000577565b600680546001600160a01b0319166001600160a01b0392909216919091179055565b62000b7562000f1a565b47801562000c2657600080546040516001600160a01b039091169083908381818185875af1925050503d806000811462000bcc576040519150601f19603f3d011682016040523d82523d6000602084013e62000bd1565b606091505b505090508062000c245760405162461bcd60e51b815260206004820152601b60248201527f456d657267656e6379207769746864726177616c206661696c65640000000000604482015260640162000577565b505b50565b600080805b60025481101562000c795760008181526003602052604090206006015460ff161562000c64578162000c608162001213565b9250505b8062000c708162001213565b91505062000c2e565b50919050565b600083815260036020526040902080546001600160a01b031662000cd85760405162461bcd60e51b815260206004820152600f60248201526e1493d4d0d0481b9bdd08199bdd5b99608a1b604482015260640162000577565b60018101546001600160a01b031633148062000cfe57506000546001600160a01b031633145b62000d3d5760405162461bcd60e51b815260206004820152600e60248201526d139bdd08185d5d1a1bdc9a5e995960921b604482015260640162000577565b60068101805460ff1916905560405184907f7b8e24d7fa66d1672375506b58cb3c85f8a5c107c38d8875a5ab333371254af39062000d7f9086908690620013d0565b60405180910390a250505050565b62000d9762000f1a565b6001600160a01b03811662000dc357604051631e4fbdf760e01b81526000600482015260240162000577565b62000c268162000f49565b60026001540362000df257604051633ee5aeb560e01b815260040160405180910390fd5b6002600155565b60608160000362000e215750506040805180820190915260018152600360fc1b602082015290565b8160005b811562000e51578062000e388162001213565b915062000e499050600a8362001415565b915062000e25565b60008167ffffffffffffffff81111562000e6f5762000e6f62001260565b6040519080825280601f01601f19166020018201604052801562000e9a576020820181803683370190505b5090505b841562000f125762000eb26001836200142c565b915062000ec1600a8662001448565b62000ece9060306200145f565b60f81b81838151811062000ee65762000ee662001475565b60200101906001600160f81b031916908160001a90535062000f0a600a8662001415565b945062000e9e565b949350505050565b6000546001600160a01b03163314620009bc5760405163118cdaa760e01b815233600482015260240162000577565b600080546001600160a01b038381166001600160a01b0319831681178455604051919092169283917f8be0079c531659141344cd1fd0a4f28419497f9722a3daafe3b4186f6b6457e09190a35050565b611e87806200148c83390190565b80356001600160a01b038116811462000fbf57600080fd5b919050565b60006020828403121562000fd757600080fd5b620009508262000fa7565b6020808252825182820181905260009190848201906040850190845b818110156200101c5783518352928401929184019160010162000ffe565b50909695505050505050565b6000602082840312156200103b57600080fd5b5035919050565b60005b838110156200105f57818101518382015260200162001045565b50506000910152565b600081518084526200108281602086016020860162001042565b601f01601f19169290920160200192915050565b6001600160a01b038881168252871660208201526040810186905260e060608201819052600090620010cb9083018762001068565b60808301959095525060a0810192909252151560c090910152949350505050565b6000806000606084860312156200110257600080fd5b505081359360208301359350604090920135919050565b600080604083850312156200112d57600080fd5b620011388362000fa7565b946020939093013593505050565b6000806000604084860312156200115c57600080fd5b83359250602084013567ffffffffffffffff808211156200117c57600080fd5b818601915086601f8301126200119157600080fd5b813581811115620011a157600080fd5b876020828501011115620011b457600080fd5b6020830194508093505050509250925092565b600181811c90821680620011dc57607f821691505b60208210810362000c7957634e487b7160e01b600052602260045260246000fd5b634e487b7160e01b600052601160045260246000fd5b600060018201620012285762001228620011fd565b5060010190565b66524f534341202360c81b8152600082516200125381600785016020870162001042565b9190910160070192915050565b634e487b7160e01b600052604160045260246000fd5b601f821115620012c457600081815260208120601f850160051c810160208610156200129f5750805b601f850160051c820191505b81811015620012c057828155600101620012ab565b5050505b505050565b815167ffffffffffffffff811115620012e657620012e662001260565b620012fe81620012f78454620011c7565b8462001276565b602080601f8311600181146200133657600084156200131d5750858301515b600019600386901b1c1916600185901b178555620012c0565b600085815260208120601f198616915b82811015620013675788860151825594840194600190910190840162001346565b5085821015620013865787850151600019600388901b60f8161c191681555b5050505050600190811b01905550565b608081526000620013ab608083018762001068565b6001600160a01b03959095166020830152506040810192909252606090910152919050565b60208152816020820152818360408301376000818301604090810191909152601f909201601f19160101919050565b634e487b7160e01b600052601260045260246000fd5b600082620014275762001427620013ff565b500490565b81810381811115620014425762001442620011fd565b92915050565b6000826200145a576200145a620013ff565b500690565b80820180821115620014425762001442620011fd565b634e487b7160e01b600052603260045260246000fdfe6080604052600260058190556202a3006006556007556008805461ff001916905560006009819055600a819055600b8190556011553480156200004157600080fd5b5060405162001e8738038062001e87833981016040819052620000649162000371565b6001600055806001600160a01b0381166200009a57604051631e4fbdf760e01b8152600060048201526024015b60405180910390fd5b620000a581620001e8565b506002821015620000f95760405162461bcd60e51b815260206004820152601760248201527f4e656564206174206c656173742032206d656d62657273000000000000000000604482015260640162000091565b600084116200014b5760405162461bcd60e51b815260206004820152601860248201527f436f6e747269627574696f6e206d757374206265203e20300000000000000000604482015260640162000091565b62015180831015620001925760405162461bcd60e51b815260206004820152600f60248201526e149bdd5b99081d1bdbc81cda1bdc9d608a1b604482015260640162000091565b600284905560038390556004829055600b8290556001600160a01b03811615801590620001bf5750600082115b15620001de57620001d0816200023a565b6008805460ff191660011790555b50505050620003ea565b600180546001600160a01b038381166001600160a01b0319831681179093556040519116919082907f8be0079c531659141344cd1fd0a4f28419497f9722a3daafe3b4186f6b6457e090600090a35050565b604080516101008101825260018082524260208084019182526000848601818152606086018281526080870183815260a0880184815260c0890185815260e08a018681526001600160a01b038d16808852600e9098529a862099518a5490151560ff19918216178b5597518a8a0155935160028a0155915160038901555160048801555160058701555160068601805491151591909416179092559351600790930192909255600d80548083019091557fd7b6990105719101dabeb77144f2a3385c8033acd3af97e9423a695e81ad1eb50180546001600160a01b0319908116851790915560108054928301815583527f1b6847dc741a1b0cd08d278845f9d819d87b734759afb55fe2de5cb82a9ae6729091018054909116909217909155600a8054916200036983620003c2565b919050555050565b600080600080608085870312156200038857600080fd5b845160208601516040870151606088015192965090945092506001600160a01b0381168114620003b757600080fd5b939692955090935050565b600060018201620003e357634e487b7160e01b600052601160045260246000fd5b5060010190565b611a8d80620003fa6000396000f3fe6080604052600436106101c65760003560e01c80637bdb04ec116100f7578063a06db7dc11610095578063f2fde38b11610064578063f2fde38b146105e6578063f7cb789a14610606578063fd3a949f1461061c578063ff85fba21461063157600080fd5b8063a06db7dc1461059d578063bb9d01a4146105b3578063bf4386a0146105c8578063d7bb99ba146105de57600080fd5b80638a568299116100d15780638a568299146104b05780638be48547146104c65780638c65c81f146104db5780638da5cb5b1461057f57600080fd5b80637bdb04ec146103db57806388c3ffb0146103fb5780638a19c8bc1461049a57600080fd5b806358e56db411610164578063605f80831161013e578063605f8083146103855780636766d1ba1461039b578063715018a6146103b057806376e92559146103c557600080fd5b806358e56db4146103505780635956fdcd146103655780635fa0b65f1461036f57600080fd5b806313b8ad31116101a057806313b8ad31146102d85780631724969a146102f8578063200d2ed21461030e5780633fe071be1461033a57600080fd5b806308ae4b0c146101d25780630b529a171461027c578063134200e5146102b457600080fd5b366101cd57005b600080fd5b3480156101de57600080fd5b506102386101ed366004611879565b600e602052600090815260409020805460018201546002830154600384015460048501546005860154600687015460079097015460ff96871697959694959394929391929091169088565b6040805198151589526020890197909752958701949094526060860192909252608085015260a0840152151560c083015260e0820152610100015b60405180910390f35b34801561028857600080fd5b5061029c6102973660046118a9565b610646565b6040516001600160a01b039091168152602001610273565b3480156102c057600080fd5b506102ca600c5481565b604051908152602001610273565b3480156102e457600080fd5b5061029c6102f33660046118a9565b610670565b34801561030457600080fd5b506102ca60055481565b34801561031a57600080fd5b5060085461032d90610100900460ff1681565b60405161027391906118d8565b34801561034657600080fd5b506102ca60115481565b34801561035c57600080fd5b506102ca610680565b61036d610697565b005b34801561037b57600080fd5b506102ca60025481565b34801561039157600080fd5b506102ca60075481565b3480156103a757600080fd5b506102ca6108ac565b3480156103bc57600080fd5b5061036d61090a565b3480156103d157600080fd5b506102ca600a5481565b3480156103e757600080fd5b5061036d6103f6366004611900565b61091c565b34801561040757600080fd5b5061045d6104163660046118a9565b6000908152600f6020526040902060018101546002820154600383015460048401546005850154600690950154939592946001600160a01b0390921693909260ff90911690565b6040805196875260208701959095526001600160a01b039093169385019390935260608401526080830191909152151560a082015260c001610273565b3480156104a657600080fd5b506102ca60095481565b3480156104bc57600080fd5b506102ca600b5481565b3480156104d257600080fd5b5061036d6109dc565b3480156104e757600080fd5b506105406104f63660046118a9565b600f6020526000908152604090208054600182015460028301546003840154600485015460058601546006909601549495939492936001600160a01b039092169290919060ff1687565b604080519788526020880196909652948601939093526001600160a01b039091166060850152608084015260a0830152151560c082015260e001610273565b34801561058b57600080fd5b506001546001600160a01b031661029c565b3480156105a957600080fd5b506102ca60065481565b3480156105bf57600080fd5b5061036d610ad2565b3480156105d457600080fd5b506102ca60045481565b61036d610c0d565b3480156105f257600080fd5b5061036d610601366004611879565b610f33565b34801561061257600080fd5b506102ca60035481565b34801561062857600080fd5b506102ca610f6e565b34801561063d57600080fd5b5061036d610fca565b6010818154811061065657600080fd5b6000918252602090912001546001600160a01b0316905081565b600d818154811061065657600080fd5b60006005546002546106929190611988565b905090565b61069f61100e565b600080600854610100900460ff1660048111156106be576106be6118c2565b146106e45760405162461bcd60e51b81526004016106db906119a5565b60405180910390fd5b600454600a54106107275760405162461bcd60e51b815260206004820152600d60248201526c1493d4d0d0481a5cc8199d5b1b609a1b60448201526064016106db565b336000908152600e602052604090205460ff161561077a5760405162461bcd60e51b815260206004820152601060248201526f20b63932b0b23c90309036b2b6b132b960811b60448201526064016106db565b600060055460025461078c9190611988565b90508034146107dd5760405162461bcd60e51b815260206004820152601860248201527f496e636f7272656374206465706f73697420616d6f756e74000000000000000060448201526064016106db565b6107e633611038565b336000818152600e602090815260409182902060020184905581514281529081018490527fab585a62abffb5c5f3221cacd949f94b54770198cc25af3ad1d315e51be8e3e3910160405180910390a2600454600a540361089e576008805461ff00191661010017905542600c8190556006547f3356ec9443b31b2e7d0a90086b0da20c9eb480fabb47ebd92ede27dd427efd81919061088590826119d3565b6040805192835260208301919091520160405180910390a15b50506108aa6001600055565b565b60006001600854610100900460ff1660048111156108cc576108cc6118c2565b146108d75750600090565b6000600654600c546108e991906119d3565b90508042106108fa57600091505090565b61090442826119e6565b91505090565b61091261116d565b6108aa600061119a565b61092461116d565b6003600854610100900460ff166004811115610942576109426118c2565b0361098f5760405162461bcd60e51b815260206004820152601760248201527f524f53434120616c726561647920636f6d706c6574656400000000000000000060448201526064016106db565b6008805461ff0019166104001790556040517ff7b2275e9c2317fc762ef872047135a5255006085768792f663964422d974373906109d090849084906119f9565b60405180910390a15050565b600280600854610100900460ff1660048111156109fb576109fb6118c2565b14610a185760405162461bcd60e51b81526004016106db906119a5565b600060095411610a5c5760405162461bcd60e51b815260206004820152600f60248201526e139bc81858dd1a5d99481c9bdd5b99608a1b60448201526064016106db565b6009546000908152600f60205260409020600201544211610abf5760405162461bcd60e51b815260206004820152601960248201527f526f756e6420646561646c696e65206e6f74207061737365640000000000000060448201526064016106db565b610ac76111ec565b610acf6113cb565b50565b600180600854610100900460ff166004811115610af157610af16118c2565b14610b0e5760405162461bcd60e51b81526004016106db906119a5565b600654600c54610b1e91906119d3565b421015610b655760405162461bcd60e51b815260206004820152601560248201527423b930b1b2903832b934b7b2103737ba1037bb32b960591b60448201526064016106db565b6002600a541015610bb85760405162461bcd60e51b815260206004820152601760248201527f4e656564206174206c656173742032206d656d6265727300000000000000000060448201526064016106db565b6008805461ff00191661020017905560016009819055610bd790611580565b6040514281527fdb6b3ceb24eee167482a870c355049d6679c171af69d9c94d9babb5762b6be349060200160405180910390a150565b610c1561100e565b336000908152600e602052604090205460ff16610c6b5760405162461bcd60e51b81526020600482015260146024820152732737ba1030b71030b1ba34bb329036b2b6b132b960611b60448201526064016106db565b600280600854610100900460ff166004811115610c8a57610c8a6118c2565b14610ca75760405162461bcd60e51b81526004016106db906119a5565b600060095411610ceb5760405162461bcd60e51b815260206004820152600f60248201526e139bc81858dd1a5d99481c9bdd5b99608a1b60448201526064016106db565b6009546000908152600f60205260409020600681015460ff1615610d4b5760405162461bcd60e51b8152602060048201526017602482015276149bdd5b9908185b1c9958591e4818dbdb5c1b195d1959604a1b60448201526064016106db565b33600090815260078201602052604090205460ff1615610dad5760405162461bcd60e51b815260206004820152601e60248201527f416c726561647920636f6e7472696275746564207468697320726f756e64000060448201526064016106db565b8060020154421115610df95760405162461bcd60e51b8152602060048201526015602482015274149bdd5b9908191958591b1a5b99481c185cdcd959605a1b60448201526064016106db565b6002543414610e4a5760405162461bcd60e51b815260206004820152601860248201527f496e636f7272656374207061796d656e7420616d6f756e74000000000000000060448201526064016106db565b3360009081526007820160205260408120805460ff1916600117905560058201805491610e7683611a28565b9190505550600254816004016000828254610e9191906119d3565b9091555050600254336000908152600e602052604081206003018054909190610ebb9084906119d3565b9091555050336000908152600e60205260408120600401805491610ede83611a28565b909155505060095460025460405190815233907f5dc1fe5ab986a852c4eda8e8bb94247d13307065c593fb83f1a09be2736793829060200160405180910390a3600a5481600501540361089e5761089e6113cb565b610f3b61116d565b6001600160a01b038116610f6557604051631e4fbdf760e01b8152600060048201526024016106db565b610acf8161119a565b60006002600854610100900460ff166004811115610f8e57610f8e6118c2565b141580610f9b5750600954155b15610fa65750600090565b6009546000908152600f60205260409020600201544281116108fa57600091505090565b610fd261116d565b600180600854610100900460ff166004811115610ff157610ff16118c2565b14610b655760405162461bcd60e51b81526004016106db906119a5565b60026000540361103157604051633ee5aeb560e01b815260040160405180910390fd5b6002600055565b604080516101008101825260018082524260208084019182526000848601818152606086018281526080870183815260a0880184815260c0890185815260e08a018681526001600160a01b038d16808852600e9098529a862099518a5490151560ff19918216178b5597518a8a0155935160028a0155915160038901555160048801555160058701555160068601805491151591909416179092559351600790930192909255600d80548083019091557fd7b6990105719101dabeb77144f2a3385c8033acd3af97e9423a695e81ad1eb50180546001600160a01b0319908116851790915560108054928301815583527f1b6847dc741a1b0cd08d278845f9d819d87b734759afb55fe2de5cb82a9ae6729091018054909116909217909155600a80549161116583611a28565b919050555050565b6001546001600160a01b031633146108aa5760405163118cdaa760e01b81523360048201526024016106db565b600180546001600160a01b038381166001600160a01b0319831681179093556040519116919082907f8be0079c531659141344cd1fd0a4f28419497f9722a3daafe3b4186f6b6457e090600090a35050565b6009546000908152600f60205260408120905b600d548110156113c7576000600d828154811061121e5761121e611a41565b60009182526020808320909101546001600160a01b0316808352600e90915260409091205490915060ff16801561127057506001600160a01b038116600090815260078401602052604090205460ff16155b156113b4576001600160a01b0381166000908152600e6020526040812060050180549161129c83611a28565b90915550506007546001600160a01b0382166000908152600e602052604090206005015411156113b457600280546001600160a01b0383166000908152600e602052604090209091015481116113b2576001600160a01b0382166000908152600e6020526040812060020180548392906113179084906119e6565b925050819055508084600401600082825461133291906119d3565b92505081905550816001600160a01b03167f0c36021ba9160c37844a4fffe59606af0c44bb2336762fa830cc938c432d71e4826040516113a9918152604060208201819052601e908201527f457863657373697665206d697373656420636f6e747269627574696f6e730000606082015260800190565b60405180910390a25b505b50806113bf81611a28565b9150506111ff565b5050565b6009546000908152600f60205260409020600681015460ff161561142b5760405162461bcd60e51b8152602060048201526017602482015276149bdd5b9908185b1c9958591e4818dbdb5c1b195d1959604a1b60448201526064016106db565b600381015460048201546040516001600160a01b0390921691600090839083908381818185875af1925050503d8060008114611483576040519150601f19603f3d011682016040523d82523d6000602084013e611488565b606091505b50509050806114c95760405162461bcd60e51b815260206004820152600d60248201526c14185e5bdd5d0819985a5b1959609a1b60448201526064016106db565b6001600160a01b0383166000818152600e602090815260409182902060068082018054600160ff19918216811790925560098054600790950194909455918a0180549092161790555491518581527f014300f2034fcadfa0bad884be9053652f78f5fd8054b2e0741293049171747f910160405180910390a3600b546009541061155a57611555611611565b61157a565b6009805490600061156a83611a28565b919050555061157a600954611580565b50505050565b6000818152600f6020526040902081815542600182018190556003546115a5916119d3565b60028201556115b261178b565b6003820180546001600160a01b0319166001600160a01b03929092169182179055600282015460405190815283907f578960f76997475af77b7eb5b6b4544e5cc867de28b8bcc9052753de5ef6687f9060200160405180910390a35050565b6008805461ff00191661030017905560005b600d54811015611755576000600d828154811061164257611642611a41565b60009182526020808320909101546001600160a01b0316808352600e90915260409091205490915060ff16801561169357506001600160a01b0381166000908152600e602052604090206002015415155b15611742576001600160a01b0381166000818152600e6020526040808220600201805490839055905190929083908381818185875af1925050503d80600081146116f9576040519150601f19603f3d011682016040523d82523d6000602084013e6116fe565b606091505b505090508061173f5760405162461bcd60e51b815260206004820152600d60248201526c1499599d5b990819985a5b1959609a1b60448201526064016106db565b50505b508061174d81611a28565b915050611623565b506040514281527fd57799724d5c069e66abd552aca9bc70e8f36d98f34d0d84841983bc469a4e4a9060200160405180910390a1565b60005b60105460115410156118315760006010601154815481106117b1576117b1611a41565b6000918252602082200154601180546001600160a01b03909216935090916117d883611a28565b90915550506001600160a01b0381166000908152600e602052604090205460ff16801561182157506001600160a01b0381166000908152600e602052604090206006015460ff16155b1561182b57919050565b5061178e565b60405162461bcd60e51b815260206004820152601860248201527f4e6f20656c696769626c652077696e6e657220666f756e64000000000000000060448201526064016106db565b60006020828403121561188b57600080fd5b81356001600160a01b03811681146118a257600080fd5b9392505050565b6000602082840312156118bb57600080fd5b5035919050565b634e487b7160e01b600052602160045260246000fd5b60208101600583106118fa57634e487b7160e01b600052602160045260246000fd5b91905290565b6000806020838503121561191357600080fd5b823567ffffffffffffffff8082111561192b57600080fd5b818501915085601f83011261193f57600080fd5b81358181111561194e57600080fd5b86602082850101111561196057600080fd5b60209290920196919550909350505050565b634e487b7160e01b600052601160045260246000fd5b808202811582820484141761199f5761199f611972565b92915050565b602080825260149082015273496e76616c696420524f5343412073746174757360601b604082015260600190565b8082018082111561199f5761199f611972565b8181038181111561199f5761199f611972565b60208152816020820152818360408301376000818301604090810191909152601f909201601f19160101919050565b600060018201611a3a57611a3a611972565b5060010190565b634e487b7160e01b600052603260045260246000fdfea26469706673582212209cff8f1fb9cfd0a5cc9d6d318c72d84c7dd1711a0adc9c24cf9d3a468906c90a64736f6c63430008140033a2646970667358221220cfdc9bf5acce3ffa1865a10299a20793c4772384f05072be354e40ba3750a41e64736f6c63430008140033","opcodes":"PUSH1 0x80 PUSH1 0x40 MSTORE PUSH7 0x38D7EA4C68000 PUSH1 0x5 SSTORE CALLVALUE DUP1 ISZERO PUSH2 0x1B JUMPI PUSH1 0x0 DUP1 REVERT JUMPDEST POP CALLER DUP1 PUSH2 0x42 JUMPI PUSH1 0x40 MLOAD PUSH4 0x1E4FBDF7 PUSH1 0xE0 SHL DUP2 MSTORE PUSH1 0x0 PUSH1 0x4 DUP3 ADD MSTORE PUSH1 0x24 ADD PUSH1 0x40 MLOAD DUP1 SWAP2 SUB SWAP1 REVERT JUMPDEST PUSH2 0x4B DUP2 PUSH2 0x67 JUMP JUMPDEST POP PUSH1 0x1 DUP1 SSTORE PUSH1 0x6 DUP1 SLOAD PUSH1 0x1 PUSH1 0x1 PUSH1 0xA0 SHL SUB NOT AND CALLER OR SWAP1 SSTORE PUSH2 0xB7 JUMP JUMPDEST PUSH1 0x0 DUP1 SLOAD PUSH1 0x1 PUSH1 0x1 PUSH1 0xA0 SHL SUB DUP4 DUP2 AND PUSH1 0x1 PUSH1 0x1 PUSH1 0xA0 SHL SUB NOT DUP4 AND DUP2 OR DUP5 SSTORE PUSH1 0x40 MLOAD SWAP2 SWAP1 SWAP3 AND SWAP3 DUP4 SWAP2 PUSH32 0x8BE0079C531659141344CD1FD0A4F28419497F9722A3DAAFE3B4186F6B6457E0 SWAP2 SWAP1 LOG3 POP POP JUMP JUMPDEST PUSH2 0x3348 DUP1 PUSH2 0xC6 PUSH1 0x0 CODECOPY PUSH1 0x0 RETURN INVALID PUSH1 0x80 PUSH1 0x40 MSTORE PUSH1 0x4 CALLDATASIZE LT PUSH3 0x117 JUMPI PUSH1 0x0 CALLDATALOAD PUSH1 0xE0 SHR DUP1 PUSH4 0xC415B95C GT PUSH3 0xA1 JUMPI DUP1 PUSH4 0xDB2E21BC GT PUSH3 0x6C JUMPI DUP1 PUSH4 0xDB2E21BC EQ PUSH3 0x316 JUMPI DUP1 PUSH4 0xDB76D533 EQ PUSH3 0x32E JUMPI DUP1 PUSH4 0xDCE0B4E4 EQ PUSH3 0x346 JUMPI DUP1 PUSH4 0xDFC5B7DB EQ PUSH3 0x35E JUMPI DUP1 PUSH4 0xF2FDE38B EQ PUSH3 0x383 JUMPI PUSH1 0x0 DUP1 REVERT JUMPDEST DUP1 PUSH4 0xC415B95C EQ PUSH3 0x276 JUMPI DUP1 PUSH4 0xC603E973 EQ PUSH3 0x298 JUMPI DUP1 PUSH4 0xC9226445 EQ PUSH3 0x2BD JUMPI DUP1 PUSH4 0xD2C35CE8 EQ PUSH3 0x2F1 JUMPI PUSH1 0x0 DUP1 REVERT JUMPDEST DUP1 PUSH4 0x6FA23795 GT PUSH3 0xE2 JUMPI DUP1 PUSH4 0x6FA23795 EQ PUSH3 0x1F2 JUMPI DUP1 PUSH4 0x715018A6 EQ PUSH3 0x219 JUMPI DUP1 PUSH4 0x8DA5CB5B EQ PUSH3 0x231 JUMPI DUP1 PUSH4 0xAC9AAA2A EQ PUSH3 0x251 JUMPI PUSH1 0x0 DUP1 REVERT JUMPDEST DUP1 PUSH4 0x207EBA99 EQ PUSH3 0x124 JUMPI DUP1 PUSH4 0x3173DAB7 EQ PUSH3 0x161 JUMPI DUP1 PUSH4 0x6859DD6E EQ PUSH3 0x19B JUMPI DUP1 PUSH4 0x6B4B87AB EQ PUSH3 0x1C2 JUMPI PUSH1 0x0 DUP1 REVERT JUMPDEST CALLDATASIZE PUSH3 0x11F JUMPI STOP JUMPDEST PUSH1 0x0 DUP1 REVERT JUMPDEST CALLVALUE DUP1 ISZERO PUSH3 0x131 JUMPI PUSH1 0x0 DUP1 REVERT JUMPDEST POP PUSH3 0x149 PUSH3 0x143 CALLDATASIZE PUSH1 0x4 PUSH3 0xFC4 JUMP JUMPDEST PUSH3 0x3A8 JUMP JUMPDEST PUSH1 0x40 MLOAD PUSH3 0x158 SWAP2 SWAP1 PUSH3 0xFE2 JUMP JUMPDEST PUSH1 0x40 MLOAD DUP1 SWAP2 SUB SWAP1 RETURN JUMPDEST CALLVALUE DUP1 ISZERO PUSH3 0x16E JUMPI PUSH1 0x0 DUP1 REVERT JUMPDEST POP PUSH3 0x186 PUSH3 0x180 CALLDATASIZE PUSH1 0x4 PUSH3 0x1028 JUMP JUMPDEST PUSH3 0x416 JUMP JUMPDEST PUSH1 0x40 MLOAD PUSH3 0x158 SWAP8 SWAP7 SWAP6 SWAP5 SWAP4 SWAP3 SWAP2 SWAP1 PUSH3 0x1096 JUMP JUMPDEST CALLVALUE DUP1 ISZERO PUSH3 0x1A8 JUMPI PUSH1 0x0 DUP1 REVERT JUMPDEST POP PUSH3 0x1B3 PUSH1 0x2 SLOAD DUP2 JUMP JUMPDEST PUSH1 0x40 MLOAD SWAP1 DUP2 MSTORE PUSH1 0x20 ADD PUSH3 0x158 JUMP JUMPDEST PUSH3 0x1D9 PUSH3 0x1D3 CALLDATASIZE PUSH1 0x4 PUSH3 0x10EC JUMP JUMPDEST PUSH3 0x51C JUMP JUMPDEST PUSH1 0x40 MLOAD PUSH1 0x1 PUSH1 0x1 PUSH1 0xA0 SHL SUB SWAP1 SWAP2 AND DUP2 MSTORE PUSH1 0x20 ADD PUSH3 0x158 JUMP JUMPDEST CALLVALUE DUP1 ISZERO PUSH3 0x1FF JUMPI PUSH1 0x0 DUP1 REVERT JUMPDEST POP PUSH3 0x217 PUSH3 0x211 CALLDATASIZE PUSH1 0x4 PUSH3 0x1028 JUMP JUMPDEST PUSH3 0x957 JUMP JUMPDEST STOP JUMPDEST CALLVALUE DUP1 ISZERO PUSH3 0x226 JUMPI PUSH1 0x0 DUP1 REVERT JUMPDEST POP PUSH3 0x217 PUSH3 0x9A6 JUMP JUMPDEST CALLVALUE DUP1 ISZERO PUSH3 0x23E JUMPI PUSH1 0x0 DUP1 REVERT JUMPDEST POP PUSH1 0x0 SLOAD PUSH1 0x1 PUSH1 0x1 PUSH1 0xA0 SHL SUB AND PUSH3 0x1D9 JUMP JUMPDEST CALLVALUE DUP1 ISZERO PUSH3 0x25E JUMPI PUSH1 0x0 DUP1 REVERT JUMPDEST POP PUSH3 0x186 PUSH3 0x270 CALLDATASIZE PUSH1 0x4 PUSH3 0x1028 JUMP JUMPDEST PUSH3 0x9BE JUMP JUMPDEST CALLVALUE DUP1 ISZERO PUSH3 0x283 JUMPI PUSH1 0x0 DUP1 REVERT JUMPDEST POP PUSH1 0x6 SLOAD PUSH3 0x1D9 SWAP1 PUSH1 0x1 PUSH1 0x1 PUSH1 0xA0 SHL SUB AND DUP2 JUMP JUMPDEST CALLVALUE DUP1 ISZERO PUSH3 0x2A5 JUMPI PUSH1 0x0 DUP1 REVERT JUMPDEST POP PUSH3 0x1B3 PUSH3 0x2B7 CALLDATASIZE PUSH1 0x4 PUSH3 0x1119 JUMP JUMPDEST PUSH3 0xA9D JUMP JUMPDEST CALLVALUE DUP1 ISZERO PUSH3 0x2CA JUMPI PUSH1 0x0 DUP1 REVERT JUMPDEST POP PUSH3 0x2D5 PUSH3 0xACF JUMP JUMPDEST PUSH1 0x40 DUP1 MLOAD SWAP4 DUP5 MSTORE PUSH1 0x20 DUP5 ADD SWAP3 SWAP1 SWAP3 MSTORE SWAP1 DUP3 ADD MSTORE PUSH1 0x60 ADD PUSH3 0x158 JUMP JUMPDEST CALLVALUE DUP1 ISZERO PUSH3 0x2FE JUMPI PUSH1 0x0 DUP1 REVERT JUMPDEST POP PUSH3 0x217 PUSH3 0x310 CALLDATASIZE PUSH1 0x4 PUSH3 0xFC4 JUMP JUMPDEST PUSH3 0xAEF JUMP JUMPDEST CALLVALUE DUP1 ISZERO PUSH3 0x323 JUMPI PUSH1 0x0 DUP1 REVERT JUMPDEST POP PUSH3 0x217 PUSH3 0xB6B JUMP JUMPDEST CALLVALUE DUP1 ISZERO PUSH3 0x33B JUMPI PUSH1 0x0 DUP1 REVERT JUMPDEST POP PUSH3 0x1B3 PUSH3 0xC29 JUMP JUMPDEST CALLVALUE DUP1 ISZERO PUSH3 0x353 JUMPI PUSH1 0x0 DUP1 REVERT JUMPDEST POP PUSH3 0x1B3 PUSH1 0x5 SLOAD DUP2 JUMP JUMPDEST CALLVALUE DUP1 ISZERO PUSH3 0x36B JUMPI PUSH1 0x0 DUP1 REVERT JUMPDEST POP PUSH3 0x217 PUSH3 0x37D CALLDATASIZE PUSH1 0x4 PUSH3 0x1146 JUMP JUMPDEST PUSH3 0xC7F JUMP JUMPDEST CALLVALUE DUP1 ISZERO PUSH3 0x390 JUMPI PUSH1 0x0 DUP1 REVERT JUMPDEST POP PUSH3 0x217 PUSH3 0x3A2 CALLDATASIZE PUSH1 0x4 PUSH3 0xFC4 JUMP JUMPDEST PUSH3 0xD8D JUMP JUMPDEST PUSH1 0x1 PUSH1 0x1 PUSH1 0xA0 SHL SUB DUP2 AND PUSH1 0x0 SWAP1 DUP2 MSTORE PUSH1 0x4 PUSH1 0x20 SWAP1 DUP2 MSTORE PUSH1 0x40 SWAP2 DUP3 SWAP1 KECCAK256 DUP1 SLOAD DUP4 MLOAD DUP2 DUP5 MUL DUP2 ADD DUP5 ADD SWAP1 SWAP5 MSTORE DUP1 DUP5 MSTORE PUSH1 0x60 SWAP4 SWAP3 DUP4 ADD DUP3 DUP3 DUP1 ISZERO PUSH3 0x40A JUMPI PUSH1 0x20 MUL DUP3 ADD SWAP2 SWAP1 PUSH1 0x0 MSTORE PUSH1 0x20 PUSH1 0x0 KECCAK256 SWAP1 JUMPDEST DUP2 SLOAD DUP2 MSTORE PUSH1 0x20 ADD SWAP1 PUSH1 0x1 ADD SWAP1 DUP1 DUP4 GT PUSH3 0x3F5 JUMPI JUMPDEST POP POP POP POP POP SWAP1 POP SWAP2 SWAP1 POP JUMP JUMPDEST PUSH1 0x0 DUP2 DUP2 MSTORE PUSH1 0x3 PUSH1 0x20 DUP2 SWAP1 MSTORE PUSH1 0x40 DUP3 KECCAK256 DUP1 SLOAD PUSH1 0x1 DUP3 ADD SLOAD PUSH1 0x2 DUP4 ADD SLOAD PUSH1 0x4 DUP5 ADD SLOAD PUSH1 0x5 DUP6 ADD SLOAD PUSH1 0x6 DUP7 ADD SLOAD SWAP7 DUP7 ADD DUP1 SLOAD DUP10 SWAP9 DUP10 SWAP9 PUSH1 0x60 SWAP9 DUP11 SWAP9 DUP10 SWAP9 DUP10 SWAP9 SWAP4 SWAP8 PUSH1 0x1 PUSH1 0x1 PUSH1 0xA0 SHL SUB SWAP4 DUP5 AND SWAP8 SWAP4 SWAP1 SWAP3 AND SWAP6 SWAP1 SWAP5 SWAP3 SWAP4 SWAP3 PUSH1 0xFF AND SWAP1 DUP5 SWAP1 PUSH3 0x47C SWAP1 PUSH3 0x11C7 JUMP JUMPDEST DUP1 PUSH1 0x1F ADD PUSH1 0x20 DUP1 SWAP2 DIV MUL PUSH1 0x20 ADD PUSH1 0x40 MLOAD SWAP1 DUP2 ADD PUSH1 0x40 MSTORE DUP1 SWAP3 SWAP2 SWAP1 DUP2 DUP2 MSTORE PUSH1 0x20 ADD DUP3 DUP1 SLOAD PUSH3 0x4AA SWAP1 PUSH3 0x11C7 JUMP JUMPDEST DUP1 ISZERO PUSH3 0x4FB JUMPI DUP1 PUSH1 0x1F LT PUSH3 0x4CF JUMPI PUSH2 0x100 DUP1 DUP4 SLOAD DIV MUL DUP4 MSTORE SWAP2 PUSH1 0x20 ADD SWAP2 PUSH3 0x4FB JUMP JUMPDEST DUP3 ADD SWAP2 SWAP1 PUSH1 0x0 MSTORE PUSH1 0x20 PUSH1 0x0 KECCAK256 SWAP1 JUMPDEST DUP2 SLOAD DUP2 MSTORE SWAP1 PUSH1 0x1 ADD SWAP1 PUSH1 0x20 ADD DUP1 DUP4 GT PUSH3 0x4DD JUMPI DUP3 SWAP1 SUB PUSH1 0x1F AND DUP3 ADD SWAP2 JUMPDEST POP POP POP POP POP SWAP4 POP SWAP8 POP SWAP8 POP SWAP8 POP SWAP8 POP SWAP8 POP SWAP8 POP SWAP8 POP POP SWAP2 SWAP4 SWAP6 SWAP8 SWAP1 SWAP3 SWAP5 SWAP7 POP JUMP JUMPDEST PUSH1 0x0 PUSH3 0x528 PUSH3 0xDCE JUMP JUMPDEST PUSH1 0x5 SLOAD CALLVALUE LT ISZERO PUSH3 0x580 JUMPI PUSH1 0x40 MLOAD PUSH3 0x461BCD PUSH1 0xE5 SHL DUP2 MSTORE PUSH1 0x20 PUSH1 0x4 DUP3 ADD MSTORE PUSH1 0x19 PUSH1 0x24 DUP3 ADD MSTORE PUSH32 0x496E73756666696369656E74206372656174696F6E2066656500000000000000 PUSH1 0x44 DUP3 ADD MSTORE PUSH1 0x64 ADD JUMPDEST PUSH1 0x40 MLOAD DUP1 SWAP2 SUB SWAP1 REVERT JUMPDEST PUSH1 0x2 DUP3 LT ISZERO PUSH3 0x5D3 JUMPI PUSH1 0x40 MLOAD PUSH3 0x461BCD PUSH1 0xE5 SHL DUP2 MSTORE PUSH1 0x20 PUSH1 0x4 DUP3 ADD MSTORE PUSH1 0x17 PUSH1 0x24 DUP3 ADD MSTORE PUSH32 0x4E656564206174206C656173742032206D656D62657273000000000000000000 PUSH1 0x44 DUP3 ADD MSTORE PUSH1 0x64 ADD PUSH3 0x577 JUMP JUMPDEST PUSH3 0x15180 DUP4 LT ISZERO PUSH3 0x628 JUMPI PUSH1 0x40 MLOAD PUSH3 0x461BCD PUSH1 0xE5 SHL DUP2 MSTORE PUSH1 0x20 PUSH1 0x4 DUP3 ADD MSTORE PUSH1 0x18 PUSH1 0x24 DUP3 ADD MSTORE PUSH32 0x526F756E64206475726174696F6E20746F6F2073686F72740000000000000000 PUSH1 0x44 DUP3 ADD MSTORE PUSH1 0x64 ADD PUSH3 0x577 JUMP JUMPDEST PUSH1 0x0 DUP5 GT PUSH3 0x67A JUMPI PUSH1 0x40 MLOAD PUSH3 0x461BCD PUSH1 0xE5 SHL DUP2 MSTORE PUSH1 0x20 PUSH1 0x4 DUP3 ADD MSTORE PUSH1 0x1F PUSH1 0x24 DUP3 ADD MSTORE PUSH32 0x436F6E747269627574696F6E20616D6F756E74206D757374206265203E203000 PUSH1 0x44 DUP3 ADD MSTORE PUSH1 0x64 ADD PUSH3 0x577 JUMP JUMPDEST PUSH1 0x0 DUP5 DUP5 DUP5 CALLER PUSH1 0x40 MLOAD PUSH3 0x68E SWAP1 PUSH3 0xF99 JUMP JUMPDEST SWAP4 DUP5 MSTORE PUSH1 0x20 DUP5 ADD SWAP3 SWAP1 SWAP3 MSTORE PUSH1 0x40 DUP4 ADD MSTORE PUSH1 0x1 PUSH1 0x1 PUSH1 0xA0 SHL SUB AND PUSH1 0x60 DUP3 ADD MSTORE PUSH1 0x80 ADD PUSH1 0x40 MLOAD DUP1 SWAP2 SUB SWAP1 PUSH1 0x0 CREATE DUP1 ISZERO DUP1 ISZERO PUSH3 0x6CC JUMPI RETURNDATASIZE PUSH1 0x0 DUP1 RETURNDATACOPY RETURNDATASIZE PUSH1 0x0 REVERT JUMPDEST POP PUSH1 0x2 DUP1 SLOAD SWAP2 SWAP3 POP DUP3 SWAP2 PUSH1 0x0 SWAP2 DUP3 PUSH3 0x6E5 DUP4 PUSH3 0x1213 JUMP JUMPDEST SWAP2 SWAP1 POP SSTORE SWAP1 POP PUSH1 0x0 PUSH3 0x6F8 DUP3 PUSH3 0xDF9 JUMP JUMPDEST PUSH1 0x40 MLOAD PUSH1 0x20 ADD PUSH3 0x70A SWAP2 SWAP1 PUSH3 0x122F JUMP JUMPDEST PUSH1 0x40 MLOAD PUSH1 0x20 DUP2 DUP4 SUB SUB DUP2 MSTORE SWAP1 PUSH1 0x40 MSTORE SWAP1 POP PUSH1 0x40 MLOAD DUP1 PUSH1 0xE0 ADD PUSH1 0x40 MSTORE DUP1 DUP5 PUSH1 0x1 PUSH1 0x1 PUSH1 0xA0 SHL SUB AND DUP2 MSTORE PUSH1 0x20 ADD CALLER PUSH1 0x1 PUSH1 0x1 PUSH1 0xA0 SHL SUB AND DUP2 MSTORE PUSH1 0x20 ADD TIMESTAMP DUP2 MSTORE PUSH1 0x20 ADD DUP3 DUP2 MSTORE PUSH1 0x20 ADD DUP10 DUP2 MSTORE PUSH1 0x20 ADD DUP8 DUP2 MSTORE PUSH1 0x20 ADD PUSH1 0x1 ISZERO ISZERO DUP2 MSTORE POP PUSH1 0x3 PUSH1 0x0 DUP5 DUP2 MSTORE PUSH1 0x20 ADD SWAP1 DUP2 MSTORE PUSH1 0x20 ADD PUSH1 0x0 KECCAK256 PUSH1 0x0 DUP3 ADD MLOAD DUP2 PUSH1 0x0 ADD PUSH1 0x0 PUSH2 0x100 EXP DUP2 SLOAD DUP2 PUSH1 0x1 PUSH1 0x1 PUSH1 0xA0 SHL SUB MUL NOT AND SWAP1 DUP4 PUSH1 0x1 PUSH1 0x1 PUSH1 0xA0 SHL SUB AND MUL OR SWAP1 SSTORE POP PUSH1 0x20 DUP3 ADD MLOAD DUP2 PUSH1 0x1 ADD PUSH1 0x0 PUSH2 0x100 EXP DUP2 SLOAD DUP2 PUSH1 0x1 PUSH1 0x1 PUSH1 0xA0 SHL SUB MUL NOT AND SWAP1 DUP4 PUSH1 0x1 PUSH1 0x1 PUSH1 0xA0 SHL SUB AND MUL OR SWAP1 SSTORE POP PUSH1 0x40 DUP3 ADD MLOAD DUP2 PUSH1 0x2 ADD SSTORE PUSH1 0x60 DUP3 ADD MLOAD DUP2 PUSH1 0x3 ADD SWAP1 DUP2 PUSH3 0x7F1 SWAP2 SWAP1 PUSH3 0x12C9 JUMP JUMPDEST POP PUSH1 0x80 DUP3 ADD MLOAD PUSH1 0x4 DUP3 DUP2 ADD SWAP2 SWAP1 SWAP2 SSTORE PUSH1 0xA0 DUP4 ADD MLOAD PUSH1 0x5 DUP4 ADD SSTORE PUSH1 0xC0 SWAP1 SWAP3 ADD MLOAD PUSH1 0x6 SWAP1 SWAP2 ADD DUP1 SLOAD PUSH1 0xFF NOT AND SWAP2 ISZERO ISZERO SWAP2 SWAP1 SWAP2 OR SWAP1 SSTORE CALLER PUSH1 0x0 SWAP1 DUP2 MSTORE PUSH1 0x20 SWAP2 DUP3 MSTORE PUSH1 0x40 DUP2 KECCAK256 DUP1 SLOAD PUSH1 0x1 DUP2 ADD DUP3 SSTORE SWAP1 DUP3 MSTORE SWAP2 SWAP1 KECCAK256 ADD DUP3 SWAP1 SSTORE CALLVALUE ISZERO PUSH3 0x8EB JUMPI PUSH1 0x6 SLOAD PUSH1 0x40 MLOAD PUSH1 0x0 SWAP2 PUSH1 0x1 PUSH1 0x1 PUSH1 0xA0 SHL SUB AND SWAP1 CALLVALUE SWAP1 DUP4 DUP2 DUP2 DUP2 DUP6 DUP8 GAS CALL SWAP3 POP POP POP RETURNDATASIZE DUP1 PUSH1 0x0 DUP2 EQ PUSH3 0x89B JUMPI PUSH1 0x40 MLOAD SWAP2 POP PUSH1 0x1F NOT PUSH1 0x3F RETURNDATASIZE ADD AND DUP3 ADD PUSH1 0x40 MSTORE RETURNDATASIZE DUP3 MSTORE RETURNDATASIZE PUSH1 0x0 PUSH1 0x20 DUP5 ADD RETURNDATACOPY PUSH3 0x8A0 JUMP JUMPDEST PUSH1 0x60 SWAP2 POP JUMPDEST POP POP SWAP1 POP DUP1 PUSH3 0x8E9 JUMPI PUSH1 0x40 MLOAD PUSH3 0x461BCD PUSH1 0xE5 SHL DUP2 MSTORE PUSH1 0x20 PUSH1 0x4 DUP3 ADD MSTORE PUSH1 0x13 PUSH1 0x24 DUP3 ADD MSTORE PUSH19 0x119959481D1C985B9CD9995C8819985A5B1959 PUSH1 0x6A SHL PUSH1 0x44 DUP3 ADD MSTORE PUSH1 0x64 ADD PUSH3 0x577 JUMP JUMPDEST POP JUMPDEST DUP3 PUSH1 0x1 PUSH1 0x1 PUSH1 0xA0 SHL SUB AND CALLER PUSH1 0x1 PUSH1 0x1 PUSH1 0xA0 SHL SUB AND DUP4 PUSH32 0x1B1B671CFFA95FBC16BABA6325184278F6C7CF89547ADE16BFED77418756CFC2 DUP5 PUSH1 0x0 DUP14 DUP13 PUSH1 0x40 MLOAD PUSH3 0x938 SWAP5 SWAP4 SWAP3 SWAP2 SWAP1 PUSH3 0x1396 JUMP JUMPDEST PUSH1 0x40 MLOAD DUP1 SWAP2 SUB SWAP1 LOG4 POP SWAP1 SWAP3 POP POP POP PUSH3 0x950 PUSH1 0x1 DUP1 SSTORE JUMP JUMPDEST SWAP4 SWAP3 POP POP POP JUMP JUMPDEST PUSH3 0x961 PUSH3 0xF1A JUMP JUMPDEST PUSH1 0x5 DUP1 SLOAD SWAP1 DUP3 SWAP1 SSTORE PUSH1 0x40 DUP1 MLOAD DUP3 DUP2 MSTORE PUSH1 0x20 DUP2 ADD DUP5 SWAP1 MSTORE PUSH32 0x5DE302EEB1C80D4FB0C0953B692353F09DDF431411B8EB2034D5E85769561912 SWAP2 ADD PUSH1 0x40 MLOAD DUP1 SWAP2 SUB SWAP1 LOG1 POP POP JUMP JUMPDEST PUSH3 0x9B0 PUSH3 0xF1A JUMP JUMPDEST PUSH3 0x9BC PUSH1 0x0 PUSH3 0xF49 JUMP JUMPDEST JUMP JUMPDEST PUSH1 0x3 PUSH1 0x20 DUP2 SWAP1 MSTORE PUSH1 0x0 SWAP2 DUP3 MSTORE PUSH1 0x40 SWAP1 SWAP2 KECCAK256 DUP1 SLOAD PUSH1 0x1 DUP3 ADD SLOAD PUSH1 0x2 DUP4 ADD SLOAD SWAP4 DUP4 ADD DUP1 SLOAD PUSH1 0x1 PUSH1 0x1 PUSH1 0xA0 SHL SUB SWAP4 DUP5 AND SWAP6 SWAP4 SWAP1 SWAP3 AND SWAP4 SWAP2 PUSH3 0x9FD SWAP1 PUSH3 0x11C7 JUMP JUMPDEST DUP1 PUSH1 0x1F ADD PUSH1 0x20 DUP1 SWAP2 DIV MUL PUSH1 0x20 ADD PUSH1 0x40 MLOAD SWAP1 DUP2 ADD PUSH1 0x40 MSTORE DUP1 SWAP3 SWAP2 SWAP1 DUP2 DUP2 MSTORE PUSH1 0x20 ADD DUP3 DUP1 SLOAD PUSH3 0xA2B SWAP1 PUSH3 0x11C7 JUMP JUMPDEST DUP1 ISZERO PUSH3 0xA7C JUMPI DUP1 PUSH1 0x1F LT PUSH3 0xA50 JUMPI PUSH2 0x100 DUP1 DUP4 SLOAD DIV MUL DUP4 MSTORE SWAP2 PUSH1 0x20 ADD SWAP2 PUSH3 0xA7C JUMP JUMPDEST DUP3 ADD SWAP2 SWAP1 PUSH1 0x0 MSTORE PUSH1 0x20 PUSH1 0x0 KECCAK256 SWAP1 JUMPDEST DUP2 SLOAD DUP2 MSTORE SWAP1 PUSH1 0x1 ADD SWAP1 PUSH1 0x20 ADD DUP1 DUP4 GT PUSH3 0xA5E JUMPI DUP3 SWAP1 SUB PUSH1 0x1F AND DUP3 ADD SWAP2 JUMPDEST POP POP POP POP PUSH1 0x4 DUP4 ADD SLOAD PUSH1 0x5 DUP5 ADD SLOAD PUSH1 0x6 SWAP1 SWAP5 ADD SLOAD SWAP3 SWAP4 SWAP1 SWAP3 SWAP1 SWAP2 POP PUSH1 0xFF AND DUP8 JUMP JUMPDEST PUSH1 0x4 PUSH1 0x20 MSTORE DUP2 PUSH1 0x0 MSTORE PUSH1 0x40 PUSH1 0x0 KECCAK256 DUP2 DUP2 SLOAD DUP2 LT PUSH3 0xABA JUMPI PUSH1 0x0 DUP1 REVERT JUMPDEST SWAP1 PUSH1 0x0 MSTORE PUSH1 0x20 PUSH1 0x0 KECCAK256 ADD PUSH1 0x0 SWAP2 POP SWAP2 POP POP SLOAD DUP2 JUMP JUMPDEST PUSH1 0x0 DUP1 PUSH1 0x0 PUSH1 0x2 SLOAD PUSH3 0xAE1 PUSH3 0xC29 JUMP JUMPDEST PUSH1 0x5 SLOAD SWAP3 POP SWAP3 POP SWAP3 POP SWAP1 SWAP2 SWAP3 JUMP JUMPDEST PUSH3 0xAF9 PUSH3 0xF1A JUMP JUMPDEST PUSH1 0x1 PUSH1 0x1 PUSH1 0xA0 SHL SUB DUP2 AND PUSH3 0xB49 JUMPI PUSH1 0x40 MLOAD PUSH3 0x461BCD PUSH1 0xE5 SHL DUP2 MSTORE PUSH1 0x20 PUSH1 0x4 DUP3 ADD MSTORE PUSH1 0x15 PUSH1 0x24 DUP3 ADD MSTORE PUSH21 0x24B73B30B634B2103332B29031B7B63632B1BA37B9 PUSH1 0x59 SHL PUSH1 0x44 DUP3 ADD MSTORE PUSH1 0x64 ADD PUSH3 0x577 JUMP JUMPDEST PUSH1 0x6 DUP1 SLOAD PUSH1 0x1 PUSH1 0x1 PUSH1 0xA0 SHL SUB NOT AND PUSH1 0x1 PUSH1 0x1 PUSH1 0xA0 SHL SUB SWAP3 SWAP1 SWAP3 AND SWAP2 SWAP1 SWAP2 OR SWAP1 SSTORE JUMP JUMPDEST PUSH3 0xB75 PUSH3 0xF1A JUMP JUMPDEST SELFBALANCE DUP1 ISZERO PUSH3 0xC26 JUMPI PUSH1 0x0 DUP1 SLOAD PUSH1 0x40 MLOAD PUSH1 0x1 PUSH1 0x1 PUSH1 0xA0 SHL SUB SWAP1 SWAP2 AND SWAP1 DUP4 SWAP1 DUP4 DUP2 DUP2 DUP2 DUP6 DUP8 GAS CALL SWAP3 POP POP POP RETURNDATASIZE DUP1 PUSH1 0x0 DUP2 EQ PUSH3 0xBCC JUMPI PUSH1 0x40 MLOAD SWAP2 POP PUSH1 0x1F NOT PUSH1 0x3F RETURNDATASIZE ADD AND DUP3 ADD PUSH1 0x40 MSTORE RETURNDATASIZE DUP3 MSTORE RETURNDATASIZE PUSH1 0x0 PUSH1 0x20 DUP5 ADD RETURNDATACOPY PUSH3 0xBD1 JUMP JUMPDEST PUSH1 0x60 SWAP2 POP JUMPDEST POP POP SWAP1 POP DUP1 PUSH3 0xC24 JUMPI PUSH1 0x40 MLOAD PUSH3 0x461BCD PUSH1 0xE5 SHL DUP2 MSTORE PUSH1 0x20 PUSH1 0x4 DUP3 ADD MSTORE PUSH1 0x1B PUSH1 0x24 DUP3 ADD MSTORE PUSH32 0x456D657267656E6379207769746864726177616C206661696C65640000000000 PUSH1 0x44 DUP3 ADD MSTORE PUSH1 0x64 ADD PUSH3 0x577 JUMP JUMPDEST POP JUMPDEST POP JUMP JUMPDEST PUSH1 0x0 DUP1 DUP1 JUMPDEST PUSH1 0x2 SLOAD DUP2 LT ISZERO PUSH3 0xC79 JUMPI PUSH1 0x0 DUP2 DUP2 MSTORE PUSH1 0x3 PUSH1 0x20 MSTORE PUSH1 0x40 SWAP1 KECCAK256 PUSH1 0x6 ADD SLOAD PUSH1 0xFF AND ISZERO PUSH3 0xC64 JUMPI DUP2 PUSH3 0xC60 DUP2 PUSH3 0x1213 JUMP JUMPDEST SWAP3 POP POP JUMPDEST DUP1 PUSH3 0xC70 DUP2 PUSH3 0x1213 JUMP JUMPDEST SWAP2 POP POP PUSH3 0xC2E JUMP JUMPDEST POP SWAP2 SWAP1 POP JUMP JUMPDEST PUSH1 0x0 DUP4 DUP2 MSTORE PUSH1 0x3 PUSH1 0x20 MSTORE PUSH1 0x40 SWAP1 KECCAK256 DUP1 SLOAD PUSH1 0x1 PUSH1 0x1 PUSH1 0xA0 SHL SUB AND PUSH3 0xCD8 JUMPI PUSH1 0x40 MLOAD PUSH3 0x461BCD PUSH1 0xE5 SHL DUP2 MSTORE PUSH1 0x20 PUSH1 0x4 DUP3 ADD MSTORE PUSH1 0xF PUSH1 0x24 DUP3 ADD MSTORE PUSH15 0x1493D4D0D0481B9BDD08199BDD5B99 PUSH1 0x8A SHL PUSH1 0x44 DUP3 ADD MSTORE PUSH1 0x64 ADD PUSH3 0x577 JUMP JUMPDEST PUSH1 0x1 DUP2 ADD SLOAD PUSH1 0x1 PUSH1 0x1 PUSH1 0xA0 SHL SUB AND CALLER EQ DUP1 PUSH3 0xCFE JUMPI POP PUSH1 0x0 SLOAD PUSH1 0x1 PUSH1 0x1 PUSH1 0xA0 SHL SUB AND CALLER EQ JUMPDEST PUSH3 0xD3D JUMPI PUSH1 0x40 MLOAD PUSH3 0x461BCD PUSH1 0xE5 SHL DUP2 MSTORE PUSH1 0x20 PUSH1 0x4 DUP3 ADD MSTORE PUSH1 0xE PUSH1 0x24 DUP3 ADD MSTORE PUSH14 0x139BDD08185D5D1A1BDC9A5E9959 PUSH1 0x92 SHL PUSH1 0x44 DUP3 ADD MSTORE PUSH1 0x64 ADD PUSH3 0x577 JUMP JUMPDEST PUSH1 0x6 DUP2 ADD DUP1 SLOAD PUSH1 0xFF NOT AND SWAP1 SSTORE PUSH1 0x40 MLOAD DUP5 SWAP1 PUSH32 0x7B8E24D7FA66D1672375506B58CB3C85F8A5C107C38D8875A5AB333371254AF3 SWAP1 PUSH3 0xD7F SWAP1 DUP7 SWAP1 DUP7 SWAP1 PUSH3 0x13D0 JUMP JUMPDEST PUSH1 0x40 MLOAD DUP1 SWAP2 SUB SWAP1 LOG2 POP POP POP POP JUMP JUMPDEST PUSH3 0xD97 PUSH3 0xF1A JUMP JUMPDEST PUSH1 0x1 PUSH1 0x1 PUSH1 0xA0 SHL SUB DUP2 AND PUSH3 0xDC3 JUMPI PUSH1 0x40 MLOAD PUSH4 0x1E4FBDF7 PUSH1 0xE0 SHL DUP2 MSTORE PUSH1 0x0 PUSH1 0x4 DUP3 ADD MSTORE PUSH1 0x24 ADD PUSH3 0x577 JUMP JUMPDEST PUSH3 0xC26 DUP2 PUSH3 0xF49 JUMP JUMPDEST PUSH1 0x2 PUSH1 0x1 SLOAD SUB PUSH3 0xDF2 JUMPI PUSH1 0x40 MLOAD PUSH4 0x3EE5AEB5 PUSH1 0xE0 SHL DUP2 MSTORE PUSH1 0x4 ADD PUSH1 0x40 MLOAD DUP1 SWAP2 SUB SWAP1 REVERT JUMPDEST PUSH1 0x2 PUSH1 0x1 SSTORE JUMP JUMPDEST PUSH1 0x60 DUP2 PUSH1 0x0 SUB PUSH3 0xE21 JUMPI POP POP PUSH1 0x40 DUP1 MLOAD DUP1 DUP3 ADD SWAP1 SWAP2 MSTORE PUSH1 0x1 DUP2 MSTORE PUSH1 0x3 PUSH1 0xFC SHL PUSH1 0x20 DUP3 ADD MSTORE SWAP1 JUMP JUMPDEST DUP2 PUSH1 0x0 JUMPDEST DUP2 ISZERO PUSH3 0xE51 JUMPI DUP1 PUSH3 0xE38 DUP2 PUSH3 0x1213 JUMP JUMPDEST SWAP2 POP PUSH3 0xE49 SWAP1 POP PUSH1 0xA DUP4 PUSH3 0x1415 JUMP JUMPDEST SWAP2 POP PUSH3 0xE25 JUMP JUMPDEST PUSH1 0x0 DUP2 PUSH8 0xFFFFFFFFFFFFFFFF DUP2 GT ISZERO PUSH3 0xE6F JUMPI PUSH3 0xE6F PUSH3 0x1260 JUMP JUMPDEST PUSH1 0x40 MLOAD SWAP1 DUP1 DUP3 MSTORE DUP1 PUSH1 0x1F ADD PUSH1 0x1F NOT AND PUSH1 0x20 ADD DUP3 ADD PUSH1 0x40 MSTORE DUP1 ISZERO PUSH3 0xE9A JUMPI PUSH1 0x20 DUP3 ADD DUP2 DUP1 CALLDATASIZE DUP4 CALLDATACOPY ADD SWAP1 POP JUMPDEST POP SWAP1 POP JUMPDEST DUP5 ISZERO PUSH3 0xF12 JUMPI PUSH3 0xEB2 PUSH1 0x1 DUP4 PUSH3 0x142C JUMP JUMPDEST SWAP2 POP PUSH3 0xEC1 PUSH1 0xA DUP7 PUSH3 0x1448 JUMP JUMPDEST PUSH3 0xECE SWAP1 PUSH1 0x30 PUSH3 0x145F JUMP JUMPDEST PUSH1 0xF8 SHL DUP2 DUP4 DUP2 MLOAD DUP2 LT PUSH3 0xEE6 JUMPI PUSH3 0xEE6 PUSH3 0x1475 JUMP JUMPDEST PUSH1 0x20 ADD ADD SWAP1 PUSH1 0x1 PUSH1 0x1 PUSH1 0xF8 SHL SUB NOT AND SWAP1 DUP2 PUSH1 0x0 BYTE SWAP1 MSTORE8 POP PUSH3 0xF0A PUSH1 0xA DUP7 PUSH3 0x1415 JUMP JUMPDEST SWAP5 POP PUSH3 0xE9E JUMP JUMPDEST SWAP5 SWAP4 POP POP POP POP JUMP JUMPDEST PUSH1 0x0 SLOAD PUSH1 0x1 PUSH1 0x1 PUSH1 0xA0 SHL SUB AND CALLER EQ PUSH3 0x9BC JUMPI PUSH1 0x40 MLOAD PUSH4 0x118CDAA7 PUSH1 0xE0 SHL DUP2 MSTORE CALLER PUSH1 0x4 DUP3 ADD MSTORE PUSH1 0x24 ADD PUSH3 0x577 JUMP JUMPDEST PUSH1 0x0 DUP1 SLOAD PUSH1 0x1 PUSH1 0x1 PUSH1 0xA0 SHL SUB DUP4 DUP2 AND PUSH1 0x1 PUSH1 0x1 PUSH1 0xA0 SHL SUB NOT DUP4 AND DUP2 OR DUP5 SSTORE PUSH1 0x40 MLOAD SWAP2 SWAP1 SWAP3 AND SWAP3 DUP4 SWAP2 PUSH32 0x8BE0079C531659141344CD1FD0A4F28419497F9722A3DAAFE3B4186F6B6457E0 SWAP2 SWAP1 LOG3 POP POP JUMP JUMPDEST PUSH2 0x1E87 DUP1 PUSH3 0x148C DUP4 CODECOPY ADD SWAP1 JUMP JUMPDEST DUP1 CALLDATALOAD PUSH1 0x1 PUSH1 0x1 PUSH1 0xA0 SHL SUB DUP2 AND DUP2 EQ PUSH3 0xFBF JUMPI PUSH1 0x0 DUP1 REVERT JUMPDEST SWAP2 SWAP1 POP JUMP JUMPDEST PUSH1 0x0 PUSH1 0x20 DUP3 DUP5 SUB SLT ISZERO PUSH3 0xFD7 JUMPI PUSH1 0x0 DUP1 REVERT JUMPDEST PUSH3 0x950 DUP3 PUSH3 0xFA7 JUMP JUMPDEST PUSH1 0x20 DUP1 DUP3 MSTORE DUP3 MLOAD DUP3 DUP3 ADD DUP2 SWAP1 MSTORE PUSH1 0x0 SWAP2 SWAP1 DUP5 DUP3 ADD SWAP1 PUSH1 0x40 DUP6 ADD SWAP1 DUP5 JUMPDEST DUP2 DUP2 LT ISZERO PUSH3 0x101C JUMPI DUP4 MLOAD DUP4 MSTORE SWAP3 DUP5 ADD SWAP3 SWAP2 DUP5 ADD SWAP2 PUSH1 0x1 ADD PUSH3 0xFFE JUMP JUMPDEST POP SWAP1 SWAP7 SWAP6 POP POP POP POP POP POP JUMP JUMPDEST PUSH1 0x0 PUSH1 0x20 DUP3 DUP5 SUB SLT ISZERO PUSH3 0x103B JUMPI PUSH1 0x0 DUP1 REVERT JUMPDEST POP CALLDATALOAD SWAP2 SWAP1 POP JUMP JUMPDEST PUSH1 0x0 JUMPDEST DUP4 DUP2 LT ISZERO PUSH3 0x105F JUMPI DUP2 DUP2 ADD MLOAD DUP4 DUP3 ADD MSTORE PUSH1 0x20 ADD PUSH3 0x1045 JUMP JUMPDEST POP POP PUSH1 0x0 SWAP2 ADD MSTORE JUMP JUMPDEST PUSH1 0x0 DUP2 MLOAD DUP1 DUP5 MSTORE PUSH3 0x1082 DUP2 PUSH1 0x20 DUP7 ADD PUSH1 0x20 DUP7 ADD PUSH3 0x1042 JUMP JUMPDEST PUSH1 0x1F ADD PUSH1 0x1F NOT AND SWAP3 SWAP1 SWAP3 ADD PUSH1 0x20 ADD SWAP3 SWAP2 POP POP JUMP JUMPDEST PUSH1 0x1 PUSH1 0x1 PUSH1 0xA0 SHL SUB DUP9 DUP2 AND DUP3 MSTORE DUP8 AND PUSH1 0x20 DUP3 ADD MSTORE PUSH1 0x40 DUP2 ADD DUP7 SWAP1 MSTORE PUSH1 0xE0 PUSH1 0x60 DUP3 ADD DUP2 SWAP1 MSTORE PUSH1 0x0 SWAP1 PUSH3 0x10CB SWAP1 DUP4 ADD DUP8 PUSH3 0x1068 JUMP JUMPDEST PUSH1 0x80 DUP4 ADD SWAP6 SWAP1 SWAP6 MSTORE POP PUSH1 0xA0 DUP2 ADD SWAP3 SWAP1 SWAP3 MSTORE ISZERO ISZERO PUSH1 0xC0 SWAP1 SWAP2 ADD MSTORE SWAP5 SWAP4 POP POP POP POP JUMP JUMPDEST PUSH1 0x0 DUP1 PUSH1 0x0 PUSH1 0x60 DUP5 DUP7 SUB SLT ISZERO PUSH3 0x1102 JUMPI PUSH1 0x0 DUP1 REVERT JUMPDEST POP POP DUP2 CALLDATALOAD SWAP4 PUSH1 0x20 DUP4 ADD CALLDATALOAD SWAP4 POP PUSH1 0x40 SWAP1 SWAP3 ADD CALLDATALOAD SWAP2 SWAP1 POP JUMP JUMPDEST PUSH1 0x0 DUP1 PUSH1 0x40 DUP4 DUP6 SUB SLT ISZERO PUSH3 0x112D JUMPI PUSH1 0x0 DUP1 REVERT JUMPDEST PUSH3 0x1138 DUP4 PUSH3 0xFA7 JUMP JUMPDEST SWAP5 PUSH1 0x20 SWAP4 SWAP1 SWAP4 ADD CALLDATALOAD SWAP4 POP POP POP JUMP JUMPDEST PUSH1 0x0 DUP1 PUSH1 0x0 PUSH1 0x40 DUP5 DUP7 SUB SLT ISZERO PUSH3 0x115C JUMPI PUSH1 0x0 DUP1 REVERT JUMPDEST DUP4 CALLDATALOAD SWAP3 POP PUSH1 0x20 DUP5 ADD CALLDATALOAD PUSH8 0xFFFFFFFFFFFFFFFF DUP1 DUP3 GT ISZERO PUSH3 0x117C JUMPI PUSH1 0x0 DUP1 REVERT JUMPDEST DUP2 DUP7 ADD SWAP2 POP DUP7 PUSH1 0x1F DUP4 ADD SLT PUSH3 0x1191 JUMPI PUSH1 0x0 DUP1 REVERT JUMPDEST DUP2 CALLDATALOAD DUP2 DUP2 GT ISZERO PUSH3 0x11A1 JUMPI PUSH1 0x0 DUP1 REVERT JUMPDEST DUP8 PUSH1 0x20 DUP3 DUP6 ADD ADD GT ISZERO PUSH3 0x11B4 JUMPI PUSH1 0x0 DUP1 REVERT JUMPDEST PUSH1 0x20 DUP4 ADD SWAP5 POP DUP1 SWAP4 POP POP POP POP SWAP3 POP SWAP3 POP SWAP3 JUMP JUMPDEST PUSH1 0x1 DUP2 DUP2 SHR SWAP1 DUP3 AND DUP1 PUSH3 0x11DC JUMPI PUSH1 0x7F DUP3 AND SWAP2 POP JUMPDEST PUSH1 0x20 DUP3 LT DUP2 SUB PUSH3 0xC79 JUMPI PUSH4 0x4E487B71 PUSH1 0xE0 SHL PUSH1 0x0 MSTORE PUSH1 0x22 PUSH1 0x4 MSTORE PUSH1 0x24 PUSH1 0x0 REVERT JUMPDEST PUSH4 0x4E487B71 PUSH1 0xE0 SHL PUSH1 0x0 MSTORE PUSH1 0x11 PUSH1 0x4 MSTORE PUSH1 0x24 PUSH1 0x0 REVERT JUMPDEST PUSH1 0x0 PUSH1 0x1 DUP3 ADD PUSH3 0x1228 JUMPI PUSH3 0x1228 PUSH3 0x11FD JUMP JUMPDEST POP PUSH1 0x1 ADD SWAP1 JUMP JUMPDEST PUSH7 0x524F5343412023 PUSH1 0xC8 SHL DUP2 MSTORE PUSH1 0x0 DUP3 MLOAD PUSH3 0x1253 DUP2 PUSH1 0x7 DUP6 ADD PUSH1 0x20 DUP8 ADD PUSH3 0x1042 JUMP JUMPDEST SWAP2 SWAP1 SWAP2 ADD PUSH1 0x7 ADD SWAP3 SWAP2 POP POP JUMP JUMPDEST PUSH4 0x4E487B71 PUSH1 0xE0 SHL PUSH1 0x0 MSTORE PUSH1 0x41 PUSH1 0x4 MSTORE PUSH1 0x24 PUSH1 0x0 REVERT JUMPDEST PUSH1 0x1F DUP3 GT ISZERO PUSH3 0x12C4 JUMPI PUSH1 0x0 DUP2 DUP2 MSTORE PUSH1 0x20 DUP2 KECCAK256 PUSH1 0x1F DUP6 ADD PUSH1 0x5 SHR DUP2 ADD PUSH1 0x20 DUP7 LT ISZERO PUSH3 0x129F JUMPI POP DUP1 JUMPDEST PUSH1 0x1F DUP6 ADD PUSH1 0x5 SHR DUP3 ADD SWAP2 POP JUMPDEST DUP2 DUP2 LT ISZERO PUSH3 0x12C0 JUMPI DUP3 DUP2 SSTORE PUSH1 0x1 ADD PUSH3 0x12AB JUMP JUMPDEST POP POP POP JUMPDEST POP POP POP JUMP JUMPDEST DUP2 MLOAD PUSH8 0xFFFFFFFFFFFFFFFF DUP2 GT ISZERO PUSH3 0x12E6 JUMPI PUSH3 0x12E6 PUSH3 0x1260 JUMP JUMPDEST PUSH3 0x12FE DUP2 PUSH3 0x12F7 DUP5 SLOAD PUSH3 0x11C7 JUMP JUMPDEST DUP5 PUSH3 0x1276 JUMP JUMPDEST PUSH1 0x20 DUP1 PUSH1 0x1F DUP4 GT PUSH1 0x1 DUP2 EQ PUSH3 0x1336 JUMPI PUSH1 0x0 DUP5 ISZERO PUSH3 0x131D JUMPI POP DUP6 DUP4 ADD MLOAD JUMPDEST PUSH1 0x0 NOT PUSH1 0x3 DUP7 SWAP1 SHL SHR NOT AND PUSH1 0x1 DUP6 SWAP1 SHL OR DUP6 SSTORE PUSH3 0x12C0 JUMP JUMPDEST PUSH1 0x0 DUP6 DUP2 MSTORE PUSH1 0x20 DUP2 KECCAK256 PUSH1 0x1F NOT DUP7 AND SWAP2 JUMPDEST DUP3 DUP2 LT ISZERO PUSH3 0x1367 JUMPI DUP9 DUP7 ADD MLOAD DUP3 SSTORE SWAP5 DUP5 ADD SWAP5 PUSH1 0x1 SWAP1 SWAP2 ADD SWAP1 DUP5 ADD PUSH3 0x1346 JUMP JUMPDEST POP DUP6 DUP3 LT ISZERO PUSH3 0x1386 JUMPI DUP8 DUP6 ADD MLOAD PUSH1 0x0 NOT PUSH1 0x3 DUP9 SWAP1 SHL PUSH1 0xF8 AND SHR NOT AND DUP2 SSTORE JUMPDEST POP POP POP POP POP PUSH1 0x1 SWAP1 DUP2 SHL ADD SWAP1 SSTORE POP JUMP JUMPDEST PUSH1 0x80 DUP2 MSTORE PUSH1 0x0 PUSH3 0x13AB PUSH1 0x80 DUP4 ADD DUP8 PUSH3 0x1068 JUMP JUMPDEST PUSH1 0x1 PUSH1 0x1 PUSH1 0xA0 SHL SUB SWAP6 SWAP1 SWAP6 AND PUSH1 0x20 DUP4 ADD MSTORE POP PUSH1 0x40 DUP2 ADD SWAP3 SWAP1 SWAP3 MSTORE PUSH1 0x60 SWAP1 SWAP2 ADD MSTORE SWAP2 SWAP1 POP JUMP JUMPDEST PUSH1 0x20 DUP2 MSTORE DUP2 PUSH1 0x20 DUP3 ADD MSTORE DUP2 DUP4 PUSH1 0x40 DUP4 ADD CALLDATACOPY PUSH1 0x0 DUP2 DUP4 ADD PUSH1 0x40 SWAP1 DUP2 ADD SWAP2 SWAP1 SWAP2 MSTORE PUSH1 0x1F SWAP1 SWAP3 ADD PUSH1 0x1F NOT AND ADD ADD SWAP2 SWAP1 POP JUMP JUMPDEST PUSH4 0x4E487B71 PUSH1 0xE0 SHL PUSH1 0x0 MSTORE PUSH1 0x12 PUSH1 0x4 MSTORE PUSH1 0x24 PUSH1 0x0 REVERT JUMPDEST PUSH1 0x0 DUP3 PUSH3 0x1427 JUMPI PUSH3 0x1427 PUSH3 0x13FF JUMP JUMPDEST POP DIV SWAP1 JUMP JUMPDEST DUP2 DUP2 SUB DUP2 DUP2 GT ISZERO PUSH3 0x1442 JUMPI PUSH3 0x1442 PUSH3 0x11FD JUMP JUMPDEST SWAP3 SWAP2 POP POP JUMP JUMPDEST PUSH1 0x0 DUP3 PUSH3 0x145A JUMPI PUSH3 0x145A PUSH3 0x13FF JUMP JUMPDEST POP MOD SWAP1 JUMP JUMPDEST DUP1 DUP3 ADD DUP1 DUP3 GT ISZERO PUSH3 0x1442 JUMPI PUSH3 0x1442 PUSH3 0x11FD JUMP JUMPDEST PUSH4 0x4E487B71 PUSH1 0xE0 SHL PUSH1 0x0 MSTORE PUSH1 0x32 PUSH1 0x4 MSTORE PUSH1 0x24 PUSH1 0x0 REVERT INVALID PUSH1 0x80 PUSH1 0x40 MSTORE PUSH1 0x2 PUSH1 0x5 DUP2 SWAP1 SSTORE PUSH3 0x2A300 PUSH1 0x6 SSTORE PUSH1 0x7 SSTORE PUSH1 0x8 DUP1 SLOAD PUSH2 0xFF00 NOT AND SWAP1 SSTORE PUSH1 0x0 PUSH1 0x9 DUP2 SWAP1 SSTORE PUSH1 0xA DUP2 SWAP1 SSTORE PUSH1 0xB DUP2 SWAP1 SSTORE PUSH1 0x11 SSTORE CALLVALUE DUP1 ISZERO PUSH3 0x41 JUMPI PUSH1 0x0 DUP1 REVERT JUMPDEST POP PUSH1 0x40 MLOAD PUSH3 0x1E87 CODESIZE SUB DUP1 PUSH3 0x1E87 DUP4 CODECOPY DUP2 ADD PUSH1 0x40 DUP2 SWAP1 MSTORE PUSH3 0x64 SWAP2 PUSH3 0x371 JUMP JUMPDEST PUSH1 0x1 PUSH1 0x0 SSTORE DUP1 PUSH1 0x1 PUSH1 0x1 PUSH1 0xA0 SHL SUB DUP2 AND PUSH3 0x9A JUMPI PUSH1 0x40 MLOAD PUSH4 0x1E4FBDF7 PUSH1 0xE0 SHL DUP2 MSTORE PUSH1 0x0 PUSH1 0x4 DUP3 ADD MSTORE PUSH1 0x24 ADD JUMPDEST PUSH1 0x40 MLOAD DUP1 SWAP2 SUB SWAP1 REVERT JUMPDEST PUSH3 0xA5 DUP2 PUSH3 0x1E8 JUMP JUMPDEST POP PUSH1 0x2 DUP3 LT ISZERO PUSH3 0xF9 JUMPI PUSH1 0x40 MLOAD PUSH3 0x461BCD PUSH1 0xE5 SHL DUP2 MSTORE PUSH1 0x20 PUSH1 0x4 DUP3 ADD MSTORE PUSH1 0x17 PUSH1 0x24 DUP3 ADD MSTORE PUSH32 0x4E656564206174206C656173742032206D656D62657273000000000000000000 PUSH1 0x44 DUP3 ADD MSTORE PUSH1 0x64 ADD PUSH3 0x91 JUMP JUMPDEST PUSH1 0x0 DUP5 GT PUSH3 0x14B JUMPI PUSH1 0x40 MLOAD PUSH3 0x461BCD PUSH1 0xE5 SHL DUP2 MSTORE PUSH1 0x20 PUSH1 0x4 DUP3 ADD MSTORE PUSH1 0x18 PUSH1 0x24 DUP3 ADD MSTORE PUSH32 0x436F6E747269627574696F6E206D757374206265203E20300000000000000000 PUSH1 0x44 DUP3 ADD MSTORE PUSH1 0x64 ADD PUSH3 0x91 JUMP JUMPDEST PUSH3 0x15180 DUP4 LT ISZERO PUSH3 0x192 JUMPI PUSH1 0x40 MLOAD PUSH3 0x461BCD PUSH1 0xE5 SHL DUP2 MSTORE PUSH1 0x20 PUSH1 0x4 DUP3 ADD MSTORE PUSH1 0xF PUSH1 0x24 DUP3 ADD MSTORE PUSH15 0x149BDD5B99081D1BDBC81CDA1BDC9D PUSH1 0x8A SHL PUSH1 0x44 DUP3 ADD MSTORE PUSH1 0x64 ADD PUSH3 0x91 JUMP JUMPDEST PUSH1 0x2 DUP5 SWAP1 SSTORE PUSH1 0x3 DUP4 SWAP1 SSTORE PUSH1 0x4 DUP3 SWAP1 SSTORE PUSH1 0xB DUP3 SWAP1 SSTORE PUSH1 0x1 PUSH1 0x1 PUSH1 0xA0 SHL SUB DUP2 AND ISZERO DUP1 ISZERO SWAP1 PUSH3 0x1BF JUMPI POP PUSH1 0x0 DUP3 GT JUMPDEST ISZERO PUSH3 0x1DE JUMPI PUSH3 0x1D0 DUP2 PUSH3 0x23A JUMP JUMPDEST PUSH1 0x8 DUP1 SLOAD PUSH1 0xFF NOT AND PUSH1 0x1 OR SWAP1 SSTORE JUMPDEST POP POP POP POP PUSH3 0x3EA JUMP JUMPDEST PUSH1 0x1 DUP1 SLOAD PUSH1 0x1 PUSH1 0x1 PUSH1 0xA0 SHL SUB DUP4 DUP2 AND PUSH1 0x1 PUSH1 0x1 PUSH1 0xA0 SHL SUB NOT DUP4 AND DUP2 OR SWAP1 SWAP4 SSTORE PUSH1 0x40 MLOAD SWAP2 AND SWAP2 SWAP1 DUP3 SWAP1 PUSH32 0x8BE0079C531659141344CD1FD0A4F28419497F9722A3DAAFE3B4186F6B6457E0 SWAP1 PUSH1 0x0 SWAP1 LOG3 POP POP JUMP JUMPDEST PUSH1 0x40 DUP1 MLOAD PUSH2 0x100 DUP2 ADD DUP3 MSTORE PUSH1 0x1 DUP1 DUP3 MSTORE TIMESTAMP PUSH1 0x20 DUP1 DUP5 ADD SWAP2 DUP3 MSTORE PUSH1 0x0 DUP5 DUP7 ADD DUP2 DUP2 MSTORE PUSH1 0x60 DUP7 ADD DUP3 DUP2 MSTORE PUSH1 0x80 DUP8 ADD DUP4 DUP2 MSTORE PUSH1 0xA0 DUP9 ADD DUP5 DUP2 MSTORE PUSH1 0xC0 DUP10 ADD DUP6 DUP2 MSTORE PUSH1 0xE0 DUP11 ADD DUP7 DUP2 MSTORE PUSH1 0x1 PUSH1 0x1 PUSH1 0xA0 SHL SUB DUP14 AND DUP1 DUP9 MSTORE PUSH1 0xE SWAP1 SWAP9 MSTORE SWAP11 DUP7 KECCAK256 SWAP10 MLOAD DUP11 SLOAD SWAP1 ISZERO ISZERO PUSH1 0xFF NOT SWAP2 DUP3 AND OR DUP12 SSTORE SWAP8 MLOAD DUP11 DUP11 ADD SSTORE SWAP4 MLOAD PUSH1 0x2 DUP11 ADD SSTORE SWAP2 MLOAD PUSH1 0x3 DUP10 ADD SSTORE MLOAD PUSH1 0x4 DUP9 ADD SSTORE MLOAD PUSH1 0x5 DUP8 ADD SSTORE MLOAD PUSH1 0x6 DUP7 ADD DUP1 SLOAD SWAP2 ISZERO ISZERO SWAP2 SWAP1 SWAP5 AND OR SWAP1 SWAP3 SSTORE SWAP4 MLOAD PUSH1 0x7 SWAP1 SWAP4 ADD SWAP3 SWAP1 SWAP3 SSTORE PUSH1 0xD DUP1 SLOAD DUP1 DUP4 ADD SWAP1 SWAP2 SSTORE PUSH32 0xD7B6990105719101DABEB77144F2A3385C8033ACD3AF97E9423A695E81AD1EB5 ADD DUP1 SLOAD PUSH1 0x1 PUSH1 0x1 PUSH1 0xA0 SHL SUB NOT SWAP1 DUP2 AND DUP6 OR SWAP1 SWAP2 SSTORE PUSH1 0x10 DUP1 SLOAD SWAP3 DUP4 ADD DUP2 SSTORE DUP4 MSTORE PUSH32 0x1B6847DC741A1B0CD08D278845F9D819D87B734759AFB55FE2DE5CB82A9AE672 SWAP1 SWAP2 ADD DUP1 SLOAD SWAP1 SWAP2 AND SWAP1 SWAP3 OR SWAP1 SWAP2 SSTORE PUSH1 0xA DUP1 SLOAD SWAP2 PUSH3 0x369 DUP4 PUSH3 0x3C2 JUMP JUMPDEST SWAP2 SWAP1 POP SSTORE POP POP JUMP JUMPDEST PUSH1 0x0 DUP1 PUSH1 0x0 DUP1 PUSH1 0x80 DUP6 DUP8 SUB SLT ISZERO PUSH3 0x388 JUMPI PUSH1 0x0 DUP1 REVERT JUMPDEST DUP5 MLOAD PUSH1 0x20 DUP7 ADD MLOAD PUSH1 0x40 DUP8 ADD MLOAD PUSH1 0x60 DUP9 ADD MLOAD SWAP3 SWAP7 POP SWAP1 SWAP5 POP SWAP3 POP PUSH1 0x1 PUSH1 0x1 PUSH1 0xA0 SHL SUB DUP2 AND DUP2 EQ PUSH3 0x3B7 JUMPI PUSH1 0x0 DUP1 REVERT JUMPDEST SWAP4 SWAP7 SWAP3 SWAP6 POP SWAP1 SWAP4 POP POP JUMP JUMPDEST PUSH1 0x0 PUSH1 0x1 DUP3 ADD PUSH3 0x3E3 JUMPI PUSH4 0x4E487B71 PUSH1 0xE0 SHL PUSH1 0x0 MSTORE PUSH1 0x11 PUSH1 0x4 MSTORE PUSH1 0x24 PUSH1 0x0 REVERT JUMPDEST POP PUSH1 0x1 ADD SWAP1 JUMP JUMPDEST PUSH2 0x1A8D DUP1 PUSH3 0x3FA PUSH1 0x0 CODECOPY PUSH1 0x0 RETURN INVALID PUSH1 0x80 PUSH1 0x40 MSTORE PUSH1 0x4 CALLDATASIZE LT PUSH2 0x1C6 JUMPI PUSH1 0x0 CALLDATALOAD PUSH1 0xE0 SHR DUP1 PUSH4 0x7BDB04EC GT PUSH2 0xF7 JUMPI DUP1 PUSH4 0xA06DB7DC GT PUSH2 0x95 JUMPI DUP1 PUSH4 0xF2FDE38B GT PUSH2 0x64 JUMPI DUP1 PUSH4 0xF2FDE38B EQ PUSH2 0x5E6 JUMPI DUP1 PUSH4 0xF7CB789A EQ PUSH2 0x606 JUMPI DUP1 PUSH4 0xFD3A949F EQ PUSH2 0x61C JUMPI DUP1 PUSH4 0xFF85FBA2 EQ PUSH2 0x631 JUMPI PUSH1 0x0 DUP1 REVERT JUMPDEST DUP1 PUSH4 0xA06DB7DC EQ PUSH2 0x59D JUMPI DUP1 PUSH4 0xBB9D01A4 EQ PUSH2 0x5B3 JUMPI DUP1 PUSH4 0xBF4386A0 EQ PUSH2 0x5C8 JUMPI DUP1 PUSH4 0xD7BB99BA EQ PUSH2 0x5DE JUMPI PUSH1 0x0 DUP1 REVERT JUMPDEST DUP1 PUSH4 0x8A568299 GT PUSH2 0xD1 JUMPI DUP1 PUSH4 0x8A568299 EQ PUSH2 0x4B0 JUMPI DUP1 PUSH4 0x8BE48547 EQ PUSH2 0x4C6 JUMPI DUP1 PUSH4 0x8C65C81F EQ PUSH2 0x4DB JUMPI DUP1 PUSH4 0x8DA5CB5B EQ PUSH2 0x57F JUMPI PUSH1 0x0 DUP1 REVERT JUMPDEST DUP1 PUSH4 0x7BDB04EC EQ PUSH2 0x3DB JUMPI DUP1 PUSH4 0x88C3FFB0 EQ PUSH2 0x3FB JUMPI DUP1 PUSH4 0x8A19C8BC EQ PUSH2 0x49A JUMPI PUSH1 0x0 DUP1 REVERT JUMPDEST DUP1 PUSH4 0x58E56DB4 GT PUSH2 0x164 JUMPI DUP1 PUSH4 0x605F8083 GT PUSH2 0x13E JUMPI DUP1 PUSH4 0x605F8083 EQ PUSH2 0x385 JUMPI DUP1 PUSH4 0x6766D1BA EQ PUSH2 0x39B JUMPI DUP1 PUSH4 0x715018A6 EQ PUSH2 0x3B0 JUMPI DUP1 PUSH4 0x76E92559 EQ PUSH2 0x3C5 JUMPI PUSH1 0x0 DUP1 REVERT JUMPDEST DUP1 PUSH4 0x58E56DB4 EQ PUSH2 0x350 JUMPI DUP1 PUSH4 0x5956FDCD EQ PUSH2 0x365 JUMPI DUP1 PUSH4 0x5FA0B65F EQ PUSH2 0x36F JUMPI PUSH1 0x0 DUP1 REVERT JUMPDEST DUP1 PUSH4 0x13B8AD31 GT PUSH2 0x1A0 JUMPI DUP1 PUSH4 0x13B8AD31 EQ PUSH2 0x2D8 JUMPI DUP1 PUSH4 0x1724969A EQ PUSH2 0x2F8 JUMPI DUP1 PUSH4 0x200D2ED2 EQ PUSH2 0x30E JUMPI DUP1 PUSH4 0x3FE071BE EQ PUSH2 0x33A JUMPI PUSH1 0x0 DUP1 REVERT JUMPDEST DUP1 PUSH4 0x8AE4B0C EQ PUSH2 0x1D2 JUMPI DUP1 PUSH4 0xB529A17 EQ PUSH2 0x27C JUMPI DUP1 PUSH4 0x134200E5 EQ PUSH2 0x2B4 JUMPI PUSH1 0x0 DUP1 REVERT JUMPDEST CALLDATASIZE PUSH2 0x1CD JUMPI STOP JUMPDEST PUSH1 0x0 DUP1 REVERT JUMPDEST CALLVALUE DUP1 ISZERO PUSH2 0x1DE JUMPI PUSH1 0x0 DUP1 REVERT JUMPDEST POP PUSH2 0x238 PUSH2 0x1ED CALLDATASIZE PUSH1 0x4 PUSH2 0x1879 JUMP JUMPDEST PUSH1 0xE PUSH1 0x20 MSTORE PUSH1 0x0 SWAP1 DUP2 MSTORE PUSH1 0x40 SWAP1 KECCAK256 DUP1 SLOAD PUSH1 0x1 DUP3 ADD SLOAD PUSH1 0x2 DUP4 ADD SLOAD PUSH1 0x3 DUP5 ADD SLOAD PUSH1 0x4 DUP6 ADD SLOAD PUSH1 0x5 DUP7 ADD SLOAD PUSH1 0x6 DUP8 ADD SLOAD PUSH1 0x7 SWAP1 SWAP8 ADD SLOAD PUSH1 0xFF SWAP7 DUP8 AND SWAP8 SWAP6 SWAP7 SWAP5 SWAP6 SWAP4 SWAP5 SWAP3 SWAP4 SWAP2 SWAP3 SWAP1 SWAP2 AND SWAP1 DUP9 JUMP JUMPDEST PUSH1 0x40 DUP1 MLOAD SWAP9 ISZERO ISZERO DUP10 MSTORE PUSH1 0x20 DUP10 ADD SWAP8 SWAP1 SWAP8 MSTORE SWAP6 DUP8 ADD SWAP5 SWAP1 SWAP5 MSTORE PUSH1 0x60 DUP7 ADD SWAP3 SWAP1 SWAP3 MSTORE PUSH1 0x80 DUP6 ADD MSTORE PUSH1 0xA0 DUP5 ADD MSTORE ISZERO ISZERO PUSH1 0xC0 DUP4 ADD MSTORE PUSH1 0xE0 DUP3 ADD MSTORE PUSH2 0x100 ADD JUMPDEST PUSH1 0x40 MLOAD DUP1 SWAP2 SUB SWAP1 RETURN JUMPDEST CALLVALUE DUP1 ISZERO PUSH2 0x288 JUMPI PUSH1 0x0 DUP1 REVERT JUMPDEST POP PUSH2 0x29C PUSH2 0x297 CALLDATASIZE PUSH1 0x4 PUSH2 0x18A9 JUMP JUMPDEST PUSH2 0x646 JUMP JUMPDEST PUSH1 0x40 MLOAD PUSH1 0x1 PUSH1 0x1 PUSH1 0xA0 SHL SUB SWAP1 SWAP2 AND DUP2 MSTORE PUSH1 0x20 ADD PUSH2 0x273 JUMP JUMPDEST CALLVALUE DUP1 ISZERO PUSH2 0x2C0 JUMPI PUSH1 0x0 DUP1 REVERT JUMPDEST POP PUSH2 0x2CA PUSH1 0xC SLOAD DUP2 JUMP JUMPDEST PUSH1 0x40 MLOAD SWAP1 DUP2 MSTORE PUSH1 0x20 ADD PUSH2 0x273 JUMP JUMPDEST CALLVALUE DUP1 ISZERO PUSH2 0x2E4 JUMPI PUSH1 0x0 DUP1 REVERT JUMPDEST POP PUSH2 0x29C PUSH2 0x2F3 CALLDATASIZE PUSH1 0x4 PUSH2 0x18A9 JUMP JUMPDEST PUSH2 0x670 JUMP JUMPDEST CALLVALUE DUP1 ISZERO PUSH2 0x304 JUMPI PUSH1 0x0 DUP1 REVERT JUMPDEST POP PUSH2 0x2CA PUSH1 0x5 SLOAD DUP2 JUMP JUMPDEST CALLVALUE DUP1 ISZERO PUSH2 0x31A JUMPI PUSH1 0x0 DUP1 REVERT JUMPDEST POP PUSH1 0x8 SLOAD PUSH2 0x32D SWAP1 PUSH2 0x100 SWAP1 DIV PUSH1 0xFF AND DUP2 JUMP JUMPDEST PUSH1 0x40 MLOAD PUSH2 0x273 SWAP2 SWAP1 PUSH2 0x18D8 JUMP JUMPDEST CALLVALUE DUP1 ISZERO PUSH2 0x346 JUMPI PUSH1 0x0 DUP1 REVERT JUMPDEST POP PUSH2 0x2CA PUSH1 0x11 SLOAD DUP2 JUMP JUMPDEST CALLVALUE DUP1 ISZERO PUSH2 0x35C JUMPI PUSH1 0x0 DUP1 REVERT JUMPDEST POP PUSH2 0x2CA PUSH2 0x680 JUMP JUMPDEST PUSH2 0x36D PUSH2 0x697 JUMP JUMPDEST STOP JUMPDEST CALLVALUE DUP1 ISZERO PUSH2 0x37B JUMPI PUSH1 0x0 DUP1 REVERT JUMPDEST POP PUSH2 0x2CA PUSH1 0x2 SLOAD DUP2 JUMP JUMPDEST CALLVALUE DUP1 ISZERO PUSH2 0x391 JUMPI PUSH1 0x0 DUP1 REVERT JUMPDEST POP PUSH2 0x2CA PUSH1 0x7 SLOAD DUP2 JUMP JUMPDEST CALLVALUE DUP1 ISZERO PUSH2 0x3A7 JUMPI PUSH1 0x0 DUP1 REVERT JUMPDEST POP PUSH2 0x2CA PUSH2 0x8AC JUMP JUMPDEST CALLVALUE DUP1 ISZERO PUSH2 0x3BC JUMPI PUSH1 0x0 DUP1 REVERT JUMPDEST POP PUSH2 0x36D PUSH2 0x90A JUMP JUMPDEST CALLVALUE DUP1 ISZERO PUSH2 0x3D1 JUMPI PUSH1 0x0 DUP1 REVERT JUMPDEST POP PUSH2 0x2CA PUSH1 0xA SLOAD DUP2 JUMP JUMPDEST CALLVALUE DUP1 ISZERO PUSH2 0x3E7 JUMPI PUSH1 0x0 DUP1 REVERT JUMPDEST POP PUSH2 0x36D PUSH2 0x3F6 CALLDATASIZE PUSH1 0x4 PUSH2 0x1900 JUMP JUMPDEST PUSH2 0x91C JUMP JUMPDEST CALLVALUE DUP1 ISZERO PUSH2 0x407 JUMPI PUSH1 0x0 DUP1 REVERT JUMPDEST POP PUSH2 0x45D PUSH2 0x416 CALLDATASIZE PUSH1 0x4 PUSH2 0x18A9 JUMP JUMPDEST PUSH1 0x0 SWAP1 DUP2 MSTORE PUSH1 0xF PUSH1 0x20 MSTORE PUSH1 0x40 SWAP1 KECCAK256 PUSH1 0x1 DUP2 ADD SLOAD PUSH1 0x2 DUP3 ADD SLOAD PUSH1 0x3 DUP4 ADD SLOAD PUSH1 0x4 DUP5 ADD SLOAD PUSH1 0x5 DUP6 ADD SLOAD PUSH1 0x6 SWAP1 SWAP6 ADD SLOAD SWAP4 SWAP6 SWAP3 SWAP5 PUSH1 0x1 PUSH1 0x1 PUSH1 0xA0 SHL SUB SWAP1 SWAP3 AND SWAP4 SWAP1 SWAP3 PUSH1 0xFF SWAP1 SWAP2 AND SWAP1 JUMP JUMPDEST PUSH1 0x40 DUP1 MLOAD SWAP7 DUP8 MSTORE PUSH1 0x20 DUP8 ADD SWAP6 SWAP1 SWAP6 MSTORE PUSH1 0x1 PUSH1 0x1 PUSH1 0xA0 SHL SUB SWAP1 SWAP4 AND SWAP4 DUP6 ADD SWAP4 SWAP1 SWAP4 MSTORE PUSH1 0x60 DUP5 ADD MSTORE PUSH1 0x80 DUP4 ADD SWAP2 SWAP1 SWAP2 MSTORE ISZERO ISZERO PUSH1 0xA0 DUP3 ADD MSTORE PUSH1 0xC0 ADD PUSH2 0x273 JUMP JUMPDEST CALLVALUE DUP1 ISZERO PUSH2 0x4A6 JUMPI PUSH1 0x0 DUP1 REVERT JUMPDEST POP PUSH2 0x2CA PUSH1 0x9 SLOAD DUP2 JUMP JUMPDEST CALLVALUE DUP1 ISZERO PUSH2 0x4BC JUMPI PUSH1 0x0 DUP1 REVERT JUMPDEST POP PUSH2 0x2CA PUSH1 0xB SLOAD DUP2 JUMP JUMPDEST CALLVALUE DUP1 ISZERO PUSH2 0x4D2 JUMPI PUSH1 0x0 DUP1 REVERT JUMPDEST POP PUSH2 0x36D PUSH2 0x9DC JUMP JUMPDEST CALLVALUE DUP1 ISZERO PUSH2 0x4E7 JUMPI PUSH1 0x0 DUP1 REVERT JUMPDEST POP PUSH2 0x540 PUSH2 0x4F6 CALLDATASIZE PUSH1 0x4 PUSH2 0x18A9 JUMP JUMPDEST PUSH1 0xF PUSH1 0x20 MSTORE PUSH1 0x0 SWAP1 DUP2 MSTORE PUSH1 0x40 SWAP1 KECCAK256 DUP1 SLOAD PUSH1 0x1 DUP3 ADD SLOAD PUSH1 0x2 DUP4 ADD SLOAD PUSH1 0x3 DUP5 ADD SLOAD PUSH1 0x4 DUP6 ADD SLOAD PUSH1 0x5 DUP7 ADD SLOAD PUSH1 0x6 SWAP1 SWAP7 ADD SLOAD SWAP5 SWAP6 SWAP4 SWAP5 SWAP3 SWAP4 PUSH1 0x1 PUSH1 0x1 PUSH1 0xA0 SHL SUB SWAP1 SWAP3 AND SWAP3 SWAP1 SWAP2 SWAP1 PUSH1 0xFF AND DUP8 JUMP JUMPDEST PUSH1 0x40 DUP1 MLOAD SWAP8 DUP9 MSTORE PUSH1 0x20 DUP9 ADD SWAP7 SWAP1 SWAP7 MSTORE SWAP5 DUP7 ADD SWAP4 SWAP1 SWAP4 MSTORE PUSH1 0x1 PUSH1 0x1 PUSH1 0xA0 SHL SUB SWAP1 SWAP2 AND PUSH1 0x60 DUP6 ADD MSTORE PUSH1 0x80 DUP5 ADD MSTORE PUSH1 0xA0 DUP4 ADD MSTORE ISZERO ISZERO PUSH1 0xC0 DUP3 ADD MSTORE PUSH1 0xE0 ADD PUSH2 0x273 JUMP JUMPDEST CALLVALUE DUP1 ISZERO PUSH2 0x58B JUMPI PUSH1 0x0 DUP1 REVERT JUMPDEST POP PUSH1 0x1 SLOAD PUSH1 0x1 PUSH1 0x1 PUSH1 0xA0 SHL SUB AND PUSH2 0x29C JUMP JUMPDEST CALLVALUE DUP1 ISZERO PUSH2 0x5A9 JUMPI PUSH1 0x0 DUP1 REVERT JUMPDEST POP PUSH2 0x2CA PUSH1 0x6 SLOAD DUP2 JUMP JUMPDEST CALLVALUE DUP1 ISZERO PUSH2 0x5BF JUMPI PUSH1 0x0 DUP1 REVERT JUMPDEST POP PUSH2 0x36D PUSH2 0xAD2 JUMP JUMPDEST CALLVALUE DUP1 ISZERO PUSH2 0x5D4 JUMPI PUSH1 0x0 DUP1 REVERT JUMPDEST POP PUSH2 0x2CA PUSH1 0x4 SLOAD DUP2 JUMP JUMPDEST PUSH2 0x36D PUSH2 0xC0D JUMP JUMPDEST CALLVALUE DUP1 ISZERO PUSH2 0x5F2 JUMPI PUSH1 0x0 DUP1 REVERT JUMPDEST POP PUSH2 0x36D PUSH2 0x601 CALLDATASIZE PUSH1 0x4 PUSH2 0x1879 JUMP JUMPDEST PUSH2 0xF33 JUMP JUMPDEST CALLVALUE DUP1 ISZERO PUSH2 0x612 JUMPI PUSH1 0x0 DUP1 REVERT JUMPDEST POP PUSH2 0x2CA PUSH1 0x3 SLOAD DUP2 JUMP JUMPDEST CALLVALUE DUP1 ISZERO PUSH2 0x628 JUMPI PUSH1 0x0 DUP1 REVERT JUMPDEST POP PUSH2 0x2CA PUSH2 0xF6E JUMP JUMPDEST CALLVALUE DUP1 ISZERO PUSH2 0x63D JUMPI PUSH1 0x0 DUP1 REVERT JUMPDEST POP PUSH2 0x36D PUSH2 0xFCA JUMP JUMPDEST PUSH1 0x10 DUP2 DUP2 SLOAD DUP2 LT PUSH2 0x656 JUMPI PUSH1 0x0 DUP1 REVERT JUMPDEST PUSH1 0x0 SWAP2 DUP3 MSTORE PUSH1 0x20 SWAP1 SWAP2 KECCAK256 ADD SLOAD PUSH1 0x1 PUSH1 0x1 PUSH1 0xA0 SHL SUB AND SWAP1 POP DUP2 JUMP JUMPDEST PUSH1 0xD DUP2 DUP2 SLOAD DUP2 LT PUSH2 0x656 JUMPI PUSH1 0x0 DUP1 REVERT JUMPDEST PUSH1 0x0 PUSH1 0x5 SLOAD PUSH1 0x2 SLOAD PUSH2 0x692 SWAP2 SWAP1 PUSH2 0x1988 JUMP JUMPDEST SWAP1 POP SWAP1 JUMP JUMPDEST PUSH2 0x69F PUSH2 0x100E JUMP JUMPDEST PUSH1 0x0 DUP1 PUSH1 0x8 SLOAD PUSH2 0x100 SWAP1 DIV PUSH1 0xFF AND PUSH1 0x4 DUP2 GT ISZERO PUSH2 0x6BE JUMPI PUSH2 0x6BE PUSH2 0x18C2 JUMP JUMPDEST EQ PUSH2 0x6E4 JUMPI PUSH1 0x40 MLOAD PUSH3 0x461BCD PUSH1 0xE5 SHL DUP2 MSTORE PUSH1 0x4 ADD PUSH2 0x6DB SWAP1 PUSH2 0x19A5 JUMP JUMPDEST PUSH1 0x40 MLOAD DUP1 SWAP2 SUB SWAP1 REVERT JUMPDEST PUSH1 0x4 SLOAD PUSH1 0xA SLOAD LT PUSH2 0x727 JUMPI PUSH1 0x40 MLOAD PUSH3 0x461BCD PUSH1 0xE5 SHL DUP2 MSTORE PUSH1 0x20 PUSH1 0x4 DUP3 ADD MSTORE PUSH1 0xD PUSH1 0x24 DUP3 ADD MSTORE PUSH13 0x1493D4D0D0481A5CC8199D5B1B PUSH1 0x9A SHL PUSH1 0x44 DUP3 ADD MSTORE PUSH1 0x64 ADD PUSH2 0x6DB JUMP JUMPDEST CALLER PUSH1 0x0 SWAP1 DUP2 MSTORE PUSH1 0xE PUSH1 0x20 MSTORE PUSH1 0x40 SWAP1 KECCAK256 SLOAD PUSH1 0xFF AND ISZERO PUSH2 0x77A JUMPI PUSH1 0x40 MLOAD PUSH3 0x461BCD PUSH1 0xE5 SHL DUP2 MSTORE PUSH1 0x20 PUSH1 0x4 DUP3 ADD MSTORE PUSH1 0x10 PUSH1 0x24 DUP3 ADD MSTORE PUSH16 0x20B63932B0B23C90309036B2B6B132B9 PUSH1 0x81 SHL PUSH1 0x44 DUP3 ADD MSTORE PUSH1 0x64 ADD PUSH2 0x6DB JUMP JUMPDEST PUSH1 0x0 PUSH1 0x5 SLOAD PUSH1 0x2 SLOAD PUSH2 0x78C SWAP2 SWAP1 PUSH2 0x1988 JUMP JUMPDEST SWAP1 POP DUP1 CALLVALUE EQ PUSH2 0x7DD JUMPI PUSH1 0x40 MLOAD PUSH3 0x461BCD PUSH1 0xE5 SHL DUP2 MSTORE PUSH1 0x20 PUSH1 0x4 DUP3 ADD MSTORE PUSH1 0x18 PUSH1 0x24 DUP3 ADD MSTORE PUSH32 0x496E636F7272656374206465706F73697420616D6F756E740000000000000000 PUSH1 0x44 DUP3 ADD MSTORE PUSH1 0x64 ADD PUSH2 0x6DB JUMP JUMPDEST PUSH2 0x7E6 CALLER PUSH2 0x1038 JUMP JUMPDEST CALLER PUSH1 0x0 DUP2 DUP2 MSTORE PUSH1 0xE PUSH1 0x20 SWAP1 DUP2 MSTORE PUSH1 0x40 SWAP2 DUP3 SWAP1 KECCAK256 PUSH1 0x2 ADD DUP5 SWAP1 SSTORE DUP2 MLOAD TIMESTAMP DUP2 MSTORE SWAP1 DUP2 ADD DUP5 SWAP1 MSTORE PUSH32 0xAB585A62ABFFB5C5F3221CACD949F94B54770198CC25AF3AD1D315E51BE8E3E3 SWAP2 ADD PUSH1 0x40 MLOAD DUP1 SWAP2 SUB SWAP1 LOG2 PUSH1 0x4 SLOAD PUSH1 0xA SLOAD SUB PUSH2 0x89E JUMPI PUSH1 0x8 DUP1 SLOAD PUSH2 0xFF00 NOT AND PUSH2 0x100 OR SWAP1 SSTORE TIMESTAMP PUSH1 0xC DUP2 SWAP1 SSTORE PUSH1 0x6 SLOAD PUSH32 0x3356EC9443B31B2E7D0A90086B0DA20C9EB480FABB47EBD92EDE27DD427EFD81 SWAP2 SWAP1 PUSH2 0x885 SWAP1 DUP3 PUSH2 0x19D3 JUMP JUMPDEST PUSH1 0x40 DUP1 MLOAD SWAP3 DUP4 MSTORE PUSH1 0x20 DUP4 ADD SWAP2 SWAP1 SWAP2 MSTORE ADD PUSH1 0x40 MLOAD DUP1 SWAP2 SUB SWAP1 LOG1 JUMPDEST POP POP PUSH2 0x8AA PUSH1 0x1 PUSH1 0x0 SSTORE JUMP JUMPDEST JUMP JUMPDEST PUSH1 0x0 PUSH1 0x1 PUSH1 0x8 SLOAD PUSH2 0x100 SWAP1 DIV PUSH1 0xFF AND PUSH1 0x4 DUP2 GT ISZERO PUSH2 0x8CC JUMPI PUSH2 0x8CC PUSH2 0x18C2 JUMP JUMPDEST EQ PUSH2 0x8D7 JUMPI POP PUSH1 0x0 SWAP1 JUMP JUMPDEST PUSH1 0x0 PUSH1 0x6 SLOAD PUSH1 0xC SLOAD PUSH2 0x8E9 SWAP2 SWAP1 PUSH2 0x19D3 JUMP JUMPDEST SWAP1 POP DUP1 TIMESTAMP LT PUSH2 0x8FA JUMPI PUSH1 0x0 SWAP2 POP POP SWAP1 JUMP JUMPDEST PUSH2 0x904 TIMESTAMP DUP3 PUSH2 0x19E6 JUMP JUMPDEST SWAP2 POP POP SWAP1 JUMP JUMPDEST PUSH2 0x912 PUSH2 0x116D JUMP JUMPDEST PUSH2 0x8AA PUSH1 0x0 PUSH2 0x119A JUMP JUMPDEST PUSH2 0x924 PUSH2 0x116D JUMP JUMPDEST PUSH1 0x3 PUSH1 0x8 SLOAD PUSH2 0x100 SWAP1 DIV PUSH1 0xFF AND PUSH1 0x4 DUP2 GT ISZERO PUSH2 0x942 JUMPI PUSH2 0x942 PUSH2 0x18C2 JUMP JUMPDEST SUB PUSH2 0x98F JUMPI PUSH1 0x40 MLOAD PUSH3 0x461BCD PUSH1 0xE5 SHL DUP2 MSTORE PUSH1 0x20 PUSH1 0x4 DUP3 ADD MSTORE PUSH1 0x17 PUSH1 0x24 DUP3 ADD MSTORE PUSH32 0x524F53434120616C726561647920636F6D706C65746564000000000000000000 PUSH1 0x44 DUP3 ADD MSTORE PUSH1 0x64 ADD PUSH2 0x6DB JUMP JUMPDEST PUSH1 0x8 DUP1 SLOAD PUSH2 0xFF00 NOT AND PUSH2 0x400 OR SWAP1 SSTORE PUSH1 0x40 MLOAD PUSH32 0xF7B2275E9C2317FC762EF872047135A5255006085768792F663964422D974373 SWAP1 PUSH2 0x9D0 SWAP1 DUP5 SWAP1 DUP5 SWAP1 PUSH2 0x19F9 JUMP JUMPDEST PUSH1 0x40 MLOAD DUP1 SWAP2 SUB SWAP1 LOG1 POP POP JUMP JUMPDEST PUSH1 0x2 DUP1 PUSH1 0x8 SLOAD PUSH2 0x100 SWAP1 DIV PUSH1 0xFF AND PUSH1 0x4 DUP2 GT ISZERO PUSH2 0x9FB JUMPI PUSH2 0x9FB PUSH2 0x18C2 JUMP JUMPDEST EQ PUSH2 0xA18 JUMPI PUSH1 0x40 MLOAD PUSH3 0x461BCD PUSH1 0xE5 SHL DUP2 MSTORE PUSH1 0x4 ADD PUSH2 0x6DB SWAP1 PUSH2 0x19A5 JUMP JUMPDEST PUSH1 0x0 PUSH1 0x9 SLOAD GT PUSH2 0xA5C JUMPI PUSH1 0x40 MLOAD PUSH3 0x461BCD PUSH1 0xE5 SHL DUP2 MSTORE PUSH1 0x20 PUSH1 0x4 DUP3 ADD MSTORE PUSH1 0xF PUSH1 0x24 DUP3 ADD MSTORE PUSH15 0x139BC81858DD1A5D99481C9BDD5B99 PUSH1 0x8A SHL PUSH1 0x44 DUP3 ADD MSTORE PUSH1 0x64 ADD PUSH2 0x6DB JUMP JUMPDEST PUSH1 0x9 SLOAD PUSH1 0x0 SWAP1 DUP2 MSTORE PUSH1 0xF PUSH1 0x20 MSTORE PUSH1 0x40 SWAP1 KECCAK256 PUSH1 0x2 ADD SLOAD TIMESTAMP GT PUSH2 0xABF JUMPI PUSH1 0x40 MLOAD PUSH3 0x461BCD PUSH1 0xE5 SHL DUP2 MSTORE PUSH1 0x20 PUSH1 0x4 DUP3 ADD MSTORE PUSH1 0x19 PUSH1 0x24 DUP3 ADD MSTORE PUSH32 0x526F756E6420646561646C696E65206E6F742070617373656400000000000000 PUSH1 0x44 DUP3 ADD MSTORE PUSH1 0x64 ADD PUSH2 0x6DB JUMP JUMPDEST PUSH2 0xAC7 PUSH2 0x11EC JUMP JUMPDEST PUSH2 0xACF PUSH2 0x13CB JUMP JUMPDEST POP JUMP JUMPDEST PUSH1 0x1 DUP1 PUSH1 0x8 SLOAD PUSH2 0x100 SWAP1 DIV PUSH1 0xFF AND PUSH1 0x4 DUP2 GT ISZERO PUSH2 0xAF1 JUMPI PUSH2 0xAF1 PUSH2 0x18C2 JUMP JUMPDEST EQ PUSH2 0xB0E JUMPI PUSH1 0x40 MLOAD PUSH3 0x461BCD PUSH1 0xE5 SHL DUP2 MSTORE PUSH1 0x4 ADD PUSH2 0x6DB SWAP1 PUSH2 0x19A5 JUMP JUMPDEST PUSH1 0x6 SLOAD PUSH1 0xC SLOAD PUSH2 0xB1E SWAP2 SWAP1 PUSH2 0x19D3 JUMP JUMPDEST TIMESTAMP LT ISZERO PUSH2 0xB65 JUMPI PUSH1 0x40 MLOAD PUSH3 0x461BCD PUSH1 0xE5 SHL DUP2 MSTORE PUSH1 0x20 PUSH1 0x4 DUP3 ADD MSTORE PUSH1 0x15 PUSH1 0x24 DUP3 ADD MSTORE PUSH21 0x23B930B1B2903832B934B7B2103737BA1037BB32B9 PUSH1 0x59 SHL PUSH1 0x44 DUP3 ADD MSTORE PUSH1 0x64 ADD PUSH2 0x6DB JUMP JUMPDEST PUSH1 0x2 PUSH1 0xA SLOAD LT ISZERO PUSH2 0xBB8 JUMPI PUSH1 0x40 MLOAD PUSH3 0x461BCD PUSH1 0xE5 SHL DUP2 MSTORE PUSH1 0x20 PUSH1 0x4 DUP3 ADD MSTORE PUSH1 0x17 PUSH1 0x24 DUP3 ADD MSTORE PUSH32 0x4E656564206174206C656173742032206D656D62657273000000000000000000 PUSH1 0x44 DUP3 ADD MSTORE PUSH1 0x64 ADD PUSH2 0x6DB JUMP JUMPDEST PUSH1 0x8 DUP1 SLOAD PUSH2 0xFF00 NOT AND PUSH2 0x200 OR SWAP1 SSTORE PUSH1 0x1 PUSH1 0x9 DUP2 SWAP1 SSTORE PUSH2 0xBD7 SWAP1 PUSH2 0x1580 JUMP JUMPDEST PUSH1 0x40 MLOAD TIMESTAMP DUP2 MSTORE PUSH32 0xDB6B3CEB24EEE167482A870C355049D6679C171AF69D9C94D9BABB5762B6BE34 SWAP1 PUSH1 0x20 ADD PUSH1 0x40 MLOAD DUP1 SWAP2 SUB SWAP1 LOG1 POP JUMP JUMPDEST PUSH2 0xC15 PUSH2 0x100E JUMP JUMPDEST CALLER PUSH1 0x0 SWAP1 DUP2 MSTORE PUSH1 0xE PUSH1 0x20 MSTORE PUSH1 0x40 SWAP1 KECCAK256 SLOAD PUSH1 0xFF AND PUSH2 0xC6B JUMPI PUSH1 0x40 MLOAD PUSH3 0x461BCD PUSH1 0xE5 SHL DUP2 MSTORE PUSH1 0x20 PUSH1 0x4 DUP3 ADD MSTORE PUSH1 0x14 PUSH1 0x24 DUP3 ADD MSTORE PUSH20 0x2737BA1030B71030B1BA34BB329036B2B6B132B9 PUSH1 0x61 SHL PUSH1 0x44 DUP3 ADD MSTORE PUSH1 0x64 ADD PUSH2 0x6DB JUMP JUMPDEST PUSH1 0x2 DUP1 PUSH1 0x8 SLOAD PUSH2 0x100 SWAP1 DIV PUSH1 0xFF AND PUSH1 0x4 DUP2 GT ISZERO PUSH2 0xC8A JUMPI PUSH2 0xC8A PUSH2 0x18C2 JUMP JUMPDEST EQ PUSH2 0xCA7 JUMPI PUSH1 0x40 MLOAD PUSH3 0x461BCD PUSH1 0xE5 SHL DUP2 MSTORE PUSH1 0x4 ADD PUSH2 0x6DB SWAP1 PUSH2 0x19A5 JUMP JUMPDEST PUSH1 0x0 PUSH1 0x9 SLOAD GT PUSH2 0xCEB JUMPI PUSH1 0x40 MLOAD PUSH3 0x461BCD PUSH1 0xE5 SHL DUP2 MSTORE PUSH1 0x20 PUSH1 0x4 DUP3 ADD MSTORE PUSH1 0xF PUSH1 0x24 DUP3 ADD MSTORE PUSH15 0x139BC81858DD1A5D99481C9BDD5B99 PUSH1 0x8A SHL PUSH1 0x44 DUP3 ADD MSTORE PUSH1 0x64 ADD PUSH2 0x6DB JUMP JUMPDEST PUSH1 0x9 SLOAD PUSH1 0x0 SWAP1 DUP2 MSTORE PUSH1 0xF PUSH1 0x20 MSTORE PUSH1 0x40 SWAP1 KECCAK256 PUSH1 0x6 DUP2 ADD SLOAD PUSH1 0xFF AND ISZERO PUSH2 0xD4B JUMPI PUSH1 0x40 MLOAD PUSH3 0x461BCD PUSH1 0xE5 SHL DUP2 MSTORE PUSH1 0x20 PUSH1 0x4 DUP3 ADD MSTORE PUSH1 0x17 PUSH1 0x24 DUP3 ADD MSTORE PUSH23 0x149BDD5B9908185B1C9958591E4818DBDB5C1B195D1959 PUSH1 0x4A SHL PUSH1 0x44 DUP3 ADD MSTORE PUSH1 0x64 ADD PUSH2 0x6DB JUMP JUMPDEST CALLER PUSH1 0x0 SWAP1 DUP2 MSTORE PUSH1 0x7 DUP3 ADD PUSH1 0x20 MSTORE PUSH1 0x40 SWAP1 KECCAK256 SLOAD PUSH1 0xFF AND ISZERO PUSH2 0xDAD JUMPI PUSH1 0x40 MLOAD PUSH3 0x461BCD PUSH1 0xE5 SHL DUP2 MSTORE PUSH1 0x20 PUSH1 0x4 DUP3 ADD MSTORE PUSH1 0x1E PUSH1 0x24 DUP3 ADD MSTORE PUSH32 0x416C726561647920636F6E7472696275746564207468697320726F756E640000 PUSH1 0x44 DUP3 ADD MSTORE PUSH1 0x64 ADD PUSH2 0x6DB JUMP JUMPDEST DUP1 PUSH1 0x2 ADD SLOAD TIMESTAMP GT ISZERO PUSH2 0xDF9 JUMPI PUSH1 0x40 MLOAD PUSH3 0x461BCD PUSH1 0xE5 SHL DUP2 MSTORE PUSH1 0x20 PUSH1 0x4 DUP3 ADD MSTORE PUSH1 0x15 PUSH1 0x24 DUP3 ADD MSTORE PUSH21 0x149BDD5B9908191958591B1A5B99481C185CDCD959 PUSH1 0x5A SHL PUSH1 0x44 DUP3 ADD MSTORE PUSH1 0x64 ADD PUSH2 0x6DB JUMP JUMPDEST PUSH1 0x2 SLOAD CALLVALUE EQ PUSH2 0xE4A JUMPI PUSH1 0x40 MLOAD PUSH3 0x461BCD PUSH1 0xE5 SHL DUP2 MSTORE PUSH1 0x20 PUSH1 0x4 DUP3 ADD MSTORE PUSH1 0x18 PUSH1 0x24 DUP3 ADD MSTORE PUSH32 0x496E636F7272656374207061796D656E7420616D6F756E740000000000000000 PUSH1 0x44 DUP3 ADD MSTORE PUSH1 0x64 ADD PUSH2 0x6DB JUMP JUMPDEST CALLER PUSH1 0x0 SWAP1 DUP2 MSTORE PUSH1 0x7 DUP3 ADD PUSH1 0x20 MSTORE PUSH1 0x40 DUP2 KECCAK256 DUP1 SLOAD PUSH1 0xFF NOT AND PUSH1 0x1 OR SWAP1 SSTORE PUSH1 0x5 DUP3 ADD DUP1 SLOAD SWAP2 PUSH2 0xE76 DUP4 PUSH2 0x1A28 JUMP JUMPDEST SWAP2 SWAP1 POP SSTORE POP PUSH1 0x2 SLOAD DUP2 PUSH1 0x4 ADD PUSH1 0x0 DUP3 DUP3 SLOAD PUSH2 0xE91 SWAP2 SWAP1 PUSH2 0x19D3 JUMP JUMPDEST SWAP1 SWAP2 SSTORE POP POP PUSH1 0x2 SLOAD CALLER PUSH1 0x0 SWAP1 DUP2 MSTORE PUSH1 0xE PUSH1 0x20 MSTORE PUSH1 0x40 DUP2 KECCAK256 PUSH1 0x3 ADD DUP1 SLOAD SWAP1 SWAP2 SWAP1 PUSH2 0xEBB SWAP1 DUP5 SWAP1 PUSH2 0x19D3 JUMP JUMPDEST SWAP1 SWAP2 SSTORE POP POP CALLER PUSH1 0x0 SWAP1 DUP2 MSTORE PUSH1 0xE PUSH1 0x20 MSTORE PUSH1 0x40 DUP2 KECCAK256 PUSH1 0x4 ADD DUP1 SLOAD SWAP2 PUSH2 0xEDE DUP4 PUSH2 0x1A28 JUMP JUMPDEST SWAP1 SWAP2 SSTORE POP POP PUSH1 0x9 SLOAD PUSH1 0x2 SLOAD PUSH1 0x40 MLOAD SWAP1 DUP2 MSTORE CALLER SWAP1 PUSH32 0x5DC1FE5AB986A852C4EDA8E8BB94247D13307065C593FB83F1A09BE273679382 SWAP1 PUSH1 0x20 ADD PUSH1 0x40 MLOAD DUP1 SWAP2 SUB SWAP1 LOG3 PUSH1 0xA SLOAD DUP2 PUSH1 0x5 ADD SLOAD SUB PUSH2 0x89E JUMPI PUSH2 0x89E PUSH2 0x13CB JUMP JUMPDEST PUSH2 0xF3B PUSH2 0x116D JUMP JUMPDEST PUSH1 0x1 PUSH1 0x1 PUSH1 0xA0 SHL SUB DUP2 AND PUSH2 0xF65 JUMPI PUSH1 0x40 MLOAD PUSH4 0x1E4FBDF7 PUSH1 0xE0 SHL DUP2 MSTORE PUSH1 0x0 PUSH1 0x4 DUP3 ADD MSTORE PUSH1 0x24 ADD PUSH2 0x6DB JUMP JUMPDEST PUSH2 0xACF DUP2 PUSH2 0x119A JUMP JUMPDEST PUSH1 0x0 PUSH1 0x2 PUSH1 0x8 SLOAD PUSH2 0x100 SWAP1 DIV PUSH1 0xFF AND PUSH1 0x4 DUP2 GT ISZERO PUSH2 0xF8E JUMPI PUSH2 0xF8E PUSH2 0x18C2 JUMP JUMPDEST EQ ISZERO DUP1 PUSH2 0xF9B JUMPI POP PUSH1 0x9 SLOAD ISZERO JUMPDEST ISZERO PUSH2 0xFA6 JUMPI POP PUSH1 0x0 SWAP1 JUMP JUMPDEST PUSH1 0x9 SLOAD PUSH1 0x0 SWAP1 DUP2 MSTORE PUSH1 0xF PUSH1 0x20 MSTORE PUSH1 0x40 SWAP1 KECCAK256 PUSH1 0x2 ADD SLOAD TIMESTAMP DUP2 GT PUSH2 0x8FA JUMPI PUSH1 0x0 SWAP2 POP POP SWAP1 JUMP JUMPDEST PUSH2 0xFD2 PUSH2 0x116D JUMP JUMPDEST PUSH1 0x1 DUP1 PUSH1 0x8 SLOAD PUSH2 0x100 SWAP1 DIV PUSH1 0xFF AND PUSH1 0x4 DUP2 GT ISZERO PUSH2 0xFF1 JUMPI PUSH2 0xFF1 PUSH2 0x18C2 JUMP JUMPDEST EQ PUSH2 0xB65 JUMPI PUSH1 0x40 MLOAD PUSH3 0x461BCD PUSH1 0xE5 SHL DUP2 MSTORE PUSH1 0x4 ADD PUSH2 0x6DB SWAP1 PUSH2 0x19A5 JUMP JUMPDEST PUSH1 0x2 PUSH1 0x0 SLOAD SUB PUSH2 0x1031 JUMPI PUSH1 0x40 MLOAD PUSH4 0x3EE5AEB5 PUSH1 0xE0 SHL DUP2 MSTORE PUSH1 0x4 ADD PUSH1 0x40 MLOAD DUP1 SWAP2 SUB SWAP1 REVERT JUMPDEST PUSH1 0x2 PUSH1 0x0 SSTORE JUMP JUMPDEST PUSH1 0x40 DUP1 MLOAD PUSH2 0x100 DUP2 ADD DUP3 MSTORE PUSH1 0x1 DUP1 DUP3 MSTORE TIMESTAMP PUSH1 0x20 DUP1 DUP5 ADD SWAP2 DUP3 MSTORE PUSH1 0x0 DUP5 DUP7 ADD DUP2 DUP2 MSTORE PUSH1 0x60 DUP7 ADD DUP3 DUP2 MSTORE PUSH1 0x80 DUP8 ADD DUP4 DUP2 MSTORE PUSH1 0xA0 DUP9 ADD DUP5 DUP2 MSTORE PUSH1 0xC0 DUP10 ADD DUP6 DUP2 MSTORE PUSH1 0xE0 DUP11 ADD DUP7 DUP2 MSTORE PUSH1 0x1 PUSH1 0x1 PUSH1 0xA0 SHL SUB DUP14 AND DUP1 DUP9 MSTORE PUSH1 0xE SWAP1 SWAP9 MSTORE SWAP11 DUP7 KECCAK256 SWAP10 MLOAD DUP11 SLOAD SWAP1 ISZERO ISZERO PUSH1 0xFF NOT SWAP2 DUP3 AND OR DUP12 SSTORE SWAP8 MLOAD DUP11 DUP11 ADD SSTORE SWAP4 MLOAD PUSH1 0x2 DUP11 ADD SSTORE SWAP2 MLOAD PUSH1 0x3 DUP10 ADD SSTORE MLOAD PUSH1 0x4 DUP9 ADD SSTORE MLOAD PUSH1 0x5 DUP8 ADD SSTORE MLOAD PUSH1 0x6 DUP7 ADD DUP1 SLOAD SWAP2 ISZERO ISZERO SWAP2 SWAP1 SWAP5 AND OR SWAP1 SWAP3 SSTORE SWAP4 MLOAD PUSH1 0x7 SWAP1 SWAP4 ADD SWAP3 SWAP1 SWAP3 SSTORE PUSH1 0xD DUP1 SLOAD DUP1 DUP4 ADD SWAP1 SWAP2 SSTORE PUSH32 0xD7B6990105719101DABEB77144F2A3385C8033ACD3AF97E9423A695E81AD1EB5 ADD DUP1 SLOAD PUSH1 0x1 PUSH1 0x1 PUSH1 0xA0 SHL SUB NOT SWAP1 DUP2 AND DUP6 OR SWAP1 SWAP2 SSTORE PUSH1 0x10 DUP1 SLOAD SWAP3 DUP4 ADD DUP2 SSTORE DUP4 MSTORE PUSH32 0x1B6847DC741A1B0CD08D278845F9D819D87B734759AFB55FE2DE5CB82A9AE672 SWAP1 SWAP2 ADD DUP1 SLOAD SWAP1 SWAP2 AND SWAP1 SWAP3 OR SWAP1 SWAP2 SSTORE PUSH1 0xA DUP1 SLOAD SWAP2 PUSH2 0x1165 DUP4 PUSH2 0x1A28 JUMP JUMPDEST SWAP2 SWAP1 POP SSTORE POP POP JUMP JUMPDEST PUSH1 0x1 SLOAD PUSH1 0x1 PUSH1 0x1 PUSH1 0xA0 SHL SUB AND CALLER EQ PUSH2 0x8AA JUMPI PUSH1 0x40 MLOAD PUSH4 0x118CDAA7 PUSH1 0xE0 SHL DUP2 MSTORE CALLER PUSH1 0x4 DUP3 ADD MSTORE PUSH1 0x24 ADD PUSH2 0x6DB JUMP JUMPDEST PUSH1 0x1 DUP1 SLOAD PUSH1 0x1 PUSH1 0x1 PUSH1 0xA0 SHL SUB DUP4 DUP2 AND PUSH1 0x1 PUSH1 0x1 PUSH1 0xA0 SHL SUB NOT DUP4 AND DUP2 OR SWAP1 SWAP4 SSTORE PUSH1 0x40 MLOAD SWAP2 AND SWAP2 SWAP1 DUP3 SWAP1 PUSH32 0x8BE0079C531659141344CD1FD0A4F28419497F9722A3DAAFE3B4186F6B6457E0 SWAP1 PUSH1 0x0 SWAP1 LOG3 POP POP JUMP JUMPDEST PUSH1 0x9 SLOAD PUSH1 0x0 SWAP1 DUP2 MSTORE PUSH1 0xF PUSH1 0x20 MSTORE PUSH1 0x40 DUP2 KECCAK256 SWAP1 JUMPDEST PUSH1 0xD SLOAD DUP2 LT ISZERO PUSH2 0x13C7 JUMPI PUSH1 0x0 PUSH1 0xD DUP3 DUP2 SLOAD DUP2 LT PUSH2 0x121E JUMPI PUSH2 0x121E PUSH2 0x1A41 JUMP JUMPDEST PUSH1 0x0 SWAP2 DUP3 MSTORE PUSH1 0x20 DUP1 DUP4 KECCAK256 SWAP1 SWAP2 ADD SLOAD PUSH1 0x1 PUSH1 0x1 PUSH1 0xA0 SHL SUB AND DUP1 DUP4 MSTORE PUSH1 0xE SWAP1 SWAP2 MSTORE PUSH1 0x40 SWAP1 SWAP2 KECCAK256 SLOAD SWAP1 SWAP2 POP PUSH1 0xFF AND DUP1 ISZERO PUSH2 0x1270 JUMPI POP PUSH1 0x1 PUSH1 0x1 PUSH1 0xA0 SHL SUB DUP2 AND PUSH1 0x0 SWAP1 DUP2 MSTORE PUSH1 0x7 DUP5 ADD PUSH1 0x20 MSTORE PUSH1 0x40 SWAP1 KECCAK256 SLOAD PUSH1 0xFF AND ISZERO JUMPDEST ISZERO PUSH2 0x13B4 JUMPI PUSH1 0x1 PUSH1 0x1 PUSH1 0xA0 SHL SUB DUP2 AND PUSH1 0x0 SWAP1 DUP2 MSTORE PUSH1 0xE PUSH1 0x20 MSTORE PUSH1 0x40 DUP2 KECCAK256 PUSH1 0x5 ADD DUP1 SLOAD SWAP2 PUSH2 0x129C DUP4 PUSH2 0x1A28 JUMP JUMPDEST SWAP1 SWAP2 SSTORE POP POP PUSH1 0x7 SLOAD PUSH1 0x1 PUSH1 0x1 PUSH1 0xA0 SHL SUB DUP3 AND PUSH1 0x0 SWAP1 DUP2 MSTORE PUSH1 0xE PUSH1 0x20 MSTORE PUSH1 0x40 SWAP1 KECCAK256 PUSH1 0x5 ADD SLOAD GT ISZERO PUSH2 0x13B4 JUMPI PUSH1 0x2 DUP1 SLOAD PUSH1 0x1 PUSH1 0x1 PUSH1 0xA0 SHL SUB DUP4 AND PUSH1 0x0 SWAP1 DUP2 MSTORE PUSH1 0xE PUSH1 0x20 MSTORE PUSH1 0x40 SWAP1 KECCAK256 SWAP1 SWAP2 ADD SLOAD DUP2 GT PUSH2 0x13B2 JUMPI PUSH1 0x1 PUSH1 0x1 PUSH1 0xA0 SHL SUB DUP3 AND PUSH1 0x0 SWAP1 DUP2 MSTORE PUSH1 0xE PUSH1 0x20 MSTORE PUSH1 0x40 DUP2 KECCAK256 PUSH1 0x2 ADD DUP1 SLOAD DUP4 SWAP3 SWAP1 PUSH2 0x1317 SWAP1 DUP5 SWAP1 PUSH2 0x19E6 JUMP JUMPDEST SWAP3 POP POP DUP2 SWAP1 SSTORE POP DUP1 DUP5 PUSH1 0x4 ADD PUSH1 0x0 DUP3 DUP3 SLOAD PUSH2 0x1332 SWAP2 SWAP1 PUSH2 0x19D3 JUMP JUMPDEST SWAP3 POP POP DUP2 SWAP1 SSTORE POP DUP2 PUSH1 0x1 PUSH1 0x1 PUSH1 0xA0 SHL SUB AND PUSH32 0xC36021BA9160C37844A4FFFE59606AF0C44BB2336762FA830CC938C432D71E4 DUP3 PUSH1 0x40 MLOAD PUSH2 0x13A9 SWAP2 DUP2 MSTORE PUSH1 0x40 PUSH1 0x20 DUP3 ADD DUP2 SWAP1 MSTORE PUSH1 0x1E SWAP1 DUP3 ADD MSTORE PUSH32 0x457863657373697665206D697373656420636F6E747269627574696F6E730000 PUSH1 0x60 DUP3 ADD MSTORE PUSH1 0x80 ADD SWAP1 JUMP JUMPDEST PUSH1 0x40 MLOAD DUP1 SWAP2 SUB SWAP1 LOG2 JUMPDEST POP JUMPDEST POP DUP1 PUSH2 0x13BF DUP2 PUSH2 0x1A28 JUMP JUMPDEST SWAP2 POP POP PUSH2 0x11FF JUMP JUMPDEST POP POP JUMP JUMPDEST PUSH1 0x9 SLOAD PUSH1 0x0 SWAP1 DUP2 MSTORE PUSH1 0xF PUSH1 0x20 MSTORE PUSH1 0x40 SWAP1 KECCAK256 PUSH1 0x6 DUP2 ADD SLOAD PUSH1 0xFF AND ISZERO PUSH2 0x142B JUMPI PUSH1 0x40 MLOAD PUSH3 0x461BCD PUSH1 0xE5 SHL DUP2 MSTORE PUSH1 0x20 PUSH1 0x4 DUP3 ADD MSTORE PUSH1 0x17 PUSH1 0x24 DUP3 ADD MSTORE PUSH23 0x149BDD5B9908185B1C9958591E4818DBDB5C1B195D1959 PUSH1 0x4A SHL PUSH1 0x44 DUP3 ADD MSTORE PUSH1 0x64 ADD PUSH2 0x6DB JUMP JUMPDEST PUSH1 0x3 DUP2 ADD SLOAD PUSH1 0x4 DUP3 ADD SLOAD PUSH1 0x40 MLOAD PUSH1 0x1 PUSH1 0x1 PUSH1 0xA0 SHL SUB SWAP1 SWAP3 AND SWAP2 PUSH1 0x0 SWAP1 DUP4 SWAP1 DUP4 SWAP1 DUP4 DUP2 DUP2 DUP2 DUP6 DUP8 GAS CALL SWAP3 POP POP POP RETURNDATASIZE DUP1 PUSH1 0x0 DUP2 EQ PUSH2 0x1483 JUMPI PUSH1 0x40 MLOAD SWAP2 POP PUSH1 0x1F NOT PUSH1 0x3F RETURNDATASIZE ADD AND DUP3 ADD PUSH1 0x40 MSTORE RETURNDATASIZE DUP3 MSTORE RETURNDATASIZE PUSH1 0x0 PUSH1 0x20 DUP5 ADD RETURNDATACOPY PUSH2 0x1488 JUMP JUMPDEST PUSH1 0x60 SWAP2 POP JUMPDEST POP POP SWAP1 POP DUP1 PUSH2 0x14C9 JUMPI PUSH1 0x40 MLOAD PUSH3 0x461BCD PUSH1 0xE5 SHL DUP2 MSTORE PUSH1 0x20 PUSH1 0x4 DUP3 ADD MSTORE PUSH1 0xD PUSH1 0x24 DUP3 ADD MSTORE PUSH13 0x14185E5BDD5D0819985A5B1959 PUSH1 0x9A SHL PUSH1 0x44 DUP3 ADD MSTORE PUSH1 0x64 ADD PUSH2 0x6DB JUMP JUMPDEST PUSH1 0x1 PUSH1 0x1 PUSH1 0xA0 SHL SUB DUP4 AND PUSH1 0x0 DUP2 DUP2 MSTORE PUSH1 0xE PUSH1 0x20 SWAP1 DUP2 MSTORE PUSH1 0x40 SWAP2 DUP3 SWAP1 KECCAK256 PUSH1 0x6 DUP1 DUP3 ADD DUP1 SLOAD PUSH1 0x1 PUSH1 0xFF NOT SWAP2 DUP3 AND DUP2 OR SWAP1 SWAP3 SSTORE PUSH1 0x9 DUP1 SLOAD PUSH1 0x7 SWAP1 SWAP6 ADD SWAP5 SWAP1 SWAP5 SSTORE SWAP2 DUP11 ADD DUP1 SLOAD SWAP1 SWAP3 AND OR SWAP1 SSTORE SLOAD SWAP2 MLOAD DUP6 DUP2 MSTORE PUSH32 0x14300F2034FCADFA0BAD884BE9053652F78F5FD8054B2E0741293049171747F SWAP2 ADD PUSH1 0x40 MLOAD DUP1 SWAP2 SUB SWAP1 LOG3 PUSH1 0xB SLOAD PUSH1 0x9 SLOAD LT PUSH2 0x155A JUMPI PUSH2 0x1555 PUSH2 0x1611 JUMP JUMPDEST PUSH2 0x157A JUMP JUMPDEST PUSH1 0x9 DUP1 SLOAD SWAP1 PUSH1 0x0 PUSH2 0x156A DUP4 PUSH2 0x1A28 JUMP JUMPDEST SWAP2 SWAP1 POP SSTORE POP PUSH2 0x157A PUSH1 0x9 SLOAD PUSH2 0x1580 JUMP JUMPDEST POP POP POP POP JUMP JUMPDEST PUSH1 0x0 DUP2 DUP2 MSTORE PUSH1 0xF PUSH1 0x20 MSTORE PUSH1 0x40 SWAP1 KECCAK256 DUP2 DUP2 SSTORE TIMESTAMP PUSH1 0x1 DUP3 ADD DUP2 SWAP1 SSTORE PUSH1 0x3 SLOAD PUSH2 0x15A5 SWAP2 PUSH2 0x19D3 JUMP JUMPDEST PUSH1 0x2 DUP3 ADD SSTORE PUSH2 0x15B2 PUSH2 0x178B JUMP JUMPDEST PUSH1 0x3 DUP3 ADD DUP1 SLOAD PUSH1 0x1 PUSH1 0x1 PUSH1 0xA0 SHL SUB NOT AND PUSH1 0x1 PUSH1 0x1 PUSH1 0xA0 SHL SUB SWAP3 SWAP1 SWAP3 AND SWAP2 DUP3 OR SWAP1 SSTORE PUSH1 0x2 DUP3 ADD SLOAD PUSH1 0x40 MLOAD SWAP1 DUP2 MSTORE DUP4 SWAP1 PUSH32 0x578960F76997475AF77B7EB5B6B4544E5CC867DE28B8BCC9052753DE5EF6687F SWAP1 PUSH1 0x20 ADD PUSH1 0x40 MLOAD DUP1 SWAP2 SUB SWAP1 LOG3 POP POP JUMP JUMPDEST PUSH1 0x8 DUP1 SLOAD PUSH2 0xFF00 NOT AND PUSH2 0x300 OR SWAP1 SSTORE PUSH1 0x0 JUMPDEST PUSH1 0xD SLOAD DUP2 LT ISZERO PUSH2 0x1755 JUMPI PUSH1 0x0 PUSH1 0xD DUP3 DUP2 SLOAD DUP2 LT PUSH2 0x1642 JUMPI PUSH2 0x1642 PUSH2 0x1A41 JUMP JUMPDEST PUSH1 0x0 SWAP2 DUP3 MSTORE PUSH1 0x20 DUP1 DUP4 KECCAK256 SWAP1 SWAP2 ADD SLOAD PUSH1 0x1 PUSH1 0x1 PUSH1 0xA0 SHL SUB AND DUP1 DUP4 MSTORE PUSH1 0xE SWAP1 SWAP2 MSTORE PUSH1 0x40 SWAP1 SWAP2 KECCAK256 SLOAD SWAP1 SWAP2 POP PUSH1 0xFF AND DUP1 ISZERO PUSH2 0x1693 JUMPI POP PUSH1 0x1 PUSH1 0x1 PUSH1 0xA0 SHL SUB DUP2 AND PUSH1 0x0 SWAP1 DUP2 MSTORE PUSH1 0xE PUSH1 0x20 MSTORE PUSH1 0x40 SWAP1 KECCAK256 PUSH1 0x2 ADD SLOAD ISZERO ISZERO JUMPDEST ISZERO PUSH2 0x1742 JUMPI PUSH1 0x1 PUSH1 0x1 PUSH1 0xA0 SHL SUB DUP2 AND PUSH1 0x0 DUP2 DUP2 MSTORE PUSH1 0xE PUSH1 0x20 MSTORE PUSH1 0x40 DUP1 DUP3 KECCAK256 PUSH1 0x2 ADD DUP1 SLOAD SWAP1 DUP4 SWAP1 SSTORE SWAP1 MLOAD SWAP1 SWAP3 SWAP1 DUP4 SWAP1 DUP4 DUP2 DUP2 DUP2 DUP6 DUP8 GAS CALL SWAP3 POP POP POP RETURNDATASIZE DUP1 PUSH1 0x0 DUP2 EQ PUSH2 0x16F9 JUMPI PUSH1 0x40 MLOAD SWAP2 POP PUSH1 0x1F NOT PUSH1 0x3F RETURNDATASIZE ADD AND DUP3 ADD PUSH1 0x40 MSTORE RETURNDATASIZE DUP3 MSTORE RETURNDATASIZE PUSH1 0x0 PUSH1 0x20 DUP5 ADD RETURNDATACOPY PUSH2 0x16FE JUMP JUMPDEST PUSH1 0x60 SWAP2 POP JUMPDEST POP POP SWAP1 POP DUP1 PUSH2 0x173F JUMPI PUSH1 0x40 MLOAD PUSH3 0x461BCD PUSH1 0xE5 SHL DUP2 MSTORE PUSH1 0x20 PUSH1 0x4 DUP3 ADD MSTORE PUSH1 0xD PUSH1 0x24 DUP3 ADD MSTORE PUSH13 0x1499599D5B990819985A5B1959 PUSH1 0x9A SHL PUSH1 0x44 DUP3 ADD MSTORE PUSH1 0x64 ADD PUSH2 0x6DB JUMP JUMPDEST POP POP JUMPDEST POP DUP1 PUSH2 0x174D DUP2 PUSH2 0x1A28 JUMP JUMPDEST SWAP2 POP POP PUSH2 0x1623 JUMP JUMPDEST POP PUSH1 0x40 MLOAD TIMESTAMP DUP2 MSTORE PUSH32 0xD57799724D5C069E66ABD552ACA9BC70E8F36D98F34D0D84841983BC469A4E4A SWAP1 PUSH1 0x20 ADD PUSH1 0x40 MLOAD DUP1 SWAP2 SUB SWAP1 LOG1 JUMP JUMPDEST PUSH1 0x0 JUMPDEST PUSH1 0x10 SLOAD PUSH1 0x11 SLOAD LT ISZERO PUSH2 0x1831 JUMPI PUSH1 0x0 PUSH1 0x10 PUSH1 0x11 SLOAD DUP2 SLOAD DUP2 LT PUSH2 0x17B1 JUMPI PUSH2 0x17B1 PUSH2 0x1A41 JUMP JUMPDEST PUSH1 0x0 SWAP2 DUP3 MSTORE PUSH1 0x20 DUP3 KECCAK256 ADD SLOAD PUSH1 0x11 DUP1 SLOAD PUSH1 0x1 PUSH1 0x1 PUSH1 0xA0 SHL SUB SWAP1 SWAP3 AND SWAP4 POP SWAP1 SWAP2 PUSH2 0x17D8 DUP4 PUSH2 0x1A28 JUMP JUMPDEST SWAP1 SWAP2 SSTORE POP POP PUSH1 0x1 PUSH1 0x1 PUSH1 0xA0 SHL SUB DUP2 AND PUSH1 0x0 SWAP1 DUP2 MSTORE PUSH1 0xE PUSH1 0x20 MSTORE PUSH1 0x40 SWAP1 KECCAK256 SLOAD PUSH1 0xFF AND DUP1 ISZERO PUSH2 0x1821 JUMPI POP PUSH1 0x1 PUSH1 0x1 PUSH1 0xA0 SHL SUB DUP2 AND PUSH1 0x0 SWAP1 DUP2 MSTORE PUSH1 0xE PUSH1 0x20 MSTORE PUSH1 0x40 SWAP1 KECCAK256 PUSH1 0x6 ADD SLOAD PUSH1 0xFF AND ISZERO JUMPDEST ISZERO PUSH2 0x182B JUMPI SWAP2 SWAP1 POP JUMP JUMPDEST POP PUSH2 0x178E JUMP JUMPDEST PUSH1 0x40 MLOAD PUSH3 0x461BCD PUSH1 0xE5 SHL DUP2 MSTORE PUSH1 0x20 PUSH1 0x4 DUP3 ADD MSTORE PUSH1 0x18 PUSH1 0x24 DUP3 ADD MSTORE PUSH32 0x4E6F20656C696769626C652077696E6E657220666F756E640000000000000000 PUSH1 0x44 DUP3 ADD MSTORE PUSH1 0x64 ADD PUSH2 0x6DB JUMP JUMPDEST PUSH1 0x0 PUSH1 0x20 DUP3 DUP5 SUB SLT ISZERO PUSH2 0x188B JUMPI PUSH1 0x0 DUP1 REVERT JUMPDEST DUP2 CALLDATALOAD PUSH1 0x1 PUSH1 0x1 PUSH1 0xA0 SHL SUB DUP2 AND DUP2 EQ PUSH2 0x18A2 JUMPI PUSH1 0x0 DUP1 REVERT JUMPDEST SWAP4 SWAP3 POP POP POP JUMP JUMPDEST PUSH1 0x0 PUSH1 0x20 DUP3 DUP5 SUB SLT ISZERO PUSH2 0x18BB JUMPI PUSH1 0x0 DUP1 REVERT JUMPDEST POP CALLDATALOAD SWAP2 SWAP1 POP JUMP JUMPDEST PUSH4 0x4E487B71 PUSH1 0xE0 SHL PUSH1 0x0 MSTORE PUSH1 0x21 PUSH1 0x4 MSTORE PUSH1 0x24 PUSH1 0x0 REVERT JUMPDEST PUSH1 0x20 DUP2 ADD PUSH1 0x5 DUP4 LT PUSH2 0x18FA JUMPI PUSH4 0x4E487B71 PUSH1 0xE0 SHL PUSH1 0x0 MSTORE PUSH1 0x21 PUSH1 0x4 MSTORE PUSH1 0x24 PUSH1 0x0 REVERT JUMPDEST SWAP2 SWAP1 MSTORE SWAP1 JUMP JUMPDEST PUSH1 0x0 DUP1 PUSH1 0x20 DUP4 DUP6 SUB SLT ISZERO PUSH2 0x1913 JUMPI PUSH1 0x0 DUP1 REVERT JUMPDEST DUP3 CALLDATALOAD PUSH8 0xFFFFFFFFFFFFFFFF DUP1 DUP3 GT ISZERO PUSH2 0x192B JUMPI PUSH1 0x0 DUP1 REVERT JUMPDEST DUP2 DUP6 ADD SWAP2 POP DUP6 PUSH1 0x1F DUP4 ADD SLT PUSH2 0x193F JUMPI PUSH1 0x0 DUP1 REVERT JUMPDEST DUP2 CALLDATALOAD DUP2 DUP2 GT ISZERO PUSH2 0x194E JUMPI PUSH1 0x0 DUP1 REVERT JUMPDEST DUP7 PUSH1 0x20 DUP3 DUP6 ADD ADD GT ISZERO PUSH2 0x1960 JUMPI PUSH1 0x0 DUP1 REVERT JUMPDEST PUSH1 0x20 SWAP3 SWAP1 SWAP3 ADD SWAP7 SWAP2 SWAP6 POP SWAP1 SWAP4 POP POP POP POP JUMP JUMPDEST PUSH4 0x4E487B71 PUSH1 0xE0 SHL PUSH1 0x0 MSTORE PUSH1 0x11 PUSH1 0x4 MSTORE PUSH1 0x24 PUSH1 0x0 REVERT JUMPDEST DUP1 DUP3 MUL DUP2 ISZERO DUP3 DUP3 DIV DUP5 EQ OR PUSH2 0x199F JUMPI PUSH2 0x199F PUSH2 0x1972 JUMP JUMPDEST SWAP3 SWAP2 POP POP JUMP JUMPDEST PUSH1 0x20 DUP1 DUP3 MSTORE PUSH1 0x14 SWAP1 DUP3 ADD MSTORE PUSH20 0x496E76616C696420524F53434120737461747573 PUSH1 0x60 SHL PUSH1 0x40 DUP3 ADD MSTORE PUSH1 0x60 ADD SWAP1 JUMP JUMPDEST DUP1 DUP3 ADD DUP1 DUP3 GT ISZERO PUSH2 0x199F JUMPI PUSH2 0x199F PUSH2 0x1972 JUMP JUMPDEST DUP2 DUP2 SUB DUP2 DUP2 GT ISZERO PUSH2 0x199F JUMPI PUSH2 0x199F PUSH2 0x1972 JUMP JUMPDEST PUSH1 0x20 DUP2 MSTORE DUP2 PUSH1 0x20 DUP3 ADD MSTORE DUP2 DUP4 PUSH1 0x40 DUP4 ADD CALLDATACOPY PUSH1 0x0 DUP2 DUP4 ADD PUSH1 0x40 SWAP1 DUP2 ADD SWAP2 SWAP1 SWAP2 MSTORE PUSH1 0x1F SWAP1 SWAP3 ADD PUSH1 0x1F NOT AND ADD ADD SWAP2 SWAP1 POP JUMP JUMPDEST PUSH1 0x0 PUSH1 0x1 DUP3 ADD PUSH2 0x1A3A JUMPI PUSH2 0x1A3A PUSH2 0x1972 JUMP JUMPDEST POP PUSH1 0x1 ADD SWAP1 JUMP JUMPDEST PUSH4 0x4E487B71 PUSH1 0xE0 SHL PUSH1 0x0 MSTORE PUSH1 0x32 PUSH1 0x4 MSTORE PUSH1 0x24 PUSH1 0x0 REVERT INVALID LOG2 PUSH5 0x6970667358 0x22 SLT KECCAK256 SWAP13 SELFDESTRUCT DUP16 0x1F 0xB9 0xCF 0xD0 0xA5 0xCC SWAP14 PUSH14 0x318C72D84C7DD1711A0ADC9C24CF SWAP14 GASPRICE CHAINID DUP10 MOD 0xC9 EXP PUSH5 0x736F6C6343 STOP ADDMOD EQ STOP CALLER LOG2 PUSH5 0x6970667358 0x22 SLT KECCAK256 0xCF 0xDC SWAP12 CREATE2 0xAC 0xCE EXTCODEHASH STATICCALL XOR PUSH6 0xA10299A20793 0xC4 PUSH24 0x2384F05072BE354E40BA3750A41E64736F6C634300081400 CALLER "},"methodIdentifiers":{"createROSCA(uint256,uint256,uint256)":"6b4b87ab","creationFee()":"dce0b4e4","deactivateROSCA(uint256,string)":"dfc5b7db","deployedROSCAs(uint256)":"ac9aaa2a","emergencyWithdraw()":"db2e21bc","feeCollector()":"c415b95c","getActiveROSCACount()":"db76d533","getFactoryStats()":"c9226445","getROSCADetails(uint256)":"3173dab7","getUserROSCAs(address)":"207eba99","owner()":"8da5cb5b","renounceOwnership()":"715018a6","totalROSCAsCreated()":"6859dd6e","transferOwnership(address)":"f2fde38b","updateCreationFee(uint256)":"6fa23795","updateFeeCollector(address)":"d2c35ce8","userROSCAs(address,uint256)":"c603e973"}}}}}