{
  "_format": "hh-sol-artifact-1",
  "contractName": "ROSCA",
  "sourceName": "contracts/ROSCA.sol",
  "abi": [
    {
      "inputs": [
        {
          "internalType": "uint256",
          "name": "_contributionAmount",
          "type": "uint256"
        },
        {
          "internalType": "uint256",
          "name": "_roundDuration",
          "type": "uint256"
        },
        {
          "internalType": "uint256",
          "name": "_maxMembers",
          "type": "uint256"
        },
        {
          "internalType": "address",
          "name": "_creator",
          "type": "address"
        }
      ],
      "stateMutability": "nonpayable",
      "type": "constructor"
    },
    {
      "inputs": [
        {
          "internalType": "address",
          "name": "owner",
          "type": "address"
        }
      ],
      "name": "OwnableInvalidOwner",
      "type": "error"
    },
    {
      "inputs": [
        {
          "internalType": "address",
          "name": "account",
          "type": "address"
        }
      ],
      "name": "OwnableUnauthorizedAccount",
      "type": "error"
    },
    {
      "inputs": [],
      "name": "ReentrancyGuardReentrantCall",
      "type": "error"
    },
    {
      "anonymous": false,
      "inputs": [
        {
          "indexed": true,
          "internalType": "address",
          "name": "member",
          "type": "address"
        },
        {
          "indexed": true,
          "internalType": "uint256",
          "name": "roundNumber",
          "type": "uint256"
        },
        {
          "indexed": false,
          "internalType": "uint256",
          "name": "amount",
          "type": "uint256"
        }
      ],
      "name": "ContributionMade",
      "type": "event"
    },
    {
      "anonymous": false,
      "inputs": [
        {
          "indexed": true,
          "internalType": "address",
          "name": "member",
          "type": "address"
        },
        {
          "indexed": false,
          "internalType": "uint256",
          "name": "timestamp",
          "type": "uint256"
        },
        {
          "indexed": false,
          "internalType": "uint256",
          "name": "depositAmount",
          "type": "uint256"
        }
      ],
      "name": "MemberJoined",
      "type": "event"
    },
    {
      "anonymous": false,
      "inputs": [
        {
          "indexed": true,
          "internalType": "address",
          "name": "member",
          "type": "address"
        },
        {
          "indexed": false,
          "internalType": "uint256",
          "name": "penaltyAmount",
          "type": "uint256"
        },
        {
          "indexed": false,
          "internalType": "string",
          "name": "reason",
          "type": "string"
        }
      ],
      "name": "MemberPenalized",
      "type": "event"
    },
    {
      "anonymous": false,
      "inputs": [
        {
          "indexed": true,
          "internalType": "address",
          "name": "previousOwner",
          "type": "address"
        },
        {
          "indexed": true,
          "internalType": "address",
          "name": "newOwner",
          "type": "address"
        }
      ],
      "name": "OwnershipTransferred",
      "type": "event"
    },
    {
      "anonymous": false,
      "inputs": [
        {
          "indexed": false,
          "internalType": "string",
          "name": "reason",
          "type": "string"
        }
      ],
      "name": "ROSCACancelled",
      "type": "event"
    },
    {
      "anonymous": false,
      "inputs": [
        {
          "indexed": false,
          "internalType": "uint256",
          "name": "timestamp",
          "type": "uint256"
        }
      ],
      "name": "ROSCACompleted",
      "type": "event"
    },
    {
      "anonymous": false,
      "inputs": [
        {
          "indexed": false,
          "internalType": "uint256",
          "name": "timestamp",
          "type": "uint256"
        }
      ],
      "name": "ROSCAStarted",
      "type": "event"
    },
    {
      "anonymous": false,
      "inputs": [
        {
          "indexed": false,
          "internalType": "uint256",
          "name": "timestamp",
          "type": "uint256"
        },
        {
          "indexed": false,
          "internalType": "uint256",
          "name": "gracePeriodEnd",
          "type": "uint256"
        }
      ],
      "name": "RecruitmentComplete",
      "type": "event"
    },
    {
      "anonymous": false,
      "inputs": [
        {
          "indexed": true,
          "internalType": "uint256",
          "name": "roundNumber",
          "type": "uint256"
        },
        {
          "indexed": true,
          "internalType": "address",
          "name": "winner",
          "type": "address"
        },
        {
          "indexed": false,
          "internalType": "uint256",
          "name": "payout",
          "type": "uint256"
        }
      ],
      "name": "RoundCompleted",
      "type": "event"
    },
    {
      "anonymous": false,
      "inputs": [
        {
          "indexed": true,
          "internalType": "uint256",
          "name": "roundNumber",
          "type": "uint256"
        },
        {
          "indexed": false,
          "internalType": "uint256",
          "name": "deadline",
          "type": "uint256"
        },
        {
          "indexed": true,
          "internalType": "address",
          "name": "winner",
          "type": "address"
        }
      ],
      "name": "RoundStarted",
      "type": "event"
    },
    {
      "inputs": [
        {
          "internalType": "string",
          "name": "reason",
          "type": "string"
        }
      ],
      "name": "cancelROSCA",
      "outputs": [],
      "stateMutability": "nonpayable",
      "type": "function"
    },
    {
      "inputs": [],
      "name": "completeRound",
      "outputs": [],
      "stateMutability": "nonpayable",
      "type": "function"
    },
    {
      "inputs": [],
      "name": "contribute",
      "outputs": [],
      "stateMutability": "payable",
      "type": "function"
    },
    {
      "inputs": [],
      "name": "contributionAmount",
      "outputs": [
        {
          "internalType": "uint256",
          "name": "",
          "type": "uint256"
        }
      ],
      "stateMutability": "view",
      "type": "function"
    },
    {
      "inputs": [],
      "name": "currentRound",
      "outputs": [
        {
          "internalType": "uint256",
          "name": "",
          "type": "uint256"
        }
      ],
      "stateMutability": "view",
      "type": "function"
    },
    {
      "inputs": [],
      "name": "depositMultiplier",
      "outputs": [
        {
          "internalType": "uint256",
          "name": "",
          "type": "uint256"
        }
      ],
      "stateMutability": "view",
      "type": "function"
    },
    {
      "inputs": [],
      "name": "forceStart",
      "outputs": [],
      "stateMutability": "nonpayable",
      "type": "function"
    },
    {
      "inputs": [],
      "name": "getRequiredDeposit",
      "outputs": [
        {
          "internalType": "uint256",
          "name": "",
          "type": "uint256"
        }
      ],
      "stateMutability": "view",
      "type": "function"
    },
    {
      "inputs": [
        {
          "internalType": "uint256",
          "name": "roundNumber",
          "type": "uint256"
        }
      ],
      "name": "getRoundInfo",
      "outputs": [
        {
          "internalType": "uint256",
          "name": "startTime",
          "type": "uint256"
        },
        {
          "internalType": "uint256",
          "name": "deadline",
          "type": "uint256"
        },
        {
          "internalType": "address",
          "name": "winner",
          "type": "address"
        },
        {
          "internalType": "uint256",
          "name": "totalPot",
          "type": "uint256"
        },
        {
          "internalType": "uint256",
          "name": "contributionsReceived",
          "type": "uint256"
        },
        {
          "internalType": "bool",
          "name": "isCompleted",
          "type": "bool"
        }
      ],
      "stateMutability": "view",
      "type": "function"
    },
    {
      "inputs": [],
      "name": "getTimeUntilRoundEnd",
      "outputs": [
        {
          "internalType": "uint256",
          "name": "",
          "type": "uint256"
        }
      ],
      "stateMutability": "view",
      "type": "function"
    },
    {
      "inputs": [],
      "name": "getTimeUntilStart",
      "outputs": [
        {
          "internalType": "uint256",
          "name": "",
          "type": "uint256"
        }
      ],
      "stateMutability": "view",
      "type": "function"
    },
    {
      "inputs": [],
      "name": "gracePeriod",
      "outputs": [
        {
          "internalType": "uint256",
          "name": "",
          "type": "uint256"
        }
      ],
      "stateMutability": "view",
      "type": "function"
    },
    {
      "inputs": [],
      "name": "joinROSCA",
      "outputs": [],
      "stateMutability": "payable",
      "type": "function"
    },
    {
      "inputs": [],
      "name": "maxMembers",
      "outputs": [
        {
          "internalType": "uint256",
          "name": "",
          "type": "uint256"
        }
      ],
      "stateMutability": "view",
      "type": "function"
    },
    {
      "inputs": [],
      "name": "maxMissedRounds",
      "outputs": [
        {
          "internalType": "uint256",
          "name": "",
          "type": "uint256"
        }
      ],
      "stateMutability": "view",
      "type": "function"
    },
    {
      "inputs": [
        {
          "internalType": "address",
          "name": "",
          "type": "address"
        }
      ],
      "name": "members",
      "outputs": [
        {
          "internalType": "bool",
          "name": "isActive",
          "type": "bool"
        },
        {
          "internalType": "uint256",
          "name": "joinTimestamp",
          "type": "uint256"
        },
        {
          "internalType": "uint256",
          "name": "depositAmount",
          "type": "uint256"
        },
        {
          "internalType": "uint256",
          "name": "totalContributions",
          "type": "uint256"
        },
        {
          "internalType": "uint256",
          "name": "roundsPaid",
          "type": "uint256"
        },
        {
          "internalType": "uint256",
          "name": "missedRounds",
          "type": "uint256"
        },
        {
          "internalType": "bool",
          "name": "hasReceivedPayout",
          "type": "bool"
        },
        {
          "internalType": "uint256",
          "name": "payoutRound",
          "type": "uint256"
        }
      ],
      "stateMutability": "view",
      "type": "function"
    },
    {
      "inputs": [
        {
          "internalType": "uint256",
          "name": "",
          "type": "uint256"
        }
      ],
      "name": "membersList",
      "outputs": [
        {
          "internalType": "address",
          "name": "",
          "type": "address"
        }
      ],
      "stateMutability": "view",
      "type": "function"
    },
    {
      "inputs": [],
      "name": "nextPayoutIndex",
      "outputs": [
        {
          "internalType": "uint256",
          "name": "",
          "type": "uint256"
        }
      ],
      "stateMutability": "view",
      "type": "function"
    },
    {
      "inputs": [],
      "name": "owner",
      "outputs": [
        {
          "internalType": "address",
          "name": "",
          "type": "address"
        }
      ],
      "stateMutability": "view",
      "type": "function"
    },
    {
      "inputs": [
        {
          "internalType": "uint256",
          "name": "",
          "type": "uint256"
        }
      ],
      "name": "payoutOrder",
      "outputs": [
        {
          "internalType": "address",
          "name": "",
          "type": "address"
        }
      ],
      "stateMutability": "view",
      "type": "function"
    },
    {
      "inputs": [],
      "name": "recruitmentCompleteTime",
      "outputs": [
        {
          "internalType": "uint256",
          "name": "",
          "type": "uint256"
        }
      ],
      "stateMutability": "view",
      "type": "function"
    },
    {
      "inputs": [],
      "name": "renounceOwnership",
      "outputs": [],
      "stateMutability": "nonpayable",
      "type": "function"
    },
    {
      "inputs": [],
      "name": "roundDuration",
      "outputs": [
        {
          "internalType": "uint256",
          "name": "",
          "type": "uint256"
        }
      ],
      "stateMutability": "view",
      "type": "function"
    },
    {
      "inputs": [
        {
          "internalType": "uint256",
          "name": "",
          "type": "uint256"
        }
      ],
      "name": "rounds",
      "outputs": [
        {
          "internalType": "uint256",
          "name": "roundNumber",
          "type": "uint256"
        },
        {
          "internalType": "uint256",
          "name": "startTime",
          "type": "uint256"
        },
        {
          "internalType": "uint256",
          "name": "deadline",
          "type": "uint256"
        },
        {
          "internalType": "address",
          "name": "winner",
          "type": "address"
        },
        {
          "internalType": "uint256",
          "name": "totalPot",
          "type": "uint256"
        },
        {
          "internalType": "uint256",
          "name": "contributionsReceived",
          "type": "uint256"
        },
        {
          "internalType": "bool",
          "name": "isCompleted",
          "type": "bool"
        }
      ],
      "stateMutability": "view",
      "type": "function"
    },
    {
      "inputs": [],
      "name": "startROSCA",
      "outputs": [],
      "stateMutability": "nonpayable",
      "type": "function"
    },
    {
      "inputs": [],
      "name": "status",
      "outputs": [
        {
          "internalType": "enum ROSCA.ROSCAStatus",
          "name": "",
          "type": "uint8"
        }
      ],
      "stateMutability": "view",
      "type": "function"
    },
    {
      "inputs": [],
      "name": "totalMembers",
      "outputs": [
        {
          "internalType": "uint256",
          "name": "",
          "type": "uint256"
        }
      ],
      "stateMutability": "view",
      "type": "function"
    },
    {
      "inputs": [],
      "name": "totalRounds",
      "outputs": [
        {
          "internalType": "uint256",
          "name": "",
          "type": "uint256"
        }
      ],
      "stateMutability": "view",
      "type": "function"
    },
    {
      "inputs": [
        {
          "internalType": "address",
          "name": "newOwner",
          "type": "address"
        }
      ],
      "name": "transferOwnership",
      "outputs": [],
      "stateMutability": "nonpayable",
      "type": "function"
    },
    {
      "stateMutability": "payable",
      "type": "receive"
    }
  ],
  "bytecode": "0x6080604052600260058190556202a3006006556007556008805461ff001916905560006009819055600a819055600b8190556011553480156200004157600080fd5b5060405162001e8738038062001e87833981016040819052620000649162000371565b6001600055806001600160a01b0381166200009a57604051631e4fbdf760e01b8152600060048201526024015b60405180910390fd5b620000a581620001e8565b506002821015620000f95760405162461bcd60e51b815260206004820152601760248201527f4e656564206174206c656173742032206d656d62657273000000000000000000604482015260640162000091565b600084116200014b5760405162461bcd60e51b815260206004820152601860248201527f436f6e747269627574696f6e206d757374206265203e20300000000000000000604482015260640162000091565b62015180831015620001925760405162461bcd60e51b815260206004820152600f60248201526e149bdd5b99081d1bdbc81cda1bdc9d608a1b604482015260640162000091565b600284905560038390556004829055600b8290556001600160a01b03811615801590620001bf5750600082115b15620001de57620001d0816200023a565b6008805460ff191660011790555b50505050620003ea565b600180546001600160a01b038381166001600160a01b0319831681179093556040519116919082907f8be0079c531659141344cd1fd0a4f28419497f9722a3daafe3b4186f6b6457e090600090a35050565b604080516101008101825260018082524260208084019182526000848601818152606086018281526080870183815260a0880184815260c0890185815260e08a018681526001600160a01b038d16808852600e9098529a862099518a5490151560ff19918216178b5597518a8a0155935160028a0155915160038901555160048801555160058701555160068601805491151591909416179092559351600790930192909255600d80548083019091557fd7b6990105719101dabeb77144f2a3385c8033acd3af97e9423a695e81ad1eb50180546001600160a01b0319908116851790915560108054928301815583527f1b6847dc741a1b0cd08d278845f9d819d87b734759afb55fe2de5cb82a9ae6729091018054909116909217909155600a8054916200036983620003c2565b919050555050565b600080600080608085870312156200038857600080fd5b845160208601516040870151606088015192965090945092506001600160a01b0381168114620003b757600080fd5b939692955090935050565b600060018201620003e357634e487b7160e01b600052601160045260246000fd5b5060010190565b611a8d80620003fa6000396000f3fe6080604052600436106101c65760003560e01c80637bdb04ec116100f7578063a06db7dc11610095578063f2fde38b11610064578063f2fde38b146105e6578063f7cb789a14610606578063fd3a949f1461061c578063ff85fba21461063157600080fd5b8063a06db7dc1461059d578063bb9d01a4146105b3578063bf4386a0146105c8578063d7bb99ba146105de57600080fd5b80638a568299116100d15780638a568299146104b05780638be48547146104c65780638c65c81f146104db5780638da5cb5b1461057f57600080fd5b80637bdb04ec146103db57806388c3ffb0146103fb5780638a19c8bc1461049a57600080fd5b806358e56db411610164578063605f80831161013e578063605f8083146103855780636766d1ba1461039b578063715018a6146103b057806376e92559146103c557600080fd5b806358e56db4146103505780635956fdcd146103655780635fa0b65f1461036f57600080fd5b806313b8ad31116101a057806313b8ad31146102d85780631724969a146102f8578063200d2ed21461030e5780633fe071be1461033a57600080fd5b806308ae4b0c146101d25780630b529a171461027c578063134200e5146102b457600080fd5b366101cd57005b600080fd5b3480156101de57600080fd5b506102386101ed366004611879565b600e602052600090815260409020805460018201546002830154600384015460048501546005860154600687015460079097015460ff96871697959694959394929391929091169088565b6040805198151589526020890197909752958701949094526060860192909252608085015260a0840152151560c083015260e0820152610100015b60405180910390f35b34801561028857600080fd5b5061029c6102973660046118a9565b610646565b6040516001600160a01b039091168152602001610273565b3480156102c057600080fd5b506102ca600c5481565b604051908152602001610273565b3480156102e457600080fd5b5061029c6102f33660046118a9565b610670565b34801561030457600080fd5b506102ca60055481565b34801561031a57600080fd5b5060085461032d90610100900460ff1681565b60405161027391906118d8565b34801561034657600080fd5b506102ca60115481565b34801561035c57600080fd5b506102ca610680565b61036d610697565b005b34801561037b57600080fd5b506102ca60025481565b34801561039157600080fd5b506102ca60075481565b3480156103a757600080fd5b506102ca6108ac565b3480156103bc57600080fd5b5061036d61090a565b3480156103d157600080fd5b506102ca600a5481565b3480156103e757600080fd5b5061036d6103f6366004611900565b61091c565b34801561040757600080fd5b5061045d6104163660046118a9565b6000908152600f6020526040902060018101546002820154600383015460048401546005850154600690950154939592946001600160a01b0390921693909260ff90911690565b6040805196875260208701959095526001600160a01b039093169385019390935260608401526080830191909152151560a082015260c001610273565b3480156104a657600080fd5b506102ca60095481565b3480156104bc57600080fd5b506102ca600b5481565b3480156104d257600080fd5b5061036d6109dc565b3480156104e757600080fd5b506105406104f63660046118a9565b600f6020526000908152604090208054600182015460028301546003840154600485015460058601546006909601549495939492936001600160a01b039092169290919060ff1687565b604080519788526020880196909652948601939093526001600160a01b039091166060850152608084015260a0830152151560c082015260e001610273565b34801561058b57600080fd5b506001546001600160a01b031661029c565b3480156105a957600080fd5b506102ca60065481565b3480156105bf57600080fd5b5061036d610ad2565b3480156105d457600080fd5b506102ca60045481565b61036d610c0d565b3480156105f257600080fd5b5061036d610601366004611879565b610f33565b34801561061257600080fd5b506102ca60035481565b34801561062857600080fd5b506102ca610f6e565b34801561063d57600080fd5b5061036d610fca565b6010818154811061065657600080fd5b6000918252602090912001546001600160a01b0316905081565b600d818154811061065657600080fd5b60006005546002546106929190611988565b905090565b61069f61100e565b600080600854610100900460ff1660048111156106be576106be6118c2565b146106e45760405162461bcd60e51b81526004016106db906119a5565b60405180910390fd5b600454600a54106107275760405162461bcd60e51b815260206004820152600d60248201526c1493d4d0d0481a5cc8199d5b1b609a1b60448201526064016106db565b336000908152600e602052604090205460ff161561077a5760405162461bcd60e51b815260206004820152601060248201526f20b63932b0b23c90309036b2b6b132b960811b60448201526064016106db565b600060055460025461078c9190611988565b90508034146107dd5760405162461bcd60e51b815260206004820152601860248201527f496e636f7272656374206465706f73697420616d6f756e74000000000000000060448201526064016106db565b6107e633611038565b336000818152600e602090815260409182902060020184905581514281529081018490527fab585a62abffb5c5f3221cacd949f94b54770198cc25af3ad1d315e51be8e3e3910160405180910390a2600454600a540361089e576008805461ff00191661010017905542600c8190556006547f3356ec9443b31b2e7d0a90086b0da20c9eb480fabb47ebd92ede27dd427efd81919061088590826119d3565b6040805192835260208301919091520160405180910390a15b50506108aa6001600055565b565b60006001600854610100900460ff1660048111156108cc576108cc6118c2565b146108d75750600090565b6000600654600c546108e991906119d3565b90508042106108fa57600091505090565b61090442826119e6565b91505090565b61091261116d565b6108aa600061119a565b61092461116d565b6003600854610100900460ff166004811115610942576109426118c2565b0361098f5760405162461bcd60e51b815260206004820152601760248201527f524f53434120616c726561647920636f6d706c6574656400000000000000000060448201526064016106db565b6008805461ff0019166104001790556040517ff7b2275e9c2317fc762ef872047135a5255006085768792f663964422d974373906109d090849084906119f9565b60405180910390a15050565b600280600854610100900460ff1660048111156109fb576109fb6118c2565b14610a185760405162461bcd60e51b81526004016106db906119a5565b600060095411610a5c5760405162461bcd60e51b815260206004820152600f60248201526e139bc81858dd1a5d99481c9bdd5b99608a1b60448201526064016106db565b6009546000908152600f60205260409020600201544211610abf5760405162461bcd60e51b815260206004820152601960248201527f526f756e6420646561646c696e65206e6f74207061737365640000000000000060448201526064016106db565b610ac76111ec565b610acf6113cb565b50565b600180600854610100900460ff166004811115610af157610af16118c2565b14610b0e5760405162461bcd60e51b81526004016106db906119a5565b600654600c54610b1e91906119d3565b421015610b655760405162461bcd60e51b815260206004820152601560248201527423b930b1b2903832b934b7b2103737ba1037bb32b960591b60448201526064016106db565b6002600a541015610bb85760405162461bcd60e51b815260206004820152601760248201527f4e656564206174206c656173742032206d656d6265727300000000000000000060448201526064016106db565b6008805461ff00191661020017905560016009819055610bd790611580565b6040514281527fdb6b3ceb24eee167482a870c355049d6679c171af69d9c94d9babb5762b6be349060200160405180910390a150565b610c1561100e565b336000908152600e602052604090205460ff16610c6b5760405162461bcd60e51b81526020600482015260146024820152732737ba1030b71030b1ba34bb329036b2b6b132b960611b60448201526064016106db565b600280600854610100900460ff166004811115610c8a57610c8a6118c2565b14610ca75760405162461bcd60e51b81526004016106db906119a5565b600060095411610ceb5760405162461bcd60e51b815260206004820152600f60248201526e139bc81858dd1a5d99481c9bdd5b99608a1b60448201526064016106db565b6009546000908152600f60205260409020600681015460ff1615610d4b5760405162461bcd60e51b8152602060048201526017602482015276149bdd5b9908185b1c9958591e4818dbdb5c1b195d1959604a1b60448201526064016106db565b33600090815260078201602052604090205460ff1615610dad5760405162461bcd60e51b815260206004820152601e60248201527f416c726561647920636f6e7472696275746564207468697320726f756e64000060448201526064016106db565b8060020154421115610df95760405162461bcd60e51b8152602060048201526015602482015274149bdd5b9908191958591b1a5b99481c185cdcd959605a1b60448201526064016106db565b6002543414610e4a5760405162461bcd60e51b815260206004820152601860248201527f496e636f7272656374207061796d656e7420616d6f756e74000000000000000060448201526064016106db565b3360009081526007820160205260408120805460ff1916600117905560058201805491610e7683611a28565b9190505550600254816004016000828254610e9191906119d3565b9091555050600254336000908152600e602052604081206003018054909190610ebb9084906119d3565b9091555050336000908152600e60205260408120600401805491610ede83611a28565b909155505060095460025460405190815233907f5dc1fe5ab986a852c4eda8e8bb94247d13307065c593fb83f1a09be2736793829060200160405180910390a3600a5481600501540361089e5761089e6113cb565b610f3b61116d565b6001600160a01b038116610f6557604051631e4fbdf760e01b8152600060048201526024016106db565b610acf8161119a565b60006002600854610100900460ff166004811115610f8e57610f8e6118c2565b141580610f9b5750600954155b15610fa65750600090565b6009546000908152600f60205260409020600201544281116108fa57600091505090565b610fd261116d565b600180600854610100900460ff166004811115610ff157610ff16118c2565b14610b655760405162461bcd60e51b81526004016106db906119a5565b60026000540361103157604051633ee5aeb560e01b815260040160405180910390fd5b6002600055565b604080516101008101825260018082524260208084019182526000848601818152606086018281526080870183815260a0880184815260c0890185815260e08a018681526001600160a01b038d16808852600e9098529a862099518a5490151560ff19918216178b5597518a8a0155935160028a0155915160038901555160048801555160058701555160068601805491151591909416179092559351600790930192909255600d80548083019091557fd7b6990105719101dabeb77144f2a3385c8033acd3af97e9423a695e81ad1eb50180546001600160a01b0319908116851790915560108054928301815583527f1b6847dc741a1b0cd08d278845f9d819d87b734759afb55fe2de5cb82a9ae6729091018054909116909217909155600a80549161116583611a28565b919050555050565b6001546001600160a01b031633146108aa5760405163118cdaa760e01b81523360048201526024016106db565b600180546001600160a01b038381166001600160a01b0319831681179093556040519116919082907f8be0079c531659141344cd1fd0a4f28419497f9722a3daafe3b4186f6b6457e090600090a35050565b6009546000908152600f60205260408120905b600d548110156113c7576000600d828154811061121e5761121e611a41565b60009182526020808320909101546001600160a01b0316808352600e90915260409091205490915060ff16801561127057506001600160a01b038116600090815260078401602052604090205460ff16155b156113b4576001600160a01b0381166000908152600e6020526040812060050180549161129c83611a28565b90915550506007546001600160a01b0382166000908152600e602052604090206005015411156113b457600280546001600160a01b0383166000908152600e602052604090209091015481116113b2576001600160a01b0382166000908152600e6020526040812060020180548392906113179084906119e6565b925050819055508084600401600082825461133291906119d3565b92505081905550816001600160a01b03167f0c36021ba9160c37844a4fffe59606af0c44bb2336762fa830cc938c432d71e4826040516113a9918152604060208201819052601e908201527f457863657373697665206d697373656420636f6e747269627574696f6e730000606082015260800190565b60405180910390a25b505b50806113bf81611a28565b9150506111ff565b5050565b6009546000908152600f60205260409020600681015460ff161561142b5760405162461bcd60e51b8152602060048201526017602482015276149bdd5b9908185b1c9958591e4818dbdb5c1b195d1959604a1b60448201526064016106db565b600381015460048201546040516001600160a01b0390921691600090839083908381818185875af1925050503d8060008114611483576040519150601f19603f3d011682016040523d82523d6000602084013e611488565b606091505b50509050806114c95760405162461bcd60e51b815260206004820152600d60248201526c14185e5bdd5d0819985a5b1959609a1b60448201526064016106db565b6001600160a01b0383166000818152600e602090815260409182902060068082018054600160ff19918216811790925560098054600790950194909455918a0180549092161790555491518581527f014300f2034fcadfa0bad884be9053652f78f5fd8054b2e0741293049171747f910160405180910390a3600b546009541061155a57611555611611565b61157a565b6009805490600061156a83611a28565b919050555061157a600954611580565b50505050565b6000818152600f6020526040902081815542600182018190556003546115a5916119d3565b60028201556115b261178b565b6003820180546001600160a01b0319166001600160a01b03929092169182179055600282015460405190815283907f578960f76997475af77b7eb5b6b4544e5cc867de28b8bcc9052753de5ef6687f9060200160405180910390a35050565b6008805461ff00191661030017905560005b600d54811015611755576000600d828154811061164257611642611a41565b60009182526020808320909101546001600160a01b0316808352600e90915260409091205490915060ff16801561169357506001600160a01b0381166000908152600e602052604090206002015415155b15611742576001600160a01b0381166000818152600e6020526040808220600201805490839055905190929083908381818185875af1925050503d80600081146116f9576040519150601f19603f3d011682016040523d82523d6000602084013e6116fe565b606091505b505090508061173f5760405162461bcd60e51b815260206004820152600d60248201526c1499599d5b990819985a5b1959609a1b60448201526064016106db565b50505b508061174d81611a28565b915050611623565b506040514281527fd57799724d5c069e66abd552aca9bc70e8f36d98f34d0d84841983bc469a4e4a9060200160405180910390a1565b60005b60105460115410156118315760006010601154815481106117b1576117b1611a41565b6000918252602082200154601180546001600160a01b03909216935090916117d883611a28565b90915550506001600160a01b0381166000908152600e602052604090205460ff16801561182157506001600160a01b0381166000908152600e602052604090206006015460ff16155b1561182b57919050565b5061178e565b60405162461bcd60e51b815260206004820152601860248201527f4e6f20656c696769626c652077696e6e657220666f756e64000000000000000060448201526064016106db565b60006020828403121561188b57600080fd5b81356001600160a01b03811681146118a257600080fd5b9392505050565b6000602082840312156118bb57600080fd5b5035919050565b634e487b7160e01b600052602160045260246000fd5b60208101600583106118fa57634e487b7160e01b600052602160045260246000fd5b91905290565b6000806020838503121561191357600080fd5b823567ffffffffffffffff8082111561192b57600080fd5b818501915085601f83011261193f57600080fd5b81358181111561194e57600080fd5b86602082850101111561196057600080fd5b60209290920196919550909350505050565b634e487b7160e01b600052601160045260246000fd5b808202811582820484141761199f5761199f611972565b92915050565b602080825260149082015273496e76616c696420524f5343412073746174757360601b604082015260600190565b8082018082111561199f5761199f611972565b8181038181111561199f5761199f611972565b60208152816020820152818360408301376000818301604090810191909152601f909201601f19160101919050565b600060018201611a3a57611a3a611972565b5060010190565b634e487b7160e01b600052603260045260246000fdfea26469706673582212209cff8f1fb9cfd0a5cc9d6d318c72d84c7dd1711a0adc9c24cf9d3a468906c90a64736f6c63430008140033",
  "linkReferences": {},
  "deployedLinkReferences": {}
}